{
  "_format": "hh-sol-artifact-1",
  "contractName": "SecurityManager",
  "sourceName": "contracts/SecurityManager.sol",
  "abi": [
    {
      "inputs": [
        {
          "internalType": "address",
          "name": "_priceFeed",
          "type": "address"
        }
      ],
      "stateMutability": "nonpayable",
      "type": "constructor"
    },
    {
      "inputs": [],
      "name": "AccessControlBadConfirmation",
      "type": "error"
    },
    {
      "inputs": [
        {
          "internalType": "address",
          "name": "account",
          "type": "address"
        },
        {
          "internalType": "bytes32",
          "name": "neededRole",
          "type": "bytes32"
        }
      ],
      "name": "AccessControlUnauthorizedAccount",
      "type": "error"
    },
    {
      "inputs": [],
      "name": "EnforcedPause",
      "type": "error"
    },
    {
      "inputs": [],
      "name": "ExpectedPause",
      "type": "error"
    },
    {
      "inputs": [],
      "name": "ReentrancyGuardReentrantCall",
      "type": "error"
    },
    {
      "anonymous": false,
      "inputs": [
        {
          "indexed": true,
          "internalType": "address",
          "name": "target",
          "type": "address"
        },
        {
          "indexed": false,
          "internalType": "string",
          "name": "reason",
          "type": "string"
        },
        {
          "indexed": false,
          "internalType": "uint256",
          "name": "timestamp",
          "type": "uint256"
        }
      ],
      "name": "AddressBlacklisted",
      "type": "event"
    },
    {
      "anonymous": false,
      "inputs": [
        {
          "indexed": true,
          "internalType": "address",
          "name": "target",
          "type": "address"
        },
        {
          "indexed": false,
          "internalType": "string",
          "name": "reason",
          "type": "string"
        },
        {
          "indexed": false,
          "internalType": "uint256",
          "name": "blockTime",
          "type": "uint256"
        }
      ],
      "name": "CircuitBreakerTriggered",
      "type": "event"
    },
    {
      "anonymous": false,
      "inputs": [
        {
          "indexed": true,
          "internalType": "address",
          "name": "activator",
          "type": "address"
        },
        {
          "indexed": false,
          "internalType": "string",
          "name": "reason",
          "type": "string"
        },
        {
          "indexed": false,
          "internalType": "uint256",
          "name": "timestamp",
          "type": "uint256"
        }
      ],
      "name": "EmergencyModeActivated",
      "type": "event"
    },
    {
      "anonymous": false,
      "inputs": [
        {
          "indexed": false,
          "internalType": "address",
          "name": "account",
          "type": "address"
        }
      ],
      "name": "Paused",
      "type": "event"
    },
    {
      "anonymous": false,
      "inputs": [
        {
          "indexed": true,
          "internalType": "bytes32",
          "name": "role",
          "type": "bytes32"
        },
        {
          "indexed": true,
          "internalType": "bytes32",
          "name": "previousAdminRole",
          "type": "bytes32"
        },
        {
          "indexed": true,
          "internalType": "bytes32",
          "name": "newAdminRole",
          "type": "bytes32"
        }
      ],
      "name": "RoleAdminChanged",
      "type": "event"
    },
    {
      "anonymous": false,
      "inputs": [
        {
          "indexed": true,
          "internalType": "bytes32",
          "name": "role",
          "type": "bytes32"
        },
        {
          "indexed": true,
          "internalType": "address",
          "name": "account",
          "type": "address"
        },
        {
          "indexed": true,
          "internalType": "address",
          "name": "sender",
          "type": "address"
        }
      ],
      "name": "RoleGranted",
      "type": "event"
    },
    {
      "anonymous": false,
      "inputs": [
        {
          "indexed": true,
          "internalType": "bytes32",
          "name": "role",
          "type": "bytes32"
        },
        {
          "indexed": true,
          "internalType": "address",
          "name": "account",
          "type": "address"
        },
        {
          "indexed": true,
          "internalType": "address",
          "name": "sender",
          "type": "address"
        }
      ],
      "name": "RoleRevoked",
      "type": "event"
    },
    {
      "anonymous": false,
      "inputs": [
        {
          "indexed": true,
          "internalType": "uint256",
          "name": "eventId",
          "type": "uint256"
        },
        {
          "indexed": true,
          "internalType": "enum SecurityManager.EventType",
          "name": "eventType",
          "type": "uint8"
        },
        {
          "indexed": true,
          "internalType": "address",
          "name": "target",
          "type": "address"
        },
        {
          "indexed": false,
          "internalType": "uint256",
          "name": "value",
          "type": "uint256"
        },
        {
          "indexed": false,
          "internalType": "string",
          "name": "description",
          "type": "string"
        }
      ],
      "name": "SecurityEventTriggered",
      "type": "event"
    },
    {
      "anonymous": false,
      "inputs": [
        {
          "indexed": false,
          "internalType": "address",
          "name": "account",
          "type": "address"
        }
      ],
      "name": "Unpaused",
      "type": "event"
    },
    {
      "anonymous": false,
      "inputs": [
        {
          "indexed": true,
          "internalType": "address",
          "name": "vault",
          "type": "address"
        },
        {
          "indexed": false,
          "internalType": "uint256",
          "name": "oldRiskScore",
          "type": "uint256"
        },
        {
          "indexed": false,
          "internalType": "uint256",
          "name": "newRiskScore",
          "type": "uint256"
        }
      ],
      "name": "VaultSecurityProfileUpdated",
      "type": "event"
    },
    {
      "inputs": [],
      "name": "DEFAULT_ADMIN_ROLE",
      "outputs": [
        {
          "internalType": "bytes32",
          "name": "",
          "type": "bytes32"
        }
      ],
      "stateMutability": "view",
      "type": "function"
    },
    {
      "inputs": [],
      "name": "EMERGENCY_ROLE",
      "outputs": [
        {
          "internalType": "bytes32",
          "name": "",
          "type": "bytes32"
        }
      ],
      "stateMutability": "view",
      "type": "function"
    },
    {
      "inputs": [],
      "name": "MAX_DAILY_VOLUME",
      "outputs": [
        {
          "internalType": "uint256",
          "name": "",
          "type": "uint256"
        }
      ],
      "stateMutability": "view",
      "type": "function"
    },
    {
      "inputs": [],
      "name": "MAX_HOURLY_VOLUME",
      "outputs": [
        {
          "internalType": "uint256",
          "name": "",
          "type": "uint256"
        }
      ],
      "stateMutability": "view",
      "type": "function"
    },
    {
      "inputs": [],
      "name": "MAX_SINGLE_TRANSACTION",
      "outputs": [
        {
          "internalType": "uint256",
          "name": "",
          "type": "uint256"
        }
      ],
      "stateMutability": "view",
      "type": "function"
    },
    {
      "inputs": [],
      "name": "MONITOR_ROLE",
      "outputs": [
        {
          "internalType": "bytes32",
          "name": "",
          "type": "bytes32"
        }
      ],
      "stateMutability": "view",
      "type": "function"
    },
    {
      "inputs": [],
      "name": "PRICE_DEVIATION_THRESHOLD",
      "outputs": [
        {
          "internalType": "uint256",
          "name": "",
          "type": "uint256"
        }
      ],
      "stateMutability": "view",
      "type": "function"
    },
    {
      "inputs": [],
      "name": "SECURITY_ADMIN_ROLE",
      "outputs": [
        {
          "internalType": "bytes32",
          "name": "",
          "type": "bytes32"
        }
      ],
      "stateMutability": "view",
      "type": "function"
    },
    {
      "inputs": [],
      "name": "VELOCITY_THRESHOLD",
      "outputs": [
        {
          "internalType": "uint256",
          "name": "",
          "type": "uint256"
        }
      ],
      "stateMutability": "view",
      "type": "function"
    },
    {
      "inputs": [
        {
          "internalType": "address",
          "name": "target",
          "type": "address"
        },
        {
          "internalType": "string",
          "name": "reason",
          "type": "string"
        }
      ],
      "name": "blacklistAddress",
      "outputs": [],
      "stateMutability": "nonpayable",
      "type": "function"
    },
    {
      "inputs": [
        {
          "internalType": "address",
          "name": "",
          "type": "address"
        }
      ],
      "name": "blacklistedAddresses",
      "outputs": [
        {
          "internalType": "bool",
          "name": "",
          "type": "bool"
        }
      ],
      "stateMutability": "view",
      "type": "function"
    },
    {
      "inputs": [
        {
          "internalType": "uint256",
          "name": "",
          "type": "uint256"
        }
      ],
      "name": "dailyVolume",
      "outputs": [
        {
          "internalType": "uint256",
          "name": "",
          "type": "uint256"
        }
      ],
      "stateMutability": "view",
      "type": "function"
    },
    {
      "inputs": [
        {
          "internalType": "address",
          "name": "user",
          "type": "address"
        },
        {
          "internalType": "uint256",
          "name": "borrowAmount",
          "type": "uint256"
        },
        {
          "internalType": "uint256",
          "name": "repayAmount",
          "type": "uint256"
        },
        {
          "internalType": "uint256",
          "name": "duration",
          "type": "uint256"
        }
      ],
      "name": "detectFlashloanAttack",
      "outputs": [],
      "stateMutability": "nonpayable",
      "type": "function"
    },
    {
      "inputs": [
        {
          "internalType": "string",
          "name": "reason",
          "type": "string"
        }
      ],
      "name": "emergencyStop",
      "outputs": [],
      "stateMutability": "nonpayable",
      "type": "function"
    },
    {
      "inputs": [],
      "name": "emergencyTimeout",
      "outputs": [
        {
          "internalType": "uint256",
          "name": "",
          "type": "uint256"
        }
      ],
      "stateMutability": "view",
      "type": "function"
    },
    {
      "inputs": [],
      "name": "getCurrentSecurityLevel",
      "outputs": [
        {
          "internalType": "enum SecurityManager.SecurityLevel",
          "name": "level",
          "type": "uint8"
        }
      ],
      "stateMutability": "view",
      "type": "function"
    },
    {
      "inputs": [
        {
          "internalType": "bytes32",
          "name": "role",
          "type": "bytes32"
        }
      ],
      "name": "getRoleAdmin",
      "outputs": [
        {
          "internalType": "bytes32",
          "name": "",
          "type": "bytes32"
        }
      ],
      "stateMutability": "view",
      "type": "function"
    },
    {
      "inputs": [
        {
          "internalType": "uint256",
          "name": "eventId",
          "type": "uint256"
        }
      ],
      "name": "getSecurityEvent",
      "outputs": [
        {
          "components": [
            {
              "internalType": "uint256",
              "name": "id",
              "type": "uint256"
            },
            {
              "internalType": "enum SecurityManager.EventType",
              "name": "eventType",
              "type": "uint8"
            },
            {
              "internalType": "address",
              "name": "target",
              "type": "address"
            },
            {
              "internalType": "uint256",
              "name": "value",
              "type": "uint256"
            },
            {
              "internalType": "uint256",
              "name": "timestamp",
              "type": "uint256"
            },
            {
              "internalType": "string",
              "name": "description",
              "type": "string"
            },
            {
              "internalType": "bool",
              "name": "resolved",
              "type": "bool"
            }
          ],
          "internalType": "struct SecurityManager.SecurityEvent",
          "name": "event_",
          "type": "tuple"
        }
      ],
      "stateMutability": "view",
      "type": "function"
    },
    {
      "inputs": [
        {
          "internalType": "address",
          "name": "vault",
          "type": "address"
        }
      ],
      "name": "getVaultSecurityProfile",
      "outputs": [
        {
          "components": [
            {
              "internalType": "uint256",
              "name": "riskScore",
              "type": "uint256"
            },
            {
              "internalType": "uint256",
              "name": "maxDailyVolume",
              "type": "uint256"
            },
            {
              "internalType": "uint256",
              "name": "maxTransactionSize",
              "type": "uint256"
            },
            {
              "internalType": "bool",
              "name": "highRiskMode",
              "type": "bool"
            },
            {
              "internalType": "uint256",
              "name": "suspiciousActivityCount",
              "type": "uint256"
            },
            {
              "internalType": "uint256",
              "name": "lastSecurityCheck",
              "type": "uint256"
            }
          ],
          "internalType": "struct SecurityManager.VaultSecurityProfile",
          "name": "profile",
          "type": "tuple"
        }
      ],
      "stateMutability": "view",
      "type": "function"
    },
    {
      "inputs": [],
      "name": "globalEmergencyMode",
      "outputs": [
        {
          "internalType": "bool",
          "name": "",
          "type": "bool"
        }
      ],
      "stateMutability": "view",
      "type": "function"
    },
    {
      "inputs": [
        {
          "internalType": "bytes32",
          "name": "role",
          "type": "bytes32"
        },
        {
          "internalType": "address",
          "name": "account",
          "type": "address"
        }
      ],
      "name": "grantRole",
      "outputs": [],
      "stateMutability": "nonpayable",
      "type": "function"
    },
    {
      "inputs": [
        {
          "internalType": "bytes32",
          "name": "role",
          "type": "bytes32"
        },
        {
          "internalType": "address",
          "name": "account",
          "type": "address"
        }
      ],
      "name": "hasRole",
      "outputs": [
        {
          "internalType": "bool",
          "name": "",
          "type": "bool"
        }
      ],
      "stateMutability": "view",
      "type": "function"
    },
    {
      "inputs": [
        {
          "internalType": "uint256",
          "name": "",
          "type": "uint256"
        }
      ],
      "name": "hourlyVolume",
      "outputs": [
        {
          "internalType": "uint256",
          "name": "",
          "type": "uint256"
        }
      ],
      "stateMutability": "view",
      "type": "function"
    },
    {
      "inputs": [
        {
          "internalType": "address",
          "name": "target",
          "type": "address"
        }
      ],
      "name": "isBlacklisted",
      "outputs": [
        {
          "internalType": "bool",
          "name": "blacklisted",
          "type": "bool"
        }
      ],
      "stateMutability": "view",
      "type": "function"
    },
    {
      "inputs": [
        {
          "internalType": "address",
          "name": "",
          "type": "address"
        }
      ],
      "name": "lastRecordedPrices",
      "outputs": [
        {
          "internalType": "uint256",
          "name": "",
          "type": "uint256"
        }
      ],
      "stateMutability": "view",
      "type": "function"
    },
    {
      "inputs": [
        {
          "internalType": "address",
          "name": "",
          "type": "address"
        }
      ],
      "name": "lastTransactionTime",
      "outputs": [
        {
          "internalType": "uint256",
          "name": "",
          "type": "uint256"
        }
      ],
      "stateMutability": "view",
      "type": "function"
    },
    {
      "inputs": [
        {
          "internalType": "address",
          "name": "token",
          "type": "address"
        },
        {
          "internalType": "uint256",
          "name": "newPrice",
          "type": "uint256"
        }
      ],
      "name": "monitorPriceMovement",
      "outputs": [],
      "stateMutability": "nonpayable",
      "type": "function"
    },
    {
      "inputs": [],
      "name": "paused",
      "outputs": [
        {
          "internalType": "bool",
          "name": "",
          "type": "bool"
        }
      ],
      "stateMutability": "view",
      "type": "function"
    },
    {
      "inputs": [
        {
          "internalType": "address",
          "name": "user",
          "type": "address"
        },
        {
          "internalType": "address",
          "name": "target",
          "type": "address"
        },
        {
          "internalType": "uint256",
          "name": "amount",
          "type": "uint256"
        },
        {
          "internalType": "bool",
          "name": "success",
          "type": "bool"
        }
      ],
      "name": "postTransactionMonitor",
      "outputs": [],
      "stateMutability": "nonpayable",
      "type": "function"
    },
    {
      "inputs": [
        {
          "internalType": "address",
          "name": "user",
          "type": "address"
        },
        {
          "internalType": "address",
          "name": "target",
          "type": "address"
        },
        {
          "internalType": "uint256",
          "name": "amount",
          "type": "uint256"
        },
        {
          "internalType": "string",
          "name": "operation",
          "type": "string"
        }
      ],
      "name": "preTransactionCheck",
      "outputs": [
        {
          "internalType": "bool",
          "name": "allowed",
          "type": "bool"
        },
        {
          "internalType": "string",
          "name": "reason",
          "type": "string"
        }
      ],
      "stateMutability": "nonpayable",
      "type": "function"
    },
    {
      "inputs": [],
      "name": "priceFeed",
      "outputs": [
        {
          "internalType": "contract IPriceFeed",
          "name": "",
          "type": "address"
        }
      ],
      "stateMutability": "view",
      "type": "function"
    },
    {
      "inputs": [
        {
          "internalType": "address",
          "name": "",
          "type": "address"
        }
      ],
      "name": "priceUpdateTimes",
      "outputs": [
        {
          "internalType": "uint256",
          "name": "",
          "type": "uint256"
        }
      ],
      "stateMutability": "view",
      "type": "function"
    },
    {
      "inputs": [
        {
          "internalType": "bytes32",
          "name": "role",
          "type": "bytes32"
        },
        {
          "internalType": "address",
          "name": "callerConfirmation",
          "type": "address"
        }
      ],
      "name": "renounceRole",
      "outputs": [],
      "stateMutability": "nonpayable",
      "type": "function"
    },
    {
      "inputs": [
        {
          "internalType": "uint256",
          "name": "eventId",
          "type": "uint256"
        }
      ],
      "name": "resolveSecurityEvent",
      "outputs": [],
      "stateMutability": "nonpayable",
      "type": "function"
    },
    {
      "inputs": [],
      "name": "resumeOperations",
      "outputs": [],
      "stateMutability": "nonpayable",
      "type": "function"
    },
    {
      "inputs": [
        {
          "internalType": "bytes32",
          "name": "role",
          "type": "bytes32"
        },
        {
          "internalType": "address",
          "name": "account",
          "type": "address"
        }
      ],
      "name": "revokeRole",
      "outputs": [],
      "stateMutability": "nonpayable",
      "type": "function"
    },
    {
      "inputs": [
        {
          "internalType": "bytes32",
          "name": "",
          "type": "bytes32"
        }
      ],
      "name": "securityEvents",
      "outputs": [
        {
          "internalType": "uint256",
          "name": "id",
          "type": "uint256"
        },
        {
          "internalType": "enum SecurityManager.EventType",
          "name": "eventType",
          "type": "uint8"
        },
        {
          "internalType": "address",
          "name": "target",
          "type": "address"
        },
        {
          "internalType": "uint256",
          "name": "value",
          "type": "uint256"
        },
        {
          "internalType": "uint256",
          "name": "timestamp",
          "type": "uint256"
        },
        {
          "internalType": "string",
          "name": "description",
          "type": "string"
        },
        {
          "internalType": "bool",
          "name": "resolved",
          "type": "bool"
        }
      ],
      "stateMutability": "view",
      "type": "function"
    },
    {
      "inputs": [
        {
          "internalType": "bytes4",
          "name": "interfaceId",
          "type": "bytes4"
        }
      ],
      "name": "supportsInterface",
      "outputs": [
        {
          "internalType": "bool",
          "name": "",
          "type": "bool"
        }
      ],
      "stateMutability": "view",
      "type": "function"
    },
    {
      "inputs": [
        {
          "internalType": "address",
          "name": "target",
          "type": "address"
        }
      ],
      "name": "unblacklistAddress",
      "outputs": [],
      "stateMutability": "nonpayable",
      "type": "function"
    },
    {
      "inputs": [
        {
          "internalType": "address",
          "name": "vault",
          "type": "address"
        },
        {
          "internalType": "uint256",
          "name": "maxDailyVolume",
          "type": "uint256"
        },
        {
          "internalType": "uint256",
          "name": "maxTransactionSize",
          "type": "uint256"
        },
        {
          "internalType": "uint256",
          "name": "riskScore",
          "type": "uint256"
        }
      ],
      "name": "updateVaultSecurityProfile",
      "outputs": [],
      "stateMutability": "nonpayable",
      "type": "function"
    },
    {
      "inputs": [
        {
          "internalType": "address",
          "name": "",
          "type": "address"
        }
      ],
      "name": "userTransactionCount",
      "outputs": [
        {
          "internalType": "uint256",
          "name": "",
          "type": "uint256"
        }
      ],
      "stateMutability": "view",
      "type": "function"
    },
    {
      "inputs": [
        {
          "internalType": "address",
          "name": "",
          "type": "address"
        }
      ],
      "name": "userVolumeToday",
      "outputs": [
        {
          "internalType": "uint256",
          "name": "",
          "type": "uint256"
        }
      ],
      "stateMutability": "view",
      "type": "function"
    },
    {
      "inputs": [
        {
          "internalType": "address",
          "name": "",
          "type": "address"
        }
      ],
      "name": "vaultProfiles",
      "outputs": [
        {
          "internalType": "uint256",
          "name": "riskScore",
          "type": "uint256"
        },
        {
          "internalType": "uint256",
          "name": "maxDailyVolume",
          "type": "uint256"
        },
        {
          "internalType": "uint256",
          "name": "maxTransactionSize",
          "type": "uint256"
        },
        {
          "internalType": "bool",
          "name": "highRiskMode",
          "type": "bool"
        },
        {
          "internalType": "uint256",
          "name": "suspiciousActivityCount",
          "type": "uint256"
        },
        {
          "internalType": "uint256",
          "name": "lastSecurityCheck",
          "type": "uint256"
        }
      ],
      "stateMutability": "view",
      "type": "function"
    }
  ],
  "bytecode": "0x60806040523462000030576200001e62000018620000d3565b6200021c565b604051612d646200042a8239612d6490f35b600080fd5b634e487b7160e01b600052604160045260246000fd5b90601f01601f191681019081106001600160401b038211176200006d57604052565b62000035565b906200008a6200008260405190565b92836200004b565b565b6001600160a01b031690565b90565b6001600160a01b038116036200003057565b905051906200008a826200009b565b9060208282031262000030576200009891620000ad565b620000986200318e80380380620000ea8162000073565b928339810190620000bc565b90600019905b9181191691161790565b6200009862000098620000989290565b906200012a62000098620001329262000106565b8254620000f6565b9055565b9060ff90620000fc565b9062000153620000986200013292151590565b825462000136565b6200008c62000098620000989290565b62000098906200015b565b156200017e57565b60405162461bcd60e51b8152602060048201526012602482015271125b9d985b1a59081c1c9a58d9481999595960721b6044820152606490fd5b62000098906200008c906001600160a01b031682565b6200009890620001b8565b6200009890620001ce565b906001600160a01b0390620000fc565b9062000208620000986200013292620001d9565b8254620001e4565b62000098600062000106565b6200027962000281916200022f6200031e565b6200023f62015180600f62000116565b6200024d6000601062000140565b62000273620002616200008c60006200016b565b6001600160a01b038316141562000176565b620001d9565b600b620001f4565b620002976200028f62000210565b339062000366565b50620002c37ff6e67e455c1170019df813a9dcb568f910c16426a5a6faffb00d325d6f118b676200028f565b50620002ef7fbf233dd2aafeb4d50879c4aa5c81e96d92f6e6945c906a58f9f2d1c1631b4b266200028f565b506200031b7f8227712ef8ad39d0f26f06731ef0df8665eb7ada7f41b1ee089adf3c238862a26200028f565b50565b6200008a62000334565b62000098600162000106565b6200008a6200034262000328565b600162000116565b905b600052602052604060002090565b906200034c90620001d9565b6200037a62000376838362000401565b1590565b15620003fa57620003a66001620003a08460006200039986826200034a565b016200035a565b62000140565b620003c5620003be620003b7339390565b93620001d9565b91620001d9565b917f2f8788117e7eff1d82e926ec794901d17c78024a50270940304540a733656f0d620003f160405190565b600090a4600190565b5050600090565b620000989160006200039962000422936200041a600090565b50826200034a565b5460ff169056fe6080604052600436101561001257600080fd5b60003560e01c806301ffc9a7146102c257806307e0bc20146102bd57806315ae40b8146102b857806320df4359146102b3578063248a9ca3146102ae5780632a05ae15146102a95780632cf9cd57146102a45780632deb79a01461029f5780632e55c3651461029a5780632f2ff15d1461029557806336568abe14610290578063392fe6b21461028b5780633f57825914610286578063434228851461028157806345e349491461027c5780634a20e30c146102775780634d9b47e2146102725780635c975abb1461026d57806371f8fa0414610268578063741bef1a146102635780637730b0d01461025e5780637a2331f9146102595780637afa85e8146102545780637d948f9b1461024f5780638af7e5721461024a5780638fbf59291461024557806391d1485414610240578063943ca3b91461023b5780639990edfd146102365780639a18d18f146102315780639d06c5531461022c578063a217fddf14610227578063a6e1d01614610222578063a830a6101461021d578063b0de570414610218578063b1e3268b14610213578063c91cba001461020e578063cf9fccb214610209578063d547741f14610204578063d5749d42146101ff578063db96074c146101fa578063e75b2073146101f55763fe575a87036102c757611180565b611165565b611123565b61109c565b61106e565b611053565b611013565b610f5c565b610f1b565b610eec565b610ed4565b610eb9565b610e8c565b610e56565b610e1f565b610df1565b610dc5565b610daa565b610d5c565b610b48565b610b0f565b610af3565b610a97565b610970565b61091a565b610801565b6107c8565b6107ad565b610785565b61076a565b610733565b6106c7565b610685565b61066c565b61062d565b6105c1565b61057d565b61053f565b610514565b6104b4565b61047e565b6103ec565b610321565b600080fd5b7fffffffff0000000000000000000000000000000000000000000000000000000081165b036102c757565b90503590610304826102cc565b565b906020828203126102c75761031a916102f7565b90565b9052565b346102c75761034e61033c610337366004610306565b61119b565b60405191829182901515815260200190565b0390f35b6001600160a01b031690565b6001600160a01b0381166102f0565b905035906103048261035e565b906020828203126102c75761031a9161036d565b80518252610304919060a09081906103ab60208201516020860152565b6103ba60408201516040860152565b6060818101511515908501526103d560808201516080860152565b0151910152565b60c081019291610304919061038e565b346102c75761034e61040761040236600461037a565b61130d565b604051918291826103dc565b61035261031a61031a926001600160a01b031690565b61031a90610413565b61031a90610429565b9061044590610432565b600052602052604060002090565b61031a916008021c81565b9061031a9154610453565b600061047961031a92600461043b565b61045e565b346102c75761034e61049961049436600461037a565b610469565b6040519182918290815260200190565b60009103126102c757565b346102c7576104c43660046104a9565b61034e7fbf233dd2aafeb4d50879c4aa5c81e96d92f6e6945c906a58f9f2d1c1631b4b26610499565b806102f0565b90503590610304826104ed565b906020828203126102c75761031a916104f3565b346102c75761034e61049961052a366004610500565b611329565b600061047961031a92600c61043b565b346102c75761034e61049961055536600461037a565b61052f565b91906040838203126102c75761031a906020610576828661036d565b94016104f3565b346102c75761059661059036600461055a565b906115c2565b604051005b61031a916008021c5b60ff1690565b9061031a915461059b565b61031a600060106105aa565b346102c7576105d13660046104a9565b61034e61033c6105b5565b8015156102f0565b90503590610304826105dc565b6080818303126102c757610605828261036d565b9261031a610616846020850161036d565b93606061062682604087016104f3565b94016105e4565b346102c7576105966106403660046105f1565b92919091611697565b91906040838203126102c75761031a90602061066582866104f3565b940161036d565b346102c75761059661067f366004610649565b906116c1565b346102c757610596610698366004610649565b906116cb565b61031a61031a61031a9290565b61031a6a52b7d2dcc80cd2e400000061069e565b61031a6106ab565b346102c7576106d73660046104a9565b61034e6104996106bf565b634e487b7160e01b600052602160045260246000fd5b6004111561070257565b6106e2565b90610304826106f8565b61031a90610707565b61031d90610711565b602081019291610304919061071a565b346102c7576107433660046104a9565b61034e61074e61171c565b60405191829182610723565b600061047961031a92600d61043b565b346102c75761034e61049961078036600461037a565b61075a565b346102c75761059661079836600461037a565b61181c565b600061047961031a92600561043b565b346102c75761034e6104996107c336600461037a565b61079d565b346102c7576107d83660046104a9565b61034e7f8227712ef8ad39d0f26f06731ef0df8665eb7ada7f41b1ee089adf3c238862a2610499565b346102c7576108113660046104a9565b61034e61033c611825565b634e487b7160e01b600052604160045260246000fd5b90601f01601f1916810190811067ffffffffffffffff82111761085457604052565b61081c565b9061030461086660405190565b9283610832565b67ffffffffffffffff811161085457602090601f01601f19160190565b0190565b90826000939282370152565b909291926108af6108aa8261086d565b610859565b93818552818301116102c75761030491602085019061088e565b9080601f830112156102c75781602061031a9335910161089a565b9190916040818403126102c7576108fb838261036d565b92602082013567ffffffffffffffff81116102c75761031a92016108c9565b346102c75761059661092d3660046108e4565b906118db565b61031a916008021c610352565b9061031a9154610933565b61031a6000600b610940565b61031d90610432565b6020810192916103049190610957565b346102c7576109803660046104a9565b61034e61098b61094b565b60405191829182610960565b6007111561070257565b9061030482610997565b61031a906109a1565b61031d906109ab565b60005b8381106109d05750506000910152565b81810151838201526020016109c0565b610a01610a0a60209361088a936109f5815190565b80835293849260200190565b958691016109bd565b601f01601f191690565b805182529061031a9060c080610a7c60e08401610a39602088015160208701906109b4565b6040878101516001600160a01b031690860152610a5b60608801516060870152565b610a6a60808801516080870152565b60a087015185820360a08701526109e0565b9401511515910152565b602080825261031a92910190610a14565b346102c75761034e610ab2610aad366004610500565b6119db565b60405191829182610a86565b6080818303126102c757610ad2828261036d565b9261031a610ae384602085016104f3565b93606061057682604087016104f3565b346102c757610596610b06366004610abe565b92919091611bbb565b346102c757610b1f3660046104a9565b61034e7ff6e67e455c1170019df813a9dcb568f910c16426a5a6faffb00d325d6f118b67610499565b346102c757610596610b5b366004610500565b611ce0565b90610445565b61031a9081565b61031a9054610b66565b61031a906105a4565b61031a9054610b77565b61031a9060081c610352565b61031a9054610b8a565b634e487b7160e01b600052602260045260246000fd5b9060016002830492168015610bd6575b6020831014610bd157565b610ba0565b91607f1691610bc6565b80546000939291610bfd610bf383610bb6565b8085529360200190565b9160018116908115610c4f5750600114610c1657505050565b610c299192939450600052602060002090565b916000925b818410610c3b5750500190565b805484840152602090930192600101610c2e565b92949550505060ff1916825215156020020190565b9061031a91610be0565b90610304610c8892610c7f60405190565b93848092610c64565b0383610832565b610c9a906007610b60565b610ca381610b6d565b91610cb060018301610b80565b91610cbd60018201610b96565b91610cca60028301610b6d565b91610cd760038201610b6d565b9161031a6005610ce960048501610c6e565b9301610b80565b979694610d4690610d3f60c096610d38610d539760408e610d296103049e999a610d1f60e084019c6000850152565b60208301906109b4565b01906001600160a01b03169052565b60608c0152565b60808a0152565b87820360a08901526109e0565b94019015159052565b346102c75761034e610d77610d72366004610500565b610c8f565b93610d8797959793919360405190565b97889788610cf0565b906104459061069e565b600061047961031a926009610d90565b346102c75761034e610499610dc0366004610500565b610d9a565b346102c75761034e61033c610ddb366004610649565b90611ce9565b600061047961031a92600a610d90565b346102c75761034e610499610e07366004610500565b610de1565b61031a61138861069e565b61031a610e0c565b346102c757610e2f3660046104a9565b61034e610499610e17565b61031a6a084595161401484a00000061069e565b61031a610e3a565b346102c757610e663660046104a9565b61034e610499610e4e565b61031a69d3c21bcecceda100000061069e565b61031a610e71565b346102c757610e9c3660046104a9565b61034e610499610e84565b61031a600061069e565b61031a610ea7565b346102c757610ec93660046104a9565b61034e610499610eb1565b346102c757610ee43660046104a9565b610596611db3565b346102c757610596610eff366004610abe565b92919091611f01565b61031a6103e861069e565b61031a610f08565b346102c757610f2b3660046104a9565b61034e610499610f13565b906020828203126102c757813567ffffffffffffffff81116102c75761031a92016108c9565b346102c757610596610f6f366004610f36565b611f91565b610f7f90600861043b565b90610f8982610b6d565b91610f9660018201610b6d565b91610fa360028301610b6d565b91610fb060038201610b80565b9161031a6005610fc260048501610b6d565b9301610b6d565b919461100861100f92989795610fff60a096610ff86103049a610ff160c08a019e60008b0152565b6020890152565b6040870152565b15156060850152565b6080830152565b0152565b346102c75761034e61102e61102936600461037a565b610f74565b9261103e96949692919260405190565b96879687610fc9565b61031a6000600f61045e565b346102c7576110633660046104a9565b61034e610499611047565b346102c757610596611081366004610649565b90611fb5565b600061109761031a92600361043b565b6105aa565b346102c75761034e61033c6110b236600461037a565b611087565b906080828203126102c7576110cc818361036d565b926110da826020850161036d565b926110e883604083016104f3565b92606082013567ffffffffffffffff81116102c75761031a92016108c9565b901515815261031a9160408201915b60208184039101526109e0565b346102c75761113f6111363660046110b7565b929190916122bb565b9061034e61114c60405190565b92839283611107565b600061047961031a92600661043b565b346102c75761034e61049961117b36600461037a565b611155565b346102c75761034e61033c61119636600461037a565b6122cb565b7f7965db0b000000000000000000000000000000000000000000000000000000007fffffffff000000000000000000000000000000000000000000000000000000008216149081156111eb575090565b61031a91507fffffffff00000000000000000000000000000000000000000000000000000000167f01ffc9a7000000000000000000000000000000000000000000000000000000001490565b61031a60c0610859565b611249611237565b906000825260208080808080870160008152016000815201600081520160005b8152016000905250565b61031a611241565b906103046112fd600561128c611237565b9461129d61129982610b6d565b8752565b6112b36112ac60018301610b6d565b6020880152565b6112c96112c260028301610b6d565b6040880152565b6112e16112d860038301610b80565b15156060880152565b6112f76112f060048301610b6d565b6080880152565b01610b6d565b60a0840152565b61031a9061127b565b61132461031a9161131c611273565b50600861043b565b611304565b60016112f761031a9261133a600090565b506000610b60565b61030491906113757f8227712ef8ad39d0f26f06731ef0df8665eb7ada7f41b1ee089adf3c238862a26122e2565b6122e2565b611498565b634e487b7160e01b600052601160045260246000fd5b9190820391821161139d57565b61137a565b8181029291811591840414171561139d57565b634e487b7160e01b600052601260045260246000fd5b906113d5565b9190565b9081156113e0570490565b6113b5565b906113f26108aa8361086d565b918252565b611401601f6113e5565b7f556e757375616c207072696365206d6f76656d656e7420646574656374656400602082015290565b61031a6113f7565b61143c60176113e5565b7f45787472656d6520707269636520646576696174696f6e000000000000000000602082015290565b61031a611432565b90600019905b9181191691161790565b9061148d61031a6114949261069e565b825461146d565b9055565b6114f5906114ee610304936114b66114b184600c61043b565b610b6d565b6114c46114b185600d61043b565b6114ce600061069e565b821190816115a2575b506114fc575b506114e983600c61043b565b61147d565b600d61043b565b429061147d565b8082111561158c578061152661151561152b9385611390565b61152061271061069e565b906113a2565b6113cb565b611533610f08565b808211611541575b506114dd565b6113d161031a6115699261155f61155661142a565b868a600261257d565b611520600261069e565b11611576575b388061153b565b611587611581611465565b84612657565b61156f565b806115266115158461159d94611390565b61152b565b6115ad915042611390565b6115bb6113d1610e1061069e565b10386114d7565b9061030491611342565b610304939291906115fc7f8227712ef8ad39d0f26f06731ef0df8665eb7ada7f41b1ee089adf3c238862a26122e2565b61161d565b600019811461139d5760010190565b9190820180921161139d57565b921561169257610304926116308361268f565b61165561163e82600461043b565b61164f61164a82610b6d565b611601565b9061147d565b61167561166382600561043b565b61164f8561167083610b6d565b611610565b6116836114f582600661043b565b61168d83836126e2565b6127c0565b505050565b906103049392916115cc565b90610304916116b461137082611329565b906116be91612832565b50565b90610304916116a3565b906116d533610352565b6001600160a01b038216036116ed576116be916128ae565b6040517f6697b232000000000000000000000000000000000000000000000000000000008152600490fd5b0390fd5b6117266010610b80565b80156117a7575b6117a2576117706117626117586114b161175161174b610e1061069e565b426113cb565b6009610d90565b611520606461069e565b61176a610e3a565b906113cb565b61177a605a61069e565b81106117865750600290565b6117936113d1604661069e565b1061179d57600190565b600090565b600390565b506117b0611825565b61172d565b610304906117e27ff6e67e455c1170019df813a9dcb568f910c16426a5a6faffb00d325d6f118b676122e2565b611807565b9060ff90611473565b9061180061031a61149492151590565b82546117e7565b600061181761030492600361043b565b6117f0565b610304906117b5565b61031a6002610b80565b610304919061185d7ff6e67e455c1170019df813a9dcb568f910c16426a5a6faffb00d325d6f118b676122e2565b611884565b9291602061187f61030493604087019087820360008901526109e0565b940152565b6118d66118c17feba43d9b7419114df0e69d033a007455749f4063b29b94104e431bd72859c839926118bc600161181783600361043b565b610432565b926118cb60405190565b918291429083611862565b0390a2565b906103049161182f565b61031a60e0610859565b6118f76118e5565b90600082526020808080808080880160008152016000815201600081520160008152016060611269565b61031a6118ef565b9061031d906109a1565b906103046119c960056119446118e5565b9461195161129982610b6d565b61196961196060018301610b80565b60208801611929565b61198861197860018301610b96565b6001600160a01b03166040880152565b61199e61199760028301610b6d565b6060880152565b6119ad6112f060038301610b6d565b6119c36119bc60048301610c6e565b60a0880152565b01610b80565b151560c0840152565b61031a90611933565b6119fa6119f361031a926119ed611921565b5061069e565b6007610b60565b6119d2565b61030493929190611a2f7f8227712ef8ad39d0f26f06731ef0df8665eb7ada7f41b1ee089adf3c238862a26122e2565b611ad7565b611a3e60236113e5565b7f506f74656e7469616c20666c6173686c6f616e2061747461636b20646574656360208201527f7465640000000000000000000000000000000000000000000000000000000000604082015290565b61031a611a34565b60408082526010908201527f466c6173686c6f616e2061747461636b000000000000000000000000000000006060820152919061030490602060808501940152565b919092611ae76113d1600061069e565b1480611b9b575b611af757505050565b8280821115611b8357611b1061031a91611b1c93611390565b935b61176a606461069e565b8211611b26575050565b611b3e611b4e92611b35611a8d565b9083600361257d565b6118bc600161181783600361043b565b7feba43d9b7419114df0e69d033a007455749f4063b29b94104e431bd72859c839611b7860405190565b806118d64282611a95565b5050611b1c61031a611b95600061069e565b93611b12565b50611bb461031a611baa610e71565b61176a600a61069e565b8311611aee565b906103049392916119ff565b61030490611bf47ff6e67e455c1170019df813a9dcb568f910c16426a5a6faffb00d325d6f118b676122e2565b611c91565b15611c0057565b60405162461bcd60e51b815260206004820152600f60248201527f4576656e74206e6f7420666f756e6400000000000000000000000000000000006044820152606490fd5b15611c4c57565b60405162461bcd60e51b815260206004820152601660248201527f4576656e7420616c7265616479207265736f6c766564000000000000000000006044820152606490fd5b60016005611ca761031a6119f36103049561069e565b611cc7611cb382610b6d565b611cc06113d1600061069e565b1415611bf9565b01611817611cdb611cd783610b80565b1590565b611c45565b61030490611bc7565b61031a916000611d05611d0b93611cfe600090565b5082610b60565b0161043b565b610b80565b611d397ff6e67e455c1170019df813a9dcb568f910c16426a5a6faffb00d325d6f118b676122e2565b610304611d8d565b15611d4857565b60405162461bcd60e51b815260206004820152601560248201527f4e6f7420696e20656d657267656e6379206d6f646500000000000000000000006044820152606490fd5b611d9f611d9a6010610b80565b611d41565b611dab600060106117f0565b610304612966565b610304611d10565b61030493929190611deb7ff6e67e455c1170019df813a9dcb568f910c16426a5a6faffb00d325d6f118b676122e2565b611e4f565b15611df757565b60405162461bcd60e51b815260206004820152601260248201527f496e76616c6964207269736b2073636f726500000000000000000000000000006044820152606490fd5b9081526040810192916103049160200152565b611eeb906118bc7f071b4ebd3432093165854241a1f0c4708b7f5b59a885720373f962c1e898ca6594959395611e90611e88606461069e565b861115611df0565b611ec885611ea261031a86600861043b565b9283906114e990611ebf611eb584610b6d565b9c6001880161147d565b6002860161147d565b611ee1611ed5604661069e565b861015600383016117f0565b600542910161147d565b926118d6611ef860405190565b92839283611e3c565b90610304939291611dbb565b61030490611f3a7fbf233dd2aafeb4d50879c4aa5c81e96d92f6e6945c906a58f9f2d1c1631b4b266122e2565b611f46600160106117f0565b611f4e6129af565b611f6481611f5c600061069e565b33600661257d565b7fc44c42ef3a3279990bbb5fd16be370dab7a9915350ca4a095a798fddb86ac81b6118d66118c133610432565b61030490611f0d565b9061030491611fab61137082611329565b906116be916128ae565b9061030491611f9a565b611ff6959493929190611ff17f8227712ef8ad39d0f26f06731ef0df8665eb7ada7f41b1ee089adf3c238862a26122e2565b612194565b9091565b61200460186113e5565b7f53797374656d20696e20656d657267656e6379206d6f64650000000000000000602082015290565b61031a611ffa565b61203f60136113e5565b7f4164647265737320626c61636b6c697374656400000000000000000000000000602082015290565b61031a612035565b61207a60196113e5565b7f4369726375697420627265616b65722074726967676572656400000000000000602082015290565b61031a612070565b6120b560286113e5565b7f537573706963696f7573207472616e73616374696f6e2076656c6f636974792060208201527f6465746563746564000000000000000000000000000000000000000000000000604082015290565b61031a6120ab565b612116601c6113e5565b7f537573706963696f757320616374697669747920646574656374656400000000602082015290565b61031a61210c565b612151601f6113e5565b7f45786365656473207661756c74207472616e73616374696f6e206c696d697400602082015290565b61031a612147565b61031a60006113e5565b61031a612182565b509293509091506121a3611825565b80156122ab575b61229d576121bc611d0b82600361043b565b8015612289575b61227b576121d5611cd7848484612ac9565b61226d576121e38382612b94565b61224c57506121f8611324604092600861043b565b0190612202825190565b61220f6113d1600061069e565b119182612233575b50506122285760019061031a61218c565b60009061031a61217a565b61224491925061031a6113d1915190565b113880612217565b90506122629161225a612104565b91600161257d565b60009061031a61213f565b50505060009061031a6120a3565b50505060009061031a612068565b50612298611d0b83600361043b565b6121c3565b50505060009061031a61202d565b506122b66010610b80565b6121aa565b611ff69392919060606000611fbf565b611d0b61031a916122da600090565b50600361043b565b610304903390612c68565b61031a90516109a1565b9061180061031a611494926109ab565b9074ffffffffffffffffffffffffffffffffffffffff009060081b611473565b9061233761031a61149492610432565b8254612307565b9160001960089290920291821b911b611473565b919061236361031a6114949361069e565b90835461233e565b61030491600091612352565b818110612382575050565b80612390600060019361236b565b01612377565b9190601f81116123a557505050565b6123b761030493600052602060002090565b906020601f8401819004830193106123d9575b6020601f909101040190612377565b90915081906123ca565b906123ec815190565b9067ffffffffffffffff8211610854576124108261240a8554610bb6565b85612396565b602090601f831160011461244b57611494929160009183612440575b5050600019600883021c1916906002021790565b01519050388061242c565b601f1983169161246085600052602060002090565b9260005b81811061249e57509160029391856001969410612485575b50505002019055565b01516000196008601f8516021c1916905538808061247c565b91936020600181928787015181550195019201612464565b90610304916123e3565b600561255b60c0610304946124df6124d9600083015190565b8661147d565b61250f600186016124fb6124f5602085016122ed565b826122f7565b60408301516001600160a01b031690612327565b61252661251d606083015190565b6002870161147d565b61253d612534608083015190565b6003870161147d565b61255461254b60a083015190565b600487016124b6565b0151151590565b91016117f0565b90610304916124c0565b90815261031a916040820191611116565b9091927f53a9f3c6e903143d32b348ebc04b567db71bbe25d84015ca007ce8c03da23f689061263c6126366126306125b861164a600e610b6d565b6125c381600e61147d565b61262b6125ce6118e5565b6125d6838252565b6125e38960208301611929565b6001600160a01b038a1660408201526125fd8b6060830152565b612608426080830152565b6126138760a0830152565b600060c08201526126266119f38461069e565b612562565b61069e565b946109ab565b94610432565b9461265261264960405190565b9283928361256c565b0390a4565b6118d66118c17fd423bd1980fb0aed39c27f5a230907b568e65ba3f770ed82ad6c838ff6a26d98926118bc600161181783600361043b565b6103049061164f6126d86126a761174b610e1061069e565b6126d16126c46126bc61174b6201518061069e565b926009610d90565b61164f8661167083610b6d565b600a610d90565b9161167083610b6d565b906126f461031a61030493600861043b565b906127106113d161031a612706610e71565b61176a600261069e565b11612737575b600361272182610b6d565b61272e6113d1604661069e565b101591016117f0565b6127748161275761274782610b6d565b612751600561069e565b90611610565b6127646113d1606461069e565b11156127795761164f606461069e565b612716565b61164f61274784610b6d565b61278f601f6113e5565b7f48696768206672657175656e63792074726164696e6720646574656374656400602082015290565b61031a612785565b9150506127d16114b182600461043b565b6127de6113d1606461069e565b1180612806575b6127ec5750565b806127fe6114b161030493600461043b565b61225a6127b8565b5061281e6128186114b183600661043b565b42611390565b61282c6113d161025861069e565b106127e5565b61283f611cd78383611ce9565b156128a7576128596001611817846000611d058682610b60565b61287361286d612867339390565b93610432565b91610432565b917f2f8788117e7eff1d82e926ec794901d17c78024a50270940304540a733656f0d61289e60405190565b600090a4600190565b5050600090565b6128b88282611ce9565b156128a7576128d160006118178482611d058682610b60565b6128df61286d612867339390565b917ff6391f5c32d9c69d2a47ea670b442974b53935d1edc7fd64eb21e047a839171b61289e60405190565b612912612cb9565b610304612921600060026117f0565b7f5db9ee0a495bf2e6ff9c91a7834c1ba4fdd244a5e8aa4e537bd38aeae4b073aa612961335b604051918291826001600160a01b03909116815260200190565b0390a1565b61030461290a565b612976612cf5565b610304612985600160026117f0565b7f62e78cea01bee320cd4e420270b5ea74000d11b0c9f74754ebdbfc544b05a25861296133612947565b61030461296e565b6129c160216113e5565b7f53696e676c65207472616e73616374696f6e206c696d6974206578636565646560208201527f6400000000000000000000000000000000000000000000000000000000000000604082015290565b61031a6129b7565b612a22601c6113e5565b7f486f75726c7920766f6c756d65206c696d697420657863656564656400000000602082015290565b61031a612a18565b612a5d601b6113e5565b7f4461696c7920766f6c756d65206c696d69742065786365656465640000000000602082015290565b61031a612a53565b612a9860196113e5565b7f55736572206461696c79206c696d697420657863656564656400000000000000602082015290565b61031a612a8e565b91612ad561031a610e71565b8111612b8657612af3816116706114b161175161174b610e1061069e565b612b016113d161031a610e3a565b11612b7857612b1f816116706114b16126d161174b6201518061069e565b91612b286106ab565b928310612b6857506113d161031a611b10612b4b936116706114b188600561043b565b11612b565750600190565b61179d90612b62612ac1565b90612657565b91505061179d9150612b62612a86565b5061179d9150612b62612a4b565b5061179d9150612b62612a10565b612ba26114b182600661043b565b612baf6113d1600061069e565b11612c04575b6113d161031a612beb8361176a612be16114b1612bd96114b1612bf599600561043b565b93600461043b565b612751600161069e565b611520600a61069e565b11612bff57600090565b600190565b612c156128186114b183600661043b565b612c226113d1603c61069e565b1080612c35575b15612bb5575050600190565b50612c4461031a611baa610e71565b8211612c29565b6001600160a01b0390911681526040810192916103049160200152565b90612c76611cd78284611ce9565b612c7e575050565b611718612c8a60405190565b9283927fe2517d3f00000000000000000000000000000000000000000000000000000000845260048401612c4b565b612cc4611cd7611825565b612cca57565b6040517f8dfc202b000000000000000000000000000000000000000000000000000000008152600490fd5b612cfd611825565b612d0357565b6040517fd93c0665000000000000000000000000000000000000000000000000000000008152600490fdfea264697066735822122029550235b3590ab21a813fce946cf670917e9f6fa9f4036eabb2f5164f4306a464736f6c63430008160033",
  "linkReferences": {},
  "deployedLinkReferences": {}
}