{
  "_format": "hh-sol-artifact-1",
  "contractName": "SecureOracleSystem",
  "sourceName": "contracts/SecureOracleSystem.sol",
  "abi": [
    {
      "inputs": [],
      "stateMutability": "nonpayable",
      "type": "constructor"
    },
    {
      "inputs": [],
      "name": "AccessControlBadConfirmation",
      "type": "error"
    },
    {
      "inputs": [
        {
          "internalType": "address",
          "name": "account",
          "type": "address"
        },
        {
          "internalType": "bytes32",
          "name": "neededRole",
          "type": "bytes32"
        }
      ],
      "name": "AccessControlUnauthorizedAccount",
      "type": "error"
    },
    {
      "inputs": [],
      "name": "ReentrancyGuardReentrantCall",
      "type": "error"
    },
    {
      "anonymous": false,
      "inputs": [
        {
          "indexed": false,
          "internalType": "string",
          "name": "reason",
          "type": "string"
        }
      ],
      "name": "EmergencyModeActivated",
      "type": "event"
    },
    {
      "anonymous": false,
      "inputs": [
        {
          "indexed": false,
          "internalType": "address",
          "name": "token",
          "type": "address"
        },
        {
          "indexed": false,
          "internalType": "uint256",
          "name": "suspiciousPrice",
          "type": "uint256"
        },
        {
          "indexed": false,
          "internalType": "enum SecureOracleSystem.OracleSource",
          "name": "source",
          "type": "uint8"
        }
      ],
      "name": "ManipulationDetected",
      "type": "event"
    },
    {
      "anonymous": false,
      "inputs": [
        {
          "indexed": false,
          "internalType": "enum SecureOracleSystem.OracleSource",
          "name": "source",
          "type": "uint8"
        },
        {
          "indexed": false,
          "internalType": "address",
          "name": "oracle",
          "type": "address"
        },
        {
          "indexed": false,
          "internalType": "uint256",
          "name": "weight",
          "type": "uint256"
        }
      ],
      "name": "OracleConfigured",
      "type": "event"
    },
    {
      "anonymous": false,
      "inputs": [
        {
          "indexed": true,
          "internalType": "address",
          "name": "token",
          "type": "address"
        },
        {
          "indexed": false,
          "internalType": "uint256",
          "name": "price",
          "type": "uint256"
        },
        {
          "indexed": false,
          "internalType": "enum SecureOracleSystem.OracleSource",
          "name": "source",
          "type": "uint8"
        }
      ],
      "name": "PriceUpdated",
      "type": "event"
    },
    {
      "anonymous": false,
      "inputs": [
        {
          "indexed": true,
          "internalType": "bytes32",
          "name": "role",
          "type": "bytes32"
        },
        {
          "indexed": true,
          "internalType": "bytes32",
          "name": "previousAdminRole",
          "type": "bytes32"
        },
        {
          "indexed": true,
          "internalType": "bytes32",
          "name": "newAdminRole",
          "type": "bytes32"
        }
      ],
      "name": "RoleAdminChanged",
      "type": "event"
    },
    {
      "anonymous": false,
      "inputs": [
        {
          "indexed": true,
          "internalType": "bytes32",
          "name": "role",
          "type": "bytes32"
        },
        {
          "indexed": true,
          "internalType": "address",
          "name": "account",
          "type": "address"
        },
        {
          "indexed": true,
          "internalType": "address",
          "name": "sender",
          "type": "address"
        }
      ],
      "name": "RoleGranted",
      "type": "event"
    },
    {
      "anonymous": false,
      "inputs": [
        {
          "indexed": true,
          "internalType": "bytes32",
          "name": "role",
          "type": "bytes32"
        },
        {
          "indexed": true,
          "internalType": "address",
          "name": "account",
          "type": "address"
        },
        {
          "indexed": true,
          "internalType": "address",
          "name": "sender",
          "type": "address"
        }
      ],
      "name": "RoleRevoked",
      "type": "event"
    },
    {
      "anonymous": false,
      "inputs": [
        {
          "indexed": false,
          "internalType": "address",
          "name": "token",
          "type": "address"
        },
        {
          "indexed": false,
          "internalType": "uint256",
          "name": "twapPrice",
          "type": "uint256"
        },
        {
          "indexed": false,
          "internalType": "uint256",
          "name": "dataPoints",
          "type": "uint256"
        }
      ],
      "name": "TWAPCalculated",
      "type": "event"
    },
    {
      "inputs": [],
      "name": "BASIS_POINTS",
      "outputs": [
        {
          "internalType": "uint256",
          "name": "",
          "type": "uint256"
        }
      ],
      "stateMutability": "view",
      "type": "function"
    },
    {
      "inputs": [],
      "name": "DEFAULT_ADMIN_ROLE",
      "outputs": [
        {
          "internalType": "bytes32",
          "name": "",
          "type": "bytes32"
        }
      ],
      "stateMutability": "view",
      "type": "function"
    },
    {
      "inputs": [],
      "name": "MAX_DEVIATION",
      "outputs": [
        {
          "internalType": "uint256",
          "name": "",
          "type": "uint256"
        }
      ],
      "stateMutability": "view",
      "type": "function"
    },
    {
      "inputs": [],
      "name": "MAX_PRICE_AGE",
      "outputs": [
        {
          "internalType": "uint256",
          "name": "",
          "type": "uint256"
        }
      ],
      "stateMutability": "view",
      "type": "function"
    },
    {
      "inputs": [],
      "name": "MIN_ORACLE_SOURCES",
      "outputs": [
        {
          "internalType": "uint256",
          "name": "",
          "type": "uint256"
        }
      ],
      "stateMutability": "view",
      "type": "function"
    },
    {
      "inputs": [],
      "name": "ORACLE_ADMIN_ROLE",
      "outputs": [
        {
          "internalType": "bytes32",
          "name": "",
          "type": "bytes32"
        }
      ],
      "stateMutability": "view",
      "type": "function"
    },
    {
      "inputs": [],
      "name": "ORACLE_UPDATER_ROLE",
      "outputs": [
        {
          "internalType": "bytes32",
          "name": "",
          "type": "bytes32"
        }
      ],
      "stateMutability": "view",
      "type": "function"
    },
    {
      "inputs": [
        {
          "internalType": "string",
          "name": "reason",
          "type": "string"
        }
      ],
      "name": "activateEmergencyMode",
      "outputs": [],
      "stateMutability": "nonpayable",
      "type": "function"
    },
    {
      "inputs": [
        {
          "internalType": "enum SecureOracleSystem.OracleSource",
          "name": "source",
          "type": "uint8"
        },
        {
          "internalType": "address",
          "name": "oracleAddress",
          "type": "address"
        },
        {
          "internalType": "uint256",
          "name": "weight",
          "type": "uint256"
        },
        {
          "internalType": "uint256",
          "name": "maxDeviation",
          "type": "uint256"
        }
      ],
      "name": "configureOracle",
      "outputs": [],
      "stateMutability": "nonpayable",
      "type": "function"
    },
    {
      "inputs": [],
      "name": "deactivateEmergencyMode",
      "outputs": [],
      "stateMutability": "nonpayable",
      "type": "function"
    },
    {
      "inputs": [],
      "name": "emergencyMode",
      "outputs": [
        {
          "internalType": "bool",
          "name": "",
          "type": "bool"
        }
      ],
      "stateMutability": "view",
      "type": "function"
    },
    {
      "inputs": [
        {
          "internalType": "bytes32",
          "name": "role",
          "type": "bytes32"
        }
      ],
      "name": "getRoleAdmin",
      "outputs": [
        {
          "internalType": "bytes32",
          "name": "",
          "type": "bytes32"
        }
      ],
      "stateMutability": "view",
      "type": "function"
    },
    {
      "inputs": [
        {
          "internalType": "address",
          "name": "token",
          "type": "address"
        }
      ],
      "name": "getSecurePrice",
      "outputs": [
        {
          "internalType": "uint256",
          "name": "",
          "type": "uint256"
        }
      ],
      "stateMutability": "view",
      "type": "function"
    },
    {
      "inputs": [
        {
          "internalType": "address",
          "name": "token",
          "type": "address"
        },
        {
          "internalType": "uint256",
          "name": "period",
          "type": "uint256"
        }
      ],
      "name": "getTWAP",
      "outputs": [
        {
          "internalType": "uint256",
          "name": "",
          "type": "uint256"
        }
      ],
      "stateMutability": "view",
      "type": "function"
    },
    {
      "inputs": [
        {
          "internalType": "bytes32",
          "name": "role",
          "type": "bytes32"
        },
        {
          "internalType": "address",
          "name": "account",
          "type": "address"
        }
      ],
      "name": "grantRole",
      "outputs": [],
      "stateMutability": "nonpayable",
      "type": "function"
    },
    {
      "inputs": [
        {
          "internalType": "bytes32",
          "name": "role",
          "type": "bytes32"
        },
        {
          "internalType": "address",
          "name": "account",
          "type": "address"
        }
      ],
      "name": "hasRole",
      "outputs": [
        {
          "internalType": "bool",
          "name": "",
          "type": "bool"
        }
      ],
      "stateMutability": "view",
      "type": "function"
    },
    {
      "inputs": [],
      "name": "lastEmergencyTime",
      "outputs": [
        {
          "internalType": "uint256",
          "name": "",
          "type": "uint256"
        }
      ],
      "stateMutability": "view",
      "type": "function"
    },
    {
      "inputs": [
        {
          "internalType": "address",
          "name": "",
          "type": "address"
        }
      ],
      "name": "lastUpdateTime",
      "outputs": [
        {
          "internalType": "uint256",
          "name": "",
          "type": "uint256"
        }
      ],
      "stateMutability": "view",
      "type": "function"
    },
    {
      "inputs": [
        {
          "internalType": "enum SecureOracleSystem.OracleSource",
          "name": "",
          "type": "uint8"
        }
      ],
      "name": "oracleConfigs",
      "outputs": [
        {
          "internalType": "address",
          "name": "oracleAddress",
          "type": "address"
        },
        {
          "internalType": "enum SecureOracleSystem.OracleSource",
          "name": "sourceType",
          "type": "uint8"
        },
        {
          "internalType": "uint256",
          "name": "weight",
          "type": "uint256"
        },
        {
          "internalType": "bool",
          "name": "isActive",
          "type": "bool"
        },
        {
          "internalType": "uint256",
          "name": "maxDeviation",
          "type": "uint256"
        }
      ],
      "stateMutability": "view",
      "type": "function"
    },
    {
      "inputs": [
        {
          "internalType": "address",
          "name": "",
          "type": "address"
        },
        {
          "internalType": "enum SecureOracleSystem.OracleSource",
          "name": "",
          "type": "uint8"
        }
      ],
      "name": "priceData",
      "outputs": [
        {
          "internalType": "uint256",
          "name": "price",
          "type": "uint256"
        },
        {
          "internalType": "uint256",
          "name": "timestamp",
          "type": "uint256"
        },
        {
          "internalType": "uint256",
          "name": "confidence",
          "type": "uint256"
        },
        {
          "internalType": "enum SecureOracleSystem.OracleSource",
          "name": "source",
          "type": "uint8"
        },
        {
          "internalType": "bool",
          "name": "isValid",
          "type": "bool"
        }
      ],
      "stateMutability": "view",
      "type": "function"
    },
    {
      "inputs": [
        {
          "internalType": "address",
          "name": "",
          "type": "address"
        },
        {
          "internalType": "uint256",
          "name": "",
          "type": "uint256"
        }
      ],
      "name": "priceHistory",
      "outputs": [
        {
          "internalType": "uint256",
          "name": "price",
          "type": "uint256"
        },
        {
          "internalType": "uint256",
          "name": "timestamp",
          "type": "uint256"
        },
        {
          "internalType": "uint256",
          "name": "confidence",
          "type": "uint256"
        },
        {
          "internalType": "enum SecureOracleSystem.OracleSource",
          "name": "source",
          "type": "uint8"
        },
        {
          "internalType": "bool",
          "name": "isValid",
          "type": "bool"
        }
      ],
      "stateMutability": "view",
      "type": "function"
    },
    {
      "inputs": [
        {
          "internalType": "bytes32",
          "name": "role",
          "type": "bytes32"
        },
        {
          "internalType": "address",
          "name": "callerConfirmation",
          "type": "address"
        }
      ],
      "name": "renounceRole",
      "outputs": [],
      "stateMutability": "nonpayable",
      "type": "function"
    },
    {
      "inputs": [
        {
          "internalType": "bytes32",
          "name": "role",
          "type": "bytes32"
        },
        {
          "internalType": "address",
          "name": "account",
          "type": "address"
        }
      ],
      "name": "revokeRole",
      "outputs": [],
      "stateMutability": "nonpayable",
      "type": "function"
    },
    {
      "inputs": [
        {
          "internalType": "bytes4",
          "name": "interfaceId",
          "type": "bytes4"
        }
      ],
      "name": "supportsInterface",
      "outputs": [
        {
          "internalType": "bool",
          "name": "",
          "type": "bool"
        }
      ],
      "stateMutability": "view",
      "type": "function"
    },
    {
      "inputs": [],
      "name": "twapConfig",
      "outputs": [
        {
          "internalType": "uint256",
          "name": "windowSize",
          "type": "uint256"
        },
        {
          "internalType": "uint256",
          "name": "updateInterval",
          "type": "uint256"
        },
        {
          "internalType": "uint256",
          "name": "maxAge",
          "type": "uint256"
        },
        {
          "internalType": "uint256",
          "name": "minSources",
          "type": "uint256"
        }
      ],
      "stateMutability": "view",
      "type": "function"
    },
    {
      "inputs": [
        {
          "internalType": "address",
          "name": "token",
          "type": "address"
        },
        {
          "internalType": "uint256",
          "name": "price",
          "type": "uint256"
        },
        {
          "internalType": "enum SecureOracleSystem.OracleSource",
          "name": "source",
          "type": "uint8"
        }
      ],
      "name": "updatePrice",
      "outputs": [],
      "stateMutability": "nonpayable",
      "type": "function"
    }
  ],
  "bytecode": "0x60806040523462000026576200001462000173565b6040516125da620003ac82396125da90f35b600080fd5b9060ff905b9181191691161790565b90565b90620000506200003a6200005892151590565b82546200002b565b9055565b6200003a6200003a6200003a9290565b6200003a60006200005c565b634e487b7160e01b600052604160045260246000fd5b90601f01601f191681019081106001600160401b03821117620000b057604052565b62000078565b90620000cd620000c560405190565b92836200008e565b565b6200003a6080620000b6565b906000199062000030565b90620000fa6200003a62000058926200005c565b8254620000db565b60036200015f6060620000cd94620001266200011f600083015190565b86620000e6565b6200014062000136602083015190565b60018701620000e6565b6200015a62000150604083015190565b60028701620000e6565b015190565b9101620000e6565b90620000cd9162000102565b6200017d62000278565b6200018b6000600a6200003d565b620001a1620001996200006c565b3390620002e2565b50620001cd7fc307c44629779eb8fc0b85f224c3d22f5876a6c84de0ee42d481eb7814f0d3a862000199565b50620001f97f9792fdc19ab98adfa72ab2fa98d342618c661e01c406979c105b31eda87f5e6f62000199565b50620000cd62000208620000cf565b6200021c6200021860186200005c565b8252565b620002346200022d610e106200005c565b6020830152565b6200024d62000246620151806200005c565b6040830152565b620002646200025d60036200005c565b6060830152565b600662000167565b6200003a60016200005c565b620000cd620002866200026c565b6001620000e6565b905b600052602052604060002090565b6200003a90620002b4906001600160a01b031682565b6001600160a01b031690565b6200003a906200029e565b6200003a90620002c0565b906200029090620002cb565b620002f6620002f2838362000384565b1590565b1562000376576200032260016200031c8460006200031586826200028e565b01620002d6565b6200003d565b620003416200033a62000333339390565b93620002cb565b91620002cb565b917f2f8788117e7eff1d82e926ec794901d17c78024a50270940304540a733656f0d6200036d60405190565b600090a4600190565b5050600090565b5460ff1690565b6200003a91600062000315620003a5936200039d600090565b50826200028e565b6200037d56fe6080604052600436101561001257600080fd5b60003560e01c806301ffc9a7146101b25780630905f560146101ad5780630919ee1e146101a85780631732d330146101a357806319f0011b1461019e578063248a9ca3146101995780632ce9aead146101945780632f2ff15d1461018f57806336568abe1461018a57806361f401e2146101855780636ace4680146101805780636f8c10a81461017b5780638003a94f1461017657806391d148541461017157806399b20eaf1461016c5780639b5d0968146101675780639d7f7e86146101625780639eff0cfc1461015d578063a217fddf14610158578063b05f233a14610153578063b61a790b1461014e578063c124a24714610149578063cdeb9ccb14610144578063d547741f1461013f578063e1f1c4a71461013a5763e6d7300a036101b757610b34565b610b07565b610adb565b610abf565b610a72565b61096b565b610927565b6108f9565b6108cc565b6108b1565b610876565b610852565b610836565b6107fd565b6107e1565b6107b0565b6106d1565b610629565b61060b565b6105cd565b610573565b61051a565b61032c565b6102fb565b610273565b610211565b600080fd5b7fffffffff0000000000000000000000000000000000000000000000000000000081165b036101b757565b905035906101f4826101bc565b565b906020828203126101b75761020a916101e7565b90565b9052565b346101b75761023e61022c6102273660046101f6565b610b4f565b60405191829182901515815260200190565b0390f35b60009103126101b757565b61020a916008021c5b60ff1690565b9061020a915461024d565b61020a6000600a61025c565b346101b757610283366004610242565b61023e61022c610267565b61020a9081565b61020a905461028e565b6102a96006610295565b906102b46007610295565b906102bf6008610295565b9061020a6009610295565b6102f76101f4946102f06060949897956102e9608086019a6000870152565b6020850152565b6040830152565b0152565b346101b75761030b366004610242565b61023e61031661029f565b9061032394929460405190565b948594856102ca565b346101b75761033c366004610242565b61023e7f9792fdc19ab98adfa72ab2fa98d342618c661e01c406979c105b31eda87f5e6f5b6040519182918290815260200190565b6001600160a01b031690565b6001600160a01b0381166101e0565b905035906101f48261037d565b600511156101b757565b905035906101f482610399565b91906040838203126101b75761020a9060206103cc828661038c565b94016103a3565b61037161020a61020a926001600160a01b031690565b61020a906103d3565b61020a906103e9565b90610405906103f2565b600052602052604060002090565b634e487b7160e01b600052602160045260246000fd5b6005111561043357565b610413565b906101f482610429565b61020a90610438565b9061040590610442565b61020a90610256565b61020a9054610455565b61020a9060081c610256565b61020a9054610468565b9061048d6104929260026103fb565b61044b565b61049b81610295565b916104a860018301610295565b916104b560028201610295565b9161020a60036104c681850161045e565b9301610474565b61020d90610442565b909594926101f494610508610512926105016080966104fa60a088019c6000890152565b6020870152565b6040850152565b60608301906104cd565b019015159052565b346101b75761023e6105366105303660046103b0565b9061047e565b9161054395939560405190565b958695866104d6565b806101e0565b905035906101f48261054c565b906020828203126101b75761020a91610552565b346101b75761023e61036161058936600461055f565b610bf1565b906020828203126101b75761020a9161038c565b61020a916008021c81565b9061020a91546105a2565b60006105c861020a9260056103fb565b6105ad565b346101b75761023e6103616105e336600461058e565b6105b8565b91906040838203126101b75761020a9060206106048286610552565b940161038c565b346101b75761062461061e3660046105e8565b90610c33565b604051005b346101b75761062461063c3660046105e8565b90610c3d565b91906040838203126101b75761020a90602061065e828661038c565b9401610552565b634e487b7160e01b600052603260045260246000fd5b805482101561069e57610695600491600052602060002090565b91020190600090565b610665565b6106ae9060036103fb565b906106b7825490565b8110156101b7576106c79161067b565b5061049b81610295565b346101b75761023e6105366106e7366004610642565b906106a3565b906020828203126101b75761020a916103a3565b61020a90610371565b61020a9054610701565b61020a9060a01c610256565b61020a9054610714565b61073590600461044b565b61073e8161070a565b9161074882610720565b9161075560018201610295565b9161020a60036107676002850161045e565b9301610295565b909594926101f4946107a76102f79261050160809661079d60a088019c60008901906001600160a01b03169052565b60208701906104cd565b15156060830152565b346101b75761023e6107cb6107c63660046106ed565b61072a565b916107d895939560405190565b9586958661076e565b346101b75761023e6103616107f7366004610642565b90610f39565b346101b75761080d366004610242565b61023e7fc307c44629779eb8fc0b85f224c3d22f5876a6c84de0ee42d481eb7814f0d3a8610361565b346101b75761023e61022c61084c3660046105e8565b90611099565b346101b757610862366004610242565b61062461117b565b61020a6000600b6105ad565b346101b757610886366004610242565b61023e61036161086a565b61020a61020a61020a9290565b61020a610e10610891565b61020a61089e565b346101b7576108c1366004610242565b61023e6103616108a9565b346101b75761023e6103616108e236600461058e565b6112cc565b61020a6000610891565b61020a6108e7565b346101b757610909366004610242565b61023e6103616108f1565b61020a6101f4610891565b61020a610914565b346101b757610937366004610242565b61023e61036161091f565b90916060828403126101b75761020a61095b848461038c565b9360406103cc8260208701610552565b346101b75761062461097e366004610942565b916117f5565b634e487b7160e01b600052604160045260246000fd5b90601f01601f1916810190811067ffffffffffffffff8211176109bc57604052565b610984565b906101f46109ce60405190565b928361099a565b67ffffffffffffffff81116109bc57602090601f01601f19160190565b0190565b90826000939282370152565b90929192610a17610a12826109d5565b6109c1565b93818552818301116101b7576101f49160208501906109f6565b9080601f830112156101b75781602061020a93359101610a02565b906020828203126101b757813567ffffffffffffffff81116101b75761020a9201610a31565b346101b757610624610a85366004610a4c565b6118c4565b6080818303126101b757610a9e82826103a3565b9261020a610aaf846020850161038c565b93606061065e8260408701610552565b346101b757610624610ad2366004610a8a565b92919091611bf8565b346101b757610624610aee3660046105e8565b90611c1f565b61020a612710610891565b61020a610af4565b346101b757610b17366004610242565b61023e610361610aff565b61020a6003610891565b61020a610b22565b346101b757610b44366004610242565b61023e610361610b2c565b7f7965db0b000000000000000000000000000000000000000000000000000000007fffffffff00000000000000000000000000000000000000000000000000000000821614908115610b9f575090565b61020a91507fffffffff00000000000000000000000000000000000000000000000000000000167f01ffc9a7000000000000000000000000000000000000000000000000000000001490565b90610405565b6001610c0a61020a92610c02600090565b506000610beb565b01610295565b906101f491610c26610c2182610bf1565b611c29565b90610c3091611c34565b50565b906101f491610c10565b90610c4733610371565b6001600160a01b03821603610c5f57610c3091611cb5565b6040517f6697b232000000000000000000000000000000000000000000000000000000008152600490fd5b0390fd5b15610c9557565b60405162461bcd60e51b815260206004820152600e60248201527f496e76616c696420706572696f640000000000000000000000000000000000006044820152606490fd5b67ffffffffffffffff81116109bc5760208091020190565b90610cff610a1283610cda565b918252565b9061020d90610438565b61020a60a06109c1565b906101f4610d836003610d29610d0e565b94610d3a610d3682610295565b8752565b610d50610d4960018301610295565b6020880152565b610d66610d5f60028301610295565b6040880152565b610d7d610d7483830161045e565b60608801610d04565b01610474565b15156080840152565b61020a90610d18565b90610d9e825490565b610da781610cf2565b92610dbb6020850191600052602060002090565b6000915b838310610dcc5750505050565b60046020600192610ddc85610d8c565b815201920192019190610dbf565b61020a90610d95565b15610dfa57565b60405162461bcd60e51b815260206004820152601060248201527f4e6f20707269636520686973746f7279000000000000000000000000000000006044820152606490fd5b634e487b7160e01b600052601160045260246000fd5b8015610e62576000190190565b610e3f565b91908203918211610e6257565b90610e7d825190565b81101561069e576020809102010190565b81810292918115918404141715610e6257565b91908201809211610e6257565b6000198114610e625760010190565b15610ec457565b60405162461bcd60e51b815260206004820152601760248201527f4e6f2076616c6964206461746120696e20706572696f640000000000000000006044820152606490fd5b634e487b7160e01b600052601260045260246000fd5b90610f29565b9190565b908115610f34570490565b610f09565b909190610f6e610f69600092610f4e84610891565b86118061107e575b610f6290969596610c8e565b60036103fb565b610dea565b91610f8c610f7a845190565b610f86610f2585610891565b11610df3565b610f9582610891565b9384908592610fa2865190565b965b610fad86610891565b88111561106757610fd0610fca610fc46001610891565b8a610e67565b88610e74565b5160208101610fe6610fe0825190565b42610e67565b8410611042578761102861103a946110226110349561101d61101561100f610fe061102e995190565b8b610e67565b958692015190565b610e8e565b90610ea1565b96610ea1565b95610eae565b97610e55565b969392610fa4565b505093505094509161020a935061105b61106291610891565b8311610ebd565b610f1f565b93505094509161020a935061105b61106291610891565b50610f6261108f61020a6008610295565b8711159050610f56565b61020a9160006110b56110bb936110ae600090565b5082610beb565b016103fb565b61045e565b6110cb610c216108e7565b6101f4611149565b156110da57565b60405162461bcd60e51b815260206004820152600860248201527f546f6f20736f6f6e0000000000000000000000000000000000000000000000006044820152606490fd5b9060ff905b9181191691161790565b9061113e61020a61114592151590565b825461111f565b9055565b61116f61116761020a61115c600b610295565b611022610e10610891565b4210156110d3565b6101f46000600a61112e565b6101f46110c0565b1561118a57565b60405162461bcd60e51b815260206004820152601560248201527f456d657267656e6379206d6f64652061637469766500000000000000000000006044820152606490fd5b369037565b906101f46111ea6111e484610cf2565b93610cda565b601f1901602084016111cf565b61120461020a61020a9290565b610438565b906101f4611270600361121a610d0e565b946112346112278261070a565b6001600160a01b03168752565b61124961124082610720565b60208801610d04565b611258610d5f60018301610295565b610c0a6112676002830161045e565b15156060880152565b6080840152565b61020a90611209565b1561128757565b60405162461bcd60e51b815260206004820152601b60248201527f496e73756666696369656e74206f7261636c6520736f757263657300000000006044820152606490fd5b6112e56112e06112dc600a61045e565b1590565b611183565b6112ef6005610891565b906112f9826111d4565b90611303836111d4565b6000906113106000610891565b92835b868110156113f357611324816111f7565b8661133861133383600461044b565b611277565b916113466060840151151590565b61135d575b5050506113589060010190565b611313565b61136f6113749161048d8760026103fb565b610d8c565b60808101511515806113cf575b1561134b576113b760406113c6946113b28b956113af611358999d6113a98e6113c199015190565b92610e74565b52565b015190565b6113af8388610e74565b610eae565b9490863861134b565b506113de610fe0602083015190565b6113ec610f2561020a61089e565b1115611381565b50945061020a9391508261141d9161141761140f61020a610b22565b831015611280565b83611d11565b8094611f73565b6101f49291906114537f9792fdc19ab98adfa72ab2fa98d342618c661e01c406979c105b31eda87f5e6f611c29565b611666565b1561145f57565b60405162461bcd60e51b815260206004820152600d60248201527f496e76616c6964207072696365000000000000000000000000000000000000006044820152606490fd5b156114ab57565b60405162461bcd60e51b815260206004820152601160248201527f4f7261636c65206e6f74206163746976650000000000000000000000000000006044820152606490fd5b6001600160a01b0390911681526060810193926101f4929091604091611517906020830152565b01906104cd565b634e487b7160e01b600052600060045260246000fd5b9060001990611124565b9061154e61020a61114592610891565b8254611534565b61020a9051610438565b9061113e61020a61114592610442565b9061ff009060081b611124565b9061158c61020a61114592151590565b825461156f565b906115ff608060036101f4946115b36115ad600087015190565b8261153e565b6115ca6115c1602087015190565b6001830161153e565b6115e16115d8604087015190565b6002830161153e565b01926115f86115f260608301611555565b8561155f565b0151151590565b9061157c565b906101f491611593565b919061161e576101f491611593565b61151e565b90815491680100000000000000008310156109bc578261164b9160016101f49501815561067b565b9061160f565b9081526040810192916101f491602090611517565b91909161167d6116766000610891565b8411611458565b61169b611696600261169085600461044b565b0161045e565b6114a4565b6116a682848361202e565b6117b8579061178f8261173b6116dd867f5cf0b3ec05876abbfc211c445acba869514647943783a49e986809ef59164a0c966120cd565b6116fc6116e8610d0e565b916116f1898452565b6102f0426020850152565b6117098560608301610d04565b60016080820152611728816117238761048d8760026103fb565b611605565b61173661020a8460036103fb565b611623565b6117506117498260056103fb565b429061153e565b61176261175e8260036103fb565b5490565b611785610f2561020a6117756006610295565b61177f6005610891565b90610e8e565b116117aa576103f2565b926117a561179c60405190565b92839283611651565b0390a2565b6117b38161234d565b6103f2565b6117f07f09f142b776f3bbfd56af6cd0146afdaae4ce8e158dd7266c9ace16dcd4a4668e93926117e760405190565b938493846114f0565b0390a1565b906101f49291611424565b6101f49061180f610c216108e7565b61187c565b60005b8381106118275750506000910152565b8181015183820152602001611817565b6118586118616020936109f29361184c815190565b80835293849260200190565b95869101611814565b601f01601f191690565b602080825261020a92910190611837565b6117f07fe13170823cb898d36530d9b68aa18c35c421d49906a760dbed76c8aa582768d5916118ad6001600a61112e565b6118b842600b61153e565b6040519182918261186b565b6101f490611800565b6101f4939291906118fd7fc307c44629779eb8fc0b85f224c3d22f5876a6c84de0ee42d481eb7814f0d3a8611c29565b611b08565b61037161020a61020a9290565b61020a90611902565b1561191f57565b60405162461bcd60e51b815260206004820152600e60248201527f496e76616c6964206f7261636c650000000000000000000000000000000000006044820152606490fd5b1561196b57565b60405162461bcd60e51b815260206004820152600e60248201527f496e76616c6964207765696768740000000000000000000000000000000000006044820152606490fd5b156119b757565b60405162461bcd60e51b815260206004820152601260248201527f446576696174696f6e20746f6f206869676800000000000000000000000000006044820152606490fd5b906001600160a01b0390611124565b90611a1b61020a611145926103f2565b82546119fc565b9074ff00000000000000000000000000000000000000009060a01b611124565b90611a5261020a61114592610442565b8254611a22565b6101f491600390611ac790608090611a9785611a85611a7f84516001600160a01b031690565b82611a0b565b611a9160208401611555565b90611a42565b611aae611aa5604083015190565b6001870161153e565b6113b2611abe6060830151151590565b6002870161112e565b910161153e565b906101f491611a59565b6040906102f76101f49496959396611af8606084019860008501906104cd565b6001600160a01b03166020830152565b90916117f090611bd37f917e1205dbaa4247d19d9c9cd0a38862a195b2e3c9f337f4c66be70947dd807695611b54611b43610371600061190f565b6001600160a01b0388161415611918565b611b5e6000610891565b831180611bdf575b611b6f90611964565b611b85611b7d6103e8610891565b8211156119b0565b611bc3611b90610d0e565b6001600160a01b038816815291611baa8760208501610d04565b611bb5856040850152565b600160608401526080830152565b611bce85600461044b565b611ace565b60405193849384611ad8565b50611b6f611bee61020a610af4565b8411159050611b66565b906101f49392916118cd565b906101f491611c15610c2182610bf1565b90610c3091611cb5565b906101f491611c04565b6101f4903390612472565b611c416112dc8383611099565b15611cae57611c606001611c5b8460006110b58682610beb565b61112e565b611c7a611c74611c6e339390565b936103f2565b916103f2565b917f2f8788117e7eff1d82e926ec794901d17c78024a50270940304540a733656f0d611ca560405190565b600090a4600190565b5050600090565b611cbf8282611099565b15611cae57611cd86000611c5b84826110b58682610beb565b611ce6611c74611c6e339390565b917ff6391f5c32d9c69d2a47ea670b442974b53935d1edc7fd64eb21e047a839171b611ca560405190565b60009392611d1e85610891565b6001611d3561020a611d2f83610891565b85610e67565b821015611e675780611d4688610891565b905b611d57575b5050600101611d1e565b611d7661020a611d678587610e67565b611d7085610891565b90610e67565b811015611e6257611dc281611d93611d8f859489610e74565b5190565b611db7610f2561020a611d8f611db1611dab89610891565b87610ea1565b8c610e74565b11611dc85760010190565b90611d48565b611e12611dd8611d8f838a610e74565b611df7611ded611d8f611db1611dab89610891565b6113af858c610e74565b6113af611e0c611e0687610891565b85610ea1565b8a610e74565b611e5c611e22611d8f838b610e74565b611e47611e3d611d8f611e37611dab89610891565b8d610e74565b6113af858d610e74565b6113af611e56611e0687610891565b8b610e74565b60010190565b611d4d565b50509392909193611e7784610891565b92835b82851015611ea357611e96611e9d91611022611d8f888b610e74565b9460010190565b93611e7a565b611ec8919450611ec2909692959396611ebc6002610891565b90610f1f565b92610891565b90815b85831015611f0857611ee490611022611d8f8585610e74565b9183831015611ef65760010191611ecb565b9250505061020a9250611d8f91610e74565b50505050611d8f90611f2161020a93611d706001610891565b90610e74565b15611f2e57565b60405162461bcd60e51b815260206004820152601660248201527f5072696365206f75746c696572206465746563746564000000000000000000006044820152606490fd5b5092600090611f826000610891565b845b81101561202657611ffb611f8491611f9a600090565b50858189611fab611d8f8385610e74565b81101561200257611062611fd182611fcc611d8f611fd996611e5c98610e74565b610e67565b61177f610af4565b611ff4610f2561020a611fea610914565b61177f6002610891565b1115611f27565b9050611f82565b611062611fd161201b611d8f61202195611e5c97610e74565b83610e67565b611fd9565b509350505050565b9061203a6000926124c3565b60009261204684610891565b82146120c55761207f92600392610c0a925061205f8190565b8211156120af57611062611fd18261207694610e67565b945b600461044b565b61208c610f258293610891565b14612099571090565b1190565b50612095610f256120a8610914565b9150501090565b611062611fd16120bf9383610e67565b94612078565b505050905090565b9060006120d981610891565b9081805b6120e76005610891565b8110156121ce576120f7816111f7565b612107600261169083600461044b565b61211a575b506001016120dd565b6120dd565b61136f61212c9161048d8960026103fb565b8561213a6080830151151590565b806121aa575b61214b575b5061210c565b9092948461215c6121159497610eae565b940161216961020a825190565b83111561218e5761218592611062611fd161201b611022945190565b935b9085612145565b82611062611fd16121a495611fcc611022955190565b93612187565b506121b9610fe0602084015190565b6121c7610f2561020a61089e565b1115612140565b50935091506121dc82610891565b8314612220576122056121f28461220d93610f1f565b9361101d6121fe610af4565b9586610e67565b611ebc610b22565b90508181111561221b575090565b905090565b5061020a9150610891565b90808203612237575050565b6115ff6003806101f4946122506115ad60008701610295565b61225f6115c160018701610295565b61226e6115d860028701610295565b01920161228361227d8261045e565b8461155f565b610474565b919061161e576101f49161222b565b634e487b7160e01b600052603160045260246000fd5b9160001960089290920291821b911b611124565b91906122d261020a61114593610891565b9083546122ad565b6101f4916000916122c1565b6000906003906122f683826122da565b61230383600183016122da565b61231083600283016122da565b0155565b9060000361161e576101f4906122e6565b8054801561234857600019019061234561233f838361067b565b90612314565b55565b612297565b61020a61235b9160036103fb565b612368610fe06008610295565b90600061237481610891565b92835b61238261020a855490565b81101561244c5761239f6001612398838761067b565b5001610295565b8211156123ae57600101612377565b91929350505b6123bd82610891565b81116123c857505050565b9091926123d483610891565b6123e361020a84611fcc885490565b81101561241a5780611e5c6124046123fe8661241595610ea1565b8861067b565b5061240f838961067b565b90612288565b6123d4565b50909161242690610891565b825b8110156124465761243f61242891611e5c86612325565b9050612426565b50915050565b505090916123b4565b6001600160a01b0390911681526040810192916101f49160200152565b906124806112dc8284611099565b612488575050565b610c8a61249460405190565b9283927fe2517d3f00000000000000000000000000000000000000000000000000000000845260048401612455565b60006124ce81610891565b908190825b6124dd6005610891565b81101561257b576124ed816111f7565b6124fd600261169083600461044b565b612510575b506001016124d3565b6124d3565b61136f6125229161048d8860026103fb565b6080810151151580612557575b156125025761254a61250b9294956110228561255094015190565b94610eae565b9290612502565b50612566610fe0602083015190565b612574610f2561020a61089e565b111561252f565b5092509061258883610891565b8211156125995761020a9250610f1f565b505061020a9061089156fea2646970667358221220fc7d216ace9efe6d0f862317e03add28863c1dbee24a855fe2359bab2b3cbfaf64736f6c63430008160033",
  "linkReferences": {},
  "deployedLinkReferences": {}
}