{
  "_format": "hh-sol-artifact-1",
  "contractName": "MinimalContract",
  "sourceName": "contracts/MinimalContract.sol",
  "abi": [
    {
      "inputs": [],
      "name": "VERSION",
      "outputs": [
        {
          "internalType": "uint256",
          "name": "",
          "type": "uint256"
        }
      ],
      "stateMutability": "view",
      "type": "function"
    },
    {
      "inputs": [],
      "name": "test",
      "outputs": [
        {
          "internalType": "bool",
          "name": "",
          "type": "bool"
        }
      ],
      "stateMutability": "pure",
      "type": "function"
    }
  ],
  "bytecode": "0x6080604052346100185760405160d461001e823960d490f35b600080fdfe60806040526004361015601157600080fd5b60003560e01c8063f8a8fd6d14602e5763ffa1ad74036032576079565b6041565b600080fd5b6000910312603257565b34603257604e3660046037565b60405160018152602090f35b0390f35b6068606860689290565b90565b60686001605e565b6068606b565b3460325760863660046037565b605a608e6073565b604051918291829081526020019056fea264697066735822122080ebf392e3740c6c082460cbcbca77d3b94511548b4372bda7184a83f733185064736f6c63430008160033",
  "linkReferences": {},
  "deployedLinkReferences": {}
}