{
  "_format": "hh-sol-artifact-1",
  "contractName": "HyperliquidAdapter",
  "sourceName": "contracts/HyperliquidAdapter.sol",
  "abi": [
    {
      "inputs": [
        {
          "internalType": "address",
          "name": "_aggregator",
          "type": "address"
        }
      ],
      "stateMutability": "nonpayable",
      "type": "constructor"
    },
    {
      "inputs": [],
      "name": "AccessControlBadConfirmation",
      "type": "error"
    },
    {
      "inputs": [
        {
          "internalType": "address",
          "name": "account",
          "type": "address"
        },
        {
          "internalType": "bytes32",
          "name": "neededRole",
          "type": "bytes32"
        }
      ],
      "name": "AccessControlUnauthorizedAccount",
      "type": "error"
    },
    {
      "inputs": [],
      "name": "EnforcedPause",
      "type": "error"
    },
    {
      "inputs": [],
      "name": "ExpectedPause",
      "type": "error"
    },
    {
      "inputs": [],
      "name": "ReentrancyGuardReentrantCall",
      "type": "error"
    },
    {
      "inputs": [
        {
          "internalType": "address",
          "name": "token",
          "type": "address"
        }
      ],
      "name": "SafeERC20FailedOperation",
      "type": "error"
    },
    {
      "anonymous": false,
      "inputs": [
        {
          "indexed": false,
          "internalType": "address",
          "name": "dex",
          "type": "address"
        },
        {
          "indexed": false,
          "internalType": "address",
          "name": "oracle",
          "type": "address"
        },
        {
          "indexed": false,
          "internalType": "address",
          "name": "vault",
          "type": "address"
        }
      ],
      "name": "HyperliquidConfigured",
      "type": "event"
    },
    {
      "anonymous": false,
      "inputs": [
        {
          "indexed": false,
          "internalType": "address",
          "name": "token",
          "type": "address"
        },
        {
          "indexed": false,
          "internalType": "uint256",
          "name": "amount",
          "type": "uint256"
        }
      ],
      "name": "LiquidityProvided",
      "type": "event"
    },
    {
      "anonymous": false,
      "inputs": [
        {
          "indexed": false,
          "internalType": "bytes32",
          "name": "orderId",
          "type": "bytes32"
        },
        {
          "indexed": false,
          "internalType": "address",
          "name": "trader",
          "type": "address"
        },
        {
          "indexed": false,
          "internalType": "uint256",
          "name": "amount",
          "type": "uint256"
        }
      ],
      "name": "OrderPlaced",
      "type": "event"
    },
    {
      "anonymous": false,
      "inputs": [
        {
          "indexed": false,
          "internalType": "address",
          "name": "account",
          "type": "address"
        }
      ],
      "name": "Paused",
      "type": "event"
    },
    {
      "anonymous": false,
      "inputs": [
        {
          "indexed": true,
          "internalType": "bytes32",
          "name": "role",
          "type": "bytes32"
        },
        {
          "indexed": true,
          "internalType": "bytes32",
          "name": "previousAdminRole",
          "type": "bytes32"
        },
        {
          "indexed": true,
          "internalType": "bytes32",
          "name": "newAdminRole",
          "type": "bytes32"
        }
      ],
      "name": "RoleAdminChanged",
      "type": "event"
    },
    {
      "anonymous": false,
      "inputs": [
        {
          "indexed": true,
          "internalType": "bytes32",
          "name": "role",
          "type": "bytes32"
        },
        {
          "indexed": true,
          "internalType": "address",
          "name": "account",
          "type": "address"
        },
        {
          "indexed": true,
          "internalType": "address",
          "name": "sender",
          "type": "address"
        }
      ],
      "name": "RoleGranted",
      "type": "event"
    },
    {
      "anonymous": false,
      "inputs": [
        {
          "indexed": true,
          "internalType": "bytes32",
          "name": "role",
          "type": "bytes32"
        },
        {
          "indexed": true,
          "internalType": "address",
          "name": "account",
          "type": "address"
        },
        {
          "indexed": true,
          "internalType": "address",
          "name": "sender",
          "type": "address"
        }
      ],
      "name": "RoleRevoked",
      "type": "event"
    },
    {
      "anonymous": false,
      "inputs": [
        {
          "indexed": false,
          "internalType": "address",
          "name": "token",
          "type": "address"
        },
        {
          "indexed": false,
          "internalType": "uint256",
          "name": "price",
          "type": "uint256"
        },
        {
          "indexed": false,
          "internalType": "uint256",
          "name": "timestamp",
          "type": "uint256"
        }
      ],
      "name": "TWAPUpdated",
      "type": "event"
    },
    {
      "anonymous": false,
      "inputs": [
        {
          "indexed": false,
          "internalType": "address",
          "name": "account",
          "type": "address"
        }
      ],
      "name": "Unpaused",
      "type": "event"
    },
    {
      "inputs": [],
      "name": "BASIS_POINTS",
      "outputs": [
        {
          "internalType": "uint256",
          "name": "",
          "type": "uint256"
        }
      ],
      "stateMutability": "view",
      "type": "function"
    },
    {
      "inputs": [],
      "name": "DEFAULT_ADMIN_ROLE",
      "outputs": [
        {
          "internalType": "bytes32",
          "name": "",
          "type": "bytes32"
        }
      ],
      "stateMutability": "view",
      "type": "function"
    },
    {
      "inputs": [],
      "name": "MAX_SLIPPAGE",
      "outputs": [
        {
          "internalType": "uint256",
          "name": "",
          "type": "uint256"
        }
      ],
      "stateMutability": "view",
      "type": "function"
    },
    {
      "inputs": [],
      "name": "OPERATOR_ROLE",
      "outputs": [
        {
          "internalType": "bytes32",
          "name": "",
          "type": "bytes32"
        }
      ],
      "stateMutability": "view",
      "type": "function"
    },
    {
      "inputs": [],
      "name": "STRATEGIST_ROLE",
      "outputs": [
        {
          "internalType": "bytes32",
          "name": "",
          "type": "bytes32"
        }
      ],
      "stateMutability": "view",
      "type": "function"
    },
    {
      "inputs": [],
      "name": "TWAP_WINDOW",
      "outputs": [
        {
          "internalType": "uint256",
          "name": "",
          "type": "uint256"
        }
      ],
      "stateMutability": "view",
      "type": "function"
    },
    {
      "inputs": [],
      "name": "UPDATE_INTERVAL",
      "outputs": [
        {
          "internalType": "uint256",
          "name": "",
          "type": "uint256"
        }
      ],
      "stateMutability": "view",
      "type": "function"
    },
    {
      "inputs": [
        {
          "internalType": "bytes32",
          "name": "",
          "type": "bytes32"
        }
      ],
      "name": "activeOrders",
      "outputs": [
        {
          "internalType": "address",
          "name": "trader",
          "type": "address"
        },
        {
          "internalType": "address",
          "name": "token",
          "type": "address"
        },
        {
          "internalType": "uint256",
          "name": "amount",
          "type": "uint256"
        },
        {
          "internalType": "uint256",
          "name": "price",
          "type": "uint256"
        },
        {
          "internalType": "enum IHyperliquidDEX.OrderType",
          "name": "orderType",
          "type": "uint8"
        },
        {
          "internalType": "enum IHyperliquidDEX.Side",
          "name": "side",
          "type": "uint8"
        },
        {
          "internalType": "uint256",
          "name": "leverage",
          "type": "uint256"
        },
        {
          "internalType": "uint256",
          "name": "timestamp",
          "type": "uint256"
        },
        {
          "internalType": "enum IHyperliquidDEX.OrderStatus",
          "name": "status",
          "type": "uint8"
        },
        {
          "internalType": "bytes32",
          "name": "orderId",
          "type": "bytes32"
        }
      ],
      "stateMutability": "view",
      "type": "function"
    },
    {
      "inputs": [
        {
          "internalType": "address",
          "name": "tokenA",
          "type": "address"
        },
        {
          "internalType": "address",
          "name": "tokenB",
          "type": "address"
        },
        {
          "internalType": "uint256",
          "name": "amountA",
          "type": "uint256"
        },
        {
          "internalType": "uint256",
          "name": "amountB",
          "type": "uint256"
        }
      ],
      "name": "addLiquidity",
      "outputs": [
        {
          "internalType": "uint256",
          "name": "liquidity",
          "type": "uint256"
        }
      ],
      "stateMutability": "nonpayable",
      "type": "function"
    },
    {
      "inputs": [],
      "name": "aggregator",
      "outputs": [
        {
          "internalType": "contract MultiDEXAggregator",
          "name": "",
          "type": "address"
        }
      ],
      "stateMutability": "view",
      "type": "function"
    },
    {
      "inputs": [],
      "name": "config",
      "outputs": [
        {
          "internalType": "address",
          "name": "dexAddress",
          "type": "address"
        },
        {
          "internalType": "address",
          "name": "oracleAddress",
          "type": "address"
        },
        {
          "internalType": "address",
          "name": "vaultAddress",
          "type": "address"
        },
        {
          "internalType": "bool",
          "name": "isActive",
          "type": "bool"
        },
        {
          "internalType": "uint256",
          "name": "maxSlippage",
          "type": "uint256"
        },
        {
          "internalType": "uint256",
          "name": "defaultLeverage",
          "type": "uint256"
        }
      ],
      "stateMutability": "view",
      "type": "function"
    },
    {
      "inputs": [
        {
          "internalType": "address",
          "name": "_dex",
          "type": "address"
        },
        {
          "internalType": "address",
          "name": "_oracle",
          "type": "address"
        },
        {
          "internalType": "address",
          "name": "_vault",
          "type": "address"
        }
      ],
      "name": "configureHyperliquid",
      "outputs": [],
      "stateMutability": "nonpayable",
      "type": "function"
    },
    {
      "inputs": [
        {
          "internalType": "address",
          "name": "token",
          "type": "address"
        },
        {
          "internalType": "uint256",
          "name": "amount",
          "type": "uint256"
        },
        {
          "internalType": "bytes",
          "name": "data",
          "type": "bytes"
        }
      ],
      "name": "executeFlashLoan",
      "outputs": [],
      "stateMutability": "nonpayable",
      "type": "function"
    },
    {
      "inputs": [
        {
          "internalType": "address",
          "name": "tokenIn",
          "type": "address"
        },
        {
          "internalType": "address",
          "name": "tokenOut",
          "type": "address"
        },
        {
          "internalType": "uint256",
          "name": "amountIn",
          "type": "uint256"
        },
        {
          "internalType": "uint256",
          "name": "minAmountOut",
          "type": "uint256"
        }
      ],
      "name": "executeHyperliquidSwap",
      "outputs": [
        {
          "internalType": "uint256",
          "name": "amountOut",
          "type": "uint256"
        }
      ],
      "stateMutability": "nonpayable",
      "type": "function"
    },
    {
      "inputs": [
        {
          "internalType": "uint256",
          "name": "strategyId",
          "type": "uint256"
        }
      ],
      "name": "executeVaultStrategy",
      "outputs": [],
      "stateMutability": "nonpayable",
      "type": "function"
    },
    {
      "inputs": [
        {
          "internalType": "address",
          "name": "token",
          "type": "address"
        },
        {
          "internalType": "uint256",
          "name": "depth",
          "type": "uint256"
        }
      ],
      "name": "getOrderBook",
      "outputs": [
        {
          "internalType": "uint256[]",
          "name": "bidPrices",
          "type": "uint256[]"
        },
        {
          "internalType": "uint256[]",
          "name": "bidAmounts",
          "type": "uint256[]"
        },
        {
          "internalType": "uint256[]",
          "name": "askPrices",
          "type": "uint256[]"
        },
        {
          "internalType": "uint256[]",
          "name": "askAmounts",
          "type": "uint256[]"
        }
      ],
      "stateMutability": "view",
      "type": "function"
    },
    {
      "inputs": [
        {
          "internalType": "bytes32",
          "name": "role",
          "type": "bytes32"
        }
      ],
      "name": "getRoleAdmin",
      "outputs": [
        {
          "internalType": "bytes32",
          "name": "",
          "type": "bytes32"
        }
      ],
      "stateMutability": "view",
      "type": "function"
    },
    {
      "inputs": [
        {
          "internalType": "address",
          "name": "token",
          "type": "address"
        }
      ],
      "name": "getSpotPrice",
      "outputs": [
        {
          "internalType": "uint256",
          "name": "",
          "type": "uint256"
        }
      ],
      "stateMutability": "view",
      "type": "function"
    },
    {
      "inputs": [
        {
          "internalType": "address",
          "name": "token",
          "type": "address"
        }
      ],
      "name": "getTWAPPrice",
      "outputs": [
        {
          "internalType": "uint256",
          "name": "",
          "type": "uint256"
        }
      ],
      "stateMutability": "view",
      "type": "function"
    },
    {
      "inputs": [
        {
          "internalType": "bytes32",
          "name": "role",
          "type": "bytes32"
        },
        {
          "internalType": "address",
          "name": "account",
          "type": "address"
        }
      ],
      "name": "grantRole",
      "outputs": [],
      "stateMutability": "nonpayable",
      "type": "function"
    },
    {
      "inputs": [
        {
          "internalType": "bytes32",
          "name": "role",
          "type": "bytes32"
        },
        {
          "internalType": "address",
          "name": "account",
          "type": "address"
        }
      ],
      "name": "hasRole",
      "outputs": [
        {
          "internalType": "bool",
          "name": "",
          "type": "bool"
        }
      ],
      "stateMutability": "view",
      "type": "function"
    },
    {
      "inputs": [],
      "name": "pause",
      "outputs": [],
      "stateMutability": "nonpayable",
      "type": "function"
    },
    {
      "inputs": [],
      "name": "paused",
      "outputs": [
        {
          "internalType": "bool",
          "name": "",
          "type": "bool"
        }
      ],
      "stateMutability": "view",
      "type": "function"
    },
    {
      "inputs": [
        {
          "internalType": "bytes32",
          "name": "role",
          "type": "bytes32"
        },
        {
          "internalType": "address",
          "name": "callerConfirmation",
          "type": "address"
        }
      ],
      "name": "renounceRole",
      "outputs": [],
      "stateMutability": "nonpayable",
      "type": "function"
    },
    {
      "inputs": [
        {
          "internalType": "bytes32",
          "name": "role",
          "type": "bytes32"
        },
        {
          "internalType": "address",
          "name": "account",
          "type": "address"
        }
      ],
      "name": "revokeRole",
      "outputs": [],
      "stateMutability": "nonpayable",
      "type": "function"
    },
    {
      "inputs": [
        {
          "internalType": "uint256",
          "name": "_maxSlippage",
          "type": "uint256"
        }
      ],
      "name": "setMaxSlippage",
      "outputs": [],
      "stateMutability": "nonpayable",
      "type": "function"
    },
    {
      "inputs": [
        {
          "internalType": "bytes4",
          "name": "interfaceId",
          "type": "bytes4"
        }
      ],
      "name": "supportsInterface",
      "outputs": [
        {
          "internalType": "bool",
          "name": "",
          "type": "bool"
        }
      ],
      "stateMutability": "view",
      "type": "function"
    },
    {
      "inputs": [],
      "name": "unpause",
      "outputs": [],
      "stateMutability": "nonpayable",
      "type": "function"
    },
    {
      "inputs": [
        {
          "internalType": "address",
          "name": "token",
          "type": "address"
        }
      ],
      "name": "updateTWAP",
      "outputs": [],
      "stateMutability": "nonpayable",
      "type": "function"
    },
    {
      "inputs": [
        {
          "internalType": "address",
          "name": "",
          "type": "address"
        }
      ],
      "name": "userBalances",
      "outputs": [
        {
          "internalType": "uint256",
          "name": "",
          "type": "uint256"
        }
      ],
      "stateMutability": "view",
      "type": "function"
    }
  ],
  "bytecode": "0x60806040523462000030576200001e62000018620000d3565b62000173565b60405161286162000335823961286190f35b600080fd5b634e487b7160e01b600052604160045260246000fd5b90601f01601f191681019081106001600160401b038211176200006d57604052565b62000035565b906200008a6200008260405190565b92836200004b565b565b6001600160a01b031690565b90565b6001600160a01b038116036200003057565b905051906200008a826200009b565b9060208282031262000030576200009891620000ad565b6200009862002b9680380380620000ea8162000073565b928339810190620000bc565b6200009862000098620000989290565b620000986000620000f6565b62000098906200008c906001600160a01b031682565b620000989062000112565b620000989062000128565b906001600160a01b03905b9181191691161790565b9062000167620000986200016f9262000133565b82546200013e565b9055565b620001cf6200008a9162000186620001d7565b6200019c6200019462000106565b33906200026b565b50620001c87f97667070c54ef182b0f5858b034beac1b6f3089aa2d3188bb1e8929f4fa9b92962000194565b5062000133565b600862000153565b6200008a62000214565b620000986001620000f6565b906000199062000149565b906200020c620000986200016f92620000f6565b8254620001ed565b6200008a62000222620001e1565b6001620001f8565b905b600052602052604060002090565b906200022c9062000133565b9060ff9062000149565b9062000263620000986200016f92151590565b825462000246565b6200027f6200027b83836200030d565b1590565b15620002ff57620002ab6001620002a58460006200029e86826200022a565b016200023a565b62000250565b620002ca620002c3620002bc339390565b9362000133565b9162000133565b917f2f8788117e7eff1d82e926ec794901d17c78024a50270940304540a733656f0d620002f660405190565b600090a4600190565b5050600090565b5460ff1690565b620000989160006200029e6200032e9362000326600090565b50826200022a565b6200030656fe6080604052600436101561001257600080fd5b60003560e01c806301ffc9a7146101f2578063245a7bfc146101ed578063248a9ca3146101e857806326224c64146101e35780632f2ff15d146101de57806336568abe146101d95780633f4ba83a146101d457806343f68a49146101cf5780635594ae35146101ca5780635c975abb146101c55780635cd9e019146101c057806379502c55146101bb5780638456cb59146101b657806389ac4147146101b157806390863566146101ac57806391d14854146101a7578063a217fddf146101a2578063a378a3241461019d578063c483584814610198578063cf6c62ea14610193578063d547741f1461018e578063e1f1c4a714610189578063e2c1d1d114610184578063e950bf0d1461017f578063f3df12531461017a578063f5b541a614610175578063f886726714610170578063f97595181461016b578063fcef5d06146101665763fdb4d65c036101f757610bb9565b610b5e565b610a81565b610a4f565b610a16565b6109fa565b61096c565b610951565b610924565b6108f8565b6108d9565b610885565b61084c565b610831565b610803565b6107e8565b6107cd565b610795565b610761565b610699565b61067e565b610644565b61046f565b610457565b61043e565b610420565b6103e2565b61034a565b6102fc565b610239565b600080fd5b6001600160e01b031981165b036101f757565b9050359061021c826101fc565b565b906020828203126101f7576102329161020f565b90565b9052565b346101f75761026661025461024f36600461021e565b610bd2565b60405191829182901515815260200190565b0390f35b60009103126101f757565b610232916008021c5b73ffffffffffffffffffffffffffffffffffffffff1690565b906102329154610275565b61023260006008610297565b61027e6102326102329273ffffffffffffffffffffffffffffffffffffffff1690565b610232906102ae565b610232906102d1565b610235906102da565b60208101929161021c91906102e3565b346101f75761030c36600461026a565b6102666103176102a2565b604051918291826102ec565b80610208565b9050359061021c82610323565b906020828203126101f75761023291610329565b346101f757610266610365610360366004610336565b610c3e565b6040519182918290815260200190565b6102088161027e565b9050359061021c82610375565b906020828203126101f7576102329161037e565b906103a9906102da565b600052602052604060002090565b610232916008021c81565b9061023291546103b7565b60006103dd61023292600b61039f565b6103c2565b346101f7576102666103656103f836600461038b565b6103cd565b91906040838203126101f7576102329060206104198286610329565b940161037e565b346101f7576104396104333660046103fd565b90610c80565b604051005b346101f7576104396104513660046103fd565b90610c8a565b346101f75761046736600461026a565b610439610cf5565b346101f757610439610482366004610336565b610da9565b906103a9565b6102329061027e565b610232905461048d565b6102329081565b61023290546104a0565b610232905b60ff1690565b61023290546104b1565b6102329060081c6104b6565b61023290546104c6565b6104e790600a610487565b906104f182610496565b916104fe60018201610496565b9161050b600283016104a7565b91610518600382016104a7565b91610525600483016104bc565b91610532600482016104d2565b9161053f600583016104a7565b9161054c600682016104a7565b91610232600861055e600785016104bc565b93016104a7565b6102359061027e565b634e487b7160e01b600052602160045260246000fd5b6005111561058e57565b61056e565b9061021c82610584565b61023290610593565b6102359061059d565b6002111561058e57565b9061021c826105af565b610232906105b9565b610235906105c3565b979593919a9998969492909a61014089019b60008a016105f491610565565b6020890161060191610565565b6040880152606087015260808601610618916105a6565b60a08501610625916105cc565b60c084015260e0830152610100820161063d916105a6565b6101200152565b346101f75761026661065f61065a366004610336565b6104dc565b966106759a989a96919695929594939460405190565b9a8b9a8b6105d5565b346101f75761068e36600461026a565b610266610254610db2565b346101f7576102666103656106af36600461038b565b610e4c565b6102329060a01c6104b6565b61023290546106b4565b6003906106d682610496565b916106e360018201610496565b916106f060028301610496565b916106fd600282016106c0565b91610232600461055e8480016104a7565b919461075661075d9298979561074d60a09661074361021c9a61073960c08a019e60008b0190610565565b6020890190610565565b6040870190610565565b15156060850152565b6080830152565b0152565b346101f75761077136600461026a565b61026661077c6106ca565b9261078c96949692919260405190565b9687968761070e565b346101f7576107a536600461026a565b610439610f2f565b6102326102326102329290565b610232610e106107ad565b6102326107ba565b346101f7576107dd36600461026a565b6102666103656107c5565b346101f7576102666103656107fe36600461038b565b6110f2565b346101f7576102666102546108193660046103fd565b906111f9565b61023260006107ad565b61023261081f565b346101f75761084136600461026a565b610266610365610829565b346101f75761085c36600461026a565b6102667f17a8e30262c1f919c33056d877a3c22b95c2f5e4dac44683c1c2323cd79fbdb0610365565b346101f75761043961089836600461038b565b611532565b6080818303126101f7576108b1828261037e565b926102326108c2846020850161037e565b9360606108d28260408701610329565b9401610329565b346101f7576102666103656108ef36600461089d565b92919091611851565b346101f75761043961090b3660046103fd565b9061187a565b6102326127106107ad565b610232610911565b346101f75761093436600461026a565b61026661036561091c565b61023260186107ad565b61023261093f565b346101f75761096136600461026a565b610266610365610949565b346101f75761043961097f366004610336565b6119b9565b909182601f830112156101f75781359167ffffffffffffffff83116101f75760200192600183028401116101f757565b916060838303126101f7576109c9828461037e565b926109d78360208301610329565b92604082013567ffffffffffffffff81116101f7576109f69201610984565b9091565b346101f757610439610a0d3660046109b4565b92919091611ab8565b346101f757610a2636600461026a565b6102667f97667070c54ef182b0f5858b034beac1b6f3089aa2d3188bb1e8929f4fa9b929610365565b346101f757610266610365610a6536600461089d565b92919091612007565b6102326101f46107ad565b610232610a6e565b346101f757610a9136600461026a565b610266610365610a79565b91906040838203126101f7576102329060206108d2828661037e565b0190565b90610adc610ad5610acb845190565b8084529260200190565b9260200190565b9060005b818110610aed5750505090565b909192610b0a610b036001928651815260200190565b9460200190565b929101610ae0565b92610b426102329593610b34610b5094608088019088820360008a0152610abc565b908682036020880152610abc565b908482036040860152610abc565b916060818403910152610abc565b346101f757610266610b7a610b74366004610a9c565b90612105565b90610b8794929460405190565b94859485610b12565b90916060828403126101f757610232610ba9848461037e565b936040610419826020870161037e565b346101f757610439610bcc366004610b90565b916123e4565b7f7965db0b000000000000000000000000000000000000000000000000000000006001600160e01b0319821614908115610c0a575090565b61023291506001600160e01b0319167f01ffc9a7000000000000000000000000000000000000000000000000000000001490565b6001610c5761023292610c4f600090565b506000610487565b016104a7565b9061021c91610c73610c6e82610c3e565b6123ef565b90610c7d9161240a565b50565b9061021c91610c5d565b90610c993361027e565b61027e565b610ca28261027e565b03610cb057610c7d9161248f565b6040517f6697b232000000000000000000000000000000000000000000000000000000008152600490fd5b0390fd5b610cea610c6e61081f565b61021c61021c612534565b61021c610cdf565b61021c90610d0c610c6e61081f565b610d88565b15610d1857565b60405162461bcd60e51b815260206004820152601160248201527f536c69707061676520746f6f20686967680000000000000000000000000000006044820152606490fd5b90600019905b9181191691161790565b90610d7d610232610d84926107ad565b8254610d5d565b9055565b61021c90610da2610d9a610232610a6e565b821115610d11565b6006610d6d565b61021c90610cfd565b61023260026104bc565b61027e6102326102329290565b61023290610dbc565b634e487b7160e01b600052604160045260246000fd5b90601f01601f1916810190811067ffffffffffffffff821117610e0a57604052565b610dd2565b9050519061021c82610323565b906020828203126101f75761023291610e0f565b60208101929161021c9190610565565b6040513d6000823e3d90fd5b6004610e5781610496565b610e6d610e67610c946000610dc9565b9161027e565b14610f0657610ec291610e8c610e87610e87602094610496565b6102da565b604051938492839182917f41976e0900000000000000000000000000000000000000000000000000000000835260048301610e30565b03915afa908115610f0157600091610ed8575090565b610232915060203d602011610efa575b610ef28183610de8565b810190610e1c565b503d610ee8565b610e40565b5050610232670de0b6b3a76400006107ad565b610f24610c6e61081f565b61021c61021c61257d565b61021c610f19565b90610f52610f46610acb845490565b92600052602060002090565b9060005b818110610f635750505090565b909192610f87610f80600192610f78876104a7565b815260200190565b9460010190565b929101610f56565b9061023291610f37565b9061021c610fb392610faa60405190565b93848092610f8f565b0383610de8565b9061021c610fc760405190565b9283610de8565b6102326080610fba565b9061021c6110266003610fe9610fce565b94610ffa610ff682610f99565b8752565b61101061100960018301610f99565b6020880152565b610c5761101f600283016104a7565b6040880152565b6060840152565b61023290610fd8565b634e487b7160e01b600052603260045260246000fd5b90611055825190565b811015611066576020809102010190565b611036565b634e487b7160e01b600052601160045260246000fd5b9190820391821161108e57565b61106b565b8181029291811591840414171561108e57565b9190820180921161108e57565b600019811461108e5760010190565b634e487b7160e01b600052601260045260246000fd5b906110e2565b9190565b9081156110ed570490565b6110c2565b61110561110082600961039f565b61102d565b80515160009391906111196110de866107ad565b146111ed57611127846107ad565b908192825b86830161113b61023282515190565b8210156111c15761116061115a61115684602088015161104c565b5190565b42611081565b61117f6110de6102326111716107ba565b61117961093f565b90611093565b1115611194575b5060010161112c565b61112c565b6111b48296956111ae61115661118f956111ba955161104c565b906110a6565b946110b3565b9490611186565b50509490506111cf816107ad565b83111590506111e25761023292506110d8565b505061023290610e4c565b50915061023290610e4c565b61023291600061121561121b9361120e600090565b5082610487565b0161039f565b6104bc565b61021c9061124d7f97667070c54ef182b0f5858b034beac1b6f3089aa2d3188bb1e8929f4fa9b9296123ef565b61140e565b67ffffffffffffffff8111610e0a5760208091020190565b9061127c61127783611252565b610fba565b918252565b369037565b9061021c61129c6112968461126a565b93611252565b601f190160208401611281565b9160001960089290920291821b911b610d63565b91906112ce610232610d84936107ad565b9083546112a9565b61021c916000916112bd565b8181106112ed575050565b806112fb60006001936112d6565b016112e2565b91909182821061131057505050565b61021c92916113259091600052602060002090565b91820191016112e2565b90680100000000000000008111610e0a578161134c61021c935490565b90828155611301565b81519167ffffffffffffffff8311610e0a57611380610f4660019261137a868661132f565b60200190565b92049160005b8381106113935750505050565b60019060206113a3610232865190565b9401938184015501611386565b9061021c91611355565b8054821015611066576113d4600191600052602060002090565b91020190600090565b81156110ed570690565b60409061075d61021c949695939661140760608401986000850190610565565b6020830152565b7fd0001f5ea3ff3bae8cba8defd12830f689068fb89083fe43c52059526a543f9b9061143981610e4c565b6114d761144a61023284600961039f565b60028101611457816104a7565b6114646110de60006107ad565b146114f3575b506114aa6114a36001600084019361149987611493600384019761148d896104a7565b906113ba565b906112bd565b0161148d846104a7565b42916112bd565b6114d16114c36114b9836104a7565b6111ae60016107ad565b6114cb61093f565b906113dd565b90610d6d565b6114ee6114e360405190565b9283924291846113e7565b0390a1565b61152361152c9161150c61150561093f565b8092610d6d565b61151e61151882611286565b856113b0565b611286565b600183016113b0565b3861146a565b61021c90611220565b906115509493929161154b61258f565b611559565b9061021c6125e8565b90610232949392916115696125fa565b61164d565b1561157557565b60405162461bcd60e51b815260206004820152601a60248201527f48797065726c6971756964206e6f7420636f6e666967757265640000000000006044820152606490fd5b801515610208565b9050519061021c826115ba565b906020828203126101f757610232916115c2565b91602061021c92949361075d60408201966000830190610565565b610235906107ad565b9095949261021c9461163f6116469261163860809661162e60a088019c6000890190610565565b6020870190610565565b6040850152565b6060830152565b01906115fe565b509290600361166461165f60056106c0565b61156e565b61166d856102da565b6116d861169e61167c306102da565b9261168988853384612679565b610e8787611696886102da565b953387612679565b63095ea7b39060209088906116b287610496565b60006116bd60405190565b8097819582946116cd8a60e01b90565b8452600484016115e3565b03925af18015610f015786936020936116f692611836575b506102da565b6116cd600061170487610496565b9361171e61171160405190565b9788968795869460e01b90565b03925af18015610f015761173f92610e8792610e8792611809575b50610496565b93602061174b60405190565b9586907f91c98a2a00000000000000000000000000000000000000000000000000000000825281600081611786828a8c8b8b60048701611607565b03925af1948515610f01576000956117e8575b507fccb2ae3a2936bf4c94fa4e12cdf0cdad6ed0e4888a044cef89afa60f2e4b92d39384916117d36117ca60405190565b928392836115e3565b0390a16117e26117ca60405190565b0390a190565b61180291955060203d602011610efa57610ef28183610de8565b9338611799565b61182a9060203d60201161182f575b6118228183610de8565b8101906115cf565b611739565b503d611818565b61184c90853d871161182f576118228183610de8565b6116f0565b61023293929190600061153b565b9061021c91611870610c6e82610c3e565b90610c7d9161248f565b9061021c9161185f565b61021c906118b17f17a8e30262c1f919c33056d877a3c22b95c2f5e4dac44683c1c2323cd79fbdb06123ef565b61021c906118bd6125fa565b61190e565b156118c957565b60405162461bcd60e51b815260206004820152601460248201527f5661756c74206e6f7420636f6e666967757265640000000000000000000000006044820152606490fd5b61193f610e8780600561193a61192382610496565b611933610e67610c946000610dc9565b14156118c2565b610496565b803b156101f75761199060009291839261195860405190565b94859384928391907f887a2f720000000000000000000000000000000000000000000000000000000083526004830190815260200190565b03925af18015610f01576119a15750565b61021c9060006119b18183610de8565b81019061026a565b61021c90611884565b906119d69392916119d161258f565b6119de565b61021c6125e8565b9061021c9392916119ed6125fa565b611a50565b90826000939282370152565b9190611a1c81611a1581610ab89560209181520190565b80956119f2565b601f01601f191690565b611a43610232959394929461140760608401966000850190610565565b60408185039101526119fe565b9190611a5f61165f60056106c0565b611a6d610e87806003610496565b90813b156101f75760008094611990611a8560405190565b978896879586947fe0232b4200000000000000000000000000000000000000000000000000000000865260048601611a26565b9061021c9392916119c2565b9061155094939291611ad461258f565b9061023294939291611ae46125fa565b611dcd565b15611af057565b60405162461bcd60e51b815260206004820152600d60248201527f496e76616c6964207072696365000000000000000000000000000000000000006044820152606490fd5b610232610140610fba565b906102359061027e565b9061023590610593565b90610235906105b9565b906101208061021c93611b7960008201516000860190610565565b611b8b60208201516020860190610565565b611b9a60408201516040860152565b611ba960608201516060860152565b611bbb608082015160808601906105a6565b611bcd60a082015160a08601906105cc565b611bdc60c082015160c0860152565b611beb60e082015160e0860152565b611bff6101008201516101008601906105a6565b0151910152565b6101408101929161021c9190611b5e565b610232905161027e565b9073ffffffffffffffffffffffffffffffffffffffff90610d63565b90611c4d610232610d84926102da565b8254611c21565b6102329051610593565b9060ff90610d63565b90611c77610232610d849261059d565b8254611c5e565b61023290516105b9565b9061ff009060081b610d63565b90611ca5610232610d84926105c3565b8254611c88565b90610d7d610232610d849290565b6008611d9b61012061021c94611cdb611cd560008301611c17565b86611c3d565b611cf3611cea60208301611c17565b60018701611c3d565b611d0a611d01604083015190565b60028701610d6d565b611d21611d18606083015190565b60038701610d6d565b611d4f60048601611d3d611d3760808501611c54565b82611c67565b611d4960a08401611c7e565b90611c95565b611d66611d5d60c083015190565b60058701610d6d565b611d7d611d7460e083015190565b60068701610d6d565b611d96611d8d6101008301611c54565b60078701611c67565b015190565b9101611cac565b9061021c91611cba565b90815260608101939261021c92909160409161075d905b6020830190610565565b506003929190611ddd60056106c0565b611de69061156e565b611def906102da565b82611df9306102da565b33611e0393612679565b611e0c816110f2565b9060008094611e1a826107ad565b8411611e2590611ae9565b611e2f8486611093565b611e40670de0b6b3a76400006107ad565b611e49916110d8565b96611e52610911565b611e5d8380016104a7565b611e679082611081565b611e71908a611093565b90611e7b916110d8565b1115611e8690610d11565b611e92600482016104a7565b611e9b836107ad565b90611ea4611b35565b95611eb133868901611b40565b611ebe8660208901611b40565b611ec9886040890152565b6060870152611edb8460808801611b4a565b611ee88460a08801611b54565b60c0860152611ef84260e0870152565b611f06836101008701611b4a565b61012085015201611f1690610496565b611f1f906102da565b611f28906102da565b93611f3260405190565b947f67d2da5d0000000000000000000000000000000000000000000000000000000086528580611f658660048301611c06565b0381845a94602095f1918215610f01577f9ff48ec82167a0517e3606169155695cae17c29cbebaf9860e0637032d24309195879293611fda575b50611fbc90610e878495611fb7611fc396600a610487565b611da2565b33906126c3565b6117e2611fcf60405190565b928392339084611dac565b611fc3935090610e87611ffe611fbc9360203d602011610efa57610ef28183610de8565b94505090611f9f565b610232939291906000611ac4565b9092919261202561127782611252565b93818552602080860192028301928184116101f757915b8383106120495750505050565b602080916120578486610e0f565b81520192019161203c565b9080601f830112156101f757815161023292602001612015565b906080828203126101f757815167ffffffffffffffff81116101f757816120a4918401612062565b92602083015167ffffffffffffffff81116101f757826120c5918501612062565b92604081015167ffffffffffffffff81116101f757836120e6918301612062565b92606082015167ffffffffffffffff81116101f7576102329201612062565b6121499160009161211961165f60056106c0565b61212b610e87610e8785600301610496565b9061213560405190565b8095819482936116cd63fcef5d0660e01b90565b03915afa8015610f01576000928380938193612167575b5093929190565b925090935061218892503d8091833e6121808183610de8565b81019061207c565b9193909238612160565b9061021c92916121a3610c6e61081f565b612319565b156121af57565b60405162461bcd60e51b815260206004820152600b60248201527f496e76616c6964204445580000000000000000000000000000000000000000006044820152606490fd5b156121fb57565b60405162461bcd60e51b815260206004820152600e60248201527f496e76616c6964206f7261636c650000000000000000000000000000000000006044820152606490fd5b61023260c0610fba565b9074ff00000000000000000000000000000000000000009060a01b610d63565b9061227a610232610d8492151590565b825461224a565b60046122e160a061021c9461229b611cd560008301611c17565b6122aa611cea60208301611c17565b6122d3600286016122c66122c060408501611c17565b82611c3d565b606083015115159061226a565b611d96611d18608083015190565b9101610d6d565b9061021c91612281565b60409061231261021c9496959396611dc360608401986000850190610565565b0190610565565b6114ee7f290a0b2414c18a42105d8e8f759879ba2029aa0d961a65b6bd29563b67d5b4f79361237a61236a61234e6000610dc9565b610c9461235a8261027e565b6123638861027e565b14156121a8565b6123738661027e565b14156121f4565b6123d8612385612240565b61238f8582611b40565b61239c8660208301611b40565b6123a98360408301611b40565b600160608201526123bd61075660646107ad565b6123d16123ca60016107ad565b60a0830152565b60036122e8565b604051938493846122f2565b9061021c9291612192565b61021c9033906126f7565b90611c77610232610d8492151590565b61241b61241783836111f9565b1590565b156124885761243a60016124358460006112158682610487565b6123fa565b61245461244e612448339390565b936102da565b916102da565b917f2f8788117e7eff1d82e926ec794901d17c78024a50270940304540a733656f0d61247f60405190565b600090a4600190565b5050600090565b61249982826111f9565b15612488576124b2600061243584826112158682610487565b6124c061244e612448339390565b917ff6391f5c32d9c69d2a47ea670b442974b53935d1edc7fd64eb21e047a839171b61247f60405190565b6124f3612748565b61021c612502600060026123fa565b7f5db9ee0a495bf2e6ff9c91a7834c1ba4fdd244a5e8aa4e537bd38aeae4b073aa6114ee335b60405191829182610e30565b61021c6124eb565b6125446125fa565b61021c612553600160026123fa565b7f62e78cea01bee320cd4e420270b5ea74000d11b0c9f74754ebdbfc544b05a2586114ee33612528565b61021c61253c565b61023260026107ad565b61259960016104a7565b6125a1612585565b9081146125b35761021c906001610d6d565b6040517f3ee5aeb5000000000000000000000000000000000000000000000000000000008152600490fd5b61023260016107ad565b61021c6125f36125de565b6001610d6d565b612602610db2565b61260857565b6040517fd93c0665000000000000000000000000000000000000000000000000000000008152600490fd5b61264c6126466102329263ffffffff1690565b60e01b90565b6001600160e01b03191690565b60409061075d61021c9496959396611dc360608401986000850190610565565b906126be906126af61021c956004956126956323b872dd612633565b9361269f60405190565b9788956020870190815201612659565b60208201810382520383610de8565b612784565b6126be6004926126af61021c956126dd63a9059cbb612633565b926126e760405190565b96879460208601908152016115e3565b9061270561241782846111f9565b61270d575050565b610cdb61271960405190565b9283927fe2517d3f000000000000000000000000000000000000000000000000000000008452600484016115e3565b612753612417610db2565b61275957565b6040517f8dfc202b000000000000000000000000000000000000000000000000000000008152600490fd5b906000602091612792600090565b50828151910182855af115610e40573d600051906127b36110de60006107ad565b0361281757506127c2816102da565b3b6127d06110de60006107ad565b145b6127d95750565b6127e5610cdb916102da565b6040519182917f5274afe700000000000000000000000000000000000000000000000000000000835260048301610e30565b6128246110de60016107ad565b14156127d256fea2646970667358221220aa9231f0d59e62e4e0b2195f460c989b3468d8077f2dcd4cb45f7431d87486f264736f6c63430008160033",
  "linkReferences": {},
  "deployedLinkReferences": {}
}