{
  "_format": "hh-sol-artifact-1",
  "contractName": "ChainlinkKeepers",
  "sourceName": "contracts/ChainlinkKeepers.sol",
  "abi": [
    {
      "inputs": [
        {
          "internalType": "address",
          "name": "_rebalancingEngine",
          "type": "address"
        }
      ],
      "stateMutability": "nonpayable",
      "type": "constructor"
    },
    {
      "inputs": [],
      "name": "AccessControlBadConfirmation",
      "type": "error"
    },
    {
      "inputs": [
        {
          "internalType": "address",
          "name": "account",
          "type": "address"
        },
        {
          "internalType": "bytes32",
          "name": "neededRole",
          "type": "bytes32"
        }
      ],
      "name": "AccessControlUnauthorizedAccount",
      "type": "error"
    },
    {
      "inputs": [],
      "name": "EnforcedPause",
      "type": "error"
    },
    {
      "inputs": [],
      "name": "ExpectedPause",
      "type": "error"
    },
    {
      "anonymous": false,
      "inputs": [
        {
          "indexed": true,
          "internalType": "address",
          "name": "vault",
          "type": "address"
        },
        {
          "indexed": false,
          "internalType": "bool",
          "name": "isHealthy",
          "type": "bool"
        },
        {
          "indexed": false,
          "internalType": "string",
          "name": "reason",
          "type": "string"
        }
      ],
      "name": "HealthCheckPerformed",
      "type": "event"
    },
    {
      "anonymous": false,
      "inputs": [
        {
          "indexed": false,
          "internalType": "uint256",
          "name": "checkInterval",
          "type": "uint256"
        },
        {
          "indexed": false,
          "internalType": "uint256",
          "name": "maxVaultsPerUpkeep",
          "type": "uint256"
        },
        {
          "indexed": false,
          "internalType": "uint256",
          "name": "gasLimit",
          "type": "uint256"
        },
        {
          "indexed": false,
          "internalType": "bool",
          "name": "isActive",
          "type": "bool"
        }
      ],
      "name": "KeeperConfigUpdated",
      "type": "event"
    },
    {
      "anonymous": false,
      "inputs": [
        {
          "indexed": false,
          "internalType": "address",
          "name": "account",
          "type": "address"
        }
      ],
      "name": "Paused",
      "type": "event"
    },
    {
      "anonymous": false,
      "inputs": [
        {
          "indexed": true,
          "internalType": "bytes32",
          "name": "role",
          "type": "bytes32"
        },
        {
          "indexed": true,
          "internalType": "bytes32",
          "name": "previousAdminRole",
          "type": "bytes32"
        },
        {
          "indexed": true,
          "internalType": "bytes32",
          "name": "newAdminRole",
          "type": "bytes32"
        }
      ],
      "name": "RoleAdminChanged",
      "type": "event"
    },
    {
      "anonymous": false,
      "inputs": [
        {
          "indexed": true,
          "internalType": "bytes32",
          "name": "role",
          "type": "bytes32"
        },
        {
          "indexed": true,
          "internalType": "address",
          "name": "account",
          "type": "address"
        },
        {
          "indexed": true,
          "internalType": "address",
          "name": "sender",
          "type": "address"
        }
      ],
      "name": "RoleGranted",
      "type": "event"
    },
    {
      "anonymous": false,
      "inputs": [
        {
          "indexed": true,
          "internalType": "bytes32",
          "name": "role",
          "type": "bytes32"
        },
        {
          "indexed": true,
          "internalType": "address",
          "name": "account",
          "type": "address"
        },
        {
          "indexed": true,
          "internalType": "address",
          "name": "sender",
          "type": "address"
        }
      ],
      "name": "RoleRevoked",
      "type": "event"
    },
    {
      "anonymous": false,
      "inputs": [
        {
          "indexed": false,
          "internalType": "address",
          "name": "account",
          "type": "address"
        }
      ],
      "name": "Unpaused",
      "type": "event"
    },
    {
      "anonymous": false,
      "inputs": [
        {
          "indexed": false,
          "internalType": "uint256",
          "name": "vaultsProcessed",
          "type": "uint256"
        },
        {
          "indexed": false,
          "internalType": "uint256",
          "name": "rebalancesExecuted",
          "type": "uint256"
        },
        {
          "indexed": false,
          "internalType": "uint256",
          "name": "gasUsed",
          "type": "uint256"
        }
      ],
      "name": "UpkeepPerformed",
      "type": "event"
    },
    {
      "anonymous": false,
      "inputs": [
        {
          "indexed": true,
          "internalType": "address",
          "name": "vault",
          "type": "address"
        },
        {
          "indexed": true,
          "internalType": "address",
          "name": "manager",
          "type": "address"
        }
      ],
      "name": "VaultAdded",
      "type": "event"
    },
    {
      "anonymous": false,
      "inputs": [
        {
          "indexed": true,
          "internalType": "address",
          "name": "vault",
          "type": "address"
        }
      ],
      "name": "VaultRemoved",
      "type": "event"
    },
    {
      "inputs": [],
      "name": "DEFAULT_ADMIN_ROLE",
      "outputs": [
        {
          "internalType": "bytes32",
          "name": "",
          "type": "bytes32"
        }
      ],
      "stateMutability": "view",
      "type": "function"
    },
    {
      "inputs": [],
      "name": "KEEPER_ROLE",
      "outputs": [
        {
          "internalType": "bytes32",
          "name": "",
          "type": "bytes32"
        }
      ],
      "stateMutability": "view",
      "type": "function"
    },
    {
      "inputs": [],
      "name": "VAULT_MANAGER_ROLE",
      "outputs": [
        {
          "internalType": "bytes32",
          "name": "",
          "type": "bytes32"
        }
      ],
      "stateMutability": "view",
      "type": "function"
    },
    {
      "inputs": [
        {
          "internalType": "address",
          "name": "vault",
          "type": "address"
        }
      ],
      "name": "_performVaultUpkeep",
      "outputs": [],
      "stateMutability": "nonpayable",
      "type": "function"
    },
    {
      "inputs": [
        {
          "internalType": "address",
          "name": "vault",
          "type": "address"
        }
      ],
      "name": "addManagedVault",
      "outputs": [],
      "stateMutability": "nonpayable",
      "type": "function"
    },
    {
      "inputs": [
        {
          "internalType": "bytes",
          "name": "checkData",
          "type": "bytes"
        }
      ],
      "name": "checkUpkeep",
      "outputs": [
        {
          "internalType": "bool",
          "name": "upkeepNeeded",
          "type": "bool"
        },
        {
          "internalType": "bytes",
          "name": "performData",
          "type": "bytes"
        }
      ],
      "stateMutability": "view",
      "type": "function"
    },
    {
      "inputs": [],
      "name": "emergencyPause",
      "outputs": [],
      "stateMutability": "nonpayable",
      "type": "function"
    },
    {
      "inputs": [],
      "name": "emergencyUnpause",
      "outputs": [],
      "stateMutability": "nonpayable",
      "type": "function"
    },
    {
      "inputs": [],
      "name": "getKeeperStats",
      "outputs": [
        {
          "internalType": "uint256",
          "name": "totalVaults",
          "type": "uint256"
        },
        {
          "internalType": "uint256",
          "name": "healthyVaults",
          "type": "uint256"
        },
        {
          "internalType": "uint256",
          "name": "nextCheckTime",
          "type": "uint256"
        }
      ],
      "stateMutability": "view",
      "type": "function"
    },
    {
      "inputs": [],
      "name": "getManagedVaults",
      "outputs": [
        {
          "internalType": "address[]",
          "name": "vaults",
          "type": "address[]"
        }
      ],
      "stateMutability": "view",
      "type": "function"
    },
    {
      "inputs": [
        {
          "internalType": "bytes32",
          "name": "role",
          "type": "bytes32"
        }
      ],
      "name": "getRoleAdmin",
      "outputs": [
        {
          "internalType": "bytes32",
          "name": "",
          "type": "bytes32"
        }
      ],
      "stateMutability": "view",
      "type": "function"
    },
    {
      "inputs": [
        {
          "internalType": "address",
          "name": "vault",
          "type": "address"
        }
      ],
      "name": "getVaultHealth",
      "outputs": [
        {
          "components": [
            {
              "internalType": "bool",
              "name": "isHealthy",
              "type": "bool"
            },
            {
              "internalType": "uint256",
              "name": "lastHealthCheck",
              "type": "uint256"
            },
            {
              "internalType": "uint256",
              "name": "totalChecks",
              "type": "uint256"
            },
            {
              "internalType": "uint256",
              "name": "failedChecks",
              "type": "uint256"
            },
            {
              "internalType": "string",
              "name": "lastError",
              "type": "string"
            }
          ],
          "internalType": "struct ChainlinkKeepers.VaultHealth",
          "name": "health",
          "type": "tuple"
        }
      ],
      "stateMutability": "view",
      "type": "function"
    },
    {
      "inputs": [
        {
          "internalType": "bytes32",
          "name": "role",
          "type": "bytes32"
        },
        {
          "internalType": "address",
          "name": "account",
          "type": "address"
        }
      ],
      "name": "grantRole",
      "outputs": [],
      "stateMutability": "nonpayable",
      "type": "function"
    },
    {
      "inputs": [
        {
          "internalType": "bytes32",
          "name": "role",
          "type": "bytes32"
        },
        {
          "internalType": "address",
          "name": "account",
          "type": "address"
        }
      ],
      "name": "hasRole",
      "outputs": [
        {
          "internalType": "bool",
          "name": "",
          "type": "bool"
        }
      ],
      "stateMutability": "view",
      "type": "function"
    },
    {
      "inputs": [],
      "name": "keeperConfig",
      "outputs": [
        {
          "internalType": "uint256",
          "name": "checkInterval",
          "type": "uint256"
        },
        {
          "internalType": "uint256",
          "name": "maxVaultsPerUpkeep",
          "type": "uint256"
        },
        {
          "internalType": "uint256",
          "name": "gasLimit",
          "type": "uint256"
        },
        {
          "internalType": "bool",
          "name": "isActive",
          "type": "bool"
        }
      ],
      "stateMutability": "view",
      "type": "function"
    },
    {
      "inputs": [
        {
          "internalType": "address",
          "name": "",
          "type": "address"
        }
      ],
      "name": "lastCheckTime",
      "outputs": [
        {
          "internalType": "uint256",
          "name": "",
          "type": "uint256"
        }
      ],
      "stateMutability": "view",
      "type": "function"
    },
    {
      "inputs": [],
      "name": "lastProcessedIndex",
      "outputs": [
        {
          "internalType": "uint256",
          "name": "",
          "type": "uint256"
        }
      ],
      "stateMutability": "view",
      "type": "function"
    },
    {
      "inputs": [
        {
          "internalType": "uint256",
          "name": "",
          "type": "uint256"
        }
      ],
      "name": "managedVaults",
      "outputs": [
        {
          "internalType": "address",
          "name": "",
          "type": "address"
        }
      ],
      "stateMutability": "view",
      "type": "function"
    },
    {
      "inputs": [],
      "name": "paused",
      "outputs": [
        {
          "internalType": "bool",
          "name": "",
          "type": "bool"
        }
      ],
      "stateMutability": "view",
      "type": "function"
    },
    {
      "inputs": [
        {
          "internalType": "bytes",
          "name": "performData",
          "type": "bytes"
        }
      ],
      "name": "performUpkeep",
      "outputs": [],
      "stateMutability": "nonpayable",
      "type": "function"
    },
    {
      "inputs": [],
      "name": "rebalancingEngine",
      "outputs": [
        {
          "internalType": "contract RebalancingEngine",
          "name": "",
          "type": "address"
        }
      ],
      "stateMutability": "view",
      "type": "function"
    },
    {
      "inputs": [
        {
          "internalType": "address",
          "name": "vault",
          "type": "address"
        }
      ],
      "name": "removeManagedVault",
      "outputs": [],
      "stateMutability": "nonpayable",
      "type": "function"
    },
    {
      "inputs": [
        {
          "internalType": "bytes32",
          "name": "role",
          "type": "bytes32"
        },
        {
          "internalType": "address",
          "name": "callerConfirmation",
          "type": "address"
        }
      ],
      "name": "renounceRole",
      "outputs": [],
      "stateMutability": "nonpayable",
      "type": "function"
    },
    {
      "inputs": [
        {
          "internalType": "bytes32",
          "name": "role",
          "type": "bytes32"
        },
        {
          "internalType": "address",
          "name": "account",
          "type": "address"
        }
      ],
      "name": "revokeRole",
      "outputs": [],
      "stateMutability": "nonpayable",
      "type": "function"
    },
    {
      "inputs": [
        {
          "internalType": "bytes4",
          "name": "interfaceId",
          "type": "bytes4"
        }
      ],
      "name": "supportsInterface",
      "outputs": [
        {
          "internalType": "bool",
          "name": "",
          "type": "bool"
        }
      ],
      "stateMutability": "view",
      "type": "function"
    },
    {
      "inputs": [
        {
          "internalType": "uint256",
          "name": "checkInterval",
          "type": "uint256"
        },
        {
          "internalType": "uint256",
          "name": "maxVaultsPerUpkeep",
          "type": "uint256"
        },
        {
          "internalType": "uint256",
          "name": "gasLimit",
          "type": "uint256"
        },
        {
          "internalType": "bool",
          "name": "isActive",
          "type": "bool"
        }
      ],
      "name": "updateKeeperConfig",
      "outputs": [],
      "stateMutability": "nonpayable",
      "type": "function"
    },
    {
      "inputs": [
        {
          "internalType": "address",
          "name": "",
          "type": "address"
        }
      ],
      "name": "vaultHealthData",
      "outputs": [
        {
          "internalType": "bool",
          "name": "isHealthy",
          "type": "bool"
        },
        {
          "internalType": "uint256",
          "name": "lastHealthCheck",
          "type": "uint256"
        },
        {
          "internalType": "uint256",
          "name": "totalChecks",
          "type": "uint256"
        },
        {
          "internalType": "uint256",
          "name": "failedChecks",
          "type": "uint256"
        },
        {
          "internalType": "string",
          "name": "lastError",
          "type": "string"
        }
      ],
      "stateMutability": "view",
      "type": "function"
    }
  ],
  "bytecode": "0x60a06040523462000047576200001e62000018620000ea565b620002a6565b6040516130206200048d82396080518181816103100152818161274a0152612e08015261302090f35b600080fd5b634e487b7160e01b600052604160045260246000fd5b90601f01601f191681019081106001600160401b038211176200008457604052565b6200004c565b90620000a16200009960405190565b928362000062565b565b6001600160a01b031690565b90565b6001600160a01b038116036200004757565b90505190620000a182620000b2565b906020828203126200004757620000af91620000c4565b620000af620034ad8038038062000101816200008a565b928339810190620000d3565b620000a3620000af620000af9290565b620000af906200010d565b156200013057565b60405162461bcd60e51b815260206004820152602c60248201527f436861696e6c696e6b4b6565706572733a20696e76616c696420726562616c6160448201526b6e63696e6720656e67696e6560a01b6064820152608490fd5b620000af90620000a3906001600160a01b031682565b620000af906200018a565b620000af90620001a0565b620000af60806200008a565b620000af620000af620000af9290565b90600019905b9181191691161790565b90620001f6620000af620001fe92620001c2565b8254620001d2565b9055565b9060ff90620001d8565b906200021f620000af620001fe92151590565b825462000202565b6003620002866060620000a1946200024b62000244600083015190565b86620001e2565b620002656200025b602083015190565b60018701620001e2565b6200027f62000275604083015190565b60028701620001e2565b0151151590565b91016200020c565b90620000a19162000227565b620000af6000620001c2565b620002d790620002d1620002bf620000a360006200011d565b6001600160a01b038316141562000128565b620001ab565b6080526200033c620002e8620001b6565b620002fd620002f961012c620001c2565b8252565b620003146200030d600a620001c2565b6020830152565b6200032d62000326621e8480620001c2565b6040830152565b6001606082015260026200028e565b620003526200034a6200029a565b3390620003c9565b506200037e7ffc8737ab85eb45125971625a9ebdb75cc78e01d5c1fa80c4c6e5203f47bc4fab6200034a565b50620003aa7fd1473398bb66596de5d1ea1fc8e303ff2ac23265adc9144b1b52065dc4f0934b6200034a565b50565b905b600052602052604060002090565b90620003af90620001ab565b620003dd620003d9838362000464565b1590565b156200045d5762000409600162000403846000620003fc8682620003ad565b01620003bd565b6200020c565b62000428620004216200041a339390565b93620001ab565b91620001ab565b917f2f8788117e7eff1d82e926ec794901d17c78024a50270940304540a733656f0d6200045460405190565b600090a4600190565b5050600090565b620000af916000620003fc62000485936200047d600090565b5082620003ad565b5460ff169056fe6080604052600436101561001257600080fd5b60003560e01c806301ffc9a7146101c257806320147068146101bd5780632350c64a146101b8578063248a9ca3146101b35780632f2ff15d146101ae5780633009a609146101a9578063364bc15a146101a457806336568abe1461019f578063447050211461019a5780634585e33b146101955780634a4e3bd5146101905780634a83cf491461018b57806351858e271461018657806353fcc3be14610181578063540c33e41461017c5780635c975abb146101775780635e5a24a4146101725780635f4e5d471461016d5780636e04ff0d1461016857806374a454e21461016357806391d148541461015e5780639e84500f14610159578063a217fddf14610154578063ad34f11c1461014f578063b9b37d551461014a578063d547741f146101455763ff5b4127036101c757610bc4565b610bab565b610b8f565b610b17565b610a8c565b610a52565b610a21565b6109f0565b6107fa565b6107af565b610703565b6106e4565b6106b9565b610663565b6105d7565b6105b0565b6104dd565b6104c4565b610452565b610439565b610400565b6103e5565b6103aa565b61035c565b6102f7565b61028e565b610221565b600080fd5b7fffffffff0000000000000000000000000000000000000000000000000000000081165b036101c757565b90503590610204826101cc565b565b906020828203126101c75761021a916101f7565b90565b9052565b346101c75761024e61023c610237366004610206565b610bdc565b60405191829182901515815260200190565b0390f35b6001600160a01b031690565b6001600160a01b0381166101f0565b905035906102048261025e565b906020828203126101c75761021a9161026d565b346101c7576102a66102a136600461027a565b611190565b604051005b60009103126101c757565b61025261021a61021a926001600160a01b031690565b61021a906102b6565b61021a906102cc565b61021d906102d5565b60208101929161020491906102de565b346101c7576103073660046102ab565b6040518061024e7f0000000000000000000000000000000000000000000000000000000000000000826102e7565b806101f0565b9050359061020482610335565b906020828203126101c75761021a9161033b565b346101c75761024e610377610372366004610348565b61119f565b6040519182918290815260200190565b91906040838203126101c75761021a9060206103a3828661033b565b940161026d565b346101c7576102a66103bd366004610387565b906111dc565b61021a916008021c81565b9061021a91546103c3565b61021a600060096103ce565b346101c7576103f53660046102ab565b61024e6103776103d9565b346101c7576104103660046102ab565b61024e7ffc8737ab85eb45125971625a9ebdb75cc78e01d5c1fa80c4c6e5203f47bc4fab610377565b346101c7576102a661044c366004610387565b906111e6565b346101c7576102a661046536600461027a565b61165d565b909182601f830112156101c75781359167ffffffffffffffff83116101c75760200192600183028401116101c757565b906020828203126101c757813567ffffffffffffffff81116101c7576104c0920161046a565b9091565b346101c7576102a66104d736600461049a565b90611d51565b346101c7576104ed3660046102ab565b6102a6611d71565b60005b8381106105085750506000910152565b81810151838201526020016104f8565b61053961054260209361054c9361052d815190565b80835293849260200190565b958691016104f5565b601f01601f191690565b0190565b80511515825261021a9160a081019160809061057160208201516020850152565b61058060408201516040850152565b61058f60608201516060850152565b0151906080818403910152610518565b602080825261021a92910190610550565b346101c75761024e6105cb6105c636600461027a565b611e23565b6040519182918261059f565b346101c7576105e73660046102ab565b6102a6611e55565b634e487b7160e01b600052603260045260246000fd5b80548210156106285761061f600191600052602060002090565b91020190600090565b6105ef565b61021a916008021c610252565b9061021a915461062d565b6006548110156101c75761065d61021a916006610605565b9061063a565b346101c75761024e61067e610679366004610348565b610645565b604051918291826001600160a01b03909116815260200190565b9081526060810193926102049290916040916106b5906020830152565b0152565b346101c7576106c93660046102ab565b61024e6106d4611e5d565b6040519193915b93849384610698565b346101c7576106f43660046102ab565b61024e61023c60015460ff1690565b346101c7576107133660046102ab565b61024e7fd1473398bb66596de5d1ea1fc8e303ff2ac23265adc9144b1b52065dc4f0934b610377565b61021a9081565b61021a905461073c565b6107576002610743565b906107626003610743565b9061076d6004610743565b9061021a60055460ff1690565b6107a7610204946107a0606094989795610799608086019a6000870152565b6020850152565b6040830152565b019015159052565b346101c7576107bf3660046102ab565b61024e6107ca61074d565b906107d794929460405190565b9485948561077a565b901515815260406020820181905261021a92910190610518565b346101c75761081361080d36600461049a565b906120d8565b9061024e61082060405190565b928392836107e0565b90610833906102d5565b600052602052604060002090565b634e487b7160e01b600052602260045260246000fd5b9060016002830492168015610877575b602083101461087257565b610841565b91607f1691610867565b8054600093929161089e61089483610857565b8085529360200190565b91600181169081156108f057506001146108b757505050565b6108ca9192939450600052602060002090565b916000925b8184106108dc5750500190565b8054848401526020909301926001016108cf565b92949550505060ff1916825215156020020190565b9061021a91610881565b634e487b7160e01b600052604160045260246000fd5b90601f01601f1916810190811067ffffffffffffffff82111761094757604052565b61090f565b906102046109669261095d60405190565b93848092610905565b0383610925565b610978906007610829565b805460ff169161098a60018301610743565b9161099760028201610743565b9161021a60046109a960038501610743565b930161094c565b901515815261021a9460a0820194909391926109e3926109dc916109d5906020870152565b6040850152565b6060830152565b6080818403910152610518565b346101c75761024e610a0b610a0636600461027a565b61096d565b91610a1895939560405190565b958695866109b0565b346101c75761024e61023c610a37366004610387565b9061236d565b6000610a4d61021a926008610829565b6103ce565b346101c75761024e610377610a6836600461027a565b610a3d565b61021a61021a61021a9290565b61021a6000610a6d565b61021a610a7a565b346101c757610a9c3660046102ab565b61024e610377610a84565b90610ac7610ac0610ab6845190565b8084529260200190565b9260200190565b9060005b818110610ad85750505090565b909192610afe610af760019286516001600160a01b0316815260200190565b9460200190565b929101610acb565b602080825261021a92910190610aa7565b346101c757610b273660046102ab565b61024e610b32612437565b60405191829182610b06565b8015156101f0565b9050359061020482610b3e565b6080818303126101c757610b67828261033b565b9261021a610b78846020850161033b565b936060610b88826040870161033b565b9401610b46565b346101c7576102a6610ba2366004610b53565b929190916126b2565b346101c7576102a6610bbe366004610387565b906126d9565b346101c7576102a6610bd736600461027a565b61272f565b7f7965db0b000000000000000000000000000000000000000000000000000000007fffffffff00000000000000000000000000000000000000000000000000000000821614908115610c2c575090565b61021a91507fffffffff00000000000000000000000000000000000000000000000000000000167f01ffc9a7000000000000000000000000000000000000000000000000000000001490565b61020490610caa7fd1473398bb66596de5d1ea1fc8e303ff2ac23265adc9144b1b52065dc4f0934b6127e9565b6127e9565b6110b5565b61025261021a61021a9290565b61021a90610caf565b15610ccc57565b60405162461bcd60e51b815260206004820152601f60248201527f436861696e6c696e6b4b6565706572733a20696e76616c6964207661756c74006044820152606490fd5b0390fd5b15610d1c57565b60405162461bcd60e51b815260206004820152602760248201527f436861696e6c696e6b4b6565706572733a207661756c7420616c72656164792060448201527f6d616e61676564000000000000000000000000000000000000000000000000006064820152608490fd5b91906008610da6910291610da16001600160a01b03841b90565b921b90565b9181191691161790565b9190610dc161021a610dc9936102d5565b908354610d87565b9055565b90815491680100000000000000008310156109475782610df591600161020495018155610605565b90610db0565b90610204610e0860405190565b9283610925565b61021a60a0610dfb565b67ffffffffffffffff811161094757602090601f01601f19160190565b90610e48610e4383610e19565b610dfb565b918252565b61021a6000610e36565b61021a610e4d565b634e487b7160e01b600052600060045260246000fd5b9060ff90610da6565b90610e8e61021a610dc992151590565b8254610e75565b9060001990610da6565b90610eaf61021a610dc992610a6d565b8254610e95565b9160001960089290920291821b911b610da6565b9190610edb61021a610dc993610a6d565b908354610eb6565b61020491600091610eca565b818110610efa575050565b80610f086000600193610ee3565b01610eef565b9190601f8111610f1d57505050565b610f2f61020493600052602060002090565b906020601f840181900483019310610f52575b6020601f909101045b0190610eef565b9091508190610f42565b90610f65815190565b9067ffffffffffffffff821161094757610f8982610f838554610857565b85610f0e565b602090601f8311600114610fc457610dc9929160009183610fb9575b5050600019600883021c1916906002021790565b015190503880610fa5565b601f19831691610fd985600052602060002090565b9260005b81811061101757509160029391856001969410610ffe575b50505002019055565b01516000196008601f8516021c19169055388080610ff5565b91936020600181928787015181550195019201610fdd565b9061020491610f5c565b60046110a460806102049461105a6110546000830151151590565b86610e7e565b611071611068602083015190565b60018701610e9f565b61108861107f604083015190565b60028701610e9f565b61109f611096606083015190565b60038701610e9f565b015190565b910161102f565b9061020491611039565b611156906110da6110c96102526000610cbc565b6001600160a01b0383161415610cc5565b6110f26110ed6110e9836127f4565b1590565b610d15565b6110fd816006610dcd565b611151611108610e0f565b60018152611117426020830152565b61112f6111246000610a6d565b6109dc816040850152565b61114161113a610e57565b6080830152565b61114c836007610829565b6110ab565b6102d5565b61115f336102d5565b907f2f0697414292d16e25e419060ebbb3a3318648280380829ca42af307b155393b61118a60405190565b600090a3565b61020490610c78565b90610833565b60016111b861021a926111b0600090565b506000611199565b01610743565b90610204916111cf610ca58261119f565b906111d99161284d565b50565b90610204916111be565b906111f033610252565b6001600160a01b03821603611208576111d9916128ce565b6040517f6697b232000000000000000000000000000000000000000000000000000000008152600490fd5b610204906112607fd1473398bb66596de5d1ea1fc8e303ff2ac23265adc9144b1b52065dc4f0934b6127e9565b6114ef565b634e487b7160e01b600052601160045260246000fd5b9190820391821161128857565b611265565b634e487b7160e01b600052603160045260246000fd5b61020491600091610db0565b805480156112d25760001901906112cf6112c98383610605565b906112a3565b55565b61128d565b906112ea90600019906020036008021c90565b8154169055565b9060009161131c61130782600052602060002090565b928354600019600883021c1916906002021790565b905555565b919290602082101561138657601f841160011461135057610dc9929350600019600883021c1916906002021790565b509061138161020493600161137861136d85600052602060002090565b92601f602091010490565b82019101610eef565b6112f1565b506113bf829361139d600194600052602060002090565b610f4b6020601f860104820192601f8616806113c7575b50601f602091010490565b600202179055565b6113d3908886036112d7565b386113b4565b929091680100000000000000008211610947576020111561143257602081101561141357610dc991600019600883021c1916906002021790565b60019160ff191661142984600052602060002090565b55600202019055565b60019150600202019055565b90815461144a81610857565b90818311611473575b818310611461575b50505050565b61146a93611321565b3880808061145b565b61147f838383876113d9565b611453565b60006102049161143e565b906000036114a05761020490611484565b610e5f565b6000808255610204916004906114be8360018301610ee3565b6114cb8360028301610ee3565b6114d88360038301610ee3565b0161148f565b906000036114a057610204906114a5565b6000906115026110c96102526000610cbc565b61150c6000610a6d565b600661151961021a825490565b8210156115f25761152d61065d8383610605565b6115486001600160a01b0385165b916001600160a01b031690565b14611556575060010161150c565b9261159e6115998561021a61115195610df561159261065d61158c61157c6115c29d5490565b6115866001610a6d565b9061127b565b86610605565b9184610605565b6112af565b6115b2816115ad856007610829565b6114de565b6115bd836008610829565b610ee3565b7fe71f3a50e5ad81964f352c411f1d45e35438ecd1acecef59ac81d9fbbf6cbc0a6115ec60405190565b600090a2565b60405162461bcd60e51b815260206004820152602160248201527f436861696e6c696e6b4b6565706572733a207661756c74206e6f7420666f756e60448201527f64000000000000000000000000000000000000000000000000000000000000006064820152608490fd5b61020490611233565b61020491906116947ffc8737ab85eb45125971625a9ebdb75cc78e01d5c1fa80c4c6e5203f47bc4fab6127e9565b61198a565b156116a057565b60405162461bcd60e51b815260206004820152601860248201527f436861696e6c696e6b4b6565706572733a2070617573656400000000000000006044820152606490fd5b67ffffffffffffffff81116109475760208091020190565b9092919261170d610e43826116e5565b93818552602080860192028301928184116101c757915b8383106117315750505050565b6020809161173f848661026d565b815201920191611724565b9080601f830112156101c75781602061021a933591016116fd565b90826000939282370152565b90929192611781610e4382610e19565b93818552818301116101c757610204916020850190611765565b9080601f830112156101c75781602061021a93359101611771565b9291906117c5610e43826116e5565b93818552602080860192028101918383116101c75781905b8382106117eb575050505050565b813567ffffffffffffffff81116101c75760209161180c878493870161179b565b8152019101906117dd565b9080601f830112156101c75781602061021a933591016117b6565b9190916060818403126101c7576118496060610dfb565b92813567ffffffffffffffff81116101c7578161186791840161174a565b8452602082013567ffffffffffffffff81116101c7578261188f836040936107a09601611817565b60208701520161033b565b906020828203126101c757813567ffffffffffffffff81116101c75761021a9201611832565b906118c9825190565b811015610628576020809102010190565b6040513d6000823e3d90fd5b60001981146112885760010190565b9190820180921161128857565b60009060033d1161190f57565b905060046000803e60005160e01c90565b60009060443d106102045760405160043d036004823e8051903d602483011167ffffffffffffffff8311176119865781810191825167ffffffffffffffff811161145b5760043d0383018160208601011161145b5761021a939495506020010190610925565b5050565b6119ad916119a56119a06110e960015460ff1690565b611699565b81019061189a565b5a6000906119ba82610a6d565b93845b8385016119cc61021a82515190565b821015611cb2576119e1826119ee92516118c0565b516001600160a01b031690565b906119f8306102d5565b803b156101c75785611a0960405190565b7fff5b41270000000000000000000000000000000000000000000000000000000081526001600160a01b0385166004820152918290602490829084905af19081611c86575b50611b66576001611a5d611902565b6308c379a014611a95575b611a9057611a85611a7e611a8b935b6008610829565b4290610e9f565b60010190565b6119bd565b6118da565b611a9d611920565b80611aa9575b50611a68565b869150611b1c816004611ac061021a886007610829565b611acc8b808301610e7e565b611ad94260018301610e9f565b611b16611ae66001610a6d565b611b0560028401611aff83611afa83610743565b6118f5565b90610e9f565b611aff6003840191611afa83610743565b0161102f565b7fc05ae91c32bdad6f49881ff2700c504108a0194e87b041f2d5074f758d9bdd05611b5d611b49866102d5565b92611b5360405190565b9182918b836107e0565b0390a238611aa3565b611a85611a7e611b79611a8b94996118e6565b986001611c038961114c846007611bec611baa611b9b60026111b88686610829565b611ba489610a6d565b906118f5565b611be5611bbc60036111b88787610829565b91611bd38a611bc9610e0f565b998a019015159052565b611bde4260208a0152565b6040880152565b6060860152565b611bfe611bf7610e57565b6080860152565b610829565b7fc05ae91c32bdad6f49881ff2700c504108a0194e87b041f2d5074f758d9bdd05611c7e611c30846102d5565b92611c3a60405190565b918291829015158152604060208201819052601f908201527f526562616c616e6365206578656375746564207375636365737366756c6c7900606082015260800190565b0390a2611a77565b611ca590873d8911611cab575b611c9d8183610925565b8101906102ab565b38611a4e565b503d611c93565b50509391611d2e611d3891611d277fbc147df5f14f4e45c7f6186168eb5bc8d674ff84d631ac19fdc4d7d9c64b13a49694611cfa611cf06009610743565b611ba46003610743565b80611d0e611d0a61021a60065490565b9190565b1015611d3d575b611d20906009610e9f565b5a9061127b565b9301515190565b916106db60405190565b0390a1565b50611d20611d4a84610a6d565b9050611d15565b9061020491611666565b611d66610ca5610a7a565b61020461020461296b565b610204611d5b565b611d81610e0f565b906000825260208080808086016000815201600081520160008152016060905250565b61021a611d79565b90610204611e136004611dbd610e0f565b94611dd2611dcc825460ff1690565b15158752565b611de8611de160018301610743565b6020880152565b611df7611bde60028301610743565b611e0d611e0660038301610743565b6060880152565b0161094c565b6080840152565b61021a90611dac565b611e3a61021a91611e32611da4565b506007610829565b611e1a565b611e4a610ca5610a7a565b6102046102046129b3565b610204611e3f565b600680546000929091600091611e736000610a6d565b611e7e61021a845490565b811015611ed057611ea984611ea16007611e9b61065d8689610605565b90610829565b015460ff1690565b611ebb575b600101611e73565b611e73565b94611ec8611eb6916118e6565b959050611eae565b50929091504293611ee16000610a6d565b611eec61021a855490565b811015611f2d57611f0d611f086008611e9b61065d8589610605565b610743565b868110611f23575b50600101611ee1565b611ee1565b9550611f1e611f15565b5092915092611f4390611ba46000600201610743565b9042821115611f4e57565b429150565b90610e48610e43836116e5565b369037565b90610204611f7b611f7584611f53565b936116e5565b601f190160208401611f60565b60005b828110611f9757505050565b606082820152602001611f8b565b90610204611fb5611f7584611f53565b601f190160208401611f88565b61021a6060610dfb565b90611fdb610ac0610ab6845190565b9060005b818110611fec5750505090565b90919261200b610af760019286516001600160a01b0316815260200190565b929101611fdf565b9061021a91610518565b90612033612029835190565b8083529160200190565b90816120456020830284019460200190565b926000915b83831061205957505050505090565b9091929394602061207c61207583856001950387528951612013565b9760200190565b930193019193929061204a565b9061021a906040806120bf6120ad6060850160008801518682036000880152611fcc565b6020870151858203602087015261201d565b940151910152565b602080825261021a92910190612089565b50506120e2600090565b6002916060916120f76110e960055460ff1690565b8015612361575b6123505760069261210e60065490565b9360009061211b82610a6d565b86146123415761212b6009610743565b9361214161213b60018a01610743565b866118f5565b96808811612339575b5061215d612158868961127b565b611f65565b9361217061216b878a61127b565b611fa5565b9661217a85610a6d565b965b895b81101561223b5761219261065d8287610605565b6121b261021a8d611ba48a6121ab611f08876008610829565b9201610743565b421061222e57896121c282612d21565b92906121e0575b5050506121d961217e9160010190565b905061217c565b996121d992612213826122249461220e61217e989f8f84612200916118c0565b906001600160a01b03169052565b6118c0565b5261221e818d6118c0565b506118e6565b98915089386121c9565b5061217e906001016121d9565b5096959492509650965061224e82610a6d565b831161225a5750505050565b9161226a91939650809550611f65565b9161227485611fa5565b9361227e82610a6d565b865b8110156122d6576122cf816122a861229e6119e161228095896118c0565b612200838a6118c0565b6122b2818b6118c0565b516122bd828a6118c0565b526122c881896118c0565b5060010190565b905061227e565b509450945050906122f26122f9926122ec611fc2565b95860152565b6020840152565b612304426040840152565b60019161232f61231360405190565b80926123236020830191826120c7565b90810382520382610925565b903880808061145b565b96503861214a565b5094505050905061021a610e57565b5091505061235c610e57565b600091565b5060015460ff166120fe565b61021a91600061238961238f93612382600090565b5082611199565b01610829565b5460ff1690565b61021a90610252565b61021a9054612396565b906123c46123b8610ab6845490565b92600052602060002090565b9060005b8181106123d55750505090565b9091926124026123fb6001926123ea8761239f565b6001600160a01b0316815260200190565b9460010190565b9291016123c8565b9061021a916123a9565b906102046109669261242560405190565b9384809261240a565b61021a90612414565b61021a600661242e565b90610204939291612453610ca5610a7a565b61260a565b1561245f57565b60405162461bcd60e51b8152602060048201526024808201527f436861696e6c696e6b4b6565706572733a20696e74657276616c20746f6f207360448201527f686f7274000000000000000000000000000000000000000000000000000000006064820152608490fd5b156124d057565b60405162461bcd60e51b815260206004820152602d60248201527f436861696e6c696e6b4b6565706572733a206d6178207661756c7473206d757360448201527f7420626520706f736974697665000000000000000000000000000000000000006064820152608490fd5b1561254257565b60405162461bcd60e51b815260206004820152602360248201527f436861696e6c696e6b4b6565706572733a20676173206c696d697420746f6f2060448201527f6c6f7700000000000000000000000000000000000000000000000000000000006064820152608490fd5b61021a6080610dfb565b60036125f96060610204946125d66125d0600083015190565b86610e9f565b6125e4611068602083015190565b6125f261107f604083015190565b0151151590565b9101610e7e565b90610204916125b7565b90917f9f796baa565adcb8f63b071bd07832ddd826a8a3d6cfb654b4d962524386447593611d389161264761263f603c610a6d565b851015612458565b61265b6126546000610a6d565b86116124c9565b61267261266a620186a0610a6d565b82101561253b565b6126aa61267d6125ad565b612685868252565b612690876020830152565b61269b836040830152565b83151560608201526002612600565b6040516107d7565b90610204939291612441565b90610204916126cf610ca58261119f565b906111d9916128ce565b90610204916126be565b156126ea57565b60405162461bcd60e51b815260206004820152601f60248201527f436861696e6c696e6b4b6565706572733a20696e7465726e616c206f6e6c79006044820152606490fd5b61274561273e610252306102d5565b33146126e3565b61276e7f00000000000000000000000000000000000000000000000000000000000000006102d5565b803b156101c7576127c860009291839261278760405190565b94859384928391907f60c3567d000000000000000000000000000000000000000000000000000000005b83526001600160a01b031660048301526024820190565b03925af18015611a90576127d95750565b610204906000611c9d8183610925565b610204903390612f22565b6127fe6000610a6d565b600661280b61021a825490565b8210156128455761065d8261281f92610605565b6128316001600160a01b03841661153b565b1461283e576001016127fe565b5050600190565b505050600090565b61285a6110e9838361236d565b156128c75761287960016128748460006123898682611199565b610e7e565b61289361288d612887339390565b936102d5565b916102d5565b917f2f8788117e7eff1d82e926ec794901d17c78024a50270940304540a733656f0d6128be60405190565b600090a4600190565b5050600090565b6128d8828261236d565b156128c7576128f1600061287484826123898682611199565b6128ff61288d612887339390565b917ff6391f5c32d9c69d2a47ea670b442974b53935d1edc7fd64eb21e047a839171b6128be60405190565b612932612f73565b61020461294160006001610e7e565b7f5db9ee0a495bf2e6ff9c91a7834c1ba4fdd244a5e8aa4e537bd38aeae4b073aa611d383361067e565b61020461292a565b61297b612fb3565b610204612989600180610e7e565b7f62e78cea01bee320cd4e420270b5ea74000d11b0c9f74754ebdbfc544b05a258611d383361067e565b610204612973565b9050519061020482610335565b9050519061020482610b3e565b909160c0828403126101c7576129eb83836129bb565b926129f981602085016129bb565b92612a0782604083016129bb565b9261021a612a1884606085016129c8565b9360a0612a2882608087016129bb565b94016129bb565b612a39600f610e36565b7f5661756c74206973207061757365640000000000000000000000000000000000602082015290565b61021a612a2f565b612a746013610e36565b7f5661756c7420686173206e6f2061737365747300000000000000000000000000602082015290565b61021a612a6a565b905051906102048261025e565b90929192612ac2610e4382610e19565b93818552818301116101c7576102049160208501906104f5565b9080601f830112156101c757815161021a92602001612ab2565b91909160c0818403126101c757612b0d60c0610dfb565b92612b188183612aa5565b8452612b278160208401612aa5565b6020850152612b398160408401612aa5565b6040850152612b4b81606084016129bb565b6060850152612b5d81608084016129bb565b608085015260a082015167ffffffffffffffff81116101c757612b809201612adc565b60a0830152565b9190916040818403126101c757612b9e83826129c8565b92602082015167ffffffffffffffff81116101c75761021a9201612af6565b612bc76012610e36565b7f526562616c616e63696e67206e65656465640000000000000000000000000000602082015290565b61021a612bbd565b612c026020610e36565b7f556e61626c6520746f20636865636b20726562616c616e636520737461747573602082015290565b61021a612bf8565b612c3d6010610e36565b7f5661756c74206973206865616c74687900000000000000000000000000000000602082015290565b61021a612c33565b61054c612c8692602092612c80815190565b94859290565b938491016104f5565b7f4865616c746820636865636b206661696c65643a200000000000000000000000815261021a919060150190612c6e565b612cca6022610e36565b7f4865616c746820636865636b206661696c65643a20756e6b6e6f776e2065727260208201527f6f72000000000000000000000000000000000000000000000000000000000000604082015290565b61021a612cc0565b600091606091612d33611151826102d5565b9060c0612d3f60405190565b7f18cdb54600000000000000000000000000000000000000000000000000000000815292839060049082905afa600090819381612ecd575b50612de0575050506001612d89611902565b6308c379a014612da8575b612d9a57565b91505060009061021a612d19565b612db0611920565b80612dbb5750612d94565b9193505061235c915061021a612dd060405190565b8092612323602083019182612c8f565b919350919350612ec05760008092612dfa611d0a83610a6d565b14612eb557612e5c91612e2c7f00000000000000000000000000000000000000000000000000000000000000006102d5565b604051938492839182917fe566a8fc000000000000000000000000000000000000000000000000000000006127b1565b03915afa829181612e90575b50612e7757509061021a612c2b565b612e84579061021a612c66565b5060019061021a612bf0565b612ead9192503d8085833e612ea58183610925565b810190612b87565b919091612e68565b50509061021a612a9d565b505060009061021a612a62565b909350612ef2915060c03d60c011612efe575b612eea8183610925565b8101906129d5565b50509250939093612d77565b503d612ee0565b6001600160a01b0390911681526040810192916102049160200152565b90612f306110e9828461236d565b612f38575050565b610d11612f4460405190565b9283927fe2517d3f00000000000000000000000000000000000000000000000000000000845260048401612f05565b612f826110e960015460ff1690565b612f8857565b6040517f8dfc202b000000000000000000000000000000000000000000000000000000008152600490fd5b60015460ff16612fbf57565b6040517fd93c0665000000000000000000000000000000000000000000000000000000008152600490fdfea2646970667358221220480ab648acd6a2af0bdde7a8257eb00ffc0735504904d03ff7921fce490b293d64736f6c63430008160033",
  "linkReferences": {},
  "deployedLinkReferences": {}
}