{
  "_format": "hh-sol-artifact-1",
  "contractName": "MockLayerZeroEndpoint",
  "sourceName": "contracts/mocks/MockLayerZeroEndpoint.sol",
  "abi": [
    {
      "inputs": [
        {
          "internalType": "uint32",
          "name": "_eid",
          "type": "uint32"
        }
      ],
      "stateMutability": "nonpayable",
      "type": "constructor"
    },
    {
      "anonymous": false,
      "inputs": [
        {
          "indexed": true,
          "internalType": "bytes32",
          "name": "messageHash",
          "type": "bytes32"
        },
        {
          "indexed": false,
          "internalType": "bool",
          "name": "success",
          "type": "bool"
        }
      ],
      "name": "MessageExecuted",
      "type": "event"
    },
    {
      "anonymous": false,
      "inputs": [
        {
          "indexed": true,
          "internalType": "uint32",
          "name": "srcEid",
          "type": "uint32"
        },
        {
          "indexed": true,
          "internalType": "bytes32",
          "name": "sender",
          "type": "bytes32"
        },
        {
          "indexed": true,
          "internalType": "address",
          "name": "receiver",
          "type": "address"
        },
        {
          "indexed": false,
          "internalType": "bytes",
          "name": "message",
          "type": "bytes"
        },
        {
          "indexed": false,
          "internalType": "uint64",
          "name": "nonce",
          "type": "uint64"
        }
      ],
      "name": "PacketReceived",
      "type": "event"
    },
    {
      "anonymous": false,
      "inputs": [
        {
          "indexed": true,
          "internalType": "uint32",
          "name": "dstEid",
          "type": "uint32"
        },
        {
          "indexed": true,
          "internalType": "address",
          "name": "sender",
          "type": "address"
        },
        {
          "indexed": true,
          "internalType": "address",
          "name": "receiver",
          "type": "address"
        },
        {
          "indexed": false,
          "internalType": "bytes",
          "name": "message",
          "type": "bytes"
        },
        {
          "indexed": false,
          "internalType": "uint64",
          "name": "nonce",
          "type": "uint64"
        }
      ],
      "name": "PacketSent",
      "type": "event"
    },
    {
      "inputs": [],
      "name": "eid",
      "outputs": [
        {
          "internalType": "uint32",
          "name": "",
          "type": "uint32"
        }
      ],
      "stateMutability": "view",
      "type": "function"
    },
    {
      "inputs": [
        {
          "internalType": "uint256",
          "name": "_messageIndex",
          "type": "uint256"
        }
      ],
      "name": "executeMessage",
      "outputs": [],
      "stateMutability": "nonpayable",
      "type": "function"
    },
    {
      "inputs": [
        {
          "internalType": "uint256",
          "name": "_index",
          "type": "uint256"
        }
      ],
      "name": "getPendingMessage",
      "outputs": [
        {
          "internalType": "uint32",
          "name": "srcEid",
          "type": "uint32"
        },
        {
          "internalType": "bytes32",
          "name": "sender",
          "type": "bytes32"
        },
        {
          "internalType": "address",
          "name": "receiver",
          "type": "address"
        },
        {
          "internalType": "bytes",
          "name": "msgData",
          "type": "bytes"
        },
        {
          "internalType": "uint256",
          "name": "timestamp",
          "type": "uint256"
        },
        {
          "internalType": "bool",
          "name": "executed",
          "type": "bool"
        }
      ],
      "stateMutability": "view",
      "type": "function"
    },
    {
      "inputs": [],
      "name": "getPendingMessagesCount",
      "outputs": [
        {
          "internalType": "uint256",
          "name": "",
          "type": "uint256"
        }
      ],
      "stateMutability": "view",
      "type": "function"
    },
    {
      "inputs": [
        {
          "internalType": "address",
          "name": "",
          "type": "address"
        },
        {
          "internalType": "uint32",
          "name": "",
          "type": "uint32"
        }
      ],
      "name": "inboundNonce",
      "outputs": [
        {
          "internalType": "uint64",
          "name": "",
          "type": "uint64"
        }
      ],
      "stateMutability": "view",
      "type": "function"
    },
    {
      "inputs": [
        {
          "internalType": "bytes32",
          "name": "",
          "type": "bytes32"
        }
      ],
      "name": "messageExecuted",
      "outputs": [
        {
          "internalType": "bool",
          "name": "",
          "type": "bool"
        }
      ],
      "stateMutability": "view",
      "type": "function"
    },
    {
      "inputs": [
        {
          "internalType": "address",
          "name": "",
          "type": "address"
        },
        {
          "internalType": "uint32",
          "name": "",
          "type": "uint32"
        }
      ],
      "name": "outboundNonce",
      "outputs": [
        {
          "internalType": "uint64",
          "name": "",
          "type": "uint64"
        }
      ],
      "stateMutability": "view",
      "type": "function"
    },
    {
      "inputs": [],
      "name": "owner",
      "outputs": [
        {
          "internalType": "address",
          "name": "",
          "type": "address"
        }
      ],
      "stateMutability": "view",
      "type": "function"
    },
    {
      "inputs": [
        {
          "internalType": "uint256",
          "name": "",
          "type": "uint256"
        }
      ],
      "name": "pendingMessages",
      "outputs": [
        {
          "internalType": "uint32",
          "name": "srcEid",
          "type": "uint32"
        },
        {
          "internalType": "bytes32",
          "name": "sender",
          "type": "bytes32"
        },
        {
          "internalType": "address",
          "name": "receiver",
          "type": "address"
        },
        {
          "internalType": "bytes",
          "name": "message",
          "type": "bytes"
        },
        {
          "internalType": "uint256",
          "name": "timestamp",
          "type": "uint256"
        },
        {
          "internalType": "bool",
          "name": "executed",
          "type": "bool"
        }
      ],
      "stateMutability": "view",
      "type": "function"
    },
    {
      "inputs": [
        {
          "internalType": "uint32",
          "name": "_dstEid",
          "type": "uint32"
        },
        {
          "internalType": "address",
          "name": "_sender",
          "type": "address"
        },
        {
          "internalType": "bytes",
          "name": "_message",
          "type": "bytes"
        },
        {
          "internalType": "bytes",
          "name": "_options",
          "type": "bytes"
        }
      ],
      "name": "quote",
      "outputs": [
        {
          "internalType": "uint256",
          "name": "fee",
          "type": "uint256"
        }
      ],
      "stateMutability": "pure",
      "type": "function"
    },
    {
      "inputs": [
        {
          "internalType": "uint32",
          "name": "_dstEid",
          "type": "uint32"
        },
        {
          "internalType": "address",
          "name": "_receiver",
          "type": "address"
        },
        {
          "internalType": "bytes",
          "name": "_message",
          "type": "bytes"
        },
        {
          "internalType": "bytes",
          "name": "_options",
          "type": "bytes"
        },
        {
          "internalType": "uint256",
          "name": "_fee",
          "type": "uint256"
        }
      ],
      "name": "send",
      "outputs": [
        {
          "internalType": "uint64",
          "name": "nonce",
          "type": "uint64"
        }
      ],
      "stateMutability": "payable",
      "type": "function"
    },
    {
      "inputs": [
        {
          "internalType": "uint32",
          "name": "_newEid",
          "type": "uint32"
        }
      ],
      "name": "setEid",
      "outputs": [],
      "stateMutability": "nonpayable",
      "type": "function"
    }
  ],
  "bytecode": "0x6080604052600080546001600160c01b0316600160c01b17905534801561002557600080fd5b5060405161133738038061133783398101604081905261004491610071565b6000805463ffffffff929092166001600160c01b031990921691909117336401000000000217905561009e565b60006020828403121561008357600080fd5b815163ffffffff8116811461009757600080fd5b9392505050565b61128a806100ad6000396000f3fe6080604052600436106100a75760003560e01c8063995f129211610064578063995f1292146101f0578063a445d16514610225578063b112c6d714610266578063befc574b1461027b578063ea93a5091461029b578063ed83b7c0146102db57600080fd5b806318c98e7b146100ac578063191cc3611461010a5780632922e6e51461012c578063416ecebf1461015e57806356227e9f146101905780638da5cb5b146101b0575b600080fd5b3480156100b857600080fd5b506100ed6100c7366004610bea565b60026020908152600092835260408084209091529082529020546001600160401b031681565b6040516001600160401b0390911681526020015b60405180910390f35b34801561011657600080fd5b5061012a610125366004610c1d565b6102ee565b005b34801561013857600080fd5b5061014c610147366004610c3f565b61035d565b60405161010196959493929190610ca8565b34801561016a57600080fd5b5060005461017b9063ffffffff1681565b60405163ffffffff9091168152602001610101565b34801561019c57600080fd5b5061014c6101ab366004610c3f565b610446565b3480156101bc57600080fd5b506000546101d89064010000000090046001600160a01b031681565b6040516001600160a01b039091168152602001610101565b3480156101fc57600080fd5b5061021761020b366004610d3d565b60009695505050505050565b604051908152602001610101565b34801561023157600080fd5b506100ed610240366004610bea565b60016020908152600092835260408084209091529082529020546001600160401b031681565b34801561027257600080fd5b50600354610217565b34801561028757600080fd5b5061012a610296366004610c3f565b6105d5565b3480156102a757600080fd5b506102cb6102b6366004610c3f565b60046020526000908152604090205460ff1681565b6040519015158152602001610101565b6100ed6102e9366004610dcd565b6108dc565b60005464010000000090046001600160a01b031633146103415760405162461bcd60e51b81526020600482015260096024820152682737ba1037bbb732b960b91b60448201526064015b60405180910390fd5b6000805463ffffffff191663ffffffff92909216919091179055565b6003818154811061036d57600080fd5b6000918252602090912060069091020180546001820154600283015460038401805463ffffffff909416955091936001600160a01b03909116929091906103b390610e66565b80601f01602080910402602001604051908101604052809291908181526020018280546103df90610e66565b801561042c5780601f106104015761010080835404028352916020019161042c565b820191906000526020600020905b81548152906001019060200180831161040f57829003601f168201915b50505050600483015460059093015491929160ff16905086565b6000806000606060008060038054905087106104945760405162461bcd60e51b815260206004820152600d60248201526c092dcecc2d8d2c840d2dcc8caf609b1b6044820152606401610338565b6000600388815481106104a9576104a9610ea0565b60009182526020918290206040805160c0810182526006909302909101805463ffffffff16835260018101549383019390935260028301546001600160a01b03169082015260038201805491929160608401919061050690610e66565b80601f016020809104026020016040519081016040528092919081815260200182805461053290610e66565b801561057f5780601f106105545761010080835404028352916020019161057f565b820191906000526020600020905b81548152906001019060200180831161056257829003601f168201915b5050509183525050600482015460208083019190915260059092015460ff161515604091820152825191830151908301516060840151608085015160a090950151939d929c50909a509850919650945092505050565b600354811061061e5760405162461bcd60e51b8152602060048201526015602482015274092dcecc2d8d2c840dacae6e6c2ceca40d2dcc8caf605b1b6044820152606401610338565b60006003828154811061063357610633610ea0565b60009182526020909120600690910201600581015490915060ff161561069b5760405162461bcd60e51b815260206004820152601860248201527f4d65737361676520616c726561647920657865637574656400000000000000006044820152606401610338565b8054600182015460028301546040516000936106d79363ffffffff9091169290916001600160a01b039091169060038701908890602001610eb6565b60408051601f1981840301815291815281516020928301206000818152600490935291205490915060ff161561074f5760405162461bcd60e51b815260206004820152601d60248201527f4d657373616765206861736820616c72656164792065786563757465640000006044820152606401610338565b600582018054600160ff199182168117909255600083815260046020908152604080832080549094169094179092556002808601546001600160a01b031682528252828120855463ffffffff16825290915290812080546001600160401b0316916107b983610f6d565b82546001600160401b039182166101009390930a92830291909202199091161790555060028201546000906001600160a01b03163b1561089a57600280840154845460018601546001600160a01b0390921660008181526020948552604080822063ffffffff909416808352939095528490205493516392fc611960e01b815290936392fc61199361085f939290916001600160401b03169060038a0190600401610fa1565b600060405180830381600087803b15801561087957600080fd5b505af192505050801561088a575060015b6108965750600061089a565b5060015b817f6e32ad840d8020e3c97f0a19f3b62b69980469e96aea009b695725ebbd08bfa6826040516108ce911515815260200190565b60405180910390a250505050565b60008054600160c01b90046001600160401b03168160186108fc83610f6d565b82546101009290920a6001600160401b0381810219909316918316021790915533600081815260016020908152604080832063ffffffff8f16808552925291829020805467ffffffffffffffff191694861694909417909355519293506001600160a01b038a16929091907fa129acf6241ff0ac13d2b70c989b1bfbb218054dcd9350dbceb7598b7bf6e1bc90610998908b908b908890611051565b60405180910390a46109e488338989898080601f0160208091040260200160405190810160405280939291908181526020018383808284376000920191909152508892506109ef915050565b979650505050505050565b60008585858585604051602001610a0a959493929190611093565b60408051808303601f19018152828252805160209182012060c08401835263ffffffff8a811685526001600160a01b038a811693860193845289811694860194855260608601898152426080880152600060a0880181905260038054600181018255915287517fc2575a0e9e593c00f959f8c92f12db2869c3395a3b0502d05e2516446f71f85b6006909202918201805463ffffffff19169190951617845594517fc2575a0e9e593c00f959f8c92f12db2869c3395a3b0502d05e2516446f71f85c86015594517fc2575a0e9e593c00f959f8c92f12db2869c3395a3b0502d05e2516446f71f85d850180546001600160a01b0319169190921617905592519094507fc2575a0e9e593c00f959f8c92f12db2869c3395a3b0502d05e2516446f71f85e90910190610b3b908261116a565b506080820151600482015560a0909101516005909101805460ff19169115159190911790556040516001600160a01b03858116919087169063ffffffff8916907fb25ad205fe892f8595de0e7de245543f0692679e506a53331ab80795f98b7bfd90610baa9088908890611229565b60405180910390a4505050505050565b80356001600160a01b0381168114610bd157600080fd5b919050565b803563ffffffff81168114610bd157600080fd5b60008060408385031215610bfd57600080fd5b610c0683610bba565b9150610c1460208401610bd6565b90509250929050565b600060208284031215610c2f57600080fd5b610c3882610bd6565b9392505050565b600060208284031215610c5157600080fd5b5035919050565b60005b83811015610c73578181015183820152602001610c5b565b50506000910152565b60008151808452610c94816020860160208601610c58565b601f01601f19169290920160200192915050565b63ffffffff8716815285602082015260018060a01b038516604082015260c060608201526000610cdb60c0830186610c7c565b60808301949094525090151560a090910152949350505050565b60008083601f840112610d0757600080fd5b5081356001600160401b03811115610d1e57600080fd5b602083019150836020828501011115610d3657600080fd5b9250929050565b60008060008060008060808789031215610d5657600080fd5b610d5f87610bd6565b9550610d6d60208801610bba565b945060408701356001600160401b0380821115610d8957600080fd5b610d958a838b01610cf5565b90965094506060890135915080821115610dae57600080fd5b50610dbb89828a01610cf5565b979a9699509497509295939492505050565b600080600080600080600060a0888a031215610de857600080fd5b610df188610bd6565b9650610dff60208901610bba565b955060408801356001600160401b0380821115610e1b57600080fd5b610e278b838c01610cf5565b909750955060608a0135915080821115610e4057600080fd5b50610e4d8a828b01610cf5565b989b979a50959894979596608090950135949350505050565b600181811c90821680610e7a57607f821691505b602082108103610e9a57634e487b7160e01b600052602260045260246000fd5b50919050565b634e487b7160e01b600052603260045260246000fd5b63ffffffff60e01b8660e01b1681528460048201526bffffffffffffffffffffffff198460601b1660248201526000603860008554610ef481610e66565b60018281168015610f0c5760018114610f2557610f58565b60ff198416888701528215158302880186019450610f58565b8960005260208060002060005b85811015610f4d5781548b82018a0152908401908201610f32565b505050858389010194505b50505094815260200198975050505050505050565b60006001600160401b03808316818103610f9757634e487b7160e01b600052601160045260246000fd5b6001019392505050565b63ffffffff851681526000602085818401526001600160401b03851660408401526080606084015260008454610fd681610e66565b80608087015260a0600180841660008114610ff8576001811461101257611040565b60ff1985168984015283151560051b890183019550611040565b896000528660002060005b858110156110385781548b820186015290830190880161101d565b8a0184019650505b50939b9a5050505050505050505050565b604081528260408201528284606083013760006060848301015260006060601f19601f86011683010190506001600160401b0383166020830152949350505050565b63ffffffff60e01b8660e01b16815260006bffffffffffffffffffffffff19808760601b166004840152808660601b1660188401525083516110dc81602c850160208801610c58565b60c09390931b6001600160c01b031916602c929093019182019290925260340195945050505050565b634e487b7160e01b600052604160045260246000fd5b601f82111561116557600081815260208120601f850160051c810160208610156111425750805b601f850160051c820191505b818110156111615782815560010161114e565b5050505b505050565b81516001600160401b0381111561118357611183611105565b611197816111918454610e66565b8461111b565b602080601f8311600181146111cc57600084156111b45750858301515b600019600386901b1c1916600185901b178555611161565b600085815260208120601f198616915b828110156111fb578886015182559484019460019091019084016111dc565b50858210156112195787850151600019600388901b60f8161c191681555b5050505050600190811b01905550565b60408152600061123c6040830185610c7c565b90506001600160401b0383166020830152939250505056fea26469706673582212208370d42d390ee6c999c289f7944b576c9b42edae4e7e95a9a1239eddaa491ffa64736f6c63430008140033",
  "linkReferences": {},
  "deployedLinkReferences": {}
}