{
  "_format": "hh-sol-artifact-1",
  "contractName": "SmartAggregator",
  "sourceName": "contracts/SmartAggregator.sol",
  "abi": [
    {
      "inputs": [
        {
          "internalType": "address",
          "name": "_priceFeed",
          "type": "address"
        }
      ],
      "stateMutability": "nonpayable",
      "type": "constructor"
    },
    {
      "inputs": [],
      "name": "AccessControlBadConfirmation",
      "type": "error"
    },
    {
      "inputs": [
        {
          "internalType": "address",
          "name": "account",
          "type": "address"
        },
        {
          "internalType": "bytes32",
          "name": "neededRole",
          "type": "bytes32"
        }
      ],
      "name": "AccessControlUnauthorizedAccount",
      "type": "error"
    },
    {
      "inputs": [],
      "name": "EnforcedPause",
      "type": "error"
    },
    {
      "inputs": [],
      "name": "ExpectedPause",
      "type": "error"
    },
    {
      "inputs": [],
      "name": "ReentrancyGuardReentrantCall",
      "type": "error"
    },
    {
      "inputs": [
        {
          "internalType": "address",
          "name": "token",
          "type": "address"
        }
      ],
      "name": "SafeERC20FailedOperation",
      "type": "error"
    },
    {
      "anonymous": false,
      "inputs": [
        {
          "indexed": false,
          "internalType": "address",
          "name": "router",
          "type": "address"
        },
        {
          "indexed": false,
          "internalType": "string",
          "name": "name",
          "type": "string"
        },
        {
          "indexed": false,
          "internalType": "uint256",
          "name": "priority",
          "type": "uint256"
        }
      ],
      "name": "DEXAdded",
      "type": "event"
    },
    {
      "anonymous": false,
      "inputs": [
        {
          "indexed": false,
          "internalType": "address",
          "name": "router",
          "type": "address"
        }
      ],
      "name": "DEXRemoved",
      "type": "event"
    },
    {
      "anonymous": false,
      "inputs": [
        {
          "indexed": false,
          "internalType": "address",
          "name": "user",
          "type": "address"
        },
        {
          "indexed": false,
          "internalType": "string",
          "name": "protectionType",
          "type": "string"
        },
        {
          "indexed": false,
          "internalType": "uint256",
          "name": "timestamp",
          "type": "uint256"
        }
      ],
      "name": "MEVProtectionTriggered",
      "type": "event"
    },
    {
      "anonymous": false,
      "inputs": [
        {
          "indexed": false,
          "internalType": "address",
          "name": "account",
          "type": "address"
        }
      ],
      "name": "Paused",
      "type": "event"
    },
    {
      "anonymous": false,
      "inputs": [
        {
          "indexed": true,
          "internalType": "bytes32",
          "name": "role",
          "type": "bytes32"
        },
        {
          "indexed": true,
          "internalType": "bytes32",
          "name": "previousAdminRole",
          "type": "bytes32"
        },
        {
          "indexed": true,
          "internalType": "bytes32",
          "name": "newAdminRole",
          "type": "bytes32"
        }
      ],
      "name": "RoleAdminChanged",
      "type": "event"
    },
    {
      "anonymous": false,
      "inputs": [
        {
          "indexed": true,
          "internalType": "bytes32",
          "name": "role",
          "type": "bytes32"
        },
        {
          "indexed": true,
          "internalType": "address",
          "name": "account",
          "type": "address"
        },
        {
          "indexed": true,
          "internalType": "address",
          "name": "sender",
          "type": "address"
        }
      ],
      "name": "RoleGranted",
      "type": "event"
    },
    {
      "anonymous": false,
      "inputs": [
        {
          "indexed": true,
          "internalType": "bytes32",
          "name": "role",
          "type": "bytes32"
        },
        {
          "indexed": true,
          "internalType": "address",
          "name": "account",
          "type": "address"
        },
        {
          "indexed": true,
          "internalType": "address",
          "name": "sender",
          "type": "address"
        }
      ],
      "name": "RoleRevoked",
      "type": "event"
    },
    {
      "anonymous": false,
      "inputs": [
        {
          "indexed": false,
          "internalType": "address",
          "name": "tokenIn",
          "type": "address"
        },
        {
          "indexed": false,
          "internalType": "address",
          "name": "tokenOut",
          "type": "address"
        },
        {
          "indexed": false,
          "internalType": "uint256",
          "name": "amountIn",
          "type": "uint256"
        },
        {
          "indexed": false,
          "internalType": "uint256",
          "name": "expectedOut",
          "type": "uint256"
        },
        {
          "indexed": false,
          "internalType": "uint256",
          "name": "gasEstimate",
          "type": "uint256"
        }
      ],
      "name": "RouteOptimized",
      "type": "event"
    },
    {
      "anonymous": false,
      "inputs": [
        {
          "indexed": false,
          "internalType": "uint256",
          "name": "oldSlippage",
          "type": "uint256"
        },
        {
          "indexed": false,
          "internalType": "uint256",
          "name": "newSlippage",
          "type": "uint256"
        }
      ],
      "name": "SlippageUpdated",
      "type": "event"
    },
    {
      "anonymous": false,
      "inputs": [
        {
          "indexed": true,
          "internalType": "address",
          "name": "user",
          "type": "address"
        },
        {
          "indexed": true,
          "internalType": "address",
          "name": "tokenIn",
          "type": "address"
        },
        {
          "indexed": true,
          "internalType": "address",
          "name": "tokenOut",
          "type": "address"
        },
        {
          "indexed": false,
          "internalType": "uint256",
          "name": "amountIn",
          "type": "uint256"
        },
        {
          "indexed": false,
          "internalType": "uint256",
          "name": "amountOut",
          "type": "uint256"
        },
        {
          "indexed": false,
          "internalType": "address[]",
          "name": "routers",
          "type": "address[]"
        }
      ],
      "name": "SwapExecuted",
      "type": "event"
    },
    {
      "anonymous": false,
      "inputs": [
        {
          "indexed": false,
          "internalType": "address",
          "name": "account",
          "type": "address"
        }
      ],
      "name": "Unpaused",
      "type": "event"
    },
    {
      "inputs": [],
      "name": "DEFAULT_ADMIN_ROLE",
      "outputs": [
        {
          "internalType": "bytes32",
          "name": "",
          "type": "bytes32"
        }
      ],
      "stateMutability": "view",
      "type": "function"
    },
    {
      "inputs": [],
      "name": "KEEPER_ROLE",
      "outputs": [
        {
          "internalType": "bytes32",
          "name": "",
          "type": "bytes32"
        }
      ],
      "stateMutability": "view",
      "type": "function"
    },
    {
      "inputs": [],
      "name": "ROUTER_ROLE",
      "outputs": [
        {
          "internalType": "bytes32",
          "name": "",
          "type": "bytes32"
        }
      ],
      "stateMutability": "view",
      "type": "function"
    },
    {
      "inputs": [],
      "name": "SLIPPAGE_DENOMINATOR",
      "outputs": [
        {
          "internalType": "uint256",
          "name": "",
          "type": "uint256"
        }
      ],
      "stateMutability": "view",
      "type": "function"
    },
    {
      "inputs": [
        {
          "internalType": "uint256",
          "name": "",
          "type": "uint256"
        }
      ],
      "name": "activeDEXs",
      "outputs": [
        {
          "internalType": "address",
          "name": "",
          "type": "address"
        }
      ],
      "stateMutability": "view",
      "type": "function"
    },
    {
      "inputs": [
        {
          "internalType": "address",
          "name": "router",
          "type": "address"
        },
        {
          "internalType": "string",
          "name": "name",
          "type": "string"
        },
        {
          "internalType": "uint256",
          "name": "priority",
          "type": "uint256"
        }
      ],
      "name": "addDEX",
      "outputs": [],
      "stateMutability": "nonpayable",
      "type": "function"
    },
    {
      "inputs": [],
      "name": "defaultSlippage",
      "outputs": [
        {
          "internalType": "uint256",
          "name": "",
          "type": "uint256"
        }
      ],
      "stateMutability": "view",
      "type": "function"
    },
    {
      "inputs": [
        {
          "internalType": "address",
          "name": "",
          "type": "address"
        }
      ],
      "name": "dexRouters",
      "outputs": [
        {
          "internalType": "address",
          "name": "router",
          "type": "address"
        },
        {
          "internalType": "string",
          "name": "name",
          "type": "string"
        },
        {
          "internalType": "bool",
          "name": "isActive",
          "type": "bool"
        },
        {
          "internalType": "uint256",
          "name": "priority",
          "type": "uint256"
        }
      ],
      "stateMutability": "view",
      "type": "function"
    },
    {
      "inputs": [
        {
          "internalType": "address",
          "name": "tokenIn",
          "type": "address"
        },
        {
          "internalType": "address",
          "name": "tokenOut",
          "type": "address"
        },
        {
          "internalType": "uint256",
          "name": "amountIn",
          "type": "uint256"
        },
        {
          "internalType": "uint256",
          "name": "minAmountOut",
          "type": "uint256"
        },
        {
          "internalType": "uint256",
          "name": "splits",
          "type": "uint256"
        }
      ],
      "name": "executeSplitSwap",
      "outputs": [
        {
          "internalType": "uint256",
          "name": "totalOut",
          "type": "uint256"
        }
      ],
      "stateMutability": "nonpayable",
      "type": "function"
    },
    {
      "inputs": [
        {
          "internalType": "address",
          "name": "tokenIn",
          "type": "address"
        },
        {
          "internalType": "address",
          "name": "tokenOut",
          "type": "address"
        },
        {
          "internalType": "uint256",
          "name": "amountIn",
          "type": "uint256"
        },
        {
          "internalType": "uint256",
          "name": "minAmountOut",
          "type": "uint256"
        },
        {
          "components": [
            {
              "internalType": "address[]",
              "name": "path",
              "type": "address[]"
            },
            {
              "internalType": "uint256[]",
              "name": "amounts",
              "type": "uint256[]"
            },
            {
              "internalType": "address[]",
              "name": "routers",
              "type": "address[]"
            },
            {
              "internalType": "uint256",
              "name": "deadline",
              "type": "uint256"
            }
          ],
          "internalType": "struct SmartAggregator.SwapRoute",
          "name": "route",
          "type": "tuple"
        }
      ],
      "name": "executeSwap",
      "outputs": [
        {
          "internalType": "uint256",
          "name": "amountOut",
          "type": "uint256"
        }
      ],
      "stateMutability": "nonpayable",
      "type": "function"
    },
    {
      "inputs": [
        {
          "internalType": "address",
          "name": "tokenIn",
          "type": "address"
        },
        {
          "internalType": "address",
          "name": "tokenOut",
          "type": "address"
        },
        {
          "internalType": "uint256",
          "name": "amountIn",
          "type": "uint256"
        }
      ],
      "name": "findOptimalRoute",
      "outputs": [
        {
          "components": [
            {
              "internalType": "address[]",
              "name": "path",
              "type": "address[]"
            },
            {
              "internalType": "uint256[]",
              "name": "amounts",
              "type": "uint256[]"
            },
            {
              "internalType": "address[]",
              "name": "routers",
              "type": "address[]"
            },
            {
              "internalType": "uint256",
              "name": "deadline",
              "type": "uint256"
            }
          ],
          "internalType": "struct SmartAggregator.SwapRoute",
          "name": "route",
          "type": "tuple"
        }
      ],
      "stateMutability": "nonpayable",
      "type": "function"
    },
    {
      "inputs": [
        {
          "internalType": "bytes32",
          "name": "role",
          "type": "bytes32"
        }
      ],
      "name": "getRoleAdmin",
      "outputs": [
        {
          "internalType": "bytes32",
          "name": "",
          "type": "bytes32"
        }
      ],
      "stateMutability": "view",
      "type": "function"
    },
    {
      "inputs": [
        {
          "internalType": "bytes32",
          "name": "role",
          "type": "bytes32"
        },
        {
          "internalType": "address",
          "name": "account",
          "type": "address"
        }
      ],
      "name": "grantRole",
      "outputs": [],
      "stateMutability": "nonpayable",
      "type": "function"
    },
    {
      "inputs": [
        {
          "internalType": "bytes32",
          "name": "role",
          "type": "bytes32"
        },
        {
          "internalType": "address",
          "name": "account",
          "type": "address"
        }
      ],
      "name": "hasRole",
      "outputs": [
        {
          "internalType": "bool",
          "name": "",
          "type": "bool"
        }
      ],
      "stateMutability": "view",
      "type": "function"
    },
    {
      "inputs": [],
      "name": "maxSlippage",
      "outputs": [
        {
          "internalType": "uint256",
          "name": "",
          "type": "uint256"
        }
      ],
      "stateMutability": "view",
      "type": "function"
    },
    {
      "inputs": [],
      "name": "mevSettings",
      "outputs": [
        {
          "internalType": "uint256",
          "name": "maxSlippage",
          "type": "uint256"
        },
        {
          "internalType": "uint256",
          "name": "minOutput",
          "type": "uint256"
        },
        {
          "internalType": "uint256",
          "name": "maxPriceImpact",
          "type": "uint256"
        },
        {
          "internalType": "bool",
          "name": "useFlashbotsRPC",
          "type": "bool"
        },
        {
          "internalType": "uint256",
          "name": "priorityFee",
          "type": "uint256"
        }
      ],
      "stateMutability": "view",
      "type": "function"
    },
    {
      "inputs": [],
      "name": "pause",
      "outputs": [],
      "stateMutability": "nonpayable",
      "type": "function"
    },
    {
      "inputs": [],
      "name": "paused",
      "outputs": [
        {
          "internalType": "bool",
          "name": "",
          "type": "bool"
        }
      ],
      "stateMutability": "view",
      "type": "function"
    },
    {
      "inputs": [],
      "name": "priceFeed",
      "outputs": [
        {
          "internalType": "contract IPriceFeed",
          "name": "",
          "type": "address"
        }
      ],
      "stateMutability": "view",
      "type": "function"
    },
    {
      "inputs": [
        {
          "internalType": "address",
          "name": "router",
          "type": "address"
        }
      ],
      "name": "removeDEX",
      "outputs": [],
      "stateMutability": "nonpayable",
      "type": "function"
    },
    {
      "inputs": [
        {
          "internalType": "bytes32",
          "name": "role",
          "type": "bytes32"
        },
        {
          "internalType": "address",
          "name": "callerConfirmation",
          "type": "address"
        }
      ],
      "name": "renounceRole",
      "outputs": [],
      "stateMutability": "nonpayable",
      "type": "function"
    },
    {
      "inputs": [
        {
          "internalType": "address",
          "name": "token",
          "type": "address"
        },
        {
          "internalType": "uint256",
          "name": "amount",
          "type": "uint256"
        }
      ],
      "name": "rescueTokens",
      "outputs": [],
      "stateMutability": "nonpayable",
      "type": "function"
    },
    {
      "inputs": [
        {
          "internalType": "bytes32",
          "name": "role",
          "type": "bytes32"
        },
        {
          "internalType": "address",
          "name": "account",
          "type": "address"
        }
      ],
      "name": "revokeRole",
      "outputs": [],
      "stateMutability": "nonpayable",
      "type": "function"
    },
    {
      "inputs": [
        {
          "internalType": "bytes4",
          "name": "interfaceId",
          "type": "bytes4"
        }
      ],
      "name": "supportsInterface",
      "outputs": [
        {
          "internalType": "bool",
          "name": "",
          "type": "bool"
        }
      ],
      "stateMutability": "view",
      "type": "function"
    },
    {
      "inputs": [],
      "name": "unpause",
      "outputs": [],
      "stateMutability": "nonpayable",
      "type": "function"
    },
    {
      "inputs": [
        {
          "internalType": "uint256",
          "name": "_maxSlippage",
          "type": "uint256"
        },
        {
          "internalType": "uint256",
          "name": "maxPriceImpact",
          "type": "uint256"
        },
        {
          "internalType": "bool",
          "name": "useFlashbotsRPC",
          "type": "bool"
        },
        {
          "internalType": "uint256",
          "name": "priorityFee",
          "type": "uint256"
        }
      ],
      "name": "updateMEVProtection",
      "outputs": [],
      "stateMutability": "nonpayable",
      "type": "function"
    }
  ],
  "bytecode": "0x60806040523462000030576200001e62000018620000d3565b620002b5565b604051612a36620004ec8239612a3690f35b600080fd5b634e487b7160e01b600052604160045260246000fd5b90601f01601f191681019081106001600160401b038211176200006d57604052565b62000035565b906200008a6200008260405190565b92836200004b565b565b6001600160a01b031690565b90565b6001600160a01b038116036200003057565b905051906200008a826200009b565b9060208282031262000030576200009891620000ad565b6200009862002f2280380380620000ea8162000073565b928339810190620000bc565b90600019905b9181191691161790565b6200009862000098620000989290565b906200012a62000098620001329262000106565b8254620000f6565b9055565b6200008c62000098620000989290565b620000989062000136565b156200015957565b60405162461bcd60e51b8152602060048201526012602482015271125b9d985b1a59081c1c9a58d9481999595960721b6044820152606490fd5b62000098600062000106565b62000098906200008c906001600160a01b031682565b62000098906200019f565b6200009890620001b5565b906001600160a01b0390620000fc565b90620001ef620000986200013292620001c0565b8254620001cb565b6200009860a062000073565b9060ff90620000fc565b9062000220620000986200013292151590565b825462000203565b6004620002a160806200008a946200024c62000245600083015190565b8662000116565b620002666200025c602083015190565b6001870162000116565b6200028062000276604083015190565b6002870162000116565b6200029c620002926060830151151590565b600387016200020d565b015190565b910162000116565b906200008a9162000228565b6200008a90620002c4620003e0565b620002d26032600b62000116565b620002e16101f4600c62000116565b620003626200035a60009262000311620002ff6200008c8662000146565b6001600160a01b038316141562000151565b620003276200031f62000193565b339062000428565b50620003537f7a05a596cb0ce7fdea8a1e1ec73be300bdb35097c944ce1897202f7a13122eb26200031f565b50620001c0565b6005620001db565b620003be62000370620001f7565b916200038762000381606462000106565b82850152565b6200039d620003968262000106565b6020850152565b620003b5620003ae61012c62000106565b6040850152565b15156060830152565b620003d8620003d1637735940062000106565b6080830152565b6006620002a9565b6200008a620003f6565b62000098600162000106565b6200008a62000404620003ea565b600162000116565b905b600052602052604060002090565b906200040e90620001c0565b6200043c620004388383620004c3565b1590565b15620004bc57620004686001620004628460006200045b86826200040c565b016200041c565b6200020d565b620004876200048062000479339390565b93620001c0565b91620001c0565b917f2f8788117e7eff1d82e926ec794901d17c78024a50270940304540a733656f0d620004b360405190565b600090a4600190565b5050600090565b620000989160006200045b620004e493620004dc600090565b50826200040c565b5460ff169056fe6080604052600436101561001257600080fd5b60003560e01c806301ffc9a7146101b25780630270a776146101ad5780630e87e665146101a85780631492a51e146101a3578063248a9ca31461019e5780632532d201146101995780632f2ff15d1461019457806330d643b51461018f578063314523c21461018a578063364bc15a1461018557806336568abe146101805780633f4ba83a1461017b578063429cd25c146101765780635487404a14610171578063573761981461016c5780635c975abb14610167578063741bef1a146101625780637819619d1461015d5780638456cb59146101585780638c04166f146101535780638c8f3f821461014e57806391d1485414610149578063a217fddf14610144578063ac9051141461013f578063c1c356c51461013a5763d547741f036101b757610e55565b610e24565b610c22565b610bf4565b610bb9565b610ba1565b610b72565b610b4e565b610b2f565b610ac3565b610a4e565b610a35565b6109fe565b6109c0565b61095e565b610945565b61090c565b6108db565b61081a565b6107f6565b6107b5565b6106ef565b6106c0565b610466565b6102f3565b6101f9565b600080fd5b6001600160e01b031981165b036101b757565b905035906101dc826101bc565b565b906020828203126101b7576101f2916101cf565b90565b9052565b346101b75761022661021461020f3660046101de565b610e6e565b60405191829182901515815260200190565b0390f35b806101c8565b905035906101dc8261022a565b906020828203126101b7576101f291610230565b634e487b7160e01b600052603260045260246000fd5b805482101561028a57610281600191600052602060002090565b91020190600090565b610251565b6101f2916008021c5b73ffffffffffffffffffffffffffffffffffffffff1690565b906101f2915461028f565b6004548110156101b7576102d46101f2916004610267565b906102b1565b6101f590610298565b6020810192916101dc91906102da565b346101b75761022661030e61030936600461023d565b6102bc565b604051918291826102e3565b6101c881610298565b905035906101dc8261031a565b90916060828403126101b7576101f26103498484610323565b9360406103598260208701610323565b9401610230565b9061036d816020936102da565b0190565b9061039161038a610380845190565b8084529260200190565b9260200190565b9060005b8181106103a25750505090565b9091926103bc6103b56001928651610360565b9460200190565b929101610395565b906103d361038a610380845190565b9060005b8181106103e45750505090565b9091926103fa6103b56001928651815260200190565b9291016103d7565b906101f29060608061044d61043b6104296080860160008901518782036000890152610371565b602088015186820360208801526103c4565b60408701518582036040870152610371565b940151910152565b60208082526101f292910190610402565b346101b75761022661048261047c366004610330565b91611107565b60405191829182610455565b634e487b7160e01b600052604160045260246000fd5b90601f01601f1916810190811067ffffffffffffffff8211176104c657604052565b61048e565b906101dc6104d860405190565b92836104a4565b67ffffffffffffffff81116104c65760208091020190565b9092919261050c610507826104df565b6104cb565b93818552602080860192028301928184116101b757915b8383106105305750505050565b6020809161053e8486610323565b815201920191610523565b9080601f830112156101b7578160206101f2933591016104f7565b90929192610574610507826104df565b93818552602080860192028301928184116101b757915b8383106105985750505050565b602080916105a68486610230565b81520192019161058b565b9080601f830112156101b7578160206101f293359101610564565b9190916080818403126101b7576105e360806104cb565b92813567ffffffffffffffff81116101b75781610601918401610549565b8452602082013567ffffffffffffffff81116101b757816106239184016105b1565b6020850152604082013567ffffffffffffffff81116101b7578261064e836060936106599601610549565b604087015201610230565b6060830152565b91909160a0818403126101b7576106778382610323565b926106858160208401610323565b926106938260408501610230565b926106a18360608301610230565b92608082013567ffffffffffffffff81116101b7576101f292016105cc565b346101b7576102266106df6106d6366004610660565b93929092611723565b6040519182918290815260200190565b346101b7576102266106df61070536600461023d565b611738565b67ffffffffffffffff81116104c657602090601f01601f19160190565b90826000939282370152565b909291926107436105078261070a565b93818552818301116101b7576101dc916020850190610727565b9080601f830112156101b7578160206101f293359101610733565b90916060828403126101b75761078e8383610323565b9260208301359067ffffffffffffffff82116101b7576040610359826101f294870161075d565b346101b7576107ce6107c8366004610778565b91611bd4565b604051005b91906040838203126101b7576101f29060206107ef8286610230565b9401610323565b346101b7576107ce6108093660046107d3565b90611bfd565b60009103126101b757565b346101b75761082a36600461080f565b6102267f7a05a596cb0ce7fdea8a1e1ec73be300bdb35097c944ce1897202f7a13122eb26106df565b6101f29081565b6101f29054610853565b61086e600661085a565b90610879600761085a565b90610884600861085a565b9061089160095460ff1690565b906101f2600a61085a565b909594926101dc946108ce6108d7926108c76080966108c060a088019c6000890152565b6020870152565b6040850152565b15156060830152565b0152565b346101b7576108eb36600461080f565b6102266108f6610864565b9161090395939560405190565b9586958661089c565b346101b75761091c36600461080f565b6102267ffc8737ab85eb45125971625a9ebdb75cc78e01d5c1fa80c4c6e5203f47bc4fab6106df565b346101b7576107ce6109583660046107d3565b90611c07565b346101b75761096e36600461080f565b6107ce611c69565b8015156101c8565b905035906101dc82610976565b6080818303126101b75761099f8282610230565b926101f26109b08460208501610230565b936060610359826040870161097e565b346101b7576107ce6109d336600461098b565b92919091611d31565b6101f2916008021c81565b906101f291546109dc565b6101f26000600b6109e7565b346101b757610a0e36600461080f565b6102266106df6109f2565b91906040838203126101b7576101f29060206103598286610323565b346101b7576107ce610a48366004610a19565b90611d5a565b346101b757610a5e36600461080f565b610226610214611d64565b6101f2600060056102b1565b6102986101f26101f29273ffffffffffffffffffffffffffffffffffffffff1690565b6101f290610a75565b6101f290610a98565b6101f590610aa1565b6020810192916101dc9190610aaa565b346101b757610ad336600461080f565b610226610ade610a69565b60405191829182610ab3565b919060a0838203126101b757610b008184610323565b92610b0e8260208301610323565b926101f2610b1f8460408501610230565b9360806103598260608701610230565b346101b7576102266106df610b45366004610aea565b93929092611f82565b346101b757610b5e36600461080f565b6107ce611fa7565b6101f26000600c6109e7565b346101b757610b8236600461080f565b6102266106df610b66565b906020828203126101b7576101f291610323565b346101b7576107ce610bb4366004610b8d565b612156565b346101b757610226610214610bcf3660046107d3565b9061215f565b6101f26101f26101f29290565b6101f26000610bd5565b6101f2610be2565b346101b757610c0436600461080f565b6102266106df610bec565b6101f2612710610bd5565b6101f2610c0f565b346101b757610c3236600461080f565b6102266106df610c1a565b90610c4790610aa1565b600052602052604060002090565b6101f290610298565b6101f29054610c55565b634e487b7160e01b600052602260045260246000fd5b9060016002830492168015610c9e575b6020831014610c9957565b610c68565b91607f1691610c8e565b80546000939291610cc5610cbb83610c7e565b8085529360200190565b9160018116908115610d175750600114610cde57505050565b610cf19192939450600052602060002090565b916000925b818410610d035750500190565b805484840152602090930192600101610cf6565b92949550505060ff1916825215156020020190565b906101f291610ca8565b906101dc610d5092610d4760405190565b93848092610d2c565b03836104a4565b610d62906003610c3d565b90610d6c82610c5e565b91610d7960018201610d36565b916101f26003610d8d600285015460ff1690565b930161085a565b60005b838110610da75750506000910152565b8181015183820152602001610d97565b610dd8610de160209361036d93610dcc815190565b80835293849260200190565b95869101610d94565b601f01601f191690565b6108d7610e1a6060936101dc96989795610e0d608086019260008701906102da565b8482036020860152610db7565b9615156040830152565b346101b757610226610e3f610e3a366004610b8d565b610d57565b90610e4c94929460405190565b94859485610deb565b346101b7576107ce610e683660046107d3565b906121a3565b7f7965db0b000000000000000000000000000000000000000000000000000000006001600160e01b0319821614908115610ea6575090565b6101f291506001600160e01b0319167f01ffc9a7000000000000000000000000000000000000000000000000000000001490565b6101f260806104cb565b610eec610eda565b906060825260208080808501606081520160608152016000905250565b6101f2610ee4565b6102986101f26101f29290565b6101f290610f11565b15610f2e57565b60405162461bcd60e51b815260206004820152600e60248201527f496e76616c696420746f6b656e730000000000000000000000000000000000006044820152606490fd5b0390fd5b15610f7e57565b60405162461bcd60e51b815260206004820152600e60248201527f496e76616c696420616d6f756e740000000000000000000000000000000000006044820152606490fd5b90610fd0610507836104df565b918252565b369037565b906101dc610ff0610fea84610fc3565b936104df565b601f190160208401610fd5565b90611006825190565b81101561028a576020809102010190565b906101f590610298565b906101dc61107b6003611032610eda565b9461104561103f82610c5e565b87611017565b61105b61105460018301610d36565b6020880152565b61107561106c600283015460ff1690565b15156040880152565b0161085a565b6060840152565b6101f290611021565b6101f29051610298565b634e487b7160e01b600052601160045260246000fd5b91906110b6565b9290565b82018092116110c157565b611095565b6101f590610bd5565b909594926101dc94610659611100926108c76080966110f660a088019c60008901906102da565b60208701906102da565b01906110c6565b9190611111610f09565b5060009261114261112185610f1e565b61112a81610298565b61113384610298565b14159081611309575b50610f27565b61115561114e85610bd5565b8411610f77565b61115e84610bd5565b936111696002610bd5565b9461117386610fda565b9586826001926111836001610bd5565b936111ae896111a48761119581610fda565b976111a98d6111a48a84610ffd565b611017565b610ffd565b82815b611252575b50506111c190610fda565b92886111cc87610bd5565b6111d69086610ffd565b526111e19084610ffd565b526111ed61012c610bd5565b6111f790426110ab565b91611200610eda565b98858a019061120c9152565b60208901526040880152606087015260405194859461122b94866110cf565b037f23e20470e7ef27ceb9bec68b4bb33a93d44948023b8833f8ce21c45a8d7cd5fd91a190565b90919250866004876112656101f2835490565b841015611300575061128961128e916112836102d486600393610267565b90610c3d565b611082565b6112a261129e6040830151151590565b1590565b6112c357016112bb8b8b8b6112b68561108b565b61221d565b8781116112d3575b50506001015b90859291816111b1565b6112c9929197506112e76112f9919861108b565b6111a46112f38b610bd5565b88610ffd565b90386112c3565b949350506111b6565b6113139150610298565b61131c84610298565b14153861113c565b9061133a9594939291611335612486565b611343565b906101dc6124df565b906101f295949392916113546124f1565b61154e565b1561136057565b60405162461bcd60e51b815260206004820152600d60248201527f526f7574652065787069726564000000000000000000000000000000000000006044820152606490fd5b929160406113fa6101dc936113c2606088019160008901906102da565b8681036020880152601881527f53616e64776963682041747461636b2044657465637465640000000000000000602082015260400190565b940152565b919082039182116110c157565b818102929181159184041417156110c157565b634e487b7160e01b600052601260045260246000fd5b9061143f565b9190565b90811561144a570490565b61141f565b1561145657565b60405162461bcd60e51b815260206004820152601160248201527f536c69707061676520746f6f20686967680000000000000000000000000000006044820152606490fd5b156114a257565b60405162461bcd60e51b815260206004820152601360248201527f496e73756666696369656e74206f7574707574000000000000000000000000006044820152606490fd5b906114f661038a610380845190565b9060005b8181106115075750505090565b90919261151a6103b56001928651610360565b9291016114fa565b6115416101f294929361153a60608401956000850152565b6020830152565b60408184039101526114e7565b9490919293945061156b611563606083015190565b421115611359565b61157361252a565b6116a557611656947f100dba7d974835052d824c0df8c4b03913d25a7f2203b21c51676dbfebc12b5b916115bb866115aa86610aa1565b6115b330610aa1565b9033906125a4565b61165e61165060406116226115f86115f4602087016115ee6115de825192515190565b6115e86001610bd5565b906113ff565b90610ffd565b5190565b61161d611603610c0f565b91611617611611600661085a565b846113ff565b9061140c565b611435565b9361162f8587101561144f565b019288888861164b61164688516115ee6000610bd5565b61108b565b612676565b97889390565b83101561149b565b6116728261166b87610aa1565b339061271e565b519461169f61168c61168661168633610aa1565b96610aa1565b9661169660405190565b93849384611522565b0390a490565b7f06722cf6ae6286e76380766eeff227c7b9cb61f030e43a27ad730cc8452c446b6116cf60405190565b806116db4233836113a5565b0390a160405162461bcd60e51b815260206004820152601e60248201527f4d45563a20506f74656e7469616c2073616e64776963682061747461636b00006044820152606490fd5b6101f294939291906000611324565b90610c47565b60016110756101f292611749600090565b506000611732565b906101dc9291611767611762610be2565b612752565b611b09565b1561177357565b60405162461bcd60e51b815260206004820152600e60248201527f496e76616c696420726f757465720000000000000000000000000000000000006044820152606490fd5b156117bf57565b60405162461bcd60e51b815260206004820152601160248201527f44455820616c72656164792061646465640000000000000000000000000000006044820152606490fd5b9073ffffffffffffffffffffffffffffffffffffffff905b9181191691161790565b906118366101f261183d92610aa1565b8254611804565b9055565b9160001960089290920291821b911b61181c565b921b90565b919061186b6101f261183d93610bd5565b908354611841565b6101dc9160009161185a565b81811061188a575050565b806118986000600193611873565b0161187f565b9190601f81116118ad57505050565b6118bf6101dc93600052602060002090565b906020601f8401819004830193106118e1575b6020601f90910104019061187f565b90915081906118d2565b906118f4815190565b9067ffffffffffffffff82116104c657611918826119128554610c7e565b8561189e565b602090601f83116001146119535761183d929160009183611948575b5050600019600883021c1916906002021790565b015190503880611934565b601f1983169161196885600052602060002090565b9260005b8181106119a65750916002939185600196941061198d575b50505002019055565b01516000196008601f8516021c19169055388080611984565b9193602060018192878701518155019501920161196c565b906101dc916118eb565b9060ff9061181c565b906119e16101f261183d92151590565b82546119c8565b906000199061181c565b90611a026101f261183d92610bd5565b82546119e8565b6003611a5e60606101dc94611a29611a236000830161108b565b86611826565b611a40611a37602083015190565b600187016119be565b611a59611a506040830151151590565b600287016119d1565b015190565b91016119f2565b906101dc91611a09565b9190600861181c91029161185573ffffffffffffffffffffffffffffffffffffffff841b90565b9190611aa76101f261183d93610aa1565b908354611a6f565b90815491680100000000000000008310156104c65782611ad79160016101dc95018155610267565b90611a96565b9392906113fa6040916101dc94611afc606089019260008a01906102da565b8782036020890152610db7565b611bcf7f061e3134b7148fec9558fa6cd11ab62570469ef4b0995aedac2c245d3792509a93611b53611b43611b3e6000610f1e565b610298565b611b4c85610298565b141561176c565b611b76611b7161129e6002611b69876003610c3d565b015460ff1690565b6117b8565b611bb8611b81610eda565b611b8b8582611017565b611b96866020830152565b60016040820152611ba8836060830152565b611bb3856003610c3d565b611a65565b611bc3836004611aaf565b60405193849384611add565b0390a1565b906101dc9291611751565b906101dc91611bf061176282611738565b90611bfa9161275d565b50565b906101dc91611bdf565b90611c1133610298565b611c1a82610298565b03611c2857611bfa916127de565b6040517f6697b232000000000000000000000000000000000000000000000000000000008152600490fd5b611c5e611762610be2565b6101dc6101dc61287b565b6101dc611c53565b906101dc939291611c83611762610be2565b611cd4565b15611c8f57565b60405162461bcd60e51b815260206004820152601560248201527f507269636520696d7061637420746f6f206869676800000000000000000000006044820152606490fd5b611d2b6101dc9493611d22600494611d0c611d046103e8611cff611cf782610bd5565b89111561144f565b610bd5565b821115611c88565b600694611d1990866119f2565b600285016119f2565b600383016119d1565b016119f2565b906101dc939291611c71565b906101dc91611d4d611762610be2565b9061166b6101dc92610aa1565b906101dc91611d3d565b60025460ff1690565b9061133a9594939291611d7e612486565b906101f29594939291611d8f6124f1565b611e3b565b15611d9b57565b60405162461bcd60e51b815260206004820152600e60248201527f496e76616c69642073706c6974730000000000000000000000000000000000006044820152606490fd5b60001981146110c15760010190565b15611df657565b60405162461bcd60e51b815260206004820152601960248201527f496e73756666696369656e7420746f74616c206f7574707574000000000000006044820152606490fd5b9592939491909550600095611e4f87610bd5565b831180611f6a575b611e6090611d94565b611e6d856115aa83610aa1565b611e778386611435565b92611e8188610bd5565b978895865b83881080611f56575b15611f2a578a611eab61128960036112836102d48d6004610267565b8a611ebc61129e6040840151151590565b611f1d57611f0992611f0f94928a8a61164b8f8f611f03978d928f6101f2611ee8916115e86001610bd5565b8103611f15576115e890611efb9361140c565b945b0161108b565b906110ab565b97611de0565b96611e86565b505094611efd565b50505096611f0f90611de0565b98915098506101f2965087955061166b9450611f519250611f49915090565b841015611def565b610aa1565b50611f636101f260045490565b8810611e8f565b50611e60611f786005610bd5565b8411159050611e57565b6101f294939291906000611d6d565b611f9c611762610be2565b6101dc6101dc6128c4565b6101dc611f91565b6101dc90611fbe611762610be2565b612059565b15611fca57565b60405162461bcd60e51b815260206004820152600e60248201527f444558206e6f74206163746976650000000000000000000000000000000000006044820152606490fd5b634e487b7160e01b600052603160045260246000fd5b6101dc91600091611a96565b8054801561205457600019019061205161204b8383610267565b90612025565b55565b61200f565b61207161206c6002611b69846003610c3d565b611fc3565b61208960006002612083846003610c3d565b016119d1565b6120936000610bd5565b60046120a06101f2825490565b82101561212a576120b46102d48383610267565b6120c66120c085610298565b91610298565b146120d45750600101612093565b9161030e612125846101f2611bcf95611ad761211e6102d46121186115de7f1921ba6698157d491d41801286e9e17aee1c25965119e55403ba396b104b95db9c5490565b86610267565b9184610267565b612031565b5050611bcf7f1921ba6698157d491d41801286e9e17aee1c25965119e55403ba396b104b95db9161030e565b6101dc90611faf565b6101f291600061217b61218193612174600090565b5082611732565b01610c3d565b5460ff1690565b906101dc9161219961176282611738565b90611bfa916127de565b906101dc91612188565b63ffffffff81166101c8565b905051906101dc826121ad565b906020828203126101b7576101f2916121b9565b6040513d6000823e3d90fd5b6121f36101f26101f29290565b63ffffffff1690565b905051906101dc8261022a565b906020828203126101b7576101f2916121fc565b509061226a9261222b600090565b5061223f611f51611f51611f516005610c5e565b9160206339e599459461225160405190565b8097819261225f8960e01b90565b8352600483016102e3565b0381865afa9283156123d7576122a195600094612456575b5061225f602093949561229460405190565b9788948593849360e01b90565b03915afa9283156123d757600093612425575b506000926122c1846121e6565b63ffffffff841614801561240e575b612402579261231c929360206122e9611f516005610c5e565b9563da26663a966122f960405190565b80809881946123088c60e01b90565b835263ffffffff1660048301526024820190565b03915afa9384156123d75782946123dc575b506020906123519495612308612347611f516005610c5e565b9161229460405190565b03915afa9283156123d75781936123a6575b5061236d81610bd5565b84148015612395575b61238857506101f29261161d9161140c565b9150506101f29150610bd5565b5061239f81610bd5565b8314612376565b6123c991935060203d6020116123d0575b6123c181836104a4565b810190612209565b9138612363565b503d6123b7565b6121da565b6123519450906123fa602092833d85116123d0576123c181836104a4565b94509061232e565b5050506101f290610bd5565b50612418846121e6565b63ffffffff8216146122d0565b61244891935060203d60201161244f575b61244081836104a4565b8101906121c6565b91386122b4565b503d612436565b602093945061247461225f91853d871161244f5761244081836104a4565b949350612282565b6101f26002610bd5565b612490600161085a565b61249861247c565b9081146124aa576101dc9060016119f2565b6040517f3ee5aeb5000000000000000000000000000000000000000000000000000000008152600490fd5b6101f26001610bd5565b6101dc6124ea6124d5565b60016119f2565b6124f9611d64565b6124ff57565b6040517fd93c0665000000000000000000000000000000000000000000000000000000008152600490fd5b6125446101f261253a600a61085a565b611617600a610bd5565b3a1161254f57600090565b600190565b61256d6125676101f29263ffffffff1690565b60e01b90565b6001600160e01b03191690565b6040906108d76101dc949695939661259a606084019860008501906102da565b60208301906102da565b906125e9906125da6101dc956004956125c06323b872dd612554565b936125ca60405190565b978895602087019081520161257a565b602082018103825203836104a4565b6128cc565b905051906101dc82610976565b906020828203126101b7576101f2916125ee565b9160206101dc9294936108d7604082019660008301906102da565b1561263157565b60405162461bcd60e51b815260206004820152601860248201527f4445583a20496e73756666696369656e74206f757470757400000000000000006044820152606490fd5b92612683611f5183610aa1565b92602061268f60405190565b9485907f095ea7b3000000000000000000000000000000000000000000000000000000008252816000816126c7888c6004840161260f565b03925af19283156123d7576101f2956126e9956110b2956126f1575b5061221d565b82101561262a565b6127129060203d602011612717575b61270a81836104a4565b8101906125fb565b6126e3565b503d612700565b6125e96004926125da6101dc9561273863a9059cbb612554565b9261274260405190565b968794602086019081520161260f565b6101dc903390612973565b61276a61129e838361215f565b156127d757612789600161278484600061217b8682611732565b6119d1565b6127a361279d612797339390565b93610aa1565b91610aa1565b917f2f8788117e7eff1d82e926ec794901d17c78024a50270940304540a733656f0d6127ce60405190565b600090a4600190565b5050600090565b6127e8828261215f565b156127d7576128016000612784848261217b8682611732565b61280f61279d612797339390565b917ff6391f5c32d9c69d2a47ea670b442974b53935d1edc7fd64eb21e047a839171b6127ce60405190565b6128426129c4565b6101dc612851600060026119d1565b7f5db9ee0a495bf2e6ff9c91a7834c1ba4fdd244a5e8aa4e537bd38aeae4b073aa611bcf3361030e565b6101dc61283a565b61288b6124f1565b6101dc61289a600160026119d1565b7f62e78cea01bee320cd4e420270b5ea74000d11b0c9f74754ebdbfc544b05a258611bcf3361030e565b6101dc612883565b9060006020916128da600090565b50828151910182855af1156121da573d600051906128fb61143b6000610bd5565b0361295f575061290a81610aa1565b3b61291861143b6000610bd5565b145b6129215750565b61292d610f7391610aa1565b6040519182917f5274afe7000000000000000000000000000000000000000000000000000000008352600483016102e3565b61296c61143b6001610bd5565b141561291a565b9061298161129e828461215f565b612989575050565b610f7361299560405190565b9283927fe2517d3f0000000000000000000000000000000000000000000000000000000084526004840161260f565b6129cf61129e611d64565b6129d557565b6040517f8dfc202b000000000000000000000000000000000000000000000000000000008152600490fdfea2646970667358221220aa5987548f8d2e5f54493b2d359caae9e7d4c818edbf4b136b2d3e428bbaf8aa64736f6c63430008160033",
  "linkReferences": {},
  "deployedLinkReferences": {}
}