{
  "_format": "hh-sol-artifact-1",
  "contractName": "HyperIndexVault",
  "sourceName": "contracts/HyperIndexVault.sol",
  "abi": [
    {
      "inputs": [
        {
          "internalType": "contract IERC20",
          "name": "_asset",
          "type": "address"
        },
        {
          "internalType": "string",
          "name": "_name",
          "type": "string"
        },
        {
          "internalType": "string",
          "name": "_symbol",
          "type": "string"
        }
      ],
      "stateMutability": "nonpayable",
      "type": "constructor"
    },
    {
      "inputs": [],
      "name": "AccessControlBadConfirmation",
      "type": "error"
    },
    {
      "inputs": [
        {
          "internalType": "address",
          "name": "account",
          "type": "address"
        },
        {
          "internalType": "bytes32",
          "name": "neededRole",
          "type": "bytes32"
        }
      ],
      "name": "AccessControlUnauthorizedAccount",
      "type": "error"
    },
    {
      "inputs": [
        {
          "internalType": "address",
          "name": "spender",
          "type": "address"
        },
        {
          "internalType": "uint256",
          "name": "allowance",
          "type": "uint256"
        },
        {
          "internalType": "uint256",
          "name": "needed",
          "type": "uint256"
        }
      ],
      "name": "ERC20InsufficientAllowance",
      "type": "error"
    },
    {
      "inputs": [
        {
          "internalType": "address",
          "name": "sender",
          "type": "address"
        },
        {
          "internalType": "uint256",
          "name": "balance",
          "type": "uint256"
        },
        {
          "internalType": "uint256",
          "name": "needed",
          "type": "uint256"
        }
      ],
      "name": "ERC20InsufficientBalance",
      "type": "error"
    },
    {
      "inputs": [
        {
          "internalType": "address",
          "name": "approver",
          "type": "address"
        }
      ],
      "name": "ERC20InvalidApprover",
      "type": "error"
    },
    {
      "inputs": [
        {
          "internalType": "address",
          "name": "receiver",
          "type": "address"
        }
      ],
      "name": "ERC20InvalidReceiver",
      "type": "error"
    },
    {
      "inputs": [
        {
          "internalType": "address",
          "name": "sender",
          "type": "address"
        }
      ],
      "name": "ERC20InvalidSender",
      "type": "error"
    },
    {
      "inputs": [
        {
          "internalType": "address",
          "name": "spender",
          "type": "address"
        }
      ],
      "name": "ERC20InvalidSpender",
      "type": "error"
    },
    {
      "inputs": [
        {
          "internalType": "address",
          "name": "receiver",
          "type": "address"
        },
        {
          "internalType": "uint256",
          "name": "assets",
          "type": "uint256"
        },
        {
          "internalType": "uint256",
          "name": "max",
          "type": "uint256"
        }
      ],
      "name": "ERC4626ExceededMaxDeposit",
      "type": "error"
    },
    {
      "inputs": [
        {
          "internalType": "address",
          "name": "receiver",
          "type": "address"
        },
        {
          "internalType": "uint256",
          "name": "shares",
          "type": "uint256"
        },
        {
          "internalType": "uint256",
          "name": "max",
          "type": "uint256"
        }
      ],
      "name": "ERC4626ExceededMaxMint",
      "type": "error"
    },
    {
      "inputs": [
        {
          "internalType": "address",
          "name": "owner",
          "type": "address"
        },
        {
          "internalType": "uint256",
          "name": "shares",
          "type": "uint256"
        },
        {
          "internalType": "uint256",
          "name": "max",
          "type": "uint256"
        }
      ],
      "name": "ERC4626ExceededMaxRedeem",
      "type": "error"
    },
    {
      "inputs": [
        {
          "internalType": "address",
          "name": "owner",
          "type": "address"
        },
        {
          "internalType": "uint256",
          "name": "assets",
          "type": "uint256"
        },
        {
          "internalType": "uint256",
          "name": "max",
          "type": "uint256"
        }
      ],
      "name": "ERC4626ExceededMaxWithdraw",
      "type": "error"
    },
    {
      "inputs": [],
      "name": "EnforcedPause",
      "type": "error"
    },
    {
      "inputs": [],
      "name": "ExpectedPause",
      "type": "error"
    },
    {
      "inputs": [],
      "name": "ReentrancyGuardReentrantCall",
      "type": "error"
    },
    {
      "inputs": [
        {
          "internalType": "address",
          "name": "token",
          "type": "address"
        }
      ],
      "name": "SafeERC20FailedOperation",
      "type": "error"
    },
    {
      "anonymous": false,
      "inputs": [
        {
          "indexed": true,
          "internalType": "address",
          "name": "owner",
          "type": "address"
        },
        {
          "indexed": true,
          "internalType": "address",
          "name": "spender",
          "type": "address"
        },
        {
          "indexed": false,
          "internalType": "uint256",
          "name": "value",
          "type": "uint256"
        }
      ],
      "name": "Approval",
      "type": "event"
    },
    {
      "anonymous": false,
      "inputs": [
        {
          "indexed": true,
          "internalType": "address",
          "name": "tokenFrom",
          "type": "address"
        },
        {
          "indexed": true,
          "internalType": "address",
          "name": "tokenTo",
          "type": "address"
        },
        {
          "indexed": false,
          "internalType": "uint256",
          "name": "amount",
          "type": "uint256"
        },
        {
          "indexed": false,
          "internalType": "uint256",
          "name": "currentRatio",
          "type": "uint256"
        },
        {
          "indexed": false,
          "internalType": "uint256",
          "name": "targetRatio",
          "type": "uint256"
        }
      ],
      "name": "AutoRebalanced",
      "type": "event"
    },
    {
      "anonymous": false,
      "inputs": [
        {
          "indexed": true,
          "internalType": "address",
          "name": "user",
          "type": "address"
        },
        {
          "indexed": true,
          "internalType": "uint256",
          "name": "indexTokenId",
          "type": "uint256"
        },
        {
          "indexed": false,
          "internalType": "uint256",
          "name": "assets",
          "type": "uint256"
        },
        {
          "indexed": false,
          "internalType": "uint256",
          "name": "shares",
          "type": "uint256"
        }
      ],
      "name": "CrossChainMessageSent",
      "type": "event"
    },
    {
      "anonymous": false,
      "inputs": [
        {
          "indexed": true,
          "internalType": "address",
          "name": "sender",
          "type": "address"
        },
        {
          "indexed": true,
          "internalType": "address",
          "name": "owner",
          "type": "address"
        },
        {
          "indexed": false,
          "internalType": "uint256",
          "name": "assets",
          "type": "uint256"
        },
        {
          "indexed": false,
          "internalType": "uint256",
          "name": "shares",
          "type": "uint256"
        }
      ],
      "name": "Deposit",
      "type": "event"
    },
    {
      "anonymous": false,
      "inputs": [
        {
          "indexed": false,
          "internalType": "address",
          "name": "token",
          "type": "address"
        },
        {
          "indexed": false,
          "internalType": "uint256",
          "name": "amount",
          "type": "uint256"
        },
        {
          "indexed": false,
          "internalType": "address",
          "name": "recipient",
          "type": "address"
        }
      ],
      "name": "EmergencyWithdrawal",
      "type": "event"
    },
    {
      "anonymous": false,
      "inputs": [
        {
          "indexed": true,
          "internalType": "address",
          "name": "feeType",
          "type": "address"
        },
        {
          "indexed": false,
          "internalType": "uint256",
          "name": "amount",
          "type": "uint256"
        },
        {
          "indexed": false,
          "internalType": "uint256",
          "name": "timestamp",
          "type": "uint256"
        }
      ],
      "name": "FeeCollected",
      "type": "event"
    },
    {
      "anonymous": false,
      "inputs": [
        {
          "indexed": false,
          "internalType": "uint256",
          "name": "profit",
          "type": "uint256"
        },
        {
          "indexed": false,
          "internalType": "uint256",
          "name": "performanceFeeAmount",
          "type": "uint256"
        },
        {
          "indexed": false,
          "internalType": "uint256",
          "name": "timestamp",
          "type": "uint256"
        }
      ],
      "name": "Harvest",
      "type": "event"
    },
    {
      "anonymous": false,
      "inputs": [
        {
          "indexed": false,
          "internalType": "uint256",
          "name": "oldFee",
          "type": "uint256"
        },
        {
          "indexed": false,
          "internalType": "uint256",
          "name": "newFee",
          "type": "uint256"
        }
      ],
      "name": "ManagementFeeUpdated",
      "type": "event"
    },
    {
      "anonymous": false,
      "inputs": [
        {
          "indexed": false,
          "internalType": "uint256",
          "name": "fromIdx",
          "type": "uint256"
        },
        {
          "indexed": false,
          "internalType": "uint256",
          "name": "toIdx",
          "type": "uint256"
        },
        {
          "indexed": false,
          "internalType": "uint256",
          "name": "amount",
          "type": "uint256"
        }
      ],
      "name": "ManualRebalanced",
      "type": "event"
    },
    {
      "anonymous": false,
      "inputs": [
        {
          "indexed": false,
          "internalType": "address",
          "name": "account",
          "type": "address"
        }
      ],
      "name": "Paused",
      "type": "event"
    },
    {
      "anonymous": false,
      "inputs": [
        {
          "indexed": false,
          "internalType": "uint256",
          "name": "oldFee",
          "type": "uint256"
        },
        {
          "indexed": false,
          "internalType": "uint256",
          "name": "newFee",
          "type": "uint256"
        }
      ],
      "name": "PerformanceFeeUpdated",
      "type": "event"
    },
    {
      "anonymous": false,
      "inputs": [
        {
          "indexed": true,
          "internalType": "bytes32",
          "name": "role",
          "type": "bytes32"
        },
        {
          "indexed": true,
          "internalType": "bytes32",
          "name": "previousAdminRole",
          "type": "bytes32"
        },
        {
          "indexed": true,
          "internalType": "bytes32",
          "name": "newAdminRole",
          "type": "bytes32"
        }
      ],
      "name": "RoleAdminChanged",
      "type": "event"
    },
    {
      "anonymous": false,
      "inputs": [
        {
          "indexed": true,
          "internalType": "bytes32",
          "name": "role",
          "type": "bytes32"
        },
        {
          "indexed": true,
          "internalType": "address",
          "name": "account",
          "type": "address"
        },
        {
          "indexed": true,
          "internalType": "address",
          "name": "sender",
          "type": "address"
        }
      ],
      "name": "RoleGranted",
      "type": "event"
    },
    {
      "anonymous": false,
      "inputs": [
        {
          "indexed": true,
          "internalType": "bytes32",
          "name": "role",
          "type": "bytes32"
        },
        {
          "indexed": true,
          "internalType": "address",
          "name": "account",
          "type": "address"
        },
        {
          "indexed": true,
          "internalType": "address",
          "name": "sender",
          "type": "address"
        }
      ],
      "name": "RoleRevoked",
      "type": "event"
    },
    {
      "anonymous": false,
      "inputs": [
        {
          "indexed": false,
          "internalType": "string",
          "name": "strategyName",
          "type": "string"
        },
        {
          "indexed": false,
          "internalType": "uint256",
          "name": "timestamp",
          "type": "uint256"
        }
      ],
      "name": "StrategyExecuted",
      "type": "event"
    },
    {
      "anonymous": false,
      "inputs": [
        {
          "indexed": false,
          "internalType": "uint256[]",
          "name": "newAllocations",
          "type": "uint256[]"
        }
      ],
      "name": "TargetAllocationsUpdated",
      "type": "event"
    },
    {
      "anonymous": false,
      "inputs": [
        {
          "indexed": true,
          "internalType": "address",
          "name": "from",
          "type": "address"
        },
        {
          "indexed": true,
          "internalType": "address",
          "name": "to",
          "type": "address"
        },
        {
          "indexed": false,
          "internalType": "uint256",
          "name": "value",
          "type": "uint256"
        }
      ],
      "name": "Transfer",
      "type": "event"
    },
    {
      "anonymous": false,
      "inputs": [
        {
          "indexed": false,
          "internalType": "uint32",
          "name": "chainId",
          "type": "uint32"
        },
        {
          "indexed": false,
          "internalType": "bytes32",
          "name": "trustedRemote",
          "type": "bytes32"
        }
      ],
      "name": "TrustedRemoteSet",
      "type": "event"
    },
    {
      "anonymous": false,
      "inputs": [
        {
          "indexed": false,
          "internalType": "address",
          "name": "token",
          "type": "address"
        },
        {
          "indexed": false,
          "internalType": "uint256",
          "name": "allocation",
          "type": "uint256"
        }
      ],
      "name": "UnderlyingTokenAdded",
      "type": "event"
    },
    {
      "anonymous": false,
      "inputs": [
        {
          "indexed": false,
          "internalType": "uint256",
          "name": "index",
          "type": "uint256"
        }
      ],
      "name": "UnderlyingTokenRemoved",
      "type": "event"
    },
    {
      "anonymous": false,
      "inputs": [
        {
          "indexed": false,
          "internalType": "address",
          "name": "account",
          "type": "address"
        }
      ],
      "name": "Unpaused",
      "type": "event"
    },
    {
      "anonymous": false,
      "inputs": [
        {
          "indexed": true,
          "internalType": "uint256",
          "name": "indexTokenId",
          "type": "uint256"
        },
        {
          "indexed": true,
          "internalType": "address",
          "name": "asset",
          "type": "address"
        },
        {
          "indexed": true,
          "internalType": "address",
          "name": "admin",
          "type": "address"
        }
      ],
      "name": "VaultInitialized",
      "type": "event"
    },
    {
      "anonymous": false,
      "inputs": [
        {
          "indexed": true,
          "internalType": "address",
          "name": "sender",
          "type": "address"
        },
        {
          "indexed": true,
          "internalType": "address",
          "name": "receiver",
          "type": "address"
        },
        {
          "indexed": true,
          "internalType": "address",
          "name": "owner",
          "type": "address"
        },
        {
          "indexed": false,
          "internalType": "uint256",
          "name": "assets",
          "type": "uint256"
        },
        {
          "indexed": false,
          "internalType": "uint256",
          "name": "shares",
          "type": "uint256"
        }
      ],
      "name": "Withdraw",
      "type": "event"
    },
    {
      "inputs": [],
      "name": "DEFAULT_ADMIN_ROLE",
      "outputs": [
        {
          "internalType": "bytes32",
          "name": "",
          "type": "bytes32"
        }
      ],
      "stateMutability": "view",
      "type": "function"
    },
    {
      "inputs": [],
      "name": "EMERGENCY_ROLE",
      "outputs": [
        {
          "internalType": "bytes32",
          "name": "",
          "type": "bytes32"
        }
      ],
      "stateMutability": "view",
      "type": "function"
    },
    {
      "inputs": [],
      "name": "FEE_DENOMINATOR",
      "outputs": [
        {
          "internalType": "uint256",
          "name": "",
          "type": "uint256"
        }
      ],
      "stateMutability": "view",
      "type": "function"
    },
    {
      "inputs": [],
      "name": "MANAGER_ROLE",
      "outputs": [
        {
          "internalType": "bytes32",
          "name": "",
          "type": "bytes32"
        }
      ],
      "stateMutability": "view",
      "type": "function"
    },
    {
      "inputs": [],
      "name": "MAX_MANAGEMENT_FEE",
      "outputs": [
        {
          "internalType": "uint256",
          "name": "",
          "type": "uint256"
        }
      ],
      "stateMutability": "view",
      "type": "function"
    },
    {
      "inputs": [],
      "name": "MAX_PERFORMANCE_FEE",
      "outputs": [
        {
          "internalType": "uint256",
          "name": "",
          "type": "uint256"
        }
      ],
      "stateMutability": "view",
      "type": "function"
    },
    {
      "inputs": [],
      "name": "SECONDS_PER_YEAR",
      "outputs": [
        {
          "internalType": "uint256",
          "name": "",
          "type": "uint256"
        }
      ],
      "stateMutability": "view",
      "type": "function"
    },
    {
      "inputs": [],
      "name": "STRATEGIST_ROLE",
      "outputs": [
        {
          "internalType": "bytes32",
          "name": "",
          "type": "bytes32"
        }
      ],
      "stateMutability": "view",
      "type": "function"
    },
    {
      "inputs": [
        {
          "internalType": "address",
          "name": "token",
          "type": "address"
        },
        {
          "internalType": "uint256",
          "name": "allocation",
          "type": "uint256"
        }
      ],
      "name": "addUnderlyingToken",
      "outputs": [],
      "stateMutability": "nonpayable",
      "type": "function"
    },
    {
      "inputs": [
        {
          "internalType": "address",
          "name": "owner",
          "type": "address"
        },
        {
          "internalType": "address",
          "name": "spender",
          "type": "address"
        }
      ],
      "name": "allowance",
      "outputs": [
        {
          "internalType": "uint256",
          "name": "",
          "type": "uint256"
        }
      ],
      "stateMutability": "view",
      "type": "function"
    },
    {
      "inputs": [
        {
          "internalType": "address",
          "name": "spender",
          "type": "address"
        },
        {
          "internalType": "uint256",
          "name": "value",
          "type": "uint256"
        }
      ],
      "name": "approve",
      "outputs": [
        {
          "internalType": "bool",
          "name": "",
          "type": "bool"
        }
      ],
      "stateMutability": "nonpayable",
      "type": "function"
    },
    {
      "inputs": [],
      "name": "asset",
      "outputs": [
        {
          "internalType": "address",
          "name": "",
          "type": "address"
        }
      ],
      "stateMutability": "view",
      "type": "function"
    },
    {
      "inputs": [
        {
          "internalType": "address",
          "name": "",
          "type": "address"
        }
      ],
      "name": "authorizedSenders",
      "outputs": [
        {
          "internalType": "bool",
          "name": "",
          "type": "bool"
        }
      ],
      "stateMutability": "view",
      "type": "function"
    },
    {
      "inputs": [],
      "name": "autoRebalance",
      "outputs": [],
      "stateMutability": "nonpayable",
      "type": "function"
    },
    {
      "inputs": [
        {
          "internalType": "address",
          "name": "account",
          "type": "address"
        }
      ],
      "name": "balanceOf",
      "outputs": [
        {
          "internalType": "uint256",
          "name": "",
          "type": "uint256"
        }
      ],
      "stateMutability": "view",
      "type": "function"
    },
    {
      "inputs": [
        {
          "internalType": "uint256",
          "name": "assets",
          "type": "uint256"
        },
        {
          "internalType": "uint256",
          "name": "timeElapsed",
          "type": "uint256"
        }
      ],
      "name": "calculateManagementFee",
      "outputs": [
        {
          "internalType": "uint256",
          "name": "fee",
          "type": "uint256"
        }
      ],
      "stateMutability": "view",
      "type": "function"
    },
    {
      "inputs": [],
      "name": "checkRebalanceNeeded",
      "outputs": [
        {
          "internalType": "bool",
          "name": "needed",
          "type": "bool"
        },
        {
          "internalType": "address",
          "name": "fromToken",
          "type": "address"
        },
        {
          "internalType": "address",
          "name": "toToken",
          "type": "address"
        },
        {
          "internalType": "uint256",
          "name": "amount",
          "type": "uint256"
        }
      ],
      "stateMutability": "view",
      "type": "function"
    },
    {
      "inputs": [],
      "name": "collectManagementFees",
      "outputs": [],
      "stateMutability": "nonpayable",
      "type": "function"
    },
    {
      "inputs": [
        {
          "internalType": "uint256",
          "name": "shares",
          "type": "uint256"
        }
      ],
      "name": "convertToAssets",
      "outputs": [
        {
          "internalType": "uint256",
          "name": "",
          "type": "uint256"
        }
      ],
      "stateMutability": "view",
      "type": "function"
    },
    {
      "inputs": [
        {
          "internalType": "uint256",
          "name": "assets",
          "type": "uint256"
        }
      ],
      "name": "convertToShares",
      "outputs": [
        {
          "internalType": "uint256",
          "name": "",
          "type": "uint256"
        }
      ],
      "stateMutability": "view",
      "type": "function"
    },
    {
      "inputs": [],
      "name": "decimals",
      "outputs": [
        {
          "internalType": "uint8",
          "name": "",
          "type": "uint8"
        }
      ],
      "stateMutability": "view",
      "type": "function"
    },
    {
      "inputs": [
        {
          "internalType": "uint256",
          "name": "assets",
          "type": "uint256"
        },
        {
          "internalType": "address",
          "name": "receiver",
          "type": "address"
        }
      ],
      "name": "deposit",
      "outputs": [
        {
          "internalType": "uint256",
          "name": "shares",
          "type": "uint256"
        }
      ],
      "stateMutability": "nonpayable",
      "type": "function"
    },
    {
      "inputs": [],
      "name": "emergencyPause",
      "outputs": [],
      "stateMutability": "nonpayable",
      "type": "function"
    },
    {
      "inputs": [],
      "name": "emergencyUnpause",
      "outputs": [],
      "stateMutability": "nonpayable",
      "type": "function"
    },
    {
      "inputs": [
        {
          "internalType": "address",
          "name": "token",
          "type": "address"
        },
        {
          "internalType": "uint256",
          "name": "amount",
          "type": "uint256"
        }
      ],
      "name": "emergencyWithdraw",
      "outputs": [],
      "stateMutability": "nonpayable",
      "type": "function"
    },
    {
      "inputs": [],
      "name": "emergencyWithdrawalRecipient",
      "outputs": [
        {
          "internalType": "address",
          "name": "",
          "type": "address"
        }
      ],
      "stateMutability": "view",
      "type": "function"
    },
    {
      "inputs": [
        {
          "internalType": "string",
          "name": "strategyName",
          "type": "string"
        }
      ],
      "name": "executeStrategy",
      "outputs": [],
      "stateMutability": "nonpayable",
      "type": "function"
    },
    {
      "inputs": [],
      "name": "getAllocationRatios",
      "outputs": [
        {
          "internalType": "address[]",
          "name": "tokens",
          "type": "address[]"
        },
        {
          "internalType": "uint256[]",
          "name": "currentRatios",
          "type": "uint256[]"
        },
        {
          "internalType": "uint256[]",
          "name": "targetRatios",
          "type": "uint256[]"
        }
      ],
      "stateMutability": "view",
      "type": "function"
    },
    {
      "inputs": [],
      "name": "getLayerZeroEndpoint",
      "outputs": [
        {
          "internalType": "address",
          "name": "",
          "type": "address"
        }
      ],
      "stateMutability": "view",
      "type": "function"
    },
    {
      "inputs": [
        {
          "internalType": "bytes32",
          "name": "role",
          "type": "bytes32"
        }
      ],
      "name": "getRoleAdmin",
      "outputs": [
        {
          "internalType": "bytes32",
          "name": "",
          "type": "bytes32"
        }
      ],
      "stateMutability": "view",
      "type": "function"
    },
    {
      "inputs": [],
      "name": "getUnderlyingTokens",
      "outputs": [
        {
          "internalType": "address[]",
          "name": "",
          "type": "address[]"
        }
      ],
      "stateMutability": "view",
      "type": "function"
    },
    {
      "inputs": [],
      "name": "getVaultMetadata",
      "outputs": [
        {
          "internalType": "uint256",
          "name": "_indexTokenId",
          "type": "uint256"
        },
        {
          "internalType": "uint256",
          "name": "_totalAssets",
          "type": "uint256"
        },
        {
          "internalType": "uint256",
          "name": "_totalShares",
          "type": "uint256"
        },
        {
          "internalType": "bool",
          "name": "_isPaused",
          "type": "bool"
        },
        {
          "internalType": "uint256",
          "name": "_managementFeeBps",
          "type": "uint256"
        },
        {
          "internalType": "uint256",
          "name": "_performanceFeeBps",
          "type": "uint256"
        }
      ],
      "stateMutability": "view",
      "type": "function"
    },
    {
      "inputs": [
        {
          "internalType": "bytes32",
          "name": "role",
          "type": "bytes32"
        },
        {
          "internalType": "address",
          "name": "account",
          "type": "address"
        }
      ],
      "name": "grantRole",
      "outputs": [],
      "stateMutability": "nonpayable",
      "type": "function"
    },
    {
      "inputs": [],
      "name": "harvest",
      "outputs": [],
      "stateMutability": "nonpayable",
      "type": "function"
    },
    {
      "inputs": [
        {
          "internalType": "bytes32",
          "name": "role",
          "type": "bytes32"
        },
        {
          "internalType": "address",
          "name": "account",
          "type": "address"
        }
      ],
      "name": "hasRole",
      "outputs": [
        {
          "internalType": "bool",
          "name": "",
          "type": "bool"
        }
      ],
      "stateMutability": "view",
      "type": "function"
    },
    {
      "inputs": [],
      "name": "highWaterMark",
      "outputs": [
        {
          "internalType": "uint256",
          "name": "",
          "type": "uint256"
        }
      ],
      "stateMutability": "view",
      "type": "function"
    },
    {
      "inputs": [],
      "name": "indexTokenId",
      "outputs": [
        {
          "internalType": "uint256",
          "name": "",
          "type": "uint256"
        }
      ],
      "stateMutability": "view",
      "type": "function"
    },
    {
      "inputs": [
        {
          "internalType": "contract IERC20",
          "name": "_asset",
          "type": "address"
        },
        {
          "internalType": "string",
          "name": "_name",
          "type": "string"
        },
        {
          "internalType": "string",
          "name": "_symbol",
          "type": "string"
        },
        {
          "internalType": "uint256",
          "name": "_managementFee",
          "type": "uint256"
        },
        {
          "internalType": "uint256",
          "name": "_performanceFee",
          "type": "uint256"
        }
      ],
      "name": "initialize",
      "outputs": [],
      "stateMutability": "nonpayable",
      "type": "function"
    },
    {
      "inputs": [
        {
          "internalType": "address",
          "name": "asset_",
          "type": "address"
        },
        {
          "internalType": "uint256",
          "name": "indexTokenId_",
          "type": "uint256"
        },
        {
          "internalType": "address",
          "name": "admin",
          "type": "address"
        },
        {
          "internalType": "string",
          "name": "name_",
          "type": "string"
        },
        {
          "internalType": "string",
          "name": "symbol_",
          "type": "string"
        },
        {
          "internalType": "address",
          "name": "lzEndpoint_",
          "type": "address"
        },
        {
          "internalType": "address[]",
          "name": "tokens_",
          "type": "address[]"
        },
        {
          "internalType": "uint256[]",
          "name": "targetAllocations_",
          "type": "uint256[]"
        }
      ],
      "name": "initialize",
      "outputs": [],
      "stateMutability": "nonpayable",
      "type": "function"
    },
    {
      "inputs": [],
      "name": "lastFeeCollection",
      "outputs": [
        {
          "internalType": "uint256",
          "name": "",
          "type": "uint256"
        }
      ],
      "stateMutability": "view",
      "type": "function"
    },
    {
      "inputs": [],
      "name": "lastHarvestTime",
      "outputs": [
        {
          "internalType": "uint256",
          "name": "",
          "type": "uint256"
        }
      ],
      "stateMutability": "view",
      "type": "function"
    },
    {
      "inputs": [],
      "name": "lastRebalanceTime",
      "outputs": [
        {
          "internalType": "uint256",
          "name": "",
          "type": "uint256"
        }
      ],
      "stateMutability": "view",
      "type": "function"
    },
    {
      "inputs": [],
      "name": "lastTotalAssets",
      "outputs": [
        {
          "internalType": "uint256",
          "name": "",
          "type": "uint256"
        }
      ],
      "stateMutability": "view",
      "type": "function"
    },
    {
      "inputs": [],
      "name": "layerZeroEndpoint",
      "outputs": [
        {
          "internalType": "address",
          "name": "",
          "type": "address"
        }
      ],
      "stateMutability": "view",
      "type": "function"
    },
    {
      "inputs": [],
      "name": "managementFee",
      "outputs": [
        {
          "internalType": "uint256",
          "name": "",
          "type": "uint256"
        }
      ],
      "stateMutability": "view",
      "type": "function"
    },
    {
      "inputs": [],
      "name": "managementFeeBps",
      "outputs": [
        {
          "internalType": "uint256",
          "name": "",
          "type": "uint256"
        }
      ],
      "stateMutability": "view",
      "type": "function"
    },
    {
      "inputs": [
        {
          "internalType": "uint256",
          "name": "fromIdx",
          "type": "uint256"
        },
        {
          "internalType": "uint256",
          "name": "toIdx",
          "type": "uint256"
        },
        {
          "internalType": "uint256",
          "name": "amount",
          "type": "uint256"
        }
      ],
      "name": "manualRebalance",
      "outputs": [],
      "stateMutability": "nonpayable",
      "type": "function"
    },
    {
      "inputs": [
        {
          "internalType": "address",
          "name": "",
          "type": "address"
        }
      ],
      "name": "maxDeposit",
      "outputs": [
        {
          "internalType": "uint256",
          "name": "",
          "type": "uint256"
        }
      ],
      "stateMutability": "view",
      "type": "function"
    },
    {
      "inputs": [
        {
          "internalType": "address",
          "name": "",
          "type": "address"
        }
      ],
      "name": "maxMint",
      "outputs": [
        {
          "internalType": "uint256",
          "name": "",
          "type": "uint256"
        }
      ],
      "stateMutability": "view",
      "type": "function"
    },
    {
      "inputs": [
        {
          "internalType": "address",
          "name": "owner",
          "type": "address"
        }
      ],
      "name": "maxRedeem",
      "outputs": [
        {
          "internalType": "uint256",
          "name": "",
          "type": "uint256"
        }
      ],
      "stateMutability": "view",
      "type": "function"
    },
    {
      "inputs": [
        {
          "internalType": "address",
          "name": "owner",
          "type": "address"
        }
      ],
      "name": "maxWithdraw",
      "outputs": [
        {
          "internalType": "uint256",
          "name": "",
          "type": "uint256"
        }
      ],
      "stateMutability": "view",
      "type": "function"
    },
    {
      "inputs": [
        {
          "internalType": "uint256",
          "name": "shares",
          "type": "uint256"
        },
        {
          "internalType": "address",
          "name": "receiver",
          "type": "address"
        }
      ],
      "name": "mint",
      "outputs": [
        {
          "internalType": "uint256",
          "name": "",
          "type": "uint256"
        }
      ],
      "stateMutability": "nonpayable",
      "type": "function"
    },
    {
      "inputs": [],
      "name": "name",
      "outputs": [
        {
          "internalType": "string",
          "name": "",
          "type": "string"
        }
      ],
      "stateMutability": "view",
      "type": "function"
    },
    {
      "inputs": [],
      "name": "pause",
      "outputs": [],
      "stateMutability": "nonpayable",
      "type": "function"
    },
    {
      "inputs": [],
      "name": "paused",
      "outputs": [
        {
          "internalType": "bool",
          "name": "",
          "type": "bool"
        }
      ],
      "stateMutability": "view",
      "type": "function"
    },
    {
      "inputs": [],
      "name": "performanceFee",
      "outputs": [
        {
          "internalType": "uint256",
          "name": "",
          "type": "uint256"
        }
      ],
      "stateMutability": "view",
      "type": "function"
    },
    {
      "inputs": [],
      "name": "performanceFeeBps",
      "outputs": [
        {
          "internalType": "uint256",
          "name": "",
          "type": "uint256"
        }
      ],
      "stateMutability": "view",
      "type": "function"
    },
    {
      "inputs": [
        {
          "internalType": "uint256",
          "name": "assets",
          "type": "uint256"
        }
      ],
      "name": "previewDeposit",
      "outputs": [
        {
          "internalType": "uint256",
          "name": "",
          "type": "uint256"
        }
      ],
      "stateMutability": "view",
      "type": "function"
    },
    {
      "inputs": [
        {
          "internalType": "uint256",
          "name": "shares",
          "type": "uint256"
        }
      ],
      "name": "previewMint",
      "outputs": [
        {
          "internalType": "uint256",
          "name": "",
          "type": "uint256"
        }
      ],
      "stateMutability": "view",
      "type": "function"
    },
    {
      "inputs": [
        {
          "internalType": "uint256",
          "name": "shares",
          "type": "uint256"
        }
      ],
      "name": "previewRedeem",
      "outputs": [
        {
          "internalType": "uint256",
          "name": "",
          "type": "uint256"
        }
      ],
      "stateMutability": "view",
      "type": "function"
    },
    {
      "inputs": [
        {
          "internalType": "uint256",
          "name": "assets",
          "type": "uint256"
        }
      ],
      "name": "previewWithdraw",
      "outputs": [
        {
          "internalType": "uint256",
          "name": "",
          "type": "uint256"
        }
      ],
      "stateMutability": "view",
      "type": "function"
    },
    {
      "inputs": [],
      "name": "rebalanceThreshold",
      "outputs": [
        {
          "internalType": "uint256",
          "name": "",
          "type": "uint256"
        }
      ],
      "stateMutability": "view",
      "type": "function"
    },
    {
      "inputs": [
        {
          "internalType": "uint256",
          "name": "shares",
          "type": "uint256"
        },
        {
          "internalType": "address",
          "name": "receiver",
          "type": "address"
        },
        {
          "internalType": "address",
          "name": "owner",
          "type": "address"
        }
      ],
      "name": "redeem",
      "outputs": [
        {
          "internalType": "uint256",
          "name": "",
          "type": "uint256"
        }
      ],
      "stateMutability": "nonpayable",
      "type": "function"
    },
    {
      "inputs": [
        {
          "internalType": "uint256",
          "name": "tokenIndex",
          "type": "uint256"
        }
      ],
      "name": "removeUnderlyingToken",
      "outputs": [],
      "stateMutability": "nonpayable",
      "type": "function"
    },
    {
      "inputs": [
        {
          "internalType": "bytes32",
          "name": "role",
          "type": "bytes32"
        },
        {
          "internalType": "address",
          "name": "callerConfirmation",
          "type": "address"
        }
      ],
      "name": "renounceRole",
      "outputs": [],
      "stateMutability": "nonpayable",
      "type": "function"
    },
    {
      "inputs": [
        {
          "internalType": "bytes32",
          "name": "role",
          "type": "bytes32"
        },
        {
          "internalType": "address",
          "name": "account",
          "type": "address"
        }
      ],
      "name": "revokeRole",
      "outputs": [],
      "stateMutability": "nonpayable",
      "type": "function"
    },
    {
      "inputs": [
        {
          "internalType": "address",
          "name": "sender",
          "type": "address"
        },
        {
          "internalType": "bool",
          "name": "authorized",
          "type": "bool"
        }
      ],
      "name": "setAuthorizedSender",
      "outputs": [],
      "stateMutability": "nonpayable",
      "type": "function"
    },
    {
      "inputs": [
        {
          "internalType": "address",
          "name": "recipient",
          "type": "address"
        }
      ],
      "name": "setEmergencyRecipient",
      "outputs": [],
      "stateMutability": "nonpayable",
      "type": "function"
    },
    {
      "inputs": [
        {
          "internalType": "uint256",
          "name": "newFee",
          "type": "uint256"
        }
      ],
      "name": "setManagementFee",
      "outputs": [],
      "stateMutability": "nonpayable",
      "type": "function"
    },
    {
      "inputs": [
        {
          "internalType": "uint256",
          "name": "newFee",
          "type": "uint256"
        }
      ],
      "name": "setPerformanceFee",
      "outputs": [],
      "stateMutability": "nonpayable",
      "type": "function"
    },
    {
      "inputs": [
        {
          "internalType": "uint256[]",
          "name": "newAllocations",
          "type": "uint256[]"
        }
      ],
      "name": "setTargetAllocations",
      "outputs": [],
      "stateMutability": "nonpayable",
      "type": "function"
    },
    {
      "inputs": [
        {
          "internalType": "uint32",
          "name": "chainId",
          "type": "uint32"
        },
        {
          "internalType": "bytes32",
          "name": "trustedRemote",
          "type": "bytes32"
        }
      ],
      "name": "setTrustedRemote",
      "outputs": [],
      "stateMutability": "nonpayable",
      "type": "function"
    },
    {
      "inputs": [
        {
          "internalType": "bytes4",
          "name": "interfaceId",
          "type": "bytes4"
        }
      ],
      "name": "supportsInterface",
      "outputs": [
        {
          "internalType": "bool",
          "name": "",
          "type": "bool"
        }
      ],
      "stateMutability": "view",
      "type": "function"
    },
    {
      "inputs": [],
      "name": "symbol",
      "outputs": [
        {
          "internalType": "string",
          "name": "",
          "type": "string"
        }
      ],
      "stateMutability": "view",
      "type": "function"
    },
    {
      "inputs": [
        {
          "internalType": "uint256",
          "name": "",
          "type": "uint256"
        }
      ],
      "name": "targetAllocations",
      "outputs": [
        {
          "internalType": "uint256",
          "name": "",
          "type": "uint256"
        }
      ],
      "stateMutability": "view",
      "type": "function"
    },
    {
      "inputs": [],
      "name": "totalAssets",
      "outputs": [
        {
          "internalType": "uint256",
          "name": "",
          "type": "uint256"
        }
      ],
      "stateMutability": "view",
      "type": "function"
    },
    {
      "inputs": [],
      "name": "totalSupply",
      "outputs": [
        {
          "internalType": "uint256",
          "name": "",
          "type": "uint256"
        }
      ],
      "stateMutability": "view",
      "type": "function"
    },
    {
      "inputs": [
        {
          "internalType": "address",
          "name": "to",
          "type": "address"
        },
        {
          "internalType": "uint256",
          "name": "value",
          "type": "uint256"
        }
      ],
      "name": "transfer",
      "outputs": [
        {
          "internalType": "bool",
          "name": "",
          "type": "bool"
        }
      ],
      "stateMutability": "nonpayable",
      "type": "function"
    },
    {
      "inputs": [
        {
          "internalType": "address",
          "name": "from",
          "type": "address"
        },
        {
          "internalType": "address",
          "name": "to",
          "type": "address"
        },
        {
          "internalType": "uint256",
          "name": "value",
          "type": "uint256"
        }
      ],
      "name": "transferFrom",
      "outputs": [
        {
          "internalType": "bool",
          "name": "",
          "type": "bool"
        }
      ],
      "stateMutability": "nonpayable",
      "type": "function"
    },
    {
      "inputs": [
        {
          "internalType": "uint32",
          "name": "",
          "type": "uint32"
        }
      ],
      "name": "trustedRemotes",
      "outputs": [
        {
          "internalType": "bytes32",
          "name": "",
          "type": "bytes32"
        }
      ],
      "stateMutability": "view",
      "type": "function"
    },
    {
      "inputs": [
        {
          "internalType": "uint256",
          "name": "",
          "type": "uint256"
        }
      ],
      "name": "underlyingTokens",
      "outputs": [
        {
          "internalType": "address",
          "name": "",
          "type": "address"
        }
      ],
      "stateMutability": "view",
      "type": "function"
    },
    {
      "inputs": [],
      "name": "unpause",
      "outputs": [],
      "stateMutability": "nonpayable",
      "type": "function"
    },
    {
      "inputs": [
        {
          "internalType": "uint256",
          "name": "assets",
          "type": "uint256"
        },
        {
          "internalType": "address",
          "name": "receiver",
          "type": "address"
        },
        {
          "internalType": "address",
          "name": "owner",
          "type": "address"
        }
      ],
      "name": "withdraw",
      "outputs": [
        {
          "internalType": "uint256",
          "name": "",
          "type": "uint256"
        }
      ],
      "stateMutability": "nonpayable",
      "type": "function"
    }
  ],
  "bytecode": "0x60c060405260c86008556107d06009556101f460145560c86016556107d06017553480156200002d57600080fd5b5060405162004436380380620044368339810160408190526200005091620003d9565b8282828282826003620000648382620004f2565b506004620000738282620004f2565b5050506000806200008a83620000da60201b60201c565b91509150816200009c5760126200009e565b805b60ff1660a05250506001600160a01b039081166080526001600655831615620000ce57620000ce338080620001bf565b505050505050620005f6565b60408051600481526024810182526020810180516001600160e01b031663313ce56760e01b17905290516000918291829182916001600160a01b038716916200012391620005be565b600060405180830381855afa9150503d806000811462000160576040519150601f19603f3d011682016040523d82523d6000602084013e62000165565b606091505b50915091508180156200017a57506020815110155b15620001b257600081806020019051810190620001989190620005dc565b905060ff8111620001b0576001969095509350505050565b505b5060009485945092505050565b620001cc60008462000259565b50620001f97f241ecf16d79d0f8dbfb92cbc07fe17840425976cf0667f022fe9877caa831b088362000259565b50620002267fbf233dd2aafeb4d50879c4aa5c81e96d92f6e6945c906a58f9f2d1c1631b4b268262000259565b505042600a55506000600b819055600c55600d80546001600160a01b0319166001600160a01b0392909216919091179055565b60008281526005602090815260408083206001600160a01b038516845290915281205460ff16620003025760008381526005602090815260408083206001600160a01b03861684529091529020805460ff19166001179055620002b93390565b6001600160a01b0316826001600160a01b0316847f2f8788117e7eff1d82e926ec794901d17c78024a50270940304540a733656f0d60405160405180910390a450600162000306565b5060005b92915050565b634e487b7160e01b600052604160045260246000fd5b60005b838110156200033f57818101518382015260200162000325565b50506000910152565b600082601f8301126200035a57600080fd5b81516001600160401b03808211156200037757620003776200030c565b604051601f8301601f19908116603f01168101908282118183101715620003a257620003a26200030c565b81604052838152866020858801011115620003bc57600080fd5b620003cf84602083016020890162000322565b9695505050505050565b600080600060608486031215620003ef57600080fd5b83516001600160a01b03811681146200040757600080fd5b60208501519093506001600160401b03808211156200042557600080fd5b620004338783880162000348565b935060408601519150808211156200044a57600080fd5b50620004598682870162000348565b9150509250925092565b600181811c908216806200047857607f821691505b6020821081036200049957634e487b7160e01b600052602260045260246000fd5b50919050565b601f821115620004ed57600081815260208120601f850160051c81016020861015620004c85750805b601f850160051c820191505b81811015620004e957828155600101620004d4565b5050505b505050565b81516001600160401b038111156200050e576200050e6200030c565b62000526816200051f845462000463565b846200049f565b602080601f8311600181146200055e5760008415620005455750858301515b600019600386901b1c1916600185901b178555620004e9565b600085815260208120601f198616915b828110156200058f578886015182559484019460019091019084016200056e565b5085821015620005ae5787850151600019600388901b60f8161c191681555b5050505050600190811b01905550565b60008251620005d281846020870162000322565b9190910192915050565b600060208284031215620005ef57600080fd5b5051919050565b60805160a051613ddb6200065b6000396000610ef30152600081816106c501528181610cae0152818161100a015281816110530152818161179c01528181611a8f0152818161217f0152818161246801528181612ffa01526130ac0152613ddb6000f3fe608060405234801561001057600080fd5b50600436106104a15760003560e01c8063710f20a21161026d578063bbbaa29911610151578063d905777e116100ce578063dd62ed3e11610092578063dd62ed3e14610a2e578063e6a69ab814610a67578063ec87621c14610a72578063ef8b30f714610a87578063f3dfc2a914610a9a578063fe56e23214610aad57600080fd5b8063d905777e146109e1578063d95bd6c9146109f4578063d9ca21d514610a09578063dc78478714610a12578063dd26baad14610a2557600080fd5b8063cac1864211610115578063cac1864214610998578063ce96cb77146109a9578063ceb0f626146109bc578063d547741f146109c5578063d73792a9146109d857600080fd5b8063bbbaa29914610956578063bdca916514610969578063c38a04ba14610972578063c63d75b6146106fa578063c6e6f5921461098557600080fd5b80639908840c116101ea578063a8551336116101ae578063a8551336146108ee578063a9059cbb14610901578063b3d7f6b914610914578063b460af9414610927578063b9d4e8791461093a578063ba0876521461094357600080fd5b80639908840c1461089a578063a217fddf146108a3578063a378a324146108ab578063a3bf224b146108d2578063a6f7f5d6146108e557600080fd5b80638778878211610231578063877887821461085057806391d148541461085957806394bf804d1461086c57806395ccea671461087f57806395d89b411461089257600080fd5b8063710f20a21461081a57806377d60397146108225780637a6efd4714610835578063835e9eb41461083d5780638456cb591461072857600080fd5b80632f2ff15d116103945780634cdad506116103115780635fd4743a116102d55780635fd4743a146107575780636c969256146107915780636e553f65146107a85780636f324967146107bb57806370897b23146107de57806370a08231146107f157600080fd5b80634cdad5061461071557806351858e271461072857806353d0588514610730578063568efc07146107435780635c975abb1461074c57600080fd5b80633dfe9f6a116103585780633dfe9f6a146106e95780633f4ba83a146106f2578063402d267d146106fa5780634641257d1461070d5780634a4e3bd5146106f257600080fd5b80632f2ff15d1461067a578063313ce5671461068d57806336568abe146106a75780633813c35a146106ba57806338d52e0f146106c357600080fd5b806318cdb5461161042257806320df4359116103e657806320df43591461060957806323b872dd1461061e578063248a9ca3146106315780632775eee8146106545780632bda3e0b1461066757600080fd5b806318cdb546146105815780631b035932146105b85780631ca29139146105cd5780631d187c50146105e05780631e8410da1461060057600080fd5b8063095ea7b311610469578063095ea7b3146105375780630a28a4771461054a57806317a9e1981461055d57806318160ddd1461056657806318bf4cf11461056e57600080fd5b806301e1d114146104a657806301ffc9a7146104c157806306fdde03146104e457806307968db1146104f957806307a2d13a14610524575b600080fd5b6104ae610ac0565b6040519081526020015b60405180910390f35b6104d46104cf3660046133a3565b610af8565b60405190151581526020016104b8565b6104ec610b2f565b6040516104b89190613413565b600e5461050c906001600160a01b031681565b6040516001600160a01b0390911681526020016104b8565b6104ae610532366004613426565b610bc1565b6104d4610545366004613464565b610bce565b6104ae610558366004613426565b610be6565b6104ae60185481565b6002546104ae565b600d5461050c906001600160a01b031681565b610589610bf1565b6040805196875260208701959095529385019290925215156060840152608083015260a082015260c0016104b8565b6105cb6105c6366004613490565b610c27565b005b6105cb6105db366004613550565b610ca4565b6104ae6105ee3660046135ec565b60106020526000908152604090205481565b6104ae600c5481565b6104ae600080516020613d6683398151915281565b6104d461062c366004613607565b610e17565b6104ae61063f366004613426565b60009081526005602052604090206001015490565b6104ae610662366004613426565b610e3d565b6105cb610675366004613648565b610e5e565b6105cb610688366004613664565b610ec0565b610695610eeb565b60405160ff90911681526020016104b8565b6105cb6106b5366004613664565b610f1c565b6104ae60165481565b7f000000000000000000000000000000000000000000000000000000000000000061050c565b6104ae60145481565b6105cb610f54565b6104ae610708366004613490565b610f77565b6105cb610f99565b6104ae610723366004613426565b6110d9565b6105cb6110e4565b6105cb61073e366004613464565b611104565b6104ae600b5481565b60075460ff166104d4565b61075f611302565b6040516104b8949392919093151584526001600160a01b03928316602085015291166040830152606082015260800190565b6107996114ae565b6040516104b893929190613708565b6104ae6107b6366004613664565b6115f7565b6104d46107c9366004613490565b60116020526000908152604090205460ff1681565b6105cb6107ec366004613426565b611667565b6104ae6107ff366004613490565b6001600160a01b031660009081526020819052604090205490565b6105cb6116f1565b6105cb61083036600461374b565b61187c565b6105cb6118eb565b6104ae61084b366004613780565b6119f7565b6104ae60095481565b6104d4610867366004613664565b611a22565b6104ae61087a366004613664565b611a4d565b6105cb61088d366004613464565b611a75565b6104ec611b74565b6104ae6101f481565b6104ae600081565b6104ae7f17a8e30262c1f919c33056d877a3c22b95c2f5e4dac44683c1c2323cd79fbdb081565b61050c6108e0366004613426565b611b83565b6104ae60085481565b6105cb6108fc366004613426565b611bad565b6104d461090f366004613464565b611d94565b6104ae610922366004613426565b611da2565b6104ae6109353660046137a2565b611dad565b6104ae60175481565b6104ae6109513660046137a2565b611dce565b6105cb610964366004613830565b611de3565b6104ae610bb881565b6105cb610980366004613872565b611eed565b6104ae610993366004613426565b6120a7565b600e546001600160a01b031661050c565b6104ae6109b7366004613490565b6120b4565b6104ae600a5481565b6105cb6109d3366004613664565b6120d4565b6104ae61271081565b6104ae6109ef366004613490565b6120f9565b6109fc612114565b6040516104b8919061389e565b6104ae60155481565b6105cb610a203660046138f3565b612175565b6104ae600f5481565b6104ae610a3c366004613a0f565b6001600160a01b03918216600090815260016020908152604080832093909416825291909152205490565b6104ae6301e1338081565b6104ae600080516020613d8683398151915281565b6104ae610a95366004613426565b612398565b6105cb610aa8366004613a4b565b6123a3565b6105cb610abb366004613426565b6123da565b600080610acb612464565b90506000610ad76124f1565b9050808211610ae7576000610af1565b610af18183613a8f565b9250505090565b60006001600160e01b03198216637965db0b60e01b1480610b2957506301ffc9a760e01b6001600160e01b03198316145b92915050565b606060038054610b3e90613aa2565b80601f0160208091040260200160405190810160405280929190818152602001828054610b6a90613aa2565b8015610bb75780601f10610b8c57610100808354040283529160200191610bb7565b820191906000526020600020905b815481529060010190602001808311610b9a57829003601f168201915b5050505050905090565b6000610b2982600061254d565b600033610bdc818585612587565b5060019392505050565b6000610b2982612594565b600080600080600080600f54610c05610ac0565b60025460075460ff16601654601754949b939a50919850965094509092509050565b6000610c32816125a1565b6001600160a01b038216610c815760405162461bcd60e51b8152602060048201526011602482015270125b9d985b1a59081c9958da5c1a595b9d607a1b60448201526064015b60405180910390fd5b50600d80546001600160a01b0319166001600160a01b0392909216919091179055565b6001600160a01b037f00000000000000000000000000000000000000000000000000000000000000001615610d115760405162461bcd60e51b8152602060048201526013602482015272105b1c9958591e481a5b9a5d1a585b1a5e9959606a1b6044820152606401610c78565b6001600160a01b038516610d575760405162461bcd60e51b815260206004820152600d60248201526c125b9d985b1a5908185cdcd95d609a1b6044820152606401610c78565b6101f4821115610da95760405162461bcd60e51b815260206004820152601760248201527f4d616e6167656d656e742066656520746f6f20686967680000000000000000006044820152606401610c78565b610bb8811115610dfb5760405162461bcd60e51b815260206004820152601860248201527f506572666f726d616e63652066656520746f6f206869676800000000000000006044820152606401610c78565b60088290556009819055610e103380806125ab565b5050505050565b600033610e2585828561261b565b610e30858585612681565b60019150505b9392505050565b60138181548110610e4d57600080fd5b600091825260209091200154905081565b6000610e69816125a1565b63ffffffff8316600081815260106020908152604091829020859055815192835282018490527f64c32ce0e117784f1d5e814bf80b31fe78b790c426c4226225197eb2bd30ccaf91015b60405180910390a1505050565b600082815260056020526040902060010154610edb816125a1565b610ee583836126e0565b50505050565b6000610f17817f0000000000000000000000000000000000000000000000000000000000000000613ad6565b905090565b6001600160a01b0381163314610f455760405163334bd91960e11b815260040160405180910390fd5b610f4f8282612774565b505050565b600080516020613d66833981519152610f6c816125a1565b610f746127e1565b50565b6000610f8560075460ff1690565b610f9157600019610b29565b600092915050565b600080516020613d86833981519152610fb1816125a1565b6000610fbb610ac0565b90506000600c54821115610fde57600c54610fd69083613a8f565b600c83905590505b6000811561103a5761271060095483610ff79190613aef565b6110019190613b1c565b905061103a33827f00000000000000000000000000000000000000000000000000000000000000005b6001600160a01b03169190612833565b60006110446124f1565b905080156110775761107733827f000000000000000000000000000000000000000000000000000000000000000061102a565b42600a55806110868386613a8f565b6110909190613a8f565b600b556040805184815260208101849052428183015290517f4ec2d4038813a7f233af1d6d09519189db3ed5bc5b823bf72f6d3144574721de9181900360600190a15050505050565b6000610b2982610bc1565b600080516020613d668339815191526110fc816125a1565b610f74612892565b600061110f816125a1565b6001600160a01b0383166111555760405162461bcd60e51b815260206004820152600d60248201526c24b73b30b634b2103a37b5b2b760991b6044820152606401610c78565b600019611161846128cf565b146111a55760405162461bcd60e51b8152602060048201526014602482015273546f6b656e20616c72656164792065786973747360601b6044820152606401610c78565b6012805460018082019092557fbb8a6a4669ba250d26cd7a459eca9d215f8307e33aebe50379bc5a3617ec34440180546001600160a01b0319166001600160a01b03861617905560138054918201815560008190527f66de8ffda797e3de9c05e8fc57b3bf0ec28a930d40b0d285d93c06501cf6a090909101839055805460408051602080840282018101909252828152611277939092909183018282801561126d57602002820191906000526020600020905b815481526020019060010190808311611259575b5050505050612936565b6112c35760405162461bcd60e51b815260206004820152601860248201527f496e76616c696420746f74616c20616c6c6f636174696f6e00000000000000006044820152606401610c78565b604080516001600160a01b0385168152602081018490527f0bf95c64377f4b62ff6288abe7cee76f42fa8f29c9919f1a3d9da6c52950a6d49101610eb3565b6000806000806000611312612988565b905080600003611330576000806000809450945094509450506114a8565b60005b601254811015611497576000611348826129eb565b905060006013838154811061135f5761135f613b30565b906000526020600020015490506014548161137a9190613b46565b8211156114825760005b6012548110156114805783811461146e5760006113a0826129eb565b90506000601383815481106113b7576113b7613b30565b90600052602060002001549050601454816113d29190613a8f565b82101561146b576000612710886113e98789613a8f565b6113f39190613aef565b6113fd9190613b1c565b905060016012888154811061141457611414613b30565b600091825260209091200154601280546001600160a01b03909216918790811061144057611440613b30565b600091825260209091200154919d509b506001600160a01b0316995097506114a89650505050505050565b50505b8061147881613b59565b915050611384565b505b5050808061148f90613b59565b915050611333565b506000806000809450945094509450505b90919293565b6060806060601280548060200260200160405190810160405280929190818152602001828054801561150957602002820191906000526020600020905b81546001600160a01b031681526001909101906020018083116114eb575b50505050509250601380548060200260200160405190810160405280929190818152602001828054801561155c57602002820191906000526020600020905b815481526020019060010190808311611548575b5050601254939450505067ffffffffffffffff8211159050611580576115806134ad565b6040519080825280602002602001820160405280156115a9578160200160208202803683370190505b50915060005b6012548110156115f1576115c2816129eb565b8382815181106115d4576115d4613b30565b6020908102919091010152806115e981613b59565b9150506115af565b50909192565b60006116038383612a43565b905061160d612a5f565b1561161a5761161a6118eb565b600f5460408051858152602081018490526001600160a01b038516917ff4c57637dd38389180a3140034c6f38a9aa64c7c158c0e2e315847639718a905910160405180910390a392915050565b6000611672816125a1565b610bb88211156116b35760405162461bcd60e51b815260206004820152600c60248201526b08ccaca40e8dede40d0d2ced60a31b6044820152606401610c78565b600980549083905560408051828152602081018590527f607b1c943753982194530bf7133a5972ea2626e028005410efa54ab20035caf89101610eb3565b600080516020613d86833981519152611709816125a1565b6000601854426117199190613a8f565b90506000611725610ac0565b6040516320d7a7ad60e21b81526004810182905260248101849052909150600090309063835e9eb490604401602060405180830381865afa15801561176e573d6000803e3d6000fd5b505050506040513d601f19601f820116820180604052508101906117929190613b72565b90508015610ee5577f000000000000000000000000000000000000000000000000000000000000000060405163a9059cbb60e01b8152336004820152602481018390526001600160a01b03919091169063a9059cbb906044016020604051808303816000875af115801561180a573d6000803e3d6000fd5b505050506040513d601f19601f8201168201806040525081019061182e9190613b8b565b5042601881905560405130917f108516ddcf5ba43cea6bb2cd5ff6d59ac196c1c86ccb9178332b9dd72d1ca5619161186e91858252602082015260400190565b60405180910390a250505050565b7f17a8e30262c1f919c33056d877a3c22b95c2f5e4dac44683c1c2323cd79fbdb06118a6816125a1565b6118ae612a79565b7f967c2a3d21d6001f5ed872635cf9e4a320c90180d6caed65f90623cea6d535e782426040516118df929190613ba8565b60405180910390a15050565b60075460ff16156119305760405162461bcd60e51b815260206004820152600f60248201526e15985d5b1d081a5cc81c185d5cd959608a1b6044820152606401610c78565b60008060008061193e611302565b9350935093509350836119515750505050565b600061195c846128cf565b90506000611969846128cf565b9050611976828285612069565b426015556001600160a01b038085169086167f373f5e49ce825fd107c22e1666bd92419640f3189a99ffa8819dc2d7580d5bd1856119b3866129eb565b601387815481106119c6576119c6613b30565b60009182526020918290200154604080519485529184019290925282015260600160405180910390a3505050505050565b600064496cebb8008260165485611a0e9190613aef565b611a189190613aef565b610e369190613b1c565b60009182526005602090815260408084206001600160a01b0393909316845291905290205460ff1690565b6000611a57612a9f565b611a5f612a79565b611a698383612ac9565b9050610b296001600655565b600080516020613d66833981519152611a8d816125a1565b7f00000000000000000000000000000000000000000000000000000000000000006001600160a01b0316836001600160a01b031603611b0e5760405162461bcd60e51b815260206004820152601b60248201527f43616e6e6f74207769746864726177207661756c7420617373657400000000006044820152606401610c78565b600d54611b28906001600160a01b03858116911684612833565b600d54604080516001600160a01b03808716825260208201869052909216908201527f3ab9db27a4cdd8c603a752b62d5fbd93b4b3509fe2596708e9688e42bbac357690606001610eb3565b606060048054610b3e90613aa2565b60128181548110611b9357600080fd5b6000918252602090912001546001600160a01b0316905081565b6000611bb8816125a1565b6012548210611bf95760405162461bcd60e51b815260206004820152600d60248201526c092dcecc2d8d2c840d2dcc8caf609b1b6044820152606401610c78565b600060128381548110611c0e57611c0e613b30565b6000918252602090912001546001600160a01b03169050825b601254611c3690600190613a8f565b811015611d08576012611c4a826001613b46565b81548110611c5a57611c5a613b30565b600091825260209091200154601280546001600160a01b039092169183908110611c8657611c86613b30565b600091825260209091200180546001600160a01b0319166001600160a01b03929092169190911790556013611cbc826001613b46565b81548110611ccc57611ccc613b30565b906000526020600020015460138281548110611cea57611cea613b30565b60009182526020909120015580611d0081613b59565b915050611c27565b506012805480611d1a57611d1a613bca565b600082815260209020810160001990810180546001600160a01b03191690550190556013805480611d4d57611d4d613bca565b600190038181906000526020600020016000905590557f3977fdeff40857fbe2c9282bf44e2769213f22cda97afa0759cf4984975d11c183604051610eb391815260200190565b600033610bdc818585612681565b6000610b2982612b17565b6000611db7612a9f565b611dc2848484612b24565b9050610e366001600655565b6000611dd8612a9f565b611dc2848484612b7c565b6000611dee816125a1565b6012548214611e315760405162461bcd60e51b815260206004820152600f60248201526e098cadccee8d040dad2e6dac2e8c6d608b1b6044820152606401610c78565b611e6d83838080602002602001604051908101604052809392919081815260200183836020028082843760009201919091525061293692505050565b611eaf5760405162461bcd60e51b8152602060048201526013602482015272496e76616c696420616c6c6f636174696f6e7360681b6044820152606401610c78565b611ebb601384846132f0565b507f0be7004609d76e2b3efe2d18c2de3b1c71d560fb59b9a0f19f7ce22aefdecd408383604051610eb3929190613be0565b3360009081526011602052604090205460ff16611f445760405162461bcd60e51b81526020600482015260156024820152742737ba1030baba3437b934bd32b21039b2b73232b960591b6044820152606401610c78565b6012548310611f8a5760405162461bcd60e51b8152602060048201526012602482015271092dcecc2d8d2c840cce4deda40d2dcc8caf60731b6044820152606401610c78565b6012548210611fce5760405162461bcd60e51b815260206004820152601060248201526f092dcecc2d8d2c840e8de40d2dcc8caf60831b6044820152606401610c78565b8183036120125760405162461bcd60e51b815260206004820152601260248201527153616d6520746f6b656e20696e646963657360701b6044820152606401610c78565b600081116120625760405162461bcd60e51b815260206004820152601760248201527f416d6f756e74206d75737420626520706f7369746976650000000000000000006044820152606401610c78565b6120698383835b60408051848152602081018490529081018290527f94f559da092d98a1ba2672afcdf872f0d1da0018658ab5a5aa653d421d9b110590606001610eb3565b6000610b29826000612bcb565b60006120c260075460ff1690565b610f91576120cf82612bfb565b610b29565b6000828152600560205260409020600101546120ef816125a1565b610ee58383612774565b600061210760075460ff1690565b610f91576120cf82612c1f565b60606012805480602002602001604051908101604052809291908181526020018280548015610bb757602002820191906000526020600020905b81546001600160a01b0316815260019091019060200180831161214e575050505050905090565b6001600160a01b037f000000000000000000000000000000000000000000000000000000000000000016156121e25760405162461bcd60e51b8152602060048201526013602482015272105b1c9958591e481a5b9a5d1a585b1a5e9959606a1b6044820152606401610c78565b6001600160a01b0385166122385760405162461bcd60e51b815260206004820152601a60248201527f496e76616c6964204c617965725a65726f20656e64706f696e740000000000006044820152606401610c78565b8281146122795760405162461bcd60e51b815260206004820152600f60248201526e098cadccee8d040dad2e6dac2e8c6d608b1b6044820152606401610c78565b6122b582828080602002602001604051908101604052809392919081815260200183836020028082843760009201919091525061293692505050565b6122f75760405162461bcd60e51b8152602060048201526013602482015272496e76616c696420616c6c6f636174696f6e7360681b6044820152606401610c78565b600f8b9055600e80546001600160a01b0319166001600160a01b0387161790556123236012858561333b565b50612330601383836132f0565b504260158190556018556001600160a01b03808b16600081815260116020526040808220805460ff191660011790555191928f16918e917fc221d16022d31138e130dcda10441a725921ca5f956185e8a45f9abe8ad7e2d491a4505050505050505050505050565b6000610b29826120a7565b60006123ae816125a1565b506001600160a01b03919091166000908152601160205260409020805460ff1916911515919091179055565b60006123e5816125a1565b6101f48211156124265760405162461bcd60e51b815260206004820152600c60248201526b08ccaca40e8dede40d0d2ced60a31b6044820152606401610c78565b600880549083905560408051828152602081018590527ff5ff4786e844406502466108c183ca5ff947880b3ba08b1500eea9c29d12030d9101610eb3565b60007f00000000000000000000000000000000000000000000000000000000000000006040516370a0823160e01b81523060048201526001600160a01b0391909116906370a0823190602401602060405180830381865afa1580156124cd573d6000803e3d6000fd5b505050506040513d601f19601f82011682018060405250810190610f179190613b72565b600080600a54426125029190613a8f565b9050600061250e612464565b905060006125226301e13380612710613aef565b83600854846125319190613aef565b61253b9190613aef565b6125459190613b1c565b949350505050565b6000610e3661255a610ac0565b612565906001613b46565b6125716000600a613cfd565b60025461257e9190613b46565b85919085612c3d565b610f4f8383836001612c81565b6000610b29826001612bcb565b610f748133612d56565b6125b66000846126e0565b506125cf600080516020613d86833981519152836126e0565b506125e8600080516020613d66833981519152826126e0565b505042600a55506000600b819055600c55600d80546001600160a01b0319166001600160a01b0392909216919091179055565b6001600160a01b03838116600090815260016020908152604080832093861683529290522054600019811015610ee5578181101561267257828183604051637dc7a0d960e11b8152600401610c7893929190613d0c565b610ee584848484036000612c81565b6001600160a01b0383166126ab57604051634b637e8f60e11b815260006004820152602401610c78565b6001600160a01b0382166126d55760405163ec442f0560e01b815260006004820152602401610c78565b610f4f838383612d93565b60006126ec8383611a22565b61276c5760008381526005602090815260408083206001600160a01b03861684529091529020805460ff191660011790556127243390565b6001600160a01b0316826001600160a01b0316847f2f8788117e7eff1d82e926ec794901d17c78024a50270940304540a733656f0d60405160405180910390a4506001610b29565b506000610b29565b60006127808383611a22565b1561276c5760008381526005602090815260408083206001600160a01b0386168085529252808320805460ff1916905551339286917ff6391f5c32d9c69d2a47ea670b442974b53935d1edc7fd64eb21e047a839171b9190a4506001610b29565b6127e9612eaa565b6007805460ff191690557f5db9ee0a495bf2e6ff9c91a7834c1ba4fdd244a5e8aa4e537bd38aeae4b073aa335b6040516001600160a01b03909116815260200160405180910390a1565b6040516001600160a01b03838116602483015260448201839052610f4f91859182169063a9059cbb906064015b604051602081830303815290604052915060e01b6020820180516001600160e01b038381831617835250505050612ecd565b61289a612a79565b6007805460ff191660011790557f62e78cea01bee320cd4e420270b5ea74000d11b0c9f74754ebdbfc544b05a2586128163390565b6000805b60125481101561292c57826001600160a01b0316601282815481106128fa576128fa613b30565b6000918252602090912001546001600160a01b03160361291a5792915050565b8061292481613b59565b9150506128d3565b5060001992915050565b600080805b835181101561297d5783818151811061295657612956613b30565b6020026020010151826129699190613b46565b91508061297581613b59565b91505061293b565b506127101492915050565b600080805b6012548110156129e5576129c7601282815481106129ad576129ad613b30565b6000918252602090912001546001600160a01b0316612f3e565b6129d19083613b46565b9150806129dd81613b59565b91505061298d565b50919050565b60125460009082106129ff57506000919050565b6000612a09612988565b905080600003612a1c5750600092915050565b6000612a34601285815481106129ad576129ad613b30565b90508161253b82612710613aef565b6000612a4d612a9f565b612a55612a79565b611a698383612fab565b6000601554610e10612a719190613b46565b421015905090565b60075460ff1615612a9d5760405163d93c066560e01b815260040160405180910390fd5b565b600260065403612ac257604051633ee5aeb560e01b815260040160405180910390fd5b6002600655565b600080612ad583610f77565b905080841115612afe5782848260405163284ff66760e01b8152600401610c7893929190613d0c565b6000612b0985611da2565b905061254533858388612ff5565b6000610b2982600161254d565b600080612b30836120b4565b905080851115612b5957828582604051633fa733bb60e21b8152600401610c7893929190613d0c565b6000612b6486610be6565b9050612b733386868985613079565b95945050505050565b600080612b88836120f9565b905080851115612bb157828582604051632e52afbb60e21b8152600401610c7893929190613d0c565b6000612bbc866110d9565b9050612b73338686848a613079565b6000610e36612bdb82600a613cfd565b600254612be89190613b46565b612bf0610ac0565b61257e906001613b46565b6001600160a01b038116600090815260208190526040812054610b2990600061254d565b6001600160a01b038116600090815260208190526040812054610b29565b6000612c6c612c4b83613139565b8015612c67575060008480612c6257612c62613b06565b868809115b151590565b612c77868686613166565b612b739190613b46565b6001600160a01b038416612cab5760405163e602df0560e01b815260006004820152602401610c78565b6001600160a01b038316612cd557604051634a1406b160e11b815260006004820152602401610c78565b6001600160a01b0380851660009081526001602090815260408083209387168352929052208290558015610ee557826001600160a01b0316846001600160a01b03167f8c5be1e5ebec7d5bd14f71427d1e84f3dd0314c0f7b2291e5b200ac8c7c3b92584604051612d4891815260200190565b60405180910390a350505050565b612d608282611a22565b612d8f5760405163e2517d3f60e01b81526001600160a01b038216600482015260248101839052604401610c78565b5050565b6001600160a01b038316612dbe578060026000828254612db39190613b46565b90915550612e1d9050565b6001600160a01b03831660009081526020819052604090205481811015612dfe5783818360405163391434e360e21b8152600401610c7893929190613d0c565b6001600160a01b03841660009081526020819052604090209082900390555b6001600160a01b038216612e3957600280548290039055612e58565b6001600160a01b03821660009081526020819052604090208054820190555b816001600160a01b0316836001600160a01b03167fddf252ad1be2c89b69c2b068fc378daa952ba7f163c4a11628f55a4df523b3ef83604051612e9d91815260200190565b60405180910390a3505050565b60075460ff16612a9d57604051638dfc202b60e01b815260040160405180910390fd5b600080602060008451602086016000885af180612ef0576040513d6000823e3d81fd5b50506000513d91508115612f08578060011415612f15565b6001600160a01b0384163b155b15610ee557604051635274afe760e01b81526001600160a01b0385166004820152602401610c78565b6040516370a0823160e01b815230600482015260009081906001600160a01b038416906370a0823190602401602060405180830381865afa158015612f87573d6000803e3d6000fd5b505050506040513d601f19601f82011682018060405250810190610e369190613b72565b600080612fb783610f77565b905080841115612fe057828482604051633c8097d960e11b8152600401610c7893929190613d0c565b6000612feb85612398565b9050612545338587845b6130217f000000000000000000000000000000000000000000000000000000000000000085308561321b565b61302b8382613254565b826001600160a01b0316846001600160a01b03167fdcbc1c05240f31ff3ad067ef1ee35ce4997762752e3a095284754544f4c709d78484604051612d48929190918252602082015260400190565b826001600160a01b0316856001600160a01b03161461309d5761309d83868361261b565b6130a7838261328a565b6130d27f00000000000000000000000000000000000000000000000000000000000000008584612833565b826001600160a01b0316846001600160a01b0316866001600160a01b03167ffbde797d201c681b91056529119e0b02407c7bb96a4a2c75c01fc9667232c8db858560405161312a929190918252602082015260400190565b60405180910390a45050505050565b6000600282600381111561314f5761314f613d2d565b6131599190613d43565b60ff166001149050919050565b600080600061317586866132c0565b915091508160000361319a5783818161319057613190613b06565b0492505050610e36565b8184116131b1576131b160038515026011186132de565b6000848688096000868103871696879004966002600389028118808a02820302808a02820302808a02820302808a02820302808a02820302808a02909103029181900381900460010185841190960395909502919093039390930492909217029150509392505050565b6040516001600160a01b038481166024830152838116604483015260648201839052610ee59186918216906323b872dd90608401612860565b6001600160a01b03821661327e5760405163ec442f0560e01b815260006004820152602401610c78565b612d8f60008383612d93565b6001600160a01b0382166132b457604051634b637e8f60e11b815260006004820152602401610c78565b612d8f82600083612d93565b60008060001983850993909202808410938190039390930393915050565b634e487b71600052806020526024601cfd5b82805482825590600052602060002090810192821561332b579160200282015b8281111561332b578235825591602001919060010190613310565b5061333792915061338e565b5090565b82805482825590600052602060002090810192821561332b579160200282015b8281111561332b5781546001600160a01b0319166001600160a01b0384351617825560209092019160019091019061335b565b5b80821115613337576000815560010161338f565b6000602082840312156133b557600080fd5b81356001600160e01b031981168114610e3657600080fd5b6000815180845260005b818110156133f3576020818501810151868301820152016133d7565b506000602082860101526020601f19601f83011685010191505092915050565b602081526000610e3660208301846133cd565b60006020828403121561343857600080fd5b5035919050565b6001600160a01b0381168114610f7457600080fd5b803561345f8161343f565b919050565b6000806040838503121561347757600080fd5b82356134828161343f565b946020939093013593505050565b6000602082840312156134a257600080fd5b8135610e368161343f565b634e487b7160e01b600052604160045260246000fd5b600082601f8301126134d457600080fd5b813567ffffffffffffffff808211156134ef576134ef6134ad565b604051601f8301601f19908116603f01168101908282118183101715613517576135176134ad565b8160405283815286602085880101111561353057600080fd5b836020870160208301376000602085830101528094505050505092915050565b600080600080600060a0868803121561356857600080fd5b85356135738161343f565b9450602086013567ffffffffffffffff8082111561359057600080fd5b61359c89838a016134c3565b955060408801359150808211156135b257600080fd5b506135bf888289016134c3565b9598949750949560608101359550608001359392505050565b803563ffffffff8116811461345f57600080fd5b6000602082840312156135fe57600080fd5b610e36826135d8565b60008060006060848603121561361c57600080fd5b83356136278161343f565b925060208401356136378161343f565b929592945050506040919091013590565b6000806040838503121561365b57600080fd5b613482836135d8565b6000806040838503121561367757600080fd5b8235915060208301356136898161343f565b809150509250929050565b600081518084526020808501945080840160005b838110156136cd5781516001600160a01b0316875295820195908201906001016136a8565b509495945050505050565b600081518084526020808501945080840160005b838110156136cd578151875295820195908201906001016136ec565b60608152600061371b6060830186613694565b828103602084015261372d81866136d8565b9050828103604084015261374181856136d8565b9695505050505050565b60006020828403121561375d57600080fd5b813567ffffffffffffffff81111561377457600080fd5b612545848285016134c3565b6000806040838503121561379357600080fd5b50508035926020909101359150565b6000806000606084860312156137b757600080fd5b8335925060208401356137c98161343f565b915060408401356137d98161343f565b809150509250925092565b60008083601f8401126137f657600080fd5b50813567ffffffffffffffff81111561380e57600080fd5b6020830191508360208260051b850101111561382957600080fd5b9250929050565b6000806020838503121561384357600080fd5b823567ffffffffffffffff81111561385a57600080fd5b613866858286016137e4565b90969095509350505050565b60008060006060848603121561388757600080fd5b505081359360208301359350604090920135919050565b602081526000610e366020830184613694565b60008083601f8401126138c357600080fd5b50813567ffffffffffffffff8111156138db57600080fd5b60208301915083602082850101111561382957600080fd5b6000806000806000806000806000806000806101008d8f03121561391657600080fd5b61391f8d613454565b9b5060208d01359a5061393460408e01613454565b995067ffffffffffffffff60608e0135111561394f57600080fd5b61395f8e60608f01358f016138b1565b909950975067ffffffffffffffff60808e0135111561397d57600080fd5b61398d8e60808f01358f016138b1565b909750955061399e60a08e01613454565b945067ffffffffffffffff60c08e013511156139b957600080fd5b6139c98e60c08f01358f016137e4565b909450925067ffffffffffffffff60e08e013511156139e757600080fd5b6139f78e60e08f01358f016137e4565b81935080925050509295989b509295989b509295989b565b60008060408385031215613a2257600080fd5b8235613a2d8161343f565b915060208301356136898161343f565b8015158114610f7457600080fd5b60008060408385031215613a5e57600080fd5b8235613a698161343f565b9150602083013561368981613a3d565b634e487b7160e01b600052601160045260246000fd5b81810381811115610b2957610b29613a79565b600181811c90821680613ab657607f821691505b6020821081036129e557634e487b7160e01b600052602260045260246000fd5b60ff8181168382160190811115610b2957610b29613a79565b8082028115828204841417610b2957610b29613a79565b634e487b7160e01b600052601260045260246000fd5b600082613b2b57613b2b613b06565b500490565b634e487b7160e01b600052603260045260246000fd5b80820180821115610b2957610b29613a79565b600060018201613b6b57613b6b613a79565b5060010190565b600060208284031215613b8457600080fd5b5051919050565b600060208284031215613b9d57600080fd5b8151610e3681613a3d565b604081526000613bbb60408301856133cd565b90508260208301529392505050565b634e487b7160e01b600052603160045260246000fd5b6020808252810182905260006001600160fb1b03831115613c0057600080fd5b8260051b80856040850137919091016040019392505050565b600181815b80851115613c54578160001904821115613c3a57613c3a613a79565b80851615613c4757918102915b93841c9390800290613c1e565b509250929050565b600082613c6b57506001610b29565b81613c7857506000610b29565b8160018114613c8e5760028114613c9857613cb4565b6001915050610b29565b60ff841115613ca957613ca9613a79565b50506001821b610b29565b5060208310610133831016604e8410600b8410161715613cd7575081810a610b29565b613ce18383613c19565b8060001904821115613cf557613cf5613a79565b029392505050565b6000610e3660ff841683613c5c565b6001600160a01b039390931683526020830191909152604082015260600190565b634e487b7160e01b600052602160045260246000fd5b600060ff831680613d5657613d56613b06565b8060ff8416069150509291505056febf233dd2aafeb4d50879c4aa5c81e96d92f6e6945c906a58f9f2d1c1631b4b26241ecf16d79d0f8dbfb92cbc07fe17840425976cf0667f022fe9877caa831b08a264697066735822122040a6477270fed800e03f9e6b3ab899e9b4f735fb80defa4e28add461c62550af64736f6c63430008140033",
  "linkReferences": {},
  "deployedLinkReferences": {}
}