{
  "_format": "hh-sol-artifact-1",
  "contractName": "MockLayerZeroEndpoint",
  "sourceName": "contracts/mocks/MockLayerZeroEndpoint.sol",
  "abi": [
    {
      "inputs": [],
      "stateMutability": "nonpayable",
      "type": "constructor"
    },
    {
      "anonymous": false,
      "inputs": [
        {
          "indexed": false,
          "internalType": "uint16",
          "name": "dstChainId",
          "type": "uint16"
        },
        {
          "indexed": false,
          "internalType": "address",
          "name": "userApplication",
          "type": "address"
        },
        {
          "indexed": false,
          "internalType": "uint256",
          "name": "payloadSize",
          "type": "uint256"
        },
        {
          "indexed": false,
          "internalType": "uint256",
          "name": "nativeFee",
          "type": "uint256"
        },
        {
          "indexed": false,
          "internalType": "uint256",
          "name": "zroFee",
          "type": "uint256"
        }
      ],
      "name": "FeeEstimated",
      "type": "event"
    },
    {
      "anonymous": false,
      "inputs": [
        {
          "indexed": true,
          "internalType": "uint16",
          "name": "srcChainId",
          "type": "uint16"
        },
        {
          "indexed": true,
          "internalType": "address",
          "name": "dstAddress",
          "type": "address"
        },
        {
          "indexed": false,
          "internalType": "bytes",
          "name": "payload",
          "type": "bytes"
        },
        {
          "indexed": false,
          "internalType": "bytes32",
          "name": "messageHash",
          "type": "bytes32"
        }
      ],
      "name": "MessageDelivered",
      "type": "event"
    },
    {
      "anonymous": false,
      "inputs": [
        {
          "indexed": true,
          "internalType": "uint16",
          "name": "dstChainId",
          "type": "uint16"
        },
        {
          "indexed": true,
          "internalType": "address",
          "name": "srcAddress",
          "type": "address"
        },
        {
          "indexed": false,
          "internalType": "bytes",
          "name": "destination",
          "type": "bytes"
        },
        {
          "indexed": false,
          "internalType": "bytes",
          "name": "payload",
          "type": "bytes"
        },
        {
          "indexed": false,
          "internalType": "bytes32",
          "name": "messageHash",
          "type": "bytes32"
        },
        {
          "indexed": false,
          "internalType": "uint256",
          "name": "nativeFee",
          "type": "uint256"
        }
      ],
      "name": "MessageSent",
      "type": "event"
    },
    {
      "inputs": [
        {
          "internalType": "uint16",
          "name": "",
          "type": "uint16"
        }
      ],
      "name": "chainConfigs",
      "outputs": [
        {
          "internalType": "uint16",
          "name": "chainId",
          "type": "uint16"
        },
        {
          "internalType": "string",
          "name": "name",
          "type": "string"
        },
        {
          "internalType": "bool",
          "name": "isActive",
          "type": "bool"
        },
        {
          "internalType": "uint256",
          "name": "baseFee",
          "type": "uint256"
        },
        {
          "internalType": "uint256",
          "name": "gasPerByte",
          "type": "uint256"
        }
      ],
      "stateMutability": "view",
      "type": "function"
    },
    {
      "inputs": [
        {
          "internalType": "uint16",
          "name": "_dstChainId",
          "type": "uint16"
        },
        {
          "internalType": "address",
          "name": "_userApplication",
          "type": "address"
        },
        {
          "internalType": "bytes",
          "name": "_payload",
          "type": "bytes"
        },
        {
          "internalType": "bool",
          "name": "_payInZRO",
          "type": "bool"
        },
        {
          "internalType": "bytes",
          "name": "_adapterParam",
          "type": "bytes"
        }
      ],
      "name": "estimateFees",
      "outputs": [
        {
          "internalType": "uint256",
          "name": "nativeFee",
          "type": "uint256"
        },
        {
          "internalType": "uint256",
          "name": "zroFee",
          "type": "uint256"
        }
      ],
      "stateMutability": "view",
      "type": "function"
    },
    {
      "inputs": [],
      "name": "getBalance",
      "outputs": [
        {
          "internalType": "uint256",
          "name": "balance",
          "type": "uint256"
        }
      ],
      "stateMutability": "view",
      "type": "function"
    },
    {
      "inputs": [
        {
          "internalType": "uint16",
          "name": "lzChainId",
          "type": "uint16"
        }
      ],
      "name": "getChainConfig",
      "outputs": [
        {
          "components": [
            {
              "internalType": "uint16",
              "name": "chainId",
              "type": "uint16"
            },
            {
              "internalType": "string",
              "name": "name",
              "type": "string"
            },
            {
              "internalType": "bool",
              "name": "isActive",
              "type": "bool"
            },
            {
              "internalType": "uint256",
              "name": "baseFee",
              "type": "uint256"
            },
            {
              "internalType": "uint256",
              "name": "gasPerByte",
              "type": "uint256"
            }
          ],
          "internalType": "struct MockLayerZeroEndpoint.ChainConfig",
          "name": "config",
          "type": "tuple"
        }
      ],
      "stateMutability": "view",
      "type": "function"
    },
    {
      "inputs": [
        {
          "internalType": "address",
          "name": "sender",
          "type": "address"
        }
      ],
      "name": "getMessageCount",
      "outputs": [
        {
          "internalType": "uint256",
          "name": "count",
          "type": "uint256"
        }
      ],
      "stateMutability": "view",
      "type": "function"
    },
    {
      "inputs": [
        {
          "internalType": "bytes32",
          "name": "messageHash",
          "type": "bytes32"
        }
      ],
      "name": "getMessageInfo",
      "outputs": [
        {
          "components": [
            {
              "internalType": "uint16",
              "name": "srcChainId",
              "type": "uint16"
            },
            {
              "internalType": "uint16",
              "name": "dstChainId",
              "type": "uint16"
            },
            {
              "internalType": "address",
              "name": "srcAddress",
              "type": "address"
            },
            {
              "internalType": "bytes",
              "name": "destination",
              "type": "bytes"
            },
            {
              "internalType": "bytes",
              "name": "payload",
              "type": "bytes"
            },
            {
              "internalType": "uint256",
              "name": "timestamp",
              "type": "uint256"
            },
            {
              "internalType": "bool",
              "name": "delivered",
              "type": "bool"
            },
            {
              "internalType": "uint256",
              "name": "nativeFee",
              "type": "uint256"
            }
          ],
          "internalType": "struct MockLayerZeroEndpoint.MessageInfo",
          "name": "info",
          "type": "tuple"
        }
      ],
      "stateMutability": "view",
      "type": "function"
    },
    {
      "inputs": [
        {
          "internalType": "bytes32",
          "name": "messageHash",
          "type": "bytes32"
        }
      ],
      "name": "isMessageDelivered",
      "outputs": [
        {
          "internalType": "bool",
          "name": "delivered",
          "type": "bool"
        }
      ],
      "stateMutability": "view",
      "type": "function"
    },
    {
      "inputs": [
        {
          "internalType": "bytes32",
          "name": "messageHash",
          "type": "bytes32"
        }
      ],
      "name": "manualDelivery",
      "outputs": [],
      "stateMutability": "nonpayable",
      "type": "function"
    },
    {
      "inputs": [
        {
          "internalType": "address",
          "name": "",
          "type": "address"
        }
      ],
      "name": "messageNonces",
      "outputs": [
        {
          "internalType": "uint256",
          "name": "",
          "type": "uint256"
        }
      ],
      "stateMutability": "view",
      "type": "function"
    },
    {
      "inputs": [
        {
          "internalType": "uint16",
          "name": "_dstChainId",
          "type": "uint16"
        },
        {
          "internalType": "bytes",
          "name": "_destination",
          "type": "bytes"
        },
        {
          "internalType": "bytes",
          "name": "_payload",
          "type": "bytes"
        },
        {
          "internalType": "address payable",
          "name": "_refundAddress",
          "type": "address"
        },
        {
          "internalType": "address",
          "name": "_zroPaymentAddress",
          "type": "address"
        },
        {
          "internalType": "bytes",
          "name": "_adapterParams",
          "type": "bytes"
        }
      ],
      "name": "send",
      "outputs": [],
      "stateMutability": "payable",
      "type": "function"
    },
    {
      "inputs": [
        {
          "internalType": "bytes32",
          "name": "",
          "type": "bytes32"
        }
      ],
      "name": "sentMessages",
      "outputs": [
        {
          "internalType": "uint16",
          "name": "srcChainId",
          "type": "uint16"
        },
        {
          "internalType": "uint16",
          "name": "dstChainId",
          "type": "uint16"
        },
        {
          "internalType": "address",
          "name": "srcAddress",
          "type": "address"
        },
        {
          "internalType": "bytes",
          "name": "destination",
          "type": "bytes"
        },
        {
          "internalType": "bytes",
          "name": "payload",
          "type": "bytes"
        },
        {
          "internalType": "uint256",
          "name": "timestamp",
          "type": "uint256"
        },
        {
          "internalType": "bool",
          "name": "delivered",
          "type": "bool"
        },
        {
          "internalType": "uint256",
          "name": "nativeFee",
          "type": "uint256"
        }
      ],
      "stateMutability": "view",
      "type": "function"
    },
    {
      "inputs": [
        {
          "internalType": "uint16",
          "name": "lzChainId",
          "type": "uint16"
        },
        {
          "internalType": "string",
          "name": "name",
          "type": "string"
        },
        {
          "internalType": "bool",
          "name": "isActive",
          "type": "bool"
        },
        {
          "internalType": "uint256",
          "name": "baseFee",
          "type": "uint256"
        },
        {
          "internalType": "uint256",
          "name": "gasPerByte",
          "type": "uint256"
        }
      ],
      "name": "updateChainConfig",
      "outputs": [],
      "stateMutability": "nonpayable",
      "type": "function"
    },
    {
      "stateMutability": "payable",
      "type": "receive"
    }
  ],
  "bytecode": "0x6080604052346200002657620000146200002b565b604051611d21620006b28239611d2190f35b600080fd5b62000035620004c4565b565b634e487b7160e01b600052604160045260246000fd5b90601f01601f191681019081106001600160401b038211176200006f57604052565b62000037565b90620000356200008460405190565b92836200004d565b6200009860a062000075565b90565b620000ab62000098620000989290565b61ffff1690565b6001600160401b0381116200006f57602090601f01601f19160190565b90620000e5620000df83620000b2565b62000075565b918252565b620000f66008620000cf565b67457468657265756d60c01b602082015290565b62000098620000ea565b6200009862000098620000989290565b9062000130906200009b565b600052602052604060002090565b9061ffff905b9181191691161790565b620000ab62000098620000989261ffff1690565b9062000176620000986200017e926200014e565b82546200013e565b9055565b634e487b7160e01b600052602260045260246000fd5b9060016002830492168015620001bb575b6020831014620001b557565b62000182565b91607f1691620001a9565b9160001960089290920291821b911b62000144565b9190620001f0620000986200017e9362000114565b908354620001c6565b6200003591600091620001db565b81811062000213575050565b80620002236000600193620001f9565b0162000207565b9190601f81116200023a57505050565b6200024e6200003593600052602060002090565b906020601f84018190048301931062000272575b6020601f90910104019062000207565b909150819062000262565b9062000287815190565b906001600160401b0382116200006f57620002af82620002a8855462000198565b856200022a565b602090601f8311600114620002ee576200017e929160009183620002e2575b5050600019600883021c1916906002021790565b015190503880620002ce565b601f198316916200030485600052602060002090565b9260005b81811062000345575091600293918560019694106200032b575b50505002019055565b01516000196008601f8516021c1916905538808062000322565b9193602060018192878701518155019501920162000308565b9062000035916200027d565b9060ff9062000144565b9062000387620000986200017e92151590565b82546200036a565b906000199062000144565b90620003ae620000986200017e9262000114565b82546200038f565b60046200043360806200003594620003de620003d7600083015161ffff1690565b8662000162565b620003f8620003ee602083015190565b600187016200035e565b620004146200040a6040830151151590565b6002870162000374565b6200042e62000424606083015190565b600387016200039a565b015190565b91016200039a565b906200003591620003b6565b620004536007620000cf565b662837b63cb3b7b760c91b602082015290565b6200009862000447565b6200047c6008620000cf565b67417262697472756d60c01b602082015290565b6200009862000470565b620004a66008620000cf565b67487970657245564d60c01b602082015290565b620000986200049a565b62000035600162000555620004d86200008c565b620004f0620004e860656200009b565b61ffff168252565b62000505620004fe6200010a565b6020830152565b82151560408201526200052a6200052366038d7ea4c6800062000114565b6060830152565b620005416200053a601062000114565b6080830152565b6200055b6002916200055560658462000124565b6200043b565b655af3107a400090620005db620005b1620005756200008c565b936200058e62000586606d6200009b565b61ffff168652565b620005a36200059c62000466565b6020870152565b861515604086015262000114565b92620005be846060830152565b620005ce6200053a600862000114565b62000555606d8462000124565b62000642620005e96200008c565b620005f9620004e8606e6200009b565b62000607620004fe62000490565b851515604082015262000625620005236601c6bf5263400062000114565b620006356200053a600462000114565b62000555606e8462000124565b62000695617530926200068e620006586200008c565b966200067062000668876200009b565b61ffff168952565b620006856200067e620004ba565b60208a0152565b15156040880152565b6060860152565b620006ab620006a48262000114565b6080860152565b6200012456fe6080604052600436101561001b575b361561001957600080fd5b005b60003560e01c806312065fe0146100db5780631ba82e57146100d657806340a7bb10146100d157806370f41bff146100cc57806382e3702d146100c75780638db3676a146100c2578063a0c7fe5c146100bd578063b3ff7563146100b8578063c17786a0146100b3578063c5803100146100ae578063d160a3c2146100a95763d7363ce70361000e57610a5e565b610a2d565b6108e1565b610824565b610793565b6106e6565b6106c2565b610629565b610344565b610290565b610152565b6100f6565b60009103126100eb57565b600080fd5b9052565b565b346100eb576101063660046100e0565b610121610111610a79565b6040519182918290815260200190565b0390f35b805b036100eb57565b905035906100f482610125565b906020828203126100eb5761014f9161012e565b90565b346100eb5761012161016d61016836600461013b565b610a86565b60405191829182901515815260200190565b61ffff8116610127565b905035906100f48261017f565b6001600160a01b031690565b6001600160a01b038116610127565b905035906100f4826101a2565b909182601f830112156100eb5781359167ffffffffffffffff83116100eb5760200192600183028401116100eb57565b801515610127565b905035906100f4826101ee565b60a0818303126100eb576102178282610189565b9261022583602084016101b1565b92604083013567ffffffffffffffff81116100eb57816102469185016101be565b92909361025683606083016101f6565b92608082013567ffffffffffffffff81116100eb5761027592016101be565b9091565b9081526040810192916100f49160200152565b0152565b346100eb576102af6102a3366004610203565b95949094939193610c05565b906101216102bc60405190565b92839283610279565b906020828203126100eb5761014f916101b1565b61019661014f61014f926001600160a01b031690565b61014f906102d9565b61014f906102ef565b9061030b906102f8565b600052602052604060002090565b61014f916008021c81565b9061014f9154610319565b600061033f61014f926001610301565b610324565b346100eb5761012161011161035a3660046102c5565b61032f565b9061030b565b61014f905b61ffff1690565b61014f9054610365565b61014f9060101c61036a565b61014f905461037b565b61014f9060201c610196565b61014f9054610391565b634e487b7160e01b600052602260045260246000fd5b90600160028304921680156103dd575b60208310146103d857565b6103a7565b91607f16916103cd565b805460009392916104046103fa836103bd565b8085529360200190565b9160018116908115610456575060011461041d57505050565b6104309192939450600052602060002090565b916000925b8184106104425750500190565b805484840152602090930192600101610435565b92949550505060ff1916825215156020020190565b9061014f916103e7565b634e487b7160e01b600052604160045260246000fd5b90601f01601f1916810190811067ffffffffffffffff8211176104ad57604052565b610475565b906100f46104cc926104c360405190565b9384809261046b565b038361048b565b61014f9081565b61014f90546104d3565b6104ef90600061035f565b906104f982610371565b9161050381610387565b9161050d8261039d565b9161051a600182016104b2565b91610527600283016104b2565b91610534600382016104da565b9161014f6005610548600485015460ff1690565b93016104da565b60005b8381106105625750506000910152565b8181015183820152602001610552565b61059361059c6020936105a693610587815190565b80835293849260200190565b9586910161054f565b601f01601f191690565b0190565b9360e09561060a86610618936105fd61028c989b9e9d9b6105ed6100f49e996105e26106209a6000610100890198019061ffff169052565b61ffff1660208d0152565b6001600160a01b031660408b0152565b88820360608a0152610572565b908682036080880152610572565b9860a0850152565b151560c0830152565b346100eb5761012161064461063f36600461013b565b6104e4565b9461065798969894919493929360405190565b988998896105aa565b91909160a0818403126100eb576106778382610189565b92602082013567ffffffffffffffff81116100eb57816106989184016101be565b92909361014f6106ab84604085016101f6565b9360806106bb826060870161012e565b940161012e565b346100eb576106e16106d5366004610660565b94939093929192610f46565b604051005b346100eb576106e16106f936600461013b565b61101c565b805161ffff1682529061014f9060e08061075e61074c610100850160208881015161ffff16908701526040888101516001600160a01b03169087015260608801518682036060880152610572565b60808701518582036080870152610572565b9461076e60a082015160a0860152565b60c0818101511515908501525b0151910152565b602080825261014f929101906106fe565b346100eb576101216107ae6107a936600461013b565b61114b565b60405191829182610782565b906020828203126100eb5761014f91610189565b805161ffff1682529061014f906080806107f760a0840160208701518582036020870152610572565b6040808701511515908501529461077b60608201516060860152565b602080825261014f929101906107ce565b346100eb5761012161083f61083a3660046107ba565b611183565b60405191829182610813565b9060c0828203126100eb576108608183610189565b92602083013567ffffffffffffffff81116100eb57826108819185016101be565b929093604081013567ffffffffffffffff81116100eb57826108a49183016101be565b9290936108b482606085016101b1565b926108c283608083016101b1565b9260a082013567ffffffffffffffff81116100eb5761027592016101be565b6106e16108ef36600461084b565b979690969591959492946115e1565b61036a61014f61014f9261ffff1690565b9061030b906108fe565b8054600093929161092c6103fa836103bd565b9160018116908115610456575060011461094557505050565b6109589192939450600052602060002090565b916000925b81841061096a5750500190565b80548484015260209093019260010161095d565b9061014f91610919565b906100f46104cc9261099960405190565b9384809261097e565b6109ad90600261090f565b6109b681610371565b916109c360018301610988565b916109d2600282015460ff1690565b9161014f6004610548600385016104da565b906100f494610a26610a1c61028c936080969a99979a610a0f60a0880192600089019061ffff169052565b8682036020880152610572565b9815156040850152565b6060830152565b346100eb57610121610a48610a433660046107ba565b6109a2565b91610a5595939560405190565b958695866109e4565b346100eb57610121610111610a743660046102c5565b61186e565b610a82306102f8565b3190565b6004610a9f61014f92610a97600090565b50600061035f565b015460ff1690565b15610aae57565b60405162461bcd60e51b815260206004820152602c60248201527f4d6f636b4c5a456e64706f696e743a2064657374696e6174696f6e206368616960448201527f6e206e6f742061637469766500000000000000000000000000000000000000006064820152608490fd5b0390fd5b906100f4610b2a60405190565b928361048b565b61014f60a0610b1d565b906100f4610bad6004610b4c610b31565b94610b61610b5982610371565b61ffff168752565b610b77610b7060018301610988565b6020880152565b610b91610b88600283015460ff1690565b15156040880152565b610ba7610ba0600383016104da565b6060880152565b016104da565b6080840152565b61014f90610b3b565b634e487b7160e01b600052601160045260246000fd5b81810292918115918404141715610be657565b610bbd565b91908201809211610be657565b61014f61014f61014f9290565b610c6a9650610c5f929550610c659450610c54915092610c4f610c4a606095610c2c600090565b506002610c45610c4082610a9f858261090f565b610aa7565b61090f565b610bb4565b955090565b608085015190610bd3565b92015190565b610beb565b9061014f6000610bf8565b67ffffffffffffffff81116104ad57602090601f01601f19160190565b90826000939282370152565b90929192610cb3610cae82610c75565b610b1d565b93818552818301116100eb576100f4916020850190610c92565b61014f913691610c9e565b9061ffff905b9181191691161790565b90610cf861014f610cff926108fe565b8254610cd8565b9055565b9160001960089290920291821b911b610cde565b9190610d2861014f610cff93610bf8565b908354610d03565b6100f491600091610d17565b818110610d47575050565b80610d556000600193610d30565b01610d3c565b9190601f8111610d6a57505050565b610d7c6100f493600052602060002090565b906020601f840181900483019310610d9e575b6020601f909101040190610d3c565b9091508190610d8f565b90610db1815190565b9067ffffffffffffffff82116104ad57610dd582610dcf85546103bd565b85610d5b565b602090601f8311600114610e1057610cff929160009183610e05575b5050600019600883021c1916906002021790565b015190503880610df1565b601f19831691610e2585600052602060002090565b9260005b818110610e6357509160029391856001969410610e4a575b50505002019055565b01516000196008601f8516021c19169055388080610e41565b91936020600181928787015181550195019201610e29565b906100f491610da8565b9060ff90610cde565b90610e9e61014f610cff92151590565b8254610e85565b9060001990610cde565b90610ebf61014f610cff92610bf8565b8254610ea5565b6004610f3560806100f494610ee9610ee3600083015161ffff1690565b86610ce8565b610f00610ef7602083015190565b60018701610e7b565b610f19610f106040830151151590565b60028701610e8e565b610f30610f27606083015190565b60038701610eaf565b015190565b9101610eaf565b906100f491610ec6565b9194610f97600095610f90610fa596610f87610f806100f49b610f9e98610f7b8b610f6f610b31565b9e8f019061ffff169052565b610ccd565b60208b0152565b15156040890152565b6060870152565b6080850152565b600261090f565b610f3c565b15610fb157565b60405162461bcd60e51b815260206004820152602160248201527f4d6f636b4c5a456e64706f696e743a20616c72656164792064656c697665726560448201527f64000000000000000000000000000000000000000000000000000000000000006064820152608490fd5b6100f49061103f61103a6110366004610a9f85600061035f565b1590565b610faa565b611aa8565b61014f610100610b1d565b611057611044565b9060008252602080808080808080890160008152016000815201606081520160605b815201600081520160008152016000905250565b61014f61104f565b906100f461113b60056110a6611044565b946110b3610b5982610371565b6110ca6110bf82610387565b61ffff166020880152565b6110e66110d68261039d565b6001600160a01b03166040880152565b6110f5610ba0600183016104b2565b61110b611104600283016104b2565b6080880152565b61112161111a600383016104da565b60a0880152565b610ba7611132600483015460ff1690565b151560c0880152565b60e0840152565b61014f90611095565b61115a61014f91610a9761108d565b611142565b611167610b31565b906000825260208080808086016060611079565b61014f61115f565b610c4a61014f9161119261117b565b50600261090f565b156111a157565b60405162461bcd60e51b815260206004820152602360248201527f4d6f636b4c5a456e64706f696e743a20696e76616c69642064657374696e617460448201527f696f6e00000000000000000000000000000000000000000000000000000000006064820152608490fd5b1561121357565b60405162461bcd60e51b815260206004820152601d60248201527f4d6f636b4c5a456e64706f696e743a20656d707479207061796c6f61640000006044820152606490fd5b905051906100f482610125565b91906040838203126100eb5761014f9060206112818286611258565b9401611258565b919061059c8161129f816105a69560209181520190565b8095610c92565b929061014f979596946112ec926112df6112f6956112cf60a089019560008a019061ffff169052565b6001600160a01b03166020880152565b8583036040870152611288565b9415156060830152565b6080818503910152611288565b6040513d6000823e3d90fd5b1561131657565b60405162461bcd60e51b815280610b19600482016020808252818101527f4d6f636b4c5a456e64706f696e743a20696e73756666696369656e7420666565604082015260600190565b6000198114610be65760010190565b6100f09061ffff1660f01b90565b6100f0906001600160a01b031660601b90565b90916105a69083908093610c92565b01809261136e565b01809261137c565b019161138f565b9161138f565b918252565b01918252565b61036a61014f61014f9290565b9063ffff00009060101b610cde565b906113f261014f610cff926108fe565b82546113d3565b9077ffffffffffffffffffffffffffffffffffffffff000000009060201b610cde565b9061142c61014f610cff926102f8565b82546113f9565b9061143c815190565b9067ffffffffffffffff82116104ad5761145a82610dcf85546103bd565b602090601f831160011461148957610cff929160009183610e05575050600019600883021c1916906002021790565b601f1983169161149e85600052602060002090565b9260005b8181106114c257509160029391856001969410610e4a5750505002019055565b919360206001819287870151815501950192016114a2565b906100f491611433565b6100f491600590610f359060e0906115378561150b611505845161ffff1690565b82610ce8565b61152361151d602085015161ffff1690565b826113e2565b60408301516001600160a01b03169061141c565b61154e611545606083015190565b600187016114da565b61156561155c608083015190565b600287016114da565b611573610f2760a083015190565b610f3061158360c0830151151590565b60048701610e8e565b906100f4916114e4565b916060936100f4969897956115be61028c946115cc94608088019188830360008a0152611288565b918583036020870152611288565b966040830152565b91908203918211610be657565b9687959650929190926115f586600261090f565b6002015460ff1661160590610aa7565b600098826116128b610bf8565b1061161c9061119a565b856116268b610bf8565b106116309061120c565b611639306102f8565b9161164360405190565b998a9283927f40a7bb100000000000000000000000000000000000000000000000000000000084528d8a8933600488019661167d976112a6565b03815a93604094fa96871561182e57889761183c575b50863410156116a19061130f565b6116ac336001610301565b6116b5816104da565b906116bf8261135f565b6116c891610eaf565b6040518091876020830191428988888b33469761170e988a6113c09460209a999660146113bb966113ae60028f9c986113a66105a69f998f909961139e816113b59c9052565b90810382520361171e908261048b565b805190602001209461172f466113c6565b611737611044565b61ffff9091168a82015261ffff8216602082015233604082015261175b8386610ccd565b606082015261176a8685610ccd565b608082015261177a4260a0830152565b89151560c082015261178d8960e0830152565b611797878b61035f565b906117a19161158c565b6117aa906108fe565b9287866117b6336102f8565b966117c060405190565b9586956117cd9587611596565b037f38fa7a66963242b94f4e99c83915347d3832b991c72dd842f4c78182bbbe1c0e91a36117fa90611aa8565b81341161180657505050565b8280929161181e6118188394346115d4565b916102f8565b828215611833575bf11561182e57565b611303565b506108fc611826565b61185f91975060403d604011611867575b611857818361048b565b810190611265565b969096611693565b503d61184d565b61188561014f9161187d600090565b506001610301565b6104da565b1561189157565b60405162461bcd60e51b815260206004820152602960248201527f4d6f636b4c5a456e64706f696e743a206d65737361676520616c72656164792060448201527f64656c69766572656400000000000000000000000000000000000000000000006064820152608490fd5b61014f906104b2565b905051906100f4826101a2565b906020828203126100eb5761014f91611905565b6105a68160149361137c565b61193f61014f61014f9290565b67ffffffffffffffff1690565b8054600093929161195f6103fa836103bd565b9160018116908115610456575060011461197857505050565b61198b9192939450600052602060002090565b916000925b81841061199d5750500190565b805484840152602090930192600101611990565b61ffff909116815261014f93916119eb906119d89060808401908482036020860152610572565b67ffffffffffffffff9094166040830152565b606081840391015261194c565b92916020611a156100f4936040870190878203600089015261194c565b940152565b60009060033d11611a2757565b905060046000803e60005160e01c90565b60009060443d106100f45760405160043d036004823e8051903d602483011167ffffffffffffffff831117611aa45781810191825167ffffffffffffffff8111611a9e5760043d03830181602086010111611a9e5761014f93949550602001019061048b565b50505050565b5050565b600090611ab861014f828461035f565b906004820190611ad4611acf611036845460ff1690565b61188a565b611b00611afb611ae6600186016118fc565b6020611af0825190565b818301019101611912565b6102f8565b90611b0d60018094610e8e565b611b19611afb836102f8565b9285850194611b2786610371565b611b308761039d565b91611b59611b3d60405190565b8094611b4d602083019182611926565b9081038252038461048b565b6002611b8a611b85611b76611885611b708d61039d565b89610301565b611b7f88610bf8565b906115d4565b611932565b910196803b156100eb5787938a8094611bd7611ba560405190565b978896879586947e1d3567000000000000000000000000000000000000000000000000000000008652600486016119b1565b03925af19081611cbf575b50611c775794611bf0611a1a565b6308c379a014611c06575b505050505061182e57565b611c0e611a38565b15611bfb577f93b150e6965526f1ecce83995cdec16f49771a07c403b57272ebfac05126d9029293949550611c4e611c49611c549297610371565b6108fe565b936102f8565b93611c6a611c6160405190565b928392836119f8565b0390a33880808080611bfb565b5090927f93b150e6965526f1ecce83995cdec16f49771a07c403b57272ebfac05126d902929450611c4e611c49611cad92610371565b93611cba611c6160405190565b0390a3565b611cde90883d8a11611ce4575b611cd6818361048b565b8101906100e0565b38611be2565b503d611ccc56fea264697066735822122077dc58b1f1ad32840b9bdbd5fd00fc19420a8938c0e9d3872be4b443ee51af1b64736f6c63430008160033",
  "linkReferences": {},
  "deployedLinkReferences": {}
}