{
  "_format": "hh-sol-artifact-1",
  "contractName": "MockDEXAggregator",
  "sourceName": "contracts/mocks/MockDEXAggregator.sol",
  "abi": [
    {
      "inputs": [
        {
          "internalType": "address",
          "name": "_priceFeed",
          "type": "address"
        }
      ],
      "stateMutability": "nonpayable",
      "type": "constructor"
    },
    {
      "inputs": [
        {
          "internalType": "address",
          "name": "owner",
          "type": "address"
        }
      ],
      "name": "OwnableInvalidOwner",
      "type": "error"
    },
    {
      "inputs": [
        {
          "internalType": "address",
          "name": "account",
          "type": "address"
        }
      ],
      "name": "OwnableUnauthorizedAccount",
      "type": "error"
    },
    {
      "inputs": [],
      "name": "ReentrancyGuardReentrantCall",
      "type": "error"
    },
    {
      "inputs": [
        {
          "internalType": "address",
          "name": "token",
          "type": "address"
        }
      ],
      "name": "SafeERC20FailedOperation",
      "type": "error"
    },
    {
      "anonymous": false,
      "inputs": [
        {
          "indexed": true,
          "internalType": "address",
          "name": "token",
          "type": "address"
        },
        {
          "indexed": false,
          "internalType": "uint256",
          "name": "amount",
          "type": "uint256"
        }
      ],
      "name": "AggregatorFunded",
      "type": "event"
    },
    {
      "anonymous": false,
      "inputs": [
        {
          "indexed": false,
          "internalType": "uint256",
          "name": "newFee",
          "type": "uint256"
        }
      ],
      "name": "FeeUpdated",
      "type": "event"
    },
    {
      "anonymous": false,
      "inputs": [
        {
          "indexed": true,
          "internalType": "address",
          "name": "previousOwner",
          "type": "address"
        },
        {
          "indexed": true,
          "internalType": "address",
          "name": "newOwner",
          "type": "address"
        }
      ],
      "name": "OwnershipTransferred",
      "type": "event"
    },
    {
      "anonymous": false,
      "inputs": [
        {
          "indexed": false,
          "internalType": "string",
          "name": "protocolName",
          "type": "string"
        }
      ],
      "name": "ProtocolAdded",
      "type": "event"
    },
    {
      "anonymous": false,
      "inputs": [
        {
          "indexed": false,
          "internalType": "string",
          "name": "protocolName",
          "type": "string"
        }
      ],
      "name": "ProtocolRemoved",
      "type": "event"
    },
    {
      "anonymous": false,
      "inputs": [
        {
          "indexed": true,
          "internalType": "address",
          "name": "srcToken",
          "type": "address"
        },
        {
          "indexed": true,
          "internalType": "address",
          "name": "destToken",
          "type": "address"
        },
        {
          "indexed": false,
          "internalType": "uint256",
          "name": "amount",
          "type": "uint256"
        },
        {
          "indexed": false,
          "internalType": "uint256",
          "name": "returnAmount",
          "type": "uint256"
        }
      ],
      "name": "QuoteRequested",
      "type": "event"
    },
    {
      "anonymous": false,
      "inputs": [
        {
          "indexed": false,
          "internalType": "uint256",
          "name": "newSlippage",
          "type": "uint256"
        }
      ],
      "name": "SlippageUpdated",
      "type": "event"
    },
    {
      "anonymous": false,
      "inputs": [
        {
          "indexed": true,
          "internalType": "address",
          "name": "srcToken",
          "type": "address"
        },
        {
          "indexed": true,
          "internalType": "address",
          "name": "destToken",
          "type": "address"
        },
        {
          "indexed": true,
          "internalType": "address",
          "name": "sender",
          "type": "address"
        },
        {
          "indexed": false,
          "internalType": "uint256",
          "name": "srcAmount",
          "type": "uint256"
        },
        {
          "indexed": false,
          "internalType": "uint256",
          "name": "destAmount",
          "type": "uint256"
        },
        {
          "indexed": false,
          "internalType": "string",
          "name": "protocol",
          "type": "string"
        }
      ],
      "name": "SwapExecuted",
      "type": "event"
    },
    {
      "anonymous": false,
      "inputs": [
        {
          "indexed": true,
          "internalType": "address",
          "name": "token",
          "type": "address"
        },
        {
          "indexed": false,
          "internalType": "string",
          "name": "symbol",
          "type": "string"
        }
      ],
      "name": "TokenAdded",
      "type": "event"
    },
    {
      "inputs": [],
      "name": "FEE_DENOMINATOR",
      "outputs": [
        {
          "internalType": "uint256",
          "name": "",
          "type": "uint256"
        }
      ],
      "stateMutability": "view",
      "type": "function"
    },
    {
      "inputs": [
        {
          "internalType": "address",
          "name": "token",
          "type": "address"
        },
        {
          "internalType": "uint8",
          "name": "decimals",
          "type": "uint8"
        },
        {
          "internalType": "string",
          "name": "symbol",
          "type": "string"
        }
      ],
      "name": "addSupportedToken",
      "outputs": [],
      "stateMutability": "nonpayable",
      "type": "function"
    },
    {
      "inputs": [
        {
          "internalType": "address",
          "name": "token",
          "type": "address"
        },
        {
          "internalType": "uint256",
          "name": "amount",
          "type": "uint256"
        }
      ],
      "name": "fundAggregator",
      "outputs": [],
      "stateMutability": "nonpayable",
      "type": "function"
    },
    {
      "inputs": [
        {
          "internalType": "address",
          "name": "srcToken",
          "type": "address"
        },
        {
          "internalType": "address",
          "name": "destToken",
          "type": "address"
        },
        {
          "internalType": "uint256",
          "name": "amount",
          "type": "uint256"
        }
      ],
      "name": "getExchangeRate",
      "outputs": [
        {
          "internalType": "uint256",
          "name": "rate",
          "type": "uint256"
        }
      ],
      "stateMutability": "view",
      "type": "function"
    },
    {
      "inputs": [],
      "name": "getProtocols",
      "outputs": [
        {
          "internalType": "string[]",
          "name": "",
          "type": "string[]"
        }
      ],
      "stateMutability": "view",
      "type": "function"
    },
    {
      "inputs": [
        {
          "internalType": "address",
          "name": "srcToken",
          "type": "address"
        },
        {
          "internalType": "address",
          "name": "destToken",
          "type": "address"
        },
        {
          "internalType": "uint256",
          "name": "amount",
          "type": "uint256"
        }
      ],
      "name": "getQuote",
      "outputs": [
        {
          "components": [
            {
              "internalType": "uint256",
              "name": "returnAmount",
              "type": "uint256"
            },
            {
              "internalType": "uint256[]",
              "name": "distribution",
              "type": "uint256[]"
            },
            {
              "internalType": "uint256",
              "name": "estimatedGas",
              "type": "uint256"
            },
            {
              "internalType": "string[]",
              "name": "protocols",
              "type": "string[]"
            }
          ],
          "internalType": "struct IDEXAggregator.QuoteResult",
          "name": "result",
          "type": "tuple"
        }
      ],
      "stateMutability": "view",
      "type": "function"
    },
    {
      "inputs": [],
      "name": "getSupportedTokens",
      "outputs": [
        {
          "internalType": "address[]",
          "name": "",
          "type": "address[]"
        }
      ],
      "stateMutability": "view",
      "type": "function"
    },
    {
      "inputs": [
        {
          "internalType": "address",
          "name": "tokenA",
          "type": "address"
        },
        {
          "internalType": "address",
          "name": "tokenB",
          "type": "address"
        }
      ],
      "name": "isPairSupported",
      "outputs": [
        {
          "internalType": "bool",
          "name": "",
          "type": "bool"
        }
      ],
      "stateMutability": "view",
      "type": "function"
    },
    {
      "inputs": [],
      "name": "owner",
      "outputs": [
        {
          "internalType": "address",
          "name": "",
          "type": "address"
        }
      ],
      "stateMutability": "view",
      "type": "function"
    },
    {
      "inputs": [],
      "name": "priceFeed",
      "outputs": [
        {
          "internalType": "contract IPriceFeed",
          "name": "",
          "type": "address"
        }
      ],
      "stateMutability": "view",
      "type": "function"
    },
    {
      "inputs": [
        {
          "internalType": "string",
          "name": "",
          "type": "string"
        }
      ],
      "name": "protocolActive",
      "outputs": [
        {
          "internalType": "bool",
          "name": "",
          "type": "bool"
        }
      ],
      "stateMutability": "view",
      "type": "function"
    },
    {
      "inputs": [
        {
          "internalType": "uint256",
          "name": "",
          "type": "uint256"
        }
      ],
      "name": "protocols",
      "outputs": [
        {
          "internalType": "string",
          "name": "",
          "type": "string"
        }
      ],
      "stateMutability": "view",
      "type": "function"
    },
    {
      "inputs": [],
      "name": "renounceOwnership",
      "outputs": [],
      "stateMutability": "nonpayable",
      "type": "function"
    },
    {
      "inputs": [
        {
          "internalType": "uint256",
          "name": "_slippage",
          "type": "uint256"
        }
      ],
      "name": "setSlippageTolerance",
      "outputs": [],
      "stateMutability": "nonpayable",
      "type": "function"
    },
    {
      "inputs": [
        {
          "internalType": "uint256",
          "name": "_swapFee",
          "type": "uint256"
        }
      ],
      "name": "setSwapFee",
      "outputs": [],
      "stateMutability": "nonpayable",
      "type": "function"
    },
    {
      "inputs": [],
      "name": "slippageTolerance",
      "outputs": [
        {
          "internalType": "uint256",
          "name": "",
          "type": "uint256"
        }
      ],
      "stateMutability": "view",
      "type": "function"
    },
    {
      "inputs": [
        {
          "internalType": "address",
          "name": "",
          "type": "address"
        }
      ],
      "name": "supportedTokens",
      "outputs": [
        {
          "internalType": "bool",
          "name": "",
          "type": "bool"
        }
      ],
      "stateMutability": "view",
      "type": "function"
    },
    {
      "inputs": [
        {
          "components": [
            {
              "internalType": "address",
              "name": "srcToken",
              "type": "address"
            },
            {
              "internalType": "address",
              "name": "destToken",
              "type": "address"
            },
            {
              "internalType": "uint256",
              "name": "amount",
              "type": "uint256"
            },
            {
              "internalType": "uint256",
              "name": "minReturn",
              "type": "uint256"
            },
            {
              "internalType": "uint256[]",
              "name": "distribution",
              "type": "uint256[]"
            },
            {
              "internalType": "uint256",
              "name": "flags",
              "type": "uint256"
            }
          ],
          "internalType": "struct IDEXAggregator.SwapParams",
          "name": "params",
          "type": "tuple"
        }
      ],
      "name": "swap",
      "outputs": [
        {
          "components": [
            {
              "internalType": "uint256",
              "name": "returnAmount",
              "type": "uint256"
            },
            {
              "internalType": "uint256",
              "name": "spentAmount",
              "type": "uint256"
            },
            {
              "internalType": "uint256",
              "name": "gasUsed",
              "type": "uint256"
            },
            {
              "internalType": "string",
              "name": "protocol",
              "type": "string"
            }
          ],
          "internalType": "struct IDEXAggregator.SwapResult",
          "name": "result",
          "type": "tuple"
        }
      ],
      "stateMutability": "payable",
      "type": "function"
    },
    {
      "inputs": [],
      "name": "swapFee",
      "outputs": [
        {
          "internalType": "uint256",
          "name": "",
          "type": "uint256"
        }
      ],
      "stateMutability": "view",
      "type": "function"
    },
    {
      "inputs": [
        {
          "internalType": "address",
          "name": "",
          "type": "address"
        }
      ],
      "name": "tokenDecimals",
      "outputs": [
        {
          "internalType": "uint8",
          "name": "",
          "type": "uint8"
        }
      ],
      "stateMutability": "view",
      "type": "function"
    },
    {
      "inputs": [
        {
          "internalType": "uint256",
          "name": "",
          "type": "uint256"
        }
      ],
      "name": "tokenList",
      "outputs": [
        {
          "internalType": "address",
          "name": "",
          "type": "address"
        }
      ],
      "stateMutability": "view",
      "type": "function"
    },
    {
      "inputs": [
        {
          "internalType": "address",
          "name": "",
          "type": "address"
        }
      ],
      "name": "tokenSymbols",
      "outputs": [
        {
          "internalType": "string",
          "name": "",
          "type": "string"
        }
      ],
      "stateMutability": "view",
      "type": "function"
    },
    {
      "inputs": [],
      "name": "totalSwapsExecuted",
      "outputs": [
        {
          "internalType": "uint256",
          "name": "",
          "type": "uint256"
        }
      ],
      "stateMutability": "view",
      "type": "function"
    },
    {
      "inputs": [],
      "name": "totalVolumeUSD",
      "outputs": [
        {
          "internalType": "uint256",
          "name": "",
          "type": "uint256"
        }
      ],
      "stateMutability": "view",
      "type": "function"
    },
    {
      "inputs": [
        {
          "internalType": "address",
          "name": "newOwner",
          "type": "address"
        }
      ],
      "name": "transferOwnership",
      "outputs": [],
      "stateMutability": "nonpayable",
      "type": "function"
    }
  ],
  "bytecode": "0x600961010081815268556e6973776170563360b81b6101205260809081526101409182526805375736869537761760bc1b6101605260a091909152600b6101809081526a050616e63616b65537761760ac1b6101a05260c05261020060405260056101c090815264437572766560d81b6101e05260e05262000086906007906004620001e1565b50601e6009556064600a553480156200009e57600080fd5b5060405162002b4b38038062002b4b833981016040819052620000c191620002b8565b3380620000e857604051631e4fbdf760e01b81526000600482015260240160405180910390fd5b620000f38162000191565b5060018055600280546001600160a01b0319166001600160a01b03831617905560005b600754811015620001895760016008600783815481106200013b576200013b620002ea565b906000526020600020016040516200015491906200033c565b908152604051908190036020019020805491151560ff19909216919091179055806200018081620003ba565b91505062000116565b505062000517565b600080546001600160a01b038381166001600160a01b0319831681178455604051919092169283917f8be0079c531659141344cd1fd0a4f28419497f9722a3daafe3b4186f6b6457e09190a35050565b8280548282559060005260206000209081019282156200022c579160200282015b828111156200022c57825182906200021b90826200044b565b509160200191906001019062000202565b506200023a9291506200023e565b5090565b808211156200023a5760006200025582826200025f565b506001016200023e565b5080546200026d9062000300565b6000825580601f106200027e575050565b601f0160209004906000526020600020908101906200029e9190620002a1565b50565b5b808211156200023a5760008155600101620002a2565b600060208284031215620002cb57600080fd5b81516001600160a01b0381168114620002e357600080fd5b9392505050565b634e487b7160e01b600052603260045260246000fd5b600181811c908216806200031557607f821691505b6020821081036200033657634e487b7160e01b600052602260045260246000fd5b50919050565b60008083546200034c8162000300565b600182811680156200036757600181146200037d57620003ae565b60ff1984168752821515830287019450620003ae565b8760005260208060002060005b85811015620003a55781548a8201529084019082016200038a565b50505082870194505b50929695505050505050565b600060018201620003db57634e487b7160e01b600052601160045260246000fd5b5060010190565b634e487b7160e01b600052604160045260246000fd5b601f8211156200044657600081815260208120601f850160051c81016020861015620004215750805b601f850160051c820191505b8181101562000442578281556001016200042d565b5050505b505050565b81516001600160401b03811115620004675762000467620003e2565b6200047f8162000478845462000300565b84620003f8565b602080601f831160018114620004b757600084156200049e5750858301515b600019600386901b1c1916600185901b17855562000442565b600085815260208120601f198616915b82811015620004e857888601518255948401946001909101908401620004c7565b5085821015620005075787850151600019600388901b60f8161c191681555b5050505050600190811b01905550565b61262480620005276000396000f3fe6080604052600436106101665760003560e01c80639291ccd5116100d1578063d03153aa1161008a578063f2fde38b11610064578063f2fde38b14610472578063f434bb6814610492578063fb0b2b36146104b4578063fcfe68bc146104d457600080fd5b8063d03153aa14610424578063d3c7c2c71461043a578063d73792a91461045c57600080fd5b80639291ccd51461036b5780639446994a146103815780639ead7222146103a1578063b185ec0d146103c1578063b913257c146103e1578063c515ee23146103f757600080fd5b80636b441d8a116101235780636b441d8a14610271578063715018a614610291578063741bef1a146102a65780638c396220146102de5780638da5cb5b1461030b5780638ee573ac1461032957600080fd5b80630b6163ce1461016b578063117da1ee146101bb5780632260d2c2146101dd57806334e19907146101fd57806354cf2aeb1461021d57806368c4ac2614610241575b600080fd5b34801561017757600080fd5b506101a6610186366004611cbc565b805160208183018101805160088252928201919093012091525460ff1681565b60405190151581526020015b60405180910390f35b3480156101c757600080fd5b506101db6101d6366004611cf9565b6104f4565b005b6101f06101eb366004611d12565b610583565b6040516101b29190611da4565b34801561020957600080fd5b506101db610218366004611cf9565b6109d7565b34801561022957600080fd5b5061023360095481565b6040519081526020016101b2565b34801561024d57600080fd5b506101a661025c366004611df4565b60036020526000908152604090205460ff1681565b34801561027d57600080fd5b5061023361028c366004611e0f565b610a55565b34801561029d57600080fd5b506101db610b20565b3480156102b257600080fd5b506002546102c6906001600160a01b031681565b6040516001600160a01b0390911681526020016101b2565b3480156102ea57600080fd5b506102fe6102f9366004611cf9565b610b34565b6040516101b29190611e4b565b34801561031757600080fd5b506000546001600160a01b03166102c6565b34801561033557600080fd5b50610359610344366004611df4565b60046020526000908152604090205460ff1681565b60405160ff90911681526020016101b2565b34801561037757600080fd5b50610233600c5481565b34801561038d57600080fd5b506101a661039c366004611e5e565b610be0565b3480156103ad57600080fd5b506102c66103bc366004611cf9565b610c29565b3480156103cd57600080fd5b506101db6103dc366004611e91565b610c53565b3480156103ed57600080fd5b50610233600b5481565b34801561040357600080fd5b50610417610412366004611e0f565b610cb7565b6040516101b29190611f0d565b34801561043057600080fd5b50610233600a5481565b34801561044657600080fd5b5061044f611091565b6040516101b29190611f8e565b34801561046857600080fd5b5061023361271081565b34801561047e57600080fd5b506101db61048d366004611df4565b6110f3565b34801561049e57600080fd5b506104a7611131565b6040516101b29190611fdb565b3480156104c057600080fd5b506102fe6104cf366004611df4565b611336565b3480156104e057600080fd5b506101db6104ef366004611fee565b61134f565b6104fc6114e7565b6103e88111156105475760405162461bcd60e51b81526020600482015260116024820152700a6d8d2e0e0c2ceca40e8dede40d0d2ced607b1b60448201526064015b60405180910390fd5b600a8190556040518181527ff5a802650e0a86db227cc342f06327d2ca0ff5cf2b12e0084fc5d8a7db2c54fd906020015b60405180910390a150565b6105ae6040518060800160405280600081526020016000815260200160008152602001606081525090565b6105b6611514565b600360006105c76020850185611df4565b6001600160a01b0316815260208101919091526040016000205460ff166106305760405162461bcd60e51b815260206004820152601a60248201527f536f7572636520746f6b656e206e6f7420737570706f72746564000000000000604482015260640161053e565b600360006106446040850160208601611df4565b6001600160a01b0316815260208101919091526040016000205460ff166106ad5760405162461bcd60e51b815260206004820152601f60248201527f44657374696e6174696f6e20746f6b656e206e6f7420737570706f7274656400604482015260640161053e565b60008260400135116106fb5760405162461bcd60e51b8152602060048201526017602482015276416d6f756e74206d75737420626520706f73697469766560481b604482015260640161053e565b60003063c515ee236107106020860186611df4565b6107206040870160208801611df4565b604080516001600160e01b031960e086901b1681526001600160a01b0393841660048201529290911660248301528601356044820152606401600060405180830381865afa158015610776573d6000803e3d6000fd5b505050506040513d6000823e601f3d908101601f1916820160405261079e919081019061213f565b90508260600135816000015110156107f05760405162461bcd60e51b815260206004820152601560248201527452657475726e20616d6f756e7420746f6f206c6f7760581b604482015260640161053e565b610818333060408601356108076020880188611df4565b6001600160a01b031692919061153e565b600061084761082a6020860186611df4565b61083a6040870160208801611df4565b84516040880135906115ab565b905061086e338261085e6040880160208901611df4565b6001600160a01b031691906116b4565b600b805490600061087e8361224f565b90915550600090506004816108966020880188611df4565b6001600160a01b031681526020810191909152604001600020546108be9060ff16600a61234c565b6108d36108ce6020880188611df4565b6116ea565b6108e190604088013561235b565b6108eb9190612388565b905080600c60008282546108ff919061239c565b9091555050604080516080810182528381528682013560208201529081015a8152602001846060015160008151811061093a5761093a6123af565b60200260200101518152509350336001600160a01b03168560200160208101906109649190611df4565b6001600160a01b031661097a6020880188611df4565b6001600160a01b03167f1e2e5ea08c1dc99fe97e4177552b806d875adf84e8c9706c0128f4a955b2d9bb88604001358689606001516040516109be939291906123c5565b60405180910390a45050506109d260018055565b919050565b6109df6114e7565b6103e8811115610a205760405162461bcd60e51b815260206004820152600c60248201526b08ccaca40e8dede40d0d2ced60a31b604482015260640161053e565b60098190556040518181527f8c4d35e54a3f2ef1134138fd8ea3daee6a3c89e10d2665996babdf70261e2c7690602001610578565b60405163c515ee2360e01b81526001600160a01b03808516600483015283166024820152604481018290526000908190309063c515ee2390606401600060405180830381865afa158015610aad573d6000803e3d6000fd5b505050506040513d6000823e601f3d908101601f19168201604052610ad5919081019061213f565b6001600160a01b0386166000908152600460205260409020549091508390610b019060ff16600a61234c565b8251610b0d919061235b565b610b179190612388565b95945050505050565b610b286114e7565b610b326000611aa8565b565b60078181548110610b4457600080fd5b906000526020600020016000915090508054610b5f906123e4565b80601f0160208091040260200160405190810160405280929190818152602001828054610b8b906123e4565b8015610bd85780601f10610bad57610100808354040283529160200191610bd8565b820191906000526020600020905b815481529060010190602001808311610bbb57829003601f168201915b505050505081565b6001600160a01b03821660009081526003602052604081205460ff168015610c2057506001600160a01b03821660009081526003602052604090205460ff165b90505b92915050565b60068181548110610c3957600080fd5b6000918252602090912001546001600160a01b0316905081565b610c5b6114e7565b610c706001600160a01b03831633308461153e565b816001600160a01b03167fb74340679ce8bcccadb0ad096c8a6b7c4ba74d0dc30b4fdbfc0026d5b5cc1b9382604051610cab91815260200190565b60405180910390a25050565b610ce26040518060800160405280600081526020016060815260200160008152602001606081525090565b6001600160a01b03841660009081526003602052604090205460ff16610d4a5760405162461bcd60e51b815260206004820152601a60248201527f536f7572636520746f6b656e206e6f7420737570706f72746564000000000000604482015260640161053e565b6001600160a01b03831660009081526003602052604090205460ff16610db25760405162461bcd60e51b815260206004820152601f60248201527f44657374696e6174696f6e20746f6b656e206e6f7420737570706f7274656400604482015260640161053e565b60008211610dfc5760405162461bcd60e51b8152602060048201526017602482015276416d6f756e74206d75737420626520706f73697469766560481b604482015260640161053e565b6000610e07856116ea565b90506000610e14856116ea565b6001600160a01b0380881660009081526004602052604080822054928916825281205492935060ff9182169290911690610e4f83600a61241e565b610e59868961235b565b610e639190612388565b9050600084610e7384600a61241e565b610e7d908461235b565b610e879190612388565b9050612710600954612710610e9c919061242a565b610ea6908361235b565b610eb09190612388565b9050612710600a54612710610ec5919061242a565b610ecf908361235b565b610ed99190612388565b60075490915060009067ffffffffffffffff811115610efa57610efa611bce565b604051908082528060200260200182016040528015610f23578160200160208202803683370190505b50905061177081600081518110610f3c57610f3c6123af565b6020026020010181815250506109c481600181518110610f5e57610f5e6123af565b6020026020010181815250506103e881600281518110610f8057610f806123af565b6020026020010181815250506101f481600381518110610fa257610fa26123af565b602090810291909101015260408051600280825260608201909252600091816020015b6060815260200190600190039081610fc557905050905060405180604001604052806009815260200168556e6973776170563360b81b81525081600081518110611011576110116123af565b60200260200101819052506040518060400160405280600981526020016805375736869537761760bc1b81525081600181518110611051576110516123af565b60200260200101819052506040518060800160405280848152602001838152602001620249f0815260200182815250985050505050505050509392505050565b606060068054806020026020016040519081016040528092919081815260200182805480156110e957602002820191906000526020600020905b81546001600160a01b031681526001909101906020018083116110cb575b5050505050905090565b6110fb6114e7565b6001600160a01b03811661112557604051631e4fbdf760e01b81526000600482015260240161053e565b61112e81611aa8565b50565b60606000805b6007548110156111a557600860078281548110611156576111566123af565b9060005260206000200160405161116d919061243d565b9081526040519081900360200190205460ff1615611193578161118f8161224f565b9250505b8061119d8161224f565b915050611137565b5060008167ffffffffffffffff8111156111c1576111c1611bce565b6040519080825280602002602001820160405280156111f457816020015b60608152602001906001900390816111df5790505b5090506000805b60075481101561132d5760086007828154811061121a5761121a6123af565b90600052602060002001604051611231919061243d565b9081526040519081900360200190205460ff161561131b576007818154811061125c5761125c6123af565b906000526020600020018054611271906123e4565b80601f016020809104026020016040519081016040528092919081815260200182805461129d906123e4565b80156112ea5780601f106112bf576101008083540402835291602001916112ea565b820191906000526020600020905b8154815290600101906020018083116112cd57829003601f168201915b5050505050838381518110611301576113016123af565b602002602001018190525081806113179061224f565b9250505b806113258161224f565b9150506111fb565b50909392505050565b60056020526000908152604090208054610b5f906123e4565b6113576114e7565b6001600160a01b0383166113a55760405162461bcd60e51b8152602060048201526015602482015274496e76616c696420746f6b656e206164647265737360581b604482015260640161053e565b6001600160a01b03831660009081526003602052604090205460ff161561140e5760405162461bcd60e51b815260206004820152601760248201527f546f6b656e20616c726561647920737570706f72746564000000000000000000604482015260640161053e565b6001600160a01b03831660009081526003602090815260408083208054600160ff199182161790915560048352818420805490911660ff87161790556005909152902061145b8282612501565b50600680546001810182556000919091527ff652222313e28459528d920b65115c16c04f3efc82aaedc97be59f3f377c0d3f0180546001600160a01b0319166001600160a01b0385169081179091556040517f7afee0f1b802cc0f66c67890e26b4566251859cf2cd8de79b86aed7251d9756a906114da908490611e4b565b60405180910390a2505050565b6000546001600160a01b03163314610b325760405163118cdaa760e01b815233600482015260240161053e565b60026001540361153757604051633ee5aeb560e01b815260040160405180910390fd5b6002600155565b6040516001600160a01b0384811660248301528381166044830152606482018390526115a59186918216906323b872dd906084015b604051602081830303815290604052915060e01b6020820180516001600160e01b038381831617835250505050611af8565b50505050565b6000806101906115b9611b69565b6115c391906125c1565b9050600060026115d1611b69565b6115db91906125c1565b159050801561160c576127106115f1838661235b565b6115fb9190612388565b611605908561239c565b9250611630565b612710611619838661235b565b6116239190612388565b61162d908561242a565b92505b6040516370a0823160e01b81523060048201526000906001600160a01b038816906370a0823190602401602060405180830381865afa158015611677573d6000803e3d6000fd5b505050506040513d601f19601f8201168201806040525081019061169b91906125d5565b9050808411156116a9578093505b505050949350505050565b6040516001600160a01b038381166024830152604482018390526116e591859182169063a9059cbb90606401611573565b505050565b6001600160a01b038116600090815260056020526040812080546117da9190611712906123e4565b80601f016020809104026020016040519081016040528092919081815260200182805461173e906123e4565b801561178b5780601f106117605761010080835404028352916020019161178b565b820191906000526020600020905b81548152906001019060200180831161176e57829003601f168201915b50506040805180820190915260048152635553444360e01b60209182015284519401939093207fd6aca1be9729c13d677335161321649cccae6a591554772516700f986f942eaa149392505050565b1561184d57600254604051636d13331d60e11b8152600060048201526001600160a01b039091169063da26663a906024015b602060405180830381865afa158015611829573d6000803e3d6000fd5b505050506040513d601f19601f82011682018060405250810190610c2391906125d5565b6001600160a01b0382166000908152600560205260409020805461193d9190611875906123e4565b80601f01602080910402602001604051908101604052809291908181526020018280546118a1906123e4565b80156118ee5780601f106118c3576101008083540402835291602001916118ee565b820191906000526020600020905b8154815290600101906020018083116118d157829003601f168201915b50506040805180820190915260048152630ae8aa8960e31b60209182015284519401939093207f0f8a193ff464434486c0daf7db2a895884365d2bc84ba47a68fcf89c1b14b5b8149392505050565b1561197357600254604051636d13331d60e11b8152600160048201526001600160a01b039091169063da26663a9060240161180c565b6001600160a01b03821660009081526005602052604090208054611a63919061199b906123e4565b80601f01602080910402602001604051908101604052809291908181526020018280546119c7906123e4565b8015611a145780601f106119e957610100808354040283529160200191611a14565b820191906000526020600020905b8154815290600101906020018083116119f757829003601f168201915b50506040805180820190915260048152635742544360e01b60209182015284519401939093207f98da2c5e4c6b1db946694570273b859a6e4083ccc8faa155edfc4c54eb3cfd73149392505050565b15611a995760028054604051636d13331d60e11b815260048101929092526001600160a01b03169063da26663a9060240161180c565b50670de0b6b3a7640000919050565b600080546001600160a01b038381166001600160a01b0319831681178455604051919092169283917f8be0079c531659141344cd1fd0a4f28419497f9722a3daafe3b4186f6b6457e09190a35050565b600080602060008451602086016000885af180611b1b576040513d6000823e3d81fd5b50506000513d91508115611b33578060011415611b40565b6001600160a01b0384163b155b156115a557604051635274afe760e01b81526001600160a01b038516600482015260240161053e565b6000612710424433604051602001611ba693929190928352602083019190915260601b6bffffffffffffffffffffffff1916604082015260540190565b6040516020818303038152906040528051906020012060001c611bc991906125c1565b905090565b634e487b7160e01b600052604160045260246000fd5b6040516080810167ffffffffffffffff81118282101715611c0757611c07611bce565b60405290565b604051601f8201601f1916810167ffffffffffffffff81118282101715611c3657611c36611bce565b604052919050565b600067ffffffffffffffff821115611c5857611c58611bce565b50601f01601f191660200190565b600082601f830112611c7757600080fd5b8135611c8a611c8582611c3e565b611c0d565b818152846020838601011115611c9f57600080fd5b816020850160208301376000918101602001919091529392505050565b600060208284031215611cce57600080fd5b813567ffffffffffffffff811115611ce557600080fd5b611cf184828501611c66565b949350505050565b600060208284031215611d0b57600080fd5b5035919050565b600060208284031215611d2457600080fd5b813567ffffffffffffffff811115611d3b57600080fd5b820160c08185031215611d4d57600080fd5b9392505050565b60005b83811015611d6f578181015183820152602001611d57565b50506000910152565b60008151808452611d90816020860160208601611d54565b601f01601f19169290920160200192915050565b6020815281516020820152602082015160408201526040820151606082015260006060830151608080840152611cf160a0840182611d78565b80356001600160a01b03811681146109d257600080fd5b600060208284031215611e0657600080fd5b610c2082611ddd565b600080600060608486031215611e2457600080fd5b611e2d84611ddd565b9250611e3b60208501611ddd565b9150604084013590509250925092565b602081526000610c206020830184611d78565b60008060408385031215611e7157600080fd5b611e7a83611ddd565b9150611e8860208401611ddd565b90509250929050565b60008060408385031215611ea457600080fd5b611ead83611ddd565b946020939093013593505050565b6000815180845260208085019450848260051b860182860160005b85811015611f00578383038952611eee838351611d78565b98850198925090840190600101611ed6565b5090979650505050505050565b60208082528251828201528281015160806040840152805160a0840181905260009291820190839060c08601905b80831015611f5b5783518252928401926001929092019190840190611f3b565b506040870151606087015260608701519350601f19868203016080870152611f838185611ebb565b979650505050505050565b6020808252825182820181905260009190848201906040850190845b81811015611fcf5783516001600160a01b031683529284019291840191600101611faa565b50909695505050505050565b602081526000610c206020830184611ebb565b60008060006060848603121561200357600080fd5b61200c84611ddd565b9250602084013560ff8116811461202257600080fd5b9150604084013567ffffffffffffffff81111561203e57600080fd5b61204a86828701611c66565b9150509250925092565b600067ffffffffffffffff82111561206e5761206e611bce565b5060051b60200190565b600082601f83011261208957600080fd5b81516020612099611c8583612054565b82815260059290921b840181019181810190868411156120b857600080fd5b8286015b8481101561213457805167ffffffffffffffff8111156120dc5760008081fd5b8701603f810189136120ee5760008081fd5b848101516040612100611c8583611c3e565b8281528b828486010111156121155760008081fd5b61212483898301848701611d54565b86525050509183019183016120bc565b509695505050505050565b6000602080838503121561215257600080fd5b825167ffffffffffffffff8082111561216a57600080fd5b908401906080828703121561217e57600080fd5b612186611be4565b82518152838301518281111561219b57600080fd5b8301601f810188136121ac57600080fd5b80516121ba611c8582612054565b81815260059190911b8201860190868101908a8311156121d957600080fd5b928701925b828410156121f7578351825292870192908701906121de565b80888601525050505060408301516040820152606083015193508184111561221e57600080fd5b61222a87858501612078565b60608201529695505050505050565b634e487b7160e01b600052601160045260246000fd5b60006001820161226157612261612239565b5060010190565b600181815b808511156122a357816000190482111561228957612289612239565b8085161561229657918102915b93841c939080029061226d565b509250929050565b6000826122ba57506001610c23565b816122c757506000610c23565b81600181146122dd57600281146122e757612303565b6001915050610c23565b60ff8411156122f8576122f8612239565b50506001821b610c23565b5060208310610133831016604e8410600b8410161715612326575081810a610c23565b6123308383612268565b806000190482111561234457612344612239565b029392505050565b6000610c2060ff8416836122ab565b8082028115828204841417610c2357610c23612239565b634e487b7160e01b600052601260045260246000fd5b60008261239757612397612372565b500490565b80820180821115610c2357610c23612239565b634e487b7160e01b600052603260045260246000fd5b838152826020820152606060408201526000610b176060830184611d78565b600181811c908216806123f857607f821691505b60208210810361241857634e487b7160e01b600052602260045260246000fd5b50919050565b6000610c2083836122ab565b81810381811115610c2357610c23612239565b600080835461244b816123e4565b600182811680156124635760018114612478576124a7565b60ff19841687528215158302870194506124a7565b8760005260208060002060005b8581101561249e5781548a820152908401908201612485565b50505082870194505b50929695505050505050565b601f8211156116e557600081815260208120601f850160051c810160208610156124da5750805b601f850160051c820191505b818110156124f9578281556001016124e6565b505050505050565b815167ffffffffffffffff81111561251b5761251b611bce565b61252f8161252984546123e4565b846124b3565b602080601f831160018114612564576000841561254c5750858301515b600019600386901b1c1916600185901b1785556124f9565b600085815260208120601f198616915b8281101561259357888601518255948401946001909101908401612574565b50858210156125b15787850151600019600388901b60f8161c191681555b5050505050600190811b01905550565b6000826125d0576125d0612372565b500690565b6000602082840312156125e757600080fd5b505191905056fea26469706673582212200e9c630381c6ebd92bc7e13901e419a58dbeccc7432cc2f746ceb26fd6078b2f64736f6c63430008140033",
  "linkReferences": {},
  "deployedLinkReferences": {}
}