{
  "_format": "hh-sol-artifact-1",
  "contractName": "HyperEVMSequencerNetwork",
  "sourceName": "contracts/sequencer/DecentralizedSequencer.sol",
  "abi": [
    {
      "inputs": [
        {
          "internalType": "address",
          "name": "_hypeToken",
          "type": "address"
        }
      ],
      "stateMutability": "nonpayable",
      "type": "constructor"
    },
    {
      "inputs": [
        {
          "internalType": "address",
          "name": "owner",
          "type": "address"
        }
      ],
      "name": "OwnableInvalidOwner",
      "type": "error"
    },
    {
      "inputs": [
        {
          "internalType": "address",
          "name": "account",
          "type": "address"
        }
      ],
      "name": "OwnableUnauthorizedAccount",
      "type": "error"
    },
    {
      "inputs": [],
      "name": "ReentrancyGuardReentrantCall",
      "type": "error"
    },
    {
      "anonymous": false,
      "inputs": [
        {
          "indexed": true,
          "internalType": "address",
          "name": "oldSequencer",
          "type": "address"
        },
        {
          "indexed": true,
          "internalType": "address",
          "name": "newSequencer",
          "type": "address"
        },
        {
          "indexed": false,
          "internalType": "string",
          "name": "reason",
          "type": "string"
        }
      ],
      "name": "EmergencyRotation",
      "type": "event"
    },
    {
      "anonymous": false,
      "inputs": [
        {
          "indexed": true,
          "internalType": "address",
          "name": "previousOwner",
          "type": "address"
        },
        {
          "indexed": true,
          "internalType": "address",
          "name": "newOwner",
          "type": "address"
        }
      ],
      "name": "OwnershipTransferred",
      "type": "event"
    },
    {
      "anonymous": false,
      "inputs": [
        {
          "indexed": true,
          "internalType": "address",
          "name": "sequencer",
          "type": "address"
        },
        {
          "indexed": false,
          "internalType": "uint256",
          "name": "tps",
          "type": "uint256"
        },
        {
          "indexed": false,
          "internalType": "uint256",
          "name": "latency",
          "type": "uint256"
        },
        {
          "indexed": false,
          "internalType": "uint256",
          "name": "uptime",
          "type": "uint256"
        }
      ],
      "name": "PerformanceUpdated",
      "type": "event"
    },
    {
      "anonymous": false,
      "inputs": [
        {
          "indexed": true,
          "internalType": "address",
          "name": "sequencer",
          "type": "address"
        },
        {
          "indexed": false,
          "internalType": "uint256",
          "name": "stakeAmount",
          "type": "uint256"
        }
      ],
      "name": "SequencerRegistered",
      "type": "event"
    },
    {
      "anonymous": false,
      "inputs": [
        {
          "indexed": true,
          "internalType": "address",
          "name": "sequencer",
          "type": "address"
        },
        {
          "indexed": false,
          "internalType": "string",
          "name": "reason",
          "type": "string"
        }
      ],
      "name": "SequencerRemoved",
      "type": "event"
    },
    {
      "anonymous": false,
      "inputs": [
        {
          "indexed": true,
          "internalType": "address",
          "name": "newSequencer",
          "type": "address"
        },
        {
          "indexed": false,
          "internalType": "uint256",
          "name": "epoch",
          "type": "uint256"
        },
        {
          "indexed": false,
          "internalType": "uint256",
          "name": "blockNumber",
          "type": "uint256"
        }
      ],
      "name": "SequencerRotated",
      "type": "event"
    },
    {
      "anonymous": false,
      "inputs": [
        {
          "indexed": true,
          "internalType": "address",
          "name": "sequencer",
          "type": "address"
        },
        {
          "indexed": false,
          "internalType": "uint256",
          "name": "amount",
          "type": "uint256"
        },
        {
          "indexed": false,
          "internalType": "string",
          "name": "reason",
          "type": "string"
        }
      ],
      "name": "SequencerSlashed",
      "type": "event"
    },
    {
      "anonymous": false,
      "inputs": [
        {
          "indexed": true,
          "internalType": "address",
          "name": "sequencer",
          "type": "address"
        },
        {
          "indexed": false,
          "internalType": "uint256",
          "name": "amount",
          "type": "uint256"
        }
      ],
      "name": "StakeIncreased",
      "type": "event"
    },
    {
      "anonymous": false,
      "inputs": [
        {
          "indexed": true,
          "internalType": "address",
          "name": "sequencer",
          "type": "address"
        },
        {
          "indexed": false,
          "internalType": "uint256",
          "name": "amount",
          "type": "uint256"
        }
      ],
      "name": "StakeWithdrawn",
      "type": "event"
    },
    {
      "inputs": [],
      "name": "HYPE_TOKEN",
      "outputs": [
        {
          "internalType": "contract IERC20",
          "name": "",
          "type": "address"
        }
      ],
      "stateMutability": "view",
      "type": "function"
    },
    {
      "inputs": [],
      "name": "MAX_ERROR_RATE",
      "outputs": [
        {
          "internalType": "uint256",
          "name": "",
          "type": "uint256"
        }
      ],
      "stateMutability": "view",
      "type": "function"
    },
    {
      "inputs": [],
      "name": "MAX_LATENCY",
      "outputs": [
        {
          "internalType": "uint256",
          "name": "",
          "type": "uint256"
        }
      ],
      "stateMutability": "view",
      "type": "function"
    },
    {
      "inputs": [],
      "name": "MAX_SEQUENCERS",
      "outputs": [
        {
          "internalType": "uint256",
          "name": "",
          "type": "uint256"
        }
      ],
      "stateMutability": "view",
      "type": "function"
    },
    {
      "inputs": [],
      "name": "MIN_REPUTATION",
      "outputs": [
        {
          "internalType": "uint256",
          "name": "",
          "type": "uint256"
        }
      ],
      "stateMutability": "view",
      "type": "function"
    },
    {
      "inputs": [],
      "name": "MIN_STAKE",
      "outputs": [
        {
          "internalType": "uint256",
          "name": "",
          "type": "uint256"
        }
      ],
      "stateMutability": "view",
      "type": "function"
    },
    {
      "inputs": [],
      "name": "MIN_TPS",
      "outputs": [
        {
          "internalType": "uint256",
          "name": "",
          "type": "uint256"
        }
      ],
      "stateMutability": "view",
      "type": "function"
    },
    {
      "inputs": [],
      "name": "MIN_UPTIME",
      "outputs": [
        {
          "internalType": "uint256",
          "name": "",
          "type": "uint256"
        }
      ],
      "stateMutability": "view",
      "type": "function"
    },
    {
      "inputs": [],
      "name": "PERFORMANCE_WINDOW",
      "outputs": [
        {
          "internalType": "uint256",
          "name": "",
          "type": "uint256"
        }
      ],
      "stateMutability": "view",
      "type": "function"
    },
    {
      "inputs": [],
      "name": "REPUTATION_DECAY",
      "outputs": [
        {
          "internalType": "uint256",
          "name": "",
          "type": "uint256"
        }
      ],
      "stateMutability": "view",
      "type": "function"
    },
    {
      "inputs": [],
      "name": "ROTATION_BLOCKS",
      "outputs": [
        {
          "internalType": "uint256",
          "name": "",
          "type": "uint256"
        }
      ],
      "stateMutability": "view",
      "type": "function"
    },
    {
      "inputs": [],
      "name": "SLASH_PERCENTAGE",
      "outputs": [
        {
          "internalType": "uint256",
          "name": "",
          "type": "uint256"
        }
      ],
      "stateMutability": "view",
      "type": "function"
    },
    {
      "inputs": [
        {
          "internalType": "uint256",
          "name": "",
          "type": "uint256"
        }
      ],
      "name": "allSequencers",
      "outputs": [
        {
          "internalType": "address",
          "name": "",
          "type": "address"
        }
      ],
      "stateMutability": "view",
      "type": "function"
    },
    {
      "inputs": [
        {
          "internalType": "string",
          "name": "reason",
          "type": "string"
        }
      ],
      "name": "emergencyRotation",
      "outputs": [],
      "stateMutability": "nonpayable",
      "type": "function"
    },
    {
      "inputs": [
        {
          "internalType": "uint256",
          "name": "",
          "type": "uint256"
        }
      ],
      "name": "epochToSequencer",
      "outputs": [
        {
          "internalType": "address",
          "name": "",
          "type": "address"
        }
      ],
      "stateMutability": "view",
      "type": "function"
    },
    {
      "inputs": [],
      "name": "getActiveSequencers",
      "outputs": [
        {
          "internalType": "address[]",
          "name": "",
          "type": "address[]"
        }
      ],
      "stateMutability": "view",
      "type": "function"
    },
    {
      "inputs": [],
      "name": "getCurrentSequencer",
      "outputs": [
        {
          "internalType": "address",
          "name": "sequencer",
          "type": "address"
        },
        {
          "internalType": "uint256",
          "name": "epoch",
          "type": "uint256"
        },
        {
          "internalType": "uint256",
          "name": "reputation",
          "type": "uint256"
        },
        {
          "internalType": "uint256",
          "name": "stakeAmount",
          "type": "uint256"
        },
        {
          "internalType": "bool",
          "name": "isActive",
          "type": "bool"
        }
      ],
      "stateMutability": "view",
      "type": "function"
    },
    {
      "inputs": [],
      "name": "getNetworkStats",
      "outputs": [
        {
          "internalType": "uint256",
          "name": "totalSequencers",
          "type": "uint256"
        },
        {
          "internalType": "uint256",
          "name": "activeSequencers",
          "type": "uint256"
        },
        {
          "internalType": "uint256",
          "name": "totalStakedAmount",
          "type": "uint256"
        },
        {
          "internalType": "uint256",
          "name": "currentEpoch",
          "type": "uint256"
        },
        {
          "internalType": "uint256",
          "name": "blocksUntilRotation",
          "type": "uint256"
        }
      ],
      "stateMutability": "view",
      "type": "function"
    },
    {
      "inputs": [
        {
          "internalType": "address",
          "name": "sequencer",
          "type": "address"
        }
      ],
      "name": "getSequencerPerformance",
      "outputs": [
        {
          "internalType": "uint256",
          "name": "tps",
          "type": "uint256"
        },
        {
          "internalType": "uint256",
          "name": "latency",
          "type": "uint256"
        },
        {
          "internalType": "uint256",
          "name": "uptime",
          "type": "uint256"
        },
        {
          "internalType": "uint256",
          "name": "errorRate",
          "type": "uint256"
        },
        {
          "internalType": "uint256",
          "name": "reputation",
          "type": "uint256"
        }
      ],
      "stateMutability": "view",
      "type": "function"
    },
    {
      "inputs": [],
      "name": "getSlashingHistory",
      "outputs": [
        {
          "components": [
            {
              "internalType": "address",
              "name": "sequencer",
              "type": "address"
            },
            {
              "internalType": "uint256",
              "name": "amount",
              "type": "uint256"
            },
            {
              "internalType": "string",
              "name": "reason",
              "type": "string"
            },
            {
              "internalType": "uint256",
              "name": "timestamp",
              "type": "uint256"
            },
            {
              "internalType": "bytes",
              "name": "proof",
              "type": "bytes"
            }
          ],
          "internalType": "struct HyperEVMSequencerNetwork.SlashingEvent[]",
          "name": "",
          "type": "tuple[]"
        }
      ],
      "stateMutability": "view",
      "type": "function"
    },
    {
      "inputs": [
        {
          "internalType": "uint256",
          "name": "amount",
          "type": "uint256"
        }
      ],
      "name": "increaseStake",
      "outputs": [],
      "stateMutability": "nonpayable",
      "type": "function"
    },
    {
      "inputs": [
        {
          "internalType": "address",
          "name": "sequencer",
          "type": "address"
        }
      ],
      "name": "isCurrentSequencer",
      "outputs": [
        {
          "internalType": "bool",
          "name": "",
          "type": "bool"
        }
      ],
      "stateMutability": "view",
      "type": "function"
    },
    {
      "inputs": [
        {
          "internalType": "address",
          "name": "",
          "type": "address"
        }
      ],
      "name": "isSequencer",
      "outputs": [
        {
          "internalType": "bool",
          "name": "",
          "type": "bool"
        }
      ],
      "stateMutability": "view",
      "type": "function"
    },
    {
      "inputs": [],
      "name": "owner",
      "outputs": [
        {
          "internalType": "address",
          "name": "",
          "type": "address"
        }
      ],
      "stateMutability": "view",
      "type": "function"
    },
    {
      "inputs": [
        {
          "internalType": "address",
          "name": "",
          "type": "address"
        }
      ],
      "name": "performance",
      "outputs": [
        {
          "internalType": "uint256",
          "name": "totalTPS",
          "type": "uint256"
        },
        {
          "internalType": "uint256",
          "name": "averageLatency",
          "type": "uint256"
        },
        {
          "internalType": "uint256",
          "name": "uptime",
          "type": "uint256"
        },
        {
          "internalType": "uint256",
          "name": "errorRate",
          "type": "uint256"
        }
      ],
      "stateMutability": "view",
      "type": "function"
    },
    {
      "inputs": [
        {
          "internalType": "uint256",
          "name": "stakeAmount",
          "type": "uint256"
        }
      ],
      "name": "registerSequencer",
      "outputs": [],
      "stateMutability": "nonpayable",
      "type": "function"
    },
    {
      "inputs": [],
      "name": "renounceOwnership",
      "outputs": [],
      "stateMutability": "nonpayable",
      "type": "function"
    },
    {
      "inputs": [],
      "name": "reputationUpdateBlock",
      "outputs": [
        {
          "internalType": "uint256",
          "name": "",
          "type": "uint256"
        }
      ],
      "stateMutability": "view",
      "type": "function"
    },
    {
      "inputs": [
        {
          "internalType": "address",
          "name": "sequencer",
          "type": "address"
        }
      ],
      "name": "restoreSequencer",
      "outputs": [],
      "stateMutability": "nonpayable",
      "type": "function"
    },
    {
      "inputs": [],
      "name": "rotateSequencer",
      "outputs": [],
      "stateMutability": "nonpayable",
      "type": "function"
    },
    {
      "inputs": [],
      "name": "rotation",
      "outputs": [
        {
          "internalType": "uint256",
          "name": "blockDuration",
          "type": "uint256"
        },
        {
          "internalType": "uint256",
          "name": "currentEpoch",
          "type": "uint256"
        },
        {
          "internalType": "address",
          "name": "currentSequencer",
          "type": "address"
        },
        {
          "internalType": "uint256",
          "name": "rotationIndex",
          "type": "uint256"
        }
      ],
      "stateMutability": "view",
      "type": "function"
    },
    {
      "inputs": [
        {
          "internalType": "address",
          "name": "",
          "type": "address"
        }
      ],
      "name": "sequencers",
      "outputs": [
        {
          "internalType": "address",
          "name": "operator",
          "type": "address"
        },
        {
          "internalType": "uint256",
          "name": "stakeAmount",
          "type": "uint256"
        },
        {
          "internalType": "uint256",
          "name": "reputation",
          "type": "uint256"
        },
        {
          "internalType": "uint256",
          "name": "slashCount",
          "type": "uint256"
        },
        {
          "internalType": "uint256",
          "name": "totalMatched",
          "type": "uint256"
        },
        {
          "internalType": "uint256",
          "name": "averageLatency",
          "type": "uint256"
        },
        {
          "internalType": "uint256",
          "name": "lastActiveBlock",
          "type": "uint256"
        },
        {
          "internalType": "bool",
          "name": "isActive",
          "type": "bool"
        },
        {
          "internalType": "bool",
          "name": "isSlashed",
          "type": "bool"
        }
      ],
      "stateMutability": "view",
      "type": "function"
    },
    {
      "inputs": [
        {
          "internalType": "address",
          "name": "sequencer",
          "type": "address"
        },
        {
          "internalType": "string",
          "name": "reason",
          "type": "string"
        },
        {
          "internalType": "bytes",
          "name": "proof",
          "type": "bytes"
        }
      ],
      "name": "slashSequencer",
      "outputs": [],
      "stateMutability": "nonpayable",
      "type": "function"
    },
    {
      "inputs": [
        {
          "internalType": "uint256",
          "name": "",
          "type": "uint256"
        }
      ],
      "name": "slashingHistory",
      "outputs": [
        {
          "internalType": "address",
          "name": "sequencer",
          "type": "address"
        },
        {
          "internalType": "uint256",
          "name": "amount",
          "type": "uint256"
        },
        {
          "internalType": "string",
          "name": "reason",
          "type": "string"
        },
        {
          "internalType": "uint256",
          "name": "timestamp",
          "type": "uint256"
        },
        {
          "internalType": "bytes",
          "name": "proof",
          "type": "bytes"
        }
      ],
      "stateMutability": "view",
      "type": "function"
    },
    {
      "inputs": [],
      "name": "totalStaked",
      "outputs": [
        {
          "internalType": "uint256",
          "name": "",
          "type": "uint256"
        }
      ],
      "stateMutability": "view",
      "type": "function"
    },
    {
      "inputs": [
        {
          "internalType": "address",
          "name": "newOwner",
          "type": "address"
        }
      ],
      "name": "transferOwnership",
      "outputs": [],
      "stateMutability": "nonpayable",
      "type": "function"
    },
    {
      "inputs": [
        {
          "internalType": "address",
          "name": "sequencer",
          "type": "address"
        },
        {
          "internalType": "uint256",
          "name": "tps",
          "type": "uint256"
        },
        {
          "internalType": "uint256",
          "name": "latency",
          "type": "uint256"
        },
        {
          "internalType": "uint256",
          "name": "uptime",
          "type": "uint256"
        },
        {
          "internalType": "uint256",
          "name": "errorRate",
          "type": "uint256"
        }
      ],
      "name": "updatePerformance",
      "outputs": [],
      "stateMutability": "nonpayable",
      "type": "function"
    },
    {
      "inputs": [
        {
          "internalType": "uint256",
          "name": "amount",
          "type": "uint256"
        }
      ],
      "name": "withdrawStake",
      "outputs": [],
      "stateMutability": "nonpayable",
      "type": "function"
    }
  ],
  "bytecode": "0x60a0604052346200004e576200001e62000018620000f1565b6200018c565b604051613284620003338239608051818181610a0a01528181611716015281816126310152612bb0015261328490f35b600080fd5b634e487b7160e01b600052604160045260246000fd5b90601f01601f191681019081106001600160401b038211176200008b57604052565b62000053565b90620000a8620000a060405190565b928362000069565b565b6001600160a01b031690565b90565b6001600160a01b038116036200004e57565b90505190620000a882620000b9565b906020828203126200004e57620000b691620000cb565b620000b6620035b780380380620001088162000091565b928339810190620000da565b620000b690620000aa906001600160a01b031682565b620000b69062000114565b620000b6906200012a565b620000b6620000b6620000b69290565b620000b6606462000140565b90600019905b9181191691161790565b9062000180620000b6620001889262000140565b82546200015c565b9055565b620001a2906200019c3362000203565b62000135565b608052620001bb620001b362000150565b60066200016c565b620001c84360076200016c565b620000a843600e6200016c565b620000aa620000b6620000b69290565b620000b690620001d5565b6001600160a01b03909116815260200190565b6200020d62000269565b620002196000620001e5565b6001600160a01b0381166001600160a01b038316146200023f5750620000a890620002d8565b62000265906200024e60405190565b631e4fbdf760e01b815291829160048301620001f0565b0390fd5b620000a86200027f565b620000b6600162000140565b620000a86200028d62000273565b60006200016c565b620000b690620000aa565b620000b6905462000295565b906001600160a01b039062000162565b90620002d0620000b6620001889262000135565b8254620002ac565b62000300620002f9620002ec6001620002a0565b6200019c846001620002bc565b9162000135565b907f8be0079c531659141344cd1fd0a4f28419497f9722a3daafe3b4186f6b6457e06200032c60405190565b600090a356fe6080604052600436101561001257600080fd5b60003560e01c806305d950a2146102635780630605867414610227578063137628371461025e5780631c7a07ee1461025957806325d5971f146102545780633b74d1a51461024f5780634a662f481461024a5780634e2cc94d1461024557806351b0d85a146101dc578063552829021461020457806364f98f3f14610240578063697c60451461023b5780636d46e98714610236578063715018a61461023157806376325aa31461022c578063770ea28f14610227578063775f4d69146102225780637fd4696e1461021d578063817b1cd21461021857806382fb9c84146102135780638da5cb5b1461020e57806399dbe139146102095780639f29f13514610204578063a0863fcc146101ff578063a28a0e12146101fa578063a2e53a94146101f5578063a45f2365146101f0578063a79c9bed146101eb578063b1cf9e3d146101e6578063cb1c2b5c146101e1578063d710ed93146101dc578063e177f6d2146101d7578063eedad66b146101d2578063efbca4d9146101cd578063f23aa32c146101c8578063f2fde38b146101c3578063f4eba842146101be5763fb5e7d2403610268576110d8565b611092565b61100a565b610fef565b610fab565b610f39565b610f12565b6106da565b610e15565b610ddf565b610d9c565b610ab2565b610a97565b610a7b565b6109f1565b610708565b6109bd565b610996565b61097b565b61094d565b610913565b6108e2565b6103d1565b610892565b610854565b610827565b6107df565b610797565b6106b0565b61067f565b61062a565b610588565b61052a565b6103fd565b610372565b600080fd5b6001600160a01b031690565b90565b6001600160a01b0381165b0361026857565b9050359061029b8261027c565b565b90602082820312610268576102799161028e565b61026d610279610279926001600160a01b031690565b610279906102b1565b610279906102c7565b906102e3906102d0565b600052602052604060002090565b6102799081565b61027990546102f1565b61030d9060056102d9565b90610317826102f8565b91610324600182016102f8565b916102796003610336600285016102f8565b93016102f8565b9052565b61036e61029b94610367606094989795610360608086019a6000870152565b6020850152565b6040830152565b0152565b34610268576103a361038d61038836600461029d565b610302565b9061039a94929460405190565b94859485610341565b0390f35b600091031261026857565b6102796102796102799290565b61027960326103b2565b6102796103bf565b34610268576103e13660046103a7565b6103a36103ec6103c9565b6040515b9182918290815260200190565b346102685761040d3660046103a7565b610415611261565b604051005b6102799061026d565b610279905461041a565b610279905b60ff1690565b610279905461042d565b6102799060081c610432565b6102799054610442565b6104639060026102d9565b61046c81610423565b91610479600183016102f8565b91610486600282016102f8565b91610493600383016102f8565b916104a0600482016102f8565b916104ad600583016102f8565b916104ba600682016102f8565b9161027960076104cb818501610438565b930161044e565b9694929099989795939161012088019a600089016104f7916001600160a01b03169052565b602088015260408701526060860152608085015260a084015260c0830152151560e08201526101000161029b9115159052565b34610268576103a361054561054036600461029d565b610458565b9561055899979995919594929460405190565b998a998a6104d2565b80610287565b9050359061029b82610561565b906020828203126102685761027991610567565b346102685761041561059b366004610574565b611833565b909182601f830112156102685781359167ffffffffffffffff831161026857602001926001830284011161026857565b606081830312610268576105e4828261028e565b92602082013567ffffffffffffffff811161026857836106059184016105a0565b929093604082013567ffffffffffffffff81116102685761062692016105a0565b9091565b346102685761041561063d3660046105d0565b93929092611f21565b9095949261029b9461067861036e9261067160809661066a60a088019c6000890152565b6020870152565b6040850152565b6060830152565b346102685761068f3660046103a7565b6103a361069a611f2e565b916106a795939560405190565b95869586610646565b34610268576104156106c336600461029d565b61214a565b61027960646103b2565b6102796106c8565b34610268576106ea3660046103a7565b6103a36103ec6106d2565b6102796103e86103b2565b6102796106f5565b34610268576107183660046103a7565b6103a36103ec610700565b634e487b7160e01b600052603260045260246000fd5b805482101561075c57610753600191600052602060002090565b91020190600090565b610723565b610279916008021c61026d565b906102799154610761565b600c548110156102685761079161027991600c610739565b9061076e565b34610268576103a36107b26107ad366004610574565b610779565b604051918291826001600160a01b03909116815260200190565b610279611b586103b2565b6102796107cc565b34610268576107ef3660046103a7565b6103a36103ec6107d7565b610279916008021c610432565b9061027991546107fa565b60006108226102799260036102d9565b610807565b34610268576103a361084261083d36600461029d565b610812565b60405191829182901515815260200190565b34610268576108643660046103a7565b610415612170565b9060208282031261026857813567ffffffffffffffff81116102685761062692016105a0565b34610268576104156108a536600461086c565b90612294565b9095949261029b946106786108da9261067160809661066a60a088019c60008901906001600160a01b03169052565b019015159052565b34610268576108f23660046103a7565b6103a36108fd612382565b9161090a95939560405190565b958695866108ab565b3461026857610415610926366004610574565b6127f8565b610279916008021c81565b90610279915461092b565b6102796000600d610936565b346102685761095d3660046103a7565b6103a36103ec610941565b6102796127106103b2565b610279610968565b346102685761098b3660046103a7565b6103a36103ec610973565b34610268576109a63660046103a7565b6103a36107b2612801565b6102796000600e610936565b34610268576109cd3660046103a7565b6103a36103ec6109b1565b61033d906102d0565b60208101929161029b91906109d8565b3461026857610a013660046103a7565b604051806103a37f0000000000000000000000000000000000000000000000000000000000000000826109e1565b919060a08382031261026857610a45818461028e565b92610a538260208301610567565b92610279610a648460408501610567565b936080610a748260608701610567565b9401610567565b3461026857610415610a8e366004610a2f565b93929092612959565b34610268576103a3610842610aad36600461029d565b612966565b34610268576103a361069a610ac836600461029d565b6129ea565b805482101561075c57610753600591600052602060002090565b634e487b7160e01b600052602260045260246000fd5b9060016002830492168015610b1d575b6020831014610b1857565b610ae7565b91607f1691610b0d565b80546000939291610b44610b3a83610afd565b8085529360200190565b9160018116908115610b965750600114610b5d57505050565b610b709192939450600052602060002090565b916000925b818410610b825750500190565b805484840152602090930192600101610b75565b92949550505060ff1916825215156020020190565b9061027991610b27565b634e487b7160e01b600052604160045260246000fd5b90601f01601f1916810190811067ffffffffffffffff821117610bed57604052565b610bb5565b9061029b610c0c92610c0360405190565b93848092610bab565b0383610bcb565b80546000939291610c26610b3a83610afd565b9160018116908115610b965750600114610c3f57505050565b610c529192939450600052602060002090565b916000925b818410610c645750500190565b805484840152602090930192600101610c57565b9061027991610c13565b9061029b610c0c92610c9360405190565b93848092610c78565b600b90610ca7825490565b81101561026857610cb791610acd565b50610cc181610423565b91610cce600183016102f8565b91610cdb60028201610bf2565b916102796004610ced600385016102f8565b9301610c82565b60005b838110610d075750506000910152565b8181015183820152602001610cf7565b610d38610d41602093610d4b93610d2c815190565b80835293849260200190565b95869101610cf4565b601f01601f191690565b0190565b91610d8f916102799694610d7a610d879361066a60a088019460008901906001600160a01b03169052565b8482036040860152610d17565b936060830152565b6080818403910152610d17565b34610268576103a3610db7610db2366004610574565b610c9c565b91610dc495939560405190565b95869586610d4f565b61027960156103b2565b610279610dcd565b3461026857610def3660046103a7565b6103a36103ec610dd7565b610279690a968163f0a57b4000006103b2565b610279610dfa565b3461026857610e253660046103a7565b6103a36103ec610e0d565b80516001600160a01b03168252610279916080610e6b60a08301610e5960208601516020860152565b60408501518482036040860152610d17565b92610e7b60608201516060850152565b0151906080818403910152610d17565b9061027991610e30565b90610eab610ea1835190565b8083529160200190565b9081610ebd6020830284019460200190565b926000915b838310610ed157505050505090565b90919293946020610ef4610eed83856001950387528951610e8b565b9760200190565b9301930191939290610ec2565b602080825261027992910190610e95565b3461026857610f223660046103a7565b6103a3610f2d612b15565b60405191829182610f01565b3461026857610415610f4c366004610574565b612c73565b610f5b60066102f8565b90610f6660076102f8565b90610f716008610423565b90610279600a6102f8565b61036e61029b94610f9b606094989795610360608086019a6000870152565b6001600160a01b03166040830152565b3461026857610fbb3660046103a7565b6103a3610fc6610f51565b90610fd394929460405190565b94859485610f7c565b6102796126ac6103b2565b610279610fdc565b3461026857610fff3660046103a7565b6103a36103ec610fe7565b346102685761041561101d36600461029d565b612cff565b9061104261103b611031845190565b8084529260200190565b9260200190565b9060005b8181106110535750505090565b90919261107961107260019286516001600160a01b0316815260200190565b9460200190565b929101611046565b602080825261027992910190611022565b34610268576110a23660046103a7565b6103a36110ad612d96565b60405191829182611081565b906102e3906103b2565b60006110d36102799260046110b9565b61076e565b34610268576103a36107b26110ee366004610574565b6110c3565b634e487b7160e01b600052601160045260246000fd5b9190820180921161111657565b6110f3565b1561112257565b60405162461bcd60e51b815260206004820152601660248201527f546f6f206561726c7920666f7220726f746174696f6e000000000000000000006044820152606490fd5b0390fd5b1561117257565b60405162461bcd60e51b815260206004820152601460248201527f4e6f206163746976652073657175656e636572730000000000000000000000006044820152606490fd5b906001600160a01b03905b9181191691161790565b906111dc6102796111e3926102d0565b82546111b7565b9055565b90600019906111c2565b906112016102796111e3926103b2565b82546111e7565b634e487b7160e01b600052601260045260246000fd5b90611228565b9190565b908115611233570690565b611208565b61026d6102796102799290565b61027990611238565b90815260408101929161029b9160200152565b60077f3373aa0d49316c85c45ce989bb7278a6f57aa452e33029bf5294527c5c45343e61139b61138661138060066112b86112b06102796112a1896102f8565b6112aa856102f8565b90611109565b43101561111b565b60038101956112db6112c8885490565b6112d561122460006103b2565b1161116b565b61133b60028301976113096112ef8a610423565b936113026112fb612da0565b809c6111cc565b43906111f1565b611335600485019161132f61132a611320856102f8565b6112aa60016103b2565b915490565b9061121e565b906111f1565b600182019161135c88611357611350866102f8565b60046110b9565b6111cc565b61136961026d6000611245565b6001600160a01b038316036113a0575b50506102f8565b936102d0565b9261139060405190565b91829143908361124e565b0390a2565b6113ae6113b69260026102d9565b4391016111f1565b3880611379565b156113c457565b60405162461bcd60e51b815260206004820152601a60248201527f4e6f74206120726567697374657265642073657175656e6365720000000000006044820152606490fd5b61029b9061142861142361141e3360036102d9565b610438565b6113bd565b61143990611434612e03565b611653565b61029b612e5c565b1561144857565b60405162461bcd60e51b815260206004820152601c60248201527f43616e6e6f74207769746864726177207768696c6520616374697665000000006044820152606490fd5b1561149457565b60405162461bcd60e51b815260206004820152601260248201527f496e73756666696369656e74207374616b6500000000000000000000000000006044820152606490fd5b9190820391821161111657565b156114ed57565b60405162461bcd60e51b815260206004820152601360248201527f42656c6f77206d696e696d756d207374616b65000000000000000000000000006044820152606490fd5b9061029b61153f60405190565b9283610bcb565b67ffffffffffffffff8111610bed57602090601f01601f19160190565b9061157561157083611546565b611532565b918252565b611584600f611563565b7f5374616b652077697468647261776e0000000000000000000000000000000000602082015290565b61027961157a565b801515610287565b9050519061029b826115b5565b9060208282031261026857610279916115bd565b6001600160a01b03909116815260408101929161029b9160200152565b6040513d6000823e3d90fd5b1561160e57565b60405162461bcd60e51b815260206004820152600f60248201527f5472616e73666572206661696c656400000000000000000000000000000000006044820152606490fd5b6116fe60016116666102793360026102d9565b61168161167c61167860078401610438565b1590565b611441565b01611699611691610279836102f8565b84111561148d565b6116ab836116a6836102f8565b6114d9565b6116b9611224610279610dfa565b1015801561181a575b6116cb906114e6565b6116e16116db846116a6846102f8565b826111f1565b6116f96116f2846116a6600d6102f8565b600d6111f1565b6102f8565b61170b61122460006103b2565b14611804575b61173a7f00000000000000000000000000000000000000000000000000000000000000006102d0565b602061174560405190565b9182907fa9059cbb0000000000000000000000000000000000000000000000000000000082528160008161177d8833600484016115de565b03925af180156117ff57611799916000916117d0575b50611607565b7f8108595eb6bad3acefa9da467d90cc2217686d5c5ac85460f8b7849c840645fc61139b6117c6336102d0565b926103f060405190565b6117f2915060203d6020116117f8575b6117ea8183610bcb565b8101906115ca565b38611793565b503d6117e0565b6115fb565b61181561180f6115ad565b33612e7f565b611711565b506116cb61182a610279836102f8565b841490506116c2565b61029b90611409565b9061029b9493929161184c612ee5565b9061029b9493929161186561142361141e8360036102d9565b611cb0565b1561187157565b60405162461bcd60e51b815260206004820152600f60248201527f416c726561647920736c617368656400000000000000000000000000000000006044820152606490fd5b8181029291811591840414171561111657565b8115611233570490565b60001981146111165760010190565b9061ff009060081b6111c2565b906118ff6102796111e392151590565b82546118e2565b61027960a0611532565b90826000939282370152565b9092919261192c61157082611546565b93818552818301116102685761029b916020850190611910565b61027991369161191c565b634e487b7160e01b600052600060045260246000fd5b9160001960089290920291821b911b6111c2565b921b90565b91906119916102796111e3936103b2565b908354611967565b61029b91600091611980565b8181106119b0575050565b806119be6000600193611999565b016119a5565b9190601f81116119d357505050565b6119e561029b93600052602060002090565b906020601f840181900483019310611a07575b6020601f9091010401906119a5565b90915081906119f8565b90611a1a815190565b9067ffffffffffffffff8211610bed57611a3e82611a388554610afd565b856119c4565b602090601f8311600114611a79576111e3929160009183611a6e575b5050600019600883021c1916906002021790565b015190503880611a5a565b601f19831691611a8e85600052602060002090565b9260005b818110611acc57509160029391856001969410611ab3575b50505002019055565b01516000196008601f8516021c19169055388080611aaa565b91936020600181928787015181550195019201611a92565b9061029b91611a11565b90611af7815190565b9067ffffffffffffffff8211610bed57611b1582611a388554610afd565b602090601f8311600114611b44576111e3929160009183611a6e575050600019600883021c1916906002021790565b601f19831691611b5985600052602060002090565b9260005b818110611b7d57509160029391856001969410611ab35750505002019055565b91936020600181928787015181550195019201611b5d565b9061029b91611aee565b6004611c11608061029b94611bc7611bc160008301516001600160a01b031690565b866111cc565b611bde611bd5602083015190565b600187016111f1565b611bf5611bec604083015190565b60028701611ae4565b611c0c611c03606083015190565b600387016111f1565b015190565b9101611b95565b9190611c275761029b91611b9f565b611951565b9081549168010000000000000000831015610bed5782611c5491600161029b95018155610acd565b90611c18565b9060ff906111c2565b90611c736102796111e392151590565b8254611c5a565b9190610d4181611c9181610d4b9560209181520190565b8095611910565b90815260406020820181905261027993910191611c7a565b9392909193600290611cc281836102d9565b600701611cce9061044e565b15611cd89061186a565b611ce281836102d9565b906001820193611cf1856102f8565b611cf96106f5565b611d02916118b6565b9061271091611d10836103b2565b611d19916118c9565b9586611d24826102f8565b90611d2e916114d9565b611d37916111f1565b60038401611d44816102f8565b611d4d906118d3565b611d56916111f1565b84840191611d63836102f8565b611d6e6123286103b2565b611d77916118b6565b90611d81906103b2565b611d8a916118c9565b611d9490836111f1565b6007840197611da460018a6118ef565b86611daf600d6102f8565b90611db9916114d9565b611dc490600d6111f1565b600b91611dcf611906565b6001600160a01b038616815291611de7896020850152565b611df18c8b611946565b6040840152611e01426060850152565b611e0a91611946565b6080820152611e1891611c2c565b611e21906102f8565b611e296107cc565b119283159661139b94611e93947f54feefbe9d950d84d055909aadbe66ae8707aa598d83daaca3756384a47a345699611eff575b50611ee5575b50600690810190611e7661026d83610423565b6001600160a01b0384161480611ecc575b611ea6575b50506102d0565b94611e9d60405190565b93849384611c98565b611ebb611ec592611eb5612da0565b906111cc565b60014391016111f1565b3880611e8c565b506003810154611edf61122460016103b2565b11611e87565b6000611ef991611ef485612f9d565b611c63565b38611e63565b611f0c91506001016102f8565b611f1a611224610279610dfa565b1038611e5d565b9061029b9493929161183c565b60076006611f3b826102f8565b8190611f4a906112aa836102f8565b600090431015611fa55750611f6e611f75916112aa611f68866102f8565b916102f8565b43906114d9565b611f896003611f83600c5490565b93015490565b93611f9d611f97600d6102f8565b946102f8565b929493929190565b611faf91506103b2565b611f75565b61029b90611fc0612ee5565b61029b90611fd561142361141e8360036102d9565b612087565b15611fe157565b60405162461bcd60e51b815260206004820152600b60248201527f4e6f7420736c61736865640000000000000000000000000000000000000000006044820152606490fd5b919060086111c291029161197b6001600160a01b03841b90565b91906120516102796111e3936102d0565b908354612026565b9081549168010000000000000000831015610bed578261208191600161029b95018155610739565b90612040565b6002906120a76120a2600761209c84866102d9565b0161044e565b611fda565b6120d46120bf60016120b984866102d9565b016102f8565b6120cd611224610279610dfa565b101561148d565b6120eb600060076120e584866102d9565b016118ef565b61210361167860076120fd84866102d9565b01610438565b80612132575b612111575050565b61212b600160076121258461029b966102d9565b01611c63565b6009612059565b50600954612144611224610279610dcd565b10612109565b61029b90611fb4565b61215b612ee5565b61029b61029b61216b6000611245565b613026565b61029b612153565b9061029b91612185612ee5565b6121e7565b1561219157565b60405162461bcd60e51b815260206004820152601860248201527f4e656564206d756c7469706c652073657175656e6365727300000000000000006044820152606490fd5b602080825261027993910191611c7a565b907f7e832d541c6db7daeaf4f873365635102a52a73c970cc752ba0ae24e2980f2b9612269916122796113806006612236612223600383015490565b61223061122460016103b2565b1161218a565b61227460028201611357611350600161224e84610423565b9561225887612f9d565b612260612da0565b9b8c80966111cc565b016116f943826111f1565b6102d0565b9361228f61228660405190565b928392836121d6565b0390a3565b9061029b91612178565b610279610120611532565b9061029b61236f60076122ba61229e565b946122d46122c782610423565b6001600160a01b03168752565b6122ea6122e3600183016102f8565b6020880152565b6123006122f9600283016102f8565b6040880152565b61231661230f600383016102f8565b6060880152565b61232c612325600483016102f8565b6080880152565b61234261233b600583016102f8565b60a0880152565b612358612351600683016102f8565b60c0880152565b61209c612366838301610438565b151560e0880152565b1515610100840152565b610279906122a9565b61238c6008610423565b906123a061239b8360026102d9565b612379565b6123aa60076102f8565b926123b6604083015190565b926123cf60e06123c7602086015190565b940151151590565b919493929190565b611439906123e3612e03565b6125d3565b156123ef57565b60405162461bcd60e51b815260206004820152601260248201527f416c7265616479207265676973746572656400000000000000000000000000006044820152606490fd5b1561243b57565b60405162461bcd60e51b815260206004820152601660248201527f4d61782073657175656e636572732072656163686564000000000000000000006044820152606490fd5b6001600160a01b0391821681529116602082015260608101929161029b9160400152565b156124ab57565b60405162461bcd60e51b815260206004820152601560248201527f5374616b65207472616e73666572206661696c656400000000000000000000006044820152606490fd5b906125c3610100600761029b9461251a61251460008701516001600160a01b031690565b826111cc565b612531612528602087015190565b600183016111f1565b61254861253f604087015190565b600283016111f1565b61255f612556606087015190565b600383016111f1565b61257661256d608087015190565b600483016111f1565b61258d61258460a087015190565b600583016111f1565b6125a461259b60c087015190565b600683016111f1565b01926125bc6125b660e0830151151590565b85611c63565b0151151590565b906118ef565b9061029b916124f0565b60036125ed6125e861167861141e33856102d9565b6123e8565b6126016125fb610279610dfa565b836120cd565b600690612689818301612629612615825490565b612623611224610279610dcd565b10612434565b6020856126557f00000000000000000000000000000000000000000000000000000000000000006102d0565b61265e306102d0565b600061266960405190565b80978195829461267d6323b872dd60e01b90565b84523360048501612480565b03925af180156117ff5761273b936126b061274292612772956000916127d9575b506124a4565b611ef4600091600196879361272b6126c661229e565b3383820152916126d78d6020850152565b6126e56106716127106103b2565b61270e6126f1826103b2565b6126fc816060870152565b612707816080870152565b60a0850152565b6127194360c0850152565b86151560e08401521515610100830152565b6127363360026102d9565b6125c9565b33906102d9565b61274f600c5b3390612059565b61275881612748565b61276e6116f286612769600d6102f8565b611109565b5490565b61277e611224836103b2565b146127b3575b50507f5c9c212b05f6fc5efb85e88524f097f84e6944815d4973eb06c66a2babd4a53961139b6117c6336102d0565b6113506127cb916127d2936120b933600283016111cc565b33906111cc565b3880612784565b6127f2915060203d6020116117f8576117ea8183610bcb565b386126aa565b61029b906123d7565b6102796001610423565b9061029b9493929161281b612ee5565b9061029b9493929161283461142361141e8360036102d9565b6128b5565b6102796080611532565b6003612887606061029b9461286261285c600083015190565b866111f1565b612870611bd5602083015190565b611c0c61287e604083015190565b600287016111f1565b91016111f1565b9061029b91612843565b90815260608101939261029b92909160409161036e906020830152565b61294661139b916122747f8fba6965bb87ed104958174573e9aed72332779f1c2138defec56d0960e7e77c96976129266128ed612839565b6128f5888252565b612900896020830152565b61290b8b6040830152565b612916836060830152565b6129218560056102d9565b61288e565b61293d8760056129378660026102d9565b016111f1565b88878785613079565b9461295060405190565b93849384612898565b9061029b9493929161280b565b61297361026d6008610423565b6001600160a01b038216149081612988575090565b61027991506120fd60079160026102d9565b9061029b6129da60036129ab612839565b946129bc6129b8826102f8565b8752565b6129cb6122e3600183016102f8565b6120b96122f9600283016102f8565b6060840152565b6102799061299a565b6129fd6129f88260056102d9565b6129e1565b90612a06825190565b6020830151936123cf60026120b9612a2a6060612a2460408a015190565b98015190565b95826102d9565b67ffffffffffffffff8111610bed5760208091020190565b9061157561157083612a31565b9061029b612aa76004612a67611906565b94612a746122c782610423565b612a836122e3600183016102f8565b612a926122f960028301610bf2565b612aa161230f600383016102f8565b01610c82565b6080840152565b61027990612a56565b90612ac0825490565b612ac981612a49565b92612add6020850191600052602060002090565b6000915b838310612aee5750505050565b60056020600192612afe85612aae565b815201920192019190612ae1565b61027990612ab7565b610279600b612b0c565b61029b90612b3461142361141e3360036102d9565b61143990612b40612e03565b612b91565b15612b4c57565b60405162461bcd60e51b815260206004820152600e60248201527f496e76616c696420616d6f756e740000000000000000000000000000000000006044820152606490fd5b612ba5612b9e60006103b2565b8211612b45565b612bfc602082612bd47f00000000000000000000000000000000000000000000000000000000000000006102d0565b612bdd306102d0565b6000612be860405190565b80968195829461267d6323b872dd60e01b90565b03925af180156117ff57612c17916000916117d05750611607565b612c356001612c273360026102d9565b0161133583612769836102f8565b612c466116f282612769600d6102f8565b7f8b0ed825817a2e696c9a931715af4609fc60e1701f09c89ee7645130e937eb2d61139b6117c6336102d0565b61029b90612b1f565b61029b90612c88612ee5565b612c926000611245565b6001600160a01b0381166001600160a01b03831614612cb5575061029b90613026565b61116790612cc260405190565b9182917f1e4fbdf7000000000000000000000000000000000000000000000000000000008352600483016001600160a01b03909116815260200190565b61029b90612c7c565b90612d23612d17611031845490565b92600052602060002090565b9060005b818110612d345750505090565b909192612d61612d5a600192612d4987610423565b6001600160a01b0316815260200190565b9460010190565b929101612d27565b9061027991612d08565b9061029b610c0c92612d8460405190565b93848092612d69565b61027990612d73565b6102796009612d8d565b60098054600690612db0906112c8565b8154612dbf61122460016103b2565b14612dea5761027991612de4612ddd611320600461079195016102f8565b825461132f565b90610739565b50610791600061027992610739565b61027960026103b2565b612e0d60006102f8565b612e15612df9565b908114612e275761029b9060006111f1565b6040517f3ee5aeb5000000000000000000000000000000000000000000000000000000008152600490fd5b61027960016103b2565b61029b612e67612e52565b60006111f1565b602080825261027992910190610d17565b61139b612ed27f60c32c78baeed87b47940bf4b5a12db273eb09931f25b9b08d2ce4a8e04ad83592612eb76000611ef48360036102d9565b612ec9600060076121258460026102d9565b61227481612f9d565b92612edc60405190565b91829182612e6e565b612eed612801565b3390612f01825b916001600160a01b031690565b03612f095750565b61116790612f1660405190565b9182917f118cdaa7000000000000000000000000000000000000000000000000000000008352600483016001600160a01b03909116815260200190565b634e487b7160e01b600052603160045260246000fd5b61029b91600091612040565b80548015612f98576000190190612f95612f8f8383610739565b90612f69565b55565b612f53565b612fa760006103b2565b6009805482101561302157612fbf6107918383610739565b612fd16001600160a01b038516612ef4565b14612fdf5750600101612fa7565b61029b925061027961301c9261208161301561079161300f612fff875490565b61300960016103b2565b906114d9565b86610739565b9184610739565b612f75565b505050565b6130476130416130366001610423565b6122748460016111cc565b916102d0565b907f8be0079c531659141344cd1fd0a4f28419497f9722a3daafe3b4186f6b6457e061307260405190565b808061228f565b93919260029061308c61027987846102d9565b948286019361309a856102f8565b80916130a4610968565b6130b96102796130b3896103b2565b836118b6565b8210613205575050506130d36130e4916112aa60326103b2565b6130de6127106103b2565b90613241565b925b6131036102796130fd6130f76103bf565b936103b2565b836118c9565b82116131e7575050906130d361311d916112aa60326103b2565b905b61312d611224610279610fdc565b106131d0576130d3613143916112aa60196103b2565b915b6131536112246102796106c8565b116131a3575b81613163916111f1565b6131716112246102796107cc565b1080613191575b613180575050565b600760009161212561029b94612f9d565b5061319e60078201610438565b613178565b906131c86131b86131639261300960966103b2565b6131c260006103b2565b9061322f565b919050613159565b6131b86131e19161300960c86103b2565b91613145565b101561311f57906131b86131ff9161300960646103b2565b9061311f565b92959211613214575b506130e6565b6132289194506131b89061300960646103b2565b923861320e565b908082111561323c575090565b905090565b908082101561323c57509056fea264697066735822122096e559fe064f4620286ff263915b5df599b078a9486f1c538e12a345789268c064736f6c63430008160033",
  "linkReferences": {},
  "deployedLinkReferences": {}
}