{
  "_format": "hh-sol-artifact-1",
  "contractName": "HyperIndexFactory",
  "sourceName": "contracts/HyperIndexFactory.sol",
  "abi": [
    {
      "inputs": [
        {
          "internalType": "address",
          "name": "_owner",
          "type": "address"
        }
      ],
      "stateMutability": "nonpayable",
      "type": "constructor"
    },
    {
      "inputs": [
        {
          "internalType": "address",
          "name": "owner",
          "type": "address"
        }
      ],
      "name": "OwnableInvalidOwner",
      "type": "error"
    },
    {
      "inputs": [
        {
          "internalType": "address",
          "name": "account",
          "type": "address"
        }
      ],
      "name": "OwnableUnauthorizedAccount",
      "type": "error"
    },
    {
      "anonymous": false,
      "inputs": [
        {
          "indexed": true,
          "internalType": "address",
          "name": "previousOwner",
          "type": "address"
        },
        {
          "indexed": true,
          "internalType": "address",
          "name": "newOwner",
          "type": "address"
        }
      ],
      "name": "OwnershipTransferred",
      "type": "event"
    },
    {
      "anonymous": false,
      "inputs": [
        {
          "indexed": true,
          "internalType": "address",
          "name": "token0",
          "type": "address"
        },
        {
          "indexed": true,
          "internalType": "address",
          "name": "token1",
          "type": "address"
        },
        {
          "indexed": false,
          "internalType": "address",
          "name": "pair",
          "type": "address"
        },
        {
          "indexed": false,
          "internalType": "uint256",
          "name": "pairLength",
          "type": "uint256"
        }
      ],
      "name": "PairCreated",
      "type": "event"
    },
    {
      "inputs": [],
      "name": "PAIR_CODE_HASH",
      "outputs": [
        {
          "internalType": "bytes32",
          "name": "",
          "type": "bytes32"
        }
      ],
      "stateMutability": "view",
      "type": "function"
    },
    {
      "inputs": [
        {
          "internalType": "uint256",
          "name": "",
          "type": "uint256"
        }
      ],
      "name": "allPairs",
      "outputs": [
        {
          "internalType": "address",
          "name": "",
          "type": "address"
        }
      ],
      "stateMutability": "view",
      "type": "function"
    },
    {
      "inputs": [],
      "name": "allPairsLength",
      "outputs": [
        {
          "internalType": "uint256",
          "name": "",
          "type": "uint256"
        }
      ],
      "stateMutability": "view",
      "type": "function"
    },
    {
      "inputs": [
        {
          "internalType": "address",
          "name": "tokenA",
          "type": "address"
        },
        {
          "internalType": "address",
          "name": "tokenB",
          "type": "address"
        }
      ],
      "name": "createPair",
      "outputs": [
        {
          "internalType": "address",
          "name": "pair",
          "type": "address"
        }
      ],
      "stateMutability": "nonpayable",
      "type": "function"
    },
    {
      "inputs": [],
      "name": "feeTo",
      "outputs": [
        {
          "internalType": "address",
          "name": "",
          "type": "address"
        }
      ],
      "stateMutability": "view",
      "type": "function"
    },
    {
      "inputs": [
        {
          "internalType": "address",
          "name": "",
          "type": "address"
        },
        {
          "internalType": "address",
          "name": "",
          "type": "address"
        }
      ],
      "name": "getPair",
      "outputs": [
        {
          "internalType": "address",
          "name": "",
          "type": "address"
        }
      ],
      "stateMutability": "view",
      "type": "function"
    },
    {
      "inputs": [],
      "name": "owner",
      "outputs": [
        {
          "internalType": "address",
          "name": "",
          "type": "address"
        }
      ],
      "stateMutability": "view",
      "type": "function"
    },
    {
      "inputs": [],
      "name": "renounceOwnership",
      "outputs": [],
      "stateMutability": "nonpayable",
      "type": "function"
    },
    {
      "inputs": [
        {
          "internalType": "address",
          "name": "_feeTo",
          "type": "address"
        }
      ],
      "name": "setFeeTo",
      "outputs": [],
      "stateMutability": "nonpayable",
      "type": "function"
    },
    {
      "inputs": [
        {
          "internalType": "address",
          "name": "newOwner",
          "type": "address"
        }
      ],
      "name": "transferOwnership",
      "outputs": [],
      "stateMutability": "nonpayable",
      "type": "function"
    }
  ],
  "bytecode": "0x60806040523462000030576200001e62000018620000d3565b620000f6565b60405161383a62000263823961383a90f35b600080fd5b634e487b7160e01b600052604160045260246000fd5b90601f01601f191681019081106001600160401b038211176200006d57604052565b62000035565b906200008a6200008260405190565b92836200004b565b565b6001600160a01b031690565b90565b6001600160a01b038116036200003057565b905051906200008a826200009b565b9060208282031262000030576200009891620000ad565b6200009862003a9d80380380620000ea8162000073565b928339810190620000bc565b6200008a906200012f565b6200008c62000098620000989290565b620000989062000101565b6001600160a01b03909116815260200190565b6200013b600062000111565b6001600160a01b0381166001600160a01b038316146200016157506200008a9062000202565b62000187906200017060405190565b631e4fbdf760e01b8152918291600483016200011c565b0390fd5b62000098906200008c565b6200009890546200018b565b62000098906200008c906001600160a01b031682565b6200009890620001a2565b6200009890620001b8565b90620001e262000098620001fe92620001c3565b82546001600160a01b0319166001600160a01b03919091161790565b9055565b620002306200022962000216600062000196565b62000223846000620001ce565b620001c3565b91620001c3565b907f8be0079c531659141344cd1fd0a4f28419497f9722a3daafe3b4186f6b6457e06200025c60405190565b600090a356fe608060405260043610156200001357600080fd5b60003560e01c8063017e7e5814620000c65780631e3dd18b14620000c0578063574f2ba314620000ba578063715018a614620000b45780638da5cb5b14620000ae578063948c26ef14620000a8578063c9c6539614620000a2578063e6a43905146200009c578063f2fde38b14620000965763f46901ed03620000cc576200050d565b620004f0565b620004b7565b6200041b565b620003b8565b6200027b565b62000259565b62000228565b62000207565b62000141565b600080fd5b6000910312620000cc57565b62000100916008021c5b73ffffffffffffffffffffffffffffffffffffffff1690565b90565b90620001009154620000dd565b620001006000600362000103565b6200012990620000e7565b9052565b6020810192916200013f91906200011e565b565b34620000cc5762000154366004620000d1565b6200016f6200016262000110565b604051918291826200012d565b0390f35b805b03620000cc57565b905035906200013f8262000173565b90602082820312620000cc5762000100916200017d565b634e487b7160e01b600052603260045260246000fd5b8054821015620001de57620001d5600191600052602060002090565b91020190600090565b620001a3565b600254811015620000cc576200020062000100916002620001b9565b9062000103565b34620000cc576200016f62000162620002223660046200018c565b620001e4565b34620000cc576200023b366004620000d1565b6200016f6200024960025490565b6040519182918290815260200190565b34620000cc576200026c366004620000d1565b620002766200056f565b604051005b34620000cc576200028e366004620000d1565b6200016f6200016262000590565b634e487b7160e01b600052604160045260246000fd5b90601f01601f1916810190811067ffffffffffffffff821117620002d557604052565b6200029c565b906200013f620002ea60405190565b9283620002b2565b60005b838110620003065750506000910152565b8181015183820152602001620002f5565b6200033c62000332926020926200032c815190565b94859290565b93849101620002f2565b0190565b620001009162000317565b612c486200035c60208201620002db565b9080825262000bbd6020830139620003966200037760405190565b80926200038960208301918262000340565b90810382520382620002b2565b620003aa620003a3825190565b9160200190565b2090565b620001006200034b565b34620000cc57620003cb366004620000d1565b6200016f62000249620003ae565b6200017581620000e7565b905035906200013f82620003d9565b9190604083820312620000cc5762000100906020620004138286620003e4565b9401620003e4565b34620000cc576200016f6200016262000436366004620003f3565b90620007f5565b620000e762000100620001009273ffffffffffffffffffffffffffffffffffffffff1690565b62000100906200043d565b620001009062000463565b9062000485906200046e565b600052602052604060002090565b620004b16200010092620004ab600093600162000479565b62000479565b62000103565b34620000cc576200016f62000162620004d2366004620003f3565b9062000493565b90602082820312620000cc576200010091620003e4565b34620000cc576200027662000507366004620004d9565b62000acb565b34620000cc576200027662000524366004620004d9565b62000af2565b6200053462000afd565b6200013f62000559565b620000e762000100620001009290565b62000100906200053e565b6200013f6200056960006200054e565b62000b60565b6200013f6200052a565b6200010090620000e7565b62000100905462000579565b62000100600062000584565b15620005a457565b60405162461bcd60e51b815260206004820152602660248201527f4879706572496e646578466163746f72793a204944454e544943414c5f41444460448201527f52455353455300000000000000000000000000000000000000000000000000006064820152608490fd5b0390fd5b156200061b57565b60405162461bcd60e51b815260206004820152601f60248201527f4879706572496e646578466163746f72793a205a45524f5f41444452455353006044820152606490fd5b156200066857565b60405162461bcd60e51b815260206004820152601e60248201527f4879706572496e646578466163746f72793a20504149525f45584953545300006044820152606490fd5b620006bc6200012991620000e7565b60601b90565b601481620006d76200033c93839695620006ad565b018092620006ad565b9160206200013f929493620006fe604082019660008301906200011e565b01906200011e565b6040513d6000823e3d90fd5b9073ffffffffffffffffffffffffffffffffffffffff905b9181191691161790565b90620007486200010062000750926200046e565b825462000712565b9055565b919060086200072a9102916200077d73ffffffffffffffffffffffffffffffffffffffff841b90565b921b90565b9190620007976200010062000750936200046e565b90835462000754565b9081549168010000000000000000831015620002d55782620007cc9160016200013f95018155620001b9565b9062000782565b9160206200013f929493620007f1604082019660008301906200011e565b0152565b9091906200081a6200080784620000e7565b6200081283620000e7565b14156200059c565b6200082583620000e7565b6200083082620000e7565b101562000a42575b60009262000846846200054e565b620008686200085582620000e7565b6200086085620000e7565b141562000613565b620008a7600191620008a062000899620008926200088c87620004ab8a8962000479565b62000584565b92620000e7565b91620000e7565b1462000660565b612c48620008b860208201620002db565b9080825262000bbd6020830139604051620008de816020810162000389878983620006c2565b620008eb620003a3825190565b209060208151910187f5946200090b62000905876200046e565b6200046e565b91823b15620000cc57816200091f60405190565b9384907f485cc955000000000000000000000000000000000000000000000000000000008252818381620009588a8c60048401620006e0565b03925af191821562000a3c57620004ab85620009959388936200099b978c9762000a08575b5050620004ab866200099584620004ab888662000479565b62000734565b620009a8846002620007a0565b7f0d3648bd0f6ba80134a33ba9275ac585d9d315f0ad8355cddefde31afa28d0e962000a03620009ed620009e6620009df60025490565b956200046e565b936200046e565b93620009f860405190565b9182918883620007d3565b0390a3565b8162000a2c92903d1062000a34575b62000a238183620002b2565b810190620000d1565b38806200097d565b503d62000a17565b62000706565b9162000838565b6200013f9062000a5862000afd565b62000a6460006200054e565b62000a6f81620000e7565b62000a7a83620000e7565b1462000a8c57506200013f9062000b60565b6200060f9062000a9b60405190565b9182917f1e4fbdf7000000000000000000000000000000000000000000000000000000008352600483016200012d565b6200013f9062000a49565b6200013f9062000ae562000afd565b6200013f90600362000734565b6200013f9062000ad6565b62000b0762000590565b339062000b186200089983620000e7565b0362000b215750565b6200060f9062000b3060405190565b9182917f118cdaa7000000000000000000000000000000000000000000000000000000008352600483016200012d565b62000b8862000b8162000b74600062000584565b6200090584600062000734565b916200046e565b907f8be0079c531659141344cd1fd0a4f28419497f9722a3daafe3b4186f6b6457e062000bb460405190565b808062000a0356fe60806040523462000026576200001462000180565b60405161283462000414823961283490f35b600080fd5b634e487b7160e01b600052604160045260246000fd5b90601f01601f191681019081106001600160401b038211176200006357604052565b6200002b565b90620000806200007860405190565b928362000041565b565b6001600160401b0381116200006357602090601f01601f19160190565b90620000b5620000af8362000082565b62000069565b918252565b620000c6600d6200009f565b6c04879706572496e646578204c5609c1b602082015290565b620000e9620000ba565b90565b620000f860056200009f565b64048492d4c560dc1b602082015290565b620000e9620000ec565b906001600160a01b03905b9181191691161790565b620000e9906200013e906001600160a01b031682565b6001600160a01b031690565b620000e99062000128565b620000e9906200014a565b9062000174620000e96200017c9262000155565b825462000113565b9055565b6200019f6200018e620000df565b6200019862000109565b90620001ef565b6200008033600662000160565b620000e9620000e9620000e99290565b620000e96001620001ac565b90600019906200011e565b90620001e7620000e96200017c92620001ac565b8254620001c8565b90620001fb91620003f9565b6200008062000209620001bc565b6005620001d3565b634e487b7160e01b600052602260045260246000fd5b90600160028304921680156200024a575b60208310146200024457565b62000211565b91607f169162000238565b9160001960089290920291821b911b6200011e565b91906200027f620000e96200017c93620001ac565b90835462000255565b62000080916000916200026a565b818110620002a2575050565b80620002b2600060019362000288565b0162000296565b9190601f8111620002c957505050565b620002dd6200008093600052602060002090565b906020601f84018190048301931062000301575b6020601f90910104019062000296565b9091508190620002f1565b9062000316815190565b906001600160401b03821162000063576200033e8262000337855462000227565b85620002b9565b602090601f83116001146200037d576200017c92916000918362000371575b5050600019600883021c1916906002021790565b0151905038806200035d565b601f198316916200039385600052602060002090565b9260005b818110620003d457509160029391856001969410620003ba575b50505002019055565b01516000196008601f8516021c19169055388080620003b1565b9193602060018192878701518155019501920162000397565b9062000080916200030c565b906200040b62000080926003620003ed565b6004620003ed56fe6080604052600436101561001257600080fd5b60003560e01c8063022c0d9f1461018257806306fdde031461017d5780630902f1ac14610178578063095ea7b3146101735780630dfe16811461016e57806318160ddd1461016957806323b872dd14610164578063313ce5671461015f578063485cc9551461015a5780635909c0d5146101555780635a3d5493146101505780636a6278421461014b57806370a08231146101465780637464fc3d1461014157806389afcb441461013c57806395d89b4114610137578063a9059cbb14610132578063ba9a7a561461012d578063bc25cf7714610128578063c45a015514610123578063d21220a71461011e578063dd62ed3e146101195763fff6cae903610187576106fa565b6106de565b6106c3565b61069c565b610678565b61065d565b610621565b610606565b6105d8565b6105a6565b61057f565b610564565b610535565b61050e565b6104d3565b610481565b610465565b610410565b6103db565b610382565b610316565b6102ef565b610253565b600080fd5b805b0361018757565b905035906101a28261018c565b565b6001600160a01b031690565b90565b6001600160a01b03811661018e565b905035906101a2826101b3565b909182601f830112156101875781359167ffffffffffffffff831161018757602001926001830284011161018757565b90608082820312610187576102148183610195565b926102228260208501610195565b9261023083604083016101c2565b92606082013567ffffffffffffffff81116101875761024f92016101cf565b9091565b346101875761026f6102663660046101ff565b93929092610ff6565b604051005b0390f35b600091031261018757565b60005b8381106102965750506000910152565b8181015183820152602001610286565b6102c76102d06020936102da936102bb815190565b80835293849260200190565b95869101610283565b601f01601f191690565b0190565b60208082526101b0929101906102a6565b34610187576102ff366004610278565b61027461030a6110fb565b604051918291826102de565b3461018757610326366004610278565b610274610331611151565b604080516001600160701b03948516815293909216602084015263ffffffff16908201529081906060820190565b9190604083820312610187576101b090602061037b82866101c2565b9401610195565b346101875761027461039e61039836600461035f565b90611171565b60405191829182901515815260200190565b6101b0916008021c6001600160a01b031690565b906101b091546103b0565b6101b0600060076103c4565b34610187576103eb366004610278565b6102746103f66103cf565b604051918291826001600160a01b03909116815260200190565b3461018757610420366004610278565b61027461042b611192565b6040515b9182918290815260200190565b9091606082840312610187576101b061045584846101c2565b93604061037b82602087016101c2565b346101875761027461039e61047b36600461043c565b9161119c565b3461018757610491366004610278565b61027461049c6111c5565b6040519182918260ff909116815260200190565b9190604083820312610187576101b09060206104cc82866101c2565b94016101c2565b346101875761026f6104e63660046104b0565b9061124b565b6101b0916008021c81565b906101b091546104ec565b6101b06000600a6104f7565b346101875761051e366004610278565b61027461042b610502565b6101b06000600b6104f7565b3461018757610545366004610278565b61027461042b610529565b90602082820312610187576101b0916101c2565b346101875761027461042b61057a366004610550565b6115df565b346101875761027461042b610595366004610550565b611602565b6101b06000600c6104f7565b34610187576105b6366004610278565b61027461042b61059a565b9081526040810192916101a29160200152565b0152565b34610187576105f06105eb366004610550565b611a0e565b906102746105fd60405190565b928392836105c1565b3461018757610616366004610278565b61027461030a611a1a565b346101875761027461039e61063736600461035f565b90611a24565b6101b06101b06101b09290565b6101b06103e861063d565b6101b061064a565b346101875761066d366004610278565b61027461042b610655565b346101875761026f61068b366004610550565b611bf4565b6101b0600060066103c4565b34610187576106ac366004610278565b6102746103f6610690565b6101b0600060086103c4565b34610187576106d3366004610278565b6102746103f66106b7565b346101875761027461042b6106f43660046104b0565b90611bfd565b346101875761070a366004610278565b61026f611d28565b9061072794939291610722611d3a565b610aea565b6101a2611d93565b1561073657565b60405162461bcd60e51b815260206004820152602660248201527f4879706572496e6465783a20494e53554646494349454e545f4f55545055545f60448201527f414d4f554e5400000000000000000000000000000000000000000000000000006064820152608490fd5b0390fd5b6101b06101b06101b0926001600160701b031690565b156107c257565b60405162461bcd60e51b815260206004820152602260248201527f4879706572496e6465783a20494e53554646494349454e545f4c49515549444960448201527f54590000000000000000000000000000000000000000000000000000000000006064820152608490fd5b6101b0906101a4565b6101b0905461082d565b1561084757565b60405162461bcd60e51b815260206004820152601660248201527f4879706572496e6465783a20494e56414c49445f544f000000000000000000006044820152606490fd5b6101a46101b06101b0926001600160a01b031690565b6101b09061088c565b6101b0906108a2565b634e487b7160e01b600052604160045260246000fd5b90601f01601f1916810190811067ffffffffffffffff8211176108ec57604052565b6108b4565b80151561018e565b905051906101a2826108f1565b90602082820312610187576101b0916108f9565b6001600160a01b0390911681526040810192916101a29160200152565b6040513d6000823e3d90fd5b90826000939282370152565b91906102d081610966816102da9560209181520190565b8095610943565b9093916101b0959361099d6109a492610996608086019860008701906001600160a01b03169052565b6020850152565b6040830152565b606081850391015261094f565b905051906101a28261018c565b90602082820312610187576101b0916109b1565b634e487b7160e01b600052601160045260246000fd5b919082039182116109f557565b6109d2565b15610a0157565b60405162461bcd60e51b815260206004820152602560248201527f4879706572496e6465783a20494e53554646494349454e545f494e5055545f4160448201527f4d4f554e540000000000000000000000000000000000000000000000000000006064820152608490fd5b818102929181159184041417156109f557565b15610a8657565b60405162461bcd60e51b815260206004820152600d60248201527f4879706572496e6465783a204b000000000000000000000000000000000000006044820152606490fd5b6105d46101a29461099d606094989795610996608086019a6000870152565b9390929192600091610afb8361063d565b861191828315610fe0575b610b0f9061072f565b610b17611151565b50929095610b24876107a5565b891080610fca575b610b35906107bb565b610b3f6007610836565b90610b4a6008610836565b956001600160a01b0383166001600160a01b038b16141580610fb4575b610b7090610840565b610f70575b610b7e8761063d565b8411610ef2575b82610b96610b928961063d565b9190565b11610e4e575b50610bb09150610bab906108ab565b6108ab565b926370a08231610bbf306108ab565b916020610bcb60405190565b8097610bd78560e01b90565b82526001600160a01b038616600483015260249082905afa958615610e13578796610e18575b5091602091610c2b610c14610bab610c42966108ab565b91610c1e60405190565b9586948593849360e01b90565b83526001600160a01b031660048301526024820190565b03915afa928315610e13577fd78ad95fa46c994b6551d0da85fc275fe613ce37657fb8d5e3d130840159d82296610dac94610d87938891610de4575b50610c946101b08c610c8f856107a5565b6109e8565b871115610dd557610cb1610cab8c610c8f856107a5565b886109e8565b965b610cc36101b087610c8f876107a5565b821115610dc357610cfe610ce3610cdd88610c8f886107a5565b846109e8565b995b610cee8161063d565b8a11908115610db1575b506109fa565b610d82610d5189610d398c610d3f610d2e610d4b610d456103e896610d3f610d2e610d288a61063d565b8d610a6c565b91610d39600361063d565b90610a6c565b906109e8565b9561063d565b89610a6c565b610d7b610b926101b0610d6f610d66896107a5565b610d398b6107a5565b610d39620f424061063d565b1015610a7f565b611f11565b610d99610d93336108ab565b966108ab565b96610da360405190565b94859485610acb565b0390a3565b610dbb915061063d565b8a1138610cf8565b610cfe610dcf8a61063d565b99610ce5565b610dde8861063d565b96610cb3565b610e06915060203d602011610e0c575b610dfe81836108ca565b8101906109be565b38610c7e565b503d610df4565b610937565b610c429391965091610c2b610c14610bab610e41602096873d8911610e0c57610dfe81836108ca565b9994965050505091610bfd565b610e5a610bab8a6108ab565b90813b1561018757879185838d610ea7610e7360405190565b988996879586947f859d1746000000000000000000000000000000000000000000000000000000008652336004870161096d565b03925af1908115610e1357610bb092610bab92610ec6575b5090610b9c565b610ee590883d8a11610eeb575b610edd81836108ca565b810190610278565b38610ebf565b503d610ed3565b610f2e602085610f04610bab8a6108ab565b8c8b610f0f60405190565b809681958294610f2363a9059cbb60e01b90565b84526004840161091a565b03925af18015610e1357610f43575b50610b85565b610f649060203d602011610f69575b610f5c81836108ca565b810190610906565b610f3d565b503d610f52565b610f8260208b610f04610bab866108ab565b03925af18015610e1357610f97575b50610b75565b610faf9060203d602011610f6957610f5c81836108ca565b610f91565b506001600160a01b038a81169088161415610b67565b50610b35610fd7856107a5565b84109050610b2c565b50610b0f610fed8561063d565b82119050610b06565b906101a294939291610712565b634e487b7160e01b600052602260045260246000fd5b9060016002830492168015611039575b602083101461103457565b611003565b91607f1691611029565b8054600093929161106061105683611019565b8085529360200190565b91600181169081156110b2575060011461107957505050565b61108c9192939450600052602060002090565b916000925b81841061109e5750500190565b805484840152602090930192600101611091565b92949550505060ff1916825215156020020190565b906101b091611043565b906101a26110eb926110e260405190565b938480926110c7565b03836108ca565b6101b0906110d1565b6101b060036110f2565b6101b0905b6001600160701b031690565b6101b09054611105565b6101b09060701c61110a565b6101b09054611120565b6101b09060e01c5b63ffffffff1690565b6101b09054611136565b61115b6009611116565b90611166600961112c565b906101b06009611147565b61117c919033612109565b600190565b6101b09081565b6101b09054611181565b6101b06002611188565b61117c9291906111ad83338361213d565b6121bb565b6111bf6101b06101b09290565b60ff1690565b6101b060126111b2565b156111d657565b60405162461bcd60e51b815260206004820152601560248201527f4879706572496e6465783a20464f5242494444454e00000000000000000000006044820152606490fd5b906001600160a01b03905b9181191691161790565b906112406101b0611247926108ab565b825461121b565b9055565b906112716101a29261126a6112636101a46006610836565b33146111cf565b6007611230565b6008611230565b9061128a91611285611d3a565b611361565b906101a2611d93565b634e487b7160e01b600052601260045260246000fd5b81156112b3570490565b611293565b6101a46101b06101b09290565b6101b0906112b8565b156112d557565b60405162461bcd60e51b815260206004820152602960248201527f4879706572496e6465783a20494e53554646494349454e545f4c49515549444960448201527f54595f4d494e54454400000000000000000000000000000000000000000000006064820152608490fd5b9060001990611226565b9061135a6101b06112479261063d565b8254611340565b509061136b611151565b5061137c610bab610bab6007610836565b906370a082319061138c306108ab565b602061139760405190565b80956113a38660e01b90565b82526001600160a01b038416600483015260249082905afa928315610e13576113fd946000946115bb575b5090602091610c2b6113e6610bab610bab6008610836565b916113f060405190565b9788948593849360e01b90565b03915afa928315610e135760009361159a575b5061142361141d856107a5565b836109e8565b93611436611430836107a5565b856109e8565b9361144183836122c8565b9361144a611192565b611454600061063d565b8103611529575091859493916114d893610d826114c49b61149e6114997f4c209b5fc8ad50758f13e2e1088ba56a560dff690a1c6fef26394f4c03821c4f9b8d610a6c565b612458565b906114b16114aa61064a565b80936109e8565b9d8e926114bf61dead6112c5565b612505565b6114bf6114d1600061063d565b83116112ce565b6114f8575b6114e6336108ab565b926114f36105fd60405190565b0390a2565b61152461151d61151061150b6009611116565b6107a5565b610d3961150b600961112c565b600c61134a565b6114dd565b916114d89391610d826115938561158d61158461157d61156e8f9a7f4c209b5fc8ad50758f13e2e1088ba56a560dff690a1c6fef26394f4c03821c4f9f9e9d9b610a6c565b6115778a6107a5565b906112a9565b928c610a6c565b611577896107a5565b90612446565b809c6114c4565b6115b491935060203d602011610e0c57610dfe81836108ca565b9138611410565b6020929194506115d790833d8511610e0c57610dfe81836108ca565b9390916113ce565b6101b0906000611278565b906115f4906108ab565b600052602052604060002090565b6116196101b091611611600090565b5060006115ea565b611188565b90611631929161162c611d3a565b6116ad565b90916101a2611d93565b1561164257565b60405162461bcd60e51b815260206004820152602960248201527f4879706572496e6465783a20494e53554646494349454e545f4c49515549444960448201527f54595f4255524e454400000000000000000000000000000000000000000000006064820152608490fd5b50506116b7611151565b509190926116c56007610836565b916116dc610bab6116d66008610836565b946108ab565b6370a082316116ea306108ab565b946116f460405190565b906116ff8360e01b90565b82526001600160a01b0387166004830152602082602481875afa918215610e13576000926119e5575b50610bab611735916108ab565b9161173f60405190565b9761174a8260e01b90565b89526001600160a01b03881660048a0152602089602481875afa988915610e13576000996119be575b5088996117a9979899506117868a611602565b926117ba6117ae61179785856122c8565b966117a0611192565b9b8c9188610a6c565b6112a9565b996117a98b9e87610a6c565b95869b6117e66000968c6117d0610b928a61063d565b11806119a8575b6117e09061163b565b82612542565b8961180e60208d8c63a9059cbb948b6117fe60405190565b809681958294610f238b60e01b90565b03925af18015610e13578c92602092610f239261198d575b5061183f8c61183460405190565b958694859460e01b90565b03818a875af18015610e1357611970575b50602061185c60405190565b809a6118688660e01b90565b82526001600160a01b038416600483015260249082905afa918215610e13576118b299879361194c575b50610c2b8394602094506118a560405190565b9b8c948593849360e01b90565b03915afa908115610e13577fdccd412f0b1252819cb1fd330b93224ca42612892bb3f4f789976e6d81936496976118ef959261192b575b50611f11565b611913575b611906611900336108ab565b936108ab565b93610dac6105fd60405190565b61192661151d61151061150b6009611116565b6118f4565b61194591925060203d602011610e0c57610dfe81836108ca565b90386118e9565b60209350611969610c2b91853d8711610e0c57610dfe81836108ca565b9350611892565b6119889060203d602011610f6957610f5c81836108ca565b611850565b6119a390843d8611610f6957610f5c81836108ca565b611826565b506117e06119b58961063d565b8b1190506117d7565b6117a9979899506119dd9060203d602011610e0c57610dfe81836108ca565b989796611773565b611735919250611a06610bab9160203d602011610e0c57610dfe81836108ca565b929150611728565b61024f9060008061161e565b6101b060046110f2565b61117c9190336121bb565b61072790611a3b611d3a565b611a456007610836565b611a5b610bab611a556008610836565b926108ab565b9163a9059cbb926370a0823190611a71306108ab565b93611a7b60405190565b91611a868460e01b90565b83526001600160a01b0386166004840152602083602481845afa908115610e1357611ac7602092611af095600091611bd7575b50610d3f61150b6009611116565b90611ae460008a611ad760405190565b9788958694859360e01b90565b83528b6004840161091a565b03925af1918215610e1357610bab610c2b92611b1492602095611bbc575b506108ab565b92611b2c611b2160405190565b968793849360e01b90565b0381845afa928315610e13576000611b59602095610f23938391611b9f575b50610d3f61150b600961112c565b95611b73611b6660405190565b9788968795869460e01b90565b03925af18015610e1357611b845750565b611b9c9060203d602011610f6957610f5c81836108ca565b50565b611bb69150873d8911610e0c57610dfe81836108ca565b38611b4b565b611bd290863d8811610f6957610f5c81836108ca565b611b0e565b611bee9150843d8611610e0c57610dfe81836108ca565b38611ab9565b6101a290611a2f565b6101b091611c1861161992611c10600090565b5060016115ea565b6115ea565b611c25611d3a565b610727611c38610bab610bab6007610836565b6370a08231611c46306108ab565b6020611c5160405190565b8094611c5d8560e01b90565b82526001600160a01b038416600483015260249082905afa908115610e1357611cb793600092611d08575b5060209192610c2b611ca0610bab610bab6008610836565b91611caa60405190565b9687948593849360e01b90565b03915afa8015610e13576101a292600091611ce9575b50611cd86009611116565b90611ce3600961112c565b92611f11565b611d02915060203d602011610e0c57610dfe81836108ca565b38611ccd565b60209250611d2290833d8511610e0c57610dfe81836108ca565b91611c88565b6101a2611c1d565b6101b0600261063d565b611d446005611188565b611d4c611d30565b908114611d5e576101a290600561134a565b6040517f3ee5aeb5000000000000000000000000000000000000000000000000000000008152600490fd5b6101b0600161063d565b6101a2611d9e611d89565b600561134a565b15611dac57565b60405162461bcd60e51b815260206004820152601460248201527f4879706572496e6465783a204f564552464c4f570000000000000000000000006044820152606490fd5b81156112b3570690565b61113e6101b06101b09290565b63ffffffff908116911690039063ffffffff82116109f557565b61110a6101b06101b09290565b6101b06101b06101b09263ffffffff1690565b906001600160701b0390611226565b61110a6101b06101b0926001600160701b031690565b90611e776101b061124792611e51565b8254611e42565b907bffffffffffffffffffffffffffff00000000000000000000000000009060701b611226565b90611eb56101b061124792611e51565b8254611e7e565b907fffffffff000000000000000000000000000000000000000000000000000000009060e01b611226565b61113e6101b06101b09263ffffffff1690565b90611f0a6101b061124792611ee7565b8254611ebc565b611fb991611fad611fa6611fb293611fc097611f476001600160701b03611f37816107a5565b84111590816120f6575b50611da5565b611f66611f61611f5b64010000000061063d565b42611df1565b611dfb565b97611f7a611f746009611147565b8a611e08565b91611f856000611dfb565b63ffffffff841611806120da575b806120be575b612025575b505050611e22565b6009611e67565b611e22565b6009611ea5565b6009611efa565b7f1c411e9a96e071241c2f21f7726b17ae89e3cab4c78be50e062b03a9fffbbad1611feb6009611116565b611ff5600961112c565b9061202061200260405190565b928392836001600160701b0391821681529116602082015260400190565b0390a1565b6120b69261208561209f6120af946117a96120426120a5966107a5565b91612085670de0b6b3a764000061209a61209361208961207c61207561206f61206a8761063d565b8b0290565b976107a5565b80976112a9565b6120858c611e2f565b0290565b6102da600a611188565b600a61134a565b61063d565b91611e2f565b6102da600b611188565b600b61134a565b388080611f9e565b506120c96000611e22565b6001600160701b0382161415611f99565b506120e56000611e22565b6001600160701b0383161415611f93565b61210091506107a5565b86111538611f41565b916001916101a293612580565b6001600160a01b0390911681526060810193926101a29290916040916105d4906020830152565b916121488284611bfd565b6000198110612158575b50505050565b81811061217e579161216f61217594926000940390565b91612580565b38808080612152565b826107a18361218c60405190565b9384937ffb8f41b200000000000000000000000000000000000000000000000000000000855260048501612116565b9291906121c860006112c5565b936001600160a01b0385166001600160a01b03821614612250576001600160a01b0385166001600160a01b03831614612206576101a29394506126af565b6107a18561221360405190565b9182917fec442f05000000000000000000000000000000000000000000000000000000008352600483016001600160a01b03909116815260200190565b6107a18561225d60405190565b9182917f96c6fd1e000000000000000000000000000000000000000000000000000000008352600483016001600160a01b03909116815260200190565b905051906101a2826101b3565b90602082820312610187576101b09161229a565b919082018092116109f557565b9091906122db610bab610bab6006610836565b9060206122e760405190565b7f017e7e5800000000000000000000000000000000000000000000000000000000815292839060049082905afa918215610e1357600092612415575b506000906123336101a4836112c5565b6001600160a01b038416141590819561234c600c611188565b92156123f05761235b8461063d565b8303612369575b5050505050565b61149961238591610d3961237f61238b956107a5565b916107a5565b91612458565b808211612399575b80612362565b6123d2916115776123cc926123c76123bc6123b2611192565b610d3984876109e8565b93610d39600561063d565b6122bb565b9161063d565b81116123e0575b8080612393565b6123e991612505565b38806123d9565b5050909150612401610b928361063d565b036124095750565b61151d6101a29161063d565b61243891925060203d60201161243f575b61243081836108ca565b8101906122a7565b9038612323565b503d612426565b9080821015612453575090565b905090565b906000612465600361063d565b8311156124e4575061249c826002612486612480600261063d565b836112a9565b916001938493612496600161063d565b906122bb565b935b6124a85750505050565b909192946124b38190565b8610156124de57506124d56124cc866123c781856112a9565b6115778461063d565b9291908261249e565b94612152565b916124f2610b92600061063d565b036124f957565b90506101b0600161063d565b919061251160006112c5565b926001600160a01b0384166001600160a01b03821614612535576101a292936126af565b6107a18461221360405190565b919061254e60006112c5565b926001600160a01b0384166001600160a01b0382161461257357926101a292936126af565b6107a18461225d60405190565b90919261258d60006112c5565b6001600160a01b0381166001600160a01b03841614612665576001600160a01b0381166001600160a01b0385161461261b57506125d8846125d385611c188660016115ea565b61134a565b6125e157505050565b610dac6126116119007f8c5be1e5ebec7d5bd14f71427d1e84f3dd0314c0f7b2291e5b200ac8c7c3b925936108ab565b9361042f60405190565b6107a19061262860405190565b9182917f94280d62000000000000000000000000000000000000000000000000000000008352600483016001600160a01b03909116815260200190565b6107a19061267260405190565b9182917fe602df05000000000000000000000000000000000000000000000000000000008352600483016001600160a01b03909116815260200190565b8160006126bb816112c5565b6001600160a01b0381166001600160a01b03851603612763577fddf252ad1be2c89b69c2b068fc378daa952ba7f163c4a11628f55a4df523b3ef93610dac936126119361271d611900946101a46127168c6123c76002611188565b600261134a565b6001600160a01b03831603612743575050610bab6127168861273f6002611188565b0390565b610bab91612750916115ea565b61275d896102da83611188565b9061134a565b90915061277361161984846115ea565b8581106127c1577fddf252ad1be2c89b69c2b068fc378daa952ba7f163c4a11628f55a4df523b3ef9385610dac9461271d612611956101a46127b78c611900980390565b6125d387866115ea565b836107a1876127cf60405190565b9384937fe450d38c0000000000000000000000000000000000000000000000000000000085526004850161211656fea26469706673582212203fbc6dd7549ba5b76c97e2fa4be99aa9bd2eda0bfb0c6379762b1537a883593364736f6c63430008160033a26469706673582212206497e62dc9e76a718139c55c5f659d1f931c83ee6ad39e1f6b9ee8c3775d657064736f6c63430008160033",
  "linkReferences": {},
  "deployedLinkReferences": {}
}