{
  "_format": "hh-sol-artifact-1",
  "contractName": "HyperIndexSettlement",
  "sourceName": "contracts/HyperIndexSettlement.sol",
  "abi": [
    {
      "inputs": [
        {
          "internalType": "address",
          "name": "_feeRecipient",
          "type": "address"
        }
      ],
      "stateMutability": "nonpayable",
      "type": "constructor"
    },
    {
      "inputs": [],
      "name": "EnforcedPause",
      "type": "error"
    },
    {
      "inputs": [],
      "name": "ExpectedPause",
      "type": "error"
    },
    {
      "inputs": [
        {
          "internalType": "address",
          "name": "owner",
          "type": "address"
        }
      ],
      "name": "OwnableInvalidOwner",
      "type": "error"
    },
    {
      "inputs": [
        {
          "internalType": "address",
          "name": "account",
          "type": "address"
        }
      ],
      "name": "OwnableUnauthorizedAccount",
      "type": "error"
    },
    {
      "inputs": [],
      "name": "ReentrancyGuardReentrantCall",
      "type": "error"
    },
    {
      "anonymous": false,
      "inputs": [
        {
          "indexed": true,
          "internalType": "address",
          "name": "newRecipient",
          "type": "address"
        }
      ],
      "name": "FeeRecipientUpdated",
      "type": "event"
    },
    {
      "anonymous": false,
      "inputs": [
        {
          "indexed": false,
          "internalType": "uint256",
          "name": "newFeeRate",
          "type": "uint256"
        }
      ],
      "name": "FeeUpdated",
      "type": "event"
    },
    {
      "anonymous": false,
      "inputs": [
        {
          "indexed": true,
          "internalType": "address",
          "name": "operator",
          "type": "address"
        }
      ],
      "name": "OperatorAdded",
      "type": "event"
    },
    {
      "anonymous": false,
      "inputs": [
        {
          "indexed": true,
          "internalType": "address",
          "name": "operator",
          "type": "address"
        }
      ],
      "name": "OperatorRemoved",
      "type": "event"
    },
    {
      "anonymous": false,
      "inputs": [
        {
          "indexed": true,
          "internalType": "address",
          "name": "previousOwner",
          "type": "address"
        },
        {
          "indexed": true,
          "internalType": "address",
          "name": "newOwner",
          "type": "address"
        }
      ],
      "name": "OwnershipTransferred",
      "type": "event"
    },
    {
      "anonymous": false,
      "inputs": [
        {
          "indexed": false,
          "internalType": "address",
          "name": "account",
          "type": "address"
        }
      ],
      "name": "Paused",
      "type": "event"
    },
    {
      "anonymous": false,
      "inputs": [
        {
          "indexed": true,
          "internalType": "address",
          "name": "token",
          "type": "address"
        }
      ],
      "name": "TokenAdded",
      "type": "event"
    },
    {
      "anonymous": false,
      "inputs": [
        {
          "indexed": true,
          "internalType": "address",
          "name": "token",
          "type": "address"
        }
      ],
      "name": "TokenRemoved",
      "type": "event"
    },
    {
      "anonymous": false,
      "inputs": [
        {
          "indexed": true,
          "internalType": "bytes32",
          "name": "tradeId",
          "type": "bytes32"
        },
        {
          "indexed": true,
          "internalType": "address",
          "name": "buyer",
          "type": "address"
        },
        {
          "indexed": true,
          "internalType": "address",
          "name": "seller",
          "type": "address"
        },
        {
          "indexed": false,
          "internalType": "address",
          "name": "tokenBuy",
          "type": "address"
        },
        {
          "indexed": false,
          "internalType": "address",
          "name": "tokenSell",
          "type": "address"
        },
        {
          "indexed": false,
          "internalType": "uint256",
          "name": "amountBuy",
          "type": "uint256"
        },
        {
          "indexed": false,
          "internalType": "uint256",
          "name": "amountSell",
          "type": "uint256"
        },
        {
          "indexed": false,
          "internalType": "uint256",
          "name": "buyerFee",
          "type": "uint256"
        },
        {
          "indexed": false,
          "internalType": "uint256",
          "name": "sellerFee",
          "type": "uint256"
        },
        {
          "indexed": false,
          "internalType": "uint256",
          "name": "timestamp",
          "type": "uint256"
        }
      ],
      "name": "TradeSettled",
      "type": "event"
    },
    {
      "anonymous": false,
      "inputs": [
        {
          "indexed": false,
          "internalType": "address",
          "name": "account",
          "type": "address"
        }
      ],
      "name": "Unpaused",
      "type": "event"
    },
    {
      "inputs": [],
      "name": "MAX_FEE_RATE",
      "outputs": [
        {
          "internalType": "uint256",
          "name": "",
          "type": "uint256"
        }
      ],
      "stateMutability": "view",
      "type": "function"
    },
    {
      "inputs": [
        {
          "internalType": "address",
          "name": "operator",
          "type": "address"
        }
      ],
      "name": "addOperator",
      "outputs": [],
      "stateMutability": "nonpayable",
      "type": "function"
    },
    {
      "inputs": [
        {
          "internalType": "address",
          "name": "token",
          "type": "address"
        }
      ],
      "name": "addToken",
      "outputs": [],
      "stateMutability": "nonpayable",
      "type": "function"
    },
    {
      "inputs": [
        {
          "internalType": "bytes[]",
          "name": "trades",
          "type": "bytes[]"
        }
      ],
      "name": "batchSettleTrades",
      "outputs": [],
      "stateMutability": "nonpayable",
      "type": "function"
    },
    {
      "inputs": [
        {
          "internalType": "uint256",
          "name": "amount",
          "type": "uint256"
        }
      ],
      "name": "calculateFee",
      "outputs": [
        {
          "internalType": "uint256",
          "name": "",
          "type": "uint256"
        }
      ],
      "stateMutability": "view",
      "type": "function"
    },
    {
      "inputs": [],
      "name": "feeRate",
      "outputs": [
        {
          "internalType": "uint256",
          "name": "",
          "type": "uint256"
        }
      ],
      "stateMutability": "view",
      "type": "function"
    },
    {
      "inputs": [],
      "name": "feeRecipient",
      "outputs": [
        {
          "internalType": "address",
          "name": "",
          "type": "address"
        }
      ],
      "stateMutability": "view",
      "type": "function"
    },
    {
      "inputs": [
        {
          "internalType": "address",
          "name": "user",
          "type": "address"
        }
      ],
      "name": "getUserNonce",
      "outputs": [
        {
          "internalType": "uint256",
          "name": "",
          "type": "uint256"
        }
      ],
      "stateMutability": "view",
      "type": "function"
    },
    {
      "inputs": [],
      "name": "owner",
      "outputs": [
        {
          "internalType": "address",
          "name": "",
          "type": "address"
        }
      ],
      "stateMutability": "view",
      "type": "function"
    },
    {
      "inputs": [],
      "name": "pause",
      "outputs": [],
      "stateMutability": "nonpayable",
      "type": "function"
    },
    {
      "inputs": [],
      "name": "paused",
      "outputs": [
        {
          "internalType": "bool",
          "name": "",
          "type": "bool"
        }
      ],
      "stateMutability": "view",
      "type": "function"
    },
    {
      "inputs": [
        {
          "internalType": "address",
          "name": "operator",
          "type": "address"
        }
      ],
      "name": "removeOperator",
      "outputs": [],
      "stateMutability": "nonpayable",
      "type": "function"
    },
    {
      "inputs": [
        {
          "internalType": "address",
          "name": "token",
          "type": "address"
        }
      ],
      "name": "removeToken",
      "outputs": [],
      "stateMutability": "nonpayable",
      "type": "function"
    },
    {
      "inputs": [],
      "name": "renounceOwnership",
      "outputs": [],
      "stateMutability": "nonpayable",
      "type": "function"
    },
    {
      "inputs": [
        {
          "internalType": "uint256",
          "name": "newFeeRate",
          "type": "uint256"
        }
      ],
      "name": "setFeeRate",
      "outputs": [],
      "stateMutability": "nonpayable",
      "type": "function"
    },
    {
      "inputs": [
        {
          "internalType": "address",
          "name": "newRecipient",
          "type": "address"
        }
      ],
      "name": "setFeeRecipient",
      "outputs": [],
      "stateMutability": "nonpayable",
      "type": "function"
    },
    {
      "inputs": [
        {
          "internalType": "address",
          "name": "",
          "type": "address"
        }
      ],
      "name": "settlementOperators",
      "outputs": [
        {
          "internalType": "bool",
          "name": "",
          "type": "bool"
        }
      ],
      "stateMutability": "view",
      "type": "function"
    },
    {
      "inputs": [
        {
          "internalType": "address",
          "name": "",
          "type": "address"
        }
      ],
      "name": "supportedTokens",
      "outputs": [
        {
          "internalType": "bool",
          "name": "",
          "type": "bool"
        }
      ],
      "stateMutability": "view",
      "type": "function"
    },
    {
      "inputs": [
        {
          "internalType": "address",
          "name": "newOwner",
          "type": "address"
        }
      ],
      "name": "transferOwnership",
      "outputs": [],
      "stateMutability": "nonpayable",
      "type": "function"
    },
    {
      "inputs": [],
      "name": "unpause",
      "outputs": [],
      "stateMutability": "nonpayable",
      "type": "function"
    },
    {
      "inputs": [
        {
          "internalType": "address",
          "name": "",
          "type": "address"
        }
      ],
      "name": "userNonces",
      "outputs": [
        {
          "internalType": "uint256",
          "name": "",
          "type": "uint256"
        }
      ],
      "stateMutability": "view",
      "type": "function"
    }
  ],
  "bytecode": "0x60806040523462000030576200001e62000018620000d3565b62000239565b604051610f8b620003b38239610f8b90f35b600080fd5b634e487b7160e01b600052604160045260246000fd5b90601f01601f191681019081106001600160401b038211176200006d57604052565b62000035565b906200008a6200008260405190565b92836200004b565b565b6001600160a01b031690565b90565b6001600160a01b038116036200003057565b905051906200008a826200009b565b9060208282031262000030576200009891620000ad565b620000986200133e80380380620000ea8162000073565b928339810190620000bc565b90600019905b9181191691161790565b6200009862000098620000989290565b906200012a62000098620001329262000106565b8254620000f6565b9055565b6200008c62000098620000989290565b620000989062000136565b156200015957565b60405162461bcd60e51b815260206004820152601560248201527f496e76616c69642066656520726563697069656e7400000000000000000000006044820152606490fd5b0390fd5b906001600160a01b0390620000fc565b62000098906200008c906001600160a01b031682565b6200009890620001b2565b6200009890620001c8565b90620001f2620000986200013292620001d3565b8254620001a2565b906200020690620001d3565b600052602052604060002090565b9060ff90620000fc565b9062000231620000986200013292151590565b825462000214565b620002859062000249336200029e565b62000257601e600662000116565b6200027d6200026b6200008c600062000146565b6001600160a01b038316141562000151565b6005620001de565b6200008a600162000298336003620001fa565b6200021e565b6200008a90620002b5565b62000098600162000106565b620002c090620002d6565b6200008a620002ce620002a9565b600162000116565b620002e2600062000146565b6001600160a01b0381166001600160a01b038316146200030857506200008a9062000352565b6200019e906200031760405190565b631e4fbdf760e01b8152918291600483016001600160a01b03909116815260200190565b62000098906200008c565b6200009890546200033b565b620003806200037962000366600062000346565b62000373846000620001de565b620001d3565b91620001d3565b907f8be0079c531659141344cd1fd0a4f28419497f9722a3daafe3b4186f6b6457e0620003ac60405190565b600090a356fe6080604052600436101561001257600080fd5b60003560e01c80632f7801f4146101625780633f4ba83a1461015d57806345596e2e1461015857806346904840146101535780635c975abb1461014e5780635fa7b584146101495780636834e3a81461014457806368c4ac261461013f578063715018a61461013a5780638456cb5914610135578063899a43fc146101305780638da5cb5b1461012b57806392f6576e14610126578063978bbdb9146101215780639870d7fe1461011c57806399a5d74714610117578063ac8a584a14610112578063d2925d6e1461010d578063d48bfca714610108578063e74b981b146101035763f2fde38b036101675761057a565b610562565b61054a565b610531565b6104bf565b6104a4565b61048c565b610471565b61044a565b61040f565b6103f4565b6103cc565b6103b4565b610399565b61034f565b610337565b61030a565b6102d5565b610299565b610255565b61021b565b600080fd5b6001600160a01b031690565b90565b6001600160a01b0381165b0361016757565b9050359061019a8261017b565b565b90602082820312610167576101789161018d565b61016c610178610178926001600160a01b031690565b610178906101b0565b610178906101c6565b906101e2906101cf565b600052602052604060002090565b610178916008021c81565b9061017891546101f0565b60006102166101789260046101d8565b6101fb565b346101675761024661023661023136600461019c565b610206565b6040519182918290815260200190565b0390f35b600091031261016757565b346101675761026536600461024a565b61026d6105a5565b604051005b80610186565b9050359061019a82610272565b906020828203126101675761017891610278565b346101675761026d6102ac366004610285565b610684565b610178916008021c61016c565b9061017891546102b1565b610178600060056102be565b34610167576102e536600461024a565b6102466102f06102c9565b604051918291826001600160a01b03909116815260200190565b346101675761031a36600461024a565b6102466103256106a0565b60405191829182901515815260200190565b346101675761026d61034a36600461019c565b610729565b346101675761024661023661036536600461019c565b610743565b610178916008021c5b60ff1690565b90610178915461036a565b60006103946101789260076101d8565b610379565b34610167576102466103256103af36600461019c565b610384565b34610167576103c436600461024a565b61026d610797565b34610167576103dc36600461024a565b61026d6107b2565b60006103946101789260036101d8565b346101675761024661032561040a36600461019c565b6103e4565b346101675761041f36600461024a565b6102466102f06107cd565b6101786101786101789290565b6101786103e861042a565b610178610437565b346101675761045a36600461024a565b610246610236610442565b610178600060066101fb565b346101675761048136600461024a565b610246610236610465565b346101675761026d61049f36600461019c565b610893565b34610167576102466102366104ba366004610285565b6108fa565b346101675761026d6104d236600461019c565b610975565b909182601f830112156101675781359167ffffffffffffffff831161016757602001926020830284011161016757565b9060208282031261016757813567ffffffffffffffff81116101675761052d92016104d7565b9091565b346101675761026d610544366004610507565b90610adb565b346101675761026d61055d36600461019c565b610ba1565b346101675761026d61057536600461019c565b610c87565b346101675761026d61058d36600461019c565b610d13565b61059a610d1c565b61019a61019a610dc4565b61019a610592565b61019a906105b9610d1c565b610639565b156105c557565b60405162461bcd60e51b815260206004820152600c60248201527f46656520746f6f206869676800000000000000000000000000000000000000006044820152606490fd5b0390fd5b90600019905b9181191691161790565b9061062e6101786106359261042a565b825461060e565b9055565b61067f7f8c4d35e54a3f2ef1134138fd8ea3daee6a3c89e10d2665996babdf70261e2c769161067461066c610178610437565b8211156105be565b61023681600661061e565b0390a1565b61019a906105ad565b61017890610373565b610178905461068d565b6101786002610696565b61019a906106b6610d1c565b6106db565b9060ff90610614565b906106d461017861063592151590565b82546106bb565b6106f9906106f460006106ef8360076101d8565b6106c4565b6101cf565b7f4c910b69fe65a61f7531b9c5042b2329ca7179c77290aa7e2eb3afa3c8511fd361072360405190565b600090a2565b61019a906106aa565b6101789081565b6101789054610732565b61075a61017891610752600090565b5060046101d8565b610739565b610767610d1c565b61019a610785565b61016c6101786101789290565b6101789061076f565b61019a610792600061077c565b610dcc565b61019a61075f565b6107a7610d1c565b61019a61019a610e5f565b61019a61079f565b6101789061016c565b61017890546107ba565b61017860006107c3565b61019a906107e3610d1c565b610834565b156107ef57565b60405162461bcd60e51b815260206004820152601060248201527f496e76616c6964206f70657261746f72000000000000000000000000000000006044820152606490fd5b6108699061085961084861016c600061077c565b6001600160a01b03831614156107e8565b6106f460016106ef8360036101d8565b7fac6fa858e9350a46cec16539926e0fde25b7629f84b5a72bffaae4df888ae86d61072360405190565b61019a906107d7565b634e487b7160e01b600052601160045260246000fd5b818102929181159184041417156108c557565b61089c565b634e487b7160e01b600052601260045260246000fd5b906108ea565b9190565b9081156108f5570490565b6108ca565b61091a61017891610909600090565b506109146006610739565b906108b2565b61092561271061042a565b906108e0565b61019a90610937610d1c565b61094b906106f460006106ef8360036101d8565b7f80c0b871b97b595b16a7741c1b06fed0c6f6f558639f18ccbce50724325dc40d61072360405190565b61019a9061092b565b1561098557565b60405162461bcd60e51b815260206004820152600f60248201527f4e6f7420616e206f70657261746f7200000000000000000000000000000000006044820152606490fd5b9061019a916109ea6109e56109e03360036101d8565b610696565b61097e565b906109fc916109f7610e71565b610a04565b61019a610eca565b9061019a91610a11610edc565b610aae565b15610a1d57565b60405162461bcd60e51b815260206004820152601260248201527f4e6f207472616465732070726f766964656400000000000000000000000000006044820152606490fd5b15610a6957565b60405162461bcd60e51b815260206004820152600f60248201527f546f6f206d616e792074726164657300000000000000000000000000000000006044820152606490fd5b5061019a90610ac7610ac0600061042a565b8211610a16565b610ad46108e6606461042a565b1115610a62565b9061019a916109ca565b61019a90610af1610d1c565b610b42565b15610afd57565b60405162461bcd60e51b815260206004820152600d60248201527f496e76616c696420746f6b656e000000000000000000000000000000000000006044820152606490fd5b610b7790610b67610b5661016c600061077c565b6001600160a01b0383161415610af6565b6106f460016106ef8360076101d8565b7f784c8f4dbf0ffedd6e72c76501c545a70f8b203b30a26ce542bf92ba87c248a461072360405190565b61019a90610ae5565b61019a90610bb6610d1c565b610c2d565b15610bc257565b60405162461bcd60e51b815260206004820152601160248201527f496e76616c696420726563697069656e740000000000000000000000000000006044820152606490fd5b906001600160a01b0390610614565b90610c26610178610635926101cf565b8254610c07565b610c5d90610c52610c4161016c600061077c565b6001600160a01b0383161415610bbb565b6106f4816005610c16565b7f7a7b5a0a132f9e0581eb8527f66eae9ee89c2a3e79d4ac7e41a1f1f4d48a7fc261072360405190565b61019a90610baa565b61019a90610c9c610d1c565b610ca6600061077c565b6001600160a01b0381166001600160a01b03831614610cc9575061019a90610dcc565b61060a90610cd660405190565b9182917f1e4fbdf7000000000000000000000000000000000000000000000000000000008352600483016001600160a01b03909116815260200190565b61019a90610c90565b610d246107cd565b339081906001600160a01b031603610d395750565b61060a90610d4660405190565b9182917f118cdaa7000000000000000000000000000000000000000000000000000000008352600483016001600160a01b03909116815260200190565b610d8b610f15565b61019a610d9a600060026106c4565b7f5db9ee0a495bf2e6ff9c91a7834c1ba4fdd244a5e8aa4e537bd38aeae4b073aa61067f336102f0565b61019a610d83565b610ded610de7610ddc60006107c3565b6106f4846000610c16565b916101cf565b907f8be0079c531659141344cd1fd0a4f28419497f9722a3daafe3b4186f6b6457e0610e1860405190565b600090a3565b610e26610edc565b61019a610e35600160026106c4565b7f62e78cea01bee320cd4e420270b5ea74000d11b0c9f74754ebdbfc544b05a25861067f336102f0565b61019a610e1e565b610178600261042a565b610e7b6001610739565b610e83610e67565b908114610e955761019a90600161061e565b6040517f3ee5aeb5000000000000000000000000000000000000000000000000000000008152600490fd5b610178600161042a565b61019a610ed5610ec0565b600161061e565b610ee46106a0565b610eea57565b6040517fd93c0665000000000000000000000000000000000000000000000000000000008152600490fd5b610f24610f206106a0565b1590565b610f2a57565b6040517f8dfc202b000000000000000000000000000000000000000000000000000000008152600490fdfea2646970667358221220c74b82de7b3ddc82ec1401e7afc49c4b836c88e4dfaf2fcd0c4ca1d8e1f2b9e264736f6c63430008160033",
  "linkReferences": {},
  "deployedLinkReferences": {}
}