{
  "_format": "hh-sol-artifact-1",
  "contractName": "MockL1Read",
  "sourceName": "contracts/mocks/MockL1Read.sol",
  "abi": [
    {
      "inputs": [],
      "stateMutability": "nonpayable",
      "type": "constructor"
    },
    {
      "inputs": [],
      "name": "getAllSpotPrices",
      "outputs": [
        {
          "internalType": "uint256[]",
          "name": "",
          "type": "uint256[]"
        }
      ],
      "stateMutability": "view",
      "type": "function"
    },
    {
      "inputs": [
        {
          "internalType": "uint32",
          "name": "assetIndex",
          "type": "uint32"
        }
      ],
      "name": "getSpotPrice",
      "outputs": [
        {
          "internalType": "uint256",
          "name": "",
          "type": "uint256"
        }
      ],
      "stateMutability": "view",
      "type": "function"
    },
    {
      "inputs": [
        {
          "internalType": "uint32",
          "name": "assetIndex",
          "type": "uint32"
        }
      ],
      "name": "getSpotPriceWithTimestamp",
      "outputs": [
        {
          "internalType": "uint256",
          "name": "price",
          "type": "uint256"
        },
        {
          "internalType": "uint256",
          "name": "timestamp",
          "type": "uint256"
        }
      ],
      "stateMutability": "view",
      "type": "function"
    },
    {
      "inputs": [
        {
          "internalType": "uint32",
          "name": "assetIndex",
          "type": "uint32"
        },
        {
          "internalType": "uint256",
          "name": "price",
          "type": "uint256"
        }
      ],
      "name": "setMockPrice",
      "outputs": [],
      "stateMutability": "nonpayable",
      "type": "function"
    }
  ],
  "bytecode": "0x60806040523461002257610011610079565b60405161051f610104823961051f90f35b600080fd5b6100346100346100349290565b90565b6100446100346100349290565b63ffffffff1690565b9061005790610037565b600052602052604060002090565b9061003461003461007592610027565b9055565b61010161008f69098774738bc822200000610027565b6100a56000916100a060018461004d565b610065565b6100c56100ba68878678326eac900000610027565b6100a060028461004d565b6100e46100d9670de0b6b3a7640000610027565b6100a060038461004d565b6100a060046100fb68056bc75e2d63100000610027565b9261004d565b56fe6080604052600436101561001257600080fd5b60003560e01c8063146356291461005257806326c3e7ab1461004d57806372715b08146100485763b80ae0c303610057576101c3565b61019c565b6100fc565b6100b3565b600080fd5b63ffffffff81165b0361005757565b905035906100788261005c565b565b80610064565b905035906100788261007a565b9190604083820312610057576100b09060206100a9828661006b565b9401610080565b90565b34610057576100cc6100c636600461008d565b90610243565b604051005b0390f35b90602082820312610057576100b09161006b565b9081526040810192916100789160200152565b346100575761011461010f3660046100d5565b6102f4565b906100d161012160405190565b928392836100e9565b600091031261005757565b9061015561014e610144845190565b8084529260200190565b9260200190565b9060005b8181106101665750505090565b90919261018361017c6001928651815260200190565b9460200190565b929101610159565b60208082526100b092910190610135565b34610057576101ac36600461012a565b6100d16101b761041d565b6040519182918261018b565b34610057576100d16101de6101d93660046100d5565b6104cd565b6040519182918290815260200190565b6102016100b06100b09263ffffffff1690565b63ffffffff1690565b90610214906101ee565b600052602052604060002090565b6100b06100b06100b09290565b906100b06100b061023f92610222565b9055565b9061025261007892600061020a565b61022f565b6100b09081565b6100b09054610257565b1561026f57565b6040517f08c379a000000000000000000000000000000000000000000000000000000000815260206004820152602360248201527f4d6f636b4c31526561643a205072696365206e6f742073657420666f7220617360448201527f73657400000000000000000000000000000000000000000000000000000000006064820152608490fd5b61030b61031091610303600090565b50600061020a565b61025e565b61032461031d6000610222565b8211610268565b904290565b634e487b7160e01b600052604160045260246000fd5b90601f01601f1916810190811067ffffffffffffffff82111761036157604052565b610329565b9061007861037360405190565b928361033f565b67ffffffffffffffff81116103615760208091020190565b906103a461039f8361037a565b610366565b918252565b369037565b906100786103c46103be84610392565b9361037a565b601f1901602084016103a9565b634e487b7160e01b600052603260045260246000fd5b906103f0825190565b811015610401576020809102010190565b6103d1565b6102016100b06100b09290565b9061021490610406565b61042f61042a6005610222565b6103ae565b6100b06104ba61030b6004600061045561044882610222565b61045281896103e7565b52565b61047961046661030b600184610413565b6104526104736001610222565b896103e7565b61049761048a61030b600284610413565b6104526104736002610222565b6104b56104a861030b600384610413565b6104526104736003610222565b610413565b6104526104c76004610222565b846103e7565b61030b6104dc91610303600090565b6100b061031d600061022256fea264697066735822122097709c3a13e5d379bf355cf97a6fce69cd4eb0f40d865a9aa17f4c5b3265e35564736f6c63430008160033",
  "linkReferences": {},
  "deployedLinkReferences": {}
}