{
  "_format": "hh-sol-artifact-1",
  "contractName": "LayerZeroMessaging",
  "sourceName": "contracts/LayerZeroMessaging.sol",
  "abi": [
    {
      "inputs": [
        {
          "internalType": "address",
          "name": "_lzEndpoint",
          "type": "address"
        }
      ],
      "stateMutability": "nonpayable",
      "type": "constructor"
    },
    {
      "inputs": [],
      "name": "AccessControlBadConfirmation",
      "type": "error"
    },
    {
      "inputs": [
        {
          "internalType": "address",
          "name": "account",
          "type": "address"
        },
        {
          "internalType": "bytes32",
          "name": "neededRole",
          "type": "bytes32"
        }
      ],
      "name": "AccessControlUnauthorizedAccount",
      "type": "error"
    },
    {
      "inputs": [],
      "name": "EnforcedPause",
      "type": "error"
    },
    {
      "inputs": [],
      "name": "ExpectedPause",
      "type": "error"
    },
    {
      "inputs": [],
      "name": "ReentrancyGuardReentrantCall",
      "type": "error"
    },
    {
      "anonymous": false,
      "inputs": [
        {
          "indexed": false,
          "internalType": "uint256",
          "name": "chainId",
          "type": "uint256"
        },
        {
          "indexed": false,
          "internalType": "uint16",
          "name": "lzChainId",
          "type": "uint16"
        },
        {
          "indexed": false,
          "internalType": "bool",
          "name": "added",
          "type": "bool"
        }
      ],
      "name": "ChainConfigurationUpdated",
      "type": "event"
    },
    {
      "anonymous": false,
      "inputs": [
        {
          "indexed": true,
          "internalType": "address",
          "name": "sender",
          "type": "address"
        },
        {
          "indexed": true,
          "internalType": "address",
          "name": "vault",
          "type": "address"
        },
        {
          "indexed": true,
          "internalType": "uint256",
          "name": "indexTokenId",
          "type": "uint256"
        },
        {
          "indexed": false,
          "internalType": "uint16",
          "name": "srcChainId",
          "type": "uint16"
        },
        {
          "indexed": false,
          "internalType": "bytes32",
          "name": "messageHash",
          "type": "bytes32"
        }
      ],
      "name": "CrossChainMessageReceived",
      "type": "event"
    },
    {
      "anonymous": false,
      "inputs": [
        {
          "indexed": true,
          "internalType": "address",
          "name": "sender",
          "type": "address"
        },
        {
          "indexed": true,
          "internalType": "address",
          "name": "vault",
          "type": "address"
        },
        {
          "indexed": true,
          "internalType": "uint256",
          "name": "indexTokenId",
          "type": "uint256"
        },
        {
          "indexed": false,
          "internalType": "uint16",
          "name": "dstChainId",
          "type": "uint16"
        },
        {
          "indexed": false,
          "internalType": "bytes32",
          "name": "messageHash",
          "type": "bytes32"
        },
        {
          "indexed": false,
          "internalType": "uint256",
          "name": "nonce",
          "type": "uint256"
        }
      ],
      "name": "CrossChainMessageSent",
      "type": "event"
    },
    {
      "anonymous": false,
      "inputs": [
        {
          "indexed": true,
          "internalType": "bytes32",
          "name": "messageHash",
          "type": "bytes32"
        },
        {
          "indexed": false,
          "internalType": "enum LayerZeroMessaging.MessageStatus",
          "name": "oldStatus",
          "type": "uint8"
        },
        {
          "indexed": false,
          "internalType": "enum LayerZeroMessaging.MessageStatus",
          "name": "newStatus",
          "type": "uint8"
        }
      ],
      "name": "MessageStatusUpdated",
      "type": "event"
    },
    {
      "anonymous": false,
      "inputs": [
        {
          "indexed": false,
          "internalType": "address",
          "name": "account",
          "type": "address"
        }
      ],
      "name": "Paused",
      "type": "event"
    },
    {
      "anonymous": false,
      "inputs": [
        {
          "indexed": true,
          "internalType": "bytes32",
          "name": "role",
          "type": "bytes32"
        },
        {
          "indexed": true,
          "internalType": "bytes32",
          "name": "previousAdminRole",
          "type": "bytes32"
        },
        {
          "indexed": true,
          "internalType": "bytes32",
          "name": "newAdminRole",
          "type": "bytes32"
        }
      ],
      "name": "RoleAdminChanged",
      "type": "event"
    },
    {
      "anonymous": false,
      "inputs": [
        {
          "indexed": true,
          "internalType": "bytes32",
          "name": "role",
          "type": "bytes32"
        },
        {
          "indexed": true,
          "internalType": "address",
          "name": "account",
          "type": "address"
        },
        {
          "indexed": true,
          "internalType": "address",
          "name": "sender",
          "type": "address"
        }
      ],
      "name": "RoleGranted",
      "type": "event"
    },
    {
      "anonymous": false,
      "inputs": [
        {
          "indexed": true,
          "internalType": "bytes32",
          "name": "role",
          "type": "bytes32"
        },
        {
          "indexed": true,
          "internalType": "address",
          "name": "account",
          "type": "address"
        },
        {
          "indexed": true,
          "internalType": "address",
          "name": "sender",
          "type": "address"
        }
      ],
      "name": "RoleRevoked",
      "type": "event"
    },
    {
      "anonymous": false,
      "inputs": [
        {
          "indexed": false,
          "internalType": "address",
          "name": "account",
          "type": "address"
        }
      ],
      "name": "Unpaused",
      "type": "event"
    },
    {
      "anonymous": false,
      "inputs": [
        {
          "indexed": true,
          "internalType": "bytes32",
          "name": "operationId",
          "type": "bytes32"
        },
        {
          "indexed": true,
          "internalType": "address",
          "name": "vault",
          "type": "address"
        },
        {
          "indexed": true,
          "internalType": "address",
          "name": "user",
          "type": "address"
        },
        {
          "indexed": false,
          "internalType": "uint256",
          "name": "assets",
          "type": "uint256"
        }
      ],
      "name": "VaultOperationExecuted",
      "type": "event"
    },
    {
      "anonymous": false,
      "inputs": [
        {
          "indexed": true,
          "internalType": "bytes32",
          "name": "operationId",
          "type": "bytes32"
        },
        {
          "indexed": true,
          "internalType": "address",
          "name": "vault",
          "type": "address"
        },
        {
          "indexed": true,
          "internalType": "address",
          "name": "user",
          "type": "address"
        },
        {
          "indexed": false,
          "internalType": "string",
          "name": "reason",
          "type": "string"
        }
      ],
      "name": "VaultOperationFailed",
      "type": "event"
    },
    {
      "stateMutability": "payable",
      "type": "fallback"
    },
    {
      "inputs": [],
      "name": "DEFAULT_ADMIN_ROLE",
      "outputs": [
        {
          "internalType": "bytes32",
          "name": "",
          "type": "bytes32"
        }
      ],
      "stateMutability": "view",
      "type": "function"
    },
    {
      "inputs": [],
      "name": "HYPER_EVM_CHAIN_ID",
      "outputs": [
        {
          "internalType": "uint256",
          "name": "",
          "type": "uint256"
        }
      ],
      "stateMutability": "view",
      "type": "function"
    },
    {
      "inputs": [],
      "name": "HYPER_EVM_LZ_CHAIN_ID",
      "outputs": [
        {
          "internalType": "uint16",
          "name": "",
          "type": "uint16"
        }
      ],
      "stateMutability": "view",
      "type": "function"
    },
    {
      "inputs": [],
      "name": "MESSAGE_RECEIVER_ROLE",
      "outputs": [
        {
          "internalType": "bytes32",
          "name": "",
          "type": "bytes32"
        }
      ],
      "stateMutability": "view",
      "type": "function"
    },
    {
      "inputs": [],
      "name": "MESSAGE_SENDER_ROLE",
      "outputs": [
        {
          "internalType": "bytes32",
          "name": "",
          "type": "bytes32"
        }
      ],
      "stateMutability": "view",
      "type": "function"
    },
    {
      "inputs": [
        {
          "components": [
            {
              "internalType": "address",
              "name": "user",
              "type": "address"
            },
            {
              "internalType": "address",
              "name": "vault",
              "type": "address"
            },
            {
              "internalType": "uint256",
              "name": "indexTokenId",
              "type": "uint256"
            },
            {
              "internalType": "uint256",
              "name": "assets",
              "type": "uint256"
            },
            {
              "internalType": "uint256",
              "name": "shares",
              "type": "uint256"
            },
            {
              "internalType": "uint256",
              "name": "timestamp",
              "type": "uint256"
            },
            {
              "internalType": "uint256",
              "name": "nonce",
              "type": "uint256"
            },
            {
              "internalType": "uint256",
              "name": "srcChainId",
              "type": "uint256"
            },
            {
              "internalType": "bool",
              "name": "executed",
              "type": "bool"
            }
          ],
          "internalType": "struct LayerZeroMessaging.VaultOperation",
          "name": "operation",
          "type": "tuple"
        }
      ],
      "name": "_safeVaultExecution",
      "outputs": [],
      "stateMutability": "nonpayable",
      "type": "function"
    },
    {
      "inputs": [
        {
          "internalType": "uint256",
          "name": "chainId",
          "type": "uint256"
        },
        {
          "internalType": "uint16",
          "name": "lzChainId",
          "type": "uint16"
        }
      ],
      "name": "addChainConfiguration",
      "outputs": [],
      "stateMutability": "nonpayable",
      "type": "function"
    },
    {
      "inputs": [
        {
          "internalType": "uint256",
          "name": "",
          "type": "uint256"
        }
      ],
      "name": "chainIdToLzChainId",
      "outputs": [
        {
          "internalType": "uint16",
          "name": "",
          "type": "uint16"
        }
      ],
      "stateMutability": "view",
      "type": "function"
    },
    {
      "inputs": [],
      "name": "emergencyPause",
      "outputs": [],
      "stateMutability": "nonpayable",
      "type": "function"
    },
    {
      "inputs": [],
      "name": "emergencyUnpause",
      "outputs": [],
      "stateMutability": "nonpayable",
      "type": "function"
    },
    {
      "inputs": [
        {
          "internalType": "bytes",
          "name": "payload",
          "type": "bytes"
        }
      ],
      "name": "estimateMessageFees",
      "outputs": [
        {
          "internalType": "uint256",
          "name": "nativeFee",
          "type": "uint256"
        },
        {
          "internalType": "uint256",
          "name": "zroFee",
          "type": "uint256"
        }
      ],
      "stateMutability": "view",
      "type": "function"
    },
    {
      "inputs": [
        {
          "internalType": "bytes32",
          "name": "messageHash",
          "type": "bytes32"
        }
      ],
      "name": "getMessageStatus",
      "outputs": [
        {
          "internalType": "enum LayerZeroMessaging.MessageStatus",
          "name": "status",
          "type": "uint8"
        }
      ],
      "stateMutability": "view",
      "type": "function"
    },
    {
      "inputs": [
        {
          "internalType": "bytes32",
          "name": "role",
          "type": "bytes32"
        }
      ],
      "name": "getRoleAdmin",
      "outputs": [
        {
          "internalType": "bytes32",
          "name": "",
          "type": "bytes32"
        }
      ],
      "stateMutability": "view",
      "type": "function"
    },
    {
      "inputs": [],
      "name": "getSupportedChains",
      "outputs": [
        {
          "internalType": "uint256[]",
          "name": "chains",
          "type": "uint256[]"
        }
      ],
      "stateMutability": "view",
      "type": "function"
    },
    {
      "inputs": [
        {
          "internalType": "bytes32",
          "name": "role",
          "type": "bytes32"
        },
        {
          "internalType": "address",
          "name": "account",
          "type": "address"
        }
      ],
      "name": "grantRole",
      "outputs": [],
      "stateMutability": "nonpayable",
      "type": "function"
    },
    {
      "inputs": [
        {
          "internalType": "bytes32",
          "name": "role",
          "type": "bytes32"
        },
        {
          "internalType": "address",
          "name": "account",
          "type": "address"
        }
      ],
      "name": "hasRole",
      "outputs": [
        {
          "internalType": "bool",
          "name": "",
          "type": "bool"
        }
      ],
      "stateMutability": "view",
      "type": "function"
    },
    {
      "inputs": [
        {
          "internalType": "uint256",
          "name": "chainId",
          "type": "uint256"
        }
      ],
      "name": "isChainSupported",
      "outputs": [
        {
          "internalType": "bool",
          "name": "supported",
          "type": "bool"
        }
      ],
      "stateMutability": "view",
      "type": "function"
    },
    {
      "inputs": [
        {
          "internalType": "uint16",
          "name": "",
          "type": "uint16"
        }
      ],
      "name": "lzChainIdToChainId",
      "outputs": [
        {
          "internalType": "uint256",
          "name": "",
          "type": "uint256"
        }
      ],
      "stateMutability": "view",
      "type": "function"
    },
    {
      "inputs": [],
      "name": "lzEndpoint",
      "outputs": [
        {
          "internalType": "contract ILayerZeroEndpoint",
          "name": "",
          "type": "address"
        }
      ],
      "stateMutability": "view",
      "type": "function"
    },
    {
      "inputs": [
        {
          "internalType": "uint16",
          "name": "_srcChainId",
          "type": "uint16"
        },
        {
          "internalType": "bytes",
          "name": "_srcAddress",
          "type": "bytes"
        },
        {
          "internalType": "uint64",
          "name": "_nonce",
          "type": "uint64"
        },
        {
          "internalType": "bytes",
          "name": "_payload",
          "type": "bytes"
        }
      ],
      "name": "lzReceive",
      "outputs": [],
      "stateMutability": "nonpayable",
      "type": "function"
    },
    {
      "inputs": [
        {
          "internalType": "bytes32",
          "name": "",
          "type": "bytes32"
        }
      ],
      "name": "messageStatus",
      "outputs": [
        {
          "internalType": "enum LayerZeroMessaging.MessageStatus",
          "name": "",
          "type": "uint8"
        }
      ],
      "stateMutability": "view",
      "type": "function"
    },
    {
      "inputs": [],
      "name": "paused",
      "outputs": [
        {
          "internalType": "bool",
          "name": "",
          "type": "bool"
        }
      ],
      "stateMutability": "view",
      "type": "function"
    },
    {
      "inputs": [
        {
          "internalType": "uint256",
          "name": "chainId",
          "type": "uint256"
        }
      ],
      "name": "removeChainConfiguration",
      "outputs": [],
      "stateMutability": "nonpayable",
      "type": "function"
    },
    {
      "inputs": [
        {
          "internalType": "bytes32",
          "name": "role",
          "type": "bytes32"
        },
        {
          "internalType": "address",
          "name": "callerConfirmation",
          "type": "address"
        }
      ],
      "name": "renounceRole",
      "outputs": [],
      "stateMutability": "nonpayable",
      "type": "function"
    },
    {
      "inputs": [
        {
          "internalType": "bytes32",
          "name": "role",
          "type": "bytes32"
        },
        {
          "internalType": "address",
          "name": "account",
          "type": "address"
        }
      ],
      "name": "revokeRole",
      "outputs": [],
      "stateMutability": "nonpayable",
      "type": "function"
    },
    {
      "inputs": [
        {
          "internalType": "address",
          "name": "vault",
          "type": "address"
        },
        {
          "internalType": "uint256",
          "name": "indexTokenId",
          "type": "uint256"
        },
        {
          "internalType": "uint256",
          "name": "assets",
          "type": "uint256"
        },
        {
          "internalType": "uint256",
          "name": "shares",
          "type": "uint256"
        },
        {
          "internalType": "address",
          "name": "user",
          "type": "address"
        }
      ],
      "name": "sendDepositMessage",
      "outputs": [],
      "stateMutability": "payable",
      "type": "function"
    },
    {
      "inputs": [
        {
          "internalType": "bytes4",
          "name": "interfaceId",
          "type": "bytes4"
        }
      ],
      "name": "supportsInterface",
      "outputs": [
        {
          "internalType": "bool",
          "name": "",
          "type": "bool"
        }
      ],
      "stateMutability": "view",
      "type": "function"
    },
    {
      "inputs": [
        {
          "internalType": "address",
          "name": "",
          "type": "address"
        }
      ],
      "name": "userNonces",
      "outputs": [
        {
          "internalType": "uint256",
          "name": "",
          "type": "uint256"
        }
      ],
      "stateMutability": "view",
      "type": "function"
    },
    {
      "inputs": [
        {
          "internalType": "bytes32",
          "name": "",
          "type": "bytes32"
        }
      ],
      "name": "vaultOperations",
      "outputs": [
        {
          "internalType": "address",
          "name": "user",
          "type": "address"
        },
        {
          "internalType": "address",
          "name": "vault",
          "type": "address"
        },
        {
          "internalType": "uint256",
          "name": "indexTokenId",
          "type": "uint256"
        },
        {
          "internalType": "uint256",
          "name": "assets",
          "type": "uint256"
        },
        {
          "internalType": "uint256",
          "name": "shares",
          "type": "uint256"
        },
        {
          "internalType": "uint256",
          "name": "timestamp",
          "type": "uint256"
        },
        {
          "internalType": "uint256",
          "name": "nonce",
          "type": "uint256"
        },
        {
          "internalType": "uint256",
          "name": "srcChainId",
          "type": "uint256"
        },
        {
          "internalType": "bool",
          "name": "executed",
          "type": "bool"
        }
      ],
      "stateMutability": "view",
      "type": "function"
    },
    {
      "inputs": [
        {
          "internalType": "address payable",
          "name": "recipient",
          "type": "address"
        }
      ],
      "name": "withdrawStuckNative",
      "outputs": [],
      "stateMutability": "nonpayable",
      "type": "function"
    },
    {
      "stateMutability": "payable",
      "type": "receive"
    }
  ],
  "bytecode": "0x60a0604052346200004e576200001e62000018620000f1565b620001d0565b604051612ac5620005a78239608051818181610b9f015281816110340152818161138f0152611c420152612ac590f35b600080fd5b634e487b7160e01b600052604160045260246000fd5b90601f01601f191681019081106001600160401b038211176200008b57604052565b62000053565b90620000a8620000a060405190565b928362000069565b565b6001600160a01b031690565b90565b6001600160a01b038116036200004e57565b90505190620000a882620000b9565b906020828203126200004e57620000b691620000cb565b620000b66200306c80380380620001088162000091565b928339810190620000da565b620000aa620000b6620000b69290565b620000b69062000114565b156200013757565b60405162461bcd60e51b8152602060048201526024808201527f4c617965725a65726f4d6573736167696e673a20696e76616c696420656e64706044820152631bda5b9d60e21b6064820152608490fd5b620000b690620000aa906001600160a01b031682565b620000b69062000188565b620000b6906200019e565b620000b6620000b6620000b69290565b620000b66000620001b4565b6200020b90620001df62000287565b62000205620001f3620000aa600062000124565b6001600160a01b03831614156200012f565b620001a9565b608052620002246200021c620001c4565b339062000324565b50620002507fd356a9f2bb2c5005afb3e9064d46f1063cf09fc700d0a7f2c8d65c22be4ee5bf6200021c565b506200027c7f25fa9232736102967e308bc5f7a6ffdd7f908ff387a63a42c3ad55c1860c93116200021c565b50620000a86200044f565b620000a8620002cd565b620000b66001620001b4565b90600019905b9181191691161790565b90620002c1620000b6620002c992620001b4565b82546200029d565b9055565b620000a8620002db62000291565b6001620002ad565b905b600052602052604060002090565b90620002e590620001a9565b9060ff90620002a3565b906200031c620000b6620002c992151590565b8254620002ff565b620003386200033483836200057e565b1590565b15620003b8576200036460016200035e846000620003578682620002e3565b01620002f3565b62000309565b620003836200037c62000375339390565b93620001a9565b91620001a9565b917f2f8788117e7eff1d82e926ec794901d17c78024a50270940304540a733656f0d620003af60405190565b600090a4600190565b5050600090565b620003cf620000b6620000b69290565b61ffff1690565b90620002e590620001b4565b9061ffff90620002a3565b620003cf620000b6620000b69261ffff1690565b9062000415620000b6620002c992620003ed565b8254620003e2565b90620002e590620003bf565b620000b6617530620003bf565b620000b66103e6620001b4565b90620002e590620003ed565b620000a86200045f6065620003bf565b6200047960039162000473600184620003d6565b62000401565b6200049d620004896001620001b4565b620004a36004916200049d6065846200041d565b620002ad565b620004c0620004b36066620003bf565b62000473603886620003d6565b620004dd620004d06038620001b4565b6200049d6066846200041d565b620004fa620004ed606d620003bf565b62000473608986620003d6565b620005176200050a6089620001b4565b6200049d606d846200041d565b62000552620005456200052b606e620003bf565b6200053f61a4b191620004738389620003d6565b620001b4565b6200049d606e846200041d565b6200055c62000429565b906200057882620004736200057062000436565b8097620003d6565b62000443565b620000b6916000620003576200059f9362000597600090565b5082620002e3565b5460ff169056fe60806040526004361015610018575b361561001657005b005b60003560e01c80621d3567146101f757806301ffc9a7146101f25780630c9c5de7146101ed5780632181a483146101e857806322985b9e146101e357806322ec29d7146101de578063248a9ca3146101d95780632f2ff15d146101d45780632f7801f4146101cf57806336568abe146101ca5780633c6cf473146101c55780633f832d9a146101c05780634a4e3bd5146101bb5780635075a9d4146101b657806351858e27146101b15780635221c1f0146101ac5780635c975abb146101a757806375633365146101a2578063779750621461019d57806391d148541461019857806393fc2bb914610193578063a217fddf1461018e578063a27f433314610189578063af1f265814610184578063b21e3efb1461017f578063b353aaa71461017a578063bda76b0114610175578063c4bffe2b14610170578063d547741f1461016b5763f1b5dbe10361000e57610ccd565b610c91565b610c6a565b610be4565b610b86565b610b3d565b610aee565b610982565b610967565b61093a565b6108d8565b6108c0565b6108a9565b610849565b61082e565b610816565b6107fb565b6107e3565b6107c8565b610781565b6106ea565b6106cf565b61064c565b61060e565b6105c8565b6105a5565b610544565b6103b6565b61034c565b6102d4565b61ffff81165b0361020957565b600080fd5b9050359061021b826101fc565b565b909182601f830112156102095781359167ffffffffffffffff831161020957602001926001830284011161020957565b67ffffffffffffffff8116610202565b9050359061021b8261024d565b909160808284031261020957610280838361020e565b92602083013567ffffffffffffffff811161020957816102a191850161021d565b9290936102b1836040830161025d565b92606082013567ffffffffffffffff8111610209576102d0920161021d565b9091565b34610209576102f36102e736600461026a565b9493909392919261102c565b604051005b0390f35b7fffffffff000000000000000000000000000000000000000000000000000000008116610202565b9050359061021b826102fc565b906020828203126102095761034591610324565b90565b9052565b34610209576102f8610367610362366004610331565b6111be565b60405191829182901515815260200190565b9060208282031261020957813567ffffffffffffffff8111610209576102d0920161021d565b90815260408101929161021b9160200152565b0152565b34610209576103cf6103c9366004610379565b90611384565b906102f86103dc60405190565b9283928361039f565b80610202565b9050359061021b826103e5565b9060208282031261020957610345916103eb565b905b600052602052604060002090565b610345905b73ffffffffffffffffffffffffffffffffffffffff1690565b610345905461041c565b6103459081565b6103459054610444565b610345905b60ff1690565b6103459054610455565b61047590600761040c565b61047e8161043a565b9161048b6001830161043a565b916104986002820161044b565b916104a56003830161044b565b916104b26004820161044b565b916104bf6005830161044b565b916104cc6006820161044b565b9161034560086104de6007850161044b565b9301610460565b61034890610421565b9694929099989795939161012088019a6000890161050b916104e5565b60208801610518916104e5565b60408701526060860152608085015260a084015260c083015260e08201526101000161021b9115159052565b34610209576102f861055f61055a3660046103f8565b61046a565b9561057299979995919594929460405190565b998a998a6104ee565b61020281610421565b9050359061021b8261057b565b906020828203126102095761034591610584565b34610209576102f36105b8366004610591565b61166d565b600091031261020957565b34610209576105d83660046105bd565b6102f87fd356a9f2bb2c5005afb3e9064d46f1063cf09fc700d0a7f2c8d65c22be4ee5bf5b6040515b9182918290815260200190565b34610209576102f86105fd6106243660046103f8565b611676565b91906040838203126102095761034590602061064582866103eb565b9401610584565b34610209576102f361065f366004610629565b906116b3565b6104216103456103459273ffffffffffffffffffffffffffffffffffffffff1690565b61034590610665565b61034590610688565b9061040e90610691565b610345916008021c81565b9061034591546106a4565b60006106ca61034592600661069a565b6106af565b34610209576102f86105fd6106e5366004610591565b6106ba565b34610209576102f36106fd366004610629565b906116bd565b610345916008021c61045a565b906103459154610703565b600061072b61034592600561040c565b610710565b634e487b7160e01b600052602160045260246000fd5b6004111561075057565b610730565b9061021b82610746565b61034590610755565b6103489061075f565b60208101929161021b9190610768565b34610209576102f861079c6107973660046103f8565b61071b565b60405191829182610771565b6103456103456103459290565b6103456103e66107a8565b6103456107b5565b34610209576107d83660046105bd565b6102f86105fd6107c0565b34610209576107f33660046105bd565b6102f361171f565b34610209576102f861079c6108113660046103f8565b611727565b34610209576108263660046105bd565b6102f3611759565b34610209576102f86103676108443660046103f8565b611774565b34610209576108593660046105bd565b6102f86103676117aa565b919060a0838203126102095761087a8184610584565b9261088882602083016103eb565b9261034561089984604085016103eb565b93608061064582606087016103eb565b6102f36108b7366004610864565b93929092611e7f565b34610209576102f36108d33660046103f8565b612031565b34610209576102f86103676108ee366004610629565b9061203a565b90602082820312610209576103459161020e565b6109196103456103459261ffff1690565b61ffff1690565b9061040e90610908565b60006106ca610345926004610920565b34610209576102f86105fd6109503660046108f4565b61092a565b61034560006107a8565b610345610955565b34610209576109773660046105bd565b6102f86105fd61095f565b34610209576109923660046105bd565b6102f87f25fa9232736102967e308bc5f7a6ffdd7f908ff387a63a42c3ad55c1860c93116105fd565b634e487b7160e01b600052604160045260246000fd5b90601f01601f1916810190811067ffffffffffffffff8211176109f357604052565b6109bb565b9061021b610a0560405190565b92836109d1565b801515610202565b9050359061021b82610a0c565b9190916101208184031261020957610ad3610a3d6101206109f8565b93610a488184610584565b8552610a578160208501610584565b6020860152610a6981604085016103eb565b6040860152610a7b81606085016103eb565b6060860152610a8d81608085016103eb565b6080860152610a9f8160a085016103eb565b60a0860152610ab18160c085016103eb565b60c0860152610ac38160e085016103eb565b60e0860152610100809301610a14565b90830152565b90610120828203126102095761034591610a21565b34610209576102f3610b01366004610ad9565b6120f8565b9061040e906107a8565b610345916008021c610919565b906103459154610b10565b6000610b38610345926003610b06565b610b1d565b34610209576102f8610b58610b533660046103f8565b610b28565b6040519182918261ffff909116815260200190565b61034890610691565b60208101929161021b9190610b6d565b3461020957610b963660046105bd565b604051806102f87f000000000000000000000000000000000000000000000000000000000000000082610b76565b6109196103456103459290565b610345617530610bc4565b610345610bd1565b3461020957610bf43660046105bd565b6102f8610b58610bdc565b0190565b90610c23610c1c610c12845190565b8084529260200190565b9260200190565b9060005b818110610c345750505090565b909192610c51610c4a6001928651815260200190565b9460200190565b929101610c27565b602080825261034592910190610c03565b3461020957610c7a3660046105bd565b6102f8610c8561222a565b60405191829182610c59565b34610209576102f3610ca4366004610629565b906122ee565b919060408382031261020957610345906020610cc682866103eb565b940161020e565b34610209576102f3610ce0366004610caa565b90612496565b15610ced57565b60405162461bcd60e51b815260206004820152602160248201527f4c617965725a65726f4d6573736167696e673a206f6e6c7920656e64706f696e6044820152601d60fa1b6064820152608490fd5b0390fd5b15610d4757565b60405162461bcd60e51b815260206004820152602860248201527f4c617965725a65726f4d6573736167696e673a20696e76616c696420736f757260448201527f636520636861696e0000000000000000000000000000000000000000000000006064820152608490fd5b91906101008382031261020957610dc98184610584565b92610dd78260208301610584565b92610de583604084016103eb565b92610df381606085016103eb565b92610e0182608083016103eb565b92610345610e128460a085016103eb565b9360e0610e228260c087016103eb565b94016103eb565b67ffffffffffffffff81116109f357602090601f01601f19160190565b90826000939282370152565b90929192610e67610e6282610e29565b6109f8565b93818552818301116102095761021b916020850190610e46565b610345913691610e52565b9060ff905b9181191691161790565b90610eab610345610eb29261075f565b8254610e8c565b9055565b6103456101206109f8565b9061034890610421565b6103459051610421565b9073ffffffffffffffffffffffffffffffffffffffff90610e91565b90610f01610345610eb292610691565b8254610ed5565b9060001990610e91565b90610f22610345610eb2926107a8565b8254610f08565b90610eab610345610eb292151590565b600861100361010061021b94610f5a610f5460008301610ecb565b86610ef1565b610f72610f6960208301610ecb565b60018701610ef1565b610f89610f80604083015190565b60028701610f12565b610fa0610f97606083015190565b60038701610f12565b610fb7610fae608083015190565b60048701610f12565b610fce610fc560a083015190565b60058701610f12565b610fe5610fdc60c083015190565b60068701610f12565b610ffc610ff360e083015190565b60078701610f12565b0151151590565b9101610f29565b9061021b91610f39565b61ffff909116815260408101929161021b9160200152565b9394925050507f000000000000000000000000000000000000000000000000000000000000000061105c90610691565b61106590610421565b61106e33610421565b1461107890610ce6565b611083826004610920565b61108c9061044b565b61109660006107a8565b14156110a190610d40565b6110ad83820184610db2565b939498966110be909a91939a610691565b956110c890610691565b976110d291610e81565b80519060200120986110e58a600561040c565b60026110f091610e9b565b6110f8610eb6565b946111038787610ec1565b6111108960208801610ec1565b61111b8a6040880152565b6060860152608085015260a084015260c083015260e0820152600061010082015280611146816124dc565b61115190600761040c565b9061115b9161100a565b61116490612600565b61116d90610691565b9161117790610691565b92611181906107a8565b9361118b60405190565b9182916111989183611014565b037fad7b3643079ff7b4548f8763d087af73c0771e83314d5aef40f8e080e309e58291a4565b7f7965db0b000000000000000000000000000000000000000000000000000000007fffffffff0000000000000000000000000000000000000000000000000000000082161490811561120e575090565b61034591507fffffffff00000000000000000000000000000000000000000000000000000000167f01ffc9a7000000000000000000000000000000000000000000000000000000001490565b90611267610e6283610e29565b918252565b610345600061125a565b61034561126c565b9050519061021b826103e5565b9190604083820312610209576103459060206112a7828661127e565b940161127e565b91906112cc816112c581610bff9560209181520190565b8095610e46565b601f01601f191690565b60005b8381106112e95750506000910152565b81810151838201526020016112d9565b61131a6112cc602093610bff9361130e815190565b80835293849260200190565b958691016112d6565b929061034596946113619261135461136b9561134a60a089019560008a019061ffff169052565b60208801906104e5565b85830360408701526112ae565b9315156060830152565b60808184039101526112f9565b6040513d6000823e3d90fd5b9091906040906113b37f0000000000000000000000000000000000000000000000000000000000000000610691565b6113bb610bd1565b6113c430610691565b9061140e6113d0611276565b60006113db60405190565b998a97889687967f40a7bb1000000000000000000000000000000000000000000000000000000000885260048801611323565b03915afa9182156114545760009060009361142857509190565b90506102d091925060403d60401161144d575b61144581836109d1565b81019061128b565b503d61143b565b611378565b61021b9061146d611468610955565b61279e565b6115fd565b6104216103456103459290565b61034590611472565b1561148f57565b60405162461bcd60e51b815260206004820152602560248201527f4c617965725a65726f4d6573736167696e673a20696e76616c6964207265636960448201527f7069656e740000000000000000000000000000000000000000000000000000006064820152608490fd5b1561150157565b60405162461bcd60e51b815260206004820152602a60248201527f4c617965725a65726f4d6573736167696e673a206e6f2062616c616e6365207460448201527f6f207769746864726177000000000000000000000000000000000000000000006064820152608490fd5b3d156115865761157b3d61125a565b903d6000602084013e565b606090565b1561159257565b60405162461bcd60e51b815260206004820152602560248201527f4c617965725a65726f4d6573736167696e673a207769746864726177616c206660448201527f61696c65640000000000000000000000000000000000000000000000000000006064820152608490fd5b60008061021b926116286116186116138461147f565b610421565b61162183610691565b1415611488565b61164e61163430610691565b3191611649611642856107a8565b84116114fa565b610691565b9061165860405190565b90818003925af161166761156c565b5061158b565b61021b90611459565b600161168f61034592611687600090565b50600061040c565b0161044b565b9061021b916116a661146882611676565b906116b0916127a9565b50565b9061021b91611695565b906116c733610421565b6116d082610421565b036116de576116b09161282e565b6040517f6697b232000000000000000000000000000000000000000000000000000000008152600490fd5b611714611468610955565b61021b61021b6128e8565b61021b611709565b61173e61034591611736600090565b50600561040c565b610460565b61174e611468610955565b61021b61021b612931565b61021b611743565b61034590610919565b6103459054611761565b61178b61179091611783600090565b506003610b06565b61176a565b6117a561179d6000610bc4565b9161ffff1690565b141590565b6103456002610460565b61021b94939291906117e57fd356a9f2bb2c5005afb3e9064d46f1063cf09fc700d0a7f2c8d65c22be4ee5bf61279e565b9061021b949392916117f5612939565b9061180a9493929161180561297c565b611b36565b61021b6129d5565b1561181957565b60405162461bcd60e51b815260206004820152602160248201527f4c617965725a65726f4d6573736167696e673a20696e76616c6964207661756c6044820152601d60fa1b6064820152608490fd5b1561186f57565b60405162461bcd60e51b815280610d3c600482016020808252818101527f4c617965725a65726f4d6573736167696e673a20696e76616c69642075736572604082015260600190565b156118bf57565b60405162461bcd60e51b815260206004820152602a60248201527f4c617965725a65726f4d6573736167696e673a20696e76616c696420696e646560448201527f7820746f6b656e204944000000000000000000000000000000000000000000006064820152608490fd5b634e487b7160e01b600052601160045260246000fd5b600019811461194f5760010190565b61192a565b9593919897969492909861010087019960008801611971916104e5565b6020870161197e916104e5565b60408601526060850152608084015260a083015260c082015260e00152565b6119a961034891610421565b60601b90565b610bff8160149361199d565b92611a01611a0c916119f361034599979894611a16966119e660c08a019260008b019061ffff169052565b88820360208a01526112f9565b9086820360408801526112f9565b9560608501906104e5565b60808301906104e5565b60a08184039101526112f9565b61ffff909116815260608101939261021b9290916040916103b2906020830152565b60009060033d11611a5257565b905060046000803e60005160e01c90565b60009060443d1061021b5760405160043d036004823e8051903d602483011167ffffffffffffffff831117611acf5781810191825167ffffffffffffffff8111611ac95760043d03830181602086010111611ac9576103459394955060200101906109d1565b50505050565b5050565b610bff611aeb92602092611ae5815190565b94859290565b938491016112d6565b7f4c617965725a65726f4d6573736167696e673a200000000000000000000000008152610345919060140190611ad3565b6020808252610345929101906112f9565b90611bd994929391600094611be5611b4d8761147f565b91611b6a611b5a84610421565b611b6386610421565b1415611812565b611b86611b7684610421565b611b7f89610421565b1415611868565b611b99611b92896107a8565b86116118b8565b611ba487600661069a565b95611bc0611bb9611bb48961044b565b611940565b8098610f12565b604051998a92888a602086019446938b8b429489611954565b908103825203886109d1565b8651602088012094600597611c0388611bfe898c61040c565b610e9b565b611c0b610bd1565b92611c1530610691565b611c3d611c2160405190565b8092611c316020830191826119af565b908103825203826109d1565b611c667f0000000000000000000000000000000000000000000000000000000000000000610691565b63c580310092611c7533610691565b93611c7e611276565b94833b15610209578d95611ca693611cb292611c9960405190565b998a988997889760e01b90565b87528d600488016119bb565b039134905af19081611e53575b50611deb5750505050506001611cd3611a45565b6308c379a014611d8e575b611ce757505050565b6003611bfe611cfe92611cf861156c565b9561040c565b611d16611d12611d0c845190565b926107a8565b9190565b03611d865760405162461bcd60e51b815260206004820152603760248201527f4c617965725a65726f4d6573736167696e673a206d6573736167652073656e6460448201527f206661696c6564202d20756e6b6e6f776e206572726f720000000000000000006064820152608490fd5b805190602001fd5b611d96611a63565b80611da15750611cde565b611dd3610d3c91611db76003611bfe878a61040c565b610345611dc360405190565b8092611c31602083019182611af4565b60405191829162461bcd60e51b835260048301611b25565b85939650611e35611e2f611e3b926116496001611bfe611e4e97989b7fcc7d062f79b6d4e3271fd6c1721289409daf3fb21a49ea96ad6eeddf977e9bd69b9e61040c565b96610691565b966107a8565b96611e4560405190565b93849384611a23565b0390a4565b611e7290893d8b11611e78575b611e6a81836109d1565b8101906105bd565b38611cbf565b503d611e60565b9061021b949392916117b4565b61021b90611e9b611468610955565b611f8a565b15611ea757565b60405162461bcd60e51b815260206004820152602860248201527f4c617965725a65726f4d6573736167696e673a20636861696e206e6f7420636f60448201527f6e666967757265640000000000000000000000000000000000000000000000006064820152608490fd5b91906008610e91910291611f2761ffff841b90565b921b90565b9190611f3d610345610eb293610908565b908354611f12565b61021b91600091611f2c565b9160001960089290920291821b911b610e91565b9190611f76610345610eb2936107a8565b908354611f51565b61021b91600091611f65565b7f472013bf9f0b927a2c3c4085553a571b28889295b989a26b6f5501a8e68407ed90611fba61178b826003610b06565b90611fd4611fc86000610bc4565b61ffff84161415611ea0565b611fe96000611fe4836003610b06565b611f45565b611ffe6000611ff9846004610920565b611f7e565b61202c600061200c60405190565b92835261ffff909316602083015291151560408201529081906060820190565b0390a1565b61021b90611e8c565b61034591600061205661173e9361204f600090565b508261040c565b0161069a565b1561206357565b60405162461bcd60e51b815260206004820152602160248201527f4c617965725a65726f4d6573736167696e673a20696e7465726e616c206f6e6c60448201527f79000000000000000000000000000000000000000000000000000000000000006064820152608490fd5b90602082820312610209576103459161127e565b90815260408101929161021b91602001906104e5565b602061216f9161211c61210d61161330610691565b61211633610421565b1461205c565b61212d611649611649848401610ecb565b612144600061213d606085015190565b9301610ecb565b91600061215060405190565b809681958294612164636e553f6560e01b90565b8452600484016120e2565b03925af18015611454576121805750565b6116b09060203d6020116121a1575b61219981836109d1565b8101906120ce565b503d61218f565b67ffffffffffffffff81116109f35760208091020190565b90611267610e62836121a8565b369037565b9061021b6121e86121e2846121c0565b936121a8565b601f1901602084016121cd565b634e487b7160e01b600052603260045260246000fd5b90612214825190565b811015612225576020809102010190565b6121f5565b61223c61223760056107a8565b6121d2565b9061021b8261227c61224e60016107a8565b6122688161226561225f60006107a8565b8661220b565b52565b61226561227560386107a8565b918461220b565b61229c61228960896107a8565b61226561229660026107a8565b8461220b565b6122b76122aa61a4b16107a8565b61226561229660036107a8565b6122656122c26107b5565b916122cd60046107a8565b9061220b565b9061021b916122e461146882611676565b906116b09161282e565b9061021b916122d3565b9061021b91612308611468610955565b612411565b1561231457565b60405162461bcd60e51b8152602060048201526024808201527f4c617965725a65726f4d6573736167696e673a20696e76616c6964206368616960448201527f6e204944000000000000000000000000000000000000000000000000000000006064820152608490fd5b1561238557565b60405162461bcd60e51b815260206004820152602760248201527f4c617965725a65726f4d6573736167696e673a20696e76616c6964204c5a206360448201527f6861696e204944000000000000000000000000000000000000000000000000006064820152608490fd5b9061ffff90610e91565b9061240a610345610eb292610908565b82546123f0565b907f472013bf9f0b927a2c3c4085553a571b28889295b989a26b6f5501a8e68407ed9161244861244160006107a8565b821161230d565b6124606124556000610bc4565b61ffff84161161237e565b6124748261246f836003610b06565b6123fa565b61248881612483846004610920565b610f12565b61202c600161200c60405190565b9061021b916122f8565b946124d6602080999895966124d68280996124d660146124d69a6124d6610bff9f806124ce8592899f61199d565b01809261199d565b01918252565b6125496124e882610ecb565b6124f460208401610ecb565b90611c31612503604086015190565b9461250f606082015190565b9061251b60a082015190565b61253160e061252b60c085015190565b93015190565b9261253b60405190565b9889976020890197886124a0565b61255b612554825190565b9160200190565b2090565b906101008061021b9361257a600082015160008601906104e5565b61258c602082015160208601906104e5565b61259b60408201516040860152565b6125aa60608201516060860152565b6125b960808201516080860152565b6125c860a082015160a0860152565b6125d760c082015160c0860152565b6125e660e082015160e0860152565b01511515910152565b6101208101929161021b919061255f565b61260930610691565b803b1561020957600061261b60405190565b9182907faf1f265800000000000000000000000000000000000000000000000000000000825281838161265188600483016125ef565b03925af19081612788575b5061270d5760019061266c611a45565b6308c379a01461267e575b5061145457565b612686611a63565b80612692575b50612677565b60009250906126a0816124dc565b907fe1e05bf9b82eb71f7fd52577cf961012cd2964835a4c6db80c136d5405d8679d6127036126f06126ea6126ea6126e660006126df60208901610ecb565b9701610ecb565b9690565b94610691565b946126fa60405190565b91829182611b25565b0390a4388061268c565b612716816124dc565b9061272f6001600861272985600761040c565b01610f29565b61273b60208201610ecb565b7f069d325837cefc672a75243d19de85a20682861f3be53d96a64ed0781a5c98f9611e4e61277e6126ea8061277a606061277489610ecb565b98015190565b9790565b9461060160405190565b612798906000611e6a81836109d1565b3861265c565b61021b903390612a02565b6127ba6127b6838361203a565b1590565b15612827576127d960016127d4846000612056868261040c565b610f29565b6127f36127ed6127e7339390565b93610691565b91610691565b917f2f8788117e7eff1d82e926ec794901d17c78024a50270940304540a733656f0d61281e60405190565b600090a4600190565b5050600090565b612838828261203a565b156128275761285160006127d48482612056868261040c565b61285f6127ed6127e7339390565b917ff6391f5c32d9c69d2a47ea670b442974b53935d1edc7fd64eb21e047a839171b61281e60405190565b612892612a53565b61021b6128aa565b60208101929161021b91906104e5565b6128b660006002610f29565b7f5db9ee0a495bf2e6ff9c91a7834c1ba4fdd244a5e8aa4e537bd38aeae4b073aa61202c335b6040519182918261289a565b61021b61288a565b6128f8612939565b61021b61290760016002610f29565b7f62e78cea01bee320cd4e420270b5ea74000d11b0c9f74754ebdbfc544b05a25861202c336128dc565b61021b6128f0565b6129416117aa565b61294757565b6040517fd93c0665000000000000000000000000000000000000000000000000000000008152600490fd5b61034560026107a8565b612986600161044b565b61298e612972565b9081146129a05761021b906001610f12565b6040517f3ee5aeb5000000000000000000000000000000000000000000000000000000008152600490fd5b61034560016107a8565b61021b6129e06129cb565b6001610f12565b91602061021b9294936103b2604082019660008301906104e5565b90612a106127b6828461203a565b612a18575050565b610d3c612a2460405190565b9283927fe2517d3f000000000000000000000000000000000000000000000000000000008452600484016129e7565b612a5e6127b66117aa565b612a6457565b6040517f8dfc202b000000000000000000000000000000000000000000000000000000008152600490fdfea264697066735822122003fc6d002d44d29f77a7d3bc68d0dfb764f5d1fd5ef5d2051f2b0e2eda5c1fe164736f6c63430008160033",
  "linkReferences": {},
  "deployedLinkReferences": {}
}