{
  "_format": "hh-sol-artifact-1",
  "contractName": "MockLayerZeroEndpointV2",
  "sourceName": "contracts/mocks/MockLayerZeroEndpointV2.sol",
  "abi": [
    {
      "inputs": [],
      "stateMutability": "nonpayable",
      "type": "constructor"
    },
    {
      "inputs": [
        {
          "internalType": "uint16",
          "name": "chainId",
          "type": "uint16"
        }
      ],
      "name": "ChainNotActive",
      "type": "error"
    },
    {
      "inputs": [
        {
          "internalType": "address",
          "name": "sender",
          "type": "address"
        }
      ],
      "name": "DailyLimitExceeded",
      "type": "error"
    },
    {
      "inputs": [
        {
          "internalType": "address",
          "name": "target",
          "type": "address"
        },
        {
          "internalType": "bytes",
          "name": "returnData",
          "type": "bytes"
        }
      ],
      "name": "DeliveryFailed",
      "type": "error"
    },
    {
      "inputs": [],
      "name": "EmptyPayload",
      "type": "error"
    },
    {
      "inputs": [
        {
          "internalType": "uint256",
          "name": "required",
          "type": "uint256"
        },
        {
          "internalType": "uint256",
          "name": "provided",
          "type": "uint256"
        }
      ],
      "name": "InsufficientFee",
      "type": "error"
    },
    {
      "inputs": [],
      "name": "InvalidDestination",
      "type": "error"
    },
    {
      "inputs": [
        {
          "internalType": "bytes32",
          "name": "messageHash",
          "type": "bytes32"
        }
      ],
      "name": "MessageAlreadyProcessed",
      "type": "error"
    },
    {
      "anonymous": false,
      "inputs": [
        {
          "indexed": true,
          "internalType": "uint16",
          "name": "chainId",
          "type": "uint16"
        },
        {
          "indexed": false,
          "internalType": "string",
          "name": "name",
          "type": "string"
        },
        {
          "indexed": false,
          "internalType": "bool",
          "name": "isActive",
          "type": "bool"
        }
      ],
      "name": "ChainConfigUpdated",
      "type": "event"
    },
    {
      "anonymous": false,
      "inputs": [
        {
          "indexed": true,
          "internalType": "uint16",
          "name": "dstChainId",
          "type": "uint16"
        },
        {
          "indexed": true,
          "internalType": "address",
          "name": "userApplication",
          "type": "address"
        },
        {
          "indexed": false,
          "internalType": "uint256",
          "name": "payloadSize",
          "type": "uint256"
        },
        {
          "indexed": false,
          "internalType": "uint256",
          "name": "nativeFee",
          "type": "uint256"
        },
        {
          "indexed": false,
          "internalType": "uint256",
          "name": "zroFee",
          "type": "uint256"
        }
      ],
      "name": "FeeCalculated",
      "type": "event"
    },
    {
      "anonymous": false,
      "inputs": [
        {
          "indexed": true,
          "internalType": "uint16",
          "name": "srcChainId",
          "type": "uint16"
        },
        {
          "indexed": true,
          "internalType": "address",
          "name": "dstAddress",
          "type": "address"
        },
        {
          "indexed": false,
          "internalType": "bytes",
          "name": "payload",
          "type": "bytes"
        },
        {
          "indexed": true,
          "internalType": "bytes32",
          "name": "messageHash",
          "type": "bytes32"
        },
        {
          "indexed": false,
          "internalType": "bool",
          "name": "success",
          "type": "bool"
        },
        {
          "indexed": false,
          "internalType": "bytes",
          "name": "returnData",
          "type": "bytes"
        }
      ],
      "name": "MessageDelivered",
      "type": "event"
    },
    {
      "anonymous": false,
      "inputs": [
        {
          "indexed": true,
          "internalType": "uint16",
          "name": "dstChainId",
          "type": "uint16"
        },
        {
          "indexed": true,
          "internalType": "address",
          "name": "srcAddress",
          "type": "address"
        },
        {
          "indexed": false,
          "internalType": "bytes",
          "name": "destination",
          "type": "bytes"
        },
        {
          "indexed": false,
          "internalType": "bytes",
          "name": "payload",
          "type": "bytes"
        },
        {
          "indexed": true,
          "internalType": "bytes32",
          "name": "messageHash",
          "type": "bytes32"
        },
        {
          "indexed": false,
          "internalType": "uint256",
          "name": "nativeFee",
          "type": "uint256"
        },
        {
          "indexed": false,
          "internalType": "uint256",
          "name": "nonce",
          "type": "uint256"
        }
      ],
      "name": "MessageSent",
      "type": "event"
    },
    {
      "stateMutability": "payable",
      "type": "fallback"
    },
    {
      "inputs": [],
      "name": "MAX_DAILY_MESSAGES",
      "outputs": [
        {
          "internalType": "uint256",
          "name": "",
          "type": "uint256"
        }
      ],
      "stateMutability": "view",
      "type": "function"
    },
    {
      "inputs": [],
      "name": "MIN_GAS_LIMIT",
      "outputs": [
        {
          "internalType": "uint256",
          "name": "",
          "type": "uint256"
        }
      ],
      "stateMutability": "view",
      "type": "function"
    },
    {
      "inputs": [
        {
          "internalType": "uint256",
          "name": "",
          "type": "uint256"
        }
      ],
      "name": "activeChains",
      "outputs": [
        {
          "internalType": "uint16",
          "name": "",
          "type": "uint16"
        }
      ],
      "stateMutability": "view",
      "type": "function"
    },
    {
      "inputs": [
        {
          "internalType": "bytes32[]",
          "name": "messageHashes",
          "type": "bytes32[]"
        }
      ],
      "name": "batchDelivery",
      "outputs": [],
      "stateMutability": "nonpayable",
      "type": "function"
    },
    {
      "inputs": [
        {
          "internalType": "uint16",
          "name": "",
          "type": "uint16"
        }
      ],
      "name": "chainConfigs",
      "outputs": [
        {
          "internalType": "uint16",
          "name": "chainId",
          "type": "uint16"
        },
        {
          "internalType": "string",
          "name": "name",
          "type": "string"
        },
        {
          "internalType": "bool",
          "name": "isActive",
          "type": "bool"
        },
        {
          "internalType": "uint256",
          "name": "baseFee",
          "type": "uint256"
        },
        {
          "internalType": "uint256",
          "name": "gasPerByte",
          "type": "uint256"
        },
        {
          "internalType": "uint256",
          "name": "confirmationBlocks",
          "type": "uint256"
        },
        {
          "internalType": "bool",
          "name": "fastMode",
          "type": "bool"
        }
      ],
      "stateMutability": "view",
      "type": "function"
    },
    {
      "inputs": [
        {
          "internalType": "address",
          "name": "",
          "type": "address"
        }
      ],
      "name": "dailyMessageCount",
      "outputs": [
        {
          "internalType": "uint256",
          "name": "",
          "type": "uint256"
        }
      ],
      "stateMutability": "view",
      "type": "function"
    },
    {
      "inputs": [
        {
          "internalType": "address payable",
          "name": "recipient",
          "type": "address"
        }
      ],
      "name": "emergencyWithdraw",
      "outputs": [],
      "stateMutability": "nonpayable",
      "type": "function"
    },
    {
      "inputs": [
        {
          "internalType": "uint16",
          "name": "_dstChainId",
          "type": "uint16"
        },
        {
          "internalType": "address",
          "name": "_userApplication",
          "type": "address"
        },
        {
          "internalType": "bytes",
          "name": "_payload",
          "type": "bytes"
        },
        {
          "internalType": "bool",
          "name": "",
          "type": "bool"
        },
        {
          "internalType": "bytes",
          "name": "",
          "type": "bytes"
        }
      ],
      "name": "estimateFees",
      "outputs": [
        {
          "internalType": "uint256",
          "name": "nativeFee",
          "type": "uint256"
        },
        {
          "internalType": "uint256",
          "name": "zroFee",
          "type": "uint256"
        }
      ],
      "stateMutability": "view",
      "type": "function"
    },
    {
      "inputs": [],
      "name": "getActiveChains",
      "outputs": [
        {
          "internalType": "uint16[]",
          "name": "",
          "type": "uint16[]"
        }
      ],
      "stateMutability": "view",
      "type": "function"
    },
    {
      "inputs": [],
      "name": "getBalance",
      "outputs": [
        {
          "internalType": "uint256",
          "name": "",
          "type": "uint256"
        }
      ],
      "stateMutability": "view",
      "type": "function"
    },
    {
      "inputs": [
        {
          "internalType": "uint16",
          "name": "lzChainId",
          "type": "uint16"
        }
      ],
      "name": "getChainConfig",
      "outputs": [
        {
          "components": [
            {
              "internalType": "uint16",
              "name": "chainId",
              "type": "uint16"
            },
            {
              "internalType": "string",
              "name": "name",
              "type": "string"
            },
            {
              "internalType": "bool",
              "name": "isActive",
              "type": "bool"
            },
            {
              "internalType": "uint256",
              "name": "baseFee",
              "type": "uint256"
            },
            {
              "internalType": "uint256",
              "name": "gasPerByte",
              "type": "uint256"
            },
            {
              "internalType": "uint256",
              "name": "confirmationBlocks",
              "type": "uint256"
            },
            {
              "internalType": "bool",
              "name": "fastMode",
              "type": "bool"
            }
          ],
          "internalType": "struct MockLayerZeroEndpointV2.ChainConfig",
          "name": "",
          "type": "tuple"
        }
      ],
      "stateMutability": "view",
      "type": "function"
    },
    {
      "inputs": [
        {
          "internalType": "address",
          "name": "sender",
          "type": "address"
        }
      ],
      "name": "getDailyMessageCount",
      "outputs": [
        {
          "internalType": "uint256",
          "name": "",
          "type": "uint256"
        }
      ],
      "stateMutability": "view",
      "type": "function"
    },
    {
      "inputs": [
        {
          "internalType": "address",
          "name": "sender",
          "type": "address"
        }
      ],
      "name": "getMessageCount",
      "outputs": [
        {
          "internalType": "uint256",
          "name": "",
          "type": "uint256"
        }
      ],
      "stateMutability": "view",
      "type": "function"
    },
    {
      "inputs": [
        {
          "internalType": "bytes32",
          "name": "messageHash",
          "type": "bytes32"
        }
      ],
      "name": "getMessageInfo",
      "outputs": [
        {
          "components": [
            {
              "internalType": "uint16",
              "name": "srcChainId",
              "type": "uint16"
            },
            {
              "internalType": "uint16",
              "name": "dstChainId",
              "type": "uint16"
            },
            {
              "internalType": "address",
              "name": "srcAddress",
              "type": "address"
            },
            {
              "internalType": "bytes",
              "name": "destination",
              "type": "bytes"
            },
            {
              "internalType": "bytes",
              "name": "payload",
              "type": "bytes"
            },
            {
              "internalType": "uint256",
              "name": "timestamp",
              "type": "uint256"
            },
            {
              "internalType": "bool",
              "name": "delivered",
              "type": "bool"
            },
            {
              "internalType": "uint256",
              "name": "nativeFee",
              "type": "uint256"
            },
            {
              "internalType": "uint256",
              "name": "gasUsed",
              "type": "uint256"
            }
          ],
          "internalType": "struct MockLayerZeroEndpointV2.MessageInfo",
          "name": "",
          "type": "tuple"
        }
      ],
      "stateMutability": "view",
      "type": "function"
    },
    {
      "inputs": [
        {
          "internalType": "bytes32",
          "name": "messageHash",
          "type": "bytes32"
        }
      ],
      "name": "isMessageDelivered",
      "outputs": [
        {
          "internalType": "bool",
          "name": "",
          "type": "bool"
        }
      ],
      "stateMutability": "view",
      "type": "function"
    },
    {
      "inputs": [
        {
          "internalType": "address",
          "name": "",
          "type": "address"
        }
      ],
      "name": "lastResetTimestamp",
      "outputs": [
        {
          "internalType": "uint256",
          "name": "",
          "type": "uint256"
        }
      ],
      "stateMutability": "view",
      "type": "function"
    },
    {
      "inputs": [
        {
          "internalType": "bytes32",
          "name": "messageHash",
          "type": "bytes32"
        }
      ],
      "name": "manualDelivery",
      "outputs": [],
      "stateMutability": "nonpayable",
      "type": "function"
    },
    {
      "inputs": [
        {
          "internalType": "address",
          "name": "",
          "type": "address"
        }
      ],
      "name": "messageNonces",
      "outputs": [
        {
          "internalType": "uint256",
          "name": "",
          "type": "uint256"
        }
      ],
      "stateMutability": "view",
      "type": "function"
    },
    {
      "inputs": [
        {
          "internalType": "bytes32",
          "name": "",
          "type": "bytes32"
        }
      ],
      "name": "processedMessages",
      "outputs": [
        {
          "internalType": "bool",
          "name": "",
          "type": "bool"
        }
      ],
      "stateMutability": "view",
      "type": "function"
    },
    {
      "inputs": [
        {
          "internalType": "uint16",
          "name": "_dstChainId",
          "type": "uint16"
        },
        {
          "internalType": "bytes",
          "name": "_destination",
          "type": "bytes"
        },
        {
          "internalType": "bytes",
          "name": "_payload",
          "type": "bytes"
        },
        {
          "internalType": "address payable",
          "name": "_refundAddress",
          "type": "address"
        },
        {
          "internalType": "address",
          "name": "",
          "type": "address"
        },
        {
          "internalType": "bytes",
          "name": "_adapterParams",
          "type": "bytes"
        }
      ],
      "name": "send",
      "outputs": [],
      "stateMutability": "payable",
      "type": "function"
    },
    {
      "inputs": [
        {
          "internalType": "bytes32",
          "name": "",
          "type": "bytes32"
        }
      ],
      "name": "sentMessages",
      "outputs": [
        {
          "internalType": "uint16",
          "name": "srcChainId",
          "type": "uint16"
        },
        {
          "internalType": "uint16",
          "name": "dstChainId",
          "type": "uint16"
        },
        {
          "internalType": "address",
          "name": "srcAddress",
          "type": "address"
        },
        {
          "internalType": "bytes",
          "name": "destination",
          "type": "bytes"
        },
        {
          "internalType": "bytes",
          "name": "payload",
          "type": "bytes"
        },
        {
          "internalType": "uint256",
          "name": "timestamp",
          "type": "uint256"
        },
        {
          "internalType": "bool",
          "name": "delivered",
          "type": "bool"
        },
        {
          "internalType": "uint256",
          "name": "nativeFee",
          "type": "uint256"
        },
        {
          "internalType": "uint256",
          "name": "gasUsed",
          "type": "uint256"
        }
      ],
      "stateMutability": "view",
      "type": "function"
    },
    {
      "inputs": [
        {
          "internalType": "uint16",
          "name": "lzChainId",
          "type": "uint16"
        },
        {
          "internalType": "bool",
          "name": "enabled",
          "type": "bool"
        }
      ],
      "name": "setFastMode",
      "outputs": [],
      "stateMutability": "nonpayable",
      "type": "function"
    },
    {
      "inputs": [
        {
          "internalType": "uint16",
          "name": "lzChainId",
          "type": "uint16"
        },
        {
          "internalType": "string",
          "name": "name",
          "type": "string"
        },
        {
          "internalType": "bool",
          "name": "isActive",
          "type": "bool"
        },
        {
          "internalType": "uint256",
          "name": "baseFee",
          "type": "uint256"
        },
        {
          "internalType": "uint256",
          "name": "gasPerByte",
          "type": "uint256"
        },
        {
          "internalType": "uint256",
          "name": "confirmationBlocks",
          "type": "uint256"
        },
        {
          "internalType": "bool",
          "name": "fastMode",
          "type": "bool"
        }
      ],
      "name": "updateChainConfig",
      "outputs": [],
      "stateMutability": "nonpayable",
      "type": "function"
    },
    {
      "stateMutability": "payable",
      "type": "receive"
    }
  ],
  "bytecode": "0x6080604052346200002657620000146200002b565b6040516130bb620008bd82396130bb90f35b600080fd5b6200003562000212565b565b6200004a62000047620000479290565b90565b61ffff1690565b634e487b7160e01b600052604160045260246000fd5b90601f01601f191681019081106001600160401b038211176200008957604052565b62000051565b90620000356200009e60405190565b928362000067565b6001600160401b0381116200008957602090601f01601f19160190565b90620000d9620000d383620000a6565b6200008f565b918252565b620000ea6008620000c3565b67457468657265756d60c01b602082015290565b62000047620000de565b6200004762000047620000479290565b620001246003620000c3565b6242534360e81b602082015290565b6200004762000118565b620001496007620000c3565b662837b63cb3b7b760c91b602082015290565b620000476200013d565b620001726008620000c3565b67417262697472756d60c01b602082015290565b6200004762000166565b6200019c6009620000c3565b684176616c616e63686560b81b602082015290565b6200004762000190565b620001c76008620000c3565b67487970657245564d60c01b602082015290565b62000047620001bb565b6040808252600b908201526a125b9a5d1a585b1a5e995960aa1b6060820152901515602082015260800190565b60017f943a90132f011f846ab5c9cff048d77b067f7abd5977ae435f33afa9d2703620620003f5620003e060006200028d8162000250606562000037565b6200025a620000fe565b6200026c66038d7ea4c6800062000108565b8962000279601062000108565b9262000286600c62000108565b946200082f565b620002d4816200029e606662000037565b620002a862000133565b620002ba660110d9316ec00062000108565b89620002c7600562000108565b9262000286600362000108565b620003da85655af3107a40006200032284620002f1606d62000037565b62000306620002ff6200015c565b9462000108565b93848662000315600862000108565b9262000286601462000108565b6200032e606e62000037565b9062000373856200033e62000186565b93620003516601c6bf5263400062000108565b6200035d600462000108565b90876200036a8162000108565b9788946200082f565b6200037f606a62000037565b90620003bb866200038f620001b1565b93620003a165b5e620f4800062000108565b620003ad600662000108565b90886200036a600262000108565b83620003c961753062000037565b620003d3620001db565b906200082f565b62000037565b92620003eb60405190565b91829182620001e5565b0390a2565b6200004760e06200008f565b6200004a62000047620000479261ffff1690565b90620004269062000406565b600052602052604060002090565b5161ffff1690565b9061ffff905b9181191691161790565b906200046062000047620004689262000406565b82546200043c565b9055565b634e487b7160e01b600052602260045260246000fd5b9060016002830492168015620004a5575b60208310146200049f57565b6200046c565b91607f169162000493565b9160001960089290920291821b911b62000442565b921b90565b9190620004df62000047620004689362000108565b908354620004b0565b6200003591600091620004ca565b81811062000502575050565b80620005126000600193620004e8565b01620004f6565b9190601f81116200052957505050565b6200053d6200003593600052602060002090565b906020601f84018190048301931062000561575b6020601f909101040190620004f6565b909150819062000551565b9062000576815190565b906001600160401b03821162000089576200059e8262000597855462000482565b8562000519565b602090601f8311600114620005dd5762000468929160009183620005d1575b5050600019600883021c1916906002021790565b015190503880620005bd565b601f19831691620005f385600052602060002090565b9260005b81811062000634575091600293918560019694106200061a575b50505002019055565b01516000196008601f8516021c1916905538808062000611565b91936020600181928787015181550195019201620005f7565b9062000035916200056c565b51151590565b9060ff9062000442565b151590565b906200068262000047620004689262000669565b82546200065f565b5190565b906000199062000442565b90620006ad62000047620004689262000108565b82546200068e565b60066200076c60c06200003594620006db620006d46000830162000434565b866200044c565b620006f5620006eb602083015190565b600187016200064d565b62000711620007076040830162000659565b600287016200066e565b6200072d62000723606083016200068a565b6003870162000699565b620007496200073f608083016200068a565b6004870162000699565b620007656200075b60a083016200068a565b6005870162000699565b0162000659565b91016200066e565b906200003591620006b5565b634e487b7160e01b600052603260045260246000fd5b8054919291831015620007c1576010620007b7600292600052602060002090565b8185040193060290565b62000780565b9190600862000442910291620004c561ffff841b90565b9190620007f362000047620004689362000406565b908354620007c7565b908154916801000000000000000083101562000089578262000828916001620000359501815562000796565b90620007de565b94620008989062000891620008b4966200088a60009762000883620008a1986200087a620000359e99620008738f62000867620003fa565b9e8f019061ffff169052565b60208d0152565b151560408b0152565b6060890152565b6080870152565b60a0850152565b151560c0830152565b620008ae8360036200041a565b62000774565b6004620007fc56fe60806040526004361015610018575b361561001657005b005b60003560e01c806312065fe0146101885780631b779a55146101835780631ba82e571461017e5780632ce8b6421461017957806340a7bb10146101745780635166e5181461016f5780636ff1c9bc1461016a57806370f41bff146101655780637ce1ffeb1461016057806382e3702d1461015b57806388ba16ab1461015657806394cc868314610151578063a0c7fe5c1461014c578063b3ff756314610147578063c17786a014610142578063c58031001461013d578063d160a3c214610138578063d7363ce714610133578063e78cbceb1461012e578063f091dcf414610129578063f26254fb14610124578063f92db1a31461011f5763fcaa63c10361000e57610eec565b610e39565b610e0d565b610dd6565b610dab565b610d90565b610d5c565b610bd4565b610b17565b610a5f565b6109a3565b61097c565b6108f6565b610892565b610581565b610546565b61051e565b610503565b61044f565b61037c565b610277565b61022c565b6101a3565b600091031261019857565b600080fd5b9052565b565b34610198576101b336600461018d565b6101ce6101be610f1c565b6040519182918290815260200190565b0390f35b909182601f830112156101985781359167ffffffffffffffff831161019857602001926020830284011161019857565b9060208282031261019857813567ffffffffffffffff81116101985761022892016101d2565b9091565b346101985761024561023f366004610202565b90610f43565b604051005b805b0361019857565b905035906101a18261024a565b906020828203126101985761027491610253565b90565b34610198576101ce61029261028d366004610260565b610ffc565b60405191829182901515815260200190565b61ffff811661024c565b905035906101a1826102a4565b909182601f830112156101985781359167ffffffffffffffff831161019857602001926001830284011161019857565b80151561024c565b905035906101a1826102eb565b9160e0838303126101985761031582846102ae565b92602081013567ffffffffffffffff811161019857836103369183016102bb565b92909361034681604085016102f3565b926103548260608301610253565b926102746103658460808501610253565b9360c06103758260a08701610253565b94016102f3565b346101985761024561038f366004610300565b9695909594919493929361137b565b6001600160a01b031690565b6001600160a01b03811661024c565b905035906101a1826103aa565b60a081830312610198576103da82826102ae565b926103e883602084016103b9565b92604083013567ffffffffffffffff811161019857816104099185016102bb565b92909361041983606083016102f3565b92608082013567ffffffffffffffff81116101985761022892016102bb565b9081526040810192916101a19160200152565b0152565b346101985761046e6104623660046103c6565b95949094939193611525565b906101ce61047b60405190565b92839283610438565b9060208282031261019857610274916103b9565b61039e610274610274926001600160a01b031690565b61027490610498565b610274906104ae565b906104ca906104b7565b600052602052604060002090565b610274916008021c81565b9061027491546104d8565b60006104fe6102749260056104c0565b6104e3565b34610198576101ce6101be610519366004610484565b6104ee565b3461019857610245610531366004610484565b611780565b60006104fe6102749260016104c0565b34610198576101ce6101be61055c366004610484565b610536565b6102746102746102749290565b61027461c350610561565b61027461056e565b346101985761059136600461018d565b6101ce6101be610579565b906104ca565b610274905b61ffff1690565b61027490546105a2565b6102749060101c6105a7565b61027490546105b8565b6102749060201c61039e565b61027490546105ce565b634e487b7160e01b600052602260045260246000fd5b906001600283049216801561061a575b602083101461061557565b6105e4565b91607f169161060a565b80546000939291610641610637836105fa565b8085529360200190565b9160018116908115610693575060011461065a57505050565b61066d9192939450600052602060002090565b916000925b81841061067f5750500190565b805484840152602090930192600101610672565b92949550505060ff1916825215156020020190565b9061027491610624565b634e487b7160e01b600052604160045260246000fd5b90601f01601f1916810190811067ffffffffffffffff8211176106ea57604052565b6106b2565b906101a16107099261070060405190565b938480926106a8565b03836106c8565b6102749081565b6102749054610710565b610274905b60ff1690565b6102749054610721565b61074190600061059c565b61074a816105ae565b91610754826105c4565b9161075e816105da565b9161076b600183016106ef565b91610778600282016106ef565b9161078560038301610717565b916107926004820161072c565b9161027460066107a460058501610717565b9301610717565b60005b8381106107be5750506000910152565b81810151838201526020016107ae565b6107ef6107f8602093610802936107e3815190565b80835293849260200190565b958691016107ab565b601f01601f191690565b0190565b9461087a6108829161086c610100999d9c9a9461044b9861085f6101a19e9961084f61088b9a60208f610845610120820198600083019061ffff169052565b019061ffff169052565b6001600160a01b031660408d0152565b8a820360608c01526107ce565b9088820360808a01526107ce565b9a60a0870152565b151560c0850152565b60e0830152565b34610198576101ce6108ad6108a8366004610260565b610736565b956108c099979995919594929460405190565b998a998a610806565b610274916008021c610726565b9061027491546108c9565b60006108f161027492600261059c565b6108d6565b34610198576101ce61029261090c366004610260565b6108e1565b9061093161092a610920845190565b8084529260200190565b9260200190565b9060005b8181106109425750505090565b90919261096361095c600192865161ffff16815260200190565b9460200190565b929101610935565b602080825261027492910190610911565b346101985761098c36600461018d565b6101ce610997611c73565b6040519182918261096b565b34610198576102456109b6366004610260565b611d61565b805161ffff168252906102749061010080610a1c610a0a610120850160208881015161ffff16908701526040888101516001600160a01b031690870152606088015186820360608801526107ce565b608087015185820360808701526107ce565b94610a2c60a082015160a0860152565b60c081810151151590850152610a4760e082015160e0860152565b0151910152565b6020808252610274929101906109bb565b34610198576101ce610a7a610a75366004610260565b611eb8565b60405191829182610a4e565b9060208282031261019857610274916102ae565b805161ffff168252906102749060c080610ac360e08401602087015185820360208701526107ce565b60408087015115159085015294610adf60608201516060860152565b610aee60808201516080860152565b610afd60a082015160a0860152565b01511515910152565b602080825261027492910190610a9a565b34610198576101ce610b32610b2d366004610a86565b611ef7565b60405191829182610b06565b9060c08282031261019857610b5381836102ae565b92602083013567ffffffffffffffff81116101985782610b749185016102bb565b929093604081013567ffffffffffffffff81116101985782610b979183016102bb565b929093610ba782606085016103b9565b92610bb583608083016103b9565b9260a082013567ffffffffffffffff81116101985761022892016102bb565b610245610be2366004610b3e565b97969096959195949294612421565b6105a76102746102749261ffff1690565b906104ca90610bf1565b80546000939291610c1f610637836105fa565b91600181169081156106935750600114610c3857505050565b610c4b9192939450600052602060002090565b916000925b818410610c5d5750500190565b805484840152602090930192600101610c50565b9061027491610c0c565b906101a161070992610c8c60405190565b93848092610c71565b610ca0906003610c02565b610ca9816105ae565b91610cb660018301610c7b565b91610cc36002820161072c565b91610cd060038301610717565b91610cdd60048201610717565b916102746006610cef60058501610717565b930161072c565b92979694610d4d90610d4660c096610d3f610d356101a19b96610d5498610d2860e08c019260008d019061ffff169052565b8a820360208c01526107ce565b9c15156040890152565b6060870152565b6080850152565b60a0830152565b019015159052565b34610198576101ce610d77610d72366004610a86565b610c95565b93610d8797959793919360405190565b97889788610cf6565b34610198576101ce6101be610da6366004610484565b612823565b34610198576101ce6101be610dc1366004610484565b61283f565b60006104fe6102749260066104c0565b34610198576101ce6101be610dec366004610484565b610dc6565b91906040838203126101985761027490602061037582866102ae565b3461019857610245610e20366004610df1565b90612889565b6102746103e8610561565b610274610e26565b3461019857610e4936600461018d565b6101ce6101be610e31565b634e487b7160e01b600052603260045260246000fd5b906020610e82818306601f0393600052602060002090565b91040191565b8054919291831015610eb1576010610ea7600292600052602060002090565b8185040193060290565b610e54565b610274916008021c6105a7565b906102749154610eb6565b60045481101561019857610ee6610274916004610e88565b90610ec3565b34610198576101ce610f07610f02366004610260565b610ece565b6040519182918261ffff909116815260200190565b610f25306104b7565b3190565b9190811015610eb1576020020190565b356102748161024a565b9190916000610f5181610561565b84811015610ff55780610f846003610f7e610f78610f73610fa5968b8a610f29565b610f39565b8661059c565b01610717565b610f94610f9085610561565b9190565b1180610fc6575b610faa5760010190565b610f51565b610fc0610fbb610f73838988610f29565b612b01565b60010190565b50610ff0610fec6004610fe6610fe0610f73868c8b610f29565b8761059c565b0161072c565b1590565b610f9b565b5050509050565b6004610fe66102749261100d600090565b50600061059c565b906101a161102260405190565b92836106c8565b61027460e0611015565b67ffffffffffffffff81116106ea57602090601f01601f19160190565b90826000939282370152565b9092919261107161106c82611033565b611015565b9381855281830111610198576101a1916020850190611050565b61027491369161105c565b9061ffff905b9181191691161790565b906110b66102746110bd92610bf1565b8254611096565b9055565b9160001960089290920291821b911b61109c565b91906110e66102746110bd93610561565b9083546110c1565b6101a1916000916110d5565b818110611105575050565b8061111360006001936110ee565b016110fa565b9190601f811161112857505050565b61113a6101a193600052602060002090565b906020601f84018190048301931061115c575b6020601f9091010401906110fa565b909150819061114d565b9061116f815190565b9067ffffffffffffffff82116106ea576111938261118d85546105fa565b85611119565b602090601f83116001146111ce576110bd9291600091836111c3575b5050600019600883021c1916906002021790565b0151905038806111af565b601f198316916111e385600052602060002090565b9260005b81811061122257509160029391856001969410611208575b50505002019055565b01516000196008601f8516021c19165b90553880806111ff565b919360206001819287870151815501950192016111e7565b906101a191611166565b9060ff9061109c565b9061125d6102746110bd92151590565b8254611244565b906000199061109c565b9061127e6102746110bd92610561565b8254611264565b600661132460c06101a1946112a86112a2600083015161ffff1690565b866110a6565b6112bf6112b6602083015190565b6001870161123a565b6112d86112cf6040830151151590565b6002870161124d565b6112ef6112e6606083015190565b6003870161126e565b6113066112fd608083015190565b6004870161126e565b61131d61131460a083015190565b6005870161126e565b0151151590565b910161124d565b906101a191611285565b91906107f88161134c816108029560209181520190565b8095611050565b9392906113726020916101a194604088019188830360008a0152611335565b94019015159052565b9392959096919461138a611029565b61ffff861681529361139c878a61108b565b602086015287151560408601526060850152608084015260a0830152151560c08201526113ca826003610c02565b906113d49161132b565b6113dd90610bf1565b926113e760405190565b9283926113f49284611353565b037f943a90132f011f846ab5c9cff048d77b067f7abd5977ae435f33afa9d270362091a2565b906101a16114b0600661142b611029565b94611440611438826105ae565b61ffff168752565b61145661144f60018301610c7b565b6020880152565b61146e6114656002830161072c565b15156040880152565b61148461147d60038301610717565b6060880152565b61149a61149360048301610717565b6080880152565b610fe66114a960058301610717565b60a0880152565b151560c0840152565b6102749061141a565b634e487b7160e01b600052601160045260246000fd5b818102929181159184041417156114eb57565b6114c2565b919082018092116114eb57565b634e487b7160e01b600052601260045260246000fd5b905b908115611520570490565b6114fd565b95505091509150611534600090565b50611548611543846003610c02565b6114b9565b91611559610fec6040850151151590565b61160c576115b68361159a6115a660a06115a06115cc999761159a61158e6115949961158960606115bc9e015190565b935090565b60808801515b906114d8565b906114f0565b93015190565b61159466038d7ea4c68000610561565b91612f41565b6115c66064610561565b90611513565b90816115d661056e565b906115e7610f906102743a856114d8565b106115f8575b506102746000610561565b6116059192503a906114d8565b90386115ed565b6116518461161960405190565b9182917f5c3f2c340000000000000000000000000000000000000000000000000000000083526004830161ffff909116815260200190565b0390fd5b61039e6102746102749290565b61027490611655565b1561167257565b60405162461bcd60e51b815260206004820152602360248201527f4d6f636b4c5a456e64706f696e7456323a20696e76616c69642072656369706960448201527f656e7400000000000000000000000000000000000000000000000000000000006064820152608490fd5b906116ea61106c83611033565b918252565b3d15611709576116fe3d6116dd565b903d6000602084013e565b606090565b1561171557565b60405162461bcd60e51b815260206004820152602360248201527f4d6f636b4c5a456e64706f696e7456323a207769746864726177616c2066616960448201527f6c656400000000000000000000000000000000000000000000000000000000006064820152608490fd5b6000806101a1926117a661179661039e84611662565b61179f836104b7565b141561166b565b6117b96117b2306104b7565b31916104b7565b906117c360405190565b90818003925af16117d26116ef565b5061170e565b6102749060201c6105a7565b6102749060301c6105a7565b6102749060401c6105a7565b6102749060501c6105a7565b6102749060601c6105a7565b6102749060701c6105a7565b6102749060801c6105a7565b6102749060901c6105a7565b6102749060a01c6105a7565b6102749060b01c6105a7565b6102749060c01c6105a7565b6102749060d01c6105a7565b6102749060e01c6105a7565b6102749060f01c6105a7565b9061189b61188f610920845490565b92600052602060002090565b906000915b600f83018211611b04575490808310611ae7575b808310611aca575b808310611aad575b808310611a90575b808310611a73575b808310611a56575b808310611a39575b808310611a1c575b8083106119ff575b8083106119e2575b8083106119c5575b8083106119a8575b80831061198b575b80831061196e575b808310611951575b821061192f57505090565b8261194a60019394611942602094611874565b61ffff169052565b0191505090565b919260208161196560019361194286611868565b01930191611924565b91926020816119826001936119428661185c565b0193019161191c565b919260208161199f60019361194286611850565b01930191611914565b91926020816119bc60019361194286611844565b0193019161190c565b91926020816119d960019361194286611838565b01930191611904565b91926020816119f66001936119428661182c565b019301916118fc565b9192602081611a1360019361194286611820565b019301916118f4565b9192602081611a3060019361194286611814565b019301916118ec565b9192602081611a4d60019361194286611808565b019301916118e4565b9192602081611a6a600193611942866117fc565b019301916118dc565b9192602081611a87600193611942866117f0565b019301916118d4565b9192602081611aa4600193611942866117e4565b019301916118cc565b9192602081611ac1600193611942866117d8565b019301916118c4565b9192602081611ade600193611942866105b8565b019301916118bc565b9192602081611afb600193611942866105a2565b019301916118b4565b9283549080611b12836105a2565b61ffff16905260200180611b25836105b8565b61ffff16905260200180611b38836117d8565b61ffff16905260200180611b4b836117e4565b61ffff16905260200180611b5e836117f0565b61ffff16905260200180611b71836117fc565b61ffff16905260200180611b8483611808565b61ffff16905260200180611b9783611814565b61ffff16905260200180611baa83611820565b61ffff16905260200180611bbd8361182c565b61ffff16905260200180611bd083611838565b61ffff16905260200180611be383611844565b61ffff16905260200180611bf683611850565b61ffff16905260200180611c098361185c565b61ffff16905260200180611c1c83611868565b61ffff169052602001611c2f8192611874565b61ffff1690526020019260010191601001916118a0565b9061027491611880565b906101a161070992611c6160405190565b93848092611c46565b61027490611c50565b6102746004611c6a565b15611c8457565b60405162461bcd60e51b815260206004820152602360248201527f4d6f636b4c5a456e64706f696e7456323a206d657373616765206e6f7420666f60448201527f756e6400000000000000000000000000000000000000000000000000000000006064820152608490fd5b15611cf657565b60405162461bcd60e51b815260206004820152602360248201527f4d6f636b4c5a456e64706f696e7456323a20616c72656164792064656c69766560448201527f72656400000000000000000000000000000000000000000000000000000000006064820152608490fd5b6101a190610fbb611d9f610fec6004610fe6856000611d9a611d886003610f7e858561059c565b611d94610f9084610561565b11611c7d565b61059c565b611cef565b610274610120611015565b611db7611da4565b9060008252602080808080808080808a0160008152016000815201606081520160605b8152016000815201600081520160008152016000905250565b610274611daf565b906101a1611ea76006611e0c611da4565b94611e19611438826105ae565b611e30611e25826105c4565b61ffff166020880152565b611e4c611e3c826105da565b6001600160a01b03166040880152565b611e5b61147d600183016106ef565b611e6a611493600283016106ef565b611e796114a960038301610717565b611e91611e886004830161072c565b151560c0880152565b610f7e611ea060058301610717565b60e0880152565b610100840152565b61027490611dfb565b611ec76102749161100d611df3565b611eaf565b611ed4611029565b90600082526020808080808080880160608152016000611dda565b610274611ecc565b61154361027491611f06611eef565b506003610c02565b905051906101a18261024a565b919060408382031261019857610274906020611f378286611f0e565b9401611f0e565b929061027497959694611f8492611f77611f8e95611f6760a089019560008a019061ffff169052565b6001600160a01b03166020880152565b8583036040870152611335565b9415156060830152565b6080818503910152611335565b6040513d6000823e3d90fd5b60001981146114eb5760010190565b61019d9061ffff1660f01b90565b61019d906001600160a01b031660601b90565b90916108029083908093611050565b018092611fb6565b018092611fc4565b0191611fd7565b91611fd7565b01918252565b6105a76102746102749290565b9063ffff00009060101b61109c565b906120356102746110bd92610bf1565b8254612016565b9077ffffffffffffffffffffffffffffffffffffffff000000009060201b61109c565b9061206f6102746110bd926104b7565b825461203c565b9061207f815190565b9067ffffffffffffffff82116106ea5761209d8261118d85546105fa565b602090601f83116001146120cc576110bd9291600091836111c3575050600019600883021c1916906002021790565b601f198316916120e185600052602060002090565b9260005b818110612105575091600293918560019694106112085750505002019055565b919360206001819287870151815501950192016120e5565b906101a191612076565b6101a1916006906121e4906101009061217c8561214f612149845161ffff1690565b826110a6565b612167612161602085015161ffff1690565b82612025565b60408301516001600160a01b03165b9061205f565b61219361218a606083015190565b6001870161211d565b6121aa6121a1608083015190565b6002870161211d565b6121b86112e660a083015190565b6121d16121c860c0830151151590565b6004870161124d565b6121df61131460e083015190565b015190565b910161126e565b906101a191612127565b916060936101a19698979561221d61044b9461222b94608088019188830360008a0152611335565b918583036020870152611335565b966040830152565b61027490546105fa565b9080821461231a5761224e81612233565b9067ffffffffffffffff82116106ea5761226c8261118d85546105fa565b600090601f83116001146122a6576110bd92916000918361229b575050600019600883021c1916906002021790565b0154905038806111af565b906122bb601f19841692600052602060002090565b906122cb85600052602060002090565b92815b818110612302575091600293918560019694106122ee5750505002019055565b01546000196008601f8516021c1916611218565b919360018060209287870154815501950192016122ce565b5050565b906101a19161223d565b818103612333575050565b6101a1916006906121e4908290612371856121768361235a612354826105ae565b846110a6565b61236c612366826105c4565b84612025565b6105da565b612381600182016001870161231e565b612391600282016002870161231e565b6123a06112e660038301610717565b6123af6121c86004830161072c565b610f7e61131460058301610717565b906101a191612328565b919082039182116114eb57565b156123dc57565b60405162461bcd60e51b815260206004820152601f60248201527f4d6f636b4c5a456e64706f696e7456323a20726566756e64206661696c6564006044820152606490fd5b949795509290612435611543866003610c02565b93612446610fec6040870151151590565b612816576000978261245a610f908b610561565b146127eb578361246c610f908b610561565b146127c0578360409186896124cd8d9c61248533612fa4565b61248e306104b7565b9461249860405190565b9e8f97889687967f40a7bb10000000000000000000000000000000000000000000000000000000008852339060048901611f3e565b03915afa9687156127bb578897612789575b5086341061274b576124f23360016104c0565b9161250f6124ff84610717565b9361250985611fa7565b9061126e565b60405161256a816020810161255e44888d8b8d8a8c42943390468b9560209a999697611ffd8c99966120039860146108029d98611ff660028f9c9a611fee8e8d611fe66120039f6116ea9f9052565b908103825203826106c8565b61257c612575825190565b9160200190565b209661259161258c89600261059c565b61072c565b61270b5785906125a289600261059c565b60016125ad9161124d565b6125b646612009565b5a6125bf611da4565b61ffff9092168d83015261ffff831660208301523360408301526125e3858761108b565b60608301526125f2888561108b565b60808301526126024260a0840152565b8c151560c08301526126158c60e0840152565b6101008201526126258a8d61059c565b9061262f916121eb565b61263890610bf1565b91612642336104b7565b9389958b8861265060405190565b95869561265d95876121f5565b037f6d72279e7a76f2029cbaabae99bcb2cfb5e893d475d7267958d93a4d47053e0791a461268a9161108b565b8051906020012061269b838661059c565b906126a6908661059c565b906126b0916123be565b60c0015115612705576126c290612b01565b8034116126ce57505050565b6101a1926126e66126e08493346123c8565b916104b7565b906126f060405190565b90818003925af16126ff6116ef565b506123d5565b506126c2565b6116518861271860405190565b9182917f730ac1e20000000000000000000000000000000000000000000000000000000083526004830190815260200190565b6116518761275860405190565b9182917fa458261b000000000000000000000000000000000000000000000000000000008352349060048401610438565b6127ac91975060403d6040116127b4575b6127a481836106c8565b810190611f1b565b9690966124df565b503d61279a565b611f9b565b6040517f2e3f1f34000000000000000000000000000000000000000000000000000000008152600490fd5b6040517fac6b05f5000000000000000000000000000000000000000000000000000000008152600490fd5b6116518661161960405190565b61283a61027491612832600090565b5060016104c0565b610717565b62015180612876610f9061027461285e61285885610561565b42611513565b936115c661287061283a8860066104c0565b91610561565b116115ed5761283a6102749160056104c0565b90600661289a6101a1936003610c02565b0161124d565b369037565b906101a16128bb6128b5846116dd565b93611033565b601f1901602084016128a0565b906128d282612233565b80821015610eb157602011156128ed5760209006601f039091565b61022891610e6a565b610274916008021c60f81b90565b9061027491546128f6565b90612918825190565b811015610eb1570160200190565b905051906101a1826103aa565b906020828203126101985761027491612926565b610274906106ef565b61027460006116dd565b610274612950565b61080281601493611fc4565b61297b6102746102749290565b67ffffffffffffffff1690565b8054600093929161299b610637836105fa565b916001811690811561069357506001146129b457505050565b6129c79192939450600052602060002090565b916000925b8184106129d95750500190565b8054848401526020909301926001016129cc565b61ffff90911681526102749391612a2790612a1490608084019084820360208601526107ce565b67ffffffffffffffff9094166040830152565b6060818403910152612988565b60009060033d11612a4157565b905060046000803e60005160e01c90565b60009060443d106101a15760405160043d036004823e8051903d602483011167ffffffffffffffff83111761231a5781810191825167ffffffffffffffff8111612ab85760043d03830181602086010111612ab8576102749394955060200101906106c8565b50505050565b6020808252610274929101906107ce565b60608082526102749492612af491612aea9190840190612988565b9315156020830152565b60408184039101526107ce565b600090612b11610274828461059c565b9160048301612b25611d9f610fec8361072c565b6000936001810192612b3684612233565b93602094612b46610f9087610561565b03612dd757612b6e612b5a612b7392612947565b86612b63825190565b818301019101612933565b6104b7565b935b612b816001809561124d565b8193612b8b606090565b9750853b612b9b610f9085610561565b1115612d6457612be9612bb0612b6e886104b7565b84860190612c0f612c0a612bfb61283a612bf5612bcc876105ae565b9661236c8b612bda836105da565b6040519b8c9283019182612962565b9081038252038a6106c8565b886104c0565b612c0487610561565b906123c8565b61296e565b906002880193813b1561019857878094612c5d612c2b60405190565b978896879586947e1d3567000000000000000000000000000000000000000000000000000000008652600486016129ed565b03925af19081612dab575b50612d645790612c76612a34565b6308c379a014612d24575b50612cee575b90612ce9612cd6612cd2612ccc6002612cc47f52fa901442a270890531a2ed58630858fb2c2031e466dcafdd5b7b761353e4eb98975b87016105ae565b950194610bf1565b966104b7565b9690565b96612ce060405190565b93849384612acf565b0390a4565b94507f52fa901442a270890531a2ed58630858fb2c2031e466dcafdd5b7b761353e4eb9150612d1b6116ef565b94915081612c87565b612d2c612a52565b80612d38575b50612c81565b945096505061255e612d5c82978395612d5060405190565b93849283019182612abe565b953880612d32565b919650507f52fa901442a270890531a2ed58630858fb2c2031e466dcafdd5b7b761353e4eb925090612ce9612cd6612cd2612ccc6002612cc4612da561295a565b9b612cbd565b612dca90853d8711612dd0575b612dc281836106c8565b81019061018d565b38612c68565b503d612db8565b612de081612233565b612ded610f906014610561565b03612e0557612dfd601491612947565b015193612b75565b96929591949093612e1588612233565b612e21610f9083610561565b10612e9a57612e2f81610561565b96612e39886128a5565b96612e4387610561565b89811015612e7a5780612e62612e5c612e75938e6128c8565b90612904565b891a612e6e828c61290f565b5360010190565b612e43565b50939750939750939094612b6e612e949186612b63825190565b93612b75565b60405162461bcd60e51b815260206004820152602c60248201527f4d6f636b4c5a456e64706f696e7456323a20696e76616c69642064657374696e60448201527f6174696f6e20666f726d617400000000000000000000000000000000000000006064820152608490fd5b905b908115611520570690565b612f079061ffff165b9161ffff1690565b6115159061ffff16612f1b565b6102746102746102749261ffff1690565b61027490612f9f612f526064610561565b91612f99612f94612f84612f73612f698742612f05565b6115c6600a610561565b93612f7e6032612009565b90612f12565b612f8e600a612009565b90612f23565b612f30565b926114f0565b6114f0565b62015180612fbd610f9061027461285e61285885610561565b1161304e575b612fd161283a8260056104c0565b612fdf610f90610274610e26565b101561300457612ff36101a19160056104c0565b612509612fff82610717565b611fa7565b6116519061301160405190565b9182917f7a5f3047000000000000000000000000000000000000000000000000000000008352600483016001600160a01b03909116815260200190565b61306b61305b6000610561565b6130668360056104c0565b61126e565b6130806130798260066104c0565b429061126e565b612fc356fea26469706673582212204a5306c7d7c019c4f883f0f06d6bcf464a0a39122e5f175eeeacde60fb88773864736f6c63430008160033",
  "linkReferences": {},
  "deployedLinkReferences": {}
}