{
  "_format": "hh-sol-artifact-1",
  "contractName": "EnhancedOracleManager",
  "sourceName": "contracts/EnhancedOracleManager.sol",
  "abi": [
    {
      "inputs": [],
      "stateMutability": "nonpayable",
      "type": "constructor"
    },
    {
      "inputs": [],
      "name": "AccessControlBadConfirmation",
      "type": "error"
    },
    {
      "inputs": [
        {
          "internalType": "address",
          "name": "account",
          "type": "address"
        },
        {
          "internalType": "bytes32",
          "name": "neededRole",
          "type": "bytes32"
        }
      ],
      "name": "AccessControlUnauthorizedAccount",
      "type": "error"
    },
    {
      "inputs": [],
      "name": "ReentrancyGuardReentrantCall",
      "type": "error"
    },
    {
      "anonymous": false,
      "inputs": [
        {
          "indexed": true,
          "internalType": "address",
          "name": "asset",
          "type": "address"
        },
        {
          "indexed": true,
          "internalType": "uint32",
          "name": "assetIndex",
          "type": "uint32"
        }
      ],
      "name": "AssetRegistered",
      "type": "event"
    },
    {
      "anonymous": false,
      "inputs": [
        {
          "indexed": true,
          "internalType": "address",
          "name": "asset",
          "type": "address"
        },
        {
          "indexed": true,
          "internalType": "address",
          "name": "oracle",
          "type": "address"
        },
        {
          "indexed": false,
          "internalType": "string",
          "name": "reason",
          "type": "string"
        }
      ],
      "name": "OracleFailure",
      "type": "event"
    },
    {
      "anonymous": false,
      "inputs": [
        {
          "indexed": true,
          "internalType": "address",
          "name": "asset",
          "type": "address"
        },
        {
          "indexed": true,
          "internalType": "address",
          "name": "oracle",
          "type": "address"
        },
        {
          "indexed": false,
          "internalType": "string",
          "name": "name",
          "type": "string"
        },
        {
          "indexed": false,
          "internalType": "uint256",
          "name": "weight",
          "type": "uint256"
        }
      ],
      "name": "OracleSourceAdded",
      "type": "event"
    },
    {
      "anonymous": false,
      "inputs": [
        {
          "indexed": true,
          "internalType": "address",
          "name": "asset",
          "type": "address"
        },
        {
          "indexed": true,
          "internalType": "address",
          "name": "oracle",
          "type": "address"
        }
      ],
      "name": "OracleSourceRemoved",
      "type": "event"
    },
    {
      "anonymous": false,
      "inputs": [
        {
          "indexed": true,
          "internalType": "address",
          "name": "asset",
          "type": "address"
        },
        {
          "indexed": false,
          "internalType": "uint256",
          "name": "expectedPrice",
          "type": "uint256"
        },
        {
          "indexed": false,
          "internalType": "uint256",
          "name": "reportedPrice",
          "type": "uint256"
        }
      ],
      "name": "PriceManipulationDetected",
      "type": "event"
    },
    {
      "anonymous": false,
      "inputs": [
        {
          "indexed": true,
          "internalType": "address",
          "name": "asset",
          "type": "address"
        },
        {
          "indexed": false,
          "internalType": "uint256",
          "name": "price",
          "type": "uint256"
        },
        {
          "indexed": false,
          "internalType": "uint256",
          "name": "confidence",
          "type": "uint256"
        },
        {
          "indexed": false,
          "internalType": "uint256",
          "name": "sourceCount",
          "type": "uint256"
        }
      ],
      "name": "PriceUpdated",
      "type": "event"
    },
    {
      "anonymous": false,
      "inputs": [
        {
          "indexed": true,
          "internalType": "bytes32",
          "name": "role",
          "type": "bytes32"
        },
        {
          "indexed": true,
          "internalType": "bytes32",
          "name": "previousAdminRole",
          "type": "bytes32"
        },
        {
          "indexed": true,
          "internalType": "bytes32",
          "name": "newAdminRole",
          "type": "bytes32"
        }
      ],
      "name": "RoleAdminChanged",
      "type": "event"
    },
    {
      "anonymous": false,
      "inputs": [
        {
          "indexed": true,
          "internalType": "bytes32",
          "name": "role",
          "type": "bytes32"
        },
        {
          "indexed": true,
          "internalType": "address",
          "name": "account",
          "type": "address"
        },
        {
          "indexed": true,
          "internalType": "address",
          "name": "sender",
          "type": "address"
        }
      ],
      "name": "RoleGranted",
      "type": "event"
    },
    {
      "anonymous": false,
      "inputs": [
        {
          "indexed": true,
          "internalType": "bytes32",
          "name": "role",
          "type": "bytes32"
        },
        {
          "indexed": true,
          "internalType": "address",
          "name": "account",
          "type": "address"
        },
        {
          "indexed": true,
          "internalType": "address",
          "name": "sender",
          "type": "address"
        }
      ],
      "name": "RoleRevoked",
      "type": "event"
    },
    {
      "anonymous": false,
      "inputs": [
        {
          "indexed": true,
          "internalType": "address",
          "name": "asset",
          "type": "address"
        },
        {
          "indexed": false,
          "internalType": "uint256",
          "name": "twapPrice",
          "type": "uint256"
        },
        {
          "indexed": false,
          "internalType": "uint256",
          "name": "spotPrice",
          "type": "uint256"
        }
      ],
      "name": "TWAPUpdated",
      "type": "event"
    },
    {
      "inputs": [],
      "name": "DEFAULT_ADMIN_ROLE",
      "outputs": [
        {
          "internalType": "bytes32",
          "name": "",
          "type": "bytes32"
        }
      ],
      "stateMutability": "view",
      "type": "function"
    },
    {
      "inputs": [],
      "name": "MAX_ORACLE_SOURCES",
      "outputs": [
        {
          "internalType": "uint256",
          "name": "",
          "type": "uint256"
        }
      ],
      "stateMutability": "view",
      "type": "function"
    },
    {
      "inputs": [],
      "name": "MAX_PRICE_DEVIATION",
      "outputs": [
        {
          "internalType": "uint256",
          "name": "",
          "type": "uint256"
        }
      ],
      "stateMutability": "view",
      "type": "function"
    },
    {
      "inputs": [],
      "name": "MAX_UPDATE_INTERVAL",
      "outputs": [
        {
          "internalType": "uint256",
          "name": "",
          "type": "uint256"
        }
      ],
      "stateMutability": "view",
      "type": "function"
    },
    {
      "inputs": [],
      "name": "MIN_ORACLE_SOURCES",
      "outputs": [
        {
          "internalType": "uint256",
          "name": "",
          "type": "uint256"
        }
      ],
      "stateMutability": "view",
      "type": "function"
    },
    {
      "inputs": [],
      "name": "MIN_UPDATE_INTERVAL",
      "outputs": [
        {
          "internalType": "uint256",
          "name": "",
          "type": "uint256"
        }
      ],
      "stateMutability": "view",
      "type": "function"
    },
    {
      "inputs": [],
      "name": "ORACLE_ADMIN_ROLE",
      "outputs": [
        {
          "internalType": "bytes32",
          "name": "",
          "type": "bytes32"
        }
      ],
      "stateMutability": "view",
      "type": "function"
    },
    {
      "inputs": [],
      "name": "PRICE_UPDATER_ROLE",
      "outputs": [
        {
          "internalType": "bytes32",
          "name": "",
          "type": "bytes32"
        }
      ],
      "stateMutability": "view",
      "type": "function"
    },
    {
      "inputs": [],
      "name": "TWAP_WINDOW",
      "outputs": [
        {
          "internalType": "uint256",
          "name": "",
          "type": "uint256"
        }
      ],
      "stateMutability": "view",
      "type": "function"
    },
    {
      "inputs": [
        {
          "internalType": "address",
          "name": "asset",
          "type": "address"
        },
        {
          "internalType": "uint256",
          "name": "oracleIndex",
          "type": "uint256"
        }
      ],
      "name": "activateOracleSource",
      "outputs": [],
      "stateMutability": "nonpayable",
      "type": "function"
    },
    {
      "inputs": [
        {
          "internalType": "address",
          "name": "asset",
          "type": "address"
        },
        {
          "internalType": "contract IPriceFeed",
          "name": "oracle",
          "type": "address"
        },
        {
          "internalType": "uint256",
          "name": "weight",
          "type": "uint256"
        },
        {
          "internalType": "uint256",
          "name": "maxFailures",
          "type": "uint256"
        },
        {
          "internalType": "string",
          "name": "name",
          "type": "string"
        }
      ],
      "name": "addOracleSource",
      "outputs": [],
      "stateMutability": "nonpayable",
      "type": "function"
    },
    {
      "inputs": [
        {
          "internalType": "address",
          "name": "",
          "type": "address"
        }
      ],
      "name": "assetToIndex",
      "outputs": [
        {
          "internalType": "uint32",
          "name": "",
          "type": "uint32"
        }
      ],
      "stateMutability": "view",
      "type": "function"
    },
    {
      "inputs": [
        {
          "internalType": "address",
          "name": "asset",
          "type": "address"
        },
        {
          "internalType": "uint256",
          "name": "oracleIndex",
          "type": "uint256"
        }
      ],
      "name": "deactivateOracleSource",
      "outputs": [],
      "stateMutability": "nonpayable",
      "type": "function"
    },
    {
      "inputs": [
        {
          "internalType": "address",
          "name": "asset",
          "type": "address"
        }
      ],
      "name": "getActiveOracleCount",
      "outputs": [
        {
          "internalType": "uint256",
          "name": "count",
          "type": "uint256"
        }
      ],
      "stateMutability": "view",
      "type": "function"
    },
    {
      "inputs": [
        {
          "internalType": "address",
          "name": "asset",
          "type": "address"
        }
      ],
      "name": "getManipulationStats",
      "outputs": [
        {
          "internalType": "uint256",
          "name": "count",
          "type": "uint256"
        },
        {
          "internalType": "uint256",
          "name": "lastDetection",
          "type": "uint256"
        }
      ],
      "stateMutability": "view",
      "type": "function"
    },
    {
      "inputs": [
        {
          "internalType": "address",
          "name": "asset",
          "type": "address"
        }
      ],
      "name": "getOracleSourceCount",
      "outputs": [
        {
          "internalType": "uint256",
          "name": "",
          "type": "uint256"
        }
      ],
      "stateMutability": "view",
      "type": "function"
    },
    {
      "inputs": [
        {
          "internalType": "address",
          "name": "asset",
          "type": "address"
        }
      ],
      "name": "getPrice",
      "outputs": [
        {
          "internalType": "uint256",
          "name": "price",
          "type": "uint256"
        },
        {
          "internalType": "uint256",
          "name": "confidence",
          "type": "uint256"
        },
        {
          "internalType": "uint256",
          "name": "timestamp",
          "type": "uint256"
        }
      ],
      "stateMutability": "view",
      "type": "function"
    },
    {
      "inputs": [
        {
          "internalType": "address",
          "name": "asset",
          "type": "address"
        }
      ],
      "name": "getPriceHistoryLength",
      "outputs": [
        {
          "internalType": "uint256",
          "name": "",
          "type": "uint256"
        }
      ],
      "stateMutability": "view",
      "type": "function"
    },
    {
      "inputs": [
        {
          "internalType": "bytes32",
          "name": "role",
          "type": "bytes32"
        }
      ],
      "name": "getRoleAdmin",
      "outputs": [
        {
          "internalType": "bytes32",
          "name": "",
          "type": "bytes32"
        }
      ],
      "stateMutability": "view",
      "type": "function"
    },
    {
      "inputs": [
        {
          "internalType": "address",
          "name": "asset",
          "type": "address"
        }
      ],
      "name": "getTWAP",
      "outputs": [
        {
          "internalType": "uint256",
          "name": "twapPrice",
          "type": "uint256"
        },
        {
          "internalType": "bool",
          "name": "isValid",
          "type": "bool"
        }
      ],
      "stateMutability": "view",
      "type": "function"
    },
    {
      "inputs": [
        {
          "internalType": "bytes32",
          "name": "role",
          "type": "bytes32"
        },
        {
          "internalType": "address",
          "name": "account",
          "type": "address"
        }
      ],
      "name": "grantRole",
      "outputs": [],
      "stateMutability": "nonpayable",
      "type": "function"
    },
    {
      "inputs": [
        {
          "internalType": "bytes32",
          "name": "role",
          "type": "bytes32"
        },
        {
          "internalType": "address",
          "name": "account",
          "type": "address"
        }
      ],
      "name": "hasRole",
      "outputs": [
        {
          "internalType": "bool",
          "name": "",
          "type": "bool"
        }
      ],
      "stateMutability": "view",
      "type": "function"
    },
    {
      "inputs": [
        {
          "internalType": "uint32",
          "name": "",
          "type": "uint32"
        }
      ],
      "name": "indexToAsset",
      "outputs": [
        {
          "internalType": "address",
          "name": "",
          "type": "address"
        }
      ],
      "stateMutability": "view",
      "type": "function"
    },
    {
      "inputs": [
        {
          "internalType": "address",
          "name": "",
          "type": "address"
        }
      ],
      "name": "isAssetSupported",
      "outputs": [
        {
          "internalType": "bool",
          "name": "",
          "type": "bool"
        }
      ],
      "stateMutability": "view",
      "type": "function"
    },
    {
      "inputs": [
        {
          "internalType": "address",
          "name": "asset",
          "type": "address"
        }
      ],
      "name": "isManipulationDetected",
      "outputs": [
        {
          "internalType": "bool",
          "name": "isManipulated",
          "type": "bool"
        }
      ],
      "stateMutability": "view",
      "type": "function"
    },
    {
      "inputs": [
        {
          "internalType": "address",
          "name": "",
          "type": "address"
        }
      ],
      "name": "lastManipulationDetection",
      "outputs": [
        {
          "internalType": "uint256",
          "name": "",
          "type": "uint256"
        }
      ],
      "stateMutability": "view",
      "type": "function"
    },
    {
      "inputs": [
        {
          "internalType": "address",
          "name": "",
          "type": "address"
        }
      ],
      "name": "latestPrices",
      "outputs": [
        {
          "internalType": "uint256",
          "name": "price",
          "type": "uint256"
        },
        {
          "internalType": "uint256",
          "name": "confidence",
          "type": "uint256"
        },
        {
          "internalType": "uint256",
          "name": "timestamp",
          "type": "uint256"
        },
        {
          "internalType": "uint256",
          "name": "sourceCount",
          "type": "uint256"
        },
        {
          "internalType": "bool",
          "name": "isValid",
          "type": "bool"
        }
      ],
      "stateMutability": "view",
      "type": "function"
    },
    {
      "inputs": [],
      "name": "manipulationCooldown",
      "outputs": [
        {
          "internalType": "uint256",
          "name": "",
          "type": "uint256"
        }
      ],
      "stateMutability": "view",
      "type": "function"
    },
    {
      "inputs": [
        {
          "internalType": "address",
          "name": "",
          "type": "address"
        }
      ],
      "name": "manipulationCount",
      "outputs": [
        {
          "internalType": "uint256",
          "name": "",
          "type": "uint256"
        }
      ],
      "stateMutability": "view",
      "type": "function"
    },
    {
      "inputs": [
        {
          "internalType": "address",
          "name": "",
          "type": "address"
        }
      ],
      "name": "maxPriceAge",
      "outputs": [
        {
          "internalType": "uint256",
          "name": "",
          "type": "uint256"
        }
      ],
      "stateMutability": "view",
      "type": "function"
    },
    {
      "inputs": [
        {
          "internalType": "address",
          "name": "",
          "type": "address"
        }
      ],
      "name": "minConfidenceLevel",
      "outputs": [
        {
          "internalType": "uint256",
          "name": "",
          "type": "uint256"
        }
      ],
      "stateMutability": "view",
      "type": "function"
    },
    {
      "inputs": [],
      "name": "nextAssetIndex",
      "outputs": [
        {
          "internalType": "uint32",
          "name": "",
          "type": "uint32"
        }
      ],
      "stateMutability": "view",
      "type": "function"
    },
    {
      "inputs": [
        {
          "internalType": "address",
          "name": "",
          "type": "address"
        },
        {
          "internalType": "uint256",
          "name": "",
          "type": "uint256"
        }
      ],
      "name": "oracleSources",
      "outputs": [
        {
          "internalType": "contract IPriceFeed",
          "name": "oracle",
          "type": "address"
        },
        {
          "internalType": "uint256",
          "name": "weight",
          "type": "uint256"
        },
        {
          "internalType": "uint256",
          "name": "lastUpdate",
          "type": "uint256"
        },
        {
          "internalType": "uint256",
          "name": "failureCount",
          "type": "uint256"
        },
        {
          "internalType": "uint256",
          "name": "maxFailures",
          "type": "uint256"
        },
        {
          "internalType": "bool",
          "name": "isActive",
          "type": "bool"
        },
        {
          "internalType": "string",
          "name": "name",
          "type": "string"
        }
      ],
      "stateMutability": "view",
      "type": "function"
    },
    {
      "inputs": [
        {
          "internalType": "address",
          "name": "",
          "type": "address"
        }
      ],
      "name": "priceDeviationThreshold",
      "outputs": [
        {
          "internalType": "uint256",
          "name": "",
          "type": "uint256"
        }
      ],
      "stateMutability": "view",
      "type": "function"
    },
    {
      "inputs": [
        {
          "internalType": "address",
          "name": "",
          "type": "address"
        },
        {
          "internalType": "uint256",
          "name": "",
          "type": "uint256"
        }
      ],
      "name": "priceHistory",
      "outputs": [
        {
          "internalType": "uint256",
          "name": "price",
          "type": "uint256"
        },
        {
          "internalType": "uint256",
          "name": "timestamp",
          "type": "uint256"
        },
        {
          "internalType": "uint256",
          "name": "blockNumber",
          "type": "uint256"
        },
        {
          "internalType": "bool",
          "name": "isValid",
          "type": "bool"
        }
      ],
      "stateMutability": "view",
      "type": "function"
    },
    {
      "inputs": [
        {
          "internalType": "address",
          "name": "asset",
          "type": "address"
        },
        {
          "internalType": "uint256",
          "name": "oracleIndex",
          "type": "uint256"
        }
      ],
      "name": "removeOracleSource",
      "outputs": [],
      "stateMutability": "nonpayable",
      "type": "function"
    },
    {
      "inputs": [
        {
          "internalType": "bytes32",
          "name": "role",
          "type": "bytes32"
        },
        {
          "internalType": "address",
          "name": "callerConfirmation",
          "type": "address"
        }
      ],
      "name": "renounceRole",
      "outputs": [],
      "stateMutability": "nonpayable",
      "type": "function"
    },
    {
      "inputs": [
        {
          "internalType": "bytes32",
          "name": "role",
          "type": "bytes32"
        },
        {
          "internalType": "address",
          "name": "account",
          "type": "address"
        }
      ],
      "name": "revokeRole",
      "outputs": [],
      "stateMutability": "nonpayable",
      "type": "function"
    },
    {
      "inputs": [
        {
          "internalType": "address",
          "name": "asset",
          "type": "address"
        },
        {
          "internalType": "uint256",
          "name": "_maxPriceAge",
          "type": "uint256"
        },
        {
          "internalType": "uint256",
          "name": "_minConfidenceLevel",
          "type": "uint256"
        },
        {
          "internalType": "uint256",
          "name": "_priceDeviationThreshold",
          "type": "uint256"
        }
      ],
      "name": "setAssetConfig",
      "outputs": [],
      "stateMutability": "nonpayable",
      "type": "function"
    },
    {
      "inputs": [
        {
          "internalType": "uint256",
          "name": "_cooldown",
          "type": "uint256"
        }
      ],
      "name": "setManipulationCooldown",
      "outputs": [],
      "stateMutability": "nonpayable",
      "type": "function"
    },
    {
      "inputs": [
        {
          "internalType": "bytes4",
          "name": "interfaceId",
          "type": "bytes4"
        }
      ],
      "name": "supportsInterface",
      "outputs": [
        {
          "internalType": "bool",
          "name": "",
          "type": "bool"
        }
      ],
      "stateMutability": "view",
      "type": "function"
    },
    {
      "inputs": [],
      "name": "totalManipulationAttempts",
      "outputs": [
        {
          "internalType": "uint256",
          "name": "",
          "type": "uint256"
        }
      ],
      "stateMutability": "view",
      "type": "function"
    },
    {
      "inputs": [],
      "name": "totalOracleFailures",
      "outputs": [
        {
          "internalType": "uint256",
          "name": "",
          "type": "uint256"
        }
      ],
      "stateMutability": "view",
      "type": "function"
    },
    {
      "inputs": [],
      "name": "totalPriceUpdates",
      "outputs": [
        {
          "internalType": "uint256",
          "name": "",
          "type": "uint256"
        }
      ],
      "stateMutability": "view",
      "type": "function"
    },
    {
      "inputs": [
        {
          "internalType": "address",
          "name": "",
          "type": "address"
        }
      ],
      "name": "twapData",
      "outputs": [
        {
          "internalType": "uint256",
          "name": "cumulativePrice",
          "type": "uint256"
        },
        {
          "internalType": "uint256",
          "name": "startTime",
          "type": "uint256"
        },
        {
          "internalType": "uint256",
          "name": "updateCount",
          "type": "uint256"
        },
        {
          "internalType": "uint256",
          "name": "lastPrice",
          "type": "uint256"
        },
        {
          "internalType": "bool",
          "name": "isInitialized",
          "type": "bool"
        }
      ],
      "stateMutability": "view",
      "type": "function"
    },
    {
      "inputs": [
        {
          "internalType": "address",
          "name": "asset",
          "type": "address"
        }
      ],
      "name": "updatePrice",
      "outputs": [],
      "stateMutability": "nonpayable",
      "type": "function"
    }
  ],
  "bytecode": "0x608060405234620000265762000014620000bc565b604051613c01620002d98239613c0190f35b600080fd5b9063ffffffff905b9181191691161790565b620000506200004d6200004d9290565b90565b63ffffffff1690565b906200006d6200004d62000075926200003d565b82546200002b565b9055565b906000199062000033565b6200004d6200004d6200004d9290565b90620000a86200004d620000759262000084565b825462000079565b6200004d600062000084565b620000c662000160565b620000d46001600962000059565b620000e361012c600f62000094565b620000f9620000f1620000b0565b339062000201565b50620001257fc307c44629779eb8fc0b85f224c3d22f5876a6c84de0ee42d481eb7814f0d3a8620000f1565b50620001517fd96ba01d6560c2ab35f2940dd8d70c5f5fe06236c72674237120515918198fb0620000f1565b50565b6200004d600162000084565b620001766200016e62000154565b600162000094565b565b9062000184906200004d565b600052602052604060002090565b6200004d90620001a8906001600160a01b031682565b6001600160a01b031690565b6200004d9062000192565b6200004d90620001b4565b906200018490620001bf565b9060ff9062000033565b151590565b90620001f96200004d6200007592620001e0565b8254620001d6565b62000215620002118383620002b1565b1590565b1562000298576200024160016200023b84600062000234868262000178565b01620001ca565b620001e5565b620002636200025c6200025533936200004d565b93620001bf565b91620001bf565b917f2f8788117e7eff1d82e926ec794901d17c78024a50270940304540a733656f0d6200028f60405190565b600090a4600190565b5050600090565b60ff1690565b6200004d90546200029f565b6200004d91600062000234620002d293620002ca600090565b508262000178565b620002a556fe6080604052600436101561001257600080fd5b60003560e01c806301ffc9a7146102f2578063092ec539146102ed57806317ab65a9146102e85780631fe36e9b146102e3578063248a9ca3146102de5780632f2ff15d146102d9578063313bb483146102d457806336568abe146102cf5780633993f2b4146102ca57806339e59945146102c55780633d3072fc146102c057806340a88413146102bb57806341976e09146102b657806343a94f8e146102b1578063445b96a7146102ac578063464b4158146102a757806346d3f1c1146102a257806348aedc6b1461029d57806350e8e5061461029857806355af43a41461029357806358e1d06d1461028e57806361f401e2146102895780636579b73e146102845780637081f8281461027f5780638003a94f1461027a57806388ce50d71461027557806391d148541461027057806396ddb8951461026b57806396e85ced1461026657806396f277b714610261578063a217fddf1461025c578063b4bbec5314610257578063b724d01014610252578063bd3be27c1461024d578063d1b4907014610248578063d1f5f00c14610243578063d51e5b331461023e578063d547741f14610239578063d976d40314610234578063df1f2b931461022f578063e115e0111461022a578063e2c1d1d114610225578063e407164614610220578063e52467231461021b578063e6d7300a146102165763fb8d8101036102f757611103565b6110e8565b6110a1565b61100f565b610ff4565b610fc6565b610f98565b610f6c565b610f1e565b610ee9565b610c49565b610c22565b610bf5565b610bb5565b610b85565b610b5f565b610b32565b610afa565b610adf565b610ac3565b610aa8565b610a6f565b610a54565b610a2d565b6109eb565b610917565b6108f0565b6108d5565b6108a6565b6107f7565b6107d0565b610788565b61074a565b61070c565b6106d2565b6106b9565b610687565b610624565b61055d565b610545565b61052c565b6104ee565b6104bc565b61046b565b610429565b610351565b600080fd5b7fffffffff0000000000000000000000000000000000000000000000000000000081165b036102f757565b90503590610334826102fc565b565b906020828203126102f75761034a91610327565b90565b9052565b346102f75761037e61036c610367366004610336565b61113c565b60405191829182901515815260200190565b0390f35b6001600160a01b031690565b6001600160a01b038116610320565b905035906103348261038e565b906020828203126102f75761034a9161039d565b61038261034a61034a926001600160a01b031690565b61034a906103be565b61034a906103d4565b906103f0906103dd565b600052602052604060002090565b61034a916008021c81565b9061034a91546103fe565b600061042461034a92600b6103e6565b610409565b346102f75761037e61044461043f3660046103aa565b610414565b6040519182918290815260200190565b60009103126102f757565b61034a60006010610409565b346102f75761047b366004610454565b61037e61044461045f565b80610320565b9050359061033482610486565b91906040838203126102f75761034a9060206104b5828661039d565b940161048c565b346102f7576104d56104cf366004610499565b90611311565b604051005b906020828203126102f75761034a9161048c565b346102f75761037e6104446105043660046104da565b611321565b91906040838203126102f75761034a906020610525828661048c565b940161039d565b346102f7576104d561053f366004610509565b9061135e565b346102f7576104d56105583660046104da565b611426565b346102f7576104d5610570366004610509565b9061142f565b61034a9081565b61034a9054610576565b61034a905b60ff1690565b61034a9054610587565b6105a79060046103e6565b6105b08161057d565b916105bd6001830161057d565b916105ca6002820161057d565b9161034a60046105dc6003850161057d565b9301610592565b909594926103349461061561061c9261060e60809661060760a088019c6000890152565b6020870152565b6040850152565b6060830152565b019015159052565b346102f75761037e61063f61063a3660046103aa565b61059c565b9161064c95939560405190565b958695866105e3565b61034a916008021c5b63ffffffff1690565b9061034a9154610655565b600061068261034a9260076103e6565b610667565b346102f75761037e6106a261069d3660046103aa565b610672565b6040519182918263ffffffff909116815260200190565b346102f7576104d56106cc366004610499565b90611b75565b346102f7576104d56106e5366004610499565b90611c72565b908152606081019392610334929091604091610708906020830152565b0152565b346102f75761037e6107276107223660046103aa565b611e53565b6040519193915b938493846106eb565b9081526040810192916103349160200152565b346102f75761076261075d3660046103aa565b611f14565b9061037e61076f60405190565b92839283610737565b600061042461034a92600e6103e6565b346102f75761037e61044461079e3660046103aa565b610778565b61034a916008021c61058c565b9061034a91546107a3565b60006107cb61034a9260066103e6565b6107b0565b346102f75761037e61036c6107e63660046103aa565b6107bb565b61034a60006011610409565b346102f757610807366004610454565b61037e6104446107eb565b909182601f830112156102f75781359167ffffffffffffffff83116102f75760200192600183028401116102f757565b91909160a0818403126102f757610859838261039d565b92610867816020840161039d565b92610875826040850161048c565b92610883836060830161048c565b92608082013567ffffffffffffffff81116102f7576108a29201610812565b9091565b346102f7576104d56108b9366004610842565b949390939291926126fe565b600061042461034a92600c6103e6565b346102f75761037e6104446108eb3660046103aa565b6108c5565b346102f75761037e6104446109063660046103aa565b61270c565b61034a60006009610667565b346102f757610927366004610454565b61037e6106a261090b565b634e487b7160e01b600052603260045260246000fd5b805482101561096b57610962600491600052602060002090565b91020190600090565b610932565b61097b9060036103e6565b90610984825490565b8110156102f75761099491610948565b509061099f8261057d565b916109ac6001820161057d565b9161034a60036105dc6002850161057d565b61061c610334946109e46060949897956109dd608086019a6000870152565b6020850152565b6040830152565b346102f75761037e610a07610a01366004610499565b90610970565b90610a1494929460405190565b948594856109be565b600061042461034a92600a6103e6565b346102f75761037e610444610a433660046103aa565b610a1d565b61034a60006012610409565b346102f757610a64366004610454565b61037e610444610a48565b346102f757610a7f366004610454565b61037e7fc307c44629779eb8fc0b85f224c3d22f5876a6c84de0ee42d481eb7814f0d3a8610444565b346102f75761037e610444610abe3660046103aa565b612723565b346102f75761037e61036c610ad9366004610509565b9061273a565b346102f75761037e61036c610af53660046103aa565b61275c565b346102f7576104d5610b0d3660046103aa565b612f9e565b61034a61034a61034a9290565b61034a6103e8610b12565b61034a610b1f565b346102f757610b42366004610454565b61037e610444610b2a565b61034a6000610b12565b61034a610b4d565b346102f757610b6f366004610454565b61037e610444610b57565b6105a79060056103e6565b346102f75761037e61063f610b9b3660046103aa565b610b7a565b9081526040810192916103349160209061061c565b346102f757610bcd610bc83660046103aa565b612fa7565b9061037e610bda60405190565b92839283610ba0565b61034a603c610b12565b61034a610be3565b346102f757610c05366004610454565b61037e610444610bed565b61034a6005610b12565b61034a610c10565b346102f757610c32366004610454565b61037e610444610c1a565b61034a6000600f610409565b346102f757610c59366004610454565b61037e610444610c3d565b805482101561096b57610962600791600052602060002090565b634e487b7160e01b600052602260045260246000fd5b9060016002830492168015610cb4575b6020831014610caf57565b610c7e565b91607f1691610ca4565b80546000939291610cdb610cd183610c94565b8085529360200190565b9160018116908115610d2d5750600114610cf457505050565b610d079192939450600052602060002090565b916000925b818410610d195750500190565b805484840152602090930192600101610d0c565b92949550505060ff1916825215156020020190565b9061034a91610cbe565b634e487b7160e01b600052604160045260246000fd5b90601f01601f1916810190811067ffffffffffffffff821117610d8457604052565b610d4c565b90610334610da392610d9a60405190565b93848092610d42565b0383610d62565b610db59060026103e6565b90610dbe825490565b8110156102f757610dce91610c64565b5080546001600160a01b031691610de76001830161057d565b91610df46002820161057d565b91610e016003830161057d565b91610e0e6004820161057d565b9161034a6006610e2060058501610592565b9301610d89565b61034d906103dd565b60005b838110610e435750506000910152565b8181015183820152602001610e33565b610e74610e7d602093610e8793610e68815190565b80835293849260200190565b95869101610e30565b601f01601f191690565b0190565b9394610ecc61034a9896610ec5610edc96610ebe610ed3969b97610eb760e08c019d60008d0190610e27565b60208b0152565b6040890152565b6060870152565b6080850152565b151560a0830152565b60c0818403910152610e53565b346102f75761037e610f05610eff366004610499565b90610daa565b93610f1597959793919360405190565b97889788610e8b565b346102f7576104d5610f31366004610509565b90613075565b6080818303126102f757610f4b828261039d565b9261034a610f5c846020850161048c565b9360606104b5826040870161048c565b346102f7576104d5610f7f366004610f37565b9291909161325d565b600061042461034a92600d6103e6565b346102f75761037e610444610fae3660046103aa565b610f88565b61034a610e10610b12565b61034a610fb3565b346102f757610fd6366004610454565b61037e610444610fbe565b61034a610708610b12565b61034a610fe1565b346102f757611004366004610454565b61037e610444610fec565b346102f75761037e6104446110253660046103aa565b613269565b63ffffffff8116610320565b905035906103348261102a565b906020828203126102f75761034a91611036565b61065e61034a61034a9263ffffffff1690565b906103f090611057565b61034a916008021c610382565b9061034a9154611074565b600061109c61034a92600861106a565b611081565b346102f75761037e6110bc6110b7366004611043565b61108c565b604051918291826001600160a01b03909116815260200190565b61034a6002610b12565b61034a6110d6565b346102f7576110f8366004610454565b61037e6104446110e0565b346102f757611113366004610454565b61037e7fd96ba01d6560c2ab35f2940dd8d70c5f5fe06236c72674237120515918198fb0610444565b7f7965db0b000000000000000000000000000000000000000000000000000000007fffffffff0000000000000000000000000000000000000000000000000000000082161490811561118c575090565b61034a91507fffffffff00000000000000000000000000000000000000000000000000000000167f01ffc9a7000000000000000000000000000000000000000000000000000000001490565b610334919061120b7fc307c44629779eb8fc0b85f224c3d22f5876a6c84de0ee42d481eb7814f0d3a86132d6565b6132d6565b6112ab565b1561121757565b60405162461bcd60e51b815260206004820152601460248201527f496e76616c6964206f7261636c6520696e6465780000000000000000000000006044820152606490fd5b0390fd5b9060ff905b9181191691161790565b9061127f61034a61128692151590565b8254611260565b9055565b9060001990611265565b906112a461034a61128692610b12565b825461128a565b600361130a610334936112ee6002946112d96112d161034a6112cd848a6103e6565b5490565b845b10611210565b6112fa600160056112f3866112ee868c6103e6565b610c64565b500161126f565b6113046000610b12565b956103e6565b5001611294565b90610334916111d8565b906103f0565b600161133a61034a92611332600090565b50600061131b565b0161057d565b906103349161135161120682611321565b9061135b916132e1565b50565b9061033491611340565b610334906113957fc307c44629779eb8fc0b85f224c3d22f5876a6c84de0ee42d481eb7814f0d3a86132d6565b6113e6565b156113a157565b60405162461bcd60e51b815260206004820152601760248201527f496e76616c696420636f6f6c646f776e20706572696f640000000000000000006044820152606490fd5b610334906113f4603c610b12565b8110158061140d575b6114069061139a565b600f611294565b5061140661141c610e10610b12565b82111590506113fd565b61033490611368565b9061143933610382565b6001600160a01b038216036114515761135b91613357565b6040517f6697b232000000000000000000000000000000000000000000000000000000008152600490fd5b61033491906114aa7fc307c44629779eb8fc0b85f224c3d22f5876a6c84de0ee42d481eb7814f0d3a86132d6565b611a68565b156114b657565b60405162461bcd60e51b815260206004820152602760248201527f43616e6e6f742072656d6f76652c206d696e696d756d206f7261636c6573207260448201527f65717569726564000000000000000000000000000000000000000000000000006064820152608490fd5b634e487b7160e01b600052601160045260246000fd5b9190820391821161154457565b611521565b634e487b7160e01b600052600060045260246000fd5b906001600160a01b0390611265565b9061157e61034a611286926103dd565b825461155f565b61034a9054610c94565b9160001960089290920291821b911b611265565b91906115b461034a61128693610b12565b90835461158f565b610334916000916115a3565b8181106115d3575050565b806115e160006001936115bc565b016115c8565b9190601f81116115f657505050565b61160861033493600052602060002090565b906020601f84018190048301931061162b575b6020601f909101045b01906115c8565b909150819061161b565b908082146117205761164681611585565b9067ffffffffffffffff8211610d845761166a826116648554610c94565b856115e7565b600090601f83116001146116a55761128692916000918361169a575b5050600019600883021c1916906002021790565b015490503880611686565b906116ba601f19841692600052602060002090565b906116ca85600052602060002090565b92815b818110611708575091600293918560019694106116ee575b50505002019055565b01546000196008601f8516021c19165b90553880806116e5565b919360018060209287870154815501950192016116cd565b5050565b9061033491611635565b818103611739575050565b6006808361175d61175760006103349701546001600160a01b031690565b8561156e565b61177561176c6001830161057d565b60018601611294565b61178d6117846002830161057d565b60028601611294565b6117a561179c6003830161057d565b60038601611294565b6117bd6117b46004830161057d565b60048601611294565b6117d56117cc60058301610592565b6005860161126f565b019101611724565b91906117ec576103349161172e565b611549565b634e487b7160e01b600052603160045260246000fd5b9061181a90600019906020036008021c90565b8154169055565b9060009161184c61183782600052602060002090565b928354600019600883021c1916906002021790565b905555565b91929060208210156118b657601f841160011461188057611286929350600019600883021c1916906002021790565b50906118b16103349360016118a861189d85600052602060002090565b92601f602091010490565b820191016115c8565b611821565b506118ef82936118cd600194600052602060002090565b6116246020601f860104820192601f8616806118f7575b50601f602091010490565b600202179055565b61190390888603611807565b386118e4565b929091680100000000000000008211610d8457602011156119625760208110156119435761128691600019600883021c1916906002021790565b60019160ff191661195984600052602060002090565b55600202019055565b60019150600202019055565b90815461197a81610c94565b908183116119a3575b818310611991575b50505050565b61199a93611851565b3880808061198b565b6119af83838387611909565b611983565b8181029291811591840414171561154457565b60006103349161196e565b906000036117ec57610334906119c7565b6000808255610334916006906119fc83600183016115bc565b611a0983600283016115bc565b611a1683600383016115bc565b611a2383600483016115bc565b826005820155016119d2565b906000036117ec57610334906119e3565b80548015611a63576000190190611a60611a5a8383610c64565b90611a2f565b55565b6117f1565b611b3c611b4291611ae4611b3761034a836002611a94611a8e61034a6112cd85856103e6565b8a6112d3565b611abc611aa46112cd84846103e6565b611ab6611ab261034a6110d6565b9190565b116114af565b611b32611ae9611ae46000611ad58d6112ee88886103e6565b5001546001600160a01b031690565b6103dd565b99611b2c611b20611afa86866103e6565b611b1a611b0a6112cd89896103e6565b611b146001610b12565b90611537565b90610c64565b50916112ee86866103e6565b906117dd565b6103e6565b611a40565b916103dd565b907f8df59ffd2ab9934010730918f19f0916dc09187b8120053181b36f03b6405430611b6d60405190565b80805b0390a3565b906103349161147c565b6103349190611bad7fc307c44629779eb8fc0b85f224c3d22f5876a6c84de0ee42d481eb7814f0d3a86132d6565b611c24565b15611bb957565b60405162461bcd60e51b815260206004820152602360248201527f43616e6e6f7420646561637469766174652c206d696e696d756d20726571756960448201527f72656400000000000000000000000000000000000000000000000000000000006064820152608490fd5b60056112f3610334936112ee6000946002611c4e611c4861034a6112cd85856103e6565b856112d3565b611b32611c5e6112cd84846103e6565b611c6c611ab261034a6110d6565b11611bb2565b9061033491611b7f565b15611c8357565b60405162461bcd60e51b815260206004820152601360248201527f4173736574206e6f7420737570706f72746564000000000000000000000000006044820152606490fd5b90610334611cd560405190565b9283610d62565b61034a60a0611cc8565b90610334611d506004611cf7611cdc565b94611d08611d048261057d565b8752565b611d1e611d176001830161057d565b6020880152565b611d34611d2d6002830161057d565b6040880152565b611d4a611d436003830161057d565b6060880152565b01610592565b15156080840152565b61034a90611ce6565b15611d6957565b60405162461bcd60e51b815260206004820152601860248201527f4e6f2076616c696420707269636520617661696c61626c6500000000000000006044820152606490fd5b9190820180921161154457565b15611dc257565b60405162461bcd60e51b815260206004820152600f60248201527f507269636520746f6f207374616c6500000000000000000000000000000000006044820152606490fd5b15611e0e57565b60405162461bcd60e51b815260206004820152601860248201527f507269636520636f6e666964656e636520746f6f206c6f7700000000000000006044820152606490fd5b611e6e611e69611e648360066103e6565b610592565b611c7c565b611e81611e7c8260056103e6565b611d59565b91611e97611e926080850151151590565b611d62565b611f0e611f09611f0960006040870196611ed9611ed161034a611eb88b5190565b611ecb611ec68c600a6103e6565b61057d565b90611dae565b421115611dbb565b611f046020820197611efd611ab261034a611ec6611ef58d5190565b94600b6103e6565b1015611e07565b015190565b935190565b91929190565b9061034a611ec6611f29611ec685600e6103e6565b93600d6103e6565b610334959493929190611f637fc307c44629779eb8fc0b85f224c3d22f5876a6c84de0ee42d481eb7814f0d3a86132d6565b6123de565b61038261034a61034a9290565b61034a90611f68565b15611f8557565b60405162461bcd60e51b815260206004820152601660248201527f496e76616c6964206f7261636c652061646472657373000000000000000000006044820152606490fd5b15611fd157565b60405162461bcd60e51b815260206004820152600e60248201527f496e76616c6964207765696768740000000000000000000000000000000000006044820152606490fd5b1561201d57565b60405162461bcd60e51b815260206004820152601760248201527f546f6f206d616e79206f7261636c6520736f75726365730000000000000000006044820152606490fd5b61034a9061065e565b61034a9054612062565b61065e61034a61034a9290565b61209561034a61034a9263ffffffff1690565b64ffffffffff1690565b61209561034a61034a9290565b156120b357565b60405162461bcd60e51b815260206004820152601260248201527f4d617820617373657473207265616368656400000000000000000000000000006044820152606490fd5b9063ffffffff90611265565b9061211461034a61128692611057565b82546120f8565b63ffffffff1663ffffffff81146115445760010190565b1561213957565b60405162461bcd60e51b815260206004820152601560248201527f4f7261636c6520616c72656164792065786973747300000000000000000000006044820152606490fd5b61034a60e0611cc8565b67ffffffffffffffff8111610d8457602090601f01601f19160190565b90826000939282370152565b909291926121c66121c182612188565b611cc8565b93818552818301116102f7576103349160208501906121a5565b61034a9136916121b1565b906121f4815190565b9067ffffffffffffffff8211610d8457612212826116648554610c94565b602090601f831160011461224c57611286929160009183612241575050600019600883021c1916906002021790565b015190503880611686565b601f1983169161226185600052602060002090565b9260005b818110612299575091600293918560019694106122855750505002019055565b01516000196008601f8516021c19166116fe565b91936020600181928787015181550195019201612265565b90610334916121eb565b600661235860c0610334946122e36122dd60008301516001600160a01b031690565b8661156e565b6122fa6122f1602083015190565b60018701611294565b612311612308604083015190565b60028701611294565b61232861231f606083015190565b60038701611294565b61233f612336608083015190565b60048701611294565b611f0461234f60a0830151151590565b6005870161126f565b91016122b1565b91906117ec57610334916122bb565b9081549168010000000000000000831015610d84578261239691600161033495018155610c64565b9061235f565b9190610e7d816123b381610e879560209181520190565b80956121a5565b9392906123d960209161033494604088019188830360008a015261239c565b940152565b959091949392946123ee836103dd565b9460009461241261240161038288611f75565b6001600160a01b0389161415611f7e565b61241b86610b12565b8311806126e5575b61242c90611fca565b60029461245361243f6112cd8c896103e6565b61244d611ab261034a610c10565b10612016565b6124666124618b60076103e6565b61206b565b61247c61247289612075565b9163ffffffff1690565b14612627575b61248b87610b12565b61249b61034a6112cd8d8a6103e6565b8110156124de57806124d36124bf611ae48b8f6124d9966112ee611ad5928f6103e6565b6001600160a01b038c811691161415612132565b60010190565b61248b565b50986125916125af92959a85612571611b70979c61256a6125637f2e470af299e4ec1605df7f811ab628dd43c534143e160cbd3c2e3d94ed2ea9c69d61255361252f6125b59c9f8b61034a916103e6565b9661254c61253b61217e565b6001600160a01b03909a16848b0152565b6020890152565b61255e426040890152565b610b12565b6060860152565b6080840152565b600160a083015261258c6125858a8a6121e0565b60c0840152565b61236e565b6125a66125a2611e648360066103e6565b1590565b6125c8576103dd565b956103dd565b956125bf60405190565b938493846123ba565b6125dd60016125d88360066103e6565b61126f565b6125f86125e8610fb3565b6125f383600a6103e6565b611294565b612611612606611b58610b12565b6125f383600b6103e6565b611ae461261c610b1f565b6125f383600c6103e6565b612651612634600961206b565b61264b61264564010000000061209f565b91612082565b106120ac565b61265b600961206b565b61266f8161266a8d60076103e6565b612104565b6126838b61267e83600861106a565b61156e565b61269f612698612693600961206b565b61211b565b6009612104565b6126b16126ab8c6103dd565b91611057565b907f3fb80d06a5acb070117706488bec96c662f045d90e09871b610bbce04de7a6d06126dc60405190565b600090a3612482565b5061242c6126f4612710610b12565b8411159050612423565b906103349594939291611f31565b6112cd61034a9161271b600090565b5060026103e6565b6112cd61034a91612732600090565b5060036103e6565b61034a916000612756611e649361274f600090565b508261131b565b016103e6565b61034a612779611ec661278393612771600090565b50600d6103e6565b611ecb600f61057d565b421090565b612799906127946133b3565b6127a1565b61033461340c565b610334906127ce7fd96ba01d6560c2ab35f2940dd8d70c5f5fe06236c72674237120515918198fb06132d6565b612b52565b156127da57565b60405162461bcd60e51b815260206004820152601b60248201527f496e73756666696369656e74206f7261636c6520736f757263657300000000006044820152606490fd5b1561282657565b60405162461bcd60e51b815260206004820152601e60248201527f4173736574206e6f74207265676973746572656420696e206f7261636c6500006044820152606490fd5b67ffffffffffffffff8111610d845760208091020190565b906128906121c18361286b565b918252565b369037565b906103346128b06128aa84612883565b9361286b565b601f190160208401612895565b9050519061033482610486565b906020828203126102f75761034a916128bd565b906128906121c183612188565b6128f560166128de565b7f496e76616c69642070726963652072657475726e656400000000000000000000602082015290565b61034a6128eb565b9061292f825190565b81101561096b576020809102010190565b60001981146115445760010190565b60009060033d1161295c57565b905060046000803e60005160e01c90565b60009060443d106103345760405160043d036004823e8051903d602483011167ffffffffffffffff8311176117205781810191825167ffffffffffffffff811161198b5760043d0383018160208601011161198b5761034a939495506020010190610d62565b6129dd600d6128de565b7f556e6b6e6f776e206572726f7200000000000000000000000000000000000000602082015290565b61034a6129d3565b15612a1557565b60405162461bcd60e51b815260206004820152602160248201527f496e73756666696369656e742076616c6964206f7261636c6520736f7572636560448201527f73000000000000000000000000000000000000000000000000000000000000006064820152608490fd5b15612a8757565b60405162461bcd60e51b815260206004820152601960248201527f4e6f2076616c696420776569676874656420736f7572636573000000000000006044820152606490fd5b634e487b7160e01b600052601260045260246000fd5b8115612aec570490565b612acc565b6004612b41608061033494612b10612b0a600083015190565b86611294565b612b1e6122f1602083015190565b612b2c612308604083015190565b612b3a61231f606083015190565b0151151590565b910161126f565b9061033491612af1565b612b63611e69611e648360066103e6565b600290612b736112cd82846103e6565b91612b88612b7f6110d6565b938411156127d3565b612b966124618360076103e6565b90600091612bb4612ba684612075565b63ffffffff8316141561281f565b612bbd83610b12565b9182918390612bd7612bd26112cd89866103e6565b61289a565b93612be8612bd26112cd8a876103e6565b99865b612bfb61034a6112cd8c896103e6565b811015612ddf57612c17612c13826112ee8d8a6103e6565b5090565b612c266125a260058301610592565b612dd6578c612c41611ae48c8401546001600160a01b031690565b6020612c4c60405190565b7fda26663a00000000000000000000000000000000000000000000000000000000815263ffffffff8916600482015291829060249082905afa8c9181612da6575b50612cfa57505050612cb8906001612ca361294f565b6308c379a014612ccf575b612cbd5760010190565b612beb565b6124d3612cc8612a06565b828d6134c2565b8b612cd861296d565b80612ce5575b5050612cae565b612cf3919250838d936134c2565b8b38612cde565b919691898b8211828f82612d95575b505015612d815792612d42600393612d2f612d4794612d2c89612cb89a99612926565b52565b612d3b86600192612926565b9015159052565b612940565b96612d54428a8301611294565b018980612d6361034a8461057d565b11612d71575b505060010190565b612d7a91611294565b3889612d69565b5050509450612cb8906124d3612cc861291e565b612d9f925061341e565b828f612d09565b612dc891925060203d8111612dcf575b612dc08183610d62565b8101906128ca565b9038612c8d565b503d612db6565b50600101612beb565b5092915096949597612df4612dfc9195949590565b821015612a0e565b612e078984876135ab565b612f9357855b612e1d61034a6112cd88886103e6565b811015612ea757612e37612e31828c612926565b51151590565b612e49575b600101612e0d565b612e0d565b9596612e9f612e8b612e4492611ecb88612e856001612e7e8e6112ee8f612e788f84612e7491612926565b5190565b966103e6565b500161057d565b906119b4565b98611ecb6001612e7e8b6112ee8c8c6103e6565b969050612e3c565b50969484919850612f849250612f0e612f086112cd612f8e9697612f02612f63957f40a2e1011bc4b63fe019abc98ce43b9ae4a22f2072b84f3d14941dc1675979c29c612efd612ef68e610b12565b8311612a80565b612ae2565b986103e6565b896137a8565b95612f1986846137c4565b612f2b86612f25611cdc565b92830152565b612f36876020830152565b612f41426040830152565b612f4c896060830152565b60016080820152612f5e8360056103e6565b612b48565b612f6d8482613a1c565b611ae4612f7d612d42601061057d565b6010611294565b9461072e60405190565b0390a2565b509650505050505050565b61033490612788565b611e7c612fbe91612fb6600090565b5060046103e6565b612fce6125a26080830151151590565b8015613041575b61303057612fed612fe7602083015190565b42611537565b61300e611ab261034a612ffe610fe1565b6130086002610b12565b90612ae2565b106130305761302a906130086040613024835190565b92015190565b90600190565b5061303b6000610b12565b90600090565b506040810151613054611ab26000610b12565b14612fd5565b906103349161306b61120682611321565b9061135b91613357565b906103349161305a565b610334939291906130af7fc307c44629779eb8fc0b85f224c3d22f5876a6c84de0ee42d481eb7814f0d3a86132d6565b6131e4565b156130bb57565b60405162461bcd60e51b815260206004820152601160248201527f50726963652061676520746f6f206c6f770000000000000000000000000000006044820152606490fd5b1561310757565b60405162461bcd60e51b815260206004820152601260248201527f50726963652061676520746f6f206869676800000000000000000000000000006044820152606490fd5b1561315357565b60405162461bcd60e51b815260206004820152601860248201527f496e76616c696420636f6e666964656e6365206c6576656c00000000000000006044820152606490fd5b1561319f57565b60405162461bcd60e51b815260206004820152601c60248201527f446576696174696f6e207468726573686f6c6420746f6f2068696768000000006044820152606490fd5b61325661033494936126066125f39461320961320161034a610be3565b8210156130b4565b61321f61321761034a610fb3565b821115613100565b61323561322d612710610b12565b84111561314c565b61324b613243611388610b12565b881115613198565b6125f385600a6103e6565b600c6103e6565b9061033493929161307f565b906000916132776000610b12565b600261328961034a6112cd85846103e6565b8210156132d15760056132a3836112ee866132aa956103e6565b5001610592565b6132bc575b600101613277565b613277565b926132c96132b791612940565b9390506132af565b505050565b610334903390613b3e565b6132ee6125a2838361273a565b156133505761330860016125d8846000612756868261131b565b61331c611b3c613316339390565b936103dd565b917f2f8788117e7eff1d82e926ec794901d17c78024a50270940304540a733656f0d61334760405190565b600090a4600190565b5050600090565b613361828261273a565b156133505761337a60006125d88482612756868261131b565b613388611b3c613316339390565b917ff6391f5c32d9c69d2a47ea670b442974b53935d1edc7fd64eb21e047a839171b61334760405190565b6133bd600161057d565b6133c56110d6565b9081146133d757610334906001611294565b6040517f3ee5aeb5000000000000000000000000000000000000000000000000000000008152600490fd5b61034a6001610b12565b610334613417613402565b6001611294565b60009161342a83610b12565b81146134ac5761343e611e7c8360056103e6565b9061344c6080830151151590565b80613494575b613460575b50505050600190565b61034a611ec661347f611ab29361347a8861348797015190565b613b8f565b94600c6103e6565b1161034a57808080613457565b5060408201516134a6611ab286610b12565b11613452565b505090565b602080825261034a92910190610e53565b90611b70613567613316613561611ae46000613507612c137f6fdda1b5aed8aef71b790e2be509e753f00e796b6fc13bb1d5bd1299d6d492a5986112ee8b60026103e6565b61353a6003820161352361351d612d428361057d565b82611294565b611ec6613533612d42601261057d565b6012611294565b61354c611ab261034a6004850161057d565b101561357a575b01546001600160a01b031690565b946103dd565b9361357160405190565b918291826134b1565b613587826005830161126f565b613553565b61034d90610b12565b908152604081019291610334916020019061358c565b9192919080516135be611ab26003610b12565b106137a0576000916135cf83610b12565b908193825b6135df61034a865190565b81101561362c576135f3612e31828a612926565b613605575b6001016135d4565b6135d4565b949261362461361661360092612940565b94611ecb612e748989612926565b9590506135f8565b509194909361363b6003610b12565b8610613796578561364b91612ae2565b9161365581610b12565b94855b61366361034a875190565b8110156136d557613677612e31828b612926565b613689575b600101613658565b613658565b61369f613699612e748389612926565b86613b8f565b6136ba611ab261034a6136b0610b1f565b612e856002610b12565b111561367c57956136cd61368491612940565b96905061367c565b50935094909550612efd6136ee9294612e856064610b12565b6136fb611ab2601e610b12565b1161370557505090565b916137788361374161373a7f95970ddfff3b8a9b76a176cfc5e176a2bc5b5c119c8592946147f8d2c1caa8e49596600d6103e6565b4290611294565b61376161374f82600e6103e6565b61375b612d428261057d565b90611294565b611ae4613771612d42601161057d565b6011611294565b9261378e61378560405190565b92839283613595565b0390a2600190565b5094509250505090565b506000925050565b90612efd61034a926137b8600090565b50612e85612710610b12565b907fd0001f5ea3ff3bae8cba8defd12830f689068fb89083fe43c52059526a543f9b9061385b6133166137fb61034a8660046103e6565b6004810161380b6125a282610592565b1561386857613846906001906138218785611294565b61382d42838601611294565b61383961178483610b12565b6125d88760038601611294565b61300860026138548361057d565b920161057d565b92612f8e61076f60405190565b506001810161388461034a61387c8361057d565b611ecb610fe1565b4211156138c1576138999061373a8684611294565b6138af6138a66001610b12565b60028301611294565b6138bc8460038301611294565b613846565b506138d88161375b866138d38361057d565b611dae565b6138eb6002820161375b612d428261057d565b6138af565b61034a6080611cc8565b6003612b41606061033494613913612b0a600083015190565b6139216122f1602083015190565b612b3a612308604083015190565b91906117ec57610334916138fa565b9081549168010000000000000000831015610d84578261396691600161033495018155610948565b9061392f565b818103613977575050565b6003612b418184613990612b0a6000610334980161057d565b61399f6122f16001830161057d565b611d4a6123086002830161057d565b91906117ec576103349161396c565b6000906003906139cd83826115bc565b6139da83600183016115bc565b6139e783600283016115bc565b0155565b906000036117ec57610334906139bd565b80548015611a63576000190190611a60613a168383610948565b906139eb565b60039291613a66613a3061034a84876103e6565b91600192613a44613a3f6138f0565b928352565b613a4f426020840152565b613a5a436040840152565b6001606083015261393e565b613a736112cd83866103e6565b613a80611ab26064610b12565b11613a8c575b50509050565b80613a976000610b12565b905b613abe575b505061034a613ab191613ab693946103e6565b6139fc565b803880613a86565b613ac86063610b12565b811015613b1c57613b1682916124d3613afc613ae4878a6103e6565b613af6613af087610b12565b85611dae565b90610948565b50613b1083613b0b898c6103e6565b610948565b906139ae565b90613a99565b613a9e565b6001600160a01b0390911681526040810192916103349160200152565b90613b4c6125a2828461273a565b613b54575050565b61125c613b6060405190565b9283927fe2517d3f00000000000000000000000000000000000000000000000000000000845260048401613b21565b612efd61034a92613b9e600090565b508281811115613bbd5790613bb291611537565b612e85612710610b12565b613bc691611537565b613bb256fea2646970667358221220a0066bff33a82c767b506db5237ca268bc3fc9dd70b3a4fc417e9c011fd24c1a64736f6c63430008160033",
  "linkReferences": {},
  "deployedLinkReferences": {}
}