{
  "_format": "hh-sol-artifact-1",
  "contractName": "IndexToken",
  "sourceName": "contracts/IndexToken.sol",
  "abi": [
    {
      "inputs": [],
      "stateMutability": "nonpayable",
      "type": "constructor"
    },
    {
      "inputs": [
        {
          "internalType": "address",
          "name": "spender",
          "type": "address"
        },
        {
          "internalType": "uint256",
          "name": "allowance",
          "type": "uint256"
        },
        {
          "internalType": "uint256",
          "name": "needed",
          "type": "uint256"
        }
      ],
      "name": "ERC20InsufficientAllowance",
      "type": "error"
    },
    {
      "inputs": [
        {
          "internalType": "address",
          "name": "sender",
          "type": "address"
        },
        {
          "internalType": "uint256",
          "name": "balance",
          "type": "uint256"
        },
        {
          "internalType": "uint256",
          "name": "needed",
          "type": "uint256"
        }
      ],
      "name": "ERC20InsufficientBalance",
      "type": "error"
    },
    {
      "inputs": [
        {
          "internalType": "address",
          "name": "approver",
          "type": "address"
        }
      ],
      "name": "ERC20InvalidApprover",
      "type": "error"
    },
    {
      "inputs": [
        {
          "internalType": "address",
          "name": "receiver",
          "type": "address"
        }
      ],
      "name": "ERC20InvalidReceiver",
      "type": "error"
    },
    {
      "inputs": [
        {
          "internalType": "address",
          "name": "sender",
          "type": "address"
        }
      ],
      "name": "ERC20InvalidSender",
      "type": "error"
    },
    {
      "inputs": [
        {
          "internalType": "address",
          "name": "spender",
          "type": "address"
        }
      ],
      "name": "ERC20InvalidSpender",
      "type": "error"
    },
    {
      "inputs": [],
      "name": "InvalidInitialization",
      "type": "error"
    },
    {
      "inputs": [],
      "name": "NotInitializing",
      "type": "error"
    },
    {
      "inputs": [
        {
          "internalType": "address",
          "name": "owner",
          "type": "address"
        }
      ],
      "name": "OwnableInvalidOwner",
      "type": "error"
    },
    {
      "inputs": [
        {
          "internalType": "address",
          "name": "account",
          "type": "address"
        }
      ],
      "name": "OwnableUnauthorizedAccount",
      "type": "error"
    },
    {
      "anonymous": false,
      "inputs": [
        {
          "indexed": true,
          "internalType": "address",
          "name": "owner",
          "type": "address"
        },
        {
          "indexed": true,
          "internalType": "address",
          "name": "spender",
          "type": "address"
        },
        {
          "indexed": false,
          "internalType": "uint256",
          "name": "value",
          "type": "uint256"
        }
      ],
      "name": "Approval",
      "type": "event"
    },
    {
      "anonymous": false,
      "inputs": [
        {
          "indexed": false,
          "internalType": "uint64",
          "name": "version",
          "type": "uint64"
        }
      ],
      "name": "Initialized",
      "type": "event"
    },
    {
      "anonymous": false,
      "inputs": [
        {
          "indexed": true,
          "internalType": "address",
          "name": "previousOwner",
          "type": "address"
        },
        {
          "indexed": true,
          "internalType": "address",
          "name": "newOwner",
          "type": "address"
        }
      ],
      "name": "OwnershipTransferred",
      "type": "event"
    },
    {
      "anonymous": false,
      "inputs": [
        {
          "indexed": true,
          "internalType": "address",
          "name": "from",
          "type": "address"
        },
        {
          "indexed": true,
          "internalType": "address",
          "name": "to",
          "type": "address"
        },
        {
          "indexed": false,
          "internalType": "uint256",
          "name": "value",
          "type": "uint256"
        }
      ],
      "name": "Transfer",
      "type": "event"
    },
    {
      "inputs": [
        {
          "internalType": "address",
          "name": "owner",
          "type": "address"
        },
        {
          "internalType": "address",
          "name": "spender",
          "type": "address"
        }
      ],
      "name": "allowance",
      "outputs": [
        {
          "internalType": "uint256",
          "name": "",
          "type": "uint256"
        }
      ],
      "stateMutability": "view",
      "type": "function"
    },
    {
      "inputs": [
        {
          "internalType": "address",
          "name": "spender",
          "type": "address"
        },
        {
          "internalType": "uint256",
          "name": "value",
          "type": "uint256"
        }
      ],
      "name": "approve",
      "outputs": [
        {
          "internalType": "bool",
          "name": "",
          "type": "bool"
        }
      ],
      "stateMutability": "nonpayable",
      "type": "function"
    },
    {
      "inputs": [
        {
          "internalType": "address",
          "name": "account",
          "type": "address"
        }
      ],
      "name": "balanceOf",
      "outputs": [
        {
          "internalType": "uint256",
          "name": "",
          "type": "uint256"
        }
      ],
      "stateMutability": "view",
      "type": "function"
    },
    {
      "inputs": [
        {
          "internalType": "address",
          "name": "from",
          "type": "address"
        },
        {
          "internalType": "uint256",
          "name": "amount",
          "type": "uint256"
        }
      ],
      "name": "burn",
      "outputs": [],
      "stateMutability": "nonpayable",
      "type": "function"
    },
    {
      "inputs": [],
      "name": "decimals",
      "outputs": [
        {
          "internalType": "uint8",
          "name": "",
          "type": "uint8"
        }
      ],
      "stateMutability": "view",
      "type": "function"
    },
    {
      "inputs": [],
      "name": "factory",
      "outputs": [
        {
          "internalType": "address",
          "name": "",
          "type": "address"
        }
      ],
      "stateMutability": "view",
      "type": "function"
    },
    {
      "inputs": [],
      "name": "fundId",
      "outputs": [
        {
          "internalType": "bytes32",
          "name": "",
          "type": "bytes32"
        }
      ],
      "stateMutability": "view",
      "type": "function"
    },
    {
      "inputs": [],
      "name": "getComponents",
      "outputs": [
        {
          "components": [
            {
              "internalType": "address",
              "name": "tokenAddress",
              "type": "address"
            },
            {
              "internalType": "uint32",
              "name": "hyperliquidAssetIndex",
              "type": "uint32"
            },
            {
              "internalType": "uint256",
              "name": "targetRatio",
              "type": "uint256"
            },
            {
              "internalType": "uint256",
              "name": "depositedAmount",
              "type": "uint256"
            }
          ],
          "internalType": "struct IIndexTokenFactory.ComponentToken[]",
          "name": "",
          "type": "tuple[]"
        }
      ],
      "stateMutability": "view",
      "type": "function"
    },
    {
      "inputs": [],
      "name": "getFundDetails",
      "outputs": [
        {
          "internalType": "string",
          "name": "name",
          "type": "string"
        },
        {
          "internalType": "string",
          "name": "symbol",
          "type": "string"
        },
        {
          "internalType": "address",
          "name": "creator",
          "type": "address"
        },
        {
          "internalType": "uint256",
          "name": "totalSupply",
          "type": "uint256"
        },
        {
          "internalType": "uint256",
          "name": "nav",
          "type": "uint256"
        },
        {
          "internalType": "bool",
          "name": "isActive",
          "type": "bool"
        },
        {
          "internalType": "bool",
          "name": "isIssued",
          "type": "bool"
        }
      ],
      "stateMutability": "view",
      "type": "function"
    },
    {
      "inputs": [],
      "name": "getNavPerToken",
      "outputs": [
        {
          "internalType": "uint256",
          "name": "",
          "type": "uint256"
        }
      ],
      "stateMutability": "view",
      "type": "function"
    },
    {
      "inputs": [],
      "name": "getTotalFundValue",
      "outputs": [
        {
          "internalType": "uint256",
          "name": "",
          "type": "uint256"
        }
      ],
      "stateMutability": "view",
      "type": "function"
    },
    {
      "inputs": [
        {
          "internalType": "string",
          "name": "name",
          "type": "string"
        },
        {
          "internalType": "string",
          "name": "symbol",
          "type": "string"
        },
        {
          "internalType": "address",
          "name": "_factory",
          "type": "address"
        },
        {
          "internalType": "bytes32",
          "name": "_fundId",
          "type": "bytes32"
        }
      ],
      "name": "initialize",
      "outputs": [],
      "stateMutability": "nonpayable",
      "type": "function"
    },
    {
      "inputs": [
        {
          "internalType": "address",
          "name": "to",
          "type": "address"
        },
        {
          "internalType": "uint256",
          "name": "amount",
          "type": "uint256"
        }
      ],
      "name": "mint",
      "outputs": [],
      "stateMutability": "nonpayable",
      "type": "function"
    },
    {
      "inputs": [],
      "name": "name",
      "outputs": [
        {
          "internalType": "string",
          "name": "",
          "type": "string"
        }
      ],
      "stateMutability": "view",
      "type": "function"
    },
    {
      "inputs": [],
      "name": "owner",
      "outputs": [
        {
          "internalType": "address",
          "name": "",
          "type": "address"
        }
      ],
      "stateMutability": "view",
      "type": "function"
    },
    {
      "inputs": [],
      "name": "renounceOwnership",
      "outputs": [],
      "stateMutability": "nonpayable",
      "type": "function"
    },
    {
      "inputs": [],
      "name": "symbol",
      "outputs": [
        {
          "internalType": "string",
          "name": "",
          "type": "string"
        }
      ],
      "stateMutability": "view",
      "type": "function"
    },
    {
      "inputs": [],
      "name": "totalSupply",
      "outputs": [
        {
          "internalType": "uint256",
          "name": "",
          "type": "uint256"
        }
      ],
      "stateMutability": "view",
      "type": "function"
    },
    {
      "inputs": [
        {
          "internalType": "address",
          "name": "to",
          "type": "address"
        },
        {
          "internalType": "uint256",
          "name": "value",
          "type": "uint256"
        }
      ],
      "name": "transfer",
      "outputs": [
        {
          "internalType": "bool",
          "name": "",
          "type": "bool"
        }
      ],
      "stateMutability": "nonpayable",
      "type": "function"
    },
    {
      "inputs": [
        {
          "internalType": "address",
          "name": "from",
          "type": "address"
        },
        {
          "internalType": "address",
          "name": "to",
          "type": "address"
        },
        {
          "internalType": "uint256",
          "name": "value",
          "type": "uint256"
        }
      ],
      "name": "transferFrom",
      "outputs": [
        {
          "internalType": "bool",
          "name": "",
          "type": "bool"
        }
      ],
      "stateMutability": "nonpayable",
      "type": "function"
    },
    {
      "inputs": [
        {
          "internalType": "address",
          "name": "newOwner",
          "type": "address"
        }
      ],
      "name": "transferOwnership",
      "outputs": [],
      "stateMutability": "nonpayable",
      "type": "function"
    }
  ],
  "bytecode": "0x6080604052346200002657620000146200002b565b604051611dad620001af8239611dad90f35b600080fd5b62000035620000bc565b565b620000459060401c60ff1690565b90565b62000045905462000037565b62000045905b6001600160401b031690565b62000045905462000054565b62000045906200005a906001600160401b031682565b906200009c62000045620000b89262000072565b82546001600160401b0319166001600160401b03919091161790565b9055565b6000620000c86200015f565b01620000d48162000048565b6200014d57620000e48162000066565b6001600160401b0391908290811603620000fc575050565b816200012e7fc7f505b2f371ae2175ee4913f4499e1f2633a7b5936321eed1cdaeb6115181d293620001489362000088565b604051918291826001600160401b03909116815260200190565b0390a1565b60405163f92ee8a960e01b8152600490fd5b62000045620001a4565b6200004562000045620000459290565b620000457ff0c57e16840df040f15088dc2f81fe391c3923bec73e23a9662efc9c229c6a0062000169565b620000456200017956fe6080604052600436101561001257600080fd5b60003560e01c806306fdde031461016257806308a91f881461015d578063095ea7b31461015857806318160ddd1461015357806323b872dd1461014e578063313ce5671461014957806340c10f19146101445780635556925c1461013f57806370a082311461013a578063715018a6146101355780638604d15b146101305780638da5cb5b1461012b57806395d89b411461012657806399d50d5d146101215780639dc29fac1461011c578063a9059cbb14610117578063c45a015514610112578063d1ec8bf71461010d578063d766705a14610108578063dd62ed3e146101035763f2fde38b03610167576107dd565b6107c1565b610783565b610767565b61062d565b6105e6565b6105cd565b6105a6565b6104dd565b6104a8565b61048d565b610454565b610439565b6103f1565b610361565b610332565b610316565b6102d2565b6102a4565b610217565b6101e6565b600080fd5b600091031261016757565b60005b83811061018a5750506000910152565b818101518382015260200161017a565b6101bb6101c46020936101ce936101af815190565b80835293849260200190565b95869101610177565b601f01601f191690565b0190565b60208082526101e39291019061019a565b90565b34610167576101f636600461016c565b61020d6102016108ed565b604051918291826101d2565b0390f35b9052565b565b346101675761022736600461016c565b61020d6102326109da565b6040515b9182918290815260200190565b6001600160a01b031690565b6001600160a01b0381165b0361016757565b905035906102158261024f565b8061025a565b905035906102158261026e565b9190604083820312610167576101e390602061029d8286610261565b9401610274565b346101675761020d6102c06102ba366004610281565b90610a8c565b60405191829182901515815260200190565b34610167576102e236600461016c565b61020d610232610aad565b9091606082840312610167576101e36103068484610261565b93604061029d8260208701610261565b346101675761020d6102c061032c3660046102ed565b91610ad6565b346101675761034236600461016c565b61020d61034d610aff565b6040519182918260ff909116815260200190565b346101675761037a610374366004610281565b90610b92565b604051005b929796946103e0906103d960c0966103d26103c06103e9976103b26102159d9860e08c01908c600081840391015261019a565b908a820360208c015261019a565b6001600160a01b03909d166040890152565b6060870152565b6080850152565b151560a0830152565b019015159052565b346101675761040136600461016c565b61020d61040c610c9f565b9361041c97959793919360405190565b9788978861037f565b90602082820312610167576101e391610261565b346101675761020d61023261044f366004610425565b610d74565b346101675761046436600461016c565b61037a610deb565b6101e3916008021c81565b906101e3915461046c565b6101e3600080610477565b346101675761049d36600461016c565b61020d610232610482565b34610167576104b836600461016c565b61020d6104c3610df3565b604051918291826001600160a01b03909116815260200190565b34610167576104ed36600461016c565b61020d610201610e1c565b80516001600160a01b031682526102159190606090819060208181015163ffffffff169085015261052e60408201516040860152565b0151910152565b906101ce816080936104f8565b9061056261055b610551845190565b8084529260200190565b9260200190565b9060005b8181106105735750505090565b90919261058d6105866001928651610535565b9460200190565b929101610566565b60208082526101e392910190610542565b34610167576105b636600461016c565b61020d6105c1610f61565b60405191829182610595565b346101675761037a6105e0366004610281565b90611008565b346101675761020d6102c06105fc366004610281565b90611012565b6101e3916008021c6001600160a01b031690565b906101e39154610602565b6101e360006001610616565b346101675761063d36600461016c565b61020d6104c3610621565b634e487b7160e01b600052604160045260246000fd5b90601f01601f1916810190811067ffffffffffffffff82111761068057604052565b610648565b9061021561069260405190565b928361065e565b67ffffffffffffffff811161068057602090601f01601f19160190565b90826000939282370152565b909291926106d76106d282610699565b610685565b9381855281830111610167576102159160208501906106b6565b9080601f83011215610167578160206101e3933591016106c2565b60808183031261016757803567ffffffffffffffff811161016757826107339183016106f1565b92602082013567ffffffffffffffff811161016757610757846101e39285016106f1565b93606061029d8260408701610261565b346101675761037a61077a36600461070c565b9291909161137a565b346101675761079336600461016c565b61020d610232611386565b9190604083820312610167576101e39060206107ba8286610261565b9401610261565b346101675761020d6102326107d736600461079e565b9061140b565b346101675761037a6107f0366004610425565b6114cf565b634e487b7160e01b600052602260045260246000fd5b906001600283049216801561082b575b602083101461082657565b6107f5565b91607f169161081b565b805460009392916108526108488361080b565b8085529360200190565b91600181169081156108a4575060011461086b57505050565b61087e9192939450600052602060002090565b916000925b8184106108905750500190565b805484840152602090930192600101610883565b92949550505060ff1916825215156020020190565b906101e391610835565b906102156108dd926108d460405190565b938480926108b9565b038361065e565b6101e3906108c3565b6101e360037f52c63247e1f47db19d5ce0460030c497f067ca4cebf71ba98eeadabe20bace005b016108e4565b6102436101e36101e3926001600160a01b031690565b6101e39061091a565b6101e390610930565b905051906102158261026e565b90602082820312610167576101e391610942565b6040513d6000823e3d90fd5b634e487b7160e01b600052601160045260246000fd5b8181029291811591840414171561099857565b61096f565b6101e36101e36101e39290565b634e487b7160e01b600052601260045260246000fd5b906109ca565b9190565b9081156109d5570490565b6109aa565b6109e330610939565b60206109ee60405190565b7fd766705a00000000000000000000000000000000000000000000000000000000815291829060049082905afa908115610a87576101e391610a4191600091610a58575b50610a3b610aad565b90610985565b610a52670de0b6b3a764000061099d565b906109c0565b610a7a915060203d602011610a80575b610a72818361065e565b81019061094f565b38610a32565b503d610a68565b610963565b610a979190336114d8565b600190565b6101e39081565b6101e39054610a9c565b6101e37f52c63247e1f47db19d5ce0460030c497f067ca4cebf71ba98eeadabe20bace02610aa3565b610a97929190610ae7833383611510565b61158e565b610af96101e36101e39290565b60ff1690565b6101e36012610aec565b6101e390610243565b6101e39054610b09565b15610b2357565b60405162461bcd60e51b815260206004820152601560248201527f4f6e6c7920666163746f72792063616e2063616c6c00000000000000000000006044820152606490fd5b0390fd5b9061021591610b88610b816102436001610b12565b3314610b1c565b906102159161166d565b9061021591610b6c565b90929192610bac6106d282610699565b938185528183011161016757610215916020850190610177565b9080601f830112156101675781516101e392602001610b9c565b905051906102158261024f565b80151561025a565b9050519061021582610bed565b91906101008382031261016757825167ffffffffffffffff81116101675781610c2c918501610bc6565b92602081015167ffffffffffffffff81116101675782610c4d918301610bc6565b92610c5b8360408401610be0565b92610c698160608501610be0565b92610c778260808301610942565b926101e3610c888460a08501610942565b9360e0610c988260c08701610bf5565b9401610bf5565b610d04906000610cba610cb5610cb56001610b12565b610939565b610cc382610aa3565b90610ccd60405190565b948592839182917fbdf247c2000000000000000000000000000000000000000000000000000000005b835260048301526024820190565b03915afa908115610a875760008093819382938380938193610d2b575b5096959493929190565b9550935095505050610d4f92503d8091833e610d47818361065e565b810190610c02565b9295979194969093610d21565b90610d6690610939565b600052602052604060002090565b610dae6101e391610d83600090565b5060007f52c63247e1f47db19d5ce0460030c497f067ca4cebf71ba98eeadabe20bace005b01610d5c565b610aa3565b610dbb6116aa565b610215610dd9565b6102436101e36101e39290565b6101e390610dc3565b610215610de66000610dd0565b611711565b610215610db3565b6101e37f9016d09d72d40fdae2fd8ceac6b6234c7706214fd39c1cd1e609a0528c199300610b12565b6101e360047f52c63247e1f47db19d5ce0460030c497f067ca4cebf71ba98eeadabe20bace00610914565b67ffffffffffffffff81116106805760208091020190565b63ffffffff811661025a565b9050519061021582610e5f565b919060808382031261016757610ecb906060610e946080610685565b94610e9f8382610be0565b8652610eae8360208301610e6b565b6020870152610ec08360408301610942565b604087015201610942565b6060830152565b90929192610ee26106d282610e47565b93818552608060208601920283019281841161016757915b838310610f075750505050565b6020608091610f168486610e78565b815201920191610efa565b9080601f830112156101675781516101e392602001610ed2565b9060208282031261016757815167ffffffffffffffff8111610167576101e39201610f21565b610fb66000610f76610cb5610cb56001610b12565b610f7f82610aa3565b90610f8960405190565b938492839182917f75bb1d1700000000000000000000000000000000000000000000000000000000610cf6565b03915afa908115610a8757600091610fcc575090565b6101e391503d806000833e610fe1818361065e565b810190610f3b565b9061021591610ffe610b816102436001610b12565b9061021591611784565b9061021591610fe9565b610a9791903361158e565b6101e39060401c610af9565b6101e3905461101d565b6101e3905b67ffffffffffffffff1690565b6101e39054611033565b6110386101e36101e39290565b9067ffffffffffffffff905b9181191691161790565b6110386101e36101e39267ffffffffffffffff1690565b906110996101e36110a092611072565b825461105c565b9055565b9068ff00000000000000009060401b611068565b906110c86101e36110a092151590565b82546110a4565b6102119061104f565b60208101929161021591906110cf565b929190916110f46117c2565b93849161111061110a61110685611029565b1590565b93611045565b9360009561111d8761104f565b67ffffffffffffffff87161480611235575b60019661114c61113e8961104f565b9167ffffffffffffffff1690565b149081611211575b155b9081611208575b506111dd57611186938561117d896111748a61104f565b9b019a8b611089565b6111ce57611319565b61118f57505050565b6111bd6111c9927fc7f505b2f371ae2175ee4913f4499e1f2633a7b5936321eed1cdaeb6115181d2946110b8565b604051918291826110d8565b0390a1565b6111d8878a6110b8565b611319565b6040517ff92ee8a9000000000000000000000000000000000000000000000000000000008152600490fd5b1590503861115d565b905061115661121f30610939565b3b61122c6109c68b61099d565b14919050611154565b508461112f565b1561124357565b60405162461bcd60e51b815260206004820152601e60248201527f466163746f727920616464726573732063616e6e6f74206265207a65726f00006044820152606490fd5b1561128f57565b60405162461bcd60e51b815260206004820152601660248201527f46756e642049442063616e6e6f74206265207a65726f000000000000000000006044820152606490fd5b9060001990611068565b906112ec6101e36110a09290565b82546112d4565b906001600160a01b0390611068565b906113126101e36110a092610939565b82546112f3565b9261136361137392610215956113466113356102436000610dd0565b6001600160a01b038816141561123c565b61135e6113566101e3600061099d565b851415611288565b6117e1565b61136c83611800565b60006112de565b6001611302565b906102159392916110e8565b6113dc602061139b610cb5610cb56001610b12565b6113a56000610aa3565b906113af60405190565b938492839182917f9ff2eb5600000000000000000000000000000000000000000000000000000000610cf6565b03915afa908115610a87576000916113f2575090565b6101e3915060203d602011610a8057610a72818361065e565b6101e391611447610dae9261141e600090565b5060017f52c63247e1f47db19d5ce0460030c497f067ca4cebf71ba98eeadabe20bace00610da8565b610d5c565b610215906114586116aa565b6114626000610dd0565b6001600160a01b0381166001600160a01b03831614611485575061021590611711565b610b689061149260405190565b9182917f1e4fbdf7000000000000000000000000000000000000000000000000000000008352600483016001600160a01b03909116815260200190565b6102159061144c565b9160019161021593611819565b6001600160a01b03909116815260608101939261021592909160409161150c906020830152565b0152565b9161151b828461140b565b600019811061152b575b50505050565b818110611551579161154261154894926000940390565b91611819565b38808080611525565b82610b688361155f60405190565b9384937ffb8f41b2000000000000000000000000000000000000000000000000000000008552600485016114e5565b92919061159b6000610dd0565b936001600160a01b0385166001600160a01b03821614611623576001600160a01b0385166001600160a01b038316146115d957610215939450611977565b610b68856115e660405190565b9182917fec442f05000000000000000000000000000000000000000000000000000000008352600483016001600160a01b03909116815260200190565b610b688561163060405190565b9182917f96c6fd1e000000000000000000000000000000000000000000000000000000008352600483016001600160a01b03909116815260200190565b91906116796000610dd0565b926001600160a01b0384166001600160a01b0382161461169d576102159293611977565b610b68846115e660405190565b6116b2610df3565b339081906001600160a01b0316036116c75750565b610b68906116d460405190565b9182917f118cdaa7000000000000000000000000000000000000000000000000000000008352600483016001600160a01b03909116815260200190565b61175161174b7f9016d09d72d40fdae2fd8ceac6b6234c7706214fd39c1cd1e609a0528c199300610cb58461174583610b12565b92611302565b91610939565b907f8be0079c531659141344cd1fd0a4f28419497f9722a3daafe3b4186f6b6457e061177c60405190565b80805b0390a3565b91906117906000610dd0565b926001600160a01b0384166001600160a01b038216146117b557926102159293611977565b610b688461163060405190565b6101e36119ab565b90610215916117d76119b3565b9061021591611bc4565b90610215916117ca565b610215906117f76119b3565b61021590611bda565b610215906117eb565b906112ec6101e36110a09261099d565b9091926118437f52c63247e1f47db19d5ce0460030c497f067ca4cebf71ba98eeadabe20bace0090565b61184d6000610dd0565b6001600160a01b0381166001600160a01b0385161461192d576001600160a01b0381166001600160a01b038616146118e35750846118958561144786600161189a9601610d5c565b611809565b6118a357505050565b61177f6118d96118d37f8c5be1e5ebec7d5bd14f71427d1e84f3dd0314c0f7b2291e5b200ac8c7c3b92593610939565b93610939565b9361023660405190565b610b68906118f060405190565b9182917f94280d62000000000000000000000000000000000000000000000000000000008352600483016001600160a01b03909116815260200190565b610b689061193a60405190565b9182917fe602df05000000000000000000000000000000000000000000000000000000008352600483016001600160a01b03909116815260200190565b906102159291611bf0565b6101e37ff0c57e16840df040f15088dc2f81fe391c3923bec73e23a9662efc9c229c6a0061099d565b6101e3611982565b6119be611106611d64565b6119c457565b6040517fd7e6bcf8000000000000000000000000000000000000000000000000000000008152600490fd5b90610215916119fc6119b3565b611b83565b9160001960089290920291821b911b611068565b9190611a266101e36110a09361099d565b908354611a01565b61021591600091611a15565b818110611a45575050565b80611a536000600193611a2e565b01611a3a565b9190601f8111611a6857505050565b611a7a61021593600052602060002090565b906020601f840181900483019310611a9c575b6020601f909101040190611a3a565b9091508190611a8d565b90611aaf815190565b9067ffffffffffffffff821161068057611ad382611acd855461080b565b85611a59565b602090601f8311600114611b0e576110a0929160009183611b03575b5050600019600883021c1916906002021790565b015190503880611aef565b601f19831691611b2385600052602060002090565b9260005b818110611b6157509160029391856001969410611b48575b50505002019055565b01516000196008601f8516021c19169055388080611b3f565b91936020600181928787015181550195019201611b27565b9061021591611aa6565b90600461021592611bbe611bb47f52c63247e1f47db19d5ce0460030c497f067ca4cebf71ba98eeadabe20bace0090565b9160038301611b79565b01611b79565b90610215916119ef565b610215906114586119b3565b61021590611bce565b9190820180921161099857565b7f52c63247e1f47db19d5ce0460030c497f067ca4cebf71ba98eeadabe20bace0082611c1c6000610dd0565b6001600160a01b0381166001600160a01b03851603611cc8577fddf252ad1be2c89b69c2b068fc378daa952ba7f163c4a11628f55a4df523b3ef93836118d993611c856118d394610243600261177f9901611c7f8d611c7a83610aa3565b611be3565b90611809565b6001600160a01b03821603611cad57506002610cb59101611c7f89611ca983610aa3565b0390565b610cb591611cbb9190610d5c565b611c7f896101ce83610aa3565b905081611cd8610dae8583610d5c565b868110611d27579361177f9386611c856118d9956102436118d39661189587611d218f7fddf252ad1be2c89b69c2b068fc378daa952ba7f163c4a11628f55a4df523b3ef9e0390565b92610d5c565b84610b6888611d3560405190565b9384937fe450d38c000000000000000000000000000000000000000000000000000000008552600485016114e5565b6101e36000611d716117c2565b0161102956fea2646970667358221220a924eda6caf6959e094d6828bdbaed1956c7b303ee5aa7df7c2f045b1a852ace64736f6c63430008160033",
  "linkReferences": {},
  "deployedLinkReferences": {}
}