{
  "_format": "hh-sol-artifact-1",
  "contractName": "SmartIndexVault",
  "sourceName": "contracts/SmartIndexVault.sol",
  "abi": [
    {
      "inputs": [
        {
          "internalType": "contract IERC20",
          "name": "_asset",
          "type": "address"
        },
        {
          "internalType": "string",
          "name": "_name",
          "type": "string"
        },
        {
          "internalType": "string",
          "name": "_symbol",
          "type": "string"
        }
      ],
      "stateMutability": "nonpayable",
      "type": "constructor"
    },
    {
      "inputs": [],
      "name": "AccessControlBadConfirmation",
      "type": "error"
    },
    {
      "inputs": [
        {
          "internalType": "address",
          "name": "account",
          "type": "address"
        },
        {
          "internalType": "bytes32",
          "name": "neededRole",
          "type": "bytes32"
        }
      ],
      "name": "AccessControlUnauthorizedAccount",
      "type": "error"
    },
    {
      "inputs": [
        {
          "internalType": "address",
          "name": "spender",
          "type": "address"
        },
        {
          "internalType": "uint256",
          "name": "allowance",
          "type": "uint256"
        },
        {
          "internalType": "uint256",
          "name": "needed",
          "type": "uint256"
        }
      ],
      "name": "ERC20InsufficientAllowance",
      "type": "error"
    },
    {
      "inputs": [
        {
          "internalType": "address",
          "name": "sender",
          "type": "address"
        },
        {
          "internalType": "uint256",
          "name": "balance",
          "type": "uint256"
        },
        {
          "internalType": "uint256",
          "name": "needed",
          "type": "uint256"
        }
      ],
      "name": "ERC20InsufficientBalance",
      "type": "error"
    },
    {
      "inputs": [
        {
          "internalType": "address",
          "name": "approver",
          "type": "address"
        }
      ],
      "name": "ERC20InvalidApprover",
      "type": "error"
    },
    {
      "inputs": [
        {
          "internalType": "address",
          "name": "receiver",
          "type": "address"
        }
      ],
      "name": "ERC20InvalidReceiver",
      "type": "error"
    },
    {
      "inputs": [
        {
          "internalType": "address",
          "name": "sender",
          "type": "address"
        }
      ],
      "name": "ERC20InvalidSender",
      "type": "error"
    },
    {
      "inputs": [
        {
          "internalType": "address",
          "name": "spender",
          "type": "address"
        }
      ],
      "name": "ERC20InvalidSpender",
      "type": "error"
    },
    {
      "inputs": [
        {
          "internalType": "address",
          "name": "receiver",
          "type": "address"
        },
        {
          "internalType": "uint256",
          "name": "assets",
          "type": "uint256"
        },
        {
          "internalType": "uint256",
          "name": "max",
          "type": "uint256"
        }
      ],
      "name": "ERC4626ExceededMaxDeposit",
      "type": "error"
    },
    {
      "inputs": [
        {
          "internalType": "address",
          "name": "receiver",
          "type": "address"
        },
        {
          "internalType": "uint256",
          "name": "shares",
          "type": "uint256"
        },
        {
          "internalType": "uint256",
          "name": "max",
          "type": "uint256"
        }
      ],
      "name": "ERC4626ExceededMaxMint",
      "type": "error"
    },
    {
      "inputs": [
        {
          "internalType": "address",
          "name": "owner",
          "type": "address"
        },
        {
          "internalType": "uint256",
          "name": "shares",
          "type": "uint256"
        },
        {
          "internalType": "uint256",
          "name": "max",
          "type": "uint256"
        }
      ],
      "name": "ERC4626ExceededMaxRedeem",
      "type": "error"
    },
    {
      "inputs": [
        {
          "internalType": "address",
          "name": "owner",
          "type": "address"
        },
        {
          "internalType": "uint256",
          "name": "assets",
          "type": "uint256"
        },
        {
          "internalType": "uint256",
          "name": "max",
          "type": "uint256"
        }
      ],
      "name": "ERC4626ExceededMaxWithdraw",
      "type": "error"
    },
    {
      "inputs": [],
      "name": "EnforcedPause",
      "type": "error"
    },
    {
      "inputs": [],
      "name": "ExpectedPause",
      "type": "error"
    },
    {
      "inputs": [],
      "name": "ReentrancyGuardReentrantCall",
      "type": "error"
    },
    {
      "inputs": [
        {
          "internalType": "address",
          "name": "token",
          "type": "address"
        }
      ],
      "name": "SafeERC20FailedOperation",
      "type": "error"
    },
    {
      "anonymous": false,
      "inputs": [
        {
          "indexed": true,
          "internalType": "address",
          "name": "owner",
          "type": "address"
        },
        {
          "indexed": true,
          "internalType": "address",
          "name": "spender",
          "type": "address"
        },
        {
          "indexed": false,
          "internalType": "uint256",
          "name": "value",
          "type": "uint256"
        }
      ],
      "name": "Approval",
      "type": "event"
    },
    {
      "anonymous": false,
      "inputs": [
        {
          "indexed": true,
          "internalType": "address",
          "name": "sender",
          "type": "address"
        },
        {
          "indexed": true,
          "internalType": "address",
          "name": "owner",
          "type": "address"
        },
        {
          "indexed": false,
          "internalType": "uint256",
          "name": "assets",
          "type": "uint256"
        },
        {
          "indexed": false,
          "internalType": "uint256",
          "name": "shares",
          "type": "uint256"
        }
      ],
      "name": "Deposit",
      "type": "event"
    },
    {
      "anonymous": false,
      "inputs": [
        {
          "indexed": false,
          "internalType": "address",
          "name": "token",
          "type": "address"
        },
        {
          "indexed": false,
          "internalType": "uint256",
          "name": "amount",
          "type": "uint256"
        },
        {
          "indexed": false,
          "internalType": "address",
          "name": "recipient",
          "type": "address"
        }
      ],
      "name": "EmergencyWithdrawal",
      "type": "event"
    },
    {
      "anonymous": false,
      "inputs": [
        {
          "indexed": false,
          "internalType": "uint256",
          "name": "profit",
          "type": "uint256"
        },
        {
          "indexed": false,
          "internalType": "uint256",
          "name": "performanceFeeAmount",
          "type": "uint256"
        },
        {
          "indexed": false,
          "internalType": "uint256",
          "name": "timestamp",
          "type": "uint256"
        }
      ],
      "name": "Harvest",
      "type": "event"
    },
    {
      "anonymous": false,
      "inputs": [
        {
          "indexed": false,
          "internalType": "uint256",
          "name": "oldFee",
          "type": "uint256"
        },
        {
          "indexed": false,
          "internalType": "uint256",
          "name": "newFee",
          "type": "uint256"
        }
      ],
      "name": "ManagementFeeUpdated",
      "type": "event"
    },
    {
      "anonymous": false,
      "inputs": [
        {
          "indexed": false,
          "internalType": "address",
          "name": "account",
          "type": "address"
        }
      ],
      "name": "Paused",
      "type": "event"
    },
    {
      "anonymous": false,
      "inputs": [
        {
          "indexed": false,
          "internalType": "uint256",
          "name": "oldFee",
          "type": "uint256"
        },
        {
          "indexed": false,
          "internalType": "uint256",
          "name": "newFee",
          "type": "uint256"
        }
      ],
      "name": "PerformanceFeeUpdated",
      "type": "event"
    },
    {
      "anonymous": false,
      "inputs": [
        {
          "indexed": true,
          "internalType": "bytes32",
          "name": "role",
          "type": "bytes32"
        },
        {
          "indexed": true,
          "internalType": "bytes32",
          "name": "previousAdminRole",
          "type": "bytes32"
        },
        {
          "indexed": true,
          "internalType": "bytes32",
          "name": "newAdminRole",
          "type": "bytes32"
        }
      ],
      "name": "RoleAdminChanged",
      "type": "event"
    },
    {
      "anonymous": false,
      "inputs": [
        {
          "indexed": true,
          "internalType": "bytes32",
          "name": "role",
          "type": "bytes32"
        },
        {
          "indexed": true,
          "internalType": "address",
          "name": "account",
          "type": "address"
        },
        {
          "indexed": true,
          "internalType": "address",
          "name": "sender",
          "type": "address"
        }
      ],
      "name": "RoleGranted",
      "type": "event"
    },
    {
      "anonymous": false,
      "inputs": [
        {
          "indexed": true,
          "internalType": "bytes32",
          "name": "role",
          "type": "bytes32"
        },
        {
          "indexed": true,
          "internalType": "address",
          "name": "account",
          "type": "address"
        },
        {
          "indexed": true,
          "internalType": "address",
          "name": "sender",
          "type": "address"
        }
      ],
      "name": "RoleRevoked",
      "type": "event"
    },
    {
      "anonymous": false,
      "inputs": [
        {
          "indexed": false,
          "internalType": "string",
          "name": "strategyName",
          "type": "string"
        },
        {
          "indexed": false,
          "internalType": "uint256",
          "name": "timestamp",
          "type": "uint256"
        }
      ],
      "name": "StrategyExecuted",
      "type": "event"
    },
    {
      "anonymous": false,
      "inputs": [
        {
          "indexed": true,
          "internalType": "address",
          "name": "from",
          "type": "address"
        },
        {
          "indexed": true,
          "internalType": "address",
          "name": "to",
          "type": "address"
        },
        {
          "indexed": false,
          "internalType": "uint256",
          "name": "value",
          "type": "uint256"
        }
      ],
      "name": "Transfer",
      "type": "event"
    },
    {
      "anonymous": false,
      "inputs": [
        {
          "indexed": false,
          "internalType": "address",
          "name": "account",
          "type": "address"
        }
      ],
      "name": "Unpaused",
      "type": "event"
    },
    {
      "anonymous": false,
      "inputs": [
        {
          "indexed": true,
          "internalType": "address",
          "name": "sender",
          "type": "address"
        },
        {
          "indexed": true,
          "internalType": "address",
          "name": "receiver",
          "type": "address"
        },
        {
          "indexed": true,
          "internalType": "address",
          "name": "owner",
          "type": "address"
        },
        {
          "indexed": false,
          "internalType": "uint256",
          "name": "assets",
          "type": "uint256"
        },
        {
          "indexed": false,
          "internalType": "uint256",
          "name": "shares",
          "type": "uint256"
        }
      ],
      "name": "Withdraw",
      "type": "event"
    },
    {
      "inputs": [],
      "name": "DEFAULT_ADMIN_ROLE",
      "outputs": [
        {
          "internalType": "bytes32",
          "name": "",
          "type": "bytes32"
        }
      ],
      "stateMutability": "view",
      "type": "function"
    },
    {
      "inputs": [],
      "name": "EMERGENCY_ROLE",
      "outputs": [
        {
          "internalType": "bytes32",
          "name": "",
          "type": "bytes32"
        }
      ],
      "stateMutability": "view",
      "type": "function"
    },
    {
      "inputs": [],
      "name": "FEE_DENOMINATOR",
      "outputs": [
        {
          "internalType": "uint256",
          "name": "",
          "type": "uint256"
        }
      ],
      "stateMutability": "view",
      "type": "function"
    },
    {
      "inputs": [],
      "name": "MANAGER_ROLE",
      "outputs": [
        {
          "internalType": "bytes32",
          "name": "",
          "type": "bytes32"
        }
      ],
      "stateMutability": "view",
      "type": "function"
    },
    {
      "inputs": [],
      "name": "MAX_MANAGEMENT_FEE",
      "outputs": [
        {
          "internalType": "uint256",
          "name": "",
          "type": "uint256"
        }
      ],
      "stateMutability": "view",
      "type": "function"
    },
    {
      "inputs": [],
      "name": "MAX_PERFORMANCE_FEE",
      "outputs": [
        {
          "internalType": "uint256",
          "name": "",
          "type": "uint256"
        }
      ],
      "stateMutability": "view",
      "type": "function"
    },
    {
      "inputs": [],
      "name": "SECONDS_PER_YEAR",
      "outputs": [
        {
          "internalType": "uint256",
          "name": "",
          "type": "uint256"
        }
      ],
      "stateMutability": "view",
      "type": "function"
    },
    {
      "inputs": [],
      "name": "STRATEGIST_ROLE",
      "outputs": [
        {
          "internalType": "bytes32",
          "name": "",
          "type": "bytes32"
        }
      ],
      "stateMutability": "view",
      "type": "function"
    },
    {
      "inputs": [
        {
          "internalType": "address",
          "name": "owner",
          "type": "address"
        },
        {
          "internalType": "address",
          "name": "spender",
          "type": "address"
        }
      ],
      "name": "allowance",
      "outputs": [
        {
          "internalType": "uint256",
          "name": "",
          "type": "uint256"
        }
      ],
      "stateMutability": "view",
      "type": "function"
    },
    {
      "inputs": [
        {
          "internalType": "address",
          "name": "spender",
          "type": "address"
        },
        {
          "internalType": "uint256",
          "name": "value",
          "type": "uint256"
        }
      ],
      "name": "approve",
      "outputs": [
        {
          "internalType": "bool",
          "name": "",
          "type": "bool"
        }
      ],
      "stateMutability": "nonpayable",
      "type": "function"
    },
    {
      "inputs": [],
      "name": "asset",
      "outputs": [
        {
          "internalType": "address",
          "name": "",
          "type": "address"
        }
      ],
      "stateMutability": "view",
      "type": "function"
    },
    {
      "inputs": [
        {
          "internalType": "address",
          "name": "account",
          "type": "address"
        }
      ],
      "name": "balanceOf",
      "outputs": [
        {
          "internalType": "uint256",
          "name": "",
          "type": "uint256"
        }
      ],
      "stateMutability": "view",
      "type": "function"
    },
    {
      "inputs": [
        {
          "internalType": "uint256",
          "name": "shares",
          "type": "uint256"
        }
      ],
      "name": "convertToAssets",
      "outputs": [
        {
          "internalType": "uint256",
          "name": "",
          "type": "uint256"
        }
      ],
      "stateMutability": "view",
      "type": "function"
    },
    {
      "inputs": [
        {
          "internalType": "uint256",
          "name": "assets",
          "type": "uint256"
        }
      ],
      "name": "convertToShares",
      "outputs": [
        {
          "internalType": "uint256",
          "name": "",
          "type": "uint256"
        }
      ],
      "stateMutability": "view",
      "type": "function"
    },
    {
      "inputs": [],
      "name": "decimals",
      "outputs": [
        {
          "internalType": "uint8",
          "name": "",
          "type": "uint8"
        }
      ],
      "stateMutability": "view",
      "type": "function"
    },
    {
      "inputs": [
        {
          "internalType": "uint256",
          "name": "assets",
          "type": "uint256"
        },
        {
          "internalType": "address",
          "name": "receiver",
          "type": "address"
        }
      ],
      "name": "deposit",
      "outputs": [
        {
          "internalType": "uint256",
          "name": "",
          "type": "uint256"
        }
      ],
      "stateMutability": "nonpayable",
      "type": "function"
    },
    {
      "inputs": [
        {
          "internalType": "address",
          "name": "token",
          "type": "address"
        },
        {
          "internalType": "uint256",
          "name": "amount",
          "type": "uint256"
        }
      ],
      "name": "emergencyWithdraw",
      "outputs": [],
      "stateMutability": "nonpayable",
      "type": "function"
    },
    {
      "inputs": [],
      "name": "emergencyWithdrawalRecipient",
      "outputs": [
        {
          "internalType": "address",
          "name": "",
          "type": "address"
        }
      ],
      "stateMutability": "view",
      "type": "function"
    },
    {
      "inputs": [
        {
          "internalType": "string",
          "name": "strategyName",
          "type": "string"
        }
      ],
      "name": "executeStrategy",
      "outputs": [],
      "stateMutability": "nonpayable",
      "type": "function"
    },
    {
      "inputs": [
        {
          "internalType": "bytes32",
          "name": "role",
          "type": "bytes32"
        }
      ],
      "name": "getRoleAdmin",
      "outputs": [
        {
          "internalType": "bytes32",
          "name": "",
          "type": "bytes32"
        }
      ],
      "stateMutability": "view",
      "type": "function"
    },
    {
      "inputs": [
        {
          "internalType": "bytes32",
          "name": "role",
          "type": "bytes32"
        },
        {
          "internalType": "address",
          "name": "account",
          "type": "address"
        }
      ],
      "name": "grantRole",
      "outputs": [],
      "stateMutability": "nonpayable",
      "type": "function"
    },
    {
      "inputs": [],
      "name": "harvest",
      "outputs": [],
      "stateMutability": "nonpayable",
      "type": "function"
    },
    {
      "inputs": [
        {
          "internalType": "bytes32",
          "name": "role",
          "type": "bytes32"
        },
        {
          "internalType": "address",
          "name": "account",
          "type": "address"
        }
      ],
      "name": "hasRole",
      "outputs": [
        {
          "internalType": "bool",
          "name": "",
          "type": "bool"
        }
      ],
      "stateMutability": "view",
      "type": "function"
    },
    {
      "inputs": [],
      "name": "highWaterMark",
      "outputs": [
        {
          "internalType": "uint256",
          "name": "",
          "type": "uint256"
        }
      ],
      "stateMutability": "view",
      "type": "function"
    },
    {
      "inputs": [
        {
          "internalType": "contract IERC20",
          "name": "_asset",
          "type": "address"
        },
        {
          "internalType": "string",
          "name": "_name",
          "type": "string"
        },
        {
          "internalType": "string",
          "name": "_symbol",
          "type": "string"
        },
        {
          "internalType": "uint256",
          "name": "_managementFee",
          "type": "uint256"
        },
        {
          "internalType": "uint256",
          "name": "_performanceFee",
          "type": "uint256"
        }
      ],
      "name": "initialize",
      "outputs": [],
      "stateMutability": "nonpayable",
      "type": "function"
    },
    {
      "inputs": [],
      "name": "lastHarvestTime",
      "outputs": [
        {
          "internalType": "uint256",
          "name": "",
          "type": "uint256"
        }
      ],
      "stateMutability": "view",
      "type": "function"
    },
    {
      "inputs": [],
      "name": "lastTotalAssets",
      "outputs": [
        {
          "internalType": "uint256",
          "name": "",
          "type": "uint256"
        }
      ],
      "stateMutability": "view",
      "type": "function"
    },
    {
      "inputs": [],
      "name": "managementFee",
      "outputs": [
        {
          "internalType": "uint256",
          "name": "",
          "type": "uint256"
        }
      ],
      "stateMutability": "view",
      "type": "function"
    },
    {
      "inputs": [
        {
          "internalType": "address",
          "name": "",
          "type": "address"
        }
      ],
      "name": "maxDeposit",
      "outputs": [
        {
          "internalType": "uint256",
          "name": "",
          "type": "uint256"
        }
      ],
      "stateMutability": "view",
      "type": "function"
    },
    {
      "inputs": [
        {
          "internalType": "address",
          "name": "",
          "type": "address"
        }
      ],
      "name": "maxMint",
      "outputs": [
        {
          "internalType": "uint256",
          "name": "",
          "type": "uint256"
        }
      ],
      "stateMutability": "view",
      "type": "function"
    },
    {
      "inputs": [
        {
          "internalType": "address",
          "name": "owner",
          "type": "address"
        }
      ],
      "name": "maxRedeem",
      "outputs": [
        {
          "internalType": "uint256",
          "name": "",
          "type": "uint256"
        }
      ],
      "stateMutability": "view",
      "type": "function"
    },
    {
      "inputs": [
        {
          "internalType": "address",
          "name": "owner",
          "type": "address"
        }
      ],
      "name": "maxWithdraw",
      "outputs": [
        {
          "internalType": "uint256",
          "name": "",
          "type": "uint256"
        }
      ],
      "stateMutability": "view",
      "type": "function"
    },
    {
      "inputs": [
        {
          "internalType": "uint256",
          "name": "shares",
          "type": "uint256"
        },
        {
          "internalType": "address",
          "name": "receiver",
          "type": "address"
        }
      ],
      "name": "mint",
      "outputs": [
        {
          "internalType": "uint256",
          "name": "",
          "type": "uint256"
        }
      ],
      "stateMutability": "nonpayable",
      "type": "function"
    },
    {
      "inputs": [],
      "name": "name",
      "outputs": [
        {
          "internalType": "string",
          "name": "",
          "type": "string"
        }
      ],
      "stateMutability": "view",
      "type": "function"
    },
    {
      "inputs": [],
      "name": "pause",
      "outputs": [],
      "stateMutability": "nonpayable",
      "type": "function"
    },
    {
      "inputs": [],
      "name": "paused",
      "outputs": [
        {
          "internalType": "bool",
          "name": "",
          "type": "bool"
        }
      ],
      "stateMutability": "view",
      "type": "function"
    },
    {
      "inputs": [],
      "name": "performanceFee",
      "outputs": [
        {
          "internalType": "uint256",
          "name": "",
          "type": "uint256"
        }
      ],
      "stateMutability": "view",
      "type": "function"
    },
    {
      "inputs": [
        {
          "internalType": "uint256",
          "name": "assets",
          "type": "uint256"
        }
      ],
      "name": "previewDeposit",
      "outputs": [
        {
          "internalType": "uint256",
          "name": "",
          "type": "uint256"
        }
      ],
      "stateMutability": "view",
      "type": "function"
    },
    {
      "inputs": [
        {
          "internalType": "uint256",
          "name": "shares",
          "type": "uint256"
        }
      ],
      "name": "previewMint",
      "outputs": [
        {
          "internalType": "uint256",
          "name": "",
          "type": "uint256"
        }
      ],
      "stateMutability": "view",
      "type": "function"
    },
    {
      "inputs": [
        {
          "internalType": "uint256",
          "name": "shares",
          "type": "uint256"
        }
      ],
      "name": "previewRedeem",
      "outputs": [
        {
          "internalType": "uint256",
          "name": "",
          "type": "uint256"
        }
      ],
      "stateMutability": "view",
      "type": "function"
    },
    {
      "inputs": [
        {
          "internalType": "uint256",
          "name": "assets",
          "type": "uint256"
        }
      ],
      "name": "previewWithdraw",
      "outputs": [
        {
          "internalType": "uint256",
          "name": "",
          "type": "uint256"
        }
      ],
      "stateMutability": "view",
      "type": "function"
    },
    {
      "inputs": [
        {
          "internalType": "uint256",
          "name": "shares",
          "type": "uint256"
        },
        {
          "internalType": "address",
          "name": "receiver",
          "type": "address"
        },
        {
          "internalType": "address",
          "name": "owner",
          "type": "address"
        }
      ],
      "name": "redeem",
      "outputs": [
        {
          "internalType": "uint256",
          "name": "",
          "type": "uint256"
        }
      ],
      "stateMutability": "nonpayable",
      "type": "function"
    },
    {
      "inputs": [
        {
          "internalType": "bytes32",
          "name": "role",
          "type": "bytes32"
        },
        {
          "internalType": "address",
          "name": "callerConfirmation",
          "type": "address"
        }
      ],
      "name": "renounceRole",
      "outputs": [],
      "stateMutability": "nonpayable",
      "type": "function"
    },
    {
      "inputs": [
        {
          "internalType": "bytes32",
          "name": "role",
          "type": "bytes32"
        },
        {
          "internalType": "address",
          "name": "account",
          "type": "address"
        }
      ],
      "name": "revokeRole",
      "outputs": [],
      "stateMutability": "nonpayable",
      "type": "function"
    },
    {
      "inputs": [
        {
          "internalType": "address",
          "name": "recipient",
          "type": "address"
        }
      ],
      "name": "setEmergencyRecipient",
      "outputs": [],
      "stateMutability": "nonpayable",
      "type": "function"
    },
    {
      "inputs": [
        {
          "internalType": "uint256",
          "name": "newFee",
          "type": "uint256"
        }
      ],
      "name": "setManagementFee",
      "outputs": [],
      "stateMutability": "nonpayable",
      "type": "function"
    },
    {
      "inputs": [
        {
          "internalType": "uint256",
          "name": "newFee",
          "type": "uint256"
        }
      ],
      "name": "setPerformanceFee",
      "outputs": [],
      "stateMutability": "nonpayable",
      "type": "function"
    },
    {
      "inputs": [
        {
          "internalType": "bytes4",
          "name": "interfaceId",
          "type": "bytes4"
        }
      ],
      "name": "supportsInterface",
      "outputs": [
        {
          "internalType": "bool",
          "name": "",
          "type": "bool"
        }
      ],
      "stateMutability": "view",
      "type": "function"
    },
    {
      "inputs": [],
      "name": "symbol",
      "outputs": [
        {
          "internalType": "string",
          "name": "",
          "type": "string"
        }
      ],
      "stateMutability": "view",
      "type": "function"
    },
    {
      "inputs": [],
      "name": "totalAssets",
      "outputs": [
        {
          "internalType": "uint256",
          "name": "",
          "type": "uint256"
        }
      ],
      "stateMutability": "view",
      "type": "function"
    },
    {
      "inputs": [],
      "name": "totalSupply",
      "outputs": [
        {
          "internalType": "uint256",
          "name": "",
          "type": "uint256"
        }
      ],
      "stateMutability": "view",
      "type": "function"
    },
    {
      "inputs": [
        {
          "internalType": "address",
          "name": "to",
          "type": "address"
        },
        {
          "internalType": "uint256",
          "name": "value",
          "type": "uint256"
        }
      ],
      "name": "transfer",
      "outputs": [
        {
          "internalType": "bool",
          "name": "",
          "type": "bool"
        }
      ],
      "stateMutability": "nonpayable",
      "type": "function"
    },
    {
      "inputs": [
        {
          "internalType": "address",
          "name": "from",
          "type": "address"
        },
        {
          "internalType": "address",
          "name": "to",
          "type": "address"
        },
        {
          "internalType": "uint256",
          "name": "value",
          "type": "uint256"
        }
      ],
      "name": "transferFrom",
      "outputs": [
        {
          "internalType": "bool",
          "name": "",
          "type": "bool"
        }
      ],
      "stateMutability": "nonpayable",
      "type": "function"
    },
    {
      "inputs": [],
      "name": "unpause",
      "outputs": [],
      "stateMutability": "nonpayable",
      "type": "function"
    },
    {
      "inputs": [
        {
          "internalType": "uint256",
          "name": "assets",
          "type": "uint256"
        },
        {
          "internalType": "address",
          "name": "receiver",
          "type": "address"
        },
        {
          "internalType": "address",
          "name": "owner",
          "type": "address"
        }
      ],
      "name": "withdraw",
      "outputs": [
        {
          "internalType": "uint256",
          "name": "",
          "type": "uint256"
        }
      ],
      "stateMutability": "nonpayable",
      "type": "function"
    }
  ],
  "bytecode": "0x60c060405260c86008556107d06009553480156200001c57600080fd5b506040516200299c3803806200299c8339810160408190526200003f91620003c2565b8282826003620000508382620004db565b5060046200005f8282620004db565b5050506000806200007683620000c360201b60201c565b9150915081620000885760126200008a565b805b60ff1660a05250506001600160a01b039081166080526001600655831615620000ba57620000ba338080620001a8565b505050620005df565b60408051600481526024810182526020810180516001600160e01b031663313ce56760e01b17905290516000918291829182916001600160a01b038716916200010c91620005a7565b600060405180830381855afa9150503d806000811462000149576040519150601f19603f3d011682016040523d82523d6000602084013e6200014e565b606091505b50915091508180156200016357506020815110155b156200019b57600081806020019051810190620001819190620005c5565b905060ff811162000199576001969095509350505050565b505b5060009485945092505050565b620001b560008462000242565b50620001e27f241ecf16d79d0f8dbfb92cbc07fe17840425976cf0667f022fe9877caa831b088362000242565b506200020f7fbf233dd2aafeb4d50879c4aa5c81e96d92f6e6945c906a58f9f2d1c1631b4b268262000242565b505042600a55506000600b819055600c55600d80546001600160a01b0319166001600160a01b0392909216919091179055565b60008281526005602090815260408083206001600160a01b038516845290915281205460ff16620002eb5760008381526005602090815260408083206001600160a01b03861684529091529020805460ff19166001179055620002a23390565b6001600160a01b0316826001600160a01b0316847f2f8788117e7eff1d82e926ec794901d17c78024a50270940304540a733656f0d60405160405180910390a4506001620002ef565b5060005b92915050565b634e487b7160e01b600052604160045260246000fd5b60005b83811015620003285781810151838201526020016200030e565b50506000910152565b600082601f8301126200034357600080fd5b81516001600160401b0380821115620003605762000360620002f5565b604051601f8301601f19908116603f011681019082821181831017156200038b576200038b620002f5565b81604052838152866020858801011115620003a557600080fd5b620003b88460208301602089016200030b565b9695505050505050565b600080600060608486031215620003d857600080fd5b83516001600160a01b0381168114620003f057600080fd5b60208501519093506001600160401b03808211156200040e57600080fd5b6200041c8783880162000331565b935060408601519150808211156200043357600080fd5b50620004428682870162000331565b9150509250925092565b600181811c908216806200046157607f821691505b6020821081036200048257634e487b7160e01b600052602260045260246000fd5b50919050565b601f821115620004d657600081815260208120601f850160051c81016020861015620004b15750805b601f850160051c820191505b81811015620004d257828155600101620004bd565b5050505b505050565b81516001600160401b03811115620004f757620004f7620002f5565b6200050f816200050884546200044c565b8462000488565b602080601f8311600181146200054757600084156200052e5750858301515b600019600386901b1c1916600185901b178555620004d2565b600085815260208120601f198616915b82811015620005785788860151825594840194600190910190840162000557565b5085821015620005975787850151600019600388901b60f8161c191681555b5050505050600190811b01905550565b60008251620005bb8184602087016200030b565b9190910192915050565b600060208284031215620005d857600080fd5b5051919050565b60805160a051612366620006366000396000610b000152600081816104df0152818161093e01528181610c2901528181610c7201528181610eae015281816110f701528181611a880152611b3a01526123666000f3fe608060405234801561001057600080fd5b506004361061035d5760003560e01c806377d60397116101d3578063ba08765211610104578063d73792a9116100a2578063e6a69ab81161007c578063e6a69ab81461072e578063ec87621c14610739578063ef8b30f714610760578063fe56e2321461077357600080fd5b8063d73792a9146106d9578063d905777e146106e2578063dd62ed3e146106f557600080fd5b8063c6e6f592116100de578063c6e6f59214610697578063ce96cb77146106aa578063ceb0f626146106bd578063d547741f146106c657600080fd5b8063ba0876521461067b578063bdca91651461068e578063c63d75b61461050b57600080fd5b80639908840c11610171578063a6f7f5d61161014b578063a6f7f5d614610639578063a9059cbb14610642578063b3d7f6b914610655578063b460af941461066857600080fd5b80639908840c14610601578063a217fddf1461060a578063a378a3241461061257600080fd5b806391d14854116101ad57806391d14854146105c057806394bf804d146105d357806395ccea67146105e657806395d89b41146105f957600080fd5b806377d603971461059c5780638456cb59146105af57806387788782146105b757600080fd5b8063248a9ca3116102ad5780634641257d1161024b5780635c975abb116102255780635c975abb146105425780636e553f651461054d57806370897b231461056057806370a082311461057357600080fd5b80634641257d1461051e5780634cdad50614610526578063568efc071461053957600080fd5b806336568abe1161028757806336568abe146104ca57806338d52e0f146104dd5780633f4ba83a14610503578063402d267d1461050b57600080fd5b8063248a9ca31461047a5780632f2ff15d1461049d578063313ce567146104b057600080fd5b806318160ddd1161031a5780631ca29139116102f45780631ca29139146104365780631e8410da1461044957806320df43591461045257806323b872dd1461046757600080fd5b806318160ddd146103ee57806318bf4cf1146103f65780631b0359321461042157600080fd5b806301e1d1141461036257806301ffc9a71461037d57806306fdde03146103a057806307a2d13a146103b5578063095ea7b3146103c85780630a28a477146103db575b600080fd5b61036a610786565b6040519081526020015b60405180910390f35b61039061038b366004611d7e565b6107be565b6040519015158152602001610374565b6103a86107f5565b6040516103749190611dee565b61036a6103c3366004611e01565b610887565b6103906103d6366004611e2f565b610894565b61036a6103e9366004611e01565b6108ac565b60025461036a565b600d54610409906001600160a01b031681565b6040516001600160a01b039091168152602001610374565b61043461042f366004611e5b565b6108b7565b005b610434610444366004611f1b565b610934565b61036a600c5481565b61036a60008051602061231183398151915281565b610390610475366004611fa3565b610aa7565b61036a610488366004611e01565b60009081526005602052604090206001015490565b6104346104ab366004611fe4565b610acd565b6104b8610af8565b60405160ff9091168152602001610374565b6104346104d8366004611fe4565b610b29565b7f0000000000000000000000000000000000000000000000000000000000000000610409565b610434610b61565b61036a610519366004611e5b565b610b84565b610434610ba6565b61036a610534366004611e01565b610cf8565b61036a600b5481565b60075460ff16610390565b61036a61055b366004611fe4565b610d03565b61043461056e366004611e01565b610d2b565b61036a610581366004611e5b565b6001600160a01b031660009081526020819052604090205490565b6104346105aa366004612014565b610dbe565b610434610e2d565b61036a60095481565b6103906105ce366004611fe4565b610e4d565b61036a6105e1366004611fe4565b610e78565b6104346105f4366004611e2f565b610e94565b6103a8610f93565b61036a6101f481565b61036a600081565b61036a7f17a8e30262c1f919c33056d877a3c22b95c2f5e4dac44683c1c2323cd79fbdb081565b61036a60085481565b610390610650366004611e2f565b610fa2565b61036a610663366004611e01565b610fb0565b61036a610676366004612049565b610fbb565b61036a610689366004612049565b610fdc565b61036a610bb881565b61036a6106a5366004611e01565b610ff1565b61036a6106b8366004611e5b565b610ffe565b61036a600a5481565b6104346106d4366004611fe4565b61101e565b61036a61271081565b61036a6106f0366004611e5b565b611043565b61036a61070336600461208b565b6001600160a01b03918216600090815260016020908152604080832093909416825291909152205490565b61036a6301e1338081565b61036a7f241ecf16d79d0f8dbfb92cbc07fe17840425976cf0667f022fe9877caa831b0881565b61036a61076e366004611e01565b61105e565b610434610781366004611e01565b611069565b6000806107916110f3565b9050600061079d611180565b90508082116107ad5760006107b7565b6107b781836120cf565b9250505090565b60006001600160e01b03198216637965db0b60e01b14806107ef57506301ffc9a760e01b6001600160e01b03198316145b92915050565b606060038054610804906120e2565b80601f0160208091040260200160405190810160405280929190818152602001828054610830906120e2565b801561087d5780601f106108525761010080835404028352916020019161087d565b820191906000526020600020905b81548152906001019060200180831161086057829003601f168201915b5050505050905090565b60006107ef8260006111dc565b6000336108a2818585611216565b5060019392505050565b60006107ef82611223565b60006108c281611230565b6001600160a01b0382166109115760405162461bcd60e51b8152602060048201526011602482015270125b9d985b1a59081c9958da5c1a595b9d607a1b60448201526064015b60405180910390fd5b50600d80546001600160a01b0319166001600160a01b0392909216919091179055565b6001600160a01b037f000000000000000000000000000000000000000000000000000000000000000016156109a15760405162461bcd60e51b8152602060048201526013602482015272105b1c9958591e481a5b9a5d1a585b1a5e9959606a1b6044820152606401610908565b6001600160a01b0385166109e75760405162461bcd60e51b815260206004820152600d60248201526c125b9d985b1a5908185cdcd95d609a1b6044820152606401610908565b6101f4821115610a395760405162461bcd60e51b815260206004820152601760248201527f4d616e6167656d656e742066656520746f6f20686967680000000000000000006044820152606401610908565b610bb8811115610a8b5760405162461bcd60e51b815260206004820152601860248201527f506572666f726d616e63652066656520746f6f206869676800000000000000006044820152606401610908565b60088290556009819055610aa033808061123a565b5050505050565b600033610ab58582856112bc565b610ac0858585611322565b60019150505b9392505050565b600082815260056020526040902060010154610ae881611230565b610af28383611381565b50505050565b6000610b24817f000000000000000000000000000000000000000000000000000000000000000061211c565b905090565b6001600160a01b0381163314610b525760405163334bd91960e11b815260040160405180910390fd5b610b5c8282611415565b505050565b600080516020612311833981519152610b7981611230565b610b81611482565b50565b6000610b9260075460ff1690565b610b9e576000196107ef565b600092915050565b7f241ecf16d79d0f8dbfb92cbc07fe17840425976cf0667f022fe9877caa831b08610bd081611230565b6000610bda610786565b90506000600c54821115610bfd57600c54610bf590836120cf565b600c83905590505b60008115610c595761271060095483610c169190612135565b610c209190612162565b9050610c5933827f00000000000000000000000000000000000000000000000000000000000000005b6001600160a01b031691906114d4565b6000610c63611180565b90508015610c9657610c9633827f0000000000000000000000000000000000000000000000000000000000000000610c49565b42600a5580610ca583866120cf565b610caf91906120cf565b600b556040805184815260208101849052428183015290517f4ec2d4038813a7f233af1d6d09519189db3ed5bc5b823bf72f6d3144574721de9181900360600190a15050505050565b60006107ef82610887565b6000610d0d611533565b610d1561155d565b610d1f8383611583565b90506107ef6001600655565b6000610d3681611230565b610bb8821115610d775760405162461bcd60e51b815260206004820152600c60248201526b08ccaca40e8dede40d0d2ced60a31b6044820152606401610908565b600980549083905560408051828152602081018590527f607b1c943753982194530bf7133a5972ea2626e028005410efa54ab20035caf891015b60405180910390a1505050565b7f17a8e30262c1f919c33056d877a3c22b95c2f5e4dac44683c1c2323cd79fbdb0610de881611230565b610df061155d565b7f967c2a3d21d6001f5ed872635cf9e4a320c90180d6caed65f90623cea6d535e78242604051610e21929190612176565b60405180910390a15050565b600080516020612311833981519152610e4581611230565b610b816115d1565b60009182526005602090815260408084206001600160a01b0393909316845291905290205460ff1690565b6000610e82611533565b610e8a61155d565b610d1f838361160e565b600080516020612311833981519152610eac81611230565b7f00000000000000000000000000000000000000000000000000000000000000006001600160a01b0316836001600160a01b031603610f2d5760405162461bcd60e51b815260206004820152601b60248201527f43616e6e6f74207769746864726177207661756c7420617373657400000000006044820152606401610908565b600d54610f47906001600160a01b038581169116846114d4565b600d54604080516001600160a01b03808716825260208201869052909216908201527f3ab9db27a4cdd8c603a752b62d5fbd93b4b3509fe2596708e9688e42bbac357690606001610db1565b606060048054610804906120e2565b6000336108a2818585611322565b60006107ef8261165c565b6000610fc5611533565b610fd0848484611669565b9050610ac66001600655565b6000610fe6611533565b610fd08484846116c1565b60006107ef826000611710565b600061100c60075460ff1690565b610b9e5761101982611740565b6107ef565b60008281526005602052604090206001015461103981611230565b610af28383611415565b600061105160075460ff1690565b610b9e5761101982611764565b60006107ef82610ff1565b600061107481611230565b6101f48211156110b55760405162461bcd60e51b815260206004820152600c60248201526b08ccaca40e8dede40d0d2ced60a31b6044820152606401610908565b600880549083905560408051828152602081018590527ff5ff4786e844406502466108c183ca5ff947880b3ba08b1500eea9c29d12030d9101610db1565b60007f00000000000000000000000000000000000000000000000000000000000000006040516370a0823160e01b81523060048201526001600160a01b0391909116906370a0823190602401602060405180830381865afa15801561115c573d6000803e3d6000fd5b505050506040513d601f19601f82011682018060405250810190610b249190612198565b600080600a544261119191906120cf565b9050600061119d6110f3565b905060006111b16301e13380612710612135565b83600854846111c09190612135565b6111ca9190612135565b6111d49190612162565b949350505050565b6000610ac66111e9610786565b6111f49060016121b1565b6112006000600a6122a8565b60025461120d91906121b1565b85919085611782565b610b5c83838360016117c6565b60006107ef826001611710565b610b81813361189b565b611245600084611381565b506112707f241ecf16d79d0f8dbfb92cbc07fe17840425976cf0667f022fe9877caa831b0883611381565b5061128960008051602061231183398151915282611381565b505042600a55506000600b819055600c55600d80546001600160a01b0319166001600160a01b0392909216919091179055565b6001600160a01b03838116600090815260016020908152604080832093861683529290522054600019811015610af2578181101561131357828183604051637dc7a0d960e11b8152600401610908939291906122b7565b610af2848484840360006117c6565b6001600160a01b03831661134c57604051634b637e8f60e11b815260006004820152602401610908565b6001600160a01b0382166113765760405163ec442f0560e01b815260006004820152602401610908565b610b5c8383836118d8565b600061138d8383610e4d565b61140d5760008381526005602090815260408083206001600160a01b03861684529091529020805460ff191660011790556113c53390565b6001600160a01b0316826001600160a01b0316847f2f8788117e7eff1d82e926ec794901d17c78024a50270940304540a733656f0d60405160405180910390a45060016107ef565b5060006107ef565b60006114218383610e4d565b1561140d5760008381526005602090815260408083206001600160a01b0386168085529252808320805460ff1916905551339286917ff6391f5c32d9c69d2a47ea670b442974b53935d1edc7fd64eb21e047a839171b9190a45060016107ef565b61148a6119ef565b6007805460ff191690557f5db9ee0a495bf2e6ff9c91a7834c1ba4fdd244a5e8aa4e537bd38aeae4b073aa335b6040516001600160a01b03909116815260200160405180910390a1565b6040516001600160a01b03838116602483015260448201839052610b5c91859182169063a9059cbb906064015b604051602081830303815290604052915060e01b6020820180516001600160e01b038381831617835250505050611a12565b60026006540361155657604051633ee5aeb560e01b815260040160405180910390fd5b6002600655565b60075460ff16156115815760405163d93c066560e01b815260040160405180910390fd5b565b60008061158f83610b84565b9050808411156115b857828482604051633c8097d960e11b8152600401610908939291906122b7565b60006115c38561105e565b90506111d433858784611a83565b6115d961155d565b6007805460ff191660011790557f62e78cea01bee320cd4e420270b5ea74000d11b0c9f74754ebdbfc544b05a2586114b73390565b60008061161a83610b84565b9050808411156116435782848260405163284ff66760e01b8152600401610908939291906122b7565b600061164e85610fb0565b90506111d433858388611a83565b60006107ef8260016111dc565b60008061167583610ffe565b90508085111561169e57828582604051633fa733bb60e21b8152600401610908939291906122b7565b60006116a9866108ac565b90506116b83386868985611b07565b95945050505050565b6000806116cd83611043565b9050808511156116f657828582604051632e52afbb60e21b8152600401610908939291906122b7565b600061170186610cf8565b90506116b8338686848a611b07565b6000610ac661172082600a6122a8565b60025461172d91906121b1565b611735610786565b61120d9060016121b1565b6001600160a01b0381166000908152602081905260408120546107ef9060006111dc565b6001600160a01b0381166000908152602081905260408120546107ef565b60006117b161179083611bc7565b80156117ac5750600084806117a7576117a761214c565b868809115b151590565b6117bc868686611bf4565b6116b891906121b1565b6001600160a01b0384166117f05760405163e602df0560e01b815260006004820152602401610908565b6001600160a01b03831661181a57604051634a1406b160e11b815260006004820152602401610908565b6001600160a01b0380851660009081526001602090815260408083209387168352929052208290558015610af257826001600160a01b0316846001600160a01b03167f8c5be1e5ebec7d5bd14f71427d1e84f3dd0314c0f7b2291e5b200ac8c7c3b9258460405161188d91815260200190565b60405180910390a350505050565b6118a58282610e4d565b6118d45760405163e2517d3f60e01b81526001600160a01b038216600482015260248101839052604401610908565b5050565b6001600160a01b0383166119035780600260008282546118f891906121b1565b909155506119629050565b6001600160a01b038316600090815260208190526040902054818110156119435783818360405163391434e360e21b8152600401610908939291906122b7565b6001600160a01b03841660009081526020819052604090209082900390555b6001600160a01b03821661197e5760028054829003905561199d565b6001600160a01b03821660009081526020819052604090208054820190555b816001600160a01b0316836001600160a01b03167fddf252ad1be2c89b69c2b068fc378daa952ba7f163c4a11628f55a4df523b3ef836040516119e291815260200190565b60405180910390a3505050565b60075460ff1661158157604051638dfc202b60e01b815260040160405180910390fd5b600080602060008451602086016000885af180611a35576040513d6000823e3d81fd5b50506000513d91508115611a4d578060011415611a5a565b6001600160a01b0384163b155b15610af257604051635274afe760e01b81526001600160a01b0385166004820152602401610908565b611aaf7f0000000000000000000000000000000000000000000000000000000000000000853085611ca9565b611ab98382611ce2565b826001600160a01b0316846001600160a01b03167fdcbc1c05240f31ff3ad067ef1ee35ce4997762752e3a095284754544f4c709d7848460405161188d929190918252602082015260400190565b826001600160a01b0316856001600160a01b031614611b2b57611b2b8386836112bc565b611b358382611d18565b611b607f000000000000000000000000000000000000000000000000000000000000000085846114d4565b826001600160a01b0316846001600160a01b0316866001600160a01b03167ffbde797d201c681b91056529119e0b02407c7bb96a4a2c75c01fc9667232c8db8585604051611bb8929190918252602082015260400190565b60405180910390a45050505050565b60006002826003811115611bdd57611bdd6122d8565b611be791906122ee565b60ff166001149050919050565b6000806000611c038686611d4e565b9150915081600003611c2857838181611c1e57611c1e61214c565b0492505050610ac6565b818411611c3f57611c3f6003851502601118611d6c565b6000848688096000868103871696879004966002600389028118808a02820302808a02820302808a02820302808a02820302808a02820302808a02909103029181900381900460010185841190960395909502919093039390930492909217029150509392505050565b6040516001600160a01b038481166024830152838116604483015260648201839052610af29186918216906323b872dd90608401611501565b6001600160a01b038216611d0c5760405163ec442f0560e01b815260006004820152602401610908565b6118d4600083836118d8565b6001600160a01b038216611d4257604051634b637e8f60e11b815260006004820152602401610908565b6118d4826000836118d8565b60008060001983850993909202808410938190039390930393915050565b634e487b71600052806020526024601cfd5b600060208284031215611d9057600080fd5b81356001600160e01b031981168114610ac657600080fd5b6000815180845260005b81811015611dce57602081850181015186830182015201611db2565b506000602082860101526020601f19601f83011685010191505092915050565b602081526000610ac66020830184611da8565b600060208284031215611e1357600080fd5b5035919050565b6001600160a01b0381168114610b8157600080fd5b60008060408385031215611e4257600080fd5b8235611e4d81611e1a565b946020939093013593505050565b600060208284031215611e6d57600080fd5b8135610ac681611e1a565b634e487b7160e01b600052604160045260246000fd5b600082601f830112611e9f57600080fd5b813567ffffffffffffffff80821115611eba57611eba611e78565b604051601f8301601f19908116603f01168101908282118183101715611ee257611ee2611e78565b81604052838152866020858801011115611efb57600080fd5b836020870160208301376000602085830101528094505050505092915050565b600080600080600060a08688031215611f3357600080fd5b8535611f3e81611e1a565b9450602086013567ffffffffffffffff80821115611f5b57600080fd5b611f6789838a01611e8e565b95506040880135915080821115611f7d57600080fd5b50611f8a88828901611e8e565b9598949750949560608101359550608001359392505050565b600080600060608486031215611fb857600080fd5b8335611fc381611e1a565b92506020840135611fd381611e1a565b929592945050506040919091013590565b60008060408385031215611ff757600080fd5b82359150602083013561200981611e1a565b809150509250929050565b60006020828403121561202657600080fd5b813567ffffffffffffffff81111561203d57600080fd5b6111d484828501611e8e565b60008060006060848603121561205e57600080fd5b83359250602084013561207081611e1a565b9150604084013561208081611e1a565b809150509250925092565b6000806040838503121561209e57600080fd5b82356120a981611e1a565b9150602083013561200981611e1a565b634e487b7160e01b600052601160045260246000fd5b818103818111156107ef576107ef6120b9565b600181811c908216806120f657607f821691505b60208210810361211657634e487b7160e01b600052602260045260246000fd5b50919050565b60ff81811683821601908111156107ef576107ef6120b9565b80820281158282048414176107ef576107ef6120b9565b634e487b7160e01b600052601260045260246000fd5b6000826121715761217161214c565b500490565b6040815260006121896040830185611da8565b90508260208301529392505050565b6000602082840312156121aa57600080fd5b5051919050565b808201808211156107ef576107ef6120b9565b600181815b808511156121ff5781600019048211156121e5576121e56120b9565b808516156121f257918102915b93841c93908002906121c9565b509250929050565b600082612216575060016107ef565b81612223575060006107ef565b816001811461223957600281146122435761225f565b60019150506107ef565b60ff841115612254576122546120b9565b50506001821b6107ef565b5060208310610133831016604e8410600b8410161715612282575081810a6107ef565b61228c83836121c4565b80600019048211156122a0576122a06120b9565b029392505050565b6000610ac660ff841683612207565b6001600160a01b039390931683526020830191909152604082015260600190565b634e487b7160e01b600052602160045260246000fd5b600060ff8316806123015761230161214c565b8060ff8416069150509291505056febf233dd2aafeb4d50879c4aa5c81e96d92f6e6945c906a58f9f2d1c1631b4b26a2646970667358221220c44d58d2db4a75633f0de66b58e035fde624915d043adcf8f42993510e1c1ac864736f6c63430008140033",
  "linkReferences": {},
  "deployedLinkReferences": {}
}