{"contracts/HyperIndexPair.sol":{"HyperIndexPair":{"abi":[{"inputs":[],"stateMutability":"nonpayable","type":"constructor"},{"inputs":[{"internalType":"address","name":"spender","type":"address"},{"internalType":"uint256","name":"allowance","type":"uint256"},{"internalType":"uint256","name":"needed","type":"uint256"}],"name":"ERC20InsufficientAllowance","type":"error"},{"inputs":[{"internalType":"address","name":"sender","type":"address"},{"internalType":"uint256","name":"balance","type":"uint256"},{"internalType":"uint256","name":"needed","type":"uint256"}],"name":"ERC20InsufficientBalance","type":"error"},{"inputs":[{"internalType":"address","name":"approver","type":"address"}],"name":"ERC20InvalidApprover","type":"error"},{"inputs":[{"internalType":"address","name":"receiver","type":"address"}],"name":"ERC20InvalidReceiver","type":"error"},{"inputs":[{"internalType":"address","name":"sender","type":"address"}],"name":"ERC20InvalidSender","type":"error"},{"inputs":[{"internalType":"address","name":"spender","type":"address"}],"name":"ERC20InvalidSpender","type":"error"},{"inputs":[],"name":"ReentrancyGuardReentrantCall","type":"error"},{"anonymous":false,"inputs":[{"indexed":true,"internalType":"address","name":"owner","type":"address"},{"indexed":true,"internalType":"address","name":"spender","type":"address"},{"indexed":false,"internalType":"uint256","name":"value","type":"uint256"}],"name":"Approval","type":"event"},{"anonymous":false,"inputs":[{"indexed":true,"internalType":"address","name":"sender","type":"address"},{"indexed":false,"internalType":"uint256","name":"amount0","type":"uint256"},{"indexed":false,"internalType":"uint256","name":"amount1","type":"uint256"},{"indexed":true,"internalType":"address","name":"to","type":"address"}],"name":"Burn","type":"event"},{"anonymous":false,"inputs":[{"indexed":true,"internalType":"address","name":"sender","type":"address"},{"indexed":false,"internalType":"uint256","name":"amount0","type":"uint256"},{"indexed":false,"internalType":"uint256","name":"amount1","type":"uint256"}],"name":"Mint","type":"event"},{"anonymous":false,"inputs":[{"indexed":true,"internalType":"address","name":"sender","type":"address"},{"indexed":false,"internalType":"uint256","name":"amount0In","type":"uint256"},{"indexed":false,"internalType":"uint256","name":"amount1In","type":"uint256"},{"indexed":false,"internalType":"uint256","name":"amount0Out","type":"uint256"},{"indexed":false,"internalType":"uint256","name":"amount1Out","type":"uint256"},{"indexed":true,"internalType":"address","name":"to","type":"address"}],"name":"Swap","type":"event"},{"anonymous":false,"inputs":[{"indexed":false,"internalType":"uint112","name":"reserve0","type":"uint112"},{"indexed":false,"internalType":"uint112","name":"reserve1","type":"uint112"}],"name":"Sync","type":"event"},{"anonymous":false,"inputs":[{"indexed":true,"internalType":"address","name":"from","type":"address"},{"indexed":true,"internalType":"address","name":"to","type":"address"},{"indexed":false,"internalType":"uint256","name":"value","type":"uint256"}],"name":"Transfer","type":"event"},{"inputs":[],"name":"MINIMUM_LIQUIDITY","outputs":[{"internalType":"uint256","name":"","type":"uint256"}],"stateMutability":"view","type":"function"},{"inputs":[{"internalType":"address","name":"owner","type":"address"},{"internalType":"address","name":"spender","type":"address"}],"name":"allowance","outputs":[{"internalType":"uint256","name":"","type":"uint256"}],"stateMutability":"view","type":"function"},{"inputs":[{"internalType":"address","name":"spender","type":"address"},{"internalType":"uint256","name":"value","type":"uint256"}],"name":"approve","outputs":[{"internalType":"bool","name":"","type":"bool"}],"stateMutability":"nonpayable","type":"function"},{"inputs":[{"internalType":"address","name":"account","type":"address"}],"name":"balanceOf","outputs":[{"internalType":"uint256","name":"","type":"uint256"}],"stateMutability":"view","type":"function"},{"inputs":[{"internalType":"address","name":"to","type":"address"}],"name":"burn","outputs":[{"internalType":"uint256","name":"amount0","type":"uint256"},{"internalType":"uint256","name":"amount1","type":"uint256"}],"stateMutability":"nonpayable","type":"function"},{"inputs":[],"name":"decimals","outputs":[{"internalType":"uint8","name":"","type":"uint8"}],"stateMutability":"view","type":"function"},{"inputs":[],"name":"factory","outputs":[{"internalType":"address","name":"","type":"address"}],"stateMutability":"view","type":"function"},{"inputs":[],"name":"getReserves","outputs":[{"internalType":"uint112","name":"_reserve0","type":"uint112"},{"internalType":"uint112","name":"_reserve1","type":"uint112"},{"internalType":"uint32","name":"_blockTimestampLast","type":"uint32"}],"stateMutability":"view","type":"function"},{"inputs":[{"internalType":"address","name":"_token0","type":"address"},{"internalType":"address","name":"_token1","type":"address"}],"name":"initialize","outputs":[],"stateMutability":"nonpayable","type":"function"},{"inputs":[],"name":"kLast","outputs":[{"internalType":"uint256","name":"","type":"uint256"}],"stateMutability":"view","type":"function"},{"inputs":[{"internalType":"address","name":"to","type":"address"}],"name":"mint","outputs":[{"internalType":"uint256","name":"liquidity","type":"uint256"}],"stateMutability":"nonpayable","type":"function"},{"inputs":[],"name":"name","outputs":[{"internalType":"string","name":"","type":"string"}],"stateMutability":"view","type":"function"},{"inputs":[],"name":"price0CumulativeLast","outputs":[{"internalType":"uint256","name":"","type":"uint256"}],"stateMutability":"view","type":"function"},{"inputs":[],"name":"price1CumulativeLast","outputs":[{"internalType":"uint256","name":"","type":"uint256"}],"stateMutability":"view","type":"function"},{"inputs":[{"internalType":"address","name":"to","type":"address"}],"name":"skim","outputs":[],"stateMutability":"nonpayable","type":"function"},{"inputs":[{"internalType":"uint256","name":"amount0Out","type":"uint256"},{"internalType":"uint256","name":"amount1Out","type":"uint256"},{"internalType":"address","name":"to","type":"address"},{"internalType":"bytes","name":"data","type":"bytes"}],"name":"swap","outputs":[],"stateMutability":"nonpayable","type":"function"},{"inputs":[],"name":"symbol","outputs":[{"internalType":"string","name":"","type":"string"}],"stateMutability":"view","type":"function"},{"inputs":[],"name":"sync","outputs":[],"stateMutability":"nonpayable","type":"function"},{"inputs":[],"name":"token0","outputs":[{"internalType":"address","name":"","type":"address"}],"stateMutability":"view","type":"function"},{"inputs":[],"name":"token1","outputs":[{"internalType":"address","name":"","type":"address"}],"stateMutability":"view","type":"function"},{"inputs":[],"name":"totalSupply","outputs":[{"internalType":"uint256","name":"","type":"uint256"}],"stateMutability":"view","type":"function"},{"inputs":[{"internalType":"address","name":"to","type":"address"},{"internalType":"uint256","name":"value","type":"uint256"}],"name":"transfer","outputs":[{"internalType":"bool","name":"","type":"bool"}],"stateMutability":"nonpayable","type":"function"},{"inputs":[{"internalType":"address","name":"from","type":"address"},{"internalType":"address","name":"to","type":"address"},{"internalType":"uint256","name":"value","type":"uint256"}],"name":"transferFrom","outputs":[{"internalType":"bool","name":"","type":"bool"}],"stateMutability":"nonpayable","type":"function"}],"evm":{"bytecode":{"linkReferences":{},"object":"60806040523462000026576200001462000180565b6040516127c76200041482396127c790f35b600080fd5b634e487b7160e01b600052604160045260246000fd5b90601f01601f191681019081106001600160401b038211176200006357604052565b6200002b565b90620000806200007860405190565b928362000041565b565b6001600160401b0381116200006357602090601f01601f19160190565b90620000b5620000af8362000082565b62000069565b918252565b620000c6600d6200009f565b6c04879706572496e646578204c5609c1b602082015290565b620000e9620000ba565b90565b620000f860056200009f565b64048492d4c560dc1b602082015290565b620000e9620000ec565b906001600160a01b03905b9181191691161790565b620000e9906200013e906001600160a01b031682565b6001600160a01b031690565b620000e99062000128565b620000e9906200014a565b9062000174620000e96200017c9262000155565b825462000113565b9055565b6200019f6200018e620000df565b6200019862000109565b90620001ef565b6200008033600662000160565b620000e9620000e9620000e99290565b620000e96001620001ac565b90600019906200011e565b90620001e7620000e96200017c92620001ac565b8254620001c8565b90620001fb91620003f9565b6200008062000209620001bc565b6005620001d3565b634e487b7160e01b600052602260045260246000fd5b90600160028304921680156200024a575b60208310146200024457565b62000211565b91607f169162000238565b9160001960089290920291821b911b6200011e565b91906200027f620000e96200017c93620001ac565b90835462000255565b62000080916000916200026a565b818110620002a2575050565b80620002b2600060019362000288565b0162000296565b9190601f8111620002c957505050565b620002dd6200008093600052602060002090565b906020601f84018190048301931062000301575b6020601f90910104019062000296565b9091508190620002f1565b9062000316815190565b906001600160401b03821162000063576200033e8262000337855462000227565b85620002b9565b602090601f83116001146200037d576200017c92916000918362000371575b5050600019600883021c1916906002021790565b0151905038806200035d565b601f198316916200039385600052602060002090565b9260005b818110620003d457509160029391856001969410620003ba575b50505002019055565b01516000196008601f8516021c19169055388080620003b1565b9193602060018192878701518155019501920162000397565b9062000080916200030c565b906200040b62000080926003620003ed565b6004620003ed56fe6080604052600436101561001257600080fd5b60003560e01c8063022c0d9f1461018257806306fdde031461017d5780630902f1ac14610178578063095ea7b3146101735780630dfe16811461016e57806318160ddd1461016957806323b872dd14610164578063313ce5671461015f578063485cc9551461015a5780635909c0d5146101555780635a3d5493146101505780636a6278421461014b57806370a08231146101465780637464fc3d1461014157806389afcb441461013c57806395d89b4114610137578063a9059cbb14610132578063ba9a7a561461012d578063bc25cf7714610128578063c45a015514610123578063d21220a71461011e578063dd62ed3e146101195763fff6cae90361018757610701565b6106e5565b6106ca565b6106a3565b61067f565b610664565b610628565b61060d565b6105df565b6105ad565b610586565b61056b565b61053c565b610515565b6104da565b610488565b61046c565b610410565b6103db565b610382565b610316565b6102ef565b610253565b600080fd5b805b0361018757565b905035906101a28261018c565b565b6001600160a01b031690565b90565b6001600160a01b03811661018e565b905035906101a2826101b3565b909182601f830112156101875781359167ffffffffffffffff831161018757602001926001830284011161018757565b90608082820312610187576102148183610195565b926102228260208501610195565b9261023083604083016101c2565b92606082013567ffffffffffffffff81116101875761024f92016101cf565b9091565b346101875761026f6102663660046101ff565b93929092612285565b604051005b0390f35b600091031261018757565b60005b8381106102965750506000910152565b8181015183820152602001610286565b6102c76102d06020936102da936102bb815190565b80835293849260200190565b95869101610283565b601f01601f191690565b0190565b60208082526101b0929101906102a6565b34610187576102ff366004610278565b61027461030a61084e565b604051918291826102de565b3461018757610326366004610278565b610274610331610ec1565b604080516001600160701b03948516815293909216602084015263ffffffff16908201529081906060820190565b9190604083820312610187576101b09061037981856101c2565b93602001610195565b346101875761027461039e61039836600461035f565b9061092b565b60405191829182901515815260200190565b6101b0916008021c6001600160a01b031690565b906101b091546103b0565b6101b0600060076103c4565b34610187576103eb366004610278565b6102746103f66103cf565b604051918291826001600160a01b03909116815260200190565b3461018757610420366004610278565b61027461042b610890565b6040515b9182918290815260200190565b9091606082840312610187576101b061045584846101c2565b9361046381602086016101c2565b93604001610195565b346101875761027461039e61048236600461043c565b91610936565b3461018757610498366004610278565b6102746104a3610875565b6040519182918260ff909116815260200190565b9190604083820312610187576101b0906104d181856101c2565b936020016101c2565b346101875761026f6104ed3660046104b7565b90610e38565b6101b0916008021c81565b906101b091546104f3565b6101b06000600a6104fe565b3461018757610525366004610278565b61027461042b610509565b6101b06000600b6104fe565b346101875761054c366004610278565b61027461042b610530565b90602082820312610187576101b0916101c2565b346101875761027461042b610581366004610557565b6112aa565b346101875761027461042b61059c366004610557565b6108da565b6101b06000600c6104fe565b34610187576105bd366004610278565b61027461042b6105a1565b9081526040810192916101a29160200152565b0152565b34610187576105f76105f2366004610557565b611ae2565b9061027461060460405190565b928392836105c8565b346101875761061d366004610278565b61027461030a610858565b346101875761027461039e61063e36600461035f565b906108f6565b6101b06101b06101b09290565b6101b06103e8610644565b6101b0610651565b3461018757610674366004610278565b61027461042b61065c565b346101875761026f610692366004610557565b612449565b6101b0600060066103c4565b34610187576106b3366004610278565b6102746103f6610697565b6101b0600060086103c4565b34610187576106da366004610278565b6102746103f66106be565b346101875761027461042b6106fb3660046104b7565b9061090b565b3461018757610711366004610278565b61026f612545565b634e487b7160e01b600052602260045260246000fd5b906001600283049216801561074f575b602083101461074a57565b610719565b91607f169161073f565b8054600093929161077661076c8361072f565b8085529360200190565b91600181169081156107c8575060011461078f57505050565b6107a29192939450600052602060002090565b916000925b8184106107b45750500190565b8054848401526020909301926001016107a7565b92949550505060ff1916825215156020020190565b906101b091610759565b634e487b7160e01b600052604160045260246000fd5b90601f01601f1916810190811067ffffffffffffffff82111761081f57604052565b6107e7565b906101a261083e9261083560405190565b938480926107dd565b03836107fd565b6101b090610824565b6101b06003610845565b6101b06004610845565b61086f6101b06101b09290565b60ff1690565b6101b06012610862565b6101b09081565b6101b0905461087f565b6101b06002610886565b6101a46101b06101b0926001600160a01b031690565b6101b09061089a565b6101b0906108b0565b906108cc906108b9565b600052602052604060002090565b6108f16101b0916108e9600090565b5060006108c2565b610886565b61090691903361095d565b61095d565b600190565b6101b0916109266108f19261091e600090565b5060016108c2565b6108c2565b610906919033610c05565b610906929190610901833383610d2f565b6101a46101b06101b09290565b6101b090610947565b92919061096a6000610954565b936001600160a01b0385166001600160a01b038216146109f6576001600160a01b0385166001600160a01b038316146109a8576101a2939450610aba565b6109f2856109b560405190565b9182917fec442f05000000000000000000000000000000000000000000000000000000008352600483016001600160a01b03909116815260200190565b0390fd5b6109f285610a0360405190565b9182917f96c6fd1e000000000000000000000000000000000000000000000000000000008352600483016001600160a01b03909116815260200190565b6001600160a01b0390911681526060810193926101a29290916040916105db906020830152565b90600019905b9181191691161790565b90610a876101b0610a8e92610644565b8254610a67565b9055565b634e487b7160e01b600052601160045260246000fd5b91908201809211610ab557565b610a92565b816000610ac681610954565b6001600160a01b0381166001600160a01b03851603610b9057610b00906101a4610af988610af46002610886565b610aa8565b6002610a77565b6001600160a01b03831603610b6b575050610b26610af984610b226002610886565b0390565b610b66610b5c610b567fddf252ad1be2c89b69c2b068fc378daa952ba7f163c4a11628f55a4df523b3ef936108b9565b936108b9565b9361042f60405190565b0390a3565b610b8b91610b78916108c2565b610b85856102da83610886565b90610a77565b610b26565b909150610ba06108f184846108c2565b858110610bc8578492916101a4610bb988610b00940390565b610bc387866108c2565b610a77565b836109f287610bd660405190565b9384937fe450d38c00000000000000000000000000000000000000000000000000000000855260048501610a40565b90916101a2926001925b909192610c1c6000610954565b6001600160a01b0381166001600160a01b03841614610ce5576001600160a01b0381166001600160a01b03851614610c9b5750610c6284610bc3856109268660016108c2565b610c6b57505050565b610b66610b5c610b567f8c5be1e5ebec7d5bd14f71427d1e84f3dd0314c0f7b2291e5b200ac8c7c3b925936108b9565b6109f290610ca860405190565b9182917f94280d62000000000000000000000000000000000000000000000000000000008352600483016001600160a01b03909116815260200190565b6109f290610cf260405190565b9182917fe602df05000000000000000000000000000000000000000000000000000000008352600483016001600160a01b03909116815260200190565b90929192610d3d818361090b565b936000198510610d4f575b5050509050565b808510610d7557610d6390610d6c94950390565b90600092610c0f565b80388080610d48565b906109f28592610d8460405190565b9384937ffb8f41b200000000000000000000000000000000000000000000000000000000855260048501610a40565b6101b0906101a4565b6101b09054610db3565b15610dcd57565b60405162461bcd60e51b815260206004820152601560248201527f4879706572496e6465783a20464f5242494444454e00000000000000000000006044820152606490fd5b906001600160a01b0390610a6d565b90610e316101b0610a8e926108b9565b8254610e12565b90610e6e6101a292610e6733610e61610e546101a46006610dbc565b916001600160a01b031690565b14610dc6565b6007610e21565b6008610e21565b6101b0905b6001600160701b031690565b6101b09054610e75565b6101b09060701c610e7a565b6101b09054610e90565b6101b09060e01c5b63ffffffff1690565b6101b09054610ea6565b610ecb6009610e86565b90610ed66009610e9c565b906101b06009610eb7565b90610ef391610eee6112fc565b611001565b906101a2611355565b905051906101a28261018c565b90602082820312610187576101b091610efc565b6040513d6000823e3d90fd5b6101b06101b06101b0926001600160701b031690565b91908203918211610ab557565b81810292918115918404141715610ab557565b634e487b7160e01b600052601260045260246000fd5b90610f7f565b9190565b908115610f8a570490565b610f5f565b15610f9657565b60405162461bcd60e51b815260206004820152602960248201527f4879706572496e6465783a20494e53554646494349454e545f4c49515549444960448201527f54595f4d494e54454400000000000000000000000000000000000000000000006064820152608490fd5b509061100b610ec1565b509061102261101d61101d6007610dbc565b6108b9565b936370a08231611031306108b9565b90602061103d60405190565b80986110498460e01b90565b82526001600160a01b038516600483015260249082905afa96871561127b57600097611280575b506110ba92916020916110a361108c61101d61101d6008610dbc565b9161109660405190565b9687948593849360e01b90565b83526001600160a01b031660048301526024820190565b03915afa91821561127b5760009261124b575b506110e06110da84610f29565b87610f3f565b936110f36110ed82610f29565b84610f3f565b936110fe828261256e565b93611107610890565b986000996111148b610644565b81036111f757506111258789610f4c565b61112e906126e5565b99611137610651565b9a8b61114291610f3f565b809b61dead61115090610954565b9061115a916112b5565b61117e9661117461116d61117994610644565b8311610f8f565b6112b5565b6114d3565b6111c0575b7f4c209b5fc8ad50758f13e2e1088ba56a560dff690a1c6fef26394f4c03821c4f906111ae336108b9565b926111bb61060460405190565b0390a2565b6111f26111eb6111d86111d36009610e86565b610f29565b6111e56111d36009610e9c565b90610f4c565b600c610a77565b611183565b61116d9a61117e966111746112438b61123d6112348f9761122e8c611228611222846111799d610f4c565b91610f29565b90610f75565b93610f4c565b6112288c610f29565b906126d3565b9d8e93610644565b61126d91925060203d8111611274575b61126581836107fd565b810190610f09565b90386110cd565b503d61125b565b610f1d565b6020919750916112a06110ba9493833d81116112745761126581836107fd565b9791509192611070565b6101b0906000610ee1565b91906112c16000610954565b926001600160a01b0384166001600160a01b038216146112e5576101a29293610aba565b6109f2846109b560405190565b6101b06002610644565b6113066005610886565b61130e6112f2565b908114611320576101a2906005610a77565b6040517f3ee5aeb5000000000000000000000000000000000000000000000000000000008152600490fd5b6101b06001610644565b6101a261136061134b565b6005610a77565b1561136e57565b60405162461bcd60e51b815260206004820152601460248201527f4879706572496e6465783a204f564552464c4f570000000000000000000000006044820152606490fd5b8115610f8a570690565b610eae6101b06101b09290565b63ffffffff908116911690039063ffffffff8211610ab557565b610e7a6101b06101b09290565b6101b06101b06101b09263ffffffff1690565b906001600160701b0390610a6d565b610e7a6101b06101b0926001600160701b031690565b906114396101b0610a8e92611413565b8254611404565b907bffffffffffffffffffffffffffff00000000000000000000000000009060701b610a6d565b906114776101b0610a8e92611413565b8254611440565b907fffffffff000000000000000000000000000000000000000000000000000000009060e01b610a6d565b610eae6101b06101b09263ffffffff1690565b906114cc6101b0610a8e926114a9565b825461147e565b61157f9161157361156c61157893611586976115096001600160701b036114f981610f29565b84111590816116c2575b50611367565b6115296115244261151e640100000000610644565b906113b3565b6113bd565b9761153d6115376009610eb7565b8a6113ca565b916000611549816113bd565b63ffffffff85161190816116a5575b81611689575b506115eb575b5050506113e4565b6009611429565b6113e4565b6009611467565b60096114bc565b6115906009610e86565b61159a6009610e9c565b7f1c411e9a96e071241c2f21f7726b17ae89e3cab4c78be50e062b03a9fffbbad1916115e66115c860405190565b928392836001600160701b0391821681529116602082015260400190565b0390a1565b6116819261164b61166a61167a9461166561160861167096610f29565b9161164b670de0b6b3a764000061166061165961164f61164261163b61163561163087610644565b8b0290565b97610f29565b8097610f75565b61164b8c6113f1565b0290565b6102da600a610886565b600a610a77565b610644565b610f75565b916113f1565b6102da600b610886565b600b610a77565b388080611564565b61169391506113e4565b6001600160701b03821614153861155e565b90506116b0816113e4565b6001600160701b038416141590611558565b6116cc9150610f29565b86111538611503565b906116e892916116e36112fc565b6117aa565b90916101a2611355565b156116f957565b60405162461bcd60e51b815260206004820152602960248201527f4879706572496e6465783a20494e53554646494349454e545f4c49515549444960448201527f54595f4255524e454400000000000000000000000000000000000000000000006064820152608490fd5b80151561018e565b905051906101a282611764565b90602082820312610187576101b09161176c565b6001600160a01b0390911681526040810192916101a29160200152565b50506117b4610ec1565b509290916117c26007610dbc565b906117d361101d610b566008610dbc565b6117dc306108b9565b906117e660405190565b6370a0823160e01b81526001600160a01b038316600482015293602085602481855afa94851561127b57600095611aba575b5061101d611825916108b9565b9061182f60405190565b6370a0823160e01b81526001600160a01b038416600482015297602089602481865afa98891561127b57600099611a9a575b5061186b846108da565b97611876828261256e565b9361189d6118918b611665611889610890565b9b8c92610f4c565b986116658a9d8d610f4c565b956118c4879b6118ad6000610644565b8b1180611a83575b6118be906116f2565b82611aee565b60405163a9059cbb60e01b8152602081806118e38d8d6004840161178d565b038160008a5af1801561127b57611a67575b5060405163a9059cbb60e01b8152602081806119158b8d6004840161178d565b03816000875af1801561127b57611a3b575b50602061193360405190565b6370a0823160e01b81526001600160a01b038316600482015295869060249082905afa90811561127b5761198695600092611a1b575b506040519192602092968792839182916370a0823160e01b6110a3565b03915afa90811561127b576119a3946000926119fb575b506114d3565b6119e3575b7fdccd412f0b1252819cb1fd330b93224ca42612892bb3f4f789976e6d81936496906119d6610b56336108b9565b93610b6661060460405190565b6119f66111eb6111d86111d36009610e86565b6119a8565b611a1491925060203d81116112745761126581836107fd565b903861199d565b60209250611a3590833d81116112745761126581836107fd565b91611969565b611a5b9060203d8111611a60575b611a5381836107fd565b810190611779565b611927565b503d611a49565b611a7e9060203d8111611a6057611a5381836107fd565b6118f5565b506118be611a916000610644565b8a1190506118b5565b611ab391995060203d81116112745761126581836107fd565b9738611861565b611825919550611ada61101d9160203d81116112745761126581836107fd565b959150611818565b61024f906000806116d5565b9190611afa6000610954565b926001600160a01b0384166001600160a01b03821614611b1f57926101a29293610aba565b6109f284610a0360405190565b90611b4194939291611b3c6112fc565b611dc4565b6101a2611355565b15611b5057565b60405162461bcd60e51b815260206004820152602660248201527f4879706572496e6465783a20494e53554646494349454e545f4f55545055545f60448201527f414d4f554e5400000000000000000000000000000000000000000000000000006064820152608490fd5b15611bc257565b60405162461bcd60e51b815260206004820152602260248201527f4879706572496e6465783a20494e53554646494349454e545f4c49515549444960448201527f54590000000000000000000000000000000000000000000000000000000000006064820152608490fd5b15611c3457565b60405162461bcd60e51b815260206004820152601660248201527f4879706572496e6465783a20494e56414c49445f544f000000000000000000006044820152606490fd5b90826000939282370152565b91906102d081611c9c816102da9560209181520190565b8095611c79565b9093916101b09593611cd3611cda92611ccc608086019860008701906001600160a01b03169052565b6020850152565b6040830152565b6060818503910152611c85565b15611cee57565b60405162461bcd60e51b815260206004820152602560248201527f4879706572496e6465783a20494e53554646494349454e545f494e5055545f4160448201527f4d4f554e540000000000000000000000000000000000000000000000000000006064820152608490fd5b15611d6057565b60405162461bcd60e51b815260206004820152600d60248201527f4879706572496e6465783a204b000000000000000000000000000000000000006044820152606490fd5b6105db6101a294611cd3606094989795611ccc608086019a6000870152565b9392909192600091611dd583610644565b86119182831561226f575b611de990611b49565b611df1610ec1565b50919092611dfe84610f29565b891080612259575b611e0f90611bbb565b611e196007610dbc565b90611e246008610dbc565b956001600160a01b0383166001600160a01b038b16141580612243575b611e4a90611c2d565b6121ed575b611e5887610644565b881161217f575b82611e6c610f7b89610644565b116120ea575b50611e81915061101d906108b9565b916370a08231611e90306108b9565b906020611e9c60405190565b8096611ea88460e01b90565b82526001600160a01b038516600483015260249082905afa94851561127b5787956120b6575b50906020916110a3611ee861101d8899611eff99506108b9565b91611ef260405190565b9788948593849360e01b90565b03915afa801561127b5761201a938691612098575b50611f2a6101b08a611f2585610f29565b610f3f565b85111561208957611f47611f418a611f2585610f29565b86610f3f565b945b611f596101b089611f2587610f29565b82111561207757611f8e611f736110ed8a611f2588610f29565b975b611f7e81610644565b8811908115612065575b50611ce7565b611179611fe96103e86111e589611fcb611fe3611fdd611fd7611fd1611fbc611fb689610644565b8c610f4c565b611fcb6003976111e589610644565b90610f3f565b96610644565b8a610f4c565b92610644565b8d610f4c565b612013610f7b6101b0612007611ffe89610f29565b6111e58b610f29565b6111e5620f4240610644565b1015611d59565b610b66339361205261204c7fd78ad95fa46c994b6551d0da85fc275fe613ce37657fb8d5e3d130840159d822966108b9565b966108b9565b9661205c60405190565b94859485611da5565b61206f9150610644565b881138611f88565b611f8e61208388610644565b97611f75565b61209286610644565b94611f49565b6120b0915060203d81116112745761126581836107fd565b38611f14565b611eff9550906110a3611ee861101d6120de60209695873d81116112745761126581836107fd565b98505050509091611ece565b6120f661101d8a6108b9565b9063859d1746913391813b15610187578980946121348f98612129948f61211c60405190565b9b8c998a98899760e01b90565b875260048701611ca3565b03925af190811561127b57611e819261101d92612153575b5090611e72565b61217290883d8a11612178575b61216a81836107fd565b810190610278565b3861214c565b503d612160565b8760208a61218f61101d8a6108b9565b6121b18b63a9059cbb6121bc6121a460405190565b9788968795869460e01b90565b84526004840161178d565b03925af1801561127b576121d1575b50611e5f565b6121e89060203d8111611a6057611a5381836107fd565b6121cb565b8960208a6121fd61101d866108b9565b6121b18b63a9059cbb6122126121a460405190565b03925af1801561127b57612227575b50611e4f565b61223e9060203d8111611a6057611a5381836107fd565b612221565b506001600160a01b038a81169088161415611e41565b50611e0f61226684610f29565b88109050611e06565b50611de961227c85610644565b86119050611de0565b906101a294939291611b2c565b611b419061229e6112fc565b6122a86007610dbc565b6122be61101d6122b86008610dbc565b926108b9565b9163a9059cbb926370a08231906122d4306108b9565b936122de60405190565b916122e98460e01b90565b83526001600160a01b0386166004840152602083602481845afa90811561127b5761232a6020926123539560009161242c575b50611fcb6111d36009610e86565b9061234760008a61233a60405190565b9788958694859360e01b90565b83528b6004840161178d565b03925af191821561127b5761101d6110a39261237792602095612411575b506108b9565b9261238f61238460405190565b968793849360e01b90565b0381845afa92831561127b5760006123bc6020956121b19383916123f4575b50611fcb6111d36009610e9c565b956123c96121a460405190565b03925af1801561127b576123da5750565b6123f19060203d8111611a6057611a5381836107fd565b50565b61240b9150873d81116112745761126581836107fd565b386123ae565b61242790863d8111611a6057611a5381836107fd565b612371565b6124439150843d81116112745761126581836107fd565b3861231c565b6101a290612292565b61245a6112fc565b611b4161246d61101d61101d6007610dbc565b6370a0823161247b306108b9565b602061248660405190565b80946124928560e01b90565b82526001600160a01b038416600483015260249082905afa90811561127b576124d593600092612525575b50602091926110a361108c61101d61101d6008610dbc565b03915afa801561127b576101a292600091612507575b506124f66009610e86565b906125016009610e9c565b926114d3565b61251f915060203d81116112745761126581836107fd565b386124eb565b6020925061253f90833d81116112745761126581836107fd565b916124bd565b6101a2612452565b905051906101a2826101b3565b90602082820312610187576101b09161254d565b90919061259f90602061258761101d61101d6006610dbc565b63017e7e589061259660405190565b94859260e01b90565b825260049082905afa91821561127b576000926126a3575b506000906125c76101a483610954565b6001600160a01b03841614159081956125e0600c610886565b921561267e576125ef84610644565b83036125fd575b5050505050565b612613612618916111e561122261261e95610f29565b6126e5565b916126e5565b80821161262c575b806125f6565b6126609161122861265a92610af461264f612645610890565b6111e58487610f3f565b936111e56005610644565b91610644565b811161266e575b8080612626565b612677916112b5565b3880612667565b505090915061268f610f7b83610644565b036126975750565b6111eb6101a291610644565b6126c591925060203d81116126cc575b6126bd81836107fd565b81019061255a565b90386125b7565b503d6126b3565b90808210156126e0575090565b905090565b9060006126f26003610644565b831115612770575061272782600261271261270c82610644565b83610f75565b91600193849361272185610644565b90610aa8565b935b612734575b50505050565b9091929461273f8190565b86101561276a575061276161275886610af48185610f75565b61122884610644565b92919082612729565b9461272e565b9161277e610f7b6000610644565b0361278557565b90506101b0600161064456fea26469706673582212209ad9003103edb517b56dfa497617d54da2c486cf163d55d18cf9588b22e1332064736f6c63430008140033","opcodes":"PUSH1 0x80 PUSH1 0x40 MSTORE CALLVALUE PUSH3 0x26 JUMPI PUSH3 0x14 PUSH3 0x180 JUMP JUMPDEST PUSH1 0x40 MLOAD PUSH2 0x27C7 PUSH3 0x414 DUP3 CODECOPY PUSH2 0x27C7 SWAP1 RETURN JUMPDEST PUSH1 0x0 DUP1 REVERT JUMPDEST PUSH4 0x4E487B71 PUSH1 0xE0 SHL PUSH1 0x0 MSTORE PUSH1 0x41 PUSH1 0x4 MSTORE PUSH1 0x24 PUSH1 0x0 REVERT JUMPDEST SWAP1 PUSH1 0x1F ADD PUSH1 0x1F NOT AND DUP2 ADD SWAP1 DUP2 LT PUSH1 0x1 PUSH1 0x1 PUSH1 0x40 SHL SUB DUP3 GT OR PUSH3 0x63 JUMPI PUSH1 0x40 MSTORE JUMP JUMPDEST PUSH3 0x2B JUMP JUMPDEST SWAP1 PUSH3 0x80 PUSH3 0x78 PUSH1 0x40 MLOAD SWAP1 JUMP JUMPDEST SWAP3 DUP4 PUSH3 0x41 JUMP JUMPDEST JUMP JUMPDEST PUSH1 0x1 PUSH1 0x1 PUSH1 0x40 SHL SUB DUP2 GT PUSH3 0x63 JUMPI PUSH1 0x20 SWAP1 PUSH1 0x1F ADD PUSH1 0x1F NOT AND ADD SWAP1 JUMP JUMPDEST SWAP1 PUSH3 0xB5 PUSH3 0xAF DUP4 PUSH3 0x82 JUMP JUMPDEST PUSH3 0x69 JUMP JUMPDEST SWAP2 DUP3 MSTORE JUMP JUMPDEST PUSH3 0xC6 PUSH1 0xD PUSH3 0x9F JUMP JUMPDEST PUSH13 0x4879706572496E646578204C5 PUSH1 0x9C SHL PUSH1 0x20 DUP3 ADD MSTORE SWAP1 JUMP JUMPDEST PUSH3 0xE9 PUSH3 0xBA JUMP JUMPDEST SWAP1 JUMP JUMPDEST PUSH3 0xF8 PUSH1 0x5 PUSH3 0x9F JUMP JUMPDEST PUSH5 0x48492D4C5 PUSH1 0xDC SHL PUSH1 0x20 DUP3 ADD MSTORE SWAP1 JUMP JUMPDEST PUSH3 0xE9 PUSH3 0xEC JUMP JUMPDEST SWAP1 PUSH1 0x1 PUSH1 0x1 PUSH1 0xA0 SHL SUB SWAP1 JUMPDEST SWAP2 DUP2 NOT AND SWAP2 AND OR SWAP1 JUMP JUMPDEST PUSH3 0xE9 SWAP1 PUSH3 0x13E SWAP1 PUSH1 0x1 PUSH1 0x1 PUSH1 0xA0 SHL SUB AND DUP3 JUMP JUMPDEST PUSH1 0x1 PUSH1 0x1 PUSH1 0xA0 SHL SUB AND SWAP1 JUMP JUMPDEST PUSH3 0xE9 SWAP1 PUSH3 0x128 JUMP JUMPDEST PUSH3 0xE9 SWAP1 PUSH3 0x14A JUMP JUMPDEST SWAP1 PUSH3 0x174 PUSH3 0xE9 PUSH3 0x17C SWAP3 PUSH3 0x155 JUMP JUMPDEST DUP3 SLOAD PUSH3 0x113 JUMP JUMPDEST SWAP1 SSTORE JUMP JUMPDEST PUSH3 0x19F PUSH3 0x18E PUSH3 0xDF JUMP JUMPDEST PUSH3 0x198 PUSH3 0x109 JUMP JUMPDEST SWAP1 PUSH3 0x1EF JUMP JUMPDEST PUSH3 0x80 CALLER PUSH1 0x6 PUSH3 0x160 JUMP JUMPDEST PUSH3 0xE9 PUSH3 0xE9 PUSH3 0xE9 SWAP3 SWAP1 JUMP JUMPDEST PUSH3 0xE9 PUSH1 0x1 PUSH3 0x1AC JUMP JUMPDEST SWAP1 PUSH1 0x0 NOT SWAP1 PUSH3 0x11E JUMP JUMPDEST SWAP1 PUSH3 0x1E7 PUSH3 0xE9 PUSH3 0x17C SWAP3 PUSH3 0x1AC JUMP JUMPDEST DUP3 SLOAD PUSH3 0x1C8 JUMP JUMPDEST SWAP1 PUSH3 0x1FB SWAP2 PUSH3 0x3F9 JUMP JUMPDEST PUSH3 0x80 PUSH3 0x209 PUSH3 0x1BC JUMP JUMPDEST PUSH1 0x5 PUSH3 0x1D3 JUMP JUMPDEST PUSH4 0x4E487B71 PUSH1 0xE0 SHL PUSH1 0x0 MSTORE PUSH1 0x22 PUSH1 0x4 MSTORE PUSH1 0x24 PUSH1 0x0 REVERT JUMPDEST SWAP1 PUSH1 0x1 PUSH1 0x2 DUP4 DIV SWAP3 AND DUP1 ISZERO PUSH3 0x24A JUMPI JUMPDEST PUSH1 0x20 DUP4 LT EQ PUSH3 0x244 JUMPI JUMP JUMPDEST PUSH3 0x211 JUMP JUMPDEST SWAP2 PUSH1 0x7F AND SWAP2 PUSH3 0x238 JUMP JUMPDEST SWAP2 PUSH1 0x0 NOT PUSH1 0x8 SWAP3 SWAP1 SWAP3 MUL SWAP2 DUP3 SHL SWAP2 SHL PUSH3 0x11E JUMP JUMPDEST SWAP2 SWAP1 PUSH3 0x27F PUSH3 0xE9 PUSH3 0x17C SWAP4 PUSH3 0x1AC JUMP JUMPDEST SWAP1 DUP4 SLOAD PUSH3 0x255 JUMP JUMPDEST PUSH3 0x80 SWAP2 PUSH1 0x0 SWAP2 PUSH3 0x26A JUMP JUMPDEST DUP2 DUP2 LT PUSH3 0x2A2 JUMPI POP POP JUMP JUMPDEST DUP1 PUSH3 0x2B2 PUSH1 0x0 PUSH1 0x1 SWAP4 PUSH3 0x288 JUMP JUMPDEST ADD PUSH3 0x296 JUMP JUMPDEST SWAP2 SWAP1 PUSH1 0x1F DUP2 GT PUSH3 0x2C9 JUMPI POP POP POP JUMP JUMPDEST PUSH3 0x2DD PUSH3 0x80 SWAP4 PUSH1 0x0 MSTORE PUSH1 0x20 PUSH1 0x0 KECCAK256 SWAP1 JUMP JUMPDEST SWAP1 PUSH1 0x20 PUSH1 0x1F DUP5 ADD DUP2 SWAP1 DIV DUP4 ADD SWAP4 LT PUSH3 0x301 JUMPI JUMPDEST PUSH1 0x20 PUSH1 0x1F SWAP1 SWAP2 ADD DIV ADD SWAP1 PUSH3 0x296 JUMP JUMPDEST SWAP1 SWAP2 POP DUP2 SWAP1 PUSH3 0x2F1 JUMP JUMPDEST SWAP1 PUSH3 0x316 DUP2 MLOAD SWAP1 JUMP JUMPDEST SWAP1 PUSH1 0x1 PUSH1 0x1 PUSH1 0x40 SHL SUB DUP3 GT PUSH3 0x63 JUMPI PUSH3 0x33E DUP3 PUSH3 0x337 DUP6 SLOAD PUSH3 0x227 JUMP JUMPDEST DUP6 PUSH3 0x2B9 JUMP JUMPDEST PUSH1 0x20 SWAP1 PUSH1 0x1F DUP4 GT PUSH1 0x1 EQ PUSH3 0x37D JUMPI PUSH3 0x17C SWAP3 SWAP2 PUSH1 0x0 SWAP2 DUP4 PUSH3 0x371 JUMPI JUMPDEST POP POP PUSH1 0x0 NOT PUSH1 0x8 DUP4 MUL SHR NOT AND SWAP1 PUSH1 0x2 MUL OR SWAP1 JUMP JUMPDEST ADD MLOAD SWAP1 POP CODESIZE DUP1 PUSH3 0x35D JUMP JUMPDEST PUSH1 0x1F NOT DUP4 AND SWAP2 PUSH3 0x393 DUP6 PUSH1 0x0 MSTORE PUSH1 0x20 PUSH1 0x0 KECCAK256 SWAP1 JUMP JUMPDEST SWAP3 PUSH1 0x0 JUMPDEST DUP2 DUP2 LT PUSH3 0x3D4 JUMPI POP SWAP2 PUSH1 0x2 SWAP4 SWAP2 DUP6 PUSH1 0x1 SWAP7 SWAP5 LT PUSH3 0x3BA JUMPI JUMPDEST POP POP POP MUL ADD SWAP1 SSTORE JUMP JUMPDEST ADD MLOAD PUSH1 0x0 NOT PUSH1 0x8 PUSH1 0x1F DUP6 AND MUL SHR NOT AND SWAP1 SSTORE CODESIZE DUP1 DUP1 PUSH3 0x3B1 JUMP JUMPDEST SWAP2 SWAP4 PUSH1 0x20 PUSH1 0x1 DUP2 SWAP3 DUP8 DUP8 ADD MLOAD DUP2 SSTORE ADD SWAP6 ADD SWAP3 ADD PUSH3 0x397 JUMP JUMPDEST SWAP1 PUSH3 0x80 SWAP2 PUSH3 0x30C JUMP JUMPDEST SWAP1 PUSH3 0x40B PUSH3 0x80 SWAP3 PUSH1 0x3 PUSH3 0x3ED JUMP JUMPDEST PUSH1 0x4 PUSH3 0x3ED JUMP INVALID PUSH1 0x80 PUSH1 0x40 MSTORE PUSH1 0x4 CALLDATASIZE LT ISZERO PUSH2 0x12 JUMPI PUSH1 0x0 DUP1 REVERT JUMPDEST PUSH1 0x0 CALLDATALOAD PUSH1 0xE0 SHR DUP1 PUSH4 0x22C0D9F EQ PUSH2 0x182 JUMPI DUP1 PUSH4 0x6FDDE03 EQ PUSH2 0x17D JUMPI DUP1 PUSH4 0x902F1AC EQ PUSH2 0x178 JUMPI DUP1 PUSH4 0x95EA7B3 EQ PUSH2 0x173 JUMPI DUP1 PUSH4 0xDFE1681 EQ PUSH2 0x16E JUMPI DUP1 PUSH4 0x18160DDD EQ PUSH2 0x169 JUMPI DUP1 PUSH4 0x23B872DD EQ PUSH2 0x164 JUMPI DUP1 PUSH4 0x313CE567 EQ PUSH2 0x15F JUMPI DUP1 PUSH4 0x485CC955 EQ PUSH2 0x15A JUMPI DUP1 PUSH4 0x5909C0D5 EQ PUSH2 0x155 JUMPI DUP1 PUSH4 0x5A3D5493 EQ PUSH2 0x150 JUMPI DUP1 PUSH4 0x6A627842 EQ PUSH2 0x14B JUMPI DUP1 PUSH4 0x70A08231 EQ PUSH2 0x146 JUMPI DUP1 PUSH4 0x7464FC3D EQ PUSH2 0x141 JUMPI DUP1 PUSH4 0x89AFCB44 EQ PUSH2 0x13C JUMPI DUP1 PUSH4 0x95D89B41 EQ PUSH2 0x137 JUMPI DUP1 PUSH4 0xA9059CBB EQ PUSH2 0x132 JUMPI DUP1 PUSH4 0xBA9A7A56 EQ PUSH2 0x12D JUMPI DUP1 PUSH4 0xBC25CF77 EQ PUSH2 0x128 JUMPI DUP1 PUSH4 0xC45A0155 EQ PUSH2 0x123 JUMPI DUP1 PUSH4 0xD21220A7 EQ PUSH2 0x11E JUMPI DUP1 PUSH4 0xDD62ED3E EQ PUSH2 0x119 JUMPI PUSH4 0xFFF6CAE9 SUB PUSH2 0x187 JUMPI PUSH2 0x701 JUMP JUMPDEST PUSH2 0x6E5 JUMP JUMPDEST PUSH2 0x6CA JUMP JUMPDEST PUSH2 0x6A3 JUMP JUMPDEST PUSH2 0x67F JUMP JUMPDEST PUSH2 0x664 JUMP JUMPDEST PUSH2 0x628 JUMP JUMPDEST PUSH2 0x60D JUMP JUMPDEST PUSH2 0x5DF JUMP JUMPDEST PUSH2 0x5AD JUMP JUMPDEST PUSH2 0x586 JUMP JUMPDEST PUSH2 0x56B JUMP JUMPDEST PUSH2 0x53C JUMP JUMPDEST PUSH2 0x515 JUMP JUMPDEST PUSH2 0x4DA JUMP JUMPDEST PUSH2 0x488 JUMP JUMPDEST PUSH2 0x46C JUMP JUMPDEST PUSH2 0x410 JUMP JUMPDEST PUSH2 0x3DB JUMP JUMPDEST PUSH2 0x382 JUMP JUMPDEST PUSH2 0x316 JUMP JUMPDEST PUSH2 0x2EF JUMP JUMPDEST PUSH2 0x253 JUMP JUMPDEST PUSH1 0x0 DUP1 REVERT JUMPDEST DUP1 JUMPDEST SUB PUSH2 0x187 JUMPI JUMP JUMPDEST SWAP1 POP CALLDATALOAD SWAP1 PUSH2 0x1A2 DUP3 PUSH2 0x18C JUMP JUMPDEST JUMP JUMPDEST PUSH1 0x1 PUSH1 0x1 PUSH1 0xA0 SHL SUB AND SWAP1 JUMP JUMPDEST SWAP1 JUMP JUMPDEST PUSH1 0x1 PUSH1 0x1 PUSH1 0xA0 SHL SUB DUP2 AND PUSH2 0x18E JUMP JUMPDEST SWAP1 POP CALLDATALOAD SWAP1 PUSH2 0x1A2 DUP3 PUSH2 0x1B3 JUMP JUMPDEST SWAP1 SWAP2 DUP3 PUSH1 0x1F DUP4 ADD SLT ISZERO PUSH2 0x187 JUMPI DUP2 CALLDATALOAD SWAP2 PUSH8 0xFFFFFFFFFFFFFFFF DUP4 GT PUSH2 0x187 JUMPI PUSH1 0x20 ADD SWAP3 PUSH1 0x1 DUP4 MUL DUP5 ADD GT PUSH2 0x187 JUMPI JUMP JUMPDEST SWAP1 PUSH1 0x80 DUP3 DUP3 SUB SLT PUSH2 0x187 JUMPI PUSH2 0x214 DUP2 DUP4 PUSH2 0x195 JUMP JUMPDEST SWAP3 PUSH2 0x222 DUP3 PUSH1 0x20 DUP6 ADD PUSH2 0x195 JUMP JUMPDEST SWAP3 PUSH2 0x230 DUP4 PUSH1 0x40 DUP4 ADD PUSH2 0x1C2 JUMP JUMPDEST SWAP3 PUSH1 0x60 DUP3 ADD CALLDATALOAD PUSH8 0xFFFFFFFFFFFFFFFF DUP2 GT PUSH2 0x187 JUMPI PUSH2 0x24F SWAP3 ADD PUSH2 0x1CF JUMP JUMPDEST SWAP1 SWAP2 JUMP JUMPDEST CALLVALUE PUSH2 0x187 JUMPI PUSH2 0x26F PUSH2 0x266 CALLDATASIZE PUSH1 0x4 PUSH2 0x1FF JUMP JUMPDEST SWAP4 SWAP3 SWAP1 SWAP3 PUSH2 0x2285 JUMP JUMPDEST PUSH1 0x40 MLOAD STOP JUMPDEST SUB SWAP1 RETURN JUMPDEST PUSH1 0x0 SWAP2 SUB SLT PUSH2 0x187 JUMPI JUMP JUMPDEST PUSH1 0x0 JUMPDEST DUP4 DUP2 LT PUSH2 0x296 JUMPI POP POP PUSH1 0x0 SWAP2 ADD MSTORE JUMP JUMPDEST DUP2 DUP2 ADD MLOAD DUP4 DUP3 ADD MSTORE PUSH1 0x20 ADD PUSH2 0x286 JUMP JUMPDEST PUSH2 0x2C7 PUSH2 0x2D0 PUSH1 0x20 SWAP4 PUSH2 0x2DA SWAP4 PUSH2 0x2BB DUP2 MLOAD SWAP1 JUMP JUMPDEST DUP1 DUP4 MSTORE SWAP4 DUP5 SWAP3 PUSH1 0x20 ADD SWAP1 JUMP JUMPDEST SWAP6 DUP7 SWAP2 ADD PUSH2 0x283 JUMP JUMPDEST PUSH1 0x1F ADD PUSH1 0x1F NOT AND SWAP1 JUMP JUMPDEST ADD SWAP1 JUMP JUMPDEST PUSH1 0x20 DUP1 DUP3 MSTORE PUSH2 0x1B0 SWAP3 SWAP2 ADD SWAP1 PUSH2 0x2A6 JUMP JUMPDEST CALLVALUE PUSH2 0x187 JUMPI PUSH2 0x2FF CALLDATASIZE PUSH1 0x4 PUSH2 0x278 JUMP JUMPDEST PUSH2 0x274 PUSH2 0x30A PUSH2 0x84E JUMP JUMPDEST PUSH1 0x40 MLOAD SWAP2 DUP3 SWAP2 DUP3 PUSH2 0x2DE JUMP JUMPDEST CALLVALUE PUSH2 0x187 JUMPI PUSH2 0x326 CALLDATASIZE PUSH1 0x4 PUSH2 0x278 JUMP JUMPDEST PUSH2 0x274 PUSH2 0x331 PUSH2 0xEC1 JUMP JUMPDEST PUSH1 0x40 DUP1 MLOAD PUSH1 0x1 PUSH1 0x1 PUSH1 0x70 SHL SUB SWAP5 DUP6 AND DUP2 MSTORE SWAP4 SWAP1 SWAP3 AND PUSH1 0x20 DUP5 ADD MSTORE PUSH4 0xFFFFFFFF AND SWAP1 DUP3 ADD MSTORE SWAP1 DUP2 SWAP1 PUSH1 0x60 DUP3 ADD SWAP1 JUMP JUMPDEST SWAP2 SWAP1 PUSH1 0x40 DUP4 DUP3 SUB SLT PUSH2 0x187 JUMPI PUSH2 0x1B0 SWAP1 PUSH2 0x379 DUP2 DUP6 PUSH2 0x1C2 JUMP JUMPDEST SWAP4 PUSH1 0x20 ADD PUSH2 0x195 JUMP JUMPDEST CALLVALUE PUSH2 0x187 JUMPI PUSH2 0x274 PUSH2 0x39E PUSH2 0x398 CALLDATASIZE PUSH1 0x4 PUSH2 0x35F JUMP JUMPDEST SWAP1 PUSH2 0x92B JUMP JUMPDEST PUSH1 0x40 MLOAD SWAP2 DUP3 SWAP2 DUP3 SWAP1 ISZERO ISZERO DUP2 MSTORE PUSH1 0x20 ADD SWAP1 JUMP JUMPDEST PUSH2 0x1B0 SWAP2 PUSH1 0x8 MUL SHR PUSH1 0x1 PUSH1 0x1 PUSH1 0xA0 SHL SUB AND SWAP1 JUMP JUMPDEST SWAP1 PUSH2 0x1B0 SWAP2 SLOAD PUSH2 0x3B0 JUMP JUMPDEST PUSH2 0x1B0 PUSH1 0x0 PUSH1 0x7 PUSH2 0x3C4 JUMP JUMPDEST CALLVALUE PUSH2 0x187 JUMPI PUSH2 0x3EB CALLDATASIZE PUSH1 0x4 PUSH2 0x278 JUMP JUMPDEST PUSH2 0x274 PUSH2 0x3F6 PUSH2 0x3CF JUMP JUMPDEST PUSH1 0x40 MLOAD SWAP2 DUP3 SWAP2 DUP3 PUSH1 0x1 PUSH1 0x1 PUSH1 0xA0 SHL SUB SWAP1 SWAP2 AND DUP2 MSTORE PUSH1 0x20 ADD SWAP1 JUMP JUMPDEST CALLVALUE PUSH2 0x187 JUMPI PUSH2 0x420 CALLDATASIZE PUSH1 0x4 PUSH2 0x278 JUMP JUMPDEST PUSH2 0x274 PUSH2 0x42B PUSH2 0x890 JUMP JUMPDEST PUSH1 0x40 MLOAD JUMPDEST SWAP2 DUP3 SWAP2 DUP3 SWAP1 DUP2 MSTORE PUSH1 0x20 ADD SWAP1 JUMP JUMPDEST SWAP1 SWAP2 PUSH1 0x60 DUP3 DUP5 SUB SLT PUSH2 0x187 JUMPI PUSH2 0x1B0 PUSH2 0x455 DUP5 DUP5 PUSH2 0x1C2 JUMP JUMPDEST SWAP4 PUSH2 0x463 DUP2 PUSH1 0x20 DUP7 ADD PUSH2 0x1C2 JUMP JUMPDEST SWAP4 PUSH1 0x40 ADD PUSH2 0x195 JUMP JUMPDEST CALLVALUE PUSH2 0x187 JUMPI PUSH2 0x274 PUSH2 0x39E PUSH2 0x482 CALLDATASIZE PUSH1 0x4 PUSH2 0x43C JUMP JUMPDEST SWAP2 PUSH2 0x936 JUMP JUMPDEST CALLVALUE PUSH2 0x187 JUMPI PUSH2 0x498 CALLDATASIZE PUSH1 0x4 PUSH2 0x278 JUMP JUMPDEST PUSH2 0x274 PUSH2 0x4A3 PUSH2 0x875 JUMP JUMPDEST PUSH1 0x40 MLOAD SWAP2 DUP3 SWAP2 DUP3 PUSH1 0xFF SWAP1 SWAP2 AND DUP2 MSTORE PUSH1 0x20 ADD SWAP1 JUMP JUMPDEST SWAP2 SWAP1 PUSH1 0x40 DUP4 DUP3 SUB SLT PUSH2 0x187 JUMPI PUSH2 0x1B0 SWAP1 PUSH2 0x4D1 DUP2 DUP6 PUSH2 0x1C2 JUMP JUMPDEST SWAP4 PUSH1 0x20 ADD PUSH2 0x1C2 JUMP JUMPDEST CALLVALUE PUSH2 0x187 JUMPI PUSH2 0x26F PUSH2 0x4ED CALLDATASIZE PUSH1 0x4 PUSH2 0x4B7 JUMP JUMPDEST SWAP1 PUSH2 0xE38 JUMP JUMPDEST PUSH2 0x1B0 SWAP2 PUSH1 0x8 MUL SHR DUP2 JUMP JUMPDEST SWAP1 PUSH2 0x1B0 SWAP2 SLOAD PUSH2 0x4F3 JUMP JUMPDEST PUSH2 0x1B0 PUSH1 0x0 PUSH1 0xA PUSH2 0x4FE JUMP JUMPDEST CALLVALUE PUSH2 0x187 JUMPI PUSH2 0x525 CALLDATASIZE PUSH1 0x4 PUSH2 0x278 JUMP JUMPDEST PUSH2 0x274 PUSH2 0x42B PUSH2 0x509 JUMP JUMPDEST PUSH2 0x1B0 PUSH1 0x0 PUSH1 0xB PUSH2 0x4FE JUMP JUMPDEST CALLVALUE PUSH2 0x187 JUMPI PUSH2 0x54C CALLDATASIZE PUSH1 0x4 PUSH2 0x278 JUMP JUMPDEST PUSH2 0x274 PUSH2 0x42B PUSH2 0x530 JUMP JUMPDEST SWAP1 PUSH1 0x20 DUP3 DUP3 SUB SLT PUSH2 0x187 JUMPI PUSH2 0x1B0 SWAP2 PUSH2 0x1C2 JUMP JUMPDEST CALLVALUE PUSH2 0x187 JUMPI PUSH2 0x274 PUSH2 0x42B PUSH2 0x581 CALLDATASIZE PUSH1 0x4 PUSH2 0x557 JUMP JUMPDEST PUSH2 0x12AA JUMP JUMPDEST CALLVALUE PUSH2 0x187 JUMPI PUSH2 0x274 PUSH2 0x42B PUSH2 0x59C CALLDATASIZE PUSH1 0x4 PUSH2 0x557 JUMP JUMPDEST PUSH2 0x8DA JUMP JUMPDEST PUSH2 0x1B0 PUSH1 0x0 PUSH1 0xC PUSH2 0x4FE JUMP JUMPDEST CALLVALUE PUSH2 0x187 JUMPI PUSH2 0x5BD CALLDATASIZE PUSH1 0x4 PUSH2 0x278 JUMP JUMPDEST PUSH2 0x274 PUSH2 0x42B PUSH2 0x5A1 JUMP JUMPDEST SWAP1 DUP2 MSTORE PUSH1 0x40 DUP2 ADD SWAP3 SWAP2 PUSH2 0x1A2 SWAP2 PUSH1 0x20 ADD MSTORE JUMP JUMPDEST ADD MSTORE JUMP JUMPDEST CALLVALUE PUSH2 0x187 JUMPI PUSH2 0x5F7 PUSH2 0x5F2 CALLDATASIZE PUSH1 0x4 PUSH2 0x557 JUMP JUMPDEST PUSH2 0x1AE2 JUMP JUMPDEST SWAP1 PUSH2 0x274 PUSH2 0x604 PUSH1 0x40 MLOAD SWAP1 JUMP JUMPDEST SWAP3 DUP4 SWAP3 DUP4 PUSH2 0x5C8 JUMP JUMPDEST CALLVALUE PUSH2 0x187 JUMPI PUSH2 0x61D CALLDATASIZE PUSH1 0x4 PUSH2 0x278 JUMP JUMPDEST PUSH2 0x274 PUSH2 0x30A PUSH2 0x858 JUMP JUMPDEST CALLVALUE PUSH2 0x187 JUMPI PUSH2 0x274 PUSH2 0x39E PUSH2 0x63E CALLDATASIZE PUSH1 0x4 PUSH2 0x35F JUMP JUMPDEST SWAP1 PUSH2 0x8F6 JUMP JUMPDEST PUSH2 0x1B0 PUSH2 0x1B0 PUSH2 0x1B0 SWAP3 SWAP1 JUMP JUMPDEST PUSH2 0x1B0 PUSH2 0x3E8 PUSH2 0x644 JUMP JUMPDEST PUSH2 0x1B0 PUSH2 0x651 JUMP JUMPDEST CALLVALUE PUSH2 0x187 JUMPI PUSH2 0x674 CALLDATASIZE PUSH1 0x4 PUSH2 0x278 JUMP JUMPDEST PUSH2 0x274 PUSH2 0x42B PUSH2 0x65C JUMP JUMPDEST CALLVALUE PUSH2 0x187 JUMPI PUSH2 0x26F PUSH2 0x692 CALLDATASIZE PUSH1 0x4 PUSH2 0x557 JUMP JUMPDEST PUSH2 0x2449 JUMP JUMPDEST PUSH2 0x1B0 PUSH1 0x0 PUSH1 0x6 PUSH2 0x3C4 JUMP JUMPDEST CALLVALUE PUSH2 0x187 JUMPI PUSH2 0x6B3 CALLDATASIZE PUSH1 0x4 PUSH2 0x278 JUMP JUMPDEST PUSH2 0x274 PUSH2 0x3F6 PUSH2 0x697 JUMP JUMPDEST PUSH2 0x1B0 PUSH1 0x0 PUSH1 0x8 PUSH2 0x3C4 JUMP JUMPDEST CALLVALUE PUSH2 0x187 JUMPI PUSH2 0x6DA CALLDATASIZE PUSH1 0x4 PUSH2 0x278 JUMP JUMPDEST PUSH2 0x274 PUSH2 0x3F6 PUSH2 0x6BE JUMP JUMPDEST CALLVALUE PUSH2 0x187 JUMPI PUSH2 0x274 PUSH2 0x42B PUSH2 0x6FB CALLDATASIZE PUSH1 0x4 PUSH2 0x4B7 JUMP JUMPDEST SWAP1 PUSH2 0x90B JUMP JUMPDEST CALLVALUE PUSH2 0x187 JUMPI PUSH2 0x711 CALLDATASIZE PUSH1 0x4 PUSH2 0x278 JUMP JUMPDEST PUSH2 0x26F PUSH2 0x2545 JUMP JUMPDEST PUSH4 0x4E487B71 PUSH1 0xE0 SHL PUSH1 0x0 MSTORE PUSH1 0x22 PUSH1 0x4 MSTORE PUSH1 0x24 PUSH1 0x0 REVERT JUMPDEST SWAP1 PUSH1 0x1 PUSH1 0x2 DUP4 DIV SWAP3 AND DUP1 ISZERO PUSH2 0x74F JUMPI JUMPDEST PUSH1 0x20 DUP4 LT EQ PUSH2 0x74A JUMPI JUMP JUMPDEST PUSH2 0x719 JUMP JUMPDEST SWAP2 PUSH1 0x7F AND SWAP2 PUSH2 0x73F JUMP JUMPDEST DUP1 SLOAD PUSH1 0x0 SWAP4 SWAP3 SWAP2 PUSH2 0x776 PUSH2 0x76C DUP4 PUSH2 0x72F JUMP JUMPDEST DUP1 DUP6 MSTORE SWAP4 PUSH1 0x20 ADD SWAP1 JUMP JUMPDEST SWAP2 PUSH1 0x1 DUP2 AND SWAP1 DUP2 ISZERO PUSH2 0x7C8 JUMPI POP PUSH1 0x1 EQ PUSH2 0x78F JUMPI POP POP POP JUMP JUMPDEST PUSH2 0x7A2 SWAP2 SWAP3 SWAP4 SWAP5 POP PUSH1 0x0 MSTORE PUSH1 0x20 PUSH1 0x0 KECCAK256 SWAP1 JUMP JUMPDEST SWAP2 PUSH1 0x0 SWAP3 JUMPDEST DUP2 DUP5 LT PUSH2 0x7B4 JUMPI POP POP ADD SWAP1 JUMP JUMPDEST DUP1 SLOAD DUP5 DUP5 ADD MSTORE PUSH1 0x20 SWAP1 SWAP4 ADD SWAP3 PUSH1 0x1 ADD PUSH2 0x7A7 JUMP JUMPDEST SWAP3 SWAP5 SWAP6 POP POP POP PUSH1 0xFF NOT AND DUP3 MSTORE ISZERO ISZERO PUSH1 0x20 MUL ADD SWAP1 JUMP JUMPDEST SWAP1 PUSH2 0x1B0 SWAP2 PUSH2 0x759 JUMP JUMPDEST PUSH4 0x4E487B71 PUSH1 0xE0 SHL PUSH1 0x0 MSTORE PUSH1 0x41 PUSH1 0x4 MSTORE PUSH1 0x24 PUSH1 0x0 REVERT JUMPDEST SWAP1 PUSH1 0x1F ADD PUSH1 0x1F NOT AND DUP2 ADD SWAP1 DUP2 LT PUSH8 0xFFFFFFFFFFFFFFFF DUP3 GT OR PUSH2 0x81F JUMPI PUSH1 0x40 MSTORE JUMP JUMPDEST PUSH2 0x7E7 JUMP JUMPDEST SWAP1 PUSH2 0x1A2 PUSH2 0x83E SWAP3 PUSH2 0x835 PUSH1 0x40 MLOAD SWAP1 JUMP JUMPDEST SWAP4 DUP5 DUP1 SWAP3 PUSH2 0x7DD JUMP JUMPDEST SUB DUP4 PUSH2 0x7FD JUMP JUMPDEST PUSH2 0x1B0 SWAP1 PUSH2 0x824 JUMP JUMPDEST PUSH2 0x1B0 PUSH1 0x3 PUSH2 0x845 JUMP JUMPDEST PUSH2 0x1B0 PUSH1 0x4 PUSH2 0x845 JUMP JUMPDEST PUSH2 0x86F PUSH2 0x1B0 PUSH2 0x1B0 SWAP3 SWAP1 JUMP JUMPDEST PUSH1 0xFF AND SWAP1 JUMP JUMPDEST PUSH2 0x1B0 PUSH1 0x12 PUSH2 0x862 JUMP JUMPDEST PUSH2 0x1B0 SWAP1 DUP2 JUMP JUMPDEST PUSH2 0x1B0 SWAP1 SLOAD PUSH2 0x87F JUMP JUMPDEST PUSH2 0x1B0 PUSH1 0x2 PUSH2 0x886 JUMP JUMPDEST PUSH2 0x1A4 PUSH2 0x1B0 PUSH2 0x1B0 SWAP3 PUSH1 0x1 PUSH1 0x1 PUSH1 0xA0 SHL SUB AND SWAP1 JUMP JUMPDEST PUSH2 0x1B0 SWAP1 PUSH2 0x89A JUMP JUMPDEST PUSH2 0x1B0 SWAP1 PUSH2 0x8B0 JUMP JUMPDEST SWAP1 PUSH2 0x8CC SWAP1 PUSH2 0x8B9 JUMP JUMPDEST PUSH1 0x0 MSTORE PUSH1 0x20 MSTORE PUSH1 0x40 PUSH1 0x0 KECCAK256 SWAP1 JUMP JUMPDEST PUSH2 0x8F1 PUSH2 0x1B0 SWAP2 PUSH2 0x8E9 PUSH1 0x0 SWAP1 JUMP JUMPDEST POP PUSH1 0x0 PUSH2 0x8C2 JUMP JUMPDEST PUSH2 0x886 JUMP JUMPDEST PUSH2 0x906 SWAP2 SWAP1 CALLER PUSH2 0x95D JUMP JUMPDEST PUSH2 0x95D JUMP JUMPDEST PUSH1 0x1 SWAP1 JUMP JUMPDEST PUSH2 0x1B0 SWAP2 PUSH2 0x926 PUSH2 0x8F1 SWAP3 PUSH2 0x91E PUSH1 0x0 SWAP1 JUMP JUMPDEST POP PUSH1 0x1 PUSH2 0x8C2 JUMP JUMPDEST PUSH2 0x8C2 JUMP JUMPDEST PUSH2 0x906 SWAP2 SWAP1 CALLER PUSH2 0xC05 JUMP JUMPDEST PUSH2 0x906 SWAP3 SWAP2 SWAP1 PUSH2 0x901 DUP4 CALLER DUP4 PUSH2 0xD2F JUMP JUMPDEST PUSH2 0x1A4 PUSH2 0x1B0 PUSH2 0x1B0 SWAP3 SWAP1 JUMP JUMPDEST PUSH2 0x1B0 SWAP1 PUSH2 0x947 JUMP JUMPDEST SWAP3 SWAP2 SWAP1 PUSH2 0x96A PUSH1 0x0 PUSH2 0x954 JUMP JUMPDEST SWAP4 PUSH1 0x1 PUSH1 0x1 PUSH1 0xA0 SHL SUB DUP6 AND PUSH1 0x1 PUSH1 0x1 PUSH1 0xA0 SHL SUB DUP3 AND EQ PUSH2 0x9F6 JUMPI PUSH1 0x1 PUSH1 0x1 PUSH1 0xA0 SHL SUB DUP6 AND PUSH1 0x1 PUSH1 0x1 PUSH1 0xA0 SHL SUB DUP4 AND EQ PUSH2 0x9A8 JUMPI PUSH2 0x1A2 SWAP4 SWAP5 POP PUSH2 0xABA JUMP JUMPDEST PUSH2 0x9F2 DUP6 PUSH2 0x9B5 PUSH1 0x40 MLOAD SWAP1 JUMP JUMPDEST SWAP2 DUP3 SWAP2 PUSH32 0xEC442F0500000000000000000000000000000000000000000000000000000000 DUP4 MSTORE PUSH1 0x4 DUP4 ADD PUSH1 0x1 PUSH1 0x1 PUSH1 0xA0 SHL SUB SWAP1 SWAP2 AND DUP2 MSTORE PUSH1 0x20 ADD SWAP1 JUMP JUMPDEST SUB SWAP1 REVERT JUMPDEST PUSH2 0x9F2 DUP6 PUSH2 0xA03 PUSH1 0x40 MLOAD SWAP1 JUMP JUMPDEST SWAP2 DUP3 SWAP2 PUSH32 0x96C6FD1E00000000000000000000000000000000000000000000000000000000 DUP4 MSTORE PUSH1 0x4 DUP4 ADD PUSH1 0x1 PUSH1 0x1 PUSH1 0xA0 SHL SUB SWAP1 SWAP2 AND DUP2 MSTORE PUSH1 0x20 ADD SWAP1 JUMP JUMPDEST PUSH1 0x1 PUSH1 0x1 PUSH1 0xA0 SHL SUB SWAP1 SWAP2 AND DUP2 MSTORE PUSH1 0x60 DUP2 ADD SWAP4 SWAP3 PUSH2 0x1A2 SWAP3 SWAP1 SWAP2 PUSH1 0x40 SWAP2 PUSH2 0x5DB SWAP1 PUSH1 0x20 DUP4 ADD MSTORE JUMP JUMPDEST SWAP1 PUSH1 0x0 NOT SWAP1 JUMPDEST SWAP2 DUP2 NOT AND SWAP2 AND OR SWAP1 JUMP JUMPDEST SWAP1 PUSH2 0xA87 PUSH2 0x1B0 PUSH2 0xA8E SWAP3 PUSH2 0x644 JUMP JUMPDEST DUP3 SLOAD PUSH2 0xA67 JUMP JUMPDEST SWAP1 SSTORE JUMP JUMPDEST PUSH4 0x4E487B71 PUSH1 0xE0 SHL PUSH1 0x0 MSTORE PUSH1 0x11 PUSH1 0x4 MSTORE PUSH1 0x24 PUSH1 0x0 REVERT JUMPDEST SWAP2 SWAP1 DUP3 ADD DUP1 SWAP3 GT PUSH2 0xAB5 JUMPI JUMP JUMPDEST PUSH2 0xA92 JUMP JUMPDEST DUP2 PUSH1 0x0 PUSH2 0xAC6 DUP2 PUSH2 0x954 JUMP JUMPDEST PUSH1 0x1 PUSH1 0x1 PUSH1 0xA0 SHL SUB DUP2 AND PUSH1 0x1 PUSH1 0x1 PUSH1 0xA0 SHL SUB DUP6 AND SUB PUSH2 0xB90 JUMPI PUSH2 0xB00 SWAP1 PUSH2 0x1A4 PUSH2 0xAF9 DUP9 PUSH2 0xAF4 PUSH1 0x2 PUSH2 0x886 JUMP JUMPDEST PUSH2 0xAA8 JUMP JUMPDEST PUSH1 0x2 PUSH2 0xA77 JUMP JUMPDEST PUSH1 0x1 PUSH1 0x1 PUSH1 0xA0 SHL SUB DUP4 AND SUB PUSH2 0xB6B JUMPI POP POP PUSH2 0xB26 PUSH2 0xAF9 DUP5 PUSH2 0xB22 PUSH1 0x2 PUSH2 0x886 JUMP JUMPDEST SUB SWAP1 JUMP JUMPDEST PUSH2 0xB66 PUSH2 0xB5C PUSH2 0xB56 PUSH32 0xDDF252AD1BE2C89B69C2B068FC378DAA952BA7F163C4A11628F55A4DF523B3EF SWAP4 PUSH2 0x8B9 JUMP JUMPDEST SWAP4 PUSH2 0x8B9 JUMP JUMPDEST SWAP4 PUSH2 0x42F PUSH1 0x40 MLOAD SWAP1 JUMP JUMPDEST SUB SWAP1 LOG3 JUMP JUMPDEST PUSH2 0xB8B SWAP2 PUSH2 0xB78 SWAP2 PUSH2 0x8C2 JUMP JUMPDEST PUSH2 0xB85 DUP6 PUSH2 0x2DA DUP4 PUSH2 0x886 JUMP JUMPDEST SWAP1 PUSH2 0xA77 JUMP JUMPDEST PUSH2 0xB26 JUMP JUMPDEST SWAP1 SWAP2 POP PUSH2 0xBA0 PUSH2 0x8F1 DUP5 DUP5 PUSH2 0x8C2 JUMP JUMPDEST DUP6 DUP2 LT PUSH2 0xBC8 JUMPI DUP5 SWAP3 SWAP2 PUSH2 0x1A4 PUSH2 0xBB9 DUP9 PUSH2 0xB00 SWAP5 SUB SWAP1 JUMP JUMPDEST PUSH2 0xBC3 DUP8 DUP7 PUSH2 0x8C2 JUMP JUMPDEST PUSH2 0xA77 JUMP JUMPDEST DUP4 PUSH2 0x9F2 DUP8 PUSH2 0xBD6 PUSH1 0x40 MLOAD SWAP1 JUMP JUMPDEST SWAP4 DUP5 SWAP4 PUSH32 0xE450D38C00000000000000000000000000000000000000000000000000000000 DUP6 MSTORE PUSH1 0x4 DUP6 ADD PUSH2 0xA40 JUMP JUMPDEST SWAP1 SWAP2 PUSH2 0x1A2 SWAP3 PUSH1 0x1 SWAP3 JUMPDEST SWAP1 SWAP2 SWAP3 PUSH2 0xC1C PUSH1 0x0 PUSH2 0x954 JUMP JUMPDEST PUSH1 0x1 PUSH1 0x1 PUSH1 0xA0 SHL SUB DUP2 AND PUSH1 0x1 PUSH1 0x1 PUSH1 0xA0 SHL SUB DUP5 AND EQ PUSH2 0xCE5 JUMPI PUSH1 0x1 PUSH1 0x1 PUSH1 0xA0 SHL SUB DUP2 AND PUSH1 0x1 PUSH1 0x1 PUSH1 0xA0 SHL SUB DUP6 AND EQ PUSH2 0xC9B JUMPI POP PUSH2 0xC62 DUP5 PUSH2 0xBC3 DUP6 PUSH2 0x926 DUP7 PUSH1 0x1 PUSH2 0x8C2 JUMP JUMPDEST PUSH2 0xC6B JUMPI POP POP POP JUMP JUMPDEST PUSH2 0xB66 PUSH2 0xB5C PUSH2 0xB56 PUSH32 0x8C5BE1E5EBEC7D5BD14F71427D1E84F3DD0314C0F7B2291E5B200AC8C7C3B925 SWAP4 PUSH2 0x8B9 JUMP JUMPDEST PUSH2 0x9F2 SWAP1 PUSH2 0xCA8 PUSH1 0x40 MLOAD SWAP1 JUMP JUMPDEST SWAP2 DUP3 SWAP2 PUSH32 0x94280D6200000000000000000000000000000000000000000000000000000000 DUP4 MSTORE PUSH1 0x4 DUP4 ADD PUSH1 0x1 PUSH1 0x1 PUSH1 0xA0 SHL SUB SWAP1 SWAP2 AND DUP2 MSTORE PUSH1 0x20 ADD SWAP1 JUMP JUMPDEST PUSH2 0x9F2 SWAP1 PUSH2 0xCF2 PUSH1 0x40 MLOAD SWAP1 JUMP JUMPDEST SWAP2 DUP3 SWAP2 PUSH32 0xE602DF0500000000000000000000000000000000000000000000000000000000 DUP4 MSTORE PUSH1 0x4 DUP4 ADD PUSH1 0x1 PUSH1 0x1 PUSH1 0xA0 SHL SUB SWAP1 SWAP2 AND DUP2 MSTORE PUSH1 0x20 ADD SWAP1 JUMP JUMPDEST SWAP1 SWAP3 SWAP2 SWAP3 PUSH2 0xD3D DUP2 DUP4 PUSH2 0x90B JUMP JUMPDEST SWAP4 PUSH1 0x0 NOT DUP6 LT PUSH2 0xD4F JUMPI JUMPDEST POP POP POP SWAP1 POP JUMP JUMPDEST DUP1 DUP6 LT PUSH2 0xD75 JUMPI PUSH2 0xD63 SWAP1 PUSH2 0xD6C SWAP5 SWAP6 SUB SWAP1 JUMP JUMPDEST SWAP1 PUSH1 0x0 SWAP3 PUSH2 0xC0F JUMP JUMPDEST DUP1 CODESIZE DUP1 DUP1 PUSH2 0xD48 JUMP JUMPDEST SWAP1 PUSH2 0x9F2 DUP6 SWAP3 PUSH2 0xD84 PUSH1 0x40 MLOAD SWAP1 JUMP JUMPDEST SWAP4 DUP5 SWAP4 PUSH32 0xFB8F41B200000000000000000000000000000000000000000000000000000000 DUP6 MSTORE PUSH1 0x4 DUP6 ADD PUSH2 0xA40 JUMP JUMPDEST PUSH2 0x1B0 SWAP1 PUSH2 0x1A4 JUMP JUMPDEST PUSH2 0x1B0 SWAP1 SLOAD PUSH2 0xDB3 JUMP JUMPDEST ISZERO PUSH2 0xDCD JUMPI JUMP JUMPDEST PUSH1 0x40 MLOAD PUSH3 0x461BCD PUSH1 0xE5 SHL DUP2 MSTORE PUSH1 0x20 PUSH1 0x4 DUP3 ADD MSTORE PUSH1 0x15 PUSH1 0x24 DUP3 ADD MSTORE PUSH32 0x4879706572496E6465783A20464F5242494444454E0000000000000000000000 PUSH1 0x44 DUP3 ADD MSTORE PUSH1 0x64 SWAP1 REVERT JUMPDEST SWAP1 PUSH1 0x1 PUSH1 0x1 PUSH1 0xA0 SHL SUB SWAP1 PUSH2 0xA6D JUMP JUMPDEST SWAP1 PUSH2 0xE31 PUSH2 0x1B0 PUSH2 0xA8E SWAP3 PUSH2 0x8B9 JUMP JUMPDEST DUP3 SLOAD PUSH2 0xE12 JUMP JUMPDEST SWAP1 PUSH2 0xE6E PUSH2 0x1A2 SWAP3 PUSH2 0xE67 CALLER PUSH2 0xE61 PUSH2 0xE54 PUSH2 0x1A4 PUSH1 0x6 PUSH2 0xDBC JUMP JUMPDEST SWAP2 PUSH1 0x1 PUSH1 0x1 PUSH1 0xA0 SHL SUB AND SWAP1 JUMP JUMPDEST EQ PUSH2 0xDC6 JUMP JUMPDEST PUSH1 0x7 PUSH2 0xE21 JUMP JUMPDEST PUSH1 0x8 PUSH2 0xE21 JUMP JUMPDEST PUSH2 0x1B0 SWAP1 JUMPDEST PUSH1 0x1 PUSH1 0x1 PUSH1 0x70 SHL SUB AND SWAP1 JUMP JUMPDEST PUSH2 0x1B0 SWAP1 SLOAD PUSH2 0xE75 JUMP JUMPDEST PUSH2 0x1B0 SWAP1 PUSH1 0x70 SHR PUSH2 0xE7A JUMP JUMPDEST PUSH2 0x1B0 SWAP1 SLOAD PUSH2 0xE90 JUMP JUMPDEST PUSH2 0x1B0 SWAP1 PUSH1 0xE0 SHR JUMPDEST PUSH4 0xFFFFFFFF AND SWAP1 JUMP JUMPDEST PUSH2 0x1B0 SWAP1 SLOAD PUSH2 0xEA6 JUMP JUMPDEST PUSH2 0xECB PUSH1 0x9 PUSH2 0xE86 JUMP JUMPDEST SWAP1 PUSH2 0xED6 PUSH1 0x9 PUSH2 0xE9C JUMP JUMPDEST SWAP1 PUSH2 0x1B0 PUSH1 0x9 PUSH2 0xEB7 JUMP JUMPDEST SWAP1 PUSH2 0xEF3 SWAP2 PUSH2 0xEEE PUSH2 0x12FC JUMP JUMPDEST PUSH2 0x1001 JUMP JUMPDEST SWAP1 PUSH2 0x1A2 PUSH2 0x1355 JUMP JUMPDEST SWAP1 POP MLOAD SWAP1 PUSH2 0x1A2 DUP3 PUSH2 0x18C JUMP JUMPDEST SWAP1 PUSH1 0x20 DUP3 DUP3 SUB SLT PUSH2 0x187 JUMPI PUSH2 0x1B0 SWAP2 PUSH2 0xEFC JUMP JUMPDEST PUSH1 0x40 MLOAD RETURNDATASIZE PUSH1 0x0 DUP3 RETURNDATACOPY RETURNDATASIZE SWAP1 REVERT JUMPDEST PUSH2 0x1B0 PUSH2 0x1B0 PUSH2 0x1B0 SWAP3 PUSH1 0x1 PUSH1 0x1 PUSH1 0x70 SHL SUB AND SWAP1 JUMP JUMPDEST SWAP2 SWAP1 DUP3 SUB SWAP2 DUP3 GT PUSH2 0xAB5 JUMPI JUMP JUMPDEST DUP2 DUP2 MUL SWAP3 SWAP2 DUP2 ISZERO SWAP2 DUP5 DIV EQ OR ISZERO PUSH2 0xAB5 JUMPI JUMP JUMPDEST PUSH4 0x4E487B71 PUSH1 0xE0 SHL PUSH1 0x0 MSTORE PUSH1 0x12 PUSH1 0x4 MSTORE PUSH1 0x24 PUSH1 0x0 REVERT JUMPDEST SWAP1 PUSH2 0xF7F JUMP JUMPDEST SWAP2 SWAP1 JUMP JUMPDEST SWAP1 DUP2 ISZERO PUSH2 0xF8A JUMPI DIV SWAP1 JUMP JUMPDEST PUSH2 0xF5F JUMP JUMPDEST ISZERO PUSH2 0xF96 JUMPI JUMP JUMPDEST PUSH1 0x40 MLOAD PUSH3 0x461BCD PUSH1 0xE5 SHL DUP2 MSTORE PUSH1 0x20 PUSH1 0x4 DUP3 ADD MSTORE PUSH1 0x29 PUSH1 0x24 DUP3 ADD MSTORE PUSH32 0x4879706572496E6465783A20494E53554646494349454E545F4C495155494449 PUSH1 0x44 DUP3 ADD MSTORE PUSH32 0x54595F4D494E5445440000000000000000000000000000000000000000000000 PUSH1 0x64 DUP3 ADD MSTORE PUSH1 0x84 SWAP1 REVERT JUMPDEST POP SWAP1 PUSH2 0x100B PUSH2 0xEC1 JUMP JUMPDEST POP SWAP1 PUSH2 0x1022 PUSH2 0x101D PUSH2 0x101D PUSH1 0x7 PUSH2 0xDBC JUMP JUMPDEST PUSH2 0x8B9 JUMP JUMPDEST SWAP4 PUSH4 0x70A08231 PUSH2 0x1031 ADDRESS PUSH2 0x8B9 JUMP JUMPDEST SWAP1 PUSH1 0x20 PUSH2 0x103D PUSH1 0x40 MLOAD SWAP1 JUMP JUMPDEST DUP1 SWAP9 PUSH2 0x1049 DUP5 PUSH1 0xE0 SHL SWAP1 JUMP JUMPDEST DUP3 MSTORE PUSH1 0x1 PUSH1 0x1 PUSH1 0xA0 SHL SUB DUP6 AND PUSH1 0x4 DUP4 ADD MSTORE PUSH1 0x24 SWAP1 DUP3 SWAP1 GAS STATICCALL SWAP7 DUP8 ISZERO PUSH2 0x127B JUMPI PUSH1 0x0 SWAP8 PUSH2 0x1280 JUMPI JUMPDEST POP PUSH2 0x10BA SWAP3 SWAP2 PUSH1 0x20 SWAP2 PUSH2 0x10A3 PUSH2 0x108C PUSH2 0x101D PUSH2 0x101D PUSH1 0x8 PUSH2 0xDBC JUMP JUMPDEST SWAP2 PUSH2 0x1096 PUSH1 0x40 MLOAD SWAP1 JUMP JUMPDEST SWAP7 DUP8 SWAP5 DUP6 SWAP4 DUP5 SWAP4 PUSH1 0xE0 SHL SWAP1 JUMP JUMPDEST DUP4 MSTORE PUSH1 0x1 PUSH1 0x1 PUSH1 0xA0 SHL SUB AND PUSH1 0x4 DUP4 ADD MSTORE PUSH1 0x24 DUP3 ADD SWAP1 JUMP JUMPDEST SUB SWAP2 GAS STATICCALL SWAP2 DUP3 ISZERO PUSH2 0x127B JUMPI PUSH1 0x0 SWAP3 PUSH2 0x124B JUMPI JUMPDEST POP PUSH2 0x10E0 PUSH2 0x10DA DUP5 PUSH2 0xF29 JUMP JUMPDEST DUP8 PUSH2 0xF3F JUMP JUMPDEST SWAP4 PUSH2 0x10F3 PUSH2 0x10ED DUP3 PUSH2 0xF29 JUMP JUMPDEST DUP5 PUSH2 0xF3F JUMP JUMPDEST SWAP4 PUSH2 0x10FE DUP3 DUP3 PUSH2 0x256E JUMP JUMPDEST SWAP4 PUSH2 0x1107 PUSH2 0x890 JUMP JUMPDEST SWAP9 PUSH1 0x0 SWAP10 PUSH2 0x1114 DUP12 PUSH2 0x644 JUMP JUMPDEST DUP2 SUB PUSH2 0x11F7 JUMPI POP PUSH2 0x1125 DUP8 DUP10 PUSH2 0xF4C JUMP JUMPDEST PUSH2 0x112E SWAP1 PUSH2 0x26E5 JUMP JUMPDEST SWAP10 PUSH2 0x1137 PUSH2 0x651 JUMP JUMPDEST SWAP11 DUP12 PUSH2 0x1142 SWAP2 PUSH2 0xF3F JUMP JUMPDEST DUP1 SWAP12 PUSH2 0xDEAD PUSH2 0x1150 SWAP1 PUSH2 0x954 JUMP JUMPDEST SWAP1 PUSH2 0x115A SWAP2 PUSH2 0x12B5 JUMP JUMPDEST PUSH2 0x117E SWAP7 PUSH2 0x1174 PUSH2 0x116D PUSH2 0x1179 SWAP5 PUSH2 0x644 JUMP JUMPDEST DUP4 GT PUSH2 0xF8F JUMP JUMPDEST PUSH2 0x12B5 JUMP JUMPDEST PUSH2 0x14D3 JUMP JUMPDEST PUSH2 0x11C0 JUMPI JUMPDEST PUSH32 0x4C209B5FC8AD50758F13E2E1088BA56A560DFF690A1C6FEF26394F4C03821C4F SWAP1 PUSH2 0x11AE CALLER PUSH2 0x8B9 JUMP JUMPDEST SWAP3 PUSH2 0x11BB PUSH2 0x604 PUSH1 0x40 MLOAD SWAP1 JUMP JUMPDEST SUB SWAP1 LOG2 JUMP JUMPDEST PUSH2 0x11F2 PUSH2 0x11EB PUSH2 0x11D8 PUSH2 0x11D3 PUSH1 0x9 PUSH2 0xE86 JUMP JUMPDEST PUSH2 0xF29 JUMP JUMPDEST PUSH2 0x11E5 PUSH2 0x11D3 PUSH1 0x9 PUSH2 0xE9C JUMP JUMPDEST SWAP1 PUSH2 0xF4C JUMP JUMPDEST PUSH1 0xC PUSH2 0xA77 JUMP JUMPDEST PUSH2 0x1183 JUMP JUMPDEST PUSH2 0x116D SWAP11 PUSH2 0x117E SWAP7 PUSH2 0x1174 PUSH2 0x1243 DUP12 PUSH2 0x123D PUSH2 0x1234 DUP16 SWAP8 PUSH2 0x122E DUP13 PUSH2 0x1228 PUSH2 0x1222 DUP5 PUSH2 0x1179 SWAP14 PUSH2 0xF4C JUMP JUMPDEST SWAP2 PUSH2 0xF29 JUMP JUMPDEST SWAP1 PUSH2 0xF75 JUMP JUMPDEST SWAP4 PUSH2 0xF4C JUMP JUMPDEST PUSH2 0x1228 DUP13 PUSH2 0xF29 JUMP JUMPDEST SWAP1 PUSH2 0x26D3 JUMP JUMPDEST SWAP14 DUP15 SWAP4 PUSH2 0x644 JUMP JUMPDEST PUSH2 0x126D SWAP2 SWAP3 POP PUSH1 0x20 RETURNDATASIZE DUP2 GT PUSH2 0x1274 JUMPI JUMPDEST PUSH2 0x1265 DUP2 DUP4 PUSH2 0x7FD JUMP JUMPDEST DUP2 ADD SWAP1 PUSH2 0xF09 JUMP JUMPDEST SWAP1 CODESIZE PUSH2 0x10CD JUMP JUMPDEST POP RETURNDATASIZE PUSH2 0x125B JUMP JUMPDEST PUSH2 0xF1D JUMP JUMPDEST PUSH1 0x20 SWAP2 SWAP8 POP SWAP2 PUSH2 0x12A0 PUSH2 0x10BA SWAP5 SWAP4 DUP4 RETURNDATASIZE DUP2 GT PUSH2 0x1274 JUMPI PUSH2 0x1265 DUP2 DUP4 PUSH2 0x7FD JUMP JUMPDEST SWAP8 SWAP2 POP SWAP2 SWAP3 PUSH2 0x1070 JUMP JUMPDEST PUSH2 0x1B0 SWAP1 PUSH1 0x0 PUSH2 0xEE1 JUMP JUMPDEST SWAP2 SWAP1 PUSH2 0x12C1 PUSH1 0x0 PUSH2 0x954 JUMP JUMPDEST SWAP3 PUSH1 0x1 PUSH1 0x1 PUSH1 0xA0 SHL SUB DUP5 AND PUSH1 0x1 PUSH1 0x1 PUSH1 0xA0 SHL SUB DUP3 AND EQ PUSH2 0x12E5 JUMPI PUSH2 0x1A2 SWAP3 SWAP4 PUSH2 0xABA JUMP JUMPDEST PUSH2 0x9F2 DUP5 PUSH2 0x9B5 PUSH1 0x40 MLOAD SWAP1 JUMP JUMPDEST PUSH2 0x1B0 PUSH1 0x2 PUSH2 0x644 JUMP JUMPDEST PUSH2 0x1306 PUSH1 0x5 PUSH2 0x886 JUMP JUMPDEST PUSH2 0x130E PUSH2 0x12F2 JUMP JUMPDEST SWAP1 DUP2 EQ PUSH2 0x1320 JUMPI PUSH2 0x1A2 SWAP1 PUSH1 0x5 PUSH2 0xA77 JUMP JUMPDEST PUSH1 0x40 MLOAD PUSH32 0x3EE5AEB500000000000000000000000000000000000000000000000000000000 DUP2 MSTORE PUSH1 0x4 SWAP1 REVERT JUMPDEST PUSH2 0x1B0 PUSH1 0x1 PUSH2 0x644 JUMP JUMPDEST PUSH2 0x1A2 PUSH2 0x1360 PUSH2 0x134B JUMP JUMPDEST PUSH1 0x5 PUSH2 0xA77 JUMP JUMPDEST ISZERO PUSH2 0x136E JUMPI JUMP JUMPDEST PUSH1 0x40 MLOAD PUSH3 0x461BCD PUSH1 0xE5 SHL DUP2 MSTORE PUSH1 0x20 PUSH1 0x4 DUP3 ADD MSTORE PUSH1 0x14 PUSH1 0x24 DUP3 ADD MSTORE PUSH32 0x4879706572496E6465783A204F564552464C4F57000000000000000000000000 PUSH1 0x44 DUP3 ADD MSTORE PUSH1 0x64 SWAP1 REVERT JUMPDEST DUP2 ISZERO PUSH2 0xF8A JUMPI MOD SWAP1 JUMP JUMPDEST PUSH2 0xEAE PUSH2 0x1B0 PUSH2 0x1B0 SWAP3 SWAP1 JUMP JUMPDEST PUSH4 0xFFFFFFFF SWAP1 DUP2 AND SWAP2 AND SWAP1 SUB SWAP1 PUSH4 0xFFFFFFFF DUP3 GT PUSH2 0xAB5 JUMPI JUMP JUMPDEST PUSH2 0xE7A PUSH2 0x1B0 PUSH2 0x1B0 SWAP3 SWAP1 JUMP JUMPDEST PUSH2 0x1B0 PUSH2 0x1B0 PUSH2 0x1B0 SWAP3 PUSH4 0xFFFFFFFF AND SWAP1 JUMP JUMPDEST SWAP1 PUSH1 0x1 PUSH1 0x1 PUSH1 0x70 SHL SUB SWAP1 PUSH2 0xA6D JUMP JUMPDEST PUSH2 0xE7A PUSH2 0x1B0 PUSH2 0x1B0 SWAP3 PUSH1 0x1 PUSH1 0x1 PUSH1 0x70 SHL SUB AND SWAP1 JUMP JUMPDEST SWAP1 PUSH2 0x1439 PUSH2 0x1B0 PUSH2 0xA8E SWAP3 PUSH2 0x1413 JUMP JUMPDEST DUP3 SLOAD PUSH2 0x1404 JUMP JUMPDEST SWAP1 PUSH28 0xFFFFFFFFFFFFFFFFFFFFFFFFFFFF0000000000000000000000000000 SWAP1 PUSH1 0x70 SHL PUSH2 0xA6D JUMP JUMPDEST SWAP1 PUSH2 0x1477 PUSH2 0x1B0 PUSH2 0xA8E SWAP3 PUSH2 0x1413 JUMP JUMPDEST DUP3 SLOAD PUSH2 0x1440 JUMP JUMPDEST SWAP1 PUSH32 0xFFFFFFFF00000000000000000000000000000000000000000000000000000000 SWAP1 PUSH1 0xE0 SHL PUSH2 0xA6D JUMP JUMPDEST PUSH2 0xEAE PUSH2 0x1B0 PUSH2 0x1B0 SWAP3 PUSH4 0xFFFFFFFF AND SWAP1 JUMP JUMPDEST SWAP1 PUSH2 0x14CC PUSH2 0x1B0 PUSH2 0xA8E SWAP3 PUSH2 0x14A9 JUMP JUMPDEST DUP3 SLOAD PUSH2 0x147E JUMP JUMPDEST PUSH2 0x157F SWAP2 PUSH2 0x1573 PUSH2 0x156C PUSH2 0x1578 SWAP4 PUSH2 0x1586 SWAP8 PUSH2 0x1509 PUSH1 0x1 PUSH1 0x1 PUSH1 0x70 SHL SUB PUSH2 0x14F9 DUP2 PUSH2 0xF29 JUMP JUMPDEST DUP5 GT ISZERO SWAP1 DUP2 PUSH2 0x16C2 JUMPI JUMPDEST POP PUSH2 0x1367 JUMP JUMPDEST PUSH2 0x1529 PUSH2 0x1524 TIMESTAMP PUSH2 0x151E PUSH5 0x100000000 PUSH2 0x644 JUMP JUMPDEST SWAP1 PUSH2 0x13B3 JUMP JUMPDEST PUSH2 0x13BD JUMP JUMPDEST SWAP8 PUSH2 0x153D PUSH2 0x1537 PUSH1 0x9 PUSH2 0xEB7 JUMP JUMPDEST DUP11 PUSH2 0x13CA JUMP JUMPDEST SWAP2 PUSH1 0x0 PUSH2 0x1549 DUP2 PUSH2 0x13BD JUMP JUMPDEST PUSH4 0xFFFFFFFF DUP6 AND GT SWAP1 DUP2 PUSH2 0x16A5 JUMPI JUMPDEST DUP2 PUSH2 0x1689 JUMPI JUMPDEST POP PUSH2 0x15EB JUMPI JUMPDEST POP POP POP PUSH2 0x13E4 JUMP JUMPDEST PUSH1 0x9 PUSH2 0x1429 JUMP JUMPDEST PUSH2 0x13E4 JUMP JUMPDEST PUSH1 0x9 PUSH2 0x1467 JUMP JUMPDEST PUSH1 0x9 PUSH2 0x14BC JUMP JUMPDEST PUSH2 0x1590 PUSH1 0x9 PUSH2 0xE86 JUMP JUMPDEST PUSH2 0x159A PUSH1 0x9 PUSH2 0xE9C JUMP JUMPDEST PUSH32 0x1C411E9A96E071241C2F21F7726B17AE89E3CAB4C78BE50E062B03A9FFFBBAD1 SWAP2 PUSH2 0x15E6 PUSH2 0x15C8 PUSH1 0x40 MLOAD SWAP1 JUMP JUMPDEST SWAP3 DUP4 SWAP3 DUP4 PUSH1 0x1 PUSH1 0x1 PUSH1 0x70 SHL SUB SWAP2 DUP3 AND DUP2 MSTORE SWAP2 AND PUSH1 0x20 DUP3 ADD MSTORE PUSH1 0x40 ADD SWAP1 JUMP JUMPDEST SUB SWAP1 LOG1 JUMP JUMPDEST PUSH2 0x1681 SWAP3 PUSH2 0x164B PUSH2 0x166A PUSH2 0x167A SWAP5 PUSH2 0x1665 PUSH2 0x1608 PUSH2 0x1670 SWAP7 PUSH2 0xF29 JUMP JUMPDEST SWAP2 PUSH2 0x164B PUSH8 0xDE0B6B3A7640000 PUSH2 0x1660 PUSH2 0x1659 PUSH2 0x164F PUSH2 0x1642 PUSH2 0x163B PUSH2 0x1635 PUSH2 0x1630 DUP8 PUSH2 0x644 JUMP JUMPDEST DUP12 MUL SWAP1 JUMP JUMPDEST SWAP8 PUSH2 0xF29 JUMP JUMPDEST DUP1 SWAP8 PUSH2 0xF75 JUMP JUMPDEST PUSH2 0x164B DUP13 PUSH2 0x13F1 JUMP JUMPDEST MUL SWAP1 JUMP JUMPDEST PUSH2 0x2DA PUSH1 0xA PUSH2 0x886 JUMP JUMPDEST PUSH1 0xA PUSH2 0xA77 JUMP JUMPDEST PUSH2 0x644 JUMP JUMPDEST PUSH2 0xF75 JUMP JUMPDEST SWAP2 PUSH2 0x13F1 JUMP JUMPDEST PUSH2 0x2DA PUSH1 0xB PUSH2 0x886 JUMP JUMPDEST PUSH1 0xB PUSH2 0xA77 JUMP JUMPDEST CODESIZE DUP1 DUP1 PUSH2 0x1564 JUMP JUMPDEST PUSH2 0x1693 SWAP2 POP PUSH2 0x13E4 JUMP JUMPDEST PUSH1 0x1 PUSH1 0x1 PUSH1 0x70 SHL SUB DUP3 AND EQ ISZERO CODESIZE PUSH2 0x155E JUMP JUMPDEST SWAP1 POP PUSH2 0x16B0 DUP2 PUSH2 0x13E4 JUMP JUMPDEST PUSH1 0x1 PUSH1 0x1 PUSH1 0x70 SHL SUB DUP5 AND EQ ISZERO SWAP1 PUSH2 0x1558 JUMP JUMPDEST PUSH2 0x16CC SWAP2 POP PUSH2 0xF29 JUMP JUMPDEST DUP7 GT ISZERO CODESIZE PUSH2 0x1503 JUMP JUMPDEST SWAP1 PUSH2 0x16E8 SWAP3 SWAP2 PUSH2 0x16E3 PUSH2 0x12FC JUMP JUMPDEST PUSH2 0x17AA JUMP JUMPDEST SWAP1 SWAP2 PUSH2 0x1A2 PUSH2 0x1355 JUMP JUMPDEST ISZERO PUSH2 0x16F9 JUMPI JUMP JUMPDEST PUSH1 0x40 MLOAD PUSH3 0x461BCD PUSH1 0xE5 SHL DUP2 MSTORE PUSH1 0x20 PUSH1 0x4 DUP3 ADD MSTORE PUSH1 0x29 PUSH1 0x24 DUP3 ADD MSTORE PUSH32 0x4879706572496E6465783A20494E53554646494349454E545F4C495155494449 PUSH1 0x44 DUP3 ADD MSTORE PUSH32 0x54595F4255524E45440000000000000000000000000000000000000000000000 PUSH1 0x64 DUP3 ADD MSTORE PUSH1 0x84 SWAP1 REVERT JUMPDEST DUP1 ISZERO ISZERO PUSH2 0x18E JUMP JUMPDEST SWAP1 POP MLOAD SWAP1 PUSH2 0x1A2 DUP3 PUSH2 0x1764 JUMP JUMPDEST SWAP1 PUSH1 0x20 DUP3 DUP3 SUB SLT PUSH2 0x187 JUMPI PUSH2 0x1B0 SWAP2 PUSH2 0x176C JUMP JUMPDEST PUSH1 0x1 PUSH1 0x1 PUSH1 0xA0 SHL SUB SWAP1 SWAP2 AND DUP2 MSTORE PUSH1 0x40 DUP2 ADD SWAP3 SWAP2 PUSH2 0x1A2 SWAP2 PUSH1 0x20 ADD MSTORE JUMP JUMPDEST POP POP PUSH2 0x17B4 PUSH2 0xEC1 JUMP JUMPDEST POP SWAP3 SWAP1 SWAP2 PUSH2 0x17C2 PUSH1 0x7 PUSH2 0xDBC JUMP JUMPDEST SWAP1 PUSH2 0x17D3 PUSH2 0x101D PUSH2 0xB56 PUSH1 0x8 PUSH2 0xDBC JUMP JUMPDEST PUSH2 0x17DC ADDRESS PUSH2 0x8B9 JUMP JUMPDEST SWAP1 PUSH2 0x17E6 PUSH1 0x40 MLOAD SWAP1 JUMP JUMPDEST PUSH4 0x70A08231 PUSH1 0xE0 SHL DUP2 MSTORE PUSH1 0x1 PUSH1 0x1 PUSH1 0xA0 SHL SUB DUP4 AND PUSH1 0x4 DUP3 ADD MSTORE SWAP4 PUSH1 0x20 DUP6 PUSH1 0x24 DUP2 DUP6 GAS STATICCALL SWAP5 DUP6 ISZERO PUSH2 0x127B JUMPI PUSH1 0x0 SWAP6 PUSH2 0x1ABA JUMPI JUMPDEST POP PUSH2 0x101D PUSH2 0x1825 SWAP2 PUSH2 0x8B9 JUMP JUMPDEST SWAP1 PUSH2 0x182F PUSH1 0x40 MLOAD SWAP1 JUMP JUMPDEST PUSH4 0x70A08231 PUSH1 0xE0 SHL DUP2 MSTORE PUSH1 0x1 PUSH1 0x1 PUSH1 0xA0 SHL SUB DUP5 AND PUSH1 0x4 DUP3 ADD MSTORE SWAP8 PUSH1 0x20 DUP10 PUSH1 0x24 DUP2 DUP7 GAS STATICCALL SWAP9 DUP10 ISZERO PUSH2 0x127B JUMPI PUSH1 0x0 SWAP10 PUSH2 0x1A9A JUMPI JUMPDEST POP PUSH2 0x186B DUP5 PUSH2 0x8DA JUMP JUMPDEST SWAP8 PUSH2 0x1876 DUP3 DUP3 PUSH2 0x256E JUMP JUMPDEST SWAP4 PUSH2 0x189D PUSH2 0x1891 DUP12 PUSH2 0x1665 PUSH2 0x1889 PUSH2 0x890 JUMP JUMPDEST SWAP12 DUP13 SWAP3 PUSH2 0xF4C JUMP JUMPDEST SWAP9 PUSH2 0x1665 DUP11 SWAP14 DUP14 PUSH2 0xF4C JUMP JUMPDEST SWAP6 PUSH2 0x18C4 DUP8 SWAP12 PUSH2 0x18AD PUSH1 0x0 PUSH2 0x644 JUMP JUMPDEST DUP12 GT DUP1 PUSH2 0x1A83 JUMPI JUMPDEST PUSH2 0x18BE SWAP1 PUSH2 0x16F2 JUMP JUMPDEST DUP3 PUSH2 0x1AEE JUMP JUMPDEST PUSH1 0x40 MLOAD PUSH4 0xA9059CBB PUSH1 0xE0 SHL DUP2 MSTORE PUSH1 0x20 DUP2 DUP1 PUSH2 0x18E3 DUP14 DUP14 PUSH1 0x4 DUP5 ADD PUSH2 0x178D JUMP JUMPDEST SUB DUP2 PUSH1 0x0 DUP11 GAS CALL DUP1 ISZERO PUSH2 0x127B JUMPI PUSH2 0x1A67 JUMPI JUMPDEST POP PUSH1 0x40 MLOAD PUSH4 0xA9059CBB PUSH1 0xE0 SHL DUP2 MSTORE PUSH1 0x20 DUP2 DUP1 PUSH2 0x1915 DUP12 DUP14 PUSH1 0x4 DUP5 ADD PUSH2 0x178D JUMP JUMPDEST SUB DUP2 PUSH1 0x0 DUP8 GAS CALL DUP1 ISZERO PUSH2 0x127B JUMPI PUSH2 0x1A3B JUMPI JUMPDEST POP PUSH1 0x20 PUSH2 0x1933 PUSH1 0x40 MLOAD SWAP1 JUMP JUMPDEST PUSH4 0x70A08231 PUSH1 0xE0 SHL DUP2 MSTORE PUSH1 0x1 PUSH1 0x1 PUSH1 0xA0 SHL SUB DUP4 AND PUSH1 0x4 DUP3 ADD MSTORE SWAP6 DUP7 SWAP1 PUSH1 0x24 SWAP1 DUP3 SWAP1 GAS STATICCALL SWAP1 DUP2 ISZERO PUSH2 0x127B JUMPI PUSH2 0x1986 SWAP6 PUSH1 0x0 SWAP3 PUSH2 0x1A1B JUMPI JUMPDEST POP PUSH1 0x40 MLOAD SWAP2 SWAP3 PUSH1 0x20 SWAP3 SWAP7 DUP8 SWAP3 DUP4 SWAP2 DUP3 SWAP2 PUSH4 0x70A08231 PUSH1 0xE0 SHL PUSH2 0x10A3 JUMP JUMPDEST SUB SWAP2 GAS STATICCALL SWAP1 DUP2 ISZERO PUSH2 0x127B JUMPI PUSH2 0x19A3 SWAP5 PUSH1 0x0 SWAP3 PUSH2 0x19FB JUMPI JUMPDEST POP PUSH2 0x14D3 JUMP JUMPDEST PUSH2 0x19E3 JUMPI JUMPDEST PUSH32 0xDCCD412F0B1252819CB1FD330B93224CA42612892BB3F4F789976E6D81936496 SWAP1 PUSH2 0x19D6 PUSH2 0xB56 CALLER PUSH2 0x8B9 JUMP JUMPDEST SWAP4 PUSH2 0xB66 PUSH2 0x604 PUSH1 0x40 MLOAD SWAP1 JUMP JUMPDEST PUSH2 0x19F6 PUSH2 0x11EB PUSH2 0x11D8 PUSH2 0x11D3 PUSH1 0x9 PUSH2 0xE86 JUMP JUMPDEST PUSH2 0x19A8 JUMP JUMPDEST PUSH2 0x1A14 SWAP2 SWAP3 POP PUSH1 0x20 RETURNDATASIZE DUP2 GT PUSH2 0x1274 JUMPI PUSH2 0x1265 DUP2 DUP4 PUSH2 0x7FD JUMP JUMPDEST SWAP1 CODESIZE PUSH2 0x199D JUMP JUMPDEST PUSH1 0x20 SWAP3 POP PUSH2 0x1A35 SWAP1 DUP4 RETURNDATASIZE DUP2 GT PUSH2 0x1274 JUMPI PUSH2 0x1265 DUP2 DUP4 PUSH2 0x7FD JUMP JUMPDEST SWAP2 PUSH2 0x1969 JUMP JUMPDEST PUSH2 0x1A5B SWAP1 PUSH1 0x20 RETURNDATASIZE DUP2 GT PUSH2 0x1A60 JUMPI JUMPDEST PUSH2 0x1A53 DUP2 DUP4 PUSH2 0x7FD JUMP JUMPDEST DUP2 ADD SWAP1 PUSH2 0x1779 JUMP JUMPDEST PUSH2 0x1927 JUMP JUMPDEST POP RETURNDATASIZE PUSH2 0x1A49 JUMP JUMPDEST PUSH2 0x1A7E SWAP1 PUSH1 0x20 RETURNDATASIZE DUP2 GT PUSH2 0x1A60 JUMPI PUSH2 0x1A53 DUP2 DUP4 PUSH2 0x7FD JUMP JUMPDEST PUSH2 0x18F5 JUMP JUMPDEST POP PUSH2 0x18BE PUSH2 0x1A91 PUSH1 0x0 PUSH2 0x644 JUMP JUMPDEST DUP11 GT SWAP1 POP PUSH2 0x18B5 JUMP JUMPDEST PUSH2 0x1AB3 SWAP2 SWAP10 POP PUSH1 0x20 RETURNDATASIZE DUP2 GT PUSH2 0x1274 JUMPI PUSH2 0x1265 DUP2 DUP4 PUSH2 0x7FD JUMP JUMPDEST SWAP8 CODESIZE PUSH2 0x1861 JUMP JUMPDEST PUSH2 0x1825 SWAP2 SWAP6 POP PUSH2 0x1ADA PUSH2 0x101D SWAP2 PUSH1 0x20 RETURNDATASIZE DUP2 GT PUSH2 0x1274 JUMPI PUSH2 0x1265 DUP2 DUP4 PUSH2 0x7FD JUMP JUMPDEST SWAP6 SWAP2 POP PUSH2 0x1818 JUMP JUMPDEST PUSH2 0x24F SWAP1 PUSH1 0x0 DUP1 PUSH2 0x16D5 JUMP JUMPDEST SWAP2 SWAP1 PUSH2 0x1AFA PUSH1 0x0 PUSH2 0x954 JUMP JUMPDEST SWAP3 PUSH1 0x1 PUSH1 0x1 PUSH1 0xA0 SHL SUB DUP5 AND PUSH1 0x1 PUSH1 0x1 PUSH1 0xA0 SHL SUB DUP3 AND EQ PUSH2 0x1B1F JUMPI SWAP3 PUSH2 0x1A2 SWAP3 SWAP4 PUSH2 0xABA JUMP JUMPDEST PUSH2 0x9F2 DUP5 PUSH2 0xA03 PUSH1 0x40 MLOAD SWAP1 JUMP JUMPDEST SWAP1 PUSH2 0x1B41 SWAP5 SWAP4 SWAP3 SWAP2 PUSH2 0x1B3C PUSH2 0x12FC JUMP JUMPDEST PUSH2 0x1DC4 JUMP JUMPDEST PUSH2 0x1A2 PUSH2 0x1355 JUMP JUMPDEST ISZERO PUSH2 0x1B50 JUMPI JUMP JUMPDEST PUSH1 0x40 MLOAD PUSH3 0x461BCD PUSH1 0xE5 SHL DUP2 MSTORE PUSH1 0x20 PUSH1 0x4 DUP3 ADD MSTORE PUSH1 0x26 PUSH1 0x24 DUP3 ADD MSTORE PUSH32 0x4879706572496E6465783A20494E53554646494349454E545F4F55545055545F PUSH1 0x44 DUP3 ADD MSTORE PUSH32 0x414D4F554E540000000000000000000000000000000000000000000000000000 PUSH1 0x64 DUP3 ADD MSTORE PUSH1 0x84 SWAP1 REVERT JUMPDEST ISZERO PUSH2 0x1BC2 JUMPI JUMP JUMPDEST PUSH1 0x40 MLOAD PUSH3 0x461BCD PUSH1 0xE5 SHL DUP2 MSTORE PUSH1 0x20 PUSH1 0x4 DUP3 ADD MSTORE PUSH1 0x22 PUSH1 0x24 DUP3 ADD MSTORE PUSH32 0x4879706572496E6465783A20494E53554646494349454E545F4C495155494449 PUSH1 0x44 DUP3 ADD MSTORE PUSH32 0x5459000000000000000000000000000000000000000000000000000000000000 PUSH1 0x64 DUP3 ADD MSTORE PUSH1 0x84 SWAP1 REVERT JUMPDEST ISZERO PUSH2 0x1C34 JUMPI JUMP JUMPDEST PUSH1 0x40 MLOAD PUSH3 0x461BCD PUSH1 0xE5 SHL DUP2 MSTORE PUSH1 0x20 PUSH1 0x4 DUP3 ADD MSTORE PUSH1 0x16 PUSH1 0x24 DUP3 ADD MSTORE PUSH32 0x4879706572496E6465783A20494E56414C49445F544F00000000000000000000 PUSH1 0x44 DUP3 ADD MSTORE PUSH1 0x64 SWAP1 REVERT JUMPDEST SWAP1 DUP3 PUSH1 0x0 SWAP4 SWAP3 DUP3 CALLDATACOPY ADD MSTORE JUMP JUMPDEST SWAP2 SWAP1 PUSH2 0x2D0 DUP2 PUSH2 0x1C9C DUP2 PUSH2 0x2DA SWAP6 PUSH1 0x20 SWAP2 DUP2 MSTORE ADD SWAP1 JUMP JUMPDEST DUP1 SWAP6 PUSH2 0x1C79 JUMP JUMPDEST SWAP1 SWAP4 SWAP2 PUSH2 0x1B0 SWAP6 SWAP4 PUSH2 0x1CD3 PUSH2 0x1CDA SWAP3 PUSH2 0x1CCC PUSH1 0x80 DUP7 ADD SWAP9 PUSH1 0x0 DUP8 ADD SWAP1 PUSH1 0x1 PUSH1 0x1 PUSH1 0xA0 SHL SUB AND SWAP1 MSTORE JUMP JUMPDEST PUSH1 0x20 DUP6 ADD MSTORE JUMP JUMPDEST PUSH1 0x40 DUP4 ADD MSTORE JUMP JUMPDEST PUSH1 0x60 DUP2 DUP6 SUB SWAP2 ADD MSTORE PUSH2 0x1C85 JUMP JUMPDEST ISZERO PUSH2 0x1CEE JUMPI JUMP JUMPDEST PUSH1 0x40 MLOAD PUSH3 0x461BCD PUSH1 0xE5 SHL DUP2 MSTORE PUSH1 0x20 PUSH1 0x4 DUP3 ADD MSTORE PUSH1 0x25 PUSH1 0x24 DUP3 ADD MSTORE PUSH32 0x4879706572496E6465783A20494E53554646494349454E545F494E5055545F41 PUSH1 0x44 DUP3 ADD MSTORE PUSH32 0x4D4F554E54000000000000000000000000000000000000000000000000000000 PUSH1 0x64 DUP3 ADD MSTORE PUSH1 0x84 SWAP1 REVERT JUMPDEST ISZERO PUSH2 0x1D60 JUMPI JUMP JUMPDEST PUSH1 0x40 MLOAD PUSH3 0x461BCD PUSH1 0xE5 SHL DUP2 MSTORE PUSH1 0x20 PUSH1 0x4 DUP3 ADD MSTORE PUSH1 0xD PUSH1 0x24 DUP3 ADD MSTORE PUSH32 0x4879706572496E6465783A204B00000000000000000000000000000000000000 PUSH1 0x44 DUP3 ADD MSTORE PUSH1 0x64 SWAP1 REVERT JUMPDEST PUSH2 0x5DB PUSH2 0x1A2 SWAP5 PUSH2 0x1CD3 PUSH1 0x60 SWAP5 SWAP9 SWAP8 SWAP6 PUSH2 0x1CCC PUSH1 0x80 DUP7 ADD SWAP11 PUSH1 0x0 DUP8 ADD MSTORE JUMP JUMPDEST SWAP4 SWAP3 SWAP1 SWAP2 SWAP3 PUSH1 0x0 SWAP2 PUSH2 0x1DD5 DUP4 PUSH2 0x644 JUMP JUMPDEST DUP7 GT SWAP2 DUP3 DUP4 ISZERO PUSH2 0x226F JUMPI JUMPDEST PUSH2 0x1DE9 SWAP1 PUSH2 0x1B49 JUMP JUMPDEST PUSH2 0x1DF1 PUSH2 0xEC1 JUMP JUMPDEST POP SWAP2 SWAP1 SWAP3 PUSH2 0x1DFE DUP5 PUSH2 0xF29 JUMP JUMPDEST DUP10 LT DUP1 PUSH2 0x2259 JUMPI JUMPDEST PUSH2 0x1E0F SWAP1 PUSH2 0x1BBB JUMP JUMPDEST PUSH2 0x1E19 PUSH1 0x7 PUSH2 0xDBC JUMP JUMPDEST SWAP1 PUSH2 0x1E24 PUSH1 0x8 PUSH2 0xDBC JUMP JUMPDEST SWAP6 PUSH1 0x1 PUSH1 0x1 PUSH1 0xA0 SHL SUB DUP4 AND PUSH1 0x1 PUSH1 0x1 PUSH1 0xA0 SHL SUB DUP12 AND EQ ISZERO DUP1 PUSH2 0x2243 JUMPI JUMPDEST PUSH2 0x1E4A SWAP1 PUSH2 0x1C2D JUMP JUMPDEST PUSH2 0x21ED JUMPI JUMPDEST PUSH2 0x1E58 DUP8 PUSH2 0x644 JUMP JUMPDEST DUP9 GT PUSH2 0x217F JUMPI JUMPDEST DUP3 PUSH2 0x1E6C PUSH2 0xF7B DUP10 PUSH2 0x644 JUMP JUMPDEST GT PUSH2 0x20EA JUMPI JUMPDEST POP PUSH2 0x1E81 SWAP2 POP PUSH2 0x101D SWAP1 PUSH2 0x8B9 JUMP JUMPDEST SWAP2 PUSH4 0x70A08231 PUSH2 0x1E90 ADDRESS PUSH2 0x8B9 JUMP JUMPDEST SWAP1 PUSH1 0x20 PUSH2 0x1E9C PUSH1 0x40 MLOAD SWAP1 JUMP JUMPDEST DUP1 SWAP7 PUSH2 0x1EA8 DUP5 PUSH1 0xE0 SHL SWAP1 JUMP JUMPDEST DUP3 MSTORE PUSH1 0x1 PUSH1 0x1 PUSH1 0xA0 SHL SUB DUP6 AND PUSH1 0x4 DUP4 ADD MSTORE PUSH1 0x24 SWAP1 DUP3 SWAP1 GAS STATICCALL SWAP5 DUP6 ISZERO PUSH2 0x127B JUMPI DUP8 SWAP6 PUSH2 0x20B6 JUMPI JUMPDEST POP SWAP1 PUSH1 0x20 SWAP2 PUSH2 0x10A3 PUSH2 0x1EE8 PUSH2 0x101D DUP9 SWAP10 PUSH2 0x1EFF SWAP10 POP PUSH2 0x8B9 JUMP JUMPDEST SWAP2 PUSH2 0x1EF2 PUSH1 0x40 MLOAD SWAP1 JUMP JUMPDEST SWAP8 DUP9 SWAP5 DUP6 SWAP4 DUP5 SWAP4 PUSH1 0xE0 SHL SWAP1 JUMP JUMPDEST SUB SWAP2 GAS STATICCALL DUP1 ISZERO PUSH2 0x127B JUMPI PUSH2 0x201A SWAP4 DUP7 SWAP2 PUSH2 0x2098 JUMPI JUMPDEST POP PUSH2 0x1F2A PUSH2 0x1B0 DUP11 PUSH2 0x1F25 DUP6 PUSH2 0xF29 JUMP JUMPDEST PUSH2 0xF3F JUMP JUMPDEST DUP6 GT ISZERO PUSH2 0x2089 JUMPI PUSH2 0x1F47 PUSH2 0x1F41 DUP11 PUSH2 0x1F25 DUP6 PUSH2 0xF29 JUMP JUMPDEST DUP7 PUSH2 0xF3F JUMP JUMPDEST SWAP5 JUMPDEST PUSH2 0x1F59 PUSH2 0x1B0 DUP10 PUSH2 0x1F25 DUP8 PUSH2 0xF29 JUMP JUMPDEST DUP3 GT ISZERO PUSH2 0x2077 JUMPI PUSH2 0x1F8E PUSH2 0x1F73 PUSH2 0x10ED DUP11 PUSH2 0x1F25 DUP9 PUSH2 0xF29 JUMP JUMPDEST SWAP8 JUMPDEST PUSH2 0x1F7E DUP2 PUSH2 0x644 JUMP JUMPDEST DUP9 GT SWAP1 DUP2 ISZERO PUSH2 0x2065 JUMPI JUMPDEST POP PUSH2 0x1CE7 JUMP JUMPDEST PUSH2 0x1179 PUSH2 0x1FE9 PUSH2 0x3E8 PUSH2 0x11E5 DUP10 PUSH2 0x1FCB PUSH2 0x1FE3 PUSH2 0x1FDD PUSH2 0x1FD7 PUSH2 0x1FD1 PUSH2 0x1FBC PUSH2 0x1FB6 DUP10 PUSH2 0x644 JUMP JUMPDEST DUP13 PUSH2 0xF4C JUMP JUMPDEST PUSH2 0x1FCB PUSH1 0x3 SWAP8 PUSH2 0x11E5 DUP10 PUSH2 0x644 JUMP JUMPDEST SWAP1 PUSH2 0xF3F JUMP JUMPDEST SWAP7 PUSH2 0x644 JUMP JUMPDEST DUP11 PUSH2 0xF4C JUMP JUMPDEST SWAP3 PUSH2 0x644 JUMP JUMPDEST DUP14 PUSH2 0xF4C JUMP JUMPDEST PUSH2 0x2013 PUSH2 0xF7B PUSH2 0x1B0 PUSH2 0x2007 PUSH2 0x1FFE DUP10 PUSH2 0xF29 JUMP JUMPDEST PUSH2 0x11E5 DUP12 PUSH2 0xF29 JUMP JUMPDEST PUSH2 0x11E5 PUSH3 0xF4240 PUSH2 0x644 JUMP JUMPDEST LT ISZERO PUSH2 0x1D59 JUMP JUMPDEST PUSH2 0xB66 CALLER SWAP4 PUSH2 0x2052 PUSH2 0x204C PUSH32 0xD78AD95FA46C994B6551D0DA85FC275FE613CE37657FB8D5E3D130840159D822 SWAP7 PUSH2 0x8B9 JUMP JUMPDEST SWAP7 PUSH2 0x8B9 JUMP JUMPDEST SWAP7 PUSH2 0x205C PUSH1 0x40 MLOAD SWAP1 JUMP JUMPDEST SWAP5 DUP6 SWAP5 DUP6 PUSH2 0x1DA5 JUMP JUMPDEST PUSH2 0x206F SWAP2 POP PUSH2 0x644 JUMP JUMPDEST DUP9 GT CODESIZE PUSH2 0x1F88 JUMP JUMPDEST PUSH2 0x1F8E PUSH2 0x2083 DUP9 PUSH2 0x644 JUMP JUMPDEST SWAP8 PUSH2 0x1F75 JUMP JUMPDEST PUSH2 0x2092 DUP7 PUSH2 0x644 JUMP JUMPDEST SWAP5 PUSH2 0x1F49 JUMP JUMPDEST PUSH2 0x20B0 SWAP2 POP PUSH1 0x20 RETURNDATASIZE DUP2 GT PUSH2 0x1274 JUMPI PUSH2 0x1265 DUP2 DUP4 PUSH2 0x7FD JUMP JUMPDEST CODESIZE PUSH2 0x1F14 JUMP JUMPDEST PUSH2 0x1EFF SWAP6 POP SWAP1 PUSH2 0x10A3 PUSH2 0x1EE8 PUSH2 0x101D PUSH2 0x20DE PUSH1 0x20 SWAP7 SWAP6 DUP8 RETURNDATASIZE DUP2 GT PUSH2 0x1274 JUMPI PUSH2 0x1265 DUP2 DUP4 PUSH2 0x7FD JUMP JUMPDEST SWAP9 POP POP POP POP SWAP1 SWAP2 PUSH2 0x1ECE JUMP JUMPDEST PUSH2 0x20F6 PUSH2 0x101D DUP11 PUSH2 0x8B9 JUMP JUMPDEST SWAP1 PUSH4 0x859D1746 SWAP2 CALLER SWAP2 DUP2 EXTCODESIZE ISZERO PUSH2 0x187 JUMPI DUP10 DUP1 SWAP5 PUSH2 0x2134 DUP16 SWAP9 PUSH2 0x2129 SWAP5 DUP16 PUSH2 0x211C PUSH1 0x40 MLOAD SWAP1 JUMP JUMPDEST SWAP12 DUP13 SWAP10 DUP11 SWAP9 DUP10 SWAP8 PUSH1 0xE0 SHL SWAP1 JUMP JUMPDEST DUP8 MSTORE PUSH1 0x4 DUP8 ADD PUSH2 0x1CA3 JUMP JUMPDEST SUB SWAP3 GAS CALL SWAP1 DUP2 ISZERO PUSH2 0x127B JUMPI PUSH2 0x1E81 SWAP3 PUSH2 0x101D SWAP3 PUSH2 0x2153 JUMPI JUMPDEST POP SWAP1 PUSH2 0x1E72 JUMP JUMPDEST PUSH2 0x2172 SWAP1 DUP9 RETURNDATASIZE DUP11 GT PUSH2 0x2178 JUMPI JUMPDEST PUSH2 0x216A DUP2 DUP4 PUSH2 0x7FD JUMP JUMPDEST DUP2 ADD SWAP1 PUSH2 0x278 JUMP JUMPDEST CODESIZE PUSH2 0x214C JUMP JUMPDEST POP RETURNDATASIZE PUSH2 0x2160 JUMP JUMPDEST DUP8 PUSH1 0x20 DUP11 PUSH2 0x218F PUSH2 0x101D DUP11 PUSH2 0x8B9 JUMP JUMPDEST PUSH2 0x21B1 DUP12 PUSH4 0xA9059CBB PUSH2 0x21BC PUSH2 0x21A4 PUSH1 0x40 MLOAD SWAP1 JUMP JUMPDEST SWAP8 DUP9 SWAP7 DUP8 SWAP6 DUP7 SWAP5 PUSH1 0xE0 SHL SWAP1 JUMP JUMPDEST DUP5 MSTORE PUSH1 0x4 DUP5 ADD PUSH2 0x178D JUMP JUMPDEST SUB SWAP3 GAS CALL DUP1 ISZERO PUSH2 0x127B JUMPI PUSH2 0x21D1 JUMPI JUMPDEST POP PUSH2 0x1E5F JUMP JUMPDEST PUSH2 0x21E8 SWAP1 PUSH1 0x20 RETURNDATASIZE DUP2 GT PUSH2 0x1A60 JUMPI PUSH2 0x1A53 DUP2 DUP4 PUSH2 0x7FD JUMP JUMPDEST PUSH2 0x21CB JUMP JUMPDEST DUP10 PUSH1 0x20 DUP11 PUSH2 0x21FD PUSH2 0x101D DUP7 PUSH2 0x8B9 JUMP JUMPDEST PUSH2 0x21B1 DUP12 PUSH4 0xA9059CBB PUSH2 0x2212 PUSH2 0x21A4 PUSH1 0x40 MLOAD SWAP1 JUMP JUMPDEST SUB SWAP3 GAS CALL DUP1 ISZERO PUSH2 0x127B JUMPI PUSH2 0x2227 JUMPI JUMPDEST POP PUSH2 0x1E4F JUMP JUMPDEST PUSH2 0x223E SWAP1 PUSH1 0x20 RETURNDATASIZE DUP2 GT PUSH2 0x1A60 JUMPI PUSH2 0x1A53 DUP2 DUP4 PUSH2 0x7FD JUMP JUMPDEST PUSH2 0x2221 JUMP JUMPDEST POP PUSH1 0x1 PUSH1 0x1 PUSH1 0xA0 SHL SUB DUP11 DUP2 AND SWAP1 DUP9 AND EQ ISZERO PUSH2 0x1E41 JUMP JUMPDEST POP PUSH2 0x1E0F PUSH2 0x2266 DUP5 PUSH2 0xF29 JUMP JUMPDEST DUP9 LT SWAP1 POP PUSH2 0x1E06 JUMP JUMPDEST POP PUSH2 0x1DE9 PUSH2 0x227C DUP6 PUSH2 0x644 JUMP JUMPDEST DUP7 GT SWAP1 POP PUSH2 0x1DE0 JUMP JUMPDEST SWAP1 PUSH2 0x1A2 SWAP5 SWAP4 SWAP3 SWAP2 PUSH2 0x1B2C JUMP JUMPDEST PUSH2 0x1B41 SWAP1 PUSH2 0x229E PUSH2 0x12FC JUMP JUMPDEST PUSH2 0x22A8 PUSH1 0x7 PUSH2 0xDBC JUMP JUMPDEST PUSH2 0x22BE PUSH2 0x101D PUSH2 0x22B8 PUSH1 0x8 PUSH2 0xDBC JUMP JUMPDEST SWAP3 PUSH2 0x8B9 JUMP JUMPDEST SWAP2 PUSH4 0xA9059CBB SWAP3 PUSH4 0x70A08231 SWAP1 PUSH2 0x22D4 ADDRESS PUSH2 0x8B9 JUMP JUMPDEST SWAP4 PUSH2 0x22DE PUSH1 0x40 MLOAD SWAP1 JUMP JUMPDEST SWAP2 PUSH2 0x22E9 DUP5 PUSH1 0xE0 SHL SWAP1 JUMP JUMPDEST DUP4 MSTORE PUSH1 0x1 PUSH1 0x1 PUSH1 0xA0 SHL SUB DUP7 AND PUSH1 0x4 DUP5 ADD MSTORE PUSH1 0x20 DUP4 PUSH1 0x24 DUP2 DUP5 GAS STATICCALL SWAP1 DUP2 ISZERO PUSH2 0x127B JUMPI PUSH2 0x232A PUSH1 0x20 SWAP3 PUSH2 0x2353 SWAP6 PUSH1 0x0 SWAP2 PUSH2 0x242C JUMPI JUMPDEST POP PUSH2 0x1FCB PUSH2 0x11D3 PUSH1 0x9 PUSH2 0xE86 JUMP JUMPDEST SWAP1 PUSH2 0x2347 PUSH1 0x0 DUP11 PUSH2 0x233A PUSH1 0x40 MLOAD SWAP1 JUMP JUMPDEST SWAP8 DUP9 SWAP6 DUP7 SWAP5 DUP6 SWAP4 PUSH1 0xE0 SHL SWAP1 JUMP JUMPDEST DUP4 MSTORE DUP12 PUSH1 0x4 DUP5 ADD PUSH2 0x178D JUMP JUMPDEST SUB SWAP3 GAS CALL SWAP2 DUP3 ISZERO PUSH2 0x127B JUMPI PUSH2 0x101D PUSH2 0x10A3 SWAP3 PUSH2 0x2377 SWAP3 PUSH1 0x20 SWAP6 PUSH2 0x2411 JUMPI JUMPDEST POP PUSH2 0x8B9 JUMP JUMPDEST SWAP3 PUSH2 0x238F PUSH2 0x2384 PUSH1 0x40 MLOAD SWAP1 JUMP JUMPDEST SWAP7 DUP8 SWAP4 DUP5 SWAP4 PUSH1 0xE0 SHL SWAP1 JUMP JUMPDEST SUB DUP2 DUP5 GAS STATICCALL SWAP3 DUP4 ISZERO PUSH2 0x127B JUMPI PUSH1 0x0 PUSH2 0x23BC PUSH1 0x20 SWAP6 PUSH2 0x21B1 SWAP4 DUP4 SWAP2 PUSH2 0x23F4 JUMPI JUMPDEST POP PUSH2 0x1FCB PUSH2 0x11D3 PUSH1 0x9 PUSH2 0xE9C JUMP JUMPDEST SWAP6 PUSH2 0x23C9 PUSH2 0x21A4 PUSH1 0x40 MLOAD SWAP1 JUMP JUMPDEST SUB SWAP3 GAS CALL DUP1 ISZERO PUSH2 0x127B JUMPI PUSH2 0x23DA JUMPI POP JUMP JUMPDEST PUSH2 0x23F1 SWAP1 PUSH1 0x20 RETURNDATASIZE DUP2 GT PUSH2 0x1A60 JUMPI PUSH2 0x1A53 DUP2 DUP4 PUSH2 0x7FD JUMP JUMPDEST POP JUMP JUMPDEST PUSH2 0x240B SWAP2 POP DUP8 RETURNDATASIZE DUP2 GT PUSH2 0x1274 JUMPI PUSH2 0x1265 DUP2 DUP4 PUSH2 0x7FD JUMP JUMPDEST CODESIZE PUSH2 0x23AE JUMP JUMPDEST PUSH2 0x2427 SWAP1 DUP7 RETURNDATASIZE DUP2 GT PUSH2 0x1A60 JUMPI PUSH2 0x1A53 DUP2 DUP4 PUSH2 0x7FD JUMP JUMPDEST PUSH2 0x2371 JUMP JUMPDEST PUSH2 0x2443 SWAP2 POP DUP5 RETURNDATASIZE DUP2 GT PUSH2 0x1274 JUMPI PUSH2 0x1265 DUP2 DUP4 PUSH2 0x7FD JUMP JUMPDEST CODESIZE PUSH2 0x231C JUMP JUMPDEST PUSH2 0x1A2 SWAP1 PUSH2 0x2292 JUMP JUMPDEST PUSH2 0x245A PUSH2 0x12FC JUMP JUMPDEST PUSH2 0x1B41 PUSH2 0x246D PUSH2 0x101D PUSH2 0x101D PUSH1 0x7 PUSH2 0xDBC JUMP JUMPDEST PUSH4 0x70A08231 PUSH2 0x247B ADDRESS PUSH2 0x8B9 JUMP JUMPDEST PUSH1 0x20 PUSH2 0x2486 PUSH1 0x40 MLOAD SWAP1 JUMP JUMPDEST DUP1 SWAP5 PUSH2 0x2492 DUP6 PUSH1 0xE0 SHL SWAP1 JUMP JUMPDEST DUP3 MSTORE PUSH1 0x1 PUSH1 0x1 PUSH1 0xA0 SHL SUB DUP5 AND PUSH1 0x4 DUP4 ADD MSTORE PUSH1 0x24 SWAP1 DUP3 SWAP1 GAS STATICCALL SWAP1 DUP2 ISZERO PUSH2 0x127B JUMPI PUSH2 0x24D5 SWAP4 PUSH1 0x0 SWAP3 PUSH2 0x2525 JUMPI JUMPDEST POP PUSH1 0x20 SWAP2 SWAP3 PUSH2 0x10A3 PUSH2 0x108C PUSH2 0x101D PUSH2 0x101D PUSH1 0x8 PUSH2 0xDBC JUMP JUMPDEST SUB SWAP2 GAS STATICCALL DUP1 ISZERO PUSH2 0x127B JUMPI PUSH2 0x1A2 SWAP3 PUSH1 0x0 SWAP2 PUSH2 0x2507 JUMPI JUMPDEST POP PUSH2 0x24F6 PUSH1 0x9 PUSH2 0xE86 JUMP JUMPDEST SWAP1 PUSH2 0x2501 PUSH1 0x9 PUSH2 0xE9C JUMP JUMPDEST SWAP3 PUSH2 0x14D3 JUMP JUMPDEST PUSH2 0x251F SWAP2 POP PUSH1 0x20 RETURNDATASIZE DUP2 GT PUSH2 0x1274 JUMPI PUSH2 0x1265 DUP2 DUP4 PUSH2 0x7FD JUMP JUMPDEST CODESIZE PUSH2 0x24EB JUMP JUMPDEST PUSH1 0x20 SWAP3 POP PUSH2 0x253F SWAP1 DUP4 RETURNDATASIZE DUP2 GT PUSH2 0x1274 JUMPI PUSH2 0x1265 DUP2 DUP4 PUSH2 0x7FD JUMP JUMPDEST SWAP2 PUSH2 0x24BD JUMP JUMPDEST PUSH2 0x1A2 PUSH2 0x2452 JUMP JUMPDEST SWAP1 POP MLOAD SWAP1 PUSH2 0x1A2 DUP3 PUSH2 0x1B3 JUMP JUMPDEST SWAP1 PUSH1 0x20 DUP3 DUP3 SUB SLT PUSH2 0x187 JUMPI PUSH2 0x1B0 SWAP2 PUSH2 0x254D JUMP JUMPDEST SWAP1 SWAP2 SWAP1 PUSH2 0x259F SWAP1 PUSH1 0x20 PUSH2 0x2587 PUSH2 0x101D PUSH2 0x101D PUSH1 0x6 PUSH2 0xDBC JUMP JUMPDEST PUSH4 0x17E7E58 SWAP1 PUSH2 0x2596 PUSH1 0x40 MLOAD SWAP1 JUMP JUMPDEST SWAP5 DUP6 SWAP3 PUSH1 0xE0 SHL SWAP1 JUMP JUMPDEST DUP3 MSTORE PUSH1 0x4 SWAP1 DUP3 SWAP1 GAS STATICCALL SWAP2 DUP3 ISZERO PUSH2 0x127B JUMPI PUSH1 0x0 SWAP3 PUSH2 0x26A3 JUMPI JUMPDEST POP PUSH1 0x0 SWAP1 PUSH2 0x25C7 PUSH2 0x1A4 DUP4 PUSH2 0x954 JUMP JUMPDEST PUSH1 0x1 PUSH1 0x1 PUSH1 0xA0 SHL SUB DUP5 AND EQ ISZERO SWAP1 DUP2 SWAP6 PUSH2 0x25E0 PUSH1 0xC PUSH2 0x886 JUMP JUMPDEST SWAP3 ISZERO PUSH2 0x267E JUMPI PUSH2 0x25EF DUP5 PUSH2 0x644 JUMP JUMPDEST DUP4 SUB PUSH2 0x25FD JUMPI JUMPDEST POP POP POP POP POP JUMP JUMPDEST PUSH2 0x2613 PUSH2 0x2618 SWAP2 PUSH2 0x11E5 PUSH2 0x1222 PUSH2 0x261E SWAP6 PUSH2 0xF29 JUMP JUMPDEST PUSH2 0x26E5 JUMP JUMPDEST SWAP2 PUSH2 0x26E5 JUMP JUMPDEST DUP1 DUP3 GT PUSH2 0x262C JUMPI JUMPDEST DUP1 PUSH2 0x25F6 JUMP JUMPDEST PUSH2 0x2660 SWAP2 PUSH2 0x1228 PUSH2 0x265A SWAP3 PUSH2 0xAF4 PUSH2 0x264F PUSH2 0x2645 PUSH2 0x890 JUMP JUMPDEST PUSH2 0x11E5 DUP5 DUP8 PUSH2 0xF3F JUMP JUMPDEST SWAP4 PUSH2 0x11E5 PUSH1 0x5 PUSH2 0x644 JUMP JUMPDEST SWAP2 PUSH2 0x644 JUMP JUMPDEST DUP2 GT PUSH2 0x266E JUMPI JUMPDEST DUP1 DUP1 PUSH2 0x2626 JUMP JUMPDEST PUSH2 0x2677 SWAP2 PUSH2 0x12B5 JUMP JUMPDEST CODESIZE DUP1 PUSH2 0x2667 JUMP JUMPDEST POP POP SWAP1 SWAP2 POP PUSH2 0x268F PUSH2 0xF7B DUP4 PUSH2 0x644 JUMP JUMPDEST SUB PUSH2 0x2697 JUMPI POP JUMP JUMPDEST PUSH2 0x11EB PUSH2 0x1A2 SWAP2 PUSH2 0x644 JUMP JUMPDEST PUSH2 0x26C5 SWAP2 SWAP3 POP PUSH1 0x20 RETURNDATASIZE DUP2 GT PUSH2 0x26CC JUMPI JUMPDEST PUSH2 0x26BD DUP2 DUP4 PUSH2 0x7FD JUMP JUMPDEST DUP2 ADD SWAP1 PUSH2 0x255A JUMP JUMPDEST SWAP1 CODESIZE PUSH2 0x25B7 JUMP JUMPDEST POP RETURNDATASIZE PUSH2 0x26B3 JUMP JUMPDEST SWAP1 DUP1 DUP3 LT ISZERO PUSH2 0x26E0 JUMPI POP SWAP1 JUMP JUMPDEST SWAP1 POP SWAP1 JUMP JUMPDEST SWAP1 PUSH1 0x0 PUSH2 0x26F2 PUSH1 0x3 PUSH2 0x644 JUMP JUMPDEST DUP4 GT ISZERO PUSH2 0x2770 JUMPI POP PUSH2 0x2727 DUP3 PUSH1 0x2 PUSH2 0x2712 PUSH2 0x270C DUP3 PUSH2 0x644 JUMP JUMPDEST DUP4 PUSH2 0xF75 JUMP JUMPDEST SWAP2 PUSH1 0x1 SWAP4 DUP5 SWAP4 PUSH2 0x2721 DUP6 PUSH2 0x644 JUMP JUMPDEST SWAP1 PUSH2 0xAA8 JUMP JUMPDEST SWAP4 JUMPDEST PUSH2 0x2734 JUMPI JUMPDEST POP POP POP POP JUMP JUMPDEST SWAP1 SWAP2 SWAP3 SWAP5 PUSH2 0x273F DUP2 SWAP1 JUMP JUMPDEST DUP7 LT ISZERO PUSH2 0x276A JUMPI POP PUSH2 0x2761 PUSH2 0x2758 DUP7 PUSH2 0xAF4 DUP2 DUP6 PUSH2 0xF75 JUMP JUMPDEST PUSH2 0x1228 DUP5 PUSH2 0x644 JUMP JUMPDEST SWAP3 SWAP2 SWAP1 DUP3 PUSH2 0x2729 JUMP JUMPDEST SWAP5 PUSH2 0x272E JUMP JUMPDEST SWAP2 PUSH2 0x277E PUSH2 0xF7B PUSH1 0x0 PUSH2 0x644 JUMP JUMPDEST SUB PUSH2 0x2785 JUMPI JUMP JUMPDEST SWAP1 POP PUSH2 0x1B0 PUSH1 0x1 PUSH2 0x644 JUMP INVALID LOG2 PUSH5 0x6970667358 0x22 SLT KECCAK256 SWAP11 0xD9 STOP BALANCE SUB 0xED 0xB5 OR 0xB5 PUSH14 0xFA497617D54DA2C486CF163D55D1 DUP13 0xF9 PC DUP12 0x22 0xE1 CALLER KECCAK256 PUSH5 0x736F6C6343 STOP ADDMOD EQ STOP CALLER "},"methodIdentifiers":{"MINIMUM_LIQUIDITY()":"ba9a7a56","allowance(address,address)":"dd62ed3e","approve(address,uint256)":"095ea7b3","balanceOf(address)":"70a08231","burn(address)":"89afcb44","decimals()":"313ce567","factory()":"c45a0155","getReserves()":"0902f1ac","initialize(address,address)":"485cc955","kLast()":"7464fc3d","mint(address)":"6a627842","name()":"06fdde03","price0CumulativeLast()":"5909c0d5","price1CumulativeLast()":"5a3d5493","skim(address)":"bc25cf77","swap(uint256,uint256,address,bytes)":"022c0d9f","symbol()":"95d89b41","sync()":"fff6cae9","token0()":"0dfe1681","token1()":"d21220a7","totalSupply()":"18160ddd","transfer(address,uint256)":"a9059cbb","transferFrom(address,address,uint256)":"23b872dd"}}}}}