{"contracts/HyperIndexToken.SECURE.sol":{"HyperIndexToken":{"abi":[{"inputs":[],"stateMutability":"nonpayable","type":"constructor"},{"inputs":[],"name":"ComponentAlreadyExists","type":"error"},{"inputs":[],"name":"ComponentNotFound","type":"error"},{"inputs":[{"internalType":"address","name":"spender","type":"address"},{"internalType":"uint256","name":"allowance","type":"uint256"},{"internalType":"uint256","name":"needed","type":"uint256"}],"name":"ERC20InsufficientAllowance","type":"error"},{"inputs":[{"internalType":"address","name":"sender","type":"address"},{"internalType":"uint256","name":"balance","type":"uint256"},{"internalType":"uint256","name":"needed","type":"uint256"}],"name":"ERC20InsufficientBalance","type":"error"},{"inputs":[{"internalType":"address","name":"approver","type":"address"}],"name":"ERC20InvalidApprover","type":"error"},{"inputs":[{"internalType":"address","name":"receiver","type":"address"}],"name":"ERC20InvalidReceiver","type":"error"},{"inputs":[{"internalType":"address","name":"sender","type":"address"}],"name":"ERC20InvalidSender","type":"error"},{"inputs":[{"internalType":"address","name":"spender","type":"address"}],"name":"ERC20InvalidSpender","type":"error"},{"inputs":[],"name":"EnforcedPause","type":"error"},{"inputs":[],"name":"ExpectedPause","type":"error"},{"inputs":[],"name":"InvalidOracleAddress","type":"error"},{"inputs":[],"name":"InvalidSymbol","type":"error"},{"inputs":[],"name":"InvalidWeight","type":"error"},{"inputs":[],"name":"OracleNotFunctional","type":"error"},{"inputs":[{"internalType":"address","name":"owner","type":"address"}],"name":"OwnableInvalidOwner","type":"error"},{"inputs":[{"internalType":"address","name":"account","type":"address"}],"name":"OwnableUnauthorizedAccount","type":"error"},{"inputs":[],"name":"ReentrancyGuardReentrantCall","type":"error"},{"inputs":[],"name":"StalePriceData","type":"error"},{"inputs":[],"name":"TooManyComponents","type":"error"},{"inputs":[],"name":"ZeroWeightSum","type":"error"},{"anonymous":false,"inputs":[{"indexed":true,"internalType":"address","name":"owner","type":"address"},{"indexed":true,"internalType":"address","name":"spender","type":"address"},{"indexed":false,"internalType":"uint256","name":"value","type":"uint256"}],"name":"Approval","type":"event"},{"anonymous":false,"inputs":[{"indexed":true,"internalType":"string","name":"symbol","type":"string"},{"indexed":true,"internalType":"address","name":"priceFeed","type":"address"},{"indexed":false,"internalType":"uint256","name":"weight","type":"uint256"}],"name":"ComponentAdded","type":"event"},{"anonymous":false,"inputs":[{"indexed":true,"internalType":"string","name":"symbol","type":"string"}],"name":"ComponentRemoved","type":"event"},{"anonymous":false,"inputs":[{"indexed":true,"internalType":"string","name":"symbol","type":"string"},{"indexed":false,"internalType":"uint256","name":"newWeight","type":"uint256"}],"name":"ComponentUpdated","type":"event"},{"anonymous":false,"inputs":[{"indexed":true,"internalType":"address","name":"pauser","type":"address"},{"indexed":false,"internalType":"uint256","name":"timestamp","type":"uint256"}],"name":"EmergencyPause","type":"event"},{"anonymous":false,"inputs":[{"indexed":false,"internalType":"uint256","name":"newPrice","type":"uint256"},{"indexed":false,"internalType":"uint256","name":"timestamp","type":"uint256"}],"name":"IndexPriceUpdated","type":"event"},{"anonymous":false,"inputs":[{"indexed":true,"internalType":"address","name":"previousOwner","type":"address"},{"indexed":true,"internalType":"address","name":"newOwner","type":"address"}],"name":"OwnershipTransferred","type":"event"},{"anonymous":false,"inputs":[{"indexed":false,"internalType":"address","name":"account","type":"address"}],"name":"Paused","type":"event"},{"anonymous":false,"inputs":[{"indexed":true,"internalType":"address","name":"from","type":"address"},{"indexed":true,"internalType":"address","name":"to","type":"address"},{"indexed":false,"internalType":"uint256","name":"value","type":"uint256"}],"name":"Transfer","type":"event"},{"anonymous":false,"inputs":[{"indexed":false,"internalType":"address","name":"account","type":"address"}],"name":"Unpaused","type":"event"},{"inputs":[],"name":"MAX_COMPONENTS","outputs":[{"internalType":"uint256","name":"","type":"uint256"}],"stateMutability":"view","type":"function"},{"inputs":[],"name":"MAX_STALENESS","outputs":[{"internalType":"uint256","name":"","type":"uint256"}],"stateMutability":"view","type":"function"},{"inputs":[],"name":"MAX_WEIGHT","outputs":[{"internalType":"uint256","name":"","type":"uint256"}],"stateMutability":"view","type":"function"},{"inputs":[],"name":"MIN_WEIGHT","outputs":[{"internalType":"uint256","name":"","type":"uint256"}],"stateMutability":"view","type":"function"},{"inputs":[],"name":"PRICE_DECIMALS","outputs":[{"internalType":"uint256","name":"","type":"uint256"}],"stateMutability":"view","type":"function"},{"inputs":[{"internalType":"string","name":"symbol","type":"string"},{"internalType":"address","name":"priceFeed","type":"address"},{"internalType":"uint256","name":"weight","type":"uint256"}],"name":"addComponent","outputs":[],"stateMutability":"nonpayable","type":"function"},{"inputs":[{"internalType":"address","name":"owner","type":"address"},{"internalType":"address","name":"spender","type":"address"}],"name":"allowance","outputs":[{"internalType":"uint256","name":"","type":"uint256"}],"stateMutability":"view","type":"function"},{"inputs":[{"internalType":"address","name":"spender","type":"address"},{"internalType":"uint256","name":"value","type":"uint256"}],"name":"approve","outputs":[{"internalType":"bool","name":"","type":"bool"}],"stateMutability":"nonpayable","type":"function"},{"inputs":[{"internalType":"address","name":"account","type":"address"}],"name":"balanceOf","outputs":[{"internalType":"uint256","name":"","type":"uint256"}],"stateMutability":"view","type":"function"},{"inputs":[],"name":"batchOracleHealthCheck","outputs":[{"internalType":"string[]","name":"symbols","type":"string[]"},{"internalType":"bool[]","name":"isHealthy","type":"bool[]"},{"internalType":"uint256[]","name":"lastUpdated","type":"uint256[]"}],"stateMutability":"view","type":"function"},{"inputs":[{"internalType":"uint256","name":"","type":"uint256"}],"name":"componentSymbols","outputs":[{"internalType":"string","name":"","type":"string"}],"stateMutability":"view","type":"function"},{"inputs":[{"internalType":"string","name":"","type":"string"}],"name":"components","outputs":[{"internalType":"contract AggregatorV3Interface","name":"priceFeed","type":"address"},{"internalType":"uint256","name":"weight","type":"uint256"},{"internalType":"bool","name":"isActive","type":"bool"},{"internalType":"uint256","name":"lastUpdateTime","type":"uint256"}],"stateMutability":"view","type":"function"},{"inputs":[],"name":"decimals","outputs":[{"internalType":"uint8","name":"","type":"uint8"}],"stateMutability":"view","type":"function"},{"inputs":[],"name":"getComponentCount","outputs":[{"internalType":"uint256","name":"","type":"uint256"}],"stateMutability":"view","type":"function"},{"inputs":[],"name":"getComponentSymbols","outputs":[{"internalType":"string[]","name":"","type":"string[]"}],"stateMutability":"view","type":"function"},{"inputs":[],"name":"getCurrentPrice","outputs":[{"internalType":"uint256","name":"price","type":"uint256"}],"stateMutability":"view","type":"function"},{"inputs":[{"internalType":"string","name":"symbol","type":"string"}],"name":"isOracleDataFresh","outputs":[{"internalType":"bool","name":"","type":"bool"}],"stateMutability":"view","type":"function"},{"inputs":[],"name":"name","outputs":[{"internalType":"string","name":"","type":"string"}],"stateMutability":"view","type":"function"},{"inputs":[],"name":"owner","outputs":[{"internalType":"address","name":"","type":"address"}],"stateMutability":"view","type":"function"},{"inputs":[],"name":"pause","outputs":[],"stateMutability":"nonpayable","type":"function"},{"inputs":[],"name":"paused","outputs":[{"internalType":"bool","name":"","type":"bool"}],"stateMutability":"view","type":"function"},{"inputs":[{"internalType":"string","name":"symbol","type":"string"}],"name":"removeComponent","outputs":[],"stateMutability":"nonpayable","type":"function"},{"inputs":[],"name":"renounceOwnership","outputs":[],"stateMutability":"nonpayable","type":"function"},{"inputs":[],"name":"symbol","outputs":[{"internalType":"string","name":"","type":"string"}],"stateMutability":"view","type":"function"},{"inputs":[],"name":"totalSupply","outputs":[{"internalType":"uint256","name":"","type":"uint256"}],"stateMutability":"view","type":"function"},{"inputs":[],"name":"totalWeight","outputs":[{"internalType":"uint256","name":"","type":"uint256"}],"stateMutability":"view","type":"function"},{"inputs":[{"internalType":"address","name":"to","type":"address"},{"internalType":"uint256","name":"amount","type":"uint256"}],"name":"transfer","outputs":[{"internalType":"bool","name":"","type":"bool"}],"stateMutability":"nonpayable","type":"function"},{"inputs":[{"internalType":"address","name":"from","type":"address"},{"internalType":"address","name":"to","type":"address"},{"internalType":"uint256","name":"amount","type":"uint256"}],"name":"transferFrom","outputs":[{"internalType":"bool","name":"","type":"bool"}],"stateMutability":"nonpayable","type":"function"},{"inputs":[{"internalType":"address","name":"newOwner","type":"address"}],"name":"transferOwnership","outputs":[],"stateMutability":"nonpayable","type":"function"},{"inputs":[],"name":"unpause","outputs":[],"stateMutability":"nonpayable","type":"function"},{"inputs":[{"internalType":"string","name":"symbol","type":"string"},{"internalType":"uint256","name":"newWeight","type":"uint256"}],"name":"updateComponentWeight","outputs":[],"stateMutability":"nonpayable","type":"function"}],"evm":{"bytecode":{"linkReferences":{},"object":"6080604052346200002657620000146200016d565b6040516129406200081c823961294090f35b600080fd5b634e487b7160e01b600052604160045260246000fd5b90601f01601f191681019081106001600160401b038211176200006357604052565b6200002b565b90620000806200007860405190565b928362000041565b565b6001600160401b0381116200006357602090601f01601f19160190565b90620000b5620000af8362000082565b62000069565b918252565b620000c660106200009f565b6f243cb832b924b73232bc102a37b5b2b760811b602082015290565b620000ec620000ba565b90565b620000fb600a6200009f565b69090b2a08aa4929c888ab60b31b602082015290565b620000ec620000ef565b634e487b7160e01b600052601160045260246000fd5b60ff16604d81116200014357600a0a90565b6200011b565b620000ec620000ec620000ec9290565b818102929181159184041417156200014357565b62000080336200019262000180620000e2565b6200018a62000111565b9083620001c7565b620001c06305f5e100620001ba620001b3620001ad620005d0565b62000131565b9162000149565b62000159565b90620005dc565b9062000080929162000210565b620000ec600162000149565b90600019905b9181191691161790565b9062000204620000ec6200020c9262000149565b8254620001e0565b9055565b906200021d92916200027b565b620000806200022b620001d4565b6006620001f0565b62000243620000ec620000ec9290565b6001600160a01b031690565b620000ec9062000233565b620002659062000243565b9052565b6020810192916200008091906200025a565b916200028791620004cd565b6200029360006200024f565b6200029e8162000243565b620002a98362000243565b14620002bb5750620000809062000556565b620002e190620002ca60405190565b631e4fbdf760e01b81529182916004830162000269565b0390fd5b634e487b7160e01b600052602260045260246000fd5b90600160028304921680156200031e575b60208310146200031857565b620002e5565b91607f16916200030c565b9160001960089290920291821b911b620001e6565b919062000353620000ec6200020c9362000149565b90835462000329565b62000080916000916200033e565b81811062000376575050565b806200038660006001936200035c565b016200036a565b9190601f81116200039d57505050565b620003b16200008093600052602060002090565b906020601f840181900483019310620003d5575b6020601f9091010401906200036a565b9091508190620003c5565b90620003ea815190565b906001600160401b038211620000635762000412826200040b8554620002fb565b856200038d565b602090601f831160011462000451576200020c92916000918362000445575b5050600019600883021c1916906002021790565b01519050388062000431565b601f198316916200046785600052602060002090565b9260005b818110620004a8575091600293918560019694106200048e575b50505002019055565b01516000196008601f8516021c1916905538808062000485565b919360206001819287870151815501950192016200046b565b906200008091620003e0565b90620004df62000080926003620004c1565b6004620004c1565b620000ec9062000243565b620000ec9054620004e7565b906001600160a01b0390620001e6565b620000ec9062000243906001600160a01b031682565b620000ec906200050e565b620000ec9062000524565b906200054e620000ec6200020c926200052f565b8254620004fe565b620005626005620004f2565b90620005708160056200053a565b620005a7620005a07f8be0079c531659141344cd1fd0a4f28419497f9722a3daafe3b4186f6b6457e0936200052f565b916200052f565b91620005b260405190565b80805b0390a3565b620005ca620000ec620000ec9290565b60ff1690565b620000ec6012620005ba565b9190620005ea60006200024f565b92620005f68462000243565b620006018262000243565b146200061357620000809293620006a4565b620002e1846200062260405190565b63ec442f0560e01b81529182916004830162000269565b9062000645906200052f565b600052602052604060002090565b620000ec9081565b620000ec905462000653565b604090620006926200008094969593966200068b606084019860008501906200025a565b6020830152565b0152565b919082018092116200014357565b816000620006b2816200024f565b620006bd8162000243565b620006c88562000243565b03620007ac57620006fc90620006f6620006ee88620006e860026200065b565b62000696565b6002620001f0565b62000243565b620007078362000243565b036200077b57505062000728620006ee846200072460026200065b565b0390565b620005b5620007636200075c7fddf252ad1be2c89b69c2b068fc378daa952ba7f163c4a11628f55a4df523b3ef936200052f565b936200052f565b936200076e60405190565b9182918290815260200190565b620007a6916200078b9162000639565b6200079f856200079b836200065b565b0190565b90620001f0565b62000728565b909150620007c5620007bf848462000639565b6200065b565b858110620007f457849291620006f6620007e288620006fc940390565b620007ee878662000639565b620001f0565b83620002e1876200080460405190565b63391434e360e21b8152938493600485016200066756fe6080604052600436101561001257600080fd5b60003560e01c80630639ffad1461020257806306fdde03146101fd578063095ea7b3146101f85780630ab50a6a146101f35780630e58ba33146101ee57806318160ddd146101e9578063218b5382146101e457806323b872dd146101df578063313ce567146101da578063349195f9146101d55780633f4ba83a146101d05780635c975abb146101cb57806368a46a19146101c657806370a08231146101c1578063715018a6146101bc5780637edce370146101b75780638456cb59146101b25780638da5cb5b146101ad5780638fc6258b146101a857806395d89b41146101a357806396c82e571461019e578063a9059cbb14610199578063c2d6c0f014610194578063caca95a41461018f578063cf50b1521461018a578063dd62ed3e14610185578063e4a28a5214610180578063eb91d37e1461017b578063f1a640f814610176578063f2fde38b146101715763fa7295d00361020757610d75565b610d5d565b610d42565b610d15565b610cfa565b610ccb565b610c7e565b610b92565b610b63565b610b1d565b610b02565b610ac5565b610aa9565b610a2b565b610a13565b6109ec565b61094d565b610932565b610903565b610751565b610739565b61071d565b6106ee565b6106d2565b610687565b61065a565b610629565b6103e9565b61039c565b610326565b61028d565b600080fd5b909182601f830112156102075781359167ffffffffffffffff831161020757602001926001830284011161020757565b805b0361020757565b905035906102528261023c565b565b9160408383031261020757823567ffffffffffffffff81116102075761027f8361028a92860161020c565b939094602001610245565b90565b34610207576102a66102a0366004610254565b91611f0f565b604051005b0390f35b600091031261020757565b60005b8381106102cd5750506000910152565b81810151838201526020016102bd565b6102fe610307602093610311936102f2815190565b80835293849260200190565b958691016102ba565b601f01601f191690565b0190565b602080825261028a929101906102dd565b34610207576103363660046102af565b6102ab610341610f56565b60405191829182610315565b6001600160a01b031690565b6001600160a01b03811661023e565b9050359061025282610359565b91906040838203126102075761028a9061038f8185610368565b93602001610245565b9052565b34610207576102ab6103b86103b2366004610375565b90610fdf565b60405191829182901515815260200190565b61028a61028a61028a9290565b61028a600a6103ca565b61028a6103d7565b34610207576103f93660046102af565b6102ab6104046103e1565b6040515b9182918290815260200190565b634e487b7160e01b600052604160045260246000fd5b90601f01601f1916810190811067ffffffffffffffff82111761044d57604052565b610415565b9061025261045f60405190565b928361042b565b67ffffffffffffffff811161044d57602090601f01601f19160190565b90826000939282370152565b909291926104a461049f82610466565b610452565b938185526020850190828401116102075761025292610483565b9080601f830112156102075781602061028a9335910161048f565b9060208282031261020757813567ffffffffffffffff81116102075761028a92016104be565b61031161051792602092610511815190565b94859290565b938491016102ba565b61053061031191602094936104ff565b918252565b61054a61054160405190565b92839283610520565b03902090565b61028a91610535565b61028a9081565b61028a9054610559565b61028a905b60ff1690565b61028a905461056a565b61058a906008610550565b9061059c82546001600160a01b031690565b916105a960018201610560565b9161028a60036105bb60028501610575565b9301610560565b61034d61028a61028a926001600160a01b031690565b61028a906105c2565b61028a906105d8565b610398906105e1565b6106256102529461061c606094989795610615608086019a60008701906105ea565b6020850152565b15156040830152565b0152565b34610207576102ab61064461063f3660046104d9565b61057f565b9061065194929460405190565b948594856105f3565b346102075761066a3660046102af565b6102ab610404610f81565b61028a60646103ca565b61028a610675565b34610207576106973660046102af565b6102ab61040461067f565b90916060828403126102075761028a6106bb8484610368565b936106c98160208601610368565b93604001610245565b34610207576102ab6103b86106e83660046106a2565b91612685565b34610207576106fe3660046102af565b6102ab610709610f77565b6040519182918260ff909116815260200190565b346102075761072d3660046102af565b6102ab61040460095490565b34610207576107493660046102af565b6102a6612380565b34610207576107613660046102af565b6102ab6103b8611153565b906020828203126102075761028a91610245565b634e487b7160e01b600052603260045260246000fd5b80548210156107b9576107b0600191600052602060002090565b91020190600090565b610780565b634e487b7160e01b600052600060045260246000fd5b634e487b7160e01b600052602260045260246000fd5b906001600283049216801561080a575b602083101461080557565b6107d4565b91607f16916107fa565b80546000939291610831610827836107ea565b8085529360200190565b9160018116908115610883575060011461084a57505050565b61085d9192939450600052602060002090565b916000925b81841061086f5750500190565b805484840152602090930192600101610862565b92949550505060ff1916825215156020020190565b9061028a91610814565b906102526108bc926108b360405190565b93848092610898565b038361042b565b906000106108d45761028a906108a2565b6107be565b600960006108e5825490565b831015610900575061028a916108fa91610796565b906108c3565b80fd5b34610207576102ab61034161091936600461076c565b6108d9565b906020828203126102075761028a91610368565b34610207576102ab61040461094836600461091e565b610fa3565b346102075761095d3660046102af565b6102a6610dc6565b9061028a916102dd565b9061098561097b835190565b8083529160200190565b90816109976020830284019460200190565b926000915b8383106109ab57505050505090565b909192939460206109ce6109c783856001950387528951610965565b9760200190565b930193019193929061099c565b602080825261028a9291019061096f565b34610207576109fc3660046102af565b6102ab610a07612223565b604051918291826109db565b3461020757610a233660046102af565b6102a6612312565b3461020757610a3b3660046102af565b6102ab610a506005546001600160a01b031690565b6040515b918291826001600160a01b03909116815260200190565b9190916060818403126102075780359167ffffffffffffffff831161020757610a998461028a94840161020c565b9390946106c98160208601610368565b34610207576102a6610abc366004610a6b565b929190916118c8565b3461020757610ad53660046102af565b6102ab610341610f60565b61028a916008021c81565b9061028a9154610ae0565b61028a6000600a610aeb565b3461020757610b123660046102af565b6102ab610404610af6565b34610207576102ab6103b8610b33366004610375565b9061242b565b9060208282031261020757813567ffffffffffffffff811161020757610b5f920161020c565b9091565b34610207576102ab6103b8610b79366004610b39565b9061222d565b61028a610e106103ca565b61028a610b7f565b3461020757610ba23660046102af565b6102ab610404610b8a565b90610bcd610bc6610bbc845190565b8084529260200190565b9260200190565b9060005b818110610bde5750505090565b909192610bfd610bf660019286511515815260200190565b9460200190565b929101610bd1565b90610c14610bc6610bbc845190565b9060005b818110610c255750505090565b909192610c3b610bf66001928651815260200190565b929101610c18565b91610c7090610c6261028a95936060860190868203600088015261096f565b908482036020860152610bad565b916040818403910152610c05565b3461020757610c8e3660046102af565b6102ab610c9961279a565b60405191939193849384610c43565b91906040838203126102075761028a90610cc28185610368565b93602001610368565b34610207576102ab610404610ce1366004610ca8565b90610fbf565b61028a6113886103ca565b61028a610ce7565b3461020757610d0a3660046102af565b6102ab610404610cf2565b3461020757610d253660046102af565b6102ab610404611fe8565b61028a60086103ca565b61028a610d30565b3461020757610d523660046102af565b6102ab610404610d3a565b34610207576102a6610d7036600461091e565b610eb7565b34610207576102a6610d88366004610b39565b90611e27565b610d96610dce565b610252610db4565b61034d61028a61028a9290565b61028a90610d9e565b610252610dc16000610dab565b610ef0565b610252610d8e565b60055433906001600160a01b0316819003610de65750565b610e3090610df360405190565b9182917f118cdaa7000000000000000000000000000000000000000000000000000000008352600483016001600160a01b03909116815260200190565b0390fd5b61025290610e40610dce565b610e4a6000610dab565b6001600160a01b0381166001600160a01b03831614610e6d575061025290610ef0565b610e3090610e7a60405190565b9182917f1e4fbdf7000000000000000000000000000000000000000000000000000000008352600483016001600160a01b03909116815260200190565b61025290610e34565b906001600160a01b03905b9181191691161790565b90610ee561028a610eec926105e1565b8254610ec0565b9055565b6005546001600160a01b031690610f08816005610ed5565b610f3b610f357f8be0079c531659141344cd1fd0a4f28419497f9722a3daafe3b4186f6b6457e0936105e1565b916105e1565b91610f4560405190565b80805b0390a3565b61028a906108a2565b61028a6003610f4d565b61028a6004610f4d565b61056f61028a61028a9290565b61028a6012610f6a565b61028a6002610560565b90610f95906105e1565b600052602052604060002090565b610fba61028a91610fb2600090565b506000610f8b565b610560565b61028a91610fda610fba92610fd2600090565b506001610f8b565b610f8b565b610fea919033610fef565b600190565b90916102529260019261101e565b9060001990610ecb565b9061101761028a610eec926103ca565b8254610ffd565b90919261102b6000610dab565b6001600160a01b0381166001600160a01b03841614611109576001600160a01b0381166001600160a01b038516146110bf57506110768461107185610fda866001610f8b565b611007565b61107f57505050565b610f486110b56110af7f8c5be1e5ebec7d5bd14f71427d1e84f3dd0314c0f7b2291e5b200ac8c7c3b925936105e1565b936105e1565b9361040860405190565b610e30906110cc60405190565b9182917f94280d62000000000000000000000000000000000000000000000000000000008352600483016001600160a01b03909116815260200190565b610e309061111660405190565b9182917fe602df05000000000000000000000000000000000000000000000000000000008352600483016001600160a01b03909116815260200190565b61028a6007610575565b9061025293929161116c610dce565b61122d565b69ffffffffffffffffffff811661023e565b9050519061025282611171565b905051906102528261023c565b919060a083820312610207576111b38184611183565b926111c18260208301611190565b9261028a6111d28460408501611190565b936111e08160608601611190565b93608001611183565b634e487b7160e01b600052601160045260246000fd5b9190820391821161120c57565b6111e9565b61121e61028a61028a9290565b69ffffffffffffffffffff1690565b929190600061123e61034d82610dab565b6001600160a01b038416146113cc57823b61125f61125b836103ca565b9190565b146113cc5761129260a061127a611275866105e1565b6105e1565b63feaf968c9061128960405190565b93849260e01b90565b825260049082905afa908290838385928695611396575b506112da576040515b7ff48fdf18000000000000000000000000000000000000000000000000000000008152600490fd5b6112e661125b866103ca565b131561134c576112f5846103ca565b811461134c5761130590426111ff565b61131361125b61028a610b7f565b1161136b5761133461132484611211565b9169ffffffffffffffffffff1690565b14918215611354575b505061134c57610252936113f7565b6040516112b2565b61136391925061132490611211565b14388061133d565b6040517f355e186c000000000000000000000000000000000000000000000000000000008152600490fd5b92509350506113bc915060a03d81116113c5575b6113b4818361042b565b81019061119d565b949092916112a9565b503d6113aa565b6040517f55210681000000000000000000000000000000000000000000000000000000008152600490fd5b906102529392916114066118d4565b6116c2565b90916103119083908093610483565b61053090602094936103119361140b565b909161054a9061143a60405190565b9384938461141a565b909161028a9261142b565b61028a6080610452565b9060ff90610ecb565b9061147161028a610eec92151590565b8254611458565b61025291906114b4906060906003906114a28161149c87516001600160a01b031690565b90610ed5565b6114ba600182016114b4602088015190565b90611007565b6114d4600282016114ce6040880151151590565b90611461565b0192015190565b9061025291611478565b9160001960089290920291821b911b610ecb565b919061150a61028a610eec936103ca565b9083546114e5565b610252916000916114f9565b818110611529575050565b806115376000600193611512565b0161151e565b9190601f811161154c57505050565b61155e61025293600052602060002090565b906020601f840181900483019310611581575b6020601f909101045b019061151e565b9091508190611571565b919067ffffffffffffffff821161044d576115b0826115aa85546107ea565b8561153d565b600090601f83116001146115eb57610eec9291600091836115e0575b5050600019600883021c1916906002021790565b0135905038806115cc565b601f1983169161160085600052602060002090565b92815b81811061163e57509160029391856001969410611624575b50505002019055565b0135600019601f84166008021c19165b905538808061161b565b91936020600181928787013581550195019201611603565b9291906108d4576102529261158b565b91908254926801000000000000000084101561044d578361168f91600161025296018155610796565b90611656565b9190820180921161120c57565b909161028a9261140b565b61054a6116b960405190565b928392836116a2565b9192916000826116d461125b836103ca565b1480156118b3575b611888576116eb61028a610675565b84108015611875575b61184a57600894611711600261170b86868a611443565b01610575565b61181f576009805461172761125b61028a6103d7565b10156117f457839261173986936105e1565b9783854260018c61174861144e565b9687019061175e91906001600160a01b03169052565b6117698c6020880152565b15156040860152606085015261177e92611443565b90611788916114db565b9161179292611666565b8261179d600a610560565b906117a791611695565b6117b290600a611007565b7f197824819e143e92010c91d876c2287ab60e222851097f8bd09122231b02dbb0916117dd916116ad565b916117e760405190565b9081528060208101610f48565b6040517fc2413d21000000000000000000000000000000000000000000000000000000008152600490fd5b6040517f4171e77a000000000000000000000000000000000000000000000000000000008152600490fd5b6040517f585b9263000000000000000000000000000000000000000000000000000000008152600490fd5b5061188161028a610ce7565b84116116f4565b6040517f04119bc4000000000000000000000000000000000000000000000000000000008152600490fd5b50826118c261125b600a6103ca565b116116dc565b9061025293929161115d565b6118dc611153565b6118e257565b6040517fd93c0665000000000000000000000000000000000000000000000000000000008152600490fd5b906102529161191a610dce565b611c83565b600019811461120c5760010190565b61028a91369161048f565b61028a90546107ea565b90808214611a205761195481611939565b9067ffffffffffffffff821161044d57611972826115aa85546107ea565b600090601f83116001146119ac57610eec9291600091836119a1575050600019600883021c1916906002021790565b0154905038806115cc565b906119c1601f19841692600052602060002090565b906119d185600052602060002090565b92815b818110611a08575091600293918560019694106119f45750505002019055565b01546000196008601f8516021c1916611634565b919360018060209287870154815501950192016119d4565b5050565b91906108d45761025291611943565b634e487b7160e01b600052603160045260246000fd5b90611a5c90600019906020036008021c90565b8154169055565b90600091611a8e611a7982600052602060002090565b928354600019600883021c1916906002021790565b905555565b9192906020821015611af857601f8411600114611ac257610eec929350600019600883021c1916906002021790565b5090611af3610252936001611aea611adf85600052602060002090565b92601f602091010490565b8201910161151e565b611a63565b50611b318293611b0f600194600052602060002090565b61157a6020601f860104820192601f861680611b39575b50601f602091010490565b600202179055565b611b4590888603611a49565b38611b26565b92909168010000000000000000821161044d5760201115611ba4576020811015611b8557610eec91600019600883021c1916906002021790565b60019160ff1916611b9b84600052602060002090565b55600202019055565b60019150600202019055565b908154611bbc816107ea565b90818311611be5575b818310611bd3575b50505050565b611bdc93611a93565b38808080611bcd565b611bf183838387611b4b565b611bc5565b8181029291811591840414171561120c57565b600061025291611bb0565b906000036108d45761025290611c09565b80548015611c48576000190190611c45611c3f8383610796565b90611c14565b55565b611a33565b600080825561025291600390611c668360018301611512565b82600282015501611512565b906000036108d45761025290611c4d565b600891611c9d611c99600261170b848688611443565b1590565b611dfc576000611cac816103ca565b6009611cb961028a825490565b821015611de757611cd9611cd4611cd08484610796565b5090565b610f4d565b611ceb611ce4825190565b9160200190565b20611d0b61125b611cfc878961192e565b611d07611ce4825190565b2090565b14611d1f5750611d1a9061191f565b611cac565b8385611dd59697611d72611d6d8561028a611dae9998611d67611d5f611d59611d49611da99c5490565b611d5360016103ca565b906111ff565b85610796565b509184610796565b90611a24565b611c25565b611da4611d9d611d8e6001611d88878787611443565b01610560565b611d98600a610560565b6111ff565b600a611007565b611443565b611c72565b7fc6a0b3a38f4acc103d66d2ea1f975912895d3d7cfeebcda52f245e760198a4bd926116ad565b90611ddf60405190565b80805b0390a2565b5050611dae90611da98385611dd59697611d72565b6040517f7d918563000000000000000000000000000000000000000000000000000000008152600490fd5b906102529161190d565b906102529291611e3f610dce565b906008611e55611c99600261170b858786611443565b611dfc57611e6461028a610675565b84108015611efc575b61184a5781611ecb611ef292611ea6611d9d88611ea189611d536001611d88611de29c611e9a600a610560565b948a611443565b611695565b611ebd876001611eb7868a86611443565b01611007565b6003611eb784884294611443565b7f5324d4f0b093f69d6f6ffe47346b30e4147743eed843366bf0d70a70c4a85c69936116ad565b9261040860405190565b50611f0861028a610ce7565b8411611e6d565b906102529291611e31565b80546000939291611f31611f2d836107ea565b9390565b9160018116908115611f825750600114611f4a57505050565b611f5d9192939450600052602060002090565b6000905b838210611f6e5750500190565b600181602092548486015201910190611f61565b60ff191683525050811515909102019150565b6105306103119160209493611f1a565b61054a611fb160405190565b92839283611f95565b61028a91611fa5565b634e487b7160e01b600052601260045260246000fd5b8115611fe3570490565b611fc3565b611ff2600a610560565b60009061200161125b836103ca565b146121765761200f816103ca565b9081825b600961202061028a825490565b82101561214e5761028a6120419161203a84600892610796565b5090611fba565b612050611c9960028301610575565b6121445761206f60a061127a611275878501546001600160a01b031690565b825260049082905afa90859186918161211e575b50612099575050506120949061191f565b612013565b6120a390426111ff565b6120b161125b61028a610b7f565b11158061210d575b6120c9575b50506120949061191f565b926120f96120ff61210593976120f960016120e761209498996103ca565b9a01996120f38b610560565b90611bf6565b90611695565b96610560565b9190386120be565b50612117856103ca565b81136120b9565b909250612139915060a03d81116113c5576113b4818361042b565b509250929092612083565b506120949061191f565b5050909161215b836103ca565b821461216b5761028a9250611fd9565b505061028a906103ca565b6040517f02d7864e000000000000000000000000000000000000000000000000000000008152600490fd5b67ffffffffffffffff811161044d5760208091020190565b9061053061049f836121a1565b906121cf825490565b6121d8816121b9565b926121ec6020850191600052602060002090565b6000915b8383106121fd5750505050565b60016020819261220c85610f4d565b8152019201920191906121f0565b61028a906121c6565b61028a600961221a565b6008612242611c99600261170b868686611443565b6122c957611275600061225e61226c9560a09561127a95611443565b01546001600160a01b031690565b825260049082905afa600091816122a6575b506122895750600090565b61229390426111ff565b6122a161125b61028a610b7f565b111590565b6122bf91925060a03d81116113c5576113b4818361042b565b509392505061227e565b505050600090565b6122d9610dce565b6102526122e4612365565b427f6eae7d8f48015fddc9502717696ac737bec3d20c703c3958a689f8f485747183611de2611ef2336105e1565b6102526122d1565b6123226118d4565b61025261233160016007611461565b336123607f62e78cea01bee320cd4e420270b5ea74000d11b0c9f74754ebdbfc544b05a25891610a5460405190565b0390a1565b61025261231a565b612375610dce565b6102526102526123ce565b61025261236d565b6123906123d6565b61025261239f60006007611461565b336123607f5db9ee0a495bf2e6ff9c91a7834c1ba4fdd244a5e8aa4e537bd38aeae4b073aa91610a5460405190565b610252612388565b6123e1611c99611153565b6123e757565b6040517f8dfc202b000000000000000000000000000000000000000000000000000000008152600490fd5b9061028a92916124206118d4565b5061028a9190612437565b61028a91906000612412565b610fea9190335b92919061244b6000610dab565b936001600160a01b0385166001600160a01b038216146124d3576001600160a01b0385166001600160a01b0383161461248957610252939450612544565b610e308561249660405190565b9182917fec442f05000000000000000000000000000000000000000000000000000000008352600483016001600160a01b03909116815260200190565b610e30856124e060405190565b9182917f96c6fd1e000000000000000000000000000000000000000000000000000000008352600483016001600160a01b03909116815260200190565b6001600160a01b039091168152606081019392610252929091604091610625906020830152565b81600061255081610dab565b6001600160a01b0381166001600160a01b038516036125fa576125859061034d61257e88611ea16002610560565b6002611007565b6001600160a01b038316036125db5750506125ab61257e846125a76002610560565b0390565b610f486110b56110af7fddf252ad1be2c89b69c2b068fc378daa952ba7f163c4a11628f55a4df523b3ef936105e1565b6125f5916125e891610f8b565b6114b48561031183610560565b6125ab565b90915061260a610fba8484610f8b565b85811061262d5784929161034d61262388612585940390565b6110718786610f8b565b83610e308761263b60405190565b9384937fe450d38c0000000000000000000000000000000000000000000000000000000085526004850161251d565b9061028a9392916126796118d4565b5061028a929190612692565b61028a929190600061266a565b610fea9291908261243e82336126a88183610fbf565b9360001985106126ba575b5050509050565b8085106126e0576126ce906126d794950390565b9060009261101e565b803880806126b3565b90610e3085926126ef60405190565b9384937ffb8f41b20000000000000000000000000000000000000000000000000000000085526004850161251d565b60005b82811061272d57505050565b606082820152602001612721565b9061025261275161274b846121b9565b936121a1565b601f19016020840161271e565b369037565b9061025261277361274b846121b9565b601f19016020840161275e565b90612789825190565b8110156107b9576020809102010190565b6009906127ad6127a8835490565b61273b565b9182906127c06127bb825490565b612763565b9081946127ce6127bb835490565b9384966000976127dd896103ca565b6127e861028a875490565b8110156128fe57808a61283e60a061127a6112758461225e61028a8e6128308f9b61288b9c61282061281a8386610796565b50610f4d565b61282a8383612780565b52612780565b515061203a8a600892610796565b825260049082905afa82908392816128d9575b5061289057505061286d90612866838b612780565b9015159052565b6128866128798c6103ca565b612883838c612780565b52565b61191f565b6127dd565b61289f61125b612886946103ca565b13806128b4575b61287990612866858d612780565b506128796128c282426111ff565b6128d061125b61028a610b7f565b111590506128a6565b9092506128f4915060a03d81116113c5576113b4818361042b565b5093919250612851565b5095509593509550505056fea26469706673582212204e3f82f984ea7d63f44b59226004a79314f8b9327dae82e8e628fff299b6999264736f6c63430008140033","opcodes":"PUSH1 0x80 PUSH1 0x40 MSTORE CALLVALUE PUSH3 0x26 JUMPI PUSH3 0x14 PUSH3 0x16D JUMP JUMPDEST PUSH1 0x40 MLOAD PUSH2 0x2940 PUSH3 0x81C DUP3 CODECOPY PUSH2 0x2940 SWAP1 RETURN JUMPDEST PUSH1 0x0 DUP1 REVERT JUMPDEST PUSH4 0x4E487B71 PUSH1 0xE0 SHL PUSH1 0x0 MSTORE PUSH1 0x41 PUSH1 0x4 MSTORE PUSH1 0x24 PUSH1 0x0 REVERT JUMPDEST SWAP1 PUSH1 0x1F ADD PUSH1 0x1F NOT AND DUP2 ADD SWAP1 DUP2 LT PUSH1 0x1 PUSH1 0x1 PUSH1 0x40 SHL SUB DUP3 GT OR PUSH3 0x63 JUMPI PUSH1 0x40 MSTORE JUMP JUMPDEST PUSH3 0x2B JUMP JUMPDEST SWAP1 PUSH3 0x80 PUSH3 0x78 PUSH1 0x40 MLOAD SWAP1 JUMP JUMPDEST SWAP3 DUP4 PUSH3 0x41 JUMP JUMPDEST JUMP JUMPDEST PUSH1 0x1 PUSH1 0x1 PUSH1 0x40 SHL SUB DUP2 GT PUSH3 0x63 JUMPI PUSH1 0x20 SWAP1 PUSH1 0x1F ADD PUSH1 0x1F NOT AND ADD SWAP1 JUMP JUMPDEST SWAP1 PUSH3 0xB5 PUSH3 0xAF DUP4 PUSH3 0x82 JUMP JUMPDEST PUSH3 0x69 JUMP JUMPDEST SWAP2 DUP3 MSTORE JUMP JUMPDEST PUSH3 0xC6 PUSH1 0x10 PUSH3 0x9F JUMP JUMPDEST PUSH16 0x243CB832B924B73232BC102A37B5B2B7 PUSH1 0x81 SHL PUSH1 0x20 DUP3 ADD MSTORE SWAP1 JUMP JUMPDEST PUSH3 0xEC PUSH3 0xBA JUMP JUMPDEST SWAP1 JUMP JUMPDEST PUSH3 0xFB PUSH1 0xA PUSH3 0x9F JUMP JUMPDEST PUSH10 0x90B2A08AA4929C888AB PUSH1 0xB3 SHL PUSH1 0x20 DUP3 ADD MSTORE SWAP1 JUMP JUMPDEST PUSH3 0xEC PUSH3 0xEF JUMP JUMPDEST PUSH4 0x4E487B71 PUSH1 0xE0 SHL PUSH1 0x0 MSTORE PUSH1 0x11 PUSH1 0x4 MSTORE PUSH1 0x24 PUSH1 0x0 REVERT JUMPDEST PUSH1 0xFF AND PUSH1 0x4D DUP2 GT PUSH3 0x143 JUMPI PUSH1 0xA EXP SWAP1 JUMP JUMPDEST PUSH3 0x11B JUMP JUMPDEST PUSH3 0xEC PUSH3 0xEC PUSH3 0xEC SWAP3 SWAP1 JUMP JUMPDEST DUP2 DUP2 MUL SWAP3 SWAP2 DUP2 ISZERO SWAP2 DUP5 DIV EQ OR ISZERO PUSH3 0x143 JUMPI JUMP JUMPDEST PUSH3 0x80 CALLER PUSH3 0x192 PUSH3 0x180 PUSH3 0xE2 JUMP JUMPDEST PUSH3 0x18A PUSH3 0x111 JUMP JUMPDEST SWAP1 DUP4 PUSH3 0x1C7 JUMP JUMPDEST PUSH3 0x1C0 PUSH4 0x5F5E100 PUSH3 0x1BA PUSH3 0x1B3 PUSH3 0x1AD PUSH3 0x5D0 JUMP JUMPDEST PUSH3 0x131 JUMP JUMPDEST SWAP2 PUSH3 0x149 JUMP JUMPDEST PUSH3 0x159 JUMP JUMPDEST SWAP1 PUSH3 0x5DC JUMP JUMPDEST SWAP1 PUSH3 0x80 SWAP3 SWAP2 PUSH3 0x210 JUMP JUMPDEST PUSH3 0xEC PUSH1 0x1 PUSH3 0x149 JUMP JUMPDEST SWAP1 PUSH1 0x0 NOT SWAP1 JUMPDEST SWAP2 DUP2 NOT AND SWAP2 AND OR SWAP1 JUMP JUMPDEST SWAP1 PUSH3 0x204 PUSH3 0xEC PUSH3 0x20C SWAP3 PUSH3 0x149 JUMP JUMPDEST DUP3 SLOAD PUSH3 0x1E0 JUMP JUMPDEST SWAP1 SSTORE JUMP JUMPDEST SWAP1 PUSH3 0x21D SWAP3 SWAP2 PUSH3 0x27B JUMP JUMPDEST PUSH3 0x80 PUSH3 0x22B PUSH3 0x1D4 JUMP JUMPDEST PUSH1 0x6 PUSH3 0x1F0 JUMP JUMPDEST PUSH3 0x243 PUSH3 0xEC PUSH3 0xEC SWAP3 SWAP1 JUMP JUMPDEST PUSH1 0x1 PUSH1 0x1 PUSH1 0xA0 SHL SUB AND SWAP1 JUMP JUMPDEST PUSH3 0xEC SWAP1 PUSH3 0x233 JUMP JUMPDEST PUSH3 0x265 SWAP1 PUSH3 0x243 JUMP JUMPDEST SWAP1 MSTORE JUMP JUMPDEST PUSH1 0x20 DUP2 ADD SWAP3 SWAP2 PUSH3 0x80 SWAP2 SWAP1 PUSH3 0x25A JUMP JUMPDEST SWAP2 PUSH3 0x287 SWAP2 PUSH3 0x4CD JUMP JUMPDEST PUSH3 0x293 PUSH1 0x0 PUSH3 0x24F JUMP JUMPDEST PUSH3 0x29E DUP2 PUSH3 0x243 JUMP JUMPDEST PUSH3 0x2A9 DUP4 PUSH3 0x243 JUMP JUMPDEST EQ PUSH3 0x2BB JUMPI POP PUSH3 0x80 SWAP1 PUSH3 0x556 JUMP JUMPDEST PUSH3 0x2E1 SWAP1 PUSH3 0x2CA PUSH1 0x40 MLOAD SWAP1 JUMP JUMPDEST PUSH4 0x1E4FBDF7 PUSH1 0xE0 SHL DUP2 MSTORE SWAP2 DUP3 SWAP2 PUSH1 0x4 DUP4 ADD PUSH3 0x269 JUMP JUMPDEST SUB SWAP1 REVERT JUMPDEST PUSH4 0x4E487B71 PUSH1 0xE0 SHL PUSH1 0x0 MSTORE PUSH1 0x22 PUSH1 0x4 MSTORE PUSH1 0x24 PUSH1 0x0 REVERT JUMPDEST SWAP1 PUSH1 0x1 PUSH1 0x2 DUP4 DIV SWAP3 AND DUP1 ISZERO PUSH3 0x31E JUMPI JUMPDEST PUSH1 0x20 DUP4 LT EQ PUSH3 0x318 JUMPI JUMP JUMPDEST PUSH3 0x2E5 JUMP JUMPDEST SWAP2 PUSH1 0x7F AND SWAP2 PUSH3 0x30C JUMP JUMPDEST SWAP2 PUSH1 0x0 NOT PUSH1 0x8 SWAP3 SWAP1 SWAP3 MUL SWAP2 DUP3 SHL SWAP2 SHL PUSH3 0x1E6 JUMP JUMPDEST SWAP2 SWAP1 PUSH3 0x353 PUSH3 0xEC PUSH3 0x20C SWAP4 PUSH3 0x149 JUMP JUMPDEST SWAP1 DUP4 SLOAD PUSH3 0x329 JUMP JUMPDEST PUSH3 0x80 SWAP2 PUSH1 0x0 SWAP2 PUSH3 0x33E JUMP JUMPDEST DUP2 DUP2 LT PUSH3 0x376 JUMPI POP POP JUMP JUMPDEST DUP1 PUSH3 0x386 PUSH1 0x0 PUSH1 0x1 SWAP4 PUSH3 0x35C JUMP JUMPDEST ADD PUSH3 0x36A JUMP JUMPDEST SWAP2 SWAP1 PUSH1 0x1F DUP2 GT PUSH3 0x39D JUMPI POP POP POP JUMP JUMPDEST PUSH3 0x3B1 PUSH3 0x80 SWAP4 PUSH1 0x0 MSTORE PUSH1 0x20 PUSH1 0x0 KECCAK256 SWAP1 JUMP JUMPDEST SWAP1 PUSH1 0x20 PUSH1 0x1F DUP5 ADD DUP2 SWAP1 DIV DUP4 ADD SWAP4 LT PUSH3 0x3D5 JUMPI JUMPDEST PUSH1 0x20 PUSH1 0x1F SWAP1 SWAP2 ADD DIV ADD SWAP1 PUSH3 0x36A JUMP JUMPDEST SWAP1 SWAP2 POP DUP2 SWAP1 PUSH3 0x3C5 JUMP JUMPDEST SWAP1 PUSH3 0x3EA DUP2 MLOAD SWAP1 JUMP JUMPDEST SWAP1 PUSH1 0x1 PUSH1 0x1 PUSH1 0x40 SHL SUB DUP3 GT PUSH3 0x63 JUMPI PUSH3 0x412 DUP3 PUSH3 0x40B DUP6 SLOAD PUSH3 0x2FB JUMP JUMPDEST DUP6 PUSH3 0x38D JUMP JUMPDEST PUSH1 0x20 SWAP1 PUSH1 0x1F DUP4 GT PUSH1 0x1 EQ PUSH3 0x451 JUMPI PUSH3 0x20C SWAP3 SWAP2 PUSH1 0x0 SWAP2 DUP4 PUSH3 0x445 JUMPI JUMPDEST POP POP PUSH1 0x0 NOT PUSH1 0x8 DUP4 MUL SHR NOT AND SWAP1 PUSH1 0x2 MUL OR SWAP1 JUMP JUMPDEST ADD MLOAD SWAP1 POP CODESIZE DUP1 PUSH3 0x431 JUMP JUMPDEST PUSH1 0x1F NOT DUP4 AND SWAP2 PUSH3 0x467 DUP6 PUSH1 0x0 MSTORE PUSH1 0x20 PUSH1 0x0 KECCAK256 SWAP1 JUMP JUMPDEST SWAP3 PUSH1 0x0 JUMPDEST DUP2 DUP2 LT PUSH3 0x4A8 JUMPI POP SWAP2 PUSH1 0x2 SWAP4 SWAP2 DUP6 PUSH1 0x1 SWAP7 SWAP5 LT PUSH3 0x48E JUMPI JUMPDEST POP POP POP MUL ADD SWAP1 SSTORE JUMP JUMPDEST ADD MLOAD PUSH1 0x0 NOT PUSH1 0x8 PUSH1 0x1F DUP6 AND MUL SHR NOT AND SWAP1 SSTORE CODESIZE DUP1 DUP1 PUSH3 0x485 JUMP JUMPDEST SWAP2 SWAP4 PUSH1 0x20 PUSH1 0x1 DUP2 SWAP3 DUP8 DUP8 ADD MLOAD DUP2 SSTORE ADD SWAP6 ADD SWAP3 ADD PUSH3 0x46B JUMP JUMPDEST SWAP1 PUSH3 0x80 SWAP2 PUSH3 0x3E0 JUMP JUMPDEST SWAP1 PUSH3 0x4DF PUSH3 0x80 SWAP3 PUSH1 0x3 PUSH3 0x4C1 JUMP JUMPDEST PUSH1 0x4 PUSH3 0x4C1 JUMP JUMPDEST PUSH3 0xEC SWAP1 PUSH3 0x243 JUMP JUMPDEST PUSH3 0xEC SWAP1 SLOAD PUSH3 0x4E7 JUMP JUMPDEST SWAP1 PUSH1 0x1 PUSH1 0x1 PUSH1 0xA0 SHL SUB SWAP1 PUSH3 0x1E6 JUMP JUMPDEST PUSH3 0xEC SWAP1 PUSH3 0x243 SWAP1 PUSH1 0x1 PUSH1 0x1 PUSH1 0xA0 SHL SUB AND DUP3 JUMP JUMPDEST PUSH3 0xEC SWAP1 PUSH3 0x50E JUMP JUMPDEST PUSH3 0xEC SWAP1 PUSH3 0x524 JUMP JUMPDEST SWAP1 PUSH3 0x54E PUSH3 0xEC PUSH3 0x20C SWAP3 PUSH3 0x52F JUMP JUMPDEST DUP3 SLOAD PUSH3 0x4FE JUMP JUMPDEST PUSH3 0x562 PUSH1 0x5 PUSH3 0x4F2 JUMP JUMPDEST SWAP1 PUSH3 0x570 DUP2 PUSH1 0x5 PUSH3 0x53A JUMP JUMPDEST PUSH3 0x5A7 PUSH3 0x5A0 PUSH32 0x8BE0079C531659141344CD1FD0A4F28419497F9722A3DAAFE3B4186F6B6457E0 SWAP4 PUSH3 0x52F JUMP JUMPDEST SWAP2 PUSH3 0x52F JUMP JUMPDEST SWAP2 PUSH3 0x5B2 PUSH1 0x40 MLOAD SWAP1 JUMP JUMPDEST DUP1 DUP1 JUMPDEST SUB SWAP1 LOG3 JUMP JUMPDEST PUSH3 0x5CA PUSH3 0xEC PUSH3 0xEC SWAP3 SWAP1 JUMP JUMPDEST PUSH1 0xFF AND SWAP1 JUMP JUMPDEST PUSH3 0xEC PUSH1 0x12 PUSH3 0x5BA JUMP JUMPDEST SWAP2 SWAP1 PUSH3 0x5EA PUSH1 0x0 PUSH3 0x24F JUMP JUMPDEST SWAP3 PUSH3 0x5F6 DUP5 PUSH3 0x243 JUMP JUMPDEST PUSH3 0x601 DUP3 PUSH3 0x243 JUMP JUMPDEST EQ PUSH3 0x613 JUMPI PUSH3 0x80 SWAP3 SWAP4 PUSH3 0x6A4 JUMP JUMPDEST PUSH3 0x2E1 DUP5 PUSH3 0x622 PUSH1 0x40 MLOAD SWAP1 JUMP JUMPDEST PUSH4 0xEC442F05 PUSH1 0xE0 SHL DUP2 MSTORE SWAP2 DUP3 SWAP2 PUSH1 0x4 DUP4 ADD PUSH3 0x269 JUMP JUMPDEST SWAP1 PUSH3 0x645 SWAP1 PUSH3 0x52F JUMP JUMPDEST PUSH1 0x0 MSTORE PUSH1 0x20 MSTORE PUSH1 0x40 PUSH1 0x0 KECCAK256 SWAP1 JUMP JUMPDEST PUSH3 0xEC SWAP1 DUP2 JUMP JUMPDEST PUSH3 0xEC SWAP1 SLOAD PUSH3 0x653 JUMP JUMPDEST PUSH1 0x40 SWAP1 PUSH3 0x692 PUSH3 0x80 SWAP5 SWAP7 SWAP6 SWAP4 SWAP7 PUSH3 0x68B PUSH1 0x60 DUP5 ADD SWAP9 PUSH1 0x0 DUP6 ADD SWAP1 PUSH3 0x25A JUMP JUMPDEST PUSH1 0x20 DUP4 ADD MSTORE JUMP JUMPDEST ADD MSTORE JUMP JUMPDEST SWAP2 SWAP1 DUP3 ADD DUP1 SWAP3 GT PUSH3 0x143 JUMPI JUMP JUMPDEST DUP2 PUSH1 0x0 PUSH3 0x6B2 DUP2 PUSH3 0x24F JUMP JUMPDEST PUSH3 0x6BD DUP2 PUSH3 0x243 JUMP JUMPDEST PUSH3 0x6C8 DUP6 PUSH3 0x243 JUMP JUMPDEST SUB PUSH3 0x7AC JUMPI PUSH3 0x6FC SWAP1 PUSH3 0x6F6 PUSH3 0x6EE DUP9 PUSH3 0x6E8 PUSH1 0x2 PUSH3 0x65B JUMP JUMPDEST PUSH3 0x696 JUMP JUMPDEST PUSH1 0x2 PUSH3 0x1F0 JUMP JUMPDEST PUSH3 0x243 JUMP JUMPDEST PUSH3 0x707 DUP4 PUSH3 0x243 JUMP JUMPDEST SUB PUSH3 0x77B JUMPI POP POP PUSH3 0x728 PUSH3 0x6EE DUP5 PUSH3 0x724 PUSH1 0x2 PUSH3 0x65B JUMP JUMPDEST SUB SWAP1 JUMP JUMPDEST PUSH3 0x5B5 PUSH3 0x763 PUSH3 0x75C PUSH32 0xDDF252AD1BE2C89B69C2B068FC378DAA952BA7F163C4A11628F55A4DF523B3EF SWAP4 PUSH3 0x52F JUMP JUMPDEST SWAP4 PUSH3 0x52F JUMP JUMPDEST SWAP4 PUSH3 0x76E PUSH1 0x40 MLOAD SWAP1 JUMP JUMPDEST SWAP2 DUP3 SWAP2 DUP3 SWAP1 DUP2 MSTORE PUSH1 0x20 ADD SWAP1 JUMP JUMPDEST PUSH3 0x7A6 SWAP2 PUSH3 0x78B SWAP2 PUSH3 0x639 JUMP JUMPDEST PUSH3 0x79F DUP6 PUSH3 0x79B DUP4 PUSH3 0x65B JUMP JUMPDEST ADD SWAP1 JUMP JUMPDEST SWAP1 PUSH3 0x1F0 JUMP JUMPDEST PUSH3 0x728 JUMP JUMPDEST SWAP1 SWAP2 POP PUSH3 0x7C5 PUSH3 0x7BF DUP5 DUP5 PUSH3 0x639 JUMP JUMPDEST PUSH3 0x65B JUMP JUMPDEST DUP6 DUP2 LT PUSH3 0x7F4 JUMPI DUP5 SWAP3 SWAP2 PUSH3 0x6F6 PUSH3 0x7E2 DUP9 PUSH3 0x6FC SWAP5 SUB SWAP1 JUMP JUMPDEST PUSH3 0x7EE DUP8 DUP7 PUSH3 0x639 JUMP JUMPDEST PUSH3 0x1F0 JUMP JUMPDEST DUP4 PUSH3 0x2E1 DUP8 PUSH3 0x804 PUSH1 0x40 MLOAD SWAP1 JUMP JUMPDEST PUSH4 0x391434E3 PUSH1 0xE2 SHL DUP2 MSTORE SWAP4 DUP5 SWAP4 PUSH1 0x4 DUP6 ADD PUSH3 0x667 JUMP INVALID PUSH1 0x80 PUSH1 0x40 MSTORE PUSH1 0x4 CALLDATASIZE LT ISZERO PUSH2 0x12 JUMPI PUSH1 0x0 DUP1 REVERT JUMPDEST PUSH1 0x0 CALLDATALOAD PUSH1 0xE0 SHR DUP1 PUSH4 0x639FFAD EQ PUSH2 0x202 JUMPI DUP1 PUSH4 0x6FDDE03 EQ PUSH2 0x1FD JUMPI DUP1 PUSH4 0x95EA7B3 EQ PUSH2 0x1F8 JUMPI DUP1 PUSH4 0xAB50A6A EQ PUSH2 0x1F3 JUMPI DUP1 PUSH4 0xE58BA33 EQ PUSH2 0x1EE JUMPI DUP1 PUSH4 0x18160DDD EQ PUSH2 0x1E9 JUMPI DUP1 PUSH4 0x218B5382 EQ PUSH2 0x1E4 JUMPI DUP1 PUSH4 0x23B872DD EQ PUSH2 0x1DF JUMPI DUP1 PUSH4 0x313CE567 EQ PUSH2 0x1DA JUMPI DUP1 PUSH4 0x349195F9 EQ PUSH2 0x1D5 JUMPI DUP1 PUSH4 0x3F4BA83A EQ PUSH2 0x1D0 JUMPI DUP1 PUSH4 0x5C975ABB EQ PUSH2 0x1CB JUMPI DUP1 PUSH4 0x68A46A19 EQ PUSH2 0x1C6 JUMPI DUP1 PUSH4 0x70A08231 EQ PUSH2 0x1C1 JUMPI DUP1 PUSH4 0x715018A6 EQ PUSH2 0x1BC JUMPI DUP1 PUSH4 0x7EDCE370 EQ PUSH2 0x1B7 JUMPI DUP1 PUSH4 0x8456CB59 EQ PUSH2 0x1B2 JUMPI DUP1 PUSH4 0x8DA5CB5B EQ PUSH2 0x1AD JUMPI DUP1 PUSH4 0x8FC6258B EQ PUSH2 0x1A8 JUMPI DUP1 PUSH4 0x95D89B41 EQ PUSH2 0x1A3 JUMPI DUP1 PUSH4 0x96C82E57 EQ PUSH2 0x19E JUMPI DUP1 PUSH4 0xA9059CBB EQ PUSH2 0x199 JUMPI DUP1 PUSH4 0xC2D6C0F0 EQ PUSH2 0x194 JUMPI DUP1 PUSH4 0xCACA95A4 EQ PUSH2 0x18F JUMPI DUP1 PUSH4 0xCF50B152 EQ PUSH2 0x18A JUMPI DUP1 PUSH4 0xDD62ED3E EQ PUSH2 0x185 JUMPI DUP1 PUSH4 0xE4A28A52 EQ PUSH2 0x180 JUMPI DUP1 PUSH4 0xEB91D37E EQ PUSH2 0x17B JUMPI DUP1 PUSH4 0xF1A640F8 EQ PUSH2 0x176 JUMPI DUP1 PUSH4 0xF2FDE38B EQ PUSH2 0x171 JUMPI PUSH4 0xFA7295D0 SUB PUSH2 0x207 JUMPI PUSH2 0xD75 JUMP JUMPDEST PUSH2 0xD5D JUMP JUMPDEST PUSH2 0xD42 JUMP JUMPDEST PUSH2 0xD15 JUMP JUMPDEST PUSH2 0xCFA JUMP JUMPDEST PUSH2 0xCCB JUMP JUMPDEST PUSH2 0xC7E JUMP JUMPDEST PUSH2 0xB92 JUMP JUMPDEST PUSH2 0xB63 JUMP JUMPDEST PUSH2 0xB1D JUMP JUMPDEST PUSH2 0xB02 JUMP JUMPDEST PUSH2 0xAC5 JUMP JUMPDEST PUSH2 0xAA9 JUMP JUMPDEST PUSH2 0xA2B JUMP JUMPDEST PUSH2 0xA13 JUMP JUMPDEST PUSH2 0x9EC JUMP JUMPDEST PUSH2 0x94D JUMP JUMPDEST PUSH2 0x932 JUMP JUMPDEST PUSH2 0x903 JUMP JUMPDEST PUSH2 0x751 JUMP JUMPDEST PUSH2 0x739 JUMP JUMPDEST PUSH2 0x71D JUMP JUMPDEST PUSH2 0x6EE JUMP JUMPDEST PUSH2 0x6D2 JUMP JUMPDEST PUSH2 0x687 JUMP JUMPDEST PUSH2 0x65A JUMP JUMPDEST PUSH2 0x629 JUMP JUMPDEST PUSH2 0x3E9 JUMP JUMPDEST PUSH2 0x39C JUMP JUMPDEST PUSH2 0x326 JUMP JUMPDEST PUSH2 0x28D JUMP JUMPDEST PUSH1 0x0 DUP1 REVERT JUMPDEST SWAP1 SWAP2 DUP3 PUSH1 0x1F DUP4 ADD SLT ISZERO PUSH2 0x207 JUMPI DUP2 CALLDATALOAD SWAP2 PUSH8 0xFFFFFFFFFFFFFFFF DUP4 GT PUSH2 0x207 JUMPI PUSH1 0x20 ADD SWAP3 PUSH1 0x1 DUP4 MUL DUP5 ADD GT PUSH2 0x207 JUMPI JUMP JUMPDEST DUP1 JUMPDEST SUB PUSH2 0x207 JUMPI JUMP JUMPDEST SWAP1 POP CALLDATALOAD SWAP1 PUSH2 0x252 DUP3 PUSH2 0x23C JUMP JUMPDEST JUMP JUMPDEST SWAP2 PUSH1 0x40 DUP4 DUP4 SUB SLT PUSH2 0x207 JUMPI DUP3 CALLDATALOAD PUSH8 0xFFFFFFFFFFFFFFFF DUP2 GT PUSH2 0x207 JUMPI PUSH2 0x27F DUP4 PUSH2 0x28A SWAP3 DUP7 ADD PUSH2 0x20C JUMP JUMPDEST SWAP4 SWAP1 SWAP5 PUSH1 0x20 ADD PUSH2 0x245 JUMP JUMPDEST SWAP1 JUMP JUMPDEST CALLVALUE PUSH2 0x207 JUMPI PUSH2 0x2A6 PUSH2 0x2A0 CALLDATASIZE PUSH1 0x4 PUSH2 0x254 JUMP JUMPDEST SWAP2 PUSH2 0x1F0F JUMP JUMPDEST PUSH1 0x40 MLOAD STOP JUMPDEST SUB SWAP1 RETURN JUMPDEST PUSH1 0x0 SWAP2 SUB SLT PUSH2 0x207 JUMPI JUMP JUMPDEST PUSH1 0x0 JUMPDEST DUP4 DUP2 LT PUSH2 0x2CD JUMPI POP POP PUSH1 0x0 SWAP2 ADD MSTORE JUMP JUMPDEST DUP2 DUP2 ADD MLOAD DUP4 DUP3 ADD MSTORE PUSH1 0x20 ADD PUSH2 0x2BD JUMP JUMPDEST PUSH2 0x2FE PUSH2 0x307 PUSH1 0x20 SWAP4 PUSH2 0x311 SWAP4 PUSH2 0x2F2 DUP2 MLOAD SWAP1 JUMP JUMPDEST DUP1 DUP4 MSTORE SWAP4 DUP5 SWAP3 PUSH1 0x20 ADD SWAP1 JUMP JUMPDEST SWAP6 DUP7 SWAP2 ADD PUSH2 0x2BA JUMP JUMPDEST PUSH1 0x1F ADD PUSH1 0x1F NOT AND SWAP1 JUMP JUMPDEST ADD SWAP1 JUMP JUMPDEST PUSH1 0x20 DUP1 DUP3 MSTORE PUSH2 0x28A SWAP3 SWAP2 ADD SWAP1 PUSH2 0x2DD JUMP JUMPDEST CALLVALUE PUSH2 0x207 JUMPI PUSH2 0x336 CALLDATASIZE PUSH1 0x4 PUSH2 0x2AF JUMP JUMPDEST PUSH2 0x2AB PUSH2 0x341 PUSH2 0xF56 JUMP JUMPDEST PUSH1 0x40 MLOAD SWAP2 DUP3 SWAP2 DUP3 PUSH2 0x315 JUMP JUMPDEST PUSH1 0x1 PUSH1 0x1 PUSH1 0xA0 SHL SUB AND SWAP1 JUMP JUMPDEST PUSH1 0x1 PUSH1 0x1 PUSH1 0xA0 SHL SUB DUP2 AND PUSH2 0x23E JUMP JUMPDEST SWAP1 POP CALLDATALOAD SWAP1 PUSH2 0x252 DUP3 PUSH2 0x359 JUMP JUMPDEST SWAP2 SWAP1 PUSH1 0x40 DUP4 DUP3 SUB SLT PUSH2 0x207 JUMPI PUSH2 0x28A SWAP1 PUSH2 0x38F DUP2 DUP6 PUSH2 0x368 JUMP JUMPDEST SWAP4 PUSH1 0x20 ADD PUSH2 0x245 JUMP JUMPDEST SWAP1 MSTORE JUMP JUMPDEST CALLVALUE PUSH2 0x207 JUMPI PUSH2 0x2AB PUSH2 0x3B8 PUSH2 0x3B2 CALLDATASIZE PUSH1 0x4 PUSH2 0x375 JUMP JUMPDEST SWAP1 PUSH2 0xFDF JUMP JUMPDEST PUSH1 0x40 MLOAD SWAP2 DUP3 SWAP2 DUP3 SWAP1 ISZERO ISZERO DUP2 MSTORE PUSH1 0x20 ADD SWAP1 JUMP JUMPDEST PUSH2 0x28A PUSH2 0x28A PUSH2 0x28A SWAP3 SWAP1 JUMP JUMPDEST PUSH2 0x28A PUSH1 0xA PUSH2 0x3CA JUMP JUMPDEST PUSH2 0x28A PUSH2 0x3D7 JUMP JUMPDEST CALLVALUE PUSH2 0x207 JUMPI PUSH2 0x3F9 CALLDATASIZE PUSH1 0x4 PUSH2 0x2AF JUMP JUMPDEST PUSH2 0x2AB PUSH2 0x404 PUSH2 0x3E1 JUMP JUMPDEST PUSH1 0x40 MLOAD JUMPDEST SWAP2 DUP3 SWAP2 DUP3 SWAP1 DUP2 MSTORE PUSH1 0x20 ADD SWAP1 JUMP JUMPDEST PUSH4 0x4E487B71 PUSH1 0xE0 SHL PUSH1 0x0 MSTORE PUSH1 0x41 PUSH1 0x4 MSTORE PUSH1 0x24 PUSH1 0x0 REVERT JUMPDEST SWAP1 PUSH1 0x1F ADD PUSH1 0x1F NOT AND DUP2 ADD SWAP1 DUP2 LT PUSH8 0xFFFFFFFFFFFFFFFF DUP3 GT OR PUSH2 0x44D JUMPI PUSH1 0x40 MSTORE JUMP JUMPDEST PUSH2 0x415 JUMP JUMPDEST SWAP1 PUSH2 0x252 PUSH2 0x45F PUSH1 0x40 MLOAD SWAP1 JUMP JUMPDEST SWAP3 DUP4 PUSH2 0x42B JUMP JUMPDEST PUSH8 0xFFFFFFFFFFFFFFFF DUP2 GT PUSH2 0x44D JUMPI PUSH1 0x20 SWAP1 PUSH1 0x1F ADD PUSH1 0x1F NOT AND ADD SWAP1 JUMP JUMPDEST SWAP1 DUP3 PUSH1 0x0 SWAP4 SWAP3 DUP3 CALLDATACOPY ADD MSTORE JUMP JUMPDEST SWAP1 SWAP3 SWAP2 SWAP3 PUSH2 0x4A4 PUSH2 0x49F DUP3 PUSH2 0x466 JUMP JUMPDEST PUSH2 0x452 JUMP JUMPDEST SWAP4 DUP2 DUP6 MSTORE PUSH1 0x20 DUP6 ADD SWAP1 DUP3 DUP5 ADD GT PUSH2 0x207 JUMPI PUSH2 0x252 SWAP3 PUSH2 0x483 JUMP JUMPDEST SWAP1 DUP1 PUSH1 0x1F DUP4 ADD SLT ISZERO PUSH2 0x207 JUMPI DUP2 PUSH1 0x20 PUSH2 0x28A SWAP4 CALLDATALOAD SWAP2 ADD PUSH2 0x48F JUMP JUMPDEST SWAP1 PUSH1 0x20 DUP3 DUP3 SUB SLT PUSH2 0x207 JUMPI DUP2 CALLDATALOAD PUSH8 0xFFFFFFFFFFFFFFFF DUP2 GT PUSH2 0x207 JUMPI PUSH2 0x28A SWAP3 ADD PUSH2 0x4BE JUMP JUMPDEST PUSH2 0x311 PUSH2 0x517 SWAP3 PUSH1 0x20 SWAP3 PUSH2 0x511 DUP2 MLOAD SWAP1 JUMP JUMPDEST SWAP5 DUP6 SWAP3 SWAP1 JUMP JUMPDEST SWAP4 DUP5 SWAP2 ADD PUSH2 0x2BA JUMP JUMPDEST PUSH2 0x530 PUSH2 0x311 SWAP2 PUSH1 0x20 SWAP5 SWAP4 PUSH2 0x4FF JUMP JUMPDEST SWAP2 DUP3 MSTORE JUMP JUMPDEST PUSH2 0x54A PUSH2 0x541 PUSH1 0x40 MLOAD SWAP1 JUMP JUMPDEST SWAP3 DUP4 SWAP3 DUP4 PUSH2 0x520 JUMP JUMPDEST SUB SWAP1 KECCAK256 SWAP1 JUMP JUMPDEST PUSH2 0x28A SWAP2 PUSH2 0x535 JUMP JUMPDEST PUSH2 0x28A SWAP1 DUP2 JUMP JUMPDEST PUSH2 0x28A SWAP1 SLOAD PUSH2 0x559 JUMP JUMPDEST PUSH2 0x28A SWAP1 JUMPDEST PUSH1 0xFF AND SWAP1 JUMP JUMPDEST PUSH2 0x28A SWAP1 SLOAD PUSH2 0x56A JUMP JUMPDEST PUSH2 0x58A SWAP1 PUSH1 0x8 PUSH2 0x550 JUMP JUMPDEST SWAP1 PUSH2 0x59C DUP3 SLOAD PUSH1 0x1 PUSH1 0x1 PUSH1 0xA0 SHL SUB AND SWAP1 JUMP JUMPDEST SWAP2 PUSH2 0x5A9 PUSH1 0x1 DUP3 ADD PUSH2 0x560 JUMP JUMPDEST SWAP2 PUSH2 0x28A PUSH1 0x3 PUSH2 0x5BB PUSH1 0x2 DUP6 ADD PUSH2 0x575 JUMP JUMPDEST SWAP4 ADD PUSH2 0x560 JUMP JUMPDEST PUSH2 0x34D PUSH2 0x28A PUSH2 0x28A SWAP3 PUSH1 0x1 PUSH1 0x1 PUSH1 0xA0 SHL SUB AND SWAP1 JUMP JUMPDEST PUSH2 0x28A SWAP1 PUSH2 0x5C2 JUMP JUMPDEST PUSH2 0x28A SWAP1 PUSH2 0x5D8 JUMP JUMPDEST PUSH2 0x398 SWAP1 PUSH2 0x5E1 JUMP JUMPDEST PUSH2 0x625 PUSH2 0x252 SWAP5 PUSH2 0x61C PUSH1 0x60 SWAP5 SWAP9 SWAP8 SWAP6 PUSH2 0x615 PUSH1 0x80 DUP7 ADD SWAP11 PUSH1 0x0 DUP8 ADD SWAP1 PUSH2 0x5EA JUMP JUMPDEST PUSH1 0x20 DUP6 ADD MSTORE JUMP JUMPDEST ISZERO ISZERO PUSH1 0x40 DUP4 ADD MSTORE JUMP JUMPDEST ADD MSTORE JUMP JUMPDEST CALLVALUE PUSH2 0x207 JUMPI PUSH2 0x2AB PUSH2 0x644 PUSH2 0x63F CALLDATASIZE PUSH1 0x4 PUSH2 0x4D9 JUMP JUMPDEST PUSH2 0x57F JUMP JUMPDEST SWAP1 PUSH2 0x651 SWAP5 SWAP3 SWAP5 PUSH1 0x40 MLOAD SWAP1 JUMP JUMPDEST SWAP5 DUP6 SWAP5 DUP6 PUSH2 0x5F3 JUMP JUMPDEST CALLVALUE PUSH2 0x207 JUMPI PUSH2 0x66A CALLDATASIZE PUSH1 0x4 PUSH2 0x2AF JUMP JUMPDEST PUSH2 0x2AB PUSH2 0x404 PUSH2 0xF81 JUMP JUMPDEST PUSH2 0x28A PUSH1 0x64 PUSH2 0x3CA JUMP JUMPDEST PUSH2 0x28A PUSH2 0x675 JUMP JUMPDEST CALLVALUE PUSH2 0x207 JUMPI PUSH2 0x697 CALLDATASIZE PUSH1 0x4 PUSH2 0x2AF JUMP JUMPDEST PUSH2 0x2AB PUSH2 0x404 PUSH2 0x67F JUMP JUMPDEST SWAP1 SWAP2 PUSH1 0x60 DUP3 DUP5 SUB SLT PUSH2 0x207 JUMPI PUSH2 0x28A PUSH2 0x6BB DUP5 DUP5 PUSH2 0x368 JUMP JUMPDEST SWAP4 PUSH2 0x6C9 DUP2 PUSH1 0x20 DUP7 ADD PUSH2 0x368 JUMP JUMPDEST SWAP4 PUSH1 0x40 ADD PUSH2 0x245 JUMP JUMPDEST CALLVALUE PUSH2 0x207 JUMPI PUSH2 0x2AB PUSH2 0x3B8 PUSH2 0x6E8 CALLDATASIZE PUSH1 0x4 PUSH2 0x6A2 JUMP JUMPDEST SWAP2 PUSH2 0x2685 JUMP JUMPDEST CALLVALUE PUSH2 0x207 JUMPI PUSH2 0x6FE CALLDATASIZE PUSH1 0x4 PUSH2 0x2AF JUMP JUMPDEST PUSH2 0x2AB PUSH2 0x709 PUSH2 0xF77 JUMP JUMPDEST PUSH1 0x40 MLOAD SWAP2 DUP3 SWAP2 DUP3 PUSH1 0xFF SWAP1 SWAP2 AND DUP2 MSTORE PUSH1 0x20 ADD SWAP1 JUMP JUMPDEST CALLVALUE PUSH2 0x207 JUMPI PUSH2 0x72D CALLDATASIZE PUSH1 0x4 PUSH2 0x2AF JUMP JUMPDEST PUSH2 0x2AB PUSH2 0x404 PUSH1 0x9 SLOAD SWAP1 JUMP JUMPDEST CALLVALUE PUSH2 0x207 JUMPI PUSH2 0x749 CALLDATASIZE PUSH1 0x4 PUSH2 0x2AF JUMP JUMPDEST PUSH2 0x2A6 PUSH2 0x2380 JUMP JUMPDEST CALLVALUE PUSH2 0x207 JUMPI PUSH2 0x761 CALLDATASIZE PUSH1 0x4 PUSH2 0x2AF JUMP JUMPDEST PUSH2 0x2AB PUSH2 0x3B8 PUSH2 0x1153 JUMP JUMPDEST SWAP1 PUSH1 0x20 DUP3 DUP3 SUB SLT PUSH2 0x207 JUMPI PUSH2 0x28A SWAP2 PUSH2 0x245 JUMP JUMPDEST PUSH4 0x4E487B71 PUSH1 0xE0 SHL PUSH1 0x0 MSTORE PUSH1 0x32 PUSH1 0x4 MSTORE PUSH1 0x24 PUSH1 0x0 REVERT JUMPDEST DUP1 SLOAD DUP3 LT ISZERO PUSH2 0x7B9 JUMPI PUSH2 0x7B0 PUSH1 0x1 SWAP2 PUSH1 0x0 MSTORE PUSH1 0x20 PUSH1 0x0 KECCAK256 SWAP1 JUMP JUMPDEST SWAP2 MUL ADD SWAP1 PUSH1 0x0 SWAP1 JUMP JUMPDEST PUSH2 0x780 JUMP JUMPDEST PUSH4 0x4E487B71 PUSH1 0xE0 SHL PUSH1 0x0 MSTORE PUSH1 0x0 PUSH1 0x4 MSTORE PUSH1 0x24 PUSH1 0x0 REVERT JUMPDEST PUSH4 0x4E487B71 PUSH1 0xE0 SHL PUSH1 0x0 MSTORE PUSH1 0x22 PUSH1 0x4 MSTORE PUSH1 0x24 PUSH1 0x0 REVERT JUMPDEST SWAP1 PUSH1 0x1 PUSH1 0x2 DUP4 DIV SWAP3 AND DUP1 ISZERO PUSH2 0x80A JUMPI JUMPDEST PUSH1 0x20 DUP4 LT EQ PUSH2 0x805 JUMPI JUMP JUMPDEST PUSH2 0x7D4 JUMP JUMPDEST SWAP2 PUSH1 0x7F AND SWAP2 PUSH2 0x7FA JUMP JUMPDEST DUP1 SLOAD PUSH1 0x0 SWAP4 SWAP3 SWAP2 PUSH2 0x831 PUSH2 0x827 DUP4 PUSH2 0x7EA JUMP JUMPDEST DUP1 DUP6 MSTORE SWAP4 PUSH1 0x20 ADD SWAP1 JUMP JUMPDEST SWAP2 PUSH1 0x1 DUP2 AND SWAP1 DUP2 ISZERO PUSH2 0x883 JUMPI POP PUSH1 0x1 EQ PUSH2 0x84A JUMPI POP POP POP JUMP JUMPDEST PUSH2 0x85D SWAP2 SWAP3 SWAP4 SWAP5 POP PUSH1 0x0 MSTORE PUSH1 0x20 PUSH1 0x0 KECCAK256 SWAP1 JUMP JUMPDEST SWAP2 PUSH1 0x0 SWAP3 JUMPDEST DUP2 DUP5 LT PUSH2 0x86F JUMPI POP POP ADD SWAP1 JUMP JUMPDEST DUP1 SLOAD DUP5 DUP5 ADD MSTORE PUSH1 0x20 SWAP1 SWAP4 ADD SWAP3 PUSH1 0x1 ADD PUSH2 0x862 JUMP JUMPDEST SWAP3 SWAP5 SWAP6 POP POP POP PUSH1 0xFF NOT AND DUP3 MSTORE ISZERO ISZERO PUSH1 0x20 MUL ADD SWAP1 JUMP JUMPDEST SWAP1 PUSH2 0x28A SWAP2 PUSH2 0x814 JUMP JUMPDEST SWAP1 PUSH2 0x252 PUSH2 0x8BC SWAP3 PUSH2 0x8B3 PUSH1 0x40 MLOAD SWAP1 JUMP JUMPDEST SWAP4 DUP5 DUP1 SWAP3 PUSH2 0x898 JUMP JUMPDEST SUB DUP4 PUSH2 0x42B JUMP JUMPDEST SWAP1 PUSH1 0x0 LT PUSH2 0x8D4 JUMPI PUSH2 0x28A SWAP1 PUSH2 0x8A2 JUMP JUMPDEST PUSH2 0x7BE JUMP JUMPDEST PUSH1 0x9 PUSH1 0x0 PUSH2 0x8E5 DUP3 SLOAD SWAP1 JUMP JUMPDEST DUP4 LT ISZERO PUSH2 0x900 JUMPI POP PUSH2 0x28A SWAP2 PUSH2 0x8FA SWAP2 PUSH2 0x796 JUMP JUMPDEST SWAP1 PUSH2 0x8C3 JUMP JUMPDEST DUP1 REVERT JUMPDEST CALLVALUE PUSH2 0x207 JUMPI PUSH2 0x2AB PUSH2 0x341 PUSH2 0x919 CALLDATASIZE PUSH1 0x4 PUSH2 0x76C JUMP JUMPDEST PUSH2 0x8D9 JUMP JUMPDEST SWAP1 PUSH1 0x20 DUP3 DUP3 SUB SLT PUSH2 0x207 JUMPI PUSH2 0x28A SWAP2 PUSH2 0x368 JUMP JUMPDEST CALLVALUE PUSH2 0x207 JUMPI PUSH2 0x2AB PUSH2 0x404 PUSH2 0x948 CALLDATASIZE PUSH1 0x4 PUSH2 0x91E JUMP JUMPDEST PUSH2 0xFA3 JUMP JUMPDEST CALLVALUE PUSH2 0x207 JUMPI PUSH2 0x95D CALLDATASIZE PUSH1 0x4 PUSH2 0x2AF JUMP JUMPDEST PUSH2 0x2A6 PUSH2 0xDC6 JUMP JUMPDEST SWAP1 PUSH2 0x28A SWAP2 PUSH2 0x2DD JUMP JUMPDEST SWAP1 PUSH2 0x985 PUSH2 0x97B DUP4 MLOAD SWAP1 JUMP JUMPDEST DUP1 DUP4 MSTORE SWAP2 PUSH1 0x20 ADD SWAP1 JUMP JUMPDEST SWAP1 DUP2 PUSH2 0x997 PUSH1 0x20 DUP4 MUL DUP5 ADD SWAP5 PUSH1 0x20 ADD SWAP1 JUMP JUMPDEST SWAP3 PUSH1 0x0 SWAP2 JUMPDEST DUP4 DUP4 LT PUSH2 0x9AB JUMPI POP POP POP POP POP SWAP1 JUMP JUMPDEST SWAP1 SWAP2 SWAP3 SWAP4 SWAP5 PUSH1 0x20 PUSH2 0x9CE PUSH2 0x9C7 DUP4 DUP6 PUSH1 0x1 SWAP6 SUB DUP8 MSTORE DUP10 MLOAD PUSH2 0x965 JUMP JUMPDEST SWAP8 PUSH1 0x20 ADD SWAP1 JUMP JUMPDEST SWAP4 ADD SWAP4 ADD SWAP2 SWAP4 SWAP3 SWAP1 PUSH2 0x99C JUMP JUMPDEST PUSH1 0x20 DUP1 DUP3 MSTORE PUSH2 0x28A SWAP3 SWAP2 ADD SWAP1 PUSH2 0x96F JUMP JUMPDEST CALLVALUE PUSH2 0x207 JUMPI PUSH2 0x9FC CALLDATASIZE PUSH1 0x4 PUSH2 0x2AF JUMP JUMPDEST PUSH2 0x2AB PUSH2 0xA07 PUSH2 0x2223 JUMP JUMPDEST PUSH1 0x40 MLOAD SWAP2 DUP3 SWAP2 DUP3 PUSH2 0x9DB JUMP JUMPDEST CALLVALUE PUSH2 0x207 JUMPI PUSH2 0xA23 CALLDATASIZE PUSH1 0x4 PUSH2 0x2AF JUMP JUMPDEST PUSH2 0x2A6 PUSH2 0x2312 JUMP JUMPDEST CALLVALUE PUSH2 0x207 JUMPI PUSH2 0xA3B CALLDATASIZE PUSH1 0x4 PUSH2 0x2AF JUMP JUMPDEST PUSH2 0x2AB PUSH2 0xA50 PUSH1 0x5 SLOAD PUSH1 0x1 PUSH1 0x1 PUSH1 0xA0 SHL SUB AND SWAP1 JUMP JUMPDEST PUSH1 0x40 MLOAD JUMPDEST SWAP2 DUP3 SWAP2 DUP3 PUSH1 0x1 PUSH1 0x1 PUSH1 0xA0 SHL SUB SWAP1 SWAP2 AND DUP2 MSTORE PUSH1 0x20 ADD SWAP1 JUMP JUMPDEST SWAP2 SWAP1 SWAP2 PUSH1 0x60 DUP2 DUP5 SUB SLT PUSH2 0x207 JUMPI DUP1 CALLDATALOAD SWAP2 PUSH8 0xFFFFFFFFFFFFFFFF DUP4 GT PUSH2 0x207 JUMPI PUSH2 0xA99 DUP5 PUSH2 0x28A SWAP5 DUP5 ADD PUSH2 0x20C JUMP JUMPDEST SWAP4 SWAP1 SWAP5 PUSH2 0x6C9 DUP2 PUSH1 0x20 DUP7 ADD PUSH2 0x368 JUMP JUMPDEST CALLVALUE PUSH2 0x207 JUMPI PUSH2 0x2A6 PUSH2 0xABC CALLDATASIZE PUSH1 0x4 PUSH2 0xA6B JUMP JUMPDEST SWAP3 SWAP2 SWAP1 SWAP2 PUSH2 0x18C8 JUMP JUMPDEST CALLVALUE PUSH2 0x207 JUMPI PUSH2 0xAD5 CALLDATASIZE PUSH1 0x4 PUSH2 0x2AF JUMP JUMPDEST PUSH2 0x2AB PUSH2 0x341 PUSH2 0xF60 JUMP JUMPDEST PUSH2 0x28A SWAP2 PUSH1 0x8 MUL SHR DUP2 JUMP JUMPDEST SWAP1 PUSH2 0x28A SWAP2 SLOAD PUSH2 0xAE0 JUMP JUMPDEST PUSH2 0x28A PUSH1 0x0 PUSH1 0xA PUSH2 0xAEB JUMP JUMPDEST CALLVALUE PUSH2 0x207 JUMPI PUSH2 0xB12 CALLDATASIZE PUSH1 0x4 PUSH2 0x2AF JUMP JUMPDEST PUSH2 0x2AB PUSH2 0x404 PUSH2 0xAF6 JUMP JUMPDEST CALLVALUE PUSH2 0x207 JUMPI PUSH2 0x2AB PUSH2 0x3B8 PUSH2 0xB33 CALLDATASIZE PUSH1 0x4 PUSH2 0x375 JUMP JUMPDEST SWAP1 PUSH2 0x242B JUMP JUMPDEST SWAP1 PUSH1 0x20 DUP3 DUP3 SUB SLT PUSH2 0x207 JUMPI DUP2 CALLDATALOAD PUSH8 0xFFFFFFFFFFFFFFFF DUP2 GT PUSH2 0x207 JUMPI PUSH2 0xB5F SWAP3 ADD PUSH2 0x20C JUMP JUMPDEST SWAP1 SWAP2 JUMP JUMPDEST CALLVALUE PUSH2 0x207 JUMPI PUSH2 0x2AB PUSH2 0x3B8 PUSH2 0xB79 CALLDATASIZE PUSH1 0x4 PUSH2 0xB39 JUMP JUMPDEST SWAP1 PUSH2 0x222D JUMP JUMPDEST PUSH2 0x28A PUSH2 0xE10 PUSH2 0x3CA JUMP JUMPDEST PUSH2 0x28A PUSH2 0xB7F JUMP JUMPDEST CALLVALUE PUSH2 0x207 JUMPI PUSH2 0xBA2 CALLDATASIZE PUSH1 0x4 PUSH2 0x2AF JUMP JUMPDEST PUSH2 0x2AB PUSH2 0x404 PUSH2 0xB8A JUMP JUMPDEST SWAP1 PUSH2 0xBCD PUSH2 0xBC6 PUSH2 0xBBC DUP5 MLOAD SWAP1 JUMP JUMPDEST DUP1 DUP5 MSTORE SWAP3 PUSH1 0x20 ADD SWAP1 JUMP JUMPDEST SWAP3 PUSH1 0x20 ADD SWAP1 JUMP JUMPDEST SWAP1 PUSH1 0x0 JUMPDEST DUP2 DUP2 LT PUSH2 0xBDE JUMPI POP POP POP SWAP1 JUMP JUMPDEST SWAP1 SWAP2 SWAP3 PUSH2 0xBFD PUSH2 0xBF6 PUSH1 0x1 SWAP3 DUP7 MLOAD ISZERO ISZERO DUP2 MSTORE PUSH1 0x20 ADD SWAP1 JUMP JUMPDEST SWAP5 PUSH1 0x20 ADD SWAP1 JUMP JUMPDEST SWAP3 SWAP2 ADD PUSH2 0xBD1 JUMP JUMPDEST SWAP1 PUSH2 0xC14 PUSH2 0xBC6 PUSH2 0xBBC DUP5 MLOAD SWAP1 JUMP JUMPDEST SWAP1 PUSH1 0x0 JUMPDEST DUP2 DUP2 LT PUSH2 0xC25 JUMPI POP POP POP SWAP1 JUMP JUMPDEST SWAP1 SWAP2 SWAP3 PUSH2 0xC3B PUSH2 0xBF6 PUSH1 0x1 SWAP3 DUP7 MLOAD DUP2 MSTORE PUSH1 0x20 ADD SWAP1 JUMP JUMPDEST SWAP3 SWAP2 ADD PUSH2 0xC18 JUMP JUMPDEST SWAP2 PUSH2 0xC70 SWAP1 PUSH2 0xC62 PUSH2 0x28A SWAP6 SWAP4 PUSH1 0x60 DUP7 ADD SWAP1 DUP7 DUP3 SUB PUSH1 0x0 DUP9 ADD MSTORE PUSH2 0x96F JUMP JUMPDEST SWAP1 DUP5 DUP3 SUB PUSH1 0x20 DUP7 ADD MSTORE PUSH2 0xBAD JUMP JUMPDEST SWAP2 PUSH1 0x40 DUP2 DUP5 SUB SWAP2 ADD MSTORE PUSH2 0xC05 JUMP JUMPDEST CALLVALUE PUSH2 0x207 JUMPI PUSH2 0xC8E CALLDATASIZE PUSH1 0x4 PUSH2 0x2AF JUMP JUMPDEST PUSH2 0x2AB PUSH2 0xC99 PUSH2 0x279A JUMP JUMPDEST PUSH1 0x40 MLOAD SWAP2 SWAP4 SWAP2 SWAP4 DUP5 SWAP4 DUP5 PUSH2 0xC43 JUMP JUMPDEST SWAP2 SWAP1 PUSH1 0x40 DUP4 DUP3 SUB SLT PUSH2 0x207 JUMPI PUSH2 0x28A SWAP1 PUSH2 0xCC2 DUP2 DUP6 PUSH2 0x368 JUMP JUMPDEST SWAP4 PUSH1 0x20 ADD PUSH2 0x368 JUMP JUMPDEST CALLVALUE PUSH2 0x207 JUMPI PUSH2 0x2AB PUSH2 0x404 PUSH2 0xCE1 CALLDATASIZE PUSH1 0x4 PUSH2 0xCA8 JUMP JUMPDEST SWAP1 PUSH2 0xFBF JUMP JUMPDEST PUSH2 0x28A PUSH2 0x1388 PUSH2 0x3CA JUMP JUMPDEST PUSH2 0x28A PUSH2 0xCE7 JUMP JUMPDEST CALLVALUE PUSH2 0x207 JUMPI PUSH2 0xD0A CALLDATASIZE PUSH1 0x4 PUSH2 0x2AF JUMP JUMPDEST PUSH2 0x2AB PUSH2 0x404 PUSH2 0xCF2 JUMP JUMPDEST CALLVALUE PUSH2 0x207 JUMPI PUSH2 0xD25 CALLDATASIZE PUSH1 0x4 PUSH2 0x2AF JUMP JUMPDEST PUSH2 0x2AB PUSH2 0x404 PUSH2 0x1FE8 JUMP JUMPDEST PUSH2 0x28A PUSH1 0x8 PUSH2 0x3CA JUMP JUMPDEST PUSH2 0x28A PUSH2 0xD30 JUMP JUMPDEST CALLVALUE PUSH2 0x207 JUMPI PUSH2 0xD52 CALLDATASIZE PUSH1 0x4 PUSH2 0x2AF JUMP JUMPDEST PUSH2 0x2AB PUSH2 0x404 PUSH2 0xD3A JUMP JUMPDEST CALLVALUE PUSH2 0x207 JUMPI PUSH2 0x2A6 PUSH2 0xD70 CALLDATASIZE PUSH1 0x4 PUSH2 0x91E JUMP JUMPDEST PUSH2 0xEB7 JUMP JUMPDEST CALLVALUE PUSH2 0x207 JUMPI PUSH2 0x2A6 PUSH2 0xD88 CALLDATASIZE PUSH1 0x4 PUSH2 0xB39 JUMP JUMPDEST SWAP1 PUSH2 0x1E27 JUMP JUMPDEST PUSH2 0xD96 PUSH2 0xDCE JUMP JUMPDEST PUSH2 0x252 PUSH2 0xDB4 JUMP JUMPDEST PUSH2 0x34D PUSH2 0x28A PUSH2 0x28A SWAP3 SWAP1 JUMP JUMPDEST PUSH2 0x28A SWAP1 PUSH2 0xD9E JUMP JUMPDEST PUSH2 0x252 PUSH2 0xDC1 PUSH1 0x0 PUSH2 0xDAB JUMP JUMPDEST PUSH2 0xEF0 JUMP JUMPDEST PUSH2 0x252 PUSH2 0xD8E JUMP JUMPDEST PUSH1 0x5 SLOAD CALLER SWAP1 PUSH1 0x1 PUSH1 0x1 PUSH1 0xA0 SHL SUB AND DUP2 SWAP1 SUB PUSH2 0xDE6 JUMPI POP JUMP JUMPDEST PUSH2 0xE30 SWAP1 PUSH2 0xDF3 PUSH1 0x40 MLOAD SWAP1 JUMP JUMPDEST SWAP2 DUP3 SWAP2 PUSH32 0x118CDAA700000000000000000000000000000000000000000000000000000000 DUP4 MSTORE PUSH1 0x4 DUP4 ADD PUSH1 0x1 PUSH1 0x1 PUSH1 0xA0 SHL SUB SWAP1 SWAP2 AND DUP2 MSTORE PUSH1 0x20 ADD SWAP1 JUMP JUMPDEST SUB SWAP1 REVERT JUMPDEST PUSH2 0x252 SWAP1 PUSH2 0xE40 PUSH2 0xDCE JUMP JUMPDEST PUSH2 0xE4A PUSH1 0x0 PUSH2 0xDAB JUMP JUMPDEST PUSH1 0x1 PUSH1 0x1 PUSH1 0xA0 SHL SUB DUP2 AND PUSH1 0x1 PUSH1 0x1 PUSH1 0xA0 SHL SUB DUP4 AND EQ PUSH2 0xE6D JUMPI POP PUSH2 0x252 SWAP1 PUSH2 0xEF0 JUMP JUMPDEST PUSH2 0xE30 SWAP1 PUSH2 0xE7A PUSH1 0x40 MLOAD SWAP1 JUMP JUMPDEST SWAP2 DUP3 SWAP2 PUSH32 0x1E4FBDF700000000000000000000000000000000000000000000000000000000 DUP4 MSTORE PUSH1 0x4 DUP4 ADD PUSH1 0x1 PUSH1 0x1 PUSH1 0xA0 SHL SUB SWAP1 SWAP2 AND DUP2 MSTORE PUSH1 0x20 ADD SWAP1 JUMP JUMPDEST PUSH2 0x252 SWAP1 PUSH2 0xE34 JUMP JUMPDEST SWAP1 PUSH1 0x1 PUSH1 0x1 PUSH1 0xA0 SHL SUB SWAP1 JUMPDEST SWAP2 DUP2 NOT AND SWAP2 AND OR SWAP1 JUMP JUMPDEST SWAP1 PUSH2 0xEE5 PUSH2 0x28A PUSH2 0xEEC SWAP3 PUSH2 0x5E1 JUMP JUMPDEST DUP3 SLOAD PUSH2 0xEC0 JUMP JUMPDEST SWAP1 SSTORE JUMP JUMPDEST PUSH1 0x5 SLOAD PUSH1 0x1 PUSH1 0x1 PUSH1 0xA0 SHL SUB AND SWAP1 PUSH2 0xF08 DUP2 PUSH1 0x5 PUSH2 0xED5 JUMP JUMPDEST PUSH2 0xF3B PUSH2 0xF35 PUSH32 0x8BE0079C531659141344CD1FD0A4F28419497F9722A3DAAFE3B4186F6B6457E0 SWAP4 PUSH2 0x5E1 JUMP JUMPDEST SWAP2 PUSH2 0x5E1 JUMP JUMPDEST SWAP2 PUSH2 0xF45 PUSH1 0x40 MLOAD SWAP1 JUMP JUMPDEST DUP1 DUP1 JUMPDEST SUB SWAP1 LOG3 JUMP JUMPDEST PUSH2 0x28A SWAP1 PUSH2 0x8A2 JUMP JUMPDEST PUSH2 0x28A PUSH1 0x3 PUSH2 0xF4D JUMP JUMPDEST PUSH2 0x28A PUSH1 0x4 PUSH2 0xF4D JUMP JUMPDEST PUSH2 0x56F PUSH2 0x28A PUSH2 0x28A SWAP3 SWAP1 JUMP JUMPDEST PUSH2 0x28A PUSH1 0x12 PUSH2 0xF6A JUMP JUMPDEST PUSH2 0x28A PUSH1 0x2 PUSH2 0x560 JUMP JUMPDEST SWAP1 PUSH2 0xF95 SWAP1 PUSH2 0x5E1 JUMP JUMPDEST PUSH1 0x0 MSTORE PUSH1 0x20 MSTORE PUSH1 0x40 PUSH1 0x0 KECCAK256 SWAP1 JUMP JUMPDEST PUSH2 0xFBA PUSH2 0x28A SWAP2 PUSH2 0xFB2 PUSH1 0x0 SWAP1 JUMP JUMPDEST POP PUSH1 0x0 PUSH2 0xF8B JUMP JUMPDEST PUSH2 0x560 JUMP JUMPDEST PUSH2 0x28A SWAP2 PUSH2 0xFDA PUSH2 0xFBA SWAP3 PUSH2 0xFD2 PUSH1 0x0 SWAP1 JUMP JUMPDEST POP PUSH1 0x1 PUSH2 0xF8B JUMP JUMPDEST PUSH2 0xF8B JUMP JUMPDEST PUSH2 0xFEA SWAP2 SWAP1 CALLER PUSH2 0xFEF JUMP JUMPDEST PUSH1 0x1 SWAP1 JUMP JUMPDEST SWAP1 SWAP2 PUSH2 0x252 SWAP3 PUSH1 0x1 SWAP3 PUSH2 0x101E JUMP JUMPDEST SWAP1 PUSH1 0x0 NOT SWAP1 PUSH2 0xECB JUMP JUMPDEST SWAP1 PUSH2 0x1017 PUSH2 0x28A PUSH2 0xEEC SWAP3 PUSH2 0x3CA JUMP JUMPDEST DUP3 SLOAD PUSH2 0xFFD JUMP JUMPDEST SWAP1 SWAP2 SWAP3 PUSH2 0x102B PUSH1 0x0 PUSH2 0xDAB JUMP JUMPDEST PUSH1 0x1 PUSH1 0x1 PUSH1 0xA0 SHL SUB DUP2 AND PUSH1 0x1 PUSH1 0x1 PUSH1 0xA0 SHL SUB DUP5 AND EQ PUSH2 0x1109 JUMPI PUSH1 0x1 PUSH1 0x1 PUSH1 0xA0 SHL SUB DUP2 AND PUSH1 0x1 PUSH1 0x1 PUSH1 0xA0 SHL SUB DUP6 AND EQ PUSH2 0x10BF JUMPI POP PUSH2 0x1076 DUP5 PUSH2 0x1071 DUP6 PUSH2 0xFDA DUP7 PUSH1 0x1 PUSH2 0xF8B JUMP JUMPDEST PUSH2 0x1007 JUMP JUMPDEST PUSH2 0x107F JUMPI POP POP POP JUMP JUMPDEST PUSH2 0xF48 PUSH2 0x10B5 PUSH2 0x10AF PUSH32 0x8C5BE1E5EBEC7D5BD14F71427D1E84F3DD0314C0F7B2291E5B200AC8C7C3B925 SWAP4 PUSH2 0x5E1 JUMP JUMPDEST SWAP4 PUSH2 0x5E1 JUMP JUMPDEST SWAP4 PUSH2 0x408 PUSH1 0x40 MLOAD SWAP1 JUMP JUMPDEST PUSH2 0xE30 SWAP1 PUSH2 0x10CC PUSH1 0x40 MLOAD SWAP1 JUMP JUMPDEST SWAP2 DUP3 SWAP2 PUSH32 0x94280D6200000000000000000000000000000000000000000000000000000000 DUP4 MSTORE PUSH1 0x4 DUP4 ADD PUSH1 0x1 PUSH1 0x1 PUSH1 0xA0 SHL SUB SWAP1 SWAP2 AND DUP2 MSTORE PUSH1 0x20 ADD SWAP1 JUMP JUMPDEST PUSH2 0xE30 SWAP1 PUSH2 0x1116 PUSH1 0x40 MLOAD SWAP1 JUMP JUMPDEST SWAP2 DUP3 SWAP2 PUSH32 0xE602DF0500000000000000000000000000000000000000000000000000000000 DUP4 MSTORE PUSH1 0x4 DUP4 ADD PUSH1 0x1 PUSH1 0x1 PUSH1 0xA0 SHL SUB SWAP1 SWAP2 AND DUP2 MSTORE PUSH1 0x20 ADD SWAP1 JUMP JUMPDEST PUSH2 0x28A PUSH1 0x7 PUSH2 0x575 JUMP JUMPDEST SWAP1 PUSH2 0x252 SWAP4 SWAP3 SWAP2 PUSH2 0x116C PUSH2 0xDCE JUMP JUMPDEST PUSH2 0x122D JUMP JUMPDEST PUSH10 0xFFFFFFFFFFFFFFFFFFFF DUP2 AND PUSH2 0x23E JUMP JUMPDEST SWAP1 POP MLOAD SWAP1 PUSH2 0x252 DUP3 PUSH2 0x1171 JUMP JUMPDEST SWAP1 POP MLOAD SWAP1 PUSH2 0x252 DUP3 PUSH2 0x23C JUMP JUMPDEST SWAP2 SWAP1 PUSH1 0xA0 DUP4 DUP3 SUB SLT PUSH2 0x207 JUMPI PUSH2 0x11B3 DUP2 DUP5 PUSH2 0x1183 JUMP JUMPDEST SWAP3 PUSH2 0x11C1 DUP3 PUSH1 0x20 DUP4 ADD PUSH2 0x1190 JUMP JUMPDEST SWAP3 PUSH2 0x28A PUSH2 0x11D2 DUP5 PUSH1 0x40 DUP6 ADD PUSH2 0x1190 JUMP JUMPDEST SWAP4 PUSH2 0x11E0 DUP2 PUSH1 0x60 DUP7 ADD PUSH2 0x1190 JUMP JUMPDEST SWAP4 PUSH1 0x80 ADD PUSH2 0x1183 JUMP JUMPDEST PUSH4 0x4E487B71 PUSH1 0xE0 SHL PUSH1 0x0 MSTORE PUSH1 0x11 PUSH1 0x4 MSTORE PUSH1 0x24 PUSH1 0x0 REVERT JUMPDEST SWAP2 SWAP1 DUP3 SUB SWAP2 DUP3 GT PUSH2 0x120C JUMPI JUMP JUMPDEST PUSH2 0x11E9 JUMP JUMPDEST PUSH2 0x121E PUSH2 0x28A PUSH2 0x28A SWAP3 SWAP1 JUMP JUMPDEST PUSH10 0xFFFFFFFFFFFFFFFFFFFF AND SWAP1 JUMP JUMPDEST SWAP3 SWAP2 SWAP1 PUSH1 0x0 PUSH2 0x123E PUSH2 0x34D DUP3 PUSH2 0xDAB JUMP JUMPDEST PUSH1 0x1 PUSH1 0x1 PUSH1 0xA0 SHL SUB DUP5 AND EQ PUSH2 0x13CC JUMPI DUP3 EXTCODESIZE PUSH2 0x125F PUSH2 0x125B DUP4 PUSH2 0x3CA JUMP JUMPDEST SWAP2 SWAP1 JUMP JUMPDEST EQ PUSH2 0x13CC JUMPI PUSH2 0x1292 PUSH1 0xA0 PUSH2 0x127A PUSH2 0x1275 DUP7 PUSH2 0x5E1 JUMP JUMPDEST PUSH2 0x5E1 JUMP JUMPDEST PUSH4 0xFEAF968C SWAP1 PUSH2 0x1289 PUSH1 0x40 MLOAD SWAP1 JUMP JUMPDEST SWAP4 DUP5 SWAP3 PUSH1 0xE0 SHL SWAP1 JUMP JUMPDEST DUP3 MSTORE PUSH1 0x4 SWAP1 DUP3 SWAP1 GAS STATICCALL SWAP1 DUP3 SWAP1 DUP4 DUP4 DUP6 SWAP3 DUP7 SWAP6 PUSH2 0x1396 JUMPI JUMPDEST POP PUSH2 0x12DA JUMPI PUSH1 0x40 MLOAD JUMPDEST PUSH32 0xF48FDF1800000000000000000000000000000000000000000000000000000000 DUP2 MSTORE PUSH1 0x4 SWAP1 REVERT JUMPDEST PUSH2 0x12E6 PUSH2 0x125B DUP7 PUSH2 0x3CA JUMP JUMPDEST SGT ISZERO PUSH2 0x134C JUMPI PUSH2 0x12F5 DUP5 PUSH2 0x3CA JUMP JUMPDEST DUP2 EQ PUSH2 0x134C JUMPI PUSH2 0x1305 SWAP1 TIMESTAMP PUSH2 0x11FF JUMP JUMPDEST PUSH2 0x1313 PUSH2 0x125B PUSH2 0x28A PUSH2 0xB7F JUMP JUMPDEST GT PUSH2 0x136B JUMPI PUSH2 0x1334 PUSH2 0x1324 DUP5 PUSH2 0x1211 JUMP JUMPDEST SWAP2 PUSH10 0xFFFFFFFFFFFFFFFFFFFF AND SWAP1 JUMP JUMPDEST EQ SWAP2 DUP3 ISZERO PUSH2 0x1354 JUMPI JUMPDEST POP POP PUSH2 0x134C JUMPI PUSH2 0x252 SWAP4 PUSH2 0x13F7 JUMP JUMPDEST PUSH1 0x40 MLOAD PUSH2 0x12B2 JUMP JUMPDEST PUSH2 0x1363 SWAP2 SWAP3 POP PUSH2 0x1324 SWAP1 PUSH2 0x1211 JUMP JUMPDEST EQ CODESIZE DUP1 PUSH2 0x133D JUMP JUMPDEST PUSH1 0x40 MLOAD PUSH32 0x355E186C00000000000000000000000000000000000000000000000000000000 DUP2 MSTORE PUSH1 0x4 SWAP1 REVERT JUMPDEST SWAP3 POP SWAP4 POP POP PUSH2 0x13BC SWAP2 POP PUSH1 0xA0 RETURNDATASIZE DUP2 GT PUSH2 0x13C5 JUMPI JUMPDEST PUSH2 0x13B4 DUP2 DUP4 PUSH2 0x42B JUMP JUMPDEST DUP2 ADD SWAP1 PUSH2 0x119D JUMP JUMPDEST SWAP5 SWAP1 SWAP3 SWAP2 PUSH2 0x12A9 JUMP JUMPDEST POP RETURNDATASIZE PUSH2 0x13AA JUMP JUMPDEST PUSH1 0x40 MLOAD PUSH32 0x5521068100000000000000000000000000000000000000000000000000000000 DUP2 MSTORE PUSH1 0x4 SWAP1 REVERT JUMPDEST SWAP1 PUSH2 0x252 SWAP4 SWAP3 SWAP2 PUSH2 0x1406 PUSH2 0x18D4 JUMP JUMPDEST PUSH2 0x16C2 JUMP JUMPDEST SWAP1 SWAP2 PUSH2 0x311 SWAP1 DUP4 SWAP1 DUP1 SWAP4 PUSH2 0x483 JUMP JUMPDEST PUSH2 0x530 SWAP1 PUSH1 0x20 SWAP5 SWAP4 PUSH2 0x311 SWAP4 PUSH2 0x140B JUMP JUMPDEST SWAP1 SWAP2 PUSH2 0x54A SWAP1 PUSH2 0x143A PUSH1 0x40 MLOAD SWAP1 JUMP JUMPDEST SWAP4 DUP5 SWAP4 DUP5 PUSH2 0x141A JUMP JUMPDEST SWAP1 SWAP2 PUSH2 0x28A SWAP3 PUSH2 0x142B JUMP JUMPDEST PUSH2 0x28A PUSH1 0x80 PUSH2 0x452 JUMP JUMPDEST SWAP1 PUSH1 0xFF SWAP1 PUSH2 0xECB JUMP JUMPDEST SWAP1 PUSH2 0x1471 PUSH2 0x28A PUSH2 0xEEC SWAP3 ISZERO ISZERO SWAP1 JUMP JUMPDEST DUP3 SLOAD PUSH2 0x1458 JUMP JUMPDEST PUSH2 0x252 SWAP2 SWAP1 PUSH2 0x14B4 SWAP1 PUSH1 0x60 SWAP1 PUSH1 0x3 SWAP1 PUSH2 0x14A2 DUP2 PUSH2 0x149C DUP8 MLOAD PUSH1 0x1 PUSH1 0x1 PUSH1 0xA0 SHL SUB AND SWAP1 JUMP JUMPDEST SWAP1 PUSH2 0xED5 JUMP JUMPDEST PUSH2 0x14BA PUSH1 0x1 DUP3 ADD PUSH2 0x14B4 PUSH1 0x20 DUP9 ADD MLOAD SWAP1 JUMP JUMPDEST SWAP1 PUSH2 0x1007 JUMP JUMPDEST PUSH2 0x14D4 PUSH1 0x2 DUP3 ADD PUSH2 0x14CE PUSH1 0x40 DUP9 ADD MLOAD ISZERO ISZERO SWAP1 JUMP JUMPDEST SWAP1 PUSH2 0x1461 JUMP JUMPDEST ADD SWAP3 ADD MLOAD SWAP1 JUMP JUMPDEST SWAP1 PUSH2 0x252 SWAP2 PUSH2 0x1478 JUMP JUMPDEST SWAP2 PUSH1 0x0 NOT PUSH1 0x8 SWAP3 SWAP1 SWAP3 MUL SWAP2 DUP3 SHL SWAP2 SHL PUSH2 0xECB JUMP JUMPDEST SWAP2 SWAP1 PUSH2 0x150A PUSH2 0x28A PUSH2 0xEEC SWAP4 PUSH2 0x3CA JUMP JUMPDEST SWAP1 DUP4 SLOAD PUSH2 0x14E5 JUMP JUMPDEST PUSH2 0x252 SWAP2 PUSH1 0x0 SWAP2 PUSH2 0x14F9 JUMP JUMPDEST DUP2 DUP2 LT PUSH2 0x1529 JUMPI POP POP JUMP JUMPDEST DUP1 PUSH2 0x1537 PUSH1 0x0 PUSH1 0x1 SWAP4 PUSH2 0x1512 JUMP JUMPDEST ADD PUSH2 0x151E JUMP JUMPDEST SWAP2 SWAP1 PUSH1 0x1F DUP2 GT PUSH2 0x154C JUMPI POP POP POP JUMP JUMPDEST PUSH2 0x155E PUSH2 0x252 SWAP4 PUSH1 0x0 MSTORE PUSH1 0x20 PUSH1 0x0 KECCAK256 SWAP1 JUMP JUMPDEST SWAP1 PUSH1 0x20 PUSH1 0x1F DUP5 ADD DUP2 SWAP1 DIV DUP4 ADD SWAP4 LT PUSH2 0x1581 JUMPI JUMPDEST PUSH1 0x20 PUSH1 0x1F SWAP1 SWAP2 ADD DIV JUMPDEST ADD SWAP1 PUSH2 0x151E JUMP JUMPDEST SWAP1 SWAP2 POP DUP2 SWAP1 PUSH2 0x1571 JUMP JUMPDEST SWAP2 SWAP1 PUSH8 0xFFFFFFFFFFFFFFFF DUP3 GT PUSH2 0x44D JUMPI PUSH2 0x15B0 DUP3 PUSH2 0x15AA DUP6 SLOAD PUSH2 0x7EA JUMP JUMPDEST DUP6 PUSH2 0x153D JUMP JUMPDEST PUSH1 0x0 SWAP1 PUSH1 0x1F DUP4 GT PUSH1 0x1 EQ PUSH2 0x15EB JUMPI PUSH2 0xEEC SWAP3 SWAP2 PUSH1 0x0 SWAP2 DUP4 PUSH2 0x15E0 JUMPI JUMPDEST POP POP PUSH1 0x0 NOT PUSH1 0x8 DUP4 MUL SHR NOT AND SWAP1 PUSH1 0x2 MUL OR SWAP1 JUMP JUMPDEST ADD CALLDATALOAD SWAP1 POP CODESIZE DUP1 PUSH2 0x15CC JUMP JUMPDEST PUSH1 0x1F NOT DUP4 AND SWAP2 PUSH2 0x1600 DUP6 PUSH1 0x0 MSTORE PUSH1 0x20 PUSH1 0x0 KECCAK256 SWAP1 JUMP JUMPDEST SWAP3 DUP2 JUMPDEST DUP2 DUP2 LT PUSH2 0x163E JUMPI POP SWAP2 PUSH1 0x2 SWAP4 SWAP2 DUP6 PUSH1 0x1 SWAP7 SWAP5 LT PUSH2 0x1624 JUMPI JUMPDEST POP POP POP MUL ADD SWAP1 SSTORE JUMP JUMPDEST ADD CALLDATALOAD PUSH1 0x0 NOT PUSH1 0x1F DUP5 AND PUSH1 0x8 MUL SHR NOT AND JUMPDEST SWAP1 SSTORE CODESIZE DUP1 DUP1 PUSH2 0x161B JUMP JUMPDEST SWAP2 SWAP4 PUSH1 0x20 PUSH1 0x1 DUP2 SWAP3 DUP8 DUP8 ADD CALLDATALOAD DUP2 SSTORE ADD SWAP6 ADD SWAP3 ADD PUSH2 0x1603 JUMP JUMPDEST SWAP3 SWAP2 SWAP1 PUSH2 0x8D4 JUMPI PUSH2 0x252 SWAP3 PUSH2 0x158B JUMP JUMPDEST SWAP2 SWAP1 DUP3 SLOAD SWAP3 PUSH9 0x10000000000000000 DUP5 LT ISZERO PUSH2 0x44D JUMPI DUP4 PUSH2 0x168F SWAP2 PUSH1 0x1 PUSH2 0x252 SWAP7 ADD DUP2 SSTORE PUSH2 0x796 JUMP JUMPDEST SWAP1 PUSH2 0x1656 JUMP JUMPDEST SWAP2 SWAP1 DUP3 ADD DUP1 SWAP3 GT PUSH2 0x120C JUMPI JUMP JUMPDEST SWAP1 SWAP2 PUSH2 0x28A SWAP3 PUSH2 0x140B JUMP JUMPDEST PUSH2 0x54A PUSH2 0x16B9 PUSH1 0x40 MLOAD SWAP1 JUMP JUMPDEST SWAP3 DUP4 SWAP3 DUP4 PUSH2 0x16A2 JUMP JUMPDEST SWAP2 SWAP3 SWAP2 PUSH1 0x0 DUP3 PUSH2 0x16D4 PUSH2 0x125B DUP4 PUSH2 0x3CA JUMP JUMPDEST EQ DUP1 ISZERO PUSH2 0x18B3 JUMPI JUMPDEST PUSH2 0x1888 JUMPI PUSH2 0x16EB PUSH2 0x28A PUSH2 0x675 JUMP JUMPDEST DUP5 LT DUP1 ISZERO PUSH2 0x1875 JUMPI JUMPDEST PUSH2 0x184A JUMPI PUSH1 0x8 SWAP5 PUSH2 0x1711 PUSH1 0x2 PUSH2 0x170B DUP7 DUP7 DUP11 PUSH2 0x1443 JUMP JUMPDEST ADD PUSH2 0x575 JUMP JUMPDEST PUSH2 0x181F JUMPI PUSH1 0x9 DUP1 SLOAD PUSH2 0x1727 PUSH2 0x125B PUSH2 0x28A PUSH2 0x3D7 JUMP JUMPDEST LT ISZERO PUSH2 0x17F4 JUMPI DUP4 SWAP3 PUSH2 0x1739 DUP7 SWAP4 PUSH2 0x5E1 JUMP JUMPDEST SWAP8 DUP4 DUP6 TIMESTAMP PUSH1 0x1 DUP13 PUSH2 0x1748 PUSH2 0x144E JUMP JUMPDEST SWAP7 DUP8 ADD SWAP1 PUSH2 0x175E SWAP2 SWAP1 PUSH1 0x1 PUSH1 0x1 PUSH1 0xA0 SHL SUB AND SWAP1 MSTORE JUMP JUMPDEST PUSH2 0x1769 DUP13 PUSH1 0x20 DUP9 ADD MSTORE JUMP JUMPDEST ISZERO ISZERO PUSH1 0x40 DUP7 ADD MSTORE PUSH1 0x60 DUP6 ADD MSTORE PUSH2 0x177E SWAP3 PUSH2 0x1443 JUMP JUMPDEST SWAP1 PUSH2 0x1788 SWAP2 PUSH2 0x14DB JUMP JUMPDEST SWAP2 PUSH2 0x1792 SWAP3 PUSH2 0x1666 JUMP JUMPDEST DUP3 PUSH2 0x179D PUSH1 0xA PUSH2 0x560 JUMP JUMPDEST SWAP1 PUSH2 0x17A7 SWAP2 PUSH2 0x1695 JUMP JUMPDEST PUSH2 0x17B2 SWAP1 PUSH1 0xA PUSH2 0x1007 JUMP JUMPDEST PUSH32 0x197824819E143E92010C91D876C2287AB60E222851097F8BD09122231B02DBB0 SWAP2 PUSH2 0x17DD SWAP2 PUSH2 0x16AD JUMP JUMPDEST SWAP2 PUSH2 0x17E7 PUSH1 0x40 MLOAD SWAP1 JUMP JUMPDEST SWAP1 DUP2 MSTORE DUP1 PUSH1 0x20 DUP2 ADD PUSH2 0xF48 JUMP JUMPDEST PUSH1 0x40 MLOAD PUSH32 0xC2413D2100000000000000000000000000000000000000000000000000000000 DUP2 MSTORE PUSH1 0x4 SWAP1 REVERT JUMPDEST PUSH1 0x40 MLOAD PUSH32 0x4171E77A00000000000000000000000000000000000000000000000000000000 DUP2 MSTORE PUSH1 0x4 SWAP1 REVERT JUMPDEST PUSH1 0x40 MLOAD PUSH32 0x585B926300000000000000000000000000000000000000000000000000000000 DUP2 MSTORE PUSH1 0x4 SWAP1 REVERT JUMPDEST POP PUSH2 0x1881 PUSH2 0x28A PUSH2 0xCE7 JUMP JUMPDEST DUP5 GT PUSH2 0x16F4 JUMP JUMPDEST PUSH1 0x40 MLOAD PUSH32 0x4119BC400000000000000000000000000000000000000000000000000000000 DUP2 MSTORE PUSH1 0x4 SWAP1 REVERT JUMPDEST POP DUP3 PUSH2 0x18C2 PUSH2 0x125B PUSH1 0xA PUSH2 0x3CA JUMP JUMPDEST GT PUSH2 0x16DC JUMP JUMPDEST SWAP1 PUSH2 0x252 SWAP4 SWAP3 SWAP2 PUSH2 0x115D JUMP JUMPDEST PUSH2 0x18DC PUSH2 0x1153 JUMP JUMPDEST PUSH2 0x18E2 JUMPI JUMP JUMPDEST PUSH1 0x40 MLOAD PUSH32 0xD93C066500000000000000000000000000000000000000000000000000000000 DUP2 MSTORE PUSH1 0x4 SWAP1 REVERT JUMPDEST SWAP1 PUSH2 0x252 SWAP2 PUSH2 0x191A PUSH2 0xDCE JUMP JUMPDEST PUSH2 0x1C83 JUMP JUMPDEST PUSH1 0x0 NOT DUP2 EQ PUSH2 0x120C JUMPI PUSH1 0x1 ADD SWAP1 JUMP JUMPDEST PUSH2 0x28A SWAP2 CALLDATASIZE SWAP2 PUSH2 0x48F JUMP JUMPDEST PUSH2 0x28A SWAP1 SLOAD PUSH2 0x7EA JUMP JUMPDEST SWAP1 DUP1 DUP3 EQ PUSH2 0x1A20 JUMPI PUSH2 0x1954 DUP2 PUSH2 0x1939 JUMP JUMPDEST SWAP1 PUSH8 0xFFFFFFFFFFFFFFFF DUP3 GT PUSH2 0x44D JUMPI PUSH2 0x1972 DUP3 PUSH2 0x15AA DUP6 SLOAD PUSH2 0x7EA JUMP JUMPDEST PUSH1 0x0 SWAP1 PUSH1 0x1F DUP4 GT PUSH1 0x1 EQ PUSH2 0x19AC JUMPI PUSH2 0xEEC SWAP3 SWAP2 PUSH1 0x0 SWAP2 DUP4 PUSH2 0x19A1 JUMPI POP POP PUSH1 0x0 NOT PUSH1 0x8 DUP4 MUL SHR NOT AND SWAP1 PUSH1 0x2 MUL OR SWAP1 JUMP JUMPDEST ADD SLOAD SWAP1 POP CODESIZE DUP1 PUSH2 0x15CC JUMP JUMPDEST SWAP1 PUSH2 0x19C1 PUSH1 0x1F NOT DUP5 AND SWAP3 PUSH1 0x0 MSTORE PUSH1 0x20 PUSH1 0x0 KECCAK256 SWAP1 JUMP JUMPDEST SWAP1 PUSH2 0x19D1 DUP6 PUSH1 0x0 MSTORE PUSH1 0x20 PUSH1 0x0 KECCAK256 SWAP1 JUMP JUMPDEST SWAP3 DUP2 JUMPDEST DUP2 DUP2 LT PUSH2 0x1A08 JUMPI POP SWAP2 PUSH1 0x2 SWAP4 SWAP2 DUP6 PUSH1 0x1 SWAP7 SWAP5 LT PUSH2 0x19F4 JUMPI POP POP POP MUL ADD SWAP1 SSTORE JUMP JUMPDEST ADD SLOAD PUSH1 0x0 NOT PUSH1 0x8 PUSH1 0x1F DUP6 AND MUL SHR NOT AND PUSH2 0x1634 JUMP JUMPDEST SWAP2 SWAP4 PUSH1 0x1 DUP1 PUSH1 0x20 SWAP3 DUP8 DUP8 ADD SLOAD DUP2 SSTORE ADD SWAP6 ADD SWAP3 ADD PUSH2 0x19D4 JUMP JUMPDEST POP POP JUMP JUMPDEST SWAP2 SWAP1 PUSH2 0x8D4 JUMPI PUSH2 0x252 SWAP2 PUSH2 0x1943 JUMP JUMPDEST PUSH4 0x4E487B71 PUSH1 0xE0 SHL PUSH1 0x0 MSTORE PUSH1 0x31 PUSH1 0x4 MSTORE PUSH1 0x24 PUSH1 0x0 REVERT JUMPDEST SWAP1 PUSH2 0x1A5C SWAP1 PUSH1 0x0 NOT SWAP1 PUSH1 0x20 SUB PUSH1 0x8 MUL SHR SWAP1 JUMP JUMPDEST DUP2 SLOAD AND SWAP1 SSTORE JUMP JUMPDEST SWAP1 PUSH1 0x0 SWAP2 PUSH2 0x1A8E PUSH2 0x1A79 DUP3 PUSH1 0x0 MSTORE PUSH1 0x20 PUSH1 0x0 KECCAK256 SWAP1 JUMP JUMPDEST SWAP3 DUP4 SLOAD PUSH1 0x0 NOT PUSH1 0x8 DUP4 MUL SHR NOT AND SWAP1 PUSH1 0x2 MUL OR SWAP1 JUMP JUMPDEST SWAP1 SSTORE SSTORE JUMP JUMPDEST SWAP2 SWAP3 SWAP1 PUSH1 0x20 DUP3 LT ISZERO PUSH2 0x1AF8 JUMPI PUSH1 0x1F DUP5 GT PUSH1 0x1 EQ PUSH2 0x1AC2 JUMPI PUSH2 0xEEC SWAP3 SWAP4 POP PUSH1 0x0 NOT PUSH1 0x8 DUP4 MUL SHR NOT AND SWAP1 PUSH1 0x2 MUL OR SWAP1 JUMP JUMPDEST POP SWAP1 PUSH2 0x1AF3 PUSH2 0x252 SWAP4 PUSH1 0x1 PUSH2 0x1AEA PUSH2 0x1ADF DUP6 PUSH1 0x0 MSTORE PUSH1 0x20 PUSH1 0x0 KECCAK256 SWAP1 JUMP JUMPDEST SWAP3 PUSH1 0x1F PUSH1 0x20 SWAP2 ADD DIV SWAP1 JUMP JUMPDEST DUP3 ADD SWAP2 ADD PUSH2 0x151E JUMP JUMPDEST PUSH2 0x1A63 JUMP JUMPDEST POP PUSH2 0x1B31 DUP3 SWAP4 PUSH2 0x1B0F PUSH1 0x1 SWAP5 PUSH1 0x0 MSTORE PUSH1 0x20 PUSH1 0x0 KECCAK256 SWAP1 JUMP JUMPDEST PUSH2 0x157A PUSH1 0x20 PUSH1 0x1F DUP7 ADD DIV DUP3 ADD SWAP3 PUSH1 0x1F DUP7 AND DUP1 PUSH2 0x1B39 JUMPI JUMPDEST POP PUSH1 0x1F PUSH1 0x20 SWAP2 ADD DIV SWAP1 JUMP JUMPDEST PUSH1 0x2 MUL OR SWAP1 SSTORE JUMP JUMPDEST PUSH2 0x1B45 SWAP1 DUP9 DUP7 SUB PUSH2 0x1A49 JUMP JUMPDEST CODESIZE PUSH2 0x1B26 JUMP JUMPDEST SWAP3 SWAP1 SWAP2 PUSH9 0x10000000000000000 DUP3 GT PUSH2 0x44D JUMPI PUSH1 0x20 GT ISZERO PUSH2 0x1BA4 JUMPI PUSH1 0x20 DUP2 LT ISZERO PUSH2 0x1B85 JUMPI PUSH2 0xEEC SWAP2 PUSH1 0x0 NOT PUSH1 0x8 DUP4 MUL SHR NOT AND SWAP1 PUSH1 0x2 MUL OR SWAP1 JUMP JUMPDEST PUSH1 0x1 SWAP2 PUSH1 0xFF NOT AND PUSH2 0x1B9B DUP5 PUSH1 0x0 MSTORE PUSH1 0x20 PUSH1 0x0 KECCAK256 SWAP1 JUMP JUMPDEST SSTORE PUSH1 0x2 MUL ADD SWAP1 SSTORE JUMP JUMPDEST PUSH1 0x1 SWAP2 POP PUSH1 0x2 MUL ADD SWAP1 SSTORE JUMP JUMPDEST SWAP1 DUP2 SLOAD PUSH2 0x1BBC DUP2 PUSH2 0x7EA JUMP JUMPDEST SWAP1 DUP2 DUP4 GT PUSH2 0x1BE5 JUMPI JUMPDEST DUP2 DUP4 LT PUSH2 0x1BD3 JUMPI JUMPDEST POP POP POP POP JUMP JUMPDEST PUSH2 0x1BDC SWAP4 PUSH2 0x1A93 JUMP JUMPDEST CODESIZE DUP1 DUP1 DUP1 PUSH2 0x1BCD JUMP JUMPDEST PUSH2 0x1BF1 DUP4 DUP4 DUP4 DUP8 PUSH2 0x1B4B JUMP JUMPDEST PUSH2 0x1BC5 JUMP JUMPDEST DUP2 DUP2 MUL SWAP3 SWAP2 DUP2 ISZERO SWAP2 DUP5 DIV EQ OR ISZERO PUSH2 0x120C JUMPI JUMP JUMPDEST PUSH1 0x0 PUSH2 0x252 SWAP2 PUSH2 0x1BB0 JUMP JUMPDEST SWAP1 PUSH1 0x0 SUB PUSH2 0x8D4 JUMPI PUSH2 0x252 SWAP1 PUSH2 0x1C09 JUMP JUMPDEST DUP1 SLOAD DUP1 ISZERO PUSH2 0x1C48 JUMPI PUSH1 0x0 NOT ADD SWAP1 PUSH2 0x1C45 PUSH2 0x1C3F DUP4 DUP4 PUSH2 0x796 JUMP JUMPDEST SWAP1 PUSH2 0x1C14 JUMP JUMPDEST SSTORE JUMP JUMPDEST PUSH2 0x1A33 JUMP JUMPDEST PUSH1 0x0 DUP1 DUP3 SSTORE PUSH2 0x252 SWAP2 PUSH1 0x3 SWAP1 PUSH2 0x1C66 DUP4 PUSH1 0x1 DUP4 ADD PUSH2 0x1512 JUMP JUMPDEST DUP3 PUSH1 0x2 DUP3 ADD SSTORE ADD PUSH2 0x1512 JUMP JUMPDEST SWAP1 PUSH1 0x0 SUB PUSH2 0x8D4 JUMPI PUSH2 0x252 SWAP1 PUSH2 0x1C4D JUMP JUMPDEST PUSH1 0x8 SWAP2 PUSH2 0x1C9D PUSH2 0x1C99 PUSH1 0x2 PUSH2 0x170B DUP5 DUP7 DUP9 PUSH2 0x1443 JUMP JUMPDEST ISZERO SWAP1 JUMP JUMPDEST PUSH2 0x1DFC JUMPI PUSH1 0x0 PUSH2 0x1CAC DUP2 PUSH2 0x3CA JUMP JUMPDEST PUSH1 0x9 PUSH2 0x1CB9 PUSH2 0x28A DUP3 SLOAD SWAP1 JUMP JUMPDEST DUP3 LT ISZERO PUSH2 0x1DE7 JUMPI PUSH2 0x1CD9 PUSH2 0x1CD4 PUSH2 0x1CD0 DUP5 DUP5 PUSH2 0x796 JUMP JUMPDEST POP SWAP1 JUMP JUMPDEST PUSH2 0xF4D JUMP JUMPDEST PUSH2 0x1CEB PUSH2 0x1CE4 DUP3 MLOAD SWAP1 JUMP JUMPDEST SWAP2 PUSH1 0x20 ADD SWAP1 JUMP JUMPDEST KECCAK256 PUSH2 0x1D0B PUSH2 0x125B PUSH2 0x1CFC DUP8 DUP10 PUSH2 0x192E JUMP JUMPDEST PUSH2 0x1D07 PUSH2 0x1CE4 DUP3 MLOAD SWAP1 JUMP JUMPDEST KECCAK256 SWAP1 JUMP JUMPDEST EQ PUSH2 0x1D1F JUMPI POP PUSH2 0x1D1A SWAP1 PUSH2 0x191F JUMP JUMPDEST PUSH2 0x1CAC JUMP JUMPDEST DUP4 DUP6 PUSH2 0x1DD5 SWAP7 SWAP8 PUSH2 0x1D72 PUSH2 0x1D6D DUP6 PUSH2 0x28A PUSH2 0x1DAE SWAP10 SWAP9 PUSH2 0x1D67 PUSH2 0x1D5F PUSH2 0x1D59 PUSH2 0x1D49 PUSH2 0x1DA9 SWAP13 SLOAD SWAP1 JUMP JUMPDEST PUSH2 0x1D53 PUSH1 0x1 PUSH2 0x3CA JUMP JUMPDEST SWAP1 PUSH2 0x11FF JUMP JUMPDEST DUP6 PUSH2 0x796 JUMP JUMPDEST POP SWAP2 DUP5 PUSH2 0x796 JUMP JUMPDEST SWAP1 PUSH2 0x1A24 JUMP JUMPDEST PUSH2 0x1C25 JUMP JUMPDEST PUSH2 0x1DA4 PUSH2 0x1D9D PUSH2 0x1D8E PUSH1 0x1 PUSH2 0x1D88 DUP8 DUP8 DUP8 PUSH2 0x1443 JUMP JUMPDEST ADD PUSH2 0x560 JUMP JUMPDEST PUSH2 0x1D98 PUSH1 0xA PUSH2 0x560 JUMP JUMPDEST PUSH2 0x11FF JUMP JUMPDEST PUSH1 0xA PUSH2 0x1007 JUMP JUMPDEST PUSH2 0x1443 JUMP JUMPDEST PUSH2 0x1C72 JUMP JUMPDEST PUSH32 0xC6A0B3A38F4ACC103D66D2EA1F975912895D3D7CFEEBCDA52F245E760198A4BD SWAP3 PUSH2 0x16AD JUMP JUMPDEST SWAP1 PUSH2 0x1DDF PUSH1 0x40 MLOAD SWAP1 JUMP JUMPDEST DUP1 DUP1 JUMPDEST SUB SWAP1 LOG2 JUMP JUMPDEST POP POP PUSH2 0x1DAE SWAP1 PUSH2 0x1DA9 DUP4 DUP6 PUSH2 0x1DD5 SWAP7 SWAP8 PUSH2 0x1D72 JUMP JUMPDEST PUSH1 0x40 MLOAD PUSH32 0x7D91856300000000000000000000000000000000000000000000000000000000 DUP2 MSTORE PUSH1 0x4 SWAP1 REVERT JUMPDEST SWAP1 PUSH2 0x252 SWAP2 PUSH2 0x190D JUMP JUMPDEST SWAP1 PUSH2 0x252 SWAP3 SWAP2 PUSH2 0x1E3F PUSH2 0xDCE JUMP JUMPDEST SWAP1 PUSH1 0x8 PUSH2 0x1E55 PUSH2 0x1C99 PUSH1 0x2 PUSH2 0x170B DUP6 DUP8 DUP7 PUSH2 0x1443 JUMP JUMPDEST PUSH2 0x1DFC JUMPI PUSH2 0x1E64 PUSH2 0x28A PUSH2 0x675 JUMP JUMPDEST DUP5 LT DUP1 ISZERO PUSH2 0x1EFC JUMPI JUMPDEST PUSH2 0x184A JUMPI DUP2 PUSH2 0x1ECB PUSH2 0x1EF2 SWAP3 PUSH2 0x1EA6 PUSH2 0x1D9D DUP9 PUSH2 0x1EA1 DUP10 PUSH2 0x1D53 PUSH1 0x1 PUSH2 0x1D88 PUSH2 0x1DE2 SWAP13 PUSH2 0x1E9A PUSH1 0xA PUSH2 0x560 JUMP JUMPDEST SWAP5 DUP11 PUSH2 0x1443 JUMP JUMPDEST PUSH2 0x1695 JUMP JUMPDEST PUSH2 0x1EBD DUP8 PUSH1 0x1 PUSH2 0x1EB7 DUP7 DUP11 DUP7 PUSH2 0x1443 JUMP JUMPDEST ADD PUSH2 0x1007 JUMP JUMPDEST PUSH1 0x3 PUSH2 0x1EB7 DUP5 DUP9 TIMESTAMP SWAP5 PUSH2 0x1443 JUMP JUMPDEST PUSH32 0x5324D4F0B093F69D6F6FFE47346B30E4147743EED843366BF0D70A70C4A85C69 SWAP4 PUSH2 0x16AD JUMP JUMPDEST SWAP3 PUSH2 0x408 PUSH1 0x40 MLOAD SWAP1 JUMP JUMPDEST POP PUSH2 0x1F08 PUSH2 0x28A PUSH2 0xCE7 JUMP JUMPDEST DUP5 GT PUSH2 0x1E6D JUMP JUMPDEST SWAP1 PUSH2 0x252 SWAP3 SWAP2 PUSH2 0x1E31 JUMP JUMPDEST DUP1 SLOAD PUSH1 0x0 SWAP4 SWAP3 SWAP2 PUSH2 0x1F31 PUSH2 0x1F2D DUP4 PUSH2 0x7EA JUMP JUMPDEST SWAP4 SWAP1 JUMP JUMPDEST SWAP2 PUSH1 0x1 DUP2 AND SWAP1 DUP2 ISZERO PUSH2 0x1F82 JUMPI POP PUSH1 0x1 EQ PUSH2 0x1F4A JUMPI POP POP POP JUMP JUMPDEST PUSH2 0x1F5D SWAP2 SWAP3 SWAP4 SWAP5 POP PUSH1 0x0 MSTORE PUSH1 0x20 PUSH1 0x0 KECCAK256 SWAP1 JUMP JUMPDEST PUSH1 0x0 SWAP1 JUMPDEST DUP4 DUP3 LT PUSH2 0x1F6E JUMPI POP POP ADD SWAP1 JUMP JUMPDEST PUSH1 0x1 DUP2 PUSH1 0x20 SWAP3 SLOAD DUP5 DUP7 ADD MSTORE ADD SWAP2 ADD SWAP1 PUSH2 0x1F61 JUMP JUMPDEST PUSH1 0xFF NOT AND DUP4 MSTORE POP POP DUP2 ISZERO ISZERO SWAP1 SWAP2 MUL ADD SWAP2 POP JUMP JUMPDEST PUSH2 0x530 PUSH2 0x311 SWAP2 PUSH1 0x20 SWAP5 SWAP4 PUSH2 0x1F1A JUMP JUMPDEST PUSH2 0x54A PUSH2 0x1FB1 PUSH1 0x40 MLOAD SWAP1 JUMP JUMPDEST SWAP3 DUP4 SWAP3 DUP4 PUSH2 0x1F95 JUMP JUMPDEST PUSH2 0x28A SWAP2 PUSH2 0x1FA5 JUMP JUMPDEST PUSH4 0x4E487B71 PUSH1 0xE0 SHL PUSH1 0x0 MSTORE PUSH1 0x12 PUSH1 0x4 MSTORE PUSH1 0x24 PUSH1 0x0 REVERT JUMPDEST DUP2 ISZERO PUSH2 0x1FE3 JUMPI DIV SWAP1 JUMP JUMPDEST PUSH2 0x1FC3 JUMP JUMPDEST PUSH2 0x1FF2 PUSH1 0xA PUSH2 0x560 JUMP JUMPDEST PUSH1 0x0 SWAP1 PUSH2 0x2001 PUSH2 0x125B DUP4 PUSH2 0x3CA JUMP JUMPDEST EQ PUSH2 0x2176 JUMPI PUSH2 0x200F DUP2 PUSH2 0x3CA JUMP JUMPDEST SWAP1 DUP2 DUP3 JUMPDEST PUSH1 0x9 PUSH2 0x2020 PUSH2 0x28A DUP3 SLOAD SWAP1 JUMP JUMPDEST DUP3 LT ISZERO PUSH2 0x214E JUMPI PUSH2 0x28A PUSH2 0x2041 SWAP2 PUSH2 0x203A DUP5 PUSH1 0x8 SWAP3 PUSH2 0x796 JUMP JUMPDEST POP SWAP1 PUSH2 0x1FBA JUMP JUMPDEST PUSH2 0x2050 PUSH2 0x1C99 PUSH1 0x2 DUP4 ADD PUSH2 0x575 JUMP JUMPDEST PUSH2 0x2144 JUMPI PUSH2 0x206F PUSH1 0xA0 PUSH2 0x127A PUSH2 0x1275 DUP8 DUP6 ADD SLOAD PUSH1 0x1 PUSH1 0x1 PUSH1 0xA0 SHL SUB AND SWAP1 JUMP JUMPDEST DUP3 MSTORE PUSH1 0x4 SWAP1 DUP3 SWAP1 GAS STATICCALL SWAP1 DUP6 SWAP2 DUP7 SWAP2 DUP2 PUSH2 0x211E JUMPI JUMPDEST POP PUSH2 0x2099 JUMPI POP POP POP PUSH2 0x2094 SWAP1 PUSH2 0x191F JUMP JUMPDEST PUSH2 0x2013 JUMP JUMPDEST PUSH2 0x20A3 SWAP1 TIMESTAMP PUSH2 0x11FF JUMP JUMPDEST PUSH2 0x20B1 PUSH2 0x125B PUSH2 0x28A PUSH2 0xB7F JUMP JUMPDEST GT ISZERO DUP1 PUSH2 0x210D JUMPI JUMPDEST PUSH2 0x20C9 JUMPI JUMPDEST POP POP PUSH2 0x2094 SWAP1 PUSH2 0x191F JUMP JUMPDEST SWAP3 PUSH2 0x20F9 PUSH2 0x20FF PUSH2 0x2105 SWAP4 SWAP8 PUSH2 0x20F9 PUSH1 0x1 PUSH2 0x20E7 PUSH2 0x2094 SWAP9 SWAP10 PUSH2 0x3CA JUMP JUMPDEST SWAP11 ADD SWAP10 PUSH2 0x20F3 DUP12 PUSH2 0x560 JUMP JUMPDEST SWAP1 PUSH2 0x1BF6 JUMP JUMPDEST SWAP1 PUSH2 0x1695 JUMP JUMPDEST SWAP7 PUSH2 0x560 JUMP JUMPDEST SWAP2 SWAP1 CODESIZE PUSH2 0x20BE JUMP JUMPDEST POP PUSH2 0x2117 DUP6 PUSH2 0x3CA JUMP JUMPDEST DUP2 SGT PUSH2 0x20B9 JUMP JUMPDEST SWAP1 SWAP3 POP PUSH2 0x2139 SWAP2 POP PUSH1 0xA0 RETURNDATASIZE DUP2 GT PUSH2 0x13C5 JUMPI PUSH2 0x13B4 DUP2 DUP4 PUSH2 0x42B JUMP JUMPDEST POP SWAP3 POP SWAP3 SWAP1 SWAP3 PUSH2 0x2083 JUMP JUMPDEST POP PUSH2 0x2094 SWAP1 PUSH2 0x191F JUMP JUMPDEST POP POP SWAP1 SWAP2 PUSH2 0x215B DUP4 PUSH2 0x3CA JUMP JUMPDEST DUP3 EQ PUSH2 0x216B JUMPI PUSH2 0x28A SWAP3 POP PUSH2 0x1FD9 JUMP JUMPDEST POP POP PUSH2 0x28A SWAP1 PUSH2 0x3CA JUMP JUMPDEST PUSH1 0x40 MLOAD PUSH32 0x2D7864E00000000000000000000000000000000000000000000000000000000 DUP2 MSTORE PUSH1 0x4 SWAP1 REVERT JUMPDEST PUSH8 0xFFFFFFFFFFFFFFFF DUP2 GT PUSH2 0x44D JUMPI PUSH1 0x20 DUP1 SWAP2 MUL ADD SWAP1 JUMP JUMPDEST SWAP1 PUSH2 0x530 PUSH2 0x49F DUP4 PUSH2 0x21A1 JUMP JUMPDEST SWAP1 PUSH2 0x21CF DUP3 SLOAD SWAP1 JUMP JUMPDEST PUSH2 0x21D8 DUP2 PUSH2 0x21B9 JUMP JUMPDEST SWAP3 PUSH2 0x21EC PUSH1 0x20 DUP6 ADD SWAP2 PUSH1 0x0 MSTORE PUSH1 0x20 PUSH1 0x0 KECCAK256 SWAP1 JUMP JUMPDEST PUSH1 0x0 SWAP2 JUMPDEST DUP4 DUP4 LT PUSH2 0x21FD JUMPI POP POP POP POP JUMP JUMPDEST PUSH1 0x1 PUSH1 0x20 DUP2 SWAP3 PUSH2 0x220C DUP6 PUSH2 0xF4D JUMP JUMPDEST DUP2 MSTORE ADD SWAP3 ADD SWAP3 ADD SWAP2 SWAP1 PUSH2 0x21F0 JUMP JUMPDEST PUSH2 0x28A SWAP1 PUSH2 0x21C6 JUMP JUMPDEST PUSH2 0x28A PUSH1 0x9 PUSH2 0x221A JUMP JUMPDEST PUSH1 0x8 PUSH2 0x2242 PUSH2 0x1C99 PUSH1 0x2 PUSH2 0x170B DUP7 DUP7 DUP7 PUSH2 0x1443 JUMP JUMPDEST PUSH2 0x22C9 JUMPI PUSH2 0x1275 PUSH1 0x0 PUSH2 0x225E PUSH2 0x226C SWAP6 PUSH1 0xA0 SWAP6 PUSH2 0x127A SWAP6 PUSH2 0x1443 JUMP JUMPDEST ADD SLOAD PUSH1 0x1 PUSH1 0x1 PUSH1 0xA0 SHL SUB AND SWAP1 JUMP JUMPDEST DUP3 MSTORE PUSH1 0x4 SWAP1 DUP3 SWAP1 GAS STATICCALL PUSH1 0x0 SWAP2 DUP2 PUSH2 0x22A6 JUMPI JUMPDEST POP PUSH2 0x2289 JUMPI POP PUSH1 0x0 SWAP1 JUMP JUMPDEST PUSH2 0x2293 SWAP1 TIMESTAMP PUSH2 0x11FF JUMP JUMPDEST PUSH2 0x22A1 PUSH2 0x125B PUSH2 0x28A PUSH2 0xB7F JUMP JUMPDEST GT ISZERO SWAP1 JUMP JUMPDEST PUSH2 0x22BF SWAP2 SWAP3 POP PUSH1 0xA0 RETURNDATASIZE DUP2 GT PUSH2 0x13C5 JUMPI PUSH2 0x13B4 DUP2 DUP4 PUSH2 0x42B JUMP JUMPDEST POP SWAP4 SWAP3 POP POP PUSH2 0x227E JUMP JUMPDEST POP POP POP PUSH1 0x0 SWAP1 JUMP JUMPDEST PUSH2 0x22D9 PUSH2 0xDCE JUMP JUMPDEST PUSH2 0x252 PUSH2 0x22E4 PUSH2 0x2365 JUMP JUMPDEST TIMESTAMP PUSH32 0x6EAE7D8F48015FDDC9502717696AC737BEC3D20C703C3958A689F8F485747183 PUSH2 0x1DE2 PUSH2 0x1EF2 CALLER PUSH2 0x5E1 JUMP JUMPDEST PUSH2 0x252 PUSH2 0x22D1 JUMP JUMPDEST PUSH2 0x2322 PUSH2 0x18D4 JUMP JUMPDEST PUSH2 0x252 PUSH2 0x2331 PUSH1 0x1 PUSH1 0x7 PUSH2 0x1461 JUMP JUMPDEST CALLER PUSH2 0x2360 PUSH32 0x62E78CEA01BEE320CD4E420270B5EA74000D11B0C9F74754EBDBFC544B05A258 SWAP2 PUSH2 0xA54 PUSH1 0x40 MLOAD SWAP1 JUMP JUMPDEST SUB SWAP1 LOG1 JUMP JUMPDEST PUSH2 0x252 PUSH2 0x231A JUMP JUMPDEST PUSH2 0x2375 PUSH2 0xDCE JUMP JUMPDEST PUSH2 0x252 PUSH2 0x252 PUSH2 0x23CE JUMP JUMPDEST PUSH2 0x252 PUSH2 0x236D JUMP JUMPDEST PUSH2 0x2390 PUSH2 0x23D6 JUMP JUMPDEST PUSH2 0x252 PUSH2 0x239F PUSH1 0x0 PUSH1 0x7 PUSH2 0x1461 JUMP JUMPDEST CALLER PUSH2 0x2360 PUSH32 0x5DB9EE0A495BF2E6FF9C91A7834C1BA4FDD244A5E8AA4E537BD38AEAE4B073AA SWAP2 PUSH2 0xA54 PUSH1 0x40 MLOAD SWAP1 JUMP JUMPDEST PUSH2 0x252 PUSH2 0x2388 JUMP JUMPDEST PUSH2 0x23E1 PUSH2 0x1C99 PUSH2 0x1153 JUMP JUMPDEST PUSH2 0x23E7 JUMPI JUMP JUMPDEST PUSH1 0x40 MLOAD PUSH32 0x8DFC202B00000000000000000000000000000000000000000000000000000000 DUP2 MSTORE PUSH1 0x4 SWAP1 REVERT JUMPDEST SWAP1 PUSH2 0x28A SWAP3 SWAP2 PUSH2 0x2420 PUSH2 0x18D4 JUMP JUMPDEST POP PUSH2 0x28A SWAP2 SWAP1 PUSH2 0x2437 JUMP JUMPDEST PUSH2 0x28A SWAP2 SWAP1 PUSH1 0x0 PUSH2 0x2412 JUMP JUMPDEST PUSH2 0xFEA SWAP2 SWAP1 CALLER JUMPDEST SWAP3 SWAP2 SWAP1 PUSH2 0x244B PUSH1 0x0 PUSH2 0xDAB JUMP JUMPDEST SWAP4 PUSH1 0x1 PUSH1 0x1 PUSH1 0xA0 SHL SUB DUP6 AND PUSH1 0x1 PUSH1 0x1 PUSH1 0xA0 SHL SUB DUP3 AND EQ PUSH2 0x24D3 JUMPI PUSH1 0x1 PUSH1 0x1 PUSH1 0xA0 SHL SUB DUP6 AND PUSH1 0x1 PUSH1 0x1 PUSH1 0xA0 SHL SUB DUP4 AND EQ PUSH2 0x2489 JUMPI PUSH2 0x252 SWAP4 SWAP5 POP PUSH2 0x2544 JUMP JUMPDEST PUSH2 0xE30 DUP6 PUSH2 0x2496 PUSH1 0x40 MLOAD SWAP1 JUMP JUMPDEST SWAP2 DUP3 SWAP2 PUSH32 0xEC442F0500000000000000000000000000000000000000000000000000000000 DUP4 MSTORE PUSH1 0x4 DUP4 ADD PUSH1 0x1 PUSH1 0x1 PUSH1 0xA0 SHL SUB SWAP1 SWAP2 AND DUP2 MSTORE PUSH1 0x20 ADD SWAP1 JUMP JUMPDEST PUSH2 0xE30 DUP6 PUSH2 0x24E0 PUSH1 0x40 MLOAD SWAP1 JUMP JUMPDEST SWAP2 DUP3 SWAP2 PUSH32 0x96C6FD1E00000000000000000000000000000000000000000000000000000000 DUP4 MSTORE PUSH1 0x4 DUP4 ADD PUSH1 0x1 PUSH1 0x1 PUSH1 0xA0 SHL SUB SWAP1 SWAP2 AND DUP2 MSTORE PUSH1 0x20 ADD SWAP1 JUMP JUMPDEST PUSH1 0x1 PUSH1 0x1 PUSH1 0xA0 SHL SUB SWAP1 SWAP2 AND DUP2 MSTORE PUSH1 0x60 DUP2 ADD SWAP4 SWAP3 PUSH2 0x252 SWAP3 SWAP1 SWAP2 PUSH1 0x40 SWAP2 PUSH2 0x625 SWAP1 PUSH1 0x20 DUP4 ADD MSTORE JUMP JUMPDEST DUP2 PUSH1 0x0 PUSH2 0x2550 DUP2 PUSH2 0xDAB JUMP JUMPDEST PUSH1 0x1 PUSH1 0x1 PUSH1 0xA0 SHL SUB DUP2 AND PUSH1 0x1 PUSH1 0x1 PUSH1 0xA0 SHL SUB DUP6 AND SUB PUSH2 0x25FA JUMPI PUSH2 0x2585 SWAP1 PUSH2 0x34D PUSH2 0x257E DUP9 PUSH2 0x1EA1 PUSH1 0x2 PUSH2 0x560 JUMP JUMPDEST PUSH1 0x2 PUSH2 0x1007 JUMP JUMPDEST PUSH1 0x1 PUSH1 0x1 PUSH1 0xA0 SHL SUB DUP4 AND SUB PUSH2 0x25DB JUMPI POP POP PUSH2 0x25AB PUSH2 0x257E DUP5 PUSH2 0x25A7 PUSH1 0x2 PUSH2 0x560 JUMP JUMPDEST SUB SWAP1 JUMP JUMPDEST PUSH2 0xF48 PUSH2 0x10B5 PUSH2 0x10AF PUSH32 0xDDF252AD1BE2C89B69C2B068FC378DAA952BA7F163C4A11628F55A4DF523B3EF SWAP4 PUSH2 0x5E1 JUMP JUMPDEST PUSH2 0x25F5 SWAP2 PUSH2 0x25E8 SWAP2 PUSH2 0xF8B JUMP JUMPDEST PUSH2 0x14B4 DUP6 PUSH2 0x311 DUP4 PUSH2 0x560 JUMP JUMPDEST PUSH2 0x25AB JUMP JUMPDEST SWAP1 SWAP2 POP PUSH2 0x260A PUSH2 0xFBA DUP5 DUP5 PUSH2 0xF8B JUMP JUMPDEST DUP6 DUP2 LT PUSH2 0x262D JUMPI DUP5 SWAP3 SWAP2 PUSH2 0x34D PUSH2 0x2623 DUP9 PUSH2 0x2585 SWAP5 SUB SWAP1 JUMP JUMPDEST PUSH2 0x1071 DUP8 DUP7 PUSH2 0xF8B JUMP JUMPDEST DUP4 PUSH2 0xE30 DUP8 PUSH2 0x263B PUSH1 0x40 MLOAD SWAP1 JUMP JUMPDEST SWAP4 DUP5 SWAP4 PUSH32 0xE450D38C00000000000000000000000000000000000000000000000000000000 DUP6 MSTORE PUSH1 0x4 DUP6 ADD PUSH2 0x251D JUMP JUMPDEST SWAP1 PUSH2 0x28A SWAP4 SWAP3 SWAP2 PUSH2 0x2679 PUSH2 0x18D4 JUMP JUMPDEST POP PUSH2 0x28A SWAP3 SWAP2 SWAP1 PUSH2 0x2692 JUMP JUMPDEST PUSH2 0x28A SWAP3 SWAP2 SWAP1 PUSH1 0x0 PUSH2 0x266A JUMP JUMPDEST PUSH2 0xFEA SWAP3 SWAP2 SWAP1 DUP3 PUSH2 0x243E DUP3 CALLER PUSH2 0x26A8 DUP2 DUP4 PUSH2 0xFBF JUMP JUMPDEST SWAP4 PUSH1 0x0 NOT DUP6 LT PUSH2 0x26BA JUMPI JUMPDEST POP POP POP SWAP1 POP JUMP JUMPDEST DUP1 DUP6 LT PUSH2 0x26E0 JUMPI PUSH2 0x26CE SWAP1 PUSH2 0x26D7 SWAP5 SWAP6 SUB SWAP1 JUMP JUMPDEST SWAP1 PUSH1 0x0 SWAP3 PUSH2 0x101E JUMP JUMPDEST DUP1 CODESIZE DUP1 DUP1 PUSH2 0x26B3 JUMP JUMPDEST SWAP1 PUSH2 0xE30 DUP6 SWAP3 PUSH2 0x26EF PUSH1 0x40 MLOAD SWAP1 JUMP JUMPDEST SWAP4 DUP5 SWAP4 PUSH32 0xFB8F41B200000000000000000000000000000000000000000000000000000000 DUP6 MSTORE PUSH1 0x4 DUP6 ADD PUSH2 0x251D JUMP JUMPDEST PUSH1 0x0 JUMPDEST DUP3 DUP2 LT PUSH2 0x272D JUMPI POP POP POP JUMP JUMPDEST PUSH1 0x60 DUP3 DUP3 ADD MSTORE PUSH1 0x20 ADD PUSH2 0x2721 JUMP JUMPDEST SWAP1 PUSH2 0x252 PUSH2 0x2751 PUSH2 0x274B DUP5 PUSH2 0x21B9 JUMP JUMPDEST SWAP4 PUSH2 0x21A1 JUMP JUMPDEST PUSH1 0x1F NOT ADD PUSH1 0x20 DUP5 ADD PUSH2 0x271E JUMP JUMPDEST CALLDATASIZE SWAP1 CALLDATACOPY JUMP JUMPDEST SWAP1 PUSH2 0x252 PUSH2 0x2773 PUSH2 0x274B DUP5 PUSH2 0x21B9 JUMP JUMPDEST PUSH1 0x1F NOT ADD PUSH1 0x20 DUP5 ADD PUSH2 0x275E JUMP JUMPDEST SWAP1 PUSH2 0x2789 DUP3 MLOAD SWAP1 JUMP JUMPDEST DUP2 LT ISZERO PUSH2 0x7B9 JUMPI PUSH1 0x20 DUP1 SWAP2 MUL ADD ADD SWAP1 JUMP JUMPDEST PUSH1 0x9 SWAP1 PUSH2 0x27AD PUSH2 0x27A8 DUP4 SLOAD SWAP1 JUMP JUMPDEST PUSH2 0x273B JUMP JUMPDEST SWAP2 DUP3 SWAP1 PUSH2 0x27C0 PUSH2 0x27BB DUP3 SLOAD SWAP1 JUMP JUMPDEST PUSH2 0x2763 JUMP JUMPDEST SWAP1 DUP2 SWAP5 PUSH2 0x27CE PUSH2 0x27BB DUP4 SLOAD SWAP1 JUMP JUMPDEST SWAP4 DUP5 SWAP7 PUSH1 0x0 SWAP8 PUSH2 0x27DD DUP10 PUSH2 0x3CA JUMP JUMPDEST PUSH2 0x27E8 PUSH2 0x28A DUP8 SLOAD SWAP1 JUMP JUMPDEST DUP2 LT ISZERO PUSH2 0x28FE JUMPI DUP1 DUP11 PUSH2 0x283E PUSH1 0xA0 PUSH2 0x127A PUSH2 0x1275 DUP5 PUSH2 0x225E PUSH2 0x28A DUP15 PUSH2 0x2830 DUP16 SWAP12 PUSH2 0x288B SWAP13 PUSH2 0x2820 PUSH2 0x281A DUP4 DUP7 PUSH2 0x796 JUMP JUMPDEST POP PUSH2 0xF4D JUMP JUMPDEST PUSH2 0x282A DUP4 DUP4 PUSH2 0x2780 JUMP JUMPDEST MSTORE PUSH2 0x2780 JUMP JUMPDEST MLOAD POP PUSH2 0x203A DUP11 PUSH1 0x8 SWAP3 PUSH2 0x796 JUMP JUMPDEST DUP3 MSTORE PUSH1 0x4 SWAP1 DUP3 SWAP1 GAS STATICCALL DUP3 SWAP1 DUP4 SWAP3 DUP2 PUSH2 0x28D9 JUMPI JUMPDEST POP PUSH2 0x2890 JUMPI POP POP PUSH2 0x286D SWAP1 PUSH2 0x2866 DUP4 DUP12 PUSH2 0x2780 JUMP JUMPDEST SWAP1 ISZERO ISZERO SWAP1 MSTORE JUMP JUMPDEST PUSH2 0x2886 PUSH2 0x2879 DUP13 PUSH2 0x3CA JUMP JUMPDEST PUSH2 0x2883 DUP4 DUP13 PUSH2 0x2780 JUMP JUMPDEST MSTORE JUMP JUMPDEST PUSH2 0x191F JUMP JUMPDEST PUSH2 0x27DD JUMP JUMPDEST PUSH2 0x289F PUSH2 0x125B PUSH2 0x2886 SWAP5 PUSH2 0x3CA JUMP JUMPDEST SGT DUP1 PUSH2 0x28B4 JUMPI JUMPDEST PUSH2 0x2879 SWAP1 PUSH2 0x2866 DUP6 DUP14 PUSH2 0x2780 JUMP JUMPDEST POP PUSH2 0x2879 PUSH2 0x28C2 DUP3 TIMESTAMP PUSH2 0x11FF JUMP JUMPDEST PUSH2 0x28D0 PUSH2 0x125B PUSH2 0x28A PUSH2 0xB7F JUMP JUMPDEST GT ISZERO SWAP1 POP PUSH2 0x28A6 JUMP JUMPDEST SWAP1 SWAP3 POP PUSH2 0x28F4 SWAP2 POP PUSH1 0xA0 RETURNDATASIZE DUP2 GT PUSH2 0x13C5 JUMPI PUSH2 0x13B4 DUP2 DUP4 PUSH2 0x42B JUMP JUMPDEST POP SWAP4 SWAP2 SWAP3 POP PUSH2 0x2851 JUMP JUMPDEST POP SWAP6 POP SWAP6 SWAP4 POP SWAP6 POP POP POP JUMP INVALID LOG2 PUSH5 0x6970667358 0x22 SLT KECCAK256 0x4E EXTCODEHASH DUP3 0xF9 DUP5 0xEA PUSH30 0x63F44B59226004A79314F8B9327DAE82E8E628FFF299B6999264736F6C63 NUMBER STOP ADDMOD EQ STOP CALLER "},"methodIdentifiers":{"MAX_COMPONENTS()":"0ab50a6a","MAX_STALENESS()":"caca95a4","MAX_WEIGHT()":"e4a28a52","MIN_WEIGHT()":"218b5382","PRICE_DECIMALS()":"f1a640f8","addComponent(string,address,uint256)":"8fc6258b","allowance(address,address)":"dd62ed3e","approve(address,uint256)":"095ea7b3","balanceOf(address)":"70a08231","batchOracleHealthCheck()":"cf50b152","componentSymbols(uint256)":"68a46a19","components(string)":"0e58ba33","decimals()":"313ce567","getComponentCount()":"349195f9","getComponentSymbols()":"7edce370","getCurrentPrice()":"eb91d37e","isOracleDataFresh(string)":"c2d6c0f0","name()":"06fdde03","owner()":"8da5cb5b","pause()":"8456cb59","paused()":"5c975abb","removeComponent(string)":"fa7295d0","renounceOwnership()":"715018a6","symbol()":"95d89b41","totalSupply()":"18160ddd","totalWeight()":"96c82e57","transfer(address,uint256)":"a9059cbb","transferFrom(address,address,uint256)":"23b872dd","transferOwnership(address)":"f2fde38b","unpause()":"3f4ba83a","updateComponentWeight(string,uint256)":"0639ffad"}}}}}