{"contracts/HyperIndexRouter.sol":{"HyperIndexRouter":{"abi":[{"inputs":[{"internalType":"address","name":"_factory","type":"address"},{"internalType":"address","name":"_WHYPE","type":"address"}],"stateMutability":"nonpayable","type":"constructor"},{"inputs":[],"name":"ReentrancyGuardReentrantCall","type":"error"},{"inputs":[],"name":"WHYPE","outputs":[{"internalType":"address","name":"","type":"address"}],"stateMutability":"view","type":"function"},{"inputs":[{"internalType":"address","name":"tokenA","type":"address"},{"internalType":"address","name":"tokenB","type":"address"},{"internalType":"uint256","name":"amountADesired","type":"uint256"},{"internalType":"uint256","name":"amountBDesired","type":"uint256"},{"internalType":"uint256","name":"amountAMin","type":"uint256"},{"internalType":"uint256","name":"amountBMin","type":"uint256"},{"internalType":"address","name":"to","type":"address"},{"internalType":"uint256","name":"deadline","type":"uint256"}],"name":"addLiquidity","outputs":[{"internalType":"uint256","name":"amountA","type":"uint256"},{"internalType":"uint256","name":"amountB","type":"uint256"},{"internalType":"uint256","name":"liquidity","type":"uint256"}],"stateMutability":"nonpayable","type":"function"},{"inputs":[{"internalType":"address","name":"token","type":"address"},{"internalType":"uint256","name":"amountTokenDesired","type":"uint256"},{"internalType":"uint256","name":"amountTokenMin","type":"uint256"},{"internalType":"uint256","name":"amountHYPEMin","type":"uint256"},{"internalType":"address","name":"to","type":"address"},{"internalType":"uint256","name":"deadline","type":"uint256"}],"name":"addLiquidityHYPE","outputs":[{"internalType":"uint256","name":"amountToken","type":"uint256"},{"internalType":"uint256","name":"amountHYPE","type":"uint256"},{"internalType":"uint256","name":"liquidity","type":"uint256"}],"stateMutability":"payable","type":"function"},{"inputs":[],"name":"factory","outputs":[{"internalType":"address","name":"","type":"address"}],"stateMutability":"view","type":"function"},{"inputs":[{"internalType":"uint256","name":"amountOut","type":"uint256"},{"internalType":"uint256","name":"reserveIn","type":"uint256"},{"internalType":"uint256","name":"reserveOut","type":"uint256"}],"name":"getAmountIn","outputs":[{"internalType":"uint256","name":"amountIn","type":"uint256"}],"stateMutability":"pure","type":"function"},{"inputs":[{"internalType":"uint256","name":"amountIn","type":"uint256"},{"internalType":"uint256","name":"reserveIn","type":"uint256"},{"internalType":"uint256","name":"reserveOut","type":"uint256"}],"name":"getAmountOut","outputs":[{"internalType":"uint256","name":"amountOut","type":"uint256"}],"stateMutability":"pure","type":"function"},{"inputs":[{"internalType":"uint256","name":"amountOut","type":"uint256"},{"internalType":"address[]","name":"path","type":"address[]"}],"name":"getAmountsIn","outputs":[{"internalType":"uint256[]","name":"amounts","type":"uint256[]"}],"stateMutability":"view","type":"function"},{"inputs":[{"internalType":"uint256","name":"amountIn","type":"uint256"},{"internalType":"address[]","name":"path","type":"address[]"}],"name":"getAmountsOut","outputs":[{"internalType":"uint256[]","name":"amounts","type":"uint256[]"}],"stateMutability":"view","type":"function"},{"inputs":[{"internalType":"uint256","name":"amountA","type":"uint256"},{"internalType":"uint256","name":"reserveA","type":"uint256"},{"internalType":"uint256","name":"reserveB","type":"uint256"}],"name":"quote","outputs":[{"internalType":"uint256","name":"amountB","type":"uint256"}],"stateMutability":"pure","type":"function"},{"inputs":[{"internalType":"address","name":"tokenA","type":"address"},{"internalType":"address","name":"tokenB","type":"address"},{"internalType":"uint256","name":"liquidity","type":"uint256"},{"internalType":"uint256","name":"amountAMin","type":"uint256"},{"internalType":"uint256","name":"amountBMin","type":"uint256"},{"internalType":"address","name":"to","type":"address"},{"internalType":"uint256","name":"deadline","type":"uint256"}],"name":"removeLiquidity","outputs":[{"internalType":"uint256","name":"amountA","type":"uint256"},{"internalType":"uint256","name":"amountB","type":"uint256"}],"stateMutability":"nonpayable","type":"function"},{"inputs":[{"internalType":"address","name":"token","type":"address"},{"internalType":"uint256","name":"liquidity","type":"uint256"},{"internalType":"uint256","name":"amountTokenMin","type":"uint256"},{"internalType":"uint256","name":"amountHYPEMin","type":"uint256"},{"internalType":"address","name":"to","type":"address"},{"internalType":"uint256","name":"deadline","type":"uint256"}],"name":"removeLiquidityHYPE","outputs":[{"internalType":"uint256","name":"amountToken","type":"uint256"},{"internalType":"uint256","name":"amountHYPE","type":"uint256"}],"stateMutability":"nonpayable","type":"function"},{"inputs":[{"internalType":"uint256","name":"amountOutMin","type":"uint256"},{"internalType":"address[]","name":"path","type":"address[]"},{"internalType":"address","name":"to","type":"address"},{"internalType":"uint256","name":"deadline","type":"uint256"}],"name":"swapExactHYPEForTokens","outputs":[{"internalType":"uint256[]","name":"amounts","type":"uint256[]"}],"stateMutability":"payable","type":"function"},{"inputs":[{"internalType":"uint256","name":"amountIn","type":"uint256"},{"internalType":"uint256","name":"amountOutMin","type":"uint256"},{"internalType":"address[]","name":"path","type":"address[]"},{"internalType":"address","name":"to","type":"address"},{"internalType":"uint256","name":"deadline","type":"uint256"}],"name":"swapExactTokensForHYPE","outputs":[{"internalType":"uint256[]","name":"amounts","type":"uint256[]"}],"stateMutability":"nonpayable","type":"function"},{"inputs":[{"internalType":"uint256","name":"amountIn","type":"uint256"},{"internalType":"uint256","name":"amountOutMin","type":"uint256"},{"internalType":"address[]","name":"path","type":"address[]"},{"internalType":"address","name":"to","type":"address"},{"internalType":"uint256","name":"deadline","type":"uint256"}],"name":"swapExactTokensForTokens","outputs":[{"internalType":"uint256[]","name":"amounts","type":"uint256[]"}],"stateMutability":"nonpayable","type":"function"},{"inputs":[{"internalType":"uint256","name":"amountOut","type":"uint256"},{"internalType":"address[]","name":"path","type":"address[]"},{"internalType":"address","name":"to","type":"address"},{"internalType":"uint256","name":"deadline","type":"uint256"}],"name":"swapHYPEForExactTokens","outputs":[{"internalType":"uint256[]","name":"amounts","type":"uint256[]"}],"stateMutability":"payable","type":"function"},{"inputs":[{"internalType":"uint256","name":"amountOut","type":"uint256"},{"internalType":"uint256","name":"amountInMax","type":"uint256"},{"internalType":"address[]","name":"path","type":"address[]"},{"internalType":"address","name":"to","type":"address"},{"internalType":"uint256","name":"deadline","type":"uint256"}],"name":"swapTokensForExactHYPE","outputs":[{"internalType":"uint256[]","name":"amounts","type":"uint256[]"}],"stateMutability":"nonpayable","type":"function"},{"inputs":[{"internalType":"uint256","name":"amountOut","type":"uint256"},{"internalType":"uint256","name":"amountInMax","type":"uint256"},{"internalType":"address[]","name":"path","type":"address[]"},{"internalType":"address","name":"to","type":"address"},{"internalType":"uint256","name":"deadline","type":"uint256"}],"name":"swapTokensForExactTokens","outputs":[{"internalType":"uint256[]","name":"amounts","type":"uint256[]"}],"stateMutability":"nonpayable","type":"function"},{"stateMutability":"payable","type":"receive"}],"evm":{"bytecode":{"linkReferences":{},"object":"60c060405234620000cf576200001f6200001862000177565b906200019e565b604051612c68620001fb823960805181818161066c0152818161092901528181610b8b01528181610e78015281816112b9015281816114a1015281816116290152818161184a01528181611af601528181611bee01528181611dca01528181611e4a015281816121fc015261222b015260a0518181816104130152818161077b01528181610b4f01528181611020015281816115e80152818161180901528181611ab50152611bb00152612c6890f35b600080fd5b634e487b7160e01b600052604160045260246000fd5b90601f01601f191681019081106001600160401b038211176200010c57604052565b620000d4565b90620001296200012160405190565b9283620000ea565b565b90565b6001600160a01b03811603620000cf57565b9050519062000129826200012e565b9190604083820312620000cf576200012b906200016d818562000140565b9360200162000140565b6200019a62002e63803803806200018e8162000112565b9283398101906200014f565b9091565b620001a8620001e4565b60805260a052565b6200012b6200012b6200012b9290565b6200012b6001620001b0565b906200012b6200012b620001e092620001b0565b9055565b62000129620001f2620001c0565b6000620001cc56fe60806040526004361015610023575b361561001957600080fd5b61002161076a565b005b60003560e01c8063054d50d414610133578063108bdd551461012e57806314fe1253146101295780631f00ca741461012457806338ed17391461011f57806359f613a41461011a57806382f71ad41461011557806385f8c259146101105780638803dbee1461010b57806389b263281461010657806394445f7414610101578063ad615dec146100fc578063b223ed1d146100f7578063baa2abde146100f2578063c45a0155146100ed578063d06ca61f146100e85763e8e337000361000e57610723565b610690565b610657565b610638565b6105b0565b610594565b610568565b610531565b61050f565b6104f3565b6104be565b6103fe565b6103d1565b6103b5565b610361565b6102e0565b61018c565b805b0361014157565b600080fd5b9050359061015382610138565b565b90916060828403126101415761018561016e8484610146565b9361017c8160208601610146565b93604001610146565b90565b9052565b34610141576101b86101a86101a2366004610155565b91611da2565b6040519182918290815260200190565b0390f35b909182601f830112156101415781359167ffffffffffffffff831161014157602001926020830284011161014157565b6001600160a01b031690565b6001600160a01b03811661013a565b90503590610153826101f8565b9060a082820312610141576102298183610146565b926102378260208501610146565b9260408101359167ffffffffffffffff83116101415761025c846101859484016101bc565b93909461026c8160608601610207565b93608001610146565b0190565b90610299610292610288845190565b8084529260200190565b9260200190565b9060005b8181106102aa5750505090565b9091926102c76102c06001928651815260200190565b9460200190565b92910161029d565b602080825261018592910190610279565b34610141576101b86103026102f6366004610214565b94939093929192611b69565b604051918291826102cf565b91608083830312610141576103238284610146565b9260208101359167ffffffffffffffff831161014157610348846101859484016101bc565b9390946103588160408601610207565b93606001610146565b6101b861030261037236600461030e565b939290926117b5565b919091604081840312610141576103928382610146565b92602082013567ffffffffffffffff8111610141576103b192016101bc565b9091565b34610141576101b86103026103cb36600461037b565b91611df5565b34610141576101b86103026103e7366004610214565b949390939291926113fa565b600091031261014157565b346101415761040e3660046103f3565b6101b87f00000000000000000000000000000000000000000000000000000000000000005b604051918291826001600160a01b03909116815260200190565b909160c082840312610141576104638383610207565b926104718160208501610146565b9261047f8260408301610146565b926101856104908460608501610146565b9361049e8160808601610207565b9360a001610146565b9081526040810192916101539160200152565b0152565b34610141576104dd6104d136600461044d565b94939093929192611127565b906101b86104ea60405190565b928392836104a7565b34610141576101b86101a8610509366004610155565b91611dad565b34610141576101b8610302610525366004610214565b9493909392919261154b565b6101b861030261054236600461030e565b93929092611d88565b9081526060810193926101539290916040916104ba906020830152565b6101b861058561057936600461044d565b94939093929192610d5f565b6040519193919384938461054b565b34610141576101b86101a86105aa366004610155565b91611d97565b34610141576101b86103026105c6366004610214565b94939093929192611a5f565b60e081830312610141576105e68282610207565b926105f48360208401610207565b926106028160408501610146565b926106108260608301610146565b926101856106218460808501610146565b9361062f8160a08601610207565b9360c001610146565b34610141576104dd61064b3660046105d2565b95949094939193610fe5565b34610141576106673660046103f3565b6101b87f0000000000000000000000000000000000000000000000000000000000000000610433565b34610141576101b86103026106a636600461037b565b91611db8565b919061010083820312610141576106c38184610207565b926106d18260208301610207565b926106df8360408401610146565b926106ed8160608501610146565b926106fb8260808301610146565b9261018561070c8460a08501610146565b9361071a8160c08601610207565b9360e001610146565b34610141576101b86105856107393660046106ac565b96959095949194939293610ab9565b634e487b7160e01b600052600160045260246000fd5b1561076557565b610748565b610153336107a96001600160a01b037f0000000000000000000000000000000000000000000000000000000000000000165b916001600160a01b031690565b1461075e565b156107b657565b60405162461bcd60e51b815260206004820152601960248201527f4879706572496e646578526f757465723a2045585049524544000000000000006044820152606490fd5b61081b9a99989796959493929190610816428c5b10156107af565b6108ff565b909192565b6101ec610185610185926001600160a01b031690565b61018590610820565b61018590610836565b634e487b7160e01b600052604160045260246000fd5b90601f01601f1916810190811067ffffffffffffffff82111761088057604052565b610848565b80151561013a565b9050519061015382610885565b90602082820312610141576101859161088d565b6001600160a01b039182168152911660208201526060810192916101539160400152565b6040513d6000823e3d90fd5b9050519061015382610138565b9060208282031261014157610185916108de565b6109179795939896949a509a989a5050508786611e41565b948594829661095861095361094d84887f00000000000000000000000000000000000000000000000000000000000000006124c9565b9661083f565b61083f565b906323b872dd94602087339461098360008a61098f61097660405190565b9788968795869460e01b90565b84528b600485016108ae565b03925af18015610a735787966109db6109b96109536020986109d096600096610aa3575b5061083f565b946109c360405190565b9a8b978896879560e01b90565b8552600485016108ae565b03925af1928315610a73576109536020936109fe92610a3596610a78575061083f565b610a1e6000636a627842610a1160405190565b9687958694859360e01b90565b83526001600160a01b031660048301526024820190565b03925af1908115610a7357600091610a4b575090565b610185915060203d8111610a6c575b610a64818361085e565b8101906108eb565b503d610a5a565b6108d2565b610a9790863d8111610a9c575b610a8f818361085e565b81019061089a565b6109b3565b503d610a85565b610a97908b3d8111610a9c57610a8f818361085e565b61081b9796959493929190600080806107fb565b61081b989796959493929190610ae4425b8a61080f565b610b37565b6001600160a01b0390911681526040810192916101539160200152565b634e487b7160e01b600052601160045260246000fd5b9190610b27565b9290565b8203918211610b3257565b610b06565b61095395985091610bdb9793999691610b79935050507f0000000000000000000000000000000000000000000000000000000000000000973480958a8c611e41565b939097849760208a610bb7610baf84867f00000000000000000000000000000000000000000000000000000000000000006124c9565b95869561083f565b6109d060006323b872dd339d8e95610bce60405190565b998a978896879560e01b90565b03925af1908115610a7357610bf89261095392610d48575061083f565b9163d0e30db092803b1561014157610c19610c1260405190565b9460e01b90565b845260008460048189855af1908115610a7357610c5194602092610d22575b5063a9059cbb90610c4860405190565b95869260e01b90565b825281600081610c658b8960048401610ae9565b03925af1928315610a7357610953602093610953610c8f966109fe94600091610d05575b5061075e565b03925af1908115610a7357600091610ce7575b5093828211610cb057505050565b6000809392610ccd8294610cc7610953859661083f565b92610b1c565b90828215610cde575bf115610a7357565b506108fc610cd6565b610cff915060203d8111610a6c57610a64818361085e565b38610ca2565b610d1c9150873d8111610a9c57610a8f818361085e565b38610c89565b610d3b9060005b610d33818361085e565b8101906103f3565b38610c38565b503d610d29565b610a979060203d8111610a9c57610a8f818361085e565b61081b95949392919060008080610acd565b6103b1989796959493929190610d8642610ade565b610e66565b91906040838203126101415761018590610da581856108de565b936020016108de565b15610db557565b60405162461bcd60e51b815260206004820152602760248201527f4879706572496e646578526f757465723a20494e53554646494349454e545f4160448201526617d05353d5539560ca1b6064820152608490fd5b15610e1157565b60405162461bcd60e51b815260206004820152602760248201527f4879706572496e646578526f757465723a20494e53554646494349454e545f4260448201526617d05353d5539560ca1b6064820152608490fd5b5093979196509094925090610e9c86837f00000000000000000000000000000000000000000000000000000000000000006124c9565b92610ea68461083f565b9160206109d0610eb58561083f565b92610ed56323b872dd913399610eca60405190565b9a8b95869560e01b90565b03816000855af1928315610a7357610f1195604094610fc9575b5050610a1e60006389afcb44610f0460405190565b9788958694859360e01b90565b03925af1948515610a73576000928396610f8a575b5061079c610f37610f4492846123c2565b506001600160a01b031690565b03610f795790610f72610f676101539395925b6101858497610f6b610f67829b90565b9190565b1015610dae565b1015610e0a565b61015391610f7290610f6790610f57565b610f379650610f44919350610fb861079c9160403d8111610fc2575b610fb0818361085e565b810190610d8b565b9750939150610f26565b503d610fa6565b610fe09060203d8111610a9c57610a8f818361085e565b610eef565b6103b196959493929190600080610d71565b6103b1979695949392919061100c428961080f565b9461105193916110849699979598939950507f0000000000000000000000000000000000000000000000000000000000000000976110493061083f565b92898b610fe5565b92909460208496611065610953829a61083f565b611078600063a9059cbb610f0460405190565b83528a60048401610ae9565b03925af1908115610a73576110a19261095392610d48575061083f565b90632e1a7d4d91803b15610141576110c8926000916110bf60405190565b94859260e01b90565b825260048201869052602490829084905af1908115610a73576000936110fc610953869593869594869561110b575061083f565b828215610cde57f115610a7357565b61112190863d8111610d4157610d33818361085e565b386109b3565b6103b1959493929190600080610ff7565b6101859695949392919061114d425b8861080f565b6112a9565b9061015361115f60405190565b928361085e565b67ffffffffffffffff81116108805760208091020190565b9092919261119361118e82611166565b611152565b938185526020808601920283019281841161014157915b8383106111b75750505050565b602080916111c58486610207565b8152019201916111aa565b61018591369161117e565b6101856101856101859290565b634e487b7160e01b600052603260045260246000fd5b90611207825190565b811015611218576020809102010190565b6111e8565b1561122457565b60405162461bcd60e51b815260206004820152602c60248201527f4879706572496e646578526f757465723a20494e53554646494349454e545f4f60448201527f55545055545f414d4f554e5400000000000000000000000000000000000000006064820152608490fd5b9190811015611218576020020190565b35610185816101f8565b61131095949192979650506112ea7f0000000000000000000000000000000000000000000000000000000000000000926112e383866111d0565b9084612a6f565b926113278498611320610f67610b2361131c6113166113078b5190565b60019d8e6111db565b90610b1c565b8a6111fe565b5190565b101561121d565b6020826000946109d086611390611355610953610953611350611349866111db565b898c61128f565b61129f565b936323b872dd9c61138a61135061138361137d6113508d339c6113778b6111db565b9161128f565b936111db565b8c8c61128f565b916124c9565b9a6113b96113a961131c6113a3856111db565b8d6111fe565b6040519d8e978896879560e01b90565b03925af1958615610a7357610153966113d894506113de575b506111d0565b9061211d565b6113f59060203d8111610a9c57610a8f818361085e565b6113d2565b6101859594939291906060611138565b6101859695949392919061141d42611147565b611494565b1561142957565b60405162461bcd60e51b815260206004820152602860248201527f4879706572496e646578526f757465723a204558434553534956455f494e505560448201527f545f414d4f554e540000000000000000000000000000000000000000000000006064820152608490fd5b90949392969550506114d27f0000000000000000000000000000000000000000000000000000000000000000946114cb84896111d0565b9086612b58565b9182966114f76000936114f0610f67610b2361131c611316896111db565b1115611422565b602061151561095361095361135061150e886111db565b878761128f565b966323b872dd976109d086611390339461153b611350611534856111db565b8b8b61128f565b61138a61135061138360016111db565b610185959493929190606061140a565b61018595949392919061156f425b8761080f565b6115c0565b1561157b57565b60405162461bcd60e51b815260206004820152601e60248201527f4879706572496e646578526f757465723a20494e56414c49445f5041544800006044820152606490fd5b5091949350600092916115d2846111db565b6115dd90878461128f565b6115e69061129f565b7f000000000000000000000000000000000000000000000000000000000000000096906001600160a01b038816906001600160a01b03161461162790611574565b7f0000000000000000000000000000000000000000000000000000000000000000923461165483836111d0565b61165e9186612a6f565b938498611669865190565b94600195611676876111db565b61167f91610b1c565b61168990886111fe565b5110156116959061121d565b61169e9061083f565b6116a79061083f565b63d0e30db0916116b6896111db565b6116c090886111fe565b51823b15610141576116d7938a91610c4860405190565b82526004908290865af1908115610a7357899660209461171b93611799575b5061138a61135061171461137d61135061138363a9059cbb9d6111db565b898961128f565b9061174f8961173561131c61172f836111db565b8b6111fe565b9761175a61174260405190565b998a968795869460e01b90565b845260048401610ae9565b03925af1958615610a7357610153966113d89461177c9291611781575061075e565b6111d0565b610d1c915060203d8111610a9c57610a8f818361085e565b6117af90893d8b11610d4157610d33818361085e565b386116f6565b6101859493929190606061155b565b610185969594939291906117d742611147565b509594509260019291826117ea856111db565b6117f391610b1c565b6117fe90848361128f565b6118079061129f565b7f000000000000000000000000000000000000000000000000000000000000000093906001600160a01b038516906001600160a01b03161461184890611574565b7f00000000000000000000000000000000000000000000000000000000000000009761187482846111d0565b61187e918a612b58565b93849860009761188d896111db565b61189790886111fe565b5111156118a390611422565b6118ac886111db565b6118b790848661128f565b6118c09061129f565b6118c99061083f565b6118d29061083f565b6323b872dd33926118e28b6111db565b6118ed90878961128f565b6118f69061129f565b6118ff8b6111db565b61190a90888a61128f565b6119139061129f565b9061191d926124c9565b906119278b6111db565b611931908a6111fe565b519361193c60405190565b948593849360e01b845261195392600485016108ae565b03818b5a94602095f1938415610a7357611987610953946109539361198d97611a43575b506119813061083f565b926111d0565b8761211d565b92632e1a7d4d6119b361131c6119ad6119a4875190565b611310866111db565b866111fe565b853b15610141576119e8956119da8880946119cd60405190565b998a958694859360e01b90565b835260048301526024820190565b03925af1938415610a735761131c869594611a27611a15610953899897610ccd968a99611a2d575061083f565b94611310611a21845190565b916111db565b906111fe565b611121908a3d8c11610d4157610d33818361085e565b611a5a9060203d8111610a9c57610a8f818361085e565b611977565b61018595949392919060606117c4565b61018596959493929190611a8242611147565b5090959450926001929182611a96856111db565b611a9f91610b1c565b611aaa90848361128f565b611ab39061129f565b7f000000000000000000000000000000000000000000000000000000000000000093906001600160a01b038516906001600160a01b031614611af490611574565b7f000000000000000000000000000000000000000000000000000000000000000095611b2082846111d0565b611b2a9188612a6f565b938498611b35865190565b611b3e886111db565b611b4791610b1c565b611b5190876111fe565b511015611b5d9061121d565b6000966118ac886111db565b6101859594939291906060611a6f565b610185959493929190611b8b42611569565b509194935060009291611baa611350611ba3866111db565b888561128f565b92611be97f000000000000000000000000000000000000000000000000000000000000000094611be361079c876001600160a01b031690565b14611574565b611c1f7f000000000000000000000000000000000000000000000000000000000000000092611c1889866111d0565b9084612b58565b928397611c4d610953611c3d61131c611c378b6111db565b896111fe565b9761095334996114f0610f678c90565b63d0e30db090611c6261131c611c378b6111db565b813b1561014157611c78928a916110bf60405190565b82526004908290855af1918215610a7357602092611d6c575b50611cc863a9059cbb96611cb1611350611caa8d6111db565b878961128f565b61138a611350611cc160016111db565b888a61128f565b9061174f8a611ce261131c611cdc836111db565b8c6111fe565b98611cfc611cef60405190565b9a8b968795869460e01b90565b03925af1918215610a735761177c611d1e93611d24968a91611781575061075e565b8361211d565b611d3c61018561131c611d36866111db565b846111fe565b8211611d4757505050565b82809291610ccd829361131061131c611d626109533361083f565b94611a27876111db565b611d82908a3d8c11610d4157610d33818361085e565b38611c91565b61018594939291906060611b79565b6101859291906127c6565b61018592919061288d565b610185929190612987565b611def61018593611dc7606090565b507f0000000000000000000000000000000000000000000000000000000000000000936111d0565b91612a6f565b611e0461018593611dc7606090565b91612b58565b90505190610153826101f8565b906020828203126101415761018591611e0a565b6101ec6101856101859290565b61018590611e2b565b919492939092917f000000000000000000000000000000000000000000000000000000000000000093611e766109538661083f565b9163e6a4390595611e90611e8960405190565b9760e01b90565b87526001600160a01b03828116600489015283166024880152602087604481875afa968715610a7357600097611ff2575b50600096611ed461079c6101ec8a611e38565b14611f70575b611ee493506125e5565b93611eee816111db565b82149081611f5e575b5015611f0557505050509091565b611f14848288979596976127c6565b94838611611f305750505050611f2a6103b19190565b82610f72565b8395506103b19450611f4c61018592611f5092611f58966127c6565b9690565b86111561075e565b83610f6b565b611f6891506111db565b841438611ef7565b6020611f8e9463c9c6539690611f8560405190565b96879260e01b90565b82526001600160a01b0385811660048401528616602483015260449082908b905af1938415610a7357611ee494611fc6575b50611eda565b611fe69060203d8111611feb575b611fde818361085e565b810190611e17565b611fc0565b503d611fd4565b61200b91975060203d8111611feb57611fde818361085e565b9538611ec1565b6000198114610b325760010190565b91908201809211610b3257565b67ffffffffffffffff811161088057602090601f01601f19160190565b9061205861118e8361202e565b918252565b369037565b906101536120786120728461204b565b9361202e565b601f19016020840161205d565b60005b8381106120985750506000910152565b8181015183820152602001612088565b6120c96120d2602093610275936120bd815190565b80835293849260200190565b95869101612085565b601f01601f191690565b90926121109061210061018596946120f960808601976000870152565b6020850152565b6001600160a01b03166040830152565b60608184039101526120a8565b919260005b825190612137610185600193611310856111db565b8110156122fc5761215861214b82866111fe565b516001600160a01b031690565b61217661214b61217061216a866111db565b85612021565b876111fe565b9261219d61079c61131c61131661219761219089886123c2565b50956111db565b87612021565b6001600160a01b038316600091036122e4575061224f6109536109536121c360006111db565b93965b896121cf815190565b826121e2610185600293611310856111db565b8a10156122da5761138a61214b61222794611a278d6122217f0000000000000000000000000000000000000000000000000000000000000000976111db565b90612021565b955b7f00000000000000000000000000000000000000000000000000000000000000006124c9565b9063022c0d9f9160009361226a612265866111db565b612062565b823b1561014157859461229d86926122929461228560405190565b9b8c988997889660e01b90565b8652600486016120dc565b03925af1928315610a73576122b8936122bd575b5050612012565b612122565b816122d392903d10610d4157610d33818361085e565b38806122b1565b5050508b95612229565b6109536109536122f661224f936111db565b966121c6565b505092505050565b1561230b57565b60405162461bcd60e51b815260206004820152602660248201527f4879706572496e6465784c6962726172793a204944454e544943414c5f41444460448201527f52455353455300000000000000000000000000000000000000000000000000006064820152608490fd5b1561237d57565b60405162461bcd60e51b815260206004820152601f60248201527f4879706572496e6465784c6962726172793a205a45524f5f41444452455353006044820152606490fd5b9091906123e36001600160a01b0384166001600160a01b0383161415612304565b6001600160a01b0383166001600160a01b038216101561241b57915b906101538361241461079c6101ec6000611e38565b1415612376565b6123ff565b610188906001600160a01b031660601b90565b60148161244561027593839695612420565b018092612420565b916124966014602093612490612489610185977fff00000000000000000000000000000000000000000000000000000000000000815260010190565b8092612420565b01918252565b017f850862577798453a83a82988c33040528b3c07c908b27877fad5f2059df00c43815260200190565b610185906111db565b61250a6125416125529261250a6125166124f261018598612557986124ec600090565b506123c2565b906124fc60405190565b938492602084019283612433565b9081038252038261085e565b612528612521825190565b9160200190565b209061253360405190565b93849260208401928361244d565b61254c612521825190565b206124c0565b611e2b565b610836565b6dffffffffffffffffffffffffffff811661013a565b905051906101538261255c565b63ffffffff811661013a565b905051906101538261257f565b9091606082840312610141576101856125b18484612572565b936125bf8160208601612572565b9360400161258b565b610185610185610185926dffffffffffffffffffffffffffff1690565b91906060612611610953610953612620956125fe600090565b508561260a82826123c2565b50986124c9565b630902f1ac906110bf60405190565b825260049082905afa918215610a73576000908193612668575b5061079c61265361264d612660936125c8565b946125c8565b946001600160a01b031690565b036103b15791565b61264d9350612660915061265361269861079c9260603d81116126a3575b612690818361085e565b810190612598565b50955092505061263a565b503d612686565b156126b157565b60405162461bcd60e51b815260206004820152602660248201527f4879706572496e6465784c6962726172793a20494e53554646494349454e545f60448201527f414d4f554e5400000000000000000000000000000000000000000000000000006064820152608490fd5b1561272357565b60405162461bcd60e51b815260206004820152602960248201527f4879706572496e6465784c6962726172793a20494e53554646494349454e545f60448201527f4c495155494449545900000000000000000000000000000000000000000000006064820152608490fd5b81810292918115918404141715610b3257565b634e487b7160e01b600052601260045260246000fd5b81156127c1570490565b6127a1565b61018592612803916127fe60006127e66127df826111db565b84116126aa565b6127ef816111db565b86119081612808575b5061271c565b61278e565b6127b7565b61281291506111db565b835b11386127f8565b1561282257565b60405162461bcd60e51b815260206004820152602c60248201527f4879706572496e6465784c6962726172793a20494e53554646494349454e545f60448201527f494e5055545f414d4f554e5400000000000000000000000000000000000000006064820152608490fd5b610185926128fa6128ee6128e76128ff946128a6600090565b506128d660006128bf6128b8826111db565b841161281b565b6128c8816111db565b89119081612905575061271c565b6128e16103e56111db565b9061278e565b928361278e565b936128e16103e86111db565b612021565b906127b7565b61290f91506111db565b86612814565b1561291c57565b60405162461bcd60e51b815260206004820152602d60248201527f4879706572496e6465784c6962726172793a20494e53554646494349454e545f60448201527f4f55545055545f414d4f554e54000000000000000000000000000000000000006064820152608490fd5b916128ff6128d6846129e06129d5610185976129e6976129a5600090565b506127fe60006129be6129b7826111db565b8511612915565b6129c7816111db565b831190816129f0575061271c565b6128e16103e86111db565b93610b1c565b61222160016111db565b6129fa91506111db565b89612814565b15612a0757565b60405162461bcd60e51b815260206004820152601f60248201527f4879706572496e6465784c6962726172793a20494e56414c49445f50415448006044820152606490fd5b9061205861118e83611166565b90610153612078612a6984612a4c565b93611166565b909190612a91612a7d835190565b612a8a610f6760026111db565b1015612a00565b612aa1612a9c835190565b612a59565b918293612ab9600091612ab6612170846111db565b52565b5060005b8151612ad1610185600192611310846111db565b821015612b435790612b3982612ab6612b3361216a61137d868b612b2e61131c612b268e612b3e9d8f61214b81611a27612b1a612b1461214b8d612b20976111fe565b956111db565b8b612021565b916125e5565b9490936111fe565b61288d565b886111fe565b612012565b612abd565b505050505090565b8015610b32576000190190565b9192916119ad9190612b6b612a7d865190565b612b76612a9c865190565b908195612b96612b84845190565b94612ab66001978897611310896111db565b612ba16119a4825190565b935b612baf575b5050505050565b612bb960006111db565b841115612c2d57612c278594612c22612c0d612bfa612be661214b612b33612be08c6111db565b87610b1c565b612bf361214b86896111fe565b90886125e5565b90612c0861131c868b6111fe565b612987565b612ab6612b33612c1c8a6111db565b85610b1c565b612b4b565b93612ba3565b612ba856fea2646970667358221220497471f2a9f6c95624fabc9bd4b1f9c95630467ca6c37e558e08e315be15f22f64736f6c63430008140033","opcodes":"PUSH1 0xC0 PUSH1 0x40 MSTORE CALLVALUE PUSH3 0xCF JUMPI PUSH3 0x1F PUSH3 0x18 PUSH3 0x177 JUMP JUMPDEST SWAP1 PUSH3 0x19E JUMP JUMPDEST PUSH1 0x40 MLOAD PUSH2 0x2C68 PUSH3 0x1FB DUP3 CODECOPY PUSH1 0x80 MLOAD DUP2 DUP2 DUP2 PUSH2 0x66C ADD MSTORE DUP2 DUP2 PUSH2 0x929 ADD MSTORE DUP2 DUP2 PUSH2 0xB8B ADD MSTORE DUP2 DUP2 PUSH2 0xE78 ADD MSTORE DUP2 DUP2 PUSH2 0x12B9 ADD MSTORE DUP2 DUP2 PUSH2 0x14A1 ADD MSTORE DUP2 DUP2 PUSH2 0x1629 ADD MSTORE DUP2 DUP2 PUSH2 0x184A ADD MSTORE DUP2 DUP2 PUSH2 0x1AF6 ADD MSTORE DUP2 DUP2 PUSH2 0x1BEE ADD MSTORE DUP2 DUP2 PUSH2 0x1DCA ADD MSTORE DUP2 DUP2 PUSH2 0x1E4A ADD MSTORE DUP2 DUP2 PUSH2 0x21FC ADD MSTORE PUSH2 0x222B ADD MSTORE PUSH1 0xA0 MLOAD DUP2 DUP2 DUP2 PUSH2 0x413 ADD MSTORE DUP2 DUP2 PUSH2 0x77B ADD MSTORE DUP2 DUP2 PUSH2 0xB4F ADD MSTORE DUP2 DUP2 PUSH2 0x1020 ADD MSTORE DUP2 DUP2 PUSH2 0x15E8 ADD MSTORE DUP2 DUP2 PUSH2 0x1809 ADD MSTORE DUP2 DUP2 PUSH2 0x1AB5 ADD MSTORE PUSH2 0x1BB0 ADD MSTORE PUSH2 0x2C68 SWAP1 RETURN JUMPDEST PUSH1 0x0 DUP1 REVERT JUMPDEST PUSH4 0x4E487B71 PUSH1 0xE0 SHL PUSH1 0x0 MSTORE PUSH1 0x41 PUSH1 0x4 MSTORE PUSH1 0x24 PUSH1 0x0 REVERT JUMPDEST SWAP1 PUSH1 0x1F ADD PUSH1 0x1F NOT AND DUP2 ADD SWAP1 DUP2 LT PUSH1 0x1 PUSH1 0x1 PUSH1 0x40 SHL SUB DUP3 GT OR PUSH3 0x10C JUMPI PUSH1 0x40 MSTORE JUMP JUMPDEST PUSH3 0xD4 JUMP JUMPDEST SWAP1 PUSH3 0x129 PUSH3 0x121 PUSH1 0x40 MLOAD SWAP1 JUMP JUMPDEST SWAP3 DUP4 PUSH3 0xEA JUMP JUMPDEST JUMP JUMPDEST SWAP1 JUMP JUMPDEST PUSH1 0x1 PUSH1 0x1 PUSH1 0xA0 SHL SUB DUP2 AND SUB PUSH3 0xCF JUMPI JUMP JUMPDEST SWAP1 POP MLOAD SWAP1 PUSH3 0x129 DUP3 PUSH3 0x12E JUMP JUMPDEST SWAP2 SWAP1 PUSH1 0x40 DUP4 DUP3 SUB SLT PUSH3 0xCF JUMPI PUSH3 0x12B SWAP1 PUSH3 0x16D DUP2 DUP6 PUSH3 0x140 JUMP JUMPDEST SWAP4 PUSH1 0x20 ADD PUSH3 0x140 JUMP JUMPDEST PUSH3 0x19A PUSH3 0x2E63 DUP1 CODESIZE SUB DUP1 PUSH3 0x18E DUP2 PUSH3 0x112 JUMP JUMPDEST SWAP3 DUP4 CODECOPY DUP2 ADD SWAP1 PUSH3 0x14F JUMP JUMPDEST SWAP1 SWAP2 JUMP JUMPDEST PUSH3 0x1A8 PUSH3 0x1E4 JUMP JUMPDEST PUSH1 0x80 MSTORE PUSH1 0xA0 MSTORE JUMP JUMPDEST PUSH3 0x12B PUSH3 0x12B PUSH3 0x12B SWAP3 SWAP1 JUMP JUMPDEST PUSH3 0x12B PUSH1 0x1 PUSH3 0x1B0 JUMP JUMPDEST SWAP1 PUSH3 0x12B PUSH3 0x12B PUSH3 0x1E0 SWAP3 PUSH3 0x1B0 JUMP JUMPDEST SWAP1 SSTORE JUMP JUMPDEST PUSH3 0x129 PUSH3 0x1F2 PUSH3 0x1C0 JUMP JUMPDEST PUSH1 0x0 PUSH3 0x1CC JUMP INVALID PUSH1 0x80 PUSH1 0x40 MSTORE PUSH1 0x4 CALLDATASIZE LT ISZERO PUSH2 0x23 JUMPI JUMPDEST CALLDATASIZE ISZERO PUSH2 0x19 JUMPI PUSH1 0x0 DUP1 REVERT JUMPDEST PUSH2 0x21 PUSH2 0x76A JUMP JUMPDEST STOP JUMPDEST PUSH1 0x0 CALLDATALOAD PUSH1 0xE0 SHR DUP1 PUSH4 0x54D50D4 EQ PUSH2 0x133 JUMPI DUP1 PUSH4 0x108BDD55 EQ PUSH2 0x12E JUMPI DUP1 PUSH4 0x14FE1253 EQ PUSH2 0x129 JUMPI DUP1 PUSH4 0x1F00CA74 EQ PUSH2 0x124 JUMPI DUP1 PUSH4 0x38ED1739 EQ PUSH2 0x11F JUMPI DUP1 PUSH4 0x59F613A4 EQ PUSH2 0x11A JUMPI DUP1 PUSH4 0x82F71AD4 EQ PUSH2 0x115 JUMPI DUP1 PUSH4 0x85F8C259 EQ PUSH2 0x110 JUMPI DUP1 PUSH4 0x8803DBEE EQ PUSH2 0x10B JUMPI DUP1 PUSH4 0x89B26328 EQ PUSH2 0x106 JUMPI DUP1 PUSH4 0x94445F74 EQ PUSH2 0x101 JUMPI DUP1 PUSH4 0xAD615DEC EQ PUSH2 0xFC JUMPI DUP1 PUSH4 0xB223ED1D EQ PUSH2 0xF7 JUMPI DUP1 PUSH4 0xBAA2ABDE EQ PUSH2 0xF2 JUMPI DUP1 PUSH4 0xC45A0155 EQ PUSH2 0xED JUMPI DUP1 PUSH4 0xD06CA61F EQ PUSH2 0xE8 JUMPI PUSH4 0xE8E33700 SUB PUSH2 0xE JUMPI PUSH2 0x723 JUMP JUMPDEST PUSH2 0x690 JUMP JUMPDEST PUSH2 0x657 JUMP JUMPDEST PUSH2 0x638 JUMP JUMPDEST PUSH2 0x5B0 JUMP JUMPDEST PUSH2 0x594 JUMP JUMPDEST PUSH2 0x568 JUMP JUMPDEST PUSH2 0x531 JUMP JUMPDEST PUSH2 0x50F JUMP JUMPDEST PUSH2 0x4F3 JUMP JUMPDEST PUSH2 0x4BE JUMP JUMPDEST PUSH2 0x3FE JUMP JUMPDEST PUSH2 0x3D1 JUMP JUMPDEST PUSH2 0x3B5 JUMP JUMPDEST PUSH2 0x361 JUMP JUMPDEST PUSH2 0x2E0 JUMP JUMPDEST PUSH2 0x18C JUMP JUMPDEST DUP1 JUMPDEST SUB PUSH2 0x141 JUMPI JUMP JUMPDEST PUSH1 0x0 DUP1 REVERT JUMPDEST SWAP1 POP CALLDATALOAD SWAP1 PUSH2 0x153 DUP3 PUSH2 0x138 JUMP JUMPDEST JUMP JUMPDEST SWAP1 SWAP2 PUSH1 0x60 DUP3 DUP5 SUB SLT PUSH2 0x141 JUMPI PUSH2 0x185 PUSH2 0x16E DUP5 DUP5 PUSH2 0x146 JUMP JUMPDEST SWAP4 PUSH2 0x17C DUP2 PUSH1 0x20 DUP7 ADD PUSH2 0x146 JUMP JUMPDEST SWAP4 PUSH1 0x40 ADD PUSH2 0x146 JUMP JUMPDEST SWAP1 JUMP JUMPDEST SWAP1 MSTORE JUMP JUMPDEST CALLVALUE PUSH2 0x141 JUMPI PUSH2 0x1B8 PUSH2 0x1A8 PUSH2 0x1A2 CALLDATASIZE PUSH1 0x4 PUSH2 0x155 JUMP JUMPDEST SWAP2 PUSH2 0x1DA2 JUMP JUMPDEST PUSH1 0x40 MLOAD SWAP2 DUP3 SWAP2 DUP3 SWAP1 DUP2 MSTORE PUSH1 0x20 ADD SWAP1 JUMP JUMPDEST SUB SWAP1 RETURN JUMPDEST SWAP1 SWAP2 DUP3 PUSH1 0x1F DUP4 ADD SLT ISZERO PUSH2 0x141 JUMPI DUP2 CALLDATALOAD SWAP2 PUSH8 0xFFFFFFFFFFFFFFFF DUP4 GT PUSH2 0x141 JUMPI PUSH1 0x20 ADD SWAP3 PUSH1 0x20 DUP4 MUL DUP5 ADD GT PUSH2 0x141 JUMPI JUMP JUMPDEST PUSH1 0x1 PUSH1 0x1 PUSH1 0xA0 SHL SUB AND SWAP1 JUMP JUMPDEST PUSH1 0x1 PUSH1 0x1 PUSH1 0xA0 SHL SUB DUP2 AND PUSH2 0x13A JUMP JUMPDEST SWAP1 POP CALLDATALOAD SWAP1 PUSH2 0x153 DUP3 PUSH2 0x1F8 JUMP JUMPDEST SWAP1 PUSH1 0xA0 DUP3 DUP3 SUB SLT PUSH2 0x141 JUMPI PUSH2 0x229 DUP2 DUP4 PUSH2 0x146 JUMP JUMPDEST SWAP3 PUSH2 0x237 DUP3 PUSH1 0x20 DUP6 ADD PUSH2 0x146 JUMP JUMPDEST SWAP3 PUSH1 0x40 DUP2 ADD CALLDATALOAD SWAP2 PUSH8 0xFFFFFFFFFFFFFFFF DUP4 GT PUSH2 0x141 JUMPI PUSH2 0x25C DUP5 PUSH2 0x185 SWAP5 DUP5 ADD PUSH2 0x1BC JUMP JUMPDEST SWAP4 SWAP1 SWAP5 PUSH2 0x26C DUP2 PUSH1 0x60 DUP7 ADD PUSH2 0x207 JUMP JUMPDEST SWAP4 PUSH1 0x80 ADD PUSH2 0x146 JUMP JUMPDEST ADD SWAP1 JUMP JUMPDEST SWAP1 PUSH2 0x299 PUSH2 0x292 PUSH2 0x288 DUP5 MLOAD SWAP1 JUMP JUMPDEST DUP1 DUP5 MSTORE SWAP3 PUSH1 0x20 ADD SWAP1 JUMP JUMPDEST SWAP3 PUSH1 0x20 ADD SWAP1 JUMP JUMPDEST SWAP1 PUSH1 0x0 JUMPDEST DUP2 DUP2 LT PUSH2 0x2AA JUMPI POP POP POP SWAP1 JUMP JUMPDEST SWAP1 SWAP2 SWAP3 PUSH2 0x2C7 PUSH2 0x2C0 PUSH1 0x1 SWAP3 DUP7 MLOAD DUP2 MSTORE PUSH1 0x20 ADD SWAP1 JUMP JUMPDEST SWAP5 PUSH1 0x20 ADD SWAP1 JUMP JUMPDEST SWAP3 SWAP2 ADD PUSH2 0x29D JUMP JUMPDEST PUSH1 0x20 DUP1 DUP3 MSTORE PUSH2 0x185 SWAP3 SWAP2 ADD SWAP1 PUSH2 0x279 JUMP JUMPDEST CALLVALUE PUSH2 0x141 JUMPI PUSH2 0x1B8 PUSH2 0x302 PUSH2 0x2F6 CALLDATASIZE PUSH1 0x4 PUSH2 0x214 JUMP JUMPDEST SWAP5 SWAP4 SWAP1 SWAP4 SWAP3 SWAP2 SWAP3 PUSH2 0x1B69 JUMP JUMPDEST PUSH1 0x40 MLOAD SWAP2 DUP3 SWAP2 DUP3 PUSH2 0x2CF JUMP JUMPDEST SWAP2 PUSH1 0x80 DUP4 DUP4 SUB SLT PUSH2 0x141 JUMPI PUSH2 0x323 DUP3 DUP5 PUSH2 0x146 JUMP JUMPDEST SWAP3 PUSH1 0x20 DUP2 ADD CALLDATALOAD SWAP2 PUSH8 0xFFFFFFFFFFFFFFFF DUP4 GT PUSH2 0x141 JUMPI PUSH2 0x348 DUP5 PUSH2 0x185 SWAP5 DUP5 ADD PUSH2 0x1BC JUMP JUMPDEST SWAP4 SWAP1 SWAP5 PUSH2 0x358 DUP2 PUSH1 0x40 DUP7 ADD PUSH2 0x207 JUMP JUMPDEST SWAP4 PUSH1 0x60 ADD PUSH2 0x146 JUMP JUMPDEST PUSH2 0x1B8 PUSH2 0x302 PUSH2 0x372 CALLDATASIZE PUSH1 0x4 PUSH2 0x30E JUMP JUMPDEST SWAP4 SWAP3 SWAP1 SWAP3 PUSH2 0x17B5 JUMP JUMPDEST SWAP2 SWAP1 SWAP2 PUSH1 0x40 DUP2 DUP5 SUB SLT PUSH2 0x141 JUMPI PUSH2 0x392 DUP4 DUP3 PUSH2 0x146 JUMP JUMPDEST SWAP3 PUSH1 0x20 DUP3 ADD CALLDATALOAD PUSH8 0xFFFFFFFFFFFFFFFF DUP2 GT PUSH2 0x141 JUMPI PUSH2 0x3B1 SWAP3 ADD PUSH2 0x1BC JUMP JUMPDEST SWAP1 SWAP2 JUMP JUMPDEST CALLVALUE PUSH2 0x141 JUMPI PUSH2 0x1B8 PUSH2 0x302 PUSH2 0x3CB CALLDATASIZE PUSH1 0x4 PUSH2 0x37B JUMP JUMPDEST SWAP2 PUSH2 0x1DF5 JUMP JUMPDEST CALLVALUE PUSH2 0x141 JUMPI PUSH2 0x1B8 PUSH2 0x302 PUSH2 0x3E7 CALLDATASIZE PUSH1 0x4 PUSH2 0x214 JUMP JUMPDEST SWAP5 SWAP4 SWAP1 SWAP4 SWAP3 SWAP2 SWAP3 PUSH2 0x13FA JUMP JUMPDEST PUSH1 0x0 SWAP2 SUB SLT PUSH2 0x141 JUMPI JUMP JUMPDEST CALLVALUE PUSH2 0x141 JUMPI PUSH2 0x40E CALLDATASIZE PUSH1 0x4 PUSH2 0x3F3 JUMP JUMPDEST PUSH2 0x1B8 PUSH32 0x0 JUMPDEST PUSH1 0x40 MLOAD SWAP2 DUP3 SWAP2 DUP3 PUSH1 0x1 PUSH1 0x1 PUSH1 0xA0 SHL SUB SWAP1 SWAP2 AND DUP2 MSTORE PUSH1 0x20 ADD SWAP1 JUMP JUMPDEST SWAP1 SWAP2 PUSH1 0xC0 DUP3 DUP5 SUB SLT PUSH2 0x141 JUMPI PUSH2 0x463 DUP4 DUP4 PUSH2 0x207 JUMP JUMPDEST SWAP3 PUSH2 0x471 DUP2 PUSH1 0x20 DUP6 ADD PUSH2 0x146 JUMP JUMPDEST SWAP3 PUSH2 0x47F DUP3 PUSH1 0x40 DUP4 ADD PUSH2 0x146 JUMP JUMPDEST SWAP3 PUSH2 0x185 PUSH2 0x490 DUP5 PUSH1 0x60 DUP6 ADD PUSH2 0x146 JUMP JUMPDEST SWAP4 PUSH2 0x49E DUP2 PUSH1 0x80 DUP7 ADD PUSH2 0x207 JUMP JUMPDEST SWAP4 PUSH1 0xA0 ADD PUSH2 0x146 JUMP JUMPDEST SWAP1 DUP2 MSTORE PUSH1 0x40 DUP2 ADD SWAP3 SWAP2 PUSH2 0x153 SWAP2 PUSH1 0x20 ADD MSTORE JUMP JUMPDEST ADD MSTORE JUMP JUMPDEST CALLVALUE PUSH2 0x141 JUMPI PUSH2 0x4DD PUSH2 0x4D1 CALLDATASIZE PUSH1 0x4 PUSH2 0x44D JUMP JUMPDEST SWAP5 SWAP4 SWAP1 SWAP4 SWAP3 SWAP2 SWAP3 PUSH2 0x1127 JUMP JUMPDEST SWAP1 PUSH2 0x1B8 PUSH2 0x4EA PUSH1 0x40 MLOAD SWAP1 JUMP JUMPDEST SWAP3 DUP4 SWAP3 DUP4 PUSH2 0x4A7 JUMP JUMPDEST CALLVALUE PUSH2 0x141 JUMPI PUSH2 0x1B8 PUSH2 0x1A8 PUSH2 0x509 CALLDATASIZE PUSH1 0x4 PUSH2 0x155 JUMP JUMPDEST SWAP2 PUSH2 0x1DAD JUMP JUMPDEST CALLVALUE PUSH2 0x141 JUMPI PUSH2 0x1B8 PUSH2 0x302 PUSH2 0x525 CALLDATASIZE PUSH1 0x4 PUSH2 0x214 JUMP JUMPDEST SWAP5 SWAP4 SWAP1 SWAP4 SWAP3 SWAP2 SWAP3 PUSH2 0x154B JUMP JUMPDEST PUSH2 0x1B8 PUSH2 0x302 PUSH2 0x542 CALLDATASIZE PUSH1 0x4 PUSH2 0x30E JUMP JUMPDEST SWAP4 SWAP3 SWAP1 SWAP3 PUSH2 0x1D88 JUMP JUMPDEST SWAP1 DUP2 MSTORE PUSH1 0x60 DUP2 ADD SWAP4 SWAP3 PUSH2 0x153 SWAP3 SWAP1 SWAP2 PUSH1 0x40 SWAP2 PUSH2 0x4BA SWAP1 PUSH1 0x20 DUP4 ADD MSTORE JUMP JUMPDEST PUSH2 0x1B8 PUSH2 0x585 PUSH2 0x579 CALLDATASIZE PUSH1 0x4 PUSH2 0x44D JUMP JUMPDEST SWAP5 SWAP4 SWAP1 SWAP4 SWAP3 SWAP2 SWAP3 PUSH2 0xD5F JUMP JUMPDEST PUSH1 0x40 MLOAD SWAP2 SWAP4 SWAP2 SWAP4 DUP5 SWAP4 DUP5 PUSH2 0x54B JUMP JUMPDEST CALLVALUE PUSH2 0x141 JUMPI PUSH2 0x1B8 PUSH2 0x1A8 PUSH2 0x5AA CALLDATASIZE PUSH1 0x4 PUSH2 0x155 JUMP JUMPDEST SWAP2 PUSH2 0x1D97 JUMP JUMPDEST CALLVALUE PUSH2 0x141 JUMPI PUSH2 0x1B8 PUSH2 0x302 PUSH2 0x5C6 CALLDATASIZE PUSH1 0x4 PUSH2 0x214 JUMP JUMPDEST SWAP5 SWAP4 SWAP1 SWAP4 SWAP3 SWAP2 SWAP3 PUSH2 0x1A5F JUMP JUMPDEST PUSH1 0xE0 DUP2 DUP4 SUB SLT PUSH2 0x141 JUMPI PUSH2 0x5E6 DUP3 DUP3 PUSH2 0x207 JUMP JUMPDEST SWAP3 PUSH2 0x5F4 DUP4 PUSH1 0x20 DUP5 ADD PUSH2 0x207 JUMP JUMPDEST SWAP3 PUSH2 0x602 DUP2 PUSH1 0x40 DUP6 ADD PUSH2 0x146 JUMP JUMPDEST SWAP3 PUSH2 0x610 DUP3 PUSH1 0x60 DUP4 ADD PUSH2 0x146 JUMP JUMPDEST SWAP3 PUSH2 0x185 PUSH2 0x621 DUP5 PUSH1 0x80 DUP6 ADD PUSH2 0x146 JUMP JUMPDEST SWAP4 PUSH2 0x62F DUP2 PUSH1 0xA0 DUP7 ADD PUSH2 0x207 JUMP JUMPDEST SWAP4 PUSH1 0xC0 ADD PUSH2 0x146 JUMP JUMPDEST CALLVALUE PUSH2 0x141 JUMPI PUSH2 0x4DD PUSH2 0x64B CALLDATASIZE PUSH1 0x4 PUSH2 0x5D2 JUMP JUMPDEST SWAP6 SWAP5 SWAP1 SWAP5 SWAP4 SWAP2 SWAP4 PUSH2 0xFE5 JUMP JUMPDEST CALLVALUE PUSH2 0x141 JUMPI PUSH2 0x667 CALLDATASIZE PUSH1 0x4 PUSH2 0x3F3 JUMP JUMPDEST PUSH2 0x1B8 PUSH32 0x0 PUSH2 0x433 JUMP JUMPDEST CALLVALUE PUSH2 0x141 JUMPI PUSH2 0x1B8 PUSH2 0x302 PUSH2 0x6A6 CALLDATASIZE PUSH1 0x4 PUSH2 0x37B JUMP JUMPDEST SWAP2 PUSH2 0x1DB8 JUMP JUMPDEST SWAP2 SWAP1 PUSH2 0x100 DUP4 DUP3 SUB SLT PUSH2 0x141 JUMPI PUSH2 0x6C3 DUP2 DUP5 PUSH2 0x207 JUMP JUMPDEST SWAP3 PUSH2 0x6D1 DUP3 PUSH1 0x20 DUP4 ADD PUSH2 0x207 JUMP JUMPDEST SWAP3 PUSH2 0x6DF DUP4 PUSH1 0x40 DUP5 ADD PUSH2 0x146 JUMP JUMPDEST SWAP3 PUSH2 0x6ED DUP2 PUSH1 0x60 DUP6 ADD PUSH2 0x146 JUMP JUMPDEST SWAP3 PUSH2 0x6FB DUP3 PUSH1 0x80 DUP4 ADD PUSH2 0x146 JUMP JUMPDEST SWAP3 PUSH2 0x185 PUSH2 0x70C DUP5 PUSH1 0xA0 DUP6 ADD PUSH2 0x146 JUMP JUMPDEST SWAP4 PUSH2 0x71A DUP2 PUSH1 0xC0 DUP7 ADD PUSH2 0x207 JUMP JUMPDEST SWAP4 PUSH1 0xE0 ADD PUSH2 0x146 JUMP JUMPDEST CALLVALUE PUSH2 0x141 JUMPI PUSH2 0x1B8 PUSH2 0x585 PUSH2 0x739 CALLDATASIZE PUSH1 0x4 PUSH2 0x6AC JUMP JUMPDEST SWAP7 SWAP6 SWAP1 SWAP6 SWAP5 SWAP2 SWAP5 SWAP4 SWAP3 SWAP4 PUSH2 0xAB9 JUMP JUMPDEST PUSH4 0x4E487B71 PUSH1 0xE0 SHL PUSH1 0x0 MSTORE PUSH1 0x1 PUSH1 0x4 MSTORE PUSH1 0x24 PUSH1 0x0 REVERT JUMPDEST ISZERO PUSH2 0x765 JUMPI JUMP JUMPDEST PUSH2 0x748 JUMP JUMPDEST PUSH2 0x153 CALLER PUSH2 0x7A9 PUSH1 0x1 PUSH1 0x1 PUSH1 0xA0 SHL SUB PUSH32 0x0 AND JUMPDEST SWAP2 PUSH1 0x1 PUSH1 0x1 PUSH1 0xA0 SHL SUB AND SWAP1 JUMP JUMPDEST EQ PUSH2 0x75E JUMP JUMPDEST ISZERO PUSH2 0x7B6 JUMPI JUMP JUMPDEST PUSH1 0x40 MLOAD PUSH3 0x461BCD PUSH1 0xE5 SHL DUP2 MSTORE PUSH1 0x20 PUSH1 0x4 DUP3 ADD MSTORE PUSH1 0x19 PUSH1 0x24 DUP3 ADD MSTORE PUSH32 0x4879706572496E646578526F757465723A204558504952454400000000000000 PUSH1 0x44 DUP3 ADD MSTORE PUSH1 0x64 SWAP1 REVERT JUMPDEST PUSH2 0x81B SWAP11 SWAP10 SWAP9 SWAP8 SWAP7 SWAP6 SWAP5 SWAP4 SWAP3 SWAP2 SWAP1 PUSH2 0x816 TIMESTAMP DUP13 JUMPDEST LT ISZERO PUSH2 0x7AF JUMP JUMPDEST PUSH2 0x8FF JUMP JUMPDEST SWAP1 SWAP2 SWAP3 JUMP JUMPDEST PUSH2 0x1EC PUSH2 0x185 PUSH2 0x185 SWAP3 PUSH1 0x1 PUSH1 0x1 PUSH1 0xA0 SHL SUB AND SWAP1 JUMP JUMPDEST PUSH2 0x185 SWAP1 PUSH2 0x820 JUMP JUMPDEST PUSH2 0x185 SWAP1 PUSH2 0x836 JUMP JUMPDEST PUSH4 0x4E487B71 PUSH1 0xE0 SHL PUSH1 0x0 MSTORE PUSH1 0x41 PUSH1 0x4 MSTORE PUSH1 0x24 PUSH1 0x0 REVERT JUMPDEST SWAP1 PUSH1 0x1F ADD PUSH1 0x1F NOT AND DUP2 ADD SWAP1 DUP2 LT PUSH8 0xFFFFFFFFFFFFFFFF DUP3 GT OR PUSH2 0x880 JUMPI PUSH1 0x40 MSTORE JUMP JUMPDEST PUSH2 0x848 JUMP JUMPDEST DUP1 ISZERO ISZERO PUSH2 0x13A JUMP JUMPDEST SWAP1 POP MLOAD SWAP1 PUSH2 0x153 DUP3 PUSH2 0x885 JUMP JUMPDEST SWAP1 PUSH1 0x20 DUP3 DUP3 SUB SLT PUSH2 0x141 JUMPI PUSH2 0x185 SWAP2 PUSH2 0x88D JUMP JUMPDEST PUSH1 0x1 PUSH1 0x1 PUSH1 0xA0 SHL SUB SWAP2 DUP3 AND DUP2 MSTORE SWAP2 AND PUSH1 0x20 DUP3 ADD MSTORE PUSH1 0x60 DUP2 ADD SWAP3 SWAP2 PUSH2 0x153 SWAP2 PUSH1 0x40 ADD MSTORE JUMP JUMPDEST PUSH1 0x40 MLOAD RETURNDATASIZE PUSH1 0x0 DUP3 RETURNDATACOPY RETURNDATASIZE SWAP1 REVERT JUMPDEST SWAP1 POP MLOAD SWAP1 PUSH2 0x153 DUP3 PUSH2 0x138 JUMP JUMPDEST SWAP1 PUSH1 0x20 DUP3 DUP3 SUB SLT PUSH2 0x141 JUMPI PUSH2 0x185 SWAP2 PUSH2 0x8DE JUMP JUMPDEST PUSH2 0x917 SWAP8 SWAP6 SWAP4 SWAP9 SWAP7 SWAP5 SWAP11 POP SWAP11 SWAP9 SWAP11 POP POP POP DUP8 DUP7 PUSH2 0x1E41 JUMP JUMPDEST SWAP5 DUP6 SWAP5 DUP3 SWAP7 PUSH2 0x958 PUSH2 0x953 PUSH2 0x94D DUP5 DUP9 PUSH32 0x0 PUSH2 0x24C9 JUMP JUMPDEST SWAP7 PUSH2 0x83F JUMP JUMPDEST PUSH2 0x83F JUMP JUMPDEST SWAP1 PUSH4 0x23B872DD SWAP5 PUSH1 0x20 DUP8 CALLER SWAP5 PUSH2 0x983 PUSH1 0x0 DUP11 PUSH2 0x98F PUSH2 0x976 PUSH1 0x40 MLOAD SWAP1 JUMP JUMPDEST SWAP8 DUP9 SWAP7 DUP8 SWAP6 DUP7 SWAP5 PUSH1 0xE0 SHL SWAP1 JUMP JUMPDEST DUP5 MSTORE DUP12 PUSH1 0x4 DUP6 ADD PUSH2 0x8AE JUMP JUMPDEST SUB SWAP3 GAS CALL DUP1 ISZERO PUSH2 0xA73 JUMPI DUP8 SWAP7 PUSH2 0x9DB PUSH2 0x9B9 PUSH2 0x953 PUSH1 0x20 SWAP9 PUSH2 0x9D0 SWAP7 PUSH1 0x0 SWAP7 PUSH2 0xAA3 JUMPI JUMPDEST POP PUSH2 0x83F JUMP JUMPDEST SWAP5 PUSH2 0x9C3 PUSH1 0x40 MLOAD SWAP1 JUMP JUMPDEST SWAP11 DUP12 SWAP8 DUP9 SWAP7 DUP8 SWAP6 PUSH1 0xE0 SHL SWAP1 JUMP JUMPDEST DUP6 MSTORE PUSH1 0x4 DUP6 ADD PUSH2 0x8AE JUMP JUMPDEST SUB SWAP3 GAS CALL SWAP3 DUP4 ISZERO PUSH2 0xA73 JUMPI PUSH2 0x953 PUSH1 0x20 SWAP4 PUSH2 0x9FE SWAP3 PUSH2 0xA35 SWAP7 PUSH2 0xA78 JUMPI POP PUSH2 0x83F JUMP JUMPDEST PUSH2 0xA1E PUSH1 0x0 PUSH4 0x6A627842 PUSH2 0xA11 PUSH1 0x40 MLOAD SWAP1 JUMP JUMPDEST SWAP7 DUP8 SWAP6 DUP7 SWAP5 DUP6 SWAP4 PUSH1 0xE0 SHL SWAP1 JUMP JUMPDEST DUP4 MSTORE PUSH1 0x1 PUSH1 0x1 PUSH1 0xA0 SHL SUB AND PUSH1 0x4 DUP4 ADD MSTORE PUSH1 0x24 DUP3 ADD SWAP1 JUMP JUMPDEST SUB SWAP3 GAS CALL SWAP1 DUP2 ISZERO PUSH2 0xA73 JUMPI PUSH1 0x0 SWAP2 PUSH2 0xA4B JUMPI POP SWAP1 JUMP JUMPDEST PUSH2 0x185 SWAP2 POP PUSH1 0x20 RETURNDATASIZE DUP2 GT PUSH2 0xA6C JUMPI JUMPDEST PUSH2 0xA64 DUP2 DUP4 PUSH2 0x85E JUMP JUMPDEST DUP2 ADD SWAP1 PUSH2 0x8EB JUMP JUMPDEST POP RETURNDATASIZE PUSH2 0xA5A JUMP JUMPDEST PUSH2 0x8D2 JUMP JUMPDEST PUSH2 0xA97 SWAP1 DUP7 RETURNDATASIZE DUP2 GT PUSH2 0xA9C JUMPI JUMPDEST PUSH2 0xA8F DUP2 DUP4 PUSH2 0x85E JUMP JUMPDEST DUP2 ADD SWAP1 PUSH2 0x89A JUMP JUMPDEST PUSH2 0x9B3 JUMP JUMPDEST POP RETURNDATASIZE PUSH2 0xA85 JUMP JUMPDEST PUSH2 0xA97 SWAP1 DUP12 RETURNDATASIZE DUP2 GT PUSH2 0xA9C JUMPI PUSH2 0xA8F DUP2 DUP4 PUSH2 0x85E JUMP JUMPDEST PUSH2 0x81B SWAP8 SWAP7 SWAP6 SWAP5 SWAP4 SWAP3 SWAP2 SWAP1 PUSH1 0x0 DUP1 DUP1 PUSH2 0x7FB JUMP JUMPDEST PUSH2 0x81B SWAP9 SWAP8 SWAP7 SWAP6 SWAP5 SWAP4 SWAP3 SWAP2 SWAP1 PUSH2 0xAE4 TIMESTAMP JUMPDEST DUP11 PUSH2 0x80F JUMP JUMPDEST PUSH2 0xB37 JUMP JUMPDEST PUSH1 0x1 PUSH1 0x1 PUSH1 0xA0 SHL SUB SWAP1 SWAP2 AND DUP2 MSTORE PUSH1 0x40 DUP2 ADD SWAP3 SWAP2 PUSH2 0x153 SWAP2 PUSH1 0x20 ADD MSTORE JUMP JUMPDEST PUSH4 0x4E487B71 PUSH1 0xE0 SHL PUSH1 0x0 MSTORE PUSH1 0x11 PUSH1 0x4 MSTORE PUSH1 0x24 PUSH1 0x0 REVERT JUMPDEST SWAP2 SWAP1 PUSH2 0xB27 JUMP JUMPDEST SWAP3 SWAP1 JUMP JUMPDEST DUP3 SUB SWAP2 DUP3 GT PUSH2 0xB32 JUMPI JUMP JUMPDEST PUSH2 0xB06 JUMP JUMPDEST PUSH2 0x953 SWAP6 SWAP9 POP SWAP2 PUSH2 0xBDB SWAP8 SWAP4 SWAP10 SWAP7 SWAP2 PUSH2 0xB79 SWAP4 POP POP POP PUSH32 0x0 SWAP8 CALLVALUE DUP1 SWAP6 DUP11 DUP13 PUSH2 0x1E41 JUMP JUMPDEST SWAP4 SWAP1 SWAP8 DUP5 SWAP8 PUSH1 0x20 DUP11 PUSH2 0xBB7 PUSH2 0xBAF DUP5 DUP7 PUSH32 0x0 PUSH2 0x24C9 JUMP JUMPDEST SWAP6 DUP7 SWAP6 PUSH2 0x83F JUMP JUMPDEST PUSH2 0x9D0 PUSH1 0x0 PUSH4 0x23B872DD CALLER SWAP14 DUP15 SWAP6 PUSH2 0xBCE PUSH1 0x40 MLOAD SWAP1 JUMP JUMPDEST SWAP10 DUP11 SWAP8 DUP9 SWAP7 DUP8 SWAP6 PUSH1 0xE0 SHL SWAP1 JUMP JUMPDEST SUB SWAP3 GAS CALL SWAP1 DUP2 ISZERO PUSH2 0xA73 JUMPI PUSH2 0xBF8 SWAP3 PUSH2 0x953 SWAP3 PUSH2 0xD48 JUMPI POP PUSH2 0x83F JUMP JUMPDEST SWAP2 PUSH4 0xD0E30DB0 SWAP3 DUP1 EXTCODESIZE ISZERO PUSH2 0x141 JUMPI PUSH2 0xC19 PUSH2 0xC12 PUSH1 0x40 MLOAD SWAP1 JUMP JUMPDEST SWAP5 PUSH1 0xE0 SHL SWAP1 JUMP JUMPDEST DUP5 MSTORE PUSH1 0x0 DUP5 PUSH1 0x4 DUP2 DUP10 DUP6 GAS CALL SWAP1 DUP2 ISZERO PUSH2 0xA73 JUMPI PUSH2 0xC51 SWAP5 PUSH1 0x20 SWAP3 PUSH2 0xD22 JUMPI JUMPDEST POP PUSH4 0xA9059CBB SWAP1 PUSH2 0xC48 PUSH1 0x40 MLOAD SWAP1 JUMP JUMPDEST SWAP6 DUP7 SWAP3 PUSH1 0xE0 SHL SWAP1 JUMP JUMPDEST DUP3 MSTORE DUP2 PUSH1 0x0 DUP2 PUSH2 0xC65 DUP12 DUP10 PUSH1 0x4 DUP5 ADD PUSH2 0xAE9 JUMP JUMPDEST SUB SWAP3 GAS CALL SWAP3 DUP4 ISZERO PUSH2 0xA73 JUMPI PUSH2 0x953 PUSH1 0x20 SWAP4 PUSH2 0x953 PUSH2 0xC8F SWAP7 PUSH2 0x9FE SWAP5 PUSH1 0x0 SWAP2 PUSH2 0xD05 JUMPI JUMPDEST POP PUSH2 0x75E JUMP JUMPDEST SUB SWAP3 GAS CALL SWAP1 DUP2 ISZERO PUSH2 0xA73 JUMPI PUSH1 0x0 SWAP2 PUSH2 0xCE7 JUMPI JUMPDEST POP SWAP4 DUP3 DUP3 GT PUSH2 0xCB0 JUMPI POP POP POP JUMP JUMPDEST PUSH1 0x0 DUP1 SWAP4 SWAP3 PUSH2 0xCCD DUP3 SWAP5 PUSH2 0xCC7 PUSH2 0x953 DUP6 SWAP7 PUSH2 0x83F JUMP JUMPDEST SWAP3 PUSH2 0xB1C JUMP JUMPDEST SWAP1 DUP3 DUP3 ISZERO PUSH2 0xCDE JUMPI JUMPDEST CALL ISZERO PUSH2 0xA73 JUMPI JUMP JUMPDEST POP PUSH2 0x8FC PUSH2 0xCD6 JUMP JUMPDEST PUSH2 0xCFF SWAP2 POP PUSH1 0x20 RETURNDATASIZE DUP2 GT PUSH2 0xA6C JUMPI PUSH2 0xA64 DUP2 DUP4 PUSH2 0x85E JUMP JUMPDEST CODESIZE PUSH2 0xCA2 JUMP JUMPDEST PUSH2 0xD1C SWAP2 POP DUP8 RETURNDATASIZE DUP2 GT PUSH2 0xA9C JUMPI PUSH2 0xA8F DUP2 DUP4 PUSH2 0x85E JUMP JUMPDEST CODESIZE PUSH2 0xC89 JUMP JUMPDEST PUSH2 0xD3B SWAP1 PUSH1 0x0 JUMPDEST PUSH2 0xD33 DUP2 DUP4 PUSH2 0x85E JUMP JUMPDEST DUP2 ADD SWAP1 PUSH2 0x3F3 JUMP JUMPDEST CODESIZE PUSH2 0xC38 JUMP JUMPDEST POP RETURNDATASIZE PUSH2 0xD29 JUMP JUMPDEST PUSH2 0xA97 SWAP1 PUSH1 0x20 RETURNDATASIZE DUP2 GT PUSH2 0xA9C JUMPI PUSH2 0xA8F DUP2 DUP4 PUSH2 0x85E JUMP JUMPDEST PUSH2 0x81B SWAP6 SWAP5 SWAP4 SWAP3 SWAP2 SWAP1 PUSH1 0x0 DUP1 DUP1 PUSH2 0xACD JUMP JUMPDEST PUSH2 0x3B1 SWAP9 SWAP8 SWAP7 SWAP6 SWAP5 SWAP4 SWAP3 SWAP2 SWAP1 PUSH2 0xD86 TIMESTAMP PUSH2 0xADE JUMP JUMPDEST PUSH2 0xE66 JUMP JUMPDEST SWAP2 SWAP1 PUSH1 0x40 DUP4 DUP3 SUB SLT PUSH2 0x141 JUMPI PUSH2 0x185 SWAP1 PUSH2 0xDA5 DUP2 DUP6 PUSH2 0x8DE JUMP JUMPDEST SWAP4 PUSH1 0x20 ADD PUSH2 0x8DE JUMP JUMPDEST ISZERO PUSH2 0xDB5 JUMPI JUMP JUMPDEST PUSH1 0x40 MLOAD PUSH3 0x461BCD PUSH1 0xE5 SHL DUP2 MSTORE PUSH1 0x20 PUSH1 0x4 DUP3 ADD MSTORE PUSH1 0x27 PUSH1 0x24 DUP3 ADD MSTORE PUSH32 0x4879706572496E646578526F757465723A20494E53554646494349454E545F41 PUSH1 0x44 DUP3 ADD MSTORE PUSH7 0x17D05353D55395 PUSH1 0xCA SHL PUSH1 0x64 DUP3 ADD MSTORE PUSH1 0x84 SWAP1 REVERT JUMPDEST ISZERO PUSH2 0xE11 JUMPI JUMP JUMPDEST PUSH1 0x40 MLOAD PUSH3 0x461BCD PUSH1 0xE5 SHL DUP2 MSTORE PUSH1 0x20 PUSH1 0x4 DUP3 ADD MSTORE PUSH1 0x27 PUSH1 0x24 DUP3 ADD MSTORE PUSH32 0x4879706572496E646578526F757465723A20494E53554646494349454E545F42 PUSH1 0x44 DUP3 ADD MSTORE PUSH7 0x17D05353D55395 PUSH1 0xCA SHL PUSH1 0x64 DUP3 ADD MSTORE PUSH1 0x84 SWAP1 REVERT JUMPDEST POP SWAP4 SWAP8 SWAP2 SWAP7 POP SWAP1 SWAP5 SWAP3 POP SWAP1 PUSH2 0xE9C DUP7 DUP4 PUSH32 0x0 PUSH2 0x24C9 JUMP JUMPDEST SWAP3 PUSH2 0xEA6 DUP5 PUSH2 0x83F JUMP JUMPDEST SWAP2 PUSH1 0x20 PUSH2 0x9D0 PUSH2 0xEB5 DUP6 PUSH2 0x83F JUMP JUMPDEST SWAP3 PUSH2 0xED5 PUSH4 0x23B872DD SWAP2 CALLER SWAP10 PUSH2 0xECA PUSH1 0x40 MLOAD SWAP1 JUMP JUMPDEST SWAP11 DUP12 SWAP6 DUP7 SWAP6 PUSH1 0xE0 SHL SWAP1 JUMP JUMPDEST SUB DUP2 PUSH1 0x0 DUP6 GAS CALL SWAP3 DUP4 ISZERO PUSH2 0xA73 JUMPI PUSH2 0xF11 SWAP6 PUSH1 0x40 SWAP5 PUSH2 0xFC9 JUMPI JUMPDEST POP POP PUSH2 0xA1E PUSH1 0x0 PUSH4 0x89AFCB44 PUSH2 0xF04 PUSH1 0x40 MLOAD SWAP1 JUMP JUMPDEST SWAP8 DUP9 SWAP6 DUP7 SWAP5 DUP6 SWAP4 PUSH1 0xE0 SHL SWAP1 JUMP JUMPDEST SUB SWAP3 GAS CALL SWAP5 DUP6 ISZERO PUSH2 0xA73 JUMPI PUSH1 0x0 SWAP3 DUP4 SWAP7 PUSH2 0xF8A JUMPI JUMPDEST POP PUSH2 0x79C PUSH2 0xF37 PUSH2 0xF44 SWAP3 DUP5 PUSH2 0x23C2 JUMP JUMPDEST POP PUSH1 0x1 PUSH1 0x1 PUSH1 0xA0 SHL SUB AND SWAP1 JUMP JUMPDEST SUB PUSH2 0xF79 JUMPI SWAP1 PUSH2 0xF72 PUSH2 0xF67 PUSH2 0x153 SWAP4 SWAP6 SWAP3 JUMPDEST PUSH2 0x185 DUP5 SWAP8 PUSH2 0xF6B PUSH2 0xF67 DUP3 SWAP12 SWAP1 JUMP JUMPDEST SWAP2 SWAP1 JUMP JUMPDEST LT ISZERO PUSH2 0xDAE JUMP JUMPDEST LT ISZERO PUSH2 0xE0A JUMP JUMPDEST PUSH2 0x153 SWAP2 PUSH2 0xF72 SWAP1 PUSH2 0xF67 SWAP1 PUSH2 0xF57 JUMP JUMPDEST PUSH2 0xF37 SWAP7 POP PUSH2 0xF44 SWAP2 SWAP4 POP PUSH2 0xFB8 PUSH2 0x79C SWAP2 PUSH1 0x40 RETURNDATASIZE DUP2 GT PUSH2 0xFC2 JUMPI JUMPDEST PUSH2 0xFB0 DUP2 DUP4 PUSH2 0x85E JUMP JUMPDEST DUP2 ADD SWAP1 PUSH2 0xD8B JUMP JUMPDEST SWAP8 POP SWAP4 SWAP2 POP PUSH2 0xF26 JUMP JUMPDEST POP RETURNDATASIZE PUSH2 0xFA6 JUMP JUMPDEST PUSH2 0xFE0 SWAP1 PUSH1 0x20 RETURNDATASIZE DUP2 GT PUSH2 0xA9C JUMPI PUSH2 0xA8F DUP2 DUP4 PUSH2 0x85E JUMP JUMPDEST PUSH2 0xEEF JUMP JUMPDEST PUSH2 0x3B1 SWAP7 SWAP6 SWAP5 SWAP4 SWAP3 SWAP2 SWAP1 PUSH1 0x0 DUP1 PUSH2 0xD71 JUMP JUMPDEST PUSH2 0x3B1 SWAP8 SWAP7 SWAP6 SWAP5 SWAP4 SWAP3 SWAP2 SWAP1 PUSH2 0x100C TIMESTAMP DUP10 PUSH2 0x80F JUMP JUMPDEST SWAP5 PUSH2 0x1051 SWAP4 SWAP2 PUSH2 0x1084 SWAP7 SWAP10 SWAP8 SWAP6 SWAP9 SWAP4 SWAP10 POP POP PUSH32 0x0 SWAP8 PUSH2 0x1049 ADDRESS PUSH2 0x83F JUMP JUMPDEST SWAP3 DUP10 DUP12 PUSH2 0xFE5 JUMP JUMPDEST SWAP3 SWAP1 SWAP5 PUSH1 0x20 DUP5 SWAP7 PUSH2 0x1065 PUSH2 0x953 DUP3 SWAP11 PUSH2 0x83F JUMP JUMPDEST PUSH2 0x1078 PUSH1 0x0 PUSH4 0xA9059CBB PUSH2 0xF04 PUSH1 0x40 MLOAD SWAP1 JUMP JUMPDEST DUP4 MSTORE DUP11 PUSH1 0x4 DUP5 ADD PUSH2 0xAE9 JUMP JUMPDEST SUB SWAP3 GAS CALL SWAP1 DUP2 ISZERO PUSH2 0xA73 JUMPI PUSH2 0x10A1 SWAP3 PUSH2 0x953 SWAP3 PUSH2 0xD48 JUMPI POP PUSH2 0x83F JUMP JUMPDEST SWAP1 PUSH4 0x2E1A7D4D SWAP2 DUP1 EXTCODESIZE ISZERO PUSH2 0x141 JUMPI PUSH2 0x10C8 SWAP3 PUSH1 0x0 SWAP2 PUSH2 0x10BF PUSH1 0x40 MLOAD SWAP1 JUMP JUMPDEST SWAP5 DUP6 SWAP3 PUSH1 0xE0 SHL SWAP1 JUMP JUMPDEST DUP3 MSTORE PUSH1 0x4 DUP3 ADD DUP7 SWAP1 MSTORE PUSH1 0x24 SWAP1 DUP3 SWAP1 DUP5 SWAP1 GAS CALL SWAP1 DUP2 ISZERO PUSH2 0xA73 JUMPI PUSH1 0x0 SWAP4 PUSH2 0x10FC PUSH2 0x953 DUP7 SWAP6 SWAP4 DUP7 SWAP6 SWAP5 DUP7 SWAP6 PUSH2 0x110B JUMPI POP PUSH2 0x83F JUMP JUMPDEST DUP3 DUP3 ISZERO PUSH2 0xCDE JUMPI CALL ISZERO PUSH2 0xA73 JUMPI JUMP JUMPDEST PUSH2 0x1121 SWAP1 DUP7 RETURNDATASIZE DUP2 GT PUSH2 0xD41 JUMPI PUSH2 0xD33 DUP2 DUP4 PUSH2 0x85E JUMP JUMPDEST CODESIZE PUSH2 0x9B3 JUMP JUMPDEST PUSH2 0x3B1 SWAP6 SWAP5 SWAP4 SWAP3 SWAP2 SWAP1 PUSH1 0x0 DUP1 PUSH2 0xFF7 JUMP JUMPDEST PUSH2 0x185 SWAP7 SWAP6 SWAP5 SWAP4 SWAP3 SWAP2 SWAP1 PUSH2 0x114D TIMESTAMP JUMPDEST DUP9 PUSH2 0x80F JUMP JUMPDEST PUSH2 0x12A9 JUMP JUMPDEST SWAP1 PUSH2 0x153 PUSH2 0x115F PUSH1 0x40 MLOAD SWAP1 JUMP JUMPDEST SWAP3 DUP4 PUSH2 0x85E JUMP JUMPDEST PUSH8 0xFFFFFFFFFFFFFFFF DUP2 GT PUSH2 0x880 JUMPI PUSH1 0x20 DUP1 SWAP2 MUL ADD SWAP1 JUMP JUMPDEST SWAP1 SWAP3 SWAP2 SWAP3 PUSH2 0x1193 PUSH2 0x118E DUP3 PUSH2 0x1166 JUMP JUMPDEST PUSH2 0x1152 JUMP JUMPDEST SWAP4 DUP2 DUP6 MSTORE PUSH1 0x20 DUP1 DUP7 ADD SWAP3 MUL DUP4 ADD SWAP3 DUP2 DUP5 GT PUSH2 0x141 JUMPI SWAP2 JUMPDEST DUP4 DUP4 LT PUSH2 0x11B7 JUMPI POP POP POP POP JUMP JUMPDEST PUSH1 0x20 DUP1 SWAP2 PUSH2 0x11C5 DUP5 DUP7 PUSH2 0x207 JUMP JUMPDEST DUP2 MSTORE ADD SWAP3 ADD SWAP2 PUSH2 0x11AA JUMP JUMPDEST PUSH2 0x185 SWAP2 CALLDATASIZE SWAP2 PUSH2 0x117E JUMP JUMPDEST PUSH2 0x185 PUSH2 0x185 PUSH2 0x185 SWAP3 SWAP1 JUMP JUMPDEST PUSH4 0x4E487B71 PUSH1 0xE0 SHL PUSH1 0x0 MSTORE PUSH1 0x32 PUSH1 0x4 MSTORE PUSH1 0x24 PUSH1 0x0 REVERT JUMPDEST SWAP1 PUSH2 0x1207 DUP3 MLOAD SWAP1 JUMP JUMPDEST DUP2 LT ISZERO PUSH2 0x1218 JUMPI PUSH1 0x20 DUP1 SWAP2 MUL ADD ADD SWAP1 JUMP JUMPDEST PUSH2 0x11E8 JUMP JUMPDEST ISZERO PUSH2 0x1224 JUMPI JUMP JUMPDEST PUSH1 0x40 MLOAD PUSH3 0x461BCD PUSH1 0xE5 SHL DUP2 MSTORE PUSH1 0x20 PUSH1 0x4 DUP3 ADD MSTORE PUSH1 0x2C PUSH1 0x24 DUP3 ADD MSTORE PUSH32 0x4879706572496E646578526F757465723A20494E53554646494349454E545F4F PUSH1 0x44 DUP3 ADD MSTORE PUSH32 0x55545055545F414D4F554E540000000000000000000000000000000000000000 PUSH1 0x64 DUP3 ADD MSTORE PUSH1 0x84 SWAP1 REVERT JUMPDEST SWAP2 SWAP1 DUP2 LT ISZERO PUSH2 0x1218 JUMPI PUSH1 0x20 MUL ADD SWAP1 JUMP JUMPDEST CALLDATALOAD PUSH2 0x185 DUP2 PUSH2 0x1F8 JUMP JUMPDEST PUSH2 0x1310 SWAP6 SWAP5 SWAP2 SWAP3 SWAP8 SWAP7 POP POP PUSH2 0x12EA PUSH32 0x0 SWAP3 PUSH2 0x12E3 DUP4 DUP7 PUSH2 0x11D0 JUMP JUMPDEST SWAP1 DUP5 PUSH2 0x2A6F JUMP JUMPDEST SWAP3 PUSH2 0x1327 DUP5 SWAP9 PUSH2 0x1320 PUSH2 0xF67 PUSH2 0xB23 PUSH2 0x131C PUSH2 0x1316 PUSH2 0x1307 DUP12 MLOAD SWAP1 JUMP JUMPDEST PUSH1 0x1 SWAP14 DUP15 PUSH2 0x11DB JUMP JUMPDEST SWAP1 PUSH2 0xB1C JUMP JUMPDEST DUP11 PUSH2 0x11FE JUMP JUMPDEST MLOAD SWAP1 JUMP JUMPDEST LT ISZERO PUSH2 0x121D JUMP JUMPDEST PUSH1 0x20 DUP3 PUSH1 0x0 SWAP5 PUSH2 0x9D0 DUP7 PUSH2 0x1390 PUSH2 0x1355 PUSH2 0x953 PUSH2 0x953 PUSH2 0x1350 PUSH2 0x1349 DUP7 PUSH2 0x11DB JUMP JUMPDEST DUP10 DUP13 PUSH2 0x128F JUMP JUMPDEST PUSH2 0x129F JUMP JUMPDEST SWAP4 PUSH4 0x23B872DD SWAP13 PUSH2 0x138A PUSH2 0x1350 PUSH2 0x1383 PUSH2 0x137D PUSH2 0x1350 DUP14 CALLER SWAP13 PUSH2 0x1377 DUP12 PUSH2 0x11DB JUMP JUMPDEST SWAP2 PUSH2 0x128F JUMP JUMPDEST SWAP4 PUSH2 0x11DB JUMP JUMPDEST DUP13 DUP13 PUSH2 0x128F JUMP JUMPDEST SWAP2 PUSH2 0x24C9 JUMP JUMPDEST SWAP11 PUSH2 0x13B9 PUSH2 0x13A9 PUSH2 0x131C PUSH2 0x13A3 DUP6 PUSH2 0x11DB JUMP JUMPDEST DUP14 PUSH2 0x11FE JUMP JUMPDEST PUSH1 0x40 MLOAD SWAP14 DUP15 SWAP8 DUP9 SWAP7 DUP8 SWAP6 PUSH1 0xE0 SHL SWAP1 JUMP JUMPDEST SUB SWAP3 GAS CALL SWAP6 DUP7 ISZERO PUSH2 0xA73 JUMPI PUSH2 0x153 SWAP7 PUSH2 0x13D8 SWAP5 POP PUSH2 0x13DE JUMPI JUMPDEST POP PUSH2 0x11D0 JUMP JUMPDEST SWAP1 PUSH2 0x211D JUMP JUMPDEST PUSH2 0x13F5 SWAP1 PUSH1 0x20 RETURNDATASIZE DUP2 GT PUSH2 0xA9C JUMPI PUSH2 0xA8F DUP2 DUP4 PUSH2 0x85E JUMP JUMPDEST PUSH2 0x13D2 JUMP JUMPDEST PUSH2 0x185 SWAP6 SWAP5 SWAP4 SWAP3 SWAP2 SWAP1 PUSH1 0x60 PUSH2 0x1138 JUMP JUMPDEST PUSH2 0x185 SWAP7 SWAP6 SWAP5 SWAP4 SWAP3 SWAP2 SWAP1 PUSH2 0x141D TIMESTAMP PUSH2 0x1147 JUMP JUMPDEST PUSH2 0x1494 JUMP JUMPDEST ISZERO PUSH2 0x1429 JUMPI JUMP JUMPDEST PUSH1 0x40 MLOAD PUSH3 0x461BCD PUSH1 0xE5 SHL DUP2 MSTORE PUSH1 0x20 PUSH1 0x4 DUP3 ADD MSTORE PUSH1 0x28 PUSH1 0x24 DUP3 ADD MSTORE PUSH32 0x4879706572496E646578526F757465723A204558434553534956455F494E5055 PUSH1 0x44 DUP3 ADD MSTORE PUSH32 0x545F414D4F554E54000000000000000000000000000000000000000000000000 PUSH1 0x64 DUP3 ADD MSTORE PUSH1 0x84 SWAP1 REVERT JUMPDEST SWAP1 SWAP5 SWAP4 SWAP3 SWAP7 SWAP6 POP POP PUSH2 0x14D2 PUSH32 0x0 SWAP5 PUSH2 0x14CB DUP5 DUP10 PUSH2 0x11D0 JUMP JUMPDEST SWAP1 DUP7 PUSH2 0x2B58 JUMP JUMPDEST SWAP2 DUP3 SWAP7 PUSH2 0x14F7 PUSH1 0x0 SWAP4 PUSH2 0x14F0 PUSH2 0xF67 PUSH2 0xB23 PUSH2 0x131C PUSH2 0x1316 DUP10 PUSH2 0x11DB JUMP JUMPDEST GT ISZERO PUSH2 0x1422 JUMP JUMPDEST PUSH1 0x20 PUSH2 0x1515 PUSH2 0x953 PUSH2 0x953 PUSH2 0x1350 PUSH2 0x150E DUP9 PUSH2 0x11DB JUMP JUMPDEST DUP8 DUP8 PUSH2 0x128F JUMP JUMPDEST SWAP7 PUSH4 0x23B872DD SWAP8 PUSH2 0x9D0 DUP7 PUSH2 0x1390 CALLER SWAP5 PUSH2 0x153B PUSH2 0x1350 PUSH2 0x1534 DUP6 PUSH2 0x11DB JUMP JUMPDEST DUP12 DUP12 PUSH2 0x128F JUMP JUMPDEST PUSH2 0x138A PUSH2 0x1350 PUSH2 0x1383 PUSH1 0x1 PUSH2 0x11DB JUMP JUMPDEST PUSH2 0x185 SWAP6 SWAP5 SWAP4 SWAP3 SWAP2 SWAP1 PUSH1 0x60 PUSH2 0x140A JUMP JUMPDEST PUSH2 0x185 SWAP6 SWAP5 SWAP4 SWAP3 SWAP2 SWAP1 PUSH2 0x156F TIMESTAMP JUMPDEST DUP8 PUSH2 0x80F JUMP JUMPDEST PUSH2 0x15C0 JUMP JUMPDEST ISZERO PUSH2 0x157B JUMPI JUMP JUMPDEST PUSH1 0x40 MLOAD PUSH3 0x461BCD PUSH1 0xE5 SHL DUP2 MSTORE PUSH1 0x20 PUSH1 0x4 DUP3 ADD MSTORE PUSH1 0x1E PUSH1 0x24 DUP3 ADD MSTORE PUSH32 0x4879706572496E646578526F757465723A20494E56414C49445F504154480000 PUSH1 0x44 DUP3 ADD MSTORE PUSH1 0x64 SWAP1 REVERT JUMPDEST POP SWAP2 SWAP5 SWAP4 POP PUSH1 0x0 SWAP3 SWAP2 PUSH2 0x15D2 DUP5 PUSH2 0x11DB JUMP JUMPDEST PUSH2 0x15DD SWAP1 DUP8 DUP5 PUSH2 0x128F JUMP JUMPDEST PUSH2 0x15E6 SWAP1 PUSH2 0x129F JUMP JUMPDEST PUSH32 0x0 SWAP7 SWAP1 PUSH1 0x1 PUSH1 0x1 PUSH1 0xA0 SHL SUB DUP9 AND SWAP1 PUSH1 0x1 PUSH1 0x1 PUSH1 0xA0 SHL SUB AND EQ PUSH2 0x1627 SWAP1 PUSH2 0x1574 JUMP JUMPDEST PUSH32 0x0 SWAP3 CALLVALUE PUSH2 0x1654 DUP4 DUP4 PUSH2 0x11D0 JUMP JUMPDEST PUSH2 0x165E SWAP2 DUP7 PUSH2 0x2A6F JUMP JUMPDEST SWAP4 DUP5 SWAP9 PUSH2 0x1669 DUP7 MLOAD SWAP1 JUMP JUMPDEST SWAP5 PUSH1 0x1 SWAP6 PUSH2 0x1676 DUP8 PUSH2 0x11DB JUMP JUMPDEST PUSH2 0x167F SWAP2 PUSH2 0xB1C JUMP JUMPDEST PUSH2 0x1689 SWAP1 DUP9 PUSH2 0x11FE JUMP JUMPDEST MLOAD LT ISZERO PUSH2 0x1695 SWAP1 PUSH2 0x121D JUMP JUMPDEST PUSH2 0x169E SWAP1 PUSH2 0x83F JUMP JUMPDEST PUSH2 0x16A7 SWAP1 PUSH2 0x83F JUMP JUMPDEST PUSH4 0xD0E30DB0 SWAP2 PUSH2 0x16B6 DUP10 PUSH2 0x11DB JUMP JUMPDEST PUSH2 0x16C0 SWAP1 DUP9 PUSH2 0x11FE JUMP JUMPDEST MLOAD DUP3 EXTCODESIZE ISZERO PUSH2 0x141 JUMPI PUSH2 0x16D7 SWAP4 DUP11 SWAP2 PUSH2 0xC48 PUSH1 0x40 MLOAD SWAP1 JUMP JUMPDEST DUP3 MSTORE PUSH1 0x4 SWAP1 DUP3 SWAP1 DUP7 GAS CALL SWAP1 DUP2 ISZERO PUSH2 0xA73 JUMPI DUP10 SWAP7 PUSH1 0x20 SWAP5 PUSH2 0x171B SWAP4 PUSH2 0x1799 JUMPI JUMPDEST POP PUSH2 0x138A PUSH2 0x1350 PUSH2 0x1714 PUSH2 0x137D PUSH2 0x1350 PUSH2 0x1383 PUSH4 0xA9059CBB SWAP14 PUSH2 0x11DB JUMP JUMPDEST DUP10 DUP10 PUSH2 0x128F JUMP JUMPDEST SWAP1 PUSH2 0x174F DUP10 PUSH2 0x1735 PUSH2 0x131C PUSH2 0x172F DUP4 PUSH2 0x11DB JUMP JUMPDEST DUP12 PUSH2 0x11FE JUMP JUMPDEST SWAP8 PUSH2 0x175A PUSH2 0x1742 PUSH1 0x40 MLOAD SWAP1 JUMP JUMPDEST SWAP10 DUP11 SWAP7 DUP8 SWAP6 DUP7 SWAP5 PUSH1 0xE0 SHL SWAP1 JUMP JUMPDEST DUP5 MSTORE PUSH1 0x4 DUP5 ADD PUSH2 0xAE9 JUMP JUMPDEST SUB SWAP3 GAS CALL SWAP6 DUP7 ISZERO PUSH2 0xA73 JUMPI PUSH2 0x153 SWAP7 PUSH2 0x13D8 SWAP5 PUSH2 0x177C SWAP3 SWAP2 PUSH2 0x1781 JUMPI POP PUSH2 0x75E JUMP JUMPDEST PUSH2 0x11D0 JUMP JUMPDEST PUSH2 0xD1C SWAP2 POP PUSH1 0x20 RETURNDATASIZE DUP2 GT PUSH2 0xA9C JUMPI PUSH2 0xA8F DUP2 DUP4 PUSH2 0x85E JUMP JUMPDEST PUSH2 0x17AF SWAP1 DUP10 RETURNDATASIZE DUP12 GT PUSH2 0xD41 JUMPI PUSH2 0xD33 DUP2 DUP4 PUSH2 0x85E JUMP JUMPDEST CODESIZE PUSH2 0x16F6 JUMP JUMPDEST PUSH2 0x185 SWAP5 SWAP4 SWAP3 SWAP2 SWAP1 PUSH1 0x60 PUSH2 0x155B JUMP JUMPDEST PUSH2 0x185 SWAP7 SWAP6 SWAP5 SWAP4 SWAP3 SWAP2 SWAP1 PUSH2 0x17D7 TIMESTAMP PUSH2 0x1147 JUMP JUMPDEST POP SWAP6 SWAP5 POP SWAP3 PUSH1 0x1 SWAP3 SWAP2 DUP3 PUSH2 0x17EA DUP6 PUSH2 0x11DB JUMP JUMPDEST PUSH2 0x17F3 SWAP2 PUSH2 0xB1C JUMP JUMPDEST PUSH2 0x17FE SWAP1 DUP5 DUP4 PUSH2 0x128F JUMP JUMPDEST PUSH2 0x1807 SWAP1 PUSH2 0x129F JUMP JUMPDEST PUSH32 0x0 SWAP4 SWAP1 PUSH1 0x1 PUSH1 0x1 PUSH1 0xA0 SHL SUB DUP6 AND SWAP1 PUSH1 0x1 PUSH1 0x1 PUSH1 0xA0 SHL SUB AND EQ PUSH2 0x1848 SWAP1 PUSH2 0x1574 JUMP JUMPDEST PUSH32 0x0 SWAP8 PUSH2 0x1874 DUP3 DUP5 PUSH2 0x11D0 JUMP JUMPDEST PUSH2 0x187E SWAP2 DUP11 PUSH2 0x2B58 JUMP JUMPDEST SWAP4 DUP5 SWAP9 PUSH1 0x0 SWAP8 PUSH2 0x188D DUP10 PUSH2 0x11DB JUMP JUMPDEST PUSH2 0x1897 SWAP1 DUP9 PUSH2 0x11FE JUMP JUMPDEST MLOAD GT ISZERO PUSH2 0x18A3 SWAP1 PUSH2 0x1422 JUMP JUMPDEST PUSH2 0x18AC DUP9 PUSH2 0x11DB JUMP JUMPDEST PUSH2 0x18B7 SWAP1 DUP5 DUP7 PUSH2 0x128F JUMP JUMPDEST PUSH2 0x18C0 SWAP1 PUSH2 0x129F JUMP JUMPDEST PUSH2 0x18C9 SWAP1 PUSH2 0x83F JUMP JUMPDEST PUSH2 0x18D2 SWAP1 PUSH2 0x83F JUMP JUMPDEST PUSH4 0x23B872DD CALLER SWAP3 PUSH2 0x18E2 DUP12 PUSH2 0x11DB JUMP JUMPDEST PUSH2 0x18ED SWAP1 DUP8 DUP10 PUSH2 0x128F JUMP JUMPDEST PUSH2 0x18F6 SWAP1 PUSH2 0x129F JUMP JUMPDEST PUSH2 0x18FF DUP12 PUSH2 0x11DB JUMP JUMPDEST PUSH2 0x190A SWAP1 DUP9 DUP11 PUSH2 0x128F JUMP JUMPDEST PUSH2 0x1913 SWAP1 PUSH2 0x129F JUMP JUMPDEST SWAP1 PUSH2 0x191D SWAP3 PUSH2 0x24C9 JUMP JUMPDEST SWAP1 PUSH2 0x1927 DUP12 PUSH2 0x11DB JUMP JUMPDEST PUSH2 0x1931 SWAP1 DUP11 PUSH2 0x11FE JUMP JUMPDEST MLOAD SWAP4 PUSH2 0x193C PUSH1 0x40 MLOAD SWAP1 JUMP JUMPDEST SWAP5 DUP6 SWAP4 DUP5 SWAP4 PUSH1 0xE0 SHL DUP5 MSTORE PUSH2 0x1953 SWAP3 PUSH1 0x4 DUP6 ADD PUSH2 0x8AE JUMP JUMPDEST SUB DUP2 DUP12 GAS SWAP5 PUSH1 0x20 SWAP6 CALL SWAP4 DUP5 ISZERO PUSH2 0xA73 JUMPI PUSH2 0x1987 PUSH2 0x953 SWAP5 PUSH2 0x953 SWAP4 PUSH2 0x198D SWAP8 PUSH2 0x1A43 JUMPI JUMPDEST POP PUSH2 0x1981 ADDRESS PUSH2 0x83F JUMP JUMPDEST SWAP3 PUSH2 0x11D0 JUMP JUMPDEST DUP8 PUSH2 0x211D JUMP JUMPDEST SWAP3 PUSH4 0x2E1A7D4D PUSH2 0x19B3 PUSH2 0x131C PUSH2 0x19AD PUSH2 0x19A4 DUP8 MLOAD SWAP1 JUMP JUMPDEST PUSH2 0x1310 DUP7 PUSH2 0x11DB JUMP JUMPDEST DUP7 PUSH2 0x11FE JUMP JUMPDEST DUP6 EXTCODESIZE ISZERO PUSH2 0x141 JUMPI PUSH2 0x19E8 SWAP6 PUSH2 0x19DA DUP9 DUP1 SWAP5 PUSH2 0x19CD PUSH1 0x40 MLOAD SWAP1 JUMP JUMPDEST SWAP10 DUP11 SWAP6 DUP7 SWAP5 DUP6 SWAP4 PUSH1 0xE0 SHL SWAP1 JUMP JUMPDEST DUP4 MSTORE PUSH1 0x4 DUP4 ADD MSTORE PUSH1 0x24 DUP3 ADD SWAP1 JUMP JUMPDEST SUB SWAP3 GAS CALL SWAP4 DUP5 ISZERO PUSH2 0xA73 JUMPI PUSH2 0x131C DUP7 SWAP6 SWAP5 PUSH2 0x1A27 PUSH2 0x1A15 PUSH2 0x953 DUP10 SWAP9 SWAP8 PUSH2 0xCCD SWAP7 DUP11 SWAP10 PUSH2 0x1A2D JUMPI POP PUSH2 0x83F JUMP JUMPDEST SWAP5 PUSH2 0x1310 PUSH2 0x1A21 DUP5 MLOAD SWAP1 JUMP JUMPDEST SWAP2 PUSH2 0x11DB JUMP JUMPDEST SWAP1 PUSH2 0x11FE JUMP JUMPDEST PUSH2 0x1121 SWAP1 DUP11 RETURNDATASIZE DUP13 GT PUSH2 0xD41 JUMPI PUSH2 0xD33 DUP2 DUP4 PUSH2 0x85E JUMP JUMPDEST PUSH2 0x1A5A SWAP1 PUSH1 0x20 RETURNDATASIZE DUP2 GT PUSH2 0xA9C JUMPI PUSH2 0xA8F DUP2 DUP4 PUSH2 0x85E JUMP JUMPDEST PUSH2 0x1977 JUMP JUMPDEST PUSH2 0x185 SWAP6 SWAP5 SWAP4 SWAP3 SWAP2 SWAP1 PUSH1 0x60 PUSH2 0x17C4 JUMP JUMPDEST PUSH2 0x185 SWAP7 SWAP6 SWAP5 SWAP4 SWAP3 SWAP2 SWAP1 PUSH2 0x1A82 TIMESTAMP PUSH2 0x1147 JUMP JUMPDEST POP SWAP1 SWAP6 SWAP5 POP SWAP3 PUSH1 0x1 SWAP3 SWAP2 DUP3 PUSH2 0x1A96 DUP6 PUSH2 0x11DB JUMP JUMPDEST PUSH2 0x1A9F SWAP2 PUSH2 0xB1C JUMP JUMPDEST PUSH2 0x1AAA SWAP1 DUP5 DUP4 PUSH2 0x128F JUMP JUMPDEST PUSH2 0x1AB3 SWAP1 PUSH2 0x129F JUMP JUMPDEST PUSH32 0x0 SWAP4 SWAP1 PUSH1 0x1 PUSH1 0x1 PUSH1 0xA0 SHL SUB DUP6 AND SWAP1 PUSH1 0x1 PUSH1 0x1 PUSH1 0xA0 SHL SUB AND EQ PUSH2 0x1AF4 SWAP1 PUSH2 0x1574 JUMP JUMPDEST PUSH32 0x0 SWAP6 PUSH2 0x1B20 DUP3 DUP5 PUSH2 0x11D0 JUMP JUMPDEST PUSH2 0x1B2A SWAP2 DUP9 PUSH2 0x2A6F JUMP JUMPDEST SWAP4 DUP5 SWAP9 PUSH2 0x1B35 DUP7 MLOAD SWAP1 JUMP JUMPDEST PUSH2 0x1B3E DUP9 PUSH2 0x11DB JUMP JUMPDEST PUSH2 0x1B47 SWAP2 PUSH2 0xB1C JUMP JUMPDEST PUSH2 0x1B51 SWAP1 DUP8 PUSH2 0x11FE JUMP JUMPDEST MLOAD LT ISZERO PUSH2 0x1B5D SWAP1 PUSH2 0x121D JUMP JUMPDEST PUSH1 0x0 SWAP7 PUSH2 0x18AC DUP9 PUSH2 0x11DB JUMP JUMPDEST PUSH2 0x185 SWAP6 SWAP5 SWAP4 SWAP3 SWAP2 SWAP1 PUSH1 0x60 PUSH2 0x1A6F JUMP JUMPDEST PUSH2 0x185 SWAP6 SWAP5 SWAP4 SWAP3 SWAP2 SWAP1 PUSH2 0x1B8B TIMESTAMP PUSH2 0x1569 JUMP JUMPDEST POP SWAP2 SWAP5 SWAP4 POP PUSH1 0x0 SWAP3 SWAP2 PUSH2 0x1BAA PUSH2 0x1350 PUSH2 0x1BA3 DUP7 PUSH2 0x11DB JUMP JUMPDEST DUP9 DUP6 PUSH2 0x128F JUMP JUMPDEST SWAP3 PUSH2 0x1BE9 PUSH32 0x0 SWAP5 PUSH2 0x1BE3 PUSH2 0x79C DUP8 PUSH1 0x1 PUSH1 0x1 PUSH1 0xA0 SHL SUB AND SWAP1 JUMP JUMPDEST EQ PUSH2 0x1574 JUMP JUMPDEST PUSH2 0x1C1F PUSH32 0x0 SWAP3 PUSH2 0x1C18 DUP10 DUP7 PUSH2 0x11D0 JUMP JUMPDEST SWAP1 DUP5 PUSH2 0x2B58 JUMP JUMPDEST SWAP3 DUP4 SWAP8 PUSH2 0x1C4D PUSH2 0x953 PUSH2 0x1C3D PUSH2 0x131C PUSH2 0x1C37 DUP12 PUSH2 0x11DB JUMP JUMPDEST DUP10 PUSH2 0x11FE JUMP JUMPDEST SWAP8 PUSH2 0x953 CALLVALUE SWAP10 PUSH2 0x14F0 PUSH2 0xF67 DUP13 SWAP1 JUMP JUMPDEST PUSH4 0xD0E30DB0 SWAP1 PUSH2 0x1C62 PUSH2 0x131C PUSH2 0x1C37 DUP12 PUSH2 0x11DB JUMP JUMPDEST DUP2 EXTCODESIZE ISZERO PUSH2 0x141 JUMPI PUSH2 0x1C78 SWAP3 DUP11 SWAP2 PUSH2 0x10BF PUSH1 0x40 MLOAD SWAP1 JUMP JUMPDEST DUP3 MSTORE PUSH1 0x4 SWAP1 DUP3 SWAP1 DUP6 GAS CALL SWAP2 DUP3 ISZERO PUSH2 0xA73 JUMPI PUSH1 0x20 SWAP3 PUSH2 0x1D6C JUMPI JUMPDEST POP PUSH2 0x1CC8 PUSH4 0xA9059CBB SWAP7 PUSH2 0x1CB1 PUSH2 0x1350 PUSH2 0x1CAA DUP14 PUSH2 0x11DB JUMP JUMPDEST DUP8 DUP10 PUSH2 0x128F JUMP JUMPDEST PUSH2 0x138A PUSH2 0x1350 PUSH2 0x1CC1 PUSH1 0x1 PUSH2 0x11DB JUMP JUMPDEST DUP9 DUP11 PUSH2 0x128F JUMP JUMPDEST SWAP1 PUSH2 0x174F DUP11 PUSH2 0x1CE2 PUSH2 0x131C PUSH2 0x1CDC DUP4 PUSH2 0x11DB JUMP JUMPDEST DUP13 PUSH2 0x11FE JUMP JUMPDEST SWAP9 PUSH2 0x1CFC PUSH2 0x1CEF PUSH1 0x40 MLOAD SWAP1 JUMP JUMPDEST SWAP11 DUP12 SWAP7 DUP8 SWAP6 DUP7 SWAP5 PUSH1 0xE0 SHL SWAP1 JUMP JUMPDEST SUB SWAP3 GAS CALL SWAP2 DUP3 ISZERO PUSH2 0xA73 JUMPI PUSH2 0x177C PUSH2 0x1D1E SWAP4 PUSH2 0x1D24 SWAP7 DUP11 SWAP2 PUSH2 0x1781 JUMPI POP PUSH2 0x75E JUMP JUMPDEST DUP4 PUSH2 0x211D JUMP JUMPDEST PUSH2 0x1D3C PUSH2 0x185 PUSH2 0x131C PUSH2 0x1D36 DUP7 PUSH2 0x11DB JUMP JUMPDEST DUP5 PUSH2 0x11FE JUMP JUMPDEST DUP3 GT PUSH2 0x1D47 JUMPI POP POP POP JUMP JUMPDEST DUP3 DUP1 SWAP3 SWAP2 PUSH2 0xCCD DUP3 SWAP4 PUSH2 0x1310 PUSH2 0x131C PUSH2 0x1D62 PUSH2 0x953 CALLER PUSH2 0x83F JUMP JUMPDEST SWAP5 PUSH2 0x1A27 DUP8 PUSH2 0x11DB JUMP JUMPDEST PUSH2 0x1D82 SWAP1 DUP11 RETURNDATASIZE DUP13 GT PUSH2 0xD41 JUMPI PUSH2 0xD33 DUP2 DUP4 PUSH2 0x85E JUMP JUMPDEST CODESIZE PUSH2 0x1C91 JUMP JUMPDEST PUSH2 0x185 SWAP5 SWAP4 SWAP3 SWAP2 SWAP1 PUSH1 0x60 PUSH2 0x1B79 JUMP JUMPDEST PUSH2 0x185 SWAP3 SWAP2 SWAP1 PUSH2 0x27C6 JUMP JUMPDEST PUSH2 0x185 SWAP3 SWAP2 SWAP1 PUSH2 0x288D JUMP JUMPDEST PUSH2 0x185 SWAP3 SWAP2 SWAP1 PUSH2 0x2987 JUMP JUMPDEST PUSH2 0x1DEF PUSH2 0x185 SWAP4 PUSH2 0x1DC7 PUSH1 0x60 SWAP1 JUMP JUMPDEST POP PUSH32 0x0 SWAP4 PUSH2 0x11D0 JUMP JUMPDEST SWAP2 PUSH2 0x2A6F JUMP JUMPDEST PUSH2 0x1E04 PUSH2 0x185 SWAP4 PUSH2 0x1DC7 PUSH1 0x60 SWAP1 JUMP JUMPDEST SWAP2 PUSH2 0x2B58 JUMP JUMPDEST SWAP1 POP MLOAD SWAP1 PUSH2 0x153 DUP3 PUSH2 0x1F8 JUMP JUMPDEST SWAP1 PUSH1 0x20 DUP3 DUP3 SUB SLT PUSH2 0x141 JUMPI PUSH2 0x185 SWAP2 PUSH2 0x1E0A JUMP JUMPDEST PUSH2 0x1EC PUSH2 0x185 PUSH2 0x185 SWAP3 SWAP1 JUMP JUMPDEST PUSH2 0x185 SWAP1 PUSH2 0x1E2B JUMP JUMPDEST SWAP2 SWAP5 SWAP3 SWAP4 SWAP1 SWAP3 SWAP2 PUSH32 0x0 SWAP4 PUSH2 0x1E76 PUSH2 0x953 DUP7 PUSH2 0x83F JUMP JUMPDEST SWAP2 PUSH4 0xE6A43905 SWAP6 PUSH2 0x1E90 PUSH2 0x1E89 PUSH1 0x40 MLOAD SWAP1 JUMP JUMPDEST SWAP8 PUSH1 0xE0 SHL SWAP1 JUMP JUMPDEST DUP8 MSTORE PUSH1 0x1 PUSH1 0x1 PUSH1 0xA0 SHL SUB DUP3 DUP2 AND PUSH1 0x4 DUP10 ADD MSTORE DUP4 AND PUSH1 0x24 DUP9 ADD MSTORE PUSH1 0x20 DUP8 PUSH1 0x44 DUP2 DUP8 GAS STATICCALL SWAP7 DUP8 ISZERO PUSH2 0xA73 JUMPI PUSH1 0x0 SWAP8 PUSH2 0x1FF2 JUMPI JUMPDEST POP PUSH1 0x0 SWAP7 PUSH2 0x1ED4 PUSH2 0x79C PUSH2 0x1EC DUP11 PUSH2 0x1E38 JUMP JUMPDEST EQ PUSH2 0x1F70 JUMPI JUMPDEST PUSH2 0x1EE4 SWAP4 POP PUSH2 0x25E5 JUMP JUMPDEST SWAP4 PUSH2 0x1EEE DUP2 PUSH2 0x11DB JUMP JUMPDEST DUP3 EQ SWAP1 DUP2 PUSH2 0x1F5E JUMPI JUMPDEST POP ISZERO PUSH2 0x1F05 JUMPI POP POP POP POP SWAP1 SWAP2 JUMP JUMPDEST PUSH2 0x1F14 DUP5 DUP3 DUP9 SWAP8 SWAP6 SWAP7 SWAP8 PUSH2 0x27C6 JUMP JUMPDEST SWAP5 DUP4 DUP7 GT PUSH2 0x1F30 JUMPI POP POP POP POP PUSH2 0x1F2A PUSH2 0x3B1 SWAP2 SWAP1 JUMP JUMPDEST DUP3 PUSH2 0xF72 JUMP JUMPDEST DUP4 SWAP6 POP PUSH2 0x3B1 SWAP5 POP PUSH2 0x1F4C PUSH2 0x185 SWAP3 PUSH2 0x1F50 SWAP3 PUSH2 0x1F58 SWAP7 PUSH2 0x27C6 JUMP JUMPDEST SWAP7 SWAP1 JUMP JUMPDEST DUP7 GT ISZERO PUSH2 0x75E JUMP JUMPDEST DUP4 PUSH2 0xF6B JUMP JUMPDEST PUSH2 0x1F68 SWAP2 POP PUSH2 0x11DB JUMP JUMPDEST DUP5 EQ CODESIZE PUSH2 0x1EF7 JUMP JUMPDEST PUSH1 0x20 PUSH2 0x1F8E SWAP5 PUSH4 0xC9C65396 SWAP1 PUSH2 0x1F85 PUSH1 0x40 MLOAD SWAP1 JUMP JUMPDEST SWAP7 DUP8 SWAP3 PUSH1 0xE0 SHL SWAP1 JUMP JUMPDEST DUP3 MSTORE PUSH1 0x1 PUSH1 0x1 PUSH1 0xA0 SHL SUB DUP6 DUP2 AND PUSH1 0x4 DUP5 ADD MSTORE DUP7 AND PUSH1 0x24 DUP4 ADD MSTORE PUSH1 0x44 SWAP1 DUP3 SWAP1 DUP12 SWAP1 GAS CALL SWAP4 DUP5 ISZERO PUSH2 0xA73 JUMPI PUSH2 0x1EE4 SWAP5 PUSH2 0x1FC6 JUMPI JUMPDEST POP PUSH2 0x1EDA JUMP JUMPDEST PUSH2 0x1FE6 SWAP1 PUSH1 0x20 RETURNDATASIZE DUP2 GT PUSH2 0x1FEB JUMPI JUMPDEST PUSH2 0x1FDE DUP2 DUP4 PUSH2 0x85E JUMP JUMPDEST DUP2 ADD SWAP1 PUSH2 0x1E17 JUMP JUMPDEST PUSH2 0x1FC0 JUMP JUMPDEST POP RETURNDATASIZE PUSH2 0x1FD4 JUMP JUMPDEST PUSH2 0x200B SWAP2 SWAP8 POP PUSH1 0x20 RETURNDATASIZE DUP2 GT PUSH2 0x1FEB JUMPI PUSH2 0x1FDE DUP2 DUP4 PUSH2 0x85E JUMP JUMPDEST SWAP6 CODESIZE PUSH2 0x1EC1 JUMP JUMPDEST PUSH1 0x0 NOT DUP2 EQ PUSH2 0xB32 JUMPI PUSH1 0x1 ADD SWAP1 JUMP JUMPDEST SWAP2 SWAP1 DUP3 ADD DUP1 SWAP3 GT PUSH2 0xB32 JUMPI JUMP JUMPDEST PUSH8 0xFFFFFFFFFFFFFFFF DUP2 GT PUSH2 0x880 JUMPI PUSH1 0x20 SWAP1 PUSH1 0x1F ADD PUSH1 0x1F NOT AND ADD SWAP1 JUMP JUMPDEST SWAP1 PUSH2 0x2058 PUSH2 0x118E DUP4 PUSH2 0x202E JUMP JUMPDEST SWAP2 DUP3 MSTORE JUMP JUMPDEST CALLDATASIZE SWAP1 CALLDATACOPY JUMP JUMPDEST SWAP1 PUSH2 0x153 PUSH2 0x2078 PUSH2 0x2072 DUP5 PUSH2 0x204B JUMP JUMPDEST SWAP4 PUSH2 0x202E JUMP JUMPDEST PUSH1 0x1F NOT ADD PUSH1 0x20 DUP5 ADD PUSH2 0x205D JUMP JUMPDEST PUSH1 0x0 JUMPDEST DUP4 DUP2 LT PUSH2 0x2098 JUMPI POP POP PUSH1 0x0 SWAP2 ADD MSTORE JUMP JUMPDEST DUP2 DUP2 ADD MLOAD DUP4 DUP3 ADD MSTORE PUSH1 0x20 ADD PUSH2 0x2088 JUMP JUMPDEST PUSH2 0x20C9 PUSH2 0x20D2 PUSH1 0x20 SWAP4 PUSH2 0x275 SWAP4 PUSH2 0x20BD DUP2 MLOAD SWAP1 JUMP JUMPDEST DUP1 DUP4 MSTORE SWAP4 DUP5 SWAP3 PUSH1 0x20 ADD SWAP1 JUMP JUMPDEST SWAP6 DUP7 SWAP2 ADD PUSH2 0x2085 JUMP JUMPDEST PUSH1 0x1F ADD PUSH1 0x1F NOT AND SWAP1 JUMP JUMPDEST SWAP1 SWAP3 PUSH2 0x2110 SWAP1 PUSH2 0x2100 PUSH2 0x185 SWAP7 SWAP5 PUSH2 0x20F9 PUSH1 0x80 DUP7 ADD SWAP8 PUSH1 0x0 DUP8 ADD MSTORE JUMP JUMPDEST PUSH1 0x20 DUP6 ADD MSTORE JUMP JUMPDEST PUSH1 0x1 PUSH1 0x1 PUSH1 0xA0 SHL SUB AND PUSH1 0x40 DUP4 ADD MSTORE JUMP JUMPDEST PUSH1 0x60 DUP2 DUP5 SUB SWAP2 ADD MSTORE PUSH2 0x20A8 JUMP JUMPDEST SWAP2 SWAP3 PUSH1 0x0 JUMPDEST DUP3 MLOAD SWAP1 PUSH2 0x2137 PUSH2 0x185 PUSH1 0x1 SWAP4 PUSH2 0x1310 DUP6 PUSH2 0x11DB JUMP JUMPDEST DUP2 LT ISZERO PUSH2 0x22FC JUMPI PUSH2 0x2158 PUSH2 0x214B DUP3 DUP7 PUSH2 0x11FE JUMP JUMPDEST MLOAD PUSH1 0x1 PUSH1 0x1 PUSH1 0xA0 SHL SUB AND SWAP1 JUMP JUMPDEST PUSH2 0x2176 PUSH2 0x214B PUSH2 0x2170 PUSH2 0x216A DUP7 PUSH2 0x11DB JUMP JUMPDEST DUP6 PUSH2 0x2021 JUMP JUMPDEST DUP8 PUSH2 0x11FE JUMP JUMPDEST SWAP3 PUSH2 0x219D PUSH2 0x79C PUSH2 0x131C PUSH2 0x1316 PUSH2 0x2197 PUSH2 0x2190 DUP10 DUP9 PUSH2 0x23C2 JUMP JUMPDEST POP SWAP6 PUSH2 0x11DB JUMP JUMPDEST DUP8 PUSH2 0x2021 JUMP JUMPDEST PUSH1 0x1 PUSH1 0x1 PUSH1 0xA0 SHL SUB DUP4 AND PUSH1 0x0 SWAP2 SUB PUSH2 0x22E4 JUMPI POP PUSH2 0x224F PUSH2 0x953 PUSH2 0x953 PUSH2 0x21C3 PUSH1 0x0 PUSH2 0x11DB JUMP JUMPDEST SWAP4 SWAP7 JUMPDEST DUP10 PUSH2 0x21CF DUP2 MLOAD SWAP1 JUMP JUMPDEST DUP3 PUSH2 0x21E2 PUSH2 0x185 PUSH1 0x2 SWAP4 PUSH2 0x1310 DUP6 PUSH2 0x11DB JUMP JUMPDEST DUP11 LT ISZERO PUSH2 0x22DA JUMPI PUSH2 0x138A PUSH2 0x214B PUSH2 0x2227 SWAP5 PUSH2 0x1A27 DUP14 PUSH2 0x2221 PUSH32 0x0 SWAP8 PUSH2 0x11DB JUMP JUMPDEST SWAP1 PUSH2 0x2021 JUMP JUMPDEST SWAP6 JUMPDEST PUSH32 0x0 PUSH2 0x24C9 JUMP JUMPDEST SWAP1 PUSH4 0x22C0D9F SWAP2 PUSH1 0x0 SWAP4 PUSH2 0x226A PUSH2 0x2265 DUP7 PUSH2 0x11DB JUMP JUMPDEST PUSH2 0x2062 JUMP JUMPDEST DUP3 EXTCODESIZE ISZERO PUSH2 0x141 JUMPI DUP6 SWAP5 PUSH2 0x229D DUP7 SWAP3 PUSH2 0x2292 SWAP5 PUSH2 0x2285 PUSH1 0x40 MLOAD SWAP1 JUMP JUMPDEST SWAP12 DUP13 SWAP9 DUP10 SWAP8 DUP9 SWAP7 PUSH1 0xE0 SHL SWAP1 JUMP JUMPDEST DUP7 MSTORE PUSH1 0x4 DUP7 ADD PUSH2 0x20DC JUMP JUMPDEST SUB SWAP3 GAS CALL SWAP3 DUP4 ISZERO PUSH2 0xA73 JUMPI PUSH2 0x22B8 SWAP4 PUSH2 0x22BD JUMPI JUMPDEST POP POP PUSH2 0x2012 JUMP JUMPDEST PUSH2 0x2122 JUMP JUMPDEST DUP2 PUSH2 0x22D3 SWAP3 SWAP1 RETURNDATASIZE LT PUSH2 0xD41 JUMPI PUSH2 0xD33 DUP2 DUP4 PUSH2 0x85E JUMP JUMPDEST CODESIZE DUP1 PUSH2 0x22B1 JUMP JUMPDEST POP POP POP DUP12 SWAP6 PUSH2 0x2229 JUMP JUMPDEST PUSH2 0x953 PUSH2 0x953 PUSH2 0x22F6 PUSH2 0x224F SWAP4 PUSH2 0x11DB JUMP JUMPDEST SWAP7 PUSH2 0x21C6 JUMP JUMPDEST POP POP SWAP3 POP POP POP JUMP JUMPDEST ISZERO PUSH2 0x230B JUMPI JUMP JUMPDEST PUSH1 0x40 MLOAD PUSH3 0x461BCD PUSH1 0xE5 SHL DUP2 MSTORE PUSH1 0x20 PUSH1 0x4 DUP3 ADD MSTORE PUSH1 0x26 PUSH1 0x24 DUP3 ADD MSTORE PUSH32 0x4879706572496E6465784C6962726172793A204944454E544943414C5F414444 PUSH1 0x44 DUP3 ADD MSTORE PUSH32 0x5245535345530000000000000000000000000000000000000000000000000000 PUSH1 0x64 DUP3 ADD MSTORE PUSH1 0x84 SWAP1 REVERT JUMPDEST ISZERO PUSH2 0x237D JUMPI JUMP JUMPDEST PUSH1 0x40 MLOAD PUSH3 0x461BCD PUSH1 0xE5 SHL DUP2 MSTORE PUSH1 0x20 PUSH1 0x4 DUP3 ADD MSTORE PUSH1 0x1F PUSH1 0x24 DUP3 ADD MSTORE PUSH32 0x4879706572496E6465784C6962726172793A205A45524F5F4144445245535300 PUSH1 0x44 DUP3 ADD MSTORE PUSH1 0x64 SWAP1 REVERT JUMPDEST SWAP1 SWAP2 SWAP1 PUSH2 0x23E3 PUSH1 0x1 PUSH1 0x1 PUSH1 0xA0 SHL SUB DUP5 AND PUSH1 0x1 PUSH1 0x1 PUSH1 0xA0 SHL SUB DUP4 AND EQ ISZERO PUSH2 0x2304 JUMP JUMPDEST PUSH1 0x1 PUSH1 0x1 PUSH1 0xA0 SHL SUB DUP4 AND PUSH1 0x1 PUSH1 0x1 PUSH1 0xA0 SHL SUB DUP3 AND LT ISZERO PUSH2 0x241B JUMPI SWAP2 JUMPDEST SWAP1 PUSH2 0x153 DUP4 PUSH2 0x2414 PUSH2 0x79C PUSH2 0x1EC PUSH1 0x0 PUSH2 0x1E38 JUMP JUMPDEST EQ ISZERO PUSH2 0x2376 JUMP JUMPDEST PUSH2 0x23FF JUMP JUMPDEST PUSH2 0x188 SWAP1 PUSH1 0x1 PUSH1 0x1 PUSH1 0xA0 SHL SUB AND PUSH1 0x60 SHL SWAP1 JUMP JUMPDEST PUSH1 0x14 DUP2 PUSH2 0x2445 PUSH2 0x275 SWAP4 DUP4 SWAP7 SWAP6 PUSH2 0x2420 JUMP JUMPDEST ADD DUP1 SWAP3 PUSH2 0x2420 JUMP JUMPDEST SWAP2 PUSH2 0x2496 PUSH1 0x14 PUSH1 0x20 SWAP4 PUSH2 0x2490 PUSH2 0x2489 PUSH2 0x185 SWAP8 PUSH32 0xFF00000000000000000000000000000000000000000000000000000000000000 DUP2 MSTORE PUSH1 0x1 ADD SWAP1 JUMP JUMPDEST DUP1 SWAP3 PUSH2 0x2420 JUMP JUMPDEST ADD SWAP2 DUP3 MSTORE JUMP JUMPDEST ADD PUSH32 0x850862577798453A83A82988C33040528B3C07C908B27877FAD5F2059DF00C43 DUP2 MSTORE PUSH1 0x20 ADD SWAP1 JUMP JUMPDEST PUSH2 0x185 SWAP1 PUSH2 0x11DB JUMP JUMPDEST PUSH2 0x250A PUSH2 0x2541 PUSH2 0x2552 SWAP3 PUSH2 0x250A PUSH2 0x2516 PUSH2 0x24F2 PUSH2 0x185 SWAP9 PUSH2 0x2557 SWAP9 PUSH2 0x24EC PUSH1 0x0 SWAP1 JUMP JUMPDEST POP PUSH2 0x23C2 JUMP JUMPDEST SWAP1 PUSH2 0x24FC PUSH1 0x40 MLOAD SWAP1 JUMP JUMPDEST SWAP4 DUP5 SWAP3 PUSH1 0x20 DUP5 ADD SWAP3 DUP4 PUSH2 0x2433 JUMP JUMPDEST SWAP1 DUP2 SUB DUP3 MSTORE SUB DUP3 PUSH2 0x85E JUMP JUMPDEST PUSH2 0x2528 PUSH2 0x2521 DUP3 MLOAD SWAP1 JUMP JUMPDEST SWAP2 PUSH1 0x20 ADD SWAP1 JUMP JUMPDEST KECCAK256 SWAP1 PUSH2 0x2533 PUSH1 0x40 MLOAD SWAP1 JUMP JUMPDEST SWAP4 DUP5 SWAP3 PUSH1 0x20 DUP5 ADD SWAP3 DUP4 PUSH2 0x244D JUMP JUMPDEST PUSH2 0x254C PUSH2 0x2521 DUP3 MLOAD SWAP1 JUMP JUMPDEST KECCAK256 PUSH2 0x24C0 JUMP JUMPDEST PUSH2 0x1E2B JUMP JUMPDEST PUSH2 0x836 JUMP JUMPDEST PUSH14 0xFFFFFFFFFFFFFFFFFFFFFFFFFFFF DUP2 AND PUSH2 0x13A JUMP JUMPDEST SWAP1 POP MLOAD SWAP1 PUSH2 0x153 DUP3 PUSH2 0x255C JUMP JUMPDEST PUSH4 0xFFFFFFFF DUP2 AND PUSH2 0x13A JUMP JUMPDEST SWAP1 POP MLOAD SWAP1 PUSH2 0x153 DUP3 PUSH2 0x257F JUMP JUMPDEST SWAP1 SWAP2 PUSH1 0x60 DUP3 DUP5 SUB SLT PUSH2 0x141 JUMPI PUSH2 0x185 PUSH2 0x25B1 DUP5 DUP5 PUSH2 0x2572 JUMP JUMPDEST SWAP4 PUSH2 0x25BF DUP2 PUSH1 0x20 DUP7 ADD PUSH2 0x2572 JUMP JUMPDEST SWAP4 PUSH1 0x40 ADD PUSH2 0x258B JUMP JUMPDEST PUSH2 0x185 PUSH2 0x185 PUSH2 0x185 SWAP3 PUSH14 0xFFFFFFFFFFFFFFFFFFFFFFFFFFFF AND SWAP1 JUMP JUMPDEST SWAP2 SWAP1 PUSH1 0x60 PUSH2 0x2611 PUSH2 0x953 PUSH2 0x953 PUSH2 0x2620 SWAP6 PUSH2 0x25FE PUSH1 0x0 SWAP1 JUMP JUMPDEST POP DUP6 PUSH2 0x260A DUP3 DUP3 PUSH2 0x23C2 JUMP JUMPDEST POP SWAP9 PUSH2 0x24C9 JUMP JUMPDEST PUSH4 0x902F1AC SWAP1 PUSH2 0x10BF PUSH1 0x40 MLOAD SWAP1 JUMP JUMPDEST DUP3 MSTORE PUSH1 0x4 SWAP1 DUP3 SWAP1 GAS STATICCALL SWAP2 DUP3 ISZERO PUSH2 0xA73 JUMPI PUSH1 0x0 SWAP1 DUP2 SWAP4 PUSH2 0x2668 JUMPI JUMPDEST POP PUSH2 0x79C PUSH2 0x2653 PUSH2 0x264D PUSH2 0x2660 SWAP4 PUSH2 0x25C8 JUMP JUMPDEST SWAP5 PUSH2 0x25C8 JUMP JUMPDEST SWAP5 PUSH1 0x1 PUSH1 0x1 PUSH1 0xA0 SHL SUB AND SWAP1 JUMP JUMPDEST SUB PUSH2 0x3B1 JUMPI SWAP2 JUMP JUMPDEST PUSH2 0x264D SWAP4 POP PUSH2 0x2660 SWAP2 POP PUSH2 0x2653 PUSH2 0x2698 PUSH2 0x79C SWAP3 PUSH1 0x60 RETURNDATASIZE DUP2 GT PUSH2 0x26A3 JUMPI JUMPDEST PUSH2 0x2690 DUP2 DUP4 PUSH2 0x85E JUMP JUMPDEST DUP2 ADD SWAP1 PUSH2 0x2598 JUMP JUMPDEST POP SWAP6 POP SWAP3 POP POP PUSH2 0x263A JUMP JUMPDEST POP RETURNDATASIZE PUSH2 0x2686 JUMP JUMPDEST ISZERO PUSH2 0x26B1 JUMPI JUMP JUMPDEST PUSH1 0x40 MLOAD PUSH3 0x461BCD PUSH1 0xE5 SHL DUP2 MSTORE PUSH1 0x20 PUSH1 0x4 DUP3 ADD MSTORE PUSH1 0x26 PUSH1 0x24 DUP3 ADD MSTORE PUSH32 0x4879706572496E6465784C6962726172793A20494E53554646494349454E545F PUSH1 0x44 DUP3 ADD MSTORE PUSH32 0x414D4F554E540000000000000000000000000000000000000000000000000000 PUSH1 0x64 DUP3 ADD MSTORE PUSH1 0x84 SWAP1 REVERT JUMPDEST ISZERO PUSH2 0x2723 JUMPI JUMP JUMPDEST PUSH1 0x40 MLOAD PUSH3 0x461BCD PUSH1 0xE5 SHL DUP2 MSTORE PUSH1 0x20 PUSH1 0x4 DUP3 ADD MSTORE PUSH1 0x29 PUSH1 0x24 DUP3 ADD MSTORE PUSH32 0x4879706572496E6465784C6962726172793A20494E53554646494349454E545F PUSH1 0x44 DUP3 ADD MSTORE PUSH32 0x4C49515549444954590000000000000000000000000000000000000000000000 PUSH1 0x64 DUP3 ADD MSTORE PUSH1 0x84 SWAP1 REVERT JUMPDEST DUP2 DUP2 MUL SWAP3 SWAP2 DUP2 ISZERO SWAP2 DUP5 DIV EQ OR ISZERO PUSH2 0xB32 JUMPI JUMP JUMPDEST PUSH4 0x4E487B71 PUSH1 0xE0 SHL PUSH1 0x0 MSTORE PUSH1 0x12 PUSH1 0x4 MSTORE PUSH1 0x24 PUSH1 0x0 REVERT JUMPDEST DUP2 ISZERO PUSH2 0x27C1 JUMPI DIV SWAP1 JUMP JUMPDEST PUSH2 0x27A1 JUMP JUMPDEST PUSH2 0x185 SWAP3 PUSH2 0x2803 SWAP2 PUSH2 0x27FE PUSH1 0x0 PUSH2 0x27E6 PUSH2 0x27DF DUP3 PUSH2 0x11DB JUMP JUMPDEST DUP5 GT PUSH2 0x26AA JUMP JUMPDEST PUSH2 0x27EF DUP2 PUSH2 0x11DB JUMP JUMPDEST DUP7 GT SWAP1 DUP2 PUSH2 0x2808 JUMPI JUMPDEST POP PUSH2 0x271C JUMP JUMPDEST PUSH2 0x278E JUMP JUMPDEST PUSH2 0x27B7 JUMP JUMPDEST PUSH2 0x2812 SWAP2 POP PUSH2 0x11DB JUMP JUMPDEST DUP4 JUMPDEST GT CODESIZE PUSH2 0x27F8 JUMP JUMPDEST ISZERO PUSH2 0x2822 JUMPI JUMP JUMPDEST PUSH1 0x40 MLOAD PUSH3 0x461BCD PUSH1 0xE5 SHL DUP2 MSTORE PUSH1 0x20 PUSH1 0x4 DUP3 ADD MSTORE PUSH1 0x2C PUSH1 0x24 DUP3 ADD MSTORE PUSH32 0x4879706572496E6465784C6962726172793A20494E53554646494349454E545F PUSH1 0x44 DUP3 ADD MSTORE PUSH32 0x494E5055545F414D4F554E540000000000000000000000000000000000000000 PUSH1 0x64 DUP3 ADD MSTORE PUSH1 0x84 SWAP1 REVERT JUMPDEST PUSH2 0x185 SWAP3 PUSH2 0x28FA PUSH2 0x28EE PUSH2 0x28E7 PUSH2 0x28FF SWAP5 PUSH2 0x28A6 PUSH1 0x0 SWAP1 JUMP JUMPDEST POP PUSH2 0x28D6 PUSH1 0x0 PUSH2 0x28BF PUSH2 0x28B8 DUP3 PUSH2 0x11DB JUMP JUMPDEST DUP5 GT PUSH2 0x281B JUMP JUMPDEST PUSH2 0x28C8 DUP2 PUSH2 0x11DB JUMP JUMPDEST DUP10 GT SWAP1 DUP2 PUSH2 0x2905 JUMPI POP PUSH2 0x271C JUMP JUMPDEST PUSH2 0x28E1 PUSH2 0x3E5 PUSH2 0x11DB JUMP JUMPDEST SWAP1 PUSH2 0x278E JUMP JUMPDEST SWAP3 DUP4 PUSH2 0x278E JUMP JUMPDEST SWAP4 PUSH2 0x28E1 PUSH2 0x3E8 PUSH2 0x11DB JUMP JUMPDEST PUSH2 0x2021 JUMP JUMPDEST SWAP1 PUSH2 0x27B7 JUMP JUMPDEST PUSH2 0x290F SWAP2 POP PUSH2 0x11DB JUMP JUMPDEST DUP7 PUSH2 0x2814 JUMP JUMPDEST ISZERO PUSH2 0x291C JUMPI JUMP JUMPDEST PUSH1 0x40 MLOAD PUSH3 0x461BCD PUSH1 0xE5 SHL DUP2 MSTORE PUSH1 0x20 PUSH1 0x4 DUP3 ADD MSTORE PUSH1 0x2D PUSH1 0x24 DUP3 ADD MSTORE PUSH32 0x4879706572496E6465784C6962726172793A20494E53554646494349454E545F PUSH1 0x44 DUP3 ADD MSTORE PUSH32 0x4F55545055545F414D4F554E5400000000000000000000000000000000000000 PUSH1 0x64 DUP3 ADD MSTORE PUSH1 0x84 SWAP1 REVERT JUMPDEST SWAP2 PUSH2 0x28FF PUSH2 0x28D6 DUP5 PUSH2 0x29E0 PUSH2 0x29D5 PUSH2 0x185 SWAP8 PUSH2 0x29E6 SWAP8 PUSH2 0x29A5 PUSH1 0x0 SWAP1 JUMP JUMPDEST POP PUSH2 0x27FE PUSH1 0x0 PUSH2 0x29BE PUSH2 0x29B7 DUP3 PUSH2 0x11DB JUMP JUMPDEST DUP6 GT PUSH2 0x2915 JUMP JUMPDEST PUSH2 0x29C7 DUP2 PUSH2 0x11DB JUMP JUMPDEST DUP4 GT SWAP1 DUP2 PUSH2 0x29F0 JUMPI POP PUSH2 0x271C JUMP JUMPDEST PUSH2 0x28E1 PUSH2 0x3E8 PUSH2 0x11DB JUMP JUMPDEST SWAP4 PUSH2 0xB1C JUMP JUMPDEST PUSH2 0x2221 PUSH1 0x1 PUSH2 0x11DB JUMP JUMPDEST PUSH2 0x29FA SWAP2 POP PUSH2 0x11DB JUMP JUMPDEST DUP10 PUSH2 0x2814 JUMP JUMPDEST ISZERO PUSH2 0x2A07 JUMPI JUMP JUMPDEST PUSH1 0x40 MLOAD PUSH3 0x461BCD PUSH1 0xE5 SHL DUP2 MSTORE PUSH1 0x20 PUSH1 0x4 DUP3 ADD MSTORE PUSH1 0x1F PUSH1 0x24 DUP3 ADD MSTORE PUSH32 0x4879706572496E6465784C6962726172793A20494E56414C49445F5041544800 PUSH1 0x44 DUP3 ADD MSTORE PUSH1 0x64 SWAP1 REVERT JUMPDEST SWAP1 PUSH2 0x2058 PUSH2 0x118E DUP4 PUSH2 0x1166 JUMP JUMPDEST SWAP1 PUSH2 0x153 PUSH2 0x2078 PUSH2 0x2A69 DUP5 PUSH2 0x2A4C JUMP JUMPDEST SWAP4 PUSH2 0x1166 JUMP JUMPDEST SWAP1 SWAP2 SWAP1 PUSH2 0x2A91 PUSH2 0x2A7D DUP4 MLOAD SWAP1 JUMP JUMPDEST PUSH2 0x2A8A PUSH2 0xF67 PUSH1 0x2 PUSH2 0x11DB JUMP JUMPDEST LT ISZERO PUSH2 0x2A00 JUMP JUMPDEST PUSH2 0x2AA1 PUSH2 0x2A9C DUP4 MLOAD SWAP1 JUMP JUMPDEST PUSH2 0x2A59 JUMP JUMPDEST SWAP2 DUP3 SWAP4 PUSH2 0x2AB9 PUSH1 0x0 SWAP2 PUSH2 0x2AB6 PUSH2 0x2170 DUP5 PUSH2 0x11DB JUMP JUMPDEST MSTORE JUMP JUMPDEST POP PUSH1 0x0 JUMPDEST DUP2 MLOAD PUSH2 0x2AD1 PUSH2 0x185 PUSH1 0x1 SWAP3 PUSH2 0x1310 DUP5 PUSH2 0x11DB JUMP JUMPDEST DUP3 LT ISZERO PUSH2 0x2B43 JUMPI SWAP1 PUSH2 0x2B39 DUP3 PUSH2 0x2AB6 PUSH2 0x2B33 PUSH2 0x216A PUSH2 0x137D DUP7 DUP12 PUSH2 0x2B2E PUSH2 0x131C PUSH2 0x2B26 DUP15 PUSH2 0x2B3E SWAP14 DUP16 PUSH2 0x214B DUP2 PUSH2 0x1A27 PUSH2 0x2B1A PUSH2 0x2B14 PUSH2 0x214B DUP14 PUSH2 0x2B20 SWAP8 PUSH2 0x11FE JUMP JUMPDEST SWAP6 PUSH2 0x11DB JUMP JUMPDEST DUP12 PUSH2 0x2021 JUMP JUMPDEST SWAP2 PUSH2 0x25E5 JUMP JUMPDEST SWAP5 SWAP1 SWAP4 PUSH2 0x11FE JUMP JUMPDEST PUSH2 0x288D JUMP JUMPDEST DUP9 PUSH2 0x11FE JUMP JUMPDEST PUSH2 0x2012 JUMP JUMPDEST PUSH2 0x2ABD JUMP JUMPDEST POP POP POP POP POP SWAP1 JUMP JUMPDEST DUP1 ISZERO PUSH2 0xB32 JUMPI PUSH1 0x0 NOT ADD SWAP1 JUMP JUMPDEST SWAP2 SWAP3 SWAP2 PUSH2 0x19AD SWAP2 SWAP1 PUSH2 0x2B6B PUSH2 0x2A7D DUP7 MLOAD SWAP1 JUMP JUMPDEST PUSH2 0x2B76 PUSH2 0x2A9C DUP7 MLOAD SWAP1 JUMP JUMPDEST SWAP1 DUP2 SWAP6 PUSH2 0x2B96 PUSH2 0x2B84 DUP5 MLOAD SWAP1 JUMP JUMPDEST SWAP5 PUSH2 0x2AB6 PUSH1 0x1 SWAP8 DUP9 SWAP8 PUSH2 0x1310 DUP10 PUSH2 0x11DB JUMP JUMPDEST PUSH2 0x2BA1 PUSH2 0x19A4 DUP3 MLOAD SWAP1 JUMP JUMPDEST SWAP4 JUMPDEST PUSH2 0x2BAF JUMPI JUMPDEST POP POP POP POP POP JUMP JUMPDEST PUSH2 0x2BB9 PUSH1 0x0 PUSH2 0x11DB JUMP JUMPDEST DUP5 GT ISZERO PUSH2 0x2C2D JUMPI PUSH2 0x2C27 DUP6 SWAP5 PUSH2 0x2C22 PUSH2 0x2C0D PUSH2 0x2BFA PUSH2 0x2BE6 PUSH2 0x214B PUSH2 0x2B33 PUSH2 0x2BE0 DUP13 PUSH2 0x11DB JUMP JUMPDEST DUP8 PUSH2 0xB1C JUMP JUMPDEST PUSH2 0x2BF3 PUSH2 0x214B DUP7 DUP10 PUSH2 0x11FE JUMP JUMPDEST SWAP1 DUP9 PUSH2 0x25E5 JUMP JUMPDEST SWAP1 PUSH2 0x2C08 PUSH2 0x131C DUP7 DUP12 PUSH2 0x11FE JUMP JUMPDEST PUSH2 0x2987 JUMP JUMPDEST PUSH2 0x2AB6 PUSH2 0x2B33 PUSH2 0x2C1C DUP11 PUSH2 0x11DB JUMP JUMPDEST DUP6 PUSH2 0xB1C JUMP JUMPDEST PUSH2 0x2B4B JUMP JUMPDEST SWAP4 PUSH2 0x2BA3 JUMP JUMPDEST PUSH2 0x2BA8 JUMP INVALID LOG2 PUSH5 0x6970667358 0x22 SLT KECCAK256 0x49 PUSH21 0x71F2A9F6C95624FABC9BD4B1F9C95630467CA6C37E SSTORE DUP15 ADDMOD 0xE3 ISZERO 0xBE ISZERO CALLCODE 0x2F PUSH5 0x736F6C6343 STOP ADDMOD EQ STOP CALLER "},"methodIdentifiers":{"WHYPE()":"59f613a4","addLiquidity(address,address,uint256,uint256,uint256,uint256,address,uint256)":"e8e33700","addLiquidityHYPE(address,uint256,uint256,uint256,address,uint256)":"94445f74","factory()":"c45a0155","getAmountIn(uint256,uint256,uint256)":"85f8c259","getAmountOut(uint256,uint256,uint256)":"054d50d4","getAmountsIn(uint256,address[])":"1f00ca74","getAmountsOut(uint256,address[])":"d06ca61f","quote(uint256,uint256,uint256)":"ad615dec","removeLiquidity(address,address,uint256,uint256,uint256,address,uint256)":"baa2abde","removeLiquidityHYPE(address,uint256,uint256,uint256,address,uint256)":"82f71ad4","swapExactHYPEForTokens(uint256,address[],address,uint256)":"14fe1253","swapExactTokensForHYPE(uint256,uint256,address[],address,uint256)":"108bdd55","swapExactTokensForTokens(uint256,uint256,address[],address,uint256)":"38ed1739","swapHYPEForExactTokens(uint256,address[],address,uint256)":"89b26328","swapTokensForExactHYPE(uint256,uint256,address[],address,uint256)":"b223ed1d","swapTokensForExactTokens(uint256,uint256,address[],address,uint256)":"8803dbee"}}}}}