{"contracts/HyperIndexSettlement.sol":{"HyperIndexSettlement":{"abi":[{"inputs":[{"internalType":"address","name":"_feeRecipient","type":"address"}],"stateMutability":"nonpayable","type":"constructor"},{"inputs":[],"name":"EnforcedPause","type":"error"},{"inputs":[],"name":"ExpectedPause","type":"error"},{"inputs":[{"internalType":"address","name":"owner","type":"address"}],"name":"OwnableInvalidOwner","type":"error"},{"inputs":[{"internalType":"address","name":"account","type":"address"}],"name":"OwnableUnauthorizedAccount","type":"error"},{"inputs":[],"name":"ReentrancyGuardReentrantCall","type":"error"},{"anonymous":false,"inputs":[{"indexed":true,"internalType":"address","name":"newRecipient","type":"address"}],"name":"FeeRecipientUpdated","type":"event"},{"anonymous":false,"inputs":[{"indexed":false,"internalType":"uint256","name":"newFeeRate","type":"uint256"}],"name":"FeeUpdated","type":"event"},{"anonymous":false,"inputs":[{"indexed":true,"internalType":"address","name":"operator","type":"address"}],"name":"OperatorAdded","type":"event"},{"anonymous":false,"inputs":[{"indexed":true,"internalType":"address","name":"operator","type":"address"}],"name":"OperatorRemoved","type":"event"},{"anonymous":false,"inputs":[{"indexed":true,"internalType":"address","name":"previousOwner","type":"address"},{"indexed":true,"internalType":"address","name":"newOwner","type":"address"}],"name":"OwnershipTransferred","type":"event"},{"anonymous":false,"inputs":[{"indexed":false,"internalType":"address","name":"account","type":"address"}],"name":"Paused","type":"event"},{"anonymous":false,"inputs":[{"indexed":true,"internalType":"address","name":"token","type":"address"}],"name":"TokenAdded","type":"event"},{"anonymous":false,"inputs":[{"indexed":true,"internalType":"address","name":"token","type":"address"}],"name":"TokenRemoved","type":"event"},{"anonymous":false,"inputs":[{"indexed":true,"internalType":"bytes32","name":"tradeId","type":"bytes32"},{"indexed":true,"internalType":"address","name":"buyer","type":"address"},{"indexed":true,"internalType":"address","name":"seller","type":"address"},{"indexed":false,"internalType":"address","name":"tokenBuy","type":"address"},{"indexed":false,"internalType":"address","name":"tokenSell","type":"address"},{"indexed":false,"internalType":"uint256","name":"amountBuy","type":"uint256"},{"indexed":false,"internalType":"uint256","name":"amountSell","type":"uint256"},{"indexed":false,"internalType":"uint256","name":"buyerFee","type":"uint256"},{"indexed":false,"internalType":"uint256","name":"sellerFee","type":"uint256"},{"indexed":false,"internalType":"uint256","name":"timestamp","type":"uint256"}],"name":"TradeSettled","type":"event"},{"anonymous":false,"inputs":[{"indexed":false,"internalType":"address","name":"account","type":"address"}],"name":"Unpaused","type":"event"},{"inputs":[],"name":"MAX_FEE_RATE","outputs":[{"internalType":"uint256","name":"","type":"uint256"}],"stateMutability":"view","type":"function"},{"inputs":[{"internalType":"address","name":"operator","type":"address"}],"name":"addOperator","outputs":[],"stateMutability":"nonpayable","type":"function"},{"inputs":[{"internalType":"address","name":"token","type":"address"}],"name":"addToken","outputs":[],"stateMutability":"nonpayable","type":"function"},{"inputs":[{"internalType":"bytes[]","name":"trades","type":"bytes[]"}],"name":"batchSettleTrades","outputs":[],"stateMutability":"nonpayable","type":"function"},{"inputs":[{"internalType":"uint256","name":"amount","type":"uint256"}],"name":"calculateFee","outputs":[{"internalType":"uint256","name":"","type":"uint256"}],"stateMutability":"view","type":"function"},{"inputs":[],"name":"feeRate","outputs":[{"internalType":"uint256","name":"","type":"uint256"}],"stateMutability":"view","type":"function"},{"inputs":[],"name":"feeRecipient","outputs":[{"internalType":"address","name":"","type":"address"}],"stateMutability":"view","type":"function"},{"inputs":[{"internalType":"address","name":"user","type":"address"}],"name":"getUserNonce","outputs":[{"internalType":"uint256","name":"","type":"uint256"}],"stateMutability":"view","type":"function"},{"inputs":[],"name":"owner","outputs":[{"internalType":"address","name":"","type":"address"}],"stateMutability":"view","type":"function"},{"inputs":[],"name":"pause","outputs":[],"stateMutability":"nonpayable","type":"function"},{"inputs":[],"name":"paused","outputs":[{"internalType":"bool","name":"","type":"bool"}],"stateMutability":"view","type":"function"},{"inputs":[{"internalType":"address","name":"operator","type":"address"}],"name":"removeOperator","outputs":[],"stateMutability":"nonpayable","type":"function"},{"inputs":[{"internalType":"address","name":"token","type":"address"}],"name":"removeToken","outputs":[],"stateMutability":"nonpayable","type":"function"},{"inputs":[],"name":"renounceOwnership","outputs":[],"stateMutability":"nonpayable","type":"function"},{"inputs":[{"internalType":"uint256","name":"newFeeRate","type":"uint256"}],"name":"setFeeRate","outputs":[],"stateMutability":"nonpayable","type":"function"},{"inputs":[{"internalType":"address","name":"newRecipient","type":"address"}],"name":"setFeeRecipient","outputs":[],"stateMutability":"nonpayable","type":"function"},{"inputs":[{"internalType":"address","name":"","type":"address"}],"name":"settlementOperators","outputs":[{"internalType":"bool","name":"","type":"bool"}],"stateMutability":"view","type":"function"},{"inputs":[{"internalType":"address","name":"","type":"address"}],"name":"supportedTokens","outputs":[{"internalType":"bool","name":"","type":"bool"}],"stateMutability":"view","type":"function"},{"inputs":[{"internalType":"address","name":"newOwner","type":"address"}],"name":"transferOwnership","outputs":[],"stateMutability":"nonpayable","type":"function"},{"inputs":[],"name":"unpause","outputs":[],"stateMutability":"nonpayable","type":"function"},{"inputs":[{"internalType":"address","name":"","type":"address"}],"name":"userNonces","outputs":[{"internalType":"uint256","name":"","type":"uint256"}],"stateMutability":"view","type":"function"}],"evm":{"bytecode":{"linkReferences":{},"object":"60806040523462000030576200001e62000018620000d3565b62000239565b604051610f92620003b78239610f9290f35b600080fd5b634e487b7160e01b600052604160045260246000fd5b90601f01601f191681019081106001600160401b038211176200006d57604052565b62000035565b906200008a6200008260405190565b92836200004b565b565b6001600160a01b031690565b90565b6001600160a01b038116036200003057565b905051906200008a826200009b565b9060208282031262000030576200009891620000ad565b620000986200134980380380620000ea8162000073565b928339810190620000bc565b90600019905b9181191691161790565b6200009862000098620000989290565b906200012a62000098620001329262000106565b8254620000f6565b9055565b6200008c62000098620000989290565b620000989062000136565b156200015957565b60405162461bcd60e51b815260206004820152601560248201527f496e76616c69642066656520726563697069656e7400000000000000000000006044820152606490fd5b0390fd5b906001600160a01b0390620000fc565b62000098906200008c906001600160a01b031682565b6200009890620001b2565b6200009890620001c8565b90620001f2620000986200013292620001d3565b8254620001a2565b906200020690620001d3565b600052602052604060002090565b9060ff90620000fc565b9062000231620000986200013292151590565b825462000214565b6200008a906200028b33916200024f83620002a0565b6200025d601e600662000116565b62000283620002716200008c600062000146565b6001600160a01b038316141562000151565b6005620001de565b6200029a6001916003620001fa565b6200021e565b6200008a90620002b7565b62000098600162000106565b620002c290620002d8565b6200008a620002d0620002ab565b600162000116565b620002e4600062000146565b6001600160a01b0381166001600160a01b038316146200030a57506200008a9062000354565b6200019e906200031960405190565b631e4fbdf760e01b8152918291600483016001600160a01b03909116815260200190565b62000098906200008c565b6200009890546200033d565b62000360600062000348565b906200036e816000620001de565b620003a56200039e7f8be0079c531659141344cd1fd0a4f28419497f9722a3daafe3b4186f6b6457e093620001d3565b91620001d3565b91620003b060405190565b600090a356fe6080604052600436101561001257600080fd5b60003560e01c80632f7801f4146101625780633f4ba83a1461015d57806345596e2e1461015857806346904840146101535780635c975abb1461014e5780635fa7b584146101495780636834e3a81461014457806368c4ac261461013f578063715018a61461013a5780638456cb5914610135578063899a43fc146101305780638da5cb5b1461012b57806392f6576e14610126578063978bbdb9146101215780639870d7fe1461011c57806399a5d74714610117578063ac8a584a14610112578063d2925d6e1461010d578063d48bfca714610108578063e74b981b146101035763f2fde38b0361016757610582565b61056a565b610552565b610539565b6104c7565b6104ac565b610494565b610479565b610452565b610417565b6103fc565b6103d2565b6103ba565b61039f565b610353565b61033b565b61030e565b6102d8565b61029c565b610258565b61021d565b600080fd5b6001600160a01b031690565b90565b6001600160a01b0381165b0361016757565b9050359061019a8261017b565b565b90602082820312610167576101789161018d565b61016c610178610178926001600160a01b031690565b610178906101b0565b610178906101c6565b906101e2906101cf565b600052602052604060002090565b610178916008021c81565b9061017891546101f0565b610178906102186004916000926101d8565b6101fb565b346101675761024961023861023336600461019c565b610206565b6040515b9182918290815260200190565b0390f35b600091031261016757565b346101675761026836600461024d565b610270610e26565b604051005b80610186565b9050359061019a82610275565b90602082820312610167576101789161027b565b34610167576102706102af366004610288565b610ce5565b610178916008021c61016c565b9061017891546102b4565b610178600060056102c1565b34610167576102e836600461024d565b6102496102f36102cc565b6040515b918291826001600160a01b03909116815260200190565b346101675761031e36600461024d565b61024961032961078a565b60405191829182901515815260200190565b346101675761027061034e36600461019c565b610c2b565b346101675761024961023861036936600461019c565b610ebc565b610178916008021c5b60ff1690565b90610178915461036e565b6101789061039a6007916000926101d8565b61037d565b34610167576102496103296103b536600461019c565b610388565b34610167576103ca36600461024d565b6102706105ef565b34610167576103e236600461024d565b610270610dbd565b6101789061039a6003916000926101d8565b346101675761024961032961041236600461019c565b6103ea565b346101675761042736600461024d565b6102496102f36105ad565b6101786101786101789290565b6101786103e8610432565b61017861043f565b346101675761046236600461024d565b61024961023861044a565b610178600060066101fb565b346101675761048936600461024d565b61024961023861046d565b34610167576102706104a736600461019c565b610acc565b34610167576102496102386104c2366004610288565b610f2b565b34610167576102706104da36600461019c565b610b1b565b909182601f830112156101675781359167ffffffffffffffff831161016757602001926020830284011161016757565b9060208282031261016757813567ffffffffffffffff81116101675761053592016104df565b9091565b346101675761027061054c36600461050f565b906108f5565b346101675761027061056536600461019c565b610bdc565b346101675761027061057d36600461019c565b610da1565b346101675761027061059536600461019c565b6106e5565b6101789061016c565b610178905461059a565b61017860006105a3565b6105bf6105f7565b61019a6105dd565b61016c6101786101789290565b610178906105c7565b61019a6105ea60006105d4565b61071e565b61019a6105b7565b6105ff6105ad565b339081906001600160a01b0316036106145750565b61065e9061062160405190565b9182917f118cdaa7000000000000000000000000000000000000000000000000000000008352600483016001600160a01b03909116815260200190565b0390fd5b61019a9061066e6105f7565b61067860006105d4565b6001600160a01b0381166001600160a01b0383161461069b575061019a9061071e565b61065e906106a860405190565b9182917f1e4fbdf7000000000000000000000000000000000000000000000000000000008352600483016001600160a01b03909116815260200190565b61019a90610662565b906001600160a01b03905b9181191691161790565b9061071361017861071a926101cf565b82546106ee565b9055565b61072860006105a3565b90610734816000610703565b6107676107617f8be0079c531659141344cd1fd0a4f28419497f9722a3daafe3b4186f6b6457e0936101cf565b916101cf565b9161077160405190565b600090a3565b61017890610377565b6101789054610777565b6101786002610780565b1561079b57565b60405162461bcd60e51b815260206004820152600f60248201527f4e6f7420616e206f70657261746f7200000000000000000000000000000000006044820152606490fd5b61019a91906108006107fb6107f63360036101d8565b610780565b610794565b906108129161080d610974565b61081a565b61019a6109cd565b9061019a916108276108ff565b6108c4565b1561083357565b60405162461bcd60e51b815260206004820152601260248201527f4e6f207472616465732070726f766964656400000000000000000000000000006044820152606490fd5b1561087f57565b60405162461bcd60e51b815260206004820152600f60248201527f546f6f206d616e792074726164657300000000000000000000000000000000006044820152606490fd5b5061019a906108dd6108d66000610432565b821161082c565b6108ee6108ea6064610432565b9190565b1115610878565b9061019a916107e0565b61090761078a565b61090d57565b6040517fd93c0665000000000000000000000000000000000000000000000000000000008152600490fd5b6101789081565b6101789054610938565b6101786002610432565b90600019906106f9565b9061096d61017861071a92610432565b8254610953565b61097e600161093f565b610986610949565b9081146109985761019a90600161095d565b6040517f3ee5aeb5000000000000000000000000000000000000000000000000000000008152600490fd5b6101786001610432565b61019a6109d86109c3565b600161095d565b61019a906109eb6105f7565b610a5c565b156109f757565b60405162461bcd60e51b815260206004820152601060248201527f496e76616c6964206f70657261746f72000000000000000000000000000000006044820152606490fd5b9060ff906106f9565b90610a5561017861071a92151590565b8254610a3c565b610a7d610a6c61016c60006105d4565b6001600160a01b03831614156109f0565b610a926001610a8d8360036101d8565b610a45565b610abc7fac6fa858e9350a46cec16539926e0fde25b7629f84b5a72bffaae4df888ae86d916101cf565b90610ac660405190565b600090a2565b61019a906109df565b61019a90610ae16105f7565b610af16000610a8d8360036101d8565b610abc7f80c0b871b97b595b16a7741c1b06fed0c6f6f558639f18ccbce50724325dc40d916101cf565b61019a90610ad5565b61019a90610b306105f7565b610b81565b15610b3c57565b60405162461bcd60e51b815260206004820152600d60248201527f496e76616c696420746f6b656e000000000000000000000000000000000000006044820152606490fd5b610ba2610b9161016c60006105d4565b6001600160a01b0383161415610b35565b610bb26001610a8d8360076101d8565b610abc7f784c8f4dbf0ffedd6e72c76501c545a70f8b203b30a26ce542bf92ba87c248a4916101cf565b61019a90610b24565b61019a90610bf16105f7565b610c016000610a8d8360076101d8565b610abc7f4c910b69fe65a61f7531b9c5042b2329ca7179c77290aa7e2eb3afa3c8511fd3916101cf565b61019a90610be5565b61019a90610c406105f7565b610c91565b15610c4c57565b60405162461bcd60e51b815260206004820152600c60248201527f46656520746f6f206869676800000000000000000000000000000000000000006044820152606490fd5b610ca7610c9f61017861043f565b821115610c45565b610cb281600661095d565b610ce07f8c4d35e54a3f2ef1134138fd8ea3daee6a3c89e10d2665996babdf70261e2c769161023c60405190565b0390a1565b61019a90610c34565b61019a90610cfa6105f7565b610d4b565b15610d0657565b60405162461bcd60e51b815260206004820152601160248201527f496e76616c696420726563697069656e740000000000000000000000000000006044820152606490fd5b610d6c610d5b61016c60006105d4565b6001600160a01b0383161415610cff565b610d77816005610703565b610abc7f7a7b5a0a132f9e0581eb8527f66eae9ee89c2a3e79d4ac7e41a1f1f4d48a7fc2916101cf565b61019a90610cee565b610db26105f7565b61019a61019a610e0b565b61019a610daa565b610dcd6108ff565b61019a610ddc60016002610a45565b33610ce07f62e78cea01bee320cd4e420270b5ea74000d11b0c9f74754ebdbfc544b05a258916102f760405190565b61019a610dc5565b610e1b6105f7565b61019a61019a610e74565b61019a610e13565b610e36610e7c565b61019a610e4560006002610a45565b33610ce07f5db9ee0a495bf2e6ff9c91a7834c1ba4fdd244a5e8aa4e537bd38aeae4b073aa916102f760405190565b61019a610e2e565b610e8b610e8761078a565b1590565b610e9157565b6040517f8dfc202b000000000000000000000000000000000000000000000000000000008152600490fd5b610ed361017891610ecb600090565b5060046101d8565b61093f565b634e487b7160e01b600052601160045260246000fd5b81810292918115918404141715610f0157565b610ed8565b634e487b7160e01b600052601260045260246000fd5b8115610f26570490565b610f06565b610f4b61017891610f3a600090565b50610f45600661093f565b90610eee565b610f56612710610432565b90610f1c56fea26469706673582212203d61a1b20032d8674d08b24b2acc9035655d89ea0bb8a8c49a8c3eb2f461c96864736f6c63430008140033","opcodes":"PUSH1 0x80 PUSH1 0x40 MSTORE CALLVALUE PUSH3 0x30 JUMPI PUSH3 0x1E PUSH3 0x18 PUSH3 0xD3 JUMP JUMPDEST PUSH3 0x239 JUMP JUMPDEST PUSH1 0x40 MLOAD PUSH2 0xF92 PUSH3 0x3B7 DUP3 CODECOPY PUSH2 0xF92 SWAP1 RETURN JUMPDEST PUSH1 0x0 DUP1 REVERT JUMPDEST PUSH4 0x4E487B71 PUSH1 0xE0 SHL PUSH1 0x0 MSTORE PUSH1 0x41 PUSH1 0x4 MSTORE PUSH1 0x24 PUSH1 0x0 REVERT JUMPDEST SWAP1 PUSH1 0x1F ADD PUSH1 0x1F NOT AND DUP2 ADD SWAP1 DUP2 LT PUSH1 0x1 PUSH1 0x1 PUSH1 0x40 SHL SUB DUP3 GT OR PUSH3 0x6D JUMPI PUSH1 0x40 MSTORE JUMP JUMPDEST PUSH3 0x35 JUMP JUMPDEST SWAP1 PUSH3 0x8A PUSH3 0x82 PUSH1 0x40 MLOAD SWAP1 JUMP JUMPDEST SWAP3 DUP4 PUSH3 0x4B JUMP JUMPDEST JUMP JUMPDEST PUSH1 0x1 PUSH1 0x1 PUSH1 0xA0 SHL SUB AND SWAP1 JUMP JUMPDEST SWAP1 JUMP JUMPDEST PUSH1 0x1 PUSH1 0x1 PUSH1 0xA0 SHL SUB DUP2 AND SUB PUSH3 0x30 JUMPI JUMP JUMPDEST SWAP1 POP MLOAD SWAP1 PUSH3 0x8A DUP3 PUSH3 0x9B JUMP JUMPDEST SWAP1 PUSH1 0x20 DUP3 DUP3 SUB SLT PUSH3 0x30 JUMPI PUSH3 0x98 SWAP2 PUSH3 0xAD JUMP JUMPDEST PUSH3 0x98 PUSH3 0x1349 DUP1 CODESIZE SUB DUP1 PUSH3 0xEA DUP2 PUSH3 0x73 JUMP JUMPDEST SWAP3 DUP4 CODECOPY DUP2 ADD SWAP1 PUSH3 0xBC JUMP JUMPDEST SWAP1 PUSH1 0x0 NOT SWAP1 JUMPDEST SWAP2 DUP2 NOT AND SWAP2 AND OR SWAP1 JUMP JUMPDEST PUSH3 0x98 PUSH3 0x98 PUSH3 0x98 SWAP3 SWAP1 JUMP JUMPDEST SWAP1 PUSH3 0x12A PUSH3 0x98 PUSH3 0x132 SWAP3 PUSH3 0x106 JUMP JUMPDEST DUP3 SLOAD PUSH3 0xF6 JUMP JUMPDEST SWAP1 SSTORE JUMP JUMPDEST PUSH3 0x8C PUSH3 0x98 PUSH3 0x98 SWAP3 SWAP1 JUMP JUMPDEST PUSH3 0x98 SWAP1 PUSH3 0x136 JUMP JUMPDEST ISZERO PUSH3 0x159 JUMPI JUMP JUMPDEST PUSH1 0x40 MLOAD PUSH3 0x461BCD PUSH1 0xE5 SHL DUP2 MSTORE PUSH1 0x20 PUSH1 0x4 DUP3 ADD MSTORE PUSH1 0x15 PUSH1 0x24 DUP3 ADD MSTORE PUSH32 0x496E76616C69642066656520726563697069656E740000000000000000000000 PUSH1 0x44 DUP3 ADD MSTORE PUSH1 0x64 SWAP1 REVERT JUMPDEST SUB SWAP1 REVERT JUMPDEST SWAP1 PUSH1 0x1 PUSH1 0x1 PUSH1 0xA0 SHL SUB SWAP1 PUSH3 0xFC JUMP JUMPDEST PUSH3 0x98 SWAP1 PUSH3 0x8C SWAP1 PUSH1 0x1 PUSH1 0x1 PUSH1 0xA0 SHL SUB AND DUP3 JUMP JUMPDEST PUSH3 0x98 SWAP1 PUSH3 0x1B2 JUMP JUMPDEST PUSH3 0x98 SWAP1 PUSH3 0x1C8 JUMP JUMPDEST SWAP1 PUSH3 0x1F2 PUSH3 0x98 PUSH3 0x132 SWAP3 PUSH3 0x1D3 JUMP JUMPDEST DUP3 SLOAD PUSH3 0x1A2 JUMP JUMPDEST SWAP1 PUSH3 0x206 SWAP1 PUSH3 0x1D3 JUMP JUMPDEST PUSH1 0x0 MSTORE PUSH1 0x20 MSTORE PUSH1 0x40 PUSH1 0x0 KECCAK256 SWAP1 JUMP JUMPDEST SWAP1 PUSH1 0xFF SWAP1 PUSH3 0xFC JUMP JUMPDEST SWAP1 PUSH3 0x231 PUSH3 0x98 PUSH3 0x132 SWAP3 ISZERO ISZERO SWAP1 JUMP JUMPDEST DUP3 SLOAD PUSH3 0x214 JUMP JUMPDEST PUSH3 0x8A SWAP1 PUSH3 0x28B CALLER SWAP2 PUSH3 0x24F DUP4 PUSH3 0x2A0 JUMP JUMPDEST PUSH3 0x25D PUSH1 0x1E PUSH1 0x6 PUSH3 0x116 JUMP JUMPDEST PUSH3 0x283 PUSH3 0x271 PUSH3 0x8C PUSH1 0x0 PUSH3 0x146 JUMP JUMPDEST PUSH1 0x1 PUSH1 0x1 PUSH1 0xA0 SHL SUB DUP4 AND EQ ISZERO PUSH3 0x151 JUMP JUMPDEST PUSH1 0x5 PUSH3 0x1DE JUMP JUMPDEST PUSH3 0x29A PUSH1 0x1 SWAP2 PUSH1 0x3 PUSH3 0x1FA JUMP JUMPDEST PUSH3 0x21E JUMP JUMPDEST PUSH3 0x8A SWAP1 PUSH3 0x2B7 JUMP JUMPDEST PUSH3 0x98 PUSH1 0x1 PUSH3 0x106 JUMP JUMPDEST PUSH3 0x2C2 SWAP1 PUSH3 0x2D8 JUMP JUMPDEST PUSH3 0x8A PUSH3 0x2D0 PUSH3 0x2AB JUMP JUMPDEST PUSH1 0x1 PUSH3 0x116 JUMP JUMPDEST PUSH3 0x2E4 PUSH1 0x0 PUSH3 0x146 JUMP JUMPDEST PUSH1 0x1 PUSH1 0x1 PUSH1 0xA0 SHL SUB DUP2 AND PUSH1 0x1 PUSH1 0x1 PUSH1 0xA0 SHL SUB DUP4 AND EQ PUSH3 0x30A JUMPI POP PUSH3 0x8A SWAP1 PUSH3 0x354 JUMP JUMPDEST PUSH3 0x19E SWAP1 PUSH3 0x319 PUSH1 0x40 MLOAD SWAP1 JUMP JUMPDEST PUSH4 0x1E4FBDF7 PUSH1 0xE0 SHL DUP2 MSTORE SWAP2 DUP3 SWAP2 PUSH1 0x4 DUP4 ADD PUSH1 0x1 PUSH1 0x1 PUSH1 0xA0 SHL SUB SWAP1 SWAP2 AND DUP2 MSTORE PUSH1 0x20 ADD SWAP1 JUMP JUMPDEST PUSH3 0x98 SWAP1 PUSH3 0x8C JUMP JUMPDEST PUSH3 0x98 SWAP1 SLOAD PUSH3 0x33D JUMP JUMPDEST PUSH3 0x360 PUSH1 0x0 PUSH3 0x348 JUMP JUMPDEST SWAP1 PUSH3 0x36E DUP2 PUSH1 0x0 PUSH3 0x1DE JUMP JUMPDEST PUSH3 0x3A5 PUSH3 0x39E PUSH32 0x8BE0079C531659141344CD1FD0A4F28419497F9722A3DAAFE3B4186F6B6457E0 SWAP4 PUSH3 0x1D3 JUMP JUMPDEST SWAP2 PUSH3 0x1D3 JUMP JUMPDEST SWAP2 PUSH3 0x3B0 PUSH1 0x40 MLOAD SWAP1 JUMP JUMPDEST PUSH1 0x0 SWAP1 LOG3 JUMP INVALID PUSH1 0x80 PUSH1 0x40 MSTORE PUSH1 0x4 CALLDATASIZE LT ISZERO PUSH2 0x12 JUMPI PUSH1 0x0 DUP1 REVERT JUMPDEST PUSH1 0x0 CALLDATALOAD PUSH1 0xE0 SHR DUP1 PUSH4 0x2F7801F4 EQ PUSH2 0x162 JUMPI DUP1 PUSH4 0x3F4BA83A EQ PUSH2 0x15D JUMPI DUP1 PUSH4 0x45596E2E EQ PUSH2 0x158 JUMPI DUP1 PUSH4 0x46904840 EQ PUSH2 0x153 JUMPI DUP1 PUSH4 0x5C975ABB EQ PUSH2 0x14E JUMPI DUP1 PUSH4 0x5FA7B584 EQ PUSH2 0x149 JUMPI DUP1 PUSH4 0x6834E3A8 EQ PUSH2 0x144 JUMPI DUP1 PUSH4 0x68C4AC26 EQ PUSH2 0x13F JUMPI DUP1 PUSH4 0x715018A6 EQ PUSH2 0x13A JUMPI DUP1 PUSH4 0x8456CB59 EQ PUSH2 0x135 JUMPI DUP1 PUSH4 0x899A43FC EQ PUSH2 0x130 JUMPI DUP1 PUSH4 0x8DA5CB5B EQ PUSH2 0x12B JUMPI DUP1 PUSH4 0x92F6576E EQ PUSH2 0x126 JUMPI DUP1 PUSH4 0x978BBDB9 EQ PUSH2 0x121 JUMPI DUP1 PUSH4 0x9870D7FE EQ PUSH2 0x11C JUMPI DUP1 PUSH4 0x99A5D747 EQ PUSH2 0x117 JUMPI DUP1 PUSH4 0xAC8A584A EQ PUSH2 0x112 JUMPI DUP1 PUSH4 0xD2925D6E EQ PUSH2 0x10D JUMPI DUP1 PUSH4 0xD48BFCA7 EQ PUSH2 0x108 JUMPI DUP1 PUSH4 0xE74B981B EQ PUSH2 0x103 JUMPI PUSH4 0xF2FDE38B SUB PUSH2 0x167 JUMPI PUSH2 0x582 JUMP JUMPDEST PUSH2 0x56A JUMP JUMPDEST PUSH2 0x552 JUMP JUMPDEST PUSH2 0x539 JUMP JUMPDEST PUSH2 0x4C7 JUMP JUMPDEST PUSH2 0x4AC JUMP JUMPDEST PUSH2 0x494 JUMP JUMPDEST PUSH2 0x479 JUMP JUMPDEST PUSH2 0x452 JUMP JUMPDEST PUSH2 0x417 JUMP JUMPDEST PUSH2 0x3FC JUMP JUMPDEST PUSH2 0x3D2 JUMP JUMPDEST PUSH2 0x3BA JUMP JUMPDEST PUSH2 0x39F JUMP JUMPDEST PUSH2 0x353 JUMP JUMPDEST PUSH2 0x33B JUMP JUMPDEST PUSH2 0x30E JUMP JUMPDEST PUSH2 0x2D8 JUMP JUMPDEST PUSH2 0x29C JUMP JUMPDEST PUSH2 0x258 JUMP JUMPDEST PUSH2 0x21D JUMP JUMPDEST PUSH1 0x0 DUP1 REVERT JUMPDEST PUSH1 0x1 PUSH1 0x1 PUSH1 0xA0 SHL SUB AND SWAP1 JUMP JUMPDEST SWAP1 JUMP JUMPDEST PUSH1 0x1 PUSH1 0x1 PUSH1 0xA0 SHL SUB DUP2 AND JUMPDEST SUB PUSH2 0x167 JUMPI JUMP JUMPDEST SWAP1 POP CALLDATALOAD SWAP1 PUSH2 0x19A DUP3 PUSH2 0x17B JUMP JUMPDEST JUMP JUMPDEST SWAP1 PUSH1 0x20 DUP3 DUP3 SUB SLT PUSH2 0x167 JUMPI PUSH2 0x178 SWAP2 PUSH2 0x18D JUMP JUMPDEST PUSH2 0x16C PUSH2 0x178 PUSH2 0x178 SWAP3 PUSH1 0x1 PUSH1 0x1 PUSH1 0xA0 SHL SUB AND SWAP1 JUMP JUMPDEST PUSH2 0x178 SWAP1 PUSH2 0x1B0 JUMP JUMPDEST PUSH2 0x178 SWAP1 PUSH2 0x1C6 JUMP JUMPDEST SWAP1 PUSH2 0x1E2 SWAP1 PUSH2 0x1CF JUMP JUMPDEST PUSH1 0x0 MSTORE PUSH1 0x20 MSTORE PUSH1 0x40 PUSH1 0x0 KECCAK256 SWAP1 JUMP JUMPDEST PUSH2 0x178 SWAP2 PUSH1 0x8 MUL SHR DUP2 JUMP JUMPDEST SWAP1 PUSH2 0x178 SWAP2 SLOAD PUSH2 0x1F0 JUMP JUMPDEST PUSH2 0x178 SWAP1 PUSH2 0x218 PUSH1 0x4 SWAP2 PUSH1 0x0 SWAP3 PUSH2 0x1D8 JUMP JUMPDEST PUSH2 0x1FB JUMP JUMPDEST CALLVALUE PUSH2 0x167 JUMPI PUSH2 0x249 PUSH2 0x238 PUSH2 0x233 CALLDATASIZE PUSH1 0x4 PUSH2 0x19C JUMP JUMPDEST PUSH2 0x206 JUMP JUMPDEST PUSH1 0x40 MLOAD JUMPDEST SWAP2 DUP3 SWAP2 DUP3 SWAP1 DUP2 MSTORE PUSH1 0x20 ADD SWAP1 JUMP JUMPDEST SUB SWAP1 RETURN JUMPDEST PUSH1 0x0 SWAP2 SUB SLT PUSH2 0x167 JUMPI JUMP JUMPDEST CALLVALUE PUSH2 0x167 JUMPI PUSH2 0x268 CALLDATASIZE PUSH1 0x4 PUSH2 0x24D JUMP JUMPDEST PUSH2 0x270 PUSH2 0xE26 JUMP JUMPDEST PUSH1 0x40 MLOAD STOP JUMPDEST DUP1 PUSH2 0x186 JUMP JUMPDEST SWAP1 POP CALLDATALOAD SWAP1 PUSH2 0x19A DUP3 PUSH2 0x275 JUMP JUMPDEST SWAP1 PUSH1 0x20 DUP3 DUP3 SUB SLT PUSH2 0x167 JUMPI PUSH2 0x178 SWAP2 PUSH2 0x27B JUMP JUMPDEST CALLVALUE PUSH2 0x167 JUMPI PUSH2 0x270 PUSH2 0x2AF CALLDATASIZE PUSH1 0x4 PUSH2 0x288 JUMP JUMPDEST PUSH2 0xCE5 JUMP JUMPDEST PUSH2 0x178 SWAP2 PUSH1 0x8 MUL SHR PUSH2 0x16C JUMP JUMPDEST SWAP1 PUSH2 0x178 SWAP2 SLOAD PUSH2 0x2B4 JUMP JUMPDEST PUSH2 0x178 PUSH1 0x0 PUSH1 0x5 PUSH2 0x2C1 JUMP JUMPDEST CALLVALUE PUSH2 0x167 JUMPI PUSH2 0x2E8 CALLDATASIZE PUSH1 0x4 PUSH2 0x24D JUMP JUMPDEST PUSH2 0x249 PUSH2 0x2F3 PUSH2 0x2CC JUMP JUMPDEST PUSH1 0x40 MLOAD JUMPDEST SWAP2 DUP3 SWAP2 DUP3 PUSH1 0x1 PUSH1 0x1 PUSH1 0xA0 SHL SUB SWAP1 SWAP2 AND DUP2 MSTORE PUSH1 0x20 ADD SWAP1 JUMP JUMPDEST CALLVALUE PUSH2 0x167 JUMPI PUSH2 0x31E CALLDATASIZE PUSH1 0x4 PUSH2 0x24D JUMP JUMPDEST PUSH2 0x249 PUSH2 0x329 PUSH2 0x78A JUMP JUMPDEST PUSH1 0x40 MLOAD SWAP2 DUP3 SWAP2 DUP3 SWAP1 ISZERO ISZERO DUP2 MSTORE PUSH1 0x20 ADD SWAP1 JUMP JUMPDEST CALLVALUE PUSH2 0x167 JUMPI PUSH2 0x270 PUSH2 0x34E CALLDATASIZE PUSH1 0x4 PUSH2 0x19C JUMP JUMPDEST PUSH2 0xC2B JUMP JUMPDEST CALLVALUE PUSH2 0x167 JUMPI PUSH2 0x249 PUSH2 0x238 PUSH2 0x369 CALLDATASIZE PUSH1 0x4 PUSH2 0x19C JUMP JUMPDEST PUSH2 0xEBC JUMP JUMPDEST PUSH2 0x178 SWAP2 PUSH1 0x8 MUL SHR JUMPDEST PUSH1 0xFF AND SWAP1 JUMP JUMPDEST SWAP1 PUSH2 0x178 SWAP2 SLOAD PUSH2 0x36E JUMP JUMPDEST PUSH2 0x178 SWAP1 PUSH2 0x39A PUSH1 0x7 SWAP2 PUSH1 0x0 SWAP3 PUSH2 0x1D8 JUMP JUMPDEST PUSH2 0x37D JUMP JUMPDEST CALLVALUE PUSH2 0x167 JUMPI PUSH2 0x249 PUSH2 0x329 PUSH2 0x3B5 CALLDATASIZE PUSH1 0x4 PUSH2 0x19C JUMP JUMPDEST PUSH2 0x388 JUMP JUMPDEST CALLVALUE PUSH2 0x167 JUMPI PUSH2 0x3CA CALLDATASIZE PUSH1 0x4 PUSH2 0x24D JUMP JUMPDEST PUSH2 0x270 PUSH2 0x5EF JUMP JUMPDEST CALLVALUE PUSH2 0x167 JUMPI PUSH2 0x3E2 CALLDATASIZE PUSH1 0x4 PUSH2 0x24D JUMP JUMPDEST PUSH2 0x270 PUSH2 0xDBD JUMP JUMPDEST PUSH2 0x178 SWAP1 PUSH2 0x39A PUSH1 0x3 SWAP2 PUSH1 0x0 SWAP3 PUSH2 0x1D8 JUMP JUMPDEST CALLVALUE PUSH2 0x167 JUMPI PUSH2 0x249 PUSH2 0x329 PUSH2 0x412 CALLDATASIZE PUSH1 0x4 PUSH2 0x19C JUMP JUMPDEST PUSH2 0x3EA JUMP JUMPDEST CALLVALUE PUSH2 0x167 JUMPI PUSH2 0x427 CALLDATASIZE PUSH1 0x4 PUSH2 0x24D JUMP JUMPDEST PUSH2 0x249 PUSH2 0x2F3 PUSH2 0x5AD JUMP JUMPDEST PUSH2 0x178 PUSH2 0x178 PUSH2 0x178 SWAP3 SWAP1 JUMP JUMPDEST PUSH2 0x178 PUSH2 0x3E8 PUSH2 0x432 JUMP JUMPDEST PUSH2 0x178 PUSH2 0x43F JUMP JUMPDEST CALLVALUE PUSH2 0x167 JUMPI PUSH2 0x462 CALLDATASIZE PUSH1 0x4 PUSH2 0x24D JUMP JUMPDEST PUSH2 0x249 PUSH2 0x238 PUSH2 0x44A JUMP JUMPDEST PUSH2 0x178 PUSH1 0x0 PUSH1 0x6 PUSH2 0x1FB JUMP JUMPDEST CALLVALUE PUSH2 0x167 JUMPI PUSH2 0x489 CALLDATASIZE PUSH1 0x4 PUSH2 0x24D JUMP JUMPDEST PUSH2 0x249 PUSH2 0x238 PUSH2 0x46D JUMP JUMPDEST CALLVALUE PUSH2 0x167 JUMPI PUSH2 0x270 PUSH2 0x4A7 CALLDATASIZE PUSH1 0x4 PUSH2 0x19C JUMP JUMPDEST PUSH2 0xACC JUMP JUMPDEST CALLVALUE PUSH2 0x167 JUMPI PUSH2 0x249 PUSH2 0x238 PUSH2 0x4C2 CALLDATASIZE PUSH1 0x4 PUSH2 0x288 JUMP JUMPDEST PUSH2 0xF2B JUMP JUMPDEST CALLVALUE PUSH2 0x167 JUMPI PUSH2 0x270 PUSH2 0x4DA CALLDATASIZE PUSH1 0x4 PUSH2 0x19C JUMP JUMPDEST PUSH2 0xB1B JUMP JUMPDEST SWAP1 SWAP2 DUP3 PUSH1 0x1F DUP4 ADD SLT ISZERO PUSH2 0x167 JUMPI DUP2 CALLDATALOAD SWAP2 PUSH8 0xFFFFFFFFFFFFFFFF DUP4 GT PUSH2 0x167 JUMPI PUSH1 0x20 ADD SWAP3 PUSH1 0x20 DUP4 MUL DUP5 ADD GT PUSH2 0x167 JUMPI JUMP JUMPDEST SWAP1 PUSH1 0x20 DUP3 DUP3 SUB SLT PUSH2 0x167 JUMPI DUP2 CALLDATALOAD PUSH8 0xFFFFFFFFFFFFFFFF DUP2 GT PUSH2 0x167 JUMPI PUSH2 0x535 SWAP3 ADD PUSH2 0x4DF JUMP JUMPDEST SWAP1 SWAP2 JUMP JUMPDEST CALLVALUE PUSH2 0x167 JUMPI PUSH2 0x270 PUSH2 0x54C CALLDATASIZE PUSH1 0x4 PUSH2 0x50F JUMP JUMPDEST SWAP1 PUSH2 0x8F5 JUMP JUMPDEST CALLVALUE PUSH2 0x167 JUMPI PUSH2 0x270 PUSH2 0x565 CALLDATASIZE PUSH1 0x4 PUSH2 0x19C JUMP JUMPDEST PUSH2 0xBDC JUMP JUMPDEST CALLVALUE PUSH2 0x167 JUMPI PUSH2 0x270 PUSH2 0x57D CALLDATASIZE PUSH1 0x4 PUSH2 0x19C JUMP JUMPDEST PUSH2 0xDA1 JUMP JUMPDEST CALLVALUE PUSH2 0x167 JUMPI PUSH2 0x270 PUSH2 0x595 CALLDATASIZE PUSH1 0x4 PUSH2 0x19C JUMP JUMPDEST PUSH2 0x6E5 JUMP JUMPDEST PUSH2 0x178 SWAP1 PUSH2 0x16C JUMP JUMPDEST PUSH2 0x178 SWAP1 SLOAD PUSH2 0x59A JUMP JUMPDEST PUSH2 0x178 PUSH1 0x0 PUSH2 0x5A3 JUMP JUMPDEST PUSH2 0x5BF PUSH2 0x5F7 JUMP JUMPDEST PUSH2 0x19A PUSH2 0x5DD JUMP JUMPDEST PUSH2 0x16C PUSH2 0x178 PUSH2 0x178 SWAP3 SWAP1 JUMP JUMPDEST PUSH2 0x178 SWAP1 PUSH2 0x5C7 JUMP JUMPDEST PUSH2 0x19A PUSH2 0x5EA PUSH1 0x0 PUSH2 0x5D4 JUMP JUMPDEST PUSH2 0x71E JUMP JUMPDEST PUSH2 0x19A PUSH2 0x5B7 JUMP JUMPDEST PUSH2 0x5FF PUSH2 0x5AD JUMP JUMPDEST CALLER SWAP1 DUP2 SWAP1 PUSH1 0x1 PUSH1 0x1 PUSH1 0xA0 SHL SUB AND SUB PUSH2 0x614 JUMPI POP JUMP JUMPDEST PUSH2 0x65E SWAP1 PUSH2 0x621 PUSH1 0x40 MLOAD SWAP1 JUMP JUMPDEST SWAP2 DUP3 SWAP2 PUSH32 0x118CDAA700000000000000000000000000000000000000000000000000000000 DUP4 MSTORE PUSH1 0x4 DUP4 ADD PUSH1 0x1 PUSH1 0x1 PUSH1 0xA0 SHL SUB SWAP1 SWAP2 AND DUP2 MSTORE PUSH1 0x20 ADD SWAP1 JUMP JUMPDEST SUB SWAP1 REVERT JUMPDEST PUSH2 0x19A SWAP1 PUSH2 0x66E PUSH2 0x5F7 JUMP JUMPDEST PUSH2 0x678 PUSH1 0x0 PUSH2 0x5D4 JUMP JUMPDEST PUSH1 0x1 PUSH1 0x1 PUSH1 0xA0 SHL SUB DUP2 AND PUSH1 0x1 PUSH1 0x1 PUSH1 0xA0 SHL SUB DUP4 AND EQ PUSH2 0x69B JUMPI POP PUSH2 0x19A SWAP1 PUSH2 0x71E JUMP JUMPDEST PUSH2 0x65E SWAP1 PUSH2 0x6A8 PUSH1 0x40 MLOAD SWAP1 JUMP JUMPDEST SWAP2 DUP3 SWAP2 PUSH32 0x1E4FBDF700000000000000000000000000000000000000000000000000000000 DUP4 MSTORE PUSH1 0x4 DUP4 ADD PUSH1 0x1 PUSH1 0x1 PUSH1 0xA0 SHL SUB SWAP1 SWAP2 AND DUP2 MSTORE PUSH1 0x20 ADD SWAP1 JUMP JUMPDEST PUSH2 0x19A SWAP1 PUSH2 0x662 JUMP JUMPDEST SWAP1 PUSH1 0x1 PUSH1 0x1 PUSH1 0xA0 SHL SUB SWAP1 JUMPDEST SWAP2 DUP2 NOT AND SWAP2 AND OR SWAP1 JUMP JUMPDEST SWAP1 PUSH2 0x713 PUSH2 0x178 PUSH2 0x71A SWAP3 PUSH2 0x1CF JUMP JUMPDEST DUP3 SLOAD PUSH2 0x6EE JUMP JUMPDEST SWAP1 SSTORE JUMP JUMPDEST PUSH2 0x728 PUSH1 0x0 PUSH2 0x5A3 JUMP JUMPDEST SWAP1 PUSH2 0x734 DUP2 PUSH1 0x0 PUSH2 0x703 JUMP JUMPDEST PUSH2 0x767 PUSH2 0x761 PUSH32 0x8BE0079C531659141344CD1FD0A4F28419497F9722A3DAAFE3B4186F6B6457E0 SWAP4 PUSH2 0x1CF JUMP JUMPDEST SWAP2 PUSH2 0x1CF JUMP JUMPDEST SWAP2 PUSH2 0x771 PUSH1 0x40 MLOAD SWAP1 JUMP JUMPDEST PUSH1 0x0 SWAP1 LOG3 JUMP JUMPDEST PUSH2 0x178 SWAP1 PUSH2 0x377 JUMP JUMPDEST PUSH2 0x178 SWAP1 SLOAD PUSH2 0x777 JUMP JUMPDEST PUSH2 0x178 PUSH1 0x2 PUSH2 0x780 JUMP JUMPDEST ISZERO PUSH2 0x79B JUMPI JUMP JUMPDEST PUSH1 0x40 MLOAD PUSH3 0x461BCD PUSH1 0xE5 SHL DUP2 MSTORE PUSH1 0x20 PUSH1 0x4 DUP3 ADD MSTORE PUSH1 0xF PUSH1 0x24 DUP3 ADD MSTORE PUSH32 0x4E6F7420616E206F70657261746F720000000000000000000000000000000000 PUSH1 0x44 DUP3 ADD MSTORE PUSH1 0x64 SWAP1 REVERT JUMPDEST PUSH2 0x19A SWAP2 SWAP1 PUSH2 0x800 PUSH2 0x7FB PUSH2 0x7F6 CALLER PUSH1 0x3 PUSH2 0x1D8 JUMP JUMPDEST PUSH2 0x780 JUMP JUMPDEST PUSH2 0x794 JUMP JUMPDEST SWAP1 PUSH2 0x812 SWAP2 PUSH2 0x80D PUSH2 0x974 JUMP JUMPDEST PUSH2 0x81A JUMP JUMPDEST PUSH2 0x19A PUSH2 0x9CD JUMP JUMPDEST SWAP1 PUSH2 0x19A SWAP2 PUSH2 0x827 PUSH2 0x8FF JUMP JUMPDEST PUSH2 0x8C4 JUMP JUMPDEST ISZERO PUSH2 0x833 JUMPI JUMP JUMPDEST PUSH1 0x40 MLOAD PUSH3 0x461BCD PUSH1 0xE5 SHL DUP2 MSTORE PUSH1 0x20 PUSH1 0x4 DUP3 ADD MSTORE PUSH1 0x12 PUSH1 0x24 DUP3 ADD MSTORE PUSH32 0x4E6F207472616465732070726F76696465640000000000000000000000000000 PUSH1 0x44 DUP3 ADD MSTORE PUSH1 0x64 SWAP1 REVERT JUMPDEST ISZERO PUSH2 0x87F JUMPI JUMP JUMPDEST PUSH1 0x40 MLOAD PUSH3 0x461BCD PUSH1 0xE5 SHL DUP2 MSTORE PUSH1 0x20 PUSH1 0x4 DUP3 ADD MSTORE PUSH1 0xF PUSH1 0x24 DUP3 ADD MSTORE PUSH32 0x546F6F206D616E79207472616465730000000000000000000000000000000000 PUSH1 0x44 DUP3 ADD MSTORE PUSH1 0x64 SWAP1 REVERT JUMPDEST POP PUSH2 0x19A SWAP1 PUSH2 0x8DD PUSH2 0x8D6 PUSH1 0x0 PUSH2 0x432 JUMP JUMPDEST DUP3 GT PUSH2 0x82C JUMP JUMPDEST PUSH2 0x8EE PUSH2 0x8EA PUSH1 0x64 PUSH2 0x432 JUMP JUMPDEST SWAP2 SWAP1 JUMP JUMPDEST GT ISZERO PUSH2 0x878 JUMP JUMPDEST SWAP1 PUSH2 0x19A SWAP2 PUSH2 0x7E0 JUMP JUMPDEST PUSH2 0x907 PUSH2 0x78A JUMP JUMPDEST PUSH2 0x90D JUMPI JUMP JUMPDEST PUSH1 0x40 MLOAD PUSH32 0xD93C066500000000000000000000000000000000000000000000000000000000 DUP2 MSTORE PUSH1 0x4 SWAP1 REVERT JUMPDEST PUSH2 0x178 SWAP1 DUP2 JUMP JUMPDEST PUSH2 0x178 SWAP1 SLOAD PUSH2 0x938 JUMP JUMPDEST PUSH2 0x178 PUSH1 0x2 PUSH2 0x432 JUMP JUMPDEST SWAP1 PUSH1 0x0 NOT SWAP1 PUSH2 0x6F9 JUMP JUMPDEST SWAP1 PUSH2 0x96D PUSH2 0x178 PUSH2 0x71A SWAP3 PUSH2 0x432 JUMP JUMPDEST DUP3 SLOAD PUSH2 0x953 JUMP JUMPDEST PUSH2 0x97E PUSH1 0x1 PUSH2 0x93F JUMP JUMPDEST PUSH2 0x986 PUSH2 0x949 JUMP JUMPDEST SWAP1 DUP2 EQ PUSH2 0x998 JUMPI PUSH2 0x19A SWAP1 PUSH1 0x1 PUSH2 0x95D JUMP JUMPDEST PUSH1 0x40 MLOAD PUSH32 0x3EE5AEB500000000000000000000000000000000000000000000000000000000 DUP2 MSTORE PUSH1 0x4 SWAP1 REVERT JUMPDEST PUSH2 0x178 PUSH1 0x1 PUSH2 0x432 JUMP JUMPDEST PUSH2 0x19A PUSH2 0x9D8 PUSH2 0x9C3 JUMP JUMPDEST PUSH1 0x1 PUSH2 0x95D JUMP JUMPDEST PUSH2 0x19A SWAP1 PUSH2 0x9EB PUSH2 0x5F7 JUMP JUMPDEST PUSH2 0xA5C JUMP JUMPDEST ISZERO PUSH2 0x9F7 JUMPI JUMP JUMPDEST PUSH1 0x40 MLOAD PUSH3 0x461BCD PUSH1 0xE5 SHL DUP2 MSTORE PUSH1 0x20 PUSH1 0x4 DUP3 ADD MSTORE PUSH1 0x10 PUSH1 0x24 DUP3 ADD MSTORE PUSH32 0x496E76616C6964206F70657261746F7200000000000000000000000000000000 PUSH1 0x44 DUP3 ADD MSTORE PUSH1 0x64 SWAP1 REVERT JUMPDEST SWAP1 PUSH1 0xFF SWAP1 PUSH2 0x6F9 JUMP JUMPDEST SWAP1 PUSH2 0xA55 PUSH2 0x178 PUSH2 0x71A SWAP3 ISZERO ISZERO SWAP1 JUMP JUMPDEST DUP3 SLOAD PUSH2 0xA3C JUMP JUMPDEST PUSH2 0xA7D PUSH2 0xA6C PUSH2 0x16C PUSH1 0x0 PUSH2 0x5D4 JUMP JUMPDEST PUSH1 0x1 PUSH1 0x1 PUSH1 0xA0 SHL SUB DUP4 AND EQ ISZERO PUSH2 0x9F0 JUMP JUMPDEST PUSH2 0xA92 PUSH1 0x1 PUSH2 0xA8D DUP4 PUSH1 0x3 PUSH2 0x1D8 JUMP JUMPDEST PUSH2 0xA45 JUMP JUMPDEST PUSH2 0xABC PUSH32 0xAC6FA858E9350A46CEC16539926E0FDE25B7629F84B5A72BFFAAE4DF888AE86D SWAP2 PUSH2 0x1CF JUMP JUMPDEST SWAP1 PUSH2 0xAC6 PUSH1 0x40 MLOAD SWAP1 JUMP JUMPDEST PUSH1 0x0 SWAP1 LOG2 JUMP JUMPDEST PUSH2 0x19A SWAP1 PUSH2 0x9DF JUMP JUMPDEST PUSH2 0x19A SWAP1 PUSH2 0xAE1 PUSH2 0x5F7 JUMP JUMPDEST PUSH2 0xAF1 PUSH1 0x0 PUSH2 0xA8D DUP4 PUSH1 0x3 PUSH2 0x1D8 JUMP JUMPDEST PUSH2 0xABC PUSH32 0x80C0B871B97B595B16A7741C1B06FED0C6F6F558639F18CCBCE50724325DC40D SWAP2 PUSH2 0x1CF JUMP JUMPDEST PUSH2 0x19A SWAP1 PUSH2 0xAD5 JUMP JUMPDEST PUSH2 0x19A SWAP1 PUSH2 0xB30 PUSH2 0x5F7 JUMP JUMPDEST PUSH2 0xB81 JUMP JUMPDEST ISZERO PUSH2 0xB3C JUMPI JUMP JUMPDEST PUSH1 0x40 MLOAD PUSH3 0x461BCD PUSH1 0xE5 SHL DUP2 MSTORE PUSH1 0x20 PUSH1 0x4 DUP3 ADD MSTORE PUSH1 0xD PUSH1 0x24 DUP3 ADD MSTORE PUSH32 0x496E76616C696420746F6B656E00000000000000000000000000000000000000 PUSH1 0x44 DUP3 ADD MSTORE PUSH1 0x64 SWAP1 REVERT JUMPDEST PUSH2 0xBA2 PUSH2 0xB91 PUSH2 0x16C PUSH1 0x0 PUSH2 0x5D4 JUMP JUMPDEST PUSH1 0x1 PUSH1 0x1 PUSH1 0xA0 SHL SUB DUP4 AND EQ ISZERO PUSH2 0xB35 JUMP JUMPDEST PUSH2 0xBB2 PUSH1 0x1 PUSH2 0xA8D DUP4 PUSH1 0x7 PUSH2 0x1D8 JUMP JUMPDEST PUSH2 0xABC PUSH32 0x784C8F4DBF0FFEDD6E72C76501C545A70F8B203B30A26CE542BF92BA87C248A4 SWAP2 PUSH2 0x1CF JUMP JUMPDEST PUSH2 0x19A SWAP1 PUSH2 0xB24 JUMP JUMPDEST PUSH2 0x19A SWAP1 PUSH2 0xBF1 PUSH2 0x5F7 JUMP JUMPDEST PUSH2 0xC01 PUSH1 0x0 PUSH2 0xA8D DUP4 PUSH1 0x7 PUSH2 0x1D8 JUMP JUMPDEST PUSH2 0xABC PUSH32 0x4C910B69FE65A61F7531B9C5042B2329CA7179C77290AA7E2EB3AFA3C8511FD3 SWAP2 PUSH2 0x1CF JUMP JUMPDEST PUSH2 0x19A SWAP1 PUSH2 0xBE5 JUMP JUMPDEST PUSH2 0x19A SWAP1 PUSH2 0xC40 PUSH2 0x5F7 JUMP JUMPDEST PUSH2 0xC91 JUMP JUMPDEST ISZERO PUSH2 0xC4C JUMPI JUMP JUMPDEST PUSH1 0x40 MLOAD PUSH3 0x461BCD PUSH1 0xE5 SHL DUP2 MSTORE PUSH1 0x20 PUSH1 0x4 DUP3 ADD MSTORE PUSH1 0xC PUSH1 0x24 DUP3 ADD MSTORE PUSH32 0x46656520746F6F20686967680000000000000000000000000000000000000000 PUSH1 0x44 DUP3 ADD MSTORE PUSH1 0x64 SWAP1 REVERT JUMPDEST PUSH2 0xCA7 PUSH2 0xC9F PUSH2 0x178 PUSH2 0x43F JUMP JUMPDEST DUP3 GT ISZERO PUSH2 0xC45 JUMP JUMPDEST PUSH2 0xCB2 DUP2 PUSH1 0x6 PUSH2 0x95D JUMP JUMPDEST PUSH2 0xCE0 PUSH32 0x8C4D35E54A3F2EF1134138FD8EA3DAEE6A3C89E10D2665996BABDF70261E2C76 SWAP2 PUSH2 0x23C PUSH1 0x40 MLOAD SWAP1 JUMP JUMPDEST SUB SWAP1 LOG1 JUMP JUMPDEST PUSH2 0x19A SWAP1 PUSH2 0xC34 JUMP JUMPDEST PUSH2 0x19A SWAP1 PUSH2 0xCFA PUSH2 0x5F7 JUMP JUMPDEST PUSH2 0xD4B JUMP JUMPDEST ISZERO PUSH2 0xD06 JUMPI JUMP JUMPDEST PUSH1 0x40 MLOAD PUSH3 0x461BCD PUSH1 0xE5 SHL DUP2 MSTORE PUSH1 0x20 PUSH1 0x4 DUP3 ADD MSTORE PUSH1 0x11 PUSH1 0x24 DUP3 ADD MSTORE PUSH32 0x496E76616C696420726563697069656E74000000000000000000000000000000 PUSH1 0x44 DUP3 ADD MSTORE PUSH1 0x64 SWAP1 REVERT JUMPDEST PUSH2 0xD6C PUSH2 0xD5B PUSH2 0x16C PUSH1 0x0 PUSH2 0x5D4 JUMP JUMPDEST PUSH1 0x1 PUSH1 0x1 PUSH1 0xA0 SHL SUB DUP4 AND EQ ISZERO PUSH2 0xCFF JUMP JUMPDEST PUSH2 0xD77 DUP2 PUSH1 0x5 PUSH2 0x703 JUMP JUMPDEST PUSH2 0xABC PUSH32 0x7A7B5A0A132F9E0581EB8527F66EAE9EE89C2A3E79D4AC7E41A1F1F4D48A7FC2 SWAP2 PUSH2 0x1CF JUMP JUMPDEST PUSH2 0x19A SWAP1 PUSH2 0xCEE JUMP JUMPDEST PUSH2 0xDB2 PUSH2 0x5F7 JUMP JUMPDEST PUSH2 0x19A PUSH2 0x19A PUSH2 0xE0B JUMP JUMPDEST PUSH2 0x19A PUSH2 0xDAA JUMP JUMPDEST PUSH2 0xDCD PUSH2 0x8FF JUMP JUMPDEST PUSH2 0x19A PUSH2 0xDDC PUSH1 0x1 PUSH1 0x2 PUSH2 0xA45 JUMP JUMPDEST CALLER PUSH2 0xCE0 PUSH32 0x62E78CEA01BEE320CD4E420270B5EA74000D11B0C9F74754EBDBFC544B05A258 SWAP2 PUSH2 0x2F7 PUSH1 0x40 MLOAD SWAP1 JUMP JUMPDEST PUSH2 0x19A PUSH2 0xDC5 JUMP JUMPDEST PUSH2 0xE1B PUSH2 0x5F7 JUMP JUMPDEST PUSH2 0x19A PUSH2 0x19A PUSH2 0xE74 JUMP JUMPDEST PUSH2 0x19A PUSH2 0xE13 JUMP JUMPDEST PUSH2 0xE36 PUSH2 0xE7C JUMP JUMPDEST PUSH2 0x19A PUSH2 0xE45 PUSH1 0x0 PUSH1 0x2 PUSH2 0xA45 JUMP JUMPDEST CALLER PUSH2 0xCE0 PUSH32 0x5DB9EE0A495BF2E6FF9C91A7834C1BA4FDD244A5E8AA4E537BD38AEAE4B073AA SWAP2 PUSH2 0x2F7 PUSH1 0x40 MLOAD SWAP1 JUMP JUMPDEST PUSH2 0x19A PUSH2 0xE2E JUMP JUMPDEST PUSH2 0xE8B PUSH2 0xE87 PUSH2 0x78A JUMP JUMPDEST ISZERO SWAP1 JUMP JUMPDEST PUSH2 0xE91 JUMPI JUMP JUMPDEST PUSH1 0x40 MLOAD PUSH32 0x8DFC202B00000000000000000000000000000000000000000000000000000000 DUP2 MSTORE PUSH1 0x4 SWAP1 REVERT JUMPDEST PUSH2 0xED3 PUSH2 0x178 SWAP2 PUSH2 0xECB PUSH1 0x0 SWAP1 JUMP JUMPDEST POP PUSH1 0x4 PUSH2 0x1D8 JUMP JUMPDEST PUSH2 0x93F JUMP JUMPDEST PUSH4 0x4E487B71 PUSH1 0xE0 SHL PUSH1 0x0 MSTORE PUSH1 0x11 PUSH1 0x4 MSTORE PUSH1 0x24 PUSH1 0x0 REVERT JUMPDEST DUP2 DUP2 MUL SWAP3 SWAP2 DUP2 ISZERO SWAP2 DUP5 DIV EQ OR ISZERO PUSH2 0xF01 JUMPI JUMP JUMPDEST PUSH2 0xED8 JUMP JUMPDEST PUSH4 0x4E487B71 PUSH1 0xE0 SHL PUSH1 0x0 MSTORE PUSH1 0x12 PUSH1 0x4 MSTORE PUSH1 0x24 PUSH1 0x0 REVERT JUMPDEST DUP2 ISZERO PUSH2 0xF26 JUMPI DIV SWAP1 JUMP JUMPDEST PUSH2 0xF06 JUMP JUMPDEST PUSH2 0xF4B PUSH2 0x178 SWAP2 PUSH2 0xF3A PUSH1 0x0 SWAP1 JUMP JUMPDEST POP PUSH2 0xF45 PUSH1 0x6 PUSH2 0x93F JUMP JUMPDEST SWAP1 PUSH2 0xEEE JUMP JUMPDEST PUSH2 0xF56 PUSH2 0x2710 PUSH2 0x432 JUMP JUMPDEST SWAP1 PUSH2 0xF1C JUMP INVALID LOG2 PUSH5 0x6970667358 0x22 SLT KECCAK256 RETURNDATASIZE PUSH2 0xA1B2 STOP ORIGIN 0xD8 PUSH8 0x4D08B24B2ACC9035 PUSH6 0x5D89EA0BB8A8 0xC4 SWAP11 DUP13 RETURNDATACOPY 0xB2 DELEGATECALL PUSH2 0xC968 PUSH5 0x736F6C6343 STOP ADDMOD EQ STOP CALLER "},"methodIdentifiers":{"MAX_FEE_RATE()":"92f6576e","addOperator(address)":"9870d7fe","addToken(address)":"d48bfca7","batchSettleTrades(bytes[])":"d2925d6e","calculateFee(uint256)":"99a5d747","feeRate()":"978bbdb9","feeRecipient()":"46904840","getUserNonce(address)":"6834e3a8","owner()":"8da5cb5b","pause()":"8456cb59","paused()":"5c975abb","removeOperator(address)":"ac8a584a","removeToken(address)":"5fa7b584","renounceOwnership()":"715018a6","setFeeRate(uint256)":"45596e2e","setFeeRecipient(address)":"e74b981b","settlementOperators(address)":"899a43fc","supportedTokens(address)":"68c4ac26","transferOwnership(address)":"f2fde38b","unpause()":"3f4ba83a","userNonces(address)":"2f7801f4"}}}}}