{"contracts/sequencer/DecentralizedSequencer.sol":{"HyperEVMSequencerNetwork":{"abi":[{"inputs":[{"internalType":"address","name":"_hypeToken","type":"address"}],"stateMutability":"nonpayable","type":"constructor"},{"inputs":[{"internalType":"address","name":"owner","type":"address"}],"name":"OwnableInvalidOwner","type":"error"},{"inputs":[{"internalType":"address","name":"account","type":"address"}],"name":"OwnableUnauthorizedAccount","type":"error"},{"inputs":[],"name":"ReentrancyGuardReentrantCall","type":"error"},{"anonymous":false,"inputs":[{"indexed":true,"internalType":"address","name":"oldSequencer","type":"address"},{"indexed":true,"internalType":"address","name":"newSequencer","type":"address"},{"indexed":false,"internalType":"string","name":"reason","type":"string"}],"name":"EmergencyRotation","type":"event"},{"anonymous":false,"inputs":[{"indexed":true,"internalType":"address","name":"previousOwner","type":"address"},{"indexed":true,"internalType":"address","name":"newOwner","type":"address"}],"name":"OwnershipTransferred","type":"event"},{"anonymous":false,"inputs":[{"indexed":true,"internalType":"address","name":"sequencer","type":"address"},{"indexed":false,"internalType":"uint256","name":"tps","type":"uint256"},{"indexed":false,"internalType":"uint256","name":"latency","type":"uint256"},{"indexed":false,"internalType":"uint256","name":"uptime","type":"uint256"}],"name":"PerformanceUpdated","type":"event"},{"anonymous":false,"inputs":[{"indexed":true,"internalType":"address","name":"sequencer","type":"address"},{"indexed":false,"internalType":"uint256","name":"stakeAmount","type":"uint256"}],"name":"SequencerRegistered","type":"event"},{"anonymous":false,"inputs":[{"indexed":true,"internalType":"address","name":"sequencer","type":"address"},{"indexed":false,"internalType":"string","name":"reason","type":"string"}],"name":"SequencerRemoved","type":"event"},{"anonymous":false,"inputs":[{"indexed":true,"internalType":"address","name":"newSequencer","type":"address"},{"indexed":false,"internalType":"uint256","name":"epoch","type":"uint256"},{"indexed":false,"internalType":"uint256","name":"blockNumber","type":"uint256"}],"name":"SequencerRotated","type":"event"},{"anonymous":false,"inputs":[{"indexed":true,"internalType":"address","name":"sequencer","type":"address"},{"indexed":false,"internalType":"uint256","name":"amount","type":"uint256"},{"indexed":false,"internalType":"string","name":"reason","type":"string"}],"name":"SequencerSlashed","type":"event"},{"anonymous":false,"inputs":[{"indexed":true,"internalType":"address","name":"sequencer","type":"address"},{"indexed":false,"internalType":"uint256","name":"amount","type":"uint256"}],"name":"StakeIncreased","type":"event"},{"anonymous":false,"inputs":[{"indexed":true,"internalType":"address","name":"sequencer","type":"address"},{"indexed":false,"internalType":"uint256","name":"amount","type":"uint256"}],"name":"StakeWithdrawn","type":"event"},{"inputs":[],"name":"HYPE_TOKEN","outputs":[{"internalType":"contract IERC20","name":"","type":"address"}],"stateMutability":"view","type":"function"},{"inputs":[],"name":"MAX_ERROR_RATE","outputs":[{"internalType":"uint256","name":"","type":"uint256"}],"stateMutability":"view","type":"function"},{"inputs":[],"name":"MAX_LATENCY","outputs":[{"internalType":"uint256","name":"","type":"uint256"}],"stateMutability":"view","type":"function"},{"inputs":[],"name":"MAX_SEQUENCERS","outputs":[{"internalType":"uint256","name":"","type":"uint256"}],"stateMutability":"view","type":"function"},{"inputs":[],"name":"MIN_REPUTATION","outputs":[{"internalType":"uint256","name":"","type":"uint256"}],"stateMutability":"view","type":"function"},{"inputs":[],"name":"MIN_STAKE","outputs":[{"internalType":"uint256","name":"","type":"uint256"}],"stateMutability":"view","type":"function"},{"inputs":[],"name":"MIN_TPS","outputs":[{"internalType":"uint256","name":"","type":"uint256"}],"stateMutability":"view","type":"function"},{"inputs":[],"name":"MIN_UPTIME","outputs":[{"internalType":"uint256","name":"","type":"uint256"}],"stateMutability":"view","type":"function"},{"inputs":[],"name":"PERFORMANCE_WINDOW","outputs":[{"internalType":"uint256","name":"","type":"uint256"}],"stateMutability":"view","type":"function"},{"inputs":[],"name":"REPUTATION_DECAY","outputs":[{"internalType":"uint256","name":"","type":"uint256"}],"stateMutability":"view","type":"function"},{"inputs":[],"name":"ROTATION_BLOCKS","outputs":[{"internalType":"uint256","name":"","type":"uint256"}],"stateMutability":"view","type":"function"},{"inputs":[],"name":"SLASH_PERCENTAGE","outputs":[{"internalType":"uint256","name":"","type":"uint256"}],"stateMutability":"view","type":"function"},{"inputs":[{"internalType":"uint256","name":"","type":"uint256"}],"name":"allSequencers","outputs":[{"internalType":"address","name":"","type":"address"}],"stateMutability":"view","type":"function"},{"inputs":[{"internalType":"string","name":"reason","type":"string"}],"name":"emergencyRotation","outputs":[],"stateMutability":"nonpayable","type":"function"},{"inputs":[{"internalType":"uint256","name":"","type":"uint256"}],"name":"epochToSequencer","outputs":[{"internalType":"address","name":"","type":"address"}],"stateMutability":"view","type":"function"},{"inputs":[],"name":"getActiveSequencers","outputs":[{"internalType":"address[]","name":"","type":"address[]"}],"stateMutability":"view","type":"function"},{"inputs":[],"name":"getCurrentSequencer","outputs":[{"internalType":"address","name":"sequencer","type":"address"},{"internalType":"uint256","name":"epoch","type":"uint256"},{"internalType":"uint256","name":"reputation","type":"uint256"},{"internalType":"uint256","name":"stakeAmount","type":"uint256"},{"internalType":"bool","name":"isActive","type":"bool"}],"stateMutability":"view","type":"function"},{"inputs":[],"name":"getNetworkStats","outputs":[{"internalType":"uint256","name":"totalSequencers","type":"uint256"},{"internalType":"uint256","name":"activeSequencers","type":"uint256"},{"internalType":"uint256","name":"totalStakedAmount","type":"uint256"},{"internalType":"uint256","name":"currentEpoch","type":"uint256"},{"internalType":"uint256","name":"blocksUntilRotation","type":"uint256"}],"stateMutability":"view","type":"function"},{"inputs":[{"internalType":"address","name":"sequencer","type":"address"}],"name":"getSequencerPerformance","outputs":[{"internalType":"uint256","name":"tps","type":"uint256"},{"internalType":"uint256","name":"latency","type":"uint256"},{"internalType":"uint256","name":"uptime","type":"uint256"},{"internalType":"uint256","name":"errorRate","type":"uint256"},{"internalType":"uint256","name":"reputation","type":"uint256"}],"stateMutability":"view","type":"function"},{"inputs":[],"name":"getSlashingHistory","outputs":[{"components":[{"internalType":"address","name":"sequencer","type":"address"},{"internalType":"uint256","name":"amount","type":"uint256"},{"internalType":"string","name":"reason","type":"string"},{"internalType":"uint256","name":"timestamp","type":"uint256"},{"internalType":"bytes","name":"proof","type":"bytes"}],"internalType":"struct HyperEVMSequencerNetwork.SlashingEvent[]","name":"","type":"tuple[]"}],"stateMutability":"view","type":"function"},{"inputs":[{"internalType":"uint256","name":"amount","type":"uint256"}],"name":"increaseStake","outputs":[],"stateMutability":"nonpayable","type":"function"},{"inputs":[{"internalType":"address","name":"sequencer","type":"address"}],"name":"isCurrentSequencer","outputs":[{"internalType":"bool","name":"","type":"bool"}],"stateMutability":"view","type":"function"},{"inputs":[{"internalType":"address","name":"","type":"address"}],"name":"isSequencer","outputs":[{"internalType":"bool","name":"","type":"bool"}],"stateMutability":"view","type":"function"},{"inputs":[],"name":"owner","outputs":[{"internalType":"address","name":"","type":"address"}],"stateMutability":"view","type":"function"},{"inputs":[{"internalType":"address","name":"","type":"address"}],"name":"performance","outputs":[{"internalType":"uint256","name":"totalTPS","type":"uint256"},{"internalType":"uint256","name":"averageLatency","type":"uint256"},{"internalType":"uint256","name":"uptime","type":"uint256"},{"internalType":"uint256","name":"errorRate","type":"uint256"}],"stateMutability":"view","type":"function"},{"inputs":[{"internalType":"uint256","name":"stakeAmount","type":"uint256"}],"name":"registerSequencer","outputs":[],"stateMutability":"nonpayable","type":"function"},{"inputs":[],"name":"renounceOwnership","outputs":[],"stateMutability":"nonpayable","type":"function"},{"inputs":[],"name":"reputationUpdateBlock","outputs":[{"internalType":"uint256","name":"","type":"uint256"}],"stateMutability":"view","type":"function"},{"inputs":[{"internalType":"address","name":"sequencer","type":"address"}],"name":"restoreSequencer","outputs":[],"stateMutability":"nonpayable","type":"function"},{"inputs":[],"name":"rotateSequencer","outputs":[],"stateMutability":"nonpayable","type":"function"},{"inputs":[],"name":"rotation","outputs":[{"internalType":"uint256","name":"blockDuration","type":"uint256"},{"internalType":"uint256","name":"currentEpoch","type":"uint256"},{"internalType":"address","name":"currentSequencer","type":"address"},{"internalType":"uint256","name":"rotationIndex","type":"uint256"}],"stateMutability":"view","type":"function"},{"inputs":[{"internalType":"address","name":"","type":"address"}],"name":"sequencers","outputs":[{"internalType":"address","name":"operator","type":"address"},{"internalType":"uint256","name":"stakeAmount","type":"uint256"},{"internalType":"uint256","name":"reputation","type":"uint256"},{"internalType":"uint256","name":"slashCount","type":"uint256"},{"internalType":"uint256","name":"totalMatched","type":"uint256"},{"internalType":"uint256","name":"averageLatency","type":"uint256"},{"internalType":"uint256","name":"lastActiveBlock","type":"uint256"},{"internalType":"bool","name":"isActive","type":"bool"},{"internalType":"bool","name":"isSlashed","type":"bool"}],"stateMutability":"view","type":"function"},{"inputs":[{"internalType":"address","name":"sequencer","type":"address"},{"internalType":"string","name":"reason","type":"string"},{"internalType":"bytes","name":"proof","type":"bytes"}],"name":"slashSequencer","outputs":[],"stateMutability":"nonpayable","type":"function"},{"inputs":[{"internalType":"uint256","name":"","type":"uint256"}],"name":"slashingHistory","outputs":[{"internalType":"address","name":"sequencer","type":"address"},{"internalType":"uint256","name":"amount","type":"uint256"},{"internalType":"string","name":"reason","type":"string"},{"internalType":"uint256","name":"timestamp","type":"uint256"},{"internalType":"bytes","name":"proof","type":"bytes"}],"stateMutability":"view","type":"function"},{"inputs":[],"name":"totalStaked","outputs":[{"internalType":"uint256","name":"","type":"uint256"}],"stateMutability":"view","type":"function"},{"inputs":[{"internalType":"address","name":"newOwner","type":"address"}],"name":"transferOwnership","outputs":[],"stateMutability":"nonpayable","type":"function"},{"inputs":[{"internalType":"address","name":"sequencer","type":"address"},{"internalType":"uint256","name":"tps","type":"uint256"},{"internalType":"uint256","name":"latency","type":"uint256"},{"internalType":"uint256","name":"uptime","type":"uint256"},{"internalType":"uint256","name":"errorRate","type":"uint256"}],"name":"updatePerformance","outputs":[],"stateMutability":"nonpayable","type":"function"},{"inputs":[{"internalType":"uint256","name":"amount","type":"uint256"}],"name":"withdrawStake","outputs":[],"stateMutability":"nonpayable","type":"function"}],"evm":{"bytecode":{"linkReferences":{},"object":"60a0604052346200004e576200001e62000018620000f1565b6200018c565b60405161322c620003418239608051818181610a180152818161165a01528181611a090152611d2c015261322c90f35b600080fd5b634e487b7160e01b600052604160045260246000fd5b90601f01601f191681019081106001600160401b038211176200008b57604052565b62000053565b90620000a8620000a060405190565b928362000069565b565b6001600160a01b031690565b90565b6001600160a01b038116036200004e57565b90505190620000a882620000b9565b906020828203126200004e57620000b691620000cb565b620000b66200356d80380380620001088162000091565b928339810190620000da565b620000b690620000aa906001600160a01b031682565b620000b69062000114565b620000b6906200012a565b620000b6620000b6620000b69290565b620000b6606462000140565b90600019905b9181191691161790565b9062000180620000b6620001889262000140565b82546200015c565b9055565b620001a2906200019c3362000209565b62000135565b608052620000a86001620001d3620001b962000150565b600690620001c890826200016c565b43928391016200016c565b600e6200016c565b620000aa620000b6620000b69290565b620000b690620001db565b6001600160a01b03909116815260200190565b620002136200026f565b6200021f6000620001eb565b6001600160a01b0381166001600160a01b03831614620002455750620000a890620002de565b6200026b906200025460405190565b631e4fbdf760e01b815291829160048301620001f6565b0390fd5b620000a862000285565b620000b6600162000140565b620000a86200029362000279565b60006200016c565b620000b690620000aa565b620000b690546200029b565b906001600160a01b039062000162565b90620002d6620000b6620001889262000135565b8254620002b2565b620002ea6001620002a6565b90620002f8816001620002c2565b6200032f620003287f8be0079c531659141344cd1fd0a4f28419497f9722a3daafe3b4186f6b6457e09362000135565b9162000135565b916200033a60405190565b600090a356fe6080604052600436101561001257600080fd5b60003560e01c806305d950a2146102635780630605867414610227578063137628371461025e5780631c7a07ee1461025957806325d5971f146102545780633b74d1a51461024f5780634a662f481461024a5780634e2cc94d1461024557806351b0d85a146101dc578063552829021461020457806364f98f3f14610240578063697c60451461023b5780636d46e98714610236578063715018a61461023157806376325aa31461022c578063770ea28f14610227578063775f4d69146102225780637fd4696e1461021d578063817b1cd21461021857806382fb9c84146102135780638da5cb5b1461020e57806399dbe139146102095780639f29f13514610204578063a0863fcc146101ff578063a28a0e12146101fa578063a2e53a94146101f5578063a45f2365146101f0578063a79c9bed146101eb578063b1cf9e3d146101e6578063cb1c2b5c146101e1578063d710ed93146101dc578063e177f6d2146101d7578063eedad66b146101d2578063efbca4d9146101cd578063f23aa32c146101c8578063f2fde38b146101c3578063f4eba842146101be5763fb5e7d240361026857611069565b611021565b610f99565b610f7e565b610f3a565b610ec8565b610ea1565b6106da565b610da4565b610d6e565b610d2b565b610ac0565b610aa5565b610a89565b6109ff565b610708565b6109cb565b6109a4565b610989565b61095b565b610921565b6108f0565b6103d1565b6108a0565b610862565b610835565b6107eb565b6107a3565b6106b0565b61067f565b61062a565b610588565b61052a565b6103fd565b610372565b600080fd5b6001600160a01b031690565b90565b6001600160a01b0381165b0361026857565b9050359061029b8261027c565b565b90602082820312610268576102799161028e565b61026d610279610279926001600160a01b031690565b610279906102b1565b610279906102c7565b906102e3906102d0565b600052602052604060002090565b6102799081565b61027990546102f1565b61030d9060056102d9565b90610317826102f8565b91610324600182016102f8565b916102796003610336600285016102f8565b93016102f8565b9052565b61036e61029b94610367606094989795610360608086019a6000870152565b6020850152565b6040830152565b0152565b34610268576103a361038d61038836600461029d565b610302565b9061039a94929460405190565b94859485610341565b0390f35b600091031261026857565b6102796102796102799290565b61027960326103b2565b6102796103bf565b34610268576103e13660046103a7565b6103a36103ec6103c9565b6040515b9182918290815260200190565b346102685761040d3660046103a7565b610415611eca565b604051005b6102799061026d565b610279905461041a565b610279905b60ff1690565b610279905461042d565b6102799060081c610432565b6102799054610442565b6104639060026102d9565b61046c81610423565b91610479600183016102f8565b91610486600282016102f8565b91610493600383016102f8565b916104a0600482016102f8565b916104ad600583016102f8565b916104ba600682016102f8565b9161027960076104cb818501610438565b930161044e565b9694929099989795939161012088019a600089016104f7916001600160a01b03169052565b602088015260408701526060860152608085015260a084015260c0830152151560e08201526101000161029b9115159052565b34610268576103a361054561054036600461029d565b610458565b9561055899979995919594929460405190565b998a998a6104d2565b80610287565b9050359061029b82610561565b906020828203126102685761027991610567565b346102685761041561059b366004610574565b611df1565b909182601f830112156102685781359167ffffffffffffffff831161026857602001926001830284011161026857565b606081830312610268576105e4828261028e565b92602082013567ffffffffffffffff811161026857836106059184016105a0565b929093604082013567ffffffffffffffff81116102685761062692016105a0565b9091565b346102685761041561063d3660046105d0565b93929092612828565b9095949261029b9461067861036e9261067160809661066a60a088019c6000890152565b6020870152565b6040850152565b6060830152565b346102685761068f3660046103a7565b6103a361069a613051565b916106a795939560405190565b95869586610646565b34610268576104156106c336600461029d565b612964565b61027960646103b2565b6102796106c8565b34610268576106ea3660046103a7565b6103a36103ec6106d2565b6102796103e86103b2565b6102796106f5565b34610268576107183660046103a7565b6103a36103ec610700565b634e487b7160e01b600052603260045260246000fd5b805482101561075c57610753600191600052602060002090565b91020190600090565b610723565b610279916008021c61026d565b906102799154610761565b600c6000610785825490565b8310156107a057506102799161079a91610739565b9061076e565b80fd5b34610268576103a36107be6107b9366004610574565b610779565b604051918291826001600160a01b03909116815260200190565b610279611b586103b2565b6102796107d8565b34610268576107fb3660046103a7565b6103a36103ec6107e3565b610279916008021c610432565b906102799154610806565b610279906108306003916000926102d9565b610813565b34610268576103a361085061084b36600461029d565b61081e565b60405191829182901515815260200190565b34610268576108723660046103a7565b6104156110c6565b9060208282031261026857813567ffffffffffffffff81116102685761062692016105a0565b34610268576104156108b336600461087a565b90612168565b9095949261029b946106786108e89261067160809661066a60a088019c60008901906001600160a01b03169052565b019015159052565b34610268576109003660046103a7565b6103a361090b612ec7565b9161091895939560405190565b958695866108b9565b3461026857610415610934366004610574565b611862565b610279916008021c81565b906102799154610939565b6102796000600d610944565b346102685761096b3660046103a7565b6103a36103ec61094f565b6102796127106103b2565b610279610976565b34610268576109993660046103a7565b6103a36103ec610981565b34610268576109b43660046103a7565b6103a36107be611084565b6102796000600e610944565b34610268576109db3660046103a7565b6103a36103ec6109bf565b61033d906102d0565b60208101929161029b91906109e6565b3461026857610a0f3660046103a7565b604051806103a37f0000000000000000000000000000000000000000000000000000000000000000826109ef565b919060a08382031261026857610a53818461028e565b92610a618260208301610567565b92610279610a728460408501610567565b93610a808160608601610567565b93608001610567565b3461026857610415610a9c366004610a3d565b93929092612aad565b34610268576103a3610850610abb36600461029d565b6130d4565b34610268576103a361069a610ad636600461029d565b613009565b805482101561075c57610753600591600052602060002090565b634e487b7160e01b600052602260045260246000fd5b9060016002830492168015610b2b575b6020831014610b2657565b610af5565b91607f1691610b1b565b80546000939291610b52610b4883610b0b565b8085529360200190565b9160018116908115610ba45750600114610b6b57505050565b610b7e9192939450600052602060002090565b916000925b818410610b905750500190565b805484840152602090930192600101610b83565b92949550505060ff1916825215156020020190565b9061027991610b35565b634e487b7160e01b600052604160045260246000fd5b90601f01601f1916810190811067ffffffffffffffff821117610bfb57604052565b610bc3565b9061029b610c1a92610c1160405190565b93848092610bb9565b0383610bd9565b90600b91600092610c30815490565b821015610c7f57610c42929350610adb565b50610c4c81610423565b91610c59600183016102f8565b91610c6660028201610c00565b916102796004610c78600385016102f8565b9301610c00565b8380fd5b60005b838110610c965750506000910152565b8181015183820152602001610c86565b610cc7610cd0602093610cda93610cbb815190565b80835293849260200190565b95869101610c83565b601f01601f191690565b0190565b91610d1e916102799694610d09610d169361066a60a088019460008901906001600160a01b03169052565b8482036040860152610ca6565b936060830152565b6080818403910152610ca6565b34610268576103a3610d46610d41366004610574565b610c21565b91610d5395939560405190565b95869586610cde565b61027960156103b2565b610279610d5c565b3461026857610d7e3660046103a7565b6103a36103ec610d66565b610279690a968163f0a57b4000006103b2565b610279610d89565b3461026857610db43660046103a7565b6103a36103ec610d9c565b80516001600160a01b03168252610279916080610dfa60a08301610de860208601516020860152565b60408501518482036040860152610ca6565b92610e0a60608201516060850152565b0151906080818403910152610ca6565b9061027991610dbf565b90610e3a610e30835190565b8083529160200190565b9081610e4c6020830284019460200190565b926000915b838310610e6057505050505090565b90919293946020610e83610e7c83856001950387528951610e1a565b9760200190565b9301930191939290610e51565b602080825261027992910190610e24565b3461026857610eb13660046103a7565b6103a3610ebc6131ec565b60405191829182610e90565b3461026857610415610edb366004610574565b611b0c565b600690610eec826102f8565b91610ef9600182016102f8565b91610279600461033660028501610423565b61036e61029b94610f2a606094989795610360608086019a6000870152565b6001600160a01b03166040830152565b3461026857610f4a3660046103a7565b6103a3610f55610ee0565b90610f6294929460405190565b94859485610f0b565b6102796126ac6103b2565b610279610f6b565b3461026857610f8e3660046103a7565b6103a36103ec610f76565b3461026857610415610fac36600461029d565b6111c3565b90610fd1610fca610fc0845190565b8084529260200190565b9260200190565b9060005b818110610fe25750505090565b90919261100861100160019286516001600160a01b0316815260200190565b9460200190565b929101610fd5565b602080825261027992910190610fb1565b34610268576110313660046103a7565b6103a361103c612faf565b60405191829182611010565b906102e3906103b2565b61027990611064600491600092611048565b61076e565b34610268576103a36107be61107f366004610574565b611052565b6102796001610423565b6110966110ce565b61029b6110b4565b61026d6102796102799290565b6102799061109e565b61029b6110c160006110ab565b6111fc565b61029b61108e565b6110d6611084565b33906110ea825b916001600160a01b031690565b036110f25750565b61113c906110ff60405190565b9182917f118cdaa7000000000000000000000000000000000000000000000000000000008352600483016001600160a01b03909116815260200190565b0390fd5b61029b9061114c6110ce565b61115660006110ab565b6001600160a01b0381166001600160a01b03831614611179575061029b906111fc565b61113c9061118660405190565b9182917f1e4fbdf7000000000000000000000000000000000000000000000000000000008352600483016001600160a01b03909116815260200190565b61029b90611140565b906001600160a01b03905b9181191691161790565b906111f16102796111f8926102d0565b82546111cc565b9055565b6112066001610423565b906112128160016111e1565b61124561123f7f8be0079c531659141344cd1fd0a4f28419497f9722a3daafe3b4186f6b6457e0936102d0565b916102d0565b9161124f60405190565b80805b0390a3565b61126890611263611875565b6115ed565b61029b6118ce565b1561127757565b60405162461bcd60e51b815260206004820152601260248201527f416c7265616479207265676973746572656400000000000000000000000000006044820152606490fd5b156112c357565b60405162461bcd60e51b815260206004820152601260248201527f496e73756666696369656e74207374616b6500000000000000000000000000006044820152606490fd5b1561130f57565b60405162461bcd60e51b815260206004820152601660248201527f4d61782073657175656e636572732072656163686564000000000000000000006044820152606490fd5b801515610287565b9050519061029b82611354565b90602082820312610268576102799161135c565b6001600160a01b0391821681529116602082015260608101929161029b9160400152565b6040513d6000823e3d90fd5b156113b457565b60405162461bcd60e51b815260206004820152601560248201527f5374616b65207472616e73666572206661696c656400000000000000000000006044820152606490fd5b9061029b61140660405190565b9283610bd9565b6102796101206113f9565b634e487b7160e01b600052600060045260246000fd5b90600019906111d7565b906114486102796111f8926103b2565b825461142e565b9060ff906111d7565b906114686102796111f892151590565b825461144f565b9061ff009060081b6111d7565b9061148c6102796111f892151590565b825461146f565b61029b919061154f90610100906007906114be816114b887516001600160a01b031690565b906111e1565b6114d6600182016114d0602088015190565b90611438565b6114e8600282016114d0604088015190565b6114fa600382016114d0606088015190565b61150c600482016114d0608088015190565b61151e600582016114d060a088015190565b611530600682016114d060c088015190565b019261154861154260e0830151151590565b85611458565b0151151590565b9061147c565b9061029b91611493565b919060086111d79102916115796001600160a01b03841b90565b921b90565b919061158f6102796111f8936102d0565b90835461155f565b9081549168010000000000000000831015610bfb57826115bf91600161029b95018155610739565b9061157e565b634e487b7160e01b600052601160045260246000fd5b919082018092116115e857565b6115c5565b33600361161161160c61160861160385856102d9565b610438565b1590565b611270565b61162861161f610279610d89565b845b10156112bc565b826006918083019261165361163b855490565b61164d611649610279610d5c565b9190565b10611308565b602061167e7f00000000000000000000000000000000000000000000000000000000000000006102d0565b6323b872dd906116ac6000611692306102d0565b936116b861169f60405190565b998a968795869460e01b90565b84528d6004850161137d565b03925af192831561185d5785936116d79160009161182f575b506113ad565b6127109360019283906000436116eb61140d565b6001600160a01b03891683820152986117058c60208c0152565b61170e906103b2565b60408a015261171c826103b2565b6117278160608c0152565b6117328160808c0152565b60a08a015260c089015282151560e089015215156101008801528560029761175a828a6102d9565b9061176491611555565b61176d916102d9565b9061177791611458565b61178284600c611597565b61178c8482611597565b86611797600d6102f8565b906117a1916115db565b6117ac90600d611438565b546117b6836103b2565b146117fc575b505050506117f76117ed7f5c9c212b05f6fc5efb85e88524f097f84e6944815d4973eb06c66a2babd4a539926102d0565b926103f060405190565b0390a2565b61181b61182192611812856118269785016111e1565b600492016102f8565b90611048565b6111e1565b388181806117bc565b611850915060203d8111611856575b6118488183610bd9565b810190611369565b386116d1565b503d61183e565b6113a1565b61029b90611257565b61027960026103b2565b61187f60006102f8565b61188761186b565b9081146118995761029b906000611438565b6040517f3ee5aeb5000000000000000000000000000000000000000000000000000000008152600490fd5b61027960016103b2565b61029b6118d96118c4565b6000611438565b156118e757565b60405162461bcd60e51b815260206004820152601a60248201527f4e6f74206120726567697374657265642073657175656e6365720000000000006044820152606490fd5b61029b906119466119416116033360036102d9565b6118e0565b61126890611952611875565b6119ef565b1561195e57565b60405162461bcd60e51b815260206004820152600e60248201527f496e76616c696420616d6f756e740000000000000000000000000000000000006044820152606490fd5b156119aa57565b60405162461bcd60e51b815260206004820152600f60248201527f5472616e73666572206661696c656400000000000000000000000000000000006044820152606490fd5b6000611a046119fd826103b2565b8311611957565b611a2d7f00000000000000000000000000000000000000000000000000000000000000006102d0565b908260206323b872dd3394611a5f85611a45306102d0565b93611a6b611a5260405190565b9788968795869460e01b90565b84528b6004850161137d565b03925af190811561185d57611a869291611aee575b506119a3565b611aa96001611a968360026102d9565b016114d084611aa4836102f8565b6115db565b611ac1611aba83611aa4600d6102f8565b600d611438565b6117f76117ed7f8b0ed825817a2e696c9a931715af4609fc60e1701f09c89ee7645130e937eb2d926102d0565b611b06915060203d8111611856576118488183610bd9565b38611a80565b61029b9061192c565b61029b90611b2a6119416116033360036102d9565b61126890611b36611875565b611c6c565b15611b4257565b60405162461bcd60e51b815260206004820152601c60248201527f43616e6e6f74207769746864726177207768696c6520616374697665000000006044820152606490fd5b919082039182116115e857565b15611b9b57565b60405162461bcd60e51b815260206004820152601360248201527f42656c6f77206d696e696d756d207374616b65000000000000000000000000006044820152606490fd5b67ffffffffffffffff8111610bfb57602090601f01601f19160190565b90611c0f611c0a83611be0565b6113f9565b918252565b611c1e600f611bfd565b7f5374616b652077697468647261776e0000000000000000000000000000000000602082015290565b610279611c14565b6001600160a01b03909116815260408101929161029b9160200152565b33611d0d6001611c806102798460026102d9565b611c97611c9261160860078401610438565b611b3b565b01611caf611ca7610279836102f8565b8511156112bc565b611cc184611cbc836102f8565b611b87565b611ccf611649610279610d89565b10158015611dd8575b611ce190611b94565b611cf7611cf185611cbc846102f8565b82611438565b611d08611aba85611cbc600d6102f8565b6102f8565b600090611d1c611649836103b2565b14611dc2575b611d686020611d507f00000000000000000000000000000000000000000000000000000000000000006102d0565b63a9059cbb90611d5f60405190565b93849260e01b90565b8252818581611d7b8a8a60048401611c4f565b03925af190811561185d57611d959291611aee57506119a3565b6117f76117ed7f8108595eb6bad3acefa9da467d90cc2217686d5c5ac85460f8b7849c840645fc926102d0565b611dd3611dcd611c47565b83612d60565b611d22565b50611ce1611de8610279836102f8565b85149050611cd8565b61029b90611b15565b15611e0157565b60405162461bcd60e51b815260206004820152601660248201527f546f6f206561726c7920666f7220726f746174696f6e000000000000000000006044820152606490fd5b15611e4d57565b60405162461bcd60e51b815260206004820152601460248201527f4e6f206163746976652073657175656e636572730000000000000000000000006044820152606490fd5b634e487b7160e01b600052601260045260246000fd5b8115611eb2570690565b611e92565b90815260408101929161029b9160200152565b436006611fb6611ef06007611efe611ef6610279611ee7846102f8565b611ef0886102f8565b906115db565b861015611dfa565b846003850194611f9e61026d611f12885490565b611f2a600091611f24611649846103b2565b11611e46565b611f836002850199611f5887611f3f8d610423565b99611f53611f4b612172565b9e8f906111e1565b611438565b6114d06004870191611f7d611f78611f6f856102f8565b60019d8e6103b2565b915490565b90611ea8565b611f998961182160049987019961181b8b6102f8565b6110ab565b6001600160a01b03841603611ff7575b5050506102f8565b91611fe17f3373aa0d49316c85c45ce989bb7278a6f57aa452e33029bf5294527c5c45343e926102d0565b926117f7611fee60405190565b92839283611eb7565b61200561200b9360026102d9565b01611438565b388481611fae565b9061029b916120206110ce565b6120ac565b1561202c57565b60405162461bcd60e51b815260206004820152601860248201527f4e656564206d756c7469706c652073657175656e6365727300000000000000006044820152606490fd5b90826000939282370152565b9190610cd08161209481610cda9560209181520190565b8095612071565b60208082526102799391019161207d565b9061210a9060069061211f6120c2600384015490565b926120db6001946120d5611649876103b2565b11612025565b61182160028201916121146120ef84610423565b966120f988612cc6565b612101612172565b988980966111e1565b4392019182611438565b61181b6004916102f8565b61215261214c7f7e832d541c6db7daeaf4f873365635102a52a73c970cc752ba0ae24e2980f2b9936102d0565b936102d0565b9361125261215f60405190565b9283928361209b565b9061029b91612013565b60098054600661218a600092611f24611649856103b2565b82549160019261219c611649856103b2565b146121d25750916121cc6121c561079a93611ef06121bf600461027998016102f8565b916103b2565b8254611f7d565b90610739565b905061079a915061027992610739565b9061029b949392916121f26110ce565b9061029b9493929161220b6119416116038360036102d9565b6125c1565b1561221757565b60405162461bcd60e51b815260206004820152600f60248201527f416c726561647920736c617368656400000000000000000000000000000000006044820152606490fd5b818102929181159184041417156115e857565b8115611eb2570490565b60001981146115e85760010190565b61027960a06113f9565b909291926122a2611c0a82611be0565b938185526020850190828401116102685761029b92612071565b610279913691612292565b9160001960089290920291821b911b6111d7565b91906122ec6102796111f8936103b2565b9083546122c7565b61029b916000916122db565b81811061230b575050565b8061231960006001936122f4565b01612300565b9190601f811161232e57505050565b61234061029b93600052602060002090565b906020601f840181900483019310612362575b6020601f909101040190612300565b9091508190612353565b90612375815190565b9067ffffffffffffffff8211610bfb57612399826123938554610b0b565b8561231f565b602090601f83116001146123d4576111f89291600091836123c9575b5050600019600883021c1916906002021790565b0151905038806123b5565b601f198316916123e985600052602060002090565b9260005b8181106124275750916002939185600196941061240e575b50505002019055565b01516000196008601f8516021c19169055388080612405565b919360206001819287870151815501950192016123ed565b9061029b9161236c565b90612452815190565b9067ffffffffffffffff8211610bfb57612470826123938554610b0b565b602090601f831160011461249f576111f89291600091836123c9575050600019600883021c1916906002021790565b601f198316916124b485600052602060002090565b9260005b8181106124d85750916002939185600196941061240e5750505002019055565b919360206001819287870151815501950192016124b8565b9061029b91612449565b61029b91906125619060809060049061251e816114b887516001600160a01b031690565b612530600182016114d0602088015190565b61254860028201612542604088015190565b9061243f565b61255a600382016114d0606088015190565b0192015190565b906124f0565b91906125765761029b916124fa565b611418565b9081549168010000000000000000831015610bfb57826125a391600161029b95018155610adb565b90612567565b9081526040602082018190526102799391019161207d565b9290919360026125d185826102d9565b6007016125dd9061044e565b156125e790612210565b6125f185826102d9565b926001840193612600856102f8565b6126086106f5565b6126119161225c565b936127109461261f866103b2565b6126289161226f565b9586612633826102f8565b9061263d91611b87565b61264691611438565b60038201612653816102f8565b61265c90612279565b61266591611438565b83820194612672866102f8565b61267d6123286103b2565b6126869161225c565b90612690906103b2565b6126999161226f565b6126a39086611438565b60019485918960078501956126b8858861147c565b896126c3600d6102f8565b906126cd91611b87565b6126d890600d611438565b600b92428c8f6126e6612288565b6001600160a01b0390961686526126fe8e6020880152565b612707916122bc565b6040850152606084015261271a916122bc565b60808201526127289161257b565b612731906102f8565b6127396107d8565b11918215612807575b50506127ec575b5060069081019161275c61026d84610423565b6001600160a01b03871614806127d4575b6127b5575b5050506117f76127a27f54feefbe9d950d84d055909aadbe66ae8707aa598d83daaca3756384a47a3456946102d0565b946127ac60405190565b938493846125a9565b6127c46127cc936114b8612172565b439101611438565b388080612772565b5060038201546127e6611649836103b2565b1161276d565b612801906127f987612cc6565b600090611458565b38612749565b6128129250016102f8565b612820611649610279610d89565b108338612742565b9061029b949392916121e2565b61029b906128416110ce565b61029b906128566119416116038360036102d9565b6128a7565b1561286257565b60405162461bcd60e51b815260206004820152600b60248201527f4e6f7420736c61736865640000000000000000000000000000000000000000006044820152606490fd5b6002906128c76128c260076128bc84866102d9565b0161044e565b61285b565b6128ed6128df60016128d984866102d9565b016102f8565b611621611649610279610d89565b612904600060076128fe84866102d9565b0161147c565b61291c611608600761291684866102d9565b01610438565b8061294c575b61292a575050565b61294561029b92600761293f846001936102d9565b01611458565b6009611597565b5060095461295e611649610279610d5c565b10612922565b61029b90612835565b9061029b9493929161297d6110ce565b9061029b949392916129966119416116038360036102d9565b612a09565b61027960806113f9565b61029b91906114d0906060906003906129be8185875190565b6129d0600182016114d0602088015190565b61255a600282016114d0604088015190565b9061029b916129a5565b90815260608101939261029b92909160409161036e906020830152565b9293612a6d90612a6484612a1b61299b565b612a23868252565b612a2e826020830152565b612a39896040830152565b612a44846060830152565b612a59600591612a548a846102d9565b6129e2565b6120058860026102d9565b85848487612aba565b6117f7612a9a7f8fba6965bb87ed104958174573e9aed72332779f1c2138defec56d0960e7e77c946102d0565b94612aa460405190565b938493846129ec565b9061029b9493929161296d565b939192600290612acd61027987846102d9565b9482860193612adb856102f8565b8091612ae5610976565b612afa610279612af4896103b2565b8361225c565b8210612c5257505050612b14612b2591611ef060326103b2565b612b1f6127106103b2565b90612dcf565b925b612b44610279612b3e612b386103bf565b936103b2565b8361226f565b8211612c3457505090612b14612b5e91611ef060326103b2565b905b612b6e611649610279610f6b565b10612c1d57612b14612b8491611ef060196103b2565b915b612b946116496102796106c8565b11612bea575b81612ba491611438565b612bb26116496102796107d8565b1080612bd8575b612bc1575050565b612bcd61029b92612cc6565b600760009101611458565b50612be560078201610438565b612bb9565b90612c15612c05612ba492612bff60966103b2565b90611b87565b612c0f60006103b2565b90612de1565b919050612b9a565b612c05612c2e91612bff60c86103b2565b91612b86565b1015612b605790612c05612c4c91612bff60646103b2565b90612b60565b92959211612c61575b50612b27565b612c75919450612c0590612bff60646103b2565b9238612c5b565b634e487b7160e01b600052603160045260246000fd5b61029b9160009161157e565b80548015612cc1576000190190612cbe612cb88383610739565b90612c92565b55565b612c7c565b612cd060006103b2565b60098054821015612d4a57612ce861079a8383610739565b612cfa6001600160a01b0385166110dd565b14612d0e5750612d0990612279565b612cd0565b61029b9250610279612d45926115bf612d3e61079a612d38612d2e875490565b612bff60016103b2565b86610739565b9184610739565b612c9e565b505050565b602080825261027992910190610ca6565b612d866000612d7981612d748560036102d9565b611458565b600761293f8460026102d9565b612d8f81612cc6565b6117f7612dbc7f60c32c78baeed87b47940bf4b5a12db273eb09931f25b9b08d2ce4a8e04ad835926102d0565b92612dc660405190565b91829182612d4f565b9080821015612ddc575090565b905090565b9080821115612ddc575090565b9061029b612eb46007612dff61140d565b94612e19612e0c82610423565b6001600160a01b03168752565b612e2f612e28600183016102f8565b6020880152565b612e45612e3e600283016102f8565b6040880152565b612e5b612e54600383016102f8565b6060880152565b612e71612e6a600483016102f8565b6080880152565b612e87612e80600583016102f8565b60a0880152565b612e9d612e96600683016102f8565b60c0880152565b6128bc612eab838301610438565b151560e0880152565b1515610100840152565b61027990612dee565b600690612ed46008610423565b91612ef46001612eed612ee88660026102d9565b612ebe565b92016102f8565b92612f00604083015190565b92612f1960e0612f11602086015190565b940151151590565b919493929190565b90612f3c612f30610fc0845490565b92600052602060002090565b9060005b818110612f4d5750505090565b909192612f7a612f73600192612f6287610423565b6001600160a01b0316815260200190565b9460010190565b929101612f40565b9061027991612f21565b9061029b610c1a92612f9d60405190565b93848092612f82565b61027990612f8c565b6102796009612fa6565b9061029b612ff96003612fca61299b565b94612fdb612fd7826102f8565b8752565b612fea612e28600183016102f8565b6128d9612e3e600283016102f8565b6060840152565b61027990612fb9565b61301c6130178260056102d9565b613000565b90613025825190565b602083015193612f19613044606061303e604088015190565b96015190565b936128d9600291826102d9565b6007600661305e826102f8565b819061306d90611ef0836102f8565b43906000908210156130c35750611cbc61309392611ef061308d876102f8565b916102f8565b6130a760036130a1600c5490565b93015490565b936130bb6130b5600d6102f8565b946102f8565b929493929190565b90506130cf91506103b2565b613093565b6130e161026d6008610423565b6001600160a01b0382161490816130f6575090565b610279915061291660079160026102d9565b67ffffffffffffffff8111610bfb5760208091020190565b90611c0f611c0a83613108565b9061029b61317e600461313e612288565b9461314b612e0c82610423565b61315a612e28600183016102f8565b613169612e3e60028301610c00565b613178612e54600383016102f8565b01610c00565b6080840152565b6102799061312d565b90613197825490565b6131a081613120565b926131b46020850191600052602060002090565b6000915b8383106131c55750505050565b600560206001926131d585613185565b8152019201920191906131b8565b6102799061318e565b610279600b6131e356fea2646970667358221220d4b56e47708694166720356886177d0a697db5f85825a2bdd1d2a151e13c1fc664736f6c63430008140033","opcodes":"PUSH1 0xA0 PUSH1 0x40 MSTORE CALLVALUE PUSH3 0x4E JUMPI PUSH3 0x1E PUSH3 0x18 PUSH3 0xF1 JUMP JUMPDEST PUSH3 0x18C JUMP JUMPDEST PUSH1 0x40 MLOAD PUSH2 0x322C PUSH3 0x341 DUP3 CODECOPY PUSH1 0x80 MLOAD DUP2 DUP2 DUP2 PUSH2 0xA18 ADD MSTORE DUP2 DUP2 PUSH2 0x165A ADD MSTORE DUP2 DUP2 PUSH2 0x1A09 ADD MSTORE PUSH2 0x1D2C ADD MSTORE PUSH2 0x322C SWAP1 RETURN JUMPDEST PUSH1 0x0 DUP1 REVERT JUMPDEST PUSH4 0x4E487B71 PUSH1 0xE0 SHL PUSH1 0x0 MSTORE PUSH1 0x41 PUSH1 0x4 MSTORE PUSH1 0x24 PUSH1 0x0 REVERT JUMPDEST SWAP1 PUSH1 0x1F ADD PUSH1 0x1F NOT AND DUP2 ADD SWAP1 DUP2 LT PUSH1 0x1 PUSH1 0x1 PUSH1 0x40 SHL SUB DUP3 GT OR PUSH3 0x8B JUMPI PUSH1 0x40 MSTORE JUMP JUMPDEST PUSH3 0x53 JUMP JUMPDEST SWAP1 PUSH3 0xA8 PUSH3 0xA0 PUSH1 0x40 MLOAD SWAP1 JUMP JUMPDEST SWAP3 DUP4 PUSH3 0x69 JUMP JUMPDEST JUMP JUMPDEST PUSH1 0x1 PUSH1 0x1 PUSH1 0xA0 SHL SUB AND SWAP1 JUMP JUMPDEST SWAP1 JUMP JUMPDEST PUSH1 0x1 PUSH1 0x1 PUSH1 0xA0 SHL SUB DUP2 AND SUB PUSH3 0x4E JUMPI JUMP JUMPDEST SWAP1 POP MLOAD SWAP1 PUSH3 0xA8 DUP3 PUSH3 0xB9 JUMP JUMPDEST SWAP1 PUSH1 0x20 DUP3 DUP3 SUB SLT PUSH3 0x4E JUMPI PUSH3 0xB6 SWAP2 PUSH3 0xCB JUMP JUMPDEST PUSH3 0xB6 PUSH3 0x356D DUP1 CODESIZE SUB DUP1 PUSH3 0x108 DUP2 PUSH3 0x91 JUMP JUMPDEST SWAP3 DUP4 CODECOPY DUP2 ADD SWAP1 PUSH3 0xDA JUMP JUMPDEST PUSH3 0xB6 SWAP1 PUSH3 0xAA SWAP1 PUSH1 0x1 PUSH1 0x1 PUSH1 0xA0 SHL SUB AND DUP3 JUMP JUMPDEST PUSH3 0xB6 SWAP1 PUSH3 0x114 JUMP JUMPDEST PUSH3 0xB6 SWAP1 PUSH3 0x12A JUMP JUMPDEST PUSH3 0xB6 PUSH3 0xB6 PUSH3 0xB6 SWAP3 SWAP1 JUMP JUMPDEST PUSH3 0xB6 PUSH1 0x64 PUSH3 0x140 JUMP JUMPDEST SWAP1 PUSH1 0x0 NOT SWAP1 JUMPDEST SWAP2 DUP2 NOT AND SWAP2 AND OR SWAP1 JUMP JUMPDEST SWAP1 PUSH3 0x180 PUSH3 0xB6 PUSH3 0x188 SWAP3 PUSH3 0x140 JUMP JUMPDEST DUP3 SLOAD PUSH3 0x15C JUMP JUMPDEST SWAP1 SSTORE JUMP JUMPDEST PUSH3 0x1A2 SWAP1 PUSH3 0x19C CALLER PUSH3 0x209 JUMP JUMPDEST PUSH3 0x135 JUMP JUMPDEST PUSH1 0x80 MSTORE PUSH3 0xA8 PUSH1 0x1 PUSH3 0x1D3 PUSH3 0x1B9 PUSH3 0x150 JUMP JUMPDEST PUSH1 0x6 SWAP1 PUSH3 0x1C8 SWAP1 DUP3 PUSH3 0x16C JUMP JUMPDEST NUMBER SWAP3 DUP4 SWAP2 ADD PUSH3 0x16C JUMP JUMPDEST PUSH1 0xE PUSH3 0x16C JUMP JUMPDEST PUSH3 0xAA PUSH3 0xB6 PUSH3 0xB6 SWAP3 SWAP1 JUMP JUMPDEST PUSH3 0xB6 SWAP1 PUSH3 0x1DB JUMP JUMPDEST PUSH1 0x1 PUSH1 0x1 PUSH1 0xA0 SHL SUB SWAP1 SWAP2 AND DUP2 MSTORE PUSH1 0x20 ADD SWAP1 JUMP JUMPDEST PUSH3 0x213 PUSH3 0x26F JUMP JUMPDEST PUSH3 0x21F PUSH1 0x0 PUSH3 0x1EB JUMP JUMPDEST PUSH1 0x1 PUSH1 0x1 PUSH1 0xA0 SHL SUB DUP2 AND PUSH1 0x1 PUSH1 0x1 PUSH1 0xA0 SHL SUB DUP4 AND EQ PUSH3 0x245 JUMPI POP PUSH3 0xA8 SWAP1 PUSH3 0x2DE JUMP JUMPDEST PUSH3 0x26B SWAP1 PUSH3 0x254 PUSH1 0x40 MLOAD SWAP1 JUMP JUMPDEST PUSH4 0x1E4FBDF7 PUSH1 0xE0 SHL DUP2 MSTORE SWAP2 DUP3 SWAP2 PUSH1 0x4 DUP4 ADD PUSH3 0x1F6 JUMP JUMPDEST SUB SWAP1 REVERT JUMPDEST PUSH3 0xA8 PUSH3 0x285 JUMP JUMPDEST PUSH3 0xB6 PUSH1 0x1 PUSH3 0x140 JUMP JUMPDEST PUSH3 0xA8 PUSH3 0x293 PUSH3 0x279 JUMP JUMPDEST PUSH1 0x0 PUSH3 0x16C JUMP JUMPDEST PUSH3 0xB6 SWAP1 PUSH3 0xAA JUMP JUMPDEST PUSH3 0xB6 SWAP1 SLOAD PUSH3 0x29B JUMP JUMPDEST SWAP1 PUSH1 0x1 PUSH1 0x1 PUSH1 0xA0 SHL SUB SWAP1 PUSH3 0x162 JUMP JUMPDEST SWAP1 PUSH3 0x2D6 PUSH3 0xB6 PUSH3 0x188 SWAP3 PUSH3 0x135 JUMP JUMPDEST DUP3 SLOAD PUSH3 0x2B2 JUMP JUMPDEST PUSH3 0x2EA PUSH1 0x1 PUSH3 0x2A6 JUMP JUMPDEST SWAP1 PUSH3 0x2F8 DUP2 PUSH1 0x1 PUSH3 0x2C2 JUMP JUMPDEST PUSH3 0x32F PUSH3 0x328 PUSH32 0x8BE0079C531659141344CD1FD0A4F28419497F9722A3DAAFE3B4186F6B6457E0 SWAP4 PUSH3 0x135 JUMP JUMPDEST SWAP2 PUSH3 0x135 JUMP JUMPDEST SWAP2 PUSH3 0x33A PUSH1 0x40 MLOAD SWAP1 JUMP JUMPDEST PUSH1 0x0 SWAP1 LOG3 JUMP INVALID PUSH1 0x80 PUSH1 0x40 MSTORE PUSH1 0x4 CALLDATASIZE LT ISZERO PUSH2 0x12 JUMPI PUSH1 0x0 DUP1 REVERT JUMPDEST PUSH1 0x0 CALLDATALOAD PUSH1 0xE0 SHR DUP1 PUSH4 0x5D950A2 EQ PUSH2 0x263 JUMPI DUP1 PUSH4 0x6058674 EQ PUSH2 0x227 JUMPI DUP1 PUSH4 0x13762837 EQ PUSH2 0x25E JUMPI DUP1 PUSH4 0x1C7A07EE EQ PUSH2 0x259 JUMPI DUP1 PUSH4 0x25D5971F EQ PUSH2 0x254 JUMPI DUP1 PUSH4 0x3B74D1A5 EQ PUSH2 0x24F JUMPI DUP1 PUSH4 0x4A662F48 EQ PUSH2 0x24A JUMPI DUP1 PUSH4 0x4E2CC94D EQ PUSH2 0x245 JUMPI DUP1 PUSH4 0x51B0D85A EQ PUSH2 0x1DC JUMPI DUP1 PUSH4 0x55282902 EQ PUSH2 0x204 JUMPI DUP1 PUSH4 0x64F98F3F EQ PUSH2 0x240 JUMPI DUP1 PUSH4 0x697C6045 EQ PUSH2 0x23B JUMPI DUP1 PUSH4 0x6D46E987 EQ PUSH2 0x236 JUMPI DUP1 PUSH4 0x715018A6 EQ PUSH2 0x231 JUMPI DUP1 PUSH4 0x76325AA3 EQ PUSH2 0x22C JUMPI DUP1 PUSH4 0x770EA28F EQ PUSH2 0x227 JUMPI DUP1 PUSH4 0x775F4D69 EQ PUSH2 0x222 JUMPI DUP1 PUSH4 0x7FD4696E EQ PUSH2 0x21D JUMPI DUP1 PUSH4 0x817B1CD2 EQ PUSH2 0x218 JUMPI DUP1 PUSH4 0x82FB9C84 EQ PUSH2 0x213 JUMPI DUP1 PUSH4 0x8DA5CB5B EQ PUSH2 0x20E JUMPI DUP1 PUSH4 0x99DBE139 EQ PUSH2 0x209 JUMPI DUP1 PUSH4 0x9F29F135 EQ PUSH2 0x204 JUMPI DUP1 PUSH4 0xA0863FCC EQ PUSH2 0x1FF JUMPI DUP1 PUSH4 0xA28A0E12 EQ PUSH2 0x1FA JUMPI DUP1 PUSH4 0xA2E53A94 EQ PUSH2 0x1F5 JUMPI DUP1 PUSH4 0xA45F2365 EQ PUSH2 0x1F0 JUMPI DUP1 PUSH4 0xA79C9BED EQ PUSH2 0x1EB JUMPI DUP1 PUSH4 0xB1CF9E3D EQ PUSH2 0x1E6 JUMPI DUP1 PUSH4 0xCB1C2B5C EQ PUSH2 0x1E1 JUMPI DUP1 PUSH4 0xD710ED93 EQ PUSH2 0x1DC JUMPI DUP1 PUSH4 0xE177F6D2 EQ PUSH2 0x1D7 JUMPI DUP1 PUSH4 0xEEDAD66B EQ PUSH2 0x1D2 JUMPI DUP1 PUSH4 0xEFBCA4D9 EQ PUSH2 0x1CD JUMPI DUP1 PUSH4 0xF23AA32C EQ PUSH2 0x1C8 JUMPI DUP1 PUSH4 0xF2FDE38B EQ PUSH2 0x1C3 JUMPI DUP1 PUSH4 0xF4EBA842 EQ PUSH2 0x1BE JUMPI PUSH4 0xFB5E7D24 SUB PUSH2 0x268 JUMPI PUSH2 0x1069 JUMP JUMPDEST PUSH2 0x1021 JUMP JUMPDEST PUSH2 0xF99 JUMP JUMPDEST PUSH2 0xF7E JUMP JUMPDEST PUSH2 0xF3A JUMP JUMPDEST PUSH2 0xEC8 JUMP JUMPDEST PUSH2 0xEA1 JUMP JUMPDEST PUSH2 0x6DA JUMP JUMPDEST PUSH2 0xDA4 JUMP JUMPDEST PUSH2 0xD6E JUMP JUMPDEST PUSH2 0xD2B JUMP JUMPDEST PUSH2 0xAC0 JUMP JUMPDEST PUSH2 0xAA5 JUMP JUMPDEST PUSH2 0xA89 JUMP JUMPDEST PUSH2 0x9FF JUMP JUMPDEST PUSH2 0x708 JUMP JUMPDEST PUSH2 0x9CB JUMP JUMPDEST PUSH2 0x9A4 JUMP JUMPDEST PUSH2 0x989 JUMP JUMPDEST PUSH2 0x95B JUMP JUMPDEST PUSH2 0x921 JUMP JUMPDEST PUSH2 0x8F0 JUMP JUMPDEST PUSH2 0x3D1 JUMP JUMPDEST PUSH2 0x8A0 JUMP JUMPDEST PUSH2 0x862 JUMP JUMPDEST PUSH2 0x835 JUMP JUMPDEST PUSH2 0x7EB JUMP JUMPDEST PUSH2 0x7A3 JUMP JUMPDEST PUSH2 0x6B0 JUMP JUMPDEST PUSH2 0x67F JUMP JUMPDEST PUSH2 0x62A JUMP JUMPDEST PUSH2 0x588 JUMP JUMPDEST PUSH2 0x52A JUMP JUMPDEST PUSH2 0x3FD JUMP JUMPDEST PUSH2 0x372 JUMP JUMPDEST PUSH1 0x0 DUP1 REVERT JUMPDEST PUSH1 0x1 PUSH1 0x1 PUSH1 0xA0 SHL SUB AND SWAP1 JUMP JUMPDEST SWAP1 JUMP JUMPDEST PUSH1 0x1 PUSH1 0x1 PUSH1 0xA0 SHL SUB DUP2 AND JUMPDEST SUB PUSH2 0x268 JUMPI JUMP JUMPDEST SWAP1 POP CALLDATALOAD SWAP1 PUSH2 0x29B DUP3 PUSH2 0x27C JUMP JUMPDEST JUMP JUMPDEST SWAP1 PUSH1 0x20 DUP3 DUP3 SUB SLT PUSH2 0x268 JUMPI PUSH2 0x279 SWAP2 PUSH2 0x28E JUMP JUMPDEST PUSH2 0x26D PUSH2 0x279 PUSH2 0x279 SWAP3 PUSH1 0x1 PUSH1 0x1 PUSH1 0xA0 SHL SUB AND SWAP1 JUMP JUMPDEST PUSH2 0x279 SWAP1 PUSH2 0x2B1 JUMP JUMPDEST PUSH2 0x279 SWAP1 PUSH2 0x2C7 JUMP JUMPDEST SWAP1 PUSH2 0x2E3 SWAP1 PUSH2 0x2D0 JUMP JUMPDEST PUSH1 0x0 MSTORE PUSH1 0x20 MSTORE PUSH1 0x40 PUSH1 0x0 KECCAK256 SWAP1 JUMP JUMPDEST PUSH2 0x279 SWAP1 DUP2 JUMP JUMPDEST PUSH2 0x279 SWAP1 SLOAD PUSH2 0x2F1 JUMP JUMPDEST PUSH2 0x30D SWAP1 PUSH1 0x5 PUSH2 0x2D9 JUMP JUMPDEST SWAP1 PUSH2 0x317 DUP3 PUSH2 0x2F8 JUMP JUMPDEST SWAP2 PUSH2 0x324 PUSH1 0x1 DUP3 ADD PUSH2 0x2F8 JUMP JUMPDEST SWAP2 PUSH2 0x279 PUSH1 0x3 PUSH2 0x336 PUSH1 0x2 DUP6 ADD PUSH2 0x2F8 JUMP JUMPDEST SWAP4 ADD PUSH2 0x2F8 JUMP JUMPDEST SWAP1 MSTORE JUMP JUMPDEST PUSH2 0x36E PUSH2 0x29B SWAP5 PUSH2 0x367 PUSH1 0x60 SWAP5 SWAP9 SWAP8 SWAP6 PUSH2 0x360 PUSH1 0x80 DUP7 ADD SWAP11 PUSH1 0x0 DUP8 ADD MSTORE JUMP JUMPDEST PUSH1 0x20 DUP6 ADD MSTORE JUMP JUMPDEST PUSH1 0x40 DUP4 ADD MSTORE JUMP JUMPDEST ADD MSTORE JUMP JUMPDEST CALLVALUE PUSH2 0x268 JUMPI PUSH2 0x3A3 PUSH2 0x38D PUSH2 0x388 CALLDATASIZE PUSH1 0x4 PUSH2 0x29D JUMP JUMPDEST PUSH2 0x302 JUMP JUMPDEST SWAP1 PUSH2 0x39A SWAP5 SWAP3 SWAP5 PUSH1 0x40 MLOAD SWAP1 JUMP JUMPDEST SWAP5 DUP6 SWAP5 DUP6 PUSH2 0x341 JUMP JUMPDEST SUB SWAP1 RETURN JUMPDEST PUSH1 0x0 SWAP2 SUB SLT PUSH2 0x268 JUMPI JUMP JUMPDEST PUSH2 0x279 PUSH2 0x279 PUSH2 0x279 SWAP3 SWAP1 JUMP JUMPDEST PUSH2 0x279 PUSH1 0x32 PUSH2 0x3B2 JUMP JUMPDEST PUSH2 0x279 PUSH2 0x3BF JUMP JUMPDEST CALLVALUE PUSH2 0x268 JUMPI PUSH2 0x3E1 CALLDATASIZE PUSH1 0x4 PUSH2 0x3A7 JUMP JUMPDEST PUSH2 0x3A3 PUSH2 0x3EC PUSH2 0x3C9 JUMP JUMPDEST PUSH1 0x40 MLOAD JUMPDEST SWAP2 DUP3 SWAP2 DUP3 SWAP1 DUP2 MSTORE PUSH1 0x20 ADD SWAP1 JUMP JUMPDEST CALLVALUE PUSH2 0x268 JUMPI PUSH2 0x40D CALLDATASIZE PUSH1 0x4 PUSH2 0x3A7 JUMP JUMPDEST PUSH2 0x415 PUSH2 0x1ECA JUMP JUMPDEST PUSH1 0x40 MLOAD STOP JUMPDEST PUSH2 0x279 SWAP1 PUSH2 0x26D JUMP JUMPDEST PUSH2 0x279 SWAP1 SLOAD PUSH2 0x41A JUMP JUMPDEST PUSH2 0x279 SWAP1 JUMPDEST PUSH1 0xFF AND SWAP1 JUMP JUMPDEST PUSH2 0x279 SWAP1 SLOAD PUSH2 0x42D JUMP JUMPDEST PUSH2 0x279 SWAP1 PUSH1 0x8 SHR PUSH2 0x432 JUMP JUMPDEST PUSH2 0x279 SWAP1 SLOAD PUSH2 0x442 JUMP JUMPDEST PUSH2 0x463 SWAP1 PUSH1 0x2 PUSH2 0x2D9 JUMP JUMPDEST PUSH2 0x46C DUP2 PUSH2 0x423 JUMP JUMPDEST SWAP2 PUSH2 0x479 PUSH1 0x1 DUP4 ADD PUSH2 0x2F8 JUMP JUMPDEST SWAP2 PUSH2 0x486 PUSH1 0x2 DUP3 ADD PUSH2 0x2F8 JUMP JUMPDEST SWAP2 PUSH2 0x493 PUSH1 0x3 DUP4 ADD PUSH2 0x2F8 JUMP JUMPDEST SWAP2 PUSH2 0x4A0 PUSH1 0x4 DUP3 ADD PUSH2 0x2F8 JUMP JUMPDEST SWAP2 PUSH2 0x4AD PUSH1 0x5 DUP4 ADD PUSH2 0x2F8 JUMP JUMPDEST SWAP2 PUSH2 0x4BA PUSH1 0x6 DUP3 ADD PUSH2 0x2F8 JUMP JUMPDEST SWAP2 PUSH2 0x279 PUSH1 0x7 PUSH2 0x4CB DUP2 DUP6 ADD PUSH2 0x438 JUMP JUMPDEST SWAP4 ADD PUSH2 0x44E JUMP JUMPDEST SWAP7 SWAP5 SWAP3 SWAP1 SWAP10 SWAP9 SWAP8 SWAP6 SWAP4 SWAP2 PUSH2 0x120 DUP9 ADD SWAP11 PUSH1 0x0 DUP10 ADD PUSH2 0x4F7 SWAP2 PUSH1 0x1 PUSH1 0x1 PUSH1 0xA0 SHL SUB AND SWAP1 MSTORE JUMP JUMPDEST PUSH1 0x20 DUP9 ADD MSTORE PUSH1 0x40 DUP8 ADD MSTORE PUSH1 0x60 DUP7 ADD MSTORE PUSH1 0x80 DUP6 ADD MSTORE PUSH1 0xA0 DUP5 ADD MSTORE PUSH1 0xC0 DUP4 ADD MSTORE ISZERO ISZERO PUSH1 0xE0 DUP3 ADD MSTORE PUSH2 0x100 ADD PUSH2 0x29B SWAP2 ISZERO ISZERO SWAP1 MSTORE JUMP JUMPDEST CALLVALUE PUSH2 0x268 JUMPI PUSH2 0x3A3 PUSH2 0x545 PUSH2 0x540 CALLDATASIZE PUSH1 0x4 PUSH2 0x29D JUMP JUMPDEST PUSH2 0x458 JUMP JUMPDEST SWAP6 PUSH2 0x558 SWAP10 SWAP8 SWAP10 SWAP6 SWAP2 SWAP6 SWAP5 SWAP3 SWAP5 PUSH1 0x40 MLOAD SWAP1 JUMP JUMPDEST SWAP10 DUP11 SWAP10 DUP11 PUSH2 0x4D2 JUMP JUMPDEST DUP1 PUSH2 0x287 JUMP JUMPDEST SWAP1 POP CALLDATALOAD SWAP1 PUSH2 0x29B DUP3 PUSH2 0x561 JUMP JUMPDEST SWAP1 PUSH1 0x20 DUP3 DUP3 SUB SLT PUSH2 0x268 JUMPI PUSH2 0x279 SWAP2 PUSH2 0x567 JUMP JUMPDEST CALLVALUE PUSH2 0x268 JUMPI PUSH2 0x415 PUSH2 0x59B CALLDATASIZE PUSH1 0x4 PUSH2 0x574 JUMP JUMPDEST PUSH2 0x1DF1 JUMP JUMPDEST SWAP1 SWAP2 DUP3 PUSH1 0x1F DUP4 ADD SLT ISZERO PUSH2 0x268 JUMPI DUP2 CALLDATALOAD SWAP2 PUSH8 0xFFFFFFFFFFFFFFFF DUP4 GT PUSH2 0x268 JUMPI PUSH1 0x20 ADD SWAP3 PUSH1 0x1 DUP4 MUL DUP5 ADD GT PUSH2 0x268 JUMPI JUMP JUMPDEST PUSH1 0x60 DUP2 DUP4 SUB SLT PUSH2 0x268 JUMPI PUSH2 0x5E4 DUP3 DUP3 PUSH2 0x28E JUMP JUMPDEST SWAP3 PUSH1 0x20 DUP3 ADD CALLDATALOAD PUSH8 0xFFFFFFFFFFFFFFFF DUP2 GT PUSH2 0x268 JUMPI DUP4 PUSH2 0x605 SWAP2 DUP5 ADD PUSH2 0x5A0 JUMP JUMPDEST SWAP3 SWAP1 SWAP4 PUSH1 0x40 DUP3 ADD CALLDATALOAD PUSH8 0xFFFFFFFFFFFFFFFF DUP2 GT PUSH2 0x268 JUMPI PUSH2 0x626 SWAP3 ADD PUSH2 0x5A0 JUMP JUMPDEST SWAP1 SWAP2 JUMP JUMPDEST CALLVALUE PUSH2 0x268 JUMPI PUSH2 0x415 PUSH2 0x63D CALLDATASIZE PUSH1 0x4 PUSH2 0x5D0 JUMP JUMPDEST SWAP4 SWAP3 SWAP1 SWAP3 PUSH2 0x2828 JUMP JUMPDEST SWAP1 SWAP6 SWAP5 SWAP3 PUSH2 0x29B SWAP5 PUSH2 0x678 PUSH2 0x36E SWAP3 PUSH2 0x671 PUSH1 0x80 SWAP7 PUSH2 0x66A PUSH1 0xA0 DUP9 ADD SWAP13 PUSH1 0x0 DUP10 ADD MSTORE JUMP JUMPDEST PUSH1 0x20 DUP8 ADD MSTORE JUMP JUMPDEST PUSH1 0x40 DUP6 ADD MSTORE JUMP JUMPDEST PUSH1 0x60 DUP4 ADD MSTORE JUMP JUMPDEST CALLVALUE PUSH2 0x268 JUMPI PUSH2 0x68F CALLDATASIZE PUSH1 0x4 PUSH2 0x3A7 JUMP JUMPDEST PUSH2 0x3A3 PUSH2 0x69A PUSH2 0x3051 JUMP JUMPDEST SWAP2 PUSH2 0x6A7 SWAP6 SWAP4 SWAP6 PUSH1 0x40 MLOAD SWAP1 JUMP JUMPDEST SWAP6 DUP7 SWAP6 DUP7 PUSH2 0x646 JUMP JUMPDEST CALLVALUE PUSH2 0x268 JUMPI PUSH2 0x415 PUSH2 0x6C3 CALLDATASIZE PUSH1 0x4 PUSH2 0x29D JUMP JUMPDEST PUSH2 0x2964 JUMP JUMPDEST PUSH2 0x279 PUSH1 0x64 PUSH2 0x3B2 JUMP JUMPDEST PUSH2 0x279 PUSH2 0x6C8 JUMP JUMPDEST CALLVALUE PUSH2 0x268 JUMPI PUSH2 0x6EA CALLDATASIZE PUSH1 0x4 PUSH2 0x3A7 JUMP JUMPDEST PUSH2 0x3A3 PUSH2 0x3EC PUSH2 0x6D2 JUMP JUMPDEST PUSH2 0x279 PUSH2 0x3E8 PUSH2 0x3B2 JUMP JUMPDEST PUSH2 0x279 PUSH2 0x6F5 JUMP JUMPDEST CALLVALUE PUSH2 0x268 JUMPI PUSH2 0x718 CALLDATASIZE PUSH1 0x4 PUSH2 0x3A7 JUMP JUMPDEST PUSH2 0x3A3 PUSH2 0x3EC PUSH2 0x700 JUMP JUMPDEST PUSH4 0x4E487B71 PUSH1 0xE0 SHL PUSH1 0x0 MSTORE PUSH1 0x32 PUSH1 0x4 MSTORE PUSH1 0x24 PUSH1 0x0 REVERT JUMPDEST DUP1 SLOAD DUP3 LT ISZERO PUSH2 0x75C JUMPI PUSH2 0x753 PUSH1 0x1 SWAP2 PUSH1 0x0 MSTORE PUSH1 0x20 PUSH1 0x0 KECCAK256 SWAP1 JUMP JUMPDEST SWAP2 MUL ADD SWAP1 PUSH1 0x0 SWAP1 JUMP JUMPDEST PUSH2 0x723 JUMP JUMPDEST PUSH2 0x279 SWAP2 PUSH1 0x8 MUL SHR PUSH2 0x26D JUMP JUMPDEST SWAP1 PUSH2 0x279 SWAP2 SLOAD PUSH2 0x761 JUMP JUMPDEST PUSH1 0xC PUSH1 0x0 PUSH2 0x785 DUP3 SLOAD SWAP1 JUMP JUMPDEST DUP4 LT ISZERO PUSH2 0x7A0 JUMPI POP PUSH2 0x279 SWAP2 PUSH2 0x79A SWAP2 PUSH2 0x739 JUMP JUMPDEST SWAP1 PUSH2 0x76E JUMP JUMPDEST DUP1 REVERT JUMPDEST CALLVALUE PUSH2 0x268 JUMPI PUSH2 0x3A3 PUSH2 0x7BE PUSH2 0x7B9 CALLDATASIZE PUSH1 0x4 PUSH2 0x574 JUMP JUMPDEST PUSH2 0x779 JUMP JUMPDEST PUSH1 0x40 MLOAD SWAP2 DUP3 SWAP2 DUP3 PUSH1 0x1 PUSH1 0x1 PUSH1 0xA0 SHL SUB SWAP1 SWAP2 AND DUP2 MSTORE PUSH1 0x20 ADD SWAP1 JUMP JUMPDEST PUSH2 0x279 PUSH2 0x1B58 PUSH2 0x3B2 JUMP JUMPDEST PUSH2 0x279 PUSH2 0x7D8 JUMP JUMPDEST CALLVALUE PUSH2 0x268 JUMPI PUSH2 0x7FB CALLDATASIZE PUSH1 0x4 PUSH2 0x3A7 JUMP JUMPDEST PUSH2 0x3A3 PUSH2 0x3EC PUSH2 0x7E3 JUMP JUMPDEST PUSH2 0x279 SWAP2 PUSH1 0x8 MUL SHR PUSH2 0x432 JUMP JUMPDEST SWAP1 PUSH2 0x279 SWAP2 SLOAD PUSH2 0x806 JUMP JUMPDEST PUSH2 0x279 SWAP1 PUSH2 0x830 PUSH1 0x3 SWAP2 PUSH1 0x0 SWAP3 PUSH2 0x2D9 JUMP JUMPDEST PUSH2 0x813 JUMP JUMPDEST CALLVALUE PUSH2 0x268 JUMPI PUSH2 0x3A3 PUSH2 0x850 PUSH2 0x84B CALLDATASIZE PUSH1 0x4 PUSH2 0x29D JUMP JUMPDEST PUSH2 0x81E JUMP JUMPDEST PUSH1 0x40 MLOAD SWAP2 DUP3 SWAP2 DUP3 SWAP1 ISZERO ISZERO DUP2 MSTORE PUSH1 0x20 ADD SWAP1 JUMP JUMPDEST CALLVALUE PUSH2 0x268 JUMPI PUSH2 0x872 CALLDATASIZE PUSH1 0x4 PUSH2 0x3A7 JUMP JUMPDEST PUSH2 0x415 PUSH2 0x10C6 JUMP JUMPDEST SWAP1 PUSH1 0x20 DUP3 DUP3 SUB SLT PUSH2 0x268 JUMPI DUP2 CALLDATALOAD PUSH8 0xFFFFFFFFFFFFFFFF DUP2 GT PUSH2 0x268 JUMPI PUSH2 0x626 SWAP3 ADD PUSH2 0x5A0 JUMP JUMPDEST CALLVALUE PUSH2 0x268 JUMPI PUSH2 0x415 PUSH2 0x8B3 CALLDATASIZE PUSH1 0x4 PUSH2 0x87A JUMP JUMPDEST SWAP1 PUSH2 0x2168 JUMP JUMPDEST SWAP1 SWAP6 SWAP5 SWAP3 PUSH2 0x29B SWAP5 PUSH2 0x678 PUSH2 0x8E8 SWAP3 PUSH2 0x671 PUSH1 0x80 SWAP7 PUSH2 0x66A PUSH1 0xA0 DUP9 ADD SWAP13 PUSH1 0x0 DUP10 ADD SWAP1 PUSH1 0x1 PUSH1 0x1 PUSH1 0xA0 SHL SUB AND SWAP1 MSTORE JUMP JUMPDEST ADD SWAP1 ISZERO ISZERO SWAP1 MSTORE JUMP JUMPDEST CALLVALUE PUSH2 0x268 JUMPI PUSH2 0x900 CALLDATASIZE PUSH1 0x4 PUSH2 0x3A7 JUMP JUMPDEST PUSH2 0x3A3 PUSH2 0x90B PUSH2 0x2EC7 JUMP JUMPDEST SWAP2 PUSH2 0x918 SWAP6 SWAP4 SWAP6 PUSH1 0x40 MLOAD SWAP1 JUMP JUMPDEST SWAP6 DUP7 SWAP6 DUP7 PUSH2 0x8B9 JUMP JUMPDEST CALLVALUE PUSH2 0x268 JUMPI PUSH2 0x415 PUSH2 0x934 CALLDATASIZE PUSH1 0x4 PUSH2 0x574 JUMP JUMPDEST PUSH2 0x1862 JUMP JUMPDEST PUSH2 0x279 SWAP2 PUSH1 0x8 MUL SHR DUP2 JUMP JUMPDEST SWAP1 PUSH2 0x279 SWAP2 SLOAD PUSH2 0x939 JUMP JUMPDEST PUSH2 0x279 PUSH1 0x0 PUSH1 0xD PUSH2 0x944 JUMP JUMPDEST CALLVALUE PUSH2 0x268 JUMPI PUSH2 0x96B CALLDATASIZE PUSH1 0x4 PUSH2 0x3A7 JUMP JUMPDEST PUSH2 0x3A3 PUSH2 0x3EC PUSH2 0x94F JUMP JUMPDEST PUSH2 0x279 PUSH2 0x2710 PUSH2 0x3B2 JUMP JUMPDEST PUSH2 0x279 PUSH2 0x976 JUMP JUMPDEST CALLVALUE PUSH2 0x268 JUMPI PUSH2 0x999 CALLDATASIZE PUSH1 0x4 PUSH2 0x3A7 JUMP JUMPDEST PUSH2 0x3A3 PUSH2 0x3EC PUSH2 0x981 JUMP JUMPDEST CALLVALUE PUSH2 0x268 JUMPI PUSH2 0x9B4 CALLDATASIZE PUSH1 0x4 PUSH2 0x3A7 JUMP JUMPDEST PUSH2 0x3A3 PUSH2 0x7BE PUSH2 0x1084 JUMP JUMPDEST PUSH2 0x279 PUSH1 0x0 PUSH1 0xE PUSH2 0x944 JUMP JUMPDEST CALLVALUE PUSH2 0x268 JUMPI PUSH2 0x9DB CALLDATASIZE PUSH1 0x4 PUSH2 0x3A7 JUMP JUMPDEST PUSH2 0x3A3 PUSH2 0x3EC PUSH2 0x9BF JUMP JUMPDEST PUSH2 0x33D SWAP1 PUSH2 0x2D0 JUMP JUMPDEST PUSH1 0x20 DUP2 ADD SWAP3 SWAP2 PUSH2 0x29B SWAP2 SWAP1 PUSH2 0x9E6 JUMP JUMPDEST CALLVALUE PUSH2 0x268 JUMPI PUSH2 0xA0F CALLDATASIZE PUSH1 0x4 PUSH2 0x3A7 JUMP JUMPDEST PUSH1 0x40 MLOAD DUP1 PUSH2 0x3A3 PUSH32 0x0 DUP3 PUSH2 0x9EF JUMP JUMPDEST SWAP2 SWAP1 PUSH1 0xA0 DUP4 DUP3 SUB SLT PUSH2 0x268 JUMPI PUSH2 0xA53 DUP2 DUP5 PUSH2 0x28E JUMP JUMPDEST SWAP3 PUSH2 0xA61 DUP3 PUSH1 0x20 DUP4 ADD PUSH2 0x567 JUMP JUMPDEST SWAP3 PUSH2 0x279 PUSH2 0xA72 DUP5 PUSH1 0x40 DUP6 ADD PUSH2 0x567 JUMP JUMPDEST SWAP4 PUSH2 0xA80 DUP2 PUSH1 0x60 DUP7 ADD PUSH2 0x567 JUMP JUMPDEST SWAP4 PUSH1 0x80 ADD PUSH2 0x567 JUMP JUMPDEST CALLVALUE PUSH2 0x268 JUMPI PUSH2 0x415 PUSH2 0xA9C CALLDATASIZE PUSH1 0x4 PUSH2 0xA3D JUMP JUMPDEST SWAP4 SWAP3 SWAP1 SWAP3 PUSH2 0x2AAD JUMP JUMPDEST CALLVALUE PUSH2 0x268 JUMPI PUSH2 0x3A3 PUSH2 0x850 PUSH2 0xABB CALLDATASIZE PUSH1 0x4 PUSH2 0x29D JUMP JUMPDEST PUSH2 0x30D4 JUMP JUMPDEST CALLVALUE PUSH2 0x268 JUMPI PUSH2 0x3A3 PUSH2 0x69A PUSH2 0xAD6 CALLDATASIZE PUSH1 0x4 PUSH2 0x29D JUMP JUMPDEST PUSH2 0x3009 JUMP JUMPDEST DUP1 SLOAD DUP3 LT ISZERO PUSH2 0x75C JUMPI PUSH2 0x753 PUSH1 0x5 SWAP2 PUSH1 0x0 MSTORE PUSH1 0x20 PUSH1 0x0 KECCAK256 SWAP1 JUMP JUMPDEST PUSH4 0x4E487B71 PUSH1 0xE0 SHL PUSH1 0x0 MSTORE PUSH1 0x22 PUSH1 0x4 MSTORE PUSH1 0x24 PUSH1 0x0 REVERT JUMPDEST SWAP1 PUSH1 0x1 PUSH1 0x2 DUP4 DIV SWAP3 AND DUP1 ISZERO PUSH2 0xB2B JUMPI JUMPDEST PUSH1 0x20 DUP4 LT EQ PUSH2 0xB26 JUMPI JUMP JUMPDEST PUSH2 0xAF5 JUMP JUMPDEST SWAP2 PUSH1 0x7F AND SWAP2 PUSH2 0xB1B JUMP JUMPDEST DUP1 SLOAD PUSH1 0x0 SWAP4 SWAP3 SWAP2 PUSH2 0xB52 PUSH2 0xB48 DUP4 PUSH2 0xB0B JUMP JUMPDEST DUP1 DUP6 MSTORE SWAP4 PUSH1 0x20 ADD SWAP1 JUMP JUMPDEST SWAP2 PUSH1 0x1 DUP2 AND SWAP1 DUP2 ISZERO PUSH2 0xBA4 JUMPI POP PUSH1 0x1 EQ PUSH2 0xB6B JUMPI POP POP POP JUMP JUMPDEST PUSH2 0xB7E SWAP2 SWAP3 SWAP4 SWAP5 POP PUSH1 0x0 MSTORE PUSH1 0x20 PUSH1 0x0 KECCAK256 SWAP1 JUMP JUMPDEST SWAP2 PUSH1 0x0 SWAP3 JUMPDEST DUP2 DUP5 LT PUSH2 0xB90 JUMPI POP POP ADD SWAP1 JUMP JUMPDEST DUP1 SLOAD DUP5 DUP5 ADD MSTORE PUSH1 0x20 SWAP1 SWAP4 ADD SWAP3 PUSH1 0x1 ADD PUSH2 0xB83 JUMP JUMPDEST SWAP3 SWAP5 SWAP6 POP POP POP PUSH1 0xFF NOT AND DUP3 MSTORE ISZERO ISZERO PUSH1 0x20 MUL ADD SWAP1 JUMP JUMPDEST SWAP1 PUSH2 0x279 SWAP2 PUSH2 0xB35 JUMP JUMPDEST PUSH4 0x4E487B71 PUSH1 0xE0 SHL PUSH1 0x0 MSTORE PUSH1 0x41 PUSH1 0x4 MSTORE PUSH1 0x24 PUSH1 0x0 REVERT JUMPDEST SWAP1 PUSH1 0x1F ADD PUSH1 0x1F NOT AND DUP2 ADD SWAP1 DUP2 LT PUSH8 0xFFFFFFFFFFFFFFFF DUP3 GT OR PUSH2 0xBFB JUMPI PUSH1 0x40 MSTORE JUMP JUMPDEST PUSH2 0xBC3 JUMP JUMPDEST SWAP1 PUSH2 0x29B PUSH2 0xC1A SWAP3 PUSH2 0xC11 PUSH1 0x40 MLOAD SWAP1 JUMP JUMPDEST SWAP4 DUP5 DUP1 SWAP3 PUSH2 0xBB9 JUMP JUMPDEST SUB DUP4 PUSH2 0xBD9 JUMP JUMPDEST SWAP1 PUSH1 0xB SWAP2 PUSH1 0x0 SWAP3 PUSH2 0xC30 DUP2 SLOAD SWAP1 JUMP JUMPDEST DUP3 LT ISZERO PUSH2 0xC7F JUMPI PUSH2 0xC42 SWAP3 SWAP4 POP PUSH2 0xADB JUMP JUMPDEST POP PUSH2 0xC4C DUP2 PUSH2 0x423 JUMP JUMPDEST SWAP2 PUSH2 0xC59 PUSH1 0x1 DUP4 ADD PUSH2 0x2F8 JUMP JUMPDEST SWAP2 PUSH2 0xC66 PUSH1 0x2 DUP3 ADD PUSH2 0xC00 JUMP JUMPDEST SWAP2 PUSH2 0x279 PUSH1 0x4 PUSH2 0xC78 PUSH1 0x3 DUP6 ADD PUSH2 0x2F8 JUMP JUMPDEST SWAP4 ADD PUSH2 0xC00 JUMP JUMPDEST DUP4 DUP1 REVERT JUMPDEST PUSH1 0x0 JUMPDEST DUP4 DUP2 LT PUSH2 0xC96 JUMPI POP POP PUSH1 0x0 SWAP2 ADD MSTORE JUMP JUMPDEST DUP2 DUP2 ADD MLOAD DUP4 DUP3 ADD MSTORE PUSH1 0x20 ADD PUSH2 0xC86 JUMP JUMPDEST PUSH2 0xCC7 PUSH2 0xCD0 PUSH1 0x20 SWAP4 PUSH2 0xCDA SWAP4 PUSH2 0xCBB DUP2 MLOAD SWAP1 JUMP JUMPDEST DUP1 DUP4 MSTORE SWAP4 DUP5 SWAP3 PUSH1 0x20 ADD SWAP1 JUMP JUMPDEST SWAP6 DUP7 SWAP2 ADD PUSH2 0xC83 JUMP JUMPDEST PUSH1 0x1F ADD PUSH1 0x1F NOT AND SWAP1 JUMP JUMPDEST ADD SWAP1 JUMP JUMPDEST SWAP2 PUSH2 0xD1E SWAP2 PUSH2 0x279 SWAP7 SWAP5 PUSH2 0xD09 PUSH2 0xD16 SWAP4 PUSH2 0x66A PUSH1 0xA0 DUP9 ADD SWAP5 PUSH1 0x0 DUP10 ADD SWAP1 PUSH1 0x1 PUSH1 0x1 PUSH1 0xA0 SHL SUB AND SWAP1 MSTORE JUMP JUMPDEST DUP5 DUP3 SUB PUSH1 0x40 DUP7 ADD MSTORE PUSH2 0xCA6 JUMP JUMPDEST SWAP4 PUSH1 0x60 DUP4 ADD MSTORE JUMP JUMPDEST PUSH1 0x80 DUP2 DUP5 SUB SWAP2 ADD MSTORE PUSH2 0xCA6 JUMP JUMPDEST CALLVALUE PUSH2 0x268 JUMPI PUSH2 0x3A3 PUSH2 0xD46 PUSH2 0xD41 CALLDATASIZE PUSH1 0x4 PUSH2 0x574 JUMP JUMPDEST PUSH2 0xC21 JUMP JUMPDEST SWAP2 PUSH2 0xD53 SWAP6 SWAP4 SWAP6 PUSH1 0x40 MLOAD SWAP1 JUMP JUMPDEST SWAP6 DUP7 SWAP6 DUP7 PUSH2 0xCDE JUMP JUMPDEST PUSH2 0x279 PUSH1 0x15 PUSH2 0x3B2 JUMP JUMPDEST PUSH2 0x279 PUSH2 0xD5C JUMP JUMPDEST CALLVALUE PUSH2 0x268 JUMPI PUSH2 0xD7E CALLDATASIZE PUSH1 0x4 PUSH2 0x3A7 JUMP JUMPDEST PUSH2 0x3A3 PUSH2 0x3EC PUSH2 0xD66 JUMP JUMPDEST PUSH2 0x279 PUSH10 0xA968163F0A57B400000 PUSH2 0x3B2 JUMP JUMPDEST PUSH2 0x279 PUSH2 0xD89 JUMP JUMPDEST CALLVALUE PUSH2 0x268 JUMPI PUSH2 0xDB4 CALLDATASIZE PUSH1 0x4 PUSH2 0x3A7 JUMP JUMPDEST PUSH2 0x3A3 PUSH2 0x3EC PUSH2 0xD9C JUMP JUMPDEST DUP1 MLOAD PUSH1 0x1 PUSH1 0x1 PUSH1 0xA0 SHL SUB AND DUP3 MSTORE PUSH2 0x279 SWAP2 PUSH1 0x80 PUSH2 0xDFA PUSH1 0xA0 DUP4 ADD PUSH2 0xDE8 PUSH1 0x20 DUP7 ADD MLOAD PUSH1 0x20 DUP7 ADD MSTORE JUMP JUMPDEST PUSH1 0x40 DUP6 ADD MLOAD DUP5 DUP3 SUB PUSH1 0x40 DUP7 ADD MSTORE PUSH2 0xCA6 JUMP JUMPDEST SWAP3 PUSH2 0xE0A PUSH1 0x60 DUP3 ADD MLOAD PUSH1 0x60 DUP6 ADD MSTORE JUMP JUMPDEST ADD MLOAD SWAP1 PUSH1 0x80 DUP2 DUP5 SUB SWAP2 ADD MSTORE PUSH2 0xCA6 JUMP JUMPDEST SWAP1 PUSH2 0x279 SWAP2 PUSH2 0xDBF JUMP JUMPDEST SWAP1 PUSH2 0xE3A PUSH2 0xE30 DUP4 MLOAD SWAP1 JUMP JUMPDEST DUP1 DUP4 MSTORE SWAP2 PUSH1 0x20 ADD SWAP1 JUMP JUMPDEST SWAP1 DUP2 PUSH2 0xE4C PUSH1 0x20 DUP4 MUL DUP5 ADD SWAP5 PUSH1 0x20 ADD SWAP1 JUMP JUMPDEST SWAP3 PUSH1 0x0 SWAP2 JUMPDEST DUP4 DUP4 LT PUSH2 0xE60 JUMPI POP POP POP POP POP SWAP1 JUMP JUMPDEST SWAP1 SWAP2 SWAP3 SWAP4 SWAP5 PUSH1 0x20 PUSH2 0xE83 PUSH2 0xE7C DUP4 DUP6 PUSH1 0x1 SWAP6 SUB DUP8 MSTORE DUP10 MLOAD PUSH2 0xE1A JUMP JUMPDEST SWAP8 PUSH1 0x20 ADD SWAP1 JUMP JUMPDEST SWAP4 ADD SWAP4 ADD SWAP2 SWAP4 SWAP3 SWAP1 PUSH2 0xE51 JUMP JUMPDEST PUSH1 0x20 DUP1 DUP3 MSTORE PUSH2 0x279 SWAP3 SWAP2 ADD SWAP1 PUSH2 0xE24 JUMP JUMPDEST CALLVALUE PUSH2 0x268 JUMPI PUSH2 0xEB1 CALLDATASIZE PUSH1 0x4 PUSH2 0x3A7 JUMP JUMPDEST PUSH2 0x3A3 PUSH2 0xEBC PUSH2 0x31EC JUMP JUMPDEST PUSH1 0x40 MLOAD SWAP2 DUP3 SWAP2 DUP3 PUSH2 0xE90 JUMP JUMPDEST CALLVALUE PUSH2 0x268 JUMPI PUSH2 0x415 PUSH2 0xEDB CALLDATASIZE PUSH1 0x4 PUSH2 0x574 JUMP JUMPDEST PUSH2 0x1B0C JUMP JUMPDEST PUSH1 0x6 SWAP1 PUSH2 0xEEC DUP3 PUSH2 0x2F8 JUMP JUMPDEST SWAP2 PUSH2 0xEF9 PUSH1 0x1 DUP3 ADD PUSH2 0x2F8 JUMP JUMPDEST SWAP2 PUSH2 0x279 PUSH1 0x4 PUSH2 0x336 PUSH1 0x2 DUP6 ADD PUSH2 0x423 JUMP JUMPDEST PUSH2 0x36E PUSH2 0x29B SWAP5 PUSH2 0xF2A PUSH1 0x60 SWAP5 SWAP9 SWAP8 SWAP6 PUSH2 0x360 PUSH1 0x80 DUP7 ADD SWAP11 PUSH1 0x0 DUP8 ADD MSTORE JUMP JUMPDEST PUSH1 0x1 PUSH1 0x1 PUSH1 0xA0 SHL SUB AND PUSH1 0x40 DUP4 ADD MSTORE JUMP JUMPDEST CALLVALUE PUSH2 0x268 JUMPI PUSH2 0xF4A CALLDATASIZE PUSH1 0x4 PUSH2 0x3A7 JUMP JUMPDEST PUSH2 0x3A3 PUSH2 0xF55 PUSH2 0xEE0 JUMP JUMPDEST SWAP1 PUSH2 0xF62 SWAP5 SWAP3 SWAP5 PUSH1 0x40 MLOAD SWAP1 JUMP JUMPDEST SWAP5 DUP6 SWAP5 DUP6 PUSH2 0xF0B JUMP JUMPDEST PUSH2 0x279 PUSH2 0x26AC PUSH2 0x3B2 JUMP JUMPDEST PUSH2 0x279 PUSH2 0xF6B JUMP JUMPDEST CALLVALUE PUSH2 0x268 JUMPI PUSH2 0xF8E CALLDATASIZE PUSH1 0x4 PUSH2 0x3A7 JUMP JUMPDEST PUSH2 0x3A3 PUSH2 0x3EC PUSH2 0xF76 JUMP JUMPDEST CALLVALUE PUSH2 0x268 JUMPI PUSH2 0x415 PUSH2 0xFAC CALLDATASIZE PUSH1 0x4 PUSH2 0x29D JUMP JUMPDEST PUSH2 0x11C3 JUMP JUMPDEST SWAP1 PUSH2 0xFD1 PUSH2 0xFCA PUSH2 0xFC0 DUP5 MLOAD SWAP1 JUMP JUMPDEST DUP1 DUP5 MSTORE SWAP3 PUSH1 0x20 ADD SWAP1 JUMP JUMPDEST SWAP3 PUSH1 0x20 ADD SWAP1 JUMP JUMPDEST SWAP1 PUSH1 0x0 JUMPDEST DUP2 DUP2 LT PUSH2 0xFE2 JUMPI POP POP POP SWAP1 JUMP JUMPDEST SWAP1 SWAP2 SWAP3 PUSH2 0x1008 PUSH2 0x1001 PUSH1 0x1 SWAP3 DUP7 MLOAD PUSH1 0x1 PUSH1 0x1 PUSH1 0xA0 SHL SUB AND DUP2 MSTORE PUSH1 0x20 ADD SWAP1 JUMP JUMPDEST SWAP5 PUSH1 0x20 ADD SWAP1 JUMP JUMPDEST SWAP3 SWAP2 ADD PUSH2 0xFD5 JUMP JUMPDEST PUSH1 0x20 DUP1 DUP3 MSTORE PUSH2 0x279 SWAP3 SWAP2 ADD SWAP1 PUSH2 0xFB1 JUMP JUMPDEST CALLVALUE PUSH2 0x268 JUMPI PUSH2 0x1031 CALLDATASIZE PUSH1 0x4 PUSH2 0x3A7 JUMP JUMPDEST PUSH2 0x3A3 PUSH2 0x103C PUSH2 0x2FAF JUMP JUMPDEST PUSH1 0x40 MLOAD SWAP2 DUP3 SWAP2 DUP3 PUSH2 0x1010 JUMP JUMPDEST SWAP1 PUSH2 0x2E3 SWAP1 PUSH2 0x3B2 JUMP JUMPDEST PUSH2 0x279 SWAP1 PUSH2 0x1064 PUSH1 0x4 SWAP2 PUSH1 0x0 SWAP3 PUSH2 0x1048 JUMP JUMPDEST PUSH2 0x76E JUMP JUMPDEST CALLVALUE PUSH2 0x268 JUMPI PUSH2 0x3A3 PUSH2 0x7BE PUSH2 0x107F CALLDATASIZE PUSH1 0x4 PUSH2 0x574 JUMP JUMPDEST PUSH2 0x1052 JUMP JUMPDEST PUSH2 0x279 PUSH1 0x1 PUSH2 0x423 JUMP JUMPDEST PUSH2 0x1096 PUSH2 0x10CE JUMP JUMPDEST PUSH2 0x29B PUSH2 0x10B4 JUMP JUMPDEST PUSH2 0x26D PUSH2 0x279 PUSH2 0x279 SWAP3 SWAP1 JUMP JUMPDEST PUSH2 0x279 SWAP1 PUSH2 0x109E JUMP JUMPDEST PUSH2 0x29B PUSH2 0x10C1 PUSH1 0x0 PUSH2 0x10AB JUMP JUMPDEST PUSH2 0x11FC JUMP JUMPDEST PUSH2 0x29B PUSH2 0x108E JUMP JUMPDEST PUSH2 0x10D6 PUSH2 0x1084 JUMP JUMPDEST CALLER SWAP1 PUSH2 0x10EA DUP3 JUMPDEST SWAP2 PUSH1 0x1 PUSH1 0x1 PUSH1 0xA0 SHL SUB AND SWAP1 JUMP JUMPDEST SUB PUSH2 0x10F2 JUMPI POP JUMP JUMPDEST PUSH2 0x113C SWAP1 PUSH2 0x10FF PUSH1 0x40 MLOAD SWAP1 JUMP JUMPDEST SWAP2 DUP3 SWAP2 PUSH32 0x118CDAA700000000000000000000000000000000000000000000000000000000 DUP4 MSTORE PUSH1 0x4 DUP4 ADD PUSH1 0x1 PUSH1 0x1 PUSH1 0xA0 SHL SUB SWAP1 SWAP2 AND DUP2 MSTORE PUSH1 0x20 ADD SWAP1 JUMP JUMPDEST SUB SWAP1 REVERT JUMPDEST PUSH2 0x29B SWAP1 PUSH2 0x114C PUSH2 0x10CE JUMP JUMPDEST PUSH2 0x1156 PUSH1 0x0 PUSH2 0x10AB JUMP JUMPDEST PUSH1 0x1 PUSH1 0x1 PUSH1 0xA0 SHL SUB DUP2 AND PUSH1 0x1 PUSH1 0x1 PUSH1 0xA0 SHL SUB DUP4 AND EQ PUSH2 0x1179 JUMPI POP PUSH2 0x29B SWAP1 PUSH2 0x11FC JUMP JUMPDEST PUSH2 0x113C SWAP1 PUSH2 0x1186 PUSH1 0x40 MLOAD SWAP1 JUMP JUMPDEST SWAP2 DUP3 SWAP2 PUSH32 0x1E4FBDF700000000000000000000000000000000000000000000000000000000 DUP4 MSTORE PUSH1 0x4 DUP4 ADD PUSH1 0x1 PUSH1 0x1 PUSH1 0xA0 SHL SUB SWAP1 SWAP2 AND DUP2 MSTORE PUSH1 0x20 ADD SWAP1 JUMP JUMPDEST PUSH2 0x29B SWAP1 PUSH2 0x1140 JUMP JUMPDEST SWAP1 PUSH1 0x1 PUSH1 0x1 PUSH1 0xA0 SHL SUB SWAP1 JUMPDEST SWAP2 DUP2 NOT AND SWAP2 AND OR SWAP1 JUMP JUMPDEST SWAP1 PUSH2 0x11F1 PUSH2 0x279 PUSH2 0x11F8 SWAP3 PUSH2 0x2D0 JUMP JUMPDEST DUP3 SLOAD PUSH2 0x11CC JUMP JUMPDEST SWAP1 SSTORE JUMP JUMPDEST PUSH2 0x1206 PUSH1 0x1 PUSH2 0x423 JUMP JUMPDEST SWAP1 PUSH2 0x1212 DUP2 PUSH1 0x1 PUSH2 0x11E1 JUMP JUMPDEST PUSH2 0x1245 PUSH2 0x123F PUSH32 0x8BE0079C531659141344CD1FD0A4F28419497F9722A3DAAFE3B4186F6B6457E0 SWAP4 PUSH2 0x2D0 JUMP JUMPDEST SWAP2 PUSH2 0x2D0 JUMP JUMPDEST SWAP2 PUSH2 0x124F PUSH1 0x40 MLOAD SWAP1 JUMP JUMPDEST DUP1 DUP1 JUMPDEST SUB SWAP1 LOG3 JUMP JUMPDEST PUSH2 0x1268 SWAP1 PUSH2 0x1263 PUSH2 0x1875 JUMP JUMPDEST PUSH2 0x15ED JUMP JUMPDEST PUSH2 0x29B PUSH2 0x18CE JUMP JUMPDEST ISZERO PUSH2 0x1277 JUMPI JUMP JUMPDEST PUSH1 0x40 MLOAD PUSH3 0x461BCD PUSH1 0xE5 SHL DUP2 MSTORE PUSH1 0x20 PUSH1 0x4 DUP3 ADD MSTORE PUSH1 0x12 PUSH1 0x24 DUP3 ADD MSTORE PUSH32 0x416C726561647920726567697374657265640000000000000000000000000000 PUSH1 0x44 DUP3 ADD MSTORE PUSH1 0x64 SWAP1 REVERT JUMPDEST ISZERO PUSH2 0x12C3 JUMPI JUMP JUMPDEST PUSH1 0x40 MLOAD PUSH3 0x461BCD PUSH1 0xE5 SHL DUP2 MSTORE PUSH1 0x20 PUSH1 0x4 DUP3 ADD MSTORE PUSH1 0x12 PUSH1 0x24 DUP3 ADD MSTORE PUSH32 0x496E73756666696369656E74207374616B650000000000000000000000000000 PUSH1 0x44 DUP3 ADD MSTORE PUSH1 0x64 SWAP1 REVERT JUMPDEST ISZERO PUSH2 0x130F JUMPI JUMP JUMPDEST PUSH1 0x40 MLOAD PUSH3 0x461BCD PUSH1 0xE5 SHL DUP2 MSTORE PUSH1 0x20 PUSH1 0x4 DUP3 ADD MSTORE PUSH1 0x16 PUSH1 0x24 DUP3 ADD MSTORE PUSH32 0x4D61782073657175656E63657273207265616368656400000000000000000000 PUSH1 0x44 DUP3 ADD MSTORE PUSH1 0x64 SWAP1 REVERT JUMPDEST DUP1 ISZERO ISZERO PUSH2 0x287 JUMP JUMPDEST SWAP1 POP MLOAD SWAP1 PUSH2 0x29B DUP3 PUSH2 0x1354 JUMP JUMPDEST SWAP1 PUSH1 0x20 DUP3 DUP3 SUB SLT PUSH2 0x268 JUMPI PUSH2 0x279 SWAP2 PUSH2 0x135C JUMP JUMPDEST PUSH1 0x1 PUSH1 0x1 PUSH1 0xA0 SHL SUB SWAP2 DUP3 AND DUP2 MSTORE SWAP2 AND PUSH1 0x20 DUP3 ADD MSTORE PUSH1 0x60 DUP2 ADD SWAP3 SWAP2 PUSH2 0x29B SWAP2 PUSH1 0x40 ADD MSTORE JUMP JUMPDEST PUSH1 0x40 MLOAD RETURNDATASIZE PUSH1 0x0 DUP3 RETURNDATACOPY RETURNDATASIZE SWAP1 REVERT JUMPDEST ISZERO PUSH2 0x13B4 JUMPI JUMP JUMPDEST PUSH1 0x40 MLOAD PUSH3 0x461BCD PUSH1 0xE5 SHL DUP2 MSTORE PUSH1 0x20 PUSH1 0x4 DUP3 ADD MSTORE PUSH1 0x15 PUSH1 0x24 DUP3 ADD MSTORE PUSH32 0x5374616B65207472616E73666572206661696C65640000000000000000000000 PUSH1 0x44 DUP3 ADD MSTORE PUSH1 0x64 SWAP1 REVERT JUMPDEST SWAP1 PUSH2 0x29B PUSH2 0x1406 PUSH1 0x40 MLOAD SWAP1 JUMP JUMPDEST SWAP3 DUP4 PUSH2 0xBD9 JUMP JUMPDEST PUSH2 0x279 PUSH2 0x120 PUSH2 0x13F9 JUMP JUMPDEST PUSH4 0x4E487B71 PUSH1 0xE0 SHL PUSH1 0x0 MSTORE PUSH1 0x0 PUSH1 0x4 MSTORE PUSH1 0x24 PUSH1 0x0 REVERT JUMPDEST SWAP1 PUSH1 0x0 NOT SWAP1 PUSH2 0x11D7 JUMP JUMPDEST SWAP1 PUSH2 0x1448 PUSH2 0x279 PUSH2 0x11F8 SWAP3 PUSH2 0x3B2 JUMP JUMPDEST DUP3 SLOAD PUSH2 0x142E JUMP JUMPDEST SWAP1 PUSH1 0xFF SWAP1 PUSH2 0x11D7 JUMP JUMPDEST SWAP1 PUSH2 0x1468 PUSH2 0x279 PUSH2 0x11F8 SWAP3 ISZERO ISZERO SWAP1 JUMP JUMPDEST DUP3 SLOAD PUSH2 0x144F JUMP JUMPDEST SWAP1 PUSH2 0xFF00 SWAP1 PUSH1 0x8 SHL PUSH2 0x11D7 JUMP JUMPDEST SWAP1 PUSH2 0x148C PUSH2 0x279 PUSH2 0x11F8 SWAP3 ISZERO ISZERO SWAP1 JUMP JUMPDEST DUP3 SLOAD PUSH2 0x146F JUMP JUMPDEST PUSH2 0x29B SWAP2 SWAP1 PUSH2 0x154F SWAP1 PUSH2 0x100 SWAP1 PUSH1 0x7 SWAP1 PUSH2 0x14BE DUP2 PUSH2 0x14B8 DUP8 MLOAD PUSH1 0x1 PUSH1 0x1 PUSH1 0xA0 SHL SUB AND SWAP1 JUMP JUMPDEST SWAP1 PUSH2 0x11E1 JUMP JUMPDEST PUSH2 0x14D6 PUSH1 0x1 DUP3 ADD PUSH2 0x14D0 PUSH1 0x20 DUP9 ADD MLOAD SWAP1 JUMP JUMPDEST SWAP1 PUSH2 0x1438 JUMP JUMPDEST PUSH2 0x14E8 PUSH1 0x2 DUP3 ADD PUSH2 0x14D0 PUSH1 0x40 DUP9 ADD MLOAD SWAP1 JUMP JUMPDEST PUSH2 0x14FA PUSH1 0x3 DUP3 ADD PUSH2 0x14D0 PUSH1 0x60 DUP9 ADD MLOAD SWAP1 JUMP JUMPDEST PUSH2 0x150C PUSH1 0x4 DUP3 ADD PUSH2 0x14D0 PUSH1 0x80 DUP9 ADD MLOAD SWAP1 JUMP JUMPDEST PUSH2 0x151E PUSH1 0x5 DUP3 ADD PUSH2 0x14D0 PUSH1 0xA0 DUP9 ADD MLOAD SWAP1 JUMP JUMPDEST PUSH2 0x1530 PUSH1 0x6 DUP3 ADD PUSH2 0x14D0 PUSH1 0xC0 DUP9 ADD MLOAD SWAP1 JUMP JUMPDEST ADD SWAP3 PUSH2 0x1548 PUSH2 0x1542 PUSH1 0xE0 DUP4 ADD MLOAD ISZERO ISZERO SWAP1 JUMP JUMPDEST DUP6 PUSH2 0x1458 JUMP JUMPDEST ADD MLOAD ISZERO ISZERO SWAP1 JUMP JUMPDEST SWAP1 PUSH2 0x147C JUMP JUMPDEST SWAP1 PUSH2 0x29B SWAP2 PUSH2 0x1493 JUMP JUMPDEST SWAP2 SWAP1 PUSH1 0x8 PUSH2 0x11D7 SWAP2 MUL SWAP2 PUSH2 0x1579 PUSH1 0x1 PUSH1 0x1 PUSH1 0xA0 SHL SUB DUP5 SHL SWAP1 JUMP JUMPDEST SWAP3 SHL SWAP1 JUMP JUMPDEST SWAP2 SWAP1 PUSH2 0x158F PUSH2 0x279 PUSH2 0x11F8 SWAP4 PUSH2 0x2D0 JUMP JUMPDEST SWAP1 DUP4 SLOAD PUSH2 0x155F JUMP JUMPDEST SWAP1 DUP2 SLOAD SWAP2 PUSH9 0x10000000000000000 DUP4 LT ISZERO PUSH2 0xBFB JUMPI DUP3 PUSH2 0x15BF SWAP2 PUSH1 0x1 PUSH2 0x29B SWAP6 ADD DUP2 SSTORE PUSH2 0x739 JUMP JUMPDEST SWAP1 PUSH2 0x157E JUMP JUMPDEST PUSH4 0x4E487B71 PUSH1 0xE0 SHL PUSH1 0x0 MSTORE PUSH1 0x11 PUSH1 0x4 MSTORE PUSH1 0x24 PUSH1 0x0 REVERT JUMPDEST SWAP2 SWAP1 DUP3 ADD DUP1 SWAP3 GT PUSH2 0x15E8 JUMPI JUMP JUMPDEST PUSH2 0x15C5 JUMP JUMPDEST CALLER PUSH1 0x3 PUSH2 0x1611 PUSH2 0x160C PUSH2 0x1608 PUSH2 0x1603 DUP6 DUP6 PUSH2 0x2D9 JUMP JUMPDEST PUSH2 0x438 JUMP JUMPDEST ISZERO SWAP1 JUMP JUMPDEST PUSH2 0x1270 JUMP JUMPDEST PUSH2 0x1628 PUSH2 0x161F PUSH2 0x279 PUSH2 0xD89 JUMP JUMPDEST DUP5 JUMPDEST LT ISZERO PUSH2 0x12BC JUMP JUMPDEST DUP3 PUSH1 0x6 SWAP2 DUP1 DUP4 ADD SWAP3 PUSH2 0x1653 PUSH2 0x163B DUP6 SLOAD SWAP1 JUMP JUMPDEST PUSH2 0x164D PUSH2 0x1649 PUSH2 0x279 PUSH2 0xD5C JUMP JUMPDEST SWAP2 SWAP1 JUMP JUMPDEST LT PUSH2 0x1308 JUMP JUMPDEST PUSH1 0x20 PUSH2 0x167E PUSH32 0x0 PUSH2 0x2D0 JUMP JUMPDEST PUSH4 0x23B872DD SWAP1 PUSH2 0x16AC PUSH1 0x0 PUSH2 0x1692 ADDRESS PUSH2 0x2D0 JUMP JUMPDEST SWAP4 PUSH2 0x16B8 PUSH2 0x169F PUSH1 0x40 MLOAD SWAP1 JUMP JUMPDEST SWAP10 DUP11 SWAP7 DUP8 SWAP6 DUP7 SWAP5 PUSH1 0xE0 SHL SWAP1 JUMP JUMPDEST DUP5 MSTORE DUP14 PUSH1 0x4 DUP6 ADD PUSH2 0x137D JUMP JUMPDEST SUB SWAP3 GAS CALL SWAP3 DUP4 ISZERO PUSH2 0x185D JUMPI DUP6 SWAP4 PUSH2 0x16D7 SWAP2 PUSH1 0x0 SWAP2 PUSH2 0x182F JUMPI JUMPDEST POP PUSH2 0x13AD JUMP JUMPDEST PUSH2 0x2710 SWAP4 PUSH1 0x1 SWAP3 DUP4 SWAP1 PUSH1 0x0 NUMBER PUSH2 0x16EB PUSH2 0x140D JUMP JUMPDEST PUSH1 0x1 PUSH1 0x1 PUSH1 0xA0 SHL SUB DUP10 AND DUP4 DUP3 ADD MSTORE SWAP9 PUSH2 0x1705 DUP13 PUSH1 0x20 DUP13 ADD MSTORE JUMP JUMPDEST PUSH2 0x170E SWAP1 PUSH2 0x3B2 JUMP JUMPDEST PUSH1 0x40 DUP11 ADD MSTORE PUSH2 0x171C DUP3 PUSH2 0x3B2 JUMP JUMPDEST PUSH2 0x1727 DUP2 PUSH1 0x60 DUP13 ADD MSTORE JUMP JUMPDEST PUSH2 0x1732 DUP2 PUSH1 0x80 DUP13 ADD MSTORE JUMP JUMPDEST PUSH1 0xA0 DUP11 ADD MSTORE PUSH1 0xC0 DUP10 ADD MSTORE DUP3 ISZERO ISZERO PUSH1 0xE0 DUP10 ADD MSTORE ISZERO ISZERO PUSH2 0x100 DUP9 ADD MSTORE DUP6 PUSH1 0x2 SWAP8 PUSH2 0x175A DUP3 DUP11 PUSH2 0x2D9 JUMP JUMPDEST SWAP1 PUSH2 0x1764 SWAP2 PUSH2 0x1555 JUMP JUMPDEST PUSH2 0x176D SWAP2 PUSH2 0x2D9 JUMP JUMPDEST SWAP1 PUSH2 0x1777 SWAP2 PUSH2 0x1458 JUMP JUMPDEST PUSH2 0x1782 DUP5 PUSH1 0xC PUSH2 0x1597 JUMP JUMPDEST PUSH2 0x178C DUP5 DUP3 PUSH2 0x1597 JUMP JUMPDEST DUP7 PUSH2 0x1797 PUSH1 0xD PUSH2 0x2F8 JUMP JUMPDEST SWAP1 PUSH2 0x17A1 SWAP2 PUSH2 0x15DB JUMP JUMPDEST PUSH2 0x17AC SWAP1 PUSH1 0xD PUSH2 0x1438 JUMP JUMPDEST SLOAD PUSH2 0x17B6 DUP4 PUSH2 0x3B2 JUMP JUMPDEST EQ PUSH2 0x17FC JUMPI JUMPDEST POP POP POP POP PUSH2 0x17F7 PUSH2 0x17ED PUSH32 0x5C9C212B05F6FC5EFB85E88524F097F84E6944815D4973EB06C66A2BABD4A539 SWAP3 PUSH2 0x2D0 JUMP JUMPDEST SWAP3 PUSH2 0x3F0 PUSH1 0x40 MLOAD SWAP1 JUMP JUMPDEST SUB SWAP1 LOG2 JUMP JUMPDEST PUSH2 0x181B PUSH2 0x1821 SWAP3 PUSH2 0x1812 DUP6 PUSH2 0x1826 SWAP8 DUP6 ADD PUSH2 0x11E1 JUMP JUMPDEST PUSH1 0x4 SWAP3 ADD PUSH2 0x2F8 JUMP JUMPDEST SWAP1 PUSH2 0x1048 JUMP JUMPDEST PUSH2 0x11E1 JUMP JUMPDEST CODESIZE DUP2 DUP2 DUP1 PUSH2 0x17BC JUMP JUMPDEST PUSH2 0x1850 SWAP2 POP PUSH1 0x20 RETURNDATASIZE DUP2 GT PUSH2 0x1856 JUMPI JUMPDEST PUSH2 0x1848 DUP2 DUP4 PUSH2 0xBD9 JUMP JUMPDEST DUP2 ADD SWAP1 PUSH2 0x1369 JUMP JUMPDEST CODESIZE PUSH2 0x16D1 JUMP JUMPDEST POP RETURNDATASIZE PUSH2 0x183E JUMP JUMPDEST PUSH2 0x13A1 JUMP JUMPDEST PUSH2 0x29B SWAP1 PUSH2 0x1257 JUMP JUMPDEST PUSH2 0x279 PUSH1 0x2 PUSH2 0x3B2 JUMP JUMPDEST PUSH2 0x187F PUSH1 0x0 PUSH2 0x2F8 JUMP JUMPDEST PUSH2 0x1887 PUSH2 0x186B JUMP JUMPDEST SWAP1 DUP2 EQ PUSH2 0x1899 JUMPI PUSH2 0x29B SWAP1 PUSH1 0x0 PUSH2 0x1438 JUMP JUMPDEST PUSH1 0x40 MLOAD PUSH32 0x3EE5AEB500000000000000000000000000000000000000000000000000000000 DUP2 MSTORE PUSH1 0x4 SWAP1 REVERT JUMPDEST PUSH2 0x279 PUSH1 0x1 PUSH2 0x3B2 JUMP JUMPDEST PUSH2 0x29B PUSH2 0x18D9 PUSH2 0x18C4 JUMP JUMPDEST PUSH1 0x0 PUSH2 0x1438 JUMP JUMPDEST ISZERO PUSH2 0x18E7 JUMPI JUMP JUMPDEST PUSH1 0x40 MLOAD PUSH3 0x461BCD PUSH1 0xE5 SHL DUP2 MSTORE PUSH1 0x20 PUSH1 0x4 DUP3 ADD MSTORE PUSH1 0x1A PUSH1 0x24 DUP3 ADD MSTORE PUSH32 0x4E6F74206120726567697374657265642073657175656E636572000000000000 PUSH1 0x44 DUP3 ADD MSTORE PUSH1 0x64 SWAP1 REVERT JUMPDEST PUSH2 0x29B SWAP1 PUSH2 0x1946 PUSH2 0x1941 PUSH2 0x1603 CALLER PUSH1 0x3 PUSH2 0x2D9 JUMP JUMPDEST PUSH2 0x18E0 JUMP JUMPDEST PUSH2 0x1268 SWAP1 PUSH2 0x1952 PUSH2 0x1875 JUMP JUMPDEST PUSH2 0x19EF JUMP JUMPDEST ISZERO PUSH2 0x195E JUMPI JUMP JUMPDEST PUSH1 0x40 MLOAD PUSH3 0x461BCD PUSH1 0xE5 SHL DUP2 MSTORE PUSH1 0x20 PUSH1 0x4 DUP3 ADD MSTORE PUSH1 0xE PUSH1 0x24 DUP3 ADD MSTORE PUSH32 0x496E76616C696420616D6F756E74000000000000000000000000000000000000 PUSH1 0x44 DUP3 ADD MSTORE PUSH1 0x64 SWAP1 REVERT JUMPDEST ISZERO PUSH2 0x19AA JUMPI JUMP JUMPDEST PUSH1 0x40 MLOAD PUSH3 0x461BCD PUSH1 0xE5 SHL DUP2 MSTORE PUSH1 0x20 PUSH1 0x4 DUP3 ADD MSTORE PUSH1 0xF PUSH1 0x24 DUP3 ADD MSTORE PUSH32 0x5472616E73666572206661696C65640000000000000000000000000000000000 PUSH1 0x44 DUP3 ADD MSTORE PUSH1 0x64 SWAP1 REVERT JUMPDEST PUSH1 0x0 PUSH2 0x1A04 PUSH2 0x19FD DUP3 PUSH2 0x3B2 JUMP JUMPDEST DUP4 GT PUSH2 0x1957 JUMP JUMPDEST PUSH2 0x1A2D PUSH32 0x0 PUSH2 0x2D0 JUMP JUMPDEST SWAP1 DUP3 PUSH1 0x20 PUSH4 0x23B872DD CALLER SWAP5 PUSH2 0x1A5F DUP6 PUSH2 0x1A45 ADDRESS PUSH2 0x2D0 JUMP JUMPDEST SWAP4 PUSH2 0x1A6B PUSH2 0x1A52 PUSH1 0x40 MLOAD SWAP1 JUMP JUMPDEST SWAP8 DUP9 SWAP7 DUP8 SWAP6 DUP7 SWAP5 PUSH1 0xE0 SHL SWAP1 JUMP JUMPDEST DUP5 MSTORE DUP12 PUSH1 0x4 DUP6 ADD PUSH2 0x137D JUMP JUMPDEST SUB SWAP3 GAS CALL SWAP1 DUP2 ISZERO PUSH2 0x185D JUMPI PUSH2 0x1A86 SWAP3 SWAP2 PUSH2 0x1AEE JUMPI JUMPDEST POP PUSH2 0x19A3 JUMP JUMPDEST PUSH2 0x1AA9 PUSH1 0x1 PUSH2 0x1A96 DUP4 PUSH1 0x2 PUSH2 0x2D9 JUMP JUMPDEST ADD PUSH2 0x14D0 DUP5 PUSH2 0x1AA4 DUP4 PUSH2 0x2F8 JUMP JUMPDEST PUSH2 0x15DB JUMP JUMPDEST PUSH2 0x1AC1 PUSH2 0x1ABA DUP4 PUSH2 0x1AA4 PUSH1 0xD PUSH2 0x2F8 JUMP JUMPDEST PUSH1 0xD PUSH2 0x1438 JUMP JUMPDEST PUSH2 0x17F7 PUSH2 0x17ED PUSH32 0x8B0ED825817A2E696C9A931715AF4609FC60E1701F09C89EE7645130E937EB2D SWAP3 PUSH2 0x2D0 JUMP JUMPDEST PUSH2 0x1B06 SWAP2 POP PUSH1 0x20 RETURNDATASIZE DUP2 GT PUSH2 0x1856 JUMPI PUSH2 0x1848 DUP2 DUP4 PUSH2 0xBD9 JUMP JUMPDEST CODESIZE PUSH2 0x1A80 JUMP JUMPDEST PUSH2 0x29B SWAP1 PUSH2 0x192C JUMP JUMPDEST PUSH2 0x29B SWAP1 PUSH2 0x1B2A PUSH2 0x1941 PUSH2 0x1603 CALLER PUSH1 0x3 PUSH2 0x2D9 JUMP JUMPDEST PUSH2 0x1268 SWAP1 PUSH2 0x1B36 PUSH2 0x1875 JUMP JUMPDEST PUSH2 0x1C6C JUMP JUMPDEST ISZERO PUSH2 0x1B42 JUMPI JUMP JUMPDEST PUSH1 0x40 MLOAD PUSH3 0x461BCD PUSH1 0xE5 SHL DUP2 MSTORE PUSH1 0x20 PUSH1 0x4 DUP3 ADD MSTORE PUSH1 0x1C PUSH1 0x24 DUP3 ADD MSTORE PUSH32 0x43616E6E6F74207769746864726177207768696C652061637469766500000000 PUSH1 0x44 DUP3 ADD MSTORE PUSH1 0x64 SWAP1 REVERT JUMPDEST SWAP2 SWAP1 DUP3 SUB SWAP2 DUP3 GT PUSH2 0x15E8 JUMPI JUMP JUMPDEST ISZERO PUSH2 0x1B9B JUMPI JUMP JUMPDEST PUSH1 0x40 MLOAD PUSH3 0x461BCD PUSH1 0xE5 SHL DUP2 MSTORE PUSH1 0x20 PUSH1 0x4 DUP3 ADD MSTORE PUSH1 0x13 PUSH1 0x24 DUP3 ADD MSTORE PUSH32 0x42656C6F77206D696E696D756D207374616B6500000000000000000000000000 PUSH1 0x44 DUP3 ADD MSTORE PUSH1 0x64 SWAP1 REVERT JUMPDEST PUSH8 0xFFFFFFFFFFFFFFFF DUP2 GT PUSH2 0xBFB JUMPI PUSH1 0x20 SWAP1 PUSH1 0x1F ADD PUSH1 0x1F NOT AND ADD SWAP1 JUMP JUMPDEST SWAP1 PUSH2 0x1C0F PUSH2 0x1C0A DUP4 PUSH2 0x1BE0 JUMP JUMPDEST PUSH2 0x13F9 JUMP JUMPDEST SWAP2 DUP3 MSTORE JUMP JUMPDEST PUSH2 0x1C1E PUSH1 0xF PUSH2 0x1BFD JUMP JUMPDEST PUSH32 0x5374616B652077697468647261776E0000000000000000000000000000000000 PUSH1 0x20 DUP3 ADD MSTORE SWAP1 JUMP JUMPDEST PUSH2 0x279 PUSH2 0x1C14 JUMP JUMPDEST PUSH1 0x1 PUSH1 0x1 PUSH1 0xA0 SHL SUB SWAP1 SWAP2 AND DUP2 MSTORE PUSH1 0x40 DUP2 ADD SWAP3 SWAP2 PUSH2 0x29B SWAP2 PUSH1 0x20 ADD MSTORE JUMP JUMPDEST CALLER PUSH2 0x1D0D PUSH1 0x1 PUSH2 0x1C80 PUSH2 0x279 DUP5 PUSH1 0x2 PUSH2 0x2D9 JUMP JUMPDEST PUSH2 0x1C97 PUSH2 0x1C92 PUSH2 0x1608 PUSH1 0x7 DUP5 ADD PUSH2 0x438 JUMP JUMPDEST PUSH2 0x1B3B JUMP JUMPDEST ADD PUSH2 0x1CAF PUSH2 0x1CA7 PUSH2 0x279 DUP4 PUSH2 0x2F8 JUMP JUMPDEST DUP6 GT ISZERO PUSH2 0x12BC JUMP JUMPDEST PUSH2 0x1CC1 DUP5 PUSH2 0x1CBC DUP4 PUSH2 0x2F8 JUMP JUMPDEST PUSH2 0x1B87 JUMP JUMPDEST PUSH2 0x1CCF PUSH2 0x1649 PUSH2 0x279 PUSH2 0xD89 JUMP JUMPDEST LT ISZERO DUP1 ISZERO PUSH2 0x1DD8 JUMPI JUMPDEST PUSH2 0x1CE1 SWAP1 PUSH2 0x1B94 JUMP JUMPDEST PUSH2 0x1CF7 PUSH2 0x1CF1 DUP6 PUSH2 0x1CBC DUP5 PUSH2 0x2F8 JUMP JUMPDEST DUP3 PUSH2 0x1438 JUMP JUMPDEST PUSH2 0x1D08 PUSH2 0x1ABA DUP6 PUSH2 0x1CBC PUSH1 0xD PUSH2 0x2F8 JUMP JUMPDEST PUSH2 0x2F8 JUMP JUMPDEST PUSH1 0x0 SWAP1 PUSH2 0x1D1C PUSH2 0x1649 DUP4 PUSH2 0x3B2 JUMP JUMPDEST EQ PUSH2 0x1DC2 JUMPI JUMPDEST PUSH2 0x1D68 PUSH1 0x20 PUSH2 0x1D50 PUSH32 0x0 PUSH2 0x2D0 JUMP JUMPDEST PUSH4 0xA9059CBB SWAP1 PUSH2 0x1D5F PUSH1 0x40 MLOAD SWAP1 JUMP JUMPDEST SWAP4 DUP5 SWAP3 PUSH1 0xE0 SHL SWAP1 JUMP JUMPDEST DUP3 MSTORE DUP2 DUP6 DUP2 PUSH2 0x1D7B DUP11 DUP11 PUSH1 0x4 DUP5 ADD PUSH2 0x1C4F JUMP JUMPDEST SUB SWAP3 GAS CALL SWAP1 DUP2 ISZERO PUSH2 0x185D JUMPI PUSH2 0x1D95 SWAP3 SWAP2 PUSH2 0x1AEE JUMPI POP PUSH2 0x19A3 JUMP JUMPDEST PUSH2 0x17F7 PUSH2 0x17ED PUSH32 0x8108595EB6BAD3ACEFA9DA467D90CC2217686D5C5AC85460F8B7849C840645FC SWAP3 PUSH2 0x2D0 JUMP JUMPDEST PUSH2 0x1DD3 PUSH2 0x1DCD PUSH2 0x1C47 JUMP JUMPDEST DUP4 PUSH2 0x2D60 JUMP JUMPDEST PUSH2 0x1D22 JUMP JUMPDEST POP PUSH2 0x1CE1 PUSH2 0x1DE8 PUSH2 0x279 DUP4 PUSH2 0x2F8 JUMP JUMPDEST DUP6 EQ SWAP1 POP PUSH2 0x1CD8 JUMP JUMPDEST PUSH2 0x29B SWAP1 PUSH2 0x1B15 JUMP JUMPDEST ISZERO PUSH2 0x1E01 JUMPI JUMP JUMPDEST PUSH1 0x40 MLOAD PUSH3 0x461BCD PUSH1 0xE5 SHL DUP2 MSTORE PUSH1 0x20 PUSH1 0x4 DUP3 ADD MSTORE PUSH1 0x16 PUSH1 0x24 DUP3 ADD MSTORE PUSH32 0x546F6F206561726C7920666F7220726F746174696F6E00000000000000000000 PUSH1 0x44 DUP3 ADD MSTORE PUSH1 0x64 SWAP1 REVERT JUMPDEST ISZERO PUSH2 0x1E4D JUMPI JUMP JUMPDEST PUSH1 0x40 MLOAD PUSH3 0x461BCD PUSH1 0xE5 SHL DUP2 MSTORE PUSH1 0x20 PUSH1 0x4 DUP3 ADD MSTORE PUSH1 0x14 PUSH1 0x24 DUP3 ADD MSTORE PUSH32 0x4E6F206163746976652073657175656E63657273000000000000000000000000 PUSH1 0x44 DUP3 ADD MSTORE PUSH1 0x64 SWAP1 REVERT JUMPDEST PUSH4 0x4E487B71 PUSH1 0xE0 SHL PUSH1 0x0 MSTORE PUSH1 0x12 PUSH1 0x4 MSTORE PUSH1 0x24 PUSH1 0x0 REVERT JUMPDEST DUP2 ISZERO PUSH2 0x1EB2 JUMPI MOD SWAP1 JUMP JUMPDEST PUSH2 0x1E92 JUMP JUMPDEST SWAP1 DUP2 MSTORE PUSH1 0x40 DUP2 ADD SWAP3 SWAP2 PUSH2 0x29B SWAP2 PUSH1 0x20 ADD MSTORE JUMP JUMPDEST NUMBER PUSH1 0x6 PUSH2 0x1FB6 PUSH2 0x1EF0 PUSH1 0x7 PUSH2 0x1EFE PUSH2 0x1EF6 PUSH2 0x279 PUSH2 0x1EE7 DUP5 PUSH2 0x2F8 JUMP JUMPDEST PUSH2 0x1EF0 DUP9 PUSH2 0x2F8 JUMP JUMPDEST SWAP1 PUSH2 0x15DB JUMP JUMPDEST DUP7 LT ISZERO PUSH2 0x1DFA JUMP JUMPDEST DUP5 PUSH1 0x3 DUP6 ADD SWAP5 PUSH2 0x1F9E PUSH2 0x26D PUSH2 0x1F12 DUP9 SLOAD SWAP1 JUMP JUMPDEST PUSH2 0x1F2A PUSH1 0x0 SWAP2 PUSH2 0x1F24 PUSH2 0x1649 DUP5 PUSH2 0x3B2 JUMP JUMPDEST GT PUSH2 0x1E46 JUMP JUMPDEST PUSH2 0x1F83 PUSH1 0x2 DUP6 ADD SWAP10 PUSH2 0x1F58 DUP8 PUSH2 0x1F3F DUP14 PUSH2 0x423 JUMP JUMPDEST SWAP10 PUSH2 0x1F53 PUSH2 0x1F4B PUSH2 0x2172 JUMP JUMPDEST SWAP15 DUP16 SWAP1 PUSH2 0x11E1 JUMP JUMPDEST PUSH2 0x1438 JUMP JUMPDEST PUSH2 0x14D0 PUSH1 0x4 DUP8 ADD SWAP2 PUSH2 0x1F7D PUSH2 0x1F78 PUSH2 0x1F6F DUP6 PUSH2 0x2F8 JUMP JUMPDEST PUSH1 0x1 SWAP14 DUP15 PUSH2 0x3B2 JUMP JUMPDEST SWAP2 SLOAD SWAP1 JUMP JUMPDEST SWAP1 PUSH2 0x1EA8 JUMP JUMPDEST PUSH2 0x1F99 DUP10 PUSH2 0x1821 PUSH1 0x4 SWAP10 DUP8 ADD SWAP10 PUSH2 0x181B DUP12 PUSH2 0x2F8 JUMP JUMPDEST PUSH2 0x10AB JUMP JUMPDEST PUSH1 0x1 PUSH1 0x1 PUSH1 0xA0 SHL SUB DUP5 AND SUB PUSH2 0x1FF7 JUMPI JUMPDEST POP POP POP PUSH2 0x2F8 JUMP JUMPDEST SWAP2 PUSH2 0x1FE1 PUSH32 0x3373AA0D49316C85C45CE989BB7278A6F57AA452E33029BF5294527C5C45343E SWAP3 PUSH2 0x2D0 JUMP JUMPDEST SWAP3 PUSH2 0x17F7 PUSH2 0x1FEE PUSH1 0x40 MLOAD SWAP1 JUMP JUMPDEST SWAP3 DUP4 SWAP3 DUP4 PUSH2 0x1EB7 JUMP JUMPDEST PUSH2 0x2005 PUSH2 0x200B SWAP4 PUSH1 0x2 PUSH2 0x2D9 JUMP JUMPDEST ADD PUSH2 0x1438 JUMP JUMPDEST CODESIZE DUP5 DUP2 PUSH2 0x1FAE JUMP JUMPDEST SWAP1 PUSH2 0x29B SWAP2 PUSH2 0x2020 PUSH2 0x10CE JUMP JUMPDEST PUSH2 0x20AC JUMP JUMPDEST ISZERO PUSH2 0x202C JUMPI JUMP JUMPDEST PUSH1 0x40 MLOAD PUSH3 0x461BCD PUSH1 0xE5 SHL DUP2 MSTORE PUSH1 0x20 PUSH1 0x4 DUP3 ADD MSTORE PUSH1 0x18 PUSH1 0x24 DUP3 ADD MSTORE PUSH32 0x4E656564206D756C7469706C652073657175656E636572730000000000000000 PUSH1 0x44 DUP3 ADD MSTORE PUSH1 0x64 SWAP1 REVERT JUMPDEST SWAP1 DUP3 PUSH1 0x0 SWAP4 SWAP3 DUP3 CALLDATACOPY ADD MSTORE JUMP JUMPDEST SWAP2 SWAP1 PUSH2 0xCD0 DUP2 PUSH2 0x2094 DUP2 PUSH2 0xCDA SWAP6 PUSH1 0x20 SWAP2 DUP2 MSTORE ADD SWAP1 JUMP JUMPDEST DUP1 SWAP6 PUSH2 0x2071 JUMP JUMPDEST PUSH1 0x20 DUP1 DUP3 MSTORE PUSH2 0x279 SWAP4 SWAP2 ADD SWAP2 PUSH2 0x207D JUMP JUMPDEST SWAP1 PUSH2 0x210A SWAP1 PUSH1 0x6 SWAP1 PUSH2 0x211F PUSH2 0x20C2 PUSH1 0x3 DUP5 ADD SLOAD SWAP1 JUMP JUMPDEST SWAP3 PUSH2 0x20DB PUSH1 0x1 SWAP5 PUSH2 0x20D5 PUSH2 0x1649 DUP8 PUSH2 0x3B2 JUMP JUMPDEST GT PUSH2 0x2025 JUMP JUMPDEST PUSH2 0x1821 PUSH1 0x2 DUP3 ADD SWAP2 PUSH2 0x2114 PUSH2 0x20EF DUP5 PUSH2 0x423 JUMP JUMPDEST SWAP7 PUSH2 0x20F9 DUP9 PUSH2 0x2CC6 JUMP JUMPDEST PUSH2 0x2101 PUSH2 0x2172 JUMP JUMPDEST SWAP9 DUP10 DUP1 SWAP7 PUSH2 0x11E1 JUMP JUMPDEST NUMBER SWAP3 ADD SWAP2 DUP3 PUSH2 0x1438 JUMP JUMPDEST PUSH2 0x181B PUSH1 0x4 SWAP2 PUSH2 0x2F8 JUMP JUMPDEST PUSH2 0x2152 PUSH2 0x214C PUSH32 0x7E832D541C6DB7DAEAF4F873365635102A52A73C970CC752BA0AE24E2980F2B9 SWAP4 PUSH2 0x2D0 JUMP JUMPDEST SWAP4 PUSH2 0x2D0 JUMP JUMPDEST SWAP4 PUSH2 0x1252 PUSH2 0x215F PUSH1 0x40 MLOAD SWAP1 JUMP JUMPDEST SWAP3 DUP4 SWAP3 DUP4 PUSH2 0x209B JUMP JUMPDEST SWAP1 PUSH2 0x29B SWAP2 PUSH2 0x2013 JUMP JUMPDEST PUSH1 0x9 DUP1 SLOAD PUSH1 0x6 PUSH2 0x218A PUSH1 0x0 SWAP3 PUSH2 0x1F24 PUSH2 0x1649 DUP6 PUSH2 0x3B2 JUMP JUMPDEST DUP3 SLOAD SWAP2 PUSH1 0x1 SWAP3 PUSH2 0x219C PUSH2 0x1649 DUP6 PUSH2 0x3B2 JUMP JUMPDEST EQ PUSH2 0x21D2 JUMPI POP SWAP2 PUSH2 0x21CC PUSH2 0x21C5 PUSH2 0x79A SWAP4 PUSH2 0x1EF0 PUSH2 0x21BF PUSH1 0x4 PUSH2 0x279 SWAP9 ADD PUSH2 0x2F8 JUMP JUMPDEST SWAP2 PUSH2 0x3B2 JUMP JUMPDEST DUP3 SLOAD PUSH2 0x1F7D JUMP JUMPDEST SWAP1 PUSH2 0x739 JUMP JUMPDEST SWAP1 POP PUSH2 0x79A SWAP2 POP PUSH2 0x279 SWAP3 PUSH2 0x739 JUMP JUMPDEST SWAP1 PUSH2 0x29B SWAP5 SWAP4 SWAP3 SWAP2 PUSH2 0x21F2 PUSH2 0x10CE JUMP JUMPDEST SWAP1 PUSH2 0x29B SWAP5 SWAP4 SWAP3 SWAP2 PUSH2 0x220B PUSH2 0x1941 PUSH2 0x1603 DUP4 PUSH1 0x3 PUSH2 0x2D9 JUMP JUMPDEST PUSH2 0x25C1 JUMP JUMPDEST ISZERO PUSH2 0x2217 JUMPI JUMP JUMPDEST PUSH1 0x40 MLOAD PUSH3 0x461BCD PUSH1 0xE5 SHL DUP2 MSTORE PUSH1 0x20 PUSH1 0x4 DUP3 ADD MSTORE PUSH1 0xF PUSH1 0x24 DUP3 ADD MSTORE PUSH32 0x416C726561647920736C61736865640000000000000000000000000000000000 PUSH1 0x44 DUP3 ADD MSTORE PUSH1 0x64 SWAP1 REVERT JUMPDEST DUP2 DUP2 MUL SWAP3 SWAP2 DUP2 ISZERO SWAP2 DUP5 DIV EQ OR ISZERO PUSH2 0x15E8 JUMPI JUMP JUMPDEST DUP2 ISZERO PUSH2 0x1EB2 JUMPI DIV SWAP1 JUMP JUMPDEST PUSH1 0x0 NOT DUP2 EQ PUSH2 0x15E8 JUMPI PUSH1 0x1 ADD SWAP1 JUMP JUMPDEST PUSH2 0x279 PUSH1 0xA0 PUSH2 0x13F9 JUMP JUMPDEST SWAP1 SWAP3 SWAP2 SWAP3 PUSH2 0x22A2 PUSH2 0x1C0A DUP3 PUSH2 0x1BE0 JUMP JUMPDEST SWAP4 DUP2 DUP6 MSTORE PUSH1 0x20 DUP6 ADD SWAP1 DUP3 DUP5 ADD GT PUSH2 0x268 JUMPI PUSH2 0x29B SWAP3 PUSH2 0x2071 JUMP JUMPDEST PUSH2 0x279 SWAP2 CALLDATASIZE SWAP2 PUSH2 0x2292 JUMP JUMPDEST SWAP2 PUSH1 0x0 NOT PUSH1 0x8 SWAP3 SWAP1 SWAP3 MUL SWAP2 DUP3 SHL SWAP2 SHL PUSH2 0x11D7 JUMP JUMPDEST SWAP2 SWAP1 PUSH2 0x22EC PUSH2 0x279 PUSH2 0x11F8 SWAP4 PUSH2 0x3B2 JUMP JUMPDEST SWAP1 DUP4 SLOAD PUSH2 0x22C7 JUMP JUMPDEST PUSH2 0x29B SWAP2 PUSH1 0x0 SWAP2 PUSH2 0x22DB JUMP JUMPDEST DUP2 DUP2 LT PUSH2 0x230B JUMPI POP POP JUMP JUMPDEST DUP1 PUSH2 0x2319 PUSH1 0x0 PUSH1 0x1 SWAP4 PUSH2 0x22F4 JUMP JUMPDEST ADD PUSH2 0x2300 JUMP JUMPDEST SWAP2 SWAP1 PUSH1 0x1F DUP2 GT PUSH2 0x232E JUMPI POP POP POP JUMP JUMPDEST PUSH2 0x2340 PUSH2 0x29B SWAP4 PUSH1 0x0 MSTORE PUSH1 0x20 PUSH1 0x0 KECCAK256 SWAP1 JUMP JUMPDEST SWAP1 PUSH1 0x20 PUSH1 0x1F DUP5 ADD DUP2 SWAP1 DIV DUP4 ADD SWAP4 LT PUSH2 0x2362 JUMPI JUMPDEST PUSH1 0x20 PUSH1 0x1F SWAP1 SWAP2 ADD DIV ADD SWAP1 PUSH2 0x2300 JUMP JUMPDEST SWAP1 SWAP2 POP DUP2 SWAP1 PUSH2 0x2353 JUMP JUMPDEST SWAP1 PUSH2 0x2375 DUP2 MLOAD SWAP1 JUMP JUMPDEST SWAP1 PUSH8 0xFFFFFFFFFFFFFFFF DUP3 GT PUSH2 0xBFB JUMPI PUSH2 0x2399 DUP3 PUSH2 0x2393 DUP6 SLOAD PUSH2 0xB0B JUMP JUMPDEST DUP6 PUSH2 0x231F JUMP JUMPDEST PUSH1 0x20 SWAP1 PUSH1 0x1F DUP4 GT PUSH1 0x1 EQ PUSH2 0x23D4 JUMPI PUSH2 0x11F8 SWAP3 SWAP2 PUSH1 0x0 SWAP2 DUP4 PUSH2 0x23C9 JUMPI JUMPDEST POP POP PUSH1 0x0 NOT PUSH1 0x8 DUP4 MUL SHR NOT AND SWAP1 PUSH1 0x2 MUL OR SWAP1 JUMP JUMPDEST ADD MLOAD SWAP1 POP CODESIZE DUP1 PUSH2 0x23B5 JUMP JUMPDEST PUSH1 0x1F NOT DUP4 AND SWAP2 PUSH2 0x23E9 DUP6 PUSH1 0x0 MSTORE PUSH1 0x20 PUSH1 0x0 KECCAK256 SWAP1 JUMP JUMPDEST SWAP3 PUSH1 0x0 JUMPDEST DUP2 DUP2 LT PUSH2 0x2427 JUMPI POP SWAP2 PUSH1 0x2 SWAP4 SWAP2 DUP6 PUSH1 0x1 SWAP7 SWAP5 LT PUSH2 0x240E JUMPI JUMPDEST POP POP POP MUL ADD SWAP1 SSTORE JUMP JUMPDEST ADD MLOAD PUSH1 0x0 NOT PUSH1 0x8 PUSH1 0x1F DUP6 AND MUL SHR NOT AND SWAP1 SSTORE CODESIZE DUP1 DUP1 PUSH2 0x2405 JUMP JUMPDEST SWAP2 SWAP4 PUSH1 0x20 PUSH1 0x1 DUP2 SWAP3 DUP8 DUP8 ADD MLOAD DUP2 SSTORE ADD SWAP6 ADD SWAP3 ADD PUSH2 0x23ED JUMP JUMPDEST SWAP1 PUSH2 0x29B SWAP2 PUSH2 0x236C JUMP JUMPDEST SWAP1 PUSH2 0x2452 DUP2 MLOAD SWAP1 JUMP JUMPDEST SWAP1 PUSH8 0xFFFFFFFFFFFFFFFF DUP3 GT PUSH2 0xBFB JUMPI PUSH2 0x2470 DUP3 PUSH2 0x2393 DUP6 SLOAD PUSH2 0xB0B JUMP JUMPDEST PUSH1 0x20 SWAP1 PUSH1 0x1F DUP4 GT PUSH1 0x1 EQ PUSH2 0x249F JUMPI PUSH2 0x11F8 SWAP3 SWAP2 PUSH1 0x0 SWAP2 DUP4 PUSH2 0x23C9 JUMPI POP POP PUSH1 0x0 NOT PUSH1 0x8 DUP4 MUL SHR NOT AND SWAP1 PUSH1 0x2 MUL OR SWAP1 JUMP JUMPDEST PUSH1 0x1F NOT DUP4 AND SWAP2 PUSH2 0x24B4 DUP6 PUSH1 0x0 MSTORE PUSH1 0x20 PUSH1 0x0 KECCAK256 SWAP1 JUMP JUMPDEST SWAP3 PUSH1 0x0 JUMPDEST DUP2 DUP2 LT PUSH2 0x24D8 JUMPI POP SWAP2 PUSH1 0x2 SWAP4 SWAP2 DUP6 PUSH1 0x1 SWAP7 SWAP5 LT PUSH2 0x240E JUMPI POP POP POP MUL ADD SWAP1 SSTORE JUMP JUMPDEST SWAP2 SWAP4 PUSH1 0x20 PUSH1 0x1 DUP2 SWAP3 DUP8 DUP8 ADD MLOAD DUP2 SSTORE ADD SWAP6 ADD SWAP3 ADD PUSH2 0x24B8 JUMP JUMPDEST SWAP1 PUSH2 0x29B SWAP2 PUSH2 0x2449 JUMP JUMPDEST PUSH2 0x29B SWAP2 SWAP1 PUSH2 0x2561 SWAP1 PUSH1 0x80 SWAP1 PUSH1 0x4 SWAP1 PUSH2 0x251E DUP2 PUSH2 0x14B8 DUP8 MLOAD PUSH1 0x1 PUSH1 0x1 PUSH1 0xA0 SHL SUB AND SWAP1 JUMP JUMPDEST PUSH2 0x2530 PUSH1 0x1 DUP3 ADD PUSH2 0x14D0 PUSH1 0x20 DUP9 ADD MLOAD SWAP1 JUMP JUMPDEST PUSH2 0x2548 PUSH1 0x2 DUP3 ADD PUSH2 0x2542 PUSH1 0x40 DUP9 ADD MLOAD SWAP1 JUMP JUMPDEST SWAP1 PUSH2 0x243F JUMP JUMPDEST PUSH2 0x255A PUSH1 0x3 DUP3 ADD PUSH2 0x14D0 PUSH1 0x60 DUP9 ADD MLOAD SWAP1 JUMP JUMPDEST ADD SWAP3 ADD MLOAD SWAP1 JUMP JUMPDEST SWAP1 PUSH2 0x24F0 JUMP JUMPDEST SWAP2 SWAP1 PUSH2 0x2576 JUMPI PUSH2 0x29B SWAP2 PUSH2 0x24FA JUMP JUMPDEST PUSH2 0x1418 JUMP JUMPDEST SWAP1 DUP2 SLOAD SWAP2 PUSH9 0x10000000000000000 DUP4 LT ISZERO PUSH2 0xBFB JUMPI DUP3 PUSH2 0x25A3 SWAP2 PUSH1 0x1 PUSH2 0x29B SWAP6 ADD DUP2 SSTORE PUSH2 0xADB JUMP JUMPDEST SWAP1 PUSH2 0x2567 JUMP JUMPDEST SWAP1 DUP2 MSTORE PUSH1 0x40 PUSH1 0x20 DUP3 ADD DUP2 SWAP1 MSTORE PUSH2 0x279 SWAP4 SWAP2 ADD SWAP2 PUSH2 0x207D JUMP JUMPDEST SWAP3 SWAP1 SWAP2 SWAP4 PUSH1 0x2 PUSH2 0x25D1 DUP6 DUP3 PUSH2 0x2D9 JUMP JUMPDEST PUSH1 0x7 ADD PUSH2 0x25DD SWAP1 PUSH2 0x44E JUMP JUMPDEST ISZERO PUSH2 0x25E7 SWAP1 PUSH2 0x2210 JUMP JUMPDEST PUSH2 0x25F1 DUP6 DUP3 PUSH2 0x2D9 JUMP JUMPDEST SWAP3 PUSH1 0x1 DUP5 ADD SWAP4 PUSH2 0x2600 DUP6 PUSH2 0x2F8 JUMP JUMPDEST PUSH2 0x2608 PUSH2 0x6F5 JUMP JUMPDEST PUSH2 0x2611 SWAP2 PUSH2 0x225C JUMP JUMPDEST SWAP4 PUSH2 0x2710 SWAP5 PUSH2 0x261F DUP7 PUSH2 0x3B2 JUMP JUMPDEST PUSH2 0x2628 SWAP2 PUSH2 0x226F JUMP JUMPDEST SWAP6 DUP7 PUSH2 0x2633 DUP3 PUSH2 0x2F8 JUMP JUMPDEST SWAP1 PUSH2 0x263D SWAP2 PUSH2 0x1B87 JUMP JUMPDEST PUSH2 0x2646 SWAP2 PUSH2 0x1438 JUMP JUMPDEST PUSH1 0x3 DUP3 ADD PUSH2 0x2653 DUP2 PUSH2 0x2F8 JUMP JUMPDEST PUSH2 0x265C SWAP1 PUSH2 0x2279 JUMP JUMPDEST PUSH2 0x2665 SWAP2 PUSH2 0x1438 JUMP JUMPDEST DUP4 DUP3 ADD SWAP5 PUSH2 0x2672 DUP7 PUSH2 0x2F8 JUMP JUMPDEST PUSH2 0x267D PUSH2 0x2328 PUSH2 0x3B2 JUMP JUMPDEST PUSH2 0x2686 SWAP2 PUSH2 0x225C JUMP JUMPDEST SWAP1 PUSH2 0x2690 SWAP1 PUSH2 0x3B2 JUMP JUMPDEST PUSH2 0x2699 SWAP2 PUSH2 0x226F JUMP JUMPDEST PUSH2 0x26A3 SWAP1 DUP7 PUSH2 0x1438 JUMP JUMPDEST PUSH1 0x1 SWAP5 DUP6 SWAP2 DUP10 PUSH1 0x7 DUP6 ADD SWAP6 PUSH2 0x26B8 DUP6 DUP9 PUSH2 0x147C JUMP JUMPDEST DUP10 PUSH2 0x26C3 PUSH1 0xD PUSH2 0x2F8 JUMP JUMPDEST SWAP1 PUSH2 0x26CD SWAP2 PUSH2 0x1B87 JUMP JUMPDEST PUSH2 0x26D8 SWAP1 PUSH1 0xD PUSH2 0x1438 JUMP JUMPDEST PUSH1 0xB SWAP3 TIMESTAMP DUP13 DUP16 PUSH2 0x26E6 PUSH2 0x2288 JUMP JUMPDEST PUSH1 0x1 PUSH1 0x1 PUSH1 0xA0 SHL SUB SWAP1 SWAP7 AND DUP7 MSTORE PUSH2 0x26FE DUP15 PUSH1 0x20 DUP9 ADD MSTORE JUMP JUMPDEST PUSH2 0x2707 SWAP2 PUSH2 0x22BC JUMP JUMPDEST PUSH1 0x40 DUP6 ADD MSTORE PUSH1 0x60 DUP5 ADD MSTORE PUSH2 0x271A SWAP2 PUSH2 0x22BC JUMP JUMPDEST PUSH1 0x80 DUP3 ADD MSTORE PUSH2 0x2728 SWAP2 PUSH2 0x257B JUMP JUMPDEST PUSH2 0x2731 SWAP1 PUSH2 0x2F8 JUMP JUMPDEST PUSH2 0x2739 PUSH2 0x7D8 JUMP JUMPDEST GT SWAP2 DUP3 ISZERO PUSH2 0x2807 JUMPI JUMPDEST POP POP PUSH2 0x27EC JUMPI JUMPDEST POP PUSH1 0x6 SWAP1 DUP2 ADD SWAP2 PUSH2 0x275C PUSH2 0x26D DUP5 PUSH2 0x423 JUMP JUMPDEST PUSH1 0x1 PUSH1 0x1 PUSH1 0xA0 SHL SUB DUP8 AND EQ DUP1 PUSH2 0x27D4 JUMPI JUMPDEST PUSH2 0x27B5 JUMPI JUMPDEST POP POP POP PUSH2 0x17F7 PUSH2 0x27A2 PUSH32 0x54FEEFBE9D950D84D055909AADBE66AE8707AA598D83DAACA3756384A47A3456 SWAP5 PUSH2 0x2D0 JUMP JUMPDEST SWAP5 PUSH2 0x27AC PUSH1 0x40 MLOAD SWAP1 JUMP JUMPDEST SWAP4 DUP5 SWAP4 DUP5 PUSH2 0x25A9 JUMP JUMPDEST PUSH2 0x27C4 PUSH2 0x27CC SWAP4 PUSH2 0x14B8 PUSH2 0x2172 JUMP JUMPDEST NUMBER SWAP2 ADD PUSH2 0x1438 JUMP JUMPDEST CODESIZE DUP1 DUP1 PUSH2 0x2772 JUMP JUMPDEST POP PUSH1 0x3 DUP3 ADD SLOAD PUSH2 0x27E6 PUSH2 0x1649 DUP4 PUSH2 0x3B2 JUMP JUMPDEST GT PUSH2 0x276D JUMP JUMPDEST PUSH2 0x2801 SWAP1 PUSH2 0x27F9 DUP8 PUSH2 0x2CC6 JUMP JUMPDEST PUSH1 0x0 SWAP1 PUSH2 0x1458 JUMP JUMPDEST CODESIZE PUSH2 0x2749 JUMP JUMPDEST PUSH2 0x2812 SWAP3 POP ADD PUSH2 0x2F8 JUMP JUMPDEST PUSH2 0x2820 PUSH2 0x1649 PUSH2 0x279 PUSH2 0xD89 JUMP JUMPDEST LT DUP4 CODESIZE PUSH2 0x2742 JUMP JUMPDEST SWAP1 PUSH2 0x29B SWAP5 SWAP4 SWAP3 SWAP2 PUSH2 0x21E2 JUMP JUMPDEST PUSH2 0x29B SWAP1 PUSH2 0x2841 PUSH2 0x10CE JUMP JUMPDEST PUSH2 0x29B SWAP1 PUSH2 0x2856 PUSH2 0x1941 PUSH2 0x1603 DUP4 PUSH1 0x3 PUSH2 0x2D9 JUMP JUMPDEST PUSH2 0x28A7 JUMP JUMPDEST ISZERO PUSH2 0x2862 JUMPI JUMP JUMPDEST PUSH1 0x40 MLOAD PUSH3 0x461BCD PUSH1 0xE5 SHL DUP2 MSTORE PUSH1 0x20 PUSH1 0x4 DUP3 ADD MSTORE PUSH1 0xB PUSH1 0x24 DUP3 ADD MSTORE PUSH32 0x4E6F7420736C6173686564000000000000000000000000000000000000000000 PUSH1 0x44 DUP3 ADD MSTORE PUSH1 0x64 SWAP1 REVERT JUMPDEST PUSH1 0x2 SWAP1 PUSH2 0x28C7 PUSH2 0x28C2 PUSH1 0x7 PUSH2 0x28BC DUP5 DUP7 PUSH2 0x2D9 JUMP JUMPDEST ADD PUSH2 0x44E JUMP JUMPDEST PUSH2 0x285B JUMP JUMPDEST PUSH2 0x28ED PUSH2 0x28DF PUSH1 0x1 PUSH2 0x28D9 DUP5 DUP7 PUSH2 0x2D9 JUMP JUMPDEST ADD PUSH2 0x2F8 JUMP JUMPDEST PUSH2 0x1621 PUSH2 0x1649 PUSH2 0x279 PUSH2 0xD89 JUMP JUMPDEST PUSH2 0x2904 PUSH1 0x0 PUSH1 0x7 PUSH2 0x28FE DUP5 DUP7 PUSH2 0x2D9 JUMP JUMPDEST ADD PUSH2 0x147C JUMP JUMPDEST PUSH2 0x291C PUSH2 0x1608 PUSH1 0x7 PUSH2 0x2916 DUP5 DUP7 PUSH2 0x2D9 JUMP JUMPDEST ADD PUSH2 0x438 JUMP JUMPDEST DUP1 PUSH2 0x294C JUMPI JUMPDEST PUSH2 0x292A JUMPI POP POP JUMP JUMPDEST PUSH2 0x2945 PUSH2 0x29B SWAP3 PUSH1 0x7 PUSH2 0x293F DUP5 PUSH1 0x1 SWAP4 PUSH2 0x2D9 JUMP JUMPDEST ADD PUSH2 0x1458 JUMP JUMPDEST PUSH1 0x9 PUSH2 0x1597 JUMP JUMPDEST POP PUSH1 0x9 SLOAD PUSH2 0x295E PUSH2 0x1649 PUSH2 0x279 PUSH2 0xD5C JUMP JUMPDEST LT PUSH2 0x2922 JUMP JUMPDEST PUSH2 0x29B SWAP1 PUSH2 0x2835 JUMP JUMPDEST SWAP1 PUSH2 0x29B SWAP5 SWAP4 SWAP3 SWAP2 PUSH2 0x297D PUSH2 0x10CE JUMP JUMPDEST SWAP1 PUSH2 0x29B SWAP5 SWAP4 SWAP3 SWAP2 PUSH2 0x2996 PUSH2 0x1941 PUSH2 0x1603 DUP4 PUSH1 0x3 PUSH2 0x2D9 JUMP JUMPDEST PUSH2 0x2A09 JUMP JUMPDEST PUSH2 0x279 PUSH1 0x80 PUSH2 0x13F9 JUMP JUMPDEST PUSH2 0x29B SWAP2 SWAP1 PUSH2 0x14D0 SWAP1 PUSH1 0x60 SWAP1 PUSH1 0x3 SWAP1 PUSH2 0x29BE DUP2 DUP6 DUP8 MLOAD SWAP1 JUMP JUMPDEST PUSH2 0x29D0 PUSH1 0x1 DUP3 ADD PUSH2 0x14D0 PUSH1 0x20 DUP9 ADD MLOAD SWAP1 JUMP JUMPDEST PUSH2 0x255A PUSH1 0x2 DUP3 ADD PUSH2 0x14D0 PUSH1 0x40 DUP9 ADD MLOAD SWAP1 JUMP JUMPDEST SWAP1 PUSH2 0x29B SWAP2 PUSH2 0x29A5 JUMP JUMPDEST SWAP1 DUP2 MSTORE PUSH1 0x60 DUP2 ADD SWAP4 SWAP3 PUSH2 0x29B SWAP3 SWAP1 SWAP2 PUSH1 0x40 SWAP2 PUSH2 0x36E SWAP1 PUSH1 0x20 DUP4 ADD MSTORE JUMP JUMPDEST SWAP3 SWAP4 PUSH2 0x2A6D SWAP1 PUSH2 0x2A64 DUP5 PUSH2 0x2A1B PUSH2 0x299B JUMP JUMPDEST PUSH2 0x2A23 DUP7 DUP3 MSTORE JUMP JUMPDEST PUSH2 0x2A2E DUP3 PUSH1 0x20 DUP4 ADD MSTORE JUMP JUMPDEST PUSH2 0x2A39 DUP10 PUSH1 0x40 DUP4 ADD MSTORE JUMP JUMPDEST PUSH2 0x2A44 DUP5 PUSH1 0x60 DUP4 ADD MSTORE JUMP JUMPDEST PUSH2 0x2A59 PUSH1 0x5 SWAP2 PUSH2 0x2A54 DUP11 DUP5 PUSH2 0x2D9 JUMP JUMPDEST PUSH2 0x29E2 JUMP JUMPDEST PUSH2 0x2005 DUP9 PUSH1 0x2 PUSH2 0x2D9 JUMP JUMPDEST DUP6 DUP5 DUP5 DUP8 PUSH2 0x2ABA JUMP JUMPDEST PUSH2 0x17F7 PUSH2 0x2A9A PUSH32 0x8FBA6965BB87ED104958174573E9AED72332779F1C2138DEFEC56D0960E7E77C SWAP5 PUSH2 0x2D0 JUMP JUMPDEST SWAP5 PUSH2 0x2AA4 PUSH1 0x40 MLOAD SWAP1 JUMP JUMPDEST SWAP4 DUP5 SWAP4 DUP5 PUSH2 0x29EC JUMP JUMPDEST SWAP1 PUSH2 0x29B SWAP5 SWAP4 SWAP3 SWAP2 PUSH2 0x296D JUMP JUMPDEST SWAP4 SWAP2 SWAP3 PUSH1 0x2 SWAP1 PUSH2 0x2ACD PUSH2 0x279 DUP8 DUP5 PUSH2 0x2D9 JUMP JUMPDEST SWAP5 DUP3 DUP7 ADD SWAP4 PUSH2 0x2ADB DUP6 PUSH2 0x2F8 JUMP JUMPDEST DUP1 SWAP2 PUSH2 0x2AE5 PUSH2 0x976 JUMP JUMPDEST PUSH2 0x2AFA PUSH2 0x279 PUSH2 0x2AF4 DUP10 PUSH2 0x3B2 JUMP JUMPDEST DUP4 PUSH2 0x225C JUMP JUMPDEST DUP3 LT PUSH2 0x2C52 JUMPI POP POP POP PUSH2 0x2B14 PUSH2 0x2B25 SWAP2 PUSH2 0x1EF0 PUSH1 0x32 PUSH2 0x3B2 JUMP JUMPDEST PUSH2 0x2B1F PUSH2 0x2710 PUSH2 0x3B2 JUMP JUMPDEST SWAP1 PUSH2 0x2DCF JUMP JUMPDEST SWAP3 JUMPDEST PUSH2 0x2B44 PUSH2 0x279 PUSH2 0x2B3E PUSH2 0x2B38 PUSH2 0x3BF JUMP JUMPDEST SWAP4 PUSH2 0x3B2 JUMP JUMPDEST DUP4 PUSH2 0x226F JUMP JUMPDEST DUP3 GT PUSH2 0x2C34 JUMPI POP POP SWAP1 PUSH2 0x2B14 PUSH2 0x2B5E SWAP2 PUSH2 0x1EF0 PUSH1 0x32 PUSH2 0x3B2 JUMP JUMPDEST SWAP1 JUMPDEST PUSH2 0x2B6E PUSH2 0x1649 PUSH2 0x279 PUSH2 0xF6B JUMP JUMPDEST LT PUSH2 0x2C1D JUMPI PUSH2 0x2B14 PUSH2 0x2B84 SWAP2 PUSH2 0x1EF0 PUSH1 0x19 PUSH2 0x3B2 JUMP JUMPDEST SWAP2 JUMPDEST PUSH2 0x2B94 PUSH2 0x1649 PUSH2 0x279 PUSH2 0x6C8 JUMP JUMPDEST GT PUSH2 0x2BEA JUMPI JUMPDEST DUP2 PUSH2 0x2BA4 SWAP2 PUSH2 0x1438 JUMP JUMPDEST PUSH2 0x2BB2 PUSH2 0x1649 PUSH2 0x279 PUSH2 0x7D8 JUMP JUMPDEST LT DUP1 PUSH2 0x2BD8 JUMPI JUMPDEST PUSH2 0x2BC1 JUMPI POP POP JUMP JUMPDEST PUSH2 0x2BCD PUSH2 0x29B SWAP3 PUSH2 0x2CC6 JUMP JUMPDEST PUSH1 0x7 PUSH1 0x0 SWAP2 ADD PUSH2 0x1458 JUMP JUMPDEST POP PUSH2 0x2BE5 PUSH1 0x7 DUP3 ADD PUSH2 0x438 JUMP JUMPDEST PUSH2 0x2BB9 JUMP JUMPDEST SWAP1 PUSH2 0x2C15 PUSH2 0x2C05 PUSH2 0x2BA4 SWAP3 PUSH2 0x2BFF PUSH1 0x96 PUSH2 0x3B2 JUMP JUMPDEST SWAP1 PUSH2 0x1B87 JUMP JUMPDEST PUSH2 0x2C0F PUSH1 0x0 PUSH2 0x3B2 JUMP JUMPDEST SWAP1 PUSH2 0x2DE1 JUMP JUMPDEST SWAP2 SWAP1 POP PUSH2 0x2B9A JUMP JUMPDEST PUSH2 0x2C05 PUSH2 0x2C2E SWAP2 PUSH2 0x2BFF PUSH1 0xC8 PUSH2 0x3B2 JUMP JUMPDEST SWAP2 PUSH2 0x2B86 JUMP JUMPDEST LT ISZERO PUSH2 0x2B60 JUMPI SWAP1 PUSH2 0x2C05 PUSH2 0x2C4C SWAP2 PUSH2 0x2BFF PUSH1 0x64 PUSH2 0x3B2 JUMP JUMPDEST SWAP1 PUSH2 0x2B60 JUMP JUMPDEST SWAP3 SWAP6 SWAP3 GT PUSH2 0x2C61 JUMPI JUMPDEST POP PUSH2 0x2B27 JUMP JUMPDEST PUSH2 0x2C75 SWAP2 SWAP5 POP PUSH2 0x2C05 SWAP1 PUSH2 0x2BFF PUSH1 0x64 PUSH2 0x3B2 JUMP JUMPDEST SWAP3 CODESIZE PUSH2 0x2C5B JUMP JUMPDEST PUSH4 0x4E487B71 PUSH1 0xE0 SHL PUSH1 0x0 MSTORE PUSH1 0x31 PUSH1 0x4 MSTORE PUSH1 0x24 PUSH1 0x0 REVERT JUMPDEST PUSH2 0x29B SWAP2 PUSH1 0x0 SWAP2 PUSH2 0x157E JUMP JUMPDEST DUP1 SLOAD DUP1 ISZERO PUSH2 0x2CC1 JUMPI PUSH1 0x0 NOT ADD SWAP1 PUSH2 0x2CBE PUSH2 0x2CB8 DUP4 DUP4 PUSH2 0x739 JUMP JUMPDEST SWAP1 PUSH2 0x2C92 JUMP JUMPDEST SSTORE JUMP JUMPDEST PUSH2 0x2C7C JUMP JUMPDEST PUSH2 0x2CD0 PUSH1 0x0 PUSH2 0x3B2 JUMP JUMPDEST PUSH1 0x9 DUP1 SLOAD DUP3 LT ISZERO PUSH2 0x2D4A JUMPI PUSH2 0x2CE8 PUSH2 0x79A DUP4 DUP4 PUSH2 0x739 JUMP JUMPDEST PUSH2 0x2CFA PUSH1 0x1 PUSH1 0x1 PUSH1 0xA0 SHL SUB DUP6 AND PUSH2 0x10DD JUMP JUMPDEST EQ PUSH2 0x2D0E JUMPI POP PUSH2 0x2D09 SWAP1 PUSH2 0x2279 JUMP JUMPDEST PUSH2 0x2CD0 JUMP JUMPDEST PUSH2 0x29B SWAP3 POP PUSH2 0x279 PUSH2 0x2D45 SWAP3 PUSH2 0x15BF PUSH2 0x2D3E PUSH2 0x79A PUSH2 0x2D38 PUSH2 0x2D2E DUP8 SLOAD SWAP1 JUMP JUMPDEST PUSH2 0x2BFF PUSH1 0x1 PUSH2 0x3B2 JUMP JUMPDEST DUP7 PUSH2 0x739 JUMP JUMPDEST SWAP2 DUP5 PUSH2 0x739 JUMP JUMPDEST PUSH2 0x2C9E JUMP JUMPDEST POP POP POP JUMP JUMPDEST PUSH1 0x20 DUP1 DUP3 MSTORE PUSH2 0x279 SWAP3 SWAP2 ADD SWAP1 PUSH2 0xCA6 JUMP JUMPDEST PUSH2 0x2D86 PUSH1 0x0 PUSH2 0x2D79 DUP2 PUSH2 0x2D74 DUP6 PUSH1 0x3 PUSH2 0x2D9 JUMP JUMPDEST PUSH2 0x1458 JUMP JUMPDEST PUSH1 0x7 PUSH2 0x293F DUP5 PUSH1 0x2 PUSH2 0x2D9 JUMP JUMPDEST PUSH2 0x2D8F DUP2 PUSH2 0x2CC6 JUMP JUMPDEST PUSH2 0x17F7 PUSH2 0x2DBC PUSH32 0x60C32C78BAEED87B47940BF4B5A12DB273EB09931F25B9B08D2CE4A8E04AD835 SWAP3 PUSH2 0x2D0 JUMP JUMPDEST SWAP3 PUSH2 0x2DC6 PUSH1 0x40 MLOAD SWAP1 JUMP JUMPDEST SWAP2 DUP3 SWAP2 DUP3 PUSH2 0x2D4F JUMP JUMPDEST SWAP1 DUP1 DUP3 LT ISZERO PUSH2 0x2DDC JUMPI POP SWAP1 JUMP JUMPDEST SWAP1 POP SWAP1 JUMP JUMPDEST SWAP1 DUP1 DUP3 GT ISZERO PUSH2 0x2DDC JUMPI POP SWAP1 JUMP JUMPDEST SWAP1 PUSH2 0x29B PUSH2 0x2EB4 PUSH1 0x7 PUSH2 0x2DFF PUSH2 0x140D JUMP JUMPDEST SWAP5 PUSH2 0x2E19 PUSH2 0x2E0C DUP3 PUSH2 0x423 JUMP JUMPDEST PUSH1 0x1 PUSH1 0x1 PUSH1 0xA0 SHL SUB AND DUP8 MSTORE JUMP JUMPDEST PUSH2 0x2E2F PUSH2 0x2E28 PUSH1 0x1 DUP4 ADD PUSH2 0x2F8 JUMP JUMPDEST PUSH1 0x20 DUP9 ADD MSTORE JUMP JUMPDEST PUSH2 0x2E45 PUSH2 0x2E3E PUSH1 0x2 DUP4 ADD PUSH2 0x2F8 JUMP JUMPDEST PUSH1 0x40 DUP9 ADD MSTORE JUMP JUMPDEST PUSH2 0x2E5B PUSH2 0x2E54 PUSH1 0x3 DUP4 ADD PUSH2 0x2F8 JUMP JUMPDEST PUSH1 0x60 DUP9 ADD MSTORE JUMP JUMPDEST PUSH2 0x2E71 PUSH2 0x2E6A PUSH1 0x4 DUP4 ADD PUSH2 0x2F8 JUMP JUMPDEST PUSH1 0x80 DUP9 ADD MSTORE JUMP JUMPDEST PUSH2 0x2E87 PUSH2 0x2E80 PUSH1 0x5 DUP4 ADD PUSH2 0x2F8 JUMP JUMPDEST PUSH1 0xA0 DUP9 ADD MSTORE JUMP JUMPDEST PUSH2 0x2E9D PUSH2 0x2E96 PUSH1 0x6 DUP4 ADD PUSH2 0x2F8 JUMP JUMPDEST PUSH1 0xC0 DUP9 ADD MSTORE JUMP JUMPDEST PUSH2 0x28BC PUSH2 0x2EAB DUP4 DUP4 ADD PUSH2 0x438 JUMP JUMPDEST ISZERO ISZERO PUSH1 0xE0 DUP9 ADD MSTORE JUMP JUMPDEST ISZERO ISZERO PUSH2 0x100 DUP5 ADD MSTORE JUMP JUMPDEST PUSH2 0x279 SWAP1 PUSH2 0x2DEE JUMP JUMPDEST PUSH1 0x6 SWAP1 PUSH2 0x2ED4 PUSH1 0x8 PUSH2 0x423 JUMP JUMPDEST SWAP2 PUSH2 0x2EF4 PUSH1 0x1 PUSH2 0x2EED PUSH2 0x2EE8 DUP7 PUSH1 0x2 PUSH2 0x2D9 JUMP JUMPDEST PUSH2 0x2EBE JUMP JUMPDEST SWAP3 ADD PUSH2 0x2F8 JUMP JUMPDEST SWAP3 PUSH2 0x2F00 PUSH1 0x40 DUP4 ADD MLOAD SWAP1 JUMP JUMPDEST SWAP3 PUSH2 0x2F19 PUSH1 0xE0 PUSH2 0x2F11 PUSH1 0x20 DUP7 ADD MLOAD SWAP1 JUMP JUMPDEST SWAP5 ADD MLOAD ISZERO ISZERO SWAP1 JUMP JUMPDEST SWAP2 SWAP5 SWAP4 SWAP3 SWAP2 SWAP1 JUMP JUMPDEST SWAP1 PUSH2 0x2F3C PUSH2 0x2F30 PUSH2 0xFC0 DUP5 SLOAD SWAP1 JUMP JUMPDEST SWAP3 PUSH1 0x0 MSTORE PUSH1 0x20 PUSH1 0x0 KECCAK256 SWAP1 JUMP JUMPDEST SWAP1 PUSH1 0x0 JUMPDEST DUP2 DUP2 LT PUSH2 0x2F4D JUMPI POP POP POP SWAP1 JUMP JUMPDEST SWAP1 SWAP2 SWAP3 PUSH2 0x2F7A PUSH2 0x2F73 PUSH1 0x1 SWAP3 PUSH2 0x2F62 DUP8 PUSH2 0x423 JUMP JUMPDEST PUSH1 0x1 PUSH1 0x1 PUSH1 0xA0 SHL SUB AND DUP2 MSTORE PUSH1 0x20 ADD SWAP1 JUMP JUMPDEST SWAP5 PUSH1 0x1 ADD SWAP1 JUMP JUMPDEST SWAP3 SWAP2 ADD PUSH2 0x2F40 JUMP JUMPDEST SWAP1 PUSH2 0x279 SWAP2 PUSH2 0x2F21 JUMP JUMPDEST SWAP1 PUSH2 0x29B PUSH2 0xC1A SWAP3 PUSH2 0x2F9D PUSH1 0x40 MLOAD SWAP1 JUMP JUMPDEST SWAP4 DUP5 DUP1 SWAP3 PUSH2 0x2F82 JUMP JUMPDEST PUSH2 0x279 SWAP1 PUSH2 0x2F8C JUMP JUMPDEST PUSH2 0x279 PUSH1 0x9 PUSH2 0x2FA6 JUMP JUMPDEST SWAP1 PUSH2 0x29B PUSH2 0x2FF9 PUSH1 0x3 PUSH2 0x2FCA PUSH2 0x299B JUMP JUMPDEST SWAP5 PUSH2 0x2FDB PUSH2 0x2FD7 DUP3 PUSH2 0x2F8 JUMP JUMPDEST DUP8 MSTORE JUMP JUMPDEST PUSH2 0x2FEA PUSH2 0x2E28 PUSH1 0x1 DUP4 ADD PUSH2 0x2F8 JUMP JUMPDEST PUSH2 0x28D9 PUSH2 0x2E3E PUSH1 0x2 DUP4 ADD PUSH2 0x2F8 JUMP JUMPDEST PUSH1 0x60 DUP5 ADD MSTORE JUMP JUMPDEST PUSH2 0x279 SWAP1 PUSH2 0x2FB9 JUMP JUMPDEST PUSH2 0x301C PUSH2 0x3017 DUP3 PUSH1 0x5 PUSH2 0x2D9 JUMP JUMPDEST PUSH2 0x3000 JUMP JUMPDEST SWAP1 PUSH2 0x3025 DUP3 MLOAD SWAP1 JUMP JUMPDEST PUSH1 0x20 DUP4 ADD MLOAD SWAP4 PUSH2 0x2F19 PUSH2 0x3044 PUSH1 0x60 PUSH2 0x303E PUSH1 0x40 DUP9 ADD MLOAD SWAP1 JUMP JUMPDEST SWAP7 ADD MLOAD SWAP1 JUMP JUMPDEST SWAP4 PUSH2 0x28D9 PUSH1 0x2 SWAP2 DUP3 PUSH2 0x2D9 JUMP JUMPDEST PUSH1 0x7 PUSH1 0x6 PUSH2 0x305E DUP3 PUSH2 0x2F8 JUMP JUMPDEST DUP2 SWAP1 PUSH2 0x306D SWAP1 PUSH2 0x1EF0 DUP4 PUSH2 0x2F8 JUMP JUMPDEST NUMBER SWAP1 PUSH1 0x0 SWAP1 DUP3 LT ISZERO PUSH2 0x30C3 JUMPI POP PUSH2 0x1CBC PUSH2 0x3093 SWAP3 PUSH2 0x1EF0 PUSH2 0x308D DUP8 PUSH2 0x2F8 JUMP JUMPDEST SWAP2 PUSH2 0x2F8 JUMP JUMPDEST PUSH2 0x30A7 PUSH1 0x3 PUSH2 0x30A1 PUSH1 0xC SLOAD SWAP1 JUMP JUMPDEST SWAP4 ADD SLOAD SWAP1 JUMP JUMPDEST SWAP4 PUSH2 0x30BB PUSH2 0x30B5 PUSH1 0xD PUSH2 0x2F8 JUMP JUMPDEST SWAP5 PUSH2 0x2F8 JUMP JUMPDEST SWAP3 SWAP5 SWAP4 SWAP3 SWAP2 SWAP1 JUMP JUMPDEST SWAP1 POP PUSH2 0x30CF SWAP2 POP PUSH2 0x3B2 JUMP JUMPDEST PUSH2 0x3093 JUMP JUMPDEST PUSH2 0x30E1 PUSH2 0x26D PUSH1 0x8 PUSH2 0x423 JUMP JUMPDEST PUSH1 0x1 PUSH1 0x1 PUSH1 0xA0 SHL SUB DUP3 AND EQ SWAP1 DUP2 PUSH2 0x30F6 JUMPI POP SWAP1 JUMP JUMPDEST PUSH2 0x279 SWAP2 POP PUSH2 0x2916 PUSH1 0x7 SWAP2 PUSH1 0x2 PUSH2 0x2D9 JUMP JUMPDEST PUSH8 0xFFFFFFFFFFFFFFFF DUP2 GT PUSH2 0xBFB JUMPI PUSH1 0x20 DUP1 SWAP2 MUL ADD SWAP1 JUMP JUMPDEST SWAP1 PUSH2 0x1C0F PUSH2 0x1C0A DUP4 PUSH2 0x3108 JUMP JUMPDEST SWAP1 PUSH2 0x29B PUSH2 0x317E PUSH1 0x4 PUSH2 0x313E PUSH2 0x2288 JUMP JUMPDEST SWAP5 PUSH2 0x314B PUSH2 0x2E0C DUP3 PUSH2 0x423 JUMP JUMPDEST PUSH2 0x315A PUSH2 0x2E28 PUSH1 0x1 DUP4 ADD PUSH2 0x2F8 JUMP JUMPDEST PUSH2 0x3169 PUSH2 0x2E3E PUSH1 0x2 DUP4 ADD PUSH2 0xC00 JUMP JUMPDEST PUSH2 0x3178 PUSH2 0x2E54 PUSH1 0x3 DUP4 ADD PUSH2 0x2F8 JUMP JUMPDEST ADD PUSH2 0xC00 JUMP JUMPDEST PUSH1 0x80 DUP5 ADD MSTORE JUMP JUMPDEST PUSH2 0x279 SWAP1 PUSH2 0x312D JUMP JUMPDEST SWAP1 PUSH2 0x3197 DUP3 SLOAD SWAP1 JUMP JUMPDEST PUSH2 0x31A0 DUP2 PUSH2 0x3120 JUMP JUMPDEST SWAP3 PUSH2 0x31B4 PUSH1 0x20 DUP6 ADD SWAP2 PUSH1 0x0 MSTORE PUSH1 0x20 PUSH1 0x0 KECCAK256 SWAP1 JUMP JUMPDEST PUSH1 0x0 SWAP2 JUMPDEST DUP4 DUP4 LT PUSH2 0x31C5 JUMPI POP POP POP POP JUMP JUMPDEST PUSH1 0x5 PUSH1 0x20 PUSH1 0x1 SWAP3 PUSH2 0x31D5 DUP6 PUSH2 0x3185 JUMP JUMPDEST DUP2 MSTORE ADD SWAP3 ADD SWAP3 ADD SWAP2 SWAP1 PUSH2 0x31B8 JUMP JUMPDEST PUSH2 0x279 SWAP1 PUSH2 0x318E JUMP JUMPDEST PUSH2 0x279 PUSH1 0xB PUSH2 0x31E3 JUMP INVALID LOG2 PUSH5 0x6970667358 0x22 SLT KECCAK256 0xD4 0xB5 PUSH15 0x47708694166720356886177D0A697D 0xB5 0xF8 PC 0x25 LOG2 0xBD 0xD1 0xD2 LOG1 MLOAD 0xE1 EXTCODECOPY 0x1F 0xC6 PUSH5 0x736F6C6343 STOP ADDMOD EQ STOP CALLER "},"methodIdentifiers":{"HYPE_TOKEN()":"a0863fcc","MAX_ERROR_RATE()":"51b0d85a","MAX_LATENCY()":"770ea28f","MAX_SEQUENCERS()":"b1cf9e3d","MIN_REPUTATION()":"697c6045","MIN_STAKE()":"cb1c2b5c","MIN_TPS()":"82fb9c84","MIN_UPTIME()":"f23aa32c","PERFORMANCE_WINDOW()":"55282902","REPUTATION_DECAY()":"06058674","ROTATION_BLOCKS()":"d710ed93","SLASH_PERCENTAGE()":"9f29f135","allSequencers(uint256)":"64f98f3f","emergencyRotation(string)":"76325aa3","epochToSequencer(uint256)":"fb5e7d24","getActiveSequencers()":"f4eba842","getCurrentSequencer()":"775f4d69","getNetworkStats()":"4a662f48","getSequencerPerformance(address)":"a45f2365","getSlashingHistory()":"e177f6d2","increaseStake(uint256)":"eedad66b","isCurrentSequencer(address)":"a2e53a94","isSequencer(address)":"6d46e987","owner()":"8da5cb5b","performance(address)":"05d950a2","registerSequencer(uint256)":"7fd4696e","renounceOwnership()":"715018a6","reputationUpdateBlock()":"99dbe139","restoreSequencer(address)":"4e2cc94d","rotateSequencer()":"13762837","rotation()":"efbca4d9","sequencers(address)":"1c7a07ee","slashSequencer(address,string,bytes)":"3b74d1a5","slashingHistory(uint256)":"a79c9bed","totalStaked()":"817b1cd2","transferOwnership(address)":"f2fde38b","updatePerformance(address,uint256,uint256,uint256,uint256)":"a28a0e12","withdrawStake(uint256)":"25d5971f"}}}}}