{"contracts/TestSimple.sol":{"TestSimple":{"abi":[{"anonymous":false,"inputs":[{"indexed":false,"internalType":"uint256","name":"newValue","type":"uint256"}],"name":"ValueSet","type":"event"},{"inputs":[],"name":"getValue","outputs":[{"internalType":"uint256","name":"","type":"uint256"}],"stateMutability":"view","type":"function"},{"inputs":[],"name":"name","outputs":[{"internalType":"string","name":"","type":"string"}],"stateMutability":"view","type":"function"},{"inputs":[{"internalType":"uint256","name":"_value","type":"uint256"}],"name":"setValue","outputs":[],"stateMutability":"nonpayable","type":"function"},{"inputs":[],"name":"value","outputs":[{"internalType":"uint256","name":"","type":"uint256"}],"stateMutability":"view","type":"function"}],"evm":{"bytecode":{"linkReferences":{},"object":"60806040523461002257610011610161565b6040516103ac61016c82396103ac90f35b600080fd5b634e487b7160e01b600052602260045260246000fd5b906001600283049216801561005d575b602083101461005857565b610027565b91607f169161004d565b6100746100746100749290565b90565b91906100886100746100a093610067565b90835460001960089290920291821b191691901b1790565b9055565b6100b091600091610077565b565b8181106100bd575050565b806100cb60006001936100a4565b016100b2565b9190601f81116100e057505050565b6100f26100b093600052602060002090565b906020601f840181900483019310610114575b6020601f9091010401906100b2565b9091508190610105565b610133600a61012d835461003d565b836100d1565b7f5465737453696d706c65000000000000000000000000000000000000000000149055565b6100b09061011e565b6100b0600061015856fe6080604052600436101561001257600080fd5b60003560e01c806306fdde0314610052578063209652551461004d5780633fa4f2451461004857635524107703610057576102df565b6102b4565b610266565b61023b565b600080fd5b600091031261005757565b634e487b7160e01b600052600060045260246000fd5b634e487b7160e01b600052602260045260246000fd5b90600160028304921680156100b3575b60208310146100ae57565b61007d565b91607f16916100a3565b805460009392916100da6100d083610093565b8085529360200190565b916001811690811561012c57506001146100f357505050565b6101069192939450600052602060002090565b916000925b8184106101185750500190565b80548484015260209093019260010161010b565b92949550505060ff1916825215156020020190565b9061014b916100bd565b90565b634e487b7160e01b600052604160045260246000fd5b90601f01601f1916810190811067ffffffffffffffff82111761018657604052565b61014e565b906101ac6101a59261019c60405190565b93848092610141565b0383610164565b565b906000106101bf5761014b9061018b565b610067565b61014b6000806101ae565b60005b8381106101e25750506000910152565b81810151838201526020016101d2565b61021361021c60209361022693610207815190565b80835293849260200190565b958691016101cf565b601f01601f191690565b0190565b602080825261014b929101906101f2565b346100575761024b36600461005c565b6102626102566101c4565b6040519182918261022a565b0390f35b346100575761027636600461005c565b61026261028161036c565b6040515b9182918290815260200190565b61014b916008021c81565b9061014b9154610292565b61014b6000600161029d565b34610057576102c436600461005c565b6102626102816102a8565b9060208282031261005757503590565b34610057576102f76102f23660046102cf565b61031d565b604051005b61014b61014b61014b9290565b9061014b61014b610319926102fc565b9055565b610328816001610309565b6103567f012c78e2b84325878b1bd9d250d772cfe5bda7722d795f45036fa5e1e6e303fc9161028560405190565b0390a1565b61014b9081565b61014b905461035b565b61014b600161036256fea26469706673582212200e5bcb1b0468c1ee0efda8c8ec28e25d19ece42018dc1ad53d92383185b962c264736f6c63430008140033","opcodes":"PUSH1 0x80 PUSH1 0x40 MSTORE CALLVALUE PUSH2 0x22 JUMPI PUSH2 0x11 PUSH2 0x161 JUMP JUMPDEST PUSH1 0x40 MLOAD PUSH2 0x3AC PUSH2 0x16C DUP3 CODECOPY PUSH2 0x3AC SWAP1 RETURN JUMPDEST PUSH1 0x0 DUP1 REVERT JUMPDEST PUSH4 0x4E487B71 PUSH1 0xE0 SHL PUSH1 0x0 MSTORE PUSH1 0x22 PUSH1 0x4 MSTORE PUSH1 0x24 PUSH1 0x0 REVERT JUMPDEST SWAP1 PUSH1 0x1 PUSH1 0x2 DUP4 DIV SWAP3 AND DUP1 ISZERO PUSH2 0x5D JUMPI JUMPDEST PUSH1 0x20 DUP4 LT EQ PUSH2 0x58 JUMPI JUMP JUMPDEST PUSH2 0x27 JUMP JUMPDEST SWAP2 PUSH1 0x7F AND SWAP2 PUSH2 0x4D JUMP JUMPDEST PUSH2 0x74 PUSH2 0x74 PUSH2 0x74 SWAP3 SWAP1 JUMP JUMPDEST SWAP1 JUMP JUMPDEST SWAP2 SWAP1 PUSH2 0x88 PUSH2 0x74 PUSH2 0xA0 SWAP4 PUSH2 0x67 JUMP JUMPDEST SWAP1 DUP4 SLOAD PUSH1 0x0 NOT PUSH1 0x8 SWAP3 SWAP1 SWAP3 MUL SWAP2 DUP3 SHL NOT AND SWAP2 SWAP1 SHL OR SWAP1 JUMP JUMPDEST SWAP1 SSTORE JUMP JUMPDEST PUSH2 0xB0 SWAP2 PUSH1 0x0 SWAP2 PUSH2 0x77 JUMP JUMPDEST JUMP JUMPDEST DUP2 DUP2 LT PUSH2 0xBD JUMPI POP POP JUMP JUMPDEST DUP1 PUSH2 0xCB PUSH1 0x0 PUSH1 0x1 SWAP4 PUSH2 0xA4 JUMP JUMPDEST ADD PUSH2 0xB2 JUMP JUMPDEST SWAP2 SWAP1 PUSH1 0x1F DUP2 GT PUSH2 0xE0 JUMPI POP POP POP JUMP JUMPDEST PUSH2 0xF2 PUSH2 0xB0 SWAP4 PUSH1 0x0 MSTORE PUSH1 0x20 PUSH1 0x0 KECCAK256 SWAP1 JUMP JUMPDEST SWAP1 PUSH1 0x20 PUSH1 0x1F DUP5 ADD DUP2 SWAP1 DIV DUP4 ADD SWAP4 LT PUSH2 0x114 JUMPI JUMPDEST PUSH1 0x20 PUSH1 0x1F SWAP1 SWAP2 ADD DIV ADD SWAP1 PUSH2 0xB2 JUMP JUMPDEST SWAP1 SWAP2 POP DUP2 SWAP1 PUSH2 0x105 JUMP JUMPDEST PUSH2 0x133 PUSH1 0xA PUSH2 0x12D DUP4 SLOAD PUSH2 0x3D JUMP JUMPDEST DUP4 PUSH2 0xD1 JUMP JUMPDEST PUSH32 0x5465737453696D706C6500000000000000000000000000000000000000000014 SWAP1 SSTORE JUMP JUMPDEST PUSH2 0xB0 SWAP1 PUSH2 0x11E JUMP JUMPDEST PUSH2 0xB0 PUSH1 0x0 PUSH2 0x158 JUMP INVALID PUSH1 0x80 PUSH1 0x40 MSTORE PUSH1 0x4 CALLDATASIZE LT ISZERO PUSH2 0x12 JUMPI PUSH1 0x0 DUP1 REVERT JUMPDEST PUSH1 0x0 CALLDATALOAD PUSH1 0xE0 SHR DUP1 PUSH4 0x6FDDE03 EQ PUSH2 0x52 JUMPI DUP1 PUSH4 0x20965255 EQ PUSH2 0x4D JUMPI DUP1 PUSH4 0x3FA4F245 EQ PUSH2 0x48 JUMPI PUSH4 0x55241077 SUB PUSH2 0x57 JUMPI PUSH2 0x2DF JUMP JUMPDEST PUSH2 0x2B4 JUMP JUMPDEST PUSH2 0x266 JUMP JUMPDEST PUSH2 0x23B JUMP JUMPDEST PUSH1 0x0 DUP1 REVERT JUMPDEST PUSH1 0x0 SWAP2 SUB SLT PUSH2 0x57 JUMPI JUMP JUMPDEST PUSH4 0x4E487B71 PUSH1 0xE0 SHL PUSH1 0x0 MSTORE PUSH1 0x0 PUSH1 0x4 MSTORE PUSH1 0x24 PUSH1 0x0 REVERT JUMPDEST PUSH4 0x4E487B71 PUSH1 0xE0 SHL PUSH1 0x0 MSTORE PUSH1 0x22 PUSH1 0x4 MSTORE PUSH1 0x24 PUSH1 0x0 REVERT JUMPDEST SWAP1 PUSH1 0x1 PUSH1 0x2 DUP4 DIV SWAP3 AND DUP1 ISZERO PUSH2 0xB3 JUMPI JUMPDEST PUSH1 0x20 DUP4 LT EQ PUSH2 0xAE JUMPI JUMP JUMPDEST PUSH2 0x7D JUMP JUMPDEST SWAP2 PUSH1 0x7F AND SWAP2 PUSH2 0xA3 JUMP JUMPDEST DUP1 SLOAD PUSH1 0x0 SWAP4 SWAP3 SWAP2 PUSH2 0xDA PUSH2 0xD0 DUP4 PUSH2 0x93 JUMP JUMPDEST DUP1 DUP6 MSTORE SWAP4 PUSH1 0x20 ADD SWAP1 JUMP JUMPDEST SWAP2 PUSH1 0x1 DUP2 AND SWAP1 DUP2 ISZERO PUSH2 0x12C JUMPI POP PUSH1 0x1 EQ PUSH2 0xF3 JUMPI POP POP POP JUMP JUMPDEST PUSH2 0x106 SWAP2 SWAP3 SWAP4 SWAP5 POP PUSH1 0x0 MSTORE PUSH1 0x20 PUSH1 0x0 KECCAK256 SWAP1 JUMP JUMPDEST SWAP2 PUSH1 0x0 SWAP3 JUMPDEST DUP2 DUP5 LT PUSH2 0x118 JUMPI POP POP ADD SWAP1 JUMP JUMPDEST DUP1 SLOAD DUP5 DUP5 ADD MSTORE PUSH1 0x20 SWAP1 SWAP4 ADD SWAP3 PUSH1 0x1 ADD PUSH2 0x10B JUMP JUMPDEST SWAP3 SWAP5 SWAP6 POP POP POP PUSH1 0xFF NOT AND DUP3 MSTORE ISZERO ISZERO PUSH1 0x20 MUL ADD SWAP1 JUMP JUMPDEST SWAP1 PUSH2 0x14B SWAP2 PUSH2 0xBD JUMP JUMPDEST SWAP1 JUMP JUMPDEST PUSH4 0x4E487B71 PUSH1 0xE0 SHL PUSH1 0x0 MSTORE PUSH1 0x41 PUSH1 0x4 MSTORE PUSH1 0x24 PUSH1 0x0 REVERT JUMPDEST SWAP1 PUSH1 0x1F ADD PUSH1 0x1F NOT AND DUP2 ADD SWAP1 DUP2 LT PUSH8 0xFFFFFFFFFFFFFFFF DUP3 GT OR PUSH2 0x186 JUMPI PUSH1 0x40 MSTORE JUMP JUMPDEST PUSH2 0x14E JUMP JUMPDEST SWAP1 PUSH2 0x1AC PUSH2 0x1A5 SWAP3 PUSH2 0x19C PUSH1 0x40 MLOAD SWAP1 JUMP JUMPDEST SWAP4 DUP5 DUP1 SWAP3 PUSH2 0x141 JUMP JUMPDEST SUB DUP4 PUSH2 0x164 JUMP JUMPDEST JUMP JUMPDEST SWAP1 PUSH1 0x0 LT PUSH2 0x1BF JUMPI PUSH2 0x14B SWAP1 PUSH2 0x18B JUMP JUMPDEST PUSH2 0x67 JUMP JUMPDEST PUSH2 0x14B PUSH1 0x0 DUP1 PUSH2 0x1AE JUMP JUMPDEST PUSH1 0x0 JUMPDEST DUP4 DUP2 LT PUSH2 0x1E2 JUMPI POP POP PUSH1 0x0 SWAP2 ADD MSTORE JUMP JUMPDEST DUP2 DUP2 ADD MLOAD DUP4 DUP3 ADD MSTORE PUSH1 0x20 ADD PUSH2 0x1D2 JUMP JUMPDEST PUSH2 0x213 PUSH2 0x21C PUSH1 0x20 SWAP4 PUSH2 0x226 SWAP4 PUSH2 0x207 DUP2 MLOAD SWAP1 JUMP JUMPDEST DUP1 DUP4 MSTORE SWAP4 DUP5 SWAP3 PUSH1 0x20 ADD SWAP1 JUMP JUMPDEST SWAP6 DUP7 SWAP2 ADD PUSH2 0x1CF JUMP JUMPDEST PUSH1 0x1F ADD PUSH1 0x1F NOT AND SWAP1 JUMP JUMPDEST ADD SWAP1 JUMP JUMPDEST PUSH1 0x20 DUP1 DUP3 MSTORE PUSH2 0x14B SWAP3 SWAP2 ADD SWAP1 PUSH2 0x1F2 JUMP JUMPDEST CALLVALUE PUSH2 0x57 JUMPI PUSH2 0x24B CALLDATASIZE PUSH1 0x4 PUSH2 0x5C JUMP JUMPDEST PUSH2 0x262 PUSH2 0x256 PUSH2 0x1C4 JUMP JUMPDEST PUSH1 0x40 MLOAD SWAP2 DUP3 SWAP2 DUP3 PUSH2 0x22A JUMP JUMPDEST SUB SWAP1 RETURN JUMPDEST CALLVALUE PUSH2 0x57 JUMPI PUSH2 0x276 CALLDATASIZE PUSH1 0x4 PUSH2 0x5C JUMP JUMPDEST PUSH2 0x262 PUSH2 0x281 PUSH2 0x36C JUMP JUMPDEST PUSH1 0x40 MLOAD JUMPDEST SWAP2 DUP3 SWAP2 DUP3 SWAP1 DUP2 MSTORE PUSH1 0x20 ADD SWAP1 JUMP JUMPDEST PUSH2 0x14B SWAP2 PUSH1 0x8 MUL SHR DUP2 JUMP JUMPDEST SWAP1 PUSH2 0x14B SWAP2 SLOAD PUSH2 0x292 JUMP JUMPDEST PUSH2 0x14B PUSH1 0x0 PUSH1 0x1 PUSH2 0x29D JUMP JUMPDEST CALLVALUE PUSH2 0x57 JUMPI PUSH2 0x2C4 CALLDATASIZE PUSH1 0x4 PUSH2 0x5C JUMP JUMPDEST PUSH2 0x262 PUSH2 0x281 PUSH2 0x2A8 JUMP JUMPDEST SWAP1 PUSH1 0x20 DUP3 DUP3 SUB SLT PUSH2 0x57 JUMPI POP CALLDATALOAD SWAP1 JUMP JUMPDEST CALLVALUE PUSH2 0x57 JUMPI PUSH2 0x2F7 PUSH2 0x2F2 CALLDATASIZE PUSH1 0x4 PUSH2 0x2CF JUMP JUMPDEST PUSH2 0x31D JUMP JUMPDEST PUSH1 0x40 MLOAD STOP JUMPDEST PUSH2 0x14B PUSH2 0x14B PUSH2 0x14B SWAP3 SWAP1 JUMP JUMPDEST SWAP1 PUSH2 0x14B PUSH2 0x14B PUSH2 0x319 SWAP3 PUSH2 0x2FC JUMP JUMPDEST SWAP1 SSTORE JUMP JUMPDEST PUSH2 0x328 DUP2 PUSH1 0x1 PUSH2 0x309 JUMP JUMPDEST PUSH2 0x356 PUSH32 0x12C78E2B84325878B1BD9D250D772CFE5BDA7722D795F45036FA5E1E6E303FC SWAP2 PUSH2 0x285 PUSH1 0x40 MLOAD SWAP1 JUMP JUMPDEST SUB SWAP1 LOG1 JUMP JUMPDEST PUSH2 0x14B SWAP1 DUP2 JUMP JUMPDEST PUSH2 0x14B SWAP1 SLOAD PUSH2 0x35B JUMP JUMPDEST PUSH2 0x14B PUSH1 0x1 PUSH2 0x362 JUMP INVALID LOG2 PUSH5 0x6970667358 0x22 SLT KECCAK256 0xE JUMPDEST 0xCB SHL DIV PUSH9 0xC1EE0EFDA8C8EC28E2 0x5D NOT 0xEC 0xE4 KECCAK256 XOR 0xDC BYTE 0xD5 RETURNDATASIZE SWAP3 CODESIZE BALANCE DUP6 0xB9 PUSH3 0xC26473 PUSH16 0x6C634300081400330000000000000000 "},"methodIdentifiers":{"getValue()":"20965255","name()":"06fdde03","setValue(uint256)":"55241077","value()":"3fa4f245"}}}}}