{"contracts/MinimalPair.sol":{"MinimalPair":{"abi":[{"inputs":[],"stateMutability":"nonpayable","type":"constructor"},{"anonymous":false,"inputs":[{"indexed":true,"internalType":"address","name":"sender","type":"address"},{"indexed":false,"internalType":"uint256","name":"amount0","type":"uint256"},{"indexed":false,"internalType":"uint256","name":"amount1","type":"uint256"}],"name":"Burn","type":"event"},{"anonymous":false,"inputs":[{"indexed":true,"internalType":"address","name":"sender","type":"address"},{"indexed":false,"internalType":"uint256","name":"amount0","type":"uint256"},{"indexed":false,"internalType":"uint256","name":"amount1","type":"uint256"}],"name":"Mint","type":"event"},{"anonymous":false,"inputs":[{"indexed":true,"internalType":"address","name":"sender","type":"address"},{"indexed":false,"internalType":"uint256","name":"amount0In","type":"uint256"},{"indexed":false,"internalType":"uint256","name":"amount1In","type":"uint256"},{"indexed":false,"internalType":"uint256","name":"amount0Out","type":"uint256"},{"indexed":false,"internalType":"uint256","name":"amount1Out","type":"uint256"}],"name":"Swap","type":"event"},{"inputs":[{"internalType":"address","name":"","type":"address"}],"name":"balanceOf","outputs":[{"internalType":"uint256","name":"","type":"uint256"}],"stateMutability":"view","type":"function"},{"inputs":[],"name":"blockTimestampLast","outputs":[{"internalType":"uint32","name":"","type":"uint32"}],"stateMutability":"view","type":"function"},{"inputs":[],"name":"factory","outputs":[{"internalType":"address","name":"","type":"address"}],"stateMutability":"view","type":"function"},{"inputs":[],"name":"getReserves","outputs":[{"internalType":"uint112","name":"r0","type":"uint112"},{"internalType":"uint112","name":"r1","type":"uint112"},{"internalType":"uint32","name":"timestamp","type":"uint32"}],"stateMutability":"view","type":"function"},{"inputs":[{"internalType":"address","name":"_token0","type":"address"},{"internalType":"address","name":"_token1","type":"address"}],"name":"initialize","outputs":[],"stateMutability":"nonpayable","type":"function"},{"inputs":[],"name":"reserve0","outputs":[{"internalType":"uint112","name":"","type":"uint112"}],"stateMutability":"view","type":"function"},{"inputs":[],"name":"reserve1","outputs":[{"internalType":"uint112","name":"","type":"uint112"}],"stateMutability":"view","type":"function"},{"inputs":[{"internalType":"uint256","name":"amount0Out","type":"uint256"},{"internalType":"uint256","name":"amount1Out","type":"uint256"},{"internalType":"address","name":"to","type":"address"}],"name":"swap","outputs":[],"stateMutability":"nonpayable","type":"function"},{"inputs":[],"name":"token0","outputs":[{"internalType":"address","name":"","type":"address"}],"stateMutability":"view","type":"function"},{"inputs":[],"name":"token1","outputs":[{"internalType":"address","name":"","type":"address"}],"stateMutability":"view","type":"function"},{"inputs":[],"name":"totalSupply","outputs":[{"internalType":"uint256","name":"","type":"uint256"}],"stateMutability":"view","type":"function"}],"evm":{"bytecode":{"linkReferences":{},"object":"6080604052346100225761001161008c565b604051610ed561009a8239610ed590f35b600080fd5b61003b9061003e906001600160a01b031682565b90565b6001600160a01b031690565b61003b90610027565b61003b9061004a565b9061006c61003b61008892610053565b82546001600160a01b0319166001600160a01b03919091161790565b9055565b61009733600561005c565b56fe6080604052600436101561001257600080fd5b60003560e01c80630902f1ac146100c25780630dfe1681146100bd57806318160ddd146100b8578063443cb4bc146100b3578063485cc955146100ae5780635a76f25e146100a95780636d9a640a146100a457806370a082311461009f578063c45a01551461009a578063c5700a02146100955763d21220a7036100c757610472565b610434565b6103f0565b6103c9565b610338565b6102da565b6102b0565b610234565b6101d6565b61018d565b61010b565b600080fd5b60009103126100c757565b9052565b6dffffffffffffffffffffffffffff91821681529116602082015263ffffffff909116604082015260600190565b565b346100c75761011b3660046100cc565b6101356101266105a3565b604051919391938493846100db565b0390f35b61015b916008021c5b73ffffffffffffffffffffffffffffffffffffffff1690565b90565b9061015b9154610139565b61015b60008061015e565b6100d790610142565b6020810192916101099190610174565b346100c75761019d3660046100cc565b6101356101a8610169565b6040519182918261017d565b61015b916008021c81565b9061015b91546101b4565b61015b600060036101bf565b346100c7576101e63660046100cc565b6101356101f16101ca565b6040519182918290815260200190565b61015b916008021c5b6dffffffffffffffffffffffffffff1690565b9061015b9154610201565b61015b6000600261021d565b346100c7576102443660046100cc565b61013561024f610228565b604051918291826dffffffffffffffffffffffffffff909116815260200190565b61027981610142565b036100c757565b9050359061010982610270565b91906040838203126100c75761015b906102a78185610280565b93602001610280565b346100c7576102c96102c336600461028d565b90610529565b604051005b61015b600e600261021d565b346100c7576102ea3660046100cc565b61013561024f6102ce565b80610279565b90503590610109826102f5565b90916060828403126100c75761015b61032184846102fb565b9361032f81602086016102fb565b93604001610280565b346100c7576102c961034b366004610308565b91610789565b906020828203126100c75761015b91610280565b61014261015b61015b9273ffffffffffffffffffffffffffffffffffffffff1690565b61015b90610365565b61015b90610388565b906103a490610391565b600052602052604060002090565b61015b906103c460049160009261039a565b6101bf565b346100c7576101356101f16103df366004610351565b6103b2565b61015b6000600561015e565b346100c7576104003660046100cc565b6101356101a86103e4565b61015b916008021c5b63ffffffff1690565b9061015b915461040b565b61015b601c600261041d565b346100c7576104443660046100cc565b61013561044f610428565b6040519182918263ffffffff909116815260200190565b61015b6000600161015e565b346100c7576104823660046100cc565b6101356101a8610466565b61015b90610142565b61015b905461048d565b156104a757565b60405162461bcd60e51b815260206004820152600960248201527f464f5242494444454e00000000000000000000000000000000000000000000006044820152606490fd5b9073ffffffffffffffffffffffffffffffffffffffff905b9181191691161790565b9061051e61015b61052592610391565b82546104ec565b9055565b9061055d610109926105563361055061054a6105456005610496565b610142565b91610142565b146104a0565b600061050e565b600161050e565b61015b9061020a565b61015b9054610564565b61015b9060701c61020a565b61015b9054610577565b61015b9060e01c610414565b61015b905461058d565b6105ad600261056d565b906105b86002610583565b9061015b6002610599565b61015b61015b61015b9290565b156105d757565b60405162461bcd60e51b815260206004820152601360248201527f494e53554646494349454e545f4f5554505554000000000000000000000000006044820152606490fd5b61015b61015b61015b926dffffffffffffffffffffffffffff1690565b1561064057565b60405162461bcd60e51b815260206004820152601660248201527f494e53554646494349454e545f4c4951554944495459000000000000000000006044820152606490fd5b634e487b7160e01b600052601160045260246000fd5b919082039182116106a857565b610685565b156106b457565b60405162461bcd60e51b815260206004820152601260248201527f494e53554646494349454e545f494e50555400000000000000000000000000006044820152606490fd5b818102929181159184041417156106a857565b1561071357565b60405162461bcd60e51b815260206004820152600160248201527f4b000000000000000000000000000000000000000000000000000000000000006044820152606490fd5b6107856101099461077e606094989795610777608086019a6000870152565b6020850152565b6040830152565b0152565b91600090610796826105c3565b84118081156109f2575b6107a9906105d0565b6107bb6107b6600261056d565b61061c565b8510806109d8575b6107cc90610639565b6109c5575b826107db836105c3565b81116109ab575b50506107f56107f082610496565b610dfe565b6109316108056107f06001610496565b61081e61015b876108196107b6600261056d565b61069b565b83111561099c5761083f610839876108196107b6600261056d565b8461069b565b925b61085561015b876108196107b66002610583565b82111561098a5761088e610873610839886108196107b66002610583565b955b61087e816105c3565b8611908115610978575b506106ad565b61092c6108ef6103e86108cb876108d16108e96108e36108dd6108d76108bc6108b6896105c3565b8c6106f9565b6108d16003976108cb896105c3565b906106f9565b9061069b565b966105c3565b8a6106f9565b926105c3565b8b6106f9565b61092561092161015b6109156109086107b6600261056d565b6108cb6107b66002610583565b6108cb620f42406105c3565b9190565b101561070c565b610b4b565b61097333936109607f49926bbebe8474393f434dfa4f78694c0923efa07d19f2284518bfabd06eb73795610391565b9561096a60405190565b94859485610758565b0390a2565b61098291506105c3565b861138610888565b61088e610996866105c3565b95610875565b6109a5846105c3565b92610841565b6109be916109b96001610496565b610d29565b38826107e2565b6109d384826109b985610496565b6107d1565b506107cc6109e96107b66002610583565b851090506107c3565b506107a96109ff846105c3565b851190506107a0565b15610a0f57565b60405162461bcd60e51b815260206004820152600860248201527f4f564552464c4f570000000000000000000000000000000000000000000000006044820152606490fd5b61020a61015b61015b9290565b906dffffffffffffffffffffffffffff90610504565b61020a61015b61015b926dffffffffffffffffffffffffffff1690565b90610aa461015b61052592610a77565b8254610a61565b907bffffffffffffffffffffffffffff00000000000000000000000000009060701b610504565b90610ae261015b61052592610a77565b8254610aab565b61041461015b61015b9290565b907fffffffff000000000000000000000000000000000000000000000000000000009060e01b610504565b61041461015b61015b9263ffffffff1690565b90610b4461015b61052592610b21565b8254610af6565b610b9791610b84610b89610b9093610b846dffffffffffffffffffffffffffff610b748161061c565b8311159081610baa575b50610a08565b610a54565b6002610a94565b6002610ad2565b610109610ba342610ae9565b6002610b34565b610bb4915061061c565b85111538610b7e565b610bd0610bca61015b9290565b60e01b90565b7fffffffff000000000000000000000000000000000000000000000000000000001690565b91602061010992949361078560408201966000830190610174565b634e487b7160e01b600052604160045260246000fd5b90601f01601f1916810190811067ffffffffffffffff821117610c4857604052565b610c10565b90610109610c5a60405190565b9283610c26565b67ffffffffffffffff8111610c4857602090601f01601f19160190565b90610c90610c8b83610c61565b610c4d565b918252565b3d15610caf57610ca43d610c7e565b903d6000602084013e565b606090565b801515610279565b9050519061010982610cb4565b906020828203126100c75761015b91610cbc565b15610ce457565b60405162461bcd60e51b815260206004820152600f60248201527f5452414e534645525f4641494c454400000000000000000000000000000000006044820152606490fd5b600091906004610d718493610d6261010997610d4863a9059cbb610bbd565b92610d5260405190565b9586946020860190815201610bf5565b60208201810382520382610c26565b82602082019151925af1610d83610c95565b81610d8f575b50610cdd565b9050610d99815190565b610da661092160006105c3565b14908115610db6575b5038610d89565b610dd091506020610dc5825190565b818301019101610cc9565b38610daf565b156100c757565b90505190610109826102f5565b906020828203126100c75761015b91610ddd565b60008061015b92610e0d600090565b506004610e476370a08231610d62610e2d610e2730610391565b92610bbd565b91610e3760405190565b948593602085019081520161017d565b602081019051915afa610e58610c95565b9080610e7d575b610e6890610dd6565b6020610e72825190565b818301019101610dea565b50610e68610e89825190565b610e9661092160206105c3565b10159050610e5f56fea2646970667358221220206a4b2c38bb9b792b1400429e1e8d19a3115c465405477b3c7aab5e2540a48d64736f6c63430008140033","opcodes":"PUSH1 0x80 PUSH1 0x40 MSTORE CALLVALUE PUSH2 0x22 JUMPI PUSH2 0x11 PUSH2 0x8C JUMP JUMPDEST PUSH1 0x40 MLOAD PUSH2 0xED5 PUSH2 0x9A DUP3 CODECOPY PUSH2 0xED5 SWAP1 RETURN JUMPDEST PUSH1 0x0 DUP1 REVERT JUMPDEST PUSH2 0x3B SWAP1 PUSH2 0x3E SWAP1 PUSH1 0x1 PUSH1 0x1 PUSH1 0xA0 SHL SUB AND DUP3 JUMP JUMPDEST SWAP1 JUMP JUMPDEST PUSH1 0x1 PUSH1 0x1 PUSH1 0xA0 SHL SUB AND SWAP1 JUMP JUMPDEST PUSH2 0x3B SWAP1 PUSH2 0x27 JUMP JUMPDEST PUSH2 0x3B SWAP1 PUSH2 0x4A JUMP JUMPDEST SWAP1 PUSH2 0x6C PUSH2 0x3B PUSH2 0x88 SWAP3 PUSH2 0x53 JUMP JUMPDEST DUP3 SLOAD PUSH1 0x1 PUSH1 0x1 PUSH1 0xA0 SHL SUB NOT AND PUSH1 0x1 PUSH1 0x1 PUSH1 0xA0 SHL SUB SWAP2 SWAP1 SWAP2 AND OR SWAP1 JUMP JUMPDEST SWAP1 SSTORE JUMP JUMPDEST PUSH2 0x97 CALLER PUSH1 0x5 PUSH2 0x5C JUMP JUMPDEST JUMP INVALID PUSH1 0x80 PUSH1 0x40 MSTORE PUSH1 0x4 CALLDATASIZE LT ISZERO PUSH2 0x12 JUMPI PUSH1 0x0 DUP1 REVERT JUMPDEST PUSH1 0x0 CALLDATALOAD PUSH1 0xE0 SHR DUP1 PUSH4 0x902F1AC EQ PUSH2 0xC2 JUMPI DUP1 PUSH4 0xDFE1681 EQ PUSH2 0xBD JUMPI DUP1 PUSH4 0x18160DDD EQ PUSH2 0xB8 JUMPI DUP1 PUSH4 0x443CB4BC EQ PUSH2 0xB3 JUMPI DUP1 PUSH4 0x485CC955 EQ PUSH2 0xAE JUMPI DUP1 PUSH4 0x5A76F25E EQ PUSH2 0xA9 JUMPI DUP1 PUSH4 0x6D9A640A EQ PUSH2 0xA4 JUMPI DUP1 PUSH4 0x70A08231 EQ PUSH2 0x9F JUMPI DUP1 PUSH4 0xC45A0155 EQ PUSH2 0x9A JUMPI DUP1 PUSH4 0xC5700A02 EQ PUSH2 0x95 JUMPI PUSH4 0xD21220A7 SUB PUSH2 0xC7 JUMPI PUSH2 0x472 JUMP JUMPDEST PUSH2 0x434 JUMP JUMPDEST PUSH2 0x3F0 JUMP JUMPDEST PUSH2 0x3C9 JUMP JUMPDEST PUSH2 0x338 JUMP JUMPDEST PUSH2 0x2DA JUMP JUMPDEST PUSH2 0x2B0 JUMP JUMPDEST PUSH2 0x234 JUMP JUMPDEST PUSH2 0x1D6 JUMP JUMPDEST PUSH2 0x18D JUMP JUMPDEST PUSH2 0x10B JUMP JUMPDEST PUSH1 0x0 DUP1 REVERT JUMPDEST PUSH1 0x0 SWAP2 SUB SLT PUSH2 0xC7 JUMPI JUMP JUMPDEST SWAP1 MSTORE JUMP JUMPDEST PUSH14 0xFFFFFFFFFFFFFFFFFFFFFFFFFFFF SWAP2 DUP3 AND DUP2 MSTORE SWAP2 AND PUSH1 0x20 DUP3 ADD MSTORE PUSH4 0xFFFFFFFF SWAP1 SWAP2 AND PUSH1 0x40 DUP3 ADD MSTORE PUSH1 0x60 ADD SWAP1 JUMP JUMPDEST JUMP JUMPDEST CALLVALUE PUSH2 0xC7 JUMPI PUSH2 0x11B CALLDATASIZE PUSH1 0x4 PUSH2 0xCC JUMP JUMPDEST PUSH2 0x135 PUSH2 0x126 PUSH2 0x5A3 JUMP JUMPDEST PUSH1 0x40 MLOAD SWAP2 SWAP4 SWAP2 SWAP4 DUP5 SWAP4 DUP5 PUSH2 0xDB JUMP JUMPDEST SUB SWAP1 RETURN JUMPDEST PUSH2 0x15B SWAP2 PUSH1 0x8 MUL SHR JUMPDEST PUSH20 0xFFFFFFFFFFFFFFFFFFFFFFFFFFFFFFFFFFFFFFFF AND SWAP1 JUMP JUMPDEST SWAP1 JUMP JUMPDEST SWAP1 PUSH2 0x15B SWAP2 SLOAD PUSH2 0x139 JUMP JUMPDEST PUSH2 0x15B PUSH1 0x0 DUP1 PUSH2 0x15E JUMP JUMPDEST PUSH2 0xD7 SWAP1 PUSH2 0x142 JUMP JUMPDEST PUSH1 0x20 DUP2 ADD SWAP3 SWAP2 PUSH2 0x109 SWAP2 SWAP1 PUSH2 0x174 JUMP JUMPDEST CALLVALUE PUSH2 0xC7 JUMPI PUSH2 0x19D CALLDATASIZE PUSH1 0x4 PUSH2 0xCC JUMP JUMPDEST PUSH2 0x135 PUSH2 0x1A8 PUSH2 0x169 JUMP JUMPDEST PUSH1 0x40 MLOAD SWAP2 DUP3 SWAP2 DUP3 PUSH2 0x17D JUMP JUMPDEST PUSH2 0x15B SWAP2 PUSH1 0x8 MUL SHR DUP2 JUMP JUMPDEST SWAP1 PUSH2 0x15B SWAP2 SLOAD PUSH2 0x1B4 JUMP JUMPDEST PUSH2 0x15B PUSH1 0x0 PUSH1 0x3 PUSH2 0x1BF JUMP JUMPDEST CALLVALUE PUSH2 0xC7 JUMPI PUSH2 0x1E6 CALLDATASIZE PUSH1 0x4 PUSH2 0xCC JUMP JUMPDEST PUSH2 0x135 PUSH2 0x1F1 PUSH2 0x1CA JUMP JUMPDEST PUSH1 0x40 MLOAD SWAP2 DUP3 SWAP2 DUP3 SWAP1 DUP2 MSTORE PUSH1 0x20 ADD SWAP1 JUMP JUMPDEST PUSH2 0x15B SWAP2 PUSH1 0x8 MUL SHR JUMPDEST PUSH14 0xFFFFFFFFFFFFFFFFFFFFFFFFFFFF AND SWAP1 JUMP JUMPDEST SWAP1 PUSH2 0x15B SWAP2 SLOAD PUSH2 0x201 JUMP JUMPDEST PUSH2 0x15B PUSH1 0x0 PUSH1 0x2 PUSH2 0x21D JUMP JUMPDEST CALLVALUE PUSH2 0xC7 JUMPI PUSH2 0x244 CALLDATASIZE PUSH1 0x4 PUSH2 0xCC JUMP JUMPDEST PUSH2 0x135 PUSH2 0x24F PUSH2 0x228 JUMP JUMPDEST PUSH1 0x40 MLOAD SWAP2 DUP3 SWAP2 DUP3 PUSH14 0xFFFFFFFFFFFFFFFFFFFFFFFFFFFF SWAP1 SWAP2 AND DUP2 MSTORE PUSH1 0x20 ADD SWAP1 JUMP JUMPDEST PUSH2 0x279 DUP2 PUSH2 0x142 JUMP JUMPDEST SUB PUSH2 0xC7 JUMPI JUMP JUMPDEST SWAP1 POP CALLDATALOAD SWAP1 PUSH2 0x109 DUP3 PUSH2 0x270 JUMP JUMPDEST SWAP2 SWAP1 PUSH1 0x40 DUP4 DUP3 SUB SLT PUSH2 0xC7 JUMPI PUSH2 0x15B SWAP1 PUSH2 0x2A7 DUP2 DUP6 PUSH2 0x280 JUMP JUMPDEST SWAP4 PUSH1 0x20 ADD PUSH2 0x280 JUMP JUMPDEST CALLVALUE PUSH2 0xC7 JUMPI PUSH2 0x2C9 PUSH2 0x2C3 CALLDATASIZE PUSH1 0x4 PUSH2 0x28D JUMP JUMPDEST SWAP1 PUSH2 0x529 JUMP JUMPDEST PUSH1 0x40 MLOAD STOP JUMPDEST PUSH2 0x15B PUSH1 0xE PUSH1 0x2 PUSH2 0x21D JUMP JUMPDEST CALLVALUE PUSH2 0xC7 JUMPI PUSH2 0x2EA CALLDATASIZE PUSH1 0x4 PUSH2 0xCC JUMP JUMPDEST PUSH2 0x135 PUSH2 0x24F PUSH2 0x2CE JUMP JUMPDEST DUP1 PUSH2 0x279 JUMP JUMPDEST SWAP1 POP CALLDATALOAD SWAP1 PUSH2 0x109 DUP3 PUSH2 0x2F5 JUMP JUMPDEST SWAP1 SWAP2 PUSH1 0x60 DUP3 DUP5 SUB SLT PUSH2 0xC7 JUMPI PUSH2 0x15B PUSH2 0x321 DUP5 DUP5 PUSH2 0x2FB JUMP JUMPDEST SWAP4 PUSH2 0x32F DUP2 PUSH1 0x20 DUP7 ADD PUSH2 0x2FB JUMP JUMPDEST SWAP4 PUSH1 0x40 ADD PUSH2 0x280 JUMP JUMPDEST CALLVALUE PUSH2 0xC7 JUMPI PUSH2 0x2C9 PUSH2 0x34B CALLDATASIZE PUSH1 0x4 PUSH2 0x308 JUMP JUMPDEST SWAP2 PUSH2 0x789 JUMP JUMPDEST SWAP1 PUSH1 0x20 DUP3 DUP3 SUB SLT PUSH2 0xC7 JUMPI PUSH2 0x15B SWAP2 PUSH2 0x280 JUMP JUMPDEST PUSH2 0x142 PUSH2 0x15B PUSH2 0x15B SWAP3 PUSH20 0xFFFFFFFFFFFFFFFFFFFFFFFFFFFFFFFFFFFFFFFF AND SWAP1 JUMP JUMPDEST PUSH2 0x15B SWAP1 PUSH2 0x365 JUMP JUMPDEST PUSH2 0x15B SWAP1 PUSH2 0x388 JUMP JUMPDEST SWAP1 PUSH2 0x3A4 SWAP1 PUSH2 0x391 JUMP JUMPDEST PUSH1 0x0 MSTORE PUSH1 0x20 MSTORE PUSH1 0x40 PUSH1 0x0 KECCAK256 SWAP1 JUMP JUMPDEST PUSH2 0x15B SWAP1 PUSH2 0x3C4 PUSH1 0x4 SWAP2 PUSH1 0x0 SWAP3 PUSH2 0x39A JUMP JUMPDEST PUSH2 0x1BF JUMP JUMPDEST CALLVALUE PUSH2 0xC7 JUMPI PUSH2 0x135 PUSH2 0x1F1 PUSH2 0x3DF CALLDATASIZE PUSH1 0x4 PUSH2 0x351 JUMP JUMPDEST PUSH2 0x3B2 JUMP JUMPDEST PUSH2 0x15B PUSH1 0x0 PUSH1 0x5 PUSH2 0x15E JUMP JUMPDEST CALLVALUE PUSH2 0xC7 JUMPI PUSH2 0x400 CALLDATASIZE PUSH1 0x4 PUSH2 0xCC JUMP JUMPDEST PUSH2 0x135 PUSH2 0x1A8 PUSH2 0x3E4 JUMP JUMPDEST PUSH2 0x15B SWAP2 PUSH1 0x8 MUL SHR JUMPDEST PUSH4 0xFFFFFFFF AND SWAP1 JUMP JUMPDEST SWAP1 PUSH2 0x15B SWAP2 SLOAD PUSH2 0x40B JUMP JUMPDEST PUSH2 0x15B PUSH1 0x1C PUSH1 0x2 PUSH2 0x41D JUMP JUMPDEST CALLVALUE PUSH2 0xC7 JUMPI PUSH2 0x444 CALLDATASIZE PUSH1 0x4 PUSH2 0xCC JUMP JUMPDEST PUSH2 0x135 PUSH2 0x44F PUSH2 0x428 JUMP JUMPDEST PUSH1 0x40 MLOAD SWAP2 DUP3 SWAP2 DUP3 PUSH4 0xFFFFFFFF SWAP1 SWAP2 AND DUP2 MSTORE PUSH1 0x20 ADD SWAP1 JUMP JUMPDEST PUSH2 0x15B PUSH1 0x0 PUSH1 0x1 PUSH2 0x15E JUMP JUMPDEST CALLVALUE PUSH2 0xC7 JUMPI PUSH2 0x482 CALLDATASIZE PUSH1 0x4 PUSH2 0xCC JUMP JUMPDEST PUSH2 0x135 PUSH2 0x1A8 PUSH2 0x466 JUMP JUMPDEST PUSH2 0x15B SWAP1 PUSH2 0x142 JUMP JUMPDEST PUSH2 0x15B SWAP1 SLOAD PUSH2 0x48D JUMP JUMPDEST ISZERO PUSH2 0x4A7 JUMPI JUMP JUMPDEST PUSH1 0x40 MLOAD PUSH3 0x461BCD PUSH1 0xE5 SHL DUP2 MSTORE PUSH1 0x20 PUSH1 0x4 DUP3 ADD MSTORE PUSH1 0x9 PUSH1 0x24 DUP3 ADD MSTORE PUSH32 0x464F5242494444454E0000000000000000000000000000000000000000000000 PUSH1 0x44 DUP3 ADD MSTORE PUSH1 0x64 SWAP1 REVERT JUMPDEST SWAP1 PUSH20 0xFFFFFFFFFFFFFFFFFFFFFFFFFFFFFFFFFFFFFFFF SWAP1 JUMPDEST SWAP2 DUP2 NOT AND SWAP2 AND OR SWAP1 JUMP JUMPDEST SWAP1 PUSH2 0x51E PUSH2 0x15B PUSH2 0x525 SWAP3 PUSH2 0x391 JUMP JUMPDEST DUP3 SLOAD PUSH2 0x4EC JUMP JUMPDEST SWAP1 SSTORE JUMP JUMPDEST SWAP1 PUSH2 0x55D PUSH2 0x109 SWAP3 PUSH2 0x556 CALLER PUSH2 0x550 PUSH2 0x54A PUSH2 0x545 PUSH1 0x5 PUSH2 0x496 JUMP JUMPDEST PUSH2 0x142 JUMP JUMPDEST SWAP2 PUSH2 0x142 JUMP JUMPDEST EQ PUSH2 0x4A0 JUMP JUMPDEST PUSH1 0x0 PUSH2 0x50E JUMP JUMPDEST PUSH1 0x1 PUSH2 0x50E JUMP JUMPDEST PUSH2 0x15B SWAP1 PUSH2 0x20A JUMP JUMPDEST PUSH2 0x15B SWAP1 SLOAD PUSH2 0x564 JUMP JUMPDEST PUSH2 0x15B SWAP1 PUSH1 0x70 SHR PUSH2 0x20A JUMP JUMPDEST PUSH2 0x15B SWAP1 SLOAD PUSH2 0x577 JUMP JUMPDEST PUSH2 0x15B SWAP1 PUSH1 0xE0 SHR PUSH2 0x414 JUMP JUMPDEST PUSH2 0x15B SWAP1 SLOAD PUSH2 0x58D JUMP JUMPDEST PUSH2 0x5AD PUSH1 0x2 PUSH2 0x56D JUMP JUMPDEST SWAP1 PUSH2 0x5B8 PUSH1 0x2 PUSH2 0x583 JUMP JUMPDEST SWAP1 PUSH2 0x15B PUSH1 0x2 PUSH2 0x599 JUMP JUMPDEST PUSH2 0x15B PUSH2 0x15B PUSH2 0x15B SWAP3 SWAP1 JUMP JUMPDEST ISZERO PUSH2 0x5D7 JUMPI JUMP JUMPDEST PUSH1 0x40 MLOAD PUSH3 0x461BCD PUSH1 0xE5 SHL DUP2 MSTORE PUSH1 0x20 PUSH1 0x4 DUP3 ADD MSTORE PUSH1 0x13 PUSH1 0x24 DUP3 ADD MSTORE PUSH32 0x494E53554646494349454E545F4F555450555400000000000000000000000000 PUSH1 0x44 DUP3 ADD MSTORE PUSH1 0x64 SWAP1 REVERT JUMPDEST PUSH2 0x15B PUSH2 0x15B PUSH2 0x15B SWAP3 PUSH14 0xFFFFFFFFFFFFFFFFFFFFFFFFFFFF AND SWAP1 JUMP JUMPDEST ISZERO PUSH2 0x640 JUMPI JUMP JUMPDEST PUSH1 0x40 MLOAD PUSH3 0x461BCD PUSH1 0xE5 SHL DUP2 MSTORE PUSH1 0x20 PUSH1 0x4 DUP3 ADD MSTORE PUSH1 0x16 PUSH1 0x24 DUP3 ADD MSTORE PUSH32 0x494E53554646494349454E545F4C495155494449545900000000000000000000 PUSH1 0x44 DUP3 ADD MSTORE PUSH1 0x64 SWAP1 REVERT JUMPDEST PUSH4 0x4E487B71 PUSH1 0xE0 SHL PUSH1 0x0 MSTORE PUSH1 0x11 PUSH1 0x4 MSTORE PUSH1 0x24 PUSH1 0x0 REVERT JUMPDEST SWAP2 SWAP1 DUP3 SUB SWAP2 DUP3 GT PUSH2 0x6A8 JUMPI JUMP JUMPDEST PUSH2 0x685 JUMP JUMPDEST ISZERO PUSH2 0x6B4 JUMPI JUMP JUMPDEST PUSH1 0x40 MLOAD PUSH3 0x461BCD PUSH1 0xE5 SHL DUP2 MSTORE PUSH1 0x20 PUSH1 0x4 DUP3 ADD MSTORE PUSH1 0x12 PUSH1 0x24 DUP3 ADD MSTORE PUSH32 0x494E53554646494349454E545F494E5055540000000000000000000000000000 PUSH1 0x44 DUP3 ADD MSTORE PUSH1 0x64 SWAP1 REVERT JUMPDEST DUP2 DUP2 MUL SWAP3 SWAP2 DUP2 ISZERO SWAP2 DUP5 DIV EQ OR ISZERO PUSH2 0x6A8 JUMPI JUMP JUMPDEST ISZERO PUSH2 0x713 JUMPI JUMP JUMPDEST PUSH1 0x40 MLOAD PUSH3 0x461BCD PUSH1 0xE5 SHL DUP2 MSTORE PUSH1 0x20 PUSH1 0x4 DUP3 ADD MSTORE PUSH1 0x1 PUSH1 0x24 DUP3 ADD MSTORE PUSH32 0x4B00000000000000000000000000000000000000000000000000000000000000 PUSH1 0x44 DUP3 ADD MSTORE PUSH1 0x64 SWAP1 REVERT JUMPDEST PUSH2 0x785 PUSH2 0x109 SWAP5 PUSH2 0x77E PUSH1 0x60 SWAP5 SWAP9 SWAP8 SWAP6 PUSH2 0x777 PUSH1 0x80 DUP7 ADD SWAP11 PUSH1 0x0 DUP8 ADD MSTORE JUMP JUMPDEST PUSH1 0x20 DUP6 ADD MSTORE JUMP JUMPDEST PUSH1 0x40 DUP4 ADD MSTORE JUMP JUMPDEST ADD MSTORE JUMP JUMPDEST SWAP2 PUSH1 0x0 SWAP1 PUSH2 0x796 DUP3 PUSH2 0x5C3 JUMP JUMPDEST DUP5 GT DUP1 DUP2 ISZERO PUSH2 0x9F2 JUMPI JUMPDEST PUSH2 0x7A9 SWAP1 PUSH2 0x5D0 JUMP JUMPDEST PUSH2 0x7BB PUSH2 0x7B6 PUSH1 0x2 PUSH2 0x56D JUMP JUMPDEST PUSH2 0x61C JUMP JUMPDEST DUP6 LT DUP1 PUSH2 0x9D8 JUMPI JUMPDEST PUSH2 0x7CC SWAP1 PUSH2 0x639 JUMP JUMPDEST PUSH2 0x9C5 JUMPI JUMPDEST DUP3 PUSH2 0x7DB DUP4 PUSH2 0x5C3 JUMP JUMPDEST DUP2 GT PUSH2 0x9AB JUMPI JUMPDEST POP POP PUSH2 0x7F5 PUSH2 0x7F0 DUP3 PUSH2 0x496 JUMP JUMPDEST PUSH2 0xDFE JUMP JUMPDEST PUSH2 0x931 PUSH2 0x805 PUSH2 0x7F0 PUSH1 0x1 PUSH2 0x496 JUMP JUMPDEST PUSH2 0x81E PUSH2 0x15B DUP8 PUSH2 0x819 PUSH2 0x7B6 PUSH1 0x2 PUSH2 0x56D JUMP JUMPDEST PUSH2 0x69B JUMP JUMPDEST DUP4 GT ISZERO PUSH2 0x99C JUMPI PUSH2 0x83F PUSH2 0x839 DUP8 PUSH2 0x819 PUSH2 0x7B6 PUSH1 0x2 PUSH2 0x56D JUMP JUMPDEST DUP5 PUSH2 0x69B JUMP JUMPDEST SWAP3 JUMPDEST PUSH2 0x855 PUSH2 0x15B DUP8 PUSH2 0x819 PUSH2 0x7B6 PUSH1 0x2 PUSH2 0x583 JUMP JUMPDEST DUP3 GT ISZERO PUSH2 0x98A JUMPI PUSH2 0x88E PUSH2 0x873 PUSH2 0x839 DUP9 PUSH2 0x819 PUSH2 0x7B6 PUSH1 0x2 PUSH2 0x583 JUMP JUMPDEST SWAP6 JUMPDEST PUSH2 0x87E DUP2 PUSH2 0x5C3 JUMP JUMPDEST DUP7 GT SWAP1 DUP2 ISZERO PUSH2 0x978 JUMPI JUMPDEST POP PUSH2 0x6AD JUMP JUMPDEST PUSH2 0x92C PUSH2 0x8EF PUSH2 0x3E8 PUSH2 0x8CB DUP8 PUSH2 0x8D1 PUSH2 0x8E9 PUSH2 0x8E3 PUSH2 0x8DD PUSH2 0x8D7 PUSH2 0x8BC PUSH2 0x8B6 DUP10 PUSH2 0x5C3 JUMP JUMPDEST DUP13 PUSH2 0x6F9 JUMP JUMPDEST PUSH2 0x8D1 PUSH1 0x3 SWAP8 PUSH2 0x8CB DUP10 PUSH2 0x5C3 JUMP JUMPDEST SWAP1 PUSH2 0x6F9 JUMP JUMPDEST SWAP1 PUSH2 0x69B JUMP JUMPDEST SWAP7 PUSH2 0x5C3 JUMP JUMPDEST DUP11 PUSH2 0x6F9 JUMP JUMPDEST SWAP3 PUSH2 0x5C3 JUMP JUMPDEST DUP12 PUSH2 0x6F9 JUMP JUMPDEST PUSH2 0x925 PUSH2 0x921 PUSH2 0x15B PUSH2 0x915 PUSH2 0x908 PUSH2 0x7B6 PUSH1 0x2 PUSH2 0x56D JUMP JUMPDEST PUSH2 0x8CB PUSH2 0x7B6 PUSH1 0x2 PUSH2 0x583 JUMP JUMPDEST PUSH2 0x8CB PUSH3 0xF4240 PUSH2 0x5C3 JUMP JUMPDEST SWAP2 SWAP1 JUMP JUMPDEST LT ISZERO PUSH2 0x70C JUMP JUMPDEST PUSH2 0xB4B JUMP JUMPDEST PUSH2 0x973 CALLER SWAP4 PUSH2 0x960 PUSH32 0x49926BBEBE8474393F434DFA4F78694C0923EFA07D19F2284518BFABD06EB737 SWAP6 PUSH2 0x391 JUMP JUMPDEST SWAP6 PUSH2 0x96A PUSH1 0x40 MLOAD SWAP1 JUMP JUMPDEST SWAP5 DUP6 SWAP5 DUP6 PUSH2 0x758 JUMP JUMPDEST SUB SWAP1 LOG2 JUMP JUMPDEST PUSH2 0x982 SWAP2 POP PUSH2 0x5C3 JUMP JUMPDEST DUP7 GT CODESIZE PUSH2 0x888 JUMP JUMPDEST PUSH2 0x88E PUSH2 0x996 DUP7 PUSH2 0x5C3 JUMP JUMPDEST SWAP6 PUSH2 0x875 JUMP JUMPDEST PUSH2 0x9A5 DUP5 PUSH2 0x5C3 JUMP JUMPDEST SWAP3 PUSH2 0x841 JUMP JUMPDEST PUSH2 0x9BE SWAP2 PUSH2 0x9B9 PUSH1 0x1 PUSH2 0x496 JUMP JUMPDEST PUSH2 0xD29 JUMP JUMPDEST CODESIZE DUP3 PUSH2 0x7E2 JUMP JUMPDEST PUSH2 0x9D3 DUP5 DUP3 PUSH2 0x9B9 DUP6 PUSH2 0x496 JUMP JUMPDEST PUSH2 0x7D1 JUMP JUMPDEST POP PUSH2 0x7CC PUSH2 0x9E9 PUSH2 0x7B6 PUSH1 0x2 PUSH2 0x583 JUMP JUMPDEST DUP6 LT SWAP1 POP PUSH2 0x7C3 JUMP JUMPDEST POP PUSH2 0x7A9 PUSH2 0x9FF DUP5 PUSH2 0x5C3 JUMP JUMPDEST DUP6 GT SWAP1 POP PUSH2 0x7A0 JUMP JUMPDEST ISZERO PUSH2 0xA0F JUMPI JUMP JUMPDEST PUSH1 0x40 MLOAD PUSH3 0x461BCD PUSH1 0xE5 SHL DUP2 MSTORE PUSH1 0x20 PUSH1 0x4 DUP3 ADD MSTORE PUSH1 0x8 PUSH1 0x24 DUP3 ADD MSTORE PUSH32 0x4F564552464C4F57000000000000000000000000000000000000000000000000 PUSH1 0x44 DUP3 ADD MSTORE PUSH1 0x64 SWAP1 REVERT JUMPDEST PUSH2 0x20A PUSH2 0x15B PUSH2 0x15B SWAP3 SWAP1 JUMP JUMPDEST SWAP1 PUSH14 0xFFFFFFFFFFFFFFFFFFFFFFFFFFFF SWAP1 PUSH2 0x504 JUMP JUMPDEST PUSH2 0x20A PUSH2 0x15B PUSH2 0x15B SWAP3 PUSH14 0xFFFFFFFFFFFFFFFFFFFFFFFFFFFF AND SWAP1 JUMP JUMPDEST SWAP1 PUSH2 0xAA4 PUSH2 0x15B PUSH2 0x525 SWAP3 PUSH2 0xA77 JUMP JUMPDEST DUP3 SLOAD PUSH2 0xA61 JUMP JUMPDEST SWAP1 PUSH28 0xFFFFFFFFFFFFFFFFFFFFFFFFFFFF0000000000000000000000000000 SWAP1 PUSH1 0x70 SHL PUSH2 0x504 JUMP JUMPDEST SWAP1 PUSH2 0xAE2 PUSH2 0x15B PUSH2 0x525 SWAP3 PUSH2 0xA77 JUMP JUMPDEST DUP3 SLOAD PUSH2 0xAAB JUMP JUMPDEST PUSH2 0x414 PUSH2 0x15B PUSH2 0x15B SWAP3 SWAP1 JUMP JUMPDEST SWAP1 PUSH32 0xFFFFFFFF00000000000000000000000000000000000000000000000000000000 SWAP1 PUSH1 0xE0 SHL PUSH2 0x504 JUMP JUMPDEST PUSH2 0x414 PUSH2 0x15B PUSH2 0x15B SWAP3 PUSH4 0xFFFFFFFF AND SWAP1 JUMP JUMPDEST SWAP1 PUSH2 0xB44 PUSH2 0x15B PUSH2 0x525 SWAP3 PUSH2 0xB21 JUMP JUMPDEST DUP3 SLOAD PUSH2 0xAF6 JUMP JUMPDEST PUSH2 0xB97 SWAP2 PUSH2 0xB84 PUSH2 0xB89 PUSH2 0xB90 SWAP4 PUSH2 0xB84 PUSH14 0xFFFFFFFFFFFFFFFFFFFFFFFFFFFF PUSH2 0xB74 DUP2 PUSH2 0x61C JUMP JUMPDEST DUP4 GT ISZERO SWAP1 DUP2 PUSH2 0xBAA JUMPI JUMPDEST POP PUSH2 0xA08 JUMP JUMPDEST PUSH2 0xA54 JUMP JUMPDEST PUSH1 0x2 PUSH2 0xA94 JUMP JUMPDEST PUSH1 0x2 PUSH2 0xAD2 JUMP JUMPDEST PUSH2 0x109 PUSH2 0xBA3 TIMESTAMP PUSH2 0xAE9 JUMP JUMPDEST PUSH1 0x2 PUSH2 0xB34 JUMP JUMPDEST PUSH2 0xBB4 SWAP2 POP PUSH2 0x61C JUMP JUMPDEST DUP6 GT ISZERO CODESIZE PUSH2 0xB7E JUMP JUMPDEST PUSH2 0xBD0 PUSH2 0xBCA PUSH2 0x15B SWAP3 SWAP1 JUMP JUMPDEST PUSH1 0xE0 SHL SWAP1 JUMP JUMPDEST PUSH32 0xFFFFFFFF00000000000000000000000000000000000000000000000000000000 AND SWAP1 JUMP JUMPDEST SWAP2 PUSH1 0x20 PUSH2 0x109 SWAP3 SWAP5 SWAP4 PUSH2 0x785 PUSH1 0x40 DUP3 ADD SWAP7 PUSH1 0x0 DUP4 ADD SWAP1 PUSH2 0x174 JUMP JUMPDEST PUSH4 0x4E487B71 PUSH1 0xE0 SHL PUSH1 0x0 MSTORE PUSH1 0x41 PUSH1 0x4 MSTORE PUSH1 0x24 PUSH1 0x0 REVERT JUMPDEST SWAP1 PUSH1 0x1F ADD PUSH1 0x1F NOT AND DUP2 ADD SWAP1 DUP2 LT PUSH8 0xFFFFFFFFFFFFFFFF DUP3 GT OR PUSH2 0xC48 JUMPI PUSH1 0x40 MSTORE JUMP JUMPDEST PUSH2 0xC10 JUMP JUMPDEST SWAP1 PUSH2 0x109 PUSH2 0xC5A PUSH1 0x40 MLOAD SWAP1 JUMP JUMPDEST SWAP3 DUP4 PUSH2 0xC26 JUMP JUMPDEST PUSH8 0xFFFFFFFFFFFFFFFF DUP2 GT PUSH2 0xC48 JUMPI PUSH1 0x20 SWAP1 PUSH1 0x1F ADD PUSH1 0x1F NOT AND ADD SWAP1 JUMP JUMPDEST SWAP1 PUSH2 0xC90 PUSH2 0xC8B DUP4 PUSH2 0xC61 JUMP JUMPDEST PUSH2 0xC4D JUMP JUMPDEST SWAP2 DUP3 MSTORE JUMP JUMPDEST RETURNDATASIZE ISZERO PUSH2 0xCAF JUMPI PUSH2 0xCA4 RETURNDATASIZE PUSH2 0xC7E JUMP JUMPDEST SWAP1 RETURNDATASIZE PUSH1 0x0 PUSH1 0x20 DUP5 ADD RETURNDATACOPY JUMP JUMPDEST PUSH1 0x60 SWAP1 JUMP JUMPDEST DUP1 ISZERO ISZERO PUSH2 0x279 JUMP JUMPDEST SWAP1 POP MLOAD SWAP1 PUSH2 0x109 DUP3 PUSH2 0xCB4 JUMP JUMPDEST SWAP1 PUSH1 0x20 DUP3 DUP3 SUB SLT PUSH2 0xC7 JUMPI PUSH2 0x15B SWAP2 PUSH2 0xCBC JUMP JUMPDEST ISZERO PUSH2 0xCE4 JUMPI JUMP JUMPDEST PUSH1 0x40 MLOAD PUSH3 0x461BCD PUSH1 0xE5 SHL DUP2 MSTORE PUSH1 0x20 PUSH1 0x4 DUP3 ADD MSTORE PUSH1 0xF PUSH1 0x24 DUP3 ADD MSTORE PUSH32 0x5452414E534645525F4641494C45440000000000000000000000000000000000 PUSH1 0x44 DUP3 ADD MSTORE PUSH1 0x64 SWAP1 REVERT JUMPDEST PUSH1 0x0 SWAP2 SWAP1 PUSH1 0x4 PUSH2 0xD71 DUP5 SWAP4 PUSH2 0xD62 PUSH2 0x109 SWAP8 PUSH2 0xD48 PUSH4 0xA9059CBB PUSH2 0xBBD JUMP JUMPDEST SWAP3 PUSH2 0xD52 PUSH1 0x40 MLOAD SWAP1 JUMP JUMPDEST SWAP6 DUP7 SWAP5 PUSH1 0x20 DUP7 ADD SWAP1 DUP2 MSTORE ADD PUSH2 0xBF5 JUMP JUMPDEST PUSH1 0x20 DUP3 ADD DUP2 SUB DUP3 MSTORE SUB DUP3 PUSH2 0xC26 JUMP JUMPDEST DUP3 PUSH1 0x20 DUP3 ADD SWAP2 MLOAD SWAP3 GAS CALL PUSH2 0xD83 PUSH2 0xC95 JUMP JUMPDEST DUP2 PUSH2 0xD8F JUMPI JUMPDEST POP PUSH2 0xCDD JUMP JUMPDEST SWAP1 POP PUSH2 0xD99 DUP2 MLOAD SWAP1 JUMP JUMPDEST PUSH2 0xDA6 PUSH2 0x921 PUSH1 0x0 PUSH2 0x5C3 JUMP JUMPDEST EQ SWAP1 DUP2 ISZERO PUSH2 0xDB6 JUMPI JUMPDEST POP CODESIZE PUSH2 0xD89 JUMP JUMPDEST PUSH2 0xDD0 SWAP2 POP PUSH1 0x20 PUSH2 0xDC5 DUP3 MLOAD SWAP1 JUMP JUMPDEST DUP2 DUP4 ADD ADD SWAP2 ADD PUSH2 0xCC9 JUMP JUMPDEST CODESIZE PUSH2 0xDAF JUMP JUMPDEST ISZERO PUSH2 0xC7 JUMPI JUMP JUMPDEST SWAP1 POP MLOAD SWAP1 PUSH2 0x109 DUP3 PUSH2 0x2F5 JUMP JUMPDEST SWAP1 PUSH1 0x20 DUP3 DUP3 SUB SLT PUSH2 0xC7 JUMPI PUSH2 0x15B SWAP2 PUSH2 0xDDD JUMP JUMPDEST PUSH1 0x0 DUP1 PUSH2 0x15B SWAP3 PUSH2 0xE0D PUSH1 0x0 SWAP1 JUMP JUMPDEST POP PUSH1 0x4 PUSH2 0xE47 PUSH4 0x70A08231 PUSH2 0xD62 PUSH2 0xE2D PUSH2 0xE27 ADDRESS PUSH2 0x391 JUMP JUMPDEST SWAP3 PUSH2 0xBBD JUMP JUMPDEST SWAP2 PUSH2 0xE37 PUSH1 0x40 MLOAD SWAP1 JUMP JUMPDEST SWAP5 DUP6 SWAP4 PUSH1 0x20 DUP6 ADD SWAP1 DUP2 MSTORE ADD PUSH2 0x17D JUMP JUMPDEST PUSH1 0x20 DUP2 ADD SWAP1 MLOAD SWAP2 GAS STATICCALL PUSH2 0xE58 PUSH2 0xC95 JUMP JUMPDEST SWAP1 DUP1 PUSH2 0xE7D JUMPI JUMPDEST PUSH2 0xE68 SWAP1 PUSH2 0xDD6 JUMP JUMPDEST PUSH1 0x20 PUSH2 0xE72 DUP3 MLOAD SWAP1 JUMP JUMPDEST DUP2 DUP4 ADD ADD SWAP2 ADD PUSH2 0xDEA JUMP JUMPDEST POP PUSH2 0xE68 PUSH2 0xE89 DUP3 MLOAD SWAP1 JUMP JUMPDEST PUSH2 0xE96 PUSH2 0x921 PUSH1 0x20 PUSH2 0x5C3 JUMP JUMPDEST LT ISZERO SWAP1 POP PUSH2 0xE5F JUMP INVALID LOG2 PUSH5 0x6970667358 0x22 SLT KECCAK256 KECCAK256 PUSH11 0x4B2C38BB9B792B1400429E 0x1E DUP14 NOT LOG3 GT 0x5C CHAINID SLOAD SDIV SELFBALANCE PUSH28 0x3C7AAB5E2540A48D64736F6C63430008140033000000000000000000 "},"methodIdentifiers":{"balanceOf(address)":"70a08231","blockTimestampLast()":"c5700a02","factory()":"c45a0155","getReserves()":"0902f1ac","initialize(address,address)":"485cc955","reserve0()":"443cb4bc","reserve1()":"5a76f25e","swap(uint256,uint256,address)":"6d9a640a","token0()":"0dfe1681","token1()":"d21220a7","totalSupply()":"18160ddd"}}}}}