{"contracts/HyperIndexFactoryLite.sol":{"HyperIndexFactoryLite":{"abi":[{"inputs":[{"internalType":"address","name":"_owner","type":"address"}],"stateMutability":"nonpayable","type":"constructor"},{"inputs":[{"internalType":"address","name":"owner","type":"address"}],"name":"OwnableInvalidOwner","type":"error"},{"inputs":[{"internalType":"address","name":"account","type":"address"}],"name":"OwnableUnauthorizedAccount","type":"error"},{"anonymous":false,"inputs":[{"indexed":true,"internalType":"address","name":"previousOwner","type":"address"},{"indexed":true,"internalType":"address","name":"newOwner","type":"address"}],"name":"OwnershipTransferred","type":"event"},{"anonymous":false,"inputs":[{"indexed":true,"internalType":"address","name":"token0","type":"address"},{"indexed":true,"internalType":"address","name":"token1","type":"address"},{"indexed":false,"internalType":"address","name":"pair","type":"address"},{"indexed":false,"internalType":"uint256","name":"pairLength","type":"uint256"}],"name":"PairCreated","type":"event"},{"inputs":[{"internalType":"uint256","name":"","type":"uint256"}],"name":"allPairs","outputs":[{"internalType":"address","name":"","type":"address"}],"stateMutability":"view","type":"function"},{"inputs":[],"name":"allPairsLength","outputs":[{"internalType":"uint256","name":"","type":"uint256"}],"stateMutability":"view","type":"function"},{"inputs":[{"internalType":"address","name":"tokenA","type":"address"},{"internalType":"address","name":"tokenB","type":"address"}],"name":"createPair","outputs":[{"internalType":"address","name":"pair","type":"address"}],"stateMutability":"nonpayable","type":"function"},{"inputs":[],"name":"feeTo","outputs":[{"internalType":"address","name":"","type":"address"}],"stateMutability":"view","type":"function"},{"inputs":[{"internalType":"address","name":"","type":"address"},{"internalType":"address","name":"","type":"address"}],"name":"getPair","outputs":[{"internalType":"address","name":"","type":"address"}],"stateMutability":"view","type":"function"},{"inputs":[],"name":"owner","outputs":[{"internalType":"address","name":"","type":"address"}],"stateMutability":"view","type":"function"},{"inputs":[],"name":"pairImplementation","outputs":[{"internalType":"address","name":"","type":"address"}],"stateMutability":"view","type":"function"},{"inputs":[],"name":"renounceOwnership","outputs":[],"stateMutability":"nonpayable","type":"function"},{"inputs":[{"internalType":"address","name":"_feeTo","type":"address"}],"name":"setFeeTo","outputs":[],"stateMutability":"nonpayable","type":"function"},{"inputs":[{"internalType":"address","name":"_pairImplementation","type":"address"}],"name":"setPairImplementation","outputs":[],"stateMutability":"nonpayable","type":"function"},{"inputs":[{"internalType":"address","name":"newOwner","type":"address"}],"name":"transferOwnership","outputs":[],"stateMutability":"nonpayable","type":"function"}],"evm":{"bytecode":{"linkReferences":{},"object":"60806040523462000030576200001e62000018620000d3565b620000f6565b604051610ba9620002658239610ba990f35b600080fd5b634e487b7160e01b600052604160045260246000fd5b90601f01601f191681019081106001600160401b038211176200006d57604052565b62000035565b906200008a6200008260405190565b92836200004b565b565b6001600160a01b031690565b90565b6001600160a01b038116036200003057565b905051906200008a826200009b565b9060208282031262000030576200009891620000ad565b6200009862000e0e80380380620000ea8162000073565b928339810190620000bc565b6200008a906200012f565b6200008c62000098620000989290565b620000989062000101565b6001600160a01b03909116815260200190565b6200013b600062000111565b6001600160a01b0381166001600160a01b038316146200016157506200008a9062000202565b62000187906200017060405190565b631e4fbdf760e01b8152918291600483016200011c565b0390fd5b62000098906200008c565b6200009890546200018b565b62000098906200008c906001600160a01b031682565b6200009890620001a2565b6200009890620001b8565b90620001e262000098620001fe92620001c3565b82546001600160a01b0319166001600160a01b03919091161790565b9055565b6200020e600062000196565b906200021c816000620001ce565b620002536200024c7f8be0079c531659141344cd1fd0a4f28419497f9722a3daafe3b4186f6b6457e093620001c3565b91620001c3565b916200025e60405190565b600090a356fe6080604052600436101561001257600080fd5b60003560e01c8063017e7e58146100c25780631e3dd18b146100bd578063574f2ba3146100b85780636b262edc146100b3578063715018a6146100ae57806371f3c596146100a95780638da5cb5b146100a4578063c9c653961461009f578063e6a439051461009a578063f2fde38b146100955763f46901ed036100c7576103b6565b61039e565b610382565b6102fa565b6102bc565b6102a1565b61027d565b610260565b61020a565b6101ef565b610132565b600080fd5b60009103126100c757565b6100f9916008021c5b73ffffffffffffffffffffffffffffffffffffffff1690565b90565b906100f991546100d7565b6100f9600060036100fc565b61011c906100e0565b9052565b6020810192916101309190610113565b565b346100c7576101423660046100cc565b61015961014d610107565b60405191829182610120565b0390f35b805b036100c757565b905035906101308261015d565b906020828203126100c7576100f991610166565b634e487b7160e01b600052603260045260246000fd5b80548210156101c0576101b7600191600052602060002090565b91020190600090565b610187565b600260006101d1825490565b8310156101ec57506100f9916101e69161019d565b906100fc565b80fd5b346100c75761015961014d610205366004610173565b6101c5565b346100c75761021a3660046100cc565b61015961022660025490565b6040519182918290815260200190565b61015f816100e0565b9050359061013082610236565b906020828203126100c7576100f99161023f565b346100c75761027861027336600461024c565b610634565b604051005b346100c75761028d3660046100cc565b610278610423565b6100f9600060046100fc565b346100c7576102b13660046100cc565b61015961014d610295565b346100c7576102cc3660046100cc565b61015961014d6103e1565b91906040838203126100c7576100f9906102f1818561023f565b9360200161023f565b346100c75761015961014d6103103660046102d7565b90610923565b6100e06100f96100f99273ffffffffffffffffffffffffffffffffffffffff1690565b6100f990610316565b6100f990610339565b9061035590610342565b600052602052604060002090565b61037d6100f99261037860019360009461034b565b61034b565b6100fc565b346100c75761015961014d6103983660046102d7565b90610363565b346100c7576102786103b136600461024c565b610502565b346100c7576102786103c936600461024c565b610b6a565b6100f9906100e0565b6100f990546103ce565b6100f960006103d7565b6103f361042b565b610130610411565b6100e06100f96100f99290565b6100f9906103fb565b61013061041e6000610408565b610548565b6101306103eb565b6104336103e1565b3390610447610441836100e0565b916100e0565b0361044f5750565b61048b9061045c60405190565b9182917f118cdaa700000000000000000000000000000000000000000000000000000000835260048301610120565b0390fd5b6101309061049b61042b565b6104a56000610408565b6104ae816100e0565b6104b7836100e0565b146104c6575061013090610548565b61048b906104d360405190565b9182917f1e4fbdf700000000000000000000000000000000000000000000000000000000835260048301610120565b6101309061048f565b9073ffffffffffffffffffffffffffffffffffffffff905b9181191691161790565b9061053d6100f961054492610342565b825461050b565b9055565b61055260006103d7565b9061055e81600061052d565b61059161058b7f8be0079c531659141344cd1fd0a4f28419497f9722a3daafe3b4186f6b6457e093610342565b91610342565b9161059b60405190565b80805b0390a3565b610130906105af61042b565b610604565b0190565b156105bf57565b60405162461bcd60e51b815260206004820152601660248201527f496e76616c696420696d706c656d656e746174696f6e000000000000000000006044820152606490fd5b6101309061062d61061d6106186000610408565b6100e0565b610626836100e0565b14156105b8565b600461052d565b610130906105a3565b1561064457565b60405162461bcd60e51b815260206004820152601660248201527f496d706c656d656e746174696f6e206e6f7420736574000000000000000000006044820152606490fd5b1561069057565b60405162461bcd60e51b815260206004820152602660248201527f4879706572496e646578466163746f72793a204944454e544943414c5f41444460448201527f52455353455300000000000000000000000000000000000000000000000000006064820152608490fd5b1561070257565b60405162461bcd60e51b815260206004820152601f60248201527f4879706572496e646578466163746f72793a205a45524f5f41444452455353006044820152606490fd5b1561074e57565b60405162461bcd60e51b815260206004820152601e60248201527f4879706572496e646578466163746f72793a20504149525f45584953545300006044820152606490fd5b61079f61011c916100e0565b60601b90565b6100f9916107e26107db6014937f3d602d80600a3d3981f3363d3d373d3d3d363d73000000000000000000000000815260140190565b8092610793565b017f5af43d82803e903d91602b57fd5bf300000000000000000000000000000000008152600f0190565b634e487b7160e01b600052604160045260246000fd5b90601f01601f1916810190811067ffffffffffffffff82111761084457604052565b61080c565b60148161085b6105b493839695610793565b018092610793565b91602061013092949361087e60408201966000830190610113565b0190610113565b6040513d6000823e3d90fd5b919060086105239102916108b873ffffffffffffffffffffffffffffffffffffffff841b90565b921b90565b91906108ce6100f961054493610342565b908354610891565b908154916801000000000000000083101561084457826108fe9160016101309501815561019d565b906108bd565b91602061013092949361091f60408201966000830190610113565b0152565b919061092f60046103d7565b60009361095261093e86610408565b9261094b610441856100e0565b141561063d565b61096e61095e846100e0565b610967836100e0565b1415610689565b610977836100e0565b610980826100e0565b1015610b4d5791905b6109a5610995826100e0565b61099e856100e0565b14156106fb565b6109d36001916109cd6104416109c76109c2876103788a8961034b565b6103d7565b926100e0565b14610747565b6109dd60046103d7565b604051906109ff826109f36020820193846107a5565b83810382520383610822565b604051610a218160208101610a15888a83610849565b90810382520382610822565b610a33610a2c825190565b9160200190565b2091519087f594610a4b610a4687610342565b610342565b9163485cc95592803b156100c757610a71938391610a6860405190565b95869260e01b90565b8252818381610a848a8c60048401610863565b03925af1918215610b485761037885610ab8938893610abd978c97610b1b575b505061037886610ab884610378888661034b565b61052d565b610ad06002610acc86826108d6565b5490565b9161059e610b07610b017f0d3648bd0f6ba80134a33ba9275ac585d9d315f0ad8355cddefde31afa28d0e993610342565b93610342565b93610b1160405190565b9182918883610904565b81610b3a92903d10610b41575b610b328183610822565b8101906100cc565b3880610aa4565b503d610b28565b610885565b90610989565b61013090610b5f61042b565b61013090600361052d565b61013090610b5356fea264697066735822122056d3ea03e1a045b37c06b29ccfd5146f8a0c2710941c7ff09d5b74c733fa98c364736f6c63430008140033","opcodes":"PUSH1 0x80 PUSH1 0x40 MSTORE CALLVALUE PUSH3 0x30 JUMPI PUSH3 0x1E PUSH3 0x18 PUSH3 0xD3 JUMP JUMPDEST PUSH3 0xF6 JUMP JUMPDEST PUSH1 0x40 MLOAD PUSH2 0xBA9 PUSH3 0x265 DUP3 CODECOPY PUSH2 0xBA9 SWAP1 RETURN JUMPDEST PUSH1 0x0 DUP1 REVERT JUMPDEST PUSH4 0x4E487B71 PUSH1 0xE0 SHL PUSH1 0x0 MSTORE PUSH1 0x41 PUSH1 0x4 MSTORE PUSH1 0x24 PUSH1 0x0 REVERT JUMPDEST SWAP1 PUSH1 0x1F ADD PUSH1 0x1F NOT AND DUP2 ADD SWAP1 DUP2 LT PUSH1 0x1 PUSH1 0x1 PUSH1 0x40 SHL SUB DUP3 GT OR PUSH3 0x6D JUMPI PUSH1 0x40 MSTORE JUMP JUMPDEST PUSH3 0x35 JUMP JUMPDEST SWAP1 PUSH3 0x8A PUSH3 0x82 PUSH1 0x40 MLOAD SWAP1 JUMP JUMPDEST SWAP3 DUP4 PUSH3 0x4B JUMP JUMPDEST JUMP JUMPDEST PUSH1 0x1 PUSH1 0x1 PUSH1 0xA0 SHL SUB AND SWAP1 JUMP JUMPDEST SWAP1 JUMP JUMPDEST PUSH1 0x1 PUSH1 0x1 PUSH1 0xA0 SHL SUB DUP2 AND SUB PUSH3 0x30 JUMPI JUMP JUMPDEST SWAP1 POP MLOAD SWAP1 PUSH3 0x8A DUP3 PUSH3 0x9B JUMP JUMPDEST SWAP1 PUSH1 0x20 DUP3 DUP3 SUB SLT PUSH3 0x30 JUMPI PUSH3 0x98 SWAP2 PUSH3 0xAD JUMP JUMPDEST PUSH3 0x98 PUSH3 0xE0E DUP1 CODESIZE SUB DUP1 PUSH3 0xEA DUP2 PUSH3 0x73 JUMP JUMPDEST SWAP3 DUP4 CODECOPY DUP2 ADD SWAP1 PUSH3 0xBC JUMP JUMPDEST PUSH3 0x8A SWAP1 PUSH3 0x12F JUMP JUMPDEST PUSH3 0x8C PUSH3 0x98 PUSH3 0x98 SWAP3 SWAP1 JUMP JUMPDEST PUSH3 0x98 SWAP1 PUSH3 0x101 JUMP JUMPDEST PUSH1 0x1 PUSH1 0x1 PUSH1 0xA0 SHL SUB SWAP1 SWAP2 AND DUP2 MSTORE PUSH1 0x20 ADD SWAP1 JUMP JUMPDEST PUSH3 0x13B PUSH1 0x0 PUSH3 0x111 JUMP JUMPDEST PUSH1 0x1 PUSH1 0x1 PUSH1 0xA0 SHL SUB DUP2 AND PUSH1 0x1 PUSH1 0x1 PUSH1 0xA0 SHL SUB DUP4 AND EQ PUSH3 0x161 JUMPI POP PUSH3 0x8A SWAP1 PUSH3 0x202 JUMP JUMPDEST PUSH3 0x187 SWAP1 PUSH3 0x170 PUSH1 0x40 MLOAD SWAP1 JUMP JUMPDEST PUSH4 0x1E4FBDF7 PUSH1 0xE0 SHL DUP2 MSTORE SWAP2 DUP3 SWAP2 PUSH1 0x4 DUP4 ADD PUSH3 0x11C JUMP JUMPDEST SUB SWAP1 REVERT JUMPDEST PUSH3 0x98 SWAP1 PUSH3 0x8C JUMP JUMPDEST PUSH3 0x98 SWAP1 SLOAD PUSH3 0x18B JUMP JUMPDEST PUSH3 0x98 SWAP1 PUSH3 0x8C SWAP1 PUSH1 0x1 PUSH1 0x1 PUSH1 0xA0 SHL SUB AND DUP3 JUMP JUMPDEST PUSH3 0x98 SWAP1 PUSH3 0x1A2 JUMP JUMPDEST PUSH3 0x98 SWAP1 PUSH3 0x1B8 JUMP JUMPDEST SWAP1 PUSH3 0x1E2 PUSH3 0x98 PUSH3 0x1FE SWAP3 PUSH3 0x1C3 JUMP JUMPDEST DUP3 SLOAD PUSH1 0x1 PUSH1 0x1 PUSH1 0xA0 SHL SUB NOT AND PUSH1 0x1 PUSH1 0x1 PUSH1 0xA0 SHL SUB SWAP2 SWAP1 SWAP2 AND OR SWAP1 JUMP JUMPDEST SWAP1 SSTORE JUMP JUMPDEST PUSH3 0x20E PUSH1 0x0 PUSH3 0x196 JUMP JUMPDEST SWAP1 PUSH3 0x21C DUP2 PUSH1 0x0 PUSH3 0x1CE JUMP JUMPDEST PUSH3 0x253 PUSH3 0x24C PUSH32 0x8BE0079C531659141344CD1FD0A4F28419497F9722A3DAAFE3B4186F6B6457E0 SWAP4 PUSH3 0x1C3 JUMP JUMPDEST SWAP2 PUSH3 0x1C3 JUMP JUMPDEST SWAP2 PUSH3 0x25E PUSH1 0x40 MLOAD SWAP1 JUMP JUMPDEST PUSH1 0x0 SWAP1 LOG3 JUMP INVALID PUSH1 0x80 PUSH1 0x40 MSTORE PUSH1 0x4 CALLDATASIZE LT ISZERO PUSH2 0x12 JUMPI PUSH1 0x0 DUP1 REVERT JUMPDEST PUSH1 0x0 CALLDATALOAD PUSH1 0xE0 SHR DUP1 PUSH4 0x17E7E58 EQ PUSH2 0xC2 JUMPI DUP1 PUSH4 0x1E3DD18B EQ PUSH2 0xBD JUMPI DUP1 PUSH4 0x574F2BA3 EQ PUSH2 0xB8 JUMPI DUP1 PUSH4 0x6B262EDC EQ PUSH2 0xB3 JUMPI DUP1 PUSH4 0x715018A6 EQ PUSH2 0xAE JUMPI DUP1 PUSH4 0x71F3C596 EQ PUSH2 0xA9 JUMPI DUP1 PUSH4 0x8DA5CB5B EQ PUSH2 0xA4 JUMPI DUP1 PUSH4 0xC9C65396 EQ PUSH2 0x9F JUMPI DUP1 PUSH4 0xE6A43905 EQ PUSH2 0x9A JUMPI DUP1 PUSH4 0xF2FDE38B EQ PUSH2 0x95 JUMPI PUSH4 0xF46901ED SUB PUSH2 0xC7 JUMPI PUSH2 0x3B6 JUMP JUMPDEST PUSH2 0x39E JUMP JUMPDEST PUSH2 0x382 JUMP JUMPDEST PUSH2 0x2FA JUMP JUMPDEST PUSH2 0x2BC JUMP JUMPDEST PUSH2 0x2A1 JUMP JUMPDEST PUSH2 0x27D JUMP JUMPDEST PUSH2 0x260 JUMP JUMPDEST PUSH2 0x20A JUMP JUMPDEST PUSH2 0x1EF JUMP JUMPDEST PUSH2 0x132 JUMP JUMPDEST PUSH1 0x0 DUP1 REVERT JUMPDEST PUSH1 0x0 SWAP2 SUB SLT PUSH2 0xC7 JUMPI JUMP JUMPDEST PUSH2 0xF9 SWAP2 PUSH1 0x8 MUL SHR JUMPDEST PUSH20 0xFFFFFFFFFFFFFFFFFFFFFFFFFFFFFFFFFFFFFFFF AND SWAP1 JUMP JUMPDEST SWAP1 JUMP JUMPDEST SWAP1 PUSH2 0xF9 SWAP2 SLOAD PUSH2 0xD7 JUMP JUMPDEST PUSH2 0xF9 PUSH1 0x0 PUSH1 0x3 PUSH2 0xFC JUMP JUMPDEST PUSH2 0x11C SWAP1 PUSH2 0xE0 JUMP JUMPDEST SWAP1 MSTORE JUMP JUMPDEST PUSH1 0x20 DUP2 ADD SWAP3 SWAP2 PUSH2 0x130 SWAP2 SWAP1 PUSH2 0x113 JUMP JUMPDEST JUMP JUMPDEST CALLVALUE PUSH2 0xC7 JUMPI PUSH2 0x142 CALLDATASIZE PUSH1 0x4 PUSH2 0xCC JUMP JUMPDEST PUSH2 0x159 PUSH2 0x14D PUSH2 0x107 JUMP JUMPDEST PUSH1 0x40 MLOAD SWAP2 DUP3 SWAP2 DUP3 PUSH2 0x120 JUMP JUMPDEST SUB SWAP1 RETURN JUMPDEST DUP1 JUMPDEST SUB PUSH2 0xC7 JUMPI JUMP JUMPDEST SWAP1 POP CALLDATALOAD SWAP1 PUSH2 0x130 DUP3 PUSH2 0x15D JUMP JUMPDEST SWAP1 PUSH1 0x20 DUP3 DUP3 SUB SLT PUSH2 0xC7 JUMPI PUSH2 0xF9 SWAP2 PUSH2 0x166 JUMP JUMPDEST PUSH4 0x4E487B71 PUSH1 0xE0 SHL PUSH1 0x0 MSTORE PUSH1 0x32 PUSH1 0x4 MSTORE PUSH1 0x24 PUSH1 0x0 REVERT JUMPDEST DUP1 SLOAD DUP3 LT ISZERO PUSH2 0x1C0 JUMPI PUSH2 0x1B7 PUSH1 0x1 SWAP2 PUSH1 0x0 MSTORE PUSH1 0x20 PUSH1 0x0 KECCAK256 SWAP1 JUMP JUMPDEST SWAP2 MUL ADD SWAP1 PUSH1 0x0 SWAP1 JUMP JUMPDEST PUSH2 0x187 JUMP JUMPDEST PUSH1 0x2 PUSH1 0x0 PUSH2 0x1D1 DUP3 SLOAD SWAP1 JUMP JUMPDEST DUP4 LT ISZERO PUSH2 0x1EC JUMPI POP PUSH2 0xF9 SWAP2 PUSH2 0x1E6 SWAP2 PUSH2 0x19D JUMP JUMPDEST SWAP1 PUSH2 0xFC JUMP JUMPDEST DUP1 REVERT JUMPDEST CALLVALUE PUSH2 0xC7 JUMPI PUSH2 0x159 PUSH2 0x14D PUSH2 0x205 CALLDATASIZE PUSH1 0x4 PUSH2 0x173 JUMP JUMPDEST PUSH2 0x1C5 JUMP JUMPDEST CALLVALUE PUSH2 0xC7 JUMPI PUSH2 0x21A CALLDATASIZE PUSH1 0x4 PUSH2 0xCC JUMP JUMPDEST PUSH2 0x159 PUSH2 0x226 PUSH1 0x2 SLOAD SWAP1 JUMP JUMPDEST PUSH1 0x40 MLOAD SWAP2 DUP3 SWAP2 DUP3 SWAP1 DUP2 MSTORE PUSH1 0x20 ADD SWAP1 JUMP JUMPDEST PUSH2 0x15F DUP2 PUSH2 0xE0 JUMP JUMPDEST SWAP1 POP CALLDATALOAD SWAP1 PUSH2 0x130 DUP3 PUSH2 0x236 JUMP JUMPDEST SWAP1 PUSH1 0x20 DUP3 DUP3 SUB SLT PUSH2 0xC7 JUMPI PUSH2 0xF9 SWAP2 PUSH2 0x23F JUMP JUMPDEST CALLVALUE PUSH2 0xC7 JUMPI PUSH2 0x278 PUSH2 0x273 CALLDATASIZE PUSH1 0x4 PUSH2 0x24C JUMP JUMPDEST PUSH2 0x634 JUMP JUMPDEST PUSH1 0x40 MLOAD STOP JUMPDEST CALLVALUE PUSH2 0xC7 JUMPI PUSH2 0x28D CALLDATASIZE PUSH1 0x4 PUSH2 0xCC JUMP JUMPDEST PUSH2 0x278 PUSH2 0x423 JUMP JUMPDEST PUSH2 0xF9 PUSH1 0x0 PUSH1 0x4 PUSH2 0xFC JUMP JUMPDEST CALLVALUE PUSH2 0xC7 JUMPI PUSH2 0x2B1 CALLDATASIZE PUSH1 0x4 PUSH2 0xCC JUMP JUMPDEST PUSH2 0x159 PUSH2 0x14D PUSH2 0x295 JUMP JUMPDEST CALLVALUE PUSH2 0xC7 JUMPI PUSH2 0x2CC CALLDATASIZE PUSH1 0x4 PUSH2 0xCC JUMP JUMPDEST PUSH2 0x159 PUSH2 0x14D PUSH2 0x3E1 JUMP JUMPDEST SWAP2 SWAP1 PUSH1 0x40 DUP4 DUP3 SUB SLT PUSH2 0xC7 JUMPI PUSH2 0xF9 SWAP1 PUSH2 0x2F1 DUP2 DUP6 PUSH2 0x23F JUMP JUMPDEST SWAP4 PUSH1 0x20 ADD PUSH2 0x23F JUMP JUMPDEST CALLVALUE PUSH2 0xC7 JUMPI PUSH2 0x159 PUSH2 0x14D PUSH2 0x310 CALLDATASIZE PUSH1 0x4 PUSH2 0x2D7 JUMP JUMPDEST SWAP1 PUSH2 0x923 JUMP JUMPDEST PUSH2 0xE0 PUSH2 0xF9 PUSH2 0xF9 SWAP3 PUSH20 0xFFFFFFFFFFFFFFFFFFFFFFFFFFFFFFFFFFFFFFFF AND SWAP1 JUMP JUMPDEST PUSH2 0xF9 SWAP1 PUSH2 0x316 JUMP JUMPDEST PUSH2 0xF9 SWAP1 PUSH2 0x339 JUMP JUMPDEST SWAP1 PUSH2 0x355 SWAP1 PUSH2 0x342 JUMP JUMPDEST PUSH1 0x0 MSTORE PUSH1 0x20 MSTORE PUSH1 0x40 PUSH1 0x0 KECCAK256 SWAP1 JUMP JUMPDEST PUSH2 0x37D PUSH2 0xF9 SWAP3 PUSH2 0x378 PUSH1 0x1 SWAP4 PUSH1 0x0 SWAP5 PUSH2 0x34B JUMP JUMPDEST PUSH2 0x34B JUMP JUMPDEST PUSH2 0xFC JUMP JUMPDEST CALLVALUE PUSH2 0xC7 JUMPI PUSH2 0x159 PUSH2 0x14D PUSH2 0x398 CALLDATASIZE PUSH1 0x4 PUSH2 0x2D7 JUMP JUMPDEST SWAP1 PUSH2 0x363 JUMP JUMPDEST CALLVALUE PUSH2 0xC7 JUMPI PUSH2 0x278 PUSH2 0x3B1 CALLDATASIZE PUSH1 0x4 PUSH2 0x24C JUMP JUMPDEST PUSH2 0x502 JUMP JUMPDEST CALLVALUE PUSH2 0xC7 JUMPI PUSH2 0x278 PUSH2 0x3C9 CALLDATASIZE PUSH1 0x4 PUSH2 0x24C JUMP JUMPDEST PUSH2 0xB6A JUMP JUMPDEST PUSH2 0xF9 SWAP1 PUSH2 0xE0 JUMP JUMPDEST PUSH2 0xF9 SWAP1 SLOAD PUSH2 0x3CE JUMP JUMPDEST PUSH2 0xF9 PUSH1 0x0 PUSH2 0x3D7 JUMP JUMPDEST PUSH2 0x3F3 PUSH2 0x42B JUMP JUMPDEST PUSH2 0x130 PUSH2 0x411 JUMP JUMPDEST PUSH2 0xE0 PUSH2 0xF9 PUSH2 0xF9 SWAP3 SWAP1 JUMP JUMPDEST PUSH2 0xF9 SWAP1 PUSH2 0x3FB JUMP JUMPDEST PUSH2 0x130 PUSH2 0x41E PUSH1 0x0 PUSH2 0x408 JUMP JUMPDEST PUSH2 0x548 JUMP JUMPDEST PUSH2 0x130 PUSH2 0x3EB JUMP JUMPDEST PUSH2 0x433 PUSH2 0x3E1 JUMP JUMPDEST CALLER SWAP1 PUSH2 0x447 PUSH2 0x441 DUP4 PUSH2 0xE0 JUMP JUMPDEST SWAP2 PUSH2 0xE0 JUMP JUMPDEST SUB PUSH2 0x44F JUMPI POP JUMP JUMPDEST PUSH2 0x48B SWAP1 PUSH2 0x45C PUSH1 0x40 MLOAD SWAP1 JUMP JUMPDEST SWAP2 DUP3 SWAP2 PUSH32 0x118CDAA700000000000000000000000000000000000000000000000000000000 DUP4 MSTORE PUSH1 0x4 DUP4 ADD PUSH2 0x120 JUMP JUMPDEST SUB SWAP1 REVERT JUMPDEST PUSH2 0x130 SWAP1 PUSH2 0x49B PUSH2 0x42B JUMP JUMPDEST PUSH2 0x4A5 PUSH1 0x0 PUSH2 0x408 JUMP JUMPDEST PUSH2 0x4AE DUP2 PUSH2 0xE0 JUMP JUMPDEST PUSH2 0x4B7 DUP4 PUSH2 0xE0 JUMP JUMPDEST EQ PUSH2 0x4C6 JUMPI POP PUSH2 0x130 SWAP1 PUSH2 0x548 JUMP JUMPDEST PUSH2 0x48B SWAP1 PUSH2 0x4D3 PUSH1 0x40 MLOAD SWAP1 JUMP JUMPDEST SWAP2 DUP3 SWAP2 PUSH32 0x1E4FBDF700000000000000000000000000000000000000000000000000000000 DUP4 MSTORE PUSH1 0x4 DUP4 ADD PUSH2 0x120 JUMP JUMPDEST PUSH2 0x130 SWAP1 PUSH2 0x48F JUMP JUMPDEST SWAP1 PUSH20 0xFFFFFFFFFFFFFFFFFFFFFFFFFFFFFFFFFFFFFFFF SWAP1 JUMPDEST SWAP2 DUP2 NOT AND SWAP2 AND OR SWAP1 JUMP JUMPDEST SWAP1 PUSH2 0x53D PUSH2 0xF9 PUSH2 0x544 SWAP3 PUSH2 0x342 JUMP JUMPDEST DUP3 SLOAD PUSH2 0x50B JUMP JUMPDEST SWAP1 SSTORE JUMP JUMPDEST PUSH2 0x552 PUSH1 0x0 PUSH2 0x3D7 JUMP JUMPDEST SWAP1 PUSH2 0x55E DUP2 PUSH1 0x0 PUSH2 0x52D JUMP JUMPDEST PUSH2 0x591 PUSH2 0x58B PUSH32 0x8BE0079C531659141344CD1FD0A4F28419497F9722A3DAAFE3B4186F6B6457E0 SWAP4 PUSH2 0x342 JUMP JUMPDEST SWAP2 PUSH2 0x342 JUMP JUMPDEST SWAP2 PUSH2 0x59B PUSH1 0x40 MLOAD SWAP1 JUMP JUMPDEST DUP1 DUP1 JUMPDEST SUB SWAP1 LOG3 JUMP JUMPDEST PUSH2 0x130 SWAP1 PUSH2 0x5AF PUSH2 0x42B JUMP JUMPDEST PUSH2 0x604 JUMP JUMPDEST ADD SWAP1 JUMP JUMPDEST ISZERO PUSH2 0x5BF JUMPI JUMP JUMPDEST PUSH1 0x40 MLOAD PUSH3 0x461BCD PUSH1 0xE5 SHL DUP2 MSTORE PUSH1 0x20 PUSH1 0x4 DUP3 ADD MSTORE PUSH1 0x16 PUSH1 0x24 DUP3 ADD MSTORE PUSH32 0x496E76616C696420696D706C656D656E746174696F6E00000000000000000000 PUSH1 0x44 DUP3 ADD MSTORE PUSH1 0x64 SWAP1 REVERT JUMPDEST PUSH2 0x130 SWAP1 PUSH2 0x62D PUSH2 0x61D PUSH2 0x618 PUSH1 0x0 PUSH2 0x408 JUMP JUMPDEST PUSH2 0xE0 JUMP JUMPDEST PUSH2 0x626 DUP4 PUSH2 0xE0 JUMP JUMPDEST EQ ISZERO PUSH2 0x5B8 JUMP JUMPDEST PUSH1 0x4 PUSH2 0x52D JUMP JUMPDEST PUSH2 0x130 SWAP1 PUSH2 0x5A3 JUMP JUMPDEST ISZERO PUSH2 0x644 JUMPI JUMP JUMPDEST PUSH1 0x40 MLOAD PUSH3 0x461BCD PUSH1 0xE5 SHL DUP2 MSTORE PUSH1 0x20 PUSH1 0x4 DUP3 ADD MSTORE PUSH1 0x16 PUSH1 0x24 DUP3 ADD MSTORE PUSH32 0x496D706C656D656E746174696F6E206E6F742073657400000000000000000000 PUSH1 0x44 DUP3 ADD MSTORE PUSH1 0x64 SWAP1 REVERT JUMPDEST ISZERO PUSH2 0x690 JUMPI JUMP JUMPDEST PUSH1 0x40 MLOAD PUSH3 0x461BCD PUSH1 0xE5 SHL DUP2 MSTORE PUSH1 0x20 PUSH1 0x4 DUP3 ADD MSTORE PUSH1 0x26 PUSH1 0x24 DUP3 ADD MSTORE PUSH32 0x4879706572496E646578466163746F72793A204944454E544943414C5F414444 PUSH1 0x44 DUP3 ADD MSTORE PUSH32 0x5245535345530000000000000000000000000000000000000000000000000000 PUSH1 0x64 DUP3 ADD MSTORE PUSH1 0x84 SWAP1 REVERT JUMPDEST ISZERO PUSH2 0x702 JUMPI JUMP JUMPDEST PUSH1 0x40 MLOAD PUSH3 0x461BCD PUSH1 0xE5 SHL DUP2 MSTORE PUSH1 0x20 PUSH1 0x4 DUP3 ADD MSTORE PUSH1 0x1F PUSH1 0x24 DUP3 ADD MSTORE PUSH32 0x4879706572496E646578466163746F72793A205A45524F5F4144445245535300 PUSH1 0x44 DUP3 ADD MSTORE PUSH1 0x64 SWAP1 REVERT JUMPDEST ISZERO PUSH2 0x74E JUMPI JUMP JUMPDEST PUSH1 0x40 MLOAD PUSH3 0x461BCD PUSH1 0xE5 SHL DUP2 MSTORE PUSH1 0x20 PUSH1 0x4 DUP3 ADD MSTORE PUSH1 0x1E PUSH1 0x24 DUP3 ADD MSTORE PUSH32 0x4879706572496E646578466163746F72793A20504149525F4558495354530000 PUSH1 0x44 DUP3 ADD MSTORE PUSH1 0x64 SWAP1 REVERT JUMPDEST PUSH2 0x79F PUSH2 0x11C SWAP2 PUSH2 0xE0 JUMP JUMPDEST PUSH1 0x60 SHL SWAP1 JUMP JUMPDEST PUSH2 0xF9 SWAP2 PUSH2 0x7E2 PUSH2 0x7DB PUSH1 0x14 SWAP4 PUSH32 0x3D602D80600A3D3981F3363D3D373D3D3D363D73000000000000000000000000 DUP2 MSTORE PUSH1 0x14 ADD SWAP1 JUMP JUMPDEST DUP1 SWAP3 PUSH2 0x793 JUMP JUMPDEST ADD PUSH32 0x5AF43D82803E903D91602B57FD5BF30000000000000000000000000000000000 DUP2 MSTORE PUSH1 0xF ADD SWAP1 JUMP JUMPDEST PUSH4 0x4E487B71 PUSH1 0xE0 SHL PUSH1 0x0 MSTORE PUSH1 0x41 PUSH1 0x4 MSTORE PUSH1 0x24 PUSH1 0x0 REVERT JUMPDEST SWAP1 PUSH1 0x1F ADD PUSH1 0x1F NOT AND DUP2 ADD SWAP1 DUP2 LT PUSH8 0xFFFFFFFFFFFFFFFF DUP3 GT OR PUSH2 0x844 JUMPI PUSH1 0x40 MSTORE JUMP JUMPDEST PUSH2 0x80C JUMP JUMPDEST PUSH1 0x14 DUP2 PUSH2 0x85B PUSH2 0x5B4 SWAP4 DUP4 SWAP7 SWAP6 PUSH2 0x793 JUMP JUMPDEST ADD DUP1 SWAP3 PUSH2 0x793 JUMP JUMPDEST SWAP2 PUSH1 0x20 PUSH2 0x130 SWAP3 SWAP5 SWAP4 PUSH2 0x87E PUSH1 0x40 DUP3 ADD SWAP7 PUSH1 0x0 DUP4 ADD SWAP1 PUSH2 0x113 JUMP JUMPDEST ADD SWAP1 PUSH2 0x113 JUMP JUMPDEST PUSH1 0x40 MLOAD RETURNDATASIZE PUSH1 0x0 DUP3 RETURNDATACOPY RETURNDATASIZE SWAP1 REVERT JUMPDEST SWAP2 SWAP1 PUSH1 0x8 PUSH2 0x523 SWAP2 MUL SWAP2 PUSH2 0x8B8 PUSH20 0xFFFFFFFFFFFFFFFFFFFFFFFFFFFFFFFFFFFFFFFF DUP5 SHL SWAP1 JUMP JUMPDEST SWAP3 SHL SWAP1 JUMP JUMPDEST SWAP2 SWAP1 PUSH2 0x8CE PUSH2 0xF9 PUSH2 0x544 SWAP4 PUSH2 0x342 JUMP JUMPDEST SWAP1 DUP4 SLOAD PUSH2 0x891 JUMP JUMPDEST SWAP1 DUP2 SLOAD SWAP2 PUSH9 0x10000000000000000 DUP4 LT ISZERO PUSH2 0x844 JUMPI DUP3 PUSH2 0x8FE SWAP2 PUSH1 0x1 PUSH2 0x130 SWAP6 ADD DUP2 SSTORE PUSH2 0x19D JUMP JUMPDEST SWAP1 PUSH2 0x8BD JUMP JUMPDEST SWAP2 PUSH1 0x20 PUSH2 0x130 SWAP3 SWAP5 SWAP4 PUSH2 0x91F PUSH1 0x40 DUP3 ADD SWAP7 PUSH1 0x0 DUP4 ADD SWAP1 PUSH2 0x113 JUMP JUMPDEST ADD MSTORE JUMP JUMPDEST SWAP2 SWAP1 PUSH2 0x92F PUSH1 0x4 PUSH2 0x3D7 JUMP JUMPDEST PUSH1 0x0 SWAP4 PUSH2 0x952 PUSH2 0x93E DUP7 PUSH2 0x408 JUMP JUMPDEST SWAP3 PUSH2 0x94B PUSH2 0x441 DUP6 PUSH2 0xE0 JUMP JUMPDEST EQ ISZERO PUSH2 0x63D JUMP JUMPDEST PUSH2 0x96E PUSH2 0x95E DUP5 PUSH2 0xE0 JUMP JUMPDEST PUSH2 0x967 DUP4 PUSH2 0xE0 JUMP JUMPDEST EQ ISZERO PUSH2 0x689 JUMP JUMPDEST PUSH2 0x977 DUP4 PUSH2 0xE0 JUMP JUMPDEST PUSH2 0x980 DUP3 PUSH2 0xE0 JUMP JUMPDEST LT ISZERO PUSH2 0xB4D JUMPI SWAP2 SWAP1 JUMPDEST PUSH2 0x9A5 PUSH2 0x995 DUP3 PUSH2 0xE0 JUMP JUMPDEST PUSH2 0x99E DUP6 PUSH2 0xE0 JUMP JUMPDEST EQ ISZERO PUSH2 0x6FB JUMP JUMPDEST PUSH2 0x9D3 PUSH1 0x1 SWAP2 PUSH2 0x9CD PUSH2 0x441 PUSH2 0x9C7 PUSH2 0x9C2 DUP8 PUSH2 0x378 DUP11 DUP10 PUSH2 0x34B JUMP JUMPDEST PUSH2 0x3D7 JUMP JUMPDEST SWAP3 PUSH2 0xE0 JUMP JUMPDEST EQ PUSH2 0x747 JUMP JUMPDEST PUSH2 0x9DD PUSH1 0x4 PUSH2 0x3D7 JUMP JUMPDEST PUSH1 0x40 MLOAD SWAP1 PUSH2 0x9FF DUP3 PUSH2 0x9F3 PUSH1 0x20 DUP3 ADD SWAP4 DUP5 PUSH2 0x7A5 JUMP JUMPDEST DUP4 DUP2 SUB DUP3 MSTORE SUB DUP4 PUSH2 0x822 JUMP JUMPDEST PUSH1 0x40 MLOAD PUSH2 0xA21 DUP2 PUSH1 0x20 DUP2 ADD PUSH2 0xA15 DUP9 DUP11 DUP4 PUSH2 0x849 JUMP JUMPDEST SWAP1 DUP2 SUB DUP3 MSTORE SUB DUP3 PUSH2 0x822 JUMP JUMPDEST PUSH2 0xA33 PUSH2 0xA2C DUP3 MLOAD SWAP1 JUMP JUMPDEST SWAP2 PUSH1 0x20 ADD SWAP1 JUMP JUMPDEST KECCAK256 SWAP2 MLOAD SWAP1 DUP8 CREATE2 SWAP5 PUSH2 0xA4B PUSH2 0xA46 DUP8 PUSH2 0x342 JUMP JUMPDEST PUSH2 0x342 JUMP JUMPDEST SWAP2 PUSH4 0x485CC955 SWAP3 DUP1 EXTCODESIZE ISZERO PUSH2 0xC7 JUMPI PUSH2 0xA71 SWAP4 DUP4 SWAP2 PUSH2 0xA68 PUSH1 0x40 MLOAD SWAP1 JUMP JUMPDEST SWAP6 DUP7 SWAP3 PUSH1 0xE0 SHL SWAP1 JUMP JUMPDEST DUP3 MSTORE DUP2 DUP4 DUP2 PUSH2 0xA84 DUP11 DUP13 PUSH1 0x4 DUP5 ADD PUSH2 0x863 JUMP JUMPDEST SUB SWAP3 GAS CALL SWAP2 DUP3 ISZERO PUSH2 0xB48 JUMPI PUSH2 0x378 DUP6 PUSH2 0xAB8 SWAP4 DUP9 SWAP4 PUSH2 0xABD SWAP8 DUP13 SWAP8 PUSH2 0xB1B JUMPI JUMPDEST POP POP PUSH2 0x378 DUP7 PUSH2 0xAB8 DUP5 PUSH2 0x378 DUP9 DUP7 PUSH2 0x34B JUMP JUMPDEST PUSH2 0x52D JUMP JUMPDEST PUSH2 0xAD0 PUSH1 0x2 PUSH2 0xACC DUP7 DUP3 PUSH2 0x8D6 JUMP JUMPDEST SLOAD SWAP1 JUMP JUMPDEST SWAP2 PUSH2 0x59E PUSH2 0xB07 PUSH2 0xB01 PUSH32 0xD3648BD0F6BA80134A33BA9275AC585D9D315F0AD8355CDDEFDE31AFA28D0E9 SWAP4 PUSH2 0x342 JUMP JUMPDEST SWAP4 PUSH2 0x342 JUMP JUMPDEST SWAP4 PUSH2 0xB11 PUSH1 0x40 MLOAD SWAP1 JUMP JUMPDEST SWAP2 DUP3 SWAP2 DUP9 DUP4 PUSH2 0x904 JUMP JUMPDEST DUP2 PUSH2 0xB3A SWAP3 SWAP1 RETURNDATASIZE LT PUSH2 0xB41 JUMPI JUMPDEST PUSH2 0xB32 DUP2 DUP4 PUSH2 0x822 JUMP JUMPDEST DUP2 ADD SWAP1 PUSH2 0xCC JUMP JUMPDEST CODESIZE DUP1 PUSH2 0xAA4 JUMP JUMPDEST POP RETURNDATASIZE PUSH2 0xB28 JUMP JUMPDEST PUSH2 0x885 JUMP JUMPDEST SWAP1 PUSH2 0x989 JUMP JUMPDEST PUSH2 0x130 SWAP1 PUSH2 0xB5F PUSH2 0x42B JUMP JUMPDEST PUSH2 0x130 SWAP1 PUSH1 0x3 PUSH2 0x52D JUMP JUMPDEST PUSH2 0x130 SWAP1 PUSH2 0xB53 JUMP INVALID LOG2 PUSH5 0x6970667358 0x22 SLT KECCAK256 JUMP 0xD3 0xEA SUB 0xE1 LOG0 GASLIMIT 0xB3 PUSH29 0x6B29CCFD5146F8A0C2710941C7FF09D5B74C733FA98C364736F6C6343 STOP ADDMOD EQ STOP CALLER "},"methodIdentifiers":{"allPairs(uint256)":"1e3dd18b","allPairsLength()":"574f2ba3","createPair(address,address)":"c9c65396","feeTo()":"017e7e58","getPair(address,address)":"e6a43905","owner()":"8da5cb5b","pairImplementation()":"71f3c596","renounceOwnership()":"715018a6","setFeeTo(address)":"f46901ed","setPairImplementation(address)":"6b262edc","transferOwnership(address)":"f2fde38b"}}}}}