{
  "_format": "hh-sol-artifact-1",
  "contractName": "MultiDEXAggregator",
  "sourceName": "contracts/MultiDEXAggregator.sol",
  "abi": [
    {
      "inputs": [
        {
          "internalType": "address",
          "name": "_priceFeed",
          "type": "address"
        }
      ],
      "stateMutability": "nonpayable",
      "type": "constructor"
    },
    {
      "inputs": [],
      "name": "AccessControlBadConfirmation",
      "type": "error"
    },
    {
      "inputs": [
        {
          "internalType": "address",
          "name": "account",
          "type": "address"
        },
        {
          "internalType": "bytes32",
          "name": "neededRole",
          "type": "bytes32"
        }
      ],
      "name": "AccessControlUnauthorizedAccount",
      "type": "error"
    },
    {
      "inputs": [],
      "name": "EnforcedPause",
      "type": "error"
    },
    {
      "inputs": [],
      "name": "ExpectedPause",
      "type": "error"
    },
    {
      "inputs": [],
      "name": "ReentrancyGuardReentrantCall",
      "type": "error"
    },
    {
      "inputs": [
        {
          "internalType": "address",
          "name": "token",
          "type": "address"
        }
      ],
      "name": "SafeERC20FailedOperation",
      "type": "error"
    },
    {
      "anonymous": false,
      "inputs": [
        {
          "indexed": false,
          "internalType": "enum MultiDEXAggregator.DEXType",
          "name": "dexType",
          "type": "uint8"
        },
        {
          "indexed": false,
          "internalType": "address",
          "name": "router",
          "type": "address"
        },
        {
          "indexed": false,
          "internalType": "bool",
          "name": "isActive",
          "type": "bool"
        }
      ],
      "name": "DEXConfigUpdated",
      "type": "event"
    },
    {
      "anonymous": false,
      "inputs": [
        {
          "indexed": false,
          "internalType": "address",
          "name": "user",
          "type": "address"
        },
        {
          "indexed": false,
          "internalType": "string",
          "name": "reason",
          "type": "string"
        }
      ],
      "name": "MEVBlocked",
      "type": "event"
    },
    {
      "anonymous": false,
      "inputs": [
        {
          "indexed": false,
          "internalType": "address",
          "name": "account",
          "type": "address"
        }
      ],
      "name": "Paused",
      "type": "event"
    },
    {
      "anonymous": false,
      "inputs": [
        {
          "indexed": true,
          "internalType": "bytes32",
          "name": "role",
          "type": "bytes32"
        },
        {
          "indexed": true,
          "internalType": "bytes32",
          "name": "previousAdminRole",
          "type": "bytes32"
        },
        {
          "indexed": true,
          "internalType": "bytes32",
          "name": "newAdminRole",
          "type": "bytes32"
        }
      ],
      "name": "RoleAdminChanged",
      "type": "event"
    },
    {
      "anonymous": false,
      "inputs": [
        {
          "indexed": true,
          "internalType": "bytes32",
          "name": "role",
          "type": "bytes32"
        },
        {
          "indexed": true,
          "internalType": "address",
          "name": "account",
          "type": "address"
        },
        {
          "indexed": true,
          "internalType": "address",
          "name": "sender",
          "type": "address"
        }
      ],
      "name": "RoleGranted",
      "type": "event"
    },
    {
      "anonymous": false,
      "inputs": [
        {
          "indexed": true,
          "internalType": "bytes32",
          "name": "role",
          "type": "bytes32"
        },
        {
          "indexed": true,
          "internalType": "address",
          "name": "account",
          "type": "address"
        },
        {
          "indexed": true,
          "internalType": "address",
          "name": "sender",
          "type": "address"
        }
      ],
      "name": "RoleRevoked",
      "type": "event"
    },
    {
      "anonymous": false,
      "inputs": [
        {
          "indexed": false,
          "internalType": "address",
          "name": "tokenIn",
          "type": "address"
        },
        {
          "indexed": false,
          "internalType": "address",
          "name": "tokenOut",
          "type": "address"
        },
        {
          "indexed": false,
          "internalType": "uint256",
          "name": "amountIn",
          "type": "uint256"
        },
        {
          "indexed": false,
          "internalType": "uint256",
          "name": "expectedOut",
          "type": "uint256"
        },
        {
          "indexed": false,
          "internalType": "enum MultiDEXAggregator.DEXType",
          "name": "selectedDEX",
          "type": "uint8"
        }
      ],
      "name": "RouteOptimized",
      "type": "event"
    },
    {
      "anonymous": false,
      "inputs": [
        {
          "indexed": false,
          "internalType": "uint256",
          "name": "expected",
          "type": "uint256"
        },
        {
          "indexed": false,
          "internalType": "uint256",
          "name": "actual",
          "type": "uint256"
        },
        {
          "indexed": false,
          "internalType": "uint256",
          "name": "slippage",
          "type": "uint256"
        }
      ],
      "name": "SlippageExceeded",
      "type": "event"
    },
    {
      "anonymous": false,
      "inputs": [
        {
          "indexed": true,
          "internalType": "address",
          "name": "user",
          "type": "address"
        },
        {
          "indexed": true,
          "internalType": "address",
          "name": "tokenIn",
          "type": "address"
        },
        {
          "indexed": true,
          "internalType": "address",
          "name": "tokenOut",
          "type": "address"
        },
        {
          "indexed": false,
          "internalType": "uint256",
          "name": "amountIn",
          "type": "uint256"
        },
        {
          "indexed": false,
          "internalType": "uint256",
          "name": "amountOut",
          "type": "uint256"
        },
        {
          "indexed": false,
          "internalType": "enum MultiDEXAggregator.DEXType",
          "name": "dexUsed",
          "type": "uint8"
        }
      ],
      "name": "SwapExecuted",
      "type": "event"
    },
    {
      "anonymous": false,
      "inputs": [
        {
          "indexed": false,
          "internalType": "address",
          "name": "account",
          "type": "address"
        }
      ],
      "name": "Unpaused",
      "type": "event"
    },
    {
      "inputs": [],
      "name": "DEFAULT_ADMIN_ROLE",
      "outputs": [
        {
          "internalType": "bytes32",
          "name": "",
          "type": "bytes32"
        }
      ],
      "stateMutability": "view",
      "type": "function"
    },
    {
      "inputs": [],
      "name": "KEEPER_ROLE",
      "outputs": [
        {
          "internalType": "bytes32",
          "name": "",
          "type": "bytes32"
        }
      ],
      "stateMutability": "view",
      "type": "function"
    },
    {
      "inputs": [],
      "name": "ROUTER_ROLE",
      "outputs": [
        {
          "internalType": "bytes32",
          "name": "",
          "type": "bytes32"
        }
      ],
      "stateMutability": "view",
      "type": "function"
    },
    {
      "inputs": [],
      "name": "SLIPPAGE_DENOMINATOR",
      "outputs": [
        {
          "internalType": "uint256",
          "name": "",
          "type": "uint256"
        }
      ],
      "stateMutability": "view",
      "type": "function"
    },
    {
      "inputs": [],
      "name": "STRATEGIST_ROLE",
      "outputs": [
        {
          "internalType": "bytes32",
          "name": "",
          "type": "bytes32"
        }
      ],
      "stateMutability": "view",
      "type": "function"
    },
    {
      "inputs": [],
      "name": "defaultSlippage",
      "outputs": [
        {
          "internalType": "uint256",
          "name": "",
          "type": "uint256"
        }
      ],
      "stateMutability": "view",
      "type": "function"
    },
    {
      "inputs": [
        {
          "internalType": "enum MultiDEXAggregator.DEXType",
          "name": "",
          "type": "uint8"
        }
      ],
      "name": "dexConfigs",
      "outputs": [
        {
          "internalType": "address",
          "name": "router",
          "type": "address"
        },
        {
          "internalType": "address",
          "name": "factory",
          "type": "address"
        },
        {
          "internalType": "address",
          "name": "quoter",
          "type": "address"
        },
        {
          "internalType": "enum MultiDEXAggregator.DEXType",
          "name": "dexType",
          "type": "uint8"
        },
        {
          "internalType": "bool",
          "name": "isActive",
          "type": "bool"
        },
        {
          "internalType": "uint256",
          "name": "priority",
          "type": "uint256"
        },
        {
          "internalType": "string",
          "name": "name",
          "type": "string"
        }
      ],
      "stateMutability": "view",
      "type": "function"
    },
    {
      "inputs": [
        {
          "components": [
            {
              "internalType": "address",
              "name": "tokenIn",
              "type": "address"
            },
            {
              "internalType": "address",
              "name": "tokenOut",
              "type": "address"
            },
            {
              "internalType": "uint256",
              "name": "amountIn",
              "type": "uint256"
            },
            {
              "internalType": "uint256",
              "name": "minAmountOut",
              "type": "uint256"
            },
            {
              "internalType": "address",
              "name": "recipient",
              "type": "address"
            },
            {
              "internalType": "uint256",
              "name": "deadline",
              "type": "uint256"
            },
            {
              "internalType": "bytes",
              "name": "routeData",
              "type": "bytes"
            }
          ],
          "internalType": "struct MultiDEXAggregator.SwapRequest",
          "name": "request",
          "type": "tuple"
        }
      ],
      "name": "executeSwap",
      "outputs": [
        {
          "components": [
            {
              "internalType": "uint256",
              "name": "amountOut",
              "type": "uint256"
            },
            {
              "internalType": "uint256",
              "name": "gasUsed",
              "type": "uint256"
            },
            {
              "internalType": "enum MultiDEXAggregator.DEXType",
              "name": "dexUsed",
              "type": "uint8"
            },
            {
              "internalType": "uint256",
              "name": "slippage",
              "type": "uint256"
            }
          ],
          "internalType": "struct MultiDEXAggregator.SwapResult",
          "name": "result",
          "type": "tuple"
        }
      ],
      "stateMutability": "nonpayable",
      "type": "function"
    },
    {
      "inputs": [
        {
          "internalType": "address",
          "name": "tokenIn",
          "type": "address"
        },
        {
          "internalType": "address",
          "name": "tokenOut",
          "type": "address"
        },
        {
          "internalType": "uint256",
          "name": "amountIn",
          "type": "uint256"
        }
      ],
      "name": "findOptimalRoute",
      "outputs": [
        {
          "internalType": "enum MultiDEXAggregator.DEXType",
          "name": "bestDEX",
          "type": "uint8"
        },
        {
          "internalType": "uint256",
          "name": "expectedOut",
          "type": "uint256"
        }
      ],
      "stateMutability": "nonpayable",
      "type": "function"
    },
    {
      "inputs": [
        {
          "internalType": "bytes32",
          "name": "role",
          "type": "bytes32"
        }
      ],
      "name": "getRoleAdmin",
      "outputs": [
        {
          "internalType": "bytes32",
          "name": "",
          "type": "bytes32"
        }
      ],
      "stateMutability": "view",
      "type": "function"
    },
    {
      "inputs": [
        {
          "internalType": "bytes32",
          "name": "role",
          "type": "bytes32"
        },
        {
          "internalType": "address",
          "name": "account",
          "type": "address"
        }
      ],
      "name": "grantRole",
      "outputs": [],
      "stateMutability": "nonpayable",
      "type": "function"
    },
    {
      "inputs": [
        {
          "internalType": "bytes32",
          "name": "role",
          "type": "bytes32"
        },
        {
          "internalType": "address",
          "name": "account",
          "type": "address"
        }
      ],
      "name": "hasRole",
      "outputs": [
        {
          "internalType": "bool",
          "name": "",
          "type": "bool"
        }
      ],
      "stateMutability": "view",
      "type": "function"
    },
    {
      "inputs": [],
      "name": "maxSlippage",
      "outputs": [
        {
          "internalType": "uint256",
          "name": "",
          "type": "uint256"
        }
      ],
      "stateMutability": "view",
      "type": "function"
    },
    {
      "inputs": [],
      "name": "mevProtection",
      "outputs": [
        {
          "internalType": "bool",
          "name": "enabled",
          "type": "bool"
        },
        {
          "internalType": "uint256",
          "name": "maxSlippage",
          "type": "uint256"
        },
        {
          "internalType": "uint256",
          "name": "minOutput",
          "type": "uint256"
        },
        {
          "internalType": "uint256",
          "name": "maxPriceImpact",
          "type": "uint256"
        },
        {
          "internalType": "uint256",
          "name": "blockDelay",
          "type": "uint256"
        }
      ],
      "stateMutability": "view",
      "type": "function"
    },
    {
      "inputs": [],
      "name": "pause",
      "outputs": [],
      "stateMutability": "nonpayable",
      "type": "function"
    },
    {
      "inputs": [],
      "name": "paused",
      "outputs": [
        {
          "internalType": "bool",
          "name": "",
          "type": "bool"
        }
      ],
      "stateMutability": "view",
      "type": "function"
    },
    {
      "inputs": [],
      "name": "priceFeed",
      "outputs": [
        {
          "internalType": "contract IPriceFeed",
          "name": "",
          "type": "address"
        }
      ],
      "stateMutability": "view",
      "type": "function"
    },
    {
      "inputs": [
        {
          "internalType": "bytes32",
          "name": "role",
          "type": "bytes32"
        },
        {
          "internalType": "address",
          "name": "callerConfirmation",
          "type": "address"
        }
      ],
      "name": "renounceRole",
      "outputs": [],
      "stateMutability": "nonpayable",
      "type": "function"
    },
    {
      "inputs": [
        {
          "internalType": "address",
          "name": "token",
          "type": "address"
        },
        {
          "internalType": "uint256",
          "name": "amount",
          "type": "uint256"
        }
      ],
      "name": "rescueTokens",
      "outputs": [],
      "stateMutability": "nonpayable",
      "type": "function"
    },
    {
      "inputs": [
        {
          "internalType": "bytes32",
          "name": "role",
          "type": "bytes32"
        },
        {
          "internalType": "address",
          "name": "account",
          "type": "address"
        }
      ],
      "name": "revokeRole",
      "outputs": [],
      "stateMutability": "nonpayable",
      "type": "function"
    },
    {
      "inputs": [
        {
          "internalType": "bytes4",
          "name": "interfaceId",
          "type": "bytes4"
        }
      ],
      "name": "supportsInterface",
      "outputs": [
        {
          "internalType": "bool",
          "name": "",
          "type": "bool"
        }
      ],
      "stateMutability": "view",
      "type": "function"
    },
    {
      "inputs": [],
      "name": "totalSwapsExecuted",
      "outputs": [
        {
          "internalType": "uint256",
          "name": "",
          "type": "uint256"
        }
      ],
      "stateMutability": "view",
      "type": "function"
    },
    {
      "inputs": [],
      "name": "totalVolumeUSD",
      "outputs": [
        {
          "internalType": "uint256",
          "name": "",
          "type": "uint256"
        }
      ],
      "stateMutability": "view",
      "type": "function"
    },
    {
      "inputs": [],
      "name": "unpause",
      "outputs": [],
      "stateMutability": "nonpayable",
      "type": "function"
    },
    {
      "inputs": [
        {
          "internalType": "enum MultiDEXAggregator.DEXType",
          "name": "dexType",
          "type": "uint8"
        },
        {
          "internalType": "address",
          "name": "router",
          "type": "address"
        },
        {
          "internalType": "address",
          "name": "factory",
          "type": "address"
        },
        {
          "internalType": "address",
          "name": "quoter",
          "type": "address"
        },
        {
          "internalType": "bool",
          "name": "isActive",
          "type": "bool"
        }
      ],
      "name": "updateDEXConfig",
      "outputs": [],
      "stateMutability": "nonpayable",
      "type": "function"
    },
    {
      "inputs": [
        {
          "internalType": "bool",
          "name": "enabled",
          "type": "bool"
        },
        {
          "internalType": "uint256",
          "name": "maxSlippageBps",
          "type": "uint256"
        },
        {
          "internalType": "uint256",
          "name": "maxPriceImpactBps",
          "type": "uint256"
        },
        {
          "internalType": "uint256",
          "name": "blockDelay",
          "type": "uint256"
        }
      ],
      "name": "updateMEVProtection",
      "outputs": [],
      "stateMutability": "nonpayable",
      "type": "function"
    },
    {
      "inputs": [
        {
          "internalType": "address",
          "name": "",
          "type": "address"
        }
      ],
      "name": "userSwapCount",
      "outputs": [
        {
          "internalType": "uint256",
          "name": "",
          "type": "uint256"
        }
      ],
      "stateMutability": "view",
      "type": "function"
    }
  ],
  "bytecode": "0x60806040523462000030576200001e62000018620000d3565b6200021c565b604051612966620009d1823961296690f35b600080fd5b634e487b7160e01b600052604160045260246000fd5b90601f01601f191681019081106001600160401b038211176200006d57604052565b62000035565b906200008a6200008260405190565b92836200004b565b565b6001600160a01b031690565b90565b6001600160a01b038116036200003057565b905051906200008a826200009b565b9060208282031262000030576200009891620000ad565b620000986200333780380380620000ea8162000073565b928339810190620000bc565b90600019905b9181191691161790565b6200009862000098620000989290565b906200012a62000098620001329262000106565b8254620000f6565b9055565b6200008c62000098620000989290565b620000989062000136565b156200015957565b60405162461bcd60e51b8152602060048201526012602482015271125b9d985b1a59081c1c9a58d9481999595960721b6044820152606490fd5b62000098600062000106565b62000098906200008c906001600160a01b031682565b62000098906200019f565b6200009890620001b5565b906001600160a01b0390620000fc565b90620001ef620000986200013292620001c0565b8254620001cb565b9060ff90620000fc565b9062000214620000986200013292151590565b8254620001f7565b620002e7620002ef916200022f62000356565b6200023d6032600b62000116565b6200024c61012c600c62000116565b62000272620002606200008c600062000146565b6001600160a01b038316141562000151565b620002886200028062000193565b33906200039e565b50620002b47f7a05a596cb0ce7fdea8a1e1ec73be300bdb35097c944ce1897202f7a13122eb262000280565b50620002e07f17a8e30262c1f919c33056d877a3c22b95c2f5e4dac44683c1c2323cd79fbdb062000280565b50620001c0565b6004620001db565b6200034c60056200030260018262000201565b6200031c62000312606462000106565b6001830162000116565b620003366200032c60c862000106565b6003830162000116565b600462000344600162000106565b910162000116565b6200008a62000847565b6200008a6200036c565b62000098600162000106565b6200008a6200037a62000360565b600162000116565b905b600052602052604060002090565b906200038490620001c0565b620003b2620003ae8383620009a8565b1590565b156200043257620003de6001620003d8846000620003d1868262000382565b0162000392565b62000201565b620003fd620003f6620003ef339390565b93620001c0565b91620001c0565b917f2f8788117e7eff1d82e926ec794901d17c78024a50270940304540a733656f0d6200042960405190565b600090a4600190565b5050600090565b6200009860e062000073565b9052565b634e487b7160e01b600052602160045260246000fd5b600511156200046a57565b62000449565b906200008a826200045f565b90620004459062000470565b6001600160401b0381116200006d57602090601f01601f19160190565b90620004bb620004b58362000488565b62000073565b918252565b620004cc600a620004a5565b69556e697377617020563360b01b602082015290565b62000098620004c0565b620000989062000470565b906200038490620004ec565b62000098905162000470565b9060ff60a01b9060a01b620000fc565b9062000533620000986200013292620004ec565b82546200050f565b9060ff60a81b9060a81b620000fc565b906200055e620000986200013292151590565b82546200053b565b634e487b7160e01b600052602260045260246000fd5b90600160028304921680156200059f575b60208310146200059957565b62000566565b91607f16916200058d565b9160001960089290920291821b911b620000fc565b9190620005d462000098620001329362000106565b908354620005aa565b6200008a91600091620005bf565b818110620005f7575050565b80620006076000600193620005dd565b01620005eb565b9190601f81116200061e57505050565b620006326200008a93600052602060002090565b906020601f84018190048301931062000656575b6020601f909101040190620005eb565b909150819062000646565b906200066b815190565b906001600160401b0382116200006d5762000693826200068c85546200057c565b856200060e565b602090601f8311600114620006d25762000132929160009183620006c6575b5050600019600883021c1916906002021790565b015190503880620006b2565b601f19831691620006e885600052602060002090565b9260005b81811062000729575091600293918560019694106200070f575b50505002019055565b01516000196008601f8516021c1916905538808062000706565b91936020600181928787015181550195019201620006ec565b906200008a9162000661565b60046200080c60c06200008a946200077b6200077460008301516001600160a01b031690565b86620001db565b6200079e6200079460208301516001600160a01b031690565b60018701620001db565b620007ed60028601620007c6620007bf60408501516001600160a01b031690565b82620001db565b620007df620007d86060850162000503565b826200051f565b60808301511515906200054b565b62000807620007fd60a083015190565b6003870162000116565b015190565b910162000742565b906200008a916200074e565b6200082c6005620004a5565b64062d2dcc6d60db1b602082015290565b6200009862000820565b6200008a6000620008fd6001620009036200086162000439565b73e592427a0aece92de3edee1f18e0157c0586156481860152731f98431c8ad98523631ae4a59f267346ea31f984602082015273b27308f9f90d607463bb33ea1bebb41c27ce5ab66040820152620008bd85606083016200047c565b8215156080820152620008db620008d48462000106565b60a0830152565b620008f0620008e9620004e2565b60c0830152565b620008fd856003620004f7565b62000814565b6200095d620009128462000146565b62000946731111111254eeb25477b68fb85ed929f73a9605826200093562000439565b968701906001600160a01b03169052565b6001600160a01b0316602085018190526040850152565b6200096c81606085016200047c565b80151560808401526200098b62000984600262000106565b60a0850152565b620009a0620009996200083d565b60c0850152565b6003620004f7565b62000098916000620003d1620009c993620009c1600090565b508262000382565b5460ff169056fe6080604052600436101561001257600080fd5b60003560e01c806301ffc9a7146101c25780630e87e665146101bd578063248a9ca3146101b85780632f2ff15d146101b357806330d643b5146101ae578063364bc15a146101a957806336568abe146101a45780633f4ba83a1461019f578063543aa9fe1461019a5780635487404a14610195578063551ec76714610190578063573761981461018b5780635c975abb14610186578063741bef1a146101815780638456cb591461017c5780638c04166f1461017757806391d14854146101725780639291ccd51461016d578063a217fddf14610168578063a378a32414610163578063ac9051141461015e578063b913257c14610159578063cd2c664b14610154578063d547741f1461014f578063d78ec3da1461014a578063f254aea8146101455763f51d1aa0036101c757610d5f565b610ab9565b6108c6565b610878565b610847565b61079a565b610773565b610727565b61070c565b6106d2565b6106aa565b61068f565b61066b565b610644565b6105ec565b6105d3565b61059b565b610508565b6104e1565b61044a565b610431565b6103f8565b6103bf565b610396565b610348565b610305565b610209565b600080fd5b6001600160e01b031981165b036101c757565b905035906101ec826101cc565b565b906020828203126101c757610202916101df565b90565b9052565b346101c75761023661022461021f3660046101ee565b610d93565b60405191829182901515815260200190565b0390f35b6001600160a01b031690565b6001600160a01b0381166101d8565b905035906101ec82610246565b806101d8565b905035906101ec82610262565b90916060828403126101c75761020261028e8484610255565b93604061029e8260208701610255565b9401610268565b634e487b7160e01b600052602160045260246000fd5b600511156102c557565b6102a5565b906101ec826102bb565b610202906102ca565b610205906102d4565b9160206101ec929493610301604082019660008301906102dd565b0152565b346101c75761031e610318366004610275565b9161100c565b9061023661032b60405190565b928392836102e6565b906020828203126101c75761020291610268565b346101c75761023661036361035e366004610334565b61114b565b6040519182918290815260200190565b91906040838203126101c75761020290602061038f8286610268565b9401610255565b346101c7576103af6103a9366004610373565b9061118d565b604051005b60009103126101c757565b346101c7576103cf3660046103b4565b6102367f7a05a596cb0ce7fdea8a1e1ec73be300bdb35097c944ce1897202f7a13122eb2610363565b346101c7576104083660046103b4565b6102367ffc8737ab85eb45125971625a9ebdb75cc78e01d5c1fa80c4c6e5203f47bc4fab610363565b346101c7576103af610444366004610373565b90611197565b346101c75761045a3660046103b4565b6103af6111fa565b906020828203126101c75761020291610255565b61023a610202610202926001600160a01b031690565b61020290610476565b6102029061048c565b906104a890610495565b600052602052604060002090565b610202916008021c81565b9061020291546104b6565b60006104dc61020292600f61049e565b6104c1565b346101c7576102366103636104f7366004610462565b6104cc565b6102026000600b6104c1565b346101c7576105183660046103b4565b6102366103636104fc565b600511156101c757565b905035906101ec82610523565b8015156101d8565b905035906101ec8261053a565b919060a0838203126101c757610565818461052d565b926105738260208301610255565b926102026105848460408501610255565b9360806105948260608701610255565b9401610542565b346101c7576103af6105ae36600461054f565b9392909261132a565b91906040838203126101c75761020290602061029e8286610255565b346101c7576103af6105e63660046105b7565b9061135b565b346101c7576105fc3660046103b4565b610236610224611365565b610202916008021c61023a565b906102029154610607565b61020260006004610614565b61020590610495565b6020810192916101ec919061062b565b346101c7576106543660046103b4565b61023661065f61061f565b60405191829182610634565b346101c75761067b3660046103b4565b6103af611385565b6102026000600c6104c1565b346101c75761069f3660046103b4565b610236610363610683565b346101c7576102366102246106c0366004610373565b9061138d565b6102026000600e6104c1565b346101c7576106e23660046103b4565b6102366103636106c6565b6102026102026102029290565b61020260006106ed565b6102026106fa565b346101c75761071c3660046103b4565b610236610363610704565b346101c7576107373660046103b4565b6102367f17a8e30262c1f919c33056d877a3c22b95c2f5e4dac44683c1c2323cd79fbdb0610363565b6102026127106106ed565b610202610760565b346101c7576107833660046103b4565b61023661036361076b565b6102026000600d6104c1565b346101c7576107aa3660046103b4565b61023661036361078e565b610202905b60ff1690565b61020290546107b5565b6102029081565b61020290546107ca565b6107e560056107c0565b906107f060066107d1565b906107fb60076107d1565b9061080660086107d1565b9061020260096107d1565b901515815260a0810195946101ec949093608093610301929161084091610839906020870152565b6040850152565b6060830152565b346101c7576108573660046103b4565b6102366108626107db565b9161086f95939560405190565b95869586610811565b346101c7576103af61088b366004610373565b906113cf565b6080818303126101c7576108a58282610542565b926102026108b68460208501610268565b93606061029e8260408701610268565b346101c7576103af6108d9366004610891565b92919091611526565b634e487b7160e01b600052604160045260246000fd5b90601f01601f1916810190811067ffffffffffffffff82111761091a57604052565b6108e2565b906101ec61092c60405190565b92836108f8565b67ffffffffffffffff811161091a57602090601f01601f19160190565b0190565b90826000939282370152565b9092919261097561097082610933565b61091f565b93818552818301116101c7576101ec916020850190610954565b9080601f830112156101c75781602061020293359101610960565b91909160e0818403126101c7576109c160e061091f565b926109cc8183610255565b84526109db8160208401610255565b60208501526109ed8160408401610268565b60408501526109ff8160608401610268565b6060850152610a118160808401610255565b6080850152610a238160a08401610268565b60a085015260c082013567ffffffffffffffff81116101c757610a46920161098f565b60c0830152565b906020828203126101c757813567ffffffffffffffff81116101c75761020292016109aa565b805182526101ec91906060908190610a9060208201516020860152565b610aa2604082015160408601906102dd565b0151910152565b6080810192916101ec9190610a73565b346101c757610236610ad4610acf366004610a4d565b61192f565b60405191829182610aa9565b906020828203126101c7576102029161052d565b906104a8906102d4565b6102029061023a565b6102029054610afe565b6102029060a01c6107ba565b6102029054610b11565b6102029060a81c6107ba565b6102029054610b27565b634e487b7160e01b600052602260045260246000fd5b9060016002830492168015610b73575b6020831014610b6e57565b610b3d565b91607f1691610b63565b80546000939291610b9a610b9083610b53565b8085529360200190565b9160018116908115610bec5750600114610bb357505050565b610bc69192939450600052602060002090565b916000925b818410610bd85750500190565b805484840152602090930192600101610bcb565b92949550505060ff1916825215156020020190565b9061020291610b7d565b906101ec610c2592610c1c60405190565b93848092610c01565b03836108f8565b610c37906003610af4565b610c4081610b07565b91610c4d60018301610b07565b91610c5a60028201610b07565b91610c6760028301610b1d565b91610c7460028201610b33565b916102026004610c86600385016107d1565b9301610c0b565b60005b838110610ca05750506000910152565b8181015183820152602001610c90565b610cd1610cda60209361095093610cc5815190565b80835293849260200190565b95869101610c8d565b601f01601f191690565b9394610d426102029896610d38610d5296610d28610d4b969b97610d1860e08c019d60008d01906001600160a01b03169052565b6001600160a01b031660208b0152565b6001600160a01b03166040890152565b60608701906102dd565b15156080850152565b60a0830152565b60c0818403910152610cb0565b346101c757610236610d7a610d75366004610ae0565b610c2c565b93610d8a97959793919360405190565b97889788610ce4565b7f7965db0b000000000000000000000000000000000000000000000000000000006001600160e01b0319821614908115610dcb575090565b61020291506001600160e01b0319167f01ffc9a7000000000000000000000000000000000000000000000000000000001490565b61023a6102026102029290565b61020290610dff565b15610e1c57565b60405162461bcd60e51b815260206004820152600e60248201527f496e76616c696420746f6b656e730000000000000000000000000000000000006044820152606490fd5b0390fd5b15610e6c57565b60405162461bcd60e51b815260206004820152600e60248201527f496e76616c696420616d6f756e740000000000000000000000000000000000006044820152606490fd5b634e487b7160e01b600052601160045260246000fd5b6000198114610ed65760010190565b610eb1565b610ee86102026102029290565b6102ca565b90610205906102ca565b61020260e061091f565b906101ec610fb66004610f12610ef7565b94610f2c610f1f82610b07565b6001600160a01b03168752565b610f4b610f3b60018301610b07565b6001600160a01b03166020880152565b610f6a610f5a60028301610b07565b6001600160a01b03166040880152565b610f82610f7960028301610b1d565b60608801610eed565b610f9a610f9160028301610b33565b15156080880152565b610fb0610fa9600383016107d1565b60a0880152565b01610c0b565b60c0840152565b61020290610f01565b909594926101ec9461084061100592610839608096610ff560a088019c60008901906001600160a01b03169052565b6001600160a01b03166020870152565b01906102dd565b92919060009061104161101e83610e0c565b6001600160a01b0381166001600160a01b03881614159081611128575b50610e15565b61105461104d836106ed565b8411610e65565b61105d826106ed565b9194825b8661106f61020260046102d4565b82116110e5575061107f81610edb565b6110a56110a1608061109a611095856003610af4565b610fbd565b0151151590565b1590565b6110db576110b586858584611940565b8581116110cd575b50506110c890610ec7565b611061565b90975093506110c8386110bd565b506110c890610ec7565b61112391507f809cf9eb9b8560863a95a6ff05e54bf80fceb478b477c74dd2041a0e0fb7f74b94969596809761111a60405190565b95869586610fc6565b0390a1565b6001600160a01b031690506001600160a01b03831614153861103b565b906104a8565b60016111646102029261115c600090565b506000611145565b016107d1565b906101ec9161118061117b8261114b565b6119f8565b9061118a91611a03565b50565b906101ec9161116a565b906111a13361023a565b6001600160a01b038216036111b95761118a91611a84565b6040517f6697b232000000000000000000000000000000000000000000000000000000008152600490fd5b6111ef61117b6106fa565b6101ec6101ec611b37565b6101ec6111e4565b906101ec9493929161121561117b6106fa565b6112ba565b906001600160a01b03905b9181191691161790565b9061123f61020261124692610495565b825461121a565b9055565b9075ff0000000000000000000000000000000000000000009060a81b611225565b9061127b61020261124692151590565b825461124a565b6040906112b26101ec94969593966112a2606084019860008501906102dd565b6001600160a01b03166020830152565b019015159052565b919361131e81611123939561131960027f9c7e6605ce2c05eb5ef73df45fdff137b6a703f334c6db094fe12838bedfe86a996113116112fd6102028b6003610af4565b916113088c8461122f565b6001830161122f565b01918261122f565b61126b565b60405193849384611282565b906101ec94939291611202565b906101ec9161134761117b6106fa565b906113546101ec92610495565b3390611b82565b906101ec91611337565b61020260026107c0565b61137a61117b6106fa565b6101ec6101ec611c0b565b6101ec61136f565b6102029160006113a96113af936113a2600090565b5082611145565b0161049e565b6107c0565b906101ec916113c561117b8261114b565b9061118a91611a84565b906101ec916113b4565b906101ec9392916113eb61117b6106fa565b6114c9565b156113f757565b60405162461bcd60e51b815260206004820152601160248201527f536c69707061676520746f6f20686967680000000000000000000000000000006044820152606490fd5b1561144357565b60405162461bcd60e51b815260206004820152600f60248201527f496d7061637420746f6f206869676800000000000000000000000000000000006044820152606490fd5b9060ff90611225565b906114a161020261124692151590565b8254611488565b9060001990611225565b906114c2610202611246926106ed565b82546114a8565b6115206101ec94936115176004946115016114f96101f46114f46114ec826106ed565b8511156113f0565b6106ed565b84111561143c565b60059461150e9086611491565b600185016114b2565b600383016114b2565b016114b2565b906101ec9392916113d9565b610202608061091f565b611544611532565b60008082526020820181905260408201819052606082015290565b61020261153c565b9061157991611574611c1d565b611582565b906101ec611c76565b906102029161158f611c88565b611669565b1561159b57565b60405162461bcd60e51b815260206004820152600760248201527f45787069726564000000000000000000000000000000000000000000000000006044820152606490fd5b91908203918211610ed657565b81810292918115918404141715610ed657565b634e487b7160e01b600052601260045260246000fd5b90611620565b9190565b90811561162b570490565b611600565b9081526060810193926101ec929091604091610301905b6020830152565b9081526060810193926101ec92909160409161100590611647565b9061168061167860a083015190565b421115611594565b6005908161168d816107c0565b611921575b8151919283926001600160a01b03166116aa90610495565b926116b430610495565b9360408201946116c2865190565b90336116cd93611dce565b84516001600160a01b03169260208201936116ef85516001600160a01b031690565b8651906116fb9261100c565b9096611705610760565b91808984611713600c6107d1565b61171d90826115e0565b61172790846115ed565b9061173191611616565b606088019061173e825190565b1015611749906113f0565b5a9761175c86516001600160a01b031690565b918c61176f8d516001600160a01b031690565b905191516080909301516001600160a01b03169361178c95611e31565b8b528a958694905a61179d916115e0565b60208d01526117af8b60408e01610eed565b84516117bb90836115e0565b906117c5916115ed565b906117cf91611616565b60608b0181815292906117e2600c6107d1565b109661185d611888966118839661187e96611870967fa3f37f0446dcac60c3831cc0ebda32d57d7cddb7bef6d734cdd7b0c72c2779229c6118d7575b50505061183d611836611831600d6107d1565b610ec7565b600d6114b2565b6113af61184b33600f61049e565b611857611831826107d1565b906114b2565b6118ba575b50516001600160a01b031690565b95516001600160a01b031690565b955190565b915190565b906118b46118a161189b61189b33610495565b96610495565b966118ab60405190565b9384938461164e565b0390a490565b6118ca816118d19201339061049e565b43906114b2565b38611862565b61191661190a6119057e6eada2c141f2b61fedf19d109833d96810daa58e972b50516dd9e956926a86955190565b935190565b60405193849384611630565b0390a188388061181e565b61192a33611cc1565b611692565b6102029061193b61155f565b611567565b929190611951611095856003610af4565b6119616110a16080830151151590565b80156119c9575b6119ba5761197660006102ca565b61197f866102ca565b0361198e576102029450612057565b50926119a361199d60016102ca565b916102ca565b146119b157610202926121e8565b61020292611f55565b505050505061020260006106ed565b5080516001600160a01b03166119f26119e561023a6000610e0c565b916001600160a01b031690565b14611968565b6101ec903390612452565b611a106110a1838361138d565b15611a7d57611a2f6001611a2a8460006113a98682611145565b611491565b611a49611a43611a3d339390565b93610495565b91610495565b917f2f8788117e7eff1d82e926ec794901d17c78024a50270940304540a733656f0d611a7460405190565b600090a4600190565b5050600090565b611a8e828261138d565b15611a7d57611aa76000611a2a84826113a98682611145565b611ab5611a43611a3d339390565b917ff6391f5c32d9c69d2a47ea670b442974b53935d1edc7fd64eb21e047a839171b611a7460405190565b611ae86124a3565b6101ec611af760006002611491565b7f5db9ee0a495bf2e6ff9c91a7834c1ba4fdd244a5e8aa4e537bd38aeae4b073aa611123335b604051918291826001600160a01b03909116815260200190565b6101ec611ae0565b611b58611b526102029263ffffffff1690565b60e01b90565b6001600160e01b03191690565b6001600160a01b0390911681526040810192916101ec9160200152565b611bc5600492611bb66101ec95611b9c63a9059cbb611b3f565b92611ba660405190565b9687946020860190815201611b65565b602082018103825203836108f8565b6124df565b611bd2611c88565b6101ec611be160016002611491565b7f62e78cea01bee320cd4e420270b5ea74000d11b0c9f74754ebdbfc544b05a25861112333611b1d565b6101ec611bca565b61020260026106ed565b611c2760016107d1565b611c2f611c13565b908114611c41576101ec9060016114b2565b6040517f3ee5aeb5000000000000000000000000000000000000000000000000000000008152600490fd5b61020260016106ed565b6101ec611c81611c6c565b60016114b2565b611c90611365565b611c9657565b6040517fd93c0665000000000000000000000000000000000000000000000000000000008152600490fd5b611cd590611cd090600a61049e565b6107d1565b4314611d3e57611cf1610202611ceb60036106ed565b486115ed565b3a11611cf957565b60405162461bcd60e51b815260206004820152601960248201527f4d45563a20537573706963696f757320676173207072696365000000000000006044820152606490fd5b60405162461bcd60e51b815260206004820152602160248201527f4d45563a204d756c7469706c6520737761707320696e2073616d6520626c6f6360448201527f6b000000000000000000000000000000000000000000000000000000000000006064820152608490fd5b6001600160a01b0390911681526060810193926101ec929091604091610301906112a2565b90611bc590611bb66101ec95600495611dea6323b872dd611b3f565b93611df460405190565b9788956020870190815201611da9565b905051906101ec8261053a565b906020828203126101c75761020291611e04565b6040513d6000823e3d90fd5b9493929190611e44611095876003610af4565b95611e91602085611e5c611e5786610495565b610495565b8a516001600160a01b03166000611e7260405190565b809681958294611e8663095ea7b360e01b90565b845260048401611b65565b03925af18015611f5057611f23575b50611eab60006102ca565b611eb4826102ca565b03611ec3575061020295612827565b611ed061199d60016102ca565b14611f1a5760405162461bcd60e51b815260206004820152601160248201527f444558206e6f7420737570706f727465640000000000000000000000000000006044820152606490fd5b6102029561266e565b611f449060203d602011611f49575b611f3c81836108f8565b810190611e11565b611ea0565b503d611f32565b611e25565b6102029291906121e8565b61020260a061091f565b611f776102026102029290565b62ffffff1690565b905051906101ec82610262565b905051906101ec82610246565b63ffffffff81166101d8565b905051906101ec82611f99565b6080818303126101c757611fc68282611f7f565b92610202611fd78460208501611f8c565b936060611fe78260408701611fa5565b9401611f7f565b80516001600160a01b031682526101ec919060809081906020818101516001600160a01b03169085015261202760408201516040860152565b60608181015162ffffff16908501525b01516001600160a01b0316910152565b60a0810192916101ec9190611fee565b6040019261206c84516001600160a01b031690565b9360009461207f6119e561023a88610e0c565b1461219d57926080926120de61214a936120d76120aa611e57611e578b9a516001600160a01b031690565b946120c76120b6611f60565b6001600160a01b039096168a870152565b6001600160a01b03166020850152565b6040830152565b6120f86120ec610bb8611f6a565b62ffffff166060830152565b61211361210486610dff565b6001600160a01b031682860152565b60405195869384928391907fc6a5026a00000000000000000000000000000000000000000000000000000000835260048301612047565b03925af1819281612169575b506121655761020291506106ed565b5090565b61218c91935060803d608011612196575b61218481836108f8565b810190611fb2565b5050929092612156565b503d61217a565b50505050610202906106ed565b906020828203126101c75761020291611fa5565b6121cb6102026102029290565b63ffffffff1690565b906020828203126101c75761020291611f7f565b90612240926121f5600090565b50612209611e57611e57611e576004610b07565b9160206339e599459461221b60405190565b809781926122298960e01b90565b83526001600160a01b031660048301526024820190565b0381865afa928315611f50576122779560009461242c575b50612229602093949561226a60405190565b9788948593849360e01b90565b03915afa928315611f50576000936123fb575b50600092612297846121be565b63ffffffff84161480156123e4575b6123d857926122f2929360206122bf611e576004610b07565b9563da26663a966122cf60405190565b80809881946122de8c60e01b90565b835263ffffffff1660048301526024820190565b03915afa938415611f505782946123b2575b5060209061232794956122de61231d611e576004610b07565b9161226a60405190565b03915afa928315611f50578193612381575b50612343816106ed565b84148015612370575b61236357506102029261235e916115ed565b611616565b91505061020291506106ed565b5061237a816106ed565b831461234c565b6123a491935060203d6020116123ab575b61239c81836108f8565b8101906121d4565b9138612339565b503d612392565b6123279450906123d0602092833d85116123ab5761239c81836108f8565b945090612304565b505050610202906106ed565b506123ee846121be565b63ffffffff8216146122a6565b61241e91935060203d602011612425575b61241681836108f8565b8101906121aa565b913861228a565b503d61240c565b602093945061244a61222991853d87116124255761241681836108f8565b949350612258565b906124606110a1828461138d565b612468575050565b610e6161247460405190565b9283927fe2517d3f00000000000000000000000000000000000000000000000000000000845260048401611b65565b6124ae6110a1611365565b6124b457565b6040517f8dfc202b000000000000000000000000000000000000000000000000000000008152600490fd5b9060006020916124ed600090565b50828151910182855af115611e25573d6000519061250e61161c60006106ed565b03612580575061251d81610495565b3b61252b61161c60006106ed565b145b6125345750565b612540610e6191610495565b6040519182917f5274afe7000000000000000000000000000000000000000000000000000000008352600483016001600160a01b03909116815260200190565b61258d61161c60016106ed565b141561252d565b91906040838203126101c757610202906020611fe78286611f7f565b80516001600160a01b031682526101ec919060c09081906020818101516001600160a01b0316908501526040818101516001600160a01b0316908501526060818101516001600160a01b03169085015261260f60808201516080860152565b610aa260a082015160a0860152565b6001600160a01b0390911681526102029161265a906101408301906126479060208501906125b0565b8281036101008401526000815260200190565b906101208183039101526000815260200190565b909293612679600090565b5061268330610495565b9461268d86610495565b9661269790610495565b60009788956126a4610ef7565b6001600160a01b03909816878901526001600160a01b031660208801526001600160a01b031660408701526001600160a01b03166060860152608085015260a08401526126f0826106ed565b60c084015201516001600160a01b031661270990610495565b61271290610495565b9061271c60405190565b9283918291907f12aa3caf000000000000000000000000000000000000000000000000000000008352612752916004840161261e565b0381855a94604095f18015611f5057612769575090565b612165915060403d60401161278b575b61278381836108f8565b810190612594565b503d612779565b61020261010061091f565b80516001600160a01b031682526101ec919060e09081906020818101516001600160a01b03169085015260408181015162ffffff16908501526060808201516001600160a01b0316908501526127f860808201516080860152565b61280760a082015160a0860152565b61203760c082015160c0860152565b610100810192916101ec919061279d565b909490939291612835612792565b6001600160a01b0390961686526001600160a01b0316602086015261285b610bb8611f6a565b62ffffff1660408601526001600160a01b0316606085015261287e426080860152565b60a084015260c08301526128926000610dff565b6001600160a01b031660e08301526128b190516001600160a01b031690565b6128ba90610495565b6128c390610495565b60405191829081907f414bf3890000000000000000000000000000000000000000000000000000000082526128fb9060048301612816565b03815a602094600091f1908115611f5057600091612917575090565b610202915060203d6020116123ab5761239c81836108f856fea2646970667358221220b7633326ab7df68824555efbabcf35b4c6db1b1058c149db92f3324ca83ddeae64736f6c63430008160033",
  "linkReferences": {},
  "deployedLinkReferences": {}
}