{
  "_format": "hh-sol-artifact-1",
  "contractName": "SmartIndexVaultV2",
  "sourceName": "contracts/SmartIndexVaultV2.sol",
  "abi": [
    {
      "inputs": [],
      "stateMutability": "nonpayable",
      "type": "constructor"
    },
    {
      "inputs": [],
      "name": "AccessControlBadConfirmation",
      "type": "error"
    },
    {
      "inputs": [
        {
          "internalType": "address",
          "name": "account",
          "type": "address"
        },
        {
          "internalType": "bytes32",
          "name": "neededRole",
          "type": "bytes32"
        }
      ],
      "name": "AccessControlUnauthorizedAccount",
      "type": "error"
    },
    {
      "inputs": [
        {
          "internalType": "address",
          "name": "target",
          "type": "address"
        }
      ],
      "name": "AddressEmptyCode",
      "type": "error"
    },
    {
      "inputs": [
        {
          "internalType": "address",
          "name": "implementation",
          "type": "address"
        }
      ],
      "name": "ERC1967InvalidImplementation",
      "type": "error"
    },
    {
      "inputs": [],
      "name": "ERC1967NonPayable",
      "type": "error"
    },
    {
      "inputs": [
        {
          "internalType": "address",
          "name": "spender",
          "type": "address"
        },
        {
          "internalType": "uint256",
          "name": "allowance",
          "type": "uint256"
        },
        {
          "internalType": "uint256",
          "name": "needed",
          "type": "uint256"
        }
      ],
      "name": "ERC20InsufficientAllowance",
      "type": "error"
    },
    {
      "inputs": [
        {
          "internalType": "address",
          "name": "sender",
          "type": "address"
        },
        {
          "internalType": "uint256",
          "name": "balance",
          "type": "uint256"
        },
        {
          "internalType": "uint256",
          "name": "needed",
          "type": "uint256"
        }
      ],
      "name": "ERC20InsufficientBalance",
      "type": "error"
    },
    {
      "inputs": [
        {
          "internalType": "address",
          "name": "approver",
          "type": "address"
        }
      ],
      "name": "ERC20InvalidApprover",
      "type": "error"
    },
    {
      "inputs": [
        {
          "internalType": "address",
          "name": "receiver",
          "type": "address"
        }
      ],
      "name": "ERC20InvalidReceiver",
      "type": "error"
    },
    {
      "inputs": [
        {
          "internalType": "address",
          "name": "sender",
          "type": "address"
        }
      ],
      "name": "ERC20InvalidSender",
      "type": "error"
    },
    {
      "inputs": [
        {
          "internalType": "address",
          "name": "spender",
          "type": "address"
        }
      ],
      "name": "ERC20InvalidSpender",
      "type": "error"
    },
    {
      "inputs": [
        {
          "internalType": "address",
          "name": "receiver",
          "type": "address"
        },
        {
          "internalType": "uint256",
          "name": "assets",
          "type": "uint256"
        },
        {
          "internalType": "uint256",
          "name": "max",
          "type": "uint256"
        }
      ],
      "name": "ERC4626ExceededMaxDeposit",
      "type": "error"
    },
    {
      "inputs": [
        {
          "internalType": "address",
          "name": "receiver",
          "type": "address"
        },
        {
          "internalType": "uint256",
          "name": "shares",
          "type": "uint256"
        },
        {
          "internalType": "uint256",
          "name": "max",
          "type": "uint256"
        }
      ],
      "name": "ERC4626ExceededMaxMint",
      "type": "error"
    },
    {
      "inputs": [
        {
          "internalType": "address",
          "name": "owner",
          "type": "address"
        },
        {
          "internalType": "uint256",
          "name": "shares",
          "type": "uint256"
        },
        {
          "internalType": "uint256",
          "name": "max",
          "type": "uint256"
        }
      ],
      "name": "ERC4626ExceededMaxRedeem",
      "type": "error"
    },
    {
      "inputs": [
        {
          "internalType": "address",
          "name": "owner",
          "type": "address"
        },
        {
          "internalType": "uint256",
          "name": "assets",
          "type": "uint256"
        },
        {
          "internalType": "uint256",
          "name": "max",
          "type": "uint256"
        }
      ],
      "name": "ERC4626ExceededMaxWithdraw",
      "type": "error"
    },
    {
      "inputs": [],
      "name": "EnforcedPause",
      "type": "error"
    },
    {
      "inputs": [],
      "name": "ExpectedPause",
      "type": "error"
    },
    {
      "inputs": [],
      "name": "FailedCall",
      "type": "error"
    },
    {
      "inputs": [],
      "name": "InvalidInitialization",
      "type": "error"
    },
    {
      "inputs": [],
      "name": "NotInitializing",
      "type": "error"
    },
    {
      "inputs": [],
      "name": "ReentrancyGuardReentrantCall",
      "type": "error"
    },
    {
      "inputs": [
        {
          "internalType": "address",
          "name": "token",
          "type": "address"
        }
      ],
      "name": "SafeERC20FailedOperation",
      "type": "error"
    },
    {
      "inputs": [],
      "name": "UUPSUnauthorizedCallContext",
      "type": "error"
    },
    {
      "inputs": [
        {
          "internalType": "bytes32",
          "name": "slot",
          "type": "bytes32"
        }
      ],
      "name": "UUPSUnsupportedProxiableUUID",
      "type": "error"
    },
    {
      "anonymous": false,
      "inputs": [
        {
          "indexed": true,
          "internalType": "address",
          "name": "owner",
          "type": "address"
        },
        {
          "indexed": true,
          "internalType": "address",
          "name": "spender",
          "type": "address"
        },
        {
          "indexed": false,
          "internalType": "uint256",
          "name": "value",
          "type": "uint256"
        }
      ],
      "name": "Approval",
      "type": "event"
    },
    {
      "anonymous": false,
      "inputs": [
        {
          "indexed": true,
          "internalType": "address",
          "name": "sender",
          "type": "address"
        },
        {
          "indexed": true,
          "internalType": "address",
          "name": "owner",
          "type": "address"
        },
        {
          "indexed": false,
          "internalType": "uint256",
          "name": "assets",
          "type": "uint256"
        },
        {
          "indexed": false,
          "internalType": "uint256",
          "name": "shares",
          "type": "uint256"
        }
      ],
      "name": "Deposit",
      "type": "event"
    },
    {
      "anonymous": false,
      "inputs": [
        {
          "indexed": false,
          "internalType": "address",
          "name": "token",
          "type": "address"
        },
        {
          "indexed": false,
          "internalType": "uint256",
          "name": "amount",
          "type": "uint256"
        },
        {
          "indexed": false,
          "internalType": "address",
          "name": "recipient",
          "type": "address"
        }
      ],
      "name": "EmergencyWithdrawal",
      "type": "event"
    },
    {
      "anonymous": false,
      "inputs": [
        {
          "indexed": false,
          "internalType": "uint256",
          "name": "profit",
          "type": "uint256"
        },
        {
          "indexed": false,
          "internalType": "uint256",
          "name": "performanceFeeAmount",
          "type": "uint256"
        },
        {
          "indexed": false,
          "internalType": "uint256",
          "name": "timestamp",
          "type": "uint256"
        }
      ],
      "name": "Harvest",
      "type": "event"
    },
    {
      "anonymous": false,
      "inputs": [
        {
          "indexed": false,
          "internalType": "uint64",
          "name": "version",
          "type": "uint64"
        }
      ],
      "name": "Initialized",
      "type": "event"
    },
    {
      "anonymous": false,
      "inputs": [
        {
          "indexed": false,
          "internalType": "uint256",
          "name": "oldFee",
          "type": "uint256"
        },
        {
          "indexed": false,
          "internalType": "uint256",
          "name": "newFee",
          "type": "uint256"
        }
      ],
      "name": "ManagementFeeUpdated",
      "type": "event"
    },
    {
      "anonymous": false,
      "inputs": [
        {
          "indexed": false,
          "internalType": "address",
          "name": "account",
          "type": "address"
        }
      ],
      "name": "Paused",
      "type": "event"
    },
    {
      "anonymous": false,
      "inputs": [
        {
          "indexed": false,
          "internalType": "uint256",
          "name": "oldFee",
          "type": "uint256"
        },
        {
          "indexed": false,
          "internalType": "uint256",
          "name": "newFee",
          "type": "uint256"
        }
      ],
      "name": "PerformanceFeeUpdated",
      "type": "event"
    },
    {
      "anonymous": false,
      "inputs": [
        {
          "indexed": true,
          "internalType": "bytes32",
          "name": "role",
          "type": "bytes32"
        },
        {
          "indexed": true,
          "internalType": "bytes32",
          "name": "previousAdminRole",
          "type": "bytes32"
        },
        {
          "indexed": true,
          "internalType": "bytes32",
          "name": "newAdminRole",
          "type": "bytes32"
        }
      ],
      "name": "RoleAdminChanged",
      "type": "event"
    },
    {
      "anonymous": false,
      "inputs": [
        {
          "indexed": true,
          "internalType": "bytes32",
          "name": "role",
          "type": "bytes32"
        },
        {
          "indexed": true,
          "internalType": "address",
          "name": "account",
          "type": "address"
        },
        {
          "indexed": true,
          "internalType": "address",
          "name": "sender",
          "type": "address"
        }
      ],
      "name": "RoleGranted",
      "type": "event"
    },
    {
      "anonymous": false,
      "inputs": [
        {
          "indexed": true,
          "internalType": "bytes32",
          "name": "role",
          "type": "bytes32"
        },
        {
          "indexed": true,
          "internalType": "address",
          "name": "account",
          "type": "address"
        },
        {
          "indexed": true,
          "internalType": "address",
          "name": "sender",
          "type": "address"
        }
      ],
      "name": "RoleRevoked",
      "type": "event"
    },
    {
      "anonymous": false,
      "inputs": [
        {
          "indexed": false,
          "internalType": "string",
          "name": "strategyName",
          "type": "string"
        },
        {
          "indexed": false,
          "internalType": "uint256",
          "name": "timestamp",
          "type": "uint256"
        }
      ],
      "name": "StrategyExecuted",
      "type": "event"
    },
    {
      "anonymous": false,
      "inputs": [
        {
          "indexed": true,
          "internalType": "address",
          "name": "from",
          "type": "address"
        },
        {
          "indexed": true,
          "internalType": "address",
          "name": "to",
          "type": "address"
        },
        {
          "indexed": false,
          "internalType": "uint256",
          "name": "value",
          "type": "uint256"
        }
      ],
      "name": "Transfer",
      "type": "event"
    },
    {
      "anonymous": false,
      "inputs": [
        {
          "indexed": false,
          "internalType": "address",
          "name": "account",
          "type": "address"
        }
      ],
      "name": "Unpaused",
      "type": "event"
    },
    {
      "anonymous": false,
      "inputs": [
        {
          "indexed": true,
          "internalType": "address",
          "name": "implementation",
          "type": "address"
        }
      ],
      "name": "Upgraded",
      "type": "event"
    },
    {
      "anonymous": false,
      "inputs": [
        {
          "indexed": false,
          "internalType": "address",
          "name": "implementation",
          "type": "address"
        },
        {
          "indexed": false,
          "internalType": "uint256",
          "name": "version",
          "type": "uint256"
        }
      ],
      "name": "VaultUpgraded",
      "type": "event"
    },
    {
      "anonymous": false,
      "inputs": [
        {
          "indexed": true,
          "internalType": "address",
          "name": "sender",
          "type": "address"
        },
        {
          "indexed": true,
          "internalType": "address",
          "name": "receiver",
          "type": "address"
        },
        {
          "indexed": true,
          "internalType": "address",
          "name": "owner",
          "type": "address"
        },
        {
          "indexed": false,
          "internalType": "uint256",
          "name": "assets",
          "type": "uint256"
        },
        {
          "indexed": false,
          "internalType": "uint256",
          "name": "shares",
          "type": "uint256"
        }
      ],
      "name": "Withdraw",
      "type": "event"
    },
    {
      "inputs": [],
      "name": "DEFAULT_ADMIN_ROLE",
      "outputs": [
        {
          "internalType": "bytes32",
          "name": "",
          "type": "bytes32"
        }
      ],
      "stateMutability": "view",
      "type": "function"
    },
    {
      "inputs": [],
      "name": "EMERGENCY_ROLE",
      "outputs": [
        {
          "internalType": "bytes32",
          "name": "",
          "type": "bytes32"
        }
      ],
      "stateMutability": "view",
      "type": "function"
    },
    {
      "inputs": [],
      "name": "FEE_DENOMINATOR",
      "outputs": [
        {
          "internalType": "uint256",
          "name": "",
          "type": "uint256"
        }
      ],
      "stateMutability": "view",
      "type": "function"
    },
    {
      "inputs": [],
      "name": "MANAGER_ROLE",
      "outputs": [
        {
          "internalType": "bytes32",
          "name": "",
          "type": "bytes32"
        }
      ],
      "stateMutability": "view",
      "type": "function"
    },
    {
      "inputs": [],
      "name": "MAX_MANAGEMENT_FEE",
      "outputs": [
        {
          "internalType": "uint256",
          "name": "",
          "type": "uint256"
        }
      ],
      "stateMutability": "view",
      "type": "function"
    },
    {
      "inputs": [],
      "name": "MAX_PERFORMANCE_FEE",
      "outputs": [
        {
          "internalType": "uint256",
          "name": "",
          "type": "uint256"
        }
      ],
      "stateMutability": "view",
      "type": "function"
    },
    {
      "inputs": [],
      "name": "SECONDS_PER_YEAR",
      "outputs": [
        {
          "internalType": "uint256",
          "name": "",
          "type": "uint256"
        }
      ],
      "stateMutability": "view",
      "type": "function"
    },
    {
      "inputs": [],
      "name": "STRATEGIST_ROLE",
      "outputs": [
        {
          "internalType": "bytes32",
          "name": "",
          "type": "bytes32"
        }
      ],
      "stateMutability": "view",
      "type": "function"
    },
    {
      "inputs": [],
      "name": "UPGRADER_ROLE",
      "outputs": [
        {
          "internalType": "bytes32",
          "name": "",
          "type": "bytes32"
        }
      ],
      "stateMutability": "view",
      "type": "function"
    },
    {
      "inputs": [],
      "name": "UPGRADE_INTERFACE_VERSION",
      "outputs": [
        {
          "internalType": "string",
          "name": "",
          "type": "string"
        }
      ],
      "stateMutability": "view",
      "type": "function"
    },
    {
      "inputs": [
        {
          "internalType": "address",
          "name": "owner",
          "type": "address"
        },
        {
          "internalType": "address",
          "name": "spender",
          "type": "address"
        }
      ],
      "name": "allowance",
      "outputs": [
        {
          "internalType": "uint256",
          "name": "",
          "type": "uint256"
        }
      ],
      "stateMutability": "view",
      "type": "function"
    },
    {
      "inputs": [
        {
          "internalType": "address",
          "name": "spender",
          "type": "address"
        },
        {
          "internalType": "uint256",
          "name": "value",
          "type": "uint256"
        }
      ],
      "name": "approve",
      "outputs": [
        {
          "internalType": "bool",
          "name": "",
          "type": "bool"
        }
      ],
      "stateMutability": "nonpayable",
      "type": "function"
    },
    {
      "inputs": [],
      "name": "asset",
      "outputs": [
        {
          "internalType": "address",
          "name": "",
          "type": "address"
        }
      ],
      "stateMutability": "view",
      "type": "function"
    },
    {
      "inputs": [
        {
          "internalType": "address",
          "name": "account",
          "type": "address"
        }
      ],
      "name": "balanceOf",
      "outputs": [
        {
          "internalType": "uint256",
          "name": "",
          "type": "uint256"
        }
      ],
      "stateMutability": "view",
      "type": "function"
    },
    {
      "inputs": [
        {
          "internalType": "uint256",
          "name": "shares",
          "type": "uint256"
        }
      ],
      "name": "convertToAssets",
      "outputs": [
        {
          "internalType": "uint256",
          "name": "",
          "type": "uint256"
        }
      ],
      "stateMutability": "view",
      "type": "function"
    },
    {
      "inputs": [
        {
          "internalType": "uint256",
          "name": "assets",
          "type": "uint256"
        }
      ],
      "name": "convertToShares",
      "outputs": [
        {
          "internalType": "uint256",
          "name": "",
          "type": "uint256"
        }
      ],
      "stateMutability": "view",
      "type": "function"
    },
    {
      "inputs": [],
      "name": "decimals",
      "outputs": [
        {
          "internalType": "uint8",
          "name": "",
          "type": "uint8"
        }
      ],
      "stateMutability": "view",
      "type": "function"
    },
    {
      "inputs": [
        {
          "internalType": "uint256",
          "name": "assets",
          "type": "uint256"
        },
        {
          "internalType": "address",
          "name": "receiver",
          "type": "address"
        }
      ],
      "name": "deposit",
      "outputs": [
        {
          "internalType": "uint256",
          "name": "",
          "type": "uint256"
        }
      ],
      "stateMutability": "nonpayable",
      "type": "function"
    },
    {
      "inputs": [
        {
          "internalType": "address",
          "name": "token",
          "type": "address"
        },
        {
          "internalType": "uint256",
          "name": "amount",
          "type": "uint256"
        }
      ],
      "name": "emergencyWithdraw",
      "outputs": [],
      "stateMutability": "nonpayable",
      "type": "function"
    },
    {
      "inputs": [],
      "name": "emergencyWithdrawalRecipient",
      "outputs": [
        {
          "internalType": "address",
          "name": "",
          "type": "address"
        }
      ],
      "stateMutability": "view",
      "type": "function"
    },
    {
      "inputs": [
        {
          "internalType": "string",
          "name": "strategyName",
          "type": "string"
        }
      ],
      "name": "executeStrategy",
      "outputs": [],
      "stateMutability": "nonpayable",
      "type": "function"
    },
    {
      "inputs": [
        {
          "internalType": "bytes32",
          "name": "role",
          "type": "bytes32"
        }
      ],
      "name": "getRoleAdmin",
      "outputs": [
        {
          "internalType": "bytes32",
          "name": "",
          "type": "bytes32"
        }
      ],
      "stateMutability": "view",
      "type": "function"
    },
    {
      "inputs": [
        {
          "internalType": "bytes32",
          "name": "role",
          "type": "bytes32"
        },
        {
          "internalType": "address",
          "name": "account",
          "type": "address"
        }
      ],
      "name": "grantRole",
      "outputs": [],
      "stateMutability": "nonpayable",
      "type": "function"
    },
    {
      "inputs": [],
      "name": "harvest",
      "outputs": [],
      "stateMutability": "nonpayable",
      "type": "function"
    },
    {
      "inputs": [
        {
          "internalType": "bytes32",
          "name": "role",
          "type": "bytes32"
        },
        {
          "internalType": "address",
          "name": "account",
          "type": "address"
        }
      ],
      "name": "hasRole",
      "outputs": [
        {
          "internalType": "bool",
          "name": "",
          "type": "bool"
        }
      ],
      "stateMutability": "view",
      "type": "function"
    },
    {
      "inputs": [],
      "name": "highWaterMark",
      "outputs": [
        {
          "internalType": "uint256",
          "name": "",
          "type": "uint256"
        }
      ],
      "stateMutability": "view",
      "type": "function"
    },
    {
      "inputs": [
        {
          "internalType": "contract IERC20",
          "name": "_asset",
          "type": "address"
        },
        {
          "internalType": "string",
          "name": "_name",
          "type": "string"
        },
        {
          "internalType": "string",
          "name": "_symbol",
          "type": "string"
        }
      ],
      "name": "initialize",
      "outputs": [],
      "stateMutability": "nonpayable",
      "type": "function"
    },
    {
      "inputs": [],
      "name": "lastHarvestTime",
      "outputs": [
        {
          "internalType": "uint256",
          "name": "",
          "type": "uint256"
        }
      ],
      "stateMutability": "view",
      "type": "function"
    },
    {
      "inputs": [],
      "name": "lastTotalAssets",
      "outputs": [
        {
          "internalType": "uint256",
          "name": "",
          "type": "uint256"
        }
      ],
      "stateMutability": "view",
      "type": "function"
    },
    {
      "inputs": [],
      "name": "managementFee",
      "outputs": [
        {
          "internalType": "uint256",
          "name": "",
          "type": "uint256"
        }
      ],
      "stateMutability": "view",
      "type": "function"
    },
    {
      "inputs": [
        {
          "internalType": "address",
          "name": "",
          "type": "address"
        }
      ],
      "name": "maxDeposit",
      "outputs": [
        {
          "internalType": "uint256",
          "name": "",
          "type": "uint256"
        }
      ],
      "stateMutability": "view",
      "type": "function"
    },
    {
      "inputs": [
        {
          "internalType": "address",
          "name": "",
          "type": "address"
        }
      ],
      "name": "maxMint",
      "outputs": [
        {
          "internalType": "uint256",
          "name": "",
          "type": "uint256"
        }
      ],
      "stateMutability": "view",
      "type": "function"
    },
    {
      "inputs": [
        {
          "internalType": "address",
          "name": "owner",
          "type": "address"
        }
      ],
      "name": "maxRedeem",
      "outputs": [
        {
          "internalType": "uint256",
          "name": "",
          "type": "uint256"
        }
      ],
      "stateMutability": "view",
      "type": "function"
    },
    {
      "inputs": [
        {
          "internalType": "address",
          "name": "owner",
          "type": "address"
        }
      ],
      "name": "maxWithdraw",
      "outputs": [
        {
          "internalType": "uint256",
          "name": "",
          "type": "uint256"
        }
      ],
      "stateMutability": "view",
      "type": "function"
    },
    {
      "inputs": [
        {
          "internalType": "uint256",
          "name": "shares",
          "type": "uint256"
        },
        {
          "internalType": "address",
          "name": "receiver",
          "type": "address"
        }
      ],
      "name": "mint",
      "outputs": [
        {
          "internalType": "uint256",
          "name": "",
          "type": "uint256"
        }
      ],
      "stateMutability": "nonpayable",
      "type": "function"
    },
    {
      "inputs": [],
      "name": "name",
      "outputs": [
        {
          "internalType": "string",
          "name": "",
          "type": "string"
        }
      ],
      "stateMutability": "view",
      "type": "function"
    },
    {
      "inputs": [],
      "name": "pause",
      "outputs": [],
      "stateMutability": "nonpayable",
      "type": "function"
    },
    {
      "inputs": [],
      "name": "paused",
      "outputs": [
        {
          "internalType": "bool",
          "name": "",
          "type": "bool"
        }
      ],
      "stateMutability": "view",
      "type": "function"
    },
    {
      "inputs": [],
      "name": "performanceFee",
      "outputs": [
        {
          "internalType": "uint256",
          "name": "",
          "type": "uint256"
        }
      ],
      "stateMutability": "view",
      "type": "function"
    },
    {
      "inputs": [
        {
          "internalType": "uint256",
          "name": "assets",
          "type": "uint256"
        }
      ],
      "name": "previewDeposit",
      "outputs": [
        {
          "internalType": "uint256",
          "name": "",
          "type": "uint256"
        }
      ],
      "stateMutability": "view",
      "type": "function"
    },
    {
      "inputs": [
        {
          "internalType": "uint256",
          "name": "shares",
          "type": "uint256"
        }
      ],
      "name": "previewMint",
      "outputs": [
        {
          "internalType": "uint256",
          "name": "",
          "type": "uint256"
        }
      ],
      "stateMutability": "view",
      "type": "function"
    },
    {
      "inputs": [
        {
          "internalType": "uint256",
          "name": "shares",
          "type": "uint256"
        }
      ],
      "name": "previewRedeem",
      "outputs": [
        {
          "internalType": "uint256",
          "name": "",
          "type": "uint256"
        }
      ],
      "stateMutability": "view",
      "type": "function"
    },
    {
      "inputs": [
        {
          "internalType": "uint256",
          "name": "assets",
          "type": "uint256"
        }
      ],
      "name": "previewWithdraw",
      "outputs": [
        {
          "internalType": "uint256",
          "name": "",
          "type": "uint256"
        }
      ],
      "stateMutability": "view",
      "type": "function"
    },
    {
      "inputs": [],
      "name": "proxiableUUID",
      "outputs": [
        {
          "internalType": "bytes32",
          "name": "",
          "type": "bytes32"
        }
      ],
      "stateMutability": "view",
      "type": "function"
    },
    {
      "inputs": [
        {
          "internalType": "uint256",
          "name": "shares",
          "type": "uint256"
        },
        {
          "internalType": "address",
          "name": "receiver",
          "type": "address"
        },
        {
          "internalType": "address",
          "name": "owner",
          "type": "address"
        }
      ],
      "name": "redeem",
      "outputs": [
        {
          "internalType": "uint256",
          "name": "",
          "type": "uint256"
        }
      ],
      "stateMutability": "nonpayable",
      "type": "function"
    },
    {
      "inputs": [
        {
          "internalType": "bytes32",
          "name": "role",
          "type": "bytes32"
        },
        {
          "internalType": "address",
          "name": "callerConfirmation",
          "type": "address"
        }
      ],
      "name": "renounceRole",
      "outputs": [],
      "stateMutability": "nonpayable",
      "type": "function"
    },
    {
      "inputs": [
        {
          "internalType": "bytes32",
          "name": "role",
          "type": "bytes32"
        },
        {
          "internalType": "address",
          "name": "account",
          "type": "address"
        }
      ],
      "name": "revokeRole",
      "outputs": [],
      "stateMutability": "nonpayable",
      "type": "function"
    },
    {
      "inputs": [
        {
          "internalType": "address",
          "name": "recipient",
          "type": "address"
        }
      ],
      "name": "setEmergencyRecipient",
      "outputs": [],
      "stateMutability": "nonpayable",
      "type": "function"
    },
    {
      "inputs": [
        {
          "internalType": "uint256",
          "name": "newFee",
          "type": "uint256"
        }
      ],
      "name": "setManagementFee",
      "outputs": [],
      "stateMutability": "nonpayable",
      "type": "function"
    },
    {
      "inputs": [
        {
          "internalType": "uint256",
          "name": "newFee",
          "type": "uint256"
        }
      ],
      "name": "setPerformanceFee",
      "outputs": [],
      "stateMutability": "nonpayable",
      "type": "function"
    },
    {
      "inputs": [
        {
          "internalType": "bytes4",
          "name": "interfaceId",
          "type": "bytes4"
        }
      ],
      "name": "supportsInterface",
      "outputs": [
        {
          "internalType": "bool",
          "name": "",
          "type": "bool"
        }
      ],
      "stateMutability": "view",
      "type": "function"
    },
    {
      "inputs": [],
      "name": "symbol",
      "outputs": [
        {
          "internalType": "string",
          "name": "",
          "type": "string"
        }
      ],
      "stateMutability": "view",
      "type": "function"
    },
    {
      "inputs": [],
      "name": "totalAssets",
      "outputs": [
        {
          "internalType": "uint256",
          "name": "",
          "type": "uint256"
        }
      ],
      "stateMutability": "view",
      "type": "function"
    },
    {
      "inputs": [],
      "name": "totalSupply",
      "outputs": [
        {
          "internalType": "uint256",
          "name": "",
          "type": "uint256"
        }
      ],
      "stateMutability": "view",
      "type": "function"
    },
    {
      "inputs": [
        {
          "internalType": "address",
          "name": "to",
          "type": "address"
        },
        {
          "internalType": "uint256",
          "name": "value",
          "type": "uint256"
        }
      ],
      "name": "transfer",
      "outputs": [
        {
          "internalType": "bool",
          "name": "",
          "type": "bool"
        }
      ],
      "stateMutability": "nonpayable",
      "type": "function"
    },
    {
      "inputs": [
        {
          "internalType": "address",
          "name": "from",
          "type": "address"
        },
        {
          "internalType": "address",
          "name": "to",
          "type": "address"
        },
        {
          "internalType": "uint256",
          "name": "value",
          "type": "uint256"
        }
      ],
      "name": "transferFrom",
      "outputs": [
        {
          "internalType": "bool",
          "name": "",
          "type": "bool"
        }
      ],
      "stateMutability": "nonpayable",
      "type": "function"
    },
    {
      "inputs": [],
      "name": "unpause",
      "outputs": [],
      "stateMutability": "nonpayable",
      "type": "function"
    },
    {
      "inputs": [
        {
          "internalType": "address",
          "name": "newImplementation",
          "type": "address"
        },
        {
          "internalType": "bytes",
          "name": "data",
          "type": "bytes"
        }
      ],
      "name": "upgradeToAndCall",
      "outputs": [],
      "stateMutability": "payable",
      "type": "function"
    },
    {
      "inputs": [],
      "name": "version",
      "outputs": [
        {
          "internalType": "string",
          "name": "",
          "type": "string"
        }
      ],
      "stateMutability": "pure",
      "type": "function"
    },
    {
      "inputs": [
        {
          "internalType": "uint256",
          "name": "assets",
          "type": "uint256"
        },
        {
          "internalType": "address",
          "name": "receiver",
          "type": "address"
        },
        {
          "internalType": "address",
          "name": "owner",
          "type": "address"
        }
      ],
      "name": "withdraw",
      "outputs": [
        {
          "internalType": "uint256",
          "name": "",
          "type": "uint256"
        }
      ],
      "stateMutability": "nonpayable",
      "type": "function"
    }
  ],
  "bytecode": "0x60a0604052346200003657620000146200003b565b604051613a426200021182396080518181816125c501526128030152613a4290f35b600080fd5b620000456200008c565b6200004f6200011e565b565b62000067906200006a906001600160a01b031682565b90565b6001600160a01b031690565b620000679062000051565b620000679062000076565b620000973062000081565b608052565b620000679060401c60ff1690565b6200006790546200009c565b62000067905b6001600160401b031690565b620000679054620000b6565b6200006790620000bc906001600160401b031682565b90620000fe620000676200011a92620000d4565b82546001600160401b0319166001600160401b03919091161790565b9055565b60006200012a620001c1565b016200013681620000aa565b620001af576200014681620000c8565b6001600160401b03919082908116036200015e575050565b81620001907fc7f505b2f371ae2175ee4913f4499e1f2633a7b5936321eed1cdaeb6115181d293620001aa93620000ea565b604051918291826001600160401b03909116815260200190565b0390a1565b60405163f92ee8a960e01b8152600490fd5b6200006762000206565b6200006762000067620000679290565b620000677ff0c57e16840df040f15088dc2f81fe391c3923bec73e23a9662efc9c229c6a00620001cb565b62000067620001db56fe6080604052600436101561001257600080fd5b60003560e01c806301e1d114146103c357806301ffc9a7146103be57806306fdde03146103b957806307a2d13a14610369578063095ea7b3146103b45780630a28a477146103af57806318160ddd146103aa57806318bf4cf1146103a55780631b035932146103a05780631e8410da1461039b57806320df43591461039657806323b872dd14610391578063248a9ca31461038c5780632f2ff15d14610387578063313ce5671461038257806336568abe1461037d57806338d52e0f146103785780633f4ba83a14610373578063402d267d146102e25780634641257d1461036e5780634cdad506146103695780634f1ef2861461036457806352d1902d1461035f57806354fd4d501461035a578063568efc07146103555780635c975abb146103505780636e553f651461034b57806370897b231461034657806370a082311461034157806377d603971461033c5780638456cb59146103375780638778878214610332578063906571471461032d57806391d148541461032857806394bf804d1461032357806395ccea671461031e57806395d89b41146103195780639908840c14610314578063a217fddf1461030f578063a378a3241461030a578063a6f7f5d614610305578063a9059cbb14610300578063ad3cb1cc146102fb578063b3d7f6b9146102f6578063b460af94146102f1578063ba087652146102ec578063bdca9165146102e7578063c63d75b6146102e2578063c6e6f592146102b5578063ce96cb77146102dd578063ceb0f626146102d8578063d547741f146102d3578063d73792a9146102ce578063d905777e146102c9578063dd62ed3e146102c4578063e6a69ab8146102bf578063ec87621c146102ba578063ef8b30f7146102b5578063f72c0d8b146102b05763fe56e232036103c857610eff565b610ec6565b610d66565b610e8d565b610e72565b610e41565b610e0a565b610def565b610dc3565b610da8565b610d81565b610802565b610d4b565b610d1c565b610d00565b610cbc565b610ca1565b610c28565b610c0d565b610bc9565b610bae565b610b81565b610b46565b610b2d565b610b11565b610af5565b610adc565b610a6c565b610a48565b610a30565b6109ef565b6109d7565b6109bb565b6109a0565b610985565b61095e565b610943565b61092f565b61052c565b61081d565b6107ea565b6107cf565b6107b6565b610787565b61076e565b610730565b610714565b6106b2565b610697565b610658565b61060f565b6105c9565b6105ae565b610592565b6104de565b610445565b6103de565b600080fd5b60009103126103c857565b9052565b565b346103c8576103ee3660046103cd565b61040a6103f9610f3f565b6040515b9182918290815260200190565b0390f35b6001600160e01b031981165b036103c857565b905035906103dc8261040e565b906020828203126103c85761044291610421565b90565b346103c85761040a61046061045b36600461042e565b610f6c565b60405191829182901515815260200190565b60005b8381106104855750506000910152565b8181015183820152602001610475565b6104b66104bf6020936104c9936104aa815190565b80835293849260200190565b95869101610472565b601f01601f191690565b0190565b602080825261044292910190610495565b346103c8576104ee3660046103cd565b61040a6104f96110d0565b604051918291826104cd565b8061041a565b905035906103dc82610505565b906020828203126103c8576104429161050b565b346103c85761040a6103f9610542366004610518565b6110fd565b6001600160a01b031690565b6001600160a01b03811661041a565b905035906103dc82610553565b91906040838203126103c85761044290602061058b8286610562565b940161050b565b346103c85761040a6104606105a836600461056f565b90611111565b346103c85761040a6103f96105c4366004610518565b611121565b346103c8576105d93660046103cd565b61040a6103f9611146565b610442916008021c6001600160a01b031690565b9061044291546105e4565b610442600060056105f8565b346103c85761061f3660046103cd565b61040a61062a610603565b604051918291826001600160a01b03909116815260200190565b906020828203126103c85761044291610562565b346103c85761067061066b366004610644565b611276565b604051005b610442916008021c81565b906104429154610675565b61044260006004610680565b346103c8576106a73660046103cd565b61040a6103f961068b565b346103c8576106c23660046103cd565b61040a7fbf233dd2aafeb4d50879c4aa5c81e96d92f6e6945c906a58f9f2d1c1631b4b266103f9565b90916060828403126103c8576104426107048484610562565b93604061058b8260208701610562565b346103c85761040a61046061072a3660046106eb565b9161127f565b346103c85761040a6103f9610746366004610518565b6112a5565b91906040838203126103c857610442906020610767828661050b565b9401610562565b346103c85761067061078136600461074b565b906112ff565b346103c8576107973660046103cd565b61040a6107a261133c565b6040519182918260ff909116815260200190565b346103c8576106706107c936600461074b565b90611376565b346103c8576107df3660046103cd565b61040a61062a6113c3565b346103c8576107fa3660046103cd565b610670611434565b346103c85761040a6103f9610818366004610644565b61143c565b346103c85761082d3660046103cd565b610670611654565b634e487b7160e01b600052604160045260246000fd5b90601f01601f1916810190811067ffffffffffffffff82111761086d57604052565b610835565b906103dc61087f60405190565b928361084b565b67ffffffffffffffff811161086d57602090601f01601f19160190565b90826000939282370152565b909291926108c46108bf82610886565b610872565b93818552818301116103c8576103dc9160208501906108a3565b9080601f830112156103c857816020610442933591016108af565b9190916040818403126103c8576109108382610562565b92602082013567ffffffffffffffff81116103c85761044292016108de565b61067061093d3660046108f9565b9061167c565b346103c8576109533660046103cd565b61040a6103f96116c9565b346103c85761096e3660046103cd565b61040a6104f961170e565b61044260006003610680565b346103c8576109953660046103cd565b61040a6103f9610979565b346103c8576109b03660046103cd565b61040a610460611729565b346103c85761040a6103f96109d136600461074b565b90611787565b346103c8576106706109ea366004610518565b611868565b346103c85761040a6103f9610a05366004610644565b61187b565b906020828203126103c857813567ffffffffffffffff81116103c85761044292016108de565b346103c857610670610a43366004610a0a565b611953565b346103c857610a583660046103cd565b610670611990565b61044260006001610680565b346103c857610a7c3660046103cd565b61040a6103f9610a60565b916060838303126103c857610a9c8284610562565b92602081013567ffffffffffffffff81116103c85783610abd9183016108de565b92604082013567ffffffffffffffff81116103c85761044292016108de565b346103c857610670610aef366004610a87565b91611cc7565b346103c85761040a610460610b0b36600461074b565b90611cd2565b346103c85761040a6103f9610b2736600461074b565b90611d3b565b346103c857610670610b4036600461056f565b90611e7c565b346103c857610b563660046103cd565b61040a6104f9611e86565b6104426104426104429290565b6104426101f4610b61565b610442610b6e565b346103c857610b913660046103cd565b61040a6103f9610b79565b6104426000610b61565b610442610b9c565b346103c857610bbe3660046103cd565b61040a6103f9610ba6565b346103c857610bd93660046103cd565b61040a7f17a8e30262c1f919c33056d877a3c22b95c2f5e4dac44683c1c2323cd79fbdb06103f9565b610442600080610680565b346103c857610c1d3660046103cd565b61040a6103f9610c02565b346103c85761040a610460610c3e36600461056f565b90611eb1565b90610c516108bf83610886565b918252565b610c606005610c44565b7f352e302e30000000000000000000000000000000000000000000000000000000602082015290565b610442610c56565b610442610c89565b610442610c91565b346103c857610cb13660046103cd565b61040a6104f9610c99565b346103c85761040a6103f9610cd2366004610518565b611ebc565b90916060828403126103c857610442610cf0848461050b565b9360406107678260208701610562565b346103c85761040a6103f9610d16366004610cd7565b91611ee5565b346103c85761040a6103f9610d32366004610cd7565b91611f0d565b610442610bb8610b61565b610442610d38565b346103c857610d5b3660046103cd565b61040a6103f9610d43565b346103c85761040a6103f9610d7c366004610518565b611f1a565b346103c85761040a6103f9610d97366004610644565b611f28565b61044260006002610680565b346103c857610db83660046103cd565b61040a6103f9610d9c565b346103c857610670610dd636600461074b565b90611f64565b610442612710610b61565b610442610ddc565b346103c857610dff3660046103cd565b61040a6103f9610de7565b346103c85761040a6103f9610e20366004610644565b611f6e565b91906040838203126103c8576104429060206107678286610562565b346103c85761040a6103f9610e57366004610e25565b90611f8f565b6104426301e13380610b61565b610442610e5d565b346103c857610e823660046103cd565b61040a6103f9610e6a565b346103c857610e9d3660046103cd565b61040a7f241ecf16d79d0f8dbfb92cbc07fe17840425976cf0667f022fe9877caa831b086103f9565b346103c857610ed63660046103cd565b61040a7f189ab7a9244df0848122154315af71fe140f3db0fe014031783b0946b8c9d2e36103f9565b346103c857610670610f12366004610518565b612024565b634e487b7160e01b600052601160045260246000fd5b91908203918211610f3a57565b610f17565b610f4761205a565b610f4f612105565b80821115610f605761044291610f2d565b50506104426000610b61565b7f7965db0b000000000000000000000000000000000000000000000000000000006001600160e01b0319821614908115610fa4575090565b61044291506001600160e01b0319167f01ffc9a7000000000000000000000000000000000000000000000000000000001490565b634e487b7160e01b600052602260045260246000fd5b906001600283049216801561100e575b602083101461100957565b610fd8565b91607f1691610ffe565b8054600093929161103561102b83610fee565b8085529360200190565b9160018116908115611087575060011461104e57505050565b6110619192939450600052602060002090565b916000925b8184106110735750500190565b805484840152602090930192600101611066565b92949550505060ff1916825215156020020190565b9061044291611018565b906103dc6110c0926110b760405190565b9384809261109c565b038361084b565b610442906110a6565b61044260037f52c63247e1f47db19d5ce0460030c497f067ca4cebf71ba98eeadabe20bace005b016110c7565b60006104429161110b600090565b50612173565b61111c9190336121b4565b600190565b60016104429161112f600090565b506121c1565b6104429081565b6104429054611135565b61044260027f52c63247e1f47db19d5ce0460030c497f067ca4cebf71ba98eeadabe20bace005b0161113c565b6103dc90611187611182610b9c565b6121dc565b61124a565b6105476104426104429290565b6104429061118c565b156111a957565b60405162461bcd60e51b815260206004820152601160248201527f496e76616c696420726563697069656e740000000000000000000000000000006044820152606490fd5b0390fd5b906001600160a01b03905b9181191691161790565b610547610442610442926001600160a01b031690565b61044290611207565b6104429061121d565b9061123f61044261124692611226565b82546111f2565b9055565b6103dc9061126f61125e6105476000611199565b6001600160a01b03831614156111a2565b600561122f565b6103dc90611173565b61111c92919061129083338361220c565b61228a565b905b600052602052604060002090565b600161116d610442926112b6600090565b5060007f02dd7bc7dec4dceedda775e58dd541e08a116c6c53815c0bd028192f7b6268005b01611295565b906103dc916112f2611182826112a5565b906112fc91612389565b50565b906103dc916112e1565b6104429060a01c5b60ff1690565b6104429054611309565b6113309060ff165b9160ff1690565b019060ff8211610f3a57565b6104426113687f0773e532dfede91f04b12a73d3d2acd361424f41f76b4fb79f090161e36b4e00611317565b61137061243b565b90611321565b9061138033610547565b6001600160a01b03821603611398576112fc91612445565b6040517f6697b232000000000000000000000000000000000000000000000000000000008152600490fd5b6104426113fb60007f0773e532dfede91f04b12a73d3d2acd361424f41f76b4fb79f090161e36b4e005b01546001600160a01b031690565b611226565b6114297fbf233dd2aafeb4d50879c4aa5c81e96d92f6e6945c906a58f9f2d1c1631b4b266121dc565b6103dc6103dc612527565b6103dc611400565b50611445611729565b15611454576104426000610b61565b60001990565b6114837f241ecf16d79d0f8dbfb92cbc07fe17840425976cf0667f022fe9877caa831b086121dc565b6103dc611511565b90600019906111fd565b906114a561044261124692610b61565b825461148b565b81810292918115918404141715610f3a57565b634e487b7160e01b600052601260045260246000fd5b906114df565b9190565b9081156114ea570490565b6114bf565b9081526060810193926103dc92909160409161150d905b6020830152565b0152565b7f4ec2d4038813a7f233af1d6d09519189db3ed5bc5b823bf72f6d3144574721de61153a610f3f565b60009061154682610b61565b91611554610442600461113c565b821161162e575b61156481610b61565b918284116115df575b6115a89161159c846115a19361158a611584612105565b94610b61565b84116115c4575b61159c426002611495565b610f2d565b6003611495565b6115bf6115b460405190565b9283924291846114ef565b0390a1565b6115da846115d36113fb6113c3565b3390612572565b611591565b61162392506115a89161159c6115a1926116136116056115ff600161113c565b896114ac565b61160d610ddc565b906114d5565b90819687926115d36113fb6113c3565b93505050915061156d565b915061164361163d600461113c565b82610f2d565b9161164f826004611495565b61155b565b6103dc61145a565b906103dc916116696125ba565b906103dc91611677816126c6565b6126cf565b906103dc9161165c565b610442906116926127ed565b6116c0565b6104427f360894a13ba1a3210667c828492db98dca3e2076cc3735a920a3ca505d382bbc610b61565b50610442611697565b6104426000611686565b6116dd6005610c44565b7f322e302e30000000000000000000000000000000000000000000000000000000602082015290565b6104426116d3565b610442611706565b61044290611311565b6104429054611716565b6104427fcd5ed15c6e187e77e9aee88184c21f4f2182ab5827cb3b7e07fbedcd63f0330061171f565b906117659291611760612839565b61176e565b906103dc6128b0565b90610442929161177c6128e5565b50610442919061291e565b61044291906000611752565b6103dc906117a2611182610b9c565b611806565b156117ae57565b60405162461bcd60e51b815260206004820152600c60248201527f46656520746f6f206869676800000000000000000000000000000000000000006044820152606490fd5b9081526040810192916103dc9160200152565b7f607b1c943753982194530bf7133a5972ea2626e028005410efa54ab20035caf89061183e611836610442610d38565b8211156117a7565b611848600161113c565b611853826001611495565b6115bf61185f60405190565b928392836117f3565b6103dc90611793565b9061129790611226565b6118b56104429161188a600090565b5060007f52c63247e1f47db19d5ce0460030c497f067ca4cebf71ba98eeadabe20bace005b01611871565b61113c565b6103dc906118e77f17a8e30262c1f919c33056d877a3c22b95c2f5e4dac44683c1c2323cd79fbdb06121dc565b6103dc906118f36128e5565b61191a565b929160206119156103dc9360408701908782036000890152610495565b940152565b6115bf7f967c2a3d21d6001f5ed872635cf9e4a320c90180d6caed65f90623cea6d535e79161194860405190565b9182914290836118f8565b6103dc906118ba565b6119857fbf233dd2aafeb4d50879c4aa5c81e96d92f6e6945c906a58f9f2d1c1631b4b266121dc565b6103dc6103dc6129e9565b6103dc61195c565b6104429060401c611311565b6104429054611998565b610442905b67ffffffffffffffff1690565b61044290546119ae565b6119b36104426104429290565b9067ffffffffffffffff906111fd565b6119b36104426104429267ffffffffffffffff1690565b90611a0e610442611246926119e7565b82546119d7565b9068ff00000000000000009060401b6111fd565b90611a3961044261124692151590565b8254611a15565b6103d8906119ca565b6020810192916103dc9190611a40565b91611a626129f1565b928390611a7e611a78611a74846119a4565b1590565b926119c0565b92600094611a8b866119ca565b67ffffffffffffffff86161480611b9e575b600195611aba611aac886119ca565b9167ffffffffffffffff1690565b149081611b7a575b155b9081611b71575b50611b4657611af49284611aeb88611ae2896119ca565b9a01998a6119fe565b611b3757611ba5565b611afd57505050565b611b2b6115bf927fc7f505b2f371ae2175ee4913f4499e1f2633a7b5936321eed1cdaeb6115181d294611a29565b60405191829182611a49565b611b418689611a29565b611ba5565b6040517ff92ee8a9000000000000000000000000000000000000000000000000000000008152600490fd5b15905038611acb565b9050611ac4611b8830611226565b3b611b956114db8a610b61565b14919050611ac2565b5083611a9d565b90611bb3611bb89392612a0e565b612a2e565b611bc0612a40565b611bc8612a5b565b611bd0612a40565b611bd8612a40565b611bea611be3610b9c565b3390612389565b50611c147f241ecf16d79d0f8dbfb92cbc07fe17840425976cf0667f022fe9877caa831b08611be3565b50611c3e7fbf233dd2aafeb4d50879c4aa5c81e96d92f6e6945c906a58f9f2d1c1631b4b26611be3565b50611c687f189ab7a9244df0848122154315af71fe140f3db0fe014031783b0946b8c9d2e3611be3565b50611c7d611c7660c8610b61565b6000611495565b611c92611c8b6107d0610b61565b6001611495565b611c9d426002611495565b611cbc611caa6000610b61565b611cb5816003611495565b6004611495565b6103dc33600561122f565b906103dc9291611a59565b6104429160006118af611d0f93611ce7600090565b50827f02dd7bc7dec4dceedda775e58dd541e08a116c6c53815c0bd028192f7b6268006112db565b61171f565b906117659291611d22612839565b906104429291611d306128e5565b506104429190612a63565b61044291906000611d14565b6103dc9190611d757fbf233dd2aafeb4d50879c4aa5c81e96d92f6e6945c906a58f9f2d1c1631b4b266121dc565b611dfa565b15611d8157565b60405162461bcd60e51b815260206004820152601b60248201527f43616e6e6f74207769746864726177207661756c7420617373657400000000006044820152606490fd5b6001600160a01b0390911681526060810193926103dc929091604091611deb90611506565b01906001600160a01b03169052565b907f3ab9db27a4cdd8c603a752b62d5fbd93b4b3509fe2596708e9688e42bbac357691611e3c611e2b6105476113c3565b6001600160a01b0383161415611d7a565b611e5b82611e4983611226565b6005546001600160a01b031690612572565b6115bf611e706005546001600160a01b031690565b60405193849384611dc6565b906103dc91611d47565b61044260047f52c63247e1f47db19d5ce0460030c497f067ca4cebf71ba98eeadabe20bace006110f7565b61111c91903361228a565b60016104429161110b600090565b90611765939291611ed9612839565b50610442929190612ac7565b6104429291906000611eca565b90611765939291611f01612839565b50610442929190612b2c565b6104429291906000611ef2565b60006104429161112f600090565b611f30611729565b15611f4057506104426000610b61565b61044290612b93565b906103dc91611f5a611182826112a5565b906112fc91612445565b906103dc91611f49565b611f76611729565b15611f8657506104426000610b61565b61044290612baf565b61044291611fcb6118b592611fa2600090565b5060017f52c63247e1f47db19d5ce0460030c497f067ca4cebf71ba98eeadabe20bace006118af565b611871565b6103dc90611fdf611182610b9c565b7ff5ff4786e844406502466108c183ca5ff947880b3ba08b1500eea9c29d12030d9061200f611836610442610b6e565b612019600061113c565b611853826000611495565b6103dc90611fd0565b905051906103dc82610505565b906020828203126103c8576104429161202d565b6040513d6000823e3d90fd5b6120c1602061206d6113fb6113fb6113c3565b61207630611226565b9061208060405190565b938492839182917f70a08231000000000000000000000000000000000000000000000000000000008352600483016001600160a01b03909116815260200190565b03915afa908115612100576000916120d7575090565b610442915060203d6020116120f9575b6120f1818361084b565b81019061203a565b503d6120e7565b61204e565b61044261213e61211e612118600261113c565b42610f2d565b61213961212961205a565b612133600061113c565b906114ac565b6114ac565b61160d612149610ddc565b612133610e5d565b1490565b91908201809211610f3a57565b60ff16604d8111610f3a57600a0a90565b6104429190612193612183610f3f565b61218d6001610b61565b90612155565b6121ae61219e611146565b61218d6121a961243b565b612162565b91612bba565b916001916103dc93612c12565b61044291906121d161219e611146565b6121ae612183610f3f565b6103dc903390612d6f565b6001600160a01b0390911681526060810193926103dc92909160409161150d90611506565b916122178284611f8f565b6000198110612227575b50505050565b81811061224d579161223e61224494926000940390565b91612c12565b38808080612221565b826111ee8361225b60405190565b9384937ffb8f41b2000000000000000000000000000000000000000000000000000000008552600485016121e7565b9291906122976000611199565b936001600160a01b0385166001600160a01b0382161461231f576001600160a01b0385166001600160a01b038316146122d5576103dc939450612dc0565b6111ee856122e260405190565b9182917fec442f05000000000000000000000000000000000000000000000000000000008352600483016001600160a01b03909116815260200190565b6111ee8561232c60405190565b9182917f96c6fd1e000000000000000000000000000000000000000000000000000000008352600483016001600160a01b03909116815260200190565b9060ff906111fd565b9061238261044261124692151590565b8254612369565b7f02dd7bc7dec4dceedda775e58dd541e08a116c6c53815c0bd028192f7b6268006123b7611a748484611cd2565b156124265760016123d38460006118af86826123d89701611295565b612372565b6123f26123ec6123e6339390565b93611226565b91611226565b917f2f8788117e7eff1d82e926ec794901d17c78024a50270940304540a733656f0d61241d60405190565b600090a4600190565b505050600090565b6113116104426104429290565b610442600061242e565b7f02dd7bc7dec4dceedda775e58dd541e08a116c6c53815c0bd028192f7b6268006124708383611cd2565b156124265760006123d384826118af868261248b9701611295565b6124996123ec6123e6339390565b917ff6391f5c32d9c69d2a47ea670b442974b53935d1edc7fd64eb21e047a839171b61241d60405190565b6124cc612f34565b6103dc6124fd6000807fcd5ed15c6e187e77e9aee88184c21f4f2182ab5827cb3b7e07fbedcd63f033005b01612372565b7f5db9ee0a495bf2e6ff9c91a7834c1ba4fdd244a5e8aa4e537bd38aeae4b073aa6115bf3361062a565b6103dc6124c4565b6125486125426104429263ffffffff1690565b60e01b90565b6001600160e01b03191690565b6001600160a01b0390911681526040810192916103dc9160200152565b6125b56004926125a66103dc9561258c63a9059cbb61252f565b9261259660405190565b9687946020860190815201612555565b6020820181038252038361084b565b612f70565b6125c330611226565b7f0000000000000000000000000000000000000000000000000000000000000000906126006001600160a01b0383165b916001600160a01b031690565b1490811561263b575b5061261057565b6040517fe07c8dba000000000000000000000000000000000000000000000000000000008152600490fd5b90506126586125f361264b613025565b926001600160a01b031690565b141538612609565b6103dc9061268d7f189ab7a9244df0848122154315af71fe140f3db0fe014031783b0946b8c9d2e36121dc565b6115bf7ffbe4a16546f12edd5577e985d6ce71eb7343e7320d4941332c5df131fe8a45aa916126bb60405190565b918291429083612555565b6103dc90612660565b90916126dd6113fb83611226565b9260206126e960405190565b7f52d1902d00000000000000000000000000000000000000000000000000000000815294859060049082905afa600094816127cc575b5061276e576111ee8361273160405190565b9182917f4c9c8ce3000000000000000000000000000000000000000000000000000000008352600483016001600160a01b03909116815260200190565b909161277b610442611697565b840361278c576103dc929350613035565b6111ee8461279960405190565b9182917faa1d49a40000000000000000000000000000000000000000000000000000000083526004830190815260200190565b6127e691955060203d6020116120f9576120f1818361084b565b933861271f565b6127f630611226565b6128286001600160a01b037f0000000000000000000000000000000000000000000000000000000000000000166125f3565b0361261057565b6104426002610b61565b7f9b779b17422d0df92223018b32b4d1fa46e071723d6817e2486d003becc55f006128638161113c565b61286b61282f565b90811461287b576103dc91611495565b6040517f3ee5aeb5000000000000000000000000000000000000000000000000000000008152600490fd5b6104426001610b61565b6103dc7f9b779b17422d0df92223018b32b4d1fa46e071723d6817e2486d003becc55f0060006128de6128a6565b9101611495565b6128ed611729565b6128f357565b6040517fd93c0665000000000000000000000000000000000000000000000000000000008152600490fd5b906129288161143c565b80831161294b57506104429061293d83611f1a565b9283913361309e565b61309e565b6111ee9061295860405190565b9384937f79012fb2000000000000000000000000000000000000000000000000000000008552600485016121e7565b61298f6128e5565b6103dc6129bf600160007fcd5ed15c6e187e77e9aee88184c21f4f2182ab5827cb3b7e07fbedcd63f033006124f7565b7f62e78cea01bee320cd4e420270b5ea74000d11b0c9f74754ebdbfc544b05a2586115bf3361062a565b6103dc612987565b610442613128565b6103dc90612a05613130565b6103dc90613223565b6103dc906129f9565b906103dc91612a24613130565b906103dc91613401565b906103dc91612a17565b6103dc613130565b6103dc612a38565b612a50613130565b6103dc6103dc61341b565b6103dc612a48565b612a6c8261143c565b808211612a8a575080612a8161044292611ebc565b80936129463390565b6111ee8391612a9860405190565b9384937f284ff667000000000000000000000000000000000000000000000000000000008552600485016121e7565b612ad083611f28565b808211612aef57509081612ae661044293611121565b93849233613423565b6111ee8491612afd60405190565b9384937ffe9cceec000000000000000000000000000000000000000000000000000000008552600485016121e7565b90612b3683611f6e565b808311612b5557509061044291612b4c826110fd565b93849133613423565b836111ee8492612b6460405190565b9384937fb94abeec000000000000000000000000000000000000000000000000000000008552600485016121e7565b6000612baa61044292612ba4600090565b5061187b565b612173565b610442906000612ba4565b9291612bd0612bca8284876134cd565b93613650565b9384612be6575b50505061218d61044292151590565b9080929450156114ea57612c0a61218d9261044295612c056000610b61565b930990565b119238612bd7565b909192612c3c7f52c63247e1f47db19d5ce0460030c497f067ca4cebf71ba98eeadabe20bace0090565b612c466000611199565b6001600160a01b0381166001600160a01b03851614612d25576001600160a01b0381166001600160a01b03861614612cdb575084612c8e85611fcb866001612c939601611871565b611495565b612c9c57505050565b612cd6612ccc6123e67f8c5be1e5ebec7d5bd14f71427d1e84f3dd0314c0f7b2291e5b200ac8c7c3b92593611226565b936103fd60405190565b0390a3565b6111ee90612ce860405190565b9182917f94280d62000000000000000000000000000000000000000000000000000000008352600483016001600160a01b03909116815260200190565b6111ee90612d3260405190565b9182917fe602df05000000000000000000000000000000000000000000000000000000008352600483016001600160a01b03909116815260200190565b90612d7d611a748284611cd2565b612d85575050565b6111ee612d9160405190565b9283927fe2517d3f00000000000000000000000000000000000000000000000000000000845260048401612555565b7f52c63247e1f47db19d5ce0460030c497f067ca4cebf71ba98eeadabe20bace0082612dec6000611199565b6001600160a01b0381166001600160a01b03851603612e98577fddf252ad1be2c89b69c2b068fc378daa952ba7f163c4a11628f55a4df523b3ef9383612ccc93612e556123e6946105476002612cd69901612e4f8d612e4a8361113c565b612155565b90611495565b6001600160a01b03821603612e7d575060026113fb9101612e4f89612e798361113c565b0390565b6113fb91612e8b9190611871565b612e4f896104c98361113c565b905081612ea86118b58583611871565b868110612ef75793612cd69386612e55612ccc956105476123e696612c8e87612ef18f7fddf252ad1be2c89b69c2b068fc378daa952ba7f163c4a11628f55a4df523b3ef9e0390565b92611871565b846111ee88612f0560405190565b9384937fe450d38c000000000000000000000000000000000000000000000000000000008552600485016121e7565b612f3f611a74611729565b612f4557565b6040517f8dfc202b000000000000000000000000000000000000000000000000000000008152600490fd5b906000602091612f7e600090565b50828151910182855af11561204e573d60005190612f9f6114db6000610b61565b036130115750612fae81611226565b3b612fbc6114db6000610b61565b145b612fc55750565b612fd16111ee91611226565b6040519182917f5274afe7000000000000000000000000000000000000000000000000000000008352600483016001600160a01b03909116815260200190565b61301e6114db6001610b61565b1415612fbe565b61044260006113ed610442611697565b9061303f82613682565b61304882611226565b7fbc7cd75a20ee27fd9adebab32041f755214dbc6bffa90cc0225b39da2e5c2d3b61307260405190565b600090a280516130856114db6000610b61565b1115613094576112fc91613716565b50506103dc6136ba565b926130f26123e67fdcbc1c05240f31ff3ad067ef1ee35ce4997762752e3a095284754544f4c709d79394956130e8876130d86113fb6113c3565b836130e230611226565b91613761565b6113fb8487613797565b93612cd661185f60405190565b6104427ff0c57e16840df040f15088dc2f81fe391c3923bec73e23a9662efc9c229c6a00610b61565b6104426130ff565b61313b611a746137d4565b61314157565b6040517fd7e6bcf8000000000000000000000000000000000000000000000000000000008152600490fd5b6103dc90613178613130565b6131c4565b9074ff00000000000000000000000000000000000000009060a01b6111fd565b6113116104426104429260ff1690565b906131bd6104426112469261319d565b825461317d565b6103dc907f0773e532dfede91f04b12a73d3d2acd361424f41f76b4fb79f090161e36b4e006131f2826137f7565b901561320d57600061320891925b0191826131ad565b61122f565b50613208600061321d601261242e565b92613200565b6103dc9061316c565b906103dc91613239613130565b6133c0565b9160001960089290920291821b911b6111fd565b919061326361044261124693610b61565b90835461323e565b6103dc91600091613252565b818110613282575050565b80613290600060019361326b565b01613277565b9190601f81116132a557505050565b6132b76103dc93600052602060002090565b906020601f8401819004830193106132d9575b6020601f909101040190613277565b90915081906132ca565b906132ec815190565b9067ffffffffffffffff821161086d576133108261330a8554610fee565b85613296565b602090601f831160011461334b57611246929160009183613340575b5050600019600883021c1916906002021790565b01519050388061332c565b601f1983169161336085600052602060002090565b9260005b81811061339e57509160029391856001969410613385575b50505002019055565b01516000196008601f8516021c1916905538808061337c565b91936020600181928787015181550195019201613364565b906103dc916132e3565b9060046103dc926133fb6133f17f52c63247e1f47db19d5ce0460030c497f067ca4cebf71ba98eeadabe20bace0090565b91600383016133b6565b016133b6565b906103dc9161322c565b613413613130565b6103dc6128b0565b6103dc61340b565b936134976134916134917ffbde797d201c681b91056529119e0b02407c7bb96a4a2c75c01fc9667232c8db94959697613462886001600160a01b031690565b6001600160a01b038216036134a9575b61347c85896138bc565b6113fb898861348c6113fb6113c3565b612572565b94611226565b946134a461185f60405190565b0390a4565b6134b485828a61220c565b613472565b6104426012610b61565b6104426011610b61565b906000916134db82826138fa565b9290916000946134ea86610b61565b84146135f257838711156135c6578593876135369461354997946001946104429b9a50500990838211900392039561352581612e7987610b61565b811680808093049804950304010290565b179161354961354d826135496003610b61565b0290565b612e796135c06135ba6135ab61359c61358d61357e60029761356e89610b61565b186135498b8202612e798b610b61565b6135498a8202612e798a610b61565b613549898202612e7989610b61565b613549888202612e7988610b61565b613549878202612e7987610b61565b80950290565b91610b61565b6135ed876135d66114db89610b61565b146135df6134b9565b6135e76134c3565b9161390e565b61392a565b505050506104429291506114d5565b634e487b7160e01b600052602160045260246000fd5b6004111561362157565b613601565b906103dc82613617565b61044290613626565b6136459060ff16611329565b9081156114ea570690565b6136656136759161365f600090565b50613630565b61366f600261242e565b90613639565b612151611329600161242e565b803b6136916114db6000610b61565b146136ad576103dc9060006136a7610442611697565b0161122f565b6111ee9061273160405190565b6136c46000610b61565b34116136cc57565b6040517fb398979f000000000000000000000000000000000000000000000000000000008152600490fd5b3d15613711576137063d610c44565b903d6000602084013e565b606090565b60008061044293613725606090565b50602081519101845af46137376136f7565b9161393b565b6001600160a01b039182168152911660208201526060810192916103dc9160400152565b906125b5906125a66103dc9560049561377d6323b872dd61252f565b9361378760405190565b978895602087019081520161373d565b91906137a36000611199565b926001600160a01b0384166001600160a01b038216146137c7576103dc9293612dc0565b6111ee846122e260405190565b61044260006137e16129f1565b016119a4565b6104426104426104429260ff1690565b600061380c8192613806600090565b50611226565b6040517f313ce5670000000000000000000000000000000000000000000000000000000060208201529061384382602481016125a6565b602082519201905afa6138546136f7565b90806138a5575b61386e575b50600090610442600061242e565b80602061387c613887935190565b81830101910161203a565b61389160ff6137e7565b8111613860576138a09061242e565b600191565b5080516138b56114db6020610b61565b101561385b565b91906138c86000611199565b926001600160a01b0384166001600160a01b038216146138ed57926103dc9293612dc0565b6111ee8461232c60405190565b906000198183099102908180821091030391565b613549836139269361391e600090565b501891151590565b1890565b634e487b716000526020526024601cfd5b9061394657506139c4565b81516139556114db6000610b61565b14806139ae575b613964575090565b6111ee9061397160405190565b9182917f9996b315000000000000000000000000000000000000000000000000000000008352600483016001600160a01b03909116815260200190565b50803b6139be6114db6000610b61565b1461395c565b80516139d36114db6000610b61565b11156139e157602081519101fd5b6040517fd6bda275000000000000000000000000000000000000000000000000000000008152600490fdfea26469706673582212207c53fd07d31dd8e6f9815a98692b9283ec4e1536660007061a76bea28d145c4664736f6c63430008160033",
  "linkReferences": {},
  "deployedLinkReferences": {}
}