{
  "_format": "hh-sol-artifact-1",
  "contractName": "EventMonitor",
  "sourceName": "contracts/EventMonitor.sol",
  "abi": [
    {
      "inputs": [],
      "stateMutability": "nonpayable",
      "type": "constructor"
    },
    {
      "inputs": [],
      "name": "AccessControlBadConfirmation",
      "type": "error"
    },
    {
      "inputs": [
        {
          "internalType": "address",
          "name": "account",
          "type": "address"
        },
        {
          "internalType": "bytes32",
          "name": "neededRole",
          "type": "bytes32"
        }
      ],
      "name": "AccessControlUnauthorizedAccount",
      "type": "error"
    },
    {
      "inputs": [],
      "name": "EnforcedPause",
      "type": "error"
    },
    {
      "inputs": [],
      "name": "ExpectedPause",
      "type": "error"
    },
    {
      "anonymous": false,
      "inputs": [
        {
          "indexed": true,
          "internalType": "uint256",
          "name": "alertId",
          "type": "uint256"
        },
        {
          "indexed": true,
          "internalType": "address",
          "name": "acknowledgedBy",
          "type": "address"
        },
        {
          "indexed": false,
          "internalType": "uint256",
          "name": "timestamp",
          "type": "uint256"
        }
      ],
      "name": "AlertAcknowledged",
      "type": "event"
    },
    {
      "anonymous": false,
      "inputs": [
        {
          "indexed": true,
          "internalType": "enum EventMonitor.AlertType",
          "name": "alertType",
          "type": "uint8"
        },
        {
          "indexed": false,
          "internalType": "enum EventMonitor.AlertSeverity",
          "name": "minSeverity",
          "type": "uint8"
        },
        {
          "indexed": false,
          "internalType": "bool",
          "name": "isActive",
          "type": "bool"
        },
        {
          "indexed": false,
          "internalType": "uint256",
          "name": "cooldownPeriod",
          "type": "uint256"
        }
      ],
      "name": "AlertRuleUpdated",
      "type": "event"
    },
    {
      "anonymous": false,
      "inputs": [
        {
          "indexed": true,
          "internalType": "uint256",
          "name": "alertId",
          "type": "uint256"
        },
        {
          "indexed": true,
          "internalType": "enum EventMonitor.AlertType",
          "name": "alertType",
          "type": "uint8"
        },
        {
          "indexed": true,
          "internalType": "enum EventMonitor.AlertSeverity",
          "name": "severity",
          "type": "uint8"
        },
        {
          "indexed": false,
          "internalType": "address",
          "name": "source",
          "type": "address"
        },
        {
          "indexed": false,
          "internalType": "string",
          "name": "message",
          "type": "string"
        }
      ],
      "name": "AlertTriggered",
      "type": "event"
    },
    {
      "anonymous": false,
      "inputs": [
        {
          "indexed": false,
          "internalType": "string",
          "name": "configType",
          "type": "string"
        },
        {
          "indexed": false,
          "internalType": "string",
          "name": "value",
          "type": "string"
        },
        {
          "indexed": false,
          "internalType": "bool",
          "name": "enabled",
          "type": "bool"
        }
      ],
      "name": "ConfigurationUpdated",
      "type": "event"
    },
    {
      "anonymous": false,
      "inputs": [
        {
          "indexed": true,
          "internalType": "uint256",
          "name": "alertId",
          "type": "uint256"
        },
        {
          "indexed": false,
          "internalType": "string",
          "name": "notificationType",
          "type": "string"
        },
        {
          "indexed": false,
          "internalType": "bool",
          "name": "success",
          "type": "bool"
        }
      ],
      "name": "NotificationSent",
      "type": "event"
    },
    {
      "anonymous": false,
      "inputs": [
        {
          "indexed": false,
          "internalType": "address",
          "name": "account",
          "type": "address"
        }
      ],
      "name": "Paused",
      "type": "event"
    },
    {
      "anonymous": false,
      "inputs": [
        {
          "indexed": true,
          "internalType": "bytes32",
          "name": "role",
          "type": "bytes32"
        },
        {
          "indexed": true,
          "internalType": "bytes32",
          "name": "previousAdminRole",
          "type": "bytes32"
        },
        {
          "indexed": true,
          "internalType": "bytes32",
          "name": "newAdminRole",
          "type": "bytes32"
        }
      ],
      "name": "RoleAdminChanged",
      "type": "event"
    },
    {
      "anonymous": false,
      "inputs": [
        {
          "indexed": true,
          "internalType": "bytes32",
          "name": "role",
          "type": "bytes32"
        },
        {
          "indexed": true,
          "internalType": "address",
          "name": "account",
          "type": "address"
        },
        {
          "indexed": true,
          "internalType": "address",
          "name": "sender",
          "type": "address"
        }
      ],
      "name": "RoleGranted",
      "type": "event"
    },
    {
      "anonymous": false,
      "inputs": [
        {
          "indexed": true,
          "internalType": "bytes32",
          "name": "role",
          "type": "bytes32"
        },
        {
          "indexed": true,
          "internalType": "address",
          "name": "account",
          "type": "address"
        },
        {
          "indexed": true,
          "internalType": "address",
          "name": "sender",
          "type": "address"
        }
      ],
      "name": "RoleRevoked",
      "type": "event"
    },
    {
      "anonymous": false,
      "inputs": [
        {
          "indexed": true,
          "internalType": "address",
          "name": "source",
          "type": "address"
        },
        {
          "indexed": false,
          "internalType": "bool",
          "name": "authorized",
          "type": "bool"
        }
      ],
      "name": "SourceAuthorized",
      "type": "event"
    },
    {
      "anonymous": false,
      "inputs": [
        {
          "indexed": false,
          "internalType": "address",
          "name": "account",
          "type": "address"
        }
      ],
      "name": "Unpaused",
      "type": "event"
    },
    {
      "inputs": [],
      "name": "ALERT_MANAGER_ROLE",
      "outputs": [
        {
          "internalType": "bytes32",
          "name": "",
          "type": "bytes32"
        }
      ],
      "stateMutability": "view",
      "type": "function"
    },
    {
      "inputs": [],
      "name": "DEFAULT_ADMIN_ROLE",
      "outputs": [
        {
          "internalType": "bytes32",
          "name": "",
          "type": "bytes32"
        }
      ],
      "stateMutability": "view",
      "type": "function"
    },
    {
      "inputs": [],
      "name": "MAX_ALERTS",
      "outputs": [
        {
          "internalType": "uint256",
          "name": "",
          "type": "uint256"
        }
      ],
      "stateMutability": "view",
      "type": "function"
    },
    {
      "inputs": [],
      "name": "MONITOR_ROLE",
      "outputs": [
        {
          "internalType": "bytes32",
          "name": "",
          "type": "bytes32"
        }
      ],
      "stateMutability": "view",
      "type": "function"
    },
    {
      "inputs": [
        {
          "internalType": "uint256",
          "name": "alertId",
          "type": "uint256"
        }
      ],
      "name": "acknowledgeAlert",
      "outputs": [],
      "stateMutability": "nonpayable",
      "type": "function"
    },
    {
      "inputs": [
        {
          "internalType": "enum EventMonitor.AlertType",
          "name": "",
          "type": "uint8"
        }
      ],
      "name": "alertRules",
      "outputs": [
        {
          "internalType": "enum EventMonitor.AlertType",
          "name": "alertType",
          "type": "uint8"
        },
        {
          "internalType": "enum EventMonitor.AlertSeverity",
          "name": "minSeverity",
          "type": "uint8"
        },
        {
          "internalType": "bool",
          "name": "isActive",
          "type": "bool"
        },
        {
          "internalType": "uint256",
          "name": "cooldownPeriod",
          "type": "uint256"
        },
        {
          "internalType": "uint256",
          "name": "lastTriggered",
          "type": "uint256"
        },
        {
          "internalType": "string",
          "name": "webhookUrl",
          "type": "string"
        },
        {
          "internalType": "bool",
          "name": "enableDiscord",
          "type": "bool"
        },
        {
          "internalType": "bool",
          "name": "enableEmail",
          "type": "bool"
        }
      ],
      "stateMutability": "view",
      "type": "function"
    },
    {
      "inputs": [
        {
          "internalType": "uint256",
          "name": "",
          "type": "uint256"
        }
      ],
      "name": "alerts",
      "outputs": [
        {
          "internalType": "uint256",
          "name": "id",
          "type": "uint256"
        },
        {
          "internalType": "enum EventMonitor.AlertType",
          "name": "alertType",
          "type": "uint8"
        },
        {
          "internalType": "enum EventMonitor.AlertSeverity",
          "name": "severity",
          "type": "uint8"
        },
        {
          "internalType": "address",
          "name": "source",
          "type": "address"
        },
        {
          "internalType": "string",
          "name": "message",
          "type": "string"
        },
        {
          "internalType": "bytes",
          "name": "data",
          "type": "bytes"
        },
        {
          "internalType": "uint256",
          "name": "timestamp",
          "type": "uint256"
        },
        {
          "internalType": "bool",
          "name": "acknowledged",
          "type": "bool"
        }
      ],
      "stateMutability": "view",
      "type": "function"
    },
    {
      "inputs": [
        {
          "internalType": "address",
          "name": "source",
          "type": "address"
        },
        {
          "internalType": "bool",
          "name": "authorized",
          "type": "bool"
        }
      ],
      "name": "authorizeSource",
      "outputs": [],
      "stateMutability": "nonpayable",
      "type": "function"
    },
    {
      "inputs": [
        {
          "internalType": "address",
          "name": "",
          "type": "address"
        }
      ],
      "name": "authorizedSources",
      "outputs": [
        {
          "internalType": "bool",
          "name": "",
          "type": "bool"
        }
      ],
      "stateMutability": "view",
      "type": "function"
    },
    {
      "inputs": [
        {
          "internalType": "uint256[]",
          "name": "alertIds",
          "type": "uint256[]"
        }
      ],
      "name": "batchAcknowledgeAlerts",
      "outputs": [],
      "stateMutability": "nonpayable",
      "type": "function"
    },
    {
      "inputs": [
        {
          "internalType": "string",
          "name": "webhookUrl",
          "type": "string"
        },
        {
          "internalType": "bool",
          "name": "enabled",
          "type": "bool"
        }
      ],
      "name": "configureDiscord",
      "outputs": [],
      "stateMutability": "nonpayable",
      "type": "function"
    },
    {
      "inputs": [
        {
          "internalType": "string",
          "name": "webhookUrl",
          "type": "string"
        },
        {
          "internalType": "bool",
          "name": "enabled",
          "type": "bool"
        }
      ],
      "name": "configureEmail",
      "outputs": [],
      "stateMutability": "nonpayable",
      "type": "function"
    },
    {
      "inputs": [],
      "name": "discordEnabled",
      "outputs": [
        {
          "internalType": "bool",
          "name": "",
          "type": "bool"
        }
      ],
      "stateMutability": "view",
      "type": "function"
    },
    {
      "inputs": [],
      "name": "discordWebhookUrl",
      "outputs": [
        {
          "internalType": "string",
          "name": "",
          "type": "string"
        }
      ],
      "stateMutability": "view",
      "type": "function"
    },
    {
      "inputs": [],
      "name": "emailEnabled",
      "outputs": [
        {
          "internalType": "bool",
          "name": "",
          "type": "bool"
        }
      ],
      "stateMutability": "view",
      "type": "function"
    },
    {
      "inputs": [],
      "name": "emailWebhookUrl",
      "outputs": [
        {
          "internalType": "string",
          "name": "",
          "type": "string"
        }
      ],
      "stateMutability": "view",
      "type": "function"
    },
    {
      "inputs": [],
      "name": "emergencyPause",
      "outputs": [],
      "stateMutability": "nonpayable",
      "type": "function"
    },
    {
      "inputs": [],
      "name": "emergencyUnpause",
      "outputs": [],
      "stateMutability": "nonpayable",
      "type": "function"
    },
    {
      "inputs": [
        {
          "internalType": "uint256",
          "name": "alertId",
          "type": "uint256"
        }
      ],
      "name": "getAlert",
      "outputs": [
        {
          "components": [
            {
              "internalType": "uint256",
              "name": "id",
              "type": "uint256"
            },
            {
              "internalType": "enum EventMonitor.AlertType",
              "name": "alertType",
              "type": "uint8"
            },
            {
              "internalType": "enum EventMonitor.AlertSeverity",
              "name": "severity",
              "type": "uint8"
            },
            {
              "internalType": "address",
              "name": "source",
              "type": "address"
            },
            {
              "internalType": "string",
              "name": "message",
              "type": "string"
            },
            {
              "internalType": "bytes",
              "name": "data",
              "type": "bytes"
            },
            {
              "internalType": "uint256",
              "name": "timestamp",
              "type": "uint256"
            },
            {
              "internalType": "bool",
              "name": "acknowledged",
              "type": "bool"
            }
          ],
          "internalType": "struct EventMonitor.Alert",
          "name": "alert",
          "type": "tuple"
        }
      ],
      "stateMutability": "view",
      "type": "function"
    },
    {
      "inputs": [],
      "name": "getMonitoringStats",
      "outputs": [
        {
          "internalType": "uint256",
          "name": "totalAlerts",
          "type": "uint256"
        },
        {
          "internalType": "uint256",
          "name": "unacknowledgedCount",
          "type": "uint256"
        },
        {
          "internalType": "uint256",
          "name": "criticalCount",
          "type": "uint256"
        },
        {
          "internalType": "uint256",
          "name": "lastAlertTime",
          "type": "uint256"
        }
      ],
      "stateMutability": "view",
      "type": "function"
    },
    {
      "inputs": [
        {
          "internalType": "uint256",
          "name": "limit",
          "type": "uint256"
        }
      ],
      "name": "getRecentAlerts",
      "outputs": [
        {
          "components": [
            {
              "internalType": "uint256",
              "name": "id",
              "type": "uint256"
            },
            {
              "internalType": "enum EventMonitor.AlertType",
              "name": "alertType",
              "type": "uint8"
            },
            {
              "internalType": "enum EventMonitor.AlertSeverity",
              "name": "severity",
              "type": "uint8"
            },
            {
              "internalType": "address",
              "name": "source",
              "type": "address"
            },
            {
              "internalType": "string",
              "name": "message",
              "type": "string"
            },
            {
              "internalType": "bytes",
              "name": "data",
              "type": "bytes"
            },
            {
              "internalType": "uint256",
              "name": "timestamp",
              "type": "uint256"
            },
            {
              "internalType": "bool",
              "name": "acknowledged",
              "type": "bool"
            }
          ],
          "internalType": "struct EventMonitor.Alert[]",
          "name": "recentAlerts",
          "type": "tuple[]"
        }
      ],
      "stateMutability": "view",
      "type": "function"
    },
    {
      "inputs": [
        {
          "internalType": "bytes32",
          "name": "role",
          "type": "bytes32"
        }
      ],
      "name": "getRoleAdmin",
      "outputs": [
        {
          "internalType": "bytes32",
          "name": "",
          "type": "bytes32"
        }
      ],
      "stateMutability": "view",
      "type": "function"
    },
    {
      "inputs": [
        {
          "internalType": "uint256",
          "name": "limit",
          "type": "uint256"
        }
      ],
      "name": "getUnacknowledgedAlerts",
      "outputs": [
        {
          "components": [
            {
              "internalType": "uint256",
              "name": "id",
              "type": "uint256"
            },
            {
              "internalType": "enum EventMonitor.AlertType",
              "name": "alertType",
              "type": "uint8"
            },
            {
              "internalType": "enum EventMonitor.AlertSeverity",
              "name": "severity",
              "type": "uint8"
            },
            {
              "internalType": "address",
              "name": "source",
              "type": "address"
            },
            {
              "internalType": "string",
              "name": "message",
              "type": "string"
            },
            {
              "internalType": "bytes",
              "name": "data",
              "type": "bytes"
            },
            {
              "internalType": "uint256",
              "name": "timestamp",
              "type": "uint256"
            },
            {
              "internalType": "bool",
              "name": "acknowledged",
              "type": "bool"
            }
          ],
          "internalType": "struct EventMonitor.Alert[]",
          "name": "unackedAlerts",
          "type": "tuple[]"
        }
      ],
      "stateMutability": "view",
      "type": "function"
    },
    {
      "inputs": [
        {
          "internalType": "bytes32",
          "name": "role",
          "type": "bytes32"
        },
        {
          "internalType": "address",
          "name": "account",
          "type": "address"
        }
      ],
      "name": "grantRole",
      "outputs": [],
      "stateMutability": "nonpayable",
      "type": "function"
    },
    {
      "inputs": [
        {
          "internalType": "bytes32",
          "name": "role",
          "type": "bytes32"
        },
        {
          "internalType": "address",
          "name": "account",
          "type": "address"
        }
      ],
      "name": "hasRole",
      "outputs": [
        {
          "internalType": "bool",
          "name": "",
          "type": "bool"
        }
      ],
      "stateMutability": "view",
      "type": "function"
    },
    {
      "inputs": [],
      "name": "nextAlertId",
      "outputs": [
        {
          "internalType": "uint256",
          "name": "",
          "type": "uint256"
        }
      ],
      "stateMutability": "view",
      "type": "function"
    },
    {
      "inputs": [],
      "name": "paused",
      "outputs": [
        {
          "internalType": "bool",
          "name": "",
          "type": "bool"
        }
      ],
      "stateMutability": "view",
      "type": "function"
    },
    {
      "inputs": [
        {
          "internalType": "bytes32",
          "name": "role",
          "type": "bytes32"
        },
        {
          "internalType": "address",
          "name": "callerConfirmation",
          "type": "address"
        }
      ],
      "name": "renounceRole",
      "outputs": [],
      "stateMutability": "nonpayable",
      "type": "function"
    },
    {
      "inputs": [
        {
          "internalType": "bytes32",
          "name": "role",
          "type": "bytes32"
        },
        {
          "internalType": "address",
          "name": "account",
          "type": "address"
        }
      ],
      "name": "revokeRole",
      "outputs": [],
      "stateMutability": "nonpayable",
      "type": "function"
    },
    {
      "inputs": [
        {
          "internalType": "bytes4",
          "name": "interfaceId",
          "type": "bytes4"
        }
      ],
      "name": "supportsInterface",
      "outputs": [
        {
          "internalType": "bool",
          "name": "",
          "type": "bool"
        }
      ],
      "stateMutability": "view",
      "type": "function"
    },
    {
      "inputs": [
        {
          "internalType": "enum EventMonitor.AlertType",
          "name": "alertType",
          "type": "uint8"
        },
        {
          "internalType": "enum EventMonitor.AlertSeverity",
          "name": "severity",
          "type": "uint8"
        },
        {
          "internalType": "string",
          "name": "message",
          "type": "string"
        },
        {
          "internalType": "bytes",
          "name": "data",
          "type": "bytes"
        }
      ],
      "name": "triggerAlert",
      "outputs": [],
      "stateMutability": "nonpayable",
      "type": "function"
    },
    {
      "inputs": [
        {
          "internalType": "enum EventMonitor.AlertType",
          "name": "alertType",
          "type": "uint8"
        },
        {
          "internalType": "enum EventMonitor.AlertSeverity",
          "name": "minSeverity",
          "type": "uint8"
        },
        {
          "internalType": "bool",
          "name": "isActive",
          "type": "bool"
        },
        {
          "internalType": "uint256",
          "name": "cooldownPeriod",
          "type": "uint256"
        },
        {
          "internalType": "string",
          "name": "webhookUrl",
          "type": "string"
        },
        {
          "internalType": "bool",
          "name": "enableDiscord",
          "type": "bool"
        },
        {
          "internalType": "bool",
          "name": "enableEmail",
          "type": "bool"
        }
      ],
      "name": "updateAlertRule",
      "outputs": [],
      "stateMutability": "nonpayable",
      "type": "function"
    }
  ],
  "bytecode": "0x608060405234620000265762000014620000a5565b60405161305862000aa1823961305890f35b600080fd5b90600019905b9181191691161790565b6200004b6200004b6200004b9290565b90565b90620000626200004b6200006a926200003b565b82546200002b565b9055565b9060ff9062000031565b151590565b90620000916200004b6200006a9262000078565b82546200006e565b6200004b60006200003b565b620000b3600160056200004e565b620000c1600060076200007d565b620000cf600060096200007d565b620000e5620000dd62000099565b3390620001a8565b50620001117f8227712ef8ad39d0f26f06731ef0df8665eb7ada7f41b1ee089adf3c238862a2620000dd565b506200013d7faa367556cd60681ffdc71b874d7ad74ad3c1a0733c51c9c58e62339424b3ad36620000dd565b5062000148620006e6565b565b9062000156906200004b565b600052602052604060002090565b6200004b906200017a906001600160a01b031682565b6001600160a01b031690565b6200004b9062000164565b6200004b9062000186565b90620001569062000191565b620001bc620001b8838362000a79565b1590565b156200023f57620001e86001620001e2846000620001db86826200014a565b016200019c565b6200007d565b6200020a62000203620001fc33936200004b565b9362000191565b9162000191565b917f2f8788117e7eff1d82e926ec794901d17c78024a50270940304540a733656f0d6200023660405190565b600090a4600190565b5050600090565b634e487b7160e01b600052604160045260246000fd5b90601f01601f191681019081106001600160401b038211176200027e57604052565b62000246565b90620001486200029360405190565b92836200025c565b6200004b61010062000284565b634e487b7160e01b600052602160045260246000fd5b60091115620002c957565b620002a8565b906200014882620002be565b90620002e790620002cf565b9052565b60041115620002c957565b906200014882620002eb565b90620002e790620002f6565b6001600160401b0381116200027e57602090601f01601f19160190565b90620003416200033b836200030e565b62000284565b918252565b6200004b60006200032b565b6200004b62000346565b6200004b90620002cf565b9062000156906200035c565b6200004b9051620002cf565b90620000916200004b6200006a926200035c565b6200004b9051620002f6565b9061ff009060081b62000031565b6200004b90620002f6565b90620003cc6200004b6200006a92620003ad565b82546200039f565b51151590565b9062ff00009060101b62000031565b90620003fd6200004b6200006a9262000078565b8254620003da565b5190565b634e487b7160e01b600052602260045260246000fd5b906001600283049216801562000442575b60208310146200043c57565b62000409565b91607f169162000430565b9160001960089290920291821b911b62000031565b9190620004776200004b6200006a936200003b565b9083546200044d565b620001489160009162000462565b8181106200049a575050565b80620004aa600060019362000480565b016200048e565b9190601f8111620004c157505050565b620004d56200014893600052602060002090565b906020601f840181900483019310620004f9575b6020601f9091010401906200048e565b9091508190620004e9565b906200050e815190565b906001600160401b0382116200027e5762000536826200052f85546200041f565b85620004b1565b602090601f831160011462000575576200006a92916000918362000569575b5050600019600883021c1916906002021790565b01519050388062000555565b601f198316916200058b85600052602060002090565b9260005b818110620005cc57509160029391856001969410620005b2575b50505002019055565b01516000196008601f8516021c19169055388080620005a9565b919360206001819287870151815501950192016200058f565b90620001489162000504565b90620003cc6200004b6200006a9262000078565b620001489190620006d39060e0906004906200065f81620006316200062a8862000373565b826200037f565b6200064a620006436020890162000393565b82620003b8565b6200065860408801620003d4565b90620003e9565b6200067b620006716060870162000405565b600183016200004e565b620006976200068d6080870162000405565b600283016200004e565b620006b1620006a760a087015190565b60038301620005e5565b0192620006cc620006c560c08301620003d4565b856200007d565b01620003d4565b90620005f1565b90620001489162000605565b620001486000620007876007600162000a61620007026200029b565b916200071186808501620002db565b62000720866020850162000302565b801515604084015262000a3c62000737876200003b565b62000743816060870152565b6200074f816080870152565b620007646200075d62000352565b60a0870152565b82151560c086015287151560e08601526200078d600395620007878a8862000367565b620006da565b620008146200079b6200029b565b620007a9858b8301620002db565b620007b8856020830162000302565b8415156040820152620007d8620007d161012c6200003b565b6060830152565b620007e4836080830152565b620007f9620007f262000352565b60a0830152565b84151560c0820181905260e082015262000787858862000367565b6200088f620008226200029b565b6200083160028b8301620002db565b620008408a6020830162000302565b841515604082015262000858620007d1603c6200003b565b62000864836080830152565b62000872620007f262000352565b84151560c082015289151560e08201526200078760028862000367565b620009046200089d6200029b565b620008ab878b8301620002db565b620008bb60026020830162000302565b8415156040820152620008cf836060830152565b620008db836080830152565b620008e9620007f262000352565b84151560c0820181905260e082015262000787878062000367565b6200097e620009126200029b565b6200092160048b8301620002db565b620009308a6020830162000302565b841515604082015262000948620007d1601e6200003b565b62000954836080830152565b62000962620007f262000352565b89151560c0820181905260e08201526200078760048862000367565b620009fa6200098c6200029b565b6200099b60058b8301620002db565b620009aa8a6020830162000302565b8415156040820152620009c3620007d1610e106200003b565b620009cf836080830152565b620009dd620007f262000352565b84151560c082015289151560e08201526200078760058862000367565b62000a128662000a096200029b565b998a01620002db565b62000a218560208a0162000302565b821515604089015262000a358160608a0152565b6080880152565b62000a5162000a4a62000352565b60a0880152565b151560c0860181905260e0860152565b62000367565b60ff1690565b6200004b905462000a67565b6200004b916000620001db62000a9a9362000a92600090565b50826200014a565b62000a6d56fe6080604052600436101561001257600080fd5b60003560e01c806301ffc9a71461021257806302484b971461020d578063171d073a14610208578063248a9ca31461020357806324dbf851146101fe578063260be2a2146101f95780632f2ff15d146101f457806336568abe146101ef57806336b46bb0146101ea5780634a4e3bd5146101e55780634cd510be146101e05780634d9b47e2146101db57806351858e27146101d65780635c975abb146101d15780636b6844e3146101cc5780637b07b8e1146101c757806385081886146101c25780638792943d146101bd57806388ce3741146101b857806391d14854146101b3578063964ebf42146101ae5780639a7dc342146101a9578063a217fddf146101a4578063b16e53d61461019f578063b9f7530e1461019a578063ba12fd7714610195578063d547741f14610190578063de24fbb41461018b578063e2652b5714610186578063e313949914610181578063e97a9e121461017c5763fa1f69560361021757611074565b610ff3565b610fcc565b610f88565b610f3e565b610f25565b610f0d565b610ef2565b610ecd565b610e7b565b610e4e565b610e33565b610daf565b610d8d565b610cb7565b610c36565b610bee565b610a96565b610a7b565b610a63565b610a2a565b610a0f565b6109d3565b6109ac565b610882565b610869565b61082b565b6107eb565b610772565b61073b565b61047e565b610271565b600080fd5b7fffffffff0000000000000000000000000000000000000000000000000000000081165b0361021757565b905035906102548261021c565b565b906020828203126102175761026a91610247565b90565b9052565b346102175761029f61028c610287366004610256565b611093565b6040515b91829182901515815260200190565b0390f35b600091031261021757565b634e487b7160e01b600052600060045260246000fd5b634e487b7160e01b600052602260045260246000fd5b90600160028304921680156102fa575b60208310146102f557565b6102c4565b91607f16916102ea565b80546000939291610321610317836102da565b8085529360200190565b9160018116908115610373575060011461033a57505050565b61034d9192939450600052602060002090565b916000925b81841061035f5750500190565b805484840152602090930192600101610352565b92949550505060ff1916825215156020020190565b9061026a91610304565b634e487b7160e01b600052604160045260246000fd5b90601f01601f1916810190811067ffffffffffffffff8211176103ca57604052565b610392565b906102546103e9926103e060405190565b93848092610388565b03836103a8565b906000106104015761026a906103cf565b6102ae565b61026a600060086103f0565b60005b8381106104255750506000910152565b8181015183820152602001610415565b61045661045f6020936104699361044a815190565b80835293849260200190565b95869101610412565b601f01601f191690565b0190565b602080825261026a92910190610435565b346102175761048e3660046102a3565b61029f610499610406565b6040519182918261046d565b80610240565b90503590610254826104a5565b906020828203126102175761026a916104ab565b61026a61026a61026a9290565b906104e3906104cc565b600052602052604060002090565b61026a9081565b61026a90546104f1565b61026a905b60ff1690565b61026a9054610502565b61026a9060081c610507565b61026a9054610517565b61026a9060101c5b73ffffffffffffffffffffffffffffffffffffffff1690565b61026a905461052d565b8054600093929161056b610317836102da565b9160018116908115610373575060011461058457505050565b6105979192939450600052602060002090565b916000925b8184106105a95750500190565b80548484015260209093019260010161059c565b9061026a91610558565b906102546103e9926105d860405190565b938480926105bd565b6105ec9060026104d9565b906105f6826104f8565b916106036001820161050d565b9161061060018301610523565b9161061d6001820161054e565b9161062a600283016103cf565b91610637600382016105c7565b9161026a6005610649600485016104f8565b930161050d565b634e487b7160e01b600052602160045260246000fd5b6009111561067057565b610650565b9061025482610666565b61026a90610675565b61026d9061067f565b6004111561067057565b9061025482610691565b61026a9061069b565b61026d906106a5565b61026d90610535565b938460e09661071061071d93610706610733986102549d9f9e9c9761072b996106f26106fc9260006101008b019a0152565b60208d0190610688565b60408b01906106ae565b60608901906106b7565b8682036080880152610435565b9084820360a0860152610435565b9660c0830152565b019015159052565b346102175761029f6107566107513660046104b8565b6105e1565b9461076998969894919493929360405190565b988998896106c0565b346102175761029f61078d6107883660046104b8565b611135565b6040519182918290815260200190565b61024081610535565b905035906102548261079d565b801515610240565b90503590610254826107b3565b91906040838203126102175761026a9060206107e482866107a6565b94016107bb565b34610217576108046107fe3660046107c8565b90611273565b604051005b61026a916008021c81565b9061026a9154610809565b61026a60006005610814565b346102175761083b3660046102a3565b61029f61078d61081f565b91906040838203126102175761026a90602061086282866104ab565b94016107a6565b346102175761080461087c366004610846565b9061129b565b3461021757610804610895366004610846565b906112a5565b805182529061026a9060e08061090c6108fa61010085016108c460208901516020880190610688565b6108d6604089015160408801906106ae565b6108e8606089015160608801906106b7565b60808801518682036080880152610435565b60a087015185820360a0870152610435565b9461091c60c082015160c0860152565b01511515910152565b9061026a9161089b565b9061094561093b835190565b8083529160200190565b90816109576020830284019460200190565b926000915b83831061096b57505050505090565b9091929394602061098e61098783856001950387528951610925565b9760200190565b930193019193929061095c565b602080825261026a9291019061092f565b346102175761029f6109c76109c23660046104b8565b61150c565b6040519182918261099b565b34610217576109e33660046102a3565b610804611670565b61026a916008021c610507565b9061026a91546109eb565b61026a600060096109f8565b3461021757610a1f3660046102a3565b61029f61028c610a03565b3461021757610a3a3660046102a3565b61029f7f8227712ef8ad39d0f26f06731ef0df8665eb7ada7f41b1ee089adf3c238862a261078d565b3461021757610a733660046102a3565b61080461168e565b3461021757610a8b3660046102a3565b61029f61028c611696565b3461021757610aa63660046102a3565b61029f7faa367556cd60681ffdc71b874d7ad74ad3c1a0733c51c9c58e62339424b3ad3661078d565b6009111561021757565b9050359061025482610acf565b906020828203126102175761026a91610ad9565b906104e39061067f565b61026a9060101c610507565b61026a9054610b04565b610b25906003610afa565b90610b2f8261050d565b91610b3981610523565b91610b4382610b10565b91610b50600182016104f8565b91610b5d600283016104f8565b91610b6a600382016103cf565b9161026a6004610b7b81850161050d565b9301610523565b9395610bd760e096610bd06102549a9c9b99610bc961073398610bc0610be499610bb68d9a60006101008d019c0190610688565b60208d01906106ae565b151560408b0152565b6060890152565b6080870152565b84820360a0860152610435565b96151560c0830152565b346102175761029f610c09610c04366004610ae6565b610b1a565b94610c1c98969894919493929360405190565b98899889610b82565b602080825261026a9291019061089b565b346102175761029f610c51610c4c3660046104b8565b6116ec565b60405191829182610c25565b909182601f830112156102175781359167ffffffffffffffff831161021757602001926020830284011161021757565b9060208282031261021757813567ffffffffffffffff811161021757610cb39201610c5d565b9091565b3461021757610804610cca366004610c8d565b9061183a565b6004111561021757565b9050359061025482610cd0565b909182601f830112156102175781359167ffffffffffffffff831161021757602001926001830284011161021757565b9160e08383031261021757610d2c8284610ad9565b92610d3a8360208301610cda565b92610d4881604084016107bb565b92610d5682606085016104ab565b9260808101359167ffffffffffffffff831161021757610d7b8461026a948401610ce7565b93909460c06107e48260a087016107bb565b3461021757610804610da0366004610d17565b96959095949194939293611b19565b346102175761029f61028c610dc5366004610846565b90611b29565b906020828203126102175761026a916107a6565b61053561026a61026a9273ffffffffffffffffffffffffffffffffffffffff1690565b61026a90610ddf565b61026a90610e02565b906104e390610e0b565b6000610e2e61026a926004610e14565b6109f8565b346102175761029f61028c610e49366004610dcb565b610e1e565b346102175761029f6109c7610e643660046104b8565b611b6a565b61026a60006104cc565b61026a610e69565b3461021757610e8b3660046102a3565b61029f61078d610e73565b9160408383031261021757823567ffffffffffffffff81116102175782610ec460209461026a938701610ce7565b949095016107bb565b3461021757610804610ee0366004610e96565b91611ceb565b61026a600060076109f8565b3461021757610f023660046102a3565b61029f61028c610ee6565b3461021757610804610f203660046104b8565b611e18565b3461021757610804610f38366004610846565b90611e3c565b3461021757610804610f51366004610e96565b91611ed8565b610f8461025494610f7d606094989795610f76608086019a6000870152565b6020850152565b6040830152565b0152565b3461021757610f983660046102a3565b61029f610fa3611ee3565b90610fb094929460405190565b94859485610f57565b61026a6127106104cc565b61026a610fb9565b3461021757610fdc3660046102a3565b61029f61078d610fc4565b61026a600060066103f0565b34610217576110033660046102a3565b61029f610499610fe7565b9190608083820312610217576110248184610ad9565b926110328260208301610cda565b92604082013567ffffffffffffffff81116102175783611053918401610ce7565b929093606082013567ffffffffffffffff811161021757610cb39201610ce7565b346102175761080461108736600461100e565b949390939291926125c4565b7f7965db0b000000000000000000000000000000000000000000000000000000007fffffffff000000000000000000000000000000000000000000000000000000008216149081156110e3575090565b61026a91507fffffffff00000000000000000000000000000000000000000000000000000000167f01ffc9a7000000000000000000000000000000000000000000000000000000001490565b906104e3565b600161114e61026a92611146600090565b50600061112f565b016104f8565b9061025491611169611164610e69565b6125d2565b6111fe565b61053561026a61026a9290565b61026a9061116e565b1561118b57565b60405162461bcd60e51b815260206004820152601c60248201527f4576656e744d6f6e69746f723a20696e76616c696420736f75726365000000006044820152606490fd5b0390fd5b9060ff905b9181191691161790565b906111f361026a6111fa92151590565b82546111d4565b9055565b61126e6112647f156964222630dfa2c9995108d1518962b131fb3525191a58194ce136ca4278079261124b61123b611236600061117b565b610535565b61124483610535565b1415611184565b61125f8561125a836004610e14565b6111e3565b610e0b565b9261029060405190565b0390a2565b9061025491611154565b906102549161128e61116482611135565b90611298916125dd565b50565b906102549161127d565b906112af33610535565b6112b882610535565b036112c65761129891612659565b6040517f6697b232000000000000000000000000000000000000000000000000000000008152600490fd5b634e487b7160e01b600052601160045260246000fd5b60001981146113165760010190565b6112f1565b9061025461132860405190565b92836103a8565b67ffffffffffffffff81116103ca5760208091020190565b906113596113548361132f565b61131b565b918252565b61026a61010061131b565b61137161135e565b906000825260208080808080808089016000815201600081520160008152016060815201606081520160008152016000905250565b61026a611369565b60005b8281106113bd57505050565b6020906113c86113a6565b81840152016113b1565b906102546113e86113e284611347565b9361132f565b601f1901602084016113ae565b634e487b7160e01b600052603260045260246000fd5b90611414825190565b811015611425576020809102010190565b6113f5565b9061026d90610675565b9061026d9061069b565b9061026d90610535565b906102546114fa600561145961135e565b9461146a611466826104f8565b8752565b6114826114796001830161050d565b6020880161142a565b61149a61149160018301610523565b60408801611434565b6114b26114a96001830161054e565b6060880161143e565b6114c86114c1600283016103cf565b6080880152565b6114de6114d7600383016105c7565b60a0880152565b6114f46114ed600483016104f8565b60c0880152565b0161050d565b151560e0840152565b61026a90611448565b61151660006104cc565b916001918261152560016104cc565b905b6115ef575b505090611538836113d2565b809361154460006104cc565b908361155060016104cc565b905b61155e575b5050505050565b61156b61026a60056104f8565b8110806115e6575b156115e157600261159061158c60056114f485856104d9565b1590565b6115a5575b5061159f90611307565b84611552565b81936115bf6115ba61159f946115da946104d9565b611503565b6115c9828861140b565b526115d4818761140b565b50611307565b9290611595565b611557565b50818310611573565b6115fc61026a60056104f8565b811080611651575b1561164c5761161c61158c60056114f48460026104d9565b611633575b9061162c8492611307565b9091611527565b939061162c6116428593611307565b9591925050611621565b61152c565b50818510611604565b611665611164610e69565b610254610254612713565b61025461165a565b611683611164610e69565b61025461025461275b565b610254611678565b61026a600161050d565b156116a757565b60405162461bcd60e51b815260206004820152601e60248201527f4576656e744d6f6e69746f723a20696e76616c696420616c65727420494400006044820152606490fd5b6115ba61026a916116fb6113a6565b5061171361170c61026a60056104f8565b82106116a0565b60026104d9565b61025491906117487faa367556cd60681ffdc71b874d7ad74ad3c1a0733c51c9c58e62339424b3ad366125d2565b611767565b9190811015611425576020020190565b3561026a816104a5565b91909161177460006104cc565b83811015611834578061179361178e6117b493878661174d565b61175d565b6117a061026a60056104f8565b81108061181b575b6117b9575b5060010190565b611774565b806117d5600160056117cf6117da9560026104d9565b016111e3565b6104cc565b6117e333610e0b565b907f6dccf570a96aa1c01e6e7b9eb85cafe5388cd849f165d061e4206a0cdb713d7561180e60405190565b428152602090a3386117ad565b5061182f61158c60056114f48460026104d9565b6117a8565b50509050565b906102549161171a565b906102549796959493929161185a611164610e69565b611a7f565b9061ff009060081b6111d9565b9061187c61026a6111fa926106a5565b825461185f565b9062ff00009060101b6111d9565b906118a161026a6111fa92151590565b8254611883565b90600019906111d9565b906118c261026a6111fa926104cc565b82546118a8565b9160001960089290920291821b911b6111d9565b91906118ee61026a6111fa936104cc565b9083546118c9565b610254916000916118dd565b81811061190d575050565b8061191b60006001936118f6565b01611902565b9190601f811161193057505050565b61194261025493600052602060002090565b906020601f840181900483019310611965575b6020601f909101045b0190611902565b9091508190611955565b919067ffffffffffffffff82116103ca576119948261198e85546102da565b85611921565b600090601f83116001146119cf576111fa9291600091836119c4575b5050600019600883021c1916906002021790565b0135905038806119b0565b90601f198316916119e585600052602060002090565b92825b818110611a2357509160029391856001969410611a09575b50505002019055565b0135600019601f84166008021c19165b9055388080611a00565b929360206001819287860135815501950193016119e8565b90610254929161196f565b9061187c61026a6111fa92151590565b604090610f846102549496959396611a76606084019860008501906106ae565b15156020830152565b909383977f05cf1eb2da14ecb38ef058e01bd9b398f99e32c41ddf0bb40e3c6fe572751c7797611afc600488611af4889b611b0197611aeb61126e9c611ae2611b069d611ad061026a8f6003610afa565b978890611add908261186c565b611891565b600186016118b2565b60038401611a3b565b0191826111e3565b611a46565b61067f565b94611b1060405190565b93849384611a56565b9061025497969594939291611844565b61026a916000611b45611b4b93611b3e600090565b508261112f565b01610e14565b61050d565b9190820391821161131657565b9190820180921161131657565b611b7460056104f8565b8190611b7f565b9190565b1115611c0957611b9890611b9360056104f8565b611b50565b611ba681611b9360056104f8565b90611bb0826113d2565b928390611bbd60006104cc565b845b811015611c0157611bfa611bbf91611be56115ba6002611bdf848a611b5d565b906104d9565b611bef828a61140b565b526117ad818961140b565b9050611bbd565b509250925050565b50611c1460016104cc565b611b98565b906102549291611c2a611164610e69565b611c9e565b90826000939282370152565b919061045f81611c52816104699560209181520190565b8095611c2f565b606080825260059082015264195b585a5b60da1b60808201529392610254929091604091611c95919060a088015b9188830360208a0152611c3b565b94019015159052565b611ce67f663460a2b14ee780904fe63ce4522e36a6fd425ed97c11147e4205e1a66c2a6d93611ccf84846008611a3b565b611cda8160096111e3565b60405193849384611c59565b0390a1565b906102549291611c19565b61025490611d237faa367556cd60681ffdc71b874d7ad74ad3c1a0733c51c9c58e62339424b3ad366125d2565b611d9a565b15611d2f57565b60405162461bcd60e51b815260206004820152602860248201527f4576656e744d6f6e69746f723a20616c65727420616c72656164792061636b6e60448201527f6f776c65646765640000000000000000000000000000000000000000000000006064820152608490fd5b611ddb90611dae61170c61026a60056104f8565b611dc9611dc461158c60056114f48560026104d9565b611d28565b6117d5600160056117cf8460026104d9565b611de433610e0b565b907f6dccf570a96aa1c01e6e7b9eb85cafe5388cd849f165d061e4206a0cdb713d75611e0f60405190565b428152602090a3565b61025490611cf6565b9061025491611e3261116482611135565b9061129891612659565b9061025491611e21565b906102549291611e57611164610e69565b611e90565b606080825260079082015266191a5cd8dbdc9960ca1b60808201529392610254929091604091611c95919060a08801611c87565b611ce67f663460a2b14ee780904fe63ce4522e36a6fd425ed97c11147e4205e1a66c2a6d93611ec184846006611a3b565b611ecc8160076111e3565b60405193849384611e5c565b906102549291611e46565b60008080611ef160056104f8565b93611f08600195611f0260016104cc565b90611b50565b94611f1e611f18620151806104cc565b42611b50565b81611f2960016104cc565b905b611f3457505050565b611f4161026a60056104f8565b81101561202e576002611f5761026a83836104d9565b611f6661158c6005830161050d565b61201e575b600481019185611f7a846104f8565b86109283611fd0575b505050611fc0575b611f94816104f8565b8610611fa8575b5082906001015b90611f2b565b83919550611fb8611fa2916104f8565b959150611f9b565b95611fca90611307565b95611f8b565b019150611fee611fe8611fe284610523565b9261069b565b9161069b565b14908115612000575b50388581611f83565b61200a9150610523565b612017611fe8600361069b565b1438611ff7565b9761202890611307565b97611f6b565b505050565b906102549594939291612044612763565b6123d9565b1561205057565b60405162461bcd60e51b815260206004820152602160248201527f4576656e744d6f6e69746f723a20756e617574686f72697a656420736f75726360448201527f65000000000000000000000000000000000000000000000000000000000000006064820152608490fd5b67ffffffffffffffff81116103ca57602090601f01601f19160190565b909291926120e8611354826120bb565b938185528183011161021757610254916020850190611c2f565b61026a9136916120d8565b61026a9051610675565b906111f361026a6111fa9261067f565b61026a905161069b565b61026a9051610535565b9075ffffffffffffffffffffffffffffffffffffffff00009060101b6111d9565b9061216c61026a6111fa92610e0b565b825461213b565b9061217c815190565b9067ffffffffffffffff82116103ca5761219a8261198e85546102da565b602090601f83116001146121d4576111fa9291600091836121c9575050600019600883021c1916906002021790565b0151905038806119b0565b601f198316916121e985600052602060002090565b9260005b8181106122215750916002939185600196941061220d5750505002019055565b01516000196008601f8516021c1916611a19565b919360206001819287870151815501950192016121ed565b9061025491612173565b9061224c815190565b9067ffffffffffffffff82116103ca5761226a8261198e85546102da565b602090601f8311600114612299576111fa9291600091836121c9575050600019600883021c1916906002021790565b601f198316916122ae85600052602060002090565b9260005b8181106122d25750916002939185600196941061220d5750505002019055565b919360206001819287870151815501950192016122b2565b9061025491612243565b60056123a260e06102549461231361230d600083015190565b866118b2565b6123566001860161232f6123296020850161210d565b82612117565b61234461233e60408501612127565b8261186c565b61235060608401612131565b9061215c565b61236d612364608083015190565b60028701612239565b61238461237b60a083015190565b600387016122ea565b61239b61239260c083015190565b600487016118b2565b0151151590565b91016111e3565b90610254916122f4565b9161026a9391926123cc604082019460008301906106b7565b6020818503910152611c3b565b92909391946123f46123ef611b4b336004610e14565b612049565b61240261026a856003610afa565b908161241061158c82610b10565b6125ba5761242061242591610523565b61069b565b61242e8761069b565b106125855760018201612440816104f8565b61244d611b7b60006104cc565b11908161258e575b506125855761246460056104f8565b9361246e85611307565b6124799060056118b2565b61248161135e565b9161248a868452565b612497876020850161142a565b6124a48860408501611434565b6124b1336060850161143e565b6124bb858a612102565b60808401526124c991612102565b60a08201526124d94260c0830152565b600060e08201526124eb8460026104d9565b906124f5916123a9565b61250242600283016118b2565b61250c60056104f8565b612514610fb9565b106125507f107feba4d6fd3319c1a885679eb3413414b733be30c8d0aae71db86add8a88f6946117d561255c9461255694612578575b82612d97565b9461067f565b946106a5565b9461257361256960405190565b92839233846123b3565b0390a4565b612580612c08565b61254a565b50505050505050565b6125b2915061026a906125ac6125a6600287016104f8565b916104f8565b90611b5d565b421038612455565b5050505050505050565b906102549594939291612033565b610254903390612f81565b6125ea61158c8383611b29565b1561265257612604600161125a846000611b45868261112f565b61261e612618612612339390565b93610e0b565b91610e0b565b917f2f8788117e7eff1d82e926ec794901d17c78024a50270940304540a733656f0d61264960405190565b600090a4600190565b5050600090565b6126638282611b29565b156126525761267c600061125a8482611b45868261112f565b61268a612618612612339390565b917ff6391f5c32d9c69d2a47ea670b442974b53935d1edc7fd64eb21e047a839171b61264960405190565b6126bd612fd2565b6102546126d5565b60208101929161025491906106b7565b6126e1600060016111e3565b7f5db9ee0a495bf2e6ff9c91a7834c1ba4fdd244a5e8aa4e537bd38aeae4b073aa611ce6335b604051918291826126c5565b6102546126b5565b612723612763565b6102546127316001806111e3565b7f62e78cea01bee320cd4e420270b5ea74000d11b0c9f74754ebdbfc544b05a258611ce633612707565b61025461271b565b61276b611696565b61277157565b6040517fd93c0665000000000000000000000000000000000000000000000000000000008152600490fd5b906127af90600019906020036008021c90565b8154169055565b906000916127e16127cc82600052602060002090565b928354600019600883021c1916906002021790565b905555565b919290602082101561284b57601f8411600114612815576111fa929350600019600883021c1916906002021790565b509061284661025493600161283d61283285600052602060002090565b92601f602091010490565b82019101611902565b6127b6565b506128848293612862600194600052602060002090565b61195e6020601f860104820192601f86168061288c575b50601f602091010490565b600202179055565b6128989088860361279c565b38612879565b9290916801000000000000000082116103ca57602011156128f75760208110156128d8576111fa91600019600883021c1916906002021790565b60019160ff19166128ee84600052602060002090565b55600202019055565b60019150600202019055565b90815461290f816102da565b90818311612938575b818310612926575b50505050565b61292f936127e6565b38808080612920565b6129448383838761289e565b612918565b600061025491612903565b906000036104015761025490612949565b60009060059061297583826118f6565b8260018201556129888360028301612954565b6129958360038301612954565b6129a283600483016118f6565b0155565b906000036104015761025490612965565b61026a90546102da565b90808214612a9e576129d2816129b7565b9067ffffffffffffffff82116103ca576129f08261198e85546102da565b600090601f8311600114612a2a576111fa929160009183612a1f575050600019600883021c1916906002021790565b0154905038806119b0565b90612a3f601f19841692600052602060002090565b90612a4f85600052602060002090565b92815b818110612a8657509160029391856001969410612a725750505002019055565b01546000196008601f8516021c1916611a19565b91936001806020928787015481550195019201612a52565b5050565b90610254916129c1565b90808214612a9e57612abd816129b7565b9067ffffffffffffffff82116103ca57612adb8261198e85546102da565b600090601f8311600114612b0a576111fa929160009183612a1f575050600019600883021c1916906002021790565b90612b1f601f19841692600052602060002090565b90612b2f85600052602060002090565b92815b818110612b5257509160029391856001969410612a725750505002019055565b91936001806020928787015481550195019201612b32565b9061025491612aac565b818103612b7f575050565b60056123a28184612b9861230d600061025498016104f8565b612bcf6001860161235060018401612bb8612bb28261050d565b84612117565b612bca612bc482610523565b8461186c565b61054e565b612bdf6002820160028701612aa2565b612bef6003820160038701612b6a565b6114f4612392600483016104f8565b9061025491612b74565b60018080612c1660016104cc565b905b612cc1575b50612c296103e96104cc565b905b612c54575b5050610254612c4d612c436103e86104cc565b611b9360056104f8565b60056118b2565b612c6161026a60056104f8565b811015612cbc5780612cb06000612cab612cb6946002612ca6612c8483836104d9565b612ca1612c9b612c956103e86104cc565b86611b50565b846104d9565b612bfe565b6104d9565b6129a6565b60010190565b81612c2b565b612c30565b612ccc6103e86104cc565b8111612cf15780612ce66000612cab612ceb9460026104d9565b611307565b81612c18565b612c1d565b604080825260079082015266191a5cd8dbdc9960ca1b6060820152919061025490602060808501611c95565b604080825260059082015264195b585a5b60da1b6060820152919061025490602060808501611c95565b61026a906103cf565b60408082526007908201527f776562686f6f6b000000000000000000000000000000000000000000000000006060820152919061025490602060808501611c95565b906003612da861026a8460026104d9565b91612dce60048201612db98161050d565b80612f56575b80612f38575b612ee457610523565b80612ed4575b80612eb6575b612e5d575b0190612dea826129b7565b612df7611b7b60006104cc565b11612e0157505050565b612e4a612e447fb3282ada9da75dbec0d7ff5630618abbd178bb30b3eb91fef21e19b80bb5107693612e3e612e3861126e95611503565b91612d4c565b90613018565b936104cc565b92612e5460405190565b91829182612d55565b612e6e612e6984611503565b61300e565b7fb3282ada9da75dbec0d7ff5630618abbd178bb30b3eb91fef21e19b80bb51076612eae612e9b876104cc565b92612ea560405190565b91829182612d22565b0390a2612ddf565b50612ec160086129b7565b612ece611b7b60006104cc565b11612dda565b50612edf600961050d565b612dd4565b612ef0612e6986611503565b7fb3282ada9da75dbec0d7ff5630618abbd178bb30b3eb91fef21e19b80bb51076612f30612f1d896104cc565b92612f2760405190565b91829182612cf6565b0390a2610523565b50612f4360066129b7565b612f50611b7b60006104cc565b11612dc5565b50612f61600761050d565b612dbf565b916020610254929493610f84604082019660008301906106b7565b90612f8f61158c8284611b29565b612f97575050565b6111d0612fa360405190565b9283927fe2517d3f00000000000000000000000000000000000000000000000000000000845260048401612f66565b612fdd61158c611696565b612fe357565b6040517f8dfc202b000000000000000000000000000000000000000000000000000000008152600490fd5b5060005b50600190565b505061301260009056fea26469706673582212206250a714a464b6da624957e80254bb2dc70b3f56206212e44dd9101134519bf064736f6c63430008160033",
  "linkReferences": {},
  "deployedLinkReferences": {}
}