{
  "_format": "hh-sol-artifact-1",
  "contractName": "TestHYPE",
  "sourceName": "contracts/TestHYPE.sol",
  "abi": [
    {
      "inputs": [],
      "stateMutability": "nonpayable",
      "type": "constructor"
    },
    {
      "inputs": [
        {
          "internalType": "address",
          "name": "spender",
          "type": "address"
        },
        {
          "internalType": "uint256",
          "name": "allowance",
          "type": "uint256"
        },
        {
          "internalType": "uint256",
          "name": "needed",
          "type": "uint256"
        }
      ],
      "name": "ERC20InsufficientAllowance",
      "type": "error"
    },
    {
      "inputs": [
        {
          "internalType": "address",
          "name": "sender",
          "type": "address"
        },
        {
          "internalType": "uint256",
          "name": "balance",
          "type": "uint256"
        },
        {
          "internalType": "uint256",
          "name": "needed",
          "type": "uint256"
        }
      ],
      "name": "ERC20InsufficientBalance",
      "type": "error"
    },
    {
      "inputs": [
        {
          "internalType": "address",
          "name": "approver",
          "type": "address"
        }
      ],
      "name": "ERC20InvalidApprover",
      "type": "error"
    },
    {
      "inputs": [
        {
          "internalType": "address",
          "name": "receiver",
          "type": "address"
        }
      ],
      "name": "ERC20InvalidReceiver",
      "type": "error"
    },
    {
      "inputs": [
        {
          "internalType": "address",
          "name": "sender",
          "type": "address"
        }
      ],
      "name": "ERC20InvalidSender",
      "type": "error"
    },
    {
      "inputs": [
        {
          "internalType": "address",
          "name": "spender",
          "type": "address"
        }
      ],
      "name": "ERC20InvalidSpender",
      "type": "error"
    },
    {
      "inputs": [
        {
          "internalType": "address",
          "name": "owner",
          "type": "address"
        }
      ],
      "name": "OwnableInvalidOwner",
      "type": "error"
    },
    {
      "inputs": [
        {
          "internalType": "address",
          "name": "account",
          "type": "address"
        }
      ],
      "name": "OwnableUnauthorizedAccount",
      "type": "error"
    },
    {
      "anonymous": false,
      "inputs": [
        {
          "indexed": true,
          "internalType": "address",
          "name": "owner",
          "type": "address"
        },
        {
          "indexed": true,
          "internalType": "address",
          "name": "spender",
          "type": "address"
        },
        {
          "indexed": false,
          "internalType": "uint256",
          "name": "value",
          "type": "uint256"
        }
      ],
      "name": "Approval",
      "type": "event"
    },
    {
      "anonymous": false,
      "inputs": [
        {
          "indexed": true,
          "internalType": "address",
          "name": "to",
          "type": "address"
        },
        {
          "indexed": false,
          "internalType": "uint256",
          "name": "amount",
          "type": "uint256"
        }
      ],
      "name": "EmergencyMint",
      "type": "event"
    },
    {
      "anonymous": false,
      "inputs": [
        {
          "indexed": true,
          "internalType": "address",
          "name": "user",
          "type": "address"
        },
        {
          "indexed": false,
          "internalType": "uint256",
          "name": "amount",
          "type": "uint256"
        }
      ],
      "name": "FaucetUsed",
      "type": "event"
    },
    {
      "anonymous": false,
      "inputs": [
        {
          "indexed": true,
          "internalType": "address",
          "name": "previousOwner",
          "type": "address"
        },
        {
          "indexed": true,
          "internalType": "address",
          "name": "newOwner",
          "type": "address"
        }
      ],
      "name": "OwnershipTransferred",
      "type": "event"
    },
    {
      "anonymous": false,
      "inputs": [
        {
          "indexed": true,
          "internalType": "address",
          "name": "from",
          "type": "address"
        },
        {
          "indexed": true,
          "internalType": "address",
          "name": "to",
          "type": "address"
        },
        {
          "indexed": false,
          "internalType": "uint256",
          "name": "value",
          "type": "uint256"
        }
      ],
      "name": "Transfer",
      "type": "event"
    },
    {
      "inputs": [],
      "name": "FAUCET_AMOUNT",
      "outputs": [
        {
          "internalType": "uint256",
          "name": "",
          "type": "uint256"
        }
      ],
      "stateMutability": "view",
      "type": "function"
    },
    {
      "inputs": [],
      "name": "FAUCET_COOLDOWN",
      "outputs": [
        {
          "internalType": "uint256",
          "name": "",
          "type": "uint256"
        }
      ],
      "stateMutability": "view",
      "type": "function"
    },
    {
      "inputs": [
        {
          "internalType": "address",
          "name": "owner",
          "type": "address"
        },
        {
          "internalType": "address",
          "name": "spender",
          "type": "address"
        }
      ],
      "name": "allowance",
      "outputs": [
        {
          "internalType": "uint256",
          "name": "",
          "type": "uint256"
        }
      ],
      "stateMutability": "view",
      "type": "function"
    },
    {
      "inputs": [
        {
          "internalType": "address",
          "name": "spender",
          "type": "address"
        },
        {
          "internalType": "uint256",
          "name": "value",
          "type": "uint256"
        }
      ],
      "name": "approve",
      "outputs": [
        {
          "internalType": "bool",
          "name": "",
          "type": "bool"
        }
      ],
      "stateMutability": "nonpayable",
      "type": "function"
    },
    {
      "inputs": [
        {
          "internalType": "address",
          "name": "account",
          "type": "address"
        }
      ],
      "name": "balanceOf",
      "outputs": [
        {
          "internalType": "uint256",
          "name": "",
          "type": "uint256"
        }
      ],
      "stateMutability": "view",
      "type": "function"
    },
    {
      "inputs": [
        {
          "internalType": "address[]",
          "name": "recipients",
          "type": "address[]"
        },
        {
          "internalType": "uint256[]",
          "name": "amounts",
          "type": "uint256[]"
        }
      ],
      "name": "batchMint",
      "outputs": [],
      "stateMutability": "nonpayable",
      "type": "function"
    },
    {
      "inputs": [
        {
          "internalType": "uint256",
          "name": "amount",
          "type": "uint256"
        }
      ],
      "name": "burn",
      "outputs": [],
      "stateMutability": "nonpayable",
      "type": "function"
    },
    {
      "inputs": [],
      "name": "decimals",
      "outputs": [
        {
          "internalType": "uint8",
          "name": "",
          "type": "uint8"
        }
      ],
      "stateMutability": "view",
      "type": "function"
    },
    {
      "inputs": [
        {
          "internalType": "address",
          "name": "to",
          "type": "address"
        },
        {
          "internalType": "uint256",
          "name": "amount",
          "type": "uint256"
        }
      ],
      "name": "emergencyFaucet",
      "outputs": [],
      "stateMutability": "nonpayable",
      "type": "function"
    },
    {
      "inputs": [],
      "name": "faucet",
      "outputs": [],
      "stateMutability": "nonpayable",
      "type": "function"
    },
    {
      "inputs": [
        {
          "internalType": "address",
          "name": "",
          "type": "address"
        }
      ],
      "name": "lastFaucetTime",
      "outputs": [
        {
          "internalType": "uint256",
          "name": "",
          "type": "uint256"
        }
      ],
      "stateMutability": "view",
      "type": "function"
    },
    {
      "inputs": [
        {
          "internalType": "address",
          "name": "to",
          "type": "address"
        },
        {
          "internalType": "uint256",
          "name": "amount",
          "type": "uint256"
        }
      ],
      "name": "mint",
      "outputs": [],
      "stateMutability": "nonpayable",
      "type": "function"
    },
    {
      "inputs": [],
      "name": "name",
      "outputs": [
        {
          "internalType": "string",
          "name": "",
          "type": "string"
        }
      ],
      "stateMutability": "view",
      "type": "function"
    },
    {
      "inputs": [],
      "name": "owner",
      "outputs": [
        {
          "internalType": "address",
          "name": "",
          "type": "address"
        }
      ],
      "stateMutability": "view",
      "type": "function"
    },
    {
      "inputs": [],
      "name": "renounceOwnership",
      "outputs": [],
      "stateMutability": "nonpayable",
      "type": "function"
    },
    {
      "inputs": [
        {
          "internalType": "uint8",
          "name": "newDecimals",
          "type": "uint8"
        }
      ],
      "name": "setDecimals",
      "outputs": [],
      "stateMutability": "nonpayable",
      "type": "function"
    },
    {
      "inputs": [],
      "name": "symbol",
      "outputs": [
        {
          "internalType": "string",
          "name": "",
          "type": "string"
        }
      ],
      "stateMutability": "view",
      "type": "function"
    },
    {
      "inputs": [],
      "name": "totalSupply",
      "outputs": [
        {
          "internalType": "uint256",
          "name": "",
          "type": "uint256"
        }
      ],
      "stateMutability": "view",
      "type": "function"
    },
    {
      "inputs": [
        {
          "internalType": "address",
          "name": "to",
          "type": "address"
        },
        {
          "internalType": "uint256",
          "name": "value",
          "type": "uint256"
        }
      ],
      "name": "transfer",
      "outputs": [
        {
          "internalType": "bool",
          "name": "",
          "type": "bool"
        }
      ],
      "stateMutability": "nonpayable",
      "type": "function"
    },
    {
      "inputs": [
        {
          "internalType": "address",
          "name": "from",
          "type": "address"
        },
        {
          "internalType": "address",
          "name": "to",
          "type": "address"
        },
        {
          "internalType": "uint256",
          "name": "value",
          "type": "uint256"
        }
      ],
      "name": "transferFrom",
      "outputs": [
        {
          "internalType": "bool",
          "name": "",
          "type": "bool"
        }
      ],
      "stateMutability": "nonpayable",
      "type": "function"
    },
    {
      "inputs": [
        {
          "internalType": "address",
          "name": "newOwner",
          "type": "address"
        }
      ],
      "name": "transferOwnership",
      "outputs": [],
      "stateMutability": "nonpayable",
      "type": "function"
    }
  ],
  "bytecode": "0x608060405234620000265762000014620001d2565b6040516113c86200085582396113c890f35b600080fd5b634e487b7160e01b600052604160045260246000fd5b90601f01601f191681019081106001600160401b038211176200006357604052565b6200002b565b90620000806200007860405190565b928362000041565b565b6001600160401b0381116200006357602090601f01601f19160190565b90620000b5620000af8362000082565b62000069565b918252565b620000c660136200009f565b7f487970657245564d205465737420546f6b656e00000000000000000000000000602082015290565b620000f9620000ba565b90565b6200010860046200009f565b634859504560e01b602082015290565b620000f9620000fc565b62000132620000f9620000f99290565b60ff1690565b9060ff60a01b9060a01b5b9181191691161790565b62000132620000f9620000f99260ff1690565b9062000174620000f96200017c926200014d565b825462000138565b9055565b634e487b7160e01b600052601160045260246000fd5b60ff16604d8111620001a857600a0a90565b62000180565b620000f9620000f9620000f99290565b81810292918115918404141715620001a857565b620001f2620001e0620000ef565b620001ea62000118565b903362000289565b6200020a62000202601262000122565b600562000160565b620000806200023a62000226620002206200050f565b62000196565b62000234620f4240620001ae565b620001be565b336200051b565b62000251620000f9620000f99290565b6001600160a01b031690565b620000f99062000241565b620002739062000251565b9052565b60208101929162000080919062000268565b916200029591620004db565b620002a160006200025d565b620002ac8162000251565b620002b78362000251565b14620002c957506200008090620005e7565b620002ef90620002d860405190565b631e4fbdf760e01b81529182916004830162000277565b0390fd5b634e487b7160e01b600052602260045260246000fd5b90600160028304921680156200032c575b60208310146200032657565b620002f3565b91607f16916200031a565b9160001960089290920291821b911b62000143565b919062000361620000f96200017c93620001ae565b90835462000337565b62000080916000916200034c565b81811062000384575050565b806200039460006001936200036a565b0162000378565b9190601f8111620003ab57505050565b620003bf6200008093600052602060002090565b906020601f840181900483019310620003e3575b6020601f90910104019062000378565b9091508190620003d3565b90620003f8815190565b906001600160401b0382116200006357620004208262000419855462000309565b856200039b565b602090601f83116001146200045f576200017c92916000918362000453575b5050600019600883021c1916906002021790565b0151905038806200043f565b601f198316916200047585600052602060002090565b9260005b818110620004b6575091600293918560019694106200049c575b50505002019055565b01516000196008601f8516021c1916905538808062000493565b9193602060018192878701518155019501920162000479565b906200008091620003ee565b90620004ed62000080926003620004cf565b6004620004cf565b620000f99060a01c62000132565b620000f99054620004f5565b620000f9600562000503565b91906200052960006200025d565b92620005358462000251565b620005408262000251565b146200055257620000809293620006db565b620002ef846200056160405190565b63ec442f0560e01b81529182916004830162000277565b620000f99062000251565b620000f9905462000578565b906001600160a01b039062000143565b620000f99062000251906001600160a01b031682565b620000f9906200059f565b620000f990620005b5565b90620005df620000f96200017c92620005c0565b82546200058f565b620006156200060e620005fb600562000583565b62000608846005620005cb565b620005c0565b91620005c0565b907f8be0079c531659141344cd1fd0a4f28419497f9722a3daafe3b4186f6b6457e06200064160405190565b80805b0390a3565b906200065590620005c0565b600052602052604060002090565b620000f99081565b620000f9905462000663565b604090620006a26200008094969593966200069b6060840198600085019062000268565b6020830152565b0152565b906000199062000143565b90620006c5620000f96200017c92620001ae565b8254620006a6565b91908201809211620001a857565b816000620006e9816200025d565b620006f48162000251565b620006ff8562000251565b03620007c85760008051602062001c1d8339815191529362000644936200078593620007526200077e946200074c620007448c6200073e60026200066b565b620006cd565b6002620006b1565b62000251565b6200075d8362000251565b036200079d5750506200060862000744886200077a60026200066b565b0390565b93620005c0565b936200079060405190565b9182918290815260200190565b6200060891620007ad9162000649565b620007c189620007bd836200066b565b0190565b90620006b1565b909150620007e1620007db848462000649565b6200066b565b8581106200082d5760008051602062001c1d833981519152938562000644946200075262000785956200074c6200081b8c6200077e980390565b62000827878662000649565b620006b1565b83620002ef876200083d60405190565b63391434e360e21b8152938493600485016200067756fe6080604052600436101561001257600080fd5b60003560e01c806306fdde0314610162578063095ea7b31461015d57806318160ddd1461015857806323b872dd14610153578063313ce5671461014e57806340c10f191461014957806342966c6814610144578063685731071461013f57806370a082311461013a578063715018a61461013557806376697640146101305780637a1395aa1461012b5780637bc1f6cc146101265780637d1d5d19146101215780638da5cb5b1461011c57806395d89b4114610117578063a9059cbb14610112578063dd62ed3e1461010d578063de5f72fd14610108578063f2fde38b146101035763f6d2857a0361016757610681565b610669565b610651565b610635565b6105f6565b6105db565b6105a6565b61058b565b61055c565b6104d9565b610494565b610455565b61043a565b61040a565b610374565b610342565b610313565b6102f7565b6102a2565b610274565b6101e6565b600080fd5b600091031261016757565b60005b83811061018a5750506000910152565b818101518382015260200161017a565b6101bb6101c46020936101ce936101af815190565b80835293849260200190565b95869101610177565b601f01601f191690565b0190565b60208082526101e39291019061019a565b90565b34610167576101f636600461016c565b61020d6102016107cf565b604051918291826101d2565b0390f35b6001600160a01b031690565b6001600160a01b0381165b0361016757565b9050359061023c8261021d565b565b80610228565b9050359061023c8261023e565b9190604083820312610167576101e390602061026d828661022f565b9401610244565b346101675761020d61029061028a366004610251565b906107d9565b60405191829182901515815260200190565b34610167576102b236600461016c565b61020d6102bd6107fa565b6040515b9182918290815260200190565b9091606082840312610167576101e36102e7848461022f565b93604061026d826020870161022f565b346101675761020d61029061030d3660046102ce565b91610804565b346101675761032336600461016c565b61020d61032e610832565b6040519182918260ff909116815260200190565b346101675761035b610355366004610251565b90610967565b604051005b90602082820312610167576101e391610244565b346101675761035b610387366004610360565b610971565b909182601f830112156101675781359167ffffffffffffffff831161016757602001926020830284011161016757565b909160408284031261016757813567ffffffffffffffff811161016757836103e591840161038c565b929093602082013567ffffffffffffffff811161016757610406920161038c565b9091565b346101675761035b61041d3660046103bc565b92919091610ae0565b90602082820312610167576101e39161022f565b346101675761020d6102bd610450366004610426565b610aec565b346101675761046536600461016c565b61035b610b25565b6101e36101e36101e39290565b6101e3683635c9adc5dea0000061046d565b6101e361047a565b34610167576104a436600461016c565b61020d6102bd61048c565b60ff8116610228565b9050359061023c826104af565b90602082820312610167576101e3916104b8565b346101675761035b6104ec3660046104c5565b610b9a565b6102116101e36101e3926001600160a01b031690565b6101e3906104f1565b6101e390610507565b9061052390610510565b600052602052604060002090565b6101e3916008021c81565b906101e39154610531565b60006105576101e3926006610519565b61053c565b346101675761020d6102bd610572366004610426565b610547565b6101e36201518061046d565b6101e3610577565b346101675761059b36600461016c565b61020d6102bd610583565b34610167576105b636600461016c565b61020d6105c1610bb6565b604051918291826001600160a01b03909116815260200190565b34610167576105eb36600461016c565b61020d610201610bc0565b346101675761020d61029061060c366004610251565b90610bca565b9190604083820312610167576101e390602061062e828661022f565b940161022f565b346101675761020d6102bd61064b366004610612565b90610bd5565b346101675761066136600461016c565b61035b610cb0565b346101675761035b61067c366004610426565b610dc3565b346101675761035b610694366004610251565b90610e10565b634e487b7160e01b600052602260045260246000fd5b90600160028304921680156106d0575b60208310146106cb57565b61069a565b91607f16916106c0565b805460009392916106f76106ed836106b0565b8085529360200190565b9160018116908115610749575060011461071057505050565b6107239192939450600052602060002090565b916000925b8184106107355750500190565b805484840152602090930192600101610728565b92949550505060ff1916825215156020020190565b906101e3916106da565b634e487b7160e01b600052604160045260246000fd5b90601f01601f1916810190811067ffffffffffffffff8211176107a057604052565b610768565b9061023c6107bf926107b660405190565b9384809261075e565b038361077e565b6101e3906107a5565b6101e360036107c6565b6107e4919033610e1a565b600190565b6101e39081565b6101e390546107e9565b6101e360026107f0565b6107e4929190610815833383610e52565b610ed0565b6101e39060a01c5b60ff1690565b6101e3905461081a565b6101e36005610828565b9061023c91610849610faf565b610926565b6102116101e36101e39290565b6101e39061084e565b1561086b57565b60405162461bcd60e51b815260206004820152601e60248201527f54657374485950453a206d696e7420746f207a65726f206164647265737300006044820152606490fd5b0390fd5b156108bb57565b60405162461bcd60e51b815260206004820152602660248201527f54657374485950453a206d696e7420616d6f756e74206d75737420626520706f60448201527f73697469766500000000000000000000000000000000000000000000000000006064820152608490fd5b9061023c9161094d61093b610211600061085b565b6001600160a01b0383165b1415610864565b61096261095a600061046d565b835b116108b4565b611014565b9061023c9161083c565b61023c9033611051565b9061023c93929161098a610faf565b610a1e565b1561099657565b60405162461bcd60e51b8152806108b0600482016020808252818101527f54657374485950453a20617272617973206c656e677468206d69736d61746368604082015260600190565b634e487b7160e01b600052603260045260246000fd5b9190811015610a05576020020190565b6109df565b356101e38161021d565b356101e38161023e565b919392918193610a2f84861461098f565b600090610a3c600061046d565b865b811015610ad657610acf81610ac98a610ac3610aae848c610abd610a88838f8f8f610aa990610a3e9f610ab9610ab3610aae8f938c61095c95610aa9610a8d610a88858e8e6109f5565b610a0a565b610946610a9c6102118c61085b565b916001600160a01b031690565b6109f5565b610a14565b9261046d565b9190565b946109f5565b90611014565b60010190565b9050610a3c565b5095505050505050565b9061023c93929161097b565b610b036101e391610afb600090565b506000610519565b6107f0565b610b10610faf565b61023c61023c610b20600061085b565b6110b5565b61023c610b08565b61023c90610b39610faf565b610b8f565b9074ff00000000000000000000000000000000000000009060a01b5b9181191691161790565b6108226101e36101e39260ff1690565b90610b846101e3610b8b92610b64565b8254610b3e565b9055565b61023c906005610b74565b61023c90610b2d565b6101e390610211565b6101e39054610ba3565b6101e36005610bac565b6101e360046107c6565b6107e4919033610ed0565b6101e391610bf0610b0392610be8600090565b506001610519565b610519565b634e487b7160e01b600052601160045260246000fd5b91908201809211610c1857565b610bf5565b15610c2457565b60405162461bcd60e51b815260206004820152602160248201527f54657374485950453a2066617563657420636f6f6c646f776e206e6f74206d6560448201527f74000000000000000000000000000000000000000000000000000000000000006064820152608490fd5b9060001990610b5a565b90610ca96101e3610b8b9261046d565b8254610c8f565b610cdd610cd56101e3610cc7610b03336006610519565b610ccf610577565b90610c0b565b421015610c1d565b610cf2610ceb336006610519565b4290610c99565b610cfa61047a565b610d048133611014565b7fc471df7d13ab46c73ec6eb2da0f35f84077f20d50243ba09a714b82cffc54de9610d3b610d3133610510565b926102c160405190565b0390a2565b61023c90610d4c610faf565b610d56600061085b565b6001600160a01b0381166001600160a01b03831614610d79575061023c906110b5565b6108b090610d8660405190565b9182917f1e4fbdf7000000000000000000000000000000000000000000000000000000008352600483016001600160a01b03909116815260200190565b61023c90610d40565b9061023c91610dd9610faf565b610d3b610d317f08adf4618708f09bfc89231b82dc6de1b34138911aa925a6f5e97ac55bec03a692610e0b8582611014565b610510565b9061023c91610dcc565b9160019161023c93611109565b6001600160a01b03909116815260608101939261023c929091604091610e4e906020830152565b0152565b91610e5d8284610bd5565b6000198110610e6d575b50505050565b818110610e935791610e84610e8a94926000940390565b91611109565b38808080610e67565b826108b083610ea160405190565b9384937ffb8f41b200000000000000000000000000000000000000000000000000000000855260048501610e27565b929190610edd600061085b565b936001600160a01b0385166001600160a01b03821614610f65576001600160a01b0385166001600160a01b03831614610f1b5761023c93945061123e565b6108b085610f2860405190565b9182917fec442f05000000000000000000000000000000000000000000000000000000008352600483016001600160a01b03909116815260200190565b6108b085610f7260405190565b9182917f96c6fd1e000000000000000000000000000000000000000000000000000000008352600483016001600160a01b03909116815260200190565b610fb7610bb6565b3390610fc282610a9c565b03610fca5750565b6108b090610fd760405190565b9182917f118cdaa7000000000000000000000000000000000000000000000000000000008352600483016001600160a01b03909116815260200190565b9190611020600061085b565b926001600160a01b0384166001600160a01b038216146110445761023c929361123e565b6108b084610f2860405190565b919061105d600061085b565b926001600160a01b0384166001600160a01b03821614611082579261023c929361123e565b6108b084610f7260405190565b906001600160a01b0390610b5a565b906110ae6101e3610b8b92610510565b825461108f565b6110d66110d06110c56005610bac565b610e0b84600561109e565b91610510565b907f8be0079c531659141344cd1fd0a4f28419497f9722a3daafe3b4186f6b6457e061110160405190565b80805b0390a3565b909192611116600061085b565b6001600160a01b0381166001600160a01b038416146111f4576001600160a01b0381166001600160a01b038516146111aa57506111618461115c85610bf0866001610519565b610c99565b61116a57505050565b6111046111a061119a7f8c5be1e5ebec7d5bd14f71427d1e84f3dd0314c0f7b2291e5b200ac8c7c3b92593610510565b93610510565b936102c160405190565b6108b0906111b760405190565b9182917f94280d62000000000000000000000000000000000000000000000000000000008352600483016001600160a01b03909116815260200190565b6108b09061120160405190565b9182917fe602df05000000000000000000000000000000000000000000000000000000008352600483016001600160a01b03909116815260200190565b81600061124a8161085b565b6001600160a01b0381166001600160a01b038516036112f7577fddf252ad1be2c89b69c2b068fc378daa952ba7f163c4a11628f55a4df523b3ef93611104936111a0936112b161119a946102116112aa8c6112a560026107f0565b610c0b565b6002610c99565b6001600160a01b038316036112d7575050610e0b6112aa886112d360026107f0565b0390565b610e0b916112e491610519565b6112f1896101ce836107f0565b90610c99565b909150611307610b038484610519565b858110611355577fddf252ad1be2c89b69c2b068fc378daa952ba7f163c4a11628f55a4df523b3ef9385611104946112b16111a09561021161134b8c61119a980390565b61115c8786610519565b836108b08761136360405190565b9384937fe450d38c00000000000000000000000000000000000000000000000000000000855260048501610e2756fea26469706673582212203b7c52ec6ecb9b57e9eddecb1eb4043481f56f7899ddbfd9abfa353da6b88a6964736f6c63430008160033ddf252ad1be2c89b69c2b068fc378daa952ba7f163c4a11628f55a4df523b3ef",
  "linkReferences": {},
  "deployedLinkReferences": {}
}