{
  "_format": "hh-sol-artifact-1",
  "contractName": "BankRunDefenseSystem",
  "sourceName": "contracts/BankRunDefenseSystem.sol",
  "abi": [
    {
      "inputs": [],
      "stateMutability": "nonpayable",
      "type": "constructor"
    },
    {
      "inputs": [],
      "name": "AccessControlBadConfirmation",
      "type": "error"
    },
    {
      "inputs": [
        {
          "internalType": "address",
          "name": "account",
          "type": "address"
        },
        {
          "internalType": "bytes32",
          "name": "neededRole",
          "type": "bytes32"
        }
      ],
      "name": "AccessControlUnauthorizedAccount",
      "type": "error"
    },
    {
      "inputs": [],
      "name": "ReentrancyGuardReentrantCall",
      "type": "error"
    },
    {
      "inputs": [
        {
          "internalType": "address",
          "name": "token",
          "type": "address"
        }
      ],
      "name": "SafeERC20FailedOperation",
      "type": "error"
    },
    {
      "anonymous": false,
      "inputs": [
        {
          "indexed": false,
          "internalType": "address",
          "name": "token",
          "type": "address"
        },
        {
          "indexed": false,
          "internalType": "uint256",
          "name": "utilizationRate",
          "type": "uint256"
        }
      ],
      "name": "CircuitBreakerTriggered",
      "type": "event"
    },
    {
      "anonymous": false,
      "inputs": [
        {
          "indexed": false,
          "internalType": "address",
          "name": "user",
          "type": "address"
        },
        {
          "indexed": false,
          "internalType": "uint256",
          "name": "feeAmount",
          "type": "uint256"
        }
      ],
      "name": "DynamicFeeApplied",
      "type": "event"
    },
    {
      "anonymous": false,
      "inputs": [
        {
          "indexed": false,
          "internalType": "address",
          "name": "token",
          "type": "address"
        },
        {
          "indexed": false,
          "internalType": "uint256",
          "name": "amount",
          "type": "uint256"
        }
      ],
      "name": "EmergencyLiquidityUsed",
      "type": "event"
    },
    {
      "anonymous": false,
      "inputs": [
        {
          "indexed": false,
          "internalType": "address",
          "name": "token",
          "type": "address"
        },
        {
          "indexed": false,
          "internalType": "uint256",
          "name": "amount",
          "type": "uint256"
        }
      ],
      "name": "LiquidityAdded",
      "type": "event"
    },
    {
      "anonymous": false,
      "inputs": [
        {
          "indexed": true,
          "internalType": "bytes32",
          "name": "requestId",
          "type": "bytes32"
        },
        {
          "indexed": false,
          "internalType": "uint256",
          "name": "fulfilledAmount",
          "type": "uint256"
        }
      ],
      "name": "RedemptionProcessed",
      "type": "event"
    },
    {
      "anonymous": false,
      "inputs": [
        {
          "indexed": true,
          "internalType": "bytes32",
          "name": "requestId",
          "type": "bytes32"
        },
        {
          "indexed": false,
          "internalType": "address",
          "name": "user",
          "type": "address"
        },
        {
          "indexed": false,
          "internalType": "uint256",
          "name": "amount",
          "type": "uint256"
        }
      ],
      "name": "RedemptionRequested",
      "type": "event"
    },
    {
      "anonymous": false,
      "inputs": [
        {
          "indexed": true,
          "internalType": "bytes32",
          "name": "role",
          "type": "bytes32"
        },
        {
          "indexed": true,
          "internalType": "bytes32",
          "name": "previousAdminRole",
          "type": "bytes32"
        },
        {
          "indexed": true,
          "internalType": "bytes32",
          "name": "newAdminRole",
          "type": "bytes32"
        }
      ],
      "name": "RoleAdminChanged",
      "type": "event"
    },
    {
      "anonymous": false,
      "inputs": [
        {
          "indexed": true,
          "internalType": "bytes32",
          "name": "role",
          "type": "bytes32"
        },
        {
          "indexed": true,
          "internalType": "address",
          "name": "account",
          "type": "address"
        },
        {
          "indexed": true,
          "internalType": "address",
          "name": "sender",
          "type": "address"
        }
      ],
      "name": "RoleGranted",
      "type": "event"
    },
    {
      "anonymous": false,
      "inputs": [
        {
          "indexed": true,
          "internalType": "bytes32",
          "name": "role",
          "type": "bytes32"
        },
        {
          "indexed": true,
          "internalType": "address",
          "name": "account",
          "type": "address"
        },
        {
          "indexed": true,
          "internalType": "address",
          "name": "sender",
          "type": "address"
        }
      ],
      "name": "RoleRevoked",
      "type": "event"
    },
    {
      "inputs": [],
      "name": "BASIS_POINTS",
      "outputs": [
        {
          "internalType": "uint256",
          "name": "",
          "type": "uint256"
        }
      ],
      "stateMutability": "view",
      "type": "function"
    },
    {
      "inputs": [],
      "name": "DEFAULT_ADMIN_ROLE",
      "outputs": [
        {
          "internalType": "bytes32",
          "name": "",
          "type": "bytes32"
        }
      ],
      "stateMutability": "view",
      "type": "function"
    },
    {
      "inputs": [],
      "name": "DEFAULT_COOLDOWN",
      "outputs": [
        {
          "internalType": "uint256",
          "name": "",
          "type": "uint256"
        }
      ],
      "stateMutability": "view",
      "type": "function"
    },
    {
      "inputs": [],
      "name": "EMERGENCY_RESERVE_RATIO",
      "outputs": [
        {
          "internalType": "uint256",
          "name": "",
          "type": "uint256"
        }
      ],
      "stateMutability": "view",
      "type": "function"
    },
    {
      "inputs": [],
      "name": "LIQUIDITY_PROVIDER_ROLE",
      "outputs": [
        {
          "internalType": "bytes32",
          "name": "",
          "type": "bytes32"
        }
      ],
      "stateMutability": "view",
      "type": "function"
    },
    {
      "inputs": [],
      "name": "MAX_DAILY_REDEMPTION_RATIO",
      "outputs": [
        {
          "internalType": "uint256",
          "name": "",
          "type": "uint256"
        }
      ],
      "stateMutability": "view",
      "type": "function"
    },
    {
      "inputs": [],
      "name": "MAX_QUEUE_SIZE",
      "outputs": [
        {
          "internalType": "uint256",
          "name": "",
          "type": "uint256"
        }
      ],
      "stateMutability": "view",
      "type": "function"
    },
    {
      "inputs": [],
      "name": "RISK_MANAGER_ROLE",
      "outputs": [
        {
          "internalType": "bytes32",
          "name": "",
          "type": "bytes32"
        }
      ],
      "stateMutability": "view",
      "type": "function"
    },
    {
      "inputs": [
        {
          "internalType": "address",
          "name": "token",
          "type": "address"
        },
        {
          "internalType": "uint256",
          "name": "amount",
          "type": "uint256"
        }
      ],
      "name": "addLiquidity",
      "outputs": [],
      "stateMutability": "nonpayable",
      "type": "function"
    },
    {
      "inputs": [
        {
          "internalType": "address",
          "name": "token",
          "type": "address"
        },
        {
          "internalType": "uint256",
          "name": "amount",
          "type": "uint256"
        }
      ],
      "name": "calculateDynamicFee",
      "outputs": [
        {
          "internalType": "uint256",
          "name": "",
          "type": "uint256"
        }
      ],
      "stateMutability": "view",
      "type": "function"
    },
    {
      "inputs": [
        {
          "internalType": "address",
          "name": "token",
          "type": "address"
        },
        {
          "internalType": "uint256",
          "name": "amount",
          "type": "uint256"
        }
      ],
      "name": "calculateProcessingTime",
      "outputs": [
        {
          "internalType": "uint256",
          "name": "",
          "type": "uint256"
        }
      ],
      "stateMutability": "view",
      "type": "function"
    },
    {
      "inputs": [
        {
          "internalType": "bytes32",
          "name": "requestId",
          "type": "bytes32"
        }
      ],
      "name": "cancelRedemption",
      "outputs": [],
      "stateMutability": "nonpayable",
      "type": "function"
    },
    {
      "inputs": [
        {
          "internalType": "address",
          "name": "",
          "type": "address"
        }
      ],
      "name": "circuitBreakers",
      "outputs": [
        {
          "internalType": "bool",
          "name": "isActive",
          "type": "bool"
        },
        {
          "internalType": "uint256",
          "name": "triggerThreshold",
          "type": "uint256"
        },
        {
          "internalType": "uint256",
          "name": "cooldownPeriod",
          "type": "uint256"
        },
        {
          "internalType": "uint256",
          "name": "lastTriggerTime",
          "type": "uint256"
        },
        {
          "internalType": "uint256",
          "name": "consecutiveTriggers",
          "type": "uint256"
        }
      ],
      "stateMutability": "view",
      "type": "function"
    },
    {
      "inputs": [
        {
          "internalType": "address",
          "name": "token",
          "type": "address"
        },
        {
          "internalType": "uint256",
          "name": "triggerThreshold",
          "type": "uint256"
        },
        {
          "internalType": "uint256",
          "name": "cooldownPeriod",
          "type": "uint256"
        }
      ],
      "name": "configureCircuitBreaker",
      "outputs": [],
      "stateMutability": "nonpayable",
      "type": "function"
    },
    {
      "inputs": [
        {
          "internalType": "address",
          "name": "token",
          "type": "address"
        },
        {
          "internalType": "uint256",
          "name": "baseFee",
          "type": "uint256"
        },
        {
          "internalType": "uint256",
          "name": "surgeFee",
          "type": "uint256"
        },
        {
          "internalType": "uint256",
          "name": "utilizationThreshold",
          "type": "uint256"
        },
        {
          "internalType": "uint256",
          "name": "maxFee",
          "type": "uint256"
        }
      ],
      "name": "configureDynamicFees",
      "outputs": [],
      "stateMutability": "nonpayable",
      "type": "function"
    },
    {
      "inputs": [
        {
          "internalType": "address",
          "name": "",
          "type": "address"
        }
      ],
      "name": "dailyRedemptionLimits",
      "outputs": [
        {
          "internalType": "uint256",
          "name": "",
          "type": "uint256"
        }
      ],
      "stateMutability": "view",
      "type": "function"
    },
    {
      "inputs": [
        {
          "internalType": "address",
          "name": "",
          "type": "address"
        },
        {
          "internalType": "uint256",
          "name": "",
          "type": "uint256"
        }
      ],
      "name": "dailyRedemptionVolume",
      "outputs": [
        {
          "internalType": "uint256",
          "name": "",
          "type": "uint256"
        }
      ],
      "stateMutability": "view",
      "type": "function"
    },
    {
      "inputs": [
        {
          "internalType": "address",
          "name": "",
          "type": "address"
        }
      ],
      "name": "dynamicFees",
      "outputs": [
        {
          "internalType": "uint256",
          "name": "baseFee",
          "type": "uint256"
        },
        {
          "internalType": "uint256",
          "name": "surgeFee",
          "type": "uint256"
        },
        {
          "internalType": "uint256",
          "name": "utilizationThreshold",
          "type": "uint256"
        },
        {
          "internalType": "uint256",
          "name": "maxFee",
          "type": "uint256"
        }
      ],
      "stateMutability": "view",
      "type": "function"
    },
    {
      "inputs": [
        {
          "internalType": "address",
          "name": "",
          "type": "address"
        }
      ],
      "name": "emergencyReserves",
      "outputs": [
        {
          "internalType": "uint256",
          "name": "",
          "type": "uint256"
        }
      ],
      "stateMutability": "view",
      "type": "function"
    },
    {
      "inputs": [
        {
          "internalType": "address",
          "name": "token",
          "type": "address"
        }
      ],
      "name": "getAvailableLiquidity",
      "outputs": [
        {
          "internalType": "uint256",
          "name": "",
          "type": "uint256"
        }
      ],
      "stateMutability": "view",
      "type": "function"
    },
    {
      "inputs": [],
      "name": "getQueueStatus",
      "outputs": [
        {
          "internalType": "uint256",
          "name": "queueLength",
          "type": "uint256"
        },
        {
          "internalType": "uint256",
          "name": "totalPending",
          "type": "uint256"
        }
      ],
      "stateMutability": "view",
      "type": "function"
    },
    {
      "inputs": [
        {
          "internalType": "bytes32",
          "name": "role",
          "type": "bytes32"
        }
      ],
      "name": "getRoleAdmin",
      "outputs": [
        {
          "internalType": "bytes32",
          "name": "",
          "type": "bytes32"
        }
      ],
      "stateMutability": "view",
      "type": "function"
    },
    {
      "inputs": [
        {
          "internalType": "bytes32",
          "name": "role",
          "type": "bytes32"
        },
        {
          "internalType": "address",
          "name": "account",
          "type": "address"
        }
      ],
      "name": "grantRole",
      "outputs": [],
      "stateMutability": "nonpayable",
      "type": "function"
    },
    {
      "inputs": [
        {
          "internalType": "bytes32",
          "name": "role",
          "type": "bytes32"
        },
        {
          "internalType": "address",
          "name": "account",
          "type": "address"
        }
      ],
      "name": "hasRole",
      "outputs": [
        {
          "internalType": "bool",
          "name": "",
          "type": "bool"
        }
      ],
      "stateMutability": "view",
      "type": "function"
    },
    {
      "inputs": [
        {
          "internalType": "address",
          "name": "",
          "type": "address"
        }
      ],
      "name": "liquidityPools",
      "outputs": [
        {
          "internalType": "uint256",
          "name": "totalLiquidity",
          "type": "uint256"
        },
        {
          "internalType": "uint256",
          "name": "availableLiquidity",
          "type": "uint256"
        },
        {
          "internalType": "uint256",
          "name": "reservedLiquidity",
          "type": "uint256"
        },
        {
          "internalType": "uint256",
          "name": "utilizationRate",
          "type": "uint256"
        },
        {
          "internalType": "uint256",
          "name": "lastUpdateTime",
          "type": "uint256"
        }
      ],
      "stateMutability": "view",
      "type": "function"
    },
    {
      "inputs": [
        {
          "internalType": "uint256",
          "name": "maxProcessCount",
          "type": "uint256"
        }
      ],
      "name": "processRedemptionQueue",
      "outputs": [],
      "stateMutability": "nonpayable",
      "type": "function"
    },
    {
      "inputs": [
        {
          "internalType": "uint256",
          "name": "",
          "type": "uint256"
        }
      ],
      "name": "redemptionQueue",
      "outputs": [
        {
          "internalType": "bytes32",
          "name": "",
          "type": "bytes32"
        }
      ],
      "stateMutability": "view",
      "type": "function"
    },
    {
      "inputs": [
        {
          "internalType": "bytes32",
          "name": "",
          "type": "bytes32"
        }
      ],
      "name": "redemptionRequests",
      "outputs": [
        {
          "internalType": "address",
          "name": "user",
          "type": "address"
        },
        {
          "internalType": "address",
          "name": "token",
          "type": "address"
        },
        {
          "internalType": "uint256",
          "name": "amount",
          "type": "uint256"
        },
        {
          "internalType": "uint256",
          "name": "requestTime",
          "type": "uint256"
        },
        {
          "internalType": "uint256",
          "name": "processTime",
          "type": "uint256"
        },
        {
          "internalType": "uint256",
          "name": "fulfilledAmount",
          "type": "uint256"
        },
        {
          "internalType": "enum BankRunDefenseSystem.RedemptionStatus",
          "name": "status",
          "type": "uint8"
        }
      ],
      "stateMutability": "view",
      "type": "function"
    },
    {
      "inputs": [
        {
          "internalType": "bytes32",
          "name": "role",
          "type": "bytes32"
        },
        {
          "internalType": "address",
          "name": "callerConfirmation",
          "type": "address"
        }
      ],
      "name": "renounceRole",
      "outputs": [],
      "stateMutability": "nonpayable",
      "type": "function"
    },
    {
      "inputs": [
        {
          "internalType": "address",
          "name": "token",
          "type": "address"
        },
        {
          "internalType": "uint256",
          "name": "amount",
          "type": "uint256"
        }
      ],
      "name": "requestRedemption",
      "outputs": [
        {
          "internalType": "bytes32",
          "name": "requestId",
          "type": "bytes32"
        }
      ],
      "stateMutability": "nonpayable",
      "type": "function"
    },
    {
      "inputs": [
        {
          "internalType": "address",
          "name": "token",
          "type": "address"
        }
      ],
      "name": "resetCircuitBreaker",
      "outputs": [],
      "stateMutability": "nonpayable",
      "type": "function"
    },
    {
      "inputs": [
        {
          "internalType": "bytes32",
          "name": "role",
          "type": "bytes32"
        },
        {
          "internalType": "address",
          "name": "account",
          "type": "address"
        }
      ],
      "name": "revokeRole",
      "outputs": [],
      "stateMutability": "nonpayable",
      "type": "function"
    },
    {
      "inputs": [
        {
          "internalType": "address",
          "name": "token",
          "type": "address"
        },
        {
          "internalType": "uint256",
          "name": "limit",
          "type": "uint256"
        }
      ],
      "name": "setDailyRedemptionLimit",
      "outputs": [],
      "stateMutability": "nonpayable",
      "type": "function"
    },
    {
      "inputs": [
        {
          "internalType": "bytes4",
          "name": "interfaceId",
          "type": "bytes4"
        }
      ],
      "name": "supportsInterface",
      "outputs": [
        {
          "internalType": "bool",
          "name": "",
          "type": "bool"
        }
      ],
      "stateMutability": "view",
      "type": "function"
    },
    {
      "inputs": [
        {
          "internalType": "address",
          "name": "",
          "type": "address"
        },
        {
          "internalType": "uint256",
          "name": "",
          "type": "uint256"
        }
      ],
      "name": "userRequests",
      "outputs": [
        {
          "internalType": "bytes32",
          "name": "",
          "type": "bytes32"
        }
      ],
      "stateMutability": "view",
      "type": "function"
    }
  ],
  "bytecode": "0x6080604052346200002657620000146200004a565b6040516128986200024e823961289890f35b600080fd5b6200003b6200003b6200003b9290565b90565b6200003b60006200002b565b62000054620000d5565b6200006a620000626200003e565b339062000176565b50620000967fb2e3ee861706f0756afea8a5257301f83561f9ac10b8f43b771dc928566f8c6162000062565b50565b6200003b60016200002b565b90600019905b9181191691161790565b90620000c96200003b620000d1926200002b565b8254620000a5565b9055565b620000eb620000e362000099565b6001620000b5565b565b90620000f9906200003b565b600052602052604060002090565b6200003b906200011d906001600160a01b031682565b6001600160a01b031690565b6200003b9062000107565b6200003b9062000129565b90620000f99062000134565b9060ff90620000ab565b151590565b906200016e6200003b620000d19262000155565b82546200014b565b6200018a62000186838362000226565b1590565b156200020d57620001b66001620001b0846000620001a98682620000ed565b016200013f565b6200015a565b620001d8620001d1620001ca33936200003b565b9362000134565b9162000134565b917f2f8788117e7eff1d82e926ec794901d17c78024a50270940304540a733656f0d6200020460405190565b600090a4600190565b5050600090565b60ff1690565b6200003b905462000214565b6200003b916000620001a962000247936200023f600090565b5082620000ed565b6200021a56fe6080604052600436101561001257600080fd5b60003560e01c806301ffc9a71461023d5780630b0fd47e146102385780630edcce7e1461023357806316fe5f301461022e57806320037cdd14610229578063248a9ca314610224578063263cb6b61461021f578063266e2bd81461021a5780632f2ff15d146102155780633626e235146101f257806336568abe146102105780633a4a15e51461020b57806356688700146102065780636459d3a41461020157806365d8480b146101fc5780636cdb1d59146101f7578063778a207a146101f25780637ad51f7e146101ed5780638197a163146101e8578063827059ff146101e3578063913f7e75146101de57806391d14854146101d95780639784bd56146101d4578063a13a240e146101cf578063a217fddf146101ca578063a58b615c146101c5578063a760280c146101c0578063c91ecf2e146101bb578063cbf7a57f146101b6578063cf671a7a146101b1578063d547741f146101ac578063d5c05eff146101a7578063e1f1c4a7146101a2578063e3580df01461019d5763ed28cc5a0361024257610bbb565b610b7c565b610b1c565b610af1565b610ad8565b610abf565b610a91565b610a62565b610a29565b610a11565b6109f6565b6109b0565b610888565b61085c565b610841565b610813565b6107e5565b6107b5565b6106be565b610785565b610769565b61074d565b610734565b61071b565b6106d9565b610680565b610642565b610626565b61056d565b610500565b6104c4565b610432565b6103c6565b610284565b600080fd5b6001600160e01b031981165b0361024257565b9050359061026782610247565b565b906020828203126102425761027d9161025a565b90565b9052565b34610242576102b161029f61029a366004610269565b610bd7565b60405191829182901515815260200190565b0390f35b6001600160a01b031690565b6001600160a01b038116610253565b90503590610267826102c1565b906020828203126102425761027d916102d0565b6102b561027d61027d926001600160a01b031690565b61027d906102f1565b61027d90610307565b9061032390610310565b600052602052604060002090565b61027d9081565b61027d9054610331565b61034d906002610319565b61035681610338565b9161036360018301610338565b9161037060028201610338565b9161027d600461038260038501610338565b9301610338565b90959492610267946103bb6103c2926103b46080966103ad60a088019c6000890152565b6020870152565b6040850152565b6060830152565b0152565b34610242576102b16103e16103dc3660046102dd565b610342565b916103ee95939560405190565b95869586610389565b610402906005610319565b805460ff16610356565b901515815260a0810195946102679490936080936103c292916103bb916103b4906103ad565b34610242576102b161044d6104483660046102dd565b6103f7565b9161045a95939560405190565b9586958661040c565b61046e906006610319565b9061047882610338565b9161048560018201610338565b9161027d600361038260028501610338565b6103c2610267946104bd6060949897956104b6608086019a6000870152565b6020850152565b6040830152565b34610242576102b16104df6104da3660046102dd565b610463565b906104ec94929460405190565b94859485610497565b600091031261024257565b34610242576105103660046104f5565b6102b17f42802a37d17e698ec3d88f7a6917f1f5a6abb4d99a8f4255c389e56d10218a645b6040515b9182918290815260200190565b80610253565b9050359061026782610546565b906020828203126102425761027d9161054c565b34610242576102b1610535610583366004610559565b610c43565b91906040838203126102425761027d9060206105a482866102d0565b940161054c565b634e487b7160e01b600052603260045260246000fd5b80548210156105e4576105db600191600052602060002090565b91020190600090565b6105ab565b61027d916008021c81565b9061027d91546105e9565b61060a906004610319565b80548210156102425761027d91610620916105c1565b906105f4565b34610242576102b161053561063c366004610588565b906105ff565b34610242576102b16105356106583660046102dd565b610d62565b91906040838203126102425761027d906020610679828661054c565b94016102d0565b346102425761069961069336600461065d565b90610def565b604051005b61027d61027d61027d9290565b61027d6103e861069e565b61027d6106ab565b34610242576106ce3660046104f5565b6102b16105356106b6565b34610242576106996106ec36600461065d565b90610df9565b90916060828403126102425761027d61070b84846102d0565b9360406105a4826020870161054c565b346102425761069961072e3660046106f2565b9161103a565b3461024257610699610747366004610588565b90611228565b34610242576102b1610535610763366004610588565b90611232565b34610242576102b161053561077f366004610588565b90611784565b3461024257610699610798366004610559565b61197e565b6007548110156102425761062061027d9160076105c1565b34610242576102b16105356107cb366004610559565b61079d565b60006107e061027d926008610319565b6105f4565b34610242576102b16105356107fb3660046102dd565b6107d0565b61027d610e1061069e565b61027d610800565b34610242576108233660046104f5565b6102b161053561080b565b61027d6107d061069e565b61027d61082e565b34610242576108513660046104f5565b6102b1610535610839565b34610242576102b161029f61087236600461065d565b90611987565b60006107e061027d92600a610319565b34610242576102b161053561089e3660046102dd565b610878565b90610323565b61027d906102b5565b61027d90546108a9565b6108c79060036108a3565b6108d0816108b2565b916108dd600183016108b2565b916108ea60028201610338565b916108f760038301610338565b9161090460048201610338565b9161027d600661091660058501610338565b93015460ff1690565b634e487b7160e01b600052602160045260246000fd5b6005111561093f57565b61091f565b9061026782610935565b61027d90610944565b6102809061094e565b949290979695939160e086019860008701610982916001600160a01b03169052565b6001600160a01b0316602086015260408501526060840152608083015260a082015260c00161026791610957565b34610242576102b16109cb6109c6366004610559565b6108bc565b936109db97959793919360405190565b97889788610960565b61027d600061069e565b61027d6109e4565b3461024257610a063660046104f5565b6102b16105356109ee565b3461024257610699610a243660046102dd565b611b14565b3461024257610a393660046104f5565b6102b17fb2e3ee861706f0756afea8a5257301f83561f9ac10b8f43b771dc928566f8c61610535565b34610242576102b1610535610a78366004610588565b90611b73565b9081526040810192916102679160200152565b3461024257610aa13660046104f5565b610aa9611d27565b906102b1610ab660405190565b92839283610a7e565b3461024257610699610ad2366004610588565b90611e05565b3461024257610699610aeb36600461065d565b90611e2a565b3461024257610699610b04366004610559565b611fb6565b61027d61271061069e565b61027d610b09565b3461024257610b2c3660046104f5565b6102b1610535610b14565b919060a08382031261024257610b4d81846102d0565b92610b5b826020830161054c565b9261027d610b6c846040850161054c565b9360806105a4826060870161054c565b3461024257610699610b8f366004610b37565b939290926120c3565b906103239061069e565b6107e061027d92610bb66000936009610319565b610b98565b34610242576102b1610535610bd1366004610588565b90610ba2565b7f7965db0b000000000000000000000000000000000000000000000000000000006001600160e01b0319821614908115610c0f575090565b61027d91506001600160e01b0319167f01ffc9a7000000000000000000000000000000000000000000000000000000001490565b6001610c5c61027d92610c54600090565b5060006108a3565b01610338565b634e487b7160e01b600052604160045260246000fd5b90601f01601f1916810190811067ffffffffffffffff821117610c9a57604052565b610c62565b90610267610cac60405190565b9283610c78565b61027d60a0610c9f565b90610267610d216004610cce610cb3565b94610cdf610cdb82610338565b8752565b610cf5610cee60018301610338565b6020880152565b610d0b610d0460028301610338565b6040880152565b610c5c610d1a60038301610338565b6060880152565b6080840152565b61027d90610cbd565b634e487b7160e01b600052601160045260246000fd5b9190610d52565b9290565b8203918211610d5d57565b610d31565b610d79610d7e91610d71600090565b506002610319565b610d28565b60208101906040610d8d835190565b910190610da2610d9e61027d845190565b9190565b11610db357505061027d600061069e565b610dc6610dc161027d935190565b915190565b90610d47565b9061026791610de2610ddd82610c43565b6120d0565b90610dec916120db565b50565b9061026791610dcc565b90610e03336102b5565b6001600160a01b03821603610e1b57610dec91612160565b6040517f6697b232000000000000000000000000000000000000000000000000000000008152600490fd5b0390fd5b906102679291610e5b610ddd6109e4565b610fc3565b0190565b15610e6b57565b60405162461bcd60e51b815260206004820152601260248201527f5468726573686f6c6420746f6f206869676800000000000000000000000000006044820152606490fd5b15610eb757565b60405162461bcd60e51b815260206004820152601260248201527f436f6f6c646f776e20746f6f2073686f727400000000000000000000000000006044820152606490fd5b9060ff905b9181191691161790565b90610f1b61027d610f2292151590565b8254610efc565b9055565b9060001990610f01565b90610f4061027d610f229261069e565b8254610f26565b6004610fb2608061026794610f68610f626000830151151590565b86610f0b565b610f7f610f76602083015190565b60018701610f30565b610f96610f8d604083015190565b60028701610f30565b610fad610fa4606083015190565b60038701610f30565b015190565b9101610f30565b9061026791610f47565b6110359061100f61026794610fe4610fdc61232861069e565b861115610e64565b610ffa610ff261025861069e565b821015610eb0565b6103b4611005610cb3565b60008152956103ad565b61102e61101c600061069e565b611027816060870152565b6080850152565b6005610319565b610fb9565b906102679291610e4a565b90611057916110526121c6565b61110d565b61026761221f565b1561106657565b60405162461bcd60e51b815260206004820152600e60248201527f496e76616c696420616d6f756e740000000000000000000000000000000000006044820152606490fd5b91908201809211610d5d57565b81810292918115918404141715610d5d57565b634e487b7160e01b600052601260045260246000fd5b81156110eb570490565b6110cb565b6001600160a01b0390911681526040810192916102679160200152565b907fc17cea59c2955cb181b03393209566960365771dbba9dc3d510180e7cb3120889161114561113d600061069e565b835b1161105f565b6111638261115283610310565b61115b30610310565b90339061227b565b61117161027d826002610319565b8061118d6111878561118284610338565b6110ab565b83610f30565b6111a7600182016111a18661118283610338565b90610f30565b6111b44260048301610f30565b6111bd82610338565b6111ca610d9e600061069e565b116111ec575b50506111e76111de60405190565b928392836110f0565b0390a1565b6003610fb26112219361121b61121561120760028701610338565b61120f610b09565b906110b8565b91610338565b906110e1565b38806111d0565b9061026791611045565b90611245610d7961027d93610d71600090565b611250610e1061069e565b9161127561126b61126060075490565b61120f61025861069e565b61121b606461069e565b906020611282600061069e565b93018361129061027d835190565b116112a2575b505061118291926110ab565b6111829350906112cd856112c86112d29461121b610dc16112c1610b09565b80976110b8565b6110b8565b6110e1565b9138611296565b906112ec92916112e76121c6565b611521565b9061026761221f565b156112fc57565b60405162461bcd60e51b815260206004820152601660248201527f4369726375697420627265616b657220616374697665000000000000000000006044820152606490fd5b1561134857565b60405162461bcd60e51b815260206004820152601460248201527f4461696c79206c696d69742065786365656465640000000000000000000000006044820152606490fd5b610280906001600160a01b031660601b90565b926113c56014610e60946113c582886113bd60209b9a8c9961138d565b01809261138d565b01918252565b61027d60e0610c9f565b9061028090610944565b906001600160a01b0390610f01565b906113fe61027d610f2292610310565b82546113df565b61027d9051610944565b90610f1b61027d610f229261094e565b60066114b760c06102679461144761144160008301516001600160a01b031690565b866113ee565b61146761145e60208301516001600160a01b031690565b600187016113ee565b611475610f8d604083015190565b611483610fa4606083015190565b61149a611491608083015190565b60048701610f30565b6114b16114a860a083015190565b60058701610f30565b01611405565b910161140f565b906102679161141f565b9160001960089290920291821b911b610f01565b91906114eb61027d610f229390565b9083546114c8565b9081549168010000000000000000831015610c9a578261151b916001610267950181556105c1565b906114dc565b5060006115366115308261069e565b8461113f565b61155c6115576115538361154b866005610319565b015460ff1690565b1590565b6112f5565b61157161156b6201518061069e565b426110e1565b928061158a61158586610bb6876009610319565b610338565b611598611585866008610319565b906115a28561069e565b8211611762575b50506115b86116e89185611b73565b936116c66115c68685610d47565b936111a16116bc6115d660405190565b6115f781602081016115eb42888b33856113a0565b90810382520382610c78565b611609611602825190565b9160200190565b209961168f61162161161b8689611232565b426110ab565b61165e61162c6113cb565b338d820152916001600160a01b038a16602084015261164c8c6040850152565b611657426060850152565b6080830152565b61167f61166a8c61069e565b9b6116768d60a0850152565b60c083016113d5565b61168a8d60036108a3565b6114be565b61169f8b60076114f3565b6114f3565b6116b18b61169a61027d336004610319565b610bb6866009610319565b9161118283610338565b6116e360026116d58382610319565b016111a18561118283610338565b6122c5565b7f9c089cc0fdbab29c0e65f3512c8fc12103af382382dabe473b3daffcd1b5487e611721859261171760405190565b91829133836110f0565b0390a2811161172e575090565b61175c7f712fb316d470ee649a8ec97a7aee0727fe7c8a725955001faee3d5e4e4d248109161171760405190565b0390a190565b610d9e610d4e61177c94611775936110ab565b1115611341565b8038806115a9565b61027d919060006112d9565b610267906117bd7fb2e3ee861706f0756afea8a5257301f83561f9ac10b8f43b771dc928566f8c616120d0565b6117d1565b6000198114610d5d5760010190565b60006117dc8161069e565b9182935b60076117ed61027d825490565b861080611975575b1561196d5761062086611807926105c1565b60039061181761027d82846108a3565b906006820191611828835460ff1690565b61183a61183489610944565b91610944565b1480611955575b611882575b505061183461185961185f925460ff1690565b92610944565b036118725761186d856126ca565b6117e0565b9361187c906117c2565b936117e0565b600181989398016002611897610658836108b2565b9201906118a661027d83610338565b83106118d3575050506118596118ca61185f936118c561183494612436565b6117c2565b975b9250611846565b6118df8994939461069e565b8411156119055750506118ff61185f936118c56118349461185994612517565b976118cc565b61192092935061121561191a919a959a6108b2565b906123c8565b611935575b5061183461185961185f926118cc565b61185961194c61185f93986118c561183494612436565b97925050611925565b5061196561027d60048301610338565b421015611841565b509350505050565b508285106117f5565b61026790611790565b61027d9160006119a36119a99361199c600090565b50826108a3565b01610319565b5460ff1690565b610267906119dd7fb2e3ee861706f0756afea8a5257301f83561f9ac10b8f43b771dc928566f8c616120d0565b611a7a565b156119e957565b60405162461bcd60e51b815260206004820152600a60248201527f4e6f7420616374697665000000000000000000000000000000000000000000006044820152606490fd5b15611a3557565b60405162461bcd60e51b815260206004820152601560248201527f436f6f6c646f776e206e6f7420636f6d706c65746500000000000000000000006044820152606490fd5b61027d611a88916005610319565b611a9b611a96825460ff1690565b6119e2565b611aa760038201610338565b90611acd611ac561027d6002840194611abf86610338565b906110ab565b421015611a2e565b611ad8600082610f0b565b611ae460048201610338565b611af1610d9e600361069e565b11611afa575050565b6002610fb2611b0b61026794610338565b61120f8361069e565b610267906119b0565b61027d6080610c9f565b90610267611b636003611b38611b1d565b94611b45610cdb82610338565b611b54610cee60018301610338565b610c5c610d0460028301610338565b6060840152565b61027d90611b27565b611c229061027d92611b83600090565b50611ba5610d79611b9d611b98856006610319565b611b6a565b936002610319565b91611bae835190565b92600093611bbe610d9e8661069e565b1115611c6e57611be38161121b86611bdd6112076040611beb97015190565b92015190565b935b82015190565b809360408301611bfc61027d825190565b821015611c33575b505050606001611c1561027d825190565b8311611c2a575b506110b8565b61121b610b09565b51915038611c1c565b6060939550611c22611c5b611c51611c659594610dc6611abf955190565b61120f600261069e565b60208801516110b8565b92903880611c04565b50611beb611c7b8461069e565b93611be5565b90610267611d156006611c926113cb565b94611cac611c9f826108b2565b6001600160a01b03168752565b611ccb611cbb600183016108b2565b6001600160a01b03166020880152565b611cda610d0460028301610338565b611ce9610d1a60038301610338565b611cff611cf860048301610338565b6080880152565b61154b611d0e60058301610338565b60a0880152565b60c084016113d5565b61027d90611c81565b600090600791611d35835490565b90600091611d43600061069e565b611d4e61027d875490565b811015611dbb57611d75611d706003611d6a610620858b6105c1565b906108a3565b611d1e565b611d8160c08201611405565b611d8d61183487610944565b14611da1575b50600101611d43565b611d43565b611d9c9193611abf6040611db493015190565b9290611d93565b509350919050565b6102679190611df17fb2e3ee861706f0756afea8a5257301f83561f9ac10b8f43b771dc928566f8c616120d0565b90611e00610267926008610319565b610f30565b9061026791611dc3565b9061026791611e20610ddd82610c43565b90610dec91612160565b9061026791611e0f565b61105790611e406121c6565b611edd565b15611e4c57565b60405162461bcd60e51b815260206004820152601160248201527f4e6f742072657175657374206f776e65720000000000000000000000000000006044820152606490fd5b15611e9857565b60405162461bcd60e51b815260206004820152600d60248201527f43616e6e6f742063616e63656c000000000000000000000000000000000000006044820152606490fd5b611f6e611eee61027d8360036108a3565b611f0a611efa826108b2565b6001600160a01b03163314611e45565b611f39600460068301611f34611f21825460ff1690565b611f2e6118346000610944565b14611e91565b61140f565b6111a16002611f5e611f586001611f51848701610338565b95016108b2565b82610319565b0191611f6983610338565b610d47565b611f78600061069e565b6007611f8561027d825490565b821015611fb15761062082611f99926105c1565b8214611fa757600101611f78565b61026791506126ca565b505050565b61026790611e34565b9061026794939291611fd2610ddd6109e4565b612068565b15611fde57565b60405162461bcd60e51b815260206004820152600c60248201527f46656520746f6f206869676800000000000000000000000000000000000000006044820152606490fd5b6003610fb260606102679461204261203c600083015190565b86610f30565b612050610f76602083015190565b610fad610f8d604083015190565b9061026791612023565b9092610267946120b06120b7926120a96120be9661209261208a6103e861069e565b861115611fd7565b6120a261209d611b1d565b998a52565b6020890152565b6040870152565b6060850152565b6006610319565b61205e565b9061026794939291611fbf565b61026790339061271c565b6120e86115538383611987565b156121595761210760016121028460006119a386826108a3565b610f0b565b61212561211f612119339390565b9390565b93610310565b91610310565b917f2f8788117e7eff1d82e926ec794901d17c78024a50270940304540a733656f0d61215060405190565b600090a4600190565b5050600090565b61216a8282611987565b1561215957612183600061210284826119a386826108a3565b61219161211f612119339390565b917ff6391f5c32d9c69d2a47ea670b442974b53935d1edc7fd64eb21e047a839171b61215060405190565b61027d600261069e565b6121d06001610338565b6121d86121bc565b9081146121ea57610267906001610f30565b6040517f3ee5aeb5000000000000000000000000000000000000000000000000000000008152600490fd5b61027d600161069e565b61026761222a612215565b6001610f30565b61224a61224461027d9263ffffffff1690565b60e01b90565b6001600160e01b03191690565b6001600160a01b039182168152911660208201526060810192916102679160400152565b906122c0906122b1610267956004956122976323b872dd612231565b936122a160405190565b9788956020870190815201612257565b60208201810382520383610c78565b61276d565b6122d3610d79826002610319565b906122e261027d826005610319565b906122eb835190565b926000936122fb610d9e8661069e565b11156123b8578061121b85611bdd611207604061231796015190565b915b61232861027d60018301610338565b831015806123a2575b61233c575b50505050565b60048161237060017f208173a32f19abb9d59872fae2b8fe5ab46c53c8134e838c84315d545030d03a9761238a9501610f0b565b61237d4260038301610f30565b016111a16118c582610338565b6123966111de60405190565b0390a138808080612336565b506123b36115538583015460ff1690565b612331565b506123c28361069e565b91612319565b906123d761158583600a610319565b8111156123e5575050600090565b816124226124157f30c6fad02347a60160e0063ebc2d95bc33cb2eb2e694ca02a46c1d1d13be7f2a94600a610319565b6111a184611f6983610338565b61242e6111de60405190565b0390a1600190565b7f822b739549632a5fb97d1e6144afcdac06b5c7143c7b3e4804545cf324ea2fc26125126125086121156124f161158561247461027d8860036108a3565b6111a160018201916124d461249061248b856108b2565b610310565b6124b161249c846108b2565b9160028501926124ab84610338565b9161282e565b6124c66124bd82610338565b60058501610f30565b61158560036006850161140f565b9060029586926111a16001611f5e6124eb896108b2565b87610319565b0193611f5e611f5861250287610338565b946108b2565b9261053960405190565b0390a2565b6125126125087f822b739549632a5fb97d1e6144afcdac06b5c7143c7b3e4804545cf324ea2fc29261027d61255061027d8360036108a3565b60018101906125748861256561248b856108b2565b61256e846108b2565b9061282e565b612588600582016111a18a61118283610338565b6125a56002820161158561259f8b611f6984610338565b82610f30565b6125b2610d9e600061069e565b0361260057600360066125c5920161140f565b6125f2611f586002926125ed60016125df6124eb846108b2565b016111a18c611f6983610338565b6108b2565b016111a187611f6983610338565b806126126002600661262f940161140f565b6004610fb261161b612623866108b2565b61076360028601610338565b6125c5565b1561263b57565b60405162461bcd60e51b815260206004820152600d60248201527f496e76616c696420696e646578000000000000000000000000000000000000006044820152606490fd5b634e487b7160e01b600052603160045260246000fd5b610267916000916114dc565b805480156126c55760001901906126c26126bc83836105c1565b90612696565b55565b612680565b6127176102679161027d6007916126ec6126e561027d855490565b8210612634565b61151b61271061062061270a612700875490565b610dc6600161069e565b866105c1565b91846105c1565b6126a2565b9061272a6115538284611987565b612732575050565b610e4661273e60405190565b9283927fe2517d3f000000000000000000000000000000000000000000000000000000008452600484016110f0565b90600060209161277b600090565b50828151910182855af115612822573d6000519061279c610d9e600061069e565b0361280e57506127ab81610310565b3b6127b9610d9e600061069e565b145b6127c25750565b6127ce610e4691610310565b6040519182917f5274afe7000000000000000000000000000000000000000000000000000000008352600483016001600160a01b03909116815260200190565b61281b610d9e600161069e565b14156127bb565b6040513d6000823e3d90fd5b6122c06004926122b16102679561284863a9059cbb612231565b9261285260405190565b96879460208601908152016110f056fea2646970667358221220dd17e4759560b5ec06bcb873ffde07468474db1009c4391cd325eadd6dd8626c64736f6c63430008160033",
  "linkReferences": {},
  "deployedLinkReferences": {}
}