{
  "_format": "hh-sol-artifact-1",
  "contractName": "SimpleTest",
  "sourceName": "contracts/SimpleTest.sol",
  "abi": [
    {
      "inputs": [],
      "stateMutability": "nonpayable",
      "type": "constructor"
    },
    {
      "inputs": [],
      "name": "getValue",
      "outputs": [
        {
          "internalType": "uint256",
          "name": "",
          "type": "uint256"
        }
      ],
      "stateMutability": "view",
      "type": "function"
    },
    {
      "inputs": [
        {
          "internalType": "uint256",
          "name": "_value",
          "type": "uint256"
        }
      ],
      "name": "setValue",
      "outputs": [],
      "stateMutability": "nonpayable",
      "type": "function"
    },
    {
      "inputs": [],
      "name": "value",
      "outputs": [
        {
          "internalType": "uint256",
          "name": "",
          "type": "uint256"
        }
      ],
      "stateMutability": "view",
      "type": "function"
    }
  ],
  "bytecode": "0x6080604052346100225761001161004b565b604051610171610062823961017190f35b600080fd5b6100346100346100349290565b90565b9061003461003461004792610027565b9055565b61005f610058602a610027565b6000610037565b56fe6080604052600436101561001257600080fd5b60003560e01c806320965255146100425780633fa4f2451461003d57635524107703610047576100d7565b6100ac565b610059565b600080fd5b600091031261004757565b565b346100475761006936600461004c565b610084610074610105565b6040519182918290815260200190565b0390f35b610093916008021c81565b90565b906100939154610088565b610093600080610096565b34610047576100bc36600461004c565b6100846100746100a1565b9060208282031261004757503590565b34610047576100ef6100ea3660046100c7565b610130565b604051005b6100939081565b61009390546100f4565b61009360006100fb565b6100936100936100939290565b9061009361009361012c9261010f565b9055565b61005790600061011c56fea26469706673582212201025f51119575a37621ded659568601ff29a422d6eb7445d46cb82ee0efa9ec564736f6c63430008160033",
  "linkReferences": {},
  "deployedLinkReferences": {}
}