{
  "_format": "hh-sol-artifact-1",
  "contractName": "TestContract",
  "sourceName": "contracts/TestContract.sol",
  "abi": [
    {
      "inputs": [],
      "stateMutability": "nonpayable",
      "type": "constructor"
    },
    {
      "anonymous": false,
      "inputs": [
        {
          "indexed": false,
          "internalType": "uint256",
          "name": "newValue",
          "type": "uint256"
        }
      ],
      "name": "ValueUpdated",
      "type": "event"
    },
    {
      "inputs": [],
      "name": "getOwner",
      "outputs": [
        {
          "internalType": "address",
          "name": "",
          "type": "address"
        }
      ],
      "stateMutability": "view",
      "type": "function"
    },
    {
      "inputs": [],
      "name": "getValue",
      "outputs": [
        {
          "internalType": "uint256",
          "name": "",
          "type": "uint256"
        }
      ],
      "stateMutability": "view",
      "type": "function"
    },
    {
      "inputs": [],
      "name": "owner",
      "outputs": [
        {
          "internalType": "address",
          "name": "",
          "type": "address"
        }
      ],
      "stateMutability": "view",
      "type": "function"
    },
    {
      "inputs": [
        {
          "internalType": "uint256",
          "name": "_value",
          "type": "uint256"
        }
      ],
      "name": "setValue",
      "outputs": [],
      "stateMutability": "nonpayable",
      "type": "function"
    },
    {
      "inputs": [],
      "name": "value",
      "outputs": [
        {
          "internalType": "uint256",
          "name": "",
          "type": "uint256"
        }
      ],
      "stateMutability": "view",
      "type": "function"
    }
  ],
  "bytecode": "0x608060405234610022576100116100ba565b6040516102886100dc823961028890f35b600080fd5b906001600160a01b03905b9181191691161790565b61005090610053906001600160a01b031682565b90565b6001600160a01b031690565b6100509061003c565b6100509061005f565b9061008161005061008892610068565b8254610027565b9055565b6100506100506100509290565b9060001990610032565b906100b36100506100889261008c565b8254610099565b6100c5336001610071565b6100d96100d2602a61008c565b60006100a3565b56fe6080604052600436101561001257600080fd5b60003560e01c806320965255146100625780633fa4f2451461005d5780635524107714610058578063893d20e81461005357638da5cb5b03610067576101a9565b61014a565b6100fb565b6100d0565b61007d565b600080fd5b600091031261006757565b9052565b565b346100675761008d36600461006c565b6100a86100986101d5565b6040519182918290815260200190565b0390f35b6100b7916008021c81565b90565b906100b791546100ac565b6100b76000806100ba565b34610067576100e036600461006c565b6100a86100986100c5565b9060208282031261006757503590565b346100675761011361010e3660046100eb565b610200565b604051005b73ffffffffffffffffffffffffffffffffffffffff1690565b61007790610118565b60208101929161007b9190610131565b346100675761015a36600461006c565b6100a8610165610248565b6040519182918261013a565b6100b7916008021c73ffffffffffffffffffffffffffffffffffffffff1690565b906100b79154610171565b6100b760006001610192565b34610067576101b936600461006c565b6100a861016561019d565b6100b79081565b6100b790546101c4565b6100b760006101cb565b6100b76100b76100b79290565b906100b76100b76101fc926101df565b9055565b6102307f4273d0736f60e0dedfe745e86718093d8ec8646ebd2a60cd60643eeced565811916100988160006101ec565b0390a1565b6100b790610118565b6100b79054610235565b6100b7600161023e56fea2646970667358221220a9c1ca0785bc9eda04e97461912e1bc447b9bb40ee15f35dc4537dc8e566b3bc64736f6c63430008160033",
  "linkReferences": {},
  "deployedLinkReferences": {}
}