{
  "_format": "hh-sol-artifact-1",
  "contractName": "RebalancingVault",
  "sourceName": "contracts/RebalancingVault.sol",
  "abi": [
    {
      "inputs": [
        {
          "internalType": "contract IERC20",
          "name": "_asset",
          "type": "address"
        },
        {
          "internalType": "string",
          "name": "_name",
          "type": "string"
        },
        {
          "internalType": "string",
          "name": "_symbol",
          "type": "string"
        }
      ],
      "stateMutability": "nonpayable",
      "type": "constructor"
    },
    {
      "inputs": [],
      "name": "AccessControlBadConfirmation",
      "type": "error"
    },
    {
      "inputs": [
        {
          "internalType": "address",
          "name": "account",
          "type": "address"
        },
        {
          "internalType": "bytes32",
          "name": "neededRole",
          "type": "bytes32"
        }
      ],
      "name": "AccessControlUnauthorizedAccount",
      "type": "error"
    },
    {
      "inputs": [
        {
          "internalType": "address",
          "name": "spender",
          "type": "address"
        },
        {
          "internalType": "uint256",
          "name": "allowance",
          "type": "uint256"
        },
        {
          "internalType": "uint256",
          "name": "needed",
          "type": "uint256"
        }
      ],
      "name": "ERC20InsufficientAllowance",
      "type": "error"
    },
    {
      "inputs": [
        {
          "internalType": "address",
          "name": "sender",
          "type": "address"
        },
        {
          "internalType": "uint256",
          "name": "balance",
          "type": "uint256"
        },
        {
          "internalType": "uint256",
          "name": "needed",
          "type": "uint256"
        }
      ],
      "name": "ERC20InsufficientBalance",
      "type": "error"
    },
    {
      "inputs": [
        {
          "internalType": "address",
          "name": "approver",
          "type": "address"
        }
      ],
      "name": "ERC20InvalidApprover",
      "type": "error"
    },
    {
      "inputs": [
        {
          "internalType": "address",
          "name": "receiver",
          "type": "address"
        }
      ],
      "name": "ERC20InvalidReceiver",
      "type": "error"
    },
    {
      "inputs": [
        {
          "internalType": "address",
          "name": "sender",
          "type": "address"
        }
      ],
      "name": "ERC20InvalidSender",
      "type": "error"
    },
    {
      "inputs": [
        {
          "internalType": "address",
          "name": "spender",
          "type": "address"
        }
      ],
      "name": "ERC20InvalidSpender",
      "type": "error"
    },
    {
      "inputs": [
        {
          "internalType": "address",
          "name": "receiver",
          "type": "address"
        },
        {
          "internalType": "uint256",
          "name": "assets",
          "type": "uint256"
        },
        {
          "internalType": "uint256",
          "name": "max",
          "type": "uint256"
        }
      ],
      "name": "ERC4626ExceededMaxDeposit",
      "type": "error"
    },
    {
      "inputs": [
        {
          "internalType": "address",
          "name": "receiver",
          "type": "address"
        },
        {
          "internalType": "uint256",
          "name": "shares",
          "type": "uint256"
        },
        {
          "internalType": "uint256",
          "name": "max",
          "type": "uint256"
        }
      ],
      "name": "ERC4626ExceededMaxMint",
      "type": "error"
    },
    {
      "inputs": [
        {
          "internalType": "address",
          "name": "owner",
          "type": "address"
        },
        {
          "internalType": "uint256",
          "name": "shares",
          "type": "uint256"
        },
        {
          "internalType": "uint256",
          "name": "max",
          "type": "uint256"
        }
      ],
      "name": "ERC4626ExceededMaxRedeem",
      "type": "error"
    },
    {
      "inputs": [
        {
          "internalType": "address",
          "name": "owner",
          "type": "address"
        },
        {
          "internalType": "uint256",
          "name": "assets",
          "type": "uint256"
        },
        {
          "internalType": "uint256",
          "name": "max",
          "type": "uint256"
        }
      ],
      "name": "ERC4626ExceededMaxWithdraw",
      "type": "error"
    },
    {
      "inputs": [],
      "name": "EnforcedPause",
      "type": "error"
    },
    {
      "inputs": [],
      "name": "ExpectedPause",
      "type": "error"
    },
    {
      "inputs": [],
      "name": "ReentrancyGuardReentrantCall",
      "type": "error"
    },
    {
      "inputs": [
        {
          "internalType": "address",
          "name": "token",
          "type": "address"
        }
      ],
      "name": "SafeERC20FailedOperation",
      "type": "error"
    },
    {
      "anonymous": false,
      "inputs": [
        {
          "indexed": true,
          "internalType": "address",
          "name": "owner",
          "type": "address"
        },
        {
          "indexed": true,
          "internalType": "address",
          "name": "spender",
          "type": "address"
        },
        {
          "indexed": false,
          "internalType": "uint256",
          "name": "value",
          "type": "uint256"
        }
      ],
      "name": "Approval",
      "type": "event"
    },
    {
      "anonymous": false,
      "inputs": [
        {
          "indexed": true,
          "internalType": "address",
          "name": "fromToken",
          "type": "address"
        },
        {
          "indexed": true,
          "internalType": "address",
          "name": "toToken",
          "type": "address"
        },
        {
          "indexed": false,
          "internalType": "uint256",
          "name": "amountIn",
          "type": "uint256"
        },
        {
          "indexed": false,
          "internalType": "uint256",
          "name": "amountOut",
          "type": "uint256"
        },
        {
          "indexed": false,
          "internalType": "string",
          "name": "protocol",
          "type": "string"
        }
      ],
      "name": "AutoRebalanceExecuted",
      "type": "event"
    },
    {
      "anonymous": false,
      "inputs": [
        {
          "indexed": true,
          "internalType": "address",
          "name": "tokenFrom",
          "type": "address"
        },
        {
          "indexed": true,
          "internalType": "address",
          "name": "tokenTo",
          "type": "address"
        },
        {
          "indexed": false,
          "internalType": "uint256",
          "name": "amount",
          "type": "uint256"
        },
        {
          "indexed": false,
          "internalType": "uint256",
          "name": "currentRatio",
          "type": "uint256"
        },
        {
          "indexed": false,
          "internalType": "uint256",
          "name": "targetRatio",
          "type": "uint256"
        }
      ],
      "name": "AutoRebalanced",
      "type": "event"
    },
    {
      "anonymous": false,
      "inputs": [
        {
          "indexed": true,
          "internalType": "address",
          "name": "user",
          "type": "address"
        },
        {
          "indexed": true,
          "internalType": "uint256",
          "name": "indexTokenId",
          "type": "uint256"
        },
        {
          "indexed": false,
          "internalType": "uint256",
          "name": "assets",
          "type": "uint256"
        },
        {
          "indexed": false,
          "internalType": "uint256",
          "name": "shares",
          "type": "uint256"
        }
      ],
      "name": "CrossChainMessageSent",
      "type": "event"
    },
    {
      "anonymous": false,
      "inputs": [
        {
          "indexed": true,
          "internalType": "address",
          "name": "oldAggregator",
          "type": "address"
        },
        {
          "indexed": true,
          "internalType": "address",
          "name": "newAggregator",
          "type": "address"
        }
      ],
      "name": "DEXAggregatorUpdated",
      "type": "event"
    },
    {
      "anonymous": false,
      "inputs": [
        {
          "indexed": true,
          "internalType": "address",
          "name": "sender",
          "type": "address"
        },
        {
          "indexed": true,
          "internalType": "address",
          "name": "owner",
          "type": "address"
        },
        {
          "indexed": false,
          "internalType": "uint256",
          "name": "assets",
          "type": "uint256"
        },
        {
          "indexed": false,
          "internalType": "uint256",
          "name": "shares",
          "type": "uint256"
        }
      ],
      "name": "Deposit",
      "type": "event"
    },
    {
      "anonymous": false,
      "inputs": [
        {
          "indexed": false,
          "internalType": "uint256",
          "name": "timestamp",
          "type": "uint256"
        }
      ],
      "name": "EmergencyRebalanceDisabled",
      "type": "event"
    },
    {
      "anonymous": false,
      "inputs": [
        {
          "indexed": false,
          "internalType": "address",
          "name": "token",
          "type": "address"
        },
        {
          "indexed": false,
          "internalType": "uint256",
          "name": "amount",
          "type": "uint256"
        },
        {
          "indexed": false,
          "internalType": "address",
          "name": "recipient",
          "type": "address"
        }
      ],
      "name": "EmergencyWithdrawal",
      "type": "event"
    },
    {
      "anonymous": false,
      "inputs": [
        {
          "indexed": true,
          "internalType": "address",
          "name": "feeType",
          "type": "address"
        },
        {
          "indexed": false,
          "internalType": "uint256",
          "name": "amount",
          "type": "uint256"
        },
        {
          "indexed": false,
          "internalType": "uint256",
          "name": "timestamp",
          "type": "uint256"
        }
      ],
      "name": "FeeCollected",
      "type": "event"
    },
    {
      "anonymous": false,
      "inputs": [
        {
          "indexed": false,
          "internalType": "uint256",
          "name": "profit",
          "type": "uint256"
        },
        {
          "indexed": false,
          "internalType": "uint256",
          "name": "performanceFeeAmount",
          "type": "uint256"
        },
        {
          "indexed": false,
          "internalType": "uint256",
          "name": "timestamp",
          "type": "uint256"
        }
      ],
      "name": "Harvest",
      "type": "event"
    },
    {
      "anonymous": false,
      "inputs": [
        {
          "indexed": false,
          "internalType": "uint256",
          "name": "oldFee",
          "type": "uint256"
        },
        {
          "indexed": false,
          "internalType": "uint256",
          "name": "newFee",
          "type": "uint256"
        }
      ],
      "name": "ManagementFeeUpdated",
      "type": "event"
    },
    {
      "anonymous": false,
      "inputs": [
        {
          "indexed": false,
          "internalType": "uint256",
          "name": "fromIdx",
          "type": "uint256"
        },
        {
          "indexed": false,
          "internalType": "uint256",
          "name": "toIdx",
          "type": "uint256"
        },
        {
          "indexed": false,
          "internalType": "uint256",
          "name": "amount",
          "type": "uint256"
        }
      ],
      "name": "ManualRebalanced",
      "type": "event"
    },
    {
      "anonymous": false,
      "inputs": [
        {
          "indexed": false,
          "internalType": "uint256",
          "name": "newSlippage",
          "type": "uint256"
        }
      ],
      "name": "MaxSlippageUpdated",
      "type": "event"
    },
    {
      "anonymous": false,
      "inputs": [
        {
          "indexed": false,
          "internalType": "address",
          "name": "account",
          "type": "address"
        }
      ],
      "name": "Paused",
      "type": "event"
    },
    {
      "anonymous": false,
      "inputs": [
        {
          "indexed": false,
          "internalType": "uint256",
          "name": "oldFee",
          "type": "uint256"
        },
        {
          "indexed": false,
          "internalType": "uint256",
          "name": "newFee",
          "type": "uint256"
        }
      ],
      "name": "PerformanceFeeUpdated",
      "type": "event"
    },
    {
      "anonymous": false,
      "inputs": [
        {
          "indexed": true,
          "internalType": "address",
          "name": "fromToken",
          "type": "address"
        },
        {
          "indexed": true,
          "internalType": "address",
          "name": "toToken",
          "type": "address"
        },
        {
          "indexed": false,
          "internalType": "uint256",
          "name": "amount",
          "type": "uint256"
        },
        {
          "indexed": false,
          "internalType": "string",
          "name": "reason",
          "type": "string"
        }
      ],
      "name": "RebalanceError",
      "type": "event"
    },
    {
      "anonymous": false,
      "inputs": [
        {
          "indexed": false,
          "internalType": "bool",
          "name": "autoEnabled",
          "type": "bool"
        },
        {
          "indexed": false,
          "internalType": "uint256",
          "name": "interval",
          "type": "uint256"
        },
        {
          "indexed": false,
          "internalType": "uint256",
          "name": "deviationThreshold",
          "type": "uint256"
        },
        {
          "indexed": false,
          "internalType": "uint256",
          "name": "maxSingleSwap",
          "type": "uint256"
        }
      ],
      "name": "RebalanceStrategyUpdated",
      "type": "event"
    },
    {
      "anonymous": false,
      "inputs": [
        {
          "indexed": true,
          "internalType": "bytes32",
          "name": "role",
          "type": "bytes32"
        },
        {
          "indexed": true,
          "internalType": "bytes32",
          "name": "previousAdminRole",
          "type": "bytes32"
        },
        {
          "indexed": true,
          "internalType": "bytes32",
          "name": "newAdminRole",
          "type": "bytes32"
        }
      ],
      "name": "RoleAdminChanged",
      "type": "event"
    },
    {
      "anonymous": false,
      "inputs": [
        {
          "indexed": true,
          "internalType": "bytes32",
          "name": "role",
          "type": "bytes32"
        },
        {
          "indexed": true,
          "internalType": "address",
          "name": "account",
          "type": "address"
        },
        {
          "indexed": true,
          "internalType": "address",
          "name": "sender",
          "type": "address"
        }
      ],
      "name": "RoleGranted",
      "type": "event"
    },
    {
      "anonymous": false,
      "inputs": [
        {
          "indexed": true,
          "internalType": "bytes32",
          "name": "role",
          "type": "bytes32"
        },
        {
          "indexed": true,
          "internalType": "address",
          "name": "account",
          "type": "address"
        },
        {
          "indexed": true,
          "internalType": "address",
          "name": "sender",
          "type": "address"
        }
      ],
      "name": "RoleRevoked",
      "type": "event"
    },
    {
      "anonymous": false,
      "inputs": [
        {
          "indexed": false,
          "internalType": "string",
          "name": "strategyName",
          "type": "string"
        },
        {
          "indexed": false,
          "internalType": "uint256",
          "name": "timestamp",
          "type": "uint256"
        }
      ],
      "name": "StrategyExecuted",
      "type": "event"
    },
    {
      "anonymous": false,
      "inputs": [
        {
          "indexed": true,
          "internalType": "address",
          "name": "fromToken",
          "type": "address"
        },
        {
          "indexed": true,
          "internalType": "address",
          "name": "toToken",
          "type": "address"
        },
        {
          "indexed": false,
          "internalType": "uint256",
          "name": "amountIn",
          "type": "uint256"
        },
        {
          "indexed": false,
          "internalType": "uint256",
          "name": "amountOut",
          "type": "uint256"
        },
        {
          "indexed": true,
          "internalType": "address",
          "name": "initiator",
          "type": "address"
        }
      ],
      "name": "SwapExecuted",
      "type": "event"
    },
    {
      "anonymous": false,
      "inputs": [
        {
          "indexed": false,
          "internalType": "uint256[]",
          "name": "newAllocations",
          "type": "uint256[]"
        }
      ],
      "name": "TargetAllocationsUpdated",
      "type": "event"
    },
    {
      "anonymous": false,
      "inputs": [
        {
          "indexed": true,
          "internalType": "address",
          "name": "from",
          "type": "address"
        },
        {
          "indexed": true,
          "internalType": "address",
          "name": "to",
          "type": "address"
        },
        {
          "indexed": false,
          "internalType": "uint256",
          "name": "value",
          "type": "uint256"
        }
      ],
      "name": "Transfer",
      "type": "event"
    },
    {
      "anonymous": false,
      "inputs": [
        {
          "indexed": false,
          "internalType": "uint32",
          "name": "chainId",
          "type": "uint32"
        },
        {
          "indexed": false,
          "internalType": "bytes32",
          "name": "trustedRemote",
          "type": "bytes32"
        }
      ],
      "name": "TrustedRemoteSet",
      "type": "event"
    },
    {
      "anonymous": false,
      "inputs": [
        {
          "indexed": false,
          "internalType": "address",
          "name": "token",
          "type": "address"
        },
        {
          "indexed": false,
          "internalType": "uint256",
          "name": "allocation",
          "type": "uint256"
        }
      ],
      "name": "UnderlyingTokenAdded",
      "type": "event"
    },
    {
      "anonymous": false,
      "inputs": [
        {
          "indexed": false,
          "internalType": "uint256",
          "name": "index",
          "type": "uint256"
        }
      ],
      "name": "UnderlyingTokenRemoved",
      "type": "event"
    },
    {
      "anonymous": false,
      "inputs": [
        {
          "indexed": false,
          "internalType": "address",
          "name": "account",
          "type": "address"
        }
      ],
      "name": "Unpaused",
      "type": "event"
    },
    {
      "anonymous": false,
      "inputs": [
        {
          "indexed": true,
          "internalType": "uint256",
          "name": "indexTokenId",
          "type": "uint256"
        },
        {
          "indexed": true,
          "internalType": "address",
          "name": "asset",
          "type": "address"
        },
        {
          "indexed": true,
          "internalType": "address",
          "name": "admin",
          "type": "address"
        }
      ],
      "name": "VaultInitialized",
      "type": "event"
    },
    {
      "anonymous": false,
      "inputs": [
        {
          "indexed": true,
          "internalType": "address",
          "name": "sender",
          "type": "address"
        },
        {
          "indexed": true,
          "internalType": "address",
          "name": "receiver",
          "type": "address"
        },
        {
          "indexed": true,
          "internalType": "address",
          "name": "owner",
          "type": "address"
        },
        {
          "indexed": false,
          "internalType": "uint256",
          "name": "assets",
          "type": "uint256"
        },
        {
          "indexed": false,
          "internalType": "uint256",
          "name": "shares",
          "type": "uint256"
        }
      ],
      "name": "Withdraw",
      "type": "event"
    },
    {
      "inputs": [],
      "name": "DEFAULT_ADMIN_ROLE",
      "outputs": [
        {
          "internalType": "bytes32",
          "name": "",
          "type": "bytes32"
        }
      ],
      "stateMutability": "view",
      "type": "function"
    },
    {
      "inputs": [],
      "name": "EMERGENCY_ROLE",
      "outputs": [
        {
          "internalType": "bytes32",
          "name": "",
          "type": "bytes32"
        }
      ],
      "stateMutability": "view",
      "type": "function"
    },
    {
      "inputs": [],
      "name": "FEE_DENOMINATOR",
      "outputs": [
        {
          "internalType": "uint256",
          "name": "",
          "type": "uint256"
        }
      ],
      "stateMutability": "view",
      "type": "function"
    },
    {
      "inputs": [],
      "name": "MANAGER_ROLE",
      "outputs": [
        {
          "internalType": "bytes32",
          "name": "",
          "type": "bytes32"
        }
      ],
      "stateMutability": "view",
      "type": "function"
    },
    {
      "inputs": [],
      "name": "MAX_MANAGEMENT_FEE",
      "outputs": [
        {
          "internalType": "uint256",
          "name": "",
          "type": "uint256"
        }
      ],
      "stateMutability": "view",
      "type": "function"
    },
    {
      "inputs": [],
      "name": "MAX_PERFORMANCE_FEE",
      "outputs": [
        {
          "internalType": "uint256",
          "name": "",
          "type": "uint256"
        }
      ],
      "stateMutability": "view",
      "type": "function"
    },
    {
      "inputs": [],
      "name": "SECONDS_PER_YEAR",
      "outputs": [
        {
          "internalType": "uint256",
          "name": "",
          "type": "uint256"
        }
      ],
      "stateMutability": "view",
      "type": "function"
    },
    {
      "inputs": [],
      "name": "STRATEGIST_ROLE",
      "outputs": [
        {
          "internalType": "bytes32",
          "name": "",
          "type": "bytes32"
        }
      ],
      "stateMutability": "view",
      "type": "function"
    },
    {
      "inputs": [
        {
          "internalType": "address",
          "name": "token",
          "type": "address"
        },
        {
          "internalType": "uint256",
          "name": "allocation",
          "type": "uint256"
        }
      ],
      "name": "addUnderlyingToken",
      "outputs": [],
      "stateMutability": "nonpayable",
      "type": "function"
    },
    {
      "inputs": [
        {
          "internalType": "address",
          "name": "owner",
          "type": "address"
        },
        {
          "internalType": "address",
          "name": "spender",
          "type": "address"
        }
      ],
      "name": "allowance",
      "outputs": [
        {
          "internalType": "uint256",
          "name": "",
          "type": "uint256"
        }
      ],
      "stateMutability": "view",
      "type": "function"
    },
    {
      "inputs": [
        {
          "internalType": "address",
          "name": "spender",
          "type": "address"
        },
        {
          "internalType": "uint256",
          "name": "value",
          "type": "uint256"
        }
      ],
      "name": "approve",
      "outputs": [
        {
          "internalType": "bool",
          "name": "",
          "type": "bool"
        }
      ],
      "stateMutability": "nonpayable",
      "type": "function"
    },
    {
      "inputs": [],
      "name": "asset",
      "outputs": [
        {
          "internalType": "address",
          "name": "",
          "type": "address"
        }
      ],
      "stateMutability": "view",
      "type": "function"
    },
    {
      "inputs": [
        {
          "internalType": "address",
          "name": "",
          "type": "address"
        }
      ],
      "name": "authorizedSenders",
      "outputs": [
        {
          "internalType": "bool",
          "name": "",
          "type": "bool"
        }
      ],
      "stateMutability": "view",
      "type": "function"
    },
    {
      "inputs": [],
      "name": "autoRebalance",
      "outputs": [],
      "stateMutability": "nonpayable",
      "type": "function"
    },
    {
      "inputs": [
        {
          "internalType": "address",
          "name": "account",
          "type": "address"
        }
      ],
      "name": "balanceOf",
      "outputs": [
        {
          "internalType": "uint256",
          "name": "",
          "type": "uint256"
        }
      ],
      "stateMutability": "view",
      "type": "function"
    },
    {
      "inputs": [
        {
          "internalType": "uint256",
          "name": "assets",
          "type": "uint256"
        },
        {
          "internalType": "uint256",
          "name": "timeElapsed",
          "type": "uint256"
        }
      ],
      "name": "calculateManagementFee",
      "outputs": [
        {
          "internalType": "uint256",
          "name": "fee",
          "type": "uint256"
        }
      ],
      "stateMutability": "view",
      "type": "function"
    },
    {
      "inputs": [],
      "name": "checkRebalanceNeeded",
      "outputs": [
        {
          "internalType": "bool",
          "name": "needed",
          "type": "bool"
        },
        {
          "internalType": "address",
          "name": "fromToken",
          "type": "address"
        },
        {
          "internalType": "address",
          "name": "toToken",
          "type": "address"
        },
        {
          "internalType": "uint256",
          "name": "amount",
          "type": "uint256"
        }
      ],
      "stateMutability": "view",
      "type": "function"
    },
    {
      "inputs": [],
      "name": "collectManagementFees",
      "outputs": [],
      "stateMutability": "nonpayable",
      "type": "function"
    },
    {
      "inputs": [
        {
          "internalType": "uint256",
          "name": "shares",
          "type": "uint256"
        }
      ],
      "name": "convertToAssets",
      "outputs": [
        {
          "internalType": "uint256",
          "name": "",
          "type": "uint256"
        }
      ],
      "stateMutability": "view",
      "type": "function"
    },
    {
      "inputs": [
        {
          "internalType": "uint256",
          "name": "assets",
          "type": "uint256"
        }
      ],
      "name": "convertToShares",
      "outputs": [
        {
          "internalType": "uint256",
          "name": "",
          "type": "uint256"
        }
      ],
      "stateMutability": "view",
      "type": "function"
    },
    {
      "inputs": [],
      "name": "decimals",
      "outputs": [
        {
          "internalType": "uint8",
          "name": "",
          "type": "uint8"
        }
      ],
      "stateMutability": "view",
      "type": "function"
    },
    {
      "inputs": [
        {
          "internalType": "uint256",
          "name": "assets",
          "type": "uint256"
        },
        {
          "internalType": "address",
          "name": "receiver",
          "type": "address"
        }
      ],
      "name": "deposit",
      "outputs": [
        {
          "internalType": "uint256",
          "name": "shares",
          "type": "uint256"
        }
      ],
      "stateMutability": "nonpayable",
      "type": "function"
    },
    {
      "inputs": [],
      "name": "dexAggregator",
      "outputs": [
        {
          "internalType": "contract IDEXAggregator",
          "name": "",
          "type": "address"
        }
      ],
      "stateMutability": "view",
      "type": "function"
    },
    {
      "inputs": [],
      "name": "emergencyDisableRebalancing",
      "outputs": [],
      "stateMutability": "nonpayable",
      "type": "function"
    },
    {
      "inputs": [],
      "name": "emergencyPause",
      "outputs": [],
      "stateMutability": "nonpayable",
      "type": "function"
    },
    {
      "inputs": [],
      "name": "emergencyUnpause",
      "outputs": [],
      "stateMutability": "nonpayable",
      "type": "function"
    },
    {
      "inputs": [
        {
          "internalType": "address",
          "name": "token",
          "type": "address"
        },
        {
          "internalType": "uint256",
          "name": "amount",
          "type": "uint256"
        }
      ],
      "name": "emergencyWithdraw",
      "outputs": [],
      "stateMutability": "nonpayable",
      "type": "function"
    },
    {
      "inputs": [],
      "name": "emergencyWithdrawalRecipient",
      "outputs": [
        {
          "internalType": "address",
          "name": "",
          "type": "address"
        }
      ],
      "stateMutability": "view",
      "type": "function"
    },
    {
      "inputs": [
        {
          "internalType": "address",
          "name": "fromToken",
          "type": "address"
        },
        {
          "internalType": "address",
          "name": "toToken",
          "type": "address"
        },
        {
          "internalType": "uint256",
          "name": "amount",
          "type": "uint256"
        },
        {
          "internalType": "uint256",
          "name": "minReturn",
          "type": "uint256"
        }
      ],
      "name": "executeManualSwap",
      "outputs": [],
      "stateMutability": "nonpayable",
      "type": "function"
    },
    {
      "inputs": [
        {
          "internalType": "string",
          "name": "strategyName",
          "type": "string"
        }
      ],
      "name": "executeStrategy",
      "outputs": [],
      "stateMutability": "nonpayable",
      "type": "function"
    },
    {
      "inputs": [],
      "name": "getAllocationRatios",
      "outputs": [
        {
          "internalType": "address[]",
          "name": "tokens",
          "type": "address[]"
        },
        {
          "internalType": "uint256[]",
          "name": "currentRatios",
          "type": "uint256[]"
        },
        {
          "internalType": "uint256[]",
          "name": "targetRatios",
          "type": "uint256[]"
        }
      ],
      "stateMutability": "view",
      "type": "function"
    },
    {
      "inputs": [],
      "name": "getLayerZeroEndpoint",
      "outputs": [
        {
          "internalType": "address",
          "name": "",
          "type": "address"
        }
      ],
      "stateMutability": "view",
      "type": "function"
    },
    {
      "inputs": [
        {
          "internalType": "bytes32",
          "name": "role",
          "type": "bytes32"
        }
      ],
      "name": "getRoleAdmin",
      "outputs": [
        {
          "internalType": "bytes32",
          "name": "",
          "type": "bytes32"
        }
      ],
      "stateMutability": "view",
      "type": "function"
    },
    {
      "inputs": [
        {
          "internalType": "uint256",
          "name": "index",
          "type": "uint256"
        }
      ],
      "name": "getSwapHistory",
      "outputs": [
        {
          "components": [
            {
              "internalType": "address",
              "name": "fromToken",
              "type": "address"
            },
            {
              "internalType": "address",
              "name": "toToken",
              "type": "address"
            },
            {
              "internalType": "uint256",
              "name": "amountIn",
              "type": "uint256"
            },
            {
              "internalType": "uint256",
              "name": "amountOut",
              "type": "uint256"
            },
            {
              "internalType": "uint256",
              "name": "timestamp",
              "type": "uint256"
            },
            {
              "internalType": "string",
              "name": "protocol",
              "type": "string"
            }
          ],
          "internalType": "struct RebalancingVault.SwapRecord",
          "name": "",
          "type": "tuple"
        }
      ],
      "stateMutability": "view",
      "type": "function"
    },
    {
      "inputs": [],
      "name": "getSwapHistoryCount",
      "outputs": [
        {
          "internalType": "uint256",
          "name": "",
          "type": "uint256"
        }
      ],
      "stateMutability": "view",
      "type": "function"
    },
    {
      "inputs": [
        {
          "internalType": "address",
          "name": "fromToken",
          "type": "address"
        },
        {
          "internalType": "address",
          "name": "toToken",
          "type": "address"
        },
        {
          "internalType": "uint256",
          "name": "amount",
          "type": "uint256"
        }
      ],
      "name": "getSwapQuote",
      "outputs": [
        {
          "components": [
            {
              "internalType": "uint256",
              "name": "returnAmount",
              "type": "uint256"
            },
            {
              "internalType": "uint256[]",
              "name": "distribution",
              "type": "uint256[]"
            },
            {
              "internalType": "uint256",
              "name": "estimatedGas",
              "type": "uint256"
            },
            {
              "internalType": "string[]",
              "name": "protocols",
              "type": "string[]"
            }
          ],
          "internalType": "struct IDEXAggregator.QuoteResult",
          "name": "",
          "type": "tuple"
        }
      ],
      "stateMutability": "view",
      "type": "function"
    },
    {
      "inputs": [
        {
          "internalType": "address",
          "name": "token",
          "type": "address"
        }
      ],
      "name": "getTokenSwapVolume",
      "outputs": [
        {
          "internalType": "uint256",
          "name": "",
          "type": "uint256"
        }
      ],
      "stateMutability": "view",
      "type": "function"
    },
    {
      "inputs": [],
      "name": "getUnderlyingTokens",
      "outputs": [
        {
          "internalType": "address[]",
          "name": "",
          "type": "address[]"
        }
      ],
      "stateMutability": "view",
      "type": "function"
    },
    {
      "inputs": [],
      "name": "getVaultMetadata",
      "outputs": [
        {
          "internalType": "uint256",
          "name": "_indexTokenId",
          "type": "uint256"
        },
        {
          "internalType": "uint256",
          "name": "_totalAssets",
          "type": "uint256"
        },
        {
          "internalType": "uint256",
          "name": "_totalShares",
          "type": "uint256"
        },
        {
          "internalType": "bool",
          "name": "_isPaused",
          "type": "bool"
        },
        {
          "internalType": "uint256",
          "name": "_managementFeeBps",
          "type": "uint256"
        },
        {
          "internalType": "uint256",
          "name": "_performanceFeeBps",
          "type": "uint256"
        }
      ],
      "stateMutability": "view",
      "type": "function"
    },
    {
      "inputs": [
        {
          "internalType": "bytes32",
          "name": "role",
          "type": "bytes32"
        },
        {
          "internalType": "address",
          "name": "account",
          "type": "address"
        }
      ],
      "name": "grantRole",
      "outputs": [],
      "stateMutability": "nonpayable",
      "type": "function"
    },
    {
      "inputs": [],
      "name": "harvest",
      "outputs": [],
      "stateMutability": "nonpayable",
      "type": "function"
    },
    {
      "inputs": [
        {
          "internalType": "bytes32",
          "name": "role",
          "type": "bytes32"
        },
        {
          "internalType": "address",
          "name": "account",
          "type": "address"
        }
      ],
      "name": "hasRole",
      "outputs": [
        {
          "internalType": "bool",
          "name": "",
          "type": "bool"
        }
      ],
      "stateMutability": "view",
      "type": "function"
    },
    {
      "inputs": [],
      "name": "highWaterMark",
      "outputs": [
        {
          "internalType": "uint256",
          "name": "",
          "type": "uint256"
        }
      ],
      "stateMutability": "view",
      "type": "function"
    },
    {
      "inputs": [],
      "name": "indexTokenId",
      "outputs": [
        {
          "internalType": "uint256",
          "name": "",
          "type": "uint256"
        }
      ],
      "stateMutability": "view",
      "type": "function"
    },
    {
      "inputs": [
        {
          "internalType": "contract IERC20",
          "name": "_asset",
          "type": "address"
        },
        {
          "internalType": "string",
          "name": "_name",
          "type": "string"
        },
        {
          "internalType": "string",
          "name": "_symbol",
          "type": "string"
        },
        {
          "internalType": "uint256",
          "name": "_managementFee",
          "type": "uint256"
        },
        {
          "internalType": "uint256",
          "name": "_performanceFee",
          "type": "uint256"
        }
      ],
      "name": "initialize",
      "outputs": [],
      "stateMutability": "nonpayable",
      "type": "function"
    },
    {
      "inputs": [
        {
          "internalType": "address",
          "name": "asset_",
          "type": "address"
        },
        {
          "internalType": "uint256",
          "name": "indexTokenId_",
          "type": "uint256"
        },
        {
          "internalType": "address",
          "name": "admin",
          "type": "address"
        },
        {
          "internalType": "string",
          "name": "name_",
          "type": "string"
        },
        {
          "internalType": "string",
          "name": "symbol_",
          "type": "string"
        },
        {
          "internalType": "address",
          "name": "lzEndpoint_",
          "type": "address"
        },
        {
          "internalType": "address[]",
          "name": "tokens_",
          "type": "address[]"
        },
        {
          "internalType": "uint256[]",
          "name": "targetAllocations_",
          "type": "uint256[]"
        }
      ],
      "name": "initialize",
      "outputs": [],
      "stateMutability": "nonpayable",
      "type": "function"
    },
    {
      "inputs": [],
      "name": "lastFeeCollection",
      "outputs": [
        {
          "internalType": "uint256",
          "name": "",
          "type": "uint256"
        }
      ],
      "stateMutability": "view",
      "type": "function"
    },
    {
      "inputs": [],
      "name": "lastHarvestTime",
      "outputs": [
        {
          "internalType": "uint256",
          "name": "",
          "type": "uint256"
        }
      ],
      "stateMutability": "view",
      "type": "function"
    },
    {
      "inputs": [],
      "name": "lastRebalanceTime",
      "outputs": [
        {
          "internalType": "uint256",
          "name": "",
          "type": "uint256"
        }
      ],
      "stateMutability": "view",
      "type": "function"
    },
    {
      "inputs": [],
      "name": "lastTotalAssets",
      "outputs": [
        {
          "internalType": "uint256",
          "name": "",
          "type": "uint256"
        }
      ],
      "stateMutability": "view",
      "type": "function"
    },
    {
      "inputs": [],
      "name": "layerZeroEndpoint",
      "outputs": [
        {
          "internalType": "address",
          "name": "",
          "type": "address"
        }
      ],
      "stateMutability": "view",
      "type": "function"
    },
    {
      "inputs": [],
      "name": "managementFee",
      "outputs": [
        {
          "internalType": "uint256",
          "name": "",
          "type": "uint256"
        }
      ],
      "stateMutability": "view",
      "type": "function"
    },
    {
      "inputs": [],
      "name": "managementFeeBps",
      "outputs": [
        {
          "internalType": "uint256",
          "name": "",
          "type": "uint256"
        }
      ],
      "stateMutability": "view",
      "type": "function"
    },
    {
      "inputs": [
        {
          "internalType": "uint256",
          "name": "fromIdx",
          "type": "uint256"
        },
        {
          "internalType": "uint256",
          "name": "toIdx",
          "type": "uint256"
        },
        {
          "internalType": "uint256",
          "name": "amount",
          "type": "uint256"
        }
      ],
      "name": "manualRebalance",
      "outputs": [],
      "stateMutability": "nonpayable",
      "type": "function"
    },
    {
      "inputs": [
        {
          "internalType": "address",
          "name": "",
          "type": "address"
        }
      ],
      "name": "maxDeposit",
      "outputs": [
        {
          "internalType": "uint256",
          "name": "",
          "type": "uint256"
        }
      ],
      "stateMutability": "view",
      "type": "function"
    },
    {
      "inputs": [
        {
          "internalType": "address",
          "name": "",
          "type": "address"
        }
      ],
      "name": "maxMint",
      "outputs": [
        {
          "internalType": "uint256",
          "name": "",
          "type": "uint256"
        }
      ],
      "stateMutability": "view",
      "type": "function"
    },
    {
      "inputs": [
        {
          "internalType": "address",
          "name": "owner",
          "type": "address"
        }
      ],
      "name": "maxRedeem",
      "outputs": [
        {
          "internalType": "uint256",
          "name": "",
          "type": "uint256"
        }
      ],
      "stateMutability": "view",
      "type": "function"
    },
    {
      "inputs": [],
      "name": "maxSlippageBps",
      "outputs": [
        {
          "internalType": "uint256",
          "name": "",
          "type": "uint256"
        }
      ],
      "stateMutability": "view",
      "type": "function"
    },
    {
      "inputs": [
        {
          "internalType": "address",
          "name": "owner",
          "type": "address"
        }
      ],
      "name": "maxWithdraw",
      "outputs": [
        {
          "internalType": "uint256",
          "name": "",
          "type": "uint256"
        }
      ],
      "stateMutability": "view",
      "type": "function"
    },
    {
      "inputs": [],
      "name": "minSwapAmount",
      "outputs": [
        {
          "internalType": "uint256",
          "name": "",
          "type": "uint256"
        }
      ],
      "stateMutability": "view",
      "type": "function"
    },
    {
      "inputs": [
        {
          "internalType": "uint256",
          "name": "shares",
          "type": "uint256"
        },
        {
          "internalType": "address",
          "name": "receiver",
          "type": "address"
        }
      ],
      "name": "mint",
      "outputs": [
        {
          "internalType": "uint256",
          "name": "",
          "type": "uint256"
        }
      ],
      "stateMutability": "nonpayable",
      "type": "function"
    },
    {
      "inputs": [],
      "name": "name",
      "outputs": [
        {
          "internalType": "string",
          "name": "",
          "type": "string"
        }
      ],
      "stateMutability": "view",
      "type": "function"
    },
    {
      "inputs": [],
      "name": "pause",
      "outputs": [],
      "stateMutability": "nonpayable",
      "type": "function"
    },
    {
      "inputs": [],
      "name": "paused",
      "outputs": [
        {
          "internalType": "bool",
          "name": "",
          "type": "bool"
        }
      ],
      "stateMutability": "view",
      "type": "function"
    },
    {
      "inputs": [],
      "name": "performanceFee",
      "outputs": [
        {
          "internalType": "uint256",
          "name": "",
          "type": "uint256"
        }
      ],
      "stateMutability": "view",
      "type": "function"
    },
    {
      "inputs": [],
      "name": "performanceFeeBps",
      "outputs": [
        {
          "internalType": "uint256",
          "name": "",
          "type": "uint256"
        }
      ],
      "stateMutability": "view",
      "type": "function"
    },
    {
      "inputs": [
        {
          "internalType": "uint256",
          "name": "assets",
          "type": "uint256"
        }
      ],
      "name": "previewDeposit",
      "outputs": [
        {
          "internalType": "uint256",
          "name": "",
          "type": "uint256"
        }
      ],
      "stateMutability": "view",
      "type": "function"
    },
    {
      "inputs": [
        {
          "internalType": "uint256",
          "name": "shares",
          "type": "uint256"
        }
      ],
      "name": "previewMint",
      "outputs": [
        {
          "internalType": "uint256",
          "name": "",
          "type": "uint256"
        }
      ],
      "stateMutability": "view",
      "type": "function"
    },
    {
      "inputs": [
        {
          "internalType": "uint256",
          "name": "shares",
          "type": "uint256"
        }
      ],
      "name": "previewRedeem",
      "outputs": [
        {
          "internalType": "uint256",
          "name": "",
          "type": "uint256"
        }
      ],
      "stateMutability": "view",
      "type": "function"
    },
    {
      "inputs": [
        {
          "internalType": "uint256",
          "name": "assets",
          "type": "uint256"
        }
      ],
      "name": "previewWithdraw",
      "outputs": [
        {
          "internalType": "uint256",
          "name": "",
          "type": "uint256"
        }
      ],
      "stateMutability": "view",
      "type": "function"
    },
    {
      "inputs": [],
      "name": "rebalanceGasLimit",
      "outputs": [
        {
          "internalType": "uint256",
          "name": "",
          "type": "uint256"
        }
      ],
      "stateMutability": "view",
      "type": "function"
    },
    {
      "inputs": [],
      "name": "rebalanceThreshold",
      "outputs": [
        {
          "internalType": "uint256",
          "name": "",
          "type": "uint256"
        }
      ],
      "stateMutability": "view",
      "type": "function"
    },
    {
      "inputs": [
        {
          "internalType": "uint256",
          "name": "shares",
          "type": "uint256"
        },
        {
          "internalType": "address",
          "name": "receiver",
          "type": "address"
        },
        {
          "internalType": "address",
          "name": "owner",
          "type": "address"
        }
      ],
      "name": "redeem",
      "outputs": [
        {
          "internalType": "uint256",
          "name": "",
          "type": "uint256"
        }
      ],
      "stateMutability": "nonpayable",
      "type": "function"
    },
    {
      "inputs": [
        {
          "internalType": "uint256",
          "name": "tokenIndex",
          "type": "uint256"
        }
      ],
      "name": "removeUnderlyingToken",
      "outputs": [],
      "stateMutability": "nonpayable",
      "type": "function"
    },
    {
      "inputs": [
        {
          "internalType": "bytes32",
          "name": "role",
          "type": "bytes32"
        },
        {
          "internalType": "address",
          "name": "callerConfirmation",
          "type": "address"
        }
      ],
      "name": "renounceRole",
      "outputs": [],
      "stateMutability": "nonpayable",
      "type": "function"
    },
    {
      "inputs": [
        {
          "internalType": "bytes32",
          "name": "role",
          "type": "bytes32"
        },
        {
          "internalType": "address",
          "name": "account",
          "type": "address"
        }
      ],
      "name": "revokeRole",
      "outputs": [],
      "stateMutability": "nonpayable",
      "type": "function"
    },
    {
      "inputs": [
        {
          "internalType": "address",
          "name": "sender",
          "type": "address"
        },
        {
          "internalType": "bool",
          "name": "authorized",
          "type": "bool"
        }
      ],
      "name": "setAuthorizedSender",
      "outputs": [],
      "stateMutability": "nonpayable",
      "type": "function"
    },
    {
      "inputs": [
        {
          "internalType": "address",
          "name": "_dexAggregator",
          "type": "address"
        }
      ],
      "name": "setDEXAggregator",
      "outputs": [],
      "stateMutability": "nonpayable",
      "type": "function"
    },
    {
      "inputs": [
        {
          "internalType": "address",
          "name": "recipient",
          "type": "address"
        }
      ],
      "name": "setEmergencyRecipient",
      "outputs": [],
      "stateMutability": "nonpayable",
      "type": "function"
    },
    {
      "inputs": [
        {
          "internalType": "uint256",
          "name": "newFee",
          "type": "uint256"
        }
      ],
      "name": "setManagementFee",
      "outputs": [],
      "stateMutability": "nonpayable",
      "type": "function"
    },
    {
      "inputs": [
        {
          "internalType": "uint256",
          "name": "_maxSlippageBps",
          "type": "uint256"
        }
      ],
      "name": "setMaxSlippage",
      "outputs": [],
      "stateMutability": "nonpayable",
      "type": "function"
    },
    {
      "inputs": [
        {
          "internalType": "uint256",
          "name": "newFee",
          "type": "uint256"
        }
      ],
      "name": "setPerformanceFee",
      "outputs": [],
      "stateMutability": "nonpayable",
      "type": "function"
    },
    {
      "inputs": [
        {
          "internalType": "uint256[]",
          "name": "newAllocations",
          "type": "uint256[]"
        }
      ],
      "name": "setTargetAllocations",
      "outputs": [],
      "stateMutability": "nonpayable",
      "type": "function"
    },
    {
      "inputs": [
        {
          "internalType": "uint32",
          "name": "chainId",
          "type": "uint32"
        },
        {
          "internalType": "bytes32",
          "name": "trustedRemote",
          "type": "bytes32"
        }
      ],
      "name": "setTrustedRemote",
      "outputs": [],
      "stateMutability": "nonpayable",
      "type": "function"
    },
    {
      "inputs": [],
      "name": "strategy",
      "outputs": [
        {
          "internalType": "bool",
          "name": "autoRebalanceEnabled",
          "type": "bool"
        },
        {
          "internalType": "uint256",
          "name": "rebalanceInterval",
          "type": "uint256"
        },
        {
          "internalType": "uint256",
          "name": "deviationThresholdBps",
          "type": "uint256"
        },
        {
          "internalType": "uint256",
          "name": "maxSingleSwapBps",
          "type": "uint256"
        }
      ],
      "stateMutability": "view",
      "type": "function"
    },
    {
      "inputs": [
        {
          "internalType": "bytes4",
          "name": "interfaceId",
          "type": "bytes4"
        }
      ],
      "name": "supportsInterface",
      "outputs": [
        {
          "internalType": "bool",
          "name": "",
          "type": "bool"
        }
      ],
      "stateMutability": "view",
      "type": "function"
    },
    {
      "inputs": [
        {
          "internalType": "uint256",
          "name": "",
          "type": "uint256"
        }
      ],
      "name": "swapHistory",
      "outputs": [
        {
          "internalType": "address",
          "name": "fromToken",
          "type": "address"
        },
        {
          "internalType": "address",
          "name": "toToken",
          "type": "address"
        },
        {
          "internalType": "uint256",
          "name": "amountIn",
          "type": "uint256"
        },
        {
          "internalType": "uint256",
          "name": "amountOut",
          "type": "uint256"
        },
        {
          "internalType": "uint256",
          "name": "timestamp",
          "type": "uint256"
        },
        {
          "internalType": "string",
          "name": "protocol",
          "type": "string"
        }
      ],
      "stateMutability": "view",
      "type": "function"
    },
    {
      "inputs": [],
      "name": "symbol",
      "outputs": [
        {
          "internalType": "string",
          "name": "",
          "type": "string"
        }
      ],
      "stateMutability": "view",
      "type": "function"
    },
    {
      "inputs": [
        {
          "internalType": "uint256",
          "name": "",
          "type": "uint256"
        }
      ],
      "name": "targetAllocations",
      "outputs": [
        {
          "internalType": "uint256",
          "name": "",
          "type": "uint256"
        }
      ],
      "stateMutability": "view",
      "type": "function"
    },
    {
      "inputs": [
        {
          "internalType": "address",
          "name": "",
          "type": "address"
        }
      ],
      "name": "tokenSwapVolume",
      "outputs": [
        {
          "internalType": "uint256",
          "name": "",
          "type": "uint256"
        }
      ],
      "stateMutability": "view",
      "type": "function"
    },
    {
      "inputs": [],
      "name": "totalAssets",
      "outputs": [
        {
          "internalType": "uint256",
          "name": "",
          "type": "uint256"
        }
      ],
      "stateMutability": "view",
      "type": "function"
    },
    {
      "inputs": [],
      "name": "totalSupply",
      "outputs": [
        {
          "internalType": "uint256",
          "name": "",
          "type": "uint256"
        }
      ],
      "stateMutability": "view",
      "type": "function"
    },
    {
      "inputs": [
        {
          "internalType": "address",
          "name": "to",
          "type": "address"
        },
        {
          "internalType": "uint256",
          "name": "value",
          "type": "uint256"
        }
      ],
      "name": "transfer",
      "outputs": [
        {
          "internalType": "bool",
          "name": "",
          "type": "bool"
        }
      ],
      "stateMutability": "nonpayable",
      "type": "function"
    },
    {
      "inputs": [
        {
          "internalType": "address",
          "name": "from",
          "type": "address"
        },
        {
          "internalType": "address",
          "name": "to",
          "type": "address"
        },
        {
          "internalType": "uint256",
          "name": "value",
          "type": "uint256"
        }
      ],
      "name": "transferFrom",
      "outputs": [
        {
          "internalType": "bool",
          "name": "",
          "type": "bool"
        }
      ],
      "stateMutability": "nonpayable",
      "type": "function"
    },
    {
      "inputs": [
        {
          "internalType": "uint32",
          "name": "",
          "type": "uint32"
        }
      ],
      "name": "trustedRemotes",
      "outputs": [
        {
          "internalType": "bytes32",
          "name": "",
          "type": "bytes32"
        }
      ],
      "stateMutability": "view",
      "type": "function"
    },
    {
      "inputs": [
        {
          "internalType": "uint256",
          "name": "",
          "type": "uint256"
        }
      ],
      "name": "underlyingTokens",
      "outputs": [
        {
          "internalType": "address",
          "name": "",
          "type": "address"
        }
      ],
      "stateMutability": "view",
      "type": "function"
    },
    {
      "inputs": [],
      "name": "unpause",
      "outputs": [],
      "stateMutability": "nonpayable",
      "type": "function"
    },
    {
      "inputs": [
        {
          "internalType": "bool",
          "name": "autoEnabled",
          "type": "bool"
        },
        {
          "internalType": "uint256",
          "name": "interval",
          "type": "uint256"
        },
        {
          "internalType": "uint256",
          "name": "deviationThreshold",
          "type": "uint256"
        },
        {
          "internalType": "uint256",
          "name": "maxSingleSwap",
          "type": "uint256"
        }
      ],
      "name": "updateRebalanceStrategy",
      "outputs": [],
      "stateMutability": "nonpayable",
      "type": "function"
    },
    {
      "inputs": [
        {
          "internalType": "uint256",
          "name": "assets",
          "type": "uint256"
        },
        {
          "internalType": "address",
          "name": "receiver",
          "type": "address"
        },
        {
          "internalType": "address",
          "name": "owner",
          "type": "address"
        }
      ],
      "name": "withdraw",
      "outputs": [
        {
          "internalType": "uint256",
          "name": "",
          "type": "uint256"
        }
      ],
      "stateMutability": "nonpayable",
      "type": "function"
    }
  ],
  "bytecode": "0x60c060405260c86008556107d06009556101f460145560c86016556107d060175560c8601a55670de0b6b3a7640000601b556207a120601c553480156200004557600080fd5b5060405162005db038038062005db083398101604081905262000068916200043f565b82828282828282828260036200007f838262000558565b5060046200008e828262000558565b505050600080620000a5836200014060201b60201c565b9150915081620000b7576012620000b9565b805b60ff1660a05250506001600160a01b039081166080526001600655831615620000e957620000e933808062000225565b5050604080516080810182526001808252610e1060208084018290526101f49484018590526103e86060909401849052601d805460ff1916909317909255601e55601f929092559055506200065c95505050505050565b60408051600481526024810182526020810180516001600160e01b031663313ce56760e01b17905290516000918291829182916001600160a01b03871691620001899162000624565b600060405180830381855afa9150503d8060008114620001c6576040519150601f19603f3d011682016040523d82523d6000602084013e620001cb565b606091505b5091509150818015620001e057506020815110155b156200021857600081806020019051810190620001fe919062000642565b905060ff811162000216576001969095509350505050565b505b5060009485945092505050565b62000232600084620002bf565b506200025f7f241ecf16d79d0f8dbfb92cbc07fe17840425976cf0667f022fe9877caa831b0883620002bf565b506200028c7fbf233dd2aafeb4d50879c4aa5c81e96d92f6e6945c906a58f9f2d1c1631b4b2682620002bf565b505042600a55506000600b819055600c55600d80546001600160a01b0319166001600160a01b0392909216919091179055565b60008281526005602090815260408083206001600160a01b038516845290915281205460ff16620003685760008381526005602090815260408083206001600160a01b03861684529091529020805460ff191660011790556200031f3390565b6001600160a01b0316826001600160a01b0316847f2f8788117e7eff1d82e926ec794901d17c78024a50270940304540a733656f0d60405160405180910390a45060016200036c565b5060005b92915050565b634e487b7160e01b600052604160045260246000fd5b60005b83811015620003a55781810151838201526020016200038b565b50506000910152565b600082601f830112620003c057600080fd5b81516001600160401b0380821115620003dd57620003dd62000372565b604051601f8301601f19908116603f0116810190828211818310171562000408576200040862000372565b816040528381528660208588010111156200042257600080fd5b6200043584602083016020890162000388565b9695505050505050565b6000806000606084860312156200045557600080fd5b83516001600160a01b03811681146200046d57600080fd5b60208501519093506001600160401b03808211156200048b57600080fd5b6200049987838801620003ae565b93506040860151915080821115620004b057600080fd5b50620004bf86828701620003ae565b9150509250925092565b600181811c90821680620004de57607f821691505b602082108103620004ff57634e487b7160e01b600052602260045260246000fd5b50919050565b601f8211156200055357600081815260208120601f850160051c810160208610156200052e5750805b601f850160051c820191505b818110156200054f578281556001016200053a565b5050505b505050565b81516001600160401b0381111562000574576200057462000372565b6200058c81620005858454620004c9565b8462000505565b602080601f831160018114620005c45760008415620005ab5750858301515b600019600386901b1c1916600185901b1785556200054f565b600085815260208120601f198616915b82811015620005f557888601518255948401946001909101908401620005d4565b5085821015620006145787850151600019600388901b60f8161c191681555b5050505050600190811b01905550565b600082516200063881846020870162000388565b9190910192915050565b6000602082840312156200065557600080fd5b5051919050565b60805160a0516156ef620006c160003960006113c30152600081816107fc0152818161117e0152818161163c01528181611685015281816122560152818161270e01528181612f04015281816131ed015281816142c0015261437201526156ef6000f3fe608060405234801561001057600080fd5b50600436106105815760003560e01c8063710f20a2116102e5578063b460af941161018d578063d547741f116100f4578063dd26baad116100ad578063ec87621c11610087578063ec87621c14610cc5578063ef8b30f714610cda578063f3dfc2a914610ced578063fe56e23214610d0057600080fd5b8063dd26baad14610c78578063dd62ed3e14610c81578063e6a69ab814610cba57600080fd5b8063d547741f14610c18578063d73792a914610c2b578063d905777e14610c34578063d95bd6c914610c47578063d9ca21d514610c5c578063dc78478714610c6557600080fd5b8063c4aa739511610146578063c4aa739514610bcf578063c63d75b614610831578063c6e6f59214610bd8578063cac1864214610beb578063ce96cb7714610bfc578063ceb0f62614610c0f57600080fd5b8063b460af9414610b71578063b9d4e87914610b84578063ba08765214610b8d578063bbbaa29914610ba0578063bdca916514610bb3578063c38a04ba14610bbc57600080fd5b806395d89b411161024c578063a3bf224b11610205578063a8c62e76116101df578063a8c62e7614610afd578063a9059cbb14610b38578063aa6dfe0314610b4b578063b3d7f6b914610b5e57600080fd5b8063a3bf224b14610ace578063a6f7f5d614610ae1578063a855133614610aea57600080fd5b806395d89b4114610a665780639908840c14610a6e5780639a3884b314610a775780639d63ff6414610a7f578063a217fddf14610a9f578063a378a32414610aa757600080fd5b8063877887821161029e57806387788782146109e85780638d6bd831146109f157806391d1485414610a0457806394bf804d14610a1757806395ccea6714610a2a57806395d37dfd14610a3d57600080fd5b8063710f20a21461099f57806377d60397146109a75780637a6efd47146109ba5780637c21d5e0146109c2578063835e9eb4146109d55780638456cb591461089257600080fd5b8063338246e2116104485780634cdad506116103af5780635fd4743a116103685780636e553f65116103425780636e553f651461092d5780636f3249671461094057806370897b231461096357806370a082311461097657600080fd5b80635fd4743a146108d457806363dc42f01461090e5780636c9692561461091657600080fd5b80634cdad5061461087f57806351858e271461089257806353d058851461089a57806353ded125146108ad578063568efc07146108c05780635c975abb146108c957600080fd5b80633f4ba83a116104015780633f4ba83a14610829578063402d267d14610831578063426067711461084457806343f68a49146108645780634641257d146108775780634a4e3bd51461082957600080fd5b8063338246e2146107cc5780633464c41b146107d557806336568abe146107de5780633813c35a146107f157806338d52e0f146107fa5780633dfe9f6a1461082057600080fd5b806318cdb546116104ec57806323b872dd116104a557806323b872dd14610743578063248a9ca3146107565780632775eee8146107795780632bda3e0b1461078c5780632f2ff15d1461079f578063313ce567146107b257600080fd5b806318cdb546146106a65780631b035932146106dd5780631ca29139146106f25780631d187c50146107055780631e8410da1461072557806320df43591461072e57600080fd5b80630a28a4771161053e5780630a28a4771461062a5780630b78a2c81461063d5780630ddd03ba1461065d57806317a9e1981461068257806318160ddd1461068b57806318bf4cf11461069357600080fd5b806301e1d1141461058657806301ffc9a7146105a157806306fdde03146105c457806307968db1146105d957806307a2d13a14610604578063095ea7b314610617575b600080fd5b61058e610d13565b6040519081526020015b60405180910390f35b6105b46105af366004614658565b610d4b565b6040519015158152602001610598565b6105cc610d82565b60405161059891906146d2565b600e546105ec906001600160a01b031681565b6040516001600160a01b039091168152602001610598565b61058e6106123660046146e5565b610e14565b6105b4610625366004614723565b610e21565b61058e6106383660046146e5565b610e39565b61065061064b3660046146e5565b610e44565b604051610598919061474f565b61067061066b3660046146e5565b610fe5565b604051610598969594939291906147a8565b61058e60185481565b60025461058e565b600d546105ec906001600160a01b031681565b6106ae6110c6565b6040805196875260208701959095529385019290925215156060840152608083015260a082015260c001610598565b6106f06106eb3660046147f1565b6110fc565b005b6106f06107003660046148f9565b611174565b61058e610713366004614994565b60106020526000908152604090205481565b61058e600c5481565b61058e60008051602061567a83398151915281565b6105b46107513660046149af565b6112e7565b61058e6107643660046146e5565b60009081526005602052604090206001015490565b61058e6107873660046146e5565b61130d565b6106f061079a3660046149f0565b61132e565b6106f06107ad366004614a0c565b611390565b6107ba6113bb565b60405160ff9091168152602001610598565b61058e601b5481565b61058e601c5481565b6106f06107ec366004614a0c565b6113ec565b61058e60165481565b7f00000000000000000000000000000000000000000000000000000000000000006105ec565b61058e60145481565b6106f0611424565b61058e61083f3660046147f1565b611447565b6108576108523660046149af565b611469565b6040516105989190614a77565b6106f06108723660046146e5565b61153d565b6106f06115cb565b61058e61088d3660046146e5565b611710565b6106f061171b565b6106f06108a8366004614723565b61173b565b6106f06108bb366004614b0f565b611939565b61058e600b5481565b60075460ff166105b4565b6108dc611d96565b604051610598949392919093151584526001600160a01b03928316602085015291166040830152606082015260800190565b60215461058e565b61091e611f69565b60405161059893929190614b8e565b61058e61093b366004614a0c565b6120b1565b6105b461094e3660046147f1565b60116020526000908152604090205460ff1681565b6106f06109713660046146e5565b612121565b61058e6109843660046147f1565b6001600160a01b031660009081526020819052604090205490565b6106f06121ab565b6106f06109b5366004614bd1565b612336565b6106f0612399565b6019546105ec906001600160a01b031681565b61058e6109e3366004614c05565b6124ef565b61058e60095481565b6106f06109ff366004614c35565b61251a565b6105b4610a12366004614a0c565b6126a1565b61058e610a25366004614a0c565b6126cc565b6106f0610a38366004614723565b6126f4565b61058e610a4b3660046147f1565b6001600160a01b031660009081526022602052604090205490565b6105cc6127f3565b61058e6101f481565b6106f0612802565b61058e610a8d3660046147f1565b60226020526000908152604090205481565b61058e600081565b61058e7f17a8e30262c1f919c33056d877a3c22b95c2f5e4dac44683c1c2323cd79fbdb081565b6105ec610adc3660046146e5565b61285a565b61058e60085481565b6106f0610af83660046146e5565b612884565b601d54601e54601f54602054610b169360ff1692919084565b6040805194151585526020850193909352918301526060820152608001610598565b6105b4610b46366004614723565b612a6b565b6106f0610b593660046147f1565b612a79565b61058e610b6c3660046146e5565b612b2d565b61058e610b7f366004614c70565b612b38565b61058e60175481565b61058e610b9b366004614c70565b612b59565b6106f0610bae366004614cfd565b612b6e565b61058e610bb881565b6106f0610bca366004614d3e565b612c78565b61058e601a5481565b61058e610be63660046146e5565b612e2c565b600e546001600160a01b03166105ec565b61058e610c0a3660046147f1565b612e39565b61058e600a5481565b6106f0610c26366004614a0c565b612e59565b61058e61271081565b61058e610c423660046147f1565b612e7e565b610c4f612e99565b6040516105989190614d6a565b61058e60155481565b6106f0610c73366004614dbe565b612efa565b61058e600f5481565b61058e610c8f366004614ed6565b6001600160a01b03918216600090815260016020908152604080832093909416825291909152205490565b61058e6301e1338081565b61058e60008051602061569a83398151915281565b61058e610ce83660046146e5565b61311d565b6106f0610cfb366004614f04565b613128565b6106f0610d0e3660046146e5565b61315f565b600080610d1e6131e9565b90506000610d2a613276565b9050808211610d3a576000610d44565b610d448183614f48565b9250505090565b60006001600160e01b03198216637965db0b60e01b1480610d7c57506301ffc9a760e01b6001600160e01b03198316145b92915050565b606060038054610d9190614f5b565b80601f0160208091040260200160405190810160405280929190818152602001828054610dbd90614f5b565b8015610e0a5780601f10610ddf57610100808354040283529160200191610e0a565b820191906000526020600020905b815481529060010190602001808311610ded57829003601f168201915b5050505050905090565b6000610d7c8260006132ca565b600033610e2f818585613304565b5060019392505050565b6000610d7c82613311565b610e8f6040518060c0016040528060006001600160a01b0316815260200160006001600160a01b03168152602001600081526020016000815260200160008152602001606081525090565b6021548210610edb5760405162461bcd60e51b8152602060048201526013602482015272496e646578206f7574206f6620626f756e647360681b60448201526064015b60405180910390fd5b60218281548110610eee57610eee614f8f565b60009182526020918290206040805160c081018252600690930290910180546001600160a01b03908116845260018201541693830193909352600283015490820152600382015460608201526004820154608082015260058201805491929160a084019190610f5c90614f5b565b80601f0160208091040260200160405190810160405280929190818152602001828054610f8890614f5b565b8015610fd55780601f10610faa57610100808354040283529160200191610fd5565b820191906000526020600020905b815481529060010190602001808311610fb857829003601f168201915b5050505050815250509050919050565b60218181548110610ff557600080fd5b60009182526020909120600690910201805460018201546002830154600384015460048501546005860180546001600160a01b03968716985095909416959294919390929161104390614f5b565b80601f016020809104026020016040519081016040528092919081815260200182805461106f90614f5b565b80156110bc5780601f10611091576101008083540402835291602001916110bc565b820191906000526020600020905b81548152906001019060200180831161109f57829003601f168201915b5050505050905086565b600080600080600080600f546110da610d13565b60025460075460ff16601654601754949b939a50919850965094509092509050565b60006111078161331e565b6001600160a01b0382166111515760405162461bcd60e51b8152602060048201526011602482015270125b9d985b1a59081c9958da5c1a595b9d607a1b6044820152606401610ed2565b50600d80546001600160a01b0319166001600160a01b0392909216919091179055565b6001600160a01b037f000000000000000000000000000000000000000000000000000000000000000016156111e15760405162461bcd60e51b8152602060048201526013602482015272105b1c9958591e481a5b9a5d1a585b1a5e9959606a1b6044820152606401610ed2565b6001600160a01b0385166112275760405162461bcd60e51b815260206004820152600d60248201526c125b9d985b1a5908185cdcd95d609a1b6044820152606401610ed2565b6101f48211156112795760405162461bcd60e51b815260206004820152601760248201527f4d616e6167656d656e742066656520746f6f20686967680000000000000000006044820152606401610ed2565b610bb88111156112cb5760405162461bcd60e51b815260206004820152601860248201527f506572666f726d616e63652066656520746f6f206869676800000000000000006044820152606401610ed2565b600882905560098190556112e0338080613328565b5050505050565b6000336112f5858285613398565b6113008585856133fe565b60019150505b9392505050565b6013818154811061131d57600080fd5b600091825260209091200154905081565b60006113398161331e565b63ffffffff8316600081815260106020908152604091829020859055815192835282018490527f64c32ce0e117784f1d5e814bf80b31fe78b790c426c4226225197eb2bd30ccaf91015b60405180910390a1505050565b6000828152600560205260409020600101546113ab8161331e565b6113b5838361345d565b50505050565b60006113e7817f0000000000000000000000000000000000000000000000000000000000000000614fa5565b905090565b6001600160a01b03811633146114155760405163334bd91960e11b815260040160405180910390fd5b61141f82826134f1565b505050565b60008051602061567a83398151915261143c8161331e565b61144461355e565b50565b600061145560075460ff1690565b61146157600019610d7c565b600092915050565b6114946040518060800160405280600081526020016060815260200160008152602001606081525090565b6019546001600160a01b03166114bc5760405162461bcd60e51b8152600401610ed290614fbe565b60195460405163c515ee2360e01b81526001600160a01b039091169063c515ee23906114f090879087908790600401614fee565b600060405180830381865afa15801561150d573d6000803e3d6000fd5b505050506040513d6000823e601f3d908101601f191682016040526115359190810190615104565b949350505050565b60006115488161331e565b6103e882111561158e5760405162461bcd60e51b81526020600482015260116024820152700a6d8d2e0e0c2ceca40e8dede40d0d2ced607b1b6044820152606401610ed2565b601a8290556040518281527f9c922f6d0c990b250e9dd0a427a5c8da7f44b960f697fecb31cbbd8ba79ec8c2906020015b60405180910390a15050565b60008051602061569a8339815191526115e38161331e565b60006115ed610d13565b90506000600c5482111561161057600c546116089083614f48565b600c83905590505b6000811561166c576127106009548361162991906151fd565b611633919061522a565b905061166c33827f00000000000000000000000000000000000000000000000000000000000000005b6001600160a01b031691906135b0565b6000611676613276565b905080156116a9576116a933827f000000000000000000000000000000000000000000000000000000000000000061165c565b42600a55806116b88386614f48565b6116c29190614f48565b600b55604080518481526020810184905242918101919091527f4ec2d4038813a7f233af1d6d09519189db3ed5bc5b823bf72f6d3144574721de906060015b60405180910390a15050505050565b6000610d7c82610e14565b60008051602061567a8339815191526117338161331e565b61144461360f565b60006117468161331e565b6001600160a01b03831661178c5760405162461bcd60e51b815260206004820152600d60248201526c24b73b30b634b2103a37b5b2b760991b6044820152606401610ed2565b6000196117988461364c565b146117dc5760405162461bcd60e51b8152602060048201526014602482015273546f6b656e20616c72656164792065786973747360601b6044820152606401610ed2565b6012805460018082019092557fbb8a6a4669ba250d26cd7a459eca9d215f8307e33aebe50379bc5a3617ec34440180546001600160a01b0319166001600160a01b03861617905560138054918201815560008190527f66de8ffda797e3de9c05e8fc57b3bf0ec28a930d40b0d285d93c06501cf6a0909091018390558054604080516020808402820181019092528281526118ae93909290918301828280156118a457602002820191906000526020600020905b815481526020019060010190808311611890575b50505050506136b3565b6118fa5760405162461bcd60e51b815260206004820152601860248201527f496e76616c696420746f74616c20616c6c6f636174696f6e00000000000000006044820152606401610ed2565b604080516001600160a01b0385168152602081018490527f0bf95c64377f4b62ff6288abe7cee76f42fa8f29c9919f1a3d9da6c52950a6d49101611383565b60008051602061569a8339815191526119518161331e565b611959613705565b6019546001600160a01b03166119815760405162461bcd60e51b8152600401610ed290614fbe565b600083116119cb5760405162461bcd60e51b8152602060048201526017602482015276416d6f756e74206d75737420626520706f73697469766560481b6044820152606401610ed2565b6000196119d78661364c565b03611a245760405162461bcd60e51b815260206004820152601b60248201527f46726f6d20746f6b656e206e6f7420696e20706f7274666f6c696f00000000006044820152606401610ed2565b600019611a308561364c565b03611a7d5760405162461bcd60e51b815260206004820152601960248201527f546f20746f6b656e206e6f7420696e20706f7274666f6c696f000000000000006044820152606401610ed2565b6040516370a0823160e01b81523060048201526000906001600160a01b038716906370a0823190602401602060405180830381865afa158015611ac4573d6000803e3d6000fd5b505050506040513d601f19601f82011682018060405250810190611ae8919061523e565b905080841115611b315760405162461bcd60e51b8152602060048201526014602482015273496e73756666696369656e742062616c616e636560601b6044820152606401610ed2565b60195460405163c515ee2360e01b81526000916001600160a01b03169063c515ee2390611b66908a908a908a90600401614fee565b600060405180830381865afa158015611b83573d6000803e3d6000fd5b505050506040513d6000823e601f3d908101601f19168201604052611bab9190810190615104565b90508381600001511015611bf95760405162461bcd60e51b815260206004820152601560248201527452657475726e20616d6f756e7420746f6f206c6f7760581b6044820152606401610ed2565b60195460405163095ea7b360e01b81526001600160a01b039182166004820152602481018790529088169063095ea7b3906044016020604051808303816000875af1158015611c4c573d6000803e3d6000fd5b505050506040513d601f19601f82011682018060405250810190611c709190615257565b506040805160c0810182526001600160a01b03808a168252888116602080840191909152828401899052606083018890528401516080830152600060a083018190526019549351631130696160e11b815292939092911690632260d2c290611cdc908590600401615274565b6000604051808303816000875af1158015611cfb573d6000803e3d6000fd5b505050506040513d6000823e601f3d908101601f19168201604052611d2391908101906152da565b9050611d3a8989898460000151856060015161372f565b805160408051898152602081019290925233916001600160a01b038b811692908d16917fee4825a7988c5519a874be79f2a84d13d02cfe5f74cad97cda2d5b55d2b13bfa910160405180910390a4505050506112e06001600655565b6000806000806000611da66138c9565b905080600003611dc457600080600080945094509450945050611f63565b6000806000805b601254811015611ed0576000611de08261392c565b9050600060138381548110611df757611df7614f8f565b9060005260206000200154905080821115611ebb576000611e188284614f48565b90508681118015611e2b5750601f548110155b15611eb9578096508395506000805b601254811015611eb657858114611ea4576000611e568261392c565b9050600060138381548110611e6d57611e6d614f8f565b9060005260206000200154905081811115611ea1576000611e8e8383614f48565b905084811115611e9f578094508399505b505b50505b80611eae81615364565b915050611e3a565b50505b505b50508080611ec890615364565b915050611dcb565b50601f548310801590611ee35750818114155b15611f5e5760128281548110611efb57611efb614f8f565b600091825260209091200154601280546001600160a01b0390921698509082908110611f2957611f29614f8f565b6000918252602090912001546001600160a01b03169550612710611f4d85856151fd565b611f57919061522a565b9450600197505b505050505b90919293565b60608060606012805480602002602001604051908101604052809291908181526020018280548015611fc457602002820191906000526020600020905b81546001600160a01b03168152600190910190602001808311611fa6575b50505050509250601380548060200260200160405190810160405280929190818152602001828054801561201757602002820191906000526020600020905b815481526020019060010190808311612003575b505060125493945050506001600160401b03821115905061203a5761203a61480e565b604051908082528060200260200182016040528015612063578160200160208202803683370190505b50915060005b6012548110156120ab5761207c8161392c565b83828151811061208e5761208e614f8f565b6020908102919091010152806120a381615364565b915050612069565b50909192565b60006120bd8383613984565b90506120c76139a0565b156120d4576120d4612399565b600f5460408051858152602081018490526001600160a01b038516917ff4c57637dd38389180a3140034c6f38a9aa64c7c158c0e2e315847639718a905910160405180910390a392915050565b600061212c8161331e565b610bb882111561216d5760405162461bcd60e51b815260206004820152600c60248201526b08ccaca40e8dede40d0d2ced60a31b6044820152606401610ed2565b600980549083905560408051828152602081018590527f607b1c943753982194530bf7133a5972ea2626e028005410efa54ab20035caf89101611383565b60008051602061569a8339815191526121c38161331e565b6000601854426121d39190614f48565b905060006121df610d13565b6040516320d7a7ad60e21b81526004810182905260248101849052909150600090309063835e9eb490604401602060405180830381865afa158015612228573d6000803e3d6000fd5b505050506040513d601f19601f8201168201806040525081019061224c919061523e565b905080156113b5577f000000000000000000000000000000000000000000000000000000000000000060405163a9059cbb60e01b8152336004820152602481018390526001600160a01b03919091169063a9059cbb906044016020604051808303816000875af11580156122c4573d6000803e3d6000fd5b505050506040513d601f19601f820116820180604052508101906122e89190615257565b5042601881905560405130917f108516ddcf5ba43cea6bb2cd5ff6d59ac196c1c86ccb9178332b9dd72d1ca5619161232891858252602082015260400190565b60405180910390a250505050565b7f17a8e30262c1f919c33056d877a3c22b95c2f5e4dac44683c1c2323cd79fbdb06123608161331e565b6123686139ba565b7f967c2a3d21d6001f5ed872635cf9e4a320c90180d6caed65f90623cea6d535e782426040516115bf92919061537d565b601d5460ff166123eb5760405162461bcd60e51b815260206004820152601760248201527f4175746f20726562616c616e63652064697361626c65640000000000000000006044820152606401610ed2565b6019546001600160a01b03166124135760405162461bcd60e51b8152600401610ed290614fbe565b601e54601554612423919061539f565b42101561246a5760405162461bcd60e51b8152602060048201526015602482015274546f6f20736f6f6e20746f20726562616c616e636560581b6044820152606401610ed2565b600080600080612478611d96565b93509350935093508361248b5750505050565b60006124956138c9565b90506000612710601d60030154836124ad91906151fd565b6124b7919061522a565b9050808311156124c5578092505b601b548310156124d757505050505050565b6124e28585856139de565b505042601555505050505b565b600064496cebb800826016548561250691906151fd565b61251091906151fd565b611306919061522a565b60006125258161331e565b61025884101561256c5760405162461bcd60e51b8152602060048201526012602482015271125b9d195c9d985b081d1bdbc81cda1bdc9d60721b6044820152606401610ed2565b60648310156125b15760405162461bcd60e51b81526020600482015260116024820152705468726573686f6c6420746f6f206c6f7760781b6044820152606401610ed2565b6107d08311156125f85760405162461bcd60e51b81526020600482015260126024820152710a8d0e4cae6d0ded8c840e8dede40d0d2ced60731b6044820152606401610ed2565b6107d082111561263e5760405162461bcd60e51b815260206004820152601160248201527009ac2f040e6eec2e040e8dede40d0d2ced607b1b6044820152606401610ed2565b601d805460ff1916861515908117909155601e859055601f8490556020838155604080519283529082018690528101849052606081018390527f4d002c08fb291506cc6ea39809e2145f6d1b9f48dddeea10cb5baf044510eddf90608001611701565b60009182526005602090815260408084206001600160a01b0393909316845291905290205460ff1690565b60006126d6613705565b6126de6139ba565b6126e88383613d8f565b9050610d7c6001600655565b60008051602061567a83398151915261270c8161331e565b7f00000000000000000000000000000000000000000000000000000000000000006001600160a01b0316836001600160a01b03160361278d5760405162461bcd60e51b815260206004820152601b60248201527f43616e6e6f74207769746864726177207661756c7420617373657400000000006044820152606401610ed2565b600d546127a7906001600160a01b038581169116846135b0565b600d54604080516001600160a01b03808716825260208201869052909216908201527f3ab9db27a4cdd8c603a752b62d5fbd93b4b3509fe2596708e9688e42bbac357690606001611383565b606060048054610d9190614f5b565b60008051602061567a83398151915261281a8161331e565b601d805460ff191690556040514281527ff16036954e71f66796003a271c0ccd7e59560cec78f2f2eeea02a6938a3d15559060200160405180910390a150565b6012818154811061286a57600080fd5b6000918252602090912001546001600160a01b0316905081565b600061288f8161331e565b60125482106128d05760405162461bcd60e51b815260206004820152600d60248201526c092dcecc2d8d2c840d2dcc8caf609b1b6044820152606401610ed2565b6000601283815481106128e5576128e5614f8f565b6000918252602090912001546001600160a01b03169050825b60125461290d90600190614f48565b8110156129df57601261292182600161539f565b8154811061293157612931614f8f565b600091825260209091200154601280546001600160a01b03909216918390811061295d5761295d614f8f565b600091825260209091200180546001600160a01b0319166001600160a01b0392909216919091179055601361299382600161539f565b815481106129a3576129a3614f8f565b9060005260206000200154601382815481106129c1576129c1614f8f565b600091825260209091200155806129d781615364565b9150506128fe565b5060128054806129f1576129f16153b2565b600082815260209020810160001990810180546001600160a01b03191690550190556013805480612a2457612a246153b2565b600190038181906000526020600020016000905590557f3977fdeff40857fbe2c9282bf44e2769213f22cda97afa0759cf4984975d11c18360405161138391815260200190565b600033610e2f8185856133fe565b6000612a848161331e565b6001600160a01b038216612ada5760405162461bcd60e51b815260206004820152601a60248201527f496e76616c69642061676772656761746f7220616464726573730000000000006044820152606401610ed2565b601980546001600160a01b038481166001600160a01b0319831681179093556040519116919082907f69c90c235b1838b89c12de5597e31bc2600807ac8d6bd6d41ab7710cd769feba90600090a3505050565b6000610d7c82613ddd565b6000612b42613705565b612b4d848484613dea565b90506113066001600655565b6000612b63613705565b612b4d848484613e42565b6000612b798161331e565b6012548214612bbc5760405162461bcd60e51b815260206004820152600f60248201526e098cadccee8d040dad2e6dac2e8c6d608b1b6044820152606401610ed2565b612bf88383808060200260200160405190810160405280939291908181526020018383602002808284376000920191909152506136b392505050565b612c3a5760405162461bcd60e51b8152602060048201526013602482015272496e76616c696420616c6c6f636174696f6e7360681b6044820152606401610ed2565b612c46601384846145a5565b507f0be7004609d76e2b3efe2d18c2de3b1c71d560fb59b9a0f19f7ce22aefdecd4083836040516113839291906153c8565b3360009081526011602052604090205460ff16612ccf5760405162461bcd60e51b81526020600482015260156024820152742737ba1030baba3437b934bd32b21039b2b73232b960591b6044820152606401610ed2565b6012548310612d155760405162461bcd60e51b8152602060048201526012602482015271092dcecc2d8d2c840cce4deda40d2dcc8caf60731b6044820152606401610ed2565b6012548210612d595760405162461bcd60e51b815260206004820152601060248201526f092dcecc2d8d2c840e8de40d2dcc8caf60831b6044820152606401610ed2565b818303612d9d5760405162461bcd60e51b815260206004820152601260248201527153616d6520746f6b656e20696e646963657360701b6044820152606401610ed2565b60008111612de75760405162461bcd60e51b8152602060048201526017602482015276416d6f756e74206d75737420626520706f73697469766560481b6044820152606401610ed2565b612dee8383835b60408051848152602081018490529081018290527f94f559da092d98a1ba2672afcdf872f0d1da0018658ab5a5aa653d421d9b110590606001611383565b6000610d7c826000613e91565b6000612e4760075460ff1690565b61146157612e5482613ec1565b610d7c565b600082815260056020526040902060010154612e748161331e565b6113b583836134f1565b6000612e8c60075460ff1690565b61146157612e5482613ee5565b60606012805480602002602001604051908101604052809291908181526020018280548015610e0a57602002820191906000526020600020905b81546001600160a01b03168152600190910190602001808311612ed3575050505050905090565b6001600160a01b037f00000000000000000000000000000000000000000000000000000000000000001615612f675760405162461bcd60e51b8152602060048201526013602482015272105b1c9958591e481a5b9a5d1a585b1a5e9959606a1b6044820152606401610ed2565b6001600160a01b038516612fbd5760405162461bcd60e51b815260206004820152601a60248201527f496e76616c6964204c617965725a65726f20656e64706f696e740000000000006044820152606401610ed2565b828114612ffe5760405162461bcd60e51b815260206004820152600f60248201526e098cadccee8d040dad2e6dac2e8c6d608b1b6044820152606401610ed2565b61303a8282808060200260200160405190810160405280939291908181526020018383602002808284376000920191909152506136b392505050565b61307c5760405162461bcd60e51b8152602060048201526013602482015272496e76616c696420616c6c6f636174696f6e7360681b6044820152606401610ed2565b600f8b9055600e80546001600160a01b0319166001600160a01b0387161790556130a8601285856145f0565b506130b5601383836145a5565b504260158190556018556001600160a01b03808b16600081815260116020526040808220805460ff191660011790555191928f16918e917fc221d16022d31138e130dcda10441a725921ca5f956185e8a45f9abe8ad7e2d491a4505050505050505050505050565b6000610d7c82612e2c565b60006131338161331e565b506001600160a01b03919091166000908152601160205260409020805460ff1916911515919091179055565b600061316a8161331e565b6101f48211156131ab5760405162461bcd60e51b815260206004820152600c60248201526b08ccaca40e8dede40d0d2ced60a31b6044820152606401610ed2565b600880549083905560408051828152602081018590527ff5ff4786e844406502466108c183ca5ff947880b3ba08b1500eea9c29d12030d9101611383565b60007f00000000000000000000000000000000000000000000000000000000000000006040516370a0823160e01b81523060048201526001600160a01b0391909116906370a0823190602401602060405180830381865afa158015613252573d6000803e3d6000fd5b505050506040513d601f19601f820116820180604052508101906113e7919061523e565b600080600a54426132879190614f48565b905060006132936131e9565b905060006132a76301e133806127106151fd565b83600854846132b691906151fd565b6132c091906151fd565b611535919061522a565b60006113066132d7610d13565b6132e290600161539f565b6132ee6000600a6154e5565b6002546132fb919061539f565b85919085613f03565b61141f8383836001613f47565b6000610d7c826001613e91565b611444813361401c565b61333360008461345d565b5061334c60008051602061569a8339815191528361345d565b5061336560008051602061567a8339815191528261345d565b505042600a55506000600b819055600c55600d80546001600160a01b0319166001600160a01b0392909216919091179055565b6001600160a01b038381166000908152600160209081526040808320938616835292905220546000198110156113b557818110156133ef57828183604051637dc7a0d960e11b8152600401610ed2939291906154f4565b6113b584848484036000613f47565b6001600160a01b03831661342857604051634b637e8f60e11b815260006004820152602401610ed2565b6001600160a01b0382166134525760405163ec442f0560e01b815260006004820152602401610ed2565b61141f838383614059565b600061346983836126a1565b6134e95760008381526005602090815260408083206001600160a01b03861684529091529020805460ff191660011790556134a13390565b6001600160a01b0316826001600160a01b0316847f2f8788117e7eff1d82e926ec794901d17c78024a50270940304540a733656f0d60405160405180910390a4506001610d7c565b506000610d7c565b60006134fd83836126a1565b156134e95760008381526005602090815260408083206001600160a01b0386168085529252808320805460ff1916905551339286917ff6391f5c32d9c69d2a47ea670b442974b53935d1edc7fd64eb21e047a839171b9190a4506001610d7c565b613566614170565b6007805460ff191690557f5db9ee0a495bf2e6ff9c91a7834c1ba4fdd244a5e8aa4e537bd38aeae4b073aa335b6040516001600160a01b03909116815260200160405180910390a1565b6040516001600160a01b0383811660248301526044820183905261141f91859182169063a9059cbb906064015b604051602081830303815290604052915060e01b6020820180516001600160e01b038381831617835250505050614193565b6136176139ba565b6007805460ff191660011790557f62e78cea01bee320cd4e420270b5ea74000d11b0c9f74754ebdbfc544b05a2586135933390565b6000805b6012548110156136a957826001600160a01b03166012828154811061367757613677614f8f565b6000918252602090912001546001600160a01b0316036136975792915050565b806136a181615364565b915050613650565b5060001992915050565b600080805b83518110156136fa578381815181106136d3576136d3614f8f565b6020026020010151826136e6919061539f565b9150806136f281615364565b9150506136b8565b506127101492915050565b60026006540361372857604051633ee5aeb560e01b815260040160405180910390fd5b6002600655565b6040805160c0810182526001600160a01b0380881682528681166020830190815292820186815260608301868152426080850190815260a0850187815260218054600181018255600091909152865160069091027f3a6357012c1a3ae0a17d304c9920310382d968ebcc4b1771f41c6b304205b570810180549288166001600160a01b031993841617815598517f3a6357012c1a3ae0a17d304c9920310382d968ebcc4b1771f41c6b304205b571820180549190981692169190911790955592517f3a6357012c1a3ae0a17d304c9920310382d968ebcc4b1771f41c6b304205b57285015590517f3a6357012c1a3ae0a17d304c9920310382d968ebcc4b1771f41c6b304205b573840155517f3a6357012c1a3ae0a17d304c9920310382d968ebcc4b1771f41c6b304205b574830155519192917f3a6357012c1a3ae0a17d304c9920310382d968ebcc4b1771f41c6b304205b575909101906138929082615563565b5050506001600160a01b038516600090815260226020526040812080548592906138bd90849061539f565b90915550505050505050565b600080805b60125481101561392657613908601282815481106138ee576138ee614f8f565b6000918252602090912001546001600160a01b0316614204565b613912908361539f565b91508061391e81615364565b9150506138ce565b50919050565b601254600090821061394057506000919050565b600061394a6138c9565b90508060000361395d5750600092915050565b6000613975601285815481106138ee576138ee614f8f565b9050816132c0826127106151fd565b600061398e613705565b6139966139ba565b6126e88383614271565b6000601554610e106139b2919061539f565b421015905090565b60075460ff16156124ed5760405163d93c066560e01b815260040160405180910390fd5b6019546001600160a01b0316613a065760405162461bcd60e51b8152600401610ed290614fbe565b601954604051634a234ca560e11b81526001600160a01b038581166004830152848116602483015290911690639446994a90604401602060405180830381865afa158015613a58573d6000803e3d6000fd5b505050506040513d601f19601f82011682018060405250810190613a7c9190615257565b613abd5760405162461bcd60e51b815260206004820152601260248201527114185a5c881b9bdd081cdd5c1c1bdc9d195960721b6044820152606401610ed2565b6040516370a0823160e01b81523060048201526000906001600160a01b038516906370a0823190602401602060405180830381865afa158015613b04573d6000803e3d6000fd5b505050506040513d601f19601f82011682018060405250810190613b28919061523e565b905080821115613b36578091505b81600003613b445750505050565b60195460405163c515ee2360e01b81526000916001600160a01b03169063c515ee2390613b7990889088908890600401614fee565b600060405180830381865afa158015613b96573d6000803e3d6000fd5b505050506040513d6000823e601f3d908101601f19168201604052613bbe9190810190615104565b90506000612710601a54612710613bd59190614f48565b8351613be191906151fd565b613beb919061522a565b60195460405163095ea7b360e01b81526001600160a01b0391821660048201526024810187905291925087169063095ea7b3906044016020604051808303816000875af1158015613c40573d6000803e3d6000fd5b505050506040513d601f19601f82011682018060405250810190613c649190615257565b506040805160c0810182526001600160a01b038089168252878116602080840191909152828401889052606083018590528501516080830152600060a083018190526019549351631130696160e11b815292939092911690632260d2c290613cd0908590600401615274565b6000604051808303816000875af1158015613cef573d6000803e3d6000fd5b505050506040513d6000823e601f3d908101601f19168201604052613d1791908101906152da565b9050613d2e8888888460000151856060015161372f565b866001600160a01b0316886001600160a01b03167f433e65babc466e1c8446bd5b91d6872d58a29ba59d5df95f7936192577bc5bfe8884600001518560600151604051613d7d93929190615622565b60405180910390a35050505050505050565b600080613d9b83611447565b905080841115613dc45782848260405163284ff66760e01b8152600401610ed2939291906154f4565b6000613dcf85612b2d565b9050611535338583886142bb565b6000610d7c8260016132ca565b600080613df683612e39565b905080851115613e1f57828582604051633fa733bb60e21b8152600401610ed2939291906154f4565b6000613e2a86610e39565b9050613e39338686898561433f565b95945050505050565b600080613e4e83612e7e565b905080851115613e7757828582604051632e52afbb60e21b8152600401610ed2939291906154f4565b6000613e8286611710565b9050613e39338686848a61433f565b6000611306613ea182600a6154e5565b600254613eae919061539f565b613eb6610d13565b6132fb90600161539f565b6001600160a01b038116600090815260208190526040812054610d7c9060006132ca565b6001600160a01b038116600090815260208190526040812054610d7c565b6000613f32613f11836143ff565b8015613f2d575060008480613f2857613f28615214565b868809115b151590565b613f3d86868661442c565b613e39919061539f565b6001600160a01b038416613f715760405163e602df0560e01b815260006004820152602401610ed2565b6001600160a01b038316613f9b57604051634a1406b160e11b815260006004820152602401610ed2565b6001600160a01b03808516600090815260016020908152604080832093871683529290522082905580156113b557826001600160a01b0316846001600160a01b03167f8c5be1e5ebec7d5bd14f71427d1e84f3dd0314c0f7b2291e5b200ac8c7c3b9258460405161400e91815260200190565b60405180910390a350505050565b61402682826126a1565b6140555760405163e2517d3f60e01b81526001600160a01b038216600482015260248101839052604401610ed2565b5050565b6001600160a01b038316614084578060026000828254614079919061539f565b909155506140e39050565b6001600160a01b038316600090815260208190526040902054818110156140c45783818360405163391434e360e21b8152600401610ed2939291906154f4565b6001600160a01b03841660009081526020819052604090209082900390555b6001600160a01b0382166140ff5760028054829003905561411e565b6001600160a01b03821660009081526020819052604090208054820190555b816001600160a01b0316836001600160a01b03167fddf252ad1be2c89b69c2b068fc378daa952ba7f163c4a11628f55a4df523b3ef8360405161416391815260200190565b60405180910390a3505050565b60075460ff166124ed57604051638dfc202b60e01b815260040160405180910390fd5b600080602060008451602086016000885af1806141b6576040513d6000823e3d81fd5b50506000513d915081156141ce5780600114156141db565b6001600160a01b0384163b155b156113b557604051635274afe760e01b81526001600160a01b0385166004820152602401610ed2565b6040516370a0823160e01b815230600482015260009081906001600160a01b038416906370a0823190602401602060405180830381865afa15801561424d573d6000803e3d6000fd5b505050506040513d601f19601f82011682018060405250810190611306919061523e565b60008061427d83611447565b9050808411156142a657828482604051633c8097d960e11b8152600401610ed2939291906154f4565b60006142b18561311d565b9050611535338587845b6142e77f00000000000000000000000000000000000000000000000000000000000000008530856144e1565b6142f18382614509565b826001600160a01b0316846001600160a01b03167fdcbc1c05240f31ff3ad067ef1ee35ce4997762752e3a095284754544f4c709d7848460405161400e929190918252602082015260400190565b826001600160a01b0316856001600160a01b03161461436357614363838683613398565b61436d838261453f565b6143987f000000000000000000000000000000000000000000000000000000000000000085846135b0565b826001600160a01b0316846001600160a01b0316866001600160a01b03167ffbde797d201c681b91056529119e0b02407c7bb96a4a2c75c01fc9667232c8db85856040516143f0929190918252602082015260400190565b60405180910390a45050505050565b6000600282600381111561441557614415615641565b61441f9190615657565b60ff166001149050919050565b600080600061443b8686614575565b91509150816000036144605783818161445657614456615214565b0492505050611306565b818411614477576144776003851502601118614593565b6000848688096000868103871696879004966002600389028118808a02820302808a02820302808a02820302808a02820302808a02820302808a02909103029181900381900460010185841190960395909502919093039390930492909217029150509392505050565b6113b584856001600160a01b03166323b872dd8686866040516024016135dd93929190614fee565b6001600160a01b0382166145335760405163ec442f0560e01b815260006004820152602401610ed2565b61405560008383614059565b6001600160a01b03821661456957604051634b637e8f60e11b815260006004820152602401610ed2565b61405582600083614059565b60008060001983850993909202808410938190039390930393915050565b634e487b71600052806020526024601cfd5b8280548282559060005260206000209081019282156145e0579160200282015b828111156145e05782358255916020019190600101906145c5565b506145ec929150614643565b5090565b8280548282559060005260206000209081019282156145e0579160200282015b828111156145e05781546001600160a01b0319166001600160a01b03843516178255602090920191600190910190614610565b5b808211156145ec5760008155600101614644565b60006020828403121561466a57600080fd5b81356001600160e01b03198116811461130657600080fd5b60005b8381101561469d578181015183820152602001614685565b50506000910152565b600081518084526146be816020860160208601614682565b601f01601f19169290920160200192915050565b60208152600061130660208301846146a6565b6000602082840312156146f757600080fd5b5035919050565b6001600160a01b038116811461144457600080fd5b803561471e816146fe565b919050565b6000806040838503121561473657600080fd5b8235614741816146fe565b946020939093013593505050565b60208152600060018060a01b03808451166020840152806020850151166040840152506040830151606083015260608301516080830152608083015160a083015260a083015160c08084015261153560e08401826146a6565b600060018060a01b03808916835280881660208401525085604083015284606083015283608083015260c060a08301526147e560c08301846146a6565b98975050505050505050565b60006020828403121561480357600080fd5b8135611306816146fe565b634e487b7160e01b600052604160045260246000fd5b604051608081016001600160401b03811182821017156148465761484661480e565b60405290565b604051601f8201601f191681016001600160401b03811182821017156148745761487461480e565b604052919050565b60006001600160401b038211156148955761489561480e565b50601f01601f191660200190565b600082601f8301126148b457600080fd5b81356148c76148c28261487c565b61484c565b8181528460208386010111156148dc57600080fd5b816020850160208301376000918101602001919091529392505050565b600080600080600060a0868803121561491157600080fd5b853561491c816146fe565b945060208601356001600160401b038082111561493857600080fd5b61494489838a016148a3565b9550604088013591508082111561495a57600080fd5b50614967888289016148a3565b9598949750949560608101359550608001359392505050565b803563ffffffff8116811461471e57600080fd5b6000602082840312156149a657600080fd5b61130682614980565b6000806000606084860312156149c457600080fd5b83356149cf816146fe565b925060208401356149df816146fe565b929592945050506040919091013590565b60008060408385031215614a0357600080fd5b61474183614980565b60008060408385031215614a1f57600080fd5b823591506020830135614a31816146fe565b809150509250929050565b600081518084526020808501945080840160005b83811015614a6c57815187529582019590820190600101614a50565b509495945050505050565b600060208083528351818401528084015160806040850152614a9c60a0850182614a3c565b9050604085015160608501526060850151601f19808684030160808701528282518085528585019150858160051b860101868501945060005b82811015614b015784878303018452614aef8287516146a6565b95880195938801939150600101614ad5565b509998505050505050505050565b60008060008060808587031215614b2557600080fd5b8435614b30816146fe565b93506020850135614b40816146fe565b93969395505050506040820135916060013590565b600081518084526020808501945080840160005b83811015614a6c5781516001600160a01b031687529582019590820190600101614b69565b606081526000614ba16060830186614b55565b8281036020840152614bb38186614a3c565b90508281036040840152614bc78185614a3c565b9695505050505050565b600060208284031215614be357600080fd5b81356001600160401b03811115614bf957600080fd5b611535848285016148a3565b60008060408385031215614c1857600080fd5b50508035926020909101359150565b801515811461144457600080fd5b60008060008060808587031215614c4b57600080fd5b8435614c5681614c27565b966020860135965060408601359560600135945092505050565b600080600060608486031215614c8557600080fd5b833592506020840135614c97816146fe565b91506040840135614ca7816146fe565b809150509250925092565b60008083601f840112614cc457600080fd5b5081356001600160401b03811115614cdb57600080fd5b6020830191508360208260051b8501011115614cf657600080fd5b9250929050565b60008060208385031215614d1057600080fd5b82356001600160401b03811115614d2657600080fd5b614d3285828601614cb2565b90969095509350505050565b600080600060608486031215614d5357600080fd5b505081359360208301359350604090920135919050565b6020815260006113066020830184614b55565b60008083601f840112614d8f57600080fd5b5081356001600160401b03811115614da657600080fd5b602083019150836020828501011115614cf657600080fd5b6000806000806000806000806000806000806101008d8f031215614de157600080fd5b614dea8d614713565b9b5060208d01359a50614dff60408e01614713565b99506001600160401b0360608e01351115614e1957600080fd5b614e298e60608f01358f01614d7d565b90995097506001600160401b0360808e01351115614e4657600080fd5b614e568e60808f01358f01614d7d565b9097509550614e6760a08e01614713565b94506001600160401b0360c08e01351115614e8157600080fd5b614e918e60c08f01358f01614cb2565b90945092506001600160401b0360e08e01351115614eae57600080fd5b614ebe8e60e08f01358f01614cb2565b81935080925050509295989b509295989b509295989b565b60008060408385031215614ee957600080fd5b8235614ef4816146fe565b91506020830135614a31816146fe565b60008060408385031215614f1757600080fd5b8235614f22816146fe565b91506020830135614a3181614c27565b634e487b7160e01b600052601160045260246000fd5b81810381811115610d7c57610d7c614f32565b600181811c90821680614f6f57607f821691505b60208210810361392657634e487b7160e01b600052602260045260246000fd5b634e487b7160e01b600052603260045260246000fd5b60ff8181168382160190811115610d7c57610d7c614f32565b602080825260169082015275111156081859d9dc9959d85d1bdc881b9bdd081cd95d60521b604082015260600190565b6001600160a01b039384168152919092166020820152604081019190915260600190565b60006001600160401b0382111561502b5761502b61480e565b5060051b60200190565b600082601f83011261504657600080fd5b81516150546148c28261487c565b81815284602083860101111561506957600080fd5b611535826020830160208701614682565b600082601f83011261508b57600080fd5b8151602061509b6148c283615012565b82815260059290921b840181019181810190868411156150ba57600080fd5b8286015b848110156150f95780516001600160401b038111156150dd5760008081fd5b6150eb8986838b0101615035565b8452509183019183016150be565b509695505050505050565b6000602080838503121561511757600080fd5b82516001600160401b038082111561512e57600080fd5b908401906080828703121561514257600080fd5b61514a614824565b82518152838301518281111561515f57600080fd5b8301601f8101881361517057600080fd5b805161517e6148c282615012565b81815260059190911b8201860190868101908a83111561519d57600080fd5b928701925b828410156151bb578351825292870192908701906151a2565b8088860152505050506040830151604082015260608301519350818411156151e257600080fd5b6151ee8785850161507a565b60608201529695505050505050565b8082028115828204841417610d7c57610d7c614f32565b634e487b7160e01b600052601260045260246000fd5b60008261523957615239615214565b500490565b60006020828403121561525057600080fd5b5051919050565b60006020828403121561526957600080fd5b815161130681614c27565b60208152600060018060a01b03808451166020840152806020850151166040840152506040830151606083015260608301516080830152608083015160c060a08401526152c460e0840182614a3c565b905060a084015160c08401528091505092915050565b6000602082840312156152ec57600080fd5b81516001600160401b038082111561530357600080fd5b908301906080828603121561531757600080fd5b61531f614824565b82518152602083015160208201526040830151604082015260608301518281111561534957600080fd5b61535587828601615035565b60608301525095945050505050565b60006001820161537657615376614f32565b5060010190565b60408152600061539060408301856146a6565b90508260208301529392505050565b80820180821115610d7c57610d7c614f32565b634e487b7160e01b600052603160045260246000fd5b6020808252810182905260006001600160fb1b038311156153e857600080fd5b8260051b80856040850137919091016040019392505050565b600181815b8085111561543c57816000190482111561542257615422614f32565b8085161561542f57918102915b93841c9390800290615406565b509250929050565b60008261545357506001610d7c565b8161546057506000610d7c565b816001811461547657600281146154805761549c565b6001915050610d7c565b60ff84111561549157615491614f32565b50506001821b610d7c565b5060208310610133831016604e8410600b84101617156154bf575081810a610d7c565b6154c98383615401565b80600019048211156154dd576154dd614f32565b029392505050565b600061130660ff841683615444565b6001600160a01b039390931683526020830191909152604082015260600190565b601f82111561141f57600081815260208120601f850160051c8101602086101561553c5750805b601f850160051c820191505b8181101561555b57828155600101615548565b505050505050565b81516001600160401b0381111561557c5761557c61480e565b6155908161558a8454614f5b565b84615515565b602080601f8311600181146155c557600084156155ad5750858301515b600019600386901b1c1916600185901b17855561555b565b600085815260208120601f198616915b828110156155f4578886015182559484019460019091019084016155d5565b50858210156156125787850151600019600388901b60f8161c191681555b5050505050600190811b01905550565b838152826020820152606060408201526000613e3960608301846146a6565b634e487b7160e01b600052602160045260246000fd5b600060ff83168061566a5761566a615214565b8060ff8416069150509291505056febf233dd2aafeb4d50879c4aa5c81e96d92f6e6945c906a58f9f2d1c1631b4b26241ecf16d79d0f8dbfb92cbc07fe17840425976cf0667f022fe9877caa831b08a26469706673582212200d7e74ebaba75c38c6e2dcee6f6927b9142f44a141ab213c7feae0100b6302ee64736f6c63430008140033",
  "linkReferences": {},
  "deployedLinkReferences": {}
}