{
  "_format": "hh-sol-artifact-1",
  "contractName": "ChainVault",
  "sourceName": "contracts/ChainVault.sol",
  "abi": [
    {
      "inputs": [],
      "stateMutability": "nonpayable",
      "type": "constructor"
    },
    {
      "inputs": [],
      "name": "AccessControlBadConfirmation",
      "type": "error"
    },
    {
      "inputs": [
        {
          "internalType": "address",
          "name": "account",
          "type": "address"
        },
        {
          "internalType": "bytes32",
          "name": "neededRole",
          "type": "bytes32"
        }
      ],
      "name": "AccessControlUnauthorizedAccount",
      "type": "error"
    },
    {
      "inputs": [],
      "name": "ReentrancyGuardReentrantCall",
      "type": "error"
    },
    {
      "inputs": [
        {
          "internalType": "address",
          "name": "token",
          "type": "address"
        }
      ],
      "name": "SafeERC20FailedOperation",
      "type": "error"
    },
    {
      "anonymous": false,
      "inputs": [
        {
          "indexed": true,
          "internalType": "bytes32",
          "name": "role",
          "type": "bytes32"
        },
        {
          "indexed": true,
          "internalType": "bytes32",
          "name": "previousAdminRole",
          "type": "bytes32"
        },
        {
          "indexed": true,
          "internalType": "bytes32",
          "name": "newAdminRole",
          "type": "bytes32"
        }
      ],
      "name": "RoleAdminChanged",
      "type": "event"
    },
    {
      "anonymous": false,
      "inputs": [
        {
          "indexed": true,
          "internalType": "bytes32",
          "name": "role",
          "type": "bytes32"
        },
        {
          "indexed": true,
          "internalType": "address",
          "name": "account",
          "type": "address"
        },
        {
          "indexed": true,
          "internalType": "address",
          "name": "sender",
          "type": "address"
        }
      ],
      "name": "RoleGranted",
      "type": "event"
    },
    {
      "anonymous": false,
      "inputs": [
        {
          "indexed": true,
          "internalType": "bytes32",
          "name": "role",
          "type": "bytes32"
        },
        {
          "indexed": true,
          "internalType": "address",
          "name": "account",
          "type": "address"
        },
        {
          "indexed": true,
          "internalType": "address",
          "name": "sender",
          "type": "address"
        }
      ],
      "name": "RoleRevoked",
      "type": "event"
    },
    {
      "anonymous": false,
      "inputs": [
        {
          "indexed": true,
          "internalType": "bytes32",
          "name": "fundId",
          "type": "bytes32"
        },
        {
          "indexed": true,
          "internalType": "address",
          "name": "tokenAddress",
          "type": "address"
        },
        {
          "indexed": false,
          "internalType": "uint256",
          "name": "amount",
          "type": "uint256"
        },
        {
          "indexed": false,
          "internalType": "uint256",
          "name": "chainId",
          "type": "uint256"
        }
      ],
      "name": "TokensDeposited",
      "type": "event"
    },
    {
      "anonymous": false,
      "inputs": [
        {
          "indexed": true,
          "internalType": "bytes32",
          "name": "fundId",
          "type": "bytes32"
        },
        {
          "indexed": true,
          "internalType": "address",
          "name": "tokenAddress",
          "type": "address"
        },
        {
          "indexed": false,
          "internalType": "uint256",
          "name": "amount",
          "type": "uint256"
        },
        {
          "indexed": false,
          "internalType": "address",
          "name": "recipient",
          "type": "address"
        },
        {
          "indexed": false,
          "internalType": "uint256",
          "name": "chainId",
          "type": "uint256"
        }
      ],
      "name": "TokensWithdrawn",
      "type": "event"
    },
    {
      "anonymous": false,
      "inputs": [
        {
          "indexed": true,
          "internalType": "uint256",
          "name": "chainId",
          "type": "uint256"
        },
        {
          "indexed": false,
          "internalType": "bool",
          "name": "active",
          "type": "bool"
        }
      ],
      "name": "VaultStatusChanged",
      "type": "event"
    },
    {
      "inputs": [],
      "name": "DEFAULT_ADMIN_ROLE",
      "outputs": [
        {
          "internalType": "bytes32",
          "name": "",
          "type": "bytes32"
        }
      ],
      "stateMutability": "view",
      "type": "function"
    },
    {
      "inputs": [],
      "name": "EMERGENCY_ROLE",
      "outputs": [
        {
          "internalType": "bytes32",
          "name": "",
          "type": "bytes32"
        }
      ],
      "stateMutability": "view",
      "type": "function"
    },
    {
      "inputs": [],
      "name": "REDEMPTION_MANAGER_ROLE",
      "outputs": [
        {
          "internalType": "bytes32",
          "name": "",
          "type": "bytes32"
        }
      ],
      "stateMutability": "view",
      "type": "function"
    },
    {
      "inputs": [],
      "name": "VAULT_MANAGER_ROLE",
      "outputs": [
        {
          "internalType": "bytes32",
          "name": "",
          "type": "bytes32"
        }
      ],
      "stateMutability": "view",
      "type": "function"
    },
    {
      "inputs": [
        {
          "internalType": "bytes32",
          "name": "fundId",
          "type": "bytes32"
        },
        {
          "internalType": "address",
          "name": "tokenAddress",
          "type": "address"
        },
        {
          "internalType": "uint256",
          "name": "amount",
          "type": "uint256"
        }
      ],
      "name": "depositTokens",
      "outputs": [],
      "stateMutability": "nonpayable",
      "type": "function"
    },
    {
      "inputs": [],
      "name": "emergencyPause",
      "outputs": [],
      "stateMutability": "nonpayable",
      "type": "function"
    },
    {
      "inputs": [],
      "name": "emergencyUnpause",
      "outputs": [],
      "stateMutability": "nonpayable",
      "type": "function"
    },
    {
      "inputs": [
        {
          "internalType": "uint256",
          "name": "chainId",
          "type": "uint256"
        }
      ],
      "name": "getChainInfo",
      "outputs": [
        {
          "components": [
            {
              "internalType": "uint256",
              "name": "chainId",
              "type": "uint256"
            },
            {
              "internalType": "string",
              "name": "chainName",
              "type": "string"
            },
            {
              "internalType": "address",
              "name": "vaultAddress",
              "type": "address"
            },
            {
              "internalType": "bool",
              "name": "isActive",
              "type": "bool"
            },
            {
              "internalType": "uint256",
              "name": "minBalance",
              "type": "uint256"
            }
          ],
          "internalType": "struct IChainVault.ChainInfo",
          "name": "info",
          "type": "tuple"
        }
      ],
      "stateMutability": "view",
      "type": "function"
    },
    {
      "inputs": [
        {
          "internalType": "bytes32",
          "name": "fundId",
          "type": "bytes32"
        }
      ],
      "name": "getFundTokens",
      "outputs": [
        {
          "internalType": "address[]",
          "name": "tokens",
          "type": "address[]"
        }
      ],
      "stateMutability": "view",
      "type": "function"
    },
    {
      "inputs": [
        {
          "internalType": "bytes32",
          "name": "fundId",
          "type": "bytes32"
        }
      ],
      "name": "getFundVaultBalances",
      "outputs": [
        {
          "components": [
            {
              "internalType": "bytes32",
              "name": "fundId",
              "type": "bytes32"
            },
            {
              "internalType": "address",
              "name": "tokenAddress",
              "type": "address"
            },
            {
              "internalType": "uint256",
              "name": "totalBalance",
              "type": "uint256"
            },
            {
              "internalType": "uint256",
              "name": "availableBalance",
              "type": "uint256"
            },
            {
              "internalType": "uint256",
              "name": "lockedBalance",
              "type": "uint256"
            },
            {
              "internalType": "uint256",
              "name": "chainId",
              "type": "uint256"
            }
          ],
          "internalType": "struct IChainVault.VaultBalance[]",
          "name": "balances",
          "type": "tuple[]"
        }
      ],
      "stateMutability": "view",
      "type": "function"
    },
    {
      "inputs": [
        {
          "internalType": "bytes32",
          "name": "role",
          "type": "bytes32"
        }
      ],
      "name": "getRoleAdmin",
      "outputs": [
        {
          "internalType": "bytes32",
          "name": "",
          "type": "bytes32"
        }
      ],
      "stateMutability": "view",
      "type": "function"
    },
    {
      "inputs": [],
      "name": "getSupportedChains",
      "outputs": [
        {
          "internalType": "uint256[]",
          "name": "chains",
          "type": "uint256[]"
        }
      ],
      "stateMutability": "view",
      "type": "function"
    },
    {
      "inputs": [
        {
          "internalType": "bytes32",
          "name": "fundId",
          "type": "bytes32"
        },
        {
          "internalType": "address",
          "name": "tokenAddress",
          "type": "address"
        }
      ],
      "name": "getVaultBalance",
      "outputs": [
        {
          "components": [
            {
              "internalType": "bytes32",
              "name": "fundId",
              "type": "bytes32"
            },
            {
              "internalType": "address",
              "name": "tokenAddress",
              "type": "address"
            },
            {
              "internalType": "uint256",
              "name": "totalBalance",
              "type": "uint256"
            },
            {
              "internalType": "uint256",
              "name": "availableBalance",
              "type": "uint256"
            },
            {
              "internalType": "uint256",
              "name": "lockedBalance",
              "type": "uint256"
            },
            {
              "internalType": "uint256",
              "name": "chainId",
              "type": "uint256"
            }
          ],
          "internalType": "struct IChainVault.VaultBalance",
          "name": "balance",
          "type": "tuple"
        }
      ],
      "stateMutability": "view",
      "type": "function"
    },
    {
      "inputs": [
        {
          "internalType": "bytes32",
          "name": "role",
          "type": "bytes32"
        },
        {
          "internalType": "address",
          "name": "account",
          "type": "address"
        }
      ],
      "name": "grantRole",
      "outputs": [],
      "stateMutability": "nonpayable",
      "type": "function"
    },
    {
      "inputs": [
        {
          "internalType": "bytes32",
          "name": "role",
          "type": "bytes32"
        },
        {
          "internalType": "address",
          "name": "account",
          "type": "address"
        }
      ],
      "name": "hasRole",
      "outputs": [
        {
          "internalType": "bool",
          "name": "",
          "type": "bool"
        }
      ],
      "stateMutability": "view",
      "type": "function"
    },
    {
      "inputs": [
        {
          "internalType": "bytes32",
          "name": "fundId",
          "type": "bytes32"
        },
        {
          "internalType": "address",
          "name": "tokenAddress",
          "type": "address"
        },
        {
          "internalType": "uint256",
          "name": "amount",
          "type": "uint256"
        }
      ],
      "name": "hasSufficientBalance",
      "outputs": [
        {
          "internalType": "bool",
          "name": "sufficient",
          "type": "bool"
        }
      ],
      "stateMutability": "view",
      "type": "function"
    },
    {
      "inputs": [],
      "name": "isPaused",
      "outputs": [
        {
          "internalType": "bool",
          "name": "",
          "type": "bool"
        }
      ],
      "stateMutability": "view",
      "type": "function"
    },
    {
      "inputs": [
        {
          "internalType": "bytes32",
          "name": "fundId",
          "type": "bytes32"
        },
        {
          "internalType": "address",
          "name": "tokenAddress",
          "type": "address"
        },
        {
          "internalType": "uint256",
          "name": "amount",
          "type": "uint256"
        },
        {
          "internalType": "bool",
          "name": "lock",
          "type": "bool"
        }
      ],
      "name": "lockBalance",
      "outputs": [],
      "stateMutability": "nonpayable",
      "type": "function"
    },
    {
      "inputs": [],
      "name": "paused",
      "outputs": [
        {
          "internalType": "bool",
          "name": "",
          "type": "bool"
        }
      ],
      "stateMutability": "view",
      "type": "function"
    },
    {
      "inputs": [
        {
          "internalType": "bytes32",
          "name": "role",
          "type": "bytes32"
        },
        {
          "internalType": "address",
          "name": "callerConfirmation",
          "type": "address"
        }
      ],
      "name": "renounceRole",
      "outputs": [],
      "stateMutability": "nonpayable",
      "type": "function"
    },
    {
      "inputs": [
        {
          "internalType": "bytes32",
          "name": "role",
          "type": "bytes32"
        },
        {
          "internalType": "address",
          "name": "account",
          "type": "address"
        }
      ],
      "name": "revokeRole",
      "outputs": [],
      "stateMutability": "nonpayable",
      "type": "function"
    },
    {
      "inputs": [
        {
          "internalType": "uint256",
          "name": "chainId",
          "type": "uint256"
        },
        {
          "internalType": "string",
          "name": "chainName",
          "type": "string"
        },
        {
          "internalType": "address",
          "name": "vaultAddress",
          "type": "address"
        },
        {
          "internalType": "bool",
          "name": "isActive",
          "type": "bool"
        },
        {
          "internalType": "uint256",
          "name": "minBalance",
          "type": "uint256"
        }
      ],
      "name": "setChainVault",
      "outputs": [],
      "stateMutability": "nonpayable",
      "type": "function"
    },
    {
      "inputs": [
        {
          "internalType": "uint256",
          "name": "chainId",
          "type": "uint256"
        },
        {
          "internalType": "bool",
          "name": "active",
          "type": "bool"
        }
      ],
      "name": "setVaultStatus",
      "outputs": [],
      "stateMutability": "nonpayable",
      "type": "function"
    },
    {
      "inputs": [
        {
          "internalType": "bytes4",
          "name": "interfaceId",
          "type": "bytes4"
        }
      ],
      "name": "supportsInterface",
      "outputs": [
        {
          "internalType": "bool",
          "name": "",
          "type": "bool"
        }
      ],
      "stateMutability": "view",
      "type": "function"
    },
    {
      "inputs": [
        {
          "internalType": "bytes32",
          "name": "fundId",
          "type": "bytes32"
        },
        {
          "internalType": "address",
          "name": "tokenAddress",
          "type": "address"
        },
        {
          "internalType": "uint256",
          "name": "amount",
          "type": "uint256"
        },
        {
          "internalType": "address",
          "name": "recipient",
          "type": "address"
        }
      ],
      "name": "withdrawTokens",
      "outputs": [],
      "stateMutability": "nonpayable",
      "type": "function"
    }
  ],
  "bytecode": "0x60806040523462000026576200001462000078565b604051612312620008a2823961231290f35b600080fd5b9060ff905b9181191691161790565b90565b90620000506200003a6200005892151590565b82546200002b565b9055565b6200003a6200003a6200003a9290565b6200003a60006200005c565b620000826200010b565b62000090600060066200003d565b620000a66200009e6200006c565b3390620001b2565b50620000d27fd1473398bb66596de5d1ea1fc8e303ff2ac23265adc9144b1b52065dc4f0934b6200009e565b50620000fe7fbf233dd2aafeb4d50879c4aa5c81e96d92f6e6945c906a58f9f2d1c1631b4b266200009e565b5062000109620006cd565b565b6200010962000148565b6200003a60016200005c565b906000199062000030565b90620001406200003a62000058926200005c565b825462000121565b620001096200015662000115565b60016200012c565b905b600052602052604060002090565b6200003a9062000184906001600160a01b031682565b6001600160a01b031690565b6200003a906200016e565b6200003a9062000190565b9062000160906200019b565b620001c6620001c2838362000879565b1590565b156200024657620001f26001620001ec846000620001e586826200015e565b01620001a6565b6200003d565b620002116200020a62000203339390565b936200019b565b916200019b565b917f2f8788117e7eff1d82e926ec794901d17c78024a50270940304540a733656f0d6200023d60405190565b600090a4600190565b5050600090565b634e487b7160e01b600052604160045260246000fd5b90601f01601f191681019081106001600160401b038211176200028557604052565b6200024d565b90620001096200029a60405190565b928362000263565b6200003a60a06200028b565b905b9052565b6001600160401b0381116200028557602090601f01601f19160190565b90620002e7620002e183620002b4565b6200028b565b918252565b620002f86008620002d1565b67457468657265756d60c01b602082015290565b6200003a620002ec565b90620002b09062000184565b9062000160906200005c565b634e487b7160e01b600052602260045260246000fd5b906001600283049216801562000367575b60208310146200036157565b6200032e565b91607f169162000355565b9160001960089290920291821b911b62000030565b91906200039c6200003a62000058936200005c565b90835462000372565b620001099160009162000387565b818110620003bf575050565b80620003cf6000600193620003a5565b01620003b3565b9190601f8111620003e657505050565b620003fa6200010993600052602060002090565b906020601f8401819004830193106200041e575b6020601f909101040190620003b3565b90915081906200040e565b9062000433815190565b906001600160401b03821162000285576200045b8262000454855462000344565b85620003d6565b602090601f83116001146200049a57620000589291600091836200048e575b5050600019600883021c1916906002021790565b0151905038806200047a565b601f19831691620004b085600052602060002090565b9260005b818110620004f157509160029391856001969410620004d7575b50505002019055565b01516000196008601f8516021c19169055388080620004ce565b91936020600181928787015181550195019201620004b4565b90620001099162000429565b6200003a905162000184565b906001600160a01b039062000030565b90620005466200003a62000058926200019b565b825462000522565b9060ff60a01b9060a01b62000030565b90620005716200003a6200005892151590565b82546200054e565b6003620005eb608062000109946200059d62000596600083015190565b866200012c565b620005b7620005ad602083015190565b600187016200050a565b620005e660028601620005d8620005d16040850162000516565b8262000532565b60608301511515906200055e565b015190565b91016200012c565b90620001099162000579565b634e487b7160e01b600052603260045260246000fd5b80548210156200063a5762000631600191600052602060002090565b91020190600090565b620005ff565b90815491680100000000000000008310156200028557826200066c916001620001099501815562000615565b9062000387565b6200067f600f620002d1565b6e2127211029b6b0b93a1021b430b4b760891b602082015290565b6200003a62000673565b620006b06007620002d1565b662837b63cb3b7b760c91b602082015290565b6200003a620006a4565b620001096001620006de306200019b565b9062000873620006ed620002a2565b916200076b6089620006ff836200005c565b946200070c8682620002ae565b620007216200071a6200030c565b6020830152565b62000730876040830162000316565b8315156060820152620007586200074e662386f26fc100006200005c565b60808301620002ae565b620007716004916200076b868462000322565b620005f3565b6200077f6005968762000640565b620007f96200078d620002a2565b620007f26200079d60386200005c565b91620007aa8382620002ae565b620007b86200071a6200069a565b620007c78b6040830162000316565b8715156060820152620007e56200074e66038d7ea4c680006200005c565b6200076b60388662000322565b8762000640565b6200084c62000807620002a2565b946200084362000817856200005c565b99620008248b89620002ae565b6200083962000832620006c3565b60208a0152565b6040880162000316565b15156060860152565b6200086d62000863670de0b6b3a76400006200005c565b60808601620002ae565b62000322565b62000640565b6200003a916000620001e56200089a9362000892600090565b50826200015e565b5460ff169056fe6080604052600436101561001257600080fd5b60003560e01c806301ffc9a7146101a257806320df43591461019d578063248a9ca3146101985780632f2ff15d1461019357806336568abe1461018e5780634a4e3bd51461018957806351858e27146101845780635c975abb1461017f5780635e5a24a41461017a57806360ea30c3146101755780636c7bfa7a14610170578063804ea3341461016b5780638ade91ec146101665780638b4f2a471461016157806391d148541461015c578063935af81214610157578063a217fddf14610152578063a2472e701461014d578063b187bd2614610148578063b895fccc14610143578063c4bffe2b1461013e578063d1c0af3714610139578063d547741f14610134578063dbd87e381461012f5763f5475f85036101a7576109ff565b6109b1565b610975565b61095c565b610935565b6108bf565b61084c565b610825565b610799565b610752565b6106d8565b6106bc565b61064e565b610627565b610556565b610405565b61039c565b610381565b610343565b61032b565b610312565b6102f4565b61028e565b610222565b6101e5565b600080fd5b6001600160e01b031981165b036101a757565b905035906101cc826101ac565b565b906020828203126101a7576101e2916101bf565b90565b346101a7576102136102006101fb3660046101ce565b610a1b565b6040515b91829182901515815260200190565b0390f35b60009103126101a757565b346101a757610232366004610217565b6102137fbf233dd2aafeb4d50879c4aa5c81e96d92f6e6945c906a58f9f2d1c1631b4b265b6040519182918290815260200190565b806101b8565b905035906101cc82610267565b906020828203126101a7576101e29161026d565b346101a7576102136102576102a436600461027a565b610aa8565b6001600160a01b031690565b6001600160a01b0381166101b8565b905035906101cc826102b5565b91906040838203126101a7576101e29060206102ed828661026d565b94016102c4565b346101a75761030d6103073660046102d1565b90610aea565b604051005b346101a75761030d6103253660046102d1565b90610af4565b346101a75761033b366004610217565b61030d610bac565b346101a757610353366004610217565b61030d610bec565b6101e2916008021c5b60ff1690565b906101e2915461035b565b6101e26000600661036a565b346101a757610391366004610217565b610213610200610375565b346101a7576103ac366004610217565b6102137fd1473398bb66596de5d1ea1fc8e303ff2ac23265adc9144b1b52065dc4f0934b610257565b90916060828403126101a7576101e26103ee848461026d565b9360406103fe82602087016102c4565b940161026d565b346101a75761021361020061041b3660046103d5565b91610c26565b634e487b7160e01b600052604160045260246000fd5b90601f01601f1916810190811067ffffffffffffffff82111761045957604052565b610421565b906101cc61046b60405190565b9283610437565b67ffffffffffffffff811161045957602090601f01601f19160190565b0190565b90826000939282370152565b909291926104b46104af82610472565b61045e565b93818552818301116101a7576101cc916020850190610493565b9080601f830112156101a7578160206101e29335910161049f565b8015156101b8565b905035906101cc826104e9565b919060a0838203126101a757610514818461026d565b92602081013567ffffffffffffffff81116101a757826105359183016104ce565b926101e261054684604085016102c4565b9360806103fe82606087016104f1565b346101a75761030d6105693660046104fe565b939290926111a6565b60005b8381106105855750506000910152565b8181015183820152602001610575565b6105b66105bf60209361048f936105aa815190565b80835293849260200190565b95869101610572565b601f01601f191690565b80518252906101e2906080806105ee60a0840160208701518582036020870152610595565b6040808701516001600160a01b031690850152946060818101511515908501525b0151910152565b60208082526101e2929101906105c9565b346101a75761021361064261063d36600461027a565b61133e565b60405191829182610616565b346101a75761065e366004610217565b6102137fe5bea7d829f723a95a0c83a655765be37702fa584514c1e2a20867d04b58478e610257565b6080818303126101a75761069b828261026d565b926101e26106ac84602085016102c4565b9360606102ed826040870161026d565b346101a75761030d6106cf366004610687565b9291909161177e565b346101a7576102136102006106ee3660046102d1565b9061178a565b805182526020808201516001600160a01b0316908301526101cc919060a090819061072460408201516040860152565b61073360608201516060860152565b61060f60808201516080860152565b60c0810192916101cc91906106f4565b346101a75761021361076e6107683660046102d1565b90611874565b60405191829182610742565b6101e26101e26101e29290565b6101e2600061077a565b6101e2610787565b346101a7576107a9366004610217565b610213610257610791565b9061048f8160c0936106f4565b906107e16107da6107d0845190565b8084529260200190565b9260200190565b9060005b8181106107f25750505090565b90919261080c61080560019286516107b4565b9460200190565b9291016107e5565b60208082526101e2929101906107c1565b346101a75761021361084061083b36600461027a565b6119a5565b60405191829182610814565b346101a75761085c366004610217565b610213610200611a44565b906108766107da6107d0845190565b9060005b8181106108875750505090565b9091926108a661080560019286516001600160a01b0316815260200190565b92910161087a565b60208082526101e292910190610867565b346101a7576102136108da6108d536600461027a565b611a4e565b604051918291826108ae565b906108f56107da6107d0845190565b9060005b8181106109065750505090565b90919261091c6108056001928651815260200190565b9291016108f9565b60208082526101e2929101906108e6565b346101a757610945366004610217565b610213610950611ad7565b60405191829182610924565b346101a75761030d61096f3660046103d5565b91611d18565b346101a75761030d6109883660046102d1565b90611d3e565b91906040838203126101a7576101e29060206109aa828661026d565b94016104f1565b346101a75761030d6109c436600461098e565b90611e1e565b6080818303126101a7576109de828261026d565b926101e26109ef84602085016102c4565b9360606109aa826040870161026d565b346101a75761030d610a123660046109ca565b92919091611f81565b7f7965db0b000000000000000000000000000000000000000000000000000000006001600160e01b0319821614908115610a53575090565b6101e291506001600160e01b0319167f01ffc9a7000000000000000000000000000000000000000000000000000000001490565b905b600052602052604060002090565b6101e29081565b6101e29054610a97565b6001610ac16101e292610ab9600090565b506000610a87565b01610a9e565b906101cc91610add610ad882610aa8565b611f8d565b90610ae791611f98565b50565b906101cc91610ac7565b90610afe336102a9565b6001600160a01b03821603610b1657610ae791612013565b6040517f6697b232000000000000000000000000000000000000000000000000000000008152600490fd5b0390fd5b610b6e7fbf233dd2aafeb4d50879c4aa5c81e96d92f6e6945c906a58f9f2d1c1631b4b26611f8d565b6101cc610ba0565b9060ff905b9181191691161790565b90610b956101e2610b9c92151590565b8254610b76565b9055565b6101cc60006006610b85565b6101cc610b45565b610bdd7fbf233dd2aafeb4d50879c4aa5c81e96d92f6e6945c906a58f9f2d1c1631b4b26611f8d565b6101cc6101cc60016006610b85565b6101cc610bb4565b6102a96101e26101e2926001600160a01b031690565b6101e290610bf4565b6101e290610c0a565b90610a8990610c13565b610c516003610ac16101e2610c5995610c4c610c5596610c44600090565b506002610a87565b610c1c565b9290565b9190565b101590565b906101cc94939291610c71610ad8610787565b6110bc565b15610c7d57565b60405162461bcd60e51b815260206004820152601c60248201527f436861696e5661756c743a20696e76616c696420636861696e204944000000006044820152606490fd5b15610cc957565b60405162461bcd60e51b815260206004820152601e60248201527f436861696e5661756c743a20696e76616c696420636861696e206e616d6500006044820152606490fd5b6102a96101e26101e29290565b6101e290610d0e565b15610d2b57565b60405162461bcd60e51b815260206004820152602160248201527f436861696e5661756c743a20696e76616c6964207661756c74206164647265736044820152607360f81b6064820152608490fd5b90610a899061077a565b6101e260a061045e565b9060001990610b7b565b90610da86101e2610b9c9261077a565b8254610d8e565b634e487b7160e01b600052602260045260246000fd5b9060016002830492168015610de5575b6020831014610de057565b610daf565b91607f1691610dd5565b9160001960089290920291821b911b610b7b565b921b90565b9190610e196101e2610b9c9361077a565b908354610def565b6101cc91600091610e08565b818110610e38575050565b80610e466000600193610e21565b01610e2d565b9190601f8111610e5b57505050565b610e6d6101cc93600052602060002090565b906020601f840181900483019310610e8f575b6020601f909101040190610e2d565b9091508190610e80565b90610ea2815190565b9067ffffffffffffffff821161045957610ec682610ec08554610dc5565b85610e4c565b602090601f8311600114610f0157610b9c929160009183610ef6575b5050600019600883021c1916906002021790565b015190503880610ee2565b601f19831691610f1685600052602060002090565b9260005b818110610f5457509160029391856001969410610f3b575b50505002019055565b01516000196008601f8516021c19169055388080610f32565b91936020600181928787015181550195019201610f1a565b906101cc91610e99565b906001600160a01b0390610b7b565b90610f956101e2610b9c92610c13565b8254610f76565b9074ff00000000000000000000000000000000000000009060a01b610b7b565b90610fcc6101e2610b9c92151590565b8254610f9c565b600361103f60806101cc94610ff2610fec600083015190565b86610d98565b611009611000602083015190565b60018701610f6c565b61103a6002860161102d61102760408501516001600160a01b031690565b82610f85565b6060830151151590610fbc565b015190565b9101610d98565b906101cc91610fd3565b634e487b7160e01b600052603260045260246000fd5b805482101561108957611080600191600052602060002090565b91020190600090565b611050565b908154916801000000000000000083101561045957826110b69160016101cc95018155611066565b90610e08565b93916111756111859294936111666000936110e06110d98661077a565b8a11610c76565b6110fd6110eb895190565b6110f7610c558861077a565b11610cc2565b61111d61110c6102a987610d1b565b6001600160a01b0383161415610d24565b61115661112f86610ac18c6004610d7a565b61113b610c558861077a565b149861114f8b611149610d84565b98890152565b6020870152565b6001600160a01b03166040850152565b84151560608401526080830152565b611180856004610d7a565b611046565b8161119e575b506111935750565b6101cc90600561108e565b90503861118b565b906101cc94939291610c5e565b6111bb610d84565b9060008252602080808080860160605b815201600081520160008152016000905250565b6101e26111b3565b805460009392916112046111fa83610dc5565b8085529360200190565b9160018116908115611256575060011461121d57505050565b6112309192939450600052602060002090565b916000925b8184106112425750500190565b805484840152602090930192600101611235565b92949550505060ff1916825215156020020190565b906101e2916111e7565b906101cc61128f9261128660405190565b9384809261126b565b0383610437565b6101e2906102a9565b6101e29054611296565b6101e29060a01c610364565b6101e290546112a9565b906101cc61132e60036112d0610d84565b946112e16112dd82610a9e565b8752565b6112f76112f060018301611275565b6020880152565b6113166113066002830161129f565b6001600160a01b03166040880152565b610ac1611325600283016112b5565b15156060880152565b6080840152565b6101e2906112bf565b6113556101e29161134d6111df565b506004610d7a565b611335565b6101cc9392919061138a7fe5bea7d829f723a95a0c83a655765be37702fa584514c1e2a20867d04b58478e611f8d565b6113ee565b6101e290610364565b6101e2905461138f565b156113a957565b60405162461bcd60e51b815260206004820152601260248201527f436861696e5661756c743a2070617573656400000000000000000000000000006044820152606490fd5b906101cc93929161140e6114096114056006611398565b1590565b6113a2565b9061142293929161141d612079565b61164f565b6101cc6120d2565b1561143157565b60405162461bcd60e51b815260206004820152601b60248201527f436861696e5661756c743a20696e76616c69642066756e6420494400000000006044820152606490fd5b1561147d57565b60405162461bcd60e51b815260206004820152602160248201527f436861696e5661756c743a20696e76616c696420746f6b656e206164647265736044820152607360f81b6064820152608490fd5b156114d357565b60405162461bcd60e51b815260206004820152602360248201527f436861696e5661756c743a20616d6f756e74206d75737420626520706f73697460448201527f69766500000000000000000000000000000000000000000000000000000000006064820152608490fd5b1561154557565b60405162461bcd60e51b815260206004820152601d60248201527f436861696e5661756c743a20696e76616c696420726563697069656e740000006044820152606490fd5b1561159157565b60405162461bcd60e51b815260206004820152602a60248201527f436861696e5661756c743a20696e73756666696369656e7420617661696c616260448201527f6c652062616c616e6365000000000000000000000000000000000000000000006064820152608490fd5b634e487b7160e01b600052601160045260246000fd5b9190820391821161161f57565b6115fc565b9081526060810193926101cc92909160409161164b905b6001600160a01b03166020830152565b0152565b9161176161175b7f327151f82215958f15cf355f8b2b63c312d8fe23ba3a14e0d65eb92fe28472a993946116ed6116dc60006116996116906101e28361077a565b855b141561142a565b6102a96116d46116a883610d1b565b926116cf8c6116c86001600160a01b0387165b916001600160a01b031690565b1415611476565b61077a565b885b116114cc565b6001600160a01b038916141561153e565b6117486117026101e288610c4c856002610a87565b61173b6002600383019261172261171885610a9e565b8a905b101561158a565b016117358861173083610a9e565b611612565b90610d98565b6117358661173083610a9e565b6101e2848861175689610c13565b612127565b93610c13565b9361177961176e60405190565b928392469184611624565b0390a3565b906101cc93929161135a565b6101e29160006117a66117ac9361179f600090565b5082610a87565b01610c1c565b611398565b6101e260c061045e565b6117c36117b1565b9060008252602080808080808701600081520160006111cb565b6101e26117bb565b906101cc61186460056117f66117b1565b946118036112dd82610a9e565b6118226118126001830161129f565b6001600160a01b03166020880152565b61183861183160028301610a9e565b6040880152565b61184e61184760038301610a9e565b6060880152565b610ac161185d60048301610a9e565b6080880152565b60a0840152565b6101e2906117e5565b6101e291610c4c61188792610c446117dd565b61186b565b906118a761189b6107d0845490565b92600052602060002090565b9060005b8181106118b85750505090565b9091926118e56118de6001926118cd8761129f565b6001600160a01b0316815260200190565b9460010190565b9291016118ab565b906101e29161188c565b906101cc61128f9261190860405190565b938480926118ed565b6101e2906118f7565b67ffffffffffffffff81116104595760208091020190565b9061193f6104af8361191a565b918252565b60005b82811061195357505050565b60209061195e6117dd565b8184015201611947565b906101cc61197e61197884611932565b9361191a565b601f190160208401611944565b90611994825190565b811015611089576020809102010190565b906119b96119b4836003610a87565b611911565b6119c96119c4825190565b611968565b92836119d5600061077a565b6119e06101e2855190565b811015611a3d57611a3890611a1c6118876119fc866002610a87565b611a16611a09858a61198b565b516001600160a01b031690565b90610c1c565b611a26828961198b565b52611a31818861198b565b5060010190565b6119d5565b5093505050565b6101e26006611398565b6119b46101e291611a5d606090565b506003610a87565b90611a7461189b6107d0845490565b9060005b818110611a855750505090565b909192611aa26118de600192611a9a87610a9e565b815260200190565b929101611a78565b906101e291611a65565b906101cc61128f92611ac560405190565b93848092611aaa565b6101e290611ab4565b6101e26005611ace565b6101cc929190611b107fd1473398bb66596de5d1ea1fc8e303ff2ac23265adc9144b1b52065dc4f0934b611f8d565b906101cc9291611b266114096114056006611398565b906114229291611b34612079565b611bc8565b90610da86101e2610b9c9290565b91906008610b7b910291610e036001600160a01b03841b90565b9190611b726101e2610b9c93610c13565b908354611b47565b90815491680100000000000000008310156104595782611ba29160016101cc95018155611066565b90611b61565b9190820180921161161f57565b9081526040810192916101cc9160200152565b611779611cc361175b7fbb6f18e154dbc469723631ebb5ab63c51f9b738d0ef4cd850e44960fea736beb936101e260036000611c096116906101e28361077a565b8389611c1483610d1b565b611c306001600160a01b0382166001600160a01b0384166116c8565b611c408d6116d6610c558761077a565b611c5e8d611c4d84610c13565b611c5630610c13565b903390612194565b611c706101e283610c4c866002610a87565b936001850191611c926116bb611c858561129f565b926001600160a01b031690565b14611cd8575b50505050611cb5600282016117358c611cb083610a9e565b611ba8565b0161173589611cb083610a9e565b93611ccd60405190565b918291469083611bb5565b611cec93611ce7918601611b39565b610f85565b611cf94660058301610d98565b611d0f89611d0a6101e28786610a87565b611b7a565b83893880611c98565b906101cc9291611ae1565b906101cc91611d34610ad882610aa8565b90610ae791612013565b906101cc91611d23565b906101cc91611d58610ad8610787565b611da9565b15611d6457565b60405162461bcd60e51b815260206004820152601b60248201527f436861696e5661756c743a20636861696e206e6f7420666f756e6400000000006044820152606490fd5b611e19611e0f7f1bc8a1454ec29b296a8a6a92824885ffc8e6cc4ad70a6181213e833bf5a63fb792611df8611de46000610ac1846004610d7a565b611df1610c55600061077a565b1415611d5d565b6116cf856002611e09846004610d7a565b01610fbc565b9261020460405190565b0390a2565b906101cc91611d48565b6101cc93929190611e587fbf233dd2aafeb4d50879c4aa5c81e96d92f6e6945c906a58f9f2d1c1631b4b26611f8d565b611ecf565b15611e6457565b60405162461bcd60e51b815260206004820152602760248201527f436861696e5661756c743a20696e73756666696369656e74206c6f636b65642060448201527f62616c616e6365000000000000000000000000000000000000000000000000006064820152608490fd5b611f2991610c4c6101e292611ef0611eea6101e2600061077a565b82611692565b611f0f611f006102a96000610d1b565b6001600160a01b0385166116c8565b611f22611f1c600061077a565b876116d6565b6002610a87565b9115611f5d57611735600483611f5260036101cc960161173b611f4b82610a9e565b879061171b565b0191611cb083610a9e565b611735600383611f5260046101cc960161173b611f7982610a9e565b871115611e5d565b906101cc939291611e28565b6101cc9033906121ca565b611fa5611405838361178a565b1561200c57611fc46001611fbf8460006117a68682610a87565b610b85565b611fd8611fd261175b339390565b91610c13565b917f2f8788117e7eff1d82e926ec794901d17c78024a50270940304540a733656f0d61200360405190565b600090a4600190565b5050600090565b61201d828261178a565b1561200c576120366000611fbf84826117a68682610a87565b612044611fd261175b339390565b917ff6391f5c32d9c69d2a47ea670b442974b53935d1edc7fd64eb21e047a839171b61200360405190565b6101e2600261077a565b6120836001610a9e565b61208b61206f565b90811461209d576101cc906001610d98565b6040517f3ee5aeb5000000000000000000000000000000000000000000000000000000008152600490fd5b6101e2600161077a565b6101cc6120dd6120c8565b6001610d98565b6120fd6120f76101e29263ffffffff1690565b60e01b90565b6001600160e01b03191690565b6001600160a01b0390911681526040810192916101cc9160200152565b61216a60049261215b6101cc9561214163a9059cbb6120e4565b9261214b60405190565b968794602086019081520161210a565b60208201810382520383610437565b61221b565b6001600160a01b0390911681526060810193926101cc92909160409161164b9061163b565b9061216a9061215b6101cc956004956121b06323b872dd6120e4565b936121ba60405190565b978895602087019081520161216f565b906121d8611405828461178a565b6121e0575050565b610b416121ec60405190565b9283927fe2517d3f0000000000000000000000000000000000000000000000000000000084526004840161210a565b906000602091612229600090565b50828151910182855af1156122d0573d6000519061224a610c55600061077a565b036122bc575061225981610c13565b3b612267610c55600061077a565b145b6122705750565b61227c610b4191610c13565b6040519182917f5274afe7000000000000000000000000000000000000000000000000000000008352600483016001600160a01b03909116815260200190565b6122c9610c55600161077a565b1415612269565b6040513d6000823e3d90fdfea26469706673582212201873185e30302355b009b9784336cdccb9c9666f469c5674586c12053d1a235c64736f6c63430008160033",
  "linkReferences": {},
  "deployedLinkReferences": {}
}