{
  "_format": "hh-sol-artifact-1",
  "contractName": "RebalancingEngine",
  "sourceName": "contracts/RebalancingEngine.sol",
  "abi": [
    {
      "inputs": [
        {
          "internalType": "address",
          "name": "_aggregator",
          "type": "address"
        },
        {
          "internalType": "address",
          "name": "_priceFeed",
          "type": "address"
        },
        {
          "internalType": "address",
          "name": "_crossChainManager",
          "type": "address"
        }
      ],
      "stateMutability": "nonpayable",
      "type": "constructor"
    },
    {
      "inputs": [],
      "name": "AccessControlBadConfirmation",
      "type": "error"
    },
    {
      "inputs": [
        {
          "internalType": "address",
          "name": "account",
          "type": "address"
        },
        {
          "internalType": "bytes32",
          "name": "neededRole",
          "type": "bytes32"
        }
      ],
      "name": "AccessControlUnauthorizedAccount",
      "type": "error"
    },
    {
      "inputs": [],
      "name": "EnforcedPause",
      "type": "error"
    },
    {
      "inputs": [],
      "name": "ExpectedPause",
      "type": "error"
    },
    {
      "inputs": [],
      "name": "ReentrancyGuardReentrantCall",
      "type": "error"
    },
    {
      "inputs": [
        {
          "internalType": "address",
          "name": "token",
          "type": "address"
        }
      ],
      "name": "SafeERC20FailedOperation",
      "type": "error"
    },
    {
      "anonymous": false,
      "inputs": [
        {
          "indexed": true,
          "internalType": "address",
          "name": "vault",
          "type": "address"
        },
        {
          "indexed": true,
          "internalType": "address",
          "name": "fromToken",
          "type": "address"
        },
        {
          "indexed": true,
          "internalType": "address",
          "name": "toToken",
          "type": "address"
        },
        {
          "indexed": false,
          "internalType": "uint256",
          "name": "amountIn",
          "type": "uint256"
        },
        {
          "indexed": false,
          "internalType": "uint256",
          "name": "amountOut",
          "type": "uint256"
        },
        {
          "indexed": false,
          "internalType": "uint256",
          "name": "slippage",
          "type": "uint256"
        }
      ],
      "name": "AutoRebalanceExecuted",
      "type": "event"
    },
    {
      "anonymous": false,
      "inputs": [
        {
          "indexed": true,
          "internalType": "bytes32",
          "name": "fundId",
          "type": "bytes32"
        },
        {
          "indexed": false,
          "internalType": "uint256",
          "name": "fromChain",
          "type": "uint256"
        },
        {
          "indexed": false,
          "internalType": "uint256",
          "name": "toChain",
          "type": "uint256"
        },
        {
          "indexed": false,
          "internalType": "uint256",
          "name": "amount",
          "type": "uint256"
        }
      ],
      "name": "CrossChainRebalanceInitiated",
      "type": "event"
    },
    {
      "anonymous": false,
      "inputs": [
        {
          "indexed": true,
          "internalType": "address",
          "name": "vault",
          "type": "address"
        },
        {
          "indexed": false,
          "internalType": "uint256",
          "name": "deviation",
          "type": "uint256"
        },
        {
          "indexed": false,
          "internalType": "uint256",
          "name": "amount",
          "type": "uint256"
        }
      ],
      "name": "EmergencyRebalanceTriggered",
      "type": "event"
    },
    {
      "anonymous": false,
      "inputs": [
        {
          "indexed": true,
          "internalType": "uint256",
          "name": "proposalId",
          "type": "uint256"
        },
        {
          "indexed": true,
          "internalType": "address",
          "name": "proposer",
          "type": "address"
        },
        {
          "indexed": false,
          "internalType": "enum RebalancingEngine.ProposalType",
          "name": "proposalType",
          "type": "uint8"
        },
        {
          "indexed": false,
          "internalType": "string",
          "name": "description",
          "type": "string"
        }
      ],
      "name": "GovernanceProposalCreated",
      "type": "event"
    },
    {
      "anonymous": false,
      "inputs": [
        {
          "indexed": true,
          "internalType": "uint256",
          "name": "proposalId",
          "type": "uint256"
        },
        {
          "indexed": false,
          "internalType": "bool",
          "name": "success",
          "type": "bool"
        }
      ],
      "name": "GovernanceProposalExecuted",
      "type": "event"
    },
    {
      "anonymous": false,
      "inputs": [
        {
          "indexed": true,
          "internalType": "address",
          "name": "vault",
          "type": "address"
        },
        {
          "indexed": true,
          "internalType": "address",
          "name": "fromToken",
          "type": "address"
        },
        {
          "indexed": true,
          "internalType": "address",
          "name": "toToken",
          "type": "address"
        },
        {
          "indexed": false,
          "internalType": "uint256",
          "name": "amountIn",
          "type": "uint256"
        },
        {
          "indexed": false,
          "internalType": "uint256",
          "name": "amountOut",
          "type": "uint256"
        },
        {
          "indexed": false,
          "internalType": "address",
          "name": "executor",
          "type": "address"
        }
      ],
      "name": "ManualRebalanceExecuted",
      "type": "event"
    },
    {
      "anonymous": false,
      "inputs": [
        {
          "indexed": false,
          "internalType": "address",
          "name": "account",
          "type": "address"
        }
      ],
      "name": "Paused",
      "type": "event"
    },
    {
      "anonymous": false,
      "inputs": [
        {
          "indexed": true,
          "internalType": "address",
          "name": "vault",
          "type": "address"
        },
        {
          "indexed": true,
          "internalType": "address",
          "name": "fromToken",
          "type": "address"
        },
        {
          "indexed": true,
          "internalType": "address",
          "name": "toToken",
          "type": "address"
        },
        {
          "indexed": false,
          "internalType": "uint256",
          "name": "amount",
          "type": "uint256"
        },
        {
          "indexed": false,
          "internalType": "string",
          "name": "reason",
          "type": "string"
        }
      ],
      "name": "RebalanceFailed",
      "type": "event"
    },
    {
      "anonymous": false,
      "inputs": [
        {
          "indexed": true,
          "internalType": "address",
          "name": "vault",
          "type": "address"
        },
        {
          "indexed": false,
          "internalType": "uint256",
          "name": "oldThreshold",
          "type": "uint256"
        },
        {
          "indexed": false,
          "internalType": "uint256",
          "name": "newThreshold",
          "type": "uint256"
        }
      ],
      "name": "RebalanceThresholdUpdated",
      "type": "event"
    },
    {
      "anonymous": false,
      "inputs": [
        {
          "indexed": true,
          "internalType": "bytes32",
          "name": "role",
          "type": "bytes32"
        },
        {
          "indexed": true,
          "internalType": "bytes32",
          "name": "previousAdminRole",
          "type": "bytes32"
        },
        {
          "indexed": true,
          "internalType": "bytes32",
          "name": "newAdminRole",
          "type": "bytes32"
        }
      ],
      "name": "RoleAdminChanged",
      "type": "event"
    },
    {
      "anonymous": false,
      "inputs": [
        {
          "indexed": true,
          "internalType": "bytes32",
          "name": "role",
          "type": "bytes32"
        },
        {
          "indexed": true,
          "internalType": "address",
          "name": "account",
          "type": "address"
        },
        {
          "indexed": true,
          "internalType": "address",
          "name": "sender",
          "type": "address"
        }
      ],
      "name": "RoleGranted",
      "type": "event"
    },
    {
      "anonymous": false,
      "inputs": [
        {
          "indexed": true,
          "internalType": "bytes32",
          "name": "role",
          "type": "bytes32"
        },
        {
          "indexed": true,
          "internalType": "address",
          "name": "account",
          "type": "address"
        },
        {
          "indexed": true,
          "internalType": "address",
          "name": "sender",
          "type": "address"
        }
      ],
      "name": "RoleRevoked",
      "type": "event"
    },
    {
      "anonymous": false,
      "inputs": [
        {
          "indexed": true,
          "internalType": "bytes32",
          "name": "fundId",
          "type": "bytes32"
        },
        {
          "indexed": false,
          "internalType": "enum RebalancingEngine.RebalanceStrategy",
          "name": "oldStrategy",
          "type": "uint8"
        },
        {
          "indexed": false,
          "internalType": "enum RebalancingEngine.RebalanceStrategy",
          "name": "newStrategy",
          "type": "uint8"
        },
        {
          "indexed": false,
          "internalType": "uint256",
          "name": "tolerance",
          "type": "uint256"
        }
      ],
      "name": "StrategyUpdated",
      "type": "event"
    },
    {
      "anonymous": false,
      "inputs": [
        {
          "indexed": false,
          "internalType": "address",
          "name": "account",
          "type": "address"
        }
      ],
      "name": "Unpaused",
      "type": "event"
    },
    {
      "inputs": [],
      "name": "DEFAULT_ADMIN_ROLE",
      "outputs": [
        {
          "internalType": "bytes32",
          "name": "",
          "type": "bytes32"
        }
      ],
      "stateMutability": "view",
      "type": "function"
    },
    {
      "inputs": [],
      "name": "GOVERNANCE_DELAY",
      "outputs": [
        {
          "internalType": "uint256",
          "name": "",
          "type": "uint256"
        }
      ],
      "stateMutability": "view",
      "type": "function"
    },
    {
      "inputs": [],
      "name": "GOVERNANCE_ROLE",
      "outputs": [
        {
          "internalType": "bytes32",
          "name": "",
          "type": "bytes32"
        }
      ],
      "stateMutability": "view",
      "type": "function"
    },
    {
      "inputs": [],
      "name": "KEEPER_ROLE",
      "outputs": [
        {
          "internalType": "bytes32",
          "name": "",
          "type": "bytes32"
        }
      ],
      "stateMutability": "view",
      "type": "function"
    },
    {
      "inputs": [],
      "name": "PROPOSAL_THRESHOLD",
      "outputs": [
        {
          "internalType": "uint256",
          "name": "",
          "type": "uint256"
        }
      ],
      "stateMutability": "view",
      "type": "function"
    },
    {
      "inputs": [],
      "name": "REBALANCER_ROLE",
      "outputs": [
        {
          "internalType": "bytes32",
          "name": "",
          "type": "bytes32"
        }
      ],
      "stateMutability": "view",
      "type": "function"
    },
    {
      "inputs": [
        {
          "components": [
            {
              "internalType": "address",
              "name": "vault",
              "type": "address"
            },
            {
              "internalType": "address",
              "name": "fromToken",
              "type": "address"
            },
            {
              "internalType": "address",
              "name": "toToken",
              "type": "address"
            },
            {
              "internalType": "uint256",
              "name": "amount",
              "type": "uint256"
            },
            {
              "internalType": "uint256",
              "name": "minAmountOut",
              "type": "uint256"
            },
            {
              "internalType": "bytes",
              "name": "aggregatorCalldata",
              "type": "bytes"
            }
          ],
          "internalType": "struct RebalancingEngine.RebalanceParams",
          "name": "params",
          "type": "tuple"
        }
      ],
      "name": "_performSwap",
      "outputs": [],
      "stateMutability": "nonpayable",
      "type": "function"
    },
    {
      "inputs": [],
      "name": "aggregator",
      "outputs": [
        {
          "internalType": "contract IMultiChainAggregator",
          "name": "",
          "type": "address"
        }
      ],
      "stateMutability": "view",
      "type": "function"
    },
    {
      "inputs": [
        {
          "internalType": "address[]",
          "name": "vaults",
          "type": "address[]"
        }
      ],
      "name": "batchCheckRebalanceNeeded",
      "outputs": [
        {
          "internalType": "bool[]",
          "name": "needsRebalance",
          "type": "bool[]"
        }
      ],
      "stateMutability": "view",
      "type": "function"
    },
    {
      "inputs": [
        {
          "internalType": "address",
          "name": "vault",
          "type": "address"
        },
        {
          "internalType": "bytes32",
          "name": "fundId",
          "type": "bytes32"
        }
      ],
      "name": "checkAdvancedRebalanceNeeded",
      "outputs": [
        {
          "internalType": "bool",
          "name": "needed",
          "type": "bool"
        },
        {
          "components": [
            {
              "internalType": "address",
              "name": "vault",
              "type": "address"
            },
            {
              "internalType": "address",
              "name": "fromToken",
              "type": "address"
            },
            {
              "internalType": "address",
              "name": "toToken",
              "type": "address"
            },
            {
              "internalType": "uint256",
              "name": "amount",
              "type": "uint256"
            },
            {
              "internalType": "uint256",
              "name": "minAmountOut",
              "type": "uint256"
            },
            {
              "internalType": "bytes",
              "name": "aggregatorCalldata",
              "type": "bytes"
            }
          ],
          "internalType": "struct RebalancingEngine.RebalanceParams",
          "name": "params",
          "type": "tuple"
        }
      ],
      "stateMutability": "view",
      "type": "function"
    },
    {
      "inputs": [
        {
          "internalType": "address",
          "name": "vault",
          "type": "address"
        }
      ],
      "name": "checkRebalanceNeeded",
      "outputs": [
        {
          "internalType": "bool",
          "name": "needed",
          "type": "bool"
        },
        {
          "components": [
            {
              "internalType": "address",
              "name": "vault",
              "type": "address"
            },
            {
              "internalType": "address",
              "name": "fromToken",
              "type": "address"
            },
            {
              "internalType": "address",
              "name": "toToken",
              "type": "address"
            },
            {
              "internalType": "uint256",
              "name": "amount",
              "type": "uint256"
            },
            {
              "internalType": "uint256",
              "name": "minAmountOut",
              "type": "uint256"
            },
            {
              "internalType": "bytes",
              "name": "aggregatorCalldata",
              "type": "bytes"
            }
          ],
          "internalType": "struct RebalancingEngine.RebalanceParams",
          "name": "rebalanceParams",
          "type": "tuple"
        }
      ],
      "stateMutability": "view",
      "type": "function"
    },
    {
      "inputs": [
        {
          "internalType": "enum RebalancingEngine.ProposalType",
          "name": "proposalType",
          "type": "uint8"
        },
        {
          "internalType": "address",
          "name": "target",
          "type": "address"
        },
        {
          "internalType": "bytes",
          "name": "data",
          "type": "bytes"
        },
        {
          "internalType": "string",
          "name": "description",
          "type": "string"
        }
      ],
      "name": "createGovernanceProposal",
      "outputs": [
        {
          "internalType": "uint256",
          "name": "proposalId",
          "type": "uint256"
        }
      ],
      "stateMutability": "nonpayable",
      "type": "function"
    },
    {
      "inputs": [],
      "name": "crossChainManager",
      "outputs": [
        {
          "internalType": "contract CrossChainVaultManager",
          "name": "",
          "type": "address"
        }
      ],
      "stateMutability": "view",
      "type": "function"
    },
    {
      "inputs": [
        {
          "internalType": "address",
          "name": "",
          "type": "address"
        }
      ],
      "name": "emergencyMode",
      "outputs": [
        {
          "internalType": "bool",
          "name": "",
          "type": "bool"
        }
      ],
      "stateMutability": "view",
      "type": "function"
    },
    {
      "inputs": [],
      "name": "emergencyPause",
      "outputs": [],
      "stateMutability": "nonpayable",
      "type": "function"
    },
    {
      "inputs": [],
      "name": "emergencyThreshold",
      "outputs": [
        {
          "internalType": "uint256",
          "name": "",
          "type": "uint256"
        }
      ],
      "stateMutability": "view",
      "type": "function"
    },
    {
      "inputs": [],
      "name": "emergencyUnpause",
      "outputs": [],
      "stateMutability": "nonpayable",
      "type": "function"
    },
    {
      "inputs": [
        {
          "internalType": "address",
          "name": "vault",
          "type": "address"
        }
      ],
      "name": "executeAutoRebalance",
      "outputs": [],
      "stateMutability": "nonpayable",
      "type": "function"
    },
    {
      "inputs": [
        {
          "internalType": "bytes32",
          "name": "fundId",
          "type": "bytes32"
        },
        {
          "internalType": "uint256",
          "name": "fromChain",
          "type": "uint256"
        },
        {
          "internalType": "uint256",
          "name": "toChain",
          "type": "uint256"
        },
        {
          "internalType": "uint256",
          "name": "amount",
          "type": "uint256"
        }
      ],
      "name": "executeCrossChainRebalance",
      "outputs": [],
      "stateMutability": "nonpayable",
      "type": "function"
    },
    {
      "inputs": [
        {
          "internalType": "address",
          "name": "vault",
          "type": "address"
        },
        {
          "internalType": "bytes32",
          "name": "fundId",
          "type": "bytes32"
        }
      ],
      "name": "executeEmergencyRebalance",
      "outputs": [],
      "stateMutability": "nonpayable",
      "type": "function"
    },
    {
      "inputs": [
        {
          "components": [
            {
              "internalType": "address",
              "name": "vault",
              "type": "address"
            },
            {
              "internalType": "address",
              "name": "fromToken",
              "type": "address"
            },
            {
              "internalType": "address",
              "name": "toToken",
              "type": "address"
            },
            {
              "internalType": "uint256",
              "name": "amount",
              "type": "uint256"
            },
            {
              "internalType": "uint256",
              "name": "minAmountOut",
              "type": "uint256"
            },
            {
              "internalType": "bytes",
              "name": "aggregatorCalldata",
              "type": "bytes"
            }
          ],
          "internalType": "struct RebalancingEngine.RebalanceParams",
          "name": "params",
          "type": "tuple"
        }
      ],
      "name": "executeManualRebalance",
      "outputs": [],
      "stateMutability": "nonpayable",
      "type": "function"
    },
    {
      "inputs": [
        {
          "internalType": "bytes32",
          "name": "role",
          "type": "bytes32"
        }
      ],
      "name": "getRoleAdmin",
      "outputs": [
        {
          "internalType": "bytes32",
          "name": "",
          "type": "bytes32"
        }
      ],
      "stateMutability": "view",
      "type": "function"
    },
    {
      "inputs": [
        {
          "internalType": "address",
          "name": "vault",
          "type": "address"
        }
      ],
      "name": "getVaultMetrics",
      "outputs": [
        {
          "components": [
            {
              "internalType": "uint256",
              "name": "totalRebalances",
              "type": "uint256"
            },
            {
              "internalType": "uint256",
              "name": "totalVolumeRebalanced",
              "type": "uint256"
            },
            {
              "internalType": "uint256",
              "name": "totalGasUsed",
              "type": "uint256"
            },
            {
              "internalType": "uint256",
              "name": "averageSlippage",
              "type": "uint256"
            },
            {
              "internalType": "uint256",
              "name": "lastRebalanceTimestamp",
              "type": "uint256"
            },
            {
              "internalType": "uint256",
              "name": "emergencyRebalances",
              "type": "uint256"
            },
            {
              "internalType": "uint256",
              "name": "crossChainRebalances",
              "type": "uint256"
            }
          ],
          "internalType": "struct RebalancingEngine.RebalanceMetrics",
          "name": "metrics",
          "type": "tuple"
        }
      ],
      "stateMutability": "view",
      "type": "function"
    },
    {
      "inputs": [
        {
          "internalType": "uint256",
          "name": "",
          "type": "uint256"
        }
      ],
      "name": "governanceProposals",
      "outputs": [
        {
          "internalType": "uint256",
          "name": "id",
          "type": "uint256"
        },
        {
          "internalType": "enum RebalancingEngine.ProposalType",
          "name": "proposalType",
          "type": "uint8"
        },
        {
          "internalType": "address",
          "name": "target",
          "type": "address"
        },
        {
          "internalType": "bytes",
          "name": "data",
          "type": "bytes"
        },
        {
          "internalType": "uint256",
          "name": "value",
          "type": "uint256"
        },
        {
          "internalType": "address",
          "name": "proposer",
          "type": "address"
        },
        {
          "internalType": "uint256",
          "name": "startTime",
          "type": "uint256"
        },
        {
          "internalType": "uint256",
          "name": "endTime",
          "type": "uint256"
        },
        {
          "internalType": "uint256",
          "name": "votesFor",
          "type": "uint256"
        },
        {
          "internalType": "uint256",
          "name": "votesAgainst",
          "type": "uint256"
        },
        {
          "internalType": "bool",
          "name": "executed",
          "type": "bool"
        }
      ],
      "stateMutability": "view",
      "type": "function"
    },
    {
      "inputs": [
        {
          "internalType": "bytes32",
          "name": "role",
          "type": "bytes32"
        },
        {
          "internalType": "address",
          "name": "account",
          "type": "address"
        }
      ],
      "name": "grantRole",
      "outputs": [],
      "stateMutability": "nonpayable",
      "type": "function"
    },
    {
      "inputs": [
        {
          "internalType": "bytes32",
          "name": "role",
          "type": "bytes32"
        },
        {
          "internalType": "address",
          "name": "account",
          "type": "address"
        }
      ],
      "name": "hasRole",
      "outputs": [
        {
          "internalType": "bool",
          "name": "",
          "type": "bool"
        }
      ],
      "stateMutability": "view",
      "type": "function"
    },
    {
      "inputs": [
        {
          "internalType": "address",
          "name": "",
          "type": "address"
        }
      ],
      "name": "lastRebalanceTime",
      "outputs": [
        {
          "internalType": "uint256",
          "name": "",
          "type": "uint256"
        }
      ],
      "stateMutability": "view",
      "type": "function"
    },
    {
      "inputs": [],
      "name": "maxSlippage",
      "outputs": [
        {
          "internalType": "uint256",
          "name": "",
          "type": "uint256"
        }
      ],
      "stateMutability": "view",
      "type": "function"
    },
    {
      "inputs": [],
      "name": "minRebalanceAmount",
      "outputs": [
        {
          "internalType": "uint256",
          "name": "",
          "type": "uint256"
        }
      ],
      "stateMutability": "view",
      "type": "function"
    },
    {
      "inputs": [],
      "name": "paused",
      "outputs": [
        {
          "internalType": "bool",
          "name": "",
          "type": "bool"
        }
      ],
      "stateMutability": "view",
      "type": "function"
    },
    {
      "inputs": [],
      "name": "priceFeed",
      "outputs": [
        {
          "internalType": "contract IPriceFeed",
          "name": "",
          "type": "address"
        }
      ],
      "stateMutability": "view",
      "type": "function"
    },
    {
      "inputs": [],
      "name": "rebalanceCooldown",
      "outputs": [
        {
          "internalType": "uint256",
          "name": "",
          "type": "uint256"
        }
      ],
      "stateMutability": "view",
      "type": "function"
    },
    {
      "inputs": [],
      "name": "rebalanceTolerance",
      "outputs": [
        {
          "internalType": "uint256",
          "name": "",
          "type": "uint256"
        }
      ],
      "stateMutability": "view",
      "type": "function"
    },
    {
      "inputs": [
        {
          "internalType": "bytes32",
          "name": "role",
          "type": "bytes32"
        },
        {
          "internalType": "address",
          "name": "callerConfirmation",
          "type": "address"
        }
      ],
      "name": "renounceRole",
      "outputs": [],
      "stateMutability": "nonpayable",
      "type": "function"
    },
    {
      "inputs": [
        {
          "internalType": "address",
          "name": "vault",
          "type": "address"
        }
      ],
      "name": "resetRebalanceCooldown",
      "outputs": [],
      "stateMutability": "nonpayable",
      "type": "function"
    },
    {
      "inputs": [
        {
          "internalType": "bytes32",
          "name": "role",
          "type": "bytes32"
        },
        {
          "internalType": "address",
          "name": "account",
          "type": "address"
        }
      ],
      "name": "revokeRole",
      "outputs": [],
      "stateMutability": "nonpayable",
      "type": "function"
    },
    {
      "inputs": [
        {
          "internalType": "bytes32",
          "name": "fundId",
          "type": "bytes32"
        },
        {
          "internalType": "enum RebalancingEngine.RebalanceStrategy",
          "name": "strategy",
          "type": "uint8"
        },
        {
          "internalType": "uint256",
          "name": "customTolerance",
          "type": "uint256"
        },
        {
          "internalType": "bool",
          "name": "crossChainEnabled",
          "type": "bool"
        },
        {
          "internalType": "uint256[]",
          "name": "allowedChains",
          "type": "uint256[]"
        }
      ],
      "name": "setVaultStrategy",
      "outputs": [],
      "stateMutability": "nonpayable",
      "type": "function"
    },
    {
      "inputs": [
        {
          "internalType": "bytes4",
          "name": "interfaceId",
          "type": "bytes4"
        }
      ],
      "name": "supportsInterface",
      "outputs": [
        {
          "internalType": "bool",
          "name": "",
          "type": "bool"
        }
      ],
      "stateMutability": "view",
      "type": "function"
    },
    {
      "inputs": [
        {
          "internalType": "uint256",
          "name": "newTolerance",
          "type": "uint256"
        },
        {
          "internalType": "uint256",
          "name": "newMinAmount",
          "type": "uint256"
        },
        {
          "internalType": "uint256",
          "name": "newMaxSlippage",
          "type": "uint256"
        },
        {
          "internalType": "uint256",
          "name": "newCooldown",
          "type": "uint256"
        }
      ],
      "name": "updateRebalancingParameters",
      "outputs": [],
      "stateMutability": "nonpayable",
      "type": "function"
    },
    {
      "inputs": [
        {
          "internalType": "address",
          "name": "",
          "type": "address"
        }
      ],
      "name": "vaultMetrics",
      "outputs": [
        {
          "internalType": "uint256",
          "name": "totalRebalances",
          "type": "uint256"
        },
        {
          "internalType": "uint256",
          "name": "totalVolumeRebalanced",
          "type": "uint256"
        },
        {
          "internalType": "uint256",
          "name": "totalGasUsed",
          "type": "uint256"
        },
        {
          "internalType": "uint256",
          "name": "averageSlippage",
          "type": "uint256"
        },
        {
          "internalType": "uint256",
          "name": "lastRebalanceTimestamp",
          "type": "uint256"
        },
        {
          "internalType": "uint256",
          "name": "emergencyRebalances",
          "type": "uint256"
        },
        {
          "internalType": "uint256",
          "name": "crossChainRebalances",
          "type": "uint256"
        }
      ],
      "stateMutability": "view",
      "type": "function"
    },
    {
      "inputs": [
        {
          "internalType": "bytes32",
          "name": "",
          "type": "bytes32"
        }
      ],
      "name": "vaultStrategies",
      "outputs": [
        {
          "internalType": "enum RebalancingEngine.RebalanceStrategy",
          "name": "strategy",
          "type": "uint8"
        },
        {
          "internalType": "uint256",
          "name": "customTolerance",
          "type": "uint256"
        },
        {
          "internalType": "uint256",
          "name": "customMinAmount",
          "type": "uint256"
        },
        {
          "internalType": "bool",
          "name": "crossChainEnabled",
          "type": "bool"
        },
        {
          "internalType": "bool",
          "name": "autoRebalanceEnabled",
          "type": "bool"
        },
        {
          "internalType": "uint256",
          "name": "lastStrategyUpdate",
          "type": "uint256"
        }
      ],
      "stateMutability": "view",
      "type": "function"
    }
  ],
  "bytecode": "0x60a06040523462000041576200001f6200001862000104565b916200026f565b6040516144556200054b823960805181818161081c0152611e6e015261445590f35b600080fd5b634e487b7160e01b600052604160045260246000fd5b90601f01601f191681019081106001600160401b038211176200007e57604052565b62000046565b906200009b6200009360405190565b92836200005c565b565b6001600160a01b031690565b90565b6001600160a01b038116036200004157565b905051906200009b82620000ac565b90916060828403126200004157620000a9620000ea8484620000be565b936040620000fc8260208701620000be565b9401620000be565b62000127620049a0803803806200011b8162000084565b928339810190620000cd565b909192565b90600019905b9181191691161790565b620000a9620000a9620000a99290565b9062000160620000a962000168926200013c565b82546200012c565b9055565b6200009d620000a9620000a99290565b620000a9906200016c565b156200018f57565b60405162461bcd60e51b815260206004820152601260248201527124b73b30b634b21030b3b3b932b3b0ba37b960711b6044820152606490fd5b15620001d157565b60405162461bcd60e51b8152602060048201526012602482015271125b9d985b1a59081c1c9a58d9481999595960721b6044820152606490fd5b620000a9906200009d906001600160a01b031682565b620000a9906200020b565b620000a99062000221565b906001600160a01b039062000132565b906200025b620000a962000168926200022c565b825462000237565b620000a960006200013c565b6200009d620003456200034d93620002866200041a565b6200029561012c60036200014c565b620002ab683635c9adc5dea0000060046200014c565b620002b9603260056200014c565b620002c8610e1060066200014c565b620002d76103e860076200014c565b620002e56001600f6200014c565b6200033c620002f560006200017c565b94620003166001600160a01b0387166001600160a01b038316141562000187565b620003366001600160a01b0387166001600160a01b0385161415620001c9565b6200022c565b6080526200022c565b600862000247565b6001600160a01b03821603620003fc575b50620003756200036d62000263565b339062000487565b50620003a17fccc64574297998b6c3edf6078cc5e01268465ff116954e3af02ff3a70a730f466200036d565b50620003cd7ffc8737ab85eb45125971625a9ebdb75cc78e01d5c1fa80c4c6e5203f47bc4fab6200036d565b50620003f97f71840dc4906352362b0cdaf79870196c8e42acafade72d5d5a6d59291253ceb16200036d565b50565b6200040b62000413916200022c565b600962000247565b386200035e565b6200009b62000430565b620000a960016200013c565b6200009b6200043e62000424565b60016200014c565b905b600052602052604060002090565b9062000448906200022c565b9060ff9062000132565b906200047f620000a96200016892151590565b825462000462565b6200049b62000497838362000522565b1590565b156200051b57620004c76001620004c1846000620004ba868262000446565b0162000456565b6200046c565b620004e6620004df620004d8339390565b936200022c565b916200022c565b917f2f8788117e7eff1d82e926ec794901d17c78024a50270940304540a733656f0d6200051260405190565b600090a4600190565b5050600090565b620000a9916000620004ba62000543936200053b600090565b508262000446565b5460ff169056fe6080604052600436101561001257600080fd5b60003560e01c806301835ae2146102a257806301ffc9a71461029d578063024c11641461029857806305b9fae1146102935780631063045c1461028e5780631c280be2146102895780631e2f4d4414610284578063245a7bfc1461027f578063248a9ca31461027a5780632f2ff15d1461027557806334e558c514610270578063364bc15a1461026b57806336568abe14610266578063490b48f8146102615780634a4e3bd51461025c57806351858e271461025757806355c308191461025257806356a35f741461024d5780635c975abb1461024857806360c3567d1461024357806361e84df21461023e578063730deb2514610239578063741bef1a146102345780638c04166f1461022f57806391d148541461022a5780639be545b214610225578063a217fddf14610220578063a6c266031461021b578063b0b5489514610216578063b3de272d14610211578063bb7a60041461020c578063bcd037c814610207578063c0c5fad514610202578063ca41806c146101fd578063cf5baffa146101f8578063d35eaee8146101f3578063d547741f146101ee578063dd781d36146101e9578063e566a8fc146101e4578063e84354c5146101df5763f36c8f5c036102a7576112ed565b6112d2565b6112ae565b611296565b61127d565b611243565b610fc9565b610f8e565b610e7c565b610d6a565b610d43565b610cf9565b610cd2565b610ca3565b610c74565b610c2d565b610b4e565b610b33565b610b0c565b610acc565b610aa5565b610a1d565b610a02565b6109ea565b6109d2565b610986565b61096e565b610935565b61091c565b6108e3565b6108c8565b61089a565b61085c565b610807565b6107d5565b61079a565b610692565b61062b565b6105dd565b61043b565b6103a6565b600080fd5b6001600160a01b031690565b90565b6001600160a01b0381165b036102a757565b905035906102da826102bb565b565b906020828203126102a7576102b8916102cd565b6102ac6102b86102b8926001600160a01b031690565b6102b8906102f0565b6102b890610306565b906103229061030f565b600052602052604060002090565b6102b89081565b6102b89054610330565b61034c90600b610318565b61035581610337565b9161036260018301610337565b9161036f60028201610337565b9161037c60038301610337565b9161038960048201610337565b916102b8600661039b60058501610337565b9301610337565b9052565b346102a7576104066103c16103bc3660046102dc565b610341565b936103d197959793919360405190565b9788978890815260e081019796959094909390929091602086015260408501526060840152608083015260a082015260c00152565b0390f35b6001600160e01b031981166102c6565b905035906102da8261040a565b906020828203126102a7576102b89161041a565b346102a757610406610456610451366004610427565b611326565b60405191829182901515815260200190565b806102c6565b905035906102da82610468565b600511156102a757565b905035906102da8261047b565b8015156102c6565b905035906102da82610492565b634e487b7160e01b600052604160045260246000fd5b90601f01601f1916810190811067ffffffffffffffff8211176104df57604052565b6104a7565b906102da6104f160405190565b92836104bd565b67ffffffffffffffff81116104df5760208091020190565b90929192610525610520826104f8565b6104e4565b93818552602080860192028301928184116102a757915b8383106105495750505050565b60208091610557848661046e565b81520192019161053c565b9080601f830112156102a7578160206102b893359101610510565b91909160a0818403126102a757610594838261046e565b926105a28160208401610485565b926105b0826040850161046e565b926105be836060830161049a565b92608082013567ffffffffffffffff81116102a7576102b89201610562565b346102a7576105f96105f036600461057d565b9392909261165b565b604051005b60009103126102a757565b6102b8916008021c81565b906102b89154610609565b6102b860006003610614565b346102a75761063b3660046105fe565b61040661064661061f565b6040519182918290815260200190565b6080818303126102a75761066a828261046e565b926102b861067b846020850161046e565b93606061068b826040870161046e565b940161046e565b346102a7576105f96106a5366004610656565b92919091611791565b600411156102a757565b905035906102da826106ae565b67ffffffffffffffff81116104df57602090601f01601f19160190565b0190565b90826000939282370152565b90929192610702610520826106c5565b93818552818301116102a7576102da9160208501906106e6565b9080601f830112156102a7578160206102b8933591016106f2565b906080828203126102a75761074c81836106b8565b9261075a82602085016102cd565b92604081013567ffffffffffffffff81116102a7578361077b91830161071c565b92606082013567ffffffffffffffff81116102a7576102b8920161071c565b346102a7576104066106466107b0366004610737565b92919091611aab565b91906040838203126102a7576102b890602061068b82866102cd565b346102a7576105f96107e83660046107b9565b90611ca8565b6103a29061030f565b6020810192916102da91906107ee565b346102a7576108173660046105fe565b6104067f00000000000000000000000000000000000000000000000000000000000000005b604051918291826107f7565b906020828203126102a7576102b89161046e565b346102a757610406610646610872366004610848565b611cb2565b91906040838203126102a7576102b8906020610893828661046e565b94016102cd565b346102a7576105f96108ad366004610877565b90611cef565b60006108c36102b892600a610318565b610614565b346102a7576104066106466108de3660046102dc565b6108b3565b346102a7576108f33660046105fe565b6104067ffc8737ab85eb45125971625a9ebdb75cc78e01d5c1fa80c4c6e5203f47bc4fab610646565b346102a7576105f961092f366004610877565b90611cf9565b346102a7576109453660046105fe565b6104067fccc64574297998b6c3edf6078cc5e01268465ff116954e3af02ff3a70a730f46610646565b346102a75761097e3660046105fe565b6105f9611d5c565b346102a7576109963660046105fe565b6105f9611d7a565b908160c09103126102a75790565b906020828203126102a757813567ffffffffffffffff81116102a7576102b8920161099e565b346102a7576105f96109e53660046109ac565b611de6565b346102a7576105f96109fd3660046102dc565b611ef8565b346102a757610a123660046105fe565b610406610456611f01565b346102a7576105f9610a303660046102dc565b6122d5565b805182526102da919060c0908190610a5260208201516020860152565b610a6160408201516040860152565b610a7060608201516060860152565b610a7f60808201516080860152565b610a8e60a082015160a0860152565b0151910152565b60e0810192916102da9190610a35565b346102a757610406610ac0610abb3660046102dc565b6123c8565b60405191829182610a95565b346102a7576105f9610adf366004610656565b929190916128ca565b6102b8916008021c6102ac565b906102b89154610ae8565b6102b860006008610af5565b346102a757610b1c3660046105fe565b61040661083c610b00565b6102b860006005610614565b346102a757610b433660046105fe565b610406610646610b27565b346102a757610406610456610b64366004610877565b906128d6565b909182601f830112156102a75781359167ffffffffffffffff83116102a75760200192602083028401116102a757565b906020828203126102a757813567ffffffffffffffff81116102a757610bc09201610b6a565b9091565b90610be4610bdd610bd3845190565b8084529260200190565b9260200190565b9060005b818110610bf55750505090565b909192610c14610c0d60019286511515815260200190565b9460200190565b929101610be8565b60208082526102b892910190610bc4565b346102a757610406610c49610c43366004610b9a565b90612961565b60405191829182610c1c565b6102b86102b86102b89290565b6102b86000610c55565b6102b8610c62565b346102a757610c843660046105fe565b610406610646610c6c565b6102b862093a80610c55565b6102b8610c8f565b346102a757610cb33660046105fe565b610406610646610c9b565b6102b86202a300610c55565b6102b8610cbe565b346102a757610ce23660046105fe565b610406610646610cca565b6102b860006006610614565b346102a757610d093660046105fe565b610406610646610ced565b6102b8916008021c5b60ff1690565b906102b89154610d14565b6000610d3e6102b892600d610318565b610d23565b346102a757610406610456610d593660046102dc565b610d2e565b6102b860006007610614565b346102a757610d7a3660046105fe565b610406610646610d5e565b90610322565b6102b890610d1d565b6102b89054610d8b565b610da990600c610d85565b90610db382610d94565b91610dc060018201610337565b91610dcd60028301610337565b91610dda60038201610d94565b916102b8600661039b60058501610d94565b634e487b7160e01b600052602160045260246000fd5b60051115610e0c57565b610dec565b906102da82610e02565b6102b890610e11565b6103a290610e1b565b9194610e6f610e7892989795610e6660a096610e5f6102da9a610e5860c08a019e60008b0190610e24565b6020890152565b6040870152565b15156060850152565b15156080830152565b0152565b346102a757610406610e97610e92366004610848565b610d9e565b92610ea796949692919260405190565b96879687610e2d565b60005b838110610ec35750506000910152565b8181015183820152602001610eb3565b610ef4610efd6020936106e293610ee8815190565b80835293849260200190565b95869101610eb0565b601f01601f191690565b80516001600160a01b031682526102b89160c081019160a0906020818101516001600160a01b0316908401526040818101516001600160a01b031690840152610f5560608201516060850152565b610f6460808201516080850152565b01519060a0818403910152610ed3565b90151581526040602082018190526102b892910190610f07565b346102a757610fa7610fa13660046107b9565b90612a74565b90610406610fb460405190565b92839283610f74565b6102b860006009610af5565b346102a757610fd93660046105fe565b61040661083c610fbd565b9061032290610c55565b6102b89060081c6102ac565b6102b89054610fee565b634e487b7160e01b600052602260045260246000fd5b906001600283049216801561103a575b602083101461103557565b611004565b91607f169161102a565b805460009392916110616110578361101a565b8085529360200190565b91600181169081156110b3575060011461107a57505050565b61108d9192939450600052602060002090565b916000925b81841061109f5750500190565b805484840152602090930192600101611092565b92949550505060ff1916825215156020020190565b906102b891611044565b906102da6110ec926110e360405190565b938480926110c8565b03836104bd565b6102b8906102ac565b6102b890546110f3565b61111190600e610fe4565b61111a81610337565b9161112760018301610d94565b9161113460018201610ffa565b91611141600283016110d2565b9161114e60038201610337565b9161115b600483016110fc565b9161116860058201610337565b9161117560068301610337565b9161118260078201610337565b916102b8600961119460088501610337565b9301610d94565b60041115610e0c57565b906102da8261119b565b6102b8906111a5565b6103a2906111af565b908152939a99989397939693959394929161016089019160208a016111e5916111b8565b6001600160a01b03166040890152878103606089015261120491610ed3565b9860808701611211919052565b6001600160a01b031660a086015260c085015260e0840152610100830152610120820152610140016102da9115159052565b346102a75761040661125e611259366004610848565b611106565b976112749b999b97919796929695939560405190565b9b8c9b8c6111c1565b346102a7576105f9611290366004610877565b90612b20565b346102a7576105f96112a93660046109ac565b612cc7565b346102a757610fa76112c13660046102dc565b612cdd565b6102b860006004610614565b346102a7576112e23660046105fe565b6104066106466112c6565b346102a7576112fd3660046105fe565b6104067f71840dc4906352362b0cdaf79870196c8e42acafade72d5d5a6d59291253ceb1610646565b7f7965db0b000000000000000000000000000000000000000000000000000000006001600160e01b031982161490811561135e575090565b6102b891506001600160e01b0319167f01ffc9a7000000000000000000000000000000000000000000000000000000001490565b6102da94939291906113c87f71840dc4906352362b0cdaf79870196c8e42acafade72d5d5a6d59291253ceb1612ef9565b612ef9565b61159d565b9060ff905b9181191691161790565b906113ec6102b86113f392610e1b565b82546113cd565b9055565b90600019906113d2565b906114116102b86113f392610c55565b82546113f7565b906113ec6102b86113f392151590565b634e487b7160e01b600052601160045260246000fd5b8181029291811591840414171561145157565b611428565b9160001960089290920291821b911b6113d2565b919061147b6102b86113f393610c55565b908354611456565b6102da9160009161146a565b81811061149a575050565b806114a86000600193611483565b0161148f565b9190918282106114bd57505050565b6102da92916114d29091600052602060002090565b918201910161148f565b906801000000000000000081116104df57816114f96102da935490565b908281556114ae565b81519167ffffffffffffffff83116104df5761153961152d60019261152786866114dc565b60200190565b92600052602060002090565b92049160005b83811061154c5750505050565b600190602061155c6102b8865190565b940193818401550161153f565b906102da91611502565b604090610e786102da949695939661159360608401986000850190610e24565b6020830190610e24565b611643611656916102b87f60b06988f91bd6e76adc8907a7e6105c24772b0fd194736d434e3ed3e75377d0969495976116186115dd6102b885600c610d85565b9161160f60008401986115f98b6115f38c610d94565b9b6113dc565b6116068d60018701611401565b60038501611418565b60048301611569565b6116396116256004610e11565b61162e89610e11565b141560058301611418565b6006429101611401565b9461164d60405190565b93849384611573565b0390a2565b906102da94939291611392565b6102da939291906116987f71840dc4906352362b0cdaf79870196c8e42acafade72d5d5a6d59291253ceb1612ef9565b611739565b156116a457565b60405162461bcd60e51b815260206004820152601260248201527f546f6c6572616e636520746f6f206869676800000000000000000000000000006044820152606490fd5b0390fd5b156116f457565b60405162461bcd60e51b815260206004820152601160248201527f536c69707061676520746f6f20686967680000000000000000000000000000006044820152606490fd5b9161178361178a9261177c6102da969561175f6117576107d0610c55565b82111561169d565b61177561176d6103e8610c55565b8611156116ed565b6003611401565b6004611401565b6005611401565b6006611401565b906102da939291611668565b6102b894939291906117ce7f71840dc4906352362b0cdaf79870196c8e42acafade72d5d5a6d59291253ceb1612ef9565b6119aa565b60001981146114515760010190565b906113ec6102b86113f3926111af565b9074ffffffffffffffffffffffffffffffffffffffff009060081b6113d2565b906118226102b86113f39261030f565b82546117f2565b9190601f811161183857505050565b61184a6102da93600052602060002090565b906020601f84018190048301931061186c575b6020601f90910104019061148f565b909150819061185d565b9061187f815190565b9067ffffffffffffffff82116104df576118a38261189d855461101a565b85611829565b602090601f83116001146118de576113f39291600091836118d3575b5050600019600883021c1916906002021790565b0151905038806118bf565b601f198316916118f385600052602060002090565b9260005b81811061193157509160029391856001969410611918575b50505002019055565b01516000196008601f8516021c1916905538808061190f565b919360206001819287870151815501950192016118f7565b906102da91611876565b906001600160a01b03906113d2565b906119726102b86113f39261030f565b8254611953565b9190820180921161145157565b916102b89261199d604082019360008301906111b8565b6020818403910152610ed3565b7f7b80bd6aa203bf7ec72a1c22156dd539a946062ccc93775dc02ffaeba8bc98cf9193959492611a869150611a816119e2600f610337565b916119f66119ef846117d3565b600f611401565b611a338399611a2a611a0c6102b887600e610fe4565b93611a178786611401565b60018501611a258c826117e2565b611812565b60028301611949565b611a403360048301611962565b6006611a7a611a6c611a50610cbe565b611a66611a5d8242611979565b60058701611401565b42611979565b611a74610c8f565b90611979565b9101611401565b610c55565b91611a903361030f565b93611aa6611a9d60405190565b92839283611986565b0390a3565b6102b893929190600061179d565b6102da9190611ae77fccc64574297998b6c3edf6078cc5e01268465ff116954e3af02ff3a70a730f46612ef9565b906102da91611af4612f04565b611b88565b15611b0057565b60405162461bcd60e51b815260206004820152601b60248201527f456d657267656e6379207468726573686f6c64206e6f74206d657400000000006044820152606490fd5b634e487b7160e01b600052601260045260246000fd5b90611b65565b9190565b908115611b70570490565b611b45565b9081526040810192916102da9160200152565b611bcf600091611b9b6102da94826130cf565b611bda611ba78261333f565b91611bbf611bb86102b86007610337565b8411611af9565b611bd46001611bcf86600d610318565b611418565b8361342a565b90611be9575b5050600d610318565b611c7f606082611c4760807fbfe34c8c24febfdf4c2dddf9213fe168720e7070afdb2b3924c5fb6f7eec293595016103a2611c36611c25835190565b611c3061251c610c55565b9061143e565b611c41612710610c55565b90611b5b565b611c52600182613611565b611c7a6005611c6288600b610318565b01611c74611c6f82610337565b6117d3565b90611401565b015190565b611c888461030f565b92611c9e611c9560405190565b92839283611b75565b0390a23880611be0565b906102da91611ab9565b6001611ccb6102b892611cc3600090565b506000610d85565b01610337565b906102da91611ce26113c382611cb2565b90611cec916138e8565b50565b906102da91611cd1565b90611d03336102ac565b6001600160a01b03821603611d1b57611cec9161395e565b6040517f6697b232000000000000000000000000000000000000000000000000000000008152600490fd5b611d516113c3610c62565b6102da6102da613a16565b6102da611d46565b611d6f6113c3610c62565b6102da6102da613a5f565b6102da611d64565b15611d8957565b60405162461bcd60e51b8152806116e9600482016020808252818101527f526562616c616e63696e67456e67696e653a20696e7465726e616c206f6e6c79604082015260600190565b356102b8816102bb565b356102b881610468565b6102da90611ec0611e22611df93061030f565b92611e0e6001600160a01b0385163314611d82565b611ebb6020820191611e27611e2284611dd2565b61030f565b8190611e4b90611e3683611dd2565b986060850199611e458b611ddc565b92613ab1565b611eb5611eaf611e226040611ea8611e65611e228a611dd2565b9b611ea3611e927f000000000000000000000000000000000000000000000000000000000000000061030f565b9d8e611e9d84611ddc565b91613b37565b611ddc565b9501611dd2565b91611dd2565b90613bd7565b611dd2565b90611e9d6000610c55565b6102da90611eda6113c3610c62565b6102da90611ef3611eeb6000610c55565b91600a610318565b611401565b6102da90611ecb565b6102b86002610d94565b6102da90611f387ffc8737ab85eb45125971625a9ebdb75cc78e01d5c1fa80c4c6e5203f47bc4fab612ef9565b6102da90611f44612f04565b611f5590611f50613c15565b6121e5565b6102da613c6e565b6102ac6102b86102b89290565b6102b890611f5d565b15611f7a57565b60405162461bcd60e51b8152806116e9600482016020808252818101527f526562616c616e63696e67456e67696e653a20696e76616c6964207661756c74604082015260600190565b15611fca57565b60405162461bcd60e51b815260206004820152602360248201527f526562616c616e63696e67456e67696e653a20636f6f6c646f776e206e6f742060448201527f6d657400000000000000000000000000000000000000000000000000000000006064820152608490fd5b905051906102da82610492565b905051906102da826102bb565b905051906102da82610468565b9092919261206c610520826106c5565b93818552818301116102a7576102da916020850190610eb0565b9080601f830112156102a75781516102b89260200161205c565b91909160c0818403126102a7576120b760c06104e4565b926120c28183612042565b84526120d18160208401612042565b60208501526120e38160408401612042565b60408501526120f5816060840161204f565b6060850152612107816080840161204f565b608085015260a082015167ffffffffffffffff81116102a75761212a9201612086565b60a0830152565b9190916040818403126102a7576121488382612035565b92602082015167ffffffffffffffff81116102a7576102b892016120a0565b6040513d6000823e3d90fd5b1561217a57565b60405162461bcd60e51b815260206004820152602760248201527f526562616c616e63696e67456e67696e653a20726562616c616e6365206e6f7460448201527f206e6565646564000000000000000000000000000000000000000000000000006064820152608490fd5b6122076121f56102ac6000611f6a565b6001600160a01b0383165b1415611f73565b61223561222d6102b861222361221e85600a610318565b610337565b611a746006610337565b421015611fc3565b61223e3061030f565b600061224960405190565b633959aa3f60e21b81526001600160a01b038416600482015291829060249082905afa9182156122d05761229a60016102da946122a1946000906000926122a8575b5061229590612173565b613611565b600a610318565b4290611401565b61229592506122ca91503d806000833e6122c281836104bd565b810190612131565b9161228b565b612167565b6102da90611f0b565b6102b860e06104e4565b6122f06122de565b906000825260208080808080808801600081520160008152016000815201600081520160005b8152016000905250565b6102b86122e8565b906102da6123b860066123396122de565b9461234a61234682610337565b8752565b61236061235960018301610337565b6020880152565b61237661236f60028301610337565b6040880152565b61238c61238560038301610337565b6060880152565b6123a261239b60048301610337565b6080880152565b611ccb6123b160058301610337565b60a0880152565b60c0840152565b6102b890612328565b6123df6102b8916123d7612320565b50600b610318565b6123bf565b6102da939291906124147ffc8737ab85eb45125971625a9ebdb75cc78e01d5c1fa80c4c6e5203f47bc4fab612ef9565b906102da939291612423612f04565b612644565b1561242f57565b60405162461bcd60e51b815260206004820152601b60248201527f43726f73732d636861696e206d616e61676572206e6f742073657400000000006044820152606490fd5b1561247b57565b60405162461bcd60e51b8152806116e9600482016020808252818101527f43726f73732d636861696e20726562616c616e63696e672064697361626c6564604082015260600190565b634e487b7160e01b600052603260045260246000fd5b80548210156124fd576124f4600191600052602060002090565b91020190600090565b6124c4565b1561250957565b60405162461bcd60e51b815260206004820152601160248201527f436861696e206e6f7420616c6c6f7765640000000000000000000000000000006044820152606490fd5b6080818303126102a7576125628282612035565b926102b8612573846020850161204f565b936060612583826040870161204f565b940161204f565b1561259157565b60405162461bcd60e51b8152806116e9600482016020808252818101527f43726f73732d636861696e20726562616c616e6365206e6f74206e6565646564604082015260600190565b156125e157565b60405162461bcd60e51b815260206004820152601460248201527f416d6f756e742062656c6f77206d696e696d756d0000000000000000000000006044820152606490fd5b9081526060810193926102da929091604091610e78905b6020830152565b909250612654611e2260096110fc565b9260009361268761266486611f6a565b916126806001600160a01b0384165b916001600160a01b031690565b1415612428565b6126956102b884600c610d85565b946126aa6126a560038801610d94565b612474565b809381946126b783610c55565b600489016126c66102b8825490565b821015612715576126e06126da83836124da565b90610614565b871461270c575b6126da826126f4926124da565b8814612703575b6001016126b7565b600196506126fb565b600192506126e7565b50509092965061272d919594816128c2575b50612502565b61273a611e2260096110fc565b94608061274660405190565b7fc2effa3b0000000000000000000000000000000000000000000000000000000081526004810184905296879060249082905afa9586156122d0578590869761288c575b506127949061258a565b6127ac6127a46102b86004610337565b8710156125da565b6127b9611e2260096110fc565b91823b156102a757856127cb60405190565b7f15872f3600000000000000000000000000000000000000000000000000000000815260048101839052938490602490829084905af19182156122d0576006611c626102b86102b8937f6fe254e886a542ea23daca18678e64c949317eff08f509ffefefa643ba872b819a6116569861284c9861285f575b5050600b610318565b9461285660405190565b93849384612626565b8161287e92903d10612885575b61287681836104bd565b8101906105fe565b3880612843565b503d61286c565b61279497506128b3915060803d6080116128bb575b6128ab81836104bd565b81019061254e565b98505061278a565b503d6128a1565b905038612727565b906102da9392916123e4565b6102b89160006128f26128f8936128eb600090565b5082610d85565b01610318565b610d94565b9061290a610520836104f8565b918252565b369037565b906102da61292a612924846128fd565b936104f8565b601f19016020840161290f565b91908110156124fd576020020190565b90612950825190565b8110156124fd576020809102010190565b819061296c82612914565b918260009561297b6000610c55565b865b811015612a27576129d290886129923061030f565b6129a0611ebb84898b612937565b906129aa60405190565b94859283918291633959aa3f60e21b8352600483016001600160a01b03909116815260200190565b03915afa9081156122d057612a01612a079261297d948c91612a0e575b506129fa838b612947565b9015159052565b60010190565b905061297b565b612a2291503d808e833e6122c281836104bd565b6129ef565b5094509450505050565b6102b860c06104e4565b612a43612a31565b906000825260208080808080870160008152016000815201600081520160008152016060905250565b6102b8612a3b565b909190612a7f612a6c565b9283612a8f6102b883600c610d85565b90612aa3612a9f60058401610d94565b1590565b612afa5750612ab181613c80565b91612ad46102b8612ac184613d43565b612acf61221e88600a610318565b611979565b4210612af057610bc0949550612aea81856130cf565b93613da8565b5050505060009190565b945050505060009190565b906102da91612b166113c382611cb2565b90611cec9161395e565b906102da91612b05565b6102da90612b577fccc64574297998b6c3edf6078cc5e01268465ff116954e3af02ff3a70a730f46612ef9565b6102da90612b63612f04565b611f5590612b6f613c15565b612c7b565b15612b7b57565b60405162461bcd60e51b815260206004820152602160248201527f526562616c616e63696e67456e67696e653a20696e76616c696420616d6f756e60448201527f74000000000000000000000000000000000000000000000000000000000000006064820152608490fd5b91909160c0818403126102a757612bfd60c06104e4565b92612c0881836102cd565b8452612c1781602084016102cd565b6020850152612c2981604084016102cd565b6040850152612c3b816060840161046e565b6060850152612c4d816080840161046e565b608085015260a082013567ffffffffffffffff81116102a75761212a920161071c565b6102b8903690612be6565b60006122956102da92612ca1612c92848301611dd2565b6122006126736102ac87611f6a565b612cc2612cb060608301611ddc565b612cbc611b6186610c55565b11612b74565b612c70565b6102da90612b2a565b9190820391821161145157565b600090612ce8612a6c565b600091612cfb6121f56102ac6000611f6a565b612d0481613e8f565b90612d0f6000610c55565b848301612d1e6102b882515190565b821015612eef57612d3a612d36836020870151612947565b5190565b90612d4b61271092611c3084610c55565b90612d5c6060870192611c41845190565b91612d6e612d368660408a0151612947565b612d846102b8612d7e6003610337565b83611979565b8411612d9f575b5050505050612d9a9060010190565b612d0f565b612da98689613fc8565b93868503612db8575b50612d8b565b91611c30612dcc612dd193612dda95612cd0565b915190565b611c4185610c55565b91612de86102b86004610337565b831015612df6578080612db2565b9297985083965080939195505190612e0d91612947565b516001600160a01b03168482845190612e2591612947565b516001600160a01b0316612e389261408a565b9690612e446005610337565b612e4d83610c55565b90612e5791612cd0565b612e609161143e565b90612e6a90610c55565b612e7391611b5b565b94825190612e8091612947565b516001600160a01b0316915190612e9691612947565b516001600160a01b031691612ea9612a31565b96870190612ebf91906001600160a01b03169052565b6001600160a01b031660208601526001600160a01b031660408501526060840152608083015260a0820152600191565b5050505091929050565b6102da90339061409e565b612f0c611f01565b612f1257565b6040517fd93c0665000000000000000000000000000000000000000000000000000000008152600490fd5b6102b860806104e4565b612f4f612f3d565b90606082526020808080850160608152016060612316565b6102b8612f47565b90929192612f7f610520826104f8565b93818552602080860192028301928184116102a757915b838310612fa35750505050565b60208091612fb18486612042565b815201920191612f96565b9080601f830112156102a75781516102b892602001612f6f565b90929192612fe6610520826104f8565b93818552602080860192028301928184116102a757915b83831061300a5750505050565b60208091613018848661204f565b815201920191612ffd565b9080601f830112156102a75781516102b892602001612fd6565b916060838303126102a757825167ffffffffffffffff81116102a75782613065918501612fbc565b92602081015167ffffffffffffffff81116102a75783613086918301613023565b92604082015167ffffffffffffffff81116102a7576102b89201613023565b906020828203126102a7576102b89161204f565b6130c66102b86102b89290565b63ffffffff1690565b9190506130da612f67565b806130e7611e228561030f565b9360006130f360405190565b63364b492b60e11b815295869060049082905afa80156122d0576000958691613318575b508583526040830152845161312b90612914565b94602083019586526000936131406000610c55565b61314b6102b8845190565b81101561330f57613172611e22611e226131658487612947565b516001600160a01b031690565b90602061317e60405190565b6370a0823160e01b81526001600160a01b038716600482015292839060249082905afa80156122d05761327c9288916132f1575b506131c0611e2260086110fc565b6131cf6126736102ac8b611f6a565b146132e25761323760206131e6611e2260086110fc565b6131ef856130b9565b906131f960405190565b938492839182917fda26663a0000000000000000000000000000000000000000000000000000000083526004830163ffffffff909116815260200190565b03915afa8991816132b2575b50613281575061325b90613258838c51612947565b52565b612a0161326c612d36838c51612947565b6103a26060890191612acf835190565b613140565b6132916132a2916132ad9361143e565b611c41670de0b6b3a7640000610c55565b613258838c51612947565b61325b565b6132d491925060203d81116132db575b6132cc81836104bd565b8101906130a5565b9038613243565b503d6132c2565b6132ad90613258838c51612947565b613309915060203d81116132db576132cc81836104bd565b386131b2565b50955050505050565b905061333691953d8091833e61332e81836104bd565b81019061303d565b90959195613117565b60608101805160009392909160009261335a611b6185610c55565b146133fe5761336883610c55565b6133766102b8858501515190565b8110156133f8576133a661339f613394612d36846020880151612947565b611c30612710610c55565b8351611c41565b6133b7612d36836040870151612947565b90818111156133ea57906133ca91612cd0565b8681116133e0575b50600101613368565b613368565b95506133db6133d2565b6133f391612cd0565b6133ca565b50505050565b50506102b8919250610c55565b9061290a610520836106c5565b6102b8600061340b565b6102b8613418565b91600092613436612a6c565b9261344a6134446007610337565b826140ef565b91926134566000610c55565b8311613464575b5050505050565b6134e99597506134e2939496506131656134db9261348d61316560006134949501988951612947565b9651612947565b6134cb6134a08461427f565b956134bb6134ac612a31565b6001600160a01b03909a168a52565b6001600160a01b03166020890152565b6001600160a01b03166040870152565b6060850152565b6080830152565b6134f461212a613422565b600191388080808061345d565b60208082526102b892910190610f07565b9081526060810193926102da92909160409161352d9061263d565b01906001600160a01b03169052565b6103a290610c55565b9081526060810193926102da9290916040916135609061263d565b019061353c565b60009060033d1161357457565b905060046000803e60005160e01c90565b60009060443d106102da5760405160043d036004823e8051903d602483011167ffffffffffffffff8311176135eb5781810191825167ffffffffffffffff81116133f85760043d038301816020860101116133f8576102b89394955060200101906104bd565b5050565b9081526102b891604082019161199d565b60208082526102b892910190610ed3565b905a9061361d3061030f565b803b156102a757600061362f60405190565b9182907f55c308190000000000000000000000000000000000000000000000000000000082528183816136658a60048301613501565b03925af190816138d2575b50613754575050600190613682613567565b6308c379a014613694575b506122d057565b61369c613585565b90816136a8575061368d565b80516116e993506001600160a01b0316906136cd60208201516001600160a01b031690565b7fca07069ff663c80e063ced4b6a29396b5a55abb6405c88dd5e68c2a983dd494e8461372361371d61371d613717606061371160408a01516001600160a01b031690565b98015190565b9761030f565b9461030f565b9461373961373060405190565b928392836135ef565b0390a460405191829162461bcd60e51b835260048301613600565b82916137b190611c7460026137a56137806102b861377989516001600160a01b031690565b600b610318565b9361379185611c74611c6f82610337565b61379e4260048701611401565b5a90612cd0565b920191612acf83610337565b1561384657516001600160a01b031660208201516001600160a01b03167f40831af091bf34d51092e19a39e00a37168fc3693676acae65f1535efaec918461380360408501516001600160a01b031690565b9261382961371d61371d613823608061381d60608b015190565b99015190565b9361030f565b94613841600061383860405190565b93849384613545565b0390a4565b516001600160a01b03169061386560208201516001600160a01b031690565b7f0f3790affbfcdc3c84de280f9016e79f3b8543d5266b6378f783483bad2d6b5c61389a60408401516001600160a01b031690565b926138ba61371d61371d61371760806138b4606087015190565b95015190565b946138416138c760405190565b928392339184613512565b6138e290600061287681836104bd565b38613670565b6138f5612a9f83836128d6565b156139575761390f6001611bcf8460006128f28682610d85565b61392361391d613823339390565b9161030f565b917f2f8788117e7eff1d82e926ec794901d17c78024a50270940304540a733656f0d61394e60405190565b600090a4600190565b5050600090565b61396882826128d6565b15613957576139816000611bcf84826128f28682610d85565b61398f61391d613823339390565b917ff6391f5c32d9c69d2a47ea670b442974b53935d1edc7fd64eb21e047a839171b61394e60405190565b6139c26142ae565b6102da6139d160006002611418565b7f5db9ee0a495bf2e6ff9c91a7834c1ba4fdd244a5e8aa4e537bd38aeae4b073aa613a11335b604051918291826001600160a01b03909116815260200190565b0390a1565b6102da6139ba565b613a26612f04565b6102da613a3560016002611418565b7f62e78cea01bee320cd4e420270b5ea74000d11b0c9f74754ebdbfc544b05a258613a11336139f7565b6102da613a1e565b613a80613a7a6102b89263ffffffff1690565b60e01b90565b6001600160e01b03191690565b6001600160a01b039182168152911660208201526060810192916102da9160400152565b90613af690613ae76102da95600495613acd6323b872dd613a67565b93613ad760405190565b9788956020870190815201613a8d565b602082018103825203836104bd565b6142ea565b6001600160a01b0390911681526040810192916102da9160200152565b6001600160a01b0390911681526040810192916102da91602090613560565b613b6891613b77613b4b63095ea7b3613a67565b94613b5560405190565b948591846004602085018a815201613afb565b602082018103825203846104bd565b613b84612a9f848461439f565b613b8e5750505050565b6004613bc8613bce95613bb96000613af695613ba960405190565b9586946020860190815201613b18565b602082018103825203826104bd565b826142ea565b388080806133f8565b613af6600492613ae76102da95613bf163a9059cbb613a67565b92613bfb60405190565b9687946020860190815201613afb565b6102b86002610c55565b613c1f6001610337565b613c27613c0b565b908114613c39576102da906001611401565b6040517f3ee5aeb5000000000000000000000000000000000000000000000000000000008152600490fd5b6102b86001610c55565b6102da613c79613c64565b6001611401565b60018101613c8d81610337565b613c9a611b616000610c55565b11613d395750613ca981610d94565b613cbc613cb66000610e11565b91610e11565b03613cd957506102b8613ccf6003610337565b611c306002610c55565b613ce281610d94565b613cef613cb66001610e11565b03613d0c57506102b8613d026003610337565b611c416002610c55565b613d1590610d94565b613d22613cb66002610e11565b14613d31576102b86003610337565b6102b8614415565b6102b89150610337565b613d4c81610d94565b613d59613cb66000610e11565b03613d7657506102b8613d6c6006610337565b611c306004610c55565b613d7f90610d94565b613d8c613cb66001610e11565b14613d9b576102b86006610337565b6102b8613d026006610337565b919394929050613db6600090565b94613dbf612a6c565b94613dc98261333f565b613dd66102b86007610337565b8111613e7f578310613de85750505050565b613df4600293836140ef565b939194909201613e0381610337565b613e10611b616000610c55565b1115613e71576102b8613e2291610337565b831015613e30575b506133f8565b613e599597506134e2939496506131656134db9261348d61316560006134949501988951612947565b613e6461212a613422565b6001913880808080613e2a565b50613e226102b86004610337565b505092945050610bc0925061342a565b90613e98612f67565b9182613ea6611e228361030f565b916000613eb260405190565b63364b492b60e11b815293849060049082905afa80156122d0576000938491613fa9575b5083835260408301528251613eea90612914565b9260208301938452600095613eff6000610c55565b613f0a6102b8845190565b81101561330f57613f24611e22611e226131658487612947565b906020613f3060405190565b6370a0823160e01b81526001600160a01b038716600482015292839060249082905afa9182156122d057613f8692613f75918b91613f8b575b50613258838a51612947565b612a0161326c612d36838a51612947565b613eff565b613fa3915060203d81116132db576132cc81836104bd565b38613f69565b9050613fbf91933d8091833e61332e81836104bd565b90939193613ed6565b9091600091613fd76000610c55565b918490835b613fea6102b8878601515190565b811015614081578681146140715761401961400f613394612d36846020890151612947565b6060860151611c41565b61402a612d36836040880151612947565b81811161404c575b50506102b8614044613fea9260010190565b915050613fdc565b9061405691612cd0565b858111614064575b80614032565b94509150816102b861405e565b6102b8614044613fea9260010190565b50935093505050565b5050614094600090565b50906102b8613422565b906140ac612a9f82846128d6565b6140b4575050565b6116e96140c060405190565b9283927fe2517d3f00000000000000000000000000000000000000000000000000000000845260048401613afb565b909190600091829383916060840195614106875190565b95600096614116611b6189610c55565b146142685761412487610c55565b948593865b6141376102b88b8b01515190565b8110156141f05761415c614155613394612d368460208e0151612947565b8c51611c41565b61416d612d368360408d0151612947565b61417a6102b88a83611979565b8211156141ad5761418a91612cd0565b8881116141a0575b50600101614129565b614129565b975093508361419b614192565b6141ba6102b88a83612cd0565b82106141cb575b5050600101614129565b906141d591612cd0565b8681116141e3575b806141c1565b955092508261419b6141dd565b5095939298945095509561420381610c55565b831180614257575b6142155750505050565b614246949550918161423b949361422c611c309490565b83101590506142505750915190565b611c41614e20610c55565b90388080806133f8565b9050915190565b5061426181610c55565b821161420b565b5050945050505061427890610c55565b9081908290565b6102b890611c416142a861271092611c3061429a6005610337565b6142a386610c55565b612cd0565b91610c55565b6142b9612a9f611f01565b6142bf57565b6040517f8dfc202b000000000000000000000000000000000000000000000000000000008152600490fd5b9060006020916142f8600090565b50828151910182855af115612167573d60005190614319611b616000610c55565b0361438b57506143288161030f565b3b614336611b616000610c55565b145b61433f5750565b61434b6116e99161030f565b6040519182917f5274afe7000000000000000000000000000000000000000000000000000000008352600483016001600160a01b03909116815260200190565b614398611b616001610c55565b1415614338565b9060006020916143ad600090565b50828151910182855af160005190913d836143c9575b50505090565b909192506143da611b616000610c55565b03614401576143e9915061030f565b3b6143f7611b616000610c55565b115b3880806143c3565b5061440f611b616001610c55565b146143f9565b6102b8600361033756fea264697066735822122076a799f02d4b243f457fb114a983799c73ee0bd5d6dac8ca5c27be852a267c6c64736f6c63430008160033",
  "linkReferences": {},
  "deployedLinkReferences": {}
}