{
  "_format": "hh-sol-artifact-1",
  "contractName": "HyperIndexVaultFactory",
  "sourceName": "contracts/HyperIndexVaultFactory.sol",
  "abi": [
    {
      "inputs": [
        {
          "internalType": "address",
          "name": "_implementation",
          "type": "address"
        },
        {
          "internalType": "address",
          "name": "_indexTokenFactory",
          "type": "address"
        },
        {
          "internalType": "address",
          "name": "_priceFeed",
          "type": "address"
        }
      ],
      "stateMutability": "nonpayable",
      "type": "constructor"
    },
    {
      "inputs": [],
      "name": "AccessControlBadConfirmation",
      "type": "error"
    },
    {
      "inputs": [
        {
          "internalType": "address",
          "name": "account",
          "type": "address"
        },
        {
          "internalType": "bytes32",
          "name": "neededRole",
          "type": "bytes32"
        }
      ],
      "name": "AccessControlUnauthorizedAccount",
      "type": "error"
    },
    {
      "inputs": [],
      "name": "EnforcedPause",
      "type": "error"
    },
    {
      "inputs": [],
      "name": "ExpectedPause",
      "type": "error"
    },
    {
      "inputs": [],
      "name": "FailedDeployment",
      "type": "error"
    },
    {
      "inputs": [
        {
          "internalType": "uint256",
          "name": "balance",
          "type": "uint256"
        },
        {
          "internalType": "uint256",
          "name": "needed",
          "type": "uint256"
        }
      ],
      "name": "InsufficientBalance",
      "type": "error"
    },
    {
      "inputs": [],
      "name": "ReentrancyGuardReentrantCall",
      "type": "error"
    },
    {
      "anonymous": false,
      "inputs": [
        {
          "indexed": true,
          "internalType": "bytes32",
          "name": "fundId",
          "type": "bytes32"
        },
        {
          "indexed": true,
          "internalType": "address",
          "name": "creator",
          "type": "address"
        },
        {
          "indexed": true,
          "internalType": "address",
          "name": "vault",
          "type": "address"
        },
        {
          "indexed": false,
          "internalType": "address",
          "name": "indexToken",
          "type": "address"
        },
        {
          "indexed": false,
          "internalType": "string",
          "name": "name",
          "type": "string"
        },
        {
          "indexed": false,
          "internalType": "string",
          "name": "symbol",
          "type": "string"
        }
      ],
      "name": "HyperIndexProductCreated",
      "type": "event"
    },
    {
      "anonymous": false,
      "inputs": [
        {
          "indexed": true,
          "internalType": "address",
          "name": "oldImplementation",
          "type": "address"
        },
        {
          "indexed": true,
          "internalType": "address",
          "name": "newImplementation",
          "type": "address"
        }
      ],
      "name": "ImplementationUpgraded",
      "type": "event"
    },
    {
      "anonymous": false,
      "inputs": [
        {
          "indexed": true,
          "internalType": "bytes32",
          "name": "fundId",
          "type": "bytes32"
        },
        {
          "indexed": true,
          "internalType": "address",
          "name": "vault",
          "type": "address"
        },
        {
          "indexed": false,
          "internalType": "uint256",
          "name": "totalDeposited",
          "type": "uint256"
        },
        {
          "indexed": false,
          "internalType": "uint256",
          "name": "indexTokensIssued",
          "type": "uint256"
        }
      ],
      "name": "InitialDepositCompleted",
      "type": "event"
    },
    {
      "anonymous": false,
      "inputs": [
        {
          "indexed": false,
          "internalType": "address",
          "name": "account",
          "type": "address"
        }
      ],
      "name": "Paused",
      "type": "event"
    },
    {
      "anonymous": false,
      "inputs": [
        {
          "indexed": true,
          "internalType": "bytes32",
          "name": "fundId",
          "type": "bytes32"
        },
        {
          "indexed": false,
          "internalType": "enum HyperIndexVaultFactory.ProductStatus",
          "name": "oldStatus",
          "type": "uint8"
        },
        {
          "indexed": false,
          "internalType": "enum HyperIndexVaultFactory.ProductStatus",
          "name": "newStatus",
          "type": "uint8"
        }
      ],
      "name": "ProductStatusChanged",
      "type": "event"
    },
    {
      "anonymous": false,
      "inputs": [
        {
          "indexed": true,
          "internalType": "bytes32",
          "name": "role",
          "type": "bytes32"
        },
        {
          "indexed": true,
          "internalType": "bytes32",
          "name": "previousAdminRole",
          "type": "bytes32"
        },
        {
          "indexed": true,
          "internalType": "bytes32",
          "name": "newAdminRole",
          "type": "bytes32"
        }
      ],
      "name": "RoleAdminChanged",
      "type": "event"
    },
    {
      "anonymous": false,
      "inputs": [
        {
          "indexed": true,
          "internalType": "bytes32",
          "name": "role",
          "type": "bytes32"
        },
        {
          "indexed": true,
          "internalType": "address",
          "name": "account",
          "type": "address"
        },
        {
          "indexed": true,
          "internalType": "address",
          "name": "sender",
          "type": "address"
        }
      ],
      "name": "RoleGranted",
      "type": "event"
    },
    {
      "anonymous": false,
      "inputs": [
        {
          "indexed": true,
          "internalType": "bytes32",
          "name": "role",
          "type": "bytes32"
        },
        {
          "indexed": true,
          "internalType": "address",
          "name": "account",
          "type": "address"
        },
        {
          "indexed": true,
          "internalType": "address",
          "name": "sender",
          "type": "address"
        }
      ],
      "name": "RoleRevoked",
      "type": "event"
    },
    {
      "anonymous": false,
      "inputs": [
        {
          "indexed": false,
          "internalType": "address",
          "name": "account",
          "type": "address"
        }
      ],
      "name": "Unpaused",
      "type": "event"
    },
    {
      "anonymous": false,
      "inputs": [
        {
          "indexed": true,
          "internalType": "bytes32",
          "name": "fundId",
          "type": "bytes32"
        },
        {
          "indexed": false,
          "internalType": "uint256",
          "name": "managementFee",
          "type": "uint256"
        },
        {
          "indexed": false,
          "internalType": "uint256",
          "name": "performanceFee",
          "type": "uint256"
        }
      ],
      "name": "VaultConfigUpdated",
      "type": "event"
    },
    {
      "anonymous": false,
      "inputs": [
        {
          "indexed": true,
          "internalType": "uint256",
          "name": "indexTokenId",
          "type": "uint256"
        },
        {
          "indexed": true,
          "internalType": "uint256",
          "name": "chainId",
          "type": "uint256"
        },
        {
          "indexed": true,
          "internalType": "address",
          "name": "vault",
          "type": "address"
        },
        {
          "indexed": false,
          "internalType": "address",
          "name": "asset",
          "type": "address"
        },
        {
          "indexed": false,
          "internalType": "string",
          "name": "name",
          "type": "string"
        },
        {
          "indexed": false,
          "internalType": "string",
          "name": "symbol",
          "type": "string"
        },
        {
          "indexed": false,
          "internalType": "address",
          "name": "creator",
          "type": "address"
        }
      ],
      "name": "VaultCreated",
      "type": "event"
    },
    {
      "anonymous": false,
      "inputs": [
        {
          "indexed": true,
          "internalType": "address",
          "name": "vault",
          "type": "address"
        },
        {
          "indexed": true,
          "internalType": "uint256",
          "name": "indexTokenId",
          "type": "uint256"
        },
        {
          "indexed": false,
          "internalType": "bool",
          "name": "active",
          "type": "bool"
        }
      ],
      "name": "VaultStatusChanged",
      "type": "event"
    },
    {
      "inputs": [],
      "name": "DEFAULT_ADMIN_ROLE",
      "outputs": [
        {
          "internalType": "bytes32",
          "name": "",
          "type": "bytes32"
        }
      ],
      "stateMutability": "view",
      "type": "function"
    },
    {
      "inputs": [],
      "name": "MAX_COMPONENTS",
      "outputs": [
        {
          "internalType": "uint256",
          "name": "",
          "type": "uint256"
        }
      ],
      "stateMutability": "view",
      "type": "function"
    },
    {
      "inputs": [],
      "name": "MIN_INITIAL_DEPOSIT",
      "outputs": [
        {
          "internalType": "uint256",
          "name": "",
          "type": "uint256"
        }
      ],
      "stateMutability": "view",
      "type": "function"
    },
    {
      "inputs": [],
      "name": "PLATFORM_ADMIN_ROLE",
      "outputs": [
        {
          "internalType": "bytes32",
          "name": "",
          "type": "bytes32"
        }
      ],
      "stateMutability": "view",
      "type": "function"
    },
    {
      "inputs": [],
      "name": "UPGRADER_ROLE",
      "outputs": [
        {
          "internalType": "bytes32",
          "name": "",
          "type": "bytes32"
        }
      ],
      "stateMutability": "view",
      "type": "function"
    },
    {
      "inputs": [],
      "name": "VAULT_CREATOR_ROLE",
      "outputs": [
        {
          "internalType": "bytes32",
          "name": "",
          "type": "bytes32"
        }
      ],
      "stateMutability": "view",
      "type": "function"
    },
    {
      "inputs": [
        {
          "internalType": "bytes32",
          "name": "fundId",
          "type": "bytes32"
        }
      ],
      "name": "activateProduct",
      "outputs": [],
      "stateMutability": "nonpayable",
      "type": "function"
    },
    {
      "inputs": [
        {
          "internalType": "uint256",
          "name": "",
          "type": "uint256"
        }
      ],
      "name": "allVaults",
      "outputs": [
        {
          "internalType": "address",
          "name": "",
          "type": "address"
        }
      ],
      "stateMutability": "view",
      "type": "function"
    },
    {
      "inputs": [
        {
          "internalType": "bytes32",
          "name": "fundId",
          "type": "bytes32"
        },
        {
          "internalType": "address[]",
          "name": "tokenAddresses",
          "type": "address[]"
        },
        {
          "internalType": "uint256[]",
          "name": "amounts",
          "type": "uint256[]"
        },
        {
          "internalType": "uint256",
          "name": "indexTokenSupply",
          "type": "uint256"
        }
      ],
      "name": "completeInitialFunding",
      "outputs": [],
      "stateMutability": "nonpayable",
      "type": "function"
    },
    {
      "inputs": [
        {
          "internalType": "string",
          "name": "name",
          "type": "string"
        },
        {
          "internalType": "string",
          "name": "symbol",
          "type": "string"
        },
        {
          "components": [
            {
              "internalType": "address",
              "name": "tokenAddress",
              "type": "address"
            },
            {
              "internalType": "uint32",
              "name": "hyperliquidAssetIndex",
              "type": "uint32"
            },
            {
              "internalType": "uint256",
              "name": "targetRatio",
              "type": "uint256"
            },
            {
              "internalType": "uint256",
              "name": "depositedAmount",
              "type": "uint256"
            }
          ],
          "internalType": "struct HyperIndexVaultFactory.HyperIndexComponent[]",
          "name": "components",
          "type": "tuple[]"
        },
        {
          "components": [
            {
              "internalType": "uint256",
              "name": "managementFee",
              "type": "uint256"
            },
            {
              "internalType": "uint256",
              "name": "performanceFee",
              "type": "uint256"
            },
            {
              "internalType": "uint256",
              "name": "maxTotalAssets",
              "type": "uint256"
            },
            {
              "internalType": "bool",
              "name": "publicAccess",
              "type": "bool"
            },
            {
              "internalType": "address[]",
              "name": "authorizedUsers",
              "type": "address[]"
            }
          ],
          "internalType": "struct HyperIndexVaultFactory.VaultConfig",
          "name": "vaultConfig",
          "type": "tuple"
        }
      ],
      "name": "createHyperIndexProduct",
      "outputs": [
        {
          "internalType": "bytes32",
          "name": "fundId",
          "type": "bytes32"
        }
      ],
      "stateMutability": "nonpayable",
      "type": "function"
    },
    {
      "inputs": [
        {
          "internalType": "address",
          "name": "asset",
          "type": "address"
        },
        {
          "internalType": "uint256",
          "name": "indexTokenId",
          "type": "uint256"
        },
        {
          "internalType": "uint256",
          "name": "chainId",
          "type": "uint256"
        },
        {
          "internalType": "string",
          "name": "name_",
          "type": "string"
        },
        {
          "internalType": "string",
          "name": "symbol_",
          "type": "string"
        },
        {
          "internalType": "address",
          "name": "lzEndpoint",
          "type": "address"
        },
        {
          "internalType": "address[]",
          "name": "tokens_",
          "type": "address[]"
        },
        {
          "internalType": "uint256[]",
          "name": "targetAllocations_",
          "type": "uint256[]"
        }
      ],
      "name": "createVault",
      "outputs": [
        {
          "internalType": "address",
          "name": "vault",
          "type": "address"
        }
      ],
      "stateMutability": "nonpayable",
      "type": "function"
    },
    {
      "inputs": [
        {
          "internalType": "address",
          "name": "",
          "type": "address"
        },
        {
          "internalType": "uint256",
          "name": "",
          "type": "uint256"
        }
      ],
      "name": "creatorProducts",
      "outputs": [
        {
          "internalType": "bytes32",
          "name": "",
          "type": "bytes32"
        }
      ],
      "stateMutability": "view",
      "type": "function"
    },
    {
      "inputs": [],
      "name": "emergencyPause",
      "outputs": [],
      "stateMutability": "nonpayable",
      "type": "function"
    },
    {
      "inputs": [],
      "name": "emergencyPauseAllVaults",
      "outputs": [],
      "stateMutability": "nonpayable",
      "type": "function"
    },
    {
      "inputs": [],
      "name": "emergencyUnpause",
      "outputs": [],
      "stateMutability": "nonpayable",
      "type": "function"
    },
    {
      "inputs": [],
      "name": "emergencyUnpauseAllVaults",
      "outputs": [],
      "stateMutability": "nonpayable",
      "type": "function"
    },
    {
      "inputs": [
        {
          "internalType": "uint256",
          "name": "offset",
          "type": "uint256"
        },
        {
          "internalType": "uint256",
          "name": "limit",
          "type": "uint256"
        }
      ],
      "name": "getAllVaults",
      "outputs": [
        {
          "internalType": "address[]",
          "name": "vaultAddresses",
          "type": "address[]"
        },
        {
          "internalType": "bool",
          "name": "hasMore",
          "type": "bool"
        }
      ],
      "stateMutability": "view",
      "type": "function"
    },
    {
      "inputs": [
        {
          "internalType": "address",
          "name": "creator",
          "type": "address"
        }
      ],
      "name": "getCreatorProducts",
      "outputs": [
        {
          "internalType": "bytes32[]",
          "name": "productIds",
          "type": "bytes32[]"
        }
      ],
      "stateMutability": "view",
      "type": "function"
    },
    {
      "inputs": [
        {
          "internalType": "bytes32",
          "name": "fundId",
          "type": "bytes32"
        }
      ],
      "name": "getHyperIndexProduct",
      "outputs": [
        {
          "components": [
            {
              "internalType": "bytes32",
              "name": "fundId",
              "type": "bytes32"
            },
            {
              "internalType": "address",
              "name": "indexToken",
              "type": "address"
            },
            {
              "internalType": "address",
              "name": "vault",
              "type": "address"
            },
            {
              "internalType": "address",
              "name": "creator",
              "type": "address"
            },
            {
              "internalType": "string",
              "name": "name",
              "type": "string"
            },
            {
              "internalType": "string",
              "name": "symbol",
              "type": "string"
            },
            {
              "components": [
                {
                  "internalType": "address",
                  "name": "tokenAddress",
                  "type": "address"
                },
                {
                  "internalType": "uint32",
                  "name": "hyperliquidAssetIndex",
                  "type": "uint32"
                },
                {
                  "internalType": "uint256",
                  "name": "targetRatio",
                  "type": "uint256"
                },
                {
                  "internalType": "uint256",
                  "name": "depositedAmount",
                  "type": "uint256"
                }
              ],
              "internalType": "struct HyperIndexVaultFactory.HyperIndexComponent[]",
              "name": "components",
              "type": "tuple[]"
            },
            {
              "components": [
                {
                  "internalType": "uint256",
                  "name": "managementFee",
                  "type": "uint256"
                },
                {
                  "internalType": "uint256",
                  "name": "performanceFee",
                  "type": "uint256"
                },
                {
                  "internalType": "uint256",
                  "name": "maxTotalAssets",
                  "type": "uint256"
                },
                {
                  "internalType": "bool",
                  "name": "publicAccess",
                  "type": "bool"
                },
                {
                  "internalType": "address[]",
                  "name": "authorizedUsers",
                  "type": "address[]"
                }
              ],
              "internalType": "struct HyperIndexVaultFactory.VaultConfig",
              "name": "vaultConfig",
              "type": "tuple"
            },
            {
              "internalType": "uint256",
              "name": "createdAt",
              "type": "uint256"
            },
            {
              "internalType": "enum HyperIndexVaultFactory.ProductStatus",
              "name": "status",
              "type": "uint8"
            }
          ],
          "internalType": "struct HyperIndexVaultFactory.HyperIndexProduct",
          "name": "product",
          "type": "tuple"
        }
      ],
      "stateMutability": "view",
      "type": "function"
    },
    {
      "inputs": [],
      "name": "getImplementation",
      "outputs": [
        {
          "internalType": "address",
          "name": "",
          "type": "address"
        }
      ],
      "stateMutability": "view",
      "type": "function"
    },
    {
      "inputs": [
        {
          "internalType": "bytes32",
          "name": "fundId",
          "type": "bytes32"
        }
      ],
      "name": "getProductVault",
      "outputs": [
        {
          "internalType": "address",
          "name": "vaultAddress",
          "type": "address"
        }
      ],
      "stateMutability": "view",
      "type": "function"
    },
    {
      "inputs": [
        {
          "internalType": "bytes32",
          "name": "role",
          "type": "bytes32"
        }
      ],
      "name": "getRoleAdmin",
      "outputs": [
        {
          "internalType": "bytes32",
          "name": "",
          "type": "bytes32"
        }
      ],
      "stateMutability": "view",
      "type": "function"
    },
    {
      "inputs": [],
      "name": "getTotalVaultCount",
      "outputs": [
        {
          "internalType": "uint256",
          "name": "count",
          "type": "uint256"
        }
      ],
      "stateMutability": "view",
      "type": "function"
    },
    {
      "inputs": [
        {
          "internalType": "uint256",
          "name": "indexTokenId",
          "type": "uint256"
        },
        {
          "internalType": "uint256",
          "name": "chainId",
          "type": "uint256"
        }
      ],
      "name": "getVault",
      "outputs": [
        {
          "internalType": "address",
          "name": "vault",
          "type": "address"
        }
      ],
      "stateMutability": "view",
      "type": "function"
    },
    {
      "inputs": [
        {
          "internalType": "address",
          "name": "vault",
          "type": "address"
        }
      ],
      "name": "getVaultMetadata",
      "outputs": [
        {
          "components": [
            {
              "internalType": "uint256",
              "name": "indexTokenId",
              "type": "uint256"
            },
            {
              "internalType": "uint256",
              "name": "chainId",
              "type": "uint256"
            },
            {
              "internalType": "address",
              "name": "asset",
              "type": "address"
            },
            {
              "internalType": "string",
              "name": "name",
              "type": "string"
            },
            {
              "internalType": "string",
              "name": "symbol",
              "type": "string"
            },
            {
              "internalType": "address",
              "name": "creator",
              "type": "address"
            },
            {
              "internalType": "uint256",
              "name": "createdAt",
              "type": "uint256"
            },
            {
              "internalType": "bool",
              "name": "isActive",
              "type": "bool"
            }
          ],
          "internalType": "struct HyperIndexVaultFactory.VaultMetadata",
          "name": "metadata",
          "type": "tuple"
        }
      ],
      "stateMutability": "view",
      "type": "function"
    },
    {
      "inputs": [
        {
          "internalType": "uint256",
          "name": "indexTokenId",
          "type": "uint256"
        }
      ],
      "name": "getVaultsForIndex",
      "outputs": [
        {
          "internalType": "address[]",
          "name": "vaultAddresses",
          "type": "address[]"
        },
        {
          "internalType": "uint256[]",
          "name": "chainIds",
          "type": "uint256[]"
        }
      ],
      "stateMutability": "view",
      "type": "function"
    },
    {
      "inputs": [
        {
          "internalType": "bytes32",
          "name": "role",
          "type": "bytes32"
        },
        {
          "internalType": "address",
          "name": "account",
          "type": "address"
        }
      ],
      "name": "grantRole",
      "outputs": [],
      "stateMutability": "nonpayable",
      "type": "function"
    },
    {
      "inputs": [
        {
          "internalType": "bytes32",
          "name": "role",
          "type": "bytes32"
        },
        {
          "internalType": "address",
          "name": "account",
          "type": "address"
        }
      ],
      "name": "hasRole",
      "outputs": [
        {
          "internalType": "bool",
          "name": "",
          "type": "bool"
        }
      ],
      "stateMutability": "view",
      "type": "function"
    },
    {
      "inputs": [
        {
          "internalType": "bytes32",
          "name": "",
          "type": "bytes32"
        }
      ],
      "name": "hyperIndexProducts",
      "outputs": [
        {
          "internalType": "bytes32",
          "name": "fundId",
          "type": "bytes32"
        },
        {
          "internalType": "address",
          "name": "indexToken",
          "type": "address"
        },
        {
          "internalType": "address",
          "name": "vault",
          "type": "address"
        },
        {
          "internalType": "address",
          "name": "creator",
          "type": "address"
        },
        {
          "internalType": "string",
          "name": "name",
          "type": "string"
        },
        {
          "internalType": "string",
          "name": "symbol",
          "type": "string"
        },
        {
          "components": [
            {
              "internalType": "uint256",
              "name": "managementFee",
              "type": "uint256"
            },
            {
              "internalType": "uint256",
              "name": "performanceFee",
              "type": "uint256"
            },
            {
              "internalType": "uint256",
              "name": "maxTotalAssets",
              "type": "uint256"
            },
            {
              "internalType": "bool",
              "name": "publicAccess",
              "type": "bool"
            },
            {
              "internalType": "address[]",
              "name": "authorizedUsers",
              "type": "address[]"
            }
          ],
          "internalType": "struct HyperIndexVaultFactory.VaultConfig",
          "name": "vaultConfig",
          "type": "tuple"
        },
        {
          "internalType": "uint256",
          "name": "createdAt",
          "type": "uint256"
        },
        {
          "internalType": "enum HyperIndexVaultFactory.ProductStatus",
          "name": "status",
          "type": "uint8"
        }
      ],
      "stateMutability": "view",
      "type": "function"
    },
    {
      "inputs": [],
      "name": "implementation",
      "outputs": [
        {
          "internalType": "address",
          "name": "",
          "type": "address"
        }
      ],
      "stateMutability": "view",
      "type": "function"
    },
    {
      "inputs": [],
      "name": "indexTokenFactory",
      "outputs": [
        {
          "internalType": "contract IndexTokenFactory",
          "name": "",
          "type": "address"
        }
      ],
      "stateMutability": "view",
      "type": "function"
    },
    {
      "inputs": [
        {
          "internalType": "uint256",
          "name": "indexTokenId",
          "type": "uint256"
        },
        {
          "internalType": "uint256",
          "name": "chainId",
          "type": "uint256"
        }
      ],
      "name": "isVaultActive",
      "outputs": [
        {
          "internalType": "bool",
          "name": "exists",
          "type": "bool"
        }
      ],
      "stateMutability": "view",
      "type": "function"
    },
    {
      "inputs": [],
      "name": "managementFeeLimit",
      "outputs": [
        {
          "internalType": "uint256",
          "name": "",
          "type": "uint256"
        }
      ],
      "stateMutability": "view",
      "type": "function"
    },
    {
      "inputs": [],
      "name": "paused",
      "outputs": [
        {
          "internalType": "bool",
          "name": "",
          "type": "bool"
        }
      ],
      "stateMutability": "view",
      "type": "function"
    },
    {
      "inputs": [],
      "name": "performanceFeeLimit",
      "outputs": [
        {
          "internalType": "uint256",
          "name": "",
          "type": "uint256"
        }
      ],
      "stateMutability": "view",
      "type": "function"
    },
    {
      "inputs": [],
      "name": "priceFeed",
      "outputs": [
        {
          "internalType": "contract IPriceFeed",
          "name": "",
          "type": "address"
        }
      ],
      "stateMutability": "view",
      "type": "function"
    },
    {
      "inputs": [
        {
          "internalType": "bytes32",
          "name": "",
          "type": "bytes32"
        }
      ],
      "name": "productVaults",
      "outputs": [
        {
          "internalType": "address",
          "name": "",
          "type": "address"
        }
      ],
      "stateMutability": "view",
      "type": "function"
    },
    {
      "inputs": [
        {
          "internalType": "bytes32",
          "name": "role",
          "type": "bytes32"
        },
        {
          "internalType": "address",
          "name": "callerConfirmation",
          "type": "address"
        }
      ],
      "name": "renounceRole",
      "outputs": [],
      "stateMutability": "nonpayable",
      "type": "function"
    },
    {
      "inputs": [
        {
          "internalType": "bytes32",
          "name": "role",
          "type": "bytes32"
        },
        {
          "internalType": "address",
          "name": "account",
          "type": "address"
        }
      ],
      "name": "revokeRole",
      "outputs": [],
      "stateMutability": "nonpayable",
      "type": "function"
    },
    {
      "inputs": [
        {
          "internalType": "address",
          "name": "vault",
          "type": "address"
        },
        {
          "internalType": "bool",
          "name": "active",
          "type": "bool"
        }
      ],
      "name": "setVaultStatus",
      "outputs": [],
      "stateMutability": "nonpayable",
      "type": "function"
    },
    {
      "inputs": [],
      "name": "smartIndexVaultImplementation",
      "outputs": [
        {
          "internalType": "address",
          "name": "",
          "type": "address"
        }
      ],
      "stateMutability": "view",
      "type": "function"
    },
    {
      "inputs": [
        {
          "internalType": "bytes4",
          "name": "interfaceId",
          "type": "bytes4"
        }
      ],
      "name": "supportsInterface",
      "outputs": [
        {
          "internalType": "bool",
          "name": "",
          "type": "bool"
        }
      ],
      "stateMutability": "view",
      "type": "function"
    },
    {
      "inputs": [
        {
          "internalType": "uint256",
          "name": "newManagementFeeLimit",
          "type": "uint256"
        },
        {
          "internalType": "uint256",
          "name": "newPerformanceFeeLimit",
          "type": "uint256"
        }
      ],
      "name": "updateFeeLimits",
      "outputs": [],
      "stateMutability": "nonpayable",
      "type": "function"
    },
    {
      "inputs": [
        {
          "internalType": "address",
          "name": "",
          "type": "address"
        }
      ],
      "name": "vaultMetadata",
      "outputs": [
        {
          "internalType": "uint256",
          "name": "indexTokenId",
          "type": "uint256"
        },
        {
          "internalType": "uint256",
          "name": "chainId",
          "type": "uint256"
        },
        {
          "internalType": "address",
          "name": "asset",
          "type": "address"
        },
        {
          "internalType": "string",
          "name": "name",
          "type": "string"
        },
        {
          "internalType": "string",
          "name": "symbol",
          "type": "string"
        },
        {
          "internalType": "address",
          "name": "creator",
          "type": "address"
        },
        {
          "internalType": "uint256",
          "name": "createdAt",
          "type": "uint256"
        },
        {
          "internalType": "bool",
          "name": "isActive",
          "type": "bool"
        }
      ],
      "stateMutability": "view",
      "type": "function"
    },
    {
      "inputs": [
        {
          "internalType": "uint256",
          "name": "",
          "type": "uint256"
        },
        {
          "internalType": "uint256",
          "name": "",
          "type": "uint256"
        }
      ],
      "name": "vaults",
      "outputs": [
        {
          "internalType": "address",
          "name": "",
          "type": "address"
        }
      ],
      "stateMutability": "view",
      "type": "function"
    }
  ],
  "bytecode": "0x60c0604052346200005f576200001f6200001862000122565b9162000372565b604051614e9e620006618239608051818181610c04015281816136b901528181613d8c0152614b16015260a051818181610f48015261295a0152614e9e90f35b600080fd5b634e487b7160e01b600052604160045260246000fd5b90601f01601f191681019081106001600160401b038211176200009c57604052565b62000064565b90620000b9620000b160405190565b92836200007a565b565b6001600160a01b031690565b90565b6001600160a01b038116036200005f57565b90505190620000b982620000ca565b90916060828403126200005f57620000c7620001088484620000dc565b9360406200011a8260208701620000dc565b9401620000dc565b62000145620089e6803803806200013981620000a2565b928339810190620000eb565b909192565b90600019905b9181191691161790565b620000c7620000c7620000c79290565b906200017e620000c762000186926200015a565b82546200014a565b9055565b620000bb620000c7620000c79290565b620000c7906200018a565b15620001ad57565b60405162461bcd60e51b815260206004820152601660248201527f496e76616c696420696d706c656d656e746174696f6e000000000000000000006044820152606490fd5b15620001fa57565b60405162461bcd60e51b815260206004820152601b60248201527f496e76616c696420696e64657820746f6b656e20666163746f727900000000006044820152606490fd5b156200024757565b60405162461bcd60e51b8152602060048201526012602482015271125b9d985b1a59081c1c9a58d9481999595960721b6044820152606490fd5b620000c790620000bb906001600160a01b031682565b620000c79062000281565b620000c79062000297565b90610100600160a81b039060081b62000150565b90620002d5620000c76200018692620002a2565b8254620002ad565b620000c760006200015a565b620002f490620002a2565b9052565b62000327620000c7926200031560608401916000850190620002e9565b82810360208401526000815260200190565b9060408183039101526000815260200190565b6040513d6000823e3d90fd5b906001600160a01b039062000150565b906200036a620000c76200018692620002a2565b825462000346565b906200042c620004d5936200042362000434936200038f62000530565b6200039e6101f4600a6200016a565b620003ad610bb8600b6200016a565b620003b960006200019a565b95620003da6001600160a01b0388166001600160a01b0383161415620001a5565b620003fa6001600160a01b0388166001600160a01b0384161415620001f2565b6200041a6001600160a01b0388166001600160a01b03861614156200023f565b60a052620002a2565b608052620002a2565b6002620002c1565b6200044a62000442620002dd565b33906200059d565b50620004767f5246556c0ab216b5b325ad7c539bfbd1a07c768773cdf810fecd3c3375c2740762000442565b50620004a27f9af8e52fcefce2809a3764f197273e3febd830b37cc35ab3899dee370cb669c662000442565b50620004ce7f189ab7a9244df0848122154315af71fe140f3db0fe014031783b0946b8c9d2e362000442565b50620002a2565b604051906134e782016001600160401b038111838210176200009c57829162000507916134e7620054ff8539620002f8565b03906000f080156200052a5762000522620000b991620002a2565b600362000356565b6200033a565b620000b962000546565b620000c760016200015a565b620000b9620005546200053a565b60016200016a565b905b600052602052604060002090565b906200055e90620002a2565b9060ff9062000150565b9062000595620000c76200018692151590565b825462000578565b620005b1620005ad838362000638565b1590565b156200063157620005dd6001620005d7846000620005d086826200055c565b016200056c565b62000582565b620005fc620005f5620005ee339390565b93620002a2565b91620002a2565b917f2f8788117e7eff1d82e926ec794901d17c78024a50270940304540a733656f0d6200062860405190565b600090a4600190565b5050600090565b620000c7916000620005d0620006599362000651600090565b50826200055c565b5460ff169056fe6080604052600436101561001257600080fd5b60003560e01c806301ffc9a7146102dd57806307ed175a146102d85780630ab50a6a146102d357806315e51292146102ce578063197c542f146102c95780631a1b62e2146102c4578063248a9ca3146102bf5780632ad876e0146102ba5780632b15d997146102b55780632f2ff15d146102b0578063328c8ca5146102ab57806336568abe146102a65780633f584508146102a1578063472ae7ce1461029c5780634a4e3bd51461029757806351858e2714610292578063538d92ea1461028d57806357a9eaf4146102885780635c60da1b1461022e5780635c975abb1461028357806360d712fc1461027e5780636272a5261461027957806366a82a5114610274578063685d34ff1461026f578063697c526a1461026a5780637354231e14610265578063741bef1a1461026057806386401a431461025b5780638748cef1146102565780638ae5fa36146102515780639094a91e1461024c57806391d148541461024757806398dc541914610242578063a217fddf1461023d578063a381af6614610238578063a6d6e7aa14610233578063aaf10f421461022e578063beacb40f14610229578063c182e4a314610224578063d20810741461021f578063d245da1a1461021a578063d547741f14610215578063d9529cc114610210578063dc4f1e491461020b5763f72c0d8b036102e25761197c565b611955565b6118a0565b611887565b61186c565b611847565b611820565b6116a1565b610f33565b611626565b61160a565b6115ac565b611582565b611566565b61154b565b6114d4565b6114a8565b6113cc565b6113b1565b611389565b611350565b611317565b6112fb565b6112b4565b610fc3565b610f6c565b610f08565b610dc2565b610d86565b610d6e565b610d37565b610bef565b610b95565b610b79565b610b5b565b610b02565b610ae7565b610ab7565b610a80565b610585565b610534565b610466565b610415565b61033c565b600080fd5b7fffffffff0000000000000000000000000000000000000000000000000000000081165b036102e257565b9050359061031f826102e7565b565b906020828203126102e25761033591610312565b90565b9052565b346102e25761036a610357610352366004610321565b6119b5565b6040515b91829182901515815260200190565b0390f35b6001600160a01b031690565b6001600160a01b03811661030b565b9050359061031f8261037a565b906020828203126102e25761033591610389565b0190565b906103ce6103c76103bd845190565b8084529260200190565b9260200190565b9060005b8181106103df5750505090565b9091926103fc6103f56001928651815260200190565b9460200190565b9291016103d2565b6020808252610335929101906103ae565b346102e25761036a61043061042b366004610396565b611ac3565b60405191829182610404565b60009103126102e257565b6103356103356103359290565b610335600a610447565b610335610454565b346102e25761047636600461043c565b61036a61048161045e565b6040519182918290815260200190565b8061030b565b9050359061031f82610491565b91906040838203126102e2576103359060206104c08286610497565b9401610497565b906104d66103c76103bd845190565b9060005b8181106104e75750505090565b9091926105066103f560019286516001600160a01b0316815260200190565b9291016104da565b9291602061052b61031f93604087019087820360008901526104c7565b94019015159052565b346102e25761054d6105473660046104a4565b90611bde565b9061036a61055a60405190565b9283928361050e565b610335916008021c81565b906103359154610563565b6103356000600b61056e565b346102e25761059536600461043c565b61036a610481610579565b906020828203126102e25761033591610497565b905b600052602052604060002090565b6103359081565b61033590546105c4565b634e487b7160e01b600052602260045260246000fd5b906001600283049216801561060b575b602083101461060657565b6105d5565b91607f16916105fb565b80546000939291610632610628836105eb565b8085529360200190565b9160018116908115610684575060011461064b57505050565b61065e9192939450600052602060002090565b916000925b8184106106705750500190565b805484840152602090930192600101610663565b92949550505060ff1916825215156020020190565b9061033591610615565b634e487b7160e01b600052604160045260246000fd5b90601f01601f1916810190811067ffffffffffffffff8211176106db57604052565b6106a3565b9061031f6106fa926106f160405190565b93848092610699565b03836106b9565b9061071c6107106103bd845490565b92600052602060002090565b9060005b81811061072d5750505090565b90919261076261075b60019261074a87546001600160a01b031690565b6001600160a01b0316815260200190565b9460010190565b929101610720565b9061033591610701565b9061031f6106fa9261078560405190565b9384809261076a565b9061031f61079b60405190565b92836106b9565b61033560a061078e565b9061031f61081a60046107bd6107a2565b946107ce6107ca826105cb565b8752565b6107e46107dd600183016105cb565b6020880152565b6107fa6107f3600283016105cb565b6040880152565b61081461080b600383015460ff1690565b15156060880152565b01610774565b6080840152565b61082c9060046105b4565b610835816105cb565b9161084a60018301546001600160a01b031690565b9161085f60028201546001600160a01b031690565b9161087460038301546001600160a01b031690565b91610881600482016106e0565b9161088e600583016106e0565b9161089b600782016107ac565b91610335600d6108ad600c85016105cb565b93015460ff1690565b60005b8381106108c95750506000910152565b81810151838201526020016108b9565b6108fa6109036020936103aa936108ee815190565b80835293849260200190565b958691016108b6565b601f01601f191690565b9061091c6103c76103bd845190565b9060005b81811061092d5750505090565b90919261094c6103f560019286516001600160a01b0316815260200190565b929101610920565b805182526103359160a081019160809061097360208201516020850152565b61098260408201516040850152565b606081810151151590840152015190608081840391015261090d565b634e487b7160e01b600052602160045260246000fd5b600511156109be57565b61099e565b9061031f826109b4565b610335906109c3565b610338906109cd565b9495610a55610a639261010098610a48610a799861031f9d9f9e9c97610a7199610a28610a389260208f610a1961012082019a6000830152565b01906001600160a01b03169052565b6001600160a01b031660408d0152565b6001600160a01b031660608b0152565b88820360808a01526108d9565b9086820360a08801526108d9565b9084820360c0860152610954565b9660e0830152565b01906109d6565b346102e25761036a610a9b610a963660046105a0565b610821565b95610aae99979995919594929460405190565b998a998a6109df565b346102e25761036a610481610acd3660046105a0565b611c9d565b610335633b9aca00610447565b610335610ad2565b346102e257610af736600461043c565b61036a610481610adf565b346102e25761036a610b1e610b183660046104a4565b90611cbc565b604051918291826001600160a01b03909116815260200190565b91906040838203126102e257610335906020610b548286610497565b9401610389565b346102e257610b74610b6e366004610b38565b90611d07565b604051005b346102e25761036a610357610b8f3660046104a4565b90611d27565b346102e257610b74610ba8366004610b38565b90611d77565b61036e610335610335926001600160a01b031690565b61033590610bae565b61033590610bc4565b61033890610bcd565b60208101929161031f9190610bd6565b346102e257610bff36600461043c565b61036a7f00000000000000000000000000000000000000000000000000000000000000005b60405191829182610bdf565b906105b690610bcd565b610c45906008610c30565b90610c4f826105cb565b91610c5c600182016105cb565b91610c7160028301546001600160a01b031690565b91610c7e600382016106e0565b91610c8b600483016106e0565b91610ca060058201546001600160a01b031690565b9161033560076108ad600685016105cb565b9360e095610d0886610d1693610cfb610d2f989b9e9d9b610ceb61031f9e99610ce4610d289a60006101008901980152565b60208d0152565b6001600160a01b031660408b0152565b88820360608a01526108d9565b9086820360808801526108d9565b6001600160a01b0390991660a0850152565b60c0830152565b019015159052565b346102e25761036a610d52610d4d366004610396565b610c3a565b94610d6598969894919493929360405190565b98899889610cb2565b346102e257610d7e36600461043c565b610b74611dda565b346102e257610d9636600461043c565b610b74611df8565b610335916008021c61036e565b906103359154610d9e565b61033560006003610dab565b346102e257610dd236600461043c565b61036a610b1e610db6565b909182601f830112156102e25781359167ffffffffffffffff83116102e25760200192600183028401116102e257565b909182601f830112156102e25781359167ffffffffffffffff83116102e25760200192602083028401116102e257565b610100818303126102e257610e528282610389565b92610e608360208401610497565b92610e6e8160408501610497565b92606081013567ffffffffffffffff81116102e25782610e8f918301610ddd565b929093608083013567ffffffffffffffff81116102e25782610eb2918501610ddd565b929093610ec28260a08301610389565b9260c082013567ffffffffffffffff81116102e25783610ee3918401610e0d565b92909360e082013567ffffffffffffffff81116102e257610f049201610e0d565b9091565b346102e25761036a610b1e610f1e366004610e3d565b9a999099989198979297969396959495612b1e565b346102e257610f4336600461043c565b61036a7f0000000000000000000000000000000000000000000000000000000000000000610b1e565b346102e257610f7c36600461043c565b61036a61035760025460ff1690565b80151561030b565b9050359061031f82610f8b565b91906040838203126102e257610335906020610fbc8286610389565b9401610f93565b346102e257610b74610fd6366004610fa0565b90612d07565b67ffffffffffffffff81116106db57602090601f01601f19160190565b90826000939282370152565b9092919261101a61101582610fdc565b61078e565b93818552818301116102e25761031f916020850190610ff9565b9080601f830112156102e25781602061033593359101611005565b67ffffffffffffffff81116106db5760208091020190565b63ffffffff811661030b565b9050359061031f82611067565b91906080838203126102e2576110d390606061109c608061078e565b946110a78382610389565b86526110b68360208301611073565b60208701526110c88360408301610497565b604087015201610497565b6060830152565b909291926110ea6110158261104f565b9381855260806020860192028301928184116102e257915b83831061110f5750505050565b602060809161111e8486611080565b815201920191611102565b9080601f830112156102e257816020610335933591016110da565b909291926111546110158261104f565b93818552602080860192028301928184116102e257915b8383106111785750505050565b602080916111868486610389565b81520192019161116b565b9080601f830112156102e25781602061033593359101611144565b91909160a0818403126102e2576111c360a061078e565b926111ce8183610497565b84526111dd8160208401610497565b60208501526111ef8160408401610497565b60408501526112018160608401610f93565b6060850152608082013567ffffffffffffffff81116102e2576112249201611191565b6080830152565b906080828203126102e257813567ffffffffffffffff81116102e25781611253918401611034565b92602083013567ffffffffffffffff81116102e25782611274918501611034565b92604081013567ffffffffffffffff81116102e25783611295918301611129565b92606082013567ffffffffffffffff81116102e25761033592016111ac565b346102e25761036a6104816112ca36600461122b565b92919091613a44565b906105b690610447565b6112f6610335926112f160009360076112d3565b6112d3565b610dab565b346102e25761036a610b1e6113113660046104a4565b906112dd565b346102e25761132736600461043c565b61036a7f5246556c0ab216b5b325ad7c539bfbd1a07c768773cdf810fecd3c3375c27407610481565b346102e25761136036600461043c565b61036a7f9af8e52fcefce2809a3764f197273e3febd830b37cc35ab3899dee370cb669c6610481565b346102e25761139936600461043c565b61036a61048160095490565b61033560016002610dab565b346102e2576113c136600461043c565b61036a610c246113a5565b346102e2576113dc36600461043c565b610b74613b41565b909291926113f46110158261104f565b93818552602080860192028301928184116102e257915b8383106114185750505050565b602080916114268486610497565b81520192019161140b565b9080601f830112156102e257816020610335933591016113e4565b6080818303126102e2576114608282610497565b92602082013567ffffffffffffffff81116102e25783611481918401611191565b9260408301359067ffffffffffffffff82116102e25760606104c082610335948701611431565b346102e257610b746114bb36600461144c565b92919091613ef9565b60006112f66103359260066105b4565b346102e25761036a610b1e6114ea3660046105a0565b6114c4565b634e487b7160e01b600052603260045260246000fd5b80548210156115285761151f600191600052602060002090565b91020190600090565b6114ef565b6009548110156102e257611545610335916009611505565b90610dab565b346102e25761036a610b1e6115613660046105a0565b61152d565b346102e25761036a61035761157c366004610b38565b90613f05565b346102e25761159236600461043c565b610b74614011565b6103356000610447565b61033561159a565b346102e2576115bc36600461043c565b61036a6104816115a4565b91906040838203126102e2576103359060206104c08286610389565b6115ee906005610c30565b80548210156102e2576103359161160491611505565b9061056e565b346102e25761036a6104816116203660046115c7565b906115e3565b346102e257610b746116393660046105a0565b61413b565b9061164d6103c76103bd845190565b9060005b81811061165e5750505090565b9091926116746103f56001928651815260200190565b929101611651565b6040808252610335939192611693918401906104c7565b91602081840391015261163e565b346102e2576116b96116b43660046105a0565b614222565b9061036a6116c660405190565b9283928361167c565b80516001600160a01b0316825261031f9190606090819060208181015163ffffffff169085015261170560408201516040860152565b0151910152565b906103aa816080936116cf565b906117286103c76103bd845190565b9060005b8181106117395750505090565b90919261174c6103f5600192865161170c565b92910161172c565b805182526020808201516001600160a01b0316908301529061033590610120806117f36117e16117cf6117bd610140870160408a8101516001600160a01b03169089015260608a8101516001600160a01b03169089015260808a015188820360808a01526108d9565b60a089015187820360a08901526108d9565b60c088015186820360c0880152611719565b60e087015185820360e0870152610954565b94611805610100820151610100860152565b01519101906109d6565b602080825261033592910190611754565b346102e25761036a61183b6118363660046105a0565b6145ef565b6040519182918261180f565b346102e257610b7461185a3660046104a4565b906146fa565b6103356000600a61056e565b346102e25761187c36600461043c565b61036a610481611860565b346102e257610b7461189a366004610b38565b9061471f565b346102e25761036a610b1e6118b63660046105a0565b614729565b80518252906103359060e08061191861190661010085016118e160208901516020880152565b6040888101516001600160a01b031690870152606088015186820360608801526108d9565b608087015185820360808701526108d9565b60a0808701516001600160a01b0316908501529461193b60c082015160c0860152565b01511515910152565b6020808252610335929101906118bb565b346102e25761036a61197061196b366004610396565b61477b565b60405191829182611944565b346102e25761198c36600461043c565b61036a7f189ab7a9244df0848122154315af71fe140f3db0fe014031783b0946b8c9d2e3610481565b7f7965db0b000000000000000000000000000000000000000000000000000000007fffffffff00000000000000000000000000000000000000000000000000000000821614908115611a05575090565b61033591507fffffffff00000000000000000000000000000000000000000000000000000000167f01ffc9a7000000000000000000000000000000000000000000000000000000001490565b90611a606107106103bd845490565b9060005b818110611a715750505090565b909192611a8e61075b600192611a86876105cb565b815260200190565b929101611a64565b9061033591611a51565b9061031f6106fa92611ab160405190565b93848092611a96565b61033590611aa0565b611ada61033591611ad2606090565b506005610c30565b611aba565b15611ae657565b60405162461bcd60e51b815260206004820152602c60248201527f4879706572496e6465785661756c74466163746f72793a206f6666736574206f60448201527f7574206f6620626f756e647300000000000000000000000000000000000000006064820152608490fd5b0390fd5b634e487b7160e01b600052601160045260246000fd5b91908201809211611b7857565b611b55565b91908203918211611b7857565b90611b976110158361104f565b918252565b369037565b9061031f611bb7611bb184611b8a565b9361104f565b601f190160208401611b9c565b90611bcd825190565b811015611528576020809102010190565b909190600990611c02611bf060095490565b94611bfc868410611adf565b82611b6b565b938085611c0e565b9190565b11611c95575b611c1e8286611b7d565b93611c2885611ba1565b958692611c356000610447565b875b811015611c8657611c7f81611c798b611c6b83611c656115458e611c5f8f9a611c379b611b6b565b90611505565b92611bc4565b906001600160a01b03169052565b60010190565b9050611c35565b50929650919091109350915050565b935083611c14565b6001611cb661033592611cae600090565b5060006105b4565b016105cb565b610335916112f1611cd792611ccf600090565b5060076112d3565b546001600160a01b031690565b9061031f91611cfa611cf582611c9d565b614792565b90611d049161479d565b50565b9061031f91611ce4565b61036e6103356103359290565b61033590611d11565b611d3a916112f1611cd792611ccf600090565b611d4761036e6000611d1e565b6001600160a01b03821614159081611d5d575090565b6103359150611d6f6007916008610c30565b015460ff1690565b90611d813361036e565b6001600160a01b03821603611d9957611d049161481c565b6040517f6697b232000000000000000000000000000000000000000000000000000000008152600490fd5b611dcf611cf561159a565b61031f61031f6148be565b61031f611dc4565b611ded611cf561159a565b61031f61031f614907565b61031f611de2565b6103359c9b9a99989796959493929190611e397f9af8e52fcefce2809a3764f197273e3febd830b37cc35ab3899dee370cb669c6614792565b6127db565b15611e4557565b60405162461bcd60e51b815260206004820152602560248201527f4879706572496e6465785661756c74466163746f72793a20696e76616c69642060448201527f61737365740000000000000000000000000000000000000000000000000000006064820152608490fd5b15611eb757565b60405162461bcd60e51b815260206004820152602e60248201527f4879706572496e6465785661756c74466163746f72793a20696e76616c69642060448201527f696e64657820746f6b656e2049440000000000000000000000000000000000006064820152608490fd5b15611f2957565b60405162461bcd60e51b815260206004820152602860248201527f4879706572496e6465785661756c74466163746f72793a20696e76616c69642060448201527f636861696e2049440000000000000000000000000000000000000000000000006064820152608490fd5b15611f9b57565b60405162461bcd60e51b8152602060048201526024808201527f4879706572496e6465785661756c74466163746f72793a20696e76616c69642060448201527f6e616d65000000000000000000000000000000000000000000000000000000006064820152608490fd5b1561200c57565b60405162461bcd60e51b815260206004820152602660248201527f4879706572496e6465785661756c74466163746f72793a20696e76616c69642060448201527f73796d626f6c00000000000000000000000000000000000000000000000000006064820152608490fd5b1561207e57565b60405162461bcd60e51b815260206004820152603260248201527f4879706572496e6465785661756c74466163746f72793a20696e76616c69642060448201527f4c617965725a65726f20656e64706f696e7400000000000000000000000000006064820152608490fd5b156120f057565b60405162461bcd60e51b815260206004820152602a60248201527f4879706572496e6465785661756c74466163746f72793a206e6f20746f6b656e60448201527f732070726f7669646564000000000000000000000000000000000000000000006064820152608490fd5b1561216257565b60405162461bcd60e51b815260206004820152602760248201527f4879706572496e6465785661756c74466163746f72793a206c656e677468206d60448201527f69736d61746368000000000000000000000000000000000000000000000000006064820152608490fd5b156121d457565b60405162461bcd60e51b815260206004820152602c60248201527f4879706572496e6465785661756c74466163746f72793a207661756c7420616c60448201527f72656164792065786973747300000000000000000000000000000000000000006064820152608490fd5b9190811015611528576020020190565b3561033581610491565b1561226057565b60405162461bcd60e51b815260206004820152603460248201527f4879706572496e6465785661756c74466163746f72793a20616c6c6f6361746960448201527f6f6e73206d7573742073756d20746f20313030250000000000000000000000006064820152608490fd5b9190610903816122e2816103aa9560209181520190565b8095610ff9565b50610335906020810190610389565b818352602090920191906000825b828210612314575050505090565b9091929361233261232b60019261074a88866122e9565b9560200190565b93920190612306565b9037565b8183529091602001917f07ffffffffffffffffffffffffffffffffffffffffffffffffffffffffffffff81116102e257829160206103aa920293849161233b565b9a98946124119897916123e491612404966103359f9d99958f906123f2986123c76123d7926123c061010086019860008701906001600160a01b03169052565b6020850152565b6001600160a01b03166040830152565b60608185039101526122cb565b918b830360808d01526122cb565b6001600160a01b0390941660a0890152565b86830360c08801526122f8565b9260e081850391015261233f565b6040513d6000823e3d90fd5b906001600160a01b03905b9181191691161790565b9061245061033561245792610bcd565b825461242b565b9055565b61033561010061078e565b610335913691611005565b634e487b7160e01b600052600060045260246000fd5b9060001990612436565b906124a161033561245792610447565b8254612487565b9160001960089290920291821b911b612436565b921b90565b91906124d261033561245793610447565b9083546124a8565b61031f916000916124c1565b8181106124f1575050565b806124ff60006001936124da565b016124e6565b9190601f811161251457505050565b61252661031f93600052602060002090565b906020601f840181900483019310612548575b6020601f9091010401906124e6565b9091508190612539565b9061255b815190565b9067ffffffffffffffff82116106db5761257f8261257985546105eb565b85612505565b602090601f83116001146125ba576124579291600091836125af575b5050600019600883021c1916906002021790565b01519050388061259b565b601f198316916125cf85600052602060002090565b9260005b81811061260d575091600293918560019694106125f4575b50505002019055565b01516000196008601f8516021c191690553880806125eb565b919360206001819287870151815501950192016125d3565b9061031f91612552565b9060ff90612436565b9061264861033561245792151590565b825461262f565b600761271160e061031f9461266e612668600083015190565b86612491565b61268561267c602083015190565b60018701612491565b6126a561269c60408301516001600160a01b031690565b60028701612440565b6126bc6126b3606083015190565b60038701612625565b6126d36126ca608083015190565b60048701612625565b6126f36126ea60a08301516001600160a01b031690565b60058701612440565b61270a61270160c083015190565b60068701612491565b0151151590565b9101612638565b9061031f9161264f565b919060086124369102916124bc6001600160a01b03841b90565b919061274d61033561245793610bcd565b908354612722565b90815491680100000000000000008310156106db578261277d91600161031f95018155611505565b9061273c565b96959390946127bd886060956127cb956127b061031f9a6000608086019501906001600160a01b03169052565b8b830360208d01526122cb565b9188830360408a01526122cb565b9401906001600160a01b03169052565b998c9d999c9b9a9891939695949798506127f56000611d1e565b9c6001600160a01b038e166001600160a01b038616141561281590611e3e565b61281f6000610447565b841161282a90611eb0565b6128346000610447565b881161283f90611f22565b8561284a6000610447565b1061285490611f94565b8d8a6128606000610447565b1061286a90612005565b6001600160a01b03166001600160a01b038416141561288890612077565b819c8d6128956000610447565b1061289f906120e9565b9d8e9d8e146128ad9061215b565b886128b98660076112d3565b906128c3916112d3565b546128db916001600160a01b039081169116146121cd565b6128e56000610447565b9c8d90815b1015612927578f61291a918f8f61290d91612913946129089261223f565b61224f565b90611b6b565b9d60010190565b9c8d8f611c0a6128ea9190565b612952919396999c9295989b9f94979a9d506129859e5061294c611c0a612710610447565b14612259565b61298a61297e7f000000000000000000000000000000000000000000000000000000000000000061490f565b9d8e610bcd565b610bcd565b91823b156102e257876129e58d958f9460009889958f9b8f9c988e996129af60405190565b7fdc7847870000000000000000000000000000000000000000000000000000000081529e8f9d8e9c8d9b33919060048e01612380565b03925af18015612b1957612af3575b508785612a028360076112d3565b90612a0c916112d3565b90612a1691612440565b612a1e61245b565b612a26828252565b612a31866020830152565b6001600160a01b0383166040820152612a4a8488612466565b6060820152612a598886612466565b60808201523360a0820152612a6f4260c0830152565b600160e0820152612a81896008610c30565b90612a8b91612718565b612a96886009612755565b612a9f90610447565b93612aa990610447565b94612ab388610bcd565b96612abd60405190565b9485943393612acc9587612783565b037fb57bae1a03d89dd3d5c64fffac145c63965f5090dea355195e3cdc91c97da2b791a490565b612b0c9060005b612b0481836106b9565b81019061043c565b386129f4565b503d612afa565b61241f565b6103359b9a999897969594939291906000611e00565b9061031f91612b44611cf561159a565b612c2d565b15612b5057565b60405162461bcd60e51b815260206004820152602d60248201527f4879706572496e6465785661756c74466163746f72793a20696e76616c69642060448201527f7661756c742061646472657373000000000000000000000000000000000000006064820152608490fd5b15612bc257565b60405162461bcd60e51b815260206004820152602760248201527f4879706572496e6465785661756c74466163746f72793a207661756c74206e6f60448201527f7420666f756e64000000000000000000000000000000000000000000000000006064820152608490fd5b7fb5843b22d86eb6fdbd03a2f699ae8292e05e4597078fdd320c6f073ae7217f5d612d02612cf8612cf2612cec6000611cb687612c6983611d1e565b612c876001600160a01b0382166001600160a01b0384161415612b49565b612cd1600891612cca612cbd612cb06005612ca28888610c30565b01546001600160a01b031690565b926001600160a01b031690565b916001600160a01b031690565b1415612bbb565b612ce78b6007612ce18585610c30565b01612638565b610c30565b94610bcd565b93610447565b9361035b60405190565b0390a3565b9061031f91612b34565b6103359493929190612d427f9af8e52fcefce2809a3764f197273e3febd830b37cc35ab3899dee370cb669c6614792565b9061033594939291612d52614923565b61350b565b15612d5e57565b60405162461bcd60e51b815260206004820152600d60248201527f4e616d65207265717569726564000000000000000000000000000000000000006044820152606490fd5b15612daa57565b60405162461bcd60e51b815260206004820152600f60248201527f53796d626f6c20726571756972656400000000000000000000000000000000006044820152606490fd5b15612df657565b60405162461bcd60e51b815260206004820152601760248201527f496e76616c696420636f6d706f6e656e7420636f756e740000000000000000006044820152606490fd5b15612e4257565b60405162461bcd60e51b815260206004820152601760248201527f4d616e6167656d656e742066656520746f6f20686967680000000000000000006044820152606490fd5b15612e8e57565b60405162461bcd60e51b815260206004820152601860248201527f506572666f726d616e63652066656520746f6f206869676800000000000000006044820152606490fd5b610335608061078e565b612ee5612ed3565b90600082526020808080850160005b81520160008152016000905250565b610335612edd565b60005b828110612f1a57505050565b602090612f25612f03565b8184015201612f0e565b9061031f612f3f611bb184611b8a565b601f190160208401612f0b565b9050519061031f82610491565b906020828203126102e25761033591612f4c565b90612f7c6103c76103bd845190565b9060005b818110612f8d5750505090565b909192612fa06103f5600192865161170c565b929101612f80565b91612fd590612fc76103359593606086019086820360008801526108d9565b9084820360208601526108d9565b916040818403910152612f6d565b90929192612ff361101582610fdc565b93818552818301116102e25761031f9160208501906108b6565b9080601f830112156102e257815161033592602001612fe3565b9050519061031f8261037a565b9050519061031f82610f8b565b9190610100838203126102e257825167ffffffffffffffff81116102e2578161306b91850161300d565b92602081015167ffffffffffffffff81116102e2578261308c91830161300d565b9261309a8360408401613027565b926130a88160608501613027565b926130b68260808301612f4c565b926103356130c78460a08501612f4c565b9360e06130d78260c08701613034565b9401613034565b156130e557565b60405162461bcd60e51b815260206004820152601b60248201527f496e64657820746f6b656e206372656174696f6e206661696c656400000000006044820152606490fd5b6103aa6131429260209261313c815190565b94859290565b938491016108b6565b9060066103359261317b817f5661756c742000000000000000000000000000000000000000000000000000009052565b019061312a565b9061031f61318f60405190565b809361319f60208301918261314b565b908103825203836106b9565b9060016103359261317b817f76000000000000000000000000000000000000000000000000000000000000009052565b9061031f6131e860405190565b809361319f6020830191826131ab565b9061323a61031f9597969461322c6132429360809661321f60a08801926000890190610bd6565b86820360208801526108d9565b9084820360408601526108d9565b966060830152565b0152565b906124a16103356124579290565b91909182821061326357505050565b61031f92916132789091600052602060002090565b91820191016124e6565b906801000000000000000081116106db578161329f61031f935490565b90828155613254565b81519167ffffffffffffffff83116106db576132d36107106001926132cd8686613282565b60200190565b92049160005b8381106132e65750505050565b60019060206132ff61033586516001600160a01b031690565b94019381840155016132d9565b9061031f916132a8565b6004613372608061031f9461332f612668600083015190565b61333d61267c602083015190565b61335461334b604083015190565b60028701612491565b61336d6133646060830151151590565b60038701612638565b015190565b910161330c565b9061031f91613316565b90612648610335612457926109cd565b80548210156115285761151f600391600052602060002090565b9077ffffffff00000000000000000000000000000000000000009060a01b612436565b6133e36103356103359263ffffffff1690565b63ffffffff1690565b906133fc610335612457926133d0565b82546133ad565b61031f9160029061344e906060906134408561342f61342984516001600160a01b031690565b82612440565b602083015163ffffffff16906133ec565b61336d61267c604083015190565b9101612491565b91906134645761031f91613403565b612471565b90815491680100000000000000008310156106db578261349191600161031f95018155613393565b90613455565b91906124d26103356124579390565b90815491680100000000000000008310156106db57826134ce91600161031f95018155611505565b90613497565b6001600160a01b0390911681526103359290916134fd90606084019084820360208601526108d9565b9160408184039101526108d9565b5091939092613518835190565b9161353160009361352b611c0a86610447565b11612d57565b61354e61353c865190565b613548611c0a86610447565b11612da3565b855161355c611c0a85610447565b1180613a21575b61356c90612def565b8282019461359261357b875190565b61358b611c0a610335600a6105cb565b1115612e3b565b60208301956135b96135a2885190565b6135b2611c0a610335600b6105cb565b1115612e87565b6135c288614a9e565b6135d26135cd895190565b612f2f565b956135dc86610447565b6135e76103358b5190565b8110156136a65780876136798c613672613617846136086136a19885611bc4565b5101516001600160a01b031690565b9161366561364b60406136458961363f60206136338389611bc4565b51015163ffffffff1690565b95611bc4565b51015190565b93613654612ed3565b968701906001600160a01b03169052565b63ffffffff166020850152565b6040830152565b6136856110d38a610447565b61368f828b611bc4565b5261369a818a611bc4565b5060010190565b6135dc565b509091929395949661371b9760206136dd7f0000000000000000000000000000000000000000000000000000000000000000610bcd565b976136e760405190565b9a8b918291907f7372d522000000000000000000000000000000000000000000000000000000008352898860048501612fa8565b0381848b5af1988915612b195781996139e8575b50908161377a93928a809961374360405190565b968792839182917fbdf247c20000000000000000000000000000000000000000000000000000000083526004830190815260200190565b03915afa938415612b195781946139be575b506137ad61379c61036e83611d1e565b6001600160a01b03861614156130de565b6137c76137c26003546001600160a01b031690565b61490f565b946137d461298587610bcd565b906137de86610bcd565b916137e886613182565b6138016137fc6137f78c6131db565b945190565b965190565b823b156102e257859461384b869261381860405190565b998a97889687957f1ca29139000000000000000000000000000000000000000000000000000000008752600487016131f8565b03925af1918215612b19576138e7926139a2575b506138c86138716103358c60046105b4565b9961387e8c848d01613246565b61388b8660018d01612440565b6138988760028d01612440565b6138a53360038d01612440565b6138b28560048d01612625565b6138bf8860058d01612625565b60078b01613379565b6138d542600c8b01612491565b6138e281600d8b01613383565b610447565b6138f26103358b5190565b81101561391a5761391590611c798b61390e8360068d01611c65565b5190613469565b6138e7565b509194975092957f3cd706c7c2c1ac2e56a4cef94dc09b4029d803bac127eb1fac115d15281342cc929550613974906139608161395b610335336005610c30565b6134a6565b6103358661396f8360066105b4565b612440565b9261399d61398a61398433610bcd565b96610bcd565b9661399460405190565b938493846134d4565b0390a4565b6139b890823d8411612b1257612b0481836106b9565b3861385f565b6139db9194503d8086833e6139d381836106b9565b810190613041565b505050509592505061378c565b61377a9392919950613a119060203d602011613a1a575b613a0981836106b9565b810190612f59565b9890919261372f565b503d6139ff565b5061356c613a2d875190565b613a3b611c0a610335610454565b11159050613563565b610335939291906000612d11565b613a5d611cf561159a565b600061031f613a6b82610447565b6009613a78610335825490565b821015613b3b57613a9c6007611d6f6008613a966115458787611505565b90610c30565b613aaf575b50600101613a6b565b613a6b565b61298561298561154584613ac294611505565b90813b156102e257613aaa9184613ad860405190565b7f4a4e3bd5000000000000000000000000000000000000000000000000000000008152918290600490829084905af19081613b1f575b50613b1a575b90613aa1565b613b14565b613b3590863d8811612b1257612b0481836106b9565b38613b0e565b50509050565b61031f613a52565b90613b5d939291613b58614c27565b613b65565b61031f614c80565b9061031f939291613b74614923565b613ce8565b15613b8057565b60405162461bcd60e51b815260206004820152601560248201527f4f6e6c792063726561746f722063616e2066756e6400000000000000000000006044820152606490fd5b15613bcc57565b60405162461bcd60e51b815260206004820152601a60248201527f496e76616c69642073746174757320666f722066756e64696e670000000000006044820152606490fd5b15613c1857565b60405162461bcd60e51b815260206004820152601560248201527f4172726179206c656e677468206d69736d6174636800000000000000000000006044820152606490fd5b15613c6457565b60405162461bcd60e51b815260206004820152601560248201527f42656c6f77206d696e696d756d206465706f73697400000000000000000000006044820152606490fd5b908152606060208201819052610335939192613cc7918401906104c7565b91604081840391015261163e565b90815260408101929161031f9160200152565b9192613cf86103358460046105b4565b91613d1f613d1060038501546001600160a01b031690565b613d1933612cbd565b14613b79565b600d8301805460ff1690613d47600092613d41613d3b856109c3565b916109c3565b14613bc5565b613d66613d52845190565b613d60611c0a6103358b5190565b14613c11565b613d708784614c92565b96613d87613d7f610335610ad2565b891015613c5d565b613db07f0000000000000000000000000000000000000000000000000000000000000000610bcd565b93843b156102e257613df9918491613dc760405190565b93849283927faf1c3c7e0000000000000000000000000000000000000000000000000000000084528c60048501613ca9565b038183885af18015612b1957613edd575b50823b156102e25781613e1c60405190565b9384907fa27d0979000000000000000000000000000000000000000000000000000000008252818381613e538a8d60048401613cd5565b03925af1918215612b19577f340f5c2328b2739e21ce6d23d7087fb4cda22af71aa232702faf0a71a33b591695612ca26001613ea094600294613eaa98613ea498613ec0575b5050613383565b9490565b93610bcd565b93612d02613eb760405190565b92839283613cd5565b81613ed692903d10612b1257612b0481836106b9565b3880613e99565b613ef390833d8511612b1257612b0481836106b9565b38613e0a565b9061031f939291613b49565b610335916000613f21613f2793613f1a600090565b50826105b4565b01610c30565b5460ff1690565b613f39611cf561159a565b600061031f613f4782610447565b6009613f54610335825490565b821015613b3b57613f726007611d6f6008613a966115458787611505565b613f85575b50600101613f47565b613f47565b61298561298561154584613f9894611505565b90813b156102e257613f809184613fae60405190565b7f51858e27000000000000000000000000000000000000000000000000000000008152918290600490829084905af19081613ff5575b50613ff0575b90613f77565b613fea565b61400b90863d8811612b1257612b0481836106b9565b38613fe4565b61031f613f2e565b61031f906140467f5246556c0ab216b5b325ad7c539bfbd1a07c768773cdf810fecd3c3375c27407614792565b6140b2565b1561405257565b60405162461bcd60e51b815260206004820152601c60248201527f50726f64756374206d7573742062652066756e646564206669727374000000006044820152606490fd5b91602061031f929493610a79604082019660008301906109d6565b7f0bdcbc552361a67fd629655aaf869b42de32998a2cb9c0e8df95297ca975c4126002614120600d6140e86103358660046105b4565b019361410b6140f8865460ff1690565b614105613d3b60016109c3565b1461404b565b6103358361411a875460ff1690565b96613383565b9261413661412d60405190565b92839283614097565b0390a2565b61031f90614019565b6000198114611b785760010190565b9061031f614210600761416461245b565b946141716107ca826105cb565b6141806107dd600183016105cb565b6141a761419760028301546001600160a01b031690565b6001600160a01b03166040880152565b6141bd6141b6600383016106e0565b6060880152565b6141d36141cc600483016106e0565b6080880152565b6141fa6141ea60058301546001600160a01b031690565b6001600160a01b031660a0880152565b611d6f614209600683016105cb565b60c0880152565b151560e0840152565b61033590614153565b9060009061422f82610447565b90815b600961423f610335825490565b8210156142b65760088261426387611cb661425d6115458588611505565b85610c30565b88149283614296575b505050614281575b600101614232565b614232565b9161428e61427c91614144565b929050614274565b6142ae935091613a96611545611d6f93600795611505565b38828161426c565b50509291906142c481611ba1565b916142cf8392611ba1565b9485946142db83610447565b93845b60096142eb610335825490565b8210156143875789908861430f61430a6008613a966115458887611505565b614219565b9161431a8984015190565b87148061437a575b61433a575b505050506143359060010190565b6142de565b926143668a611c656020829661336d8a9f97611c6b61436999611c656115456143359f61436e9f611505565b52565b614144565b95905088388881614327565b5060e08301511515614322565b505096505092505050565b61033561014061078e565b6143a56107a2565b906000825260208080808086016000815201600081520160008152016060905250565b61033561439d565b6143d8614392565b906000825260208080808080808080808b01600081520160008152016000815201606081520160608152016060815201612ef46143c8565b6103356143d0565b6103359060a01c6133e3565b6103359054614418565b9061031f614489600261443f612ed3565b9461446161445482546001600160a01b031690565b6001600160a01b03168752565b61447a61446d82614424565b63ffffffff166020880152565b611cb66107f3600183016105cb565b6060840152565b6103359061442e565b906144a2825490565b6144ab81611b8a565b926144bf6020850191600052602060002090565b6000915b8383106144d05750505050565b600360206001926144e085614490565b8152019201920191906144c3565b90610338906109c3565b9061031f6145dc600d614509614392565b946145166107ca826105cb565b61453d61452d60018301546001600160a01b031690565b6001600160a01b03166020880152565b61455461419760028301546001600160a01b031690565b61457b61456b60038301546001600160a01b031690565b6001600160a01b03166060880152565b61458a6141cc600483016106e0565b6145a0614599600583016106e0565b60a0880152565b6145af61420960068301614499565b6145c56145be600783016107ac565b60e0880152565b611d6f6145d4600c83016105cb565b610100880152565b61012084016144ee565b610335906144f8565b614606610335916145fe614410565b5060046105b4565b6145e6565b9061031f9161461b611cf561159a565b6146b8565b1561462757565b60405162461bcd60e51b815260206004820152601d60248201527f4d616e6167656d656e7420666565206c696d697420746f6f20686967680000006044820152606490fd5b1561467357565b60405162461bcd60e51b815260206004820152601e60248201527f506572666f726d616e636520666565206c696d697420746f6f206869676800006044820152606490fd5b906146f361031f926146d66146ce6103e8610447565b821115614620565b6146ec6146e4611388610447565b84111561466c565b600a612491565b600b612491565b9061031f9161460b565b9061031f91614715611cf582611c9d565b90611d049161481c565b9061031f91614704565b611cd761033591614738600090565b5060066105b4565b61474861245b565b9060008252602080808080808080890160008152016000815201606081520160608152016000612ef4565b610335614740565b61430a6103359161478a614773565b506008610c30565b61031f903390614cfc565b6147ae6147aa8383613f05565b1590565b15614815576147cd60016147c8846000613f2186826105b4565b612638565b6147e16147db613ea4339390565b91610bcd565b917f2f8788117e7eff1d82e926ec794901d17c78024a50270940304540a733656f0d61480c60405190565b600090a4600190565b5050600090565b6148268282613f05565b156148155761483f60006147c88482613f2186826105b4565b61484d6147db613ea4339390565b917ff6391f5c32d9c69d2a47ea670b442974b53935d1edc7fd64eb21e047a839171b61480c60405190565b614880614d4d565b61031f61488f60006002612638565b7f5db9ee0a495bf2e6ff9c91a7834c1ba4fdd244a5e8aa4e537bd38aeae4b073aa6148b933610b1e565b0390a1565b61031f614878565b6148ce614923565b61031f6148dd60016002612638565b7f62e78cea01bee320cd4e420270b5ea74000d11b0c9f74754ebdbfc544b05a2586148b933610b1e565b61031f6148c6565b6103359061491d6000610447565b90614d8d565b60025460ff1661492f57565b6040517fd93c0665000000000000000000000000000000000000000000000000000000008152600490fd5b1561496157565b60405162461bcd60e51b815260206004820152601560248201527f496e76616c696420746f6b656e206164647265737300000000000000000000006044820152606490fd5b156149ad57565b60405162461bcd60e51b815260206004820152601660248201527f526174696f206d75737420626520706f736974697665000000000000000000006044820152606490fd5b906020828203126102e25761033591613034565b15614a0d57565b60405162461bcd60e51b815260206004820152601460248201527f546f6b656e206e6f7420617574686f72697a65640000000000000000000000006044820152606490fd5b15614a5957565b60405162461bcd60e51b815260206004820152601860248201527f546f74616c20726174696f206d757374206265203130302500000000000000006044820152606490fd5b90600091614aab83610447565b90815b614ab9610335835190565b831015614c0057614b9390614aeb614ad5876136088787611bc4565b614ae4612cbd61036e8a611d1e565b141561495a565b614b0f614afd60406136458787611bc4565b614b09611c0a89610447565b116149a6565b6020614b3a7f0000000000000000000000000000000000000000000000000000000000000000610bcd565b614b48886136088888611bc4565b90614b5260405190565b948592839182917f9bc7c586000000000000000000000000000000000000000000000000000000008352600483016001600160a01b03909116815260200190565b03915afa908115612b1957614bb6614bc592614bcc948991614bd2575b50614a06565b61290d60406136458787611bc4565b9260010190565b91614aae565b614bf3915060203d8111614bf9575b614beb81836106b9565b8101906149f2565b38614bb0565b503d614be1565b91505061031f919250614c17611c0a612710610447565b14614a52565b6103356002610447565b614c3160016105cb565b614c39614c1d565b908114614c4b5761031f906001612491565b6040517f3ee5aeb5000000000000000000000000000000000000000000000000000000008152600490fd5b6103356001610447565b61031f614c8b614c76565b6001612491565b5090600091614ca16000610447565b925b614cae610335835190565b841015614cda57614ccd614cd49161290d614cc98786611bc4565b5190565b9360010190565b92614ca3565b925050565b6001600160a01b03909116815260408101929161031f9160200152565b90614d0a6147aa8284613f05565b614d12575050565b611b51614d1e60405190565b9283927fe2517d3f00000000000000000000000000000000000000000000000000000000845260048401614cdf565b614d5c6147aa60025460ff1690565b614d6257565b6040517f8dfc202b000000000000000000000000000000000000000000000000000000008152600490fd5b614d9630610bcd565b82813110614e2a57506037916e5af43d82803e903d91602b57fd5bf382763d602d80600a3d3981f3363d3d373d3d3d363d7300000060099460601b60e81c1760005260781b17602052f090614dee61036e6000611d1e565b6001600160a01b03831614614dff57565b6040517fb06ebf3d000000000000000000000000000000000000000000000000000000008152600490fd5b905031611b51614e3960405190565b9283927fcf47918100000000000000000000000000000000000000000000000000000000845260048401613cd556fea2646970667358221220e5eff9b91e9e045713a656be56720dc5c01200ef41205a5ff654ae99ac26b99064736f6c6343000816003360c06040523462000043576200001f62000018620001c5565b9162000274565b604051612c17620008d08239608051816113da015260a0518161135b0152612c1790f35b600080fd5b634e487b7160e01b600052604160045260246000fd5b90601f01601f191681019081106001600160401b038211176200008057604052565b62000048565b906200009d6200009560405190565b92836200005e565b565b6001600160a01b031690565b90565b6001600160a01b0381165b036200004357565b905051906200009d82620000ae565b6001600160401b0381116200008057602090601f01601f19160190565b60005b838110620001015750506000910152565b8181015183820152602001620000f0565b909291926200012b6200012582620000d0565b62000086565b938185528183011162000043576200009d916020850190620000ed565b9080601f8301121562000043578151620000ab9260200162000112565b9160608383031262000043576200017d8284620000c1565b60208401519093906001600160401b038111620000435783620001a291830162000148565b60408201519093906001600160401b0381116200004357620000ab920162000148565b620001e8620034e780380380620001dc8162000086565b92833981019062000165565b909192565b90600019905b9181191691161790565b620000ab620000ab620000ab9290565b9062000221620000ab6200022992620001fd565b8254620001ed565b9055565b620000ab906200009f906001600160a01b031682565b620000ab906200022d565b620000ab9062000243565b6200009f620000ab620000ab9290565b620000ab9062000259565b90620002a992620002869183620002df565b6200029460c860086200020d565b620002a36107d060096200020d565b6200024e565b620002ca620002bd6200009f600062000269565b916001600160a01b031690565b03620002d257565b6200009d333333620005c4565b906200009d9291620002f8565b620000ab6001620001fd565b906200030592916200031b565b6200009d62000313620002ec565b60066200020d565b6200009d92839283928392919062000344565b6200033e620000ab620000ab9290565b60ff1690565b9162000350916200037e565b6200035b81620006ea565b90156200036b575b60a052608052565b506200037860126200032e565b62000363565b906200009d9162000572565b634e487b7160e01b600052602260045260246000fd5b9060016002830492168015620003c3575b6020831014620003bd57565b6200038a565b91607f1691620003b1565b9160001960089290920291821b911b620001f3565b9190620003f8620000ab6200022993620001fd565b908354620003ce565b6200009d91600091620003e3565b8181106200041b575050565b806200042b600060019362000401565b016200040f565b9190601f81116200044257505050565b620004566200009d93600052602060002090565b906020601f8401819004830193106200047a575b6020601f9091010401906200040f565b90915081906200046a565b906200048f815190565b906001600160401b0382116200008057620004b782620004b08554620003a0565b8562000432565b602090601f8311600114620004f65762000229929160009183620004ea575b5050600019600883021c1916906002021790565b015190503880620004d6565b601f198316916200050c85600052602060002090565b9260005b8181106200054d5750916002939185600196941062000533575b50505002019055565b01516000196008601f8516021c191690553880806200052a565b9193602060018192878701518155019501920162000510565b906200009d9162000485565b90620005846200009d92600362000566565b600462000566565b620000ab6000620001fd565b906001600160a01b0390620001f3565b90620005bc620000ab62000229926200024e565b825462000598565b906200009d92620006106200063892620005e885620005e26200058c565b620007f4565b507f241ecf16d79d0f8dbfb92cbc07fe17840425976cf0667f022fe9877caa831b08620007f4565b507fbf233dd2aafeb4d50879c4aa5c81e96d92f6e6945c906a58f9f2d1c1631b4b26620007f4565b506200064642600a6200020d565b6200066b620006566000620001fd565b6200066381600b6200020d565b600c6200020d565b600d620005a8565b90620006836200012583620000d0565b918252565b3d15620006a5576200069a3d62000673565b903d6000602084013e565b606090565b80620000b9565b905051906200009d82620006aa565b906020828203126200004357620000ab91620006b1565b620000ab620000ab620000ab9260ff1690565b6000620007028192620006fb600090565b506200024e565b60405163313ce56760e01b60208201526004815290620007246024836200005e565b602082519201905afa6200073762000688565b908062000794575b62000755575b50600090620000ab60006200032e565b8060206200076562000771935190565b818301019101620006c0565b6200077d60ff620006d7565b811162000745576200078f906200032e565b600191565b508051620007ab620007a76020620001fd565b9190565b10156200073f565b905b600052602052604060002090565b90620007b5906200024e565b9060ff90620001f3565b90620007ec620000ab6200022992151590565b8254620007cf565b62000808620008048383620008a7565b1590565b1562000889576200083560016200082f84600062000828866005620007b3565b01620007c3565b620007d9565b620008546200084d62000846339390565b936200024e565b916200024e565b917f2f8788117e7eff1d82e926ec794901d17c78024a50270940304540a733656f0d6200088060405190565b600090a4600190565b5050600090565b620000ab906200033e565b620000ab905462000890565b620000ab91600062000828620008c993620008c0600090565b506005620007b3565b6200089b56fe6080604052600436101561001257600080fd5b60003560e01c806301e1d1141461037357806301ffc9a71461036e57806306fdde031461036957806307a2d13a14610314578063095ea7b3146103645780630a28a4771461035f57806318160ddd1461035a57806318bf4cf1146103555780631b035932146103505780631ca291391461034b5780631e8410da1461034657806320df43591461034157806323b872dd1461033c578063248a9ca3146103375780632f2ff15d14610332578063313ce5671461032d57806336568abe1461032857806338d52e0f146103235780633f4ba83a1461031e578063402d267d146102a65780634641257d146103195780634cdad50614610314578063568efc071461030f5780635c975abb1461030a5780636e553f651461030557806370897b231461030057806370a08231146102fb57806377d60397146102f65780638456cb59146102f157806387788782146102ec57806391d14854146102e757806394bf804d146102e257806395ccea67146102dd57806395d89b41146102d85780639908840c146102d3578063a217fddf146102ce578063a378a324146102c9578063a6f7f5d6146102c4578063a9059cbb146102bf578063b3d7f6b9146102ba578063b460af94146102b5578063ba087652146102b0578063bdca9165146102ab578063c63d75b6146102a6578063c6e6f59214610279578063ce96cb77146102a1578063ceb0f6261461029c578063d547741f14610297578063d73792a914610292578063d905777e1461028d578063dd62ed3e14610288578063e6a69ab814610283578063ec87621c1461027e578063ef8b30f7146102795763fe56e2320361037857610d94565b610c34565b610d5b565b610d40565b610d0f565b610cd8565b610cbd565b610c91565b610c76565b610c4f565b6108f9565b610c19565b610bea565b610bce565b610b8a565b610b6e565b610b53565b610b0e565b610af3565b610ac6565b610a8b565b610a72565b610a56565b610a3a565b610a1f565b6109fb565b6109e3565b6109a2565b61098a565b61096e565b610953565b610938565b6104d8565b610914565b6108e1565b6108c6565b6108ad565b61087e565b610865565b610827565b61080b565b6107a9565b61078e565b610750565b610604565b6105bb565b610575565b61055a565b61053e565b61048a565b6103f1565b61038a565b600080fd5b600091031261037857565b565b346103785761039a36600461037d565b6103b66103a5610dd4565b6040515b9182918290815260200190565b0390f35b6001600160e01b031981165b0361037857565b90503590610388826103ba565b90602082820312610378576103ee916103cd565b90565b34610378576103b661040c6104073660046103da565b610e01565b60405191829182901515815260200190565b60005b8381106104315750506000910152565b8181015183820152602001610421565b61046261046b60209361047593610456815190565b80835293849260200190565b9586910161041e565b601f01601f191690565b0190565b60208082526103ee92910190610441565b346103785761049a36600461037d565b6103b66104a5610f65565b60405191829182610479565b806103c6565b90503590610388826104b1565b90602082820312610378576103ee916104b7565b34610378576103b66103a56104ee3660046104c4565b610f6f565b6001600160a01b031690565b6001600160a01b0381166103c6565b90503590610388826104ff565b9190604083820312610378576103ee906020610537828661050e565b94016104b7565b34610378576103b661040c61055436600461051b565b90610f83565b34610378576103b66103a56105703660046104c4565b610f93565b346103785761058536600461037d565b6103b66103a5610fb8565b6103ee916008021c6001600160a01b031690565b906103ee9154610590565b6103ee6000600d6105a4565b34610378576105cb36600461037d565b6103b66105d66105af565b604051918291826001600160a01b03909116815260200190565b90602082820312610378576103ee9161050e565b346103785761061c6106173660046105f0565b6110c5565b604051005b634e487b7160e01b600052604160045260246000fd5b90601f01601f1916810190811067ffffffffffffffff82111761065957604052565b610621565b9061038861066b60405190565b9283610637565b67ffffffffffffffff811161065957602090601f01601f19160190565b90826000939282370152565b909291926106b06106ab82610672565b61065e565b93818552818301116103785761038891602085019061068f565b9080601f83011215610378578160206103ee9335910161069b565b919060a083820312610378576106fb818461050e565b92602081013567ffffffffffffffff8111610378578261071c9183016106ca565b92604082013567ffffffffffffffff811161037857610740846103ee9285016106ca565b93608061053782606087016104b7565b346103785761061c6107633660046106e5565b9392909261121f565b6103ee916008021c81565b906103ee915461076c565b6103ee6000600c610777565b346103785761079e36600461037d565b6103b66103a5610782565b34610378576107b936600461037d565b6103b67fbf233dd2aafeb4d50879c4aa5c81e96d92f6e6945c906a58f9f2d1c1631b4b266103a5565b9091606082840312610378576103ee6107fb848461050e565b936040610537826020870161050e565b34610378576103b661040c6108213660046107e2565b916112ce565b34610378576103b66103a561083d3660046104c4565b6112f4565b9190604083820312610378576103ee90602061085e82866104b7565b940161050e565b346103785761061c610878366004610842565b90611331565b346103785761088e36600461037d565b6103b6610899611356565b6040519182918260ff909116815260200190565b346103785761061c6108c0366004610842565b90611388565b34610378576108d636600461037d565b6103b66105d66113d5565b34610378576108f136600461037d565b61061c611432565b34610378576103b66103a561090f3660046105f0565b61143a565b346103785761092436600461037d565b61061c611631565b6103ee6000600b610777565b346103785761094836600461037d565b6103b66103a561092c565b346103785761096336600461037d565b6103b661040c61164e565b34610378576103b66103a5610984366004610842565b9061168d565b346103785761061c61099d3660046104c4565b61176e565b34610378576103b66103a56109b83660046105f0565b611781565b9060208282031261037857813567ffffffffffffffff8111610378576103ee92016106ca565b346103785761061c6109f63660046109bd565b611836565b3461037857610a0b36600461037d565b61061c611873565b6103ee60006009610777565b3461037857610a2f36600461037d565b6103b66103a5610a13565b34610378576103b661040c610a50366004610842565b9061187b565b34610378576103b66103a5610a6c366004610842565b906118c2565b346103785761061c610a8536600461051b565b90611a03565b3461037857610a9b36600461037d565b6103b66104a5611a0d565b6103ee6103ee6103ee9290565b6103ee6101f4610aa6565b6103ee610ab3565b3461037857610ad636600461037d565b6103b66103a5610abe565b6103ee6000610aa6565b6103ee610ae1565b3461037857610b0336600461037d565b6103b66103a5610aeb565b3461037857610b1e36600461037d565b6103b67f17a8e30262c1f919c33056d877a3c22b95c2f5e4dac44683c1c2323cd79fbdb06103a5565b6103ee60006008610777565b3461037857610b6336600461037d565b6103b66103a5610b47565b34610378576103b661040c610b8436600461051b565b90611a17565b34610378576103b66103a5610ba03660046104c4565b611a22565b9091606082840312610378576103ee610bbe84846104b7565b93604061085e826020870161050e565b34610378576103b66103a5610be4366004610ba5565b91611a4b565b34610378576103b66103a5610c00366004610ba5565b91611a73565b6103ee610bb8610aa6565b6103ee610c06565b3461037857610c2936600461037d565b6103b66103a5610c11565b34610378576103b66103a5610c4a3660046104c4565b611a80565b34610378576103b66103a5610c653660046105f0565b611a8e565b6103ee6000600a610777565b3461037857610c8636600461037d565b6103b66103a5610c6a565b346103785761061c610ca4366004610842565b90611aca565b6103ee612710610aa6565b6103ee610caa565b3461037857610ccd36600461037d565b6103b66103a5610cb5565b34610378576103b66103a5610cee3660046105f0565b611ad4565b9190604083820312610378576103ee90602061085e828661050e565b34610378576103b66103a5610d25366004610cf3565b90611af5565b6103ee6301e13380610aa6565b6103ee610d2b565b3461037857610d5036600461037d565b6103b66103a5610d38565b3461037857610d6b36600461037d565b6103b67f241ecf16d79d0f8dbfb92cbc07fe17840425976cf0667f022fe9877caa831b086103a5565b346103785761061c610da73660046104c4565b611b69565b634e487b7160e01b600052601160045260246000fd5b91908203918211610dcf57565b610dac565b610ddc611b9f565b610de4611c4a565b80821115610df5576103ee91610dc2565b50506103ee6000610aa6565b7f7965db0b000000000000000000000000000000000000000000000000000000006001600160e01b0319821614908115610e39575090565b6103ee91506001600160e01b0319167f01ffc9a7000000000000000000000000000000000000000000000000000000001490565b634e487b7160e01b600052602260045260246000fd5b9060016002830492168015610ea3575b6020831014610e9e57565b610e6d565b91607f1691610e93565b80546000939291610eca610ec083610e83565b8085529360200190565b9160018116908115610f1c5750600114610ee357505050565b610ef69192939450600052602060002090565b916000925b818410610f085750500190565b805484840152602090930192600101610efb565b92949550505060ff1916825215156020020190565b906103ee91610ead565b90610388610f5592610f4c60405190565b93848092610f31565b0383610637565b6103ee90610f3b565b6103ee6003610f5c565b60006103ee91610f7d600090565b50611cb8565b610f8e919033611cf9565b600190565b60016103ee91610fa1600090565b50611d06565b6103ee9081565b6103ee9054610fa7565b6103ee6002610fae565b61038890610fd6610fd1610ae1565b611d21565b611099565b6104f36103ee6103ee9290565b6103ee90610fdb565b15610ff857565b60405162461bcd60e51b815260206004820152601160248201527f496e76616c696420726563697069656e740000000000000000000000000000006044820152606490fd5b0390fd5b906001600160a01b03905b9181191691161790565b6104f36103ee6103ee926001600160a01b031690565b6103ee90611056565b6103ee9061106c565b9061108e6103ee61109592611075565b8254611041565b9055565b610388906110be6110ad6104f36000610fe8565b6001600160a01b0383161415610ff1565b600d61107e565b61038890610fc2565b156110d557565b60405162461bcd60e51b815260206004820152601360248201527f416c726561647920696e697469616c697a6564000000000000000000000000006044820152606490fd5b1561112157565b60405162461bcd60e51b815260206004820152600d60248201527f496e76616c6964206173736574000000000000000000000000000000000000006044820152606490fd5b1561116d57565b60405162461bcd60e51b815260206004820152601760248201527f4d616e6167656d656e742066656520746f6f20686967680000000000000000006044820152606490fd5b156111b957565b60405162461bcd60e51b815260206004820152601860248201527f506572666f726d616e63652066656520746f6f206869676800000000000000006044820152606490fd5b906000199061104c565b906112186103ee61109592610aa6565b82546111fe565b6112bc92506112c3949391506112899061128261125d6112756112406113d5565b9361127061124e6000610fe8565b9561126a6001600160a01b0388165b916001600160a01b031690565b146110ce565b611075565b926001600160a01b031690565b141561111a565b61129f6112976103ee610ab3565b821115611166565b6112b56112ad6103ee610c06565b8411156111b2565b6008611208565b6009611208565b610388333333611d2c565b610f8e9291906112df833383611de7565b611e65565b905b600052602052604060002090565b600161130d6103ee92611305600090565b5060056112e4565b01610fae565b9061038891611324610fd1826112f4565b9061132e91611f64565b50565b9061038891611313565b61134a9060ff165b9160ff1690565b019060ff8211610dcf57565b6103ee7f0000000000000000000000000000000000000000000000000000000000000000611382611ff7565b9061133b565b90611392336104f3565b6001600160a01b038216036113aa5761132e91612001565b6040517f6697b232000000000000000000000000000000000000000000000000000000008152600490fd5b6103ee7f0000000000000000000000000000000000000000000000000000000000000000611075565b6114277fbf233dd2aafeb4d50879c4aa5c81e96d92f6e6945c906a58f9f2d1c1631b4b26611d21565b61038861038861209f565b6103886113fe565b5061144361164e565b15611452576103ee6000610aa6565b60001990565b6114817f241ecf16d79d0f8dbfb92cbc07fe17840425976cf0667f022fe9877caa831b08611d21565b6103886114ee565b81810292918115918404141715610dcf57565b634e487b7160e01b600052601260045260246000fd5b906114bc565b9190565b9081156114c7570490565b61149c565b9081526060810193926103889290916040916114ea905b6020830152565b0152565b7f4ec2d4038813a7f233af1d6d09519189db3ed5bc5b823bf72f6d3144574721de611517610dd4565b60009061152382610aa6565b916115316103ee600c610fae565b821161160b575b61154181610aa6565b918284116115bc575b611585916115798461157e93611567611561611c4a565b94610aa6565b84116115a1575b61157942600a611208565b610dc2565b600b611208565b61159c61159160405190565b9283924291846114cc565b0390a1565b6115b7846115b06112706113d5565b33906120ea565b61156e565b61160092506115859161157961157e926115f06115e26115dc6009610fae565b89611489565b6115ea610caa565b906114b2565b90819687926115b06112706113d5565b93505050915061154a565b915061162061161a600c610fae565b82610dc2565b9161162c82600c611208565b611538565b610388611458565b6103ee905b60ff1690565b6103ee9054611639565b6103ee6007611644565b9061166b929161166661213c565b611674565b90610388612195565b906103ee92916116826121a7565b506103ee91906121e0565b6103ee91906000611658565b610388906116a8610fd1610ae1565b61170c565b156116b457565b60405162461bcd60e51b815260206004820152600c60248201527f46656520746f6f206869676800000000000000000000000000000000000000006044820152606490fd5b9081526040810192916103889160200152565b7f607b1c943753982194530bf7133a5972ea2626e028005410efa54ab20035caf89061174461173c6103ee610c06565b8211156116ad565b61174e6009610fae565b611759826009611208565b61159c61176560405190565b928392836116f9565b61038890611699565b906112e690611075565b6117986103ee91611790600090565b506000611777565b610fae565b610388906117ca7f17a8e30262c1f919c33056d877a3c22b95c2f5e4dac44683c1c2323cd79fbdb0611d21565b610388906117d66121a7565b6117fd565b929160206117f86103889360408701908782036000890152610441565b940152565b61159c7f967c2a3d21d6001f5ed872635cf9e4a320c90180d6caed65f90623cea6d535e79161182b60405190565b9182914290836117db565b6103889061179d565b6118687fbf233dd2aafeb4d50879c4aa5c81e96d92f6e6945c906a58f9f2d1c1631b4b26611d21565b61038861038861228a565b61038861183f565b6103ee91600061189061189693611305600090565b01611777565b611644565b9061166b92916118a961213c565b906103ee92916118b76121a7565b506103ee9190612292565b6103ee9190600061189b565b61038891906118fc7fbf233dd2aafeb4d50879c4aa5c81e96d92f6e6945c906a58f9f2d1c1631b4b26611d21565b611981565b1561190857565b60405162461bcd60e51b815260206004820152601b60248201527f43616e6e6f74207769746864726177207661756c7420617373657400000000006044820152606490fd5b6001600160a01b039091168152606081019392610388929091604091611972906114e3565b01906001600160a01b03169052565b907f3ab9db27a4cdd8c603a752b62d5fbd93b4b3509fe2596708e9688e42bbac3576916119c36119b26104f36113d5565b6001600160a01b0383161415611901565b6119e2826119d083611075565b600d546001600160a01b0316906120ea565b61159c6119f7600d546001600160a01b031690565b6040519384938461194d565b90610388916118ce565b6103ee6004610f5c565b610f8e919033611e65565b60016103ee91610f7d600090565b9061166b939291611a3f61213c565b506103ee9291906122f6565b6103ee9291906000611a30565b9061166b939291611a6761213c565b506103ee92919061235b565b6103ee9291906000611a58565b60006103ee91610fa1600090565b611a9661164e565b15611aa657506103ee6000610aa6565b6103ee906123c2565b9061038891611ac0610fd1826112f4565b9061132e91612001565b9061038891611aaf565b611adc61164e565b15611aec57506103ee6000610aa6565b6103ee906123de565b6103ee91611b1061179892611b08600090565b506001611777565b611777565b61038890611b24610fd1610ae1565b7ff5ff4786e844406502466108c183ca5ff947880b3ba08b1500eea9c29d12030d90611b5461173c6103ee610ab3565b611b5e6008610fae565b611759826008611208565b61038890611b15565b90505190610388826104b1565b90602082820312610378576103ee91611b72565b6040513d6000823e3d90fd5b611c066020611bb26112706112706113d5565b611bbb30611075565b90611bc560405190565b938492839182917f70a08231000000000000000000000000000000000000000000000000000000008352600483016001600160a01b03909116815260200190565b03915afa908115611c4557600091611c1c575090565b6103ee915060203d602011611c3e575b611c368183610637565b810190611b7f565b503d611c2c565b611b93565b6103ee611c83611c63611c5d600a610fae565b42610dc2565b611c7e611c6e611b9f565b611c786008610fae565b90611489565b611489565b6115ea611c8e610caa565b611c78610d2b565b1490565b91908201809211610dcf57565b60ff16604d8111610dcf57600a0a90565b6103ee9190611cd8611cc8610dd4565b611cd26001610aa6565b90611c9a565b611cf3611ce3610fb8565b611cd2611cee611ff7565b611ca7565b916123e9565b9160019161038893612441565b6103ee9190611d16611ce3610fb8565b611cf3611cc8610dd4565b610388903390612575565b9061038892611d70611d9792611d4985611d44610ae1565b611f64565b507f241ecf16d79d0f8dbfb92cbc07fe17840425976cf0667f022fe9877caa831b08611f64565b507fbf233dd2aafeb4d50879c4aa5c81e96d92f6e6945c906a58f9f2d1c1631b4b26611f64565b50611da342600a611208565b6110be611db06000610aa6565b611dbb81600b611208565b600c611208565b6001600160a01b0390911681526060810193926103889290916040916114ea906114e3565b91611df28284611af5565b6000198110611e02575b50505050565b818110611e285791611e19611e1f94926000940390565b91612441565b38808080611dfc565b8261103d83611e3660405190565b9384937ffb8f41b200000000000000000000000000000000000000000000000000000000855260048501611dc2565b929190611e726000610fe8565b936001600160a01b0385166001600160a01b03821614611efa576001600160a01b0385166001600160a01b03831614611eb0576103889394506125c6565b61103d85611ebd60405190565b9182917fec442f05000000000000000000000000000000000000000000000000000000008352600483016001600160a01b03909116815260200190565b61103d85611f0760405190565b9182917f96c6fd1e000000000000000000000000000000000000000000000000000000008352600483016001600160a01b03909116815260200190565b9060ff9061104c565b90611f5d6103ee61109592151590565b8254611f44565b611f75611f71838361187b565b1590565b15611fe357611f956001611f908460006118908660056112e4565b611f4d565b611faf611fa9611fa3339390565b93611075565b91611075565b917f2f8788117e7eff1d82e926ec794901d17c78024a50270940304540a733656f0d611fda60405190565b600090a4600190565b5050600090565b61163e6103ee6103ee9290565b6103ee6000611fea565b61200b828261187b565b15611fe3576120256000611f9084826118908660056112e4565b612033611fa9611fa3339390565b917ff6391f5c32d9c69d2a47ea670b442974b53935d1edc7fd64eb21e047a839171b611fda60405190565b61206661271a565b61038861207560006007611f4d565b7f5db9ee0a495bf2e6ff9c91a7834c1ba4fdd244a5e8aa4e537bd38aeae4b073aa61159c336105d6565b61038861205e565b6120c06120ba6103ee9263ffffffff1690565b60e01b90565b6001600160e01b03191690565b6001600160a01b0390911681526040810192916103889160200152565b61212d60049261211e6103889561210463a9059cbb6120a7565b9261210e60405190565b96879460208601908152016120cd565b60208201810382520383610637565b612756565b6103ee6002610aa6565b6121466006610fae565b61214e612132565b90811461216057610388906006611208565b6040517f3ee5aeb5000000000000000000000000000000000000000000000000000000008152600490fd5b6103ee6001610aa6565b6103886121a061218b565b6006611208565b6121af61164e565b6121b557565b6040517fd93c0665000000000000000000000000000000000000000000000000000000008152600490fd5b906121ea8161143a565b80831161220d57506103ee906121ff83611a80565b9283913361280b565b61280b565b61103d9061221a60405190565b9384937f79012fb200000000000000000000000000000000000000000000000000000000855260048501611dc2565b6122516121a7565b61038861226060016007611f4d565b7f62e78cea01bee320cd4e420270b5ea74000d11b0c9f74754ebdbfc544b05a25861159c336105d6565b610388612249565b61229b8261143a565b8082116122b95750806122b06103ee92611a22565b80936122083390565b61103d83916122c760405190565b9384937f284ff66700000000000000000000000000000000000000000000000000000000855260048501611dc2565b6122ff83611a8e565b80821161231e575090816123156103ee93610f93565b9384923361286c565b61103d849161232c60405190565b9384937ffe9cceec00000000000000000000000000000000000000000000000000000000855260048501611dc2565b9061236583611ad4565b8083116123845750906103ee9161237b82610f6f565b9384913361286c565b8361103d849261239360405190565b9384937fb94abeec00000000000000000000000000000000000000000000000000000000855260048501611dc2565b60006123d96103ee926123d3600090565b50611781565b611cb8565b6103ee9060006123d3565b92916123ff6123f9828487612916565b93612a99565b9384612415575b505050611cd26103ee92151590565b9080929450156114c757612439611cd2926103ee956124346000610aa6565b930990565b119238612406565b90919261244e6000610fe8565b6001600160a01b0381166001600160a01b0384161461252b576001600160a01b0381166001600160a01b038516146124e157506124998461249485611b10866001611777565b611208565b6124a257505050565b6124dc6124d2611fa37f8c5be1e5ebec7d5bd14f71427d1e84f3dd0314c0f7b2291e5b200ac8c7c3b92593611075565b936103a960405190565b0390a3565b61103d906124ee60405190565b9182917f94280d62000000000000000000000000000000000000000000000000000000008352600483016001600160a01b03909116815260200190565b61103d9061253860405190565b9182917fe602df05000000000000000000000000000000000000000000000000000000008352600483016001600160a01b03909116815260200190565b90612583611f71828461187b565b61258b575050565b61103d61259760405190565b9283927fe2517d3f000000000000000000000000000000000000000000000000000000008452600484016120cd565b8160006125d281610fe8565b6001600160a01b0381166001600160a01b0385160361267f577fddf252ad1be2c89b69c2b068fc378daa952ba7f163c4a11628f55a4df523b3ef936124dc936124d293612639611fa3946104f36126328c61262d6002610fae565b611c9a565b6002611208565b6001600160a01b0383160361265f5750506112706126328861265b6002610fae565b0390565b6112709161266c91611777565b6126798961047583610fae565b90611208565b90915061268f6117988484611777565b8581106126dd577fddf252ad1be2c89b69c2b068fc378daa952ba7f163c4a11628f55a4df523b3ef93856124dc946126396124d2956104f36126d38c611fa3980390565b6124948786611777565b8361103d876126eb60405190565b9384937fe450d38c00000000000000000000000000000000000000000000000000000000855260048501611dc2565b612725611f7161164e565b61272b57565b6040517f8dfc202b000000000000000000000000000000000000000000000000000000008152600490fd5b906000602091612764600090565b50828151910182855af115611b93573d600051906127856114b86000610aa6565b036127f7575061279481611075565b3b6127a26114b86000610aa6565b145b6127ab5750565b6127b761103d91611075565b6040519182917f5274afe7000000000000000000000000000000000000000000000000000000008352600483016001600160a01b03909116815260200190565b6128046114b86001610aa6565b14156127a4565b9261285f611fa37fdcbc1c05240f31ff3ad067ef1ee35ce4997762752e3a095284754544f4c709d7939495612855876128456112706113d5565b8361284f30611075565b91612aef565b6112708487612b25565b936124dc61176560405190565b936128e06128da6128da7ffbde797d201c681b91056529119e0b02407c7bb96a4a2c75c01fc9667232c8db949596976128ab886001600160a01b031690565b6001600160a01b038216036128f2575b6128c58589612b62565b61127089886128d56112706113d5565b6120ea565b94611075565b946128ed61176560405190565b0390a4565b6128fd85828a611de7565b6128bb565b6103ee6012610aa6565b6103ee6011610aa6565b906000916129248282612ba0565b92909160009461293386610aa6565b8414612a3b5783871115612a0f5785938761297f9461299297946001946103ee9b9a50500990838211900392039561296e8161265b87610aa6565b811680808093049804950304010290565b1791612992612996826129926003610aa6565b0290565b61265b612a09612a036129f46129e56129d66129c76002976129b789610aa6565b186129928b820261265b8b610aa6565b6129928a820261265b8a610aa6565b61299289820261265b89610aa6565b61299288820261265b88610aa6565b61299287820261265b87610aa6565b80950290565b91610aa6565b612a3687612a1f6114b889610aa6565b14612a28612902565b612a3061290c565b91612bb4565b612bd0565b505050506103ee9291506114b2565b634e487b7160e01b600052602160045260246000fd5b60041115612a6a57565b612a4a565b9061038882612a60565b6103ee90612a6f565b612a8e9060ff16611343565b9081156114c7570690565b612aae612abe91612aa8600090565b50612a79565b612ab86002611fea565b90612a82565b611c966113436001611fea565b6001600160a01b039182168152911660208201526060810192916103889160400152565b9061212d9061211e61038895600495612b0b6323b872dd6120a7565b93612b1560405190565b9788956020870190815201612acb565b9190612b316000610fe8565b926001600160a01b0384166001600160a01b03821614612b555761038892936125c6565b61103d84611ebd60405190565b9190612b6e6000610fe8565b926001600160a01b0384166001600160a01b03821614612b93579261038892936125c6565b61103d84611f0760405190565b906000198183099102908180821091030391565b61299283612bcc93612bc4600090565b501891151590565b1890565b634e487b716000526020526024601cfdfea26469706673582212206c4616b9870d7b68e60f46ecaf5193ad2f7526fb22946eeb9059a83658274dba64736f6c63430008160033",
  "linkReferences": {},
  "deployedLinkReferences": {}
}