{
  "_format": "hh-sol-artifact-1",
  "contractName": "MockPriceFeed",
  "sourceName": "contracts/mocks/MockPriceFeed.sol",
  "abi": [
    {
      "inputs": [],
      "stateMutability": "nonpayable",
      "type": "constructor"
    },
    {
      "anonymous": false,
      "inputs": [
        {
          "indexed": false,
          "internalType": "uint256",
          "name": "newThreshold",
          "type": "uint256"
        }
      ],
      "name": "ConfidenceThresholdUpdated",
      "type": "event"
    },
    {
      "anonymous": false,
      "inputs": [
        {
          "indexed": false,
          "internalType": "enum IPriceFeed.PriceSource",
          "name": "source",
          "type": "uint8"
        },
        {
          "indexed": false,
          "internalType": "uint256",
          "name": "newWeight",
          "type": "uint256"
        }
      ],
      "name": "PriceSourceWeightUpdated",
      "type": "event"
    },
    {
      "anonymous": false,
      "inputs": [
        {
          "indexed": true,
          "internalType": "uint32",
          "name": "assetIndex",
          "type": "uint32"
        },
        {
          "indexed": false,
          "internalType": "uint256",
          "name": "newPrice",
          "type": "uint256"
        },
        {
          "indexed": false,
          "internalType": "enum IPriceFeed.PriceSource",
          "name": "source",
          "type": "uint8"
        },
        {
          "indexed": false,
          "internalType": "uint256",
          "name": "timestamp",
          "type": "uint256"
        }
      ],
      "name": "PriceUpdated",
      "type": "event"
    },
    {
      "anonymous": false,
      "inputs": [
        {
          "indexed": true,
          "internalType": "uint32",
          "name": "assetIndex",
          "type": "uint32"
        },
        {
          "indexed": false,
          "internalType": "enum IPriceFeed.PriceSource",
          "name": "source",
          "type": "uint8"
        }
      ],
      "name": "SourceAdded",
      "type": "event"
    },
    {
      "anonymous": false,
      "inputs": [
        {
          "indexed": true,
          "internalType": "uint32",
          "name": "assetIndex",
          "type": "uint32"
        },
        {
          "indexed": false,
          "internalType": "enum IPriceFeed.PriceSource",
          "name": "source",
          "type": "uint8"
        }
      ],
      "name": "SourceRemoved",
      "type": "event"
    },
    {
      "anonymous": false,
      "inputs": [
        {
          "indexed": false,
          "internalType": "uint256",
          "name": "newThreshold",
          "type": "uint256"
        }
      ],
      "name": "StaleThresholdUpdated",
      "type": "event"
    },
    {
      "inputs": [
        {
          "internalType": "uint32",
          "name": "assetIndex",
          "type": "uint32"
        },
        {
          "internalType": "uint256",
          "name": "tradeAmount",
          "type": "uint256"
        },
        {
          "internalType": "bool",
          "name": "isBuy",
          "type": "bool"
        }
      ],
      "name": "calculatePriceImpact",
      "outputs": [
        {
          "internalType": "uint256",
          "name": "priceImpact",
          "type": "uint256"
        },
        {
          "internalType": "uint256",
          "name": "executionPrice",
          "type": "uint256"
        }
      ],
      "stateMutability": "view",
      "type": "function"
    },
    {
      "inputs": [
        {
          "internalType": "uint32",
          "name": "assetIndex",
          "type": "uint32"
        }
      ],
      "name": "getAggregatedPrice",
      "outputs": [
        {
          "internalType": "uint256",
          "name": "price",
          "type": "uint256"
        },
        {
          "internalType": "uint256[]",
          "name": "weights",
          "type": "uint256[]"
        }
      ],
      "stateMutability": "view",
      "type": "function"
    },
    {
      "inputs": [
        {
          "internalType": "uint32",
          "name": "assetIndex",
          "type": "uint32"
        }
      ],
      "name": "getLiquidityInfo",
      "outputs": [
        {
          "components": [
            {
              "internalType": "uint256",
              "name": "ammLiquidity",
              "type": "uint256"
            },
            {
              "internalType": "uint256",
              "name": "orderbookDepth",
              "type": "uint256"
            },
            {
              "internalType": "uint256",
              "name": "totalLiquidity",
              "type": "uint256"
            },
            {
              "internalType": "uint256",
              "name": "priceImpact",
              "type": "uint256"
            }
          ],
          "internalType": "struct IPriceFeed.LiquidityInfo",
          "name": "liquidityInfoData",
          "type": "tuple"
        }
      ],
      "stateMutability": "view",
      "type": "function"
    },
    {
      "inputs": [
        {
          "internalType": "uint32[]",
          "name": "assetIndices",
          "type": "uint32[]"
        }
      ],
      "name": "getMultiplePrices",
      "outputs": [
        {
          "internalType": "uint256[]",
          "name": "pricesArray",
          "type": "uint256[]"
        }
      ],
      "stateMutability": "view",
      "type": "function"
    },
    {
      "inputs": [
        {
          "internalType": "uint32",
          "name": "assetIndex",
          "type": "uint32"
        },
        {
          "internalType": "uint256",
          "name": "tradeAmount",
          "type": "uint256"
        },
        {
          "internalType": "uint256",
          "name": "maxPriceImpact",
          "type": "uint256"
        }
      ],
      "name": "getOptimalRoute",
      "outputs": [
        {
          "internalType": "enum IPriceFeed.PriceSource[]",
          "name": "sources",
          "type": "uint8[]"
        },
        {
          "internalType": "uint256[]",
          "name": "amounts",
          "type": "uint256[]"
        },
        {
          "internalType": "uint256",
          "name": "totalPrice",
          "type": "uint256"
        }
      ],
      "stateMutability": "view",
      "type": "function"
    },
    {
      "inputs": [
        {
          "internalType": "uint32",
          "name": "assetIndex",
          "type": "uint32"
        }
      ],
      "name": "getPrice",
      "outputs": [
        {
          "internalType": "uint256",
          "name": "price",
          "type": "uint256"
        }
      ],
      "stateMutability": "view",
      "type": "function"
    },
    {
      "inputs": [
        {
          "internalType": "uint32",
          "name": "assetIndex",
          "type": "uint32"
        }
      ],
      "name": "getPriceData",
      "outputs": [
        {
          "components": [
            {
              "internalType": "uint256",
              "name": "price",
              "type": "uint256"
            },
            {
              "internalType": "uint256",
              "name": "timestamp",
              "type": "uint256"
            },
            {
              "internalType": "uint256",
              "name": "confidence",
              "type": "uint256"
            },
            {
              "internalType": "enum IPriceFeed.PriceSource",
              "name": "source",
              "type": "uint8"
            },
            {
              "internalType": "bool",
              "name": "isStale",
              "type": "bool"
            }
          ],
          "internalType": "struct IPriceFeed.PriceData",
          "name": "priceData",
          "type": "tuple"
        }
      ],
      "stateMutability": "view",
      "type": "function"
    },
    {
      "inputs": [
        {
          "internalType": "uint32",
          "name": "assetIndex",
          "type": "uint32"
        },
        {
          "internalType": "enum IPriceFeed.PriceSource",
          "name": "source",
          "type": "uint8"
        }
      ],
      "name": "getPriceFromSource",
      "outputs": [
        {
          "internalType": "uint256",
          "name": "price",
          "type": "uint256"
        },
        {
          "internalType": "bool",
          "name": "isAvailable",
          "type": "bool"
        }
      ],
      "stateMutability": "view",
      "type": "function"
    },
    {
      "inputs": [
        {
          "internalType": "uint32",
          "name": "assetIndex",
          "type": "uint32"
        }
      ],
      "name": "isAssetSupported",
      "outputs": [
        {
          "internalType": "bool",
          "name": "isSupported",
          "type": "bool"
        },
        {
          "internalType": "bool",
          "name": "hasValidPrice",
          "type": "bool"
        }
      ],
      "stateMutability": "view",
      "type": "function"
    },
    {
      "inputs": [
        {
          "internalType": "uint32",
          "name": "assetIndex",
          "type": "uint32"
        },
        {
          "internalType": "uint256",
          "name": "price",
          "type": "uint256"
        }
      ],
      "name": "setPrice",
      "outputs": [],
      "stateMutability": "nonpayable",
      "type": "function"
    },
    {
      "inputs": [
        {
          "internalType": "uint32",
          "name": "assetIndex",
          "type": "uint32"
        },
        {
          "internalType": "bool",
          "name": "supported",
          "type": "bool"
        }
      ],
      "name": "setSupportedAsset",
      "outputs": [],
      "stateMutability": "nonpayable",
      "type": "function"
    }
  ],
  "bytecode": "0x608060405234801561001057600080fd5b5061001961001e565b61027d565b6000805260026020527fac33ff75c19e70fe83507db0d683fd3465c996598dc972688b7ace676c89077b805460ff191660011790556100666000670de0b6b3a7640000610147565b6001600081905260026020527fe90b7bceb6e7df5418fb78d8ee546e97c83a08bbccc01a0644d599ccd2a7c2e0805460ff1916821790556100b090686c6b935b8bbd400000610147565b600260008190526020527f679795a0195a1b76cdebb7c51d74e058aee92919b8c3389af86ef24535e8a28c805460ff191660011790556100fb60026907695a92c20d6fe00000610147565b600360005260026020527f88601476d11616a71c5be67555bd1dff4b1cbf21533d2669b768b61518cfe1c3805460ff19166001179055610145600368056bc75e2d63100000610147565b565b63ffffffff8216600081815260208181526040808320859055805160a081018252858152428184019081526127108284019081526002606084018181526080850188905297875260019586905293909520825181559051818501559351918401919091559251600380840180549293909260ff19169184908111156101ce576101ce610267565b0217905550608091820151600391820180549115156101000261ff001990921691909117905560408051928301815269d3c21bcecceda100000083526969e10de76676d080000060208085019182526a013da329b633647180000085840190815260326060870190815263ffffffff90981660009081529185905292902093518455516001840155516002830155925192019190915550565b634e487b7160e01b600052602160045260246000fd5b610e8e8061028c6000396000f3fe608060405234801561001057600080fd5b50600436106100a95760003560e01c806389d064601161007157806389d06460146101795780638e1857e8146101a1578063a903f2e7146101b4578063c7f3660d146101fa578063da26663a14610224578063e2262bbb1461024557600080fd5b806308626600146100ae57806310480582146100d957806323e77399146101015780632eec8ef2146101215780636588451f14610141575b600080fd5b6100c16100bc366004610a1d565b610266565b6040516100d093929190610ac3565b60405180910390f35b6100ec6100e7366004610b39565b610378565b604080519283526020830191909152016100d0565b61011461010f366004610b75565b61043b565b6040516100d09190610b97565b61013461012f366004610bf0565b610514565b6040516100d09190610cb5565b61017761014f366004610cc8565b63ffffffff919091166000908152600260205260409020805460ff1916911515919091179055565b005b61018c610187366004610cfb565b61063b565b604080519283529015156020830152016100d0565b6101776101af366004610d36565b610687565b6101c76101c2366004610b75565b6107a7565b6040516100d091908151815260208083015190820152604080830151908201526060918201519181019190915260800190565b61020d610208366004610b75565b61084f565b6040805192151583529015156020830152016100d0565b610237610232366004610b75565b610891565b6040519081526020016100d0565b610258610253366004610b75565b6108df565b6040516100d0929190610d60565b63ffffffff8316600090815260026020526040812054606091829160ff166102a95760405162461bcd60e51b81526004016102a090610d81565b60405180910390fd5b604080516001808252818301909252906020808301908036833750506040805160018082528183019092529295509050602080830190803683370190505091506000836000815181106102fe576102fe610dae565b6020026020010190600381111561031757610317610a50565b9081600381111561032a5761032a610a50565b81525050848260008151811061034257610342610dae565b6020026020010181815250506000808763ffffffff1663ffffffff16815260200190815260200160002054905093509350939050565b63ffffffff8316600090815260026020526040812054819060ff166103af5760405162461bcd60e51b81526004016102a090610d81565b63ffffffff8516600090815260208190526040902054620f42406103d4866064610dda565b6103de9190610df7565b9250831561040e576127106103f38483610dda565b6103fd9190610df7565b6104079082610e19565b9150610432565b61271061041b8483610dda565b6104259190610df7565b61042f9082610e2c565b91505b50935093915050565b6104436109c4565b63ffffffff821660009081526002602052604090205460ff166104785760405162461bcd60e51b81526004016102a090610d81565b600160008363ffffffff1663ffffffff1681526020019081526020016000206040518060a00160405290816000820154815260200160018201548152602001600282015481526020016003820160009054906101000a900460ff1660038111156104e4576104e4610a50565b60038111156104f5576104f5610a50565b815260039190910154610100900460ff16151560209091015292915050565b6060815167ffffffffffffffff81111561053057610530610bda565b604051908082528060200260200182016040528015610559578160200160208202803683370190505b50905060005b8251811015610635576002600084838151811061057e5761057e610dae565b60209081029190910181015163ffffffff1682528101919091526040016000205460ff1615610602576000808483815181106105bc576105bc610dae565b602002602001015163ffffffff1663ffffffff168152602001908152602001600020548282815181106105f1576105f1610dae565b602002602001018181525050610623565b600082828151811061061657610616610dae565b6020026020010181815250505b8061062d81610e3f565b91505061055f565b50919050565b63ffffffff8216600090815260026020526040812054819060ff1661066557506000905080610680565b505063ffffffff821660009081526020819052604090205460015b9250929050565b63ffffffff8216600081815260208181526040808320859055805160a081018252858152428184019081526127108284019081526002606084018181526080850188905297875260019586905293909520825181559051818501559351918401919091559251600380840180549293909260ff191691849081111561070e5761070e610a50565b0217905550608091820151600391820180549115156101000261ff001990921691909117905560408051928301815269d3c21bcecceda100000083526969e10de76676d080000060208085019182526a013da329b633647180000085840190815260326060870190815263ffffffff90981660009081529185905292902093518455516001840155516002830155925192019190915550565b6107d26040518060800160405280600081526020016000815260200160008152602001600081525090565b63ffffffff821660009081526002602052604090205460ff166108075760405162461bcd60e51b81526004016102a090610d81565b5063ffffffff16600090815260036020818152604092839020835160808101855281548152600182015492810192909252600281015493820193909352910154606082015290565b63ffffffff811660009081526002602052604081205460ff169081801561088a575063ffffffff831660009081526020819052604090205415155b9050915091565b63ffffffff811660009081526002602052604081205460ff166108c65760405162461bcd60e51b81526004016102a090610d81565b5063ffffffff1660009081526020819052604090205490565b63ffffffff811660009081526002602052604081205460609060ff166109175760405162461bcd60e51b81526004016102a090610d81565b604080516003808252608082019092529060208201606080368337019050509050610fa08160008151811061094e5761094e610dae565b602002602001018181525050610fa08160018151811061097057610970610dae565b6020026020010181815250506107d08160028151811061099257610992610dae565b6020026020010181815250506000808463ffffffff1663ffffffff168152602001908152602001600020549150915091565b6040518060a00160405280600081526020016000815260200160008152602001600060038111156109f7576109f7610a50565b8152600060209091015290565b803563ffffffff81168114610a1857600080fd5b919050565b600080600060608486031215610a3257600080fd5b610a3b84610a04565b95602085013595506040909401359392505050565b634e487b7160e01b600052602160045260246000fd5b60048110610a8457634e487b7160e01b600052602160045260246000fd5b9052565b600081518084526020808501945080840160005b83811015610ab857815187529582019590820190600101610a9c565b509495945050505050565b606080825284519082018190526000906020906080840190828801845b82811015610b0357610af3848351610a66565b9284019290840190600101610ae0565b50505083810382850152610b178187610a88565b92505050826040830152949350505050565b80358015158114610a1857600080fd5b600080600060608486031215610b4e57600080fd5b610b5784610a04565b925060208401359150610b6c60408501610b29565b90509250925092565b600060208284031215610b8757600080fd5b610b9082610a04565b9392505050565b600060a0820190508251825260208301516020830152604083015160408301526060830151610bc96060840182610a66565b506080928301511515919092015290565b634e487b7160e01b600052604160045260246000fd5b60006020808385031215610c0357600080fd5b823567ffffffffffffffff80821115610c1b57600080fd5b818501915085601f830112610c2f57600080fd5b813581811115610c4157610c41610bda565b8060051b604051601f19603f83011681018181108582111715610c6657610c66610bda565b604052918252848201925083810185019188831115610c8457600080fd5b938501935b82851015610ca957610c9a85610a04565b84529385019392850192610c89565b98975050505050505050565b602081526000610b906020830184610a88565b60008060408385031215610cdb57600080fd5b610ce483610a04565b9150610cf260208401610b29565b90509250929050565b60008060408385031215610d0e57600080fd5b610d1783610a04565b9150602083013560048110610d2b57600080fd5b809150509250929050565b60008060408385031215610d4957600080fd5b610d5283610a04565b946020939093013593505050565b828152604060208201526000610d796040830184610a88565b949350505050565b602080825260139082015272105cdcd95d081b9bdd081cdd5c1c1bdc9d1959606a1b604082015260600190565b634e487b7160e01b600052603260045260246000fd5b634e487b7160e01b600052601160045260246000fd5b8082028115828204841417610df157610df1610dc4565b92915050565b600082610e1457634e487b7160e01b600052601260045260246000fd5b500490565b80820180821115610df157610df1610dc4565b81810381811115610df157610df1610dc4565b600060018201610e5157610e51610dc4565b506001019056fea2646970667358221220a5deb70c17c62ab13c7c4735f8357949e66008ccac09e455bddffa2b167afea364736f6c63430008140033",
  "linkReferences": {},
  "deployedLinkReferences": {}
}