{
  "_format": "hh-sol-artifact-1",
  "contractName": "FeeManager",
  "sourceName": "contracts/FeeManager.sol",
  "abi": [
    {
      "inputs": [
        {
          "internalType": "address",
          "name": "_treasury",
          "type": "address"
        },
        {
          "internalType": "address",
          "name": "_protocolTreasury",
          "type": "address"
        }
      ],
      "stateMutability": "nonpayable",
      "type": "constructor"
    },
    {
      "inputs": [],
      "name": "AccessControlBadConfirmation",
      "type": "error"
    },
    {
      "inputs": [
        {
          "internalType": "address",
          "name": "account",
          "type": "address"
        },
        {
          "internalType": "bytes32",
          "name": "neededRole",
          "type": "bytes32"
        }
      ],
      "name": "AccessControlUnauthorizedAccount",
      "type": "error"
    },
    {
      "inputs": [],
      "name": "EnforcedPause",
      "type": "error"
    },
    {
      "inputs": [],
      "name": "ExpectedPause",
      "type": "error"
    },
    {
      "inputs": [],
      "name": "ReentrancyGuardReentrantCall",
      "type": "error"
    },
    {
      "inputs": [
        {
          "internalType": "address",
          "name": "token",
          "type": "address"
        }
      ],
      "name": "SafeERC20FailedOperation",
      "type": "error"
    },
    {
      "anonymous": false,
      "inputs": [
        {
          "indexed": true,
          "internalType": "address",
          "name": "vault",
          "type": "address"
        },
        {
          "indexed": false,
          "internalType": "uint256",
          "name": "managementFee",
          "type": "uint256"
        },
        {
          "indexed": false,
          "internalType": "uint256",
          "name": "performanceFee",
          "type": "uint256"
        },
        {
          "indexed": false,
          "internalType": "uint256",
          "name": "totalFee",
          "type": "uint256"
        },
        {
          "indexed": false,
          "internalType": "uint256",
          "name": "timestamp",
          "type": "uint256"
        }
      ],
      "name": "FeeCollected",
      "type": "event"
    },
    {
      "anonymous": false,
      "inputs": [
        {
          "indexed": true,
          "internalType": "address",
          "name": "vault",
          "type": "address"
        },
        {
          "indexed": true,
          "internalType": "address",
          "name": "treasury",
          "type": "address"
        },
        {
          "indexed": true,
          "internalType": "address",
          "name": "protocolTreasury",
          "type": "address"
        },
        {
          "indexed": false,
          "internalType": "uint256",
          "name": "treasuryAmount",
          "type": "uint256"
        },
        {
          "indexed": false,
          "internalType": "uint256",
          "name": "protocolAmount",
          "type": "uint256"
        }
      ],
      "name": "FeeDistributed",
      "type": "event"
    },
    {
      "anonymous": false,
      "inputs": [
        {
          "indexed": false,
          "internalType": "uint256",
          "name": "oldTreasuryShare",
          "type": "uint256"
        },
        {
          "indexed": false,
          "internalType": "uint256",
          "name": "newTreasuryShare",
          "type": "uint256"
        },
        {
          "indexed": false,
          "internalType": "uint256",
          "name": "oldProtocolShare",
          "type": "uint256"
        },
        {
          "indexed": false,
          "internalType": "uint256",
          "name": "newProtocolShare",
          "type": "uint256"
        }
      ],
      "name": "FeeRatiosUpdated",
      "type": "event"
    },
    {
      "anonymous": false,
      "inputs": [
        {
          "indexed": false,
          "internalType": "address",
          "name": "account",
          "type": "address"
        }
      ],
      "name": "Paused",
      "type": "event"
    },
    {
      "anonymous": false,
      "inputs": [
        {
          "indexed": true,
          "internalType": "bytes32",
          "name": "role",
          "type": "bytes32"
        },
        {
          "indexed": true,
          "internalType": "bytes32",
          "name": "previousAdminRole",
          "type": "bytes32"
        },
        {
          "indexed": true,
          "internalType": "bytes32",
          "name": "newAdminRole",
          "type": "bytes32"
        }
      ],
      "name": "RoleAdminChanged",
      "type": "event"
    },
    {
      "anonymous": false,
      "inputs": [
        {
          "indexed": true,
          "internalType": "bytes32",
          "name": "role",
          "type": "bytes32"
        },
        {
          "indexed": true,
          "internalType": "address",
          "name": "account",
          "type": "address"
        },
        {
          "indexed": true,
          "internalType": "address",
          "name": "sender",
          "type": "address"
        }
      ],
      "name": "RoleGranted",
      "type": "event"
    },
    {
      "anonymous": false,
      "inputs": [
        {
          "indexed": true,
          "internalType": "bytes32",
          "name": "role",
          "type": "bytes32"
        },
        {
          "indexed": true,
          "internalType": "address",
          "name": "account",
          "type": "address"
        },
        {
          "indexed": true,
          "internalType": "address",
          "name": "sender",
          "type": "address"
        }
      ],
      "name": "RoleRevoked",
      "type": "event"
    },
    {
      "anonymous": false,
      "inputs": [
        {
          "indexed": true,
          "internalType": "address",
          "name": "oldTreasury",
          "type": "address"
        },
        {
          "indexed": true,
          "internalType": "address",
          "name": "newTreasury",
          "type": "address"
        },
        {
          "indexed": false,
          "internalType": "address",
          "name": "oldProtocolTreasury",
          "type": "address"
        },
        {
          "indexed": false,
          "internalType": "address",
          "name": "newProtocolTreasury",
          "type": "address"
        }
      ],
      "name": "TreasuryUpdated",
      "type": "event"
    },
    {
      "anonymous": false,
      "inputs": [
        {
          "indexed": false,
          "internalType": "address",
          "name": "account",
          "type": "address"
        }
      ],
      "name": "Unpaused",
      "type": "event"
    },
    {
      "anonymous": false,
      "inputs": [
        {
          "indexed": true,
          "internalType": "address",
          "name": "vault",
          "type": "address"
        },
        {
          "indexed": false,
          "internalType": "bool",
          "name": "authorized",
          "type": "bool"
        }
      ],
      "name": "VaultAuthorized",
      "type": "event"
    },
    {
      "inputs": [],
      "name": "BASIS_POINTS",
      "outputs": [
        {
          "internalType": "uint256",
          "name": "",
          "type": "uint256"
        }
      ],
      "stateMutability": "view",
      "type": "function"
    },
    {
      "inputs": [],
      "name": "DEFAULT_ADMIN_ROLE",
      "outputs": [
        {
          "internalType": "bytes32",
          "name": "",
          "type": "bytes32"
        }
      ],
      "stateMutability": "view",
      "type": "function"
    },
    {
      "inputs": [],
      "name": "FEE_COLLECTOR_ROLE",
      "outputs": [
        {
          "internalType": "bytes32",
          "name": "",
          "type": "bytes32"
        }
      ],
      "stateMutability": "view",
      "type": "function"
    },
    {
      "inputs": [],
      "name": "MANAGEMENT_FEE_BPS",
      "outputs": [
        {
          "internalType": "uint256",
          "name": "",
          "type": "uint256"
        }
      ],
      "stateMutability": "view",
      "type": "function"
    },
    {
      "inputs": [],
      "name": "PERFORMANCE_FEE_BPS",
      "outputs": [
        {
          "internalType": "uint256",
          "name": "",
          "type": "uint256"
        }
      ],
      "stateMutability": "view",
      "type": "function"
    },
    {
      "inputs": [],
      "name": "SECONDS_PER_YEAR",
      "outputs": [
        {
          "internalType": "uint256",
          "name": "",
          "type": "uint256"
        }
      ],
      "stateMutability": "view",
      "type": "function"
    },
    {
      "inputs": [],
      "name": "TREASURY_ROLE",
      "outputs": [
        {
          "internalType": "bytes32",
          "name": "",
          "type": "bytes32"
        }
      ],
      "stateMutability": "view",
      "type": "function"
    },
    {
      "inputs": [
        {
          "internalType": "address",
          "name": "vault",
          "type": "address"
        },
        {
          "internalType": "bool",
          "name": "authorized",
          "type": "bool"
        }
      ],
      "name": "authorizeVault",
      "outputs": [],
      "stateMutability": "nonpayable",
      "type": "function"
    },
    {
      "inputs": [
        {
          "internalType": "address",
          "name": "",
          "type": "address"
        }
      ],
      "name": "authorizedVaults",
      "outputs": [
        {
          "internalType": "bool",
          "name": "",
          "type": "bool"
        }
      ],
      "stateMutability": "view",
      "type": "function"
    },
    {
      "inputs": [
        {
          "internalType": "address[]",
          "name": "vaults",
          "type": "address[]"
        }
      ],
      "name": "batchCollectFees",
      "outputs": [
        {
          "internalType": "uint256",
          "name": "totalFeesCollected",
          "type": "uint256"
        }
      ],
      "stateMutability": "nonpayable",
      "type": "function"
    },
    {
      "inputs": [
        {
          "internalType": "address",
          "name": "vault",
          "type": "address"
        },
        {
          "internalType": "uint256",
          "name": "totalAssets",
          "type": "uint256"
        }
      ],
      "name": "calculateManagementFee",
      "outputs": [
        {
          "internalType": "uint256",
          "name": "fee",
          "type": "uint256"
        }
      ],
      "stateMutability": "view",
      "type": "function"
    },
    {
      "inputs": [
        {
          "internalType": "address",
          "name": "vault",
          "type": "address"
        },
        {
          "internalType": "uint256",
          "name": "performance",
          "type": "uint256"
        }
      ],
      "name": "calculatePerformanceFee",
      "outputs": [
        {
          "internalType": "uint256",
          "name": "fee",
          "type": "uint256"
        }
      ],
      "stateMutability": "pure",
      "type": "function"
    },
    {
      "inputs": [
        {
          "internalType": "address",
          "name": "vault",
          "type": "address"
        }
      ],
      "name": "calculateTotalFees",
      "outputs": [
        {
          "components": [
            {
              "internalType": "uint256",
              "name": "managementFee",
              "type": "uint256"
            },
            {
              "internalType": "uint256",
              "name": "performanceFee",
              "type": "uint256"
            },
            {
              "internalType": "uint256",
              "name": "totalFee",
              "type": "uint256"
            },
            {
              "internalType": "uint256",
              "name": "treasuryAmount",
              "type": "uint256"
            },
            {
              "internalType": "uint256",
              "name": "protocolAmount",
              "type": "uint256"
            }
          ],
          "internalType": "struct FeeManager.FeeBreakdown",
          "name": "breakdown",
          "type": "tuple"
        }
      ],
      "stateMutability": "view",
      "type": "function"
    },
    {
      "inputs": [
        {
          "internalType": "address",
          "name": "vault",
          "type": "address"
        }
      ],
      "name": "collectFees",
      "outputs": [
        {
          "internalType": "uint256",
          "name": "feesCollected",
          "type": "uint256"
        }
      ],
      "stateMutability": "nonpayable",
      "type": "function"
    },
    {
      "inputs": [],
      "name": "emergencyPause",
      "outputs": [],
      "stateMutability": "nonpayable",
      "type": "function"
    },
    {
      "inputs": [],
      "name": "emergencyUnpause",
      "outputs": [],
      "stateMutability": "nonpayable",
      "type": "function"
    },
    {
      "inputs": [
        {
          "internalType": "address",
          "name": "token",
          "type": "address"
        },
        {
          "internalType": "uint256",
          "name": "amount",
          "type": "uint256"
        },
        {
          "internalType": "address",
          "name": "recipient",
          "type": "address"
        }
      ],
      "name": "emergencyWithdraw",
      "outputs": [],
      "stateMutability": "nonpayable",
      "type": "function"
    },
    {
      "inputs": [],
      "name": "getFeeConfig",
      "outputs": [
        {
          "internalType": "uint256",
          "name": "mgmtFeeBps",
          "type": "uint256"
        },
        {
          "internalType": "uint256",
          "name": "perfFeeBps",
          "type": "uint256"
        },
        {
          "internalType": "address",
          "name": "treasuryAddr",
          "type": "address"
        },
        {
          "internalType": "address",
          "name": "protocolTreasuryAddr",
          "type": "address"
        },
        {
          "internalType": "uint256",
          "name": "treasuryShareBps",
          "type": "uint256"
        },
        {
          "internalType": "uint256",
          "name": "protocolShareBps",
          "type": "uint256"
        }
      ],
      "stateMutability": "view",
      "type": "function"
    },
    {
      "inputs": [
        {
          "internalType": "bytes32",
          "name": "role",
          "type": "bytes32"
        }
      ],
      "name": "getRoleAdmin",
      "outputs": [
        {
          "internalType": "bytes32",
          "name": "",
          "type": "bytes32"
        }
      ],
      "stateMutability": "view",
      "type": "function"
    },
    {
      "inputs": [
        {
          "internalType": "address",
          "name": "vault",
          "type": "address"
        }
      ],
      "name": "getVaultFeeData",
      "outputs": [
        {
          "components": [
            {
              "internalType": "uint256",
              "name": "lastFeeCollection",
              "type": "uint256"
            },
            {
              "internalType": "uint256",
              "name": "totalManagementFees",
              "type": "uint256"
            },
            {
              "internalType": "uint256",
              "name": "totalPerformanceFees",
              "type": "uint256"
            },
            {
              "internalType": "uint256",
              "name": "accruedFees",
              "type": "uint256"
            },
            {
              "internalType": "bool",
              "name": "isActive",
              "type": "bool"
            }
          ],
          "internalType": "struct FeeManager.VaultFeeData",
          "name": "data",
          "type": "tuple"
        }
      ],
      "stateMutability": "view",
      "type": "function"
    },
    {
      "inputs": [
        {
          "internalType": "bytes32",
          "name": "role",
          "type": "bytes32"
        },
        {
          "internalType": "address",
          "name": "account",
          "type": "address"
        }
      ],
      "name": "grantRole",
      "outputs": [],
      "stateMutability": "nonpayable",
      "type": "function"
    },
    {
      "inputs": [
        {
          "internalType": "bytes32",
          "name": "role",
          "type": "bytes32"
        },
        {
          "internalType": "address",
          "name": "account",
          "type": "address"
        }
      ],
      "name": "hasRole",
      "outputs": [
        {
          "internalType": "bool",
          "name": "",
          "type": "bool"
        }
      ],
      "stateMutability": "view",
      "type": "function"
    },
    {
      "inputs": [],
      "name": "paused",
      "outputs": [
        {
          "internalType": "bool",
          "name": "",
          "type": "bool"
        }
      ],
      "stateMutability": "view",
      "type": "function"
    },
    {
      "inputs": [],
      "name": "protocolShare",
      "outputs": [
        {
          "internalType": "uint256",
          "name": "",
          "type": "uint256"
        }
      ],
      "stateMutability": "view",
      "type": "function"
    },
    {
      "inputs": [],
      "name": "protocolTreasury",
      "outputs": [
        {
          "internalType": "address",
          "name": "",
          "type": "address"
        }
      ],
      "stateMutability": "view",
      "type": "function"
    },
    {
      "inputs": [
        {
          "internalType": "bytes32",
          "name": "role",
          "type": "bytes32"
        },
        {
          "internalType": "address",
          "name": "callerConfirmation",
          "type": "address"
        }
      ],
      "name": "renounceRole",
      "outputs": [],
      "stateMutability": "nonpayable",
      "type": "function"
    },
    {
      "inputs": [
        {
          "internalType": "bytes32",
          "name": "role",
          "type": "bytes32"
        },
        {
          "internalType": "address",
          "name": "account",
          "type": "address"
        }
      ],
      "name": "revokeRole",
      "outputs": [],
      "stateMutability": "nonpayable",
      "type": "function"
    },
    {
      "inputs": [
        {
          "internalType": "bytes4",
          "name": "interfaceId",
          "type": "bytes4"
        }
      ],
      "name": "supportsInterface",
      "outputs": [
        {
          "internalType": "bool",
          "name": "",
          "type": "bool"
        }
      ],
      "stateMutability": "view",
      "type": "function"
    },
    {
      "inputs": [],
      "name": "treasury",
      "outputs": [
        {
          "internalType": "address",
          "name": "",
          "type": "address"
        }
      ],
      "stateMutability": "view",
      "type": "function"
    },
    {
      "inputs": [],
      "name": "treasuryShare",
      "outputs": [
        {
          "internalType": "uint256",
          "name": "",
          "type": "uint256"
        }
      ],
      "stateMutability": "view",
      "type": "function"
    },
    {
      "inputs": [
        {
          "internalType": "uint256",
          "name": "_treasuryShare",
          "type": "uint256"
        },
        {
          "internalType": "uint256",
          "name": "_protocolShare",
          "type": "uint256"
        }
      ],
      "name": "updateFeeRatios",
      "outputs": [],
      "stateMutability": "nonpayable",
      "type": "function"
    },
    {
      "inputs": [
        {
          "internalType": "address",
          "name": "_treasury",
          "type": "address"
        },
        {
          "internalType": "address",
          "name": "_protocolTreasury",
          "type": "address"
        }
      ],
      "name": "updateTreasuries",
      "outputs": [],
      "stateMutability": "nonpayable",
      "type": "function"
    },
    {
      "inputs": [
        {
          "internalType": "address",
          "name": "",
          "type": "address"
        }
      ],
      "name": "vaultFees",
      "outputs": [
        {
          "internalType": "uint256",
          "name": "lastFeeCollection",
          "type": "uint256"
        },
        {
          "internalType": "uint256",
          "name": "totalManagementFees",
          "type": "uint256"
        },
        {
          "internalType": "uint256",
          "name": "totalPerformanceFees",
          "type": "uint256"
        },
        {
          "internalType": "uint256",
          "name": "accruedFees",
          "type": "uint256"
        },
        {
          "internalType": "bool",
          "name": "isActive",
          "type": "bool"
        }
      ],
      "stateMutability": "view",
      "type": "function"
    }
  ],
  "bytecode": "0x60806040523462000031576200001f62000018620000e5565b90620002a3565b604051612123620004cd823961212390f35b600080fd5b634e487b7160e01b600052604160045260246000fd5b90601f01601f191681019081106001600160401b038211176200006e57604052565b62000036565b906200008b6200008360405190565b92836200004c565b565b6001600160a01b031690565b90565b6001600160a01b038116036200003157565b905051906200008b826200009c565b9190604083820312620000315762000099906020620000dd8286620000ae565b9401620000ae565b62000108620025f080380380620000fc8162000074565b928339810190620000bd565b9091565b90600019905b9181191691161790565b6200009962000099620000999290565b90620001406200009962000148926200011c565b82546200010c565b9055565b6200008d62000099620000999290565b62000099906200014c565b156200016f57565b60405162461bcd60e51b815260206004820152601c60248201527f4665654d616e616765723a20696e76616c6964207472656173757279000000006044820152606490fd5b15620001bc57565b60405162461bcd60e51b815260206004820152602560248201527f4665654d616e616765723a20696e76616c69642070726f746f636f6c20747265604482015264617375727960d81b6064820152608490fd5b90610100600160a81b039060081b62000112565b62000099906200008d906001600160a01b031682565b620000999062000223565b620000999062000239565b906200026362000099620001489262000244565b82546200020f565b906001600160a01b039062000112565b906200028f62000099620001489262000244565b82546200026b565b6200009960006200011c565b90620003236200032b92620002b76200039c565b620002c6611b5860046200012c565b620002d5610bb860056200012c565b6200031b62000309620002e960006200015c565b6200008d6001600160a01b0382166001600160a01b038616141562000167565b6001600160a01b0385161415620001b4565b60026200024f565b60036200027b565b620003416200033962000297565b339062000409565b506200036d7f2dca0f5ce7e75a4b43fe2b0d6f5d0b7a2bf92ecf89f8f0aa17b8308b6703882162000339565b50620003997fe1dcbdb91df27212a29bc27177c840cf2f819ecf2187432e1fac86c2dd5dfca962000339565b50565b6200008b620003b2565b6200009960016200011c565b6200008b620003c0620003a6565b60016200012c565b905b600052602052604060002090565b90620003ca9062000244565b9060ff9062000112565b9062000401620000996200014892151590565b8254620003e4565b6200041d620004198383620004a4565b1590565b156200049d57620004496001620004438460006200043c8682620003c8565b01620003d8565b620003ee565b62000468620004616200045a339390565b9362000244565b9162000244565b917f2f8788117e7eff1d82e926ec794901d17c78024a50270940304540a733656f0d6200049460405190565b600090a4600190565b5050600090565b620000999160006200043c620004c593620004bd600090565b5082620003c8565b5460ff169056fe6080604052600436101561001257600080fd5b60003560e01c806301ffc9a71461021d5780630a01286f146102185780631103f315146102135780631110094e1461020e578063248a9ca3146102095780632f2ff15d1461020457806336568abe146101ff578063393b8516146101fa5780634a4e3bd5146101f55780634a78331c146101f057806351858e27146101eb578063551512de146101e657806359e65bb3146101e15780635b01e374146101a05780635c975abb146101dc5780635fbbc0d2146101d757806361d027b3146101d257806362a2a47c146101cd57806364dfd65e146101c857806369a361cc146101c35780636b873eaf146101be5780637796ff37146101b95780637b400ac8146101b4578063803db96d146101af578063833ed105146101aa57806391d14854146101a5578063a217fddf146101a0578063a480ca791461019b578063bcf90d2b14610196578063d11a57ec14610191578063d547741f1461018c578063e1f1c4a7146101875763e6a69ab80361022257610ad7565b610aa7565b610a7b565b610a42565b610a27565b6109fa565b6106ed565b6109de565b6109c5565b61098e565b610966565b61094b565b610923565b6108b0565b61085f565b61080a565b6107d5565b61077d565b610708565b6106a7565b61063c565b6105fb565b6105d4565b610568565b61054d565b610507565b6104e9565b6104ab565b61047b565b61041a565b6103bc565b610260565b600080fd5b6001600160e01b031981165b0361022257565b9050359061024782610227565b565b906020828203126102225761025d9161023a565b90565b346102225761028e61027b610276366004610249565b610af2565b6040515b91829182901515815260200190565b0390f35b6001600160a01b031690565b6001600160a01b038116610233565b905035906102478261029e565b906020828203126102225761025d916102ad565b61029261025d61025d926001600160a01b031690565b61025d906102ce565b61025d906102e4565b90610300906102ed565b600052602052604060002090565b61025d9081565b61025d905461030e565b61025d905b60ff1690565b61025d905461031f565b61033f9060066102f6565b61034881610315565b9161035560018301610315565b9161036260028201610315565b9161025d600461037460038501610315565b930161032a565b90959492610247946103ad6103b4926103a660809661039f60a088019c6000890152565b6020870152565b6040850152565b6060830152565b019015159052565b346102225761028e6103d76103d23660046102ba565b610334565b916103e495939560405190565b9586958661037b565b600091031261022257565b61025d916008021c81565b9061025d91546103f8565b61025d60006005610403565b346102225761042a3660046103ed565b61028e61043561040e565b6040519182918290815260200190565b80610233565b9050359061024782610445565b91906040838203126102225761025d90602061047482866102ad565b940161044b565b346102225761028e610435610491366004610458565b90610b5e565b906020828203126102225761025d9161044b565b346102225761028e6104356104c1366004610497565b610b79565b91906040838203126102225761025d9060206104e2828661044b565b94016102ad565b34610222576105026104fc3660046104c6565b90610bbb565b604051005b346102225761050261051a3660046104c6565b90610bc5565b61025d916008021c610324565b9061025d9154610520565b600061054861025d9260076102f6565b61052d565b346102225761028e61027b6105633660046102ba565b610538565b34610222576105783660046103ed565b610502610c2c565b805182526102479190608090819061059d60208201516020860152565b6105ac60408201516040860152565b6105bb60608201516060860152565b01511515910152565b60a0810192916102479190610580565b346102225761028e6105ef6105ea3660046102ba565b610d3e565b604051918291826105c4565b346102225761060b3660046103ed565b610502610d70565b90916060828403126102225761025d61062c84846102ad565b9360406104e2826020870161044b565b346102225761050261064f366004610613565b91610e23565b805182526102479190608090819061067260208201516020860152565b61068160408201516040860152565b61069060608201516060860152565b0151910152565b60a0810192916102479190610655565b346102225761028e6106c26106bd3660046102ba565b610f69565b60405191829182610697565b61025d61025d61025d9290565b61025d60006106ce565b61025d6106db565b34610222576106fd3660046103ed565b61028e6104356106e5565b34610222576107183660046103ed565b61028e61027b6110c6565b91946107726107799298979561076260a0966107526102479a61074b60c08a019e60008b0152565b6020890152565b6001600160a01b03166040870152565b6001600160a01b03166060850152565b6080830152565b0152565b346102225761078d3660046103ed565b61028e6107986110f9565b926107a896949692919260405190565b96879687610723565b61025d916008021c610292565b9061025d91546107b1565b61025d600160026107be565b34610222576107e53660046103ed565b61028e6107f06107c9565b604051918291826001600160a01b03909116815260200190565b346102225761081a3660046103ed565b61028e7f2dca0f5ce7e75a4b43fe2b0d6f5d0b7a2bf92ecf89f8f0aa17b8308b67038821610435565b91906040838203126102225761025d906020610474828661044b565b3461022257610502610872366004610843565b90611344565b801515610233565b9050359061024782610878565b91906040838203126102225761025d9060206108a982866102ad565b9401610880565b34610222576105026108c336600461088d565b9061155b565b909182601f830112156102225781359167ffffffffffffffff831161022257602001926020830284011161022257565b9060208282031261022257813567ffffffffffffffff81116102225761091f92016108c9565b9091565b346102225761028e6104356109393660046108f9565b906116cb565b61025d60006004610403565b346102225761095b3660046103ed565b61028e61043561093f565b346102225761028e61043561097c366004610458565b906116e4565b61025d600060036107be565b346102225761099e3660046103ed565b61028e6107f0610982565b91906040838203126102225761025d9060206104e282866102ad565b34610222576105026109d83660046109a9565b90611996565b346102225761028e61027b6109f43660046104c6565b906119a0565b346102225761028e610435610a103660046102ba565b611bf0565b61025d60196106ce565b61025d610a15565b3461022257610a373660046103ed565b61028e610435610a1f565b3461022257610a523660046103ed565b61028e7fe1dcbdb91df27212a29bc27177c840cf2f819ecf2187432e1fac86c2dd5dfca9610435565b3461022257610502610a8e3660046104c6565b90611c16565b61025d6127106106ce565b61025d610a94565b3461022257610ab73660046103ed565b61028e610435610a9f565b61025d6301e133806106ce565b61025d610ac2565b3461022257610ae73660046103ed565b61028e610435610acf565b7f7965db0b000000000000000000000000000000000000000000000000000000006001600160e01b0319821614908115610b2a575090565b61025d91506001600160e01b0319167f01ffc9a7000000000000000000000000000000000000000000000000000000001490565b5050610b68600090565b5061025d60006106ce565b90610300565b6001610b9261025d92610b8a600090565b506000610b73565b01610315565b9061024791610bae610ba982610b79565b611c20565b90610bb891611c2b565b50565b9061024791610b98565b90610bcf33610292565b6001600160a01b03821603610be757610bb891611ca1565b6040517f6697b232000000000000000000000000000000000000000000000000000000008152600490fd5b0390fd5b610c21610ba96106db565b610247610247611d3e565b610247610c16565b634e487b7160e01b600052604160045260246000fd5b90601f01601f1916810190811067ffffffffffffffff821117610c6c57604052565b610c34565b90610247610c7e60405190565b9283610c4a565b61025d60a0610c71565b610c97610c85565b906000825260208080808086016000815201600081520160008152016000905250565b61025d610c8f565b90610247610d2c6004610cd3610c85565b94610ce4610ce082610315565b8752565b610cfa610cf360018301610315565b6020880152565b610d10610d0960028301610315565b6040880152565b610d26610d1f60038301610315565b6060880152565b0161032a565b15156080840152565b61025d90610cc2565b610d5561025d91610d4d610cba565b5060066102f6565b610d35565b610d65610ba96106db565b610247610247611d87565b610247610d5a565b906102479291610d89610ba96106db565b610df0565b61029261025d61025d9290565b61025d90610d8e565b15610dab57565b60405162461bcd60e51b815260206004820152601d60248201527f4665654d616e616765723a20696e76616c696420726563697069656e740000006044820152606490fd5b91610e1e61024793610e19610e086102926000610d9b565b6001600160a01b0385161415610da4565b6102ed565b611dd2565b906102479291610d78565b15610e3557565b60405162461bcd60e51b815280610c12600482016020808252818101527f4665654d616e616765723a207661756c74206e6f7420617574686f72697a6564604082015260600190565b9050519061024782610445565b9050519061024782610878565b909160c08284031261022257610eae8383610e7e565b92610ebc8160208501610e7e565b92610eca8260408301610e7e565b9261025d610edb8460608501610e8b565b9360a0610eeb8260808701610e7e565b9401610e7e565b6040513d6000823e3d90fd5b634e487b7160e01b600052601160045260246000fd5b91908201809211610f2157565b610efe565b81810292918115918404141715610f2157565b634e487b7160e01b600052601260045260246000fd5b90610f59565b9190565b908115610f64570490565b610f39565b90610f72610cba565b9182610f8f610f8a610f858460076102f6565b61032a565b610e2e565b610f9b610e19836102ed565b60c0610fa660405190565b7f18cdb54600000000000000000000000000000000000000000000000000000000815291829060049082905afa9283156110c15761102c61100a61108992611000610ce06102479860809760009161108e575b50836116e4565b61049160006106ce565b61101660208601918252565b611026611021865190565b915190565b90610f14565b61103860408501918252565b61108461107a611059611049845190565b6110536004610315565b90610f26565b9261107661106f611068610a94565b8096610f4f565b6060890152565b5190565b6110536005610315565b610f4f565b910152565b6110b0915060c03d60c0116110ba575b6110a88183610c4a565b810190610e98565b5050505090610ff9565b503d61109e565b610ef2565b61025d600261032a565b61025d9060081c610292565b61025d90546110d0565b61025d90610292565b61025d90546110e6565b611101610a15565b9061110a6106db565b9161111560026110dc565b9161112060036110ef565b9161112b6004610315565b916111366005610315565b91959493929190565b906102479161114f610ba96106db565b611290565b1561115b57565b60405162461bcd60e51b815260206004820152602360248201527f4665654d616e616765723a20726174696f73206d7573742073756d20746f203160448201527f30302500000000000000000000000000000000000000000000000000000000006064820152608490fd5b156111cd57565b60405162461bcd60e51b815260206004820152602360248201527f4665654d616e616765723a20726174696f73206d75737420626520706f73697460448201527f69766500000000000000000000000000000000000000000000000000000000006064820152608490fd5b90600019905b9181191691161790565b9061125861025d61125f926106ce565b8254611238565b9055565b61077961024794611289606094989795611282608086019a6000870152565b6020850152565b6040830152565b7f714cab8073a0df735e77502cea061548bde799e50863289e588c444e84b8e1ba916112d36112bf8284610f14565b6112cd610f5561025d610a94565b14611154565b6112dd60006106ce565b82118061132d575b6112ee906111c6565b6113286112fb6004610315565b916113066005610315565b611311856004611248565b61131c826005611248565b60405194859485611263565b0390a1565b506112ee61133b60006106ce565b821190506112e5565b906102479161113f565b906102479161135e610ba96106db565b61144c565b1561136a57565b6040515b62461bcd60e51b815260206004820152601960248201527f4665654d616e616765723a20696e76616c6964207661756c74000000000000006044820152606490fd5b9060ff9061123e565b906113c961025d61125f92151590565b82546113b0565b600461143b6080610247946113ef6113e9600083015190565b86611248565b6114066113fd602083015190565b60018701611248565b61141d611414604083015190565b60028701611248565b61143461142b606083015190565b60038701611248565b0151151590565b91016113b9565b90610247916113d0565b61150f6115057f18f47f52423fcea7fa18e18e69f46b50562f0a8090b20f6c3ddf12ba6ff84feb92600061149661148561029283610d9b565b6001600160a01b0384161415611363565b6114aa866114a58460076102f6565b6113b9565b858061153e575b1561151457610e19906114ee6114d86114c8610c85565b926114d34282860152565b6106ce565b6114e3816020850152565b6103ad816040850152565b600160808201526115008360066102f6565b611442565b9261027f60405190565b0390a2565b8515611521575b506102ed565b6115389060046115328460066102f6565b016113b9565b3861151b565b506115566115526004610d268560066102f6565b1590565b6114b1565b906102479161134e565b61025d9291906115947f2dca0f5ce7e75a4b43fe2b0d6f5d0b7a2bf92ecf89f8f0aa17b8308b67038821611c20565b6115e2565b634e487b7160e01b600052603260045260246000fd5b91908110156115bf576020020190565b611599565b3561025d8161029e565b906020828203126102225761025d91610e7e565b9092916000906115f1826106ce565b818110156116c457826020611660611608306102ed565b61161b61161686888d6115af565b6115c4565b60405194859384928391907fa480ca79000000000000000000000000000000000000000000000000000000008352600483016001600160a01b03909116815260200190565b03925af1849181611694575b5061167f57506001016115f1565b6115f1565b61168d9061167a9295610f14565b9360010190565b6116b691925060203d81116116bd575b6116ae8183610c4a565b8101906115ce565b903861166c565b503d6116a4565b5050509150565b61025d91906000611565565b91908203918211610f2157565b61025d6116f391610d4d600090565b6117026115526004830161032a565b801561176e575b611762576117209061171a90610315565b426116d7565b9061172b60006106ce565b82146117625761025d9161174461174992611053610a15565b610f26565b61175c611754610a94565b611053610ac2565b90610f4f565b505061025d60006106ce565b5061177960006106ce565b8214611709565b61024791906117ae7fe1dcbdb91df27212a29bc27177c840cf2f819ecf2187432e1fac86c2dd5dfca9611c20565b6118ce565b156117ba57565b60405162461bcd60e51b815260206004820152601c60248201527f4665654d616e616765723a20696e76616c6964207472656173757279000000006044820152606490fd5b1561180657565b60405162461bcd60e51b815260206004820152602560248201527f4665654d616e616765723a20696e76616c69642070726f746f636f6c2074726560448201527f61737572790000000000000000000000000000000000000000000000000000006064820152608490fd5b9074ffffffffffffffffffffffffffffffffffffffff009060081b61123e565b906118a161025d61125f926102ed565b8254611871565b906001600160a01b039061123e565b906118c761025d61125f926102ed565b82546118a8565b61190d6118fc6118de6000610d9b565b6102926001600160a01b0382166001600160a01b03861614156117b3565b6001600160a01b03841614156117ff565b7fd323189f2ebee2cd300da230be53231602c71b15d8b281d56d3ec34e1645da9461193860026110dc565b9261196661196061194960036110ef565b95611955866002611891565b610e198460036118b7565b936102ed565b9361199161197360405190565b928392836001600160a01b0391821681529116602082015260400190565b0390a3565b9061024791611780565b61025d9160006119bc610f85936119b5600090565b5082610b73565b016102f6565b61025d91906119f07f2dca0f5ce7e75a4b43fe2b0d6f5d0b7a2bf92ecf89f8f0aa17b8308b67038821611c20565b9061025d916119fd611e1a565b90611a0f91611a0a611e5d565b611b03565b90610247611eb6565b15611a1f57565b60405162461bcd60e51b815260206004820152602d60248201527f4665654d616e616765723a2066656520636f6c6c656374696f6e20696e61637460448201527f69766520666f72207661756c74000000000000000000000000000000000000006064820152608490fd5b919060a08382031261022257610772906080611aa660a0610c71565b94611ab18382610e7e565b8652611ac08360208301610e7e565b6020870152611ad28360408301610e7e565b6040870152611ae48360608301610e7e565b606087015201610e7e565b9060a0828203126102225761025d91611a8a565b5090611b16610f8a610f858460076102f6565b611b31611b2c6004610d2661025d8660066102f6565b611a18565b611b3a306102ed565b60a0611b4560405190565b7f59e65bb30000000000000000000000000000000000000000000000000000000081526001600160a01b038516600482015291829060249082905afa9081156110c157611b9d91604091600091611bc1575b50015190565b611baa610f5560006106ce565b14611bb55750611ec8565b905061025d60006106ce565b611be3915060a03d60a011611be9575b611bdb8183610c4a565b810190611aef565b38611b97565b503d611bd1565b61025d9060006119c2565b9061024791611c0c610ba982610b79565b90610bb891611ca1565b9061024791611bfb565b610247903390611fab565b611c3861155283836119a0565b15611c9a57611c5260016114a58460006119bc8682610b73565b611c66611c60611960339390565b916102ed565b917f2f8788117e7eff1d82e926ec794901d17c78024a50270940304540a733656f0d611c9160405190565b600090a4600190565b5050600090565b611cab82826119a0565b15611c9a57611cc460006114a584826119bc8682610b73565b611cd2611c60611960339390565b917ff6391f5c32d9c69d2a47ea670b442974b53935d1edc7fd64eb21e047a839171b611c9160405190565b611d05611ffc565b610247611d14600060026113b9565b7f5db9ee0a495bf2e6ff9c91a7834c1ba4fdd244a5e8aa4e537bd38aeae4b073aa611328336107f0565b610247611cfd565b611d4e611e1a565b610247611d5d600160026113b9565b7f62e78cea01bee320cd4e420270b5ea74000d11b0c9f74754ebdbfc544b05a258611328336107f0565b610247611d46565b611da8611da261025d9263ffffffff1690565b60e01b90565b6001600160e01b03191690565b6001600160a01b0390911681526040810192916102479160200152565b611e15600492611e0661024795611dec63a9059cbb611d8f565b92611df660405190565b9687946020860190815201611db5565b60208201810382520383610c4a565b612038565b611e226110c6565b611e2857565b6040517fd93c0665000000000000000000000000000000000000000000000000000000008152600490fd5b61025d60026106ce565b611e676001610315565b611e6f611e53565b908114611e8157610247906001611248565b6040517f3ee5aeb5000000000000000000000000000000000000000000000000000000008152600490fd5b61025d60016106ce565b610247611ec1611eac565b6001611248565b610e19611ed79161151b600090565b6020611ee260405190565b7f18160ddd00000000000000000000000000000000000000000000000000000000815291829060049082905afa9081611f8e575b50611f235760405161136e565b60405162461bcd60e51b815260206004820152602b60248201527f4665654d616e616765723a2061737365742072657472696576616c206e6f742060448201527f696d706c656d656e7465640000000000000000000000000000000000000000006064820152608490fd5b611fa69060203d6020116116bd576116ae8183610c4a565b611f16565b90611fb961155282846119a0565b611fc1575050565b610c12611fcd60405190565b9283927fe2517d3f00000000000000000000000000000000000000000000000000000000845260048401611db5565b6120076115526110c6565b61200d57565b6040517f8dfc202b000000000000000000000000000000000000000000000000000000008152600490fd5b906000602091612046600090565b50828151910182855af115610ef2573d60005190612067610f5560006106ce565b036120d95750612076816102ed565b3b612084610f5560006106ce565b145b61208d5750565b612099610c12916102ed565b6040519182917f5274afe7000000000000000000000000000000000000000000000000000000008352600483016001600160a01b03909116815260200190565b6120e6610f5560016106ce565b141561208656fea26469706673582212204d524e67f57d361548c361c6b0ab8101017e04dab9df6b40bb3ce5f8d1e90b3a64736f6c63430008160033",
  "linkReferences": {},
  "deployedLinkReferences": {}
}