{
  "_format": "hh-sol-artifact-1",
  "contractName": "SecurityEnhancements",
  "sourceName": "contracts/SecurityEnhancements.sol",
  "abi": [
    {
      "inputs": [],
      "stateMutability": "nonpayable",
      "type": "constructor"
    },
    {
      "inputs": [],
      "name": "AccessControlBadConfirmation",
      "type": "error"
    },
    {
      "inputs": [
        {
          "internalType": "address",
          "name": "account",
          "type": "address"
        },
        {
          "internalType": "bytes32",
          "name": "neededRole",
          "type": "bytes32"
        }
      ],
      "name": "AccessControlUnauthorizedAccount",
      "type": "error"
    },
    {
      "inputs": [],
      "name": "EnforcedPause",
      "type": "error"
    },
    {
      "inputs": [],
      "name": "ExpectedPause",
      "type": "error"
    },
    {
      "inputs": [],
      "name": "ReentrancyGuardReentrantCall",
      "type": "error"
    },
    {
      "anonymous": false,
      "inputs": [
        {
          "indexed": true,
          "internalType": "address",
          "name": "asset",
          "type": "address"
        },
        {
          "indexed": false,
          "internalType": "uint256",
          "name": "priceDropPercent",
          "type": "uint256"
        }
      ],
      "name": "CircuitBreakerTriggered",
      "type": "event"
    },
    {
      "anonymous": false,
      "inputs": [
        {
          "indexed": true,
          "internalType": "address",
          "name": "user",
          "type": "address"
        },
        {
          "indexed": true,
          "internalType": "address",
          "name": "token",
          "type": "address"
        },
        {
          "indexed": false,
          "internalType": "uint256",
          "name": "totalAmount",
          "type": "uint256"
        }
      ],
      "name": "GradualRedemptionInitiated",
      "type": "event"
    },
    {
      "anonymous": false,
      "inputs": [
        {
          "indexed": true,
          "internalType": "address",
          "name": "user",
          "type": "address"
        },
        {
          "indexed": true,
          "internalType": "bytes32",
          "name": "commitHash",
          "type": "bytes32"
        }
      ],
      "name": "MEVAttackPrevented",
      "type": "event"
    },
    {
      "anonymous": false,
      "inputs": [
        {
          "indexed": true,
          "internalType": "address",
          "name": "asset",
          "type": "address"
        },
        {
          "indexed": false,
          "internalType": "uint256",
          "name": "expectedPrice",
          "type": "uint256"
        },
        {
          "indexed": false,
          "internalType": "uint256",
          "name": "actualPrice",
          "type": "uint256"
        }
      ],
      "name": "OracleManipulationDetected",
      "type": "event"
    },
    {
      "anonymous": false,
      "inputs": [
        {
          "indexed": false,
          "internalType": "address",
          "name": "account",
          "type": "address"
        }
      ],
      "name": "Paused",
      "type": "event"
    },
    {
      "anonymous": false,
      "inputs": [
        {
          "indexed": true,
          "internalType": "address",
          "name": "asset",
          "type": "address"
        },
        {
          "indexed": false,
          "internalType": "uint256",
          "name": "price",
          "type": "uint256"
        },
        {
          "indexed": false,
          "internalType": "uint256",
          "name": "confidence",
          "type": "uint256"
        }
      ],
      "name": "PriceValidated",
      "type": "event"
    },
    {
      "anonymous": false,
      "inputs": [
        {
          "indexed": true,
          "internalType": "bytes32",
          "name": "role",
          "type": "bytes32"
        },
        {
          "indexed": true,
          "internalType": "bytes32",
          "name": "previousAdminRole",
          "type": "bytes32"
        },
        {
          "indexed": true,
          "internalType": "bytes32",
          "name": "newAdminRole",
          "type": "bytes32"
        }
      ],
      "name": "RoleAdminChanged",
      "type": "event"
    },
    {
      "anonymous": false,
      "inputs": [
        {
          "indexed": true,
          "internalType": "bytes32",
          "name": "role",
          "type": "bytes32"
        },
        {
          "indexed": true,
          "internalType": "address",
          "name": "account",
          "type": "address"
        },
        {
          "indexed": true,
          "internalType": "address",
          "name": "sender",
          "type": "address"
        }
      ],
      "name": "RoleGranted",
      "type": "event"
    },
    {
      "anonymous": false,
      "inputs": [
        {
          "indexed": true,
          "internalType": "bytes32",
          "name": "role",
          "type": "bytes32"
        },
        {
          "indexed": true,
          "internalType": "address",
          "name": "account",
          "type": "address"
        },
        {
          "indexed": true,
          "internalType": "address",
          "name": "sender",
          "type": "address"
        }
      ],
      "name": "RoleRevoked",
      "type": "event"
    },
    {
      "anonymous": false,
      "inputs": [
        {
          "indexed": false,
          "internalType": "address",
          "name": "account",
          "type": "address"
        }
      ],
      "name": "Unpaused",
      "type": "event"
    },
    {
      "inputs": [],
      "name": "DEFAULT_ADMIN_ROLE",
      "outputs": [
        {
          "internalType": "bytes32",
          "name": "",
          "type": "bytes32"
        }
      ],
      "stateMutability": "view",
      "type": "function"
    },
    {
      "inputs": [],
      "name": "GRADUAL_REDEMPTION_DAILY_LIMIT",
      "outputs": [
        {
          "internalType": "uint256",
          "name": "",
          "type": "uint256"
        }
      ],
      "stateMutability": "view",
      "type": "function"
    },
    {
      "inputs": [],
      "name": "MAX_COMMIT_BLOCKS",
      "outputs": [
        {
          "internalType": "uint256",
          "name": "",
          "type": "uint256"
        }
      ],
      "stateMutability": "view",
      "type": "function"
    },
    {
      "inputs": [],
      "name": "MAX_PRICE_DEVIATION",
      "outputs": [
        {
          "internalType": "uint256",
          "name": "",
          "type": "uint256"
        }
      ],
      "stateMutability": "view",
      "type": "function"
    },
    {
      "inputs": [],
      "name": "MIN_COMMIT_BLOCKS",
      "outputs": [
        {
          "internalType": "uint256",
          "name": "",
          "type": "uint256"
        }
      ],
      "stateMutability": "view",
      "type": "function"
    },
    {
      "inputs": [],
      "name": "ORACLE_MANAGER_ROLE",
      "outputs": [
        {
          "internalType": "bytes32",
          "name": "",
          "type": "bytes32"
        }
      ],
      "stateMutability": "view",
      "type": "function"
    },
    {
      "inputs": [],
      "name": "SECURITY_ADMIN_ROLE",
      "outputs": [
        {
          "internalType": "bytes32",
          "name": "",
          "type": "bytes32"
        }
      ],
      "stateMutability": "view",
      "type": "function"
    },
    {
      "inputs": [
        {
          "internalType": "address",
          "name": "asset",
          "type": "address"
        },
        {
          "internalType": "uint256",
          "name": "currentPrice",
          "type": "uint256"
        },
        {
          "internalType": "uint256",
          "name": "previousPrice",
          "type": "uint256"
        }
      ],
      "name": "checkCircuitBreaker",
      "outputs": [],
      "stateMutability": "nonpayable",
      "type": "function"
    },
    {
      "inputs": [
        {
          "internalType": "address",
          "name": "",
          "type": "address"
        }
      ],
      "name": "circuitBreakers",
      "outputs": [
        {
          "internalType": "uint256",
          "name": "triggerThreshold",
          "type": "uint256"
        },
        {
          "internalType": "uint256",
          "name": "cooldownPeriod",
          "type": "uint256"
        },
        {
          "internalType": "uint256",
          "name": "lastTriggerTime",
          "type": "uint256"
        },
        {
          "internalType": "bool",
          "name": "isTriggered",
          "type": "bool"
        },
        {
          "internalType": "bool",
          "name": "isEnabled",
          "type": "bool"
        }
      ],
      "stateMutability": "view",
      "type": "function"
    },
    {
      "inputs": [
        {
          "internalType": "bytes32",
          "name": "",
          "type": "bytes32"
        }
      ],
      "name": "commitReveals",
      "outputs": [
        {
          "internalType": "bytes32",
          "name": "commitment",
          "type": "bytes32"
        },
        {
          "internalType": "uint256",
          "name": "commitBlock",
          "type": "uint256"
        },
        {
          "internalType": "uint256",
          "name": "revealDeadline",
          "type": "uint256"
        },
        {
          "internalType": "bool",
          "name": "isRevealed",
          "type": "bool"
        },
        {
          "internalType": "bool",
          "name": "isExecuted",
          "type": "bool"
        }
      ],
      "stateMutability": "view",
      "type": "function"
    },
    {
      "inputs": [
        {
          "internalType": "bytes32",
          "name": "commitment",
          "type": "bytes32"
        }
      ],
      "name": "commitTransaction",
      "outputs": [],
      "stateMutability": "nonpayable",
      "type": "function"
    },
    {
      "inputs": [
        {
          "internalType": "address",
          "name": "asset",
          "type": "address"
        },
        {
          "internalType": "uint256",
          "name": "triggerThreshold",
          "type": "uint256"
        },
        {
          "internalType": "uint256",
          "name": "cooldownPeriod",
          "type": "uint256"
        }
      ],
      "name": "configureCircuitBreaker",
      "outputs": [],
      "stateMutability": "nonpayable",
      "type": "function"
    },
    {
      "inputs": [
        {
          "internalType": "address",
          "name": "asset",
          "type": "address"
        },
        {
          "internalType": "contract IPriceFeed",
          "name": "primaryOracle",
          "type": "address"
        },
        {
          "internalType": "contract IPriceFeed[]",
          "name": "backupOracles",
          "type": "address[]"
        },
        {
          "internalType": "uint256",
          "name": "maxDeviation",
          "type": "uint256"
        }
      ],
      "name": "configureOracle",
      "outputs": [],
      "stateMutability": "nonpayable",
      "type": "function"
    },
    {
      "inputs": [],
      "name": "emergencyPause",
      "outputs": [],
      "stateMutability": "nonpayable",
      "type": "function"
    },
    {
      "inputs": [],
      "name": "emergencyUnpause",
      "outputs": [],
      "stateMutability": "nonpayable",
      "type": "function"
    },
    {
      "inputs": [],
      "name": "executeGradualRedemption",
      "outputs": [],
      "stateMutability": "nonpayable",
      "type": "function"
    },
    {
      "inputs": [
        {
          "internalType": "bytes32",
          "name": "role",
          "type": "bytes32"
        }
      ],
      "name": "getRoleAdmin",
      "outputs": [
        {
          "internalType": "bytes32",
          "name": "",
          "type": "bytes32"
        }
      ],
      "stateMutability": "view",
      "type": "function"
    },
    {
      "inputs": [
        {
          "internalType": "address",
          "name": "asset",
          "type": "address"
        }
      ],
      "name": "getSecurePrice",
      "outputs": [
        {
          "internalType": "uint256",
          "name": "price",
          "type": "uint256"
        },
        {
          "internalType": "uint256",
          "name": "confidence",
          "type": "uint256"
        }
      ],
      "stateMutability": "view",
      "type": "function"
    },
    {
      "inputs": [
        {
          "internalType": "address",
          "name": "",
          "type": "address"
        }
      ],
      "name": "gradualRedemptions",
      "outputs": [
        {
          "internalType": "address",
          "name": "user",
          "type": "address"
        },
        {
          "internalType": "address",
          "name": "token",
          "type": "address"
        },
        {
          "internalType": "uint256",
          "name": "totalAmount",
          "type": "uint256"
        },
        {
          "internalType": "uint256",
          "name": "dailyLimit",
          "type": "uint256"
        },
        {
          "internalType": "uint256",
          "name": "completedAmount",
          "type": "uint256"
        },
        {
          "internalType": "uint256",
          "name": "startTime",
          "type": "uint256"
        },
        {
          "internalType": "uint256",
          "name": "lastRedemptionTime",
          "type": "uint256"
        },
        {
          "internalType": "bool",
          "name": "isActive",
          "type": "bool"
        }
      ],
      "stateMutability": "view",
      "type": "function"
    },
    {
      "inputs": [
        {
          "internalType": "bytes32",
          "name": "role",
          "type": "bytes32"
        },
        {
          "internalType": "address",
          "name": "account",
          "type": "address"
        }
      ],
      "name": "grantRole",
      "outputs": [],
      "stateMutability": "nonpayable",
      "type": "function"
    },
    {
      "inputs": [
        {
          "internalType": "bytes32",
          "name": "role",
          "type": "bytes32"
        },
        {
          "internalType": "address",
          "name": "account",
          "type": "address"
        }
      ],
      "name": "hasRole",
      "outputs": [
        {
          "internalType": "bool",
          "name": "",
          "type": "bool"
        }
      ],
      "stateMutability": "view",
      "type": "function"
    },
    {
      "inputs": [
        {
          "internalType": "address",
          "name": "token",
          "type": "address"
        },
        {
          "internalType": "uint256",
          "name": "totalAmount",
          "type": "uint256"
        }
      ],
      "name": "initiateGradualRedemption",
      "outputs": [],
      "stateMutability": "nonpayable",
      "type": "function"
    },
    {
      "inputs": [
        {
          "internalType": "address",
          "name": "",
          "type": "address"
        }
      ],
      "name": "lastSwapBlock",
      "outputs": [
        {
          "internalType": "uint256",
          "name": "",
          "type": "uint256"
        }
      ],
      "stateMutability": "view",
      "type": "function"
    },
    {
      "inputs": [
        {
          "internalType": "address",
          "name": "",
          "type": "address"
        }
      ],
      "name": "latestPrices",
      "outputs": [
        {
          "internalType": "uint256",
          "name": "price",
          "type": "uint256"
        },
        {
          "internalType": "uint256",
          "name": "timestamp",
          "type": "uint256"
        },
        {
          "internalType": "uint256",
          "name": "confidence",
          "type": "uint256"
        },
        {
          "internalType": "bool",
          "name": "isValid",
          "type": "bool"
        }
      ],
      "stateMutability": "view",
      "type": "function"
    },
    {
      "inputs": [],
      "name": "minBlockDelay",
      "outputs": [
        {
          "internalType": "uint256",
          "name": "",
          "type": "uint256"
        }
      ],
      "stateMutability": "view",
      "type": "function"
    },
    {
      "inputs": [
        {
          "internalType": "address",
          "name": "",
          "type": "address"
        }
      ],
      "name": "oracleConfigs",
      "outputs": [
        {
          "internalType": "contract IPriceFeed",
          "name": "primaryOracle",
          "type": "address"
        },
        {
          "internalType": "uint256",
          "name": "maxDeviation",
          "type": "uint256"
        },
        {
          "internalType": "uint256",
          "name": "updateThreshold",
          "type": "uint256"
        },
        {
          "internalType": "bool",
          "name": "isActive",
          "type": "bool"
        }
      ],
      "stateMutability": "view",
      "type": "function"
    },
    {
      "inputs": [],
      "name": "paused",
      "outputs": [
        {
          "internalType": "bool",
          "name": "",
          "type": "bool"
        }
      ],
      "stateMutability": "view",
      "type": "function"
    },
    {
      "inputs": [
        {
          "internalType": "bytes32",
          "name": "role",
          "type": "bytes32"
        },
        {
          "internalType": "address",
          "name": "callerConfirmation",
          "type": "address"
        }
      ],
      "name": "renounceRole",
      "outputs": [],
      "stateMutability": "nonpayable",
      "type": "function"
    },
    {
      "inputs": [
        {
          "internalType": "address",
          "name": "asset",
          "type": "address"
        }
      ],
      "name": "resetCircuitBreaker",
      "outputs": [],
      "stateMutability": "nonpayable",
      "type": "function"
    },
    {
      "inputs": [
        {
          "internalType": "uint256",
          "name": "amount",
          "type": "uint256"
        },
        {
          "internalType": "uint256",
          "name": "nonce",
          "type": "uint256"
        }
      ],
      "name": "revealAndExecute",
      "outputs": [],
      "stateMutability": "nonpayable",
      "type": "function"
    },
    {
      "inputs": [
        {
          "internalType": "bytes32",
          "name": "role",
          "type": "bytes32"
        },
        {
          "internalType": "address",
          "name": "account",
          "type": "address"
        }
      ],
      "name": "revokeRole",
      "outputs": [],
      "stateMutability": "nonpayable",
      "type": "function"
    },
    {
      "inputs": [
        {
          "internalType": "uint256",
          "name": "_minBlockDelay",
          "type": "uint256"
        }
      ],
      "name": "setMinBlockDelay",
      "outputs": [],
      "stateMutability": "nonpayable",
      "type": "function"
    },
    {
      "inputs": [
        {
          "internalType": "bytes4",
          "name": "interfaceId",
          "type": "bytes4"
        }
      ],
      "name": "supportsInterface",
      "outputs": [
        {
          "internalType": "bool",
          "name": "",
          "type": "bool"
        }
      ],
      "stateMutability": "view",
      "type": "function"
    },
    {
      "inputs": [],
      "name": "totalCircuitBreakerTriggers",
      "outputs": [
        {
          "internalType": "uint256",
          "name": "",
          "type": "uint256"
        }
      ],
      "stateMutability": "view",
      "type": "function"
    },
    {
      "inputs": [],
      "name": "totalMEVAttacksPrevented",
      "outputs": [
        {
          "internalType": "uint256",
          "name": "",
          "type": "uint256"
        }
      ],
      "stateMutability": "view",
      "type": "function"
    },
    {
      "inputs": [],
      "name": "totalOracleManipulationAttempts",
      "outputs": [
        {
          "internalType": "uint256",
          "name": "",
          "type": "uint256"
        }
      ],
      "stateMutability": "view",
      "type": "function"
    }
  ],
  "bytecode": "0x6080604052346200002657620000146200007a565b60405161285062000292823961285090f35b600080fd5b90600019905b9181191691161790565b6200004b6200004b6200004b9290565b90565b90620000626200004b6200006a926200003b565b82546200002b565b9055565b6200004b60006200003b565b6200008462000103565b62000092600160096200004e565b620000a8620000a06200006e565b3390620001ba565b50620000d47ff6e67e455c1170019df813a9dcb568f910c16426a5a6faffb00d325d6f118b67620000a0565b50620001007fced6982f480260bdd8ad5cb18ff2854f0306d78d904ad6cc107e8f3a0f526c18620000a0565b50565b6200010d6200011b565b565b6200004b60016200003b565b6200010d620001296200010f565b60016200004e565b906200013d906200004b565b600052602052604060002090565b6200004b9062000161906001600160a01b031682565b6001600160a01b031690565b6200004b906200014b565b6200004b906200016d565b906200013d9062000178565b9060ff9062000031565b151590565b90620001b26200004b6200006a9262000199565b82546200018f565b620001ce620001ca83836200026a565b1590565b156200025157620001fa6001620001f4846000620001ed868262000131565b0162000183565b6200019e565b6200021c620002156200020e33936200004b565b9362000178565b9162000178565b917f2f8788117e7eff1d82e926ec794901d17c78024a50270940304540a733656f0d6200024860405190565b600090a4600190565b5050600090565b60ff1690565b6200004b905462000258565b6200004b916000620001ed6200028b9362000283600090565b508262000131565b6200025e56fe6080604052600436101561001257600080fd5b60003560e01c806301ffc9a714610252578063034637991461024d578063067a4b06146102485780630edcce7e14610243578063248a9ca31461023e578063283a9d46146102395780632f2ff15d14610234578063307c9b951461022f57806336568abe1461022a5780633a4a15e5146102255780634a4e3bd51461022057806351858e271461021b578063567e9b6c14610216578063574f017e146102115780635c975abb1461020c5780636faca99a146102075780637afa85e8146102025780638773f3b3146101fd57806391d14854146101f85780639525006d146101f357806396f277b7146101ee5780639b3044fc146101e95780639eff0cfc146101e4578063a0287166146101df578063a030b388146101da578063a217fddf146101d5578063a58b615c146101d0578063b443a9e1146101cb578063b4bbec53146101c6578063be4afd88146101c1578063bfc69e1c146101bc578063c7a9a24f146101b7578063d547741f146101b2578063d73e1831146101ad578063e471753b146101a85763e99f5b800361025757610c39565b610c09565b610be4565b610bcb565b610bb3565b610b7a565b610b5e565b610a92565b610a27565b610a0f565b6109f4565b6109c9565b610994565b61094a565b61091c565b6108f5565b6108ca565b6108ae565b610893565b610847565b61082c565b610805565b6107ea565b6107a1565b6106c8565b6106b0565b610697565b61064e565b610633565b6105f3565b6105b5565b610589565b610531565b610469565b61030c565b6102b1565b600080fd5b7fffffffff0000000000000000000000000000000000000000000000000000000081165b0361025757565b905035906102948261025c565b565b90602082820312610257576102aa91610287565b90565b9052565b34610257576102de6102cc6102c7366004610296565b610c54565b60405191829182901515815260200190565b0390f35b600091031261025757565b6102aa6102aa6102aa9290565b6102aa60026102ed565b6102aa6102fa565b346102575761031c3660046102e2565b6102de610327610304565b6040515b9182918290815260200190565b6001600160a01b031690565b6001600160a01b038116610280565b9050359061029482610344565b90602082820312610257576102aa91610353565b6103386102aa6102aa926001600160a01b031690565b6102aa90610374565b6102aa9061038a565b906103a690610393565b600052602052604060002090565b6102aa90610338565b6102aa90546103b4565b6102aa9081565b6102aa90546103c7565b6102aa905b60ff1690565b6102aa90546103d8565b6103f890600361039c565b90610402826103bd565b9161040f600282016103ce565b916102aa6004610421600385016103ce565b93016103e3565b6102ad90610393565b6104616102949461045a606094989795610453608086019a6000870190610428565b6020850152565b6040830152565b019015159052565b34610257576102de61048461047f366004610360565b6103ed565b9061049194929460405190565b94859485610431565b6102aa9060081c6103dd565b6102aa905461049a565b6104bb90600761039c565b6104c4816103ce565b916104d1600183016103ce565b916104de600282016103ce565b916102aa60036104ef8185016103e3565b93016104a6565b90959492610294946105286104619261052160809661051a60a088019c6000890152565b6020870152565b6040850152565b15156060830152565b34610257576102de61054c610547366004610360565b6104b0565b9161055995939560405190565b958695866104f6565b80610280565b9050359061029482610562565b90602082820312610257576102aa91610568565b34610257576102de61032761059f366004610575565b610cf0565b906103a6565b6104bb9060056105a4565b34610257576102de61054c6105cb366004610575565b6105aa565b9190604083820312610257576102aa9060206105ec8286610568565b9401610353565b346102575761060c6106063660046105d0565b90610d32565b604051005b6102aa916008021c81565b906102aa9154610611565b6102aa6000600c61061c565b34610257576106433660046102e2565b6102de610327610627565b346102575761060c6106613660046105d0565b90610d3c565b9091606082840312610257576102aa6106808484610353565b9360406106908260208701610568565b9401610568565b346102575761060c6106aa366004610667565b91610f4a565b34610257576106c03660046102e2565b61060c610f8a565b34610257576106d83660046102e2565b61060c610fc6565b6106eb90600661039c565b906106f5826103bd565b91610702600182016103bd565b9161070f600283016103ce565b9161071c600382016103ce565b91610729600483016103ce565b91610736600582016103ce565b916102aa6007610421600685016103ce565b959391989796949290986101008701996000880161076d916001600160a01b03169052565b6001600160a01b0316602087015260408601526060850152608084015260a083015260c082015260e0016102949115159052565b34610257576102de6107bc6107b7366004610360565b6106e0565b946107cf98969894919493929360405190565b98899889610748565b6102aa600a6102ed565b6102aa6107d8565b34610257576107fa3660046102e2565b6102de6103276107e2565b34610257576108153660046102e2565b6102de6102cc610fce565b6102aa6000600b61061c565b346102575761083c3660046102e2565b6102de610327610820565b34610257576108573660046102e2565b6102de7ff6e67e455c1170019df813a9dcb568f910c16426a5a6faffb00d325d6f118b67610327565b6102aa6103e86102ed565b6102aa610880565b34610257576108a33660046102e2565b6102de61032761088b565b34610257576102de6102cc6108c43660046105d0565b90610fd8565b34610257576108da3660046102e2565b61060c6111ed565b6102aa6101f46102ed565b6102aa6108e2565b34610257576109053660046102e2565b6102de6103276108ed565b6102aa6000600a61061c565b346102575761092c3660046102e2565b6102de610327610910565b9081526040810192916102949160200152565b346102575761096261095d366004610360565b611458565b906102de61096f60405190565b92839283610937565b9190604083820312610257576102aa9060206106908286610353565b346102575761060c6109a7366004610978565b90611abc565b9190604083820312610257576102aa9060206106908286610568565b346102575761060c6109dc3660046109ad565b90611d28565b6102aa60006102ed565b6102aa6109e2565b3461025757610a043660046102e2565b6102de6103276109ec565b346102575761060c610a22366004610360565b611e53565b346102575761060c610a3a366004610575565b611f18565b610a4a90600461039c565b90610a54826103ce565b91610a61600182016103ce565b916102aa6003610421600285016103ce565b6104616102949461045a606094989795610453608086019a6000870152565b34610257576102de610aad610aa8366004610360565b610a3f565b90610aba94929460405190565b94859485610a73565b610280816103b4565b9050359061029482610ac3565b909182601f830112156102575781359167ffffffffffffffff831161025757602001926020830284011161025757565b91909160808184031261025757610b208382610353565b92610b2e8160208401610acc565b92604083013567ffffffffffffffff81116102575782610b556060946102aa938701610ad9565b94909501610568565b346102575761060c610b71366004610b09565b939290926121a8565b3461025757610b8a3660046102e2565b6102de7fced6982f480260bdd8ad5cb18ff2854f0306d78d904ad6cc107e8f3a0f526c18610327565b346102575761060c610bc6366004610575565b61239f565b346102575761060c610bde3660046105d0565b906123c3565b346102575761060c610bf7366004610667565b91612506565b6102aa6000600961061c565b3461025757610c193660046102e2565b6102de610327610bfd565b6000610c346102aa92600861039c565b61061c565b34610257576102de610327610c4f366004610360565b610c24565b7f7965db0b000000000000000000000000000000000000000000000000000000007fffffffff00000000000000000000000000000000000000000000000000000000821614908115610ca4575090565b6102aa91507fffffffff00000000000000000000000000000000000000000000000000000000167f01ffc9a7000000000000000000000000000000000000000000000000000000001490565b6001610d096102aa92610d01600090565b5060006105a4565b016103ce565b9061029491610d25610d2082610cf0565b612511565b90610d2f9161251c565b50565b9061029491610d0f565b90610d4633610338565b6001600160a01b03821603610d5e57610d2f91612592565b6040517f6697b232000000000000000000000000000000000000000000000000000000008152600490fd5b0390fd5b610294929190610dbc7ff6e67e455c1170019df813a9dcb568f910c16426a5a6faffb00d325d6f118b67612511565b610f08565b634e487b7160e01b600052604160045260246000fd5b90601f01601f1916810190811067ffffffffffffffff821117610df957604052565b610dc1565b90610294610e0b60405190565b9283610dd7565b6102aa60a0610dfe565b90600019905b9181191691161790565b90610e3c6102aa610e43926102ed565b8254610e1c565b9055565b9060ff90610e22565b90610e606102aa610e4392151590565b8254610e47565b9061ff009060081b610e22565b90610e846102aa610e4392151590565b8254610e67565b90610ef86080600361029494610eab610ea5600087015190565b82610e2c565b610ec2610eb9602087015190565b60018301610e2c565b610ed9610ed0604087015190565b60028301610e2c565b0192610ef1610eeb6060830151151590565b85610e50565b0151151590565b90610e74565b9061029491610e8b565b610f4590610f2361029494610453610f1e610e12565b958652565b610f3061052160006102ed565b6000606084015260016080840152600761039c565b610efe565b906102949291610d8d565b610f7e7ff6e67e455c1170019df813a9dcb568f910c16426a5a6faffb00d325d6f118b67612511565b6102945b61029461264a565b610294610f55565b610fbb7ff6e67e455c1170019df813a9dcb568f910c16426a5a6faffb00d325d6f118b67612511565b610294610294612693565b610294610f92565b6102aa60026103e3565b6102aa916000610ff4610ffa93610fed600090565b50826105a4565b0161039c565b6103e3565b61100761269b565b61100f611017565b6102946126f4565b61101f612706565b6102946110f8565b0190565b1561103257565b60405162461bcd60e51b815260206004820152601460248201527f4e6f2061637469766520726564656d7074696f6e0000000000000000000000006044820152606490fd5b634e487b7160e01b600052601160045260246000fd5b9190820180921161109a57565b611077565b156110a657565b60405162461bcd60e51b815260206004820152601960248201527f4461696c79206c696d6974206e6f7420726573657420796574000000000000006044820152606490fd5b9190820391821161109a57565b6111066102aa33600661039c565b600781019061111c611117836103e3565b61102b565b6111d36111cf6102aa6111c960068501946111596111516102aa61113f896103ce565b61114b620151806102ed565b9061108d565b42101561109f565b6111c460028201966111bd6111b76111708a6103ce565b94600361118a6004830197611184896103ce565b906110eb565b91016111986102aa826103ce565b8211156111e7576111a991506103ce565b6111b2866103ce565b61108d565b84610e2c565b4290610e2c565b6103ce565b936103ce565b9190565b10156111dc5750565b600061029491610e50565b506111a9565b610294610fff565b156111fc57565b60405162461bcd60e51b815260206004820152601f60248201527f4f7261636c65206e6f7420636f6e6669677572656420666f72206173736574006044820152606490fd5b63ffffffff8116610280565b9050519061029482611241565b90602082820312610257576102aa9161124d565b6040513d6000823e3d90fd5b6112876102aa6102aa9290565b63ffffffff1690565b1561129757565b60405162461bcd60e51b815260206004820152602660248201527f4173736574206e6f74207265676973746572656420696e206f7261636c65206d60448201527f616e6167657200000000000000000000000000000000000000000000000000006064820152608490fd5b9050519061029482610562565b90602082820312610257576102aa91611302565b1561132a57565b60405162461bcd60e51b815260206004820152601560248201527f496e76616c6964207072696d61727920707269636500000000000000000000006044820152606490fd5b634e487b7160e01b600052603260045260246000fd5b80548210156113a85761139f600191600052602060002090565b91020190600090565b61136f565b6102aa916008021c610338565b906102aa91546113ad565b600019811461109a5760010190565b634e487b7160e01b600052601260045260246000fd5b81156113f4570490565b6113d4565b8181029291811591840414171561109a57565b1561141357565b60405162461bcd60e51b815260206004820152601860248201527f507269636520636f6e666964656e636520746f6f206c6f7700000000000000006044820152606490fd5b906114d990602061146d6102aa85600361039c565b9361148261147d600487016103e3565b6111f5565b6114956114908080886103bd565b610393565b604051948592839182917f39e59945000000000000000000000000000000000000000000000000000000008352600483016001600160a01b03909116815260200190565b03915afa91821561176057600092611765575b5060009261150a6114fc8561127a565b63ffffffff85161415611290565b6115186114908583016103bd565b9263da26663a602061152960405190565b80966115358460e01b90565b825263ffffffff8516600483015260249082905afa94851561176057869561173f575b5061156c611565876102ed565b8611611323565b600183015461157d6111cf886102ed565b1461172f5760019461158e866102ed565b96879382938861159d846102ed565b905b611601575b50505050509361114b6115dc826115d66115c56115e2966115e8999a6113ea565b996115d060646102ed565b906113f9565b95015490565b916102ed565b906113ea565b90610294826115fa6111cf603c6102ed565b101561140c565b89880161160f6102aa825490565b821015611729579061163261149061162c838e9998979695611385565b906113ba565b602061163d60405190565b80926116498660e01b90565b825263ffffffff8716600483015260249082905afa8591816116f9575b5061167a57506001015b909192939461159f565b611683856102ed565b8111611693575b50600101611670565b856116a7929496989950819395975061273f565b6116b96111cf6102aa60028c016103ce565b11156116ce575b918a969593918a959361168a565b916116eb6116e58b96946116709d9896949961108d565b966113c5565b9a50919395909294956116c0565b61171b91925060203d8111611722575b6117138183610dd7565b81019061130f565b9038611666565b503d611709565b506115a4565b5050509150906102aa60326102ed565b61175991955060203d602011611722576117138183610dd7565b9338611558565b61126e565b61178891925060203d60201161178f575b6117808183610dd7565b81019061125a565b90386114ec565b503d611776565b9061100f916117a361269b565b90610294916117b0612706565b611996565b156117bc57565b60405162461bcd60e51b815260206004820152600e60248201527f496e76616c696420616d6f756e740000000000000000000000000000000000006044820152606490fd5b1561180857565b60405162461bcd60e51b815260206004820152601960248201527f526564656d7074696f6e20616c726561647920616374697665000000000000006044820152606490fd5b1561185457565b60405162461bcd60e51b815260206004820152601560248201527f4461696c79206c696d697420746f6f20736d616c6c00000000000000000000006044820152606490fd5b6102aa610100610dfe565b906001600160a01b0390610e22565b906118c36102aa610e4392610393565b82546118a4565b600761198560e0610294946118f26118ec60008301516001600160a01b031690565b866118b3565b61191261190960208301516001600160a01b031690565b600187016118b3565b611929611920604083015190565b60028701610e2c565b611940611937606083015190565b60038701610e2c565b61195761194e608083015190565b60048701610e2c565b61196e61196560a083015190565b60058701610e2c565b610ef161197c60c083015190565b60068701610e2c565b9101610e50565b90610294916118ca565b611a7760006119ae6119a7826102ed565b85116117b5565b6119d36119ce6119ca60076119c433600661039c565b016103e3565b1590565b611801565b611a60611a436119f86119ed6119e7610880565b886113f9565b6115e26127106102ed565b92611a0c611a05826102ed565b851161184d565b611a3e611a17611899565b3383820152946001600160a01b0388166020870152611a37896040880152565b6060860152565b6102ed565b611a4e816080850152565b611a594260a0850152565b60c0830152565b600160e0820152611a7233600661039c565b61198c565b7fffdb940d14c833b15998d70d87d20a79d4019744e96a474a3b17e9896d118f47611ab7611aad611aa733610393565b93610393565b9361032b60405190565b0390a3565b9061029491611796565b9061100f91611ad361269b565b9061029491611ae0612706565b611c36565b6102ad906001600160a01b031660601b90565b01918252565b018092611ae5565b15611b0d57565b60405162461bcd60e51b815260206004820152601260248201527f496e76616c696420636f6d6d69746d656e7400000000000000000000000000006044820152606490fd5b15611b5957565b60405162461bcd60e51b815260206004820152601060248201527f416c72656164792072657665616c6564000000000000000000000000000000006044820152606490fd5b15611ba557565b60405162461bcd60e51b815260206004820152601660248201527f52657665616c20646561646c696e6520706173736564000000000000000000006044820152606490fd5b15611bf157565b60405162461bcd60e51b815260206004820152601060248201527f52657665616c20746f6f206561726c79000000000000000000000000000000006044820152606490fd5b611c9a6102aa611c74611c8060019461029496611c5260405190565b938492602084019233918460149392611afe602083611af88295611027979052565b90810382520382610dd7565b611c92611c8b825190565b9160200190565b2060056105a4565b611d04611cfc6102aa611cf4858501611cc8611cb5826103ce565b611cc26111cf60006102ed565b11611b06565b6111c4611cec6102aa600260038a0199610d09611ce76119ca8d6103e3565b611b52565b431115611b9e565b61114b6102fa565b431015611bea565b611d0e8282610e50565b611d23611d1c33600861039c565b4390610e2c565b610e74565b9061029491611ac6565b61029490611d5f7ff6e67e455c1170019df813a9dcb568f910c16426a5a6faffb00d325d6f118b67612511565b611dfc565b15611d6b57565b60405162461bcd60e51b815260206004820152601d60248201527f4369726375697420627265616b6572206e6f74207472696767657265640000006044820152606490fd5b15611db757565b60405162461bcd60e51b815260206004820152601c60248201527f436f6f6c646f776e20706572696f64206e6f742066696e6973686564000000006044820152606490fd5b6000611e0f6102aa610f8293600761039c565b611e4e611e466102aa6003840193611e2e611e29866103e3565b611d64565b61114b6001611e3f600284016103ce565b92016103ce565b421015611db0565b610e50565b61029490611d32565b61029490611e897ff6e67e455c1170019df813a9dcb568f910c16426a5a6faffb00d325d6f118b67612511565b611eda565b15611e9557565b60405162461bcd60e51b815260206004820152601360248201527f496e76616c696420626c6f636b2064656c6179000000000000000000000000006044820152606490fd5b61029490611ee860006102ed565b811180611f00575b611ef990611e8e565b6009610e2c565b50611ef9611f0e60056102ed565b8211159050611ef0565b61029490611e5c565b6102949493929190611f527fced6982f480260bdd8ad5cb18ff2854f0306d78d904ad6cc107e8f3a0f526c18612511565b612155565b906102ad906103b4565b67ffffffffffffffff8111610df95760208091020190565b90929192611f8e611f8982611f61565b610dfe565b938185526020808601920283019281841161025757915b838310611fb25750505050565b60208091611fc08486610acc565b815201920191611fa5565b6102aa913691611f79565b6102aa90516103b4565b9160001960089290920291821b911b610e22565b91906120056102aa610e43936102ed565b908354611fe0565b61029491600091611ff4565b818110612024575050565b80612032600060019361200d565b01612019565b91909182821061204757505050565b610294929161205c9091600052602060002090565b9182019101612019565b90680100000000000000008111610df95781612083610294935490565b90828155612038565b81519167ffffffffffffffff8311610df9576120c36120b76001926120b18686612066565b60200190565b92600052602060002090565b92049160005b8381106120d65750505050565b60019060206120e76102aa86611fd6565b94019381840155016120c9565b906102949161208c565b60046119856080610294946121186118ec60008301611fd6565b61212f612126602083015190565b600187016120f4565b61213d611920604083015190565b610ef1611937606083015190565b90610294916120fe565b90926102949461052161051a612180936121a39661217b612174610e12565b998a611f57565b611fcb565b61219561218e61012c6102ed565b6060850152565b60016080840152600361039c565b61214b565b9061029494939291611f21565b61100f906121c161269b565b610294906121cd612706565b6122a2565b156121d957565b60405162461bcd60e51b815260206004820152601960248201527f436f6d6d69746d656e7420616c726561647920657869737473000000000000006044820152606490fd5b1561222557565b60405162461bcd60e51b815260206004820152601960248201527f546f6f206672657175656e74207472616e73616374696f6e73000000000000006044820152606490fd5b90610e3c6102aa610e439290565b90610ef86080600361029494610eab612292600087015190565b8261226a565b9061029491612278565b61236160006122be6122b66102aa836102ed565b841415611b06565b6122e36122d16001610d098660056105a4565b6122dd6111cf846102ed565b146121d2565b61230b6123046102aa6122fa6111c433600861039c565b61114b60096103ce565b431161221e565b61235161231f6123196107d8565b4361108d565b9161234161232b610e12565b936123368784870152565b610521436020870152565b1515606083018190526080830152565b61235c8360056105a4565b612298565b61236d6111cf33610393565b907fc9763c50eba8565057526c638d8d974e124c94c21e277355fc9f9c714f292ea761239860405190565b8080611ab7565b610294906121b5565b90610294916123b9610d2082610cf0565b90610d2f91612592565b90610294916123a8565b6102949291906123fc7ff6e67e455c1170019df813a9dcb568f910c16426a5a6faffb00d325d6f118b67612511565b909161240c6102aa83600761039c565b92600384019161241e6119ca846104a6565b80156124f7575b61243a5761243360006102ed565b8111612441575b5050505050565b61245c61245161246193836110eb565b6115d06127106102ed565b6113ea565b9261246e6102aa826103ce565b84101561247c575b8061243a565b7f208173a32f19abb9d59872fae2b8fe5ab46c53c8134e838c84315d545030d03a926124bd6124e1926124b360016124eb96610e50565b6002429101610e2c565b6124d96124d26124cd600c6103ce565b6113c5565b600c610e2c565b611490612693565b9261032b60405190565b0390a238808080612476565b50612501836103e3565b612425565b9061029492916123cd565b61029490339061278d565b6125296119ca8383610fd8565b1561258b576125436001611e4e846000610ff486826105a4565b612557612551611aa7339390565b91610393565b917f2f8788117e7eff1d82e926ec794901d17c78024a50270940304540a733656f0d61258260405190565b600090a4600190565b5050600090565b61259c8282610fd8565b1561258b576125b56000611e4e8482610ff486826105a4565b6125c3612551611aa7339390565b917ff6391f5c32d9c69d2a47ea670b442974b53935d1edc7fd64eb21e047a839171b61258260405190565b6125f66127de565b61029461260560006002610e50565b7f5db9ee0a495bf2e6ff9c91a7834c1ba4fdd244a5e8aa4e537bd38aeae4b073aa612645335b604051918291826001600160a01b03909116815260200190565b0390a1565b6102946125ee565b61265a612706565b61029461266960016002610e50565b7f62e78cea01bee320cd4e420270b5ea74000d11b0c9f74754ebdbfc544b05a2586126453361262b565b610294612652565b6126a560016103ce565b6126ad6102fa565b9081146126bf57610294906001610e2c565b6040517f3ee5aeb5000000000000000000000000000000000000000000000000000000008152600490fd5b6102aa60016102ed565b6102946126ff6126ea565b6001610e2c565b61270e610fce565b61271457565b6040517fd93c0665000000000000000000000000000000000000000000000000000000008152600490fd5b61245c6102aa9261274e600090565b5082818111156127625790612451916110eb565b61276b916110eb565b612451565b6001600160a01b0390911681526040810192916102949160200152565b9061279b6119ca8284610fd8565b6127a3575050565b610d896127af60405190565b9283927fe2517d3f00000000000000000000000000000000000000000000000000000000845260048401612770565b6127e96119ca610fce565b6127ef57565b6040517f8dfc202b000000000000000000000000000000000000000000000000000000008152600490fdfea26469706673582212200980e9166d1af2555e9b2881bcf98745b93221bb976a69e03defb28de47cbd7464736f6c63430008160033",
  "linkReferences": {},
  "deployedLinkReferences": {}
}