{
  "_format": "hh-sol-artifact-1",
  "contractName": "HyperIndexToken",
  "sourceName": "contracts/HyperIndexToken.SECURE.sol",
  "abi": [
    {
      "inputs": [],
      "stateMutability": "nonpayable",
      "type": "constructor"
    },
    {
      "inputs": [],
      "name": "ComponentAlreadyExists",
      "type": "error"
    },
    {
      "inputs": [],
      "name": "ComponentNotFound",
      "type": "error"
    },
    {
      "inputs": [
        {
          "internalType": "address",
          "name": "spender",
          "type": "address"
        },
        {
          "internalType": "uint256",
          "name": "allowance",
          "type": "uint256"
        },
        {
          "internalType": "uint256",
          "name": "needed",
          "type": "uint256"
        }
      ],
      "name": "ERC20InsufficientAllowance",
      "type": "error"
    },
    {
      "inputs": [
        {
          "internalType": "address",
          "name": "sender",
          "type": "address"
        },
        {
          "internalType": "uint256",
          "name": "balance",
          "type": "uint256"
        },
        {
          "internalType": "uint256",
          "name": "needed",
          "type": "uint256"
        }
      ],
      "name": "ERC20InsufficientBalance",
      "type": "error"
    },
    {
      "inputs": [
        {
          "internalType": "address",
          "name": "approver",
          "type": "address"
        }
      ],
      "name": "ERC20InvalidApprover",
      "type": "error"
    },
    {
      "inputs": [
        {
          "internalType": "address",
          "name": "receiver",
          "type": "address"
        }
      ],
      "name": "ERC20InvalidReceiver",
      "type": "error"
    },
    {
      "inputs": [
        {
          "internalType": "address",
          "name": "sender",
          "type": "address"
        }
      ],
      "name": "ERC20InvalidSender",
      "type": "error"
    },
    {
      "inputs": [
        {
          "internalType": "address",
          "name": "spender",
          "type": "address"
        }
      ],
      "name": "ERC20InvalidSpender",
      "type": "error"
    },
    {
      "inputs": [],
      "name": "EnforcedPause",
      "type": "error"
    },
    {
      "inputs": [],
      "name": "ExpectedPause",
      "type": "error"
    },
    {
      "inputs": [],
      "name": "InvalidOracleAddress",
      "type": "error"
    },
    {
      "inputs": [],
      "name": "InvalidSymbol",
      "type": "error"
    },
    {
      "inputs": [],
      "name": "InvalidWeight",
      "type": "error"
    },
    {
      "inputs": [],
      "name": "OracleNotFunctional",
      "type": "error"
    },
    {
      "inputs": [
        {
          "internalType": "address",
          "name": "owner",
          "type": "address"
        }
      ],
      "name": "OwnableInvalidOwner",
      "type": "error"
    },
    {
      "inputs": [
        {
          "internalType": "address",
          "name": "account",
          "type": "address"
        }
      ],
      "name": "OwnableUnauthorizedAccount",
      "type": "error"
    },
    {
      "inputs": [],
      "name": "ReentrancyGuardReentrantCall",
      "type": "error"
    },
    {
      "inputs": [],
      "name": "StalePriceData",
      "type": "error"
    },
    {
      "inputs": [],
      "name": "TooManyComponents",
      "type": "error"
    },
    {
      "inputs": [],
      "name": "ZeroWeightSum",
      "type": "error"
    },
    {
      "anonymous": false,
      "inputs": [
        {
          "indexed": true,
          "internalType": "address",
          "name": "owner",
          "type": "address"
        },
        {
          "indexed": true,
          "internalType": "address",
          "name": "spender",
          "type": "address"
        },
        {
          "indexed": false,
          "internalType": "uint256",
          "name": "value",
          "type": "uint256"
        }
      ],
      "name": "Approval",
      "type": "event"
    },
    {
      "anonymous": false,
      "inputs": [
        {
          "indexed": true,
          "internalType": "string",
          "name": "symbol",
          "type": "string"
        },
        {
          "indexed": true,
          "internalType": "address",
          "name": "priceFeed",
          "type": "address"
        },
        {
          "indexed": false,
          "internalType": "uint256",
          "name": "weight",
          "type": "uint256"
        }
      ],
      "name": "ComponentAdded",
      "type": "event"
    },
    {
      "anonymous": false,
      "inputs": [
        {
          "indexed": true,
          "internalType": "string",
          "name": "symbol",
          "type": "string"
        }
      ],
      "name": "ComponentRemoved",
      "type": "event"
    },
    {
      "anonymous": false,
      "inputs": [
        {
          "indexed": true,
          "internalType": "string",
          "name": "symbol",
          "type": "string"
        },
        {
          "indexed": false,
          "internalType": "uint256",
          "name": "newWeight",
          "type": "uint256"
        }
      ],
      "name": "ComponentUpdated",
      "type": "event"
    },
    {
      "anonymous": false,
      "inputs": [
        {
          "indexed": true,
          "internalType": "address",
          "name": "pauser",
          "type": "address"
        },
        {
          "indexed": false,
          "internalType": "uint256",
          "name": "timestamp",
          "type": "uint256"
        }
      ],
      "name": "EmergencyPause",
      "type": "event"
    },
    {
      "anonymous": false,
      "inputs": [
        {
          "indexed": false,
          "internalType": "uint256",
          "name": "newPrice",
          "type": "uint256"
        },
        {
          "indexed": false,
          "internalType": "uint256",
          "name": "timestamp",
          "type": "uint256"
        }
      ],
      "name": "IndexPriceUpdated",
      "type": "event"
    },
    {
      "anonymous": false,
      "inputs": [
        {
          "indexed": true,
          "internalType": "address",
          "name": "previousOwner",
          "type": "address"
        },
        {
          "indexed": true,
          "internalType": "address",
          "name": "newOwner",
          "type": "address"
        }
      ],
      "name": "OwnershipTransferred",
      "type": "event"
    },
    {
      "anonymous": false,
      "inputs": [
        {
          "indexed": false,
          "internalType": "address",
          "name": "account",
          "type": "address"
        }
      ],
      "name": "Paused",
      "type": "event"
    },
    {
      "anonymous": false,
      "inputs": [
        {
          "indexed": true,
          "internalType": "address",
          "name": "from",
          "type": "address"
        },
        {
          "indexed": true,
          "internalType": "address",
          "name": "to",
          "type": "address"
        },
        {
          "indexed": false,
          "internalType": "uint256",
          "name": "value",
          "type": "uint256"
        }
      ],
      "name": "Transfer",
      "type": "event"
    },
    {
      "anonymous": false,
      "inputs": [
        {
          "indexed": false,
          "internalType": "address",
          "name": "account",
          "type": "address"
        }
      ],
      "name": "Unpaused",
      "type": "event"
    },
    {
      "inputs": [],
      "name": "MAX_COMPONENTS",
      "outputs": [
        {
          "internalType": "uint256",
          "name": "",
          "type": "uint256"
        }
      ],
      "stateMutability": "view",
      "type": "function"
    },
    {
      "inputs": [],
      "name": "MAX_STALENESS",
      "outputs": [
        {
          "internalType": "uint256",
          "name": "",
          "type": "uint256"
        }
      ],
      "stateMutability": "view",
      "type": "function"
    },
    {
      "inputs": [],
      "name": "MAX_WEIGHT",
      "outputs": [
        {
          "internalType": "uint256",
          "name": "",
          "type": "uint256"
        }
      ],
      "stateMutability": "view",
      "type": "function"
    },
    {
      "inputs": [],
      "name": "MIN_WEIGHT",
      "outputs": [
        {
          "internalType": "uint256",
          "name": "",
          "type": "uint256"
        }
      ],
      "stateMutability": "view",
      "type": "function"
    },
    {
      "inputs": [],
      "name": "PRICE_DECIMALS",
      "outputs": [
        {
          "internalType": "uint256",
          "name": "",
          "type": "uint256"
        }
      ],
      "stateMutability": "view",
      "type": "function"
    },
    {
      "inputs": [
        {
          "internalType": "string",
          "name": "symbol",
          "type": "string"
        },
        {
          "internalType": "address",
          "name": "priceFeed",
          "type": "address"
        },
        {
          "internalType": "uint256",
          "name": "weight",
          "type": "uint256"
        }
      ],
      "name": "addComponent",
      "outputs": [],
      "stateMutability": "nonpayable",
      "type": "function"
    },
    {
      "inputs": [
        {
          "internalType": "address",
          "name": "owner",
          "type": "address"
        },
        {
          "internalType": "address",
          "name": "spender",
          "type": "address"
        }
      ],
      "name": "allowance",
      "outputs": [
        {
          "internalType": "uint256",
          "name": "",
          "type": "uint256"
        }
      ],
      "stateMutability": "view",
      "type": "function"
    },
    {
      "inputs": [
        {
          "internalType": "address",
          "name": "spender",
          "type": "address"
        },
        {
          "internalType": "uint256",
          "name": "value",
          "type": "uint256"
        }
      ],
      "name": "approve",
      "outputs": [
        {
          "internalType": "bool",
          "name": "",
          "type": "bool"
        }
      ],
      "stateMutability": "nonpayable",
      "type": "function"
    },
    {
      "inputs": [
        {
          "internalType": "address",
          "name": "account",
          "type": "address"
        }
      ],
      "name": "balanceOf",
      "outputs": [
        {
          "internalType": "uint256",
          "name": "",
          "type": "uint256"
        }
      ],
      "stateMutability": "view",
      "type": "function"
    },
    {
      "inputs": [],
      "name": "batchOracleHealthCheck",
      "outputs": [
        {
          "internalType": "string[]",
          "name": "symbols",
          "type": "string[]"
        },
        {
          "internalType": "bool[]",
          "name": "isHealthy",
          "type": "bool[]"
        },
        {
          "internalType": "uint256[]",
          "name": "lastUpdated",
          "type": "uint256[]"
        }
      ],
      "stateMutability": "view",
      "type": "function"
    },
    {
      "inputs": [
        {
          "internalType": "uint256",
          "name": "",
          "type": "uint256"
        }
      ],
      "name": "componentSymbols",
      "outputs": [
        {
          "internalType": "string",
          "name": "",
          "type": "string"
        }
      ],
      "stateMutability": "view",
      "type": "function"
    },
    {
      "inputs": [
        {
          "internalType": "string",
          "name": "",
          "type": "string"
        }
      ],
      "name": "components",
      "outputs": [
        {
          "internalType": "contract AggregatorV3Interface",
          "name": "priceFeed",
          "type": "address"
        },
        {
          "internalType": "uint256",
          "name": "weight",
          "type": "uint256"
        },
        {
          "internalType": "bool",
          "name": "isActive",
          "type": "bool"
        },
        {
          "internalType": "uint256",
          "name": "lastUpdateTime",
          "type": "uint256"
        }
      ],
      "stateMutability": "view",
      "type": "function"
    },
    {
      "inputs": [],
      "name": "decimals",
      "outputs": [
        {
          "internalType": "uint8",
          "name": "",
          "type": "uint8"
        }
      ],
      "stateMutability": "view",
      "type": "function"
    },
    {
      "inputs": [],
      "name": "getComponentCount",
      "outputs": [
        {
          "internalType": "uint256",
          "name": "",
          "type": "uint256"
        }
      ],
      "stateMutability": "view",
      "type": "function"
    },
    {
      "inputs": [],
      "name": "getComponentSymbols",
      "outputs": [
        {
          "internalType": "string[]",
          "name": "",
          "type": "string[]"
        }
      ],
      "stateMutability": "view",
      "type": "function"
    },
    {
      "inputs": [],
      "name": "getCurrentPrice",
      "outputs": [
        {
          "internalType": "uint256",
          "name": "price",
          "type": "uint256"
        }
      ],
      "stateMutability": "view",
      "type": "function"
    },
    {
      "inputs": [
        {
          "internalType": "string",
          "name": "symbol",
          "type": "string"
        }
      ],
      "name": "isOracleDataFresh",
      "outputs": [
        {
          "internalType": "bool",
          "name": "",
          "type": "bool"
        }
      ],
      "stateMutability": "view",
      "type": "function"
    },
    {
      "inputs": [],
      "name": "name",
      "outputs": [
        {
          "internalType": "string",
          "name": "",
          "type": "string"
        }
      ],
      "stateMutability": "view",
      "type": "function"
    },
    {
      "inputs": [],
      "name": "owner",
      "outputs": [
        {
          "internalType": "address",
          "name": "",
          "type": "address"
        }
      ],
      "stateMutability": "view",
      "type": "function"
    },
    {
      "inputs": [],
      "name": "pause",
      "outputs": [],
      "stateMutability": "nonpayable",
      "type": "function"
    },
    {
      "inputs": [],
      "name": "paused",
      "outputs": [
        {
          "internalType": "bool",
          "name": "",
          "type": "bool"
        }
      ],
      "stateMutability": "view",
      "type": "function"
    },
    {
      "inputs": [
        {
          "internalType": "string",
          "name": "symbol",
          "type": "string"
        }
      ],
      "name": "removeComponent",
      "outputs": [],
      "stateMutability": "nonpayable",
      "type": "function"
    },
    {
      "inputs": [],
      "name": "renounceOwnership",
      "outputs": [],
      "stateMutability": "nonpayable",
      "type": "function"
    },
    {
      "inputs": [],
      "name": "symbol",
      "outputs": [
        {
          "internalType": "string",
          "name": "",
          "type": "string"
        }
      ],
      "stateMutability": "view",
      "type": "function"
    },
    {
      "inputs": [],
      "name": "totalSupply",
      "outputs": [
        {
          "internalType": "uint256",
          "name": "",
          "type": "uint256"
        }
      ],
      "stateMutability": "view",
      "type": "function"
    },
    {
      "inputs": [],
      "name": "totalWeight",
      "outputs": [
        {
          "internalType": "uint256",
          "name": "",
          "type": "uint256"
        }
      ],
      "stateMutability": "view",
      "type": "function"
    },
    {
      "inputs": [
        {
          "internalType": "address",
          "name": "to",
          "type": "address"
        },
        {
          "internalType": "uint256",
          "name": "amount",
          "type": "uint256"
        }
      ],
      "name": "transfer",
      "outputs": [
        {
          "internalType": "bool",
          "name": "",
          "type": "bool"
        }
      ],
      "stateMutability": "nonpayable",
      "type": "function"
    },
    {
      "inputs": [
        {
          "internalType": "address",
          "name": "from",
          "type": "address"
        },
        {
          "internalType": "address",
          "name": "to",
          "type": "address"
        },
        {
          "internalType": "uint256",
          "name": "amount",
          "type": "uint256"
        }
      ],
      "name": "transferFrom",
      "outputs": [
        {
          "internalType": "bool",
          "name": "",
          "type": "bool"
        }
      ],
      "stateMutability": "nonpayable",
      "type": "function"
    },
    {
      "inputs": [
        {
          "internalType": "address",
          "name": "newOwner",
          "type": "address"
        }
      ],
      "name": "transferOwnership",
      "outputs": [],
      "stateMutability": "nonpayable",
      "type": "function"
    },
    {
      "inputs": [],
      "name": "unpause",
      "outputs": [],
      "stateMutability": "nonpayable",
      "type": "function"
    },
    {
      "inputs": [
        {
          "internalType": "string",
          "name": "symbol",
          "type": "string"
        },
        {
          "internalType": "uint256",
          "name": "newWeight",
          "type": "uint256"
        }
      ],
      "name": "updateComponentWeight",
      "outputs": [],
      "stateMutability": "nonpayable",
      "type": "function"
    }
  ],
  "bytecode": "0x6080604052346200002657620000146200016d565b6040516129406200081c823961294090f35b600080fd5b634e487b7160e01b600052604160045260246000fd5b90601f01601f191681019081106001600160401b038211176200006357604052565b6200002b565b90620000806200007860405190565b928362000041565b565b6001600160401b0381116200006357602090601f01601f19160190565b90620000b5620000af8362000082565b62000069565b918252565b620000c660106200009f565b6f243cb832b924b73232bc102a37b5b2b760811b602082015290565b620000ec620000ba565b90565b620000fb600a6200009f565b69090b2a08aa4929c888ab60b31b602082015290565b620000ec620000ef565b634e487b7160e01b600052601160045260246000fd5b60ff16604d81116200014357600a0a90565b6200011b565b620000ec620000ec620000ec9290565b818102929181159184041417156200014357565b62000080336200019262000180620000e2565b6200018a62000111565b9083620001c7565b620001c06305f5e100620001ba620001b3620001ad620005d0565b62000131565b9162000149565b62000159565b90620005dc565b9062000080929162000210565b620000ec600162000149565b90600019905b9181191691161790565b9062000204620000ec6200020c9262000149565b8254620001e0565b9055565b906200021d92916200027b565b620000806200022b620001d4565b6006620001f0565b62000243620000ec620000ec9290565b6001600160a01b031690565b620000ec9062000233565b620002659062000243565b9052565b6020810192916200008091906200025a565b916200028791620004cd565b6200029360006200024f565b6200029e8162000243565b620002a98362000243565b14620002bb5750620000809062000556565b620002e190620002ca60405190565b631e4fbdf760e01b81529182916004830162000269565b0390fd5b634e487b7160e01b600052602260045260246000fd5b90600160028304921680156200031e575b60208310146200031857565b620002e5565b91607f16916200030c565b9160001960089290920291821b911b620001e6565b919062000353620000ec6200020c9362000149565b90835462000329565b62000080916000916200033e565b81811062000376575050565b806200038660006001936200035c565b016200036a565b9190601f81116200039d57505050565b620003b16200008093600052602060002090565b906020601f840181900483019310620003d5575b6020601f9091010401906200036a565b9091508190620003c5565b90620003ea815190565b906001600160401b038211620000635762000412826200040b8554620002fb565b856200038d565b602090601f831160011462000451576200020c92916000918362000445575b5050600019600883021c1916906002021790565b01519050388062000431565b601f198316916200046785600052602060002090565b9260005b818110620004a8575091600293918560019694106200048e575b50505002019055565b01516000196008601f8516021c1916905538808062000485565b919360206001819287870151815501950192016200046b565b906200008091620003e0565b90620004df62000080926003620004c1565b6004620004c1565b620000ec9062000243565b620000ec9054620004e7565b906001600160a01b0390620001e6565b620000ec9062000243906001600160a01b031682565b620000ec906200050e565b620000ec9062000524565b906200054e620000ec6200020c926200052f565b8254620004fe565b620005626005620004f2565b90620005708160056200053a565b620005a7620005a07f8be0079c531659141344cd1fd0a4f28419497f9722a3daafe3b4186f6b6457e0936200052f565b916200052f565b91620005b260405190565b80805b0390a3565b620005ca620000ec620000ec9290565b60ff1690565b620000ec6012620005ba565b9190620005ea60006200024f565b92620005f68462000243565b620006018262000243565b146200061357620000809293620006a4565b620002e1846200062260405190565b63ec442f0560e01b81529182916004830162000269565b9062000645906200052f565b600052602052604060002090565b620000ec9081565b620000ec905462000653565b604090620006926200008094969593966200068b606084019860008501906200025a565b6020830152565b0152565b919082018092116200014357565b816000620006b2816200024f565b620006bd8162000243565b620006c88562000243565b03620007ac57620006fc90620006f6620006ee88620006e860026200065b565b62000696565b6002620001f0565b62000243565b620007078362000243565b036200077b57505062000728620006ee846200072460026200065b565b0390565b620005b5620007636200075c7fddf252ad1be2c89b69c2b068fc378daa952ba7f163c4a11628f55a4df523b3ef936200052f565b936200052f565b936200076e60405190565b9182918290815260200190565b620007a6916200078b9162000639565b6200079f856200079b836200065b565b0190565b90620001f0565b62000728565b909150620007c5620007bf848462000639565b6200065b565b858110620007f457849291620006f6620007e288620006fc940390565b620007ee878662000639565b620001f0565b83620002e1876200080460405190565b63391434e360e21b8152938493600485016200066756fe6080604052600436101561001257600080fd5b60003560e01c80630639ffad1461020257806306fdde03146101fd578063095ea7b3146101f85780630ab50a6a146101f35780630e58ba33146101ee57806318160ddd146101e9578063218b5382146101e457806323b872dd146101df578063313ce567146101da578063349195f9146101d55780633f4ba83a146101d05780635c975abb146101cb57806368a46a19146101c657806370a08231146101c1578063715018a6146101bc5780637edce370146101b75780638456cb59146101b25780638da5cb5b146101ad5780638fc6258b146101a857806395d89b41146101a357806396c82e571461019e578063a9059cbb14610199578063c2d6c0f014610194578063caca95a41461018f578063cf50b1521461018a578063dd62ed3e14610185578063e4a28a5214610180578063eb91d37e1461017b578063f1a640f814610176578063f2fde38b146101715763fa7295d00361020757610d75565b610d5d565b610d42565b610d15565b610cfa565b610ccb565b610c7e565b610b92565b610b63565b610b1d565b610b02565b610ac5565b610aa9565b610a2b565b610a13565b6109ec565b61094d565b610932565b610903565b610751565b610739565b61071d565b6106ee565b6106d2565b610687565b61065a565b610629565b6103e9565b61039c565b610326565b61028d565b600080fd5b909182601f830112156102075781359167ffffffffffffffff831161020757602001926001830284011161020757565b805b0361020757565b905035906102528261023c565b565b9160408383031261020757823567ffffffffffffffff81116102075761027f8361028a92860161020c565b939094602001610245565b90565b34610207576102a66102a0366004610254565b91611f0f565b604051005b0390f35b600091031261020757565b60005b8381106102cd5750506000910152565b81810151838201526020016102bd565b6102fe610307602093610311936102f2815190565b80835293849260200190565b958691016102ba565b601f01601f191690565b0190565b602080825261028a929101906102dd565b34610207576103363660046102af565b6102ab610341610f56565b60405191829182610315565b6001600160a01b031690565b6001600160a01b03811661023e565b9050359061025282610359565b91906040838203126102075761028a9061038f8185610368565b93602001610245565b9052565b34610207576102ab6103b86103b2366004610375565b90610fdf565b60405191829182901515815260200190565b61028a61028a61028a9290565b61028a600a6103ca565b61028a6103d7565b34610207576103f93660046102af565b6102ab6104046103e1565b6040515b9182918290815260200190565b634e487b7160e01b600052604160045260246000fd5b90601f01601f1916810190811067ffffffffffffffff82111761044d57604052565b610415565b9061025261045f60405190565b928361042b565b67ffffffffffffffff811161044d57602090601f01601f19160190565b90826000939282370152565b909291926104a461049f82610466565b610452565b938185526020850190828401116102075761025292610483565b9080601f830112156102075781602061028a9335910161048f565b9060208282031261020757813567ffffffffffffffff81116102075761028a92016104be565b61031161051792602092610511815190565b94859290565b938491016102ba565b61053061031191602094936104ff565b918252565b61054a61054160405190565b92839283610520565b03902090565b61028a91610535565b61028a9081565b61028a9054610559565b61028a905b60ff1690565b61028a905461056a565b61058a906008610550565b9061059c82546001600160a01b031690565b916105a960018201610560565b9161028a60036105bb60028501610575565b9301610560565b61034d61028a61028a926001600160a01b031690565b61028a906105c2565b61028a906105d8565b610398906105e1565b6106256102529461061c606094989795610615608086019a60008701906105ea565b6020850152565b15156040830152565b0152565b34610207576102ab61064461063f3660046104d9565b61057f565b9061065194929460405190565b948594856105f3565b346102075761066a3660046102af565b6102ab610404610f81565b61028a60646103ca565b61028a610675565b34610207576106973660046102af565b6102ab61040461067f565b90916060828403126102075761028a6106bb8484610368565b936106c98160208601610368565b93604001610245565b34610207576102ab6103b86106e83660046106a2565b91612685565b34610207576106fe3660046102af565b6102ab610709610f77565b6040519182918260ff909116815260200190565b346102075761072d3660046102af565b6102ab61040460095490565b34610207576107493660046102af565b6102a6612380565b34610207576107613660046102af565b6102ab6103b8611153565b906020828203126102075761028a91610245565b634e487b7160e01b600052603260045260246000fd5b80548210156107b9576107b0600191600052602060002090565b91020190600090565b610780565b634e487b7160e01b600052600060045260246000fd5b634e487b7160e01b600052602260045260246000fd5b906001600283049216801561080a575b602083101461080557565b6107d4565b91607f16916107fa565b80546000939291610831610827836107ea565b8085529360200190565b9160018116908115610883575060011461084a57505050565b61085d9192939450600052602060002090565b916000925b81841061086f5750500190565b805484840152602090930192600101610862565b92949550505060ff1916825215156020020190565b9061028a91610814565b906102526108bc926108b360405190565b93848092610898565b038361042b565b906000106108d45761028a906108a2565b6107be565b600960006108e5825490565b831015610900575061028a916108fa91610796565b906108c3565b80fd5b34610207576102ab61034161091936600461076c565b6108d9565b906020828203126102075761028a91610368565b34610207576102ab61040461094836600461091e565b610fa3565b346102075761095d3660046102af565b6102a6610dc6565b9061028a916102dd565b9061098561097b835190565b8083529160200190565b90816109976020830284019460200190565b926000915b8383106109ab57505050505090565b909192939460206109ce6109c783856001950387528951610965565b9760200190565b930193019193929061099c565b602080825261028a9291019061096f565b34610207576109fc3660046102af565b6102ab610a07612223565b604051918291826109db565b3461020757610a233660046102af565b6102a6612312565b3461020757610a3b3660046102af565b6102ab610a506005546001600160a01b031690565b6040515b918291826001600160a01b03909116815260200190565b9190916060818403126102075780359167ffffffffffffffff831161020757610a998461028a94840161020c565b9390946106c98160208601610368565b34610207576102a6610abc366004610a6b565b929190916118c8565b3461020757610ad53660046102af565b6102ab610341610f60565b61028a916008021c81565b9061028a9154610ae0565b61028a6000600a610aeb565b3461020757610b123660046102af565b6102ab610404610af6565b34610207576102ab6103b8610b33366004610375565b9061242b565b9060208282031261020757813567ffffffffffffffff811161020757610b5f920161020c565b9091565b34610207576102ab6103b8610b79366004610b39565b9061222d565b61028a610e106103ca565b61028a610b7f565b3461020757610ba23660046102af565b6102ab610404610b8a565b90610bcd610bc6610bbc845190565b8084529260200190565b9260200190565b9060005b818110610bde5750505090565b909192610bfd610bf660019286511515815260200190565b9460200190565b929101610bd1565b90610c14610bc6610bbc845190565b9060005b818110610c255750505090565b909192610c3b610bf66001928651815260200190565b929101610c18565b91610c7090610c6261028a95936060860190868203600088015261096f565b908482036020860152610bad565b916040818403910152610c05565b3461020757610c8e3660046102af565b6102ab610c9961279a565b60405191939193849384610c43565b91906040838203126102075761028a90610cc28185610368565b93602001610368565b34610207576102ab610404610ce1366004610ca8565b90610fbf565b61028a6113886103ca565b61028a610ce7565b3461020757610d0a3660046102af565b6102ab610404610cf2565b3461020757610d253660046102af565b6102ab610404611fe8565b61028a60086103ca565b61028a610d30565b3461020757610d523660046102af565b6102ab610404610d3a565b34610207576102a6610d7036600461091e565b610eb7565b34610207576102a6610d88366004610b39565b90611e27565b610d96610dce565b610252610db4565b61034d61028a61028a9290565b61028a90610d9e565b610252610dc16000610dab565b610ef0565b610252610d8e565b60055433906001600160a01b0316819003610de65750565b610e3090610df360405190565b9182917f118cdaa7000000000000000000000000000000000000000000000000000000008352600483016001600160a01b03909116815260200190565b0390fd5b61025290610e40610dce565b610e4a6000610dab565b6001600160a01b0381166001600160a01b03831614610e6d575061025290610ef0565b610e3090610e7a60405190565b9182917f1e4fbdf7000000000000000000000000000000000000000000000000000000008352600483016001600160a01b03909116815260200190565b61025290610e34565b906001600160a01b03905b9181191691161790565b90610ee561028a610eec926105e1565b8254610ec0565b9055565b6005546001600160a01b031690610f08816005610ed5565b610f3b610f357f8be0079c531659141344cd1fd0a4f28419497f9722a3daafe3b4186f6b6457e0936105e1565b916105e1565b91610f4560405190565b80805b0390a3565b61028a906108a2565b61028a6003610f4d565b61028a6004610f4d565b61056f61028a61028a9290565b61028a6012610f6a565b61028a6002610560565b90610f95906105e1565b600052602052604060002090565b610fba61028a91610fb2600090565b506000610f8b565b610560565b61028a91610fda610fba92610fd2600090565b506001610f8b565b610f8b565b610fea919033610fef565b600190565b90916102529260019261101e565b9060001990610ecb565b9061101761028a610eec926103ca565b8254610ffd565b90919261102b6000610dab565b6001600160a01b0381166001600160a01b03841614611109576001600160a01b0381166001600160a01b038516146110bf57506110768461107185610fda866001610f8b565b611007565b61107f57505050565b610f486110b56110af7f8c5be1e5ebec7d5bd14f71427d1e84f3dd0314c0f7b2291e5b200ac8c7c3b925936105e1565b936105e1565b9361040860405190565b610e30906110cc60405190565b9182917f94280d62000000000000000000000000000000000000000000000000000000008352600483016001600160a01b03909116815260200190565b610e309061111660405190565b9182917fe602df05000000000000000000000000000000000000000000000000000000008352600483016001600160a01b03909116815260200190565b61028a6007610575565b9061025293929161116c610dce565b61122d565b69ffffffffffffffffffff811661023e565b9050519061025282611171565b905051906102528261023c565b919060a083820312610207576111b38184611183565b926111c18260208301611190565b9261028a6111d28460408501611190565b936111e08160608601611190565b93608001611183565b634e487b7160e01b600052601160045260246000fd5b9190820391821161120c57565b6111e9565b61121e61028a61028a9290565b69ffffffffffffffffffff1690565b929190600061123e61034d82610dab565b6001600160a01b038416146113cc57823b61125f61125b836103ca565b9190565b146113cc5761129260a061127a611275866105e1565b6105e1565b63feaf968c9061128960405190565b93849260e01b90565b825260049082905afa908290838385928695611396575b506112da576040515b7ff48fdf18000000000000000000000000000000000000000000000000000000008152600490fd5b6112e661125b866103ca565b131561134c576112f5846103ca565b811461134c5761130590426111ff565b61131361125b61028a610b7f565b1161136b5761133461132484611211565b9169ffffffffffffffffffff1690565b14918215611354575b505061134c57610252936113f7565b6040516112b2565b61136391925061132490611211565b14388061133d565b6040517f355e186c000000000000000000000000000000000000000000000000000000008152600490fd5b92509350506113bc915060a03d81116113c5575b6113b4818361042b565b81019061119d565b949092916112a9565b503d6113aa565b6040517f55210681000000000000000000000000000000000000000000000000000000008152600490fd5b906102529392916114066118d4565b6116c2565b90916103119083908093610483565b61053090602094936103119361140b565b909161054a9061143a60405190565b9384938461141a565b909161028a9261142b565b61028a6080610452565b9060ff90610ecb565b9061147161028a610eec92151590565b8254611458565b61025291906114b4906060906003906114a28161149c87516001600160a01b031690565b90610ed5565b6114ba600182016114b4602088015190565b90611007565b6114d4600282016114ce6040880151151590565b90611461565b0192015190565b9061025291611478565b9160001960089290920291821b911b610ecb565b919061150a61028a610eec936103ca565b9083546114e5565b610252916000916114f9565b818110611529575050565b806115376000600193611512565b0161151e565b9190601f811161154c57505050565b61155e61025293600052602060002090565b906020601f840181900483019310611581575b6020601f909101045b019061151e565b9091508190611571565b919067ffffffffffffffff821161044d576115b0826115aa85546107ea565b8561153d565b600090601f83116001146115eb57610eec9291600091836115e0575b5050600019600883021c1916906002021790565b0135905038806115cc565b601f1983169161160085600052602060002090565b92815b81811061163e57509160029391856001969410611624575b50505002019055565b0135600019601f84166008021c19165b905538808061161b565b91936020600181928787013581550195019201611603565b9291906108d4576102529261158b565b91908254926801000000000000000084101561044d578361168f91600161025296018155610796565b90611656565b9190820180921161120c57565b909161028a9261140b565b61054a6116b960405190565b928392836116a2565b9192916000826116d461125b836103ca565b1480156118b3575b611888576116eb61028a610675565b84108015611875575b61184a57600894611711600261170b86868a611443565b01610575565b61181f576009805461172761125b61028a6103d7565b10156117f457839261173986936105e1565b9783854260018c61174861144e565b9687019061175e91906001600160a01b03169052565b6117698c6020880152565b15156040860152606085015261177e92611443565b90611788916114db565b9161179292611666565b8261179d600a610560565b906117a791611695565b6117b290600a611007565b7f197824819e143e92010c91d876c2287ab60e222851097f8bd09122231b02dbb0916117dd916116ad565b916117e760405190565b9081528060208101610f48565b6040517fc2413d21000000000000000000000000000000000000000000000000000000008152600490fd5b6040517f4171e77a000000000000000000000000000000000000000000000000000000008152600490fd5b6040517f585b9263000000000000000000000000000000000000000000000000000000008152600490fd5b5061188161028a610ce7565b84116116f4565b6040517f04119bc4000000000000000000000000000000000000000000000000000000008152600490fd5b50826118c261125b600a6103ca565b116116dc565b9061025293929161115d565b6118dc611153565b6118e257565b6040517fd93c0665000000000000000000000000000000000000000000000000000000008152600490fd5b906102529161191a610dce565b611c83565b600019811461120c5760010190565b61028a91369161048f565b61028a90546107ea565b90808214611a205761195481611939565b9067ffffffffffffffff821161044d57611972826115aa85546107ea565b600090601f83116001146119ac57610eec9291600091836119a1575050600019600883021c1916906002021790565b0154905038806115cc565b906119c1601f19841692600052602060002090565b906119d185600052602060002090565b92815b818110611a08575091600293918560019694106119f45750505002019055565b01546000196008601f8516021c1916611634565b919360018060209287870154815501950192016119d4565b5050565b91906108d45761025291611943565b634e487b7160e01b600052603160045260246000fd5b90611a5c90600019906020036008021c90565b8154169055565b90600091611a8e611a7982600052602060002090565b928354600019600883021c1916906002021790565b905555565b9192906020821015611af857601f8411600114611ac257610eec929350600019600883021c1916906002021790565b5090611af3610252936001611aea611adf85600052602060002090565b92601f602091010490565b8201910161151e565b611a63565b50611b318293611b0f600194600052602060002090565b61157a6020601f860104820192601f861680611b39575b50601f602091010490565b600202179055565b611b4590888603611a49565b38611b26565b92909168010000000000000000821161044d5760201115611ba4576020811015611b8557610eec91600019600883021c1916906002021790565b60019160ff1916611b9b84600052602060002090565b55600202019055565b60019150600202019055565b908154611bbc816107ea565b90818311611be5575b818310611bd3575b50505050565b611bdc93611a93565b38808080611bcd565b611bf183838387611b4b565b611bc5565b8181029291811591840414171561120c57565b600061025291611bb0565b906000036108d45761025290611c09565b80548015611c48576000190190611c45611c3f8383610796565b90611c14565b55565b611a33565b600080825561025291600390611c668360018301611512565b82600282015501611512565b906000036108d45761025290611c4d565b600891611c9d611c99600261170b848688611443565b1590565b611dfc576000611cac816103ca565b6009611cb961028a825490565b821015611de757611cd9611cd4611cd08484610796565b5090565b610f4d565b611ceb611ce4825190565b9160200190565b20611d0b61125b611cfc878961192e565b611d07611ce4825190565b2090565b14611d1f5750611d1a9061191f565b611cac565b8385611dd59697611d72611d6d8561028a611dae9998611d67611d5f611d59611d49611da99c5490565b611d5360016103ca565b906111ff565b85610796565b509184610796565b90611a24565b611c25565b611da4611d9d611d8e6001611d88878787611443565b01610560565b611d98600a610560565b6111ff565b600a611007565b611443565b611c72565b7fc6a0b3a38f4acc103d66d2ea1f975912895d3d7cfeebcda52f245e760198a4bd926116ad565b90611ddf60405190565b80805b0390a2565b5050611dae90611da98385611dd59697611d72565b6040517f7d918563000000000000000000000000000000000000000000000000000000008152600490fd5b906102529161190d565b906102529291611e3f610dce565b906008611e55611c99600261170b858786611443565b611dfc57611e6461028a610675565b84108015611efc575b61184a5781611ecb611ef292611ea6611d9d88611ea189611d536001611d88611de29c611e9a600a610560565b948a611443565b611695565b611ebd876001611eb7868a86611443565b01611007565b6003611eb784884294611443565b7f5324d4f0b093f69d6f6ffe47346b30e4147743eed843366bf0d70a70c4a85c69936116ad565b9261040860405190565b50611f0861028a610ce7565b8411611e6d565b906102529291611e31565b80546000939291611f31611f2d836107ea565b9390565b9160018116908115611f825750600114611f4a57505050565b611f5d9192939450600052602060002090565b6000905b838210611f6e5750500190565b600181602092548486015201910190611f61565b60ff191683525050811515909102019150565b6105306103119160209493611f1a565b61054a611fb160405190565b92839283611f95565b61028a91611fa5565b634e487b7160e01b600052601260045260246000fd5b8115611fe3570490565b611fc3565b611ff2600a610560565b60009061200161125b836103ca565b146121765761200f816103ca565b9081825b600961202061028a825490565b82101561214e5761028a6120419161203a84600892610796565b5090611fba565b612050611c9960028301610575565b6121445761206f60a061127a611275878501546001600160a01b031690565b825260049082905afa90859186918161211e575b50612099575050506120949061191f565b612013565b6120a390426111ff565b6120b161125b61028a610b7f565b11158061210d575b6120c9575b50506120949061191f565b926120f96120ff61210593976120f960016120e761209498996103ca565b9a01996120f38b610560565b90611bf6565b90611695565b96610560565b9190386120be565b50612117856103ca565b81136120b9565b909250612139915060a03d81116113c5576113b4818361042b565b509250929092612083565b506120949061191f565b5050909161215b836103ca565b821461216b5761028a9250611fd9565b505061028a906103ca565b6040517f02d7864e000000000000000000000000000000000000000000000000000000008152600490fd5b67ffffffffffffffff811161044d5760208091020190565b9061053061049f836121a1565b906121cf825490565b6121d8816121b9565b926121ec6020850191600052602060002090565b6000915b8383106121fd5750505050565b60016020819261220c85610f4d565b8152019201920191906121f0565b61028a906121c6565b61028a600961221a565b6008612242611c99600261170b868686611443565b6122c957611275600061225e61226c9560a09561127a95611443565b01546001600160a01b031690565b825260049082905afa600091816122a6575b506122895750600090565b61229390426111ff565b6122a161125b61028a610b7f565b111590565b6122bf91925060a03d81116113c5576113b4818361042b565b509392505061227e565b505050600090565b6122d9610dce565b6102526122e4612365565b427f6eae7d8f48015fddc9502717696ac737bec3d20c703c3958a689f8f485747183611de2611ef2336105e1565b6102526122d1565b6123226118d4565b61025261233160016007611461565b336123607f62e78cea01bee320cd4e420270b5ea74000d11b0c9f74754ebdbfc544b05a25891610a5460405190565b0390a1565b61025261231a565b612375610dce565b6102526102526123ce565b61025261236d565b6123906123d6565b61025261239f60006007611461565b336123607f5db9ee0a495bf2e6ff9c91a7834c1ba4fdd244a5e8aa4e537bd38aeae4b073aa91610a5460405190565b610252612388565b6123e1611c99611153565b6123e757565b6040517f8dfc202b000000000000000000000000000000000000000000000000000000008152600490fd5b9061028a92916124206118d4565b5061028a9190612437565b61028a91906000612412565b610fea9190335b92919061244b6000610dab565b936001600160a01b0385166001600160a01b038216146124d3576001600160a01b0385166001600160a01b0383161461248957610252939450612544565b610e308561249660405190565b9182917fec442f05000000000000000000000000000000000000000000000000000000008352600483016001600160a01b03909116815260200190565b610e30856124e060405190565b9182917f96c6fd1e000000000000000000000000000000000000000000000000000000008352600483016001600160a01b03909116815260200190565b6001600160a01b039091168152606081019392610252929091604091610625906020830152565b81600061255081610dab565b6001600160a01b0381166001600160a01b038516036125fa576125859061034d61257e88611ea16002610560565b6002611007565b6001600160a01b038316036125db5750506125ab61257e846125a76002610560565b0390565b610f486110b56110af7fddf252ad1be2c89b69c2b068fc378daa952ba7f163c4a11628f55a4df523b3ef936105e1565b6125f5916125e891610f8b565b6114b48561031183610560565b6125ab565b90915061260a610fba8484610f8b565b85811061262d5784929161034d61262388612585940390565b6110718786610f8b565b83610e308761263b60405190565b9384937fe450d38c0000000000000000000000000000000000000000000000000000000085526004850161251d565b9061028a9392916126796118d4565b5061028a929190612692565b61028a929190600061266a565b610fea9291908261243e82336126a88183610fbf565b9360001985106126ba575b5050509050565b8085106126e0576126ce906126d794950390565b9060009261101e565b803880806126b3565b90610e3085926126ef60405190565b9384937ffb8f41b20000000000000000000000000000000000000000000000000000000085526004850161251d565b60005b82811061272d57505050565b606082820152602001612721565b9061025261275161274b846121b9565b936121a1565b601f19016020840161271e565b369037565b9061025261277361274b846121b9565b601f19016020840161275e565b90612789825190565b8110156107b9576020809102010190565b6009906127ad6127a8835490565b61273b565b9182906127c06127bb825490565b612763565b9081946127ce6127bb835490565b9384966000976127dd896103ca565b6127e861028a875490565b8110156128fe57808a61283e60a061127a6112758461225e61028a8e6128308f9b61288b9c61282061281a8386610796565b50610f4d565b61282a8383612780565b52612780565b515061203a8a600892610796565b825260049082905afa82908392816128d9575b5061289057505061286d90612866838b612780565b9015159052565b6128866128798c6103ca565b612883838c612780565b52565b61191f565b6127dd565b61289f61125b612886946103ca565b13806128b4575b61287990612866858d612780565b506128796128c282426111ff565b6128d061125b61028a610b7f565b111590506128a6565b9092506128f4915060a03d81116113c5576113b4818361042b565b5093919250612851565b5095509593509550505056fea26469706673582212204e3f82f984ea7d63f44b59226004a79314f8b9327dae82e8e628fff299b6999264736f6c63430008140033",
  "linkReferences": {},
  "deployedLinkReferences": {}
}