{
  "_format": "hh-sol-artifact-1",
  "contractName": "MockAMM",
  "sourceName": "contracts/mocks/MockAMM.sol",
  "abi": [
    {
      "inputs": [],
      "stateMutability": "nonpayable",
      "type": "constructor"
    },
    {
      "anonymous": false,
      "inputs": [
        {
          "indexed": true,
          "internalType": "address",
          "name": "tokenA",
          "type": "address"
        },
        {
          "indexed": true,
          "internalType": "address",
          "name": "tokenB",
          "type": "address"
        },
        {
          "indexed": false,
          "internalType": "uint256",
          "name": "amountA",
          "type": "uint256"
        },
        {
          "indexed": false,
          "internalType": "uint256",
          "name": "amountB",
          "type": "uint256"
        },
        {
          "indexed": false,
          "internalType": "uint256",
          "name": "liquidity",
          "type": "uint256"
        },
        {
          "indexed": true,
          "internalType": "address",
          "name": "provider",
          "type": "address"
        }
      ],
      "name": "LiquidityAdded",
      "type": "event"
    },
    {
      "anonymous": false,
      "inputs": [
        {
          "indexed": true,
          "internalType": "address",
          "name": "tokenA",
          "type": "address"
        },
        {
          "indexed": true,
          "internalType": "address",
          "name": "tokenB",
          "type": "address"
        },
        {
          "indexed": false,
          "internalType": "uint256",
          "name": "amountA",
          "type": "uint256"
        },
        {
          "indexed": false,
          "internalType": "uint256",
          "name": "amountB",
          "type": "uint256"
        },
        {
          "indexed": false,
          "internalType": "uint256",
          "name": "liquidity",
          "type": "uint256"
        },
        {
          "indexed": true,
          "internalType": "address",
          "name": "provider",
          "type": "address"
        }
      ],
      "name": "LiquidityRemoved",
      "type": "event"
    },
    {
      "anonymous": false,
      "inputs": [
        {
          "indexed": true,
          "internalType": "address",
          "name": "tokenA",
          "type": "address"
        },
        {
          "indexed": true,
          "internalType": "address",
          "name": "tokenB",
          "type": "address"
        },
        {
          "indexed": false,
          "internalType": "address",
          "name": "poolAddress",
          "type": "address"
        },
        {
          "indexed": false,
          "internalType": "uint256",
          "name": "fee",
          "type": "uint256"
        }
      ],
      "name": "PoolCreated",
      "type": "event"
    },
    {
      "anonymous": false,
      "inputs": [
        {
          "indexed": true,
          "internalType": "address",
          "name": "tokenIn",
          "type": "address"
        },
        {
          "indexed": true,
          "internalType": "address",
          "name": "tokenOut",
          "type": "address"
        },
        {
          "indexed": false,
          "internalType": "uint256",
          "name": "amountIn",
          "type": "uint256"
        },
        {
          "indexed": false,
          "internalType": "uint256",
          "name": "amountOut",
          "type": "uint256"
        },
        {
          "indexed": true,
          "internalType": "address",
          "name": "recipient",
          "type": "address"
        }
      ],
      "name": "Swap",
      "type": "event"
    },
    {
      "inputs": [],
      "name": "FEE_BASIS_POINTS",
      "outputs": [
        {
          "internalType": "uint256",
          "name": "",
          "type": "uint256"
        }
      ],
      "stateMutability": "view",
      "type": "function"
    },
    {
      "inputs": [],
      "name": "MINIMUM_LIQUIDITY",
      "outputs": [
        {
          "internalType": "uint256",
          "name": "",
          "type": "uint256"
        }
      ],
      "stateMutability": "view",
      "type": "function"
    },
    {
      "inputs": [
        {
          "internalType": "address",
          "name": "tokenA",
          "type": "address"
        },
        {
          "internalType": "address",
          "name": "tokenB",
          "type": "address"
        },
        {
          "internalType": "uint256",
          "name": "amountADesired",
          "type": "uint256"
        },
        {
          "internalType": "uint256",
          "name": "amountBDesired",
          "type": "uint256"
        },
        {
          "internalType": "uint256",
          "name": "amountAMin",
          "type": "uint256"
        },
        {
          "internalType": "uint256",
          "name": "amountBMin",
          "type": "uint256"
        },
        {
          "internalType": "address",
          "name": "recipient",
          "type": "address"
        },
        {
          "internalType": "uint256",
          "name": "deadline",
          "type": "uint256"
        }
      ],
      "name": "addLiquidity",
      "outputs": [
        {
          "internalType": "uint256",
          "name": "amountA",
          "type": "uint256"
        },
        {
          "internalType": "uint256",
          "name": "amountB",
          "type": "uint256"
        },
        {
          "internalType": "uint256",
          "name": "liquidity",
          "type": "uint256"
        }
      ],
      "stateMutability": "nonpayable",
      "type": "function"
    },
    {
      "inputs": [
        {
          "internalType": "address",
          "name": "tokenIn",
          "type": "address"
        },
        {
          "internalType": "address",
          "name": "tokenOut",
          "type": "address"
        },
        {
          "internalType": "uint256",
          "name": "amountIn",
          "type": "uint256"
        }
      ],
      "name": "calculatePriceImpact",
      "outputs": [
        {
          "internalType": "uint256",
          "name": "priceImpact",
          "type": "uint256"
        }
      ],
      "stateMutability": "view",
      "type": "function"
    },
    {
      "inputs": [
        {
          "internalType": "address",
          "name": "tokenA",
          "type": "address"
        },
        {
          "internalType": "address",
          "name": "tokenB",
          "type": "address"
        },
        {
          "internalType": "uint256",
          "name": "fee",
          "type": "uint256"
        }
      ],
      "name": "createPool",
      "outputs": [],
      "stateMutability": "nonpayable",
      "type": "function"
    },
    {
      "inputs": [
        {
          "internalType": "address",
          "name": "tokenA",
          "type": "address"
        },
        {
          "internalType": "address",
          "name": "tokenB",
          "type": "address"
        }
      ],
      "name": "getLiquidity",
      "outputs": [
        {
          "internalType": "uint256",
          "name": "liquidityA",
          "type": "uint256"
        },
        {
          "internalType": "uint256",
          "name": "liquidityB",
          "type": "uint256"
        }
      ],
      "stateMutability": "view",
      "type": "function"
    },
    {
      "inputs": [
        {
          "internalType": "address",
          "name": "tokenIn",
          "type": "address"
        },
        {
          "internalType": "address",
          "name": "tokenOut",
          "type": "address"
        },
        {
          "internalType": "uint256",
          "name": "amountIn",
          "type": "uint256"
        }
      ],
      "name": "getOptimalPath",
      "outputs": [
        {
          "internalType": "address[]",
          "name": "path",
          "type": "address[]"
        },
        {
          "internalType": "uint256",
          "name": "expectedOut",
          "type": "uint256"
        }
      ],
      "stateMutability": "view",
      "type": "function"
    },
    {
      "inputs": [
        {
          "internalType": "address",
          "name": "tokenA",
          "type": "address"
        },
        {
          "internalType": "address",
          "name": "tokenB",
          "type": "address"
        }
      ],
      "name": "getPoolInfo",
      "outputs": [
        {
          "components": [
            {
              "internalType": "address",
              "name": "tokenA",
              "type": "address"
            },
            {
              "internalType": "address",
              "name": "tokenB",
              "type": "address"
            },
            {
              "internalType": "uint256",
              "name": "reserveA",
              "type": "uint256"
            },
            {
              "internalType": "uint256",
              "name": "reserveB",
              "type": "uint256"
            },
            {
              "internalType": "uint256",
              "name": "liquidity",
              "type": "uint256"
            },
            {
              "internalType": "uint256",
              "name": "fee",
              "type": "uint256"
            },
            {
              "internalType": "bool",
              "name": "isActive",
              "type": "bool"
            },
            {
              "internalType": "uint256",
              "name": "lastUpdate",
              "type": "uint256"
            }
          ],
          "internalType": "struct IAMM.PoolInfo",
          "name": "poolInfo",
          "type": "tuple"
        }
      ],
      "stateMutability": "view",
      "type": "function"
    },
    {
      "inputs": [
        {
          "internalType": "address",
          "name": "tokenA",
          "type": "address"
        },
        {
          "internalType": "address",
          "name": "tokenB",
          "type": "address"
        }
      ],
      "name": "getPrice",
      "outputs": [
        {
          "internalType": "uint256",
          "name": "price",
          "type": "uint256"
        }
      ],
      "stateMutability": "view",
      "type": "function"
    },
    {
      "inputs": [
        {
          "internalType": "address",
          "name": "tokenIn",
          "type": "address"
        },
        {
          "internalType": "address",
          "name": "tokenOut",
          "type": "address"
        },
        {
          "internalType": "uint256",
          "name": "amountIn",
          "type": "uint256"
        },
        {
          "internalType": "uint256",
          "name": "slippageTolerance",
          "type": "uint256"
        }
      ],
      "name": "getQuote",
      "outputs": [
        {
          "components": [
            {
              "internalType": "uint256",
              "name": "amountOut",
              "type": "uint256"
            },
            {
              "internalType": "uint256",
              "name": "priceImpact",
              "type": "uint256"
            },
            {
              "internalType": "uint256",
              "name": "minAmountOut",
              "type": "uint256"
            },
            {
              "internalType": "uint256",
              "name": "fee",
              "type": "uint256"
            },
            {
              "internalType": "address[]",
              "name": "path",
              "type": "address[]"
            },
            {
              "internalType": "uint256",
              "name": "deadline",
              "type": "uint256"
            }
          ],
          "internalType": "struct IAMM.QuoteInfo",
          "name": "quote",
          "type": "tuple"
        }
      ],
      "stateMutability": "view",
      "type": "function"
    },
    {
      "inputs": [
        {
          "internalType": "address",
          "name": "tokenA",
          "type": "address"
        },
        {
          "internalType": "address",
          "name": "tokenB",
          "type": "address"
        }
      ],
      "name": "poolExists",
      "outputs": [
        {
          "internalType": "bool",
          "name": "exists",
          "type": "bool"
        },
        {
          "internalType": "bool",
          "name": "isActive",
          "type": "bool"
        }
      ],
      "stateMutability": "view",
      "type": "function"
    },
    {
      "inputs": [
        {
          "internalType": "address",
          "name": "tokenA",
          "type": "address"
        },
        {
          "internalType": "address",
          "name": "tokenB",
          "type": "address"
        },
        {
          "internalType": "uint256",
          "name": "liquidity",
          "type": "uint256"
        },
        {
          "internalType": "uint256",
          "name": "amountAMin",
          "type": "uint256"
        },
        {
          "internalType": "uint256",
          "name": "amountBMin",
          "type": "uint256"
        },
        {
          "internalType": "address",
          "name": "recipient",
          "type": "address"
        },
        {
          "internalType": "uint256",
          "name": "deadline",
          "type": "uint256"
        }
      ],
      "name": "removeLiquidity",
      "outputs": [
        {
          "internalType": "uint256",
          "name": "amountA",
          "type": "uint256"
        },
        {
          "internalType": "uint256",
          "name": "amountB",
          "type": "uint256"
        }
      ],
      "stateMutability": "nonpayable",
      "type": "function"
    },
    {
      "inputs": [
        {
          "internalType": "address",
          "name": "tokenA",
          "type": "address"
        },
        {
          "internalType": "address",
          "name": "tokenB",
          "type": "address"
        },
        {
          "internalType": "uint256",
          "name": "reserveA",
          "type": "uint256"
        },
        {
          "internalType": "uint256",
          "name": "reserveB",
          "type": "uint256"
        }
      ],
      "name": "setPoolReserves",
      "outputs": [],
      "stateMutability": "nonpayable",
      "type": "function"
    },
    {
      "inputs": [
        {
          "internalType": "address",
          "name": "tokenIn",
          "type": "address"
        },
        {
          "internalType": "address",
          "name": "tokenOut",
          "type": "address"
        },
        {
          "internalType": "uint256",
          "name": "amountIn",
          "type": "uint256"
        },
        {
          "internalType": "uint256",
          "name": "minAmountOut",
          "type": "uint256"
        },
        {
          "internalType": "address",
          "name": "recipient",
          "type": "address"
        },
        {
          "internalType": "uint256",
          "name": "deadline",
          "type": "uint256"
        }
      ],
      "name": "swap",
      "outputs": [
        {
          "internalType": "uint256",
          "name": "amountOut",
          "type": "uint256"
        }
      ],
      "stateMutability": "nonpayable",
      "type": "function"
    },
    {
      "inputs": [
        {
          "internalType": "address[]",
          "name": "path",
          "type": "address[]"
        },
        {
          "internalType": "uint256",
          "name": "amountIn",
          "type": "uint256"
        },
        {
          "internalType": "uint256",
          "name": "minAmountOut",
          "type": "uint256"
        },
        {
          "internalType": "address",
          "name": "recipient",
          "type": "address"
        },
        {
          "internalType": "uint256",
          "name": "deadline",
          "type": "uint256"
        }
      ],
      "name": "swapExactTokensForTokens",
      "outputs": [
        {
          "internalType": "uint256[]",
          "name": "amounts",
          "type": "uint256[]"
        }
      ],
      "stateMutability": "nonpayable",
      "type": "function"
    }
  ],
  "bytecode": "0x6080604052346200002657620000146200006e565b6040516123f86200058f82396123f890f35b600080fd5b90600019905b9181191691161790565b6200004b6200004b6200004b9290565b90565b90620000626200004b6200006a926200003b565b82546200002b565b9055565b6200007c600160036200004e565b6200008662000337565b565b620000986200004b6200004b9290565b6001600160a01b031690565b6200004b9062000088565b60601b90565b6200004b90620000af565b620000cf620000d59162000098565b620000b5565b9052565b601481620000ee620000f793839695620000c0565b018092620000c0565b0190565b634e487b7160e01b600052604160045260246000fd5b90601f01601f191681019081106001600160401b038211176200013357604052565b620000fb565b6200004b601e6200003b565b90620000866200015460405190565b928362000111565b6200004b61010062000145565b90620000d59062000098565b9062000181906200004b565b600052602052604060002090565b6200004b905162000098565b906001600160a01b039062000031565b6200004b9062000098906001600160a01b031682565b6200004b90620001ab565b6200004b90620001c1565b90620001eb6200004b6200006a92620001cc565b82546200019b565b5190565b51151590565b9060ff9062000031565b151590565b90620002206200004b6200006a9262000207565b8254620001fd565b6007620002fd60e062000086946200024e62000247600083016200018f565b86620001d7565b6200026a62000260602083016200018f565b60018701620001d7565b620002866200027c60408301620001f3565b600287016200004e565b620002a26200029860608301620001f3565b600387016200004e565b620002be620002b460808301620001f3565b600487016200004e565b620002da620002d060a08301620001f3565b600587016200004e565b620002f6620002ec60c08301620001f7565b600687016200020c565b01620001f3565b91016200004e565b90620000869162000228565b906200018190620001cc565b9062000062620003316200006a926200004b565b6200004b565b6200008660016200047d6200034c82620000a4565b91620004776200035d6002620000a4565b60405162000383816020810162000376858a83620000d9565b9081038252038262000111565b6200039762000390825190565b9160200190565b20926200048f620003a762000139565b946200047d620003b66200015c565b98620003c3818b62000169565b620003d28660208c0162000169565b620003f1620003ea683635c9adc5dea000006200003b565b60408c0152565b6200040d620004066528ed6103d0006200003b565b60608c0152565b620004286200042164018fd7119c6200003b565b60808c0152565b620004348860a08c0152565b84151560c08b0152620004484260e08c0152565b6200046160009a6200045b858d62000175565b62000305565b62000483836200047d8862000477858a62000311565b62000311565b6200031d565b62000477868662000311565b620005786200049f6003620000a4565b946200045b620004ae60405190565b620004c4816020810162000376898c83620000d9565b620004d162000390825190565b2080996200055e620004e26200015c565b94620004f18b84880162000169565b62000500896020880162000169565b620005206200051969010f0cf064dd592000006200003b565b6040880152565b6200053c62000535650b5e620f48006200003b565b6060880152565b62000557620005506401d73751c66200003b565b6080880152565b60a0860152565b85151560c0850152620005724260e0860152565b62000175565b62000477866200047d846200047788866200031156fe6080604052600436101561001257600080fd5b60003560e01c80630fa5a6a514610102578063486e51f4146100fd57806351810fb5146100f8578063552e4e84146100f357806358046362146100ee578063721318b0146100e95780639908fc8b146100e45780639ea1db30146100df578063a525ad3c146100da578063ac41865a146100d5578063ba9a7a56146100d0578063baa2abde146100cb578063e8e33700146100c6578063ea526de7146100c15763f862701f03610107576108cc565b610801565b6107cc565b61070a565b610679565b61064a565b61062f565b6105d6565b61054b565b6104cc565b6104a1565b6102cb565b6102b2565b610261565b61018b565b600080fd5b6001600160a01b031690565b90565b6001600160a01b0381165b0361010757565b9050359061013a8261011b565b565b80610126565b9050359061013a8261013c565b60808183031261010757610163828261012d565b92610118610174846020850161012d565b9360606101848260408701610142565b9401610142565b34610107576101a761019e36600461014f565b929190916109fe565b604051005b0390f35b9190604083820312610107576101189060206101cc828661012d565b940161012d565b9052565b80516001600160a01b0316825261013a919060e09081906020818101516001600160a01b03169085015261021060408201516040860152565b61021f60608201516060860152565b61022e60808201516080860152565b61023d60a082015160a0860152565b60c0818101511515908501520151910152565b6101008101929161013a91906101d7565b34610107576101ac61027d6102773660046101b0565b90610bba565b60405191829182610250565b9091606082840312610107576101186102a2848461012d565b936040610184826020870161012d565b34610107576101a76102c5366004610289565b91610d9d565b34610107576102e46102de3660046101b0565b90610f03565b906101ac6102f160405190565b928392839015158152901515602082015260400190565b634e487b7160e01b600052604160045260246000fd5b90601f01601f1916810190811067ffffffffffffffff82111761034057604052565b610308565b9061013a61035260405190565b928361031e565b67ffffffffffffffff81116103405760208091020190565b9092919261038661038182610359565b610345565b938185526020808601920283019281841161010757915b8383106103aa5750505050565b602080916103b8848661012d565b81520192019161039d565b9080601f830112156101075781602061011893359101610371565b919060a08382031261010757823567ffffffffffffffff811161010757816104079185016103c3565b926104158260208301610142565b926101186104268460408501610142565b936080610184826060870161012d565b0190565b9061045a610453610449845190565b8084529260200190565b9260200190565b9060005b81811061046b5750505090565b9091926104886104816001928651815260200190565b9460200190565b92910161045e565b60208082526101189291019061043a565b34610107576101ac6104c06104b73660046103de565b93929092611256565b60405191829182610490565b34610107576101ac6104e86104e2366004610289565b916114de565b6040519182918290815260200190565b909160c0828403126101075761050e838361012d565b9261051c816020850161012d565b9261052a8260408301610142565b9261011861053b8460608501610142565b9360a0610184826080870161012d565b34610107576101ac6104e86105613660046104f8565b949390939291926114e9565b9061057c610453610449845190565b9060005b81811061058d5750505090565b9091926105ac61048160019286516001600160a01b0316815260200190565b929101610580565b929160206105d161013a936040870190878203600089015261056d565b940152565b34610107576105ef6105e9366004610289565b916115b0565b906101ac6105fc60405190565b928392836105b4565b600091031261010757565b6101186101186101189290565b610118601e610610565b61011861061d565b346101075761063f366004610605565b6101ac6104e8610627565b34610107576101ac6104e86106603660046101b0565b90611732565b6101186103e8610610565b610118610666565b3461010757610689366004610605565b6101ac6104e8610671565b60e081830312610107576106a8828261012d565b926106b6836020840161012d565b926106c48160408501610142565b926106d28260608301610142565b926101186106e38460808501610142565b9360c06101848260a0870161012d565b90815260408101929161013a9160200152565b0152565b346101075761072961071d366004610694565b9594909493919361181b565b906101ac61073660405190565b928392836106f3565b91906101008382031261010757610756818461012d565b92610764826020830161012d565b926107728360408401610142565b926107808160608501610142565b9261078e8260808301610142565b9261011861079f8460a08501610142565b9360e06101848260c0870161012d565b90815260608101939261013a929091604091610706906020830152565b34610107576101ac6107f16107e236600461073f565b96959095949194939293611b08565b6040519193915b938493846107af565b34610107576107296108143660046101b0565b90611ef7565b90610829610453610449845190565b9060005b81811061083a5750505090565b90919261085961048160019286516001600160a01b0316815260200190565b92910161082d565b80518252906101189060a0806108b360c0840161088360208801516020870152565b61089260408801516040870152565b6108a160608801516060870152565b6080870151858203608087015261081a565b940151910152565b602080825261011892910190610861565b34610107576101ac6108eb6108e236600461014f565b92919091612005565b604051918291826108bb565b61010c610118610118926001600160a01b031690565b610118906108f7565b6101189061090d565b9061092990610916565b600052602052604060002090565b6101189081565b6101189054610937565b1561094f57565b60405162461bcd60e51b815260206004820152601360248201527f506f6f6c20646f6573206e6f74206578697374000000000000000000000000006044820152606490fd5b90610929565b90600019905b9181191691161790565b906109ba6101186109c192610610565b825461099a565b9055565b634e487b7160e01b600052601160045260246000fd5b91906109e6565b9290565b918083029281840414901517156109f957565b6109c5565b610a6c61013a94610a4c610118610a2d610a28610a7a97610a23610a7198600161091f565b61091f565b61093e565b610a45610a3d6101186000610610565b821415610948565b6000610994565b94610a5a81600288016109aa565b610a6782600388016109aa565b6109db565b6121de565b600483016109aa565b60074291016109aa565b610118610100610345565b610a97610a84565b906000825260208080808080808089016000815201600081520160008152016000815201600081520160005b8152016000905250565b610118610a8f565b6101189061010c565b6101189054610ad5565b9061013a610baa6007610af9610a84565b94610b13610b0682610ade565b6001600160a01b03168752565b610b32610b2260018301610ade565b6001600160a01b03166020880152565b610b48610b416002830161093e565b6040880152565b610b5e610b576003830161093e565b6060880152565b610b74610b6d6004830161093e565b6080880152565b610b8a610b836005830161093e565b60a0880152565b610ba4610b9b600683015460ff1690565b151560c0880152565b0161093e565b60e0840152565b61011890610ae8565b610a2d610a2861011893610a23610bdb94610bd3610acd565b50600161091f565b610bb1565b6101d3906001600160a01b031660601b90565b601481610c0561043693839695610be0565b018092610be0565b15610c1457565b60405162461bcd60e51b815260206004820152601360248201527f506f6f6c20616c726561647920657869737473000000000000000000000000006044820152606490fd5b906001600160a01b03906109a0565b90610c786101186109c192610916565b8254610c59565b9060ff906109a0565b90610c986101186109c192151590565b8254610c7f565b6007610d6160e061013a94610cc7610cc160008301516001600160a01b031690565b86610c68565b610ce7610cde60208301516001600160a01b031690565b60018701610c68565b610cfe610cf5604083015190565b600287016109aa565b610d15610d0c606083015190565b600387016109aa565b610d2c610d23608083015190565b600487016109aa565b610d43610d3a60a083015190565b600587016109aa565b610d5c610d5360c0830151151590565b60068701610c88565b015190565b91016109aa565b9061013a91610c9f565b906109ba6101186109c19290565b6001600160a01b03909116815260408101929161013a9160200152565b917febbbe9dc3a19d2f959ac76ac0372b4983cdfb945f5d6aef4873c36fabb2ba8aa90610ecd610dcc60405190565b610deb8160208101610ddf888a83610bf3565b9081038252038261031e565b610dfd610df6825190565b9160200190565b20610ec886610a23876001610eb6610e1c610a2884610a23888661091f565b610e3b600091610e35610e3161011885610610565b9190565b14610c0d565b610eb188610e47610a84565b6001600160a01b03891684820152926001600160a01b0387166020850152610e8e610e7182610610565b610e7c816040880152565b610e87816060880152565b6080860152565b610e998d60a0860152565b85151560c0850152610eac4260e0860152565b610994565b610d68565b610a2386610ec884610a23888661091f565b610d72565b610ee8610ee2610edc30610916565b95610916565b93610916565b93610efe610ef560405190565b92839283610d80565b0390a3565b90610a28610f1e91610a23610f16600090565b94600161091f565b91610f2c6101186000610610565b8314159283610f385750565b610118919250610f4b6006916000610994565b015460ff1690565b15610f5a57565b60405162461bcd60e51b815260206004820152601360248201527f5472616e73616374696f6e2065787069726564000000000000000000000000006044820152606490fd5b15610fa657565b60405162461bcd60e51b815260206004820152600c60248201527f496e76616c6964207061746800000000000000000000000000000000000000006044820152606490fd5b90610ff861038183610359565b918252565b369037565b9061013a61101861101284610feb565b93610359565b601f190160208401610ffd565b634e487b7160e01b600052603260045260246000fd5b90611044825190565b811015611055576020809102010190565b611025565b919082039182116109f957565b919082018092116109f957565b9050519061013a8261013c565b9050519061013a8261011b565b9092919261109e61038182610359565b938185526020808601920283019281841161010757915b8383106110c25750505050565b602080916110d08486611081565b8152019201916110b5565b9080601f830112156101075781516101189260200161108e565b91909160c0818403126101075761110c60c0610345565b926111178183611074565b84526111268160208401611074565b60208501526111388160408401611074565b604085015261114a8160608401611074565b6060850152608082015167ffffffffffffffff811161010757826111758360a09361118096016110db565b608087015201611074565b60a0830152565b9060208282031261010757815167ffffffffffffffff81116101075761011892016110f5565b6101d390610610565b6111f761013a946111f06060949897956111e0608086019a60008701906001600160a01b03169052565b6001600160a01b03166020850152565b6040830152565b01906111ad565b6040513d6000823e3d90fd5b1561121157565b60405162461bcd60e51b815260206004820152601a60248201527f496e73756666696369656e74206f757470757420616d6f756e740000000000006044820152606490fd5b929361127090959195611267606090565b50421115610f53565b61128f61127b845190565b611288610e316002610610565b1015610f9f565b61129f61129a845190565b611002565b9081906000966112be816112bb6112b58b610610565b8761103b565b52565b6112c788610610565b8651906112e26101186001936112dc85610610565b9061105a565b8110156114395789806112f430610916565b61130e611301858d61103b565b516001600160a01b031690565b9061132e6113018d6113286113228a610610565b89611067565b9061103b565b61133f61133b878d61103b565b5190565b9261136761134c60405190565b9687958694859463f862701f60e01b5b8652600486016111b6565b03915afa90811561143457838861140161133b8f6113f58f9661133b8a6113e96113016113d661140d9f846114079f8f90611301938f6112bb906113286113fb9f6113c56113ef9f916113d1976113cb938291611412575b50015190565b94610610565b87611067565b61103b565b9b6113286113e38d610610565b85611067565b9761103b565b95610610565b88611067565b8c61103b565b9261226c565b60010190565b6112c7565b61142e91503d8084833e611426818361031e565b810190611187565b386113bf565b6111fe565b5050949095936114c66114c6610ee261133b6114ba6113016114ba6113017fb39c9bc43f811e1a7ce159c5f147458fdb80266bf23c17322013316e27e086d09a9f6114b4906114af6114cc9b8f610e316109e261133b6114a89361132861149e825190565b6112dc6001610610565b101561120a565b610610565b8a61103b565b9761132861149e825190565b94610916565b946114d961073660405190565b0390a4565b6101189291906122f6565b9091939295946114fb90611267600090565b61150430610916565b90600061151060405190565b92839063f862701f60e01b8252818061152f858b8a89600486016111b6565b03915afa918215611434576114c66114c661157760007fb39c9bc43f811e1a7ce159c5f147458fdb80266bf23c17322013316e27e086d0966114cc9582916114125750015190565b93611589611583869c90565b866114a8565b611595858a898461226c565b610916565b61010c6101186101189290565b6101189061159a565b909291906115c6610a2885610a2384600161091f565b6115d6610e316101186000610610565b146116585760009182916115ed61129a6002610610565b956116248161160c8961161a8661160c6116068b610610565b8461103b565b906001600160a01b03169052565b6113286001610610565b61162d30610916565b9161163a61134c60405190565b03915afa908115611434576101189160009182916114125750015190565b61166560029492946115a7565b61167261129a6003610610565b946116a78461160c8861168c8761160c6116066000610610565b61169d8661160c6116066001610610565b6113286002610610565b6116b030610916565b9060008363f862701f956116d6836116c760405190565b958694859461135c8c60e01b90565b0381855afa9384156114345761163a60006116fd81809861135c9682916114125750015190565b6040519889978896879660e01b90565b634e487b7160e01b600052601260045260246000fd5b811561172d570490565b61170d565b90610bdb610a2d610a2861175493611748600090565b50610a2386600161091f565b9061177961176c61010c84516001600160a01b031690565b916001600160a01b031690565b036117b857806117b260406117ac611795606061011896015190565b6117a6670de0b6b3a7640000610610565b906109db565b92015190565b90611723565b806117b260606117ac611795604061011896015190565b156117d657565b60405162461bcd60e51b815260206004820152601d60248201527f496e73756666696369656e74206c6971756964697479206275726e65640000006044820152606490fd5b9694929593829492919261182d600090565b5042111561183a90610f53565b8261184689600161091f565b906118509161091f565b6118599061093e565b6118636000610610565b81141561186f90610948565b61187a906000610994565b9060028201906118898261093e565b61189390856109db565b60048401906118a18261093e565b6118aa91611723565b9283809c60038701946118bc8661093e565b6118c6908a6109db565b6118cf8661093e565b6118d891611723565b978895869f85101590817faa29d8bbadb22be3bb6dbe493ae8a0f5b6bba22ed4da0ab6c4808bab559de8359c61193a6114d99b6119486119549c61193a61194e9d61194861194e9e61193a6119489a6115959f610a7a9e61195e575b506117cf565b6119438361093e565b61105a565b906109aa565b96610916565b966107f860405190565b905086101538611934565b1561197057565b60405162461bcd60e51b815260206004820152601560248201527f496e73756666696369656e74204120616d6f756e7400000000000000000000006044820152606490fd5b156119bc57565b60405162461bcd60e51b815260206004820152601560248201527f496e73756666696369656e74204220616d6f756e7400000000000000000000006044820152606490fd5b610118610140610345565b9061092990610610565b6009610d6161012061013a94611a36611a30600083015190565b866109aa565b611a4d610cde60208301516001600160a01b031690565b611a6d611a6460408301516001600160a01b031690565b60028701610c68565b611a8d611a8460608301516001600160a01b031690565b60038701610c68565b611a9b610d23608083015190565b611aa9610d3a60a083015190565b611ac0611ab760c083015190565b600687016109aa565b611ad7611ace60e083015190565b600787016109aa565b610d5c611ae661010083015190565b600887016109aa565b9061013a91611a16565b60001981146109f95760010190565b95929196611b1d909895919498611267600090565b600195611b58610118611b37610a2888610a23868d61091f565b8060009a8b91611b4c610e3161011885610610565b14611e5c575b50610994565b9860028a01928a611b688561093e565b611b74610e318c610610565b1480611e3d575b15611d0957505050849084888a9b8c95879c8d98611b98916109db565b611ba1906121de565b611ba9610666565b611bb29161105a565b9b611c6c611cd199611c658f9a610b6d610ee29b611c46611caf9b611ccb9f611c8a9b610a7a611c1b92611bf6611c779e5b6119488b611bf18361093e565b611067565b611c0a600384016119488d611bf18361093e565b6119486004840191611bf18361093e565b611c36611c28600361093e565b611c30611a01565b9d8e0152565b6001600160a01b031660208c0152565b6001600160a01b038c1660408b01526001600160a01b031660608a0152565b60a0860152565b6114af8d60c0860152565b611c828160e0850152565b610100830152565b611c9642610120830152565b611caa611ca3600361093e565b6002611a0c565b611aef565b611595611cc4611cbf600361093e565b611af9565b60036109aa565b91610916565b917fa7c0bc175494aac705fdccdb501213f94fb9a6f1dd9be0b3488298cb2dc16088611cfc60405190565b806114d9888a8c846107af565b849a87928995949760038d940198611d35611d2c611d268c61093e565b866109db565b6117b28b61093e565b98828a11611de957505050611d4a611d529190565b8710156119b5565b9b8c959b8c975b6004830190611d678261093e565b611d71908a6109db565b611d7a8461093e565b611d8391611723565b91611d8d9061093e565b611d97908b6109db565b90611da19061093e565b611daa91611723565b611db3916123b0565b9b611c6c611cd199611c658f9a610b6d610ee29b611c46611caf9b611ccb9f611c8a9b610a7a611c1b92611bf6611c779e611be4565b611e1791929950611e279350611e0a611e04611e139261093e565b8b6109db565b6117b28c61093e565b9390565b8311159081611e32575b50611969565b9b8c959b8c97611d59565b905082101538611e21565b50611e4a6003820161093e565b611e56610e318c610610565b14611b7b565b611ef0919250610ec886610a238c611e7360405190565b611e868160208101610ddf858883610bf3565b611e91610df6825190565b2094610eb68698610eb188611ea461061d565b92610e99611eb0610a84565b6001600160a01b038b1683820152946001600160a01b0389166020870152611c65611eda84610610565b611ee58160408a0152565b610b6d8160608a0152565b8938611b52565b91600092611f0e610a288594610a2384600161091f565b611f1b6101186000610610565b8103611f25575050565b610bdb919450611f389293506000610994565b91611f5061176c61010c85516001600160a01b031690565b03611f6b576101186060611f65604085015190565b93015190565b6101186040611f65606085015190565b61011860c0610345565b611f8d611f7b565b90600082526020808080808087016000815201600081520160008152016060610ac3565b610118611f85565b15611fc057565b60405162461bcd60e51b815260206004820152601260248201527f506f6f6c206973206e6f742061637469766500000000000000000000000000006044820152606490fd5b909261200f611fb1565b50612022610a2885610a2385600161091f565b93612041610bdb60009661203b610a3d6101188a610610565b87610994565b9361205761205260c0870151151590565b611fb9565b6127109060a086019561208961208061207a6120718a5190565b61194387610610565b846109db565b6117b285610610565b906120a061010c8a8301516001600160a01b031690565b6001600160a01b038816036121be576117b26120cf92611bf160406120c961207a606087015190565b94015190565b955b6120dc8285886122f6565b946120e684610610565b906120f09161105a565b6120fa90886109db565b61210384610610565b61210c91611723565b936121176002610610565b61212090611002565b9661212a8a610610565b612134908961103b565b6001600160a01b03909116905261214b6001610610565b612155908861103b565b6001600160a01b0390911690525161216c916109db565b9061217690610610565b61217f91611723565b9161218b610708610610565b6121959042611067565b9461219e611f7b565b96870152602086015260408501526060840152608083015260a082015290565b6117b26121d892611bf160606120c961207a604087015190565b956120d1565b6121e86000610610565b811461226157600190816122056121ff6001610610565b83611067565b6122156002916117b26002610610565b9280945b612225575b5050505090565b909192936122308190565b85101561225b575061225261224985611bf18185611723565b6117b284610610565b92919082612219565b9361221e565b506101186000610610565b91909261228a610118610a45610a2861013a97610a2388600161091f565b9261229a61176c61010c86610ade565b036122c8576122b7610a7a926119486002860191611bf18361093e565b61194860038401916119438361093e565b6122e06122f1926119486003860191611bf18361093e565b61194860028401916119438361093e565b610a7a565b9190610a2861231391612307600090565b50610a2385600161091f565b9160009261232361011885610610565b81146123a457908361233e610bdb6123719461237697610994565b9161235861176c61010c848601516001600160a01b031690565b1415905061239a5760400151915b6117a6612710610610565b611723565b9061138882612387610e3183610610565b1161238f5750565b610118919250610610565b6060015191612366565b50505061011890610610565b90808210156123bd575090565b90509056fea26469706673582212203893f5babb4a8bccc0514398665b7d2b78171bb73e671d2c6360361d87bff6d964736f6c63430008160033",
  "linkReferences": {},
  "deployedLinkReferences": {}
}