{
  "_format": "hh-sol-artifact-1",
  "contractName": "MinimalPair",
  "sourceName": "contracts/MinimalPair.sol",
  "abi": [
    {
      "inputs": [],
      "stateMutability": "nonpayable",
      "type": "constructor"
    },
    {
      "anonymous": false,
      "inputs": [
        {
          "indexed": true,
          "internalType": "address",
          "name": "sender",
          "type": "address"
        },
        {
          "indexed": false,
          "internalType": "uint256",
          "name": "amount0",
          "type": "uint256"
        },
        {
          "indexed": false,
          "internalType": "uint256",
          "name": "amount1",
          "type": "uint256"
        }
      ],
      "name": "Burn",
      "type": "event"
    },
    {
      "anonymous": false,
      "inputs": [
        {
          "indexed": true,
          "internalType": "address",
          "name": "sender",
          "type": "address"
        },
        {
          "indexed": false,
          "internalType": "uint256",
          "name": "amount0",
          "type": "uint256"
        },
        {
          "indexed": false,
          "internalType": "uint256",
          "name": "amount1",
          "type": "uint256"
        }
      ],
      "name": "Mint",
      "type": "event"
    },
    {
      "anonymous": false,
      "inputs": [
        {
          "indexed": true,
          "internalType": "address",
          "name": "sender",
          "type": "address"
        },
        {
          "indexed": false,
          "internalType": "uint256",
          "name": "amount0In",
          "type": "uint256"
        },
        {
          "indexed": false,
          "internalType": "uint256",
          "name": "amount1In",
          "type": "uint256"
        },
        {
          "indexed": false,
          "internalType": "uint256",
          "name": "amount0Out",
          "type": "uint256"
        },
        {
          "indexed": false,
          "internalType": "uint256",
          "name": "amount1Out",
          "type": "uint256"
        }
      ],
      "name": "Swap",
      "type": "event"
    },
    {
      "inputs": [
        {
          "internalType": "address",
          "name": "",
          "type": "address"
        }
      ],
      "name": "balanceOf",
      "outputs": [
        {
          "internalType": "uint256",
          "name": "",
          "type": "uint256"
        }
      ],
      "stateMutability": "view",
      "type": "function"
    },
    {
      "inputs": [],
      "name": "blockTimestampLast",
      "outputs": [
        {
          "internalType": "uint32",
          "name": "",
          "type": "uint32"
        }
      ],
      "stateMutability": "view",
      "type": "function"
    },
    {
      "inputs": [],
      "name": "factory",
      "outputs": [
        {
          "internalType": "address",
          "name": "",
          "type": "address"
        }
      ],
      "stateMutability": "view",
      "type": "function"
    },
    {
      "inputs": [],
      "name": "getReserves",
      "outputs": [
        {
          "internalType": "uint112",
          "name": "r0",
          "type": "uint112"
        },
        {
          "internalType": "uint112",
          "name": "r1",
          "type": "uint112"
        },
        {
          "internalType": "uint32",
          "name": "timestamp",
          "type": "uint32"
        }
      ],
      "stateMutability": "view",
      "type": "function"
    },
    {
      "inputs": [
        {
          "internalType": "address",
          "name": "_token0",
          "type": "address"
        },
        {
          "internalType": "address",
          "name": "_token1",
          "type": "address"
        }
      ],
      "name": "initialize",
      "outputs": [],
      "stateMutability": "nonpayable",
      "type": "function"
    },
    {
      "inputs": [],
      "name": "reserve0",
      "outputs": [
        {
          "internalType": "uint112",
          "name": "",
          "type": "uint112"
        }
      ],
      "stateMutability": "view",
      "type": "function"
    },
    {
      "inputs": [],
      "name": "reserve1",
      "outputs": [
        {
          "internalType": "uint112",
          "name": "",
          "type": "uint112"
        }
      ],
      "stateMutability": "view",
      "type": "function"
    },
    {
      "inputs": [
        {
          "internalType": "uint256",
          "name": "amount0Out",
          "type": "uint256"
        },
        {
          "internalType": "uint256",
          "name": "amount1Out",
          "type": "uint256"
        },
        {
          "internalType": "address",
          "name": "to",
          "type": "address"
        }
      ],
      "name": "swap",
      "outputs": [],
      "stateMutability": "nonpayable",
      "type": "function"
    },
    {
      "inputs": [],
      "name": "token0",
      "outputs": [
        {
          "internalType": "address",
          "name": "",
          "type": "address"
        }
      ],
      "stateMutability": "view",
      "type": "function"
    },
    {
      "inputs": [],
      "name": "token1",
      "outputs": [
        {
          "internalType": "address",
          "name": "",
          "type": "address"
        }
      ],
      "stateMutability": "view",
      "type": "function"
    },
    {
      "inputs": [],
      "name": "totalSupply",
      "outputs": [
        {
          "internalType": "uint256",
          "name": "",
          "type": "uint256"
        }
      ],
      "stateMutability": "view",
      "type": "function"
    }
  ],
  "bytecode": "0x6080604052346100225761001161008c565b604051610ed061009a8239610ed090f35b600080fd5b61003b9061003e906001600160a01b031682565b90565b6001600160a01b031690565b61003b90610027565b61003b9061004a565b9061006c61003b61008892610053565b82546001600160a01b0319166001600160a01b03919091161790565b9055565b61009733600561005c565b56fe6080604052600436101561001257600080fd5b60003560e01c80630902f1ac146100c25780630dfe1681146100bd57806318160ddd146100b8578063443cb4bc146100b3578063485cc955146100ae5780635a76f25e146100a95780636d9a640a146100a457806370a082311461009f578063c45a01551461009a578063c5700a02146100955763d21220a7036100c757610469565b61042b565b6103e7565b6103c0565b610331565b6102da565b6102b0565b610234565b6101d6565b61018d565b61010b565b600080fd5b60009103126100c757565b9052565b6dffffffffffffffffffffffffffff91821681529116602082015263ffffffff909116604082015260600190565b565b346100c75761011b3660046100cc565b6101356101266104c3565b604051919391938493846100db565b0390f35b61015b916008021c5b73ffffffffffffffffffffffffffffffffffffffff1690565b90565b9061015b9154610139565b61015b60008061015e565b6100d790610142565b6020810192916101099190610174565b346100c75761019d3660046100cc565b6101356101a8610169565b6040519182918261017d565b61015b916008021c81565b9061015b91546101b4565b61015b600060036101bf565b346100c7576101e63660046100cc565b6101356101f16101ca565b6040519182918290815260200190565b61015b916008021c5b6dffffffffffffffffffffffffffff1690565b9061015b9154610201565b61015b6000600261021d565b346100c7576102443660046100cc565b61013561024f610228565b604051918291826dffffffffffffffffffffffffffff909116815260200190565b61027981610142565b036100c757565b9050359061010982610270565b91906040838203126100c75761015b9060206102a98286610280565b9401610280565b346100c7576102c96102c336600461028d565b9061057f565b604051005b61015b600e600261021d565b346100c7576102ea3660046100cc565b61013561024f6102ce565b80610279565b90503590610109826102f5565b90916060828403126100c75761015b61032184846102fb565b9360406102a982602087016102fb565b346100c7576102c9610344366004610308565b9161077f565b906020828203126100c75761015b91610280565b61014261015b61015b9273ffffffffffffffffffffffffffffffffffffffff1690565b61015b9061035e565b61015b90610381565b9061039d9061038a565b600052602052604060002090565b60006103bb61015b926004610393565b6101bf565b346100c7576101356101f16103d636600461034a565b6103ab565b61015b6000600561015e565b346100c7576103f73660046100cc565b6101356101a86103db565b61015b916008021c5b63ffffffff1690565b9061015b9154610402565b61015b601c6002610414565b346100c75761043b3660046100cc565b61013561044661041f565b6040519182918263ffffffff909116815260200190565b61015b6000600161015e565b346100c7576104793660046100cc565b6101356101a861045d565b61015b9061020a565b61015b9054610484565b61015b9060701c61020a565b61015b9054610497565b61015b9060e01c61040b565b61015b90546104ad565b6104cd600261048d565b906104d860026104a3565b9061015b60026104b9565b61015b90610142565b61015b90546104e3565b156104fd57565b60405162461bcd60e51b815260206004820152600960248201527f464f5242494444454e00000000000000000000000000000000000000000000006044820152606490fd5b9073ffffffffffffffffffffffffffffffffffffffff905b9181191691161790565b9061057461015b61057b9261038a565b8254610542565b9055565b906105b2610109926105ab61059c61059760056104ec565b610142565b6105a533610142565b146104f6565b6000610564565b6001610564565b61015b61015b61015b9290565b156105cd57565b60405162461bcd60e51b815260206004820152601360248201527f494e53554646494349454e545f4f5554505554000000000000000000000000006044820152606490fd5b61015b61015b61015b926dffffffffffffffffffffffffffff1690565b1561063657565b60405162461bcd60e51b815260206004820152601660248201527f494e53554646494349454e545f4c4951554944495459000000000000000000006044820152606490fd5b634e487b7160e01b600052601160045260246000fd5b9190820391821161069e57565b61067b565b156106aa57565b60405162461bcd60e51b815260206004820152601260248201527f494e53554646494349454e545f494e50555400000000000000000000000000006044820152606490fd5b8181029291811591840414171561069e57565b1561070957565b60405162461bcd60e51b815260206004820152600160248201527f4b000000000000000000000000000000000000000000000000000000000000006044820152606490fd5b61077b6101099461077460609498979561076d608086019a6000870152565b6020850152565b6040830152565b0152565b917f49926bbebe8474393f434dfa4f78694c0923efa07d19f2284518bfabd06eb737916000916107ae836105b9565b85118081156109ee575b6107c1906105c6565b6107d36107ce600261048d565b610612565b8610806109d4575b6107e49061062f565b6109c1575b816107f3846105b9565b81116109a7575b505061096f61081061080b846104ec565b610c45565b9161095361082161080b60016104ec565b61083a61015b896108356107ce600261048d565b610691565b8511156109985761085b610855896108356107ce600261048d565b86610691565b945b61087161015b856108356107ce60026104a3565b821115610986576108b061089561088f866108356107ce60026104a3565b84610691565b975b6108a0816105b9565b8811908115610974575b506106a3565b61094e6109116103e86108e66108fe6108f86108f28c6108ec6108db6108d5886105b9565b8b6106ef565b916108e660036105b9565b906106ef565b90610691565b936105b9565b876106ef565b6108ec61090b60036105b9565b8d6106ef565b61094761094361015b61093761092a6107ce600261048d565b6108e66107ce60026104a3565b6108e6620f42406105b9565b9190565b1015610702565b610e28565b61095c3361038a565b9561096660405190565b9485948561074e565b0390a2565b61097e91506105b9565b8811386108aa565b6108b0610992886105b9565b97610897565b6109a1866105b9565b9461085d565b6109ba916109b560016104ec565b610b70565b38816107fa565b6109cf85826109b5866104ec565b6107e9565b506107e46109e56107ce60026104a3565b841090506107db565b506107c16109fb856105b9565b841190506107b8565b610a17610a1161015b9290565b60e01b90565b7fffffffff000000000000000000000000000000000000000000000000000000001690565b91602061010992949361077b60408201966000830190610174565b634e487b7160e01b600052604160045260246000fd5b90601f01601f1916810190811067ffffffffffffffff821117610a8f57604052565b610a57565b90610109610aa160405190565b9283610a6d565b67ffffffffffffffff8111610a8f57602090601f01601f19160190565b90610ad7610ad283610aa8565b610a94565b918252565b3d15610af657610aeb3d610ac5565b903d6000602084013e565b606090565b801515610279565b9050519061010982610afb565b906020828203126100c75761015b91610b03565b15610b2b57565b60405162461bcd60e51b815260206004820152600f60248201527f5452414e534645525f4641494c454400000000000000000000000000000000006044820152606490fd5b600460009291610bb88493610ba961010997610b8f63a9059cbb610a04565b92610b9960405190565b9687946020860190815201610a3c565b60208201810382520383610a6d565b82602083519301915af1610bca610adc565b81610bd6575b50610b24565b9050610be0815190565b610bed61094360006105b9565b14908115610bfd575b5038610bd0565b610c1791506020610c0c825190565b818301019101610b10565b38610bf6565b156100c757565b90505190610109826102f5565b906020828203126100c75761015b91610c24565b600080600461015b93610c56600090565b50610c8d610c633061038a565b610ba9610c736370a08231610a04565b91610c7d60405190565b958693602085019081520161017d565b602082519201905afa610c9e610adc565b9080610cc3575b610cae90610c1d565b6020610cb8825190565b818301019101610c31565b50610cae610ccf825190565b610cdc61094360206105b9565b10159050610ca5565b15610cec57565b60405162461bcd60e51b815260206004820152600860248201527f4f564552464c4f570000000000000000000000000000000000000000000000006044820152606490fd5b61020a61015b61015b9290565b906dffffffffffffffffffffffffffff9061055a565b61020a61015b61015b926dffffffffffffffffffffffffffff1690565b90610d8161015b61057b92610d54565b8254610d3e565b907bffffffffffffffffffffffffffff00000000000000000000000000009060701b61055a565b90610dbf61015b61057b92610d54565b8254610d88565b61040b61015b61015b9290565b907fffffffff000000000000000000000000000000000000000000000000000000009060e01b61055a565b61040b61015b61015b9263ffffffff1690565b90610e2161015b61057b92610dfe565b8254610dd3565b610e7491610e61610e66610e6d93610e616dffffffffffffffffffffffffffff610e5181610612565b8311159081610e87575b50610ce5565b610d31565b6002610d71565b6002610daf565b610109610e8042610dc6565b6002610e11565b610e919150610612565b85111538610e5b56fea2646970667358221220d50e044d836763553105658630fdd947d2a77bf90e48079bdbf953ec2ea01d9f64736f6c63430008160033",
  "linkReferences": {},
  "deployedLinkReferences": {}
}