{
  "_format": "hh-sol-artifact-1",
  "contractName": "RedemptionManager",
  "sourceName": "contracts/RedemptionManager.sol",
  "abi": [
    {
      "inputs": [
        {
          "internalType": "address",
          "name": "_priceFeed",
          "type": "address"
        },
        {
          "internalType": "address",
          "name": "_amm",
          "type": "address"
        },
        {
          "internalType": "address",
          "name": "_multiChainAggregator",
          "type": "address"
        },
        {
          "internalType": "address",
          "name": "_indexTokenFactory",
          "type": "address"
        },
        {
          "internalType": "address",
          "name": "_chainVault",
          "type": "address"
        }
      ],
      "stateMutability": "nonpayable",
      "type": "constructor"
    },
    {
      "inputs": [],
      "name": "AccessControlBadConfirmation",
      "type": "error"
    },
    {
      "inputs": [
        {
          "internalType": "address",
          "name": "account",
          "type": "address"
        },
        {
          "internalType": "bytes32",
          "name": "neededRole",
          "type": "bytes32"
        }
      ],
      "name": "AccessControlUnauthorizedAccount",
      "type": "error"
    },
    {
      "inputs": [],
      "name": "ReentrancyGuardReentrantCall",
      "type": "error"
    },
    {
      "inputs": [
        {
          "internalType": "address",
          "name": "token",
          "type": "address"
        }
      ],
      "name": "SafeERC20FailedOperation",
      "type": "error"
    },
    {
      "anonymous": false,
      "inputs": [
        {
          "indexed": true,
          "internalType": "uint256",
          "name": "requestId",
          "type": "uint256"
        },
        {
          "indexed": false,
          "internalType": "uint32",
          "name": "assetIndex",
          "type": "uint32"
        },
        {
          "indexed": false,
          "internalType": "uint256",
          "name": "amount",
          "type": "uint256"
        },
        {
          "indexed": false,
          "internalType": "uint256",
          "name": "sourceChain",
          "type": "uint256"
        },
        {
          "indexed": false,
          "internalType": "uint256",
          "name": "targetChain",
          "type": "uint256"
        },
        {
          "indexed": false,
          "internalType": "bytes32",
          "name": "transactionHash",
          "type": "bytes32"
        }
      ],
      "name": "CrossChainLiquidation",
      "type": "event"
    },
    {
      "anonymous": false,
      "inputs": [
        {
          "indexed": true,
          "internalType": "uint256",
          "name": "requestId",
          "type": "uint256"
        },
        {
          "indexed": false,
          "internalType": "bool",
          "name": "sufficient",
          "type": "bool"
        },
        {
          "indexed": false,
          "internalType": "string[]",
          "name": "insufficientAssets",
          "type": "string[]"
        },
        {
          "indexed": false,
          "internalType": "uint256[]",
          "name": "shortfalls",
          "type": "uint256[]"
        }
      ],
      "name": "LiquidityValidationResult",
      "type": "event"
    },
    {
      "anonymous": false,
      "inputs": [
        {
          "indexed": true,
          "internalType": "uint256",
          "name": "requestId",
          "type": "uint256"
        },
        {
          "indexed": true,
          "internalType": "bytes32",
          "name": "fundId",
          "type": "bytes32"
        },
        {
          "indexed": false,
          "internalType": "uint256",
          "name": "tokenAmount",
          "type": "uint256"
        },
        {
          "components": [
            {
              "internalType": "address",
              "name": "tokenAddress",
              "type": "address"
            },
            {
              "internalType": "uint32",
              "name": "assetIndex",
              "type": "uint32"
            },
            {
              "internalType": "uint256",
              "name": "amount",
              "type": "uint256"
            },
            {
              "internalType": "uint256",
              "name": "receivedAmount",
              "type": "uint256"
            },
            {
              "internalType": "enum IPriceFeed.PriceSource",
              "name": "source",
              "type": "uint8"
            },
            {
              "internalType": "uint256",
              "name": "priceImpact",
              "type": "uint256"
            },
            {
              "internalType": "uint256",
              "name": "executionCost",
              "type": "uint256"
            },
            {
              "internalType": "uint256",
              "name": "chainId",
              "type": "uint256"
            }
          ],
          "indexed": false,
          "internalType": "struct IRedemptionManager.ComponentLiquidation[]",
          "name": "liquidations",
          "type": "tuple[]"
        },
        {
          "indexed": false,
          "internalType": "uint256",
          "name": "totalValueReturned",
          "type": "uint256"
        },
        {
          "indexed": false,
          "internalType": "enum IRedemptionManager.RedemptionStrategy",
          "name": "executedStrategy",
          "type": "uint8"
        }
      ],
      "name": "RedemptionExecuted",
      "type": "event"
    },
    {
      "anonymous": false,
      "inputs": [
        {
          "indexed": true,
          "internalType": "uint256",
          "name": "requestId",
          "type": "uint256"
        },
        {
          "indexed": false,
          "internalType": "string",
          "name": "reason",
          "type": "string"
        },
        {
          "indexed": false,
          "internalType": "uint256",
          "name": "timestamp",
          "type": "uint256"
        }
      ],
      "name": "RedemptionFailed",
      "type": "event"
    },
    {
      "anonymous": false,
      "inputs": [
        {
          "indexed": true,
          "internalType": "address",
          "name": "requester",
          "type": "address"
        },
        {
          "indexed": true,
          "internalType": "bytes32",
          "name": "fundId",
          "type": "bytes32"
        },
        {
          "indexed": false,
          "internalType": "uint256",
          "name": "tokenAmount",
          "type": "uint256"
        },
        {
          "indexed": false,
          "internalType": "uint256",
          "name": "requestId",
          "type": "uint256"
        },
        {
          "indexed": false,
          "internalType": "enum IRedemptionManager.RedemptionStrategy",
          "name": "strategy",
          "type": "uint8"
        },
        {
          "indexed": false,
          "internalType": "uint256",
          "name": "timestamp",
          "type": "uint256"
        }
      ],
      "name": "RedemptionRequested",
      "type": "event"
    },
    {
      "anonymous": false,
      "inputs": [
        {
          "indexed": true,
          "internalType": "bytes32",
          "name": "role",
          "type": "bytes32"
        },
        {
          "indexed": true,
          "internalType": "bytes32",
          "name": "previousAdminRole",
          "type": "bytes32"
        },
        {
          "indexed": true,
          "internalType": "bytes32",
          "name": "newAdminRole",
          "type": "bytes32"
        }
      ],
      "name": "RoleAdminChanged",
      "type": "event"
    },
    {
      "anonymous": false,
      "inputs": [
        {
          "indexed": true,
          "internalType": "bytes32",
          "name": "role",
          "type": "bytes32"
        },
        {
          "indexed": true,
          "internalType": "address",
          "name": "account",
          "type": "address"
        },
        {
          "indexed": true,
          "internalType": "address",
          "name": "sender",
          "type": "address"
        }
      ],
      "name": "RoleGranted",
      "type": "event"
    },
    {
      "anonymous": false,
      "inputs": [
        {
          "indexed": true,
          "internalType": "bytes32",
          "name": "role",
          "type": "bytes32"
        },
        {
          "indexed": true,
          "internalType": "address",
          "name": "account",
          "type": "address"
        },
        {
          "indexed": true,
          "internalType": "address",
          "name": "sender",
          "type": "address"
        }
      ],
      "name": "RoleRevoked",
      "type": "event"
    },
    {
      "anonymous": false,
      "inputs": [
        {
          "indexed": true,
          "internalType": "uint256",
          "name": "requestId",
          "type": "uint256"
        },
        {
          "components": [
            {
              "internalType": "uint32",
              "name": "assetIndex",
              "type": "uint32"
            },
            {
              "internalType": "uint256",
              "name": "amount",
              "type": "uint256"
            },
            {
              "internalType": "enum IPriceFeed.PriceSource[]",
              "name": "sources",
              "type": "uint8[]"
            },
            {
              "internalType": "uint256[]",
              "name": "amounts",
              "type": "uint256[]"
            },
            {
              "internalType": "uint256[]",
              "name": "expectedPrices",
              "type": "uint256[]"
            },
            {
              "internalType": "uint256",
              "name": "totalPriceImpact",
              "type": "uint256"
            },
            {
              "internalType": "uint256",
              "name": "estimatedGas",
              "type": "uint256"
            },
            {
              "internalType": "uint256",
              "name": "executionChain",
              "type": "uint256"
            },
            {
              "internalType": "bool",
              "name": "requiresCrossChain",
              "type": "bool"
            }
          ],
          "indexed": false,
          "internalType": "struct IRedemptionManager.LiquidationRoute[]",
          "name": "routes",
          "type": "tuple[]"
        },
        {
          "indexed": false,
          "internalType": "uint256",
          "name": "totalExecutionCost",
          "type": "uint256"
        },
        {
          "indexed": false,
          "internalType": "uint256",
          "name": "priceImpact",
          "type": "uint256"
        }
      ],
      "name": "RoutingOptimized",
      "type": "event"
    },
    {
      "inputs": [],
      "name": "DEFAULT_ADMIN_ROLE",
      "outputs": [
        {
          "internalType": "bytes32",
          "name": "",
          "type": "bytes32"
        }
      ],
      "stateMutability": "view",
      "type": "function"
    },
    {
      "inputs": [],
      "name": "EMERGENCY_ROLE",
      "outputs": [
        {
          "internalType": "bytes32",
          "name": "",
          "type": "bytes32"
        }
      ],
      "stateMutability": "view",
      "type": "function"
    },
    {
      "inputs": [],
      "name": "REDEMPTION_EXECUTOR_ROLE",
      "outputs": [
        {
          "internalType": "bytes32",
          "name": "",
          "type": "bytes32"
        }
      ],
      "stateMutability": "view",
      "type": "function"
    },
    {
      "inputs": [
        {
          "internalType": "uint256",
          "name": "requestId",
          "type": "uint256"
        }
      ],
      "name": "_executeRedemptionInternal",
      "outputs": [
        {
          "internalType": "uint256",
          "name": "totalReturned",
          "type": "uint256"
        }
      ],
      "stateMutability": "nonpayable",
      "type": "function"
    },
    {
      "inputs": [],
      "name": "amm",
      "outputs": [
        {
          "internalType": "contract IAMM",
          "name": "",
          "type": "address"
        }
      ],
      "stateMutability": "view",
      "type": "function"
    },
    {
      "inputs": [
        {
          "internalType": "bytes32",
          "name": "fundId",
          "type": "bytes32"
        },
        {
          "internalType": "uint256",
          "name": "tokenAmount",
          "type": "uint256"
        },
        {
          "internalType": "enum IRedemptionManager.RedemptionStrategy",
          "name": "strategy",
          "type": "uint8"
        },
        {
          "internalType": "uint256",
          "name": "maxSlippage",
          "type": "uint256"
        }
      ],
      "name": "calculateOptimalRoute",
      "outputs": [
        {
          "components": [
            {
              "internalType": "uint32",
              "name": "assetIndex",
              "type": "uint32"
            },
            {
              "internalType": "uint256",
              "name": "amount",
              "type": "uint256"
            },
            {
              "internalType": "enum IPriceFeed.PriceSource[]",
              "name": "sources",
              "type": "uint8[]"
            },
            {
              "internalType": "uint256[]",
              "name": "amounts",
              "type": "uint256[]"
            },
            {
              "internalType": "uint256[]",
              "name": "expectedPrices",
              "type": "uint256[]"
            },
            {
              "internalType": "uint256",
              "name": "totalPriceImpact",
              "type": "uint256"
            },
            {
              "internalType": "uint256",
              "name": "estimatedGas",
              "type": "uint256"
            },
            {
              "internalType": "uint256",
              "name": "executionChain",
              "type": "uint256"
            },
            {
              "internalType": "bool",
              "name": "requiresCrossChain",
              "type": "bool"
            }
          ],
          "internalType": "struct IRedemptionManager.LiquidationRoute[]",
          "name": "routes",
          "type": "tuple[]"
        },
        {
          "internalType": "uint256",
          "name": "estimatedReturn",
          "type": "uint256"
        }
      ],
      "stateMutability": "view",
      "type": "function"
    },
    {
      "inputs": [
        {
          "internalType": "bytes32",
          "name": "fundId",
          "type": "bytes32"
        },
        {
          "internalType": "uint256",
          "name": "tokenAmount",
          "type": "uint256"
        }
      ],
      "name": "calculateRedemptionValue",
      "outputs": [
        {
          "internalType": "uint256",
          "name": "totalValue",
          "type": "uint256"
        },
        {
          "components": [
            {
              "internalType": "address",
              "name": "tokenAddress",
              "type": "address"
            },
            {
              "internalType": "uint32",
              "name": "assetIndex",
              "type": "uint32"
            },
            {
              "internalType": "uint256",
              "name": "amount",
              "type": "uint256"
            },
            {
              "internalType": "uint256",
              "name": "receivedAmount",
              "type": "uint256"
            },
            {
              "internalType": "enum IPriceFeed.PriceSource",
              "name": "source",
              "type": "uint8"
            },
            {
              "internalType": "uint256",
              "name": "priceImpact",
              "type": "uint256"
            },
            {
              "internalType": "uint256",
              "name": "executionCost",
              "type": "uint256"
            },
            {
              "internalType": "uint256",
              "name": "chainId",
              "type": "uint256"
            }
          ],
          "internalType": "struct IRedemptionManager.ComponentLiquidation[]",
          "name": "breakdown",
          "type": "tuple[]"
        }
      ],
      "stateMutability": "view",
      "type": "function"
    },
    {
      "inputs": [
        {
          "internalType": "uint256",
          "name": "requestId",
          "type": "uint256"
        }
      ],
      "name": "cancelRedemption",
      "outputs": [
        {
          "internalType": "bool",
          "name": "success",
          "type": "bool"
        }
      ],
      "stateMutability": "nonpayable",
      "type": "function"
    },
    {
      "inputs": [],
      "name": "chainVault",
      "outputs": [
        {
          "internalType": "contract IChainVault",
          "name": "",
          "type": "address"
        }
      ],
      "stateMutability": "view",
      "type": "function"
    },
    {
      "inputs": [
        {
          "internalType": "bytes32",
          "name": "fundId",
          "type": "bytes32"
        },
        {
          "internalType": "uint256",
          "name": "tokenAmount",
          "type": "uint256"
        },
        {
          "internalType": "enum IRedemptionManager.RedemptionStrategy",
          "name": "strategy",
          "type": "uint8"
        }
      ],
      "name": "checkLiquidityAvailability",
      "outputs": [
        {
          "internalType": "bool",
          "name": "sufficient",
          "type": "bool"
        },
        {
          "internalType": "string[]",
          "name": "insufficientAssets",
          "type": "string[]"
        },
        {
          "internalType": "uint256[]",
          "name": "shortfalls",
          "type": "uint256[]"
        }
      ],
      "stateMutability": "view",
      "type": "function"
    },
    {
      "inputs": [],
      "name": "defaultSlippageTolerance",
      "outputs": [
        {
          "internalType": "uint256",
          "name": "",
          "type": "uint256"
        }
      ],
      "stateMutability": "view",
      "type": "function"
    },
    {
      "inputs": [
        {
          "internalType": "bytes32",
          "name": "fundId",
          "type": "bytes32"
        },
        {
          "internalType": "uint32",
          "name": "assetIndex",
          "type": "uint32"
        },
        {
          "internalType": "uint256",
          "name": "amount",
          "type": "uint256"
        },
        {
          "internalType": "address",
          "name": "recipient",
          "type": "address"
        }
      ],
      "name": "emergencyLiquidatePosition",
      "outputs": [],
      "stateMutability": "nonpayable",
      "type": "function"
    },
    {
      "inputs": [],
      "name": "emergencyPause",
      "outputs": [],
      "stateMutability": "nonpayable",
      "type": "function"
    },
    {
      "inputs": [],
      "name": "emergencySlippageTolerance",
      "outputs": [
        {
          "internalType": "uint256",
          "name": "",
          "type": "uint256"
        }
      ],
      "stateMutability": "view",
      "type": "function"
    },
    {
      "inputs": [],
      "name": "emergencyUnpause",
      "outputs": [],
      "stateMutability": "nonpayable",
      "type": "function"
    },
    {
      "inputs": [
        {
          "internalType": "enum IRedemptionManager.RedemptionStrategy",
          "name": "strategy",
          "type": "uint8"
        },
        {
          "internalType": "bool",
          "name": "enabled",
          "type": "bool"
        }
      ],
      "name": "enableRedemptionStrategy",
      "outputs": [],
      "stateMutability": "nonpayable",
      "type": "function"
    },
    {
      "inputs": [
        {
          "internalType": "uint256[]",
          "name": "requestIds",
          "type": "uint256[]"
        }
      ],
      "name": "executeBatchRedemption",
      "outputs": [
        {
          "internalType": "bool[]",
          "name": "successes",
          "type": "bool[]"
        },
        {
          "internalType": "uint256[]",
          "name": "totalReturned",
          "type": "uint256[]"
        }
      ],
      "stateMutability": "nonpayable",
      "type": "function"
    },
    {
      "inputs": [
        {
          "internalType": "uint256",
          "name": "requestId",
          "type": "uint256"
        }
      ],
      "name": "executeRedemption",
      "outputs": [
        {
          "internalType": "bool",
          "name": "success",
          "type": "bool"
        },
        {
          "internalType": "uint256",
          "name": "totalReturned",
          "type": "uint256"
        }
      ],
      "stateMutability": "nonpayable",
      "type": "function"
    },
    {
      "inputs": [],
      "name": "executionDeadline",
      "outputs": [
        {
          "internalType": "uint256",
          "name": "",
          "type": "uint256"
        }
      ],
      "stateMutability": "view",
      "type": "function"
    },
    {
      "inputs": [],
      "name": "getAMM",
      "outputs": [
        {
          "internalType": "address",
          "name": "",
          "type": "address"
        }
      ],
      "stateMutability": "view",
      "type": "function"
    },
    {
      "inputs": [
        {
          "internalType": "address",
          "name": "user",
          "type": "address"
        }
      ],
      "name": "getActiveRedemptions",
      "outputs": [
        {
          "internalType": "uint256[]",
          "name": "requestIds",
          "type": "uint256[]"
        }
      ],
      "stateMutability": "view",
      "type": "function"
    },
    {
      "inputs": [],
      "name": "getChainVault",
      "outputs": [
        {
          "internalType": "address",
          "name": "",
          "type": "address"
        }
      ],
      "stateMutability": "view",
      "type": "function"
    },
    {
      "inputs": [],
      "name": "getDefaultSlippageTolerance",
      "outputs": [
        {
          "internalType": "uint256",
          "name": "",
          "type": "uint256"
        }
      ],
      "stateMutability": "view",
      "type": "function"
    },
    {
      "inputs": [],
      "name": "getExecutionDeadline",
      "outputs": [
        {
          "internalType": "uint256",
          "name": "",
          "type": "uint256"
        }
      ],
      "stateMutability": "view",
      "type": "function"
    },
    {
      "inputs": [],
      "name": "getIndexTokenFactory",
      "outputs": [
        {
          "internalType": "address",
          "name": "",
          "type": "address"
        }
      ],
      "stateMutability": "view",
      "type": "function"
    },
    {
      "inputs": [],
      "name": "getMaxSlippageTolerance",
      "outputs": [
        {
          "internalType": "uint256",
          "name": "",
          "type": "uint256"
        }
      ],
      "stateMutability": "view",
      "type": "function"
    },
    {
      "inputs": [
        {
          "internalType": "bytes32",
          "name": "fundId",
          "type": "bytes32"
        }
      ],
      "name": "getMaximumRedemptionAmount",
      "outputs": [
        {
          "internalType": "uint256",
          "name": "",
          "type": "uint256"
        }
      ],
      "stateMutability": "view",
      "type": "function"
    },
    {
      "inputs": [
        {
          "internalType": "bytes32",
          "name": "fundId",
          "type": "bytes32"
        }
      ],
      "name": "getMinimumRedemptionAmount",
      "outputs": [
        {
          "internalType": "uint256",
          "name": "",
          "type": "uint256"
        }
      ],
      "stateMutability": "view",
      "type": "function"
    },
    {
      "inputs": [],
      "name": "getMultiChainAggregator",
      "outputs": [
        {
          "internalType": "address",
          "name": "",
          "type": "address"
        }
      ],
      "stateMutability": "view",
      "type": "function"
    },
    {
      "inputs": [
        {
          "internalType": "bytes32",
          "name": "fundId",
          "type": "bytes32"
        },
        {
          "internalType": "uint256",
          "name": "tokenAmount",
          "type": "uint256"
        }
      ],
      "name": "getOptimalStrategyForAmount",
      "outputs": [
        {
          "internalType": "enum IRedemptionManager.RedemptionStrategy",
          "name": "recommendedStrategy",
          "type": "uint8"
        },
        {
          "internalType": "string",
          "name": "reason",
          "type": "string"
        }
      ],
      "stateMutability": "view",
      "type": "function"
    },
    {
      "inputs": [],
      "name": "getOrderbook",
      "outputs": [
        {
          "internalType": "address",
          "name": "",
          "type": "address"
        }
      ],
      "stateMutability": "view",
      "type": "function"
    },
    {
      "inputs": [],
      "name": "getPriceFeed",
      "outputs": [
        {
          "internalType": "address",
          "name": "",
          "type": "address"
        }
      ],
      "stateMutability": "view",
      "type": "function"
    },
    {
      "inputs": [
        {
          "internalType": "uint256",
          "name": "requestId",
          "type": "uint256"
        }
      ],
      "name": "getRedemptionRequest",
      "outputs": [
        {
          "components": [
            {
              "internalType": "uint256",
              "name": "id",
              "type": "uint256"
            },
            {
              "internalType": "address",
              "name": "requester",
              "type": "address"
            },
            {
              "internalType": "bytes32",
              "name": "fundId",
              "type": "bytes32"
            },
            {
              "internalType": "uint256",
              "name": "tokenAmount",
              "type": "uint256"
            },
            {
              "internalType": "uint256",
              "name": "estimatedValue",
              "type": "uint256"
            },
            {
              "internalType": "enum IRedemptionManager.RedemptionStrategy",
              "name": "strategy",
              "type": "uint8"
            },
            {
              "components": [
                {
                  "internalType": "uint32",
                  "name": "assetIndex",
                  "type": "uint32"
                },
                {
                  "internalType": "uint256",
                  "name": "amount",
                  "type": "uint256"
                },
                {
                  "internalType": "enum IPriceFeed.PriceSource[]",
                  "name": "sources",
                  "type": "uint8[]"
                },
                {
                  "internalType": "uint256[]",
                  "name": "amounts",
                  "type": "uint256[]"
                },
                {
                  "internalType": "uint256[]",
                  "name": "expectedPrices",
                  "type": "uint256[]"
                },
                {
                  "internalType": "uint256",
                  "name": "totalPriceImpact",
                  "type": "uint256"
                },
                {
                  "internalType": "uint256",
                  "name": "estimatedGas",
                  "type": "uint256"
                },
                {
                  "internalType": "uint256",
                  "name": "executionChain",
                  "type": "uint256"
                },
                {
                  "internalType": "bool",
                  "name": "requiresCrossChain",
                  "type": "bool"
                }
              ],
              "internalType": "struct IRedemptionManager.LiquidationRoute[]",
              "name": "routes",
              "type": "tuple[]"
            },
            {
              "internalType": "uint256",
              "name": "maxSlippage",
              "type": "uint256"
            },
            {
              "internalType": "uint256",
              "name": "minReturnAmount",
              "type": "uint256"
            },
            {
              "internalType": "uint256",
              "name": "timestamp",
              "type": "uint256"
            },
            {
              "internalType": "enum IRedemptionManager.RedemptionStatus",
              "name": "status",
              "type": "uint8"
            },
            {
              "components": [
                {
                  "internalType": "address",
                  "name": "tokenAddress",
                  "type": "address"
                },
                {
                  "internalType": "uint32",
                  "name": "assetIndex",
                  "type": "uint32"
                },
                {
                  "internalType": "uint256",
                  "name": "amount",
                  "type": "uint256"
                },
                {
                  "internalType": "uint256",
                  "name": "receivedAmount",
                  "type": "uint256"
                },
                {
                  "internalType": "enum IPriceFeed.PriceSource",
                  "name": "source",
                  "type": "uint8"
                },
                {
                  "internalType": "uint256",
                  "name": "priceImpact",
                  "type": "uint256"
                },
                {
                  "internalType": "uint256",
                  "name": "executionCost",
                  "type": "uint256"
                },
                {
                  "internalType": "uint256",
                  "name": "chainId",
                  "type": "uint256"
                }
              ],
              "internalType": "struct IRedemptionManager.ComponentLiquidation[]",
              "name": "liquidations",
              "type": "tuple[]"
            },
            {
              "internalType": "uint256",
              "name": "totalReturned",
              "type": "uint256"
            },
            {
              "internalType": "string",
              "name": "failureReason",
              "type": "string"
            },
            {
              "internalType": "uint256",
              "name": "deadline",
              "type": "uint256"
            }
          ],
          "internalType": "struct IRedemptionManager.RedemptionRequest",
          "name": "",
          "type": "tuple"
        }
      ],
      "stateMutability": "view",
      "type": "function"
    },
    {
      "inputs": [
        {
          "internalType": "bytes32",
          "name": "fundId",
          "type": "bytes32"
        }
      ],
      "name": "getRedemptionStats",
      "outputs": [
        {
          "internalType": "uint256",
          "name": "totalRedemptions",
          "type": "uint256"
        },
        {
          "internalType": "uint256",
          "name": "totalValueRedeemed",
          "type": "uint256"
        },
        {
          "internalType": "uint256",
          "name": "averageSlippage",
          "type": "uint256"
        },
        {
          "internalType": "uint256",
          "name": "successRate",
          "type": "uint256"
        }
      ],
      "stateMutability": "view",
      "type": "function"
    },
    {
      "inputs": [
        {
          "internalType": "bytes32",
          "name": "role",
          "type": "bytes32"
        }
      ],
      "name": "getRoleAdmin",
      "outputs": [
        {
          "internalType": "bytes32",
          "name": "",
          "type": "bytes32"
        }
      ],
      "stateMutability": "view",
      "type": "function"
    },
    {
      "inputs": [],
      "name": "getStrategyPriorityOrder",
      "outputs": [
        {
          "internalType": "enum IRedemptionManager.RedemptionStrategy[]",
          "name": "",
          "type": "uint8[]"
        }
      ],
      "stateMutability": "view",
      "type": "function"
    },
    {
      "inputs": [],
      "name": "getTotalRedemptions",
      "outputs": [
        {
          "internalType": "uint256",
          "name": "",
          "type": "uint256"
        }
      ],
      "stateMutability": "view",
      "type": "function"
    },
    {
      "inputs": [],
      "name": "getTotalValueRedeemed",
      "outputs": [
        {
          "internalType": "uint256",
          "name": "",
          "type": "uint256"
        }
      ],
      "stateMutability": "view",
      "type": "function"
    },
    {
      "inputs": [
        {
          "internalType": "address",
          "name": "user",
          "type": "address"
        },
        {
          "internalType": "uint256",
          "name": "limit",
          "type": "uint256"
        },
        {
          "internalType": "uint256",
          "name": "offset",
          "type": "uint256"
        }
      ],
      "name": "getUserRedemptionHistory",
      "outputs": [
        {
          "components": [
            {
              "internalType": "uint256",
              "name": "id",
              "type": "uint256"
            },
            {
              "internalType": "address",
              "name": "requester",
              "type": "address"
            },
            {
              "internalType": "bytes32",
              "name": "fundId",
              "type": "bytes32"
            },
            {
              "internalType": "uint256",
              "name": "tokenAmount",
              "type": "uint256"
            },
            {
              "internalType": "uint256",
              "name": "estimatedValue",
              "type": "uint256"
            },
            {
              "internalType": "enum IRedemptionManager.RedemptionStrategy",
              "name": "strategy",
              "type": "uint8"
            },
            {
              "components": [
                {
                  "internalType": "uint32",
                  "name": "assetIndex",
                  "type": "uint32"
                },
                {
                  "internalType": "uint256",
                  "name": "amount",
                  "type": "uint256"
                },
                {
                  "internalType": "enum IPriceFeed.PriceSource[]",
                  "name": "sources",
                  "type": "uint8[]"
                },
                {
                  "internalType": "uint256[]",
                  "name": "amounts",
                  "type": "uint256[]"
                },
                {
                  "internalType": "uint256[]",
                  "name": "expectedPrices",
                  "type": "uint256[]"
                },
                {
                  "internalType": "uint256",
                  "name": "totalPriceImpact",
                  "type": "uint256"
                },
                {
                  "internalType": "uint256",
                  "name": "estimatedGas",
                  "type": "uint256"
                },
                {
                  "internalType": "uint256",
                  "name": "executionChain",
                  "type": "uint256"
                },
                {
                  "internalType": "bool",
                  "name": "requiresCrossChain",
                  "type": "bool"
                }
              ],
              "internalType": "struct IRedemptionManager.LiquidationRoute[]",
              "name": "routes",
              "type": "tuple[]"
            },
            {
              "internalType": "uint256",
              "name": "maxSlippage",
              "type": "uint256"
            },
            {
              "internalType": "uint256",
              "name": "minReturnAmount",
              "type": "uint256"
            },
            {
              "internalType": "uint256",
              "name": "timestamp",
              "type": "uint256"
            },
            {
              "internalType": "enum IRedemptionManager.RedemptionStatus",
              "name": "status",
              "type": "uint8"
            },
            {
              "components": [
                {
                  "internalType": "address",
                  "name": "tokenAddress",
                  "type": "address"
                },
                {
                  "internalType": "uint32",
                  "name": "assetIndex",
                  "type": "uint32"
                },
                {
                  "internalType": "uint256",
                  "name": "amount",
                  "type": "uint256"
                },
                {
                  "internalType": "uint256",
                  "name": "receivedAmount",
                  "type": "uint256"
                },
                {
                  "internalType": "enum IPriceFeed.PriceSource",
                  "name": "source",
                  "type": "uint8"
                },
                {
                  "internalType": "uint256",
                  "name": "priceImpact",
                  "type": "uint256"
                },
                {
                  "internalType": "uint256",
                  "name": "executionCost",
                  "type": "uint256"
                },
                {
                  "internalType": "uint256",
                  "name": "chainId",
                  "type": "uint256"
                }
              ],
              "internalType": "struct IRedemptionManager.ComponentLiquidation[]",
              "name": "liquidations",
              "type": "tuple[]"
            },
            {
              "internalType": "uint256",
              "name": "totalReturned",
              "type": "uint256"
            },
            {
              "internalType": "string",
              "name": "failureReason",
              "type": "string"
            },
            {
              "internalType": "uint256",
              "name": "deadline",
              "type": "uint256"
            }
          ],
          "internalType": "struct IRedemptionManager.RedemptionRequest[]",
          "name": "requests",
          "type": "tuple[]"
        }
      ],
      "stateMutability": "view",
      "type": "function"
    },
    {
      "inputs": [],
      "name": "globalStats",
      "outputs": [
        {
          "internalType": "uint256",
          "name": "totalRedemptions",
          "type": "uint256"
        },
        {
          "internalType": "uint256",
          "name": "totalValueRedeemed",
          "type": "uint256"
        },
        {
          "internalType": "uint256",
          "name": "totalSlippage",
          "type": "uint256"
        },
        {
          "internalType": "uint256",
          "name": "successfulRedemptions",
          "type": "uint256"
        }
      ],
      "stateMutability": "view",
      "type": "function"
    },
    {
      "inputs": [
        {
          "internalType": "bytes32",
          "name": "role",
          "type": "bytes32"
        },
        {
          "internalType": "address",
          "name": "account",
          "type": "address"
        }
      ],
      "name": "grantRole",
      "outputs": [],
      "stateMutability": "nonpayable",
      "type": "function"
    },
    {
      "inputs": [
        {
          "internalType": "bytes32",
          "name": "role",
          "type": "bytes32"
        },
        {
          "internalType": "address",
          "name": "account",
          "type": "address"
        }
      ],
      "name": "hasRole",
      "outputs": [
        {
          "internalType": "bool",
          "name": "",
          "type": "bool"
        }
      ],
      "stateMutability": "view",
      "type": "function"
    },
    {
      "inputs": [],
      "name": "indexTokenFactory",
      "outputs": [
        {
          "internalType": "contract IIndexTokenFactory",
          "name": "",
          "type": "address"
        }
      ],
      "stateMutability": "view",
      "type": "function"
    },
    {
      "inputs": [
        {
          "internalType": "address",
          "name": "user",
          "type": "address"
        },
        {
          "internalType": "bytes32",
          "name": "fundId",
          "type": "bytes32"
        },
        {
          "internalType": "uint256",
          "name": "tokenAmount",
          "type": "uint256"
        },
        {
          "internalType": "enum IRedemptionManager.RedemptionStrategy",
          "name": "strategy",
          "type": "uint8"
        }
      ],
      "name": "isEligibleForRedemption",
      "outputs": [
        {
          "internalType": "bool",
          "name": "eligible",
          "type": "bool"
        },
        {
          "internalType": "string",
          "name": "reason",
          "type": "string"
        }
      ],
      "stateMutability": "view",
      "type": "function"
    },
    {
      "inputs": [],
      "name": "isPaused",
      "outputs": [
        {
          "internalType": "bool",
          "name": "",
          "type": "bool"
        }
      ],
      "stateMutability": "view",
      "type": "function"
    },
    {
      "inputs": [
        {
          "internalType": "enum IRedemptionManager.RedemptionStrategy",
          "name": "strategy",
          "type": "uint8"
        }
      ],
      "name": "isStrategyEnabled",
      "outputs": [
        {
          "internalType": "bool",
          "name": "",
          "type": "bool"
        }
      ],
      "stateMutability": "view",
      "type": "function"
    },
    {
      "inputs": [],
      "name": "maxSlippageTolerance",
      "outputs": [
        {
          "internalType": "uint256",
          "name": "",
          "type": "uint256"
        }
      ],
      "stateMutability": "view",
      "type": "function"
    },
    {
      "inputs": [],
      "name": "multiChainAggregator",
      "outputs": [
        {
          "internalType": "contract IMultiChainAggregator",
          "name": "",
          "type": "address"
        }
      ],
      "stateMutability": "view",
      "type": "function"
    },
    {
      "inputs": [],
      "name": "paused",
      "outputs": [
        {
          "internalType": "bool",
          "name": "",
          "type": "bool"
        }
      ],
      "stateMutability": "view",
      "type": "function"
    },
    {
      "inputs": [
        {
          "internalType": "bytes32",
          "name": "fundId",
          "type": "bytes32"
        },
        {
          "internalType": "uint256",
          "name": "tokenAmount",
          "type": "uint256"
        },
        {
          "internalType": "enum IRedemptionManager.RedemptionStrategy",
          "name": "strategy",
          "type": "uint8"
        }
      ],
      "name": "previewRedemption",
      "outputs": [
        {
          "internalType": "uint256",
          "name": "estimatedReturn",
          "type": "uint256"
        },
        {
          "internalType": "uint256",
          "name": "totalPriceImpact",
          "type": "uint256"
        },
        {
          "internalType": "uint256",
          "name": "estimatedGasCost",
          "type": "uint256"
        },
        {
          "components": [
            {
              "internalType": "address",
              "name": "tokenAddress",
              "type": "address"
            },
            {
              "internalType": "uint32",
              "name": "assetIndex",
              "type": "uint32"
            },
            {
              "internalType": "uint256",
              "name": "amount",
              "type": "uint256"
            },
            {
              "internalType": "uint256",
              "name": "receivedAmount",
              "type": "uint256"
            },
            {
              "internalType": "enum IPriceFeed.PriceSource",
              "name": "source",
              "type": "uint8"
            },
            {
              "internalType": "uint256",
              "name": "priceImpact",
              "type": "uint256"
            },
            {
              "internalType": "uint256",
              "name": "executionCost",
              "type": "uint256"
            },
            {
              "internalType": "uint256",
              "name": "chainId",
              "type": "uint256"
            }
          ],
          "internalType": "struct IRedemptionManager.ComponentLiquidation[]",
          "name": "preview",
          "type": "tuple[]"
        }
      ],
      "stateMutability": "view",
      "type": "function"
    },
    {
      "inputs": [],
      "name": "priceFeed",
      "outputs": [
        {
          "internalType": "contract IPriceFeed",
          "name": "",
          "type": "address"
        }
      ],
      "stateMutability": "view",
      "type": "function"
    },
    {
      "inputs": [
        {
          "internalType": "bytes32",
          "name": "role",
          "type": "bytes32"
        },
        {
          "internalType": "address",
          "name": "callerConfirmation",
          "type": "address"
        }
      ],
      "name": "renounceRole",
      "outputs": [],
      "stateMutability": "nonpayable",
      "type": "function"
    },
    {
      "inputs": [
        {
          "internalType": "bytes32",
          "name": "fundId",
          "type": "bytes32"
        },
        {
          "internalType": "uint256",
          "name": "tokenAmount",
          "type": "uint256"
        },
        {
          "internalType": "enum IRedemptionManager.RedemptionStrategy",
          "name": "strategy",
          "type": "uint8"
        },
        {
          "internalType": "uint256",
          "name": "maxSlippage",
          "type": "uint256"
        },
        {
          "internalType": "uint256",
          "name": "minReturnAmount",
          "type": "uint256"
        },
        {
          "internalType": "uint256",
          "name": "deadline",
          "type": "uint256"
        }
      ],
      "name": "requestRedemption",
      "outputs": [
        {
          "internalType": "uint256",
          "name": "requestId",
          "type": "uint256"
        }
      ],
      "stateMutability": "nonpayable",
      "type": "function"
    },
    {
      "inputs": [
        {
          "internalType": "bytes32",
          "name": "role",
          "type": "bytes32"
        },
        {
          "internalType": "address",
          "name": "account",
          "type": "address"
        }
      ],
      "name": "revokeRole",
      "outputs": [],
      "stateMutability": "nonpayable",
      "type": "function"
    },
    {
      "inputs": [
        {
          "internalType": "address",
          "name": "_amm",
          "type": "address"
        }
      ],
      "name": "setAMM",
      "outputs": [],
      "stateMutability": "nonpayable",
      "type": "function"
    },
    {
      "inputs": [
        {
          "internalType": "address",
          "name": "_chainVault",
          "type": "address"
        }
      ],
      "name": "setChainVault",
      "outputs": [],
      "stateMutability": "nonpayable",
      "type": "function"
    },
    {
      "inputs": [
        {
          "internalType": "uint256",
          "name": "tolerance",
          "type": "uint256"
        }
      ],
      "name": "setDefaultSlippageTolerance",
      "outputs": [],
      "stateMutability": "nonpayable",
      "type": "function"
    },
    {
      "inputs": [
        {
          "internalType": "uint256",
          "name": "tolerance",
          "type": "uint256"
        }
      ],
      "name": "setEmergencySlippageTolerance",
      "outputs": [],
      "stateMutability": "nonpayable",
      "type": "function"
    },
    {
      "inputs": [
        {
          "internalType": "uint256",
          "name": "deadline",
          "type": "uint256"
        }
      ],
      "name": "setExecutionDeadline",
      "outputs": [],
      "stateMutability": "nonpayable",
      "type": "function"
    },
    {
      "inputs": [
        {
          "internalType": "address",
          "name": "_factory",
          "type": "address"
        }
      ],
      "name": "setIndexTokenFactory",
      "outputs": [],
      "stateMutability": "nonpayable",
      "type": "function"
    },
    {
      "inputs": [
        {
          "internalType": "uint256",
          "name": "tolerance",
          "type": "uint256"
        }
      ],
      "name": "setMaxSlippageTolerance",
      "outputs": [],
      "stateMutability": "nonpayable",
      "type": "function"
    },
    {
      "inputs": [
        {
          "internalType": "bytes32",
          "name": "fundId",
          "type": "bytes32"
        },
        {
          "internalType": "uint256",
          "name": "amount",
          "type": "uint256"
        }
      ],
      "name": "setMaximumRedemptionAmount",
      "outputs": [],
      "stateMutability": "nonpayable",
      "type": "function"
    },
    {
      "inputs": [
        {
          "internalType": "bytes32",
          "name": "fundId",
          "type": "bytes32"
        },
        {
          "internalType": "uint256",
          "name": "amount",
          "type": "uint256"
        }
      ],
      "name": "setMinimumRedemptionAmount",
      "outputs": [],
      "stateMutability": "nonpayable",
      "type": "function"
    },
    {
      "inputs": [
        {
          "internalType": "address",
          "name": "_aggregator",
          "type": "address"
        }
      ],
      "name": "setMultiChainAggregator",
      "outputs": [],
      "stateMutability": "nonpayable",
      "type": "function"
    },
    {
      "inputs": [
        {
          "internalType": "address",
          "name": "_orderbook",
          "type": "address"
        }
      ],
      "name": "setOrderbook",
      "outputs": [],
      "stateMutability": "nonpayable",
      "type": "function"
    },
    {
      "inputs": [
        {
          "internalType": "address",
          "name": "_priceFeed",
          "type": "address"
        }
      ],
      "name": "setPriceFeed",
      "outputs": [],
      "stateMutability": "nonpayable",
      "type": "function"
    },
    {
      "inputs": [
        {
          "internalType": "enum IRedemptionManager.RedemptionStrategy[]",
          "name": "strategies",
          "type": "uint8[]"
        }
      ],
      "name": "setStrategyPriorityOrder",
      "outputs": [],
      "stateMutability": "nonpayable",
      "type": "function"
    },
    {
      "inputs": [
        {
          "internalType": "uint256",
          "name": "",
          "type": "uint256"
        }
      ],
      "name": "strategyPriorityOrder",
      "outputs": [
        {
          "internalType": "enum IRedemptionManager.RedemptionStrategy",
          "name": "",
          "type": "uint8"
        }
      ],
      "stateMutability": "view",
      "type": "function"
    },
    {
      "inputs": [
        {
          "internalType": "bytes4",
          "name": "interfaceId",
          "type": "bytes4"
        }
      ],
      "name": "supportsInterface",
      "outputs": [
        {
          "internalType": "bool",
          "name": "",
          "type": "bool"
        }
      ],
      "stateMutability": "view",
      "type": "function"
    }
  ],
  "bytecode": "0x6080604052346200003457620000226200001862000117565b9392909262000494565b6040516170c46200085182396170c490f35b600080fd5b634e487b7160e01b600052604160045260246000fd5b90601f01601f191681019081106001600160401b038211176200007157604052565b62000039565b906200008e6200008660405190565b92836200004f565b565b6001600160a01b031690565b90565b6001600160a01b038116036200003457565b905051906200008e826200009f565b919060a0838203126200003457620000d98184620000b1565b92620000e98260208301620000b1565b926200009c620000fd8460408501620000b1565b9360806200010f8260608701620000b1565b9401620000b1565b6200013a62007915803803806200012e8162000077565b928339810190620000c0565b9091929394565b90600019905b9181191691161790565b6200009c6200009c6200009c9290565b90620001756200009c6200017d9262000151565b825462000141565b9055565b9060ff9062000147565b906200019e6200009c6200017d92151590565b825462000181565b620000906200009c6200009c9290565b6200009c90620001a6565b15620001c957565b60405162461bcd60e51b8152602060048201526012602482015271125b9d985b1a59081c1c9a58d9481999595960721b6044820152606490fd5b156200020b57565b60405162461bcd60e51b815260206004820152600b60248201526a496e76616c696420414d4d60a81b6044820152606490fd5b156200024657565b60405162461bcd60e51b815260206004820152601e60248201527f496e76616c6964206d756c74692d636861696e2061676772656761746f7200006044820152606490fd5b156200029357565b60405162461bcd60e51b815260206004820152601b60248201527f496e76616c696420696e64657820746f6b656e20666163746f727900000000006044820152606490fd5b15620002e057565b60405162461bcd60e51b815260206004820152601360248201527f496e76616c696420636861696e207661756c74000000000000000000000000006044820152606490fd5b6200009c600062000151565b6200009c9062000090906001600160a01b031682565b6200009c9062000331565b6200009c9062000347565b906001600160a01b039062000147565b90620003816200009c6200017d9262000352565b82546200035d565b634e487b7160e01b600052602160045260246000fd5b60051115620003aa57565b62000389565b906200008e826200039f565b6200009c90620003b0565b90620003d390620003bc565b600052602052604060002090565b634e487b7160e01b600052603260045260246000fd5b80549192918310156200042257602062000418600192600052602060002090565b8185040193060290565b620003e1565b91906008620001479102916200043e60ff841b90565b921b90565b9190620004586200009c6200017d93620003bc565b90835462000428565b90815491680100000000000000008310156200007157826200048d9160016200008e95018155620003f7565b9062000443565b9391929092620004a36200074e565b600193620004b385600b62000161565b600095620004c387600c6200018b565b620004d26101f4600d62000161565b620004e16107d0600e62000161565b620004f0610e10600f62000161565b620004ff611388601062000161565b6200050a87620001b6565b6001600160a01b0381166001600160a01b03831614156200052b90620001c1565b6001600160a01b0381166001600160a01b03841614156200054c9062000203565b6001600160a01b0381166001600160a01b03851614156200056d906200023e565b6001600160a01b0381166001600160a01b03861614156200058e906200028b565b6001600160a01b03166001600160a01b0386161415620005ae90620002d8565b620005b862000325565b33620005c4916200078d565b50620005f1337f93e156e4a4e47e7c01d08e85bfe534a6e5dc47762803ecda0fa079a2348a85246200078d565b506200061e337fbf233dd2aafeb4d50879c4aa5c81e96d92f6e6945c906a58f9f2d1c1631b4b266200078d565b506200062a9062000352565b620006379060026200036d565b620006429062000352565b6200064f9060036200036d565b6200065a9062000352565b620006679060046200036d565b620006729062000352565b6200067f9060056200036d565b6200068a9062000352565b620006979060066200036d565b80600a81620006a78583620003c7565b90620006b3916200018b565b81620006c08183620003c7565b90620006cc916200018b565b81620006da600283620003c7565b90620006e6916200018b565b81620006f4600383620003c7565b9062000700916200018b565b60046200070d91620003c7565b9062000719916200018b565b60119162000728908362000461565b62000734908262000461565b6200074160028262000461565b60036200008e9162000461565b6200008e62000764565b6200009c600162000151565b6200008e6200077262000758565b600162000161565b90620003d3565b90620003d39062000352565b620007a16200079d838362000828565b1590565b156200082157620007cd6001620007c7846000620007c086826200077a565b0162000781565b6200018b565b620007ec620007e5620007de339390565b9362000352565b9162000352565b917f2f8788117e7eff1d82e926ec794901d17c78024a50270940304540a733656f0d6200081860405190565b600090a4600190565b5050600090565b6200009c916000620007c0620008499362000841600090565b50826200077a565b5460ff169056fe6080604052600436101561001257600080fd5b60003560e01c806301ffc9a714610462578063102d800a1461045d57806310549cae146104585780631069917d14610453578063114e79241461044e5780631c3cea451461044957806320df435914610444578063248a9ca31461043f57806327ed58921461043a5780632a943945146104355780632f2ff15d146104305780632f9f3fb71461042b578063307a80141461042657806333b2d2061461042157806333ee5f351461041c57806336568abe1461041757806338708599146104125780633aa6f0ee1461040d5780633ab4b7b2146104085780633ae97368146104035780633e9acf3e146103fe5780633ebaadc2146103f95780633f584508146103f45780633ff6ef96146103ef578063462da1b3146103ea5780634a4e3bd5146103e55780634e568066146103e057806351858e27146103db5780635927636f146103d65780635c975abb146103d15780636613e213146103cc578063662292ab146103c75780636a6b29d8146103c2578063724e78da146103bd578063741bef1a146103b85780637d25d6a9146103b35780637ec77c67146103ae5780638191cd1c146103a957806386b93af0146103a457806389444fc71461039f57806391d148541461039a5780639219e51014610395578063936f03c4146103905780639babcfc81461038b5780639e87a5cd14610386578063a217fddf14610381578063a425ddf61461037c578063a79f7c4e14610377578063aa8ea3a014610372578063ab63c6071461036d578063ac85272814610368578063aedf213514610363578063b187bd261461035e578063bd50b16d14610359578063bf52ab1514610354578063c004c3031461034f578063c2197f7a1461034a578063c3d269ff14610345578063ca4493d314610340578063d2725d251461033b578063d547741f14610336578063dacda66014610331578063dd93948c1461032c578063de0f4ddb14610327578063e4dc4efc14610322578063e54746db1461031d578063ea93b39014610318578063f313f779146103135763fcb91b900361046757611b0a565b611adc565b6119c2565b61194e565b611933565b6118dc565b611897565b61187c565b611863565b61184b565b611728565b6116fc565b6116d8565b6116aa565b61166e565b6115e4565b6115c9565b6115ae565b61158a565b61156f565b611557565b61153f565b611524565b611509565b6114cf565b6114b4565b61149b565b61147f565b611463565b61142e565b611413565b6113e4565b6113c9565b611392565b6112a6565b611282565b61125a565b6111a2565b611152565b611137565b6110df565b611074565b611043565b610ffa565b610fdf565b610fad565b610f43565b610f1c565b610f03565b610ee1565b610e72565b610dfd565b610bf9565b6109d9565b6109be565b610984565b610969565b61093a565b610880565b610842565b61081b565b610800565b6107c7565b6107af565b610758565b6106b2565b61051e565b610501565b6104a9565b600080fd5b6001600160e01b031981165b0361046757565b9050359061048c8261046c565b565b90602082820312610467576104a29161047f565b90565b9052565b34610467576104d66104c46104bf36600461048e565b611b25565b60405191829182901515815260200190565b0390f35b80610478565b9050359061048c826104da565b90602082820312610467576104a2916104e0565b34610467576105196105143660046104ed565b611c48565b604051005b34610467576104d66105396105343660046104ed565b611c61565b6040519182918290815260200190565b9190604083820312610467576104a290602061056582866104e0565b94016104e0565b6001600160a01b031690565b634e487b7160e01b600052602160045260246000fd5b6004111561059857565b610578565b9061048c8261058e565b6104a29061059d565b6104a5906105a7565b80516001600160a01b0316825261048c919060e090819060208181015163ffffffff16908501526105ef60408201516040860152565b6105fe60608201516060860152565b610610608082015160808601906105b0565b61061f60a082015160a0860152565b61062e60c082015160c0860152565b0151910152565b9061064381610100936105b9565b0190565b90610667610660610656845190565b8084529260200190565b9260200190565b9060005b8181106106785750505090565b90919261069261068b6001928651610635565b9460200190565b92910161066b565b9081526040602082018190526104a292910190610647565b34610467576106cb6106c5366004610549565b90611d2a565b906104d66106d860405190565b9283928361069a565b600091031261046757565b6104a2916008021c6001600160a01b031690565b906104a291546106ec565b6104a260006004610700565b61056c6104a26104a2926001600160a01b031690565b6104a290610717565b6104a29061072d565b6104a590610736565b60208101929161048c919061073f565b34610467576107683660046106e1565b6104d661077361070b565b60405191829182610748565b6001600160a01b038116610478565b9050359061048c8261077f565b90602082820312610467576104a29161078e565b34610467576105196107c236600461079b565b611de9565b34610467576107d73660046106e1565b6104d67fbf233dd2aafeb4d50879c4aa5c81e96d92f6e6945c906a58f9f2d1c1631b4b26610539565b34610467576104d66105396108163660046104ed565b611df2565b34610467576104d66105396108313660046104ed565b611e0b565b6104a260006003610700565b34610467576108523660046106e1565b6104d6610773610836565b9190604083820312610467576104a290602061087982866104e0565b940161078e565b346104675761051961089336600461085d565b90611e3a565b6005111561059857565b9061048c82610899565b6104a2906108a3565b6104a5906108ad565b60005b8381106108d25750506000910152565b81810151838201526020016108c2565b61090361090c602093610643936108f7815190565b80835293849260200190565b958691016108bf565b601f01601f191690565b916104a29261092d604082019360008301906108b6565b60208184039101526108e2565b346104675761095361094d366004610549565b90611f30565b906104d661096060405190565b92839283610916565b34610467576109793660046106e1565b6104d6610539611f66565b34610467576105196109973660046104ed565b611ff1565b6104a2916008021c81565b906104a2915461099c565b6104a26000600f6109a7565b34610467576109ce3660046106e1565b6104d66105396109b2565b34610467576105196109ec36600461085d565b90611ffa565b6005111561046757565b9050359061048c826109f2565b60808183031261046757610a1d82826104e0565b926104a2610a2e84602085016104e0565b93606061056582604087016109fc565b90610643816020936105b0565b90610a5a610660610656845190565b9060005b818110610a6b5750505090565b909192610a7e61068b6001928651610a3e565b929101610a5e565b90610a95610660610656845190565b9060005b818110610aa65750505090565b909192610abc61068b6001928651815260200190565b929101610a99565b805163ffffffff168252906104a29061010080610b2a610b18610b066101208601610af460208a01516020890152565b60408901518782036040890152610a4b565b60608801518682036060880152610a86565b60808701518582036080870152610a86565b94610b3a60a082015160a0860152565b610b4960c082015160c0860152565b610b5860e082015160e0860152565b01511515910152565b906104a291610ac4565b90610b81610b77835190565b8083529160200190565b9081610b936020830284019460200190565b926000915b838310610ba757505050505090565b90919293946020610bca610bc383856001950387528951610b61565b9760200190565b9301930191939290610b98565b92916020610bf461048c9360408701908782036000890152610b6b565b940152565b3461046757610c15610c0c366004610a09565b929190916123ac565b906104d6610c2260405190565b92839283610bd7565b90610c37610b77835190565b9081610c496020830284019460200190565b926000915b838310610c5d57505050505090565b90919293946020610c79610bc383856001950387528951610b61565b9301930191939290610c4e565b6008111561059857565b9061048c82610c86565b6104a290610c90565b6104a590610c9a565b90610cbb610660610656845190565b9060005b818110610ccc5750505090565b909192610cdf61068b6001928651610635565b929101610cbf565b805182526020808201516001600160a01b031690830152906104a2906101c080610de4610dbf610d666101e08601610d2460408a01516040890152565b610d3360608a01516060890152565b610d4260808a01516080890152565b610d5460a08a015160a08901906108b6565b60c089015187820360c0890152610c2b565b610d7560e089015160e0880152565b610d86610100890151610100880152565b610d97610120890151610120880152565b610dab610140890151610140880190610ca3565b610160880151868203610160880152610cac565b610dd0610180880151610180870152565b6101a08701518582036101a08701526108e2565b940151910152565b60208082526104a292910190610ce7565b34610467576104d6610e18610e133660046104ed565b613759565b60405191829182610dec565b63ffffffff8116610478565b9050359061048c82610e24565b60808183031261046757610e5182826104e0565b926104a2610e628460208501610e30565b93606061087982604087016104e0565b3461046757610519610e85366004610e3d565b92919091613798565b909160c08284031261046757610ea483836104e0565b92610eb281602085016104e0565b92610ec082604083016109fc565b926104a2610ed184606085016104e0565b9360a061056582608087016104e0565b34610467576104d6610539610ef7366004610e8e565b949390939291926141ae565b3461046757610519610f16366004610549565b906141e5565b3461046757610f2c3660046106e1565b6104d66105396141ef565b6104a260006005610700565b3461046757610f533660046106e1565b6104d6610773610f37565b60808183031261046757610f72828261078e565b926104a2610f8384602085016104e0565b936060610f9382604087016104e0565b94016109fc565b90151581526104a291604082019161092d565b3461046757610fc9610fc0366004610f5e565b929190916141f9565b906104d6610fd660405190565b92839283610f9a565b3461046757610fef3660046106e1565b6104d6610539614209565b346104675761100a3660046106e1565b61051961424b565b61103f61048c94611038606094989795611031608086019a6000870152565b6020850152565b6040830152565b0152565b34610467576104d661105e6110593660046104ed565b6142a9565b9061106b94929460405190565b94859485611012565b34610467576110843660046106e1565b6105196143ab565b9091606082840312610467576104a26110a584846104e0565b936040610f9382602087016104e0565b90926110d2906110386104a2969461103160808601976000870152565b6060818403910152610647565b34610467576104d66110fb6110f536600461108c565b916143b3565b9061110894929460405190565b948594856110b5565b6104a2916008021c5b60ff1690565b906104a29154611111565b6104a26000600c611120565b34610467576111473660046106e1565b6104d66104c461112b565b346104675761051961116536600461079b565b614406565b801515610478565b9050359061048c8261116a565b9190604083820312610467576104a290602061119b82866109fc565b9401611172565b34610467576105196111b536600461117f565b90614433565b9091606082840312610467576104a26111d4848461078e565b93604061056582602087016104e0565b906104a291610ce7565b906111fa610b77835190565b908161120c6020830284019460200190565b926000915b83831061122057505050505090565b9091929394602061123c610bc3838560019503875289516111e4565b9301930191939290611211565b60208082526104a2929101906111ee565b34610467576104d66112766112703660046111bb565b9161447e565b60405191829182611249565b346104675761051961129536600461079b565b6144c9565b6104a260006002610700565b34610467576112b63660046106e1565b6104d661077361129a565b906104a2916108e2565b906112d7610b77835190565b90816112e96020830284019460200190565b926000915b8383106112fd57505050505090565b90919293946020611319610bc3838560019503875289516112c1565b93019301919392906112ee565b90611335610660610656845190565b9060005b8181106113465750505090565b90919261135c61068b6001928651815260200190565b929101611339565b90151581526060602082018190526104a2939192611384918401906112cb565b916040818403910152611326565b34610467576104d66113ae6113a836600461108c565b916145c4565b60405191939193849384611364565b6104a26000600e6109a7565b34610467576113d93660046106e1565b6104d66105396113bd565b34610467576113f43660046106e1565b6104d66105396148f2565b90602082820312610467576104a2916109fc565b34610467576104d66104c46114293660046113ff565b6148fc565b346104675761143e3660046106e1565b6104d6611449614913565b604051918291826001600160a01b03909116815260200190565b34610467576104d66104c461147936600461085d565b90614920565b34610467576104d66104c46114953660046104ed565b50600090565b34610467576105196114ae366004610549565b90614963565b34610467576104d66105396114ca3660046104ed565b614c33565b34610467576114df3660046106e1565b6104d66114496150d4565b6104a26104a26104a29290565b6104a260006114ea565b6104a26114f7565b34610467576115193660046106e1565b6104d6610539611501565b34610467576115343660046106e1565b6104d66114496150e1565b34610467576105196115523660046104ed565b615108565b346104675761051961156a36600461079b565b61513e565b346104675761157f3660046106e1565b6104d6611449615147565b346104675761051961159d36600461079b565b61517e565b6104a260006006610700565b34610467576115be3660046106e1565b6104d66107736115a2565b34610467576115d93660046106e1565b6104d66104c4615187565b34610467576105196115f73660046104ed565b6151ab565b634e487b7160e01b600052603260045260246000fd5b805491929183101561163b576020611631600192600052602060002090565b8185040193060290565b6115fc565b601154811015610467576116586104a2916011611612565b90611120565b60208101929161048c91906108b6565b34610467576104d66116896116843660046104ed565b611640565b6040519182918261165e565b901515815260408101929161048c9160200152565b34610467576116c26116bd3660046104ed565b615812565b906104d66116cf60405190565b92839283611695565b34610467576105196116eb36600461079b565b61584b565b6104a2600060106109a7565b346104675761170c3660046106e1565b6104d66105396116f0565b60208082526104a292910190611326565b34610467576104d661174361173e36600461079b565b61585d565b60405191829182611717565b634e487b7160e01b600052604160045260246000fd5b90601f01601f1916810190811067ffffffffffffffff82111761178757604052565b61174f565b9061048c61179960405190565b9283611765565b67ffffffffffffffff81116117875760208091020190565b909291926117cd6117c8826117a0565b61178c565b938185526020808601920283019281841161046757915b8383106117f15750505050565b602080916117ff84866109fc565b8152019201916117e4565b9080601f83011215610467578160206104a2933591016117b8565b9060208282031261046757813567ffffffffffffffff8111610467576104a2920161180a565b346104675761051961185e366004611825565b615adf565b346104675761051961187636600461085d565b90615b03565b346104675761188c3660046106e1565b6104d6610539615b0d565b34610467576118a73660046106e1565b6104d67f93e156e4a4e47e7c01d08e85bfe534a6e5dc47762803ecda0fa079a2348a8524610539565b6104a26000600d6109a7565b34610467576118ec3660046106e1565b6104d66105396118d0565b6104a29081565b6104a290546118f7565b61191260136118fe565b9061191d60146118fe565b9061192860156118fe565b906104a260166118fe565b34610467576119433660046106e1565b6104d661105e611908565b346104675761195e3660046106e1565b6104d6611449615b17565b90610643816020936108b6565b90611985610660610656845190565b9060005b8181106119965750505090565b9091926119a961068b6001928651611969565b929101611989565b60208082526104a292910190611976565b34610467576119d23660046106e1565b6104d66119dd616301565b604051918291826119b1565b909291926119f96117c8826117a0565b938185526020808601920283019281841161046757915b838310611a1d5750505050565b60208091611a2b84866104e0565b815201920191611a10565b9080601f83011215610467578160206104a2933591016119e9565b9060208282031261046757813567ffffffffffffffff8111610467576104a29201611a36565b90611a86610660610656845190565b9060005b818110611a975750505090565b909192611aaf61068b60019286511515815260200190565b929101611a8a565b60408082526104a2939192611ace91840190611a77565b916020818403910152611326565b3461046757611af4611aef366004611a51565b61630b565b906104d6611b0160405190565b92839283611ab7565b3461046757611b1a3660046106e1565b6104d661144961631d565b7f7965db0b000000000000000000000000000000000000000000000000000000006001600160e01b0319821614908115611b5d575090565b6104a291506001600160e01b0319167f01ffc9a7000000000000000000000000000000000000000000000000000000001490565b61048c90611ba5611ba06114f7565b61632a565b611c25565b15611bb157565b60405162461bcd60e51b815260206004820152600f60248201527f45786365656473206d6178696d756d00000000000000000000000000000000006044820152606490fd5b0390fd5b90600019905b9181191691161790565b90611c1a6104a2611c21926114ea565b8254611bfa565b9055565b61048c90611c41611c396104a2600e6118fe565b821115611baa565b600d611c0a565b61048c90611b91565b905b600052602052604060002090565b6000611c7a6104a292611c72600090565b506009611c51565b016118fe565b90611c8d6117c8836117a0565b918252565b6104a261010061178c565b611ca5611c92565b906000825260208080808080808089016000815201600081520160005b8152016000815201600081520160008152016000905250565b6104a2611c9d565b60005b828110611cf257505050565b602090611cfd611cdb565b8184015201611ce6565b9061048c611d1d611d1784611c80565b936117a0565b601f190160208401611ce3565b5050611d34600090565b9060605b506104a2611d4660006114ea565b611d07565b61048c90611d5a611ba06114f7565b611dc1565b61056c6104a26104a29290565b6104a290611d5f565b15611d7c57565b60405162461bcd60e51b815260206004820152600f60248201527f496e76616c6964206164647265737300000000000000000000000000000000006044820152606490fd5b61048c90611de2611dd561056c6000611d6c565b916001600160a01b031690565b1415611d75565b61048c90611d4b565b6001611c7a6104a292611e03600090565b506000611c51565b6001611c7a6104a292611c72600090565b9061048c91611e2d611ba082611df2565b90611e3791616335565b50565b9061048c91611e1c565b67ffffffffffffffff811161178757602090601f01601f19160190565b90611c8d6117c883611e44565b611e786029611e61565b7f4c6172676520616d6f756e742c206f7074696d616c20726f7574696e6720726560208201527f636f6d6d656e6465640000000000000000000000000000000000000000000000604082015290565b6104a2611e6e565b611ed96023611e61565b7f536d616c6c20616d6f756e742c20414d4d206973206d6f73742065666669636960208201527f656e740000000000000000000000000000000000000000000000000000000000604082015290565b6104a2611ecf565b50611f4a611f46683635c9adc5dea000006114ea565b9190565b1015611f5b576001906104a2611f28565b6000906104a2611ec7565b6104a2600d6118fe565b61048c90611f7f611ba06114f7565b611fd0565b15611f8b57565b60405162461bcd60e51b815260206004820152601260248201527f43616e6e6f7420657863656564203130302500000000000000000000000000006044820152606490fd5b61048c90611fea611fe26127106114ea565b821115611f84565b600e611c0a565b61048c90611f70565b906120043361056c565b6001600160a01b0382160361201c57611e37916163b1565b6040517f6697b232000000000000000000000000000000000000000000000000000000008152600490fd5b6104a29061056c565b6104a29054612047565b9050519061048c8261077f565b9050519061048c82610e24565b9050519061048c826104da565b9190608083820312610467576120d490606061209d608061178c565b946120a8838261205a565b86526120b78360208301612067565b60208701526120c98360408301612074565b604087015201612074565b6060830152565b909291926120eb6117c8826117a0565b93818552608060208601920283019281841161046757915b8383106121105750505050565b602060809161211f8486612081565b815201920191612103565b9080601f830112156104675781516104a2926020016120db565b9060208282031261046757815167ffffffffffffffff8111610467576104a2920161212a565b6040513d6000823e3d90fd5b6104a261012061178c565b612189612176565b9060008252602080808080808080808a016000815201606081520160608152016060611cc2565b6104a2612181565b60005b8281106121c757505050565b6020906121d26121b0565b81840152016121bb565b9061048c6121ec611d1784611c80565b601f1901602084016121b8565b909291926122096117c882611e44565b93818552818301116104675761048c9160208501906108bf565b9080601f830112156104675781516104a2926020016121f9565b9050519061048c8261116a565b91906101008382031261046757825167ffffffffffffffff81116104675781612274918501612223565b92602081015167ffffffffffffffff81116104675782612295918301612223565b926122a3836040840161205a565b926122b1816060850161205a565b926122bf8260808301612074565b926104a26122d08460a08501612074565b9360e06122e08260c0870161223d565b940161223d565b90602082820312610467576104a291612074565b90612304825190565b81101561163b576020809102010190565b634e487b7160e01b600052601160045260246000fd5b9190612336565b9290565b9180830292818404149015171561234957565b612315565b634e487b7160e01b600052601260045260246000fd5b811561236e570490565b61234e565b369037565b9061048c612388611d1784611c80565b601f190160208401612373565b906104a59061059d565b9190820180921161234957565b91509291506123b9606090565b506000906123cf6123ca6005612050565b610736565b9060006123db60405190565b6375bb1d1760e01b81526004810183905292839060249082905afa9182156127225760009261278a575b50612416612411835190565b6121dc565b9461244d6000879361242b6123ca6005612050565b6040515b93849283918291635ef923e160e11b5b835260048301526024820190565b03915afa90811561272257612470916123ca9160008092612763575b5050610736565b90602061247c60405190565b6318160ddd60e01b815292839060049082905afa91821561272257600092612732575b506000926124ac846114ea565b955b6124b96104a2875190565b8710156127275761255c906124eb856124e6866124e160606124db8e8e6122fb565b51015190565b61232b565b612364565b60206124fa6123ca6002612050565b612514826125088d8d6122fb565b51015163ffffffff1690565b9061251e60405190565b958692839182917fda26663a0000000000000000000000000000000000000000000000000000000083526004830163ffffffff909116815260200190565b03915afa90811561272257878a8a8e9683956126e8575b50926124e1856126ad8561268360806126b5886126e29e6126be9b6126db9f9e9b6125aa6126d59f612508612610936020926122fb565b61260a8d6126036125bb60016114ea565b916125fc6125c884612378565b916125f56125de6125d887612378565b96612378565b976125e7612176565b9a8b019063ffffffff169052565b6020890152565b6040870152565b6060850152565b86830152565b61262461261d60326114ea565b60a0830152565b61263a612633620186a06114ea565b60c0830152565b6126454660e0830152565b86151561010082015261265883836122fb565b5261266382826122fb565b5061268e86612689604061267786866122fb565b510151612683836114ea565b906122fb565b612395565b6126b08a6126ad60606126a186866122fb565b5101516126838a6114ea565b52565b6122fb565b510151916114ea565b6126cf670de0b6b3a76400006114ea565b90612364565b9061239f565b9660010190565b956124ae565b82969550908397949160203d811161271b575b6127058183611765565b8101612710916122e7565b959650909396612573565b503d6126fb565b61216a565b969550965050505050565b61275591925060203d60201161275c575b61274d8183611765565b8101906122e7565b903861249f565b503d612743565b61277f92503d8091833e6127778183611765565b81019061224a565b505050509250612469565b6127a691923d8091833e61279e8183611765565b810190612144565b9038612405565b6104a26101e061178c565b6127c06127ad565b9060008252602082016000815260200160008152602001600081526020016000815260200160008152602001606081526020016000815260200160008152602001600081526020016000815260200160608152602001600081526020016060815260200160009052565b6104a26127b8565b1561283957565b60405162461bcd60e51b815260206004820152601260248201527f496e76616c6964207265717565737420494400000000000000000000000000006044820152606490fd5b906104a29161288d60006114ea565b8211806128a3575b61289e90612832565b613744565b5061289e6128b46104a2600b6118fe565b83109050612895565b90611c53906114ea565b6104a29061111a565b6104a290546128c7565b906104a5906108a3565b6104a2905b63ffffffff1690565b6104a290546128e4565b6104a29060081c61111a565b6104a29060101c61111a565b6104a29060181c61111a565b6104a29060201c61111a565b6104a29060281c61111a565b6104a29060301c61111a565b6104a29060381c61111a565b6104a29060401c61111a565b6104a29060481c61111a565b6104a29060501c61111a565b6104a29060581c61111a565b6104a29060601c61111a565b6104a29060681c61111a565b6104a29060701c61111a565b6104a29060781c61111a565b6104a29060801c61111a565b6104a29060881c61111a565b6104a29060901c61111a565b6104a29060981c61111a565b6104a29060a01c61111a565b6104a29060a81c61111a565b6104a29060b01c61111a565b6104a29060b81c61111a565b6104a29060c01c61111a565b6104a29060c81c61111a565b6104a29060d01c61111a565b6104a29060d81c61111a565b6104a29060e01c61111a565b6104a29060e81c61111a565b6104a29060f01c61111a565b6104a29060f81c61111a565b90612a8b612a7f610656845490565b92600052602060002090565b906000915b601f83018211612f41575490808310612f24575b808310612f07575b808310612eea575b808310612ecd575b808310612eb0575b808310612e93575b808310612e76575b808310612e59575b808310612e3c575b808310612e1f575b808310612e02575b808310612de5575b808310612dc8575b808310612dab575b808310612d8e575b808310612d71575b808310612d54575b808310612d37575b808310612d1a575b808310612cfd575b808310612ce0575b808310612cc3575b808310612ca6575b808310612c89575b808310612c6c575b808310612c4f575b808310612c32575b808310612c15575b808310612bf8575b808310612bdb575b808310612bbe575b8210612b9f57505090565b82612bb760019394612bb2602094612a64565b6105b0565b0191505090565b9192602081612bd2600193612bb286612a58565b01930191612b94565b9192602081612bef600193612bb286612a4c565b01930191612b8c565b9192602081612c0c600193612bb286612a40565b01930191612b84565b9192602081612c29600193612bb286612a34565b01930191612b7c565b9192602081612c46600193612bb286612a28565b01930191612b74565b9192602081612c63600193612bb286612a1c565b01930191612b6c565b9192602081612c80600193612bb286612a10565b01930191612b64565b9192602081612c9d600193612bb286612a04565b01930191612b5c565b9192602081612cba600193612bb2866129f8565b01930191612b54565b9192602081612cd7600193612bb2866129ec565b01930191612b4c565b9192602081612cf4600193612bb2866129e0565b01930191612b44565b9192602081612d11600193612bb2866129d4565b01930191612b3c565b9192602081612d2e600193612bb2866129c8565b01930191612b34565b9192602081612d4b600193612bb2866129bc565b01930191612b2c565b9192602081612d68600193612bb2866129b0565b01930191612b24565b9192602081612d85600193612bb2866129a4565b01930191612b1c565b9192602081612da2600193612bb286612998565b01930191612b14565b9192602081612dbf600193612bb28661298c565b01930191612b0c565b9192602081612ddc600193612bb286612980565b01930191612b04565b9192602081612df9600193612bb286612974565b01930191612afc565b9192602081612e16600193612bb286612968565b01930191612af4565b9192602081612e33600193612bb28661295c565b01930191612aec565b9192602081612e50600193612bb286612950565b01930191612ae4565b9192602081612e6d600193612bb286612944565b01930191612adc565b9192602081612e8a600193612bb286612938565b01930191612ad4565b9192602081612ea7600193612bb28661292c565b01930191612acc565b9192602081612ec4600193612bb286612920565b01930191612ac4565b9192602081612ee1600193612bb286612914565b01930191612abc565b9192602081612efe600193612bb286612908565b01930191612ab4565b9192602081612f1b600193612bb2866128fc565b01930191612aac565b9192602081612f38600193612bb2866128c7565b01930191612aa4565b9283549080612f4f836128c7565b90612f59916105b0565b60200180612f66836128fc565b90612f70916105b0565b60200180612f7d83612908565b90612f87916105b0565b60200180612f9483612914565b90612f9e916105b0565b60200180612fab83612920565b90612fb5916105b0565b60200180612fc28361292c565b90612fcc916105b0565b60200180612fd983612938565b90612fe3916105b0565b60200180612ff083612944565b90612ffa916105b0565b6020018061300783612950565b90613011916105b0565b6020018061301e8361295c565b90613028916105b0565b6020018061303583612968565b9061303f916105b0565b6020018061304c83612974565b90613056916105b0565b6020018061306383612980565b9061306d916105b0565b6020018061307a8361298c565b90613084916105b0565b6020018061309183612998565b9061309b916105b0565b602001806130a8836129a4565b906130b2916105b0565b602001806130bf836129b0565b906130c9916105b0565b602001806130d6836129bc565b906130e0916105b0565b602001806130ed836129c8565b906130f7916105b0565b60200180613104836129d4565b9061310e916105b0565b6020018061311b836129e0565b90613125916105b0565b60200180613132836129ec565b9061313c916105b0565b60200180613149836129f8565b90613153916105b0565b6020018061316083612a04565b9061316a916105b0565b6020018061317783612a10565b90613181916105b0565b6020018061318e83612a1c565b90613198916105b0565b602001806131a583612a28565b906131af916105b0565b602001806131bc83612a34565b906131c6916105b0565b602001806131d383612a40565b906131dd916105b0565b602001806131ea83612a4c565b906131f4916105b0565b6020018061320183612a58565b9061320b916105b0565b6020016132188192612a64565b90613222916105b0565b602001926001019160200191612a90565b906104a291612a70565b9061048c6132579261324e60405190565b93848092613233565b0383611765565b9061326d612a7f610656845490565b9060005b81811061327e5750505090565b9091926132a261329b600192613293876118fe565b815260200190565b9460010190565b929101613271565b906104a29161325e565b9061048c613257926132c560405190565b938480926132aa565b9061048c61339660086132df612176565b946132f66132ec826128f2565b63ffffffff168752565b61330c613305600183016118fe565b6020880152565b61332261331b6002830161323d565b6040880152565b613338613331600383016132b4565b6060880152565b61334e613347600483016132b4565b6080880152565b61336461335d600583016118fe565b60a0880152565b61337a613373600683016118fe565b60c0880152565b613390613389600783016118fe565b60e0880152565b016128d0565b1515610100840152565b6104a2906132ce565b906133b2825490565b6133bb81611c80565b926133cf6020850191600052602060002090565b6000915b8383106133e05750505050565b600960206001926133f0856133a0565b8152019201920191906133d3565b906104a590610c90565b6104a29060a01c6128e9565b6104a29054613408565b9061048c6134b6600661342f611c92565b9461344961343c82612050565b6001600160a01b03168752565b61346261345582613414565b63ffffffff166020880152565b61347161331b600183016118fe565b613480613331600283016118fe565b61349861348f600383016128d0565b60808801612395565b6134a761335d600483016118fe565b611c7a613373600583016118fe565b60e0840152565b6104a29061341e565b906134cf825490565b6134d881611c80565b926134ec6020850191600052602060002090565b6000915b8383106134fd5750505050565b6007602060019261350d856134bd565b8152019201920191906134f0565b634e487b7160e01b600052602260045260246000fd5b9060016002830492168015613551575b602083101461354c57565b61351b565b91607f1691613541565b8054600093929161357861356e83613531565b8085529360200190565b91600181169081156135ca575060011461359157505050565b6135a49192939450600052602060002090565b916000925b8184106135b65750500190565b8054848401526020909301926001016135a9565b92949550505060ff1916825215156020020190565b906104a29161355b565b9061048c613257926135fa60405190565b938480926135df565b9061048c613733600e6136146127ad565b94613625613621826118fe565b8752565b61364461363460018301612050565b6001600160a01b03166020880152565b61365361331b600283016118fe565b613662613331600383016118fe565b613671613347600483016118fe565b613689613680600583016128d0565b60a088016128da565b613698613373600683016133a9565b6136a7613389600783016118fe565b6136be6136b6600883016118fe565b610100880152565b6136d56136cd600983016118fe565b610120880152565b6136ee6136e4600a83016128d0565b61014088016133fe565b6137056136fd600b83016134c6565b610160880152565b61371c613714600c83016118fe565b610180880152565b611c7a61372b600d83016135e9565b6101a0880152565b6101c0840152565b6104a290613603565b6104a291613754915060076128bd565b61373b565b6104a29061376561282a565b61287e565b5050505061048c611ba07fbf233dd2aafeb4d50879c4aa5c81e96d92f6e6945c906a58f9f2d1c1631b4b2690565b9061048c93929161376a565b156137ab57565b60405162461bcd60e51b815260206004820152601160248201527f526564656d7074696f6e207061757365640000000000000000000000000000006044820152606490fd5b906104a296959493929161381361380e61380a600c6128d0565b1590565b6137a4565b61386e565b90611c53906108ad565b1561382957565b60405162461bcd60e51b815260206004820152601460248201527f5374726174656779206e6f7420656e61626c65640000000000000000000000006044820152606490fd5b906104a296959493929161389361388e61388986600a613818565b6128d0565b613822565b906138aa9695949392916138a5616417565b613f88565b9061048c616470565b156138ba57565b60405162461bcd60e51b815260206004820152601760248201527f416d6f756e74206d75737420626520706f7369746976650000000000000000006044820152606490fd5b811561236e570690565b1561391057565b60405162461bcd60e51b815260206004820152603d60248201527f496e64657820746f6b656e732063616e206f6e6c792062652072656465656d6560448201527f6420696e2077686f6c6520756e6974732028312c20322c20332e2e2e290000006064820152608490fd5b1561398257565b60405162461bcd60e51b815260206004820152601160248201527f536c69707061676520746f6f20686967680000000000000000000000000000006044820152606490fd5b156139ce57565b60405162461bcd60e51b815260206004820152601060248201527f496e76616c696420646561646c696e65000000000000000000000000000000006044820152606490fd5b60208082526104a2929101906108e2565b15613a2c5750565b611bf690613a3960405190565b91829162461bcd60e51b835260048301613a13565b60001981146123495760010190565b906001600160a01b0390611c00565b90613a7c6104a2611c2192610736565b8254613a5d565b90611c1a6104a2611c219290565b9060ff90611c00565b90613aaa6104a2611c21926108ad565b8254613a91565b90613aaa6104a2611c2192610c9a565b805482101561163b57613adb600991600052602060002090565b91020190600090565b634e487b7160e01b600052600060045260246000fd5b9063ffffffff90611c00565b6128e96104a26104a29263ffffffff1690565b90613b296104a2611c2192613b06565b8254613afa565b9160001960089290920291821b911b611c00565b921b90565b9190613b5a6104a2611c21936114ea565b908354613b30565b61048c91600091613b49565b818110613b79575050565b80613b876000600193613b62565b01613b6e565b90613ba090600019906020036008021c90565b8154169055565b919091828210613bb657505050565b61048c926020601f909101049060016020613bdd601f860182900493600052602060002090565b92830194060260008111613bf4575b500190613b6e565b613c019060018503613b8d565b38613bec565b906801000000000000000081116117875781613c2461048c935490565b90828155613ba7565b6104a2905161059d565b91906008611c00910291613b4460ff841b90565b90613c54815190565b9067ffffffffffffffff821161178757612a7f613c7b91613c758486613c07565b60200190565b602082049160005b838110613ce7575060208302900360008111613ca0575b50505050565b9260009360005b818110613cbc57505050015538808080613c9a565b9091946020613cdd600192613cd36104a28a613c2d565b9085850290613c37565b9601929101613ca7565b6000805b60208110613d00575083820155600101613c83565b95906020613d20600192613d166104a286613c2d565b908a850290613c37565b92019601613ceb565b9061048c91613c4b565b919091828210613d4257505050565b61048c9291613d579091600052602060002090565b9182019101613b6e565b906801000000000000000081116117875781613d7e61048c935490565b90828155613d33565b81519167ffffffffffffffff831161178757613dac612a7f600192613c758686613d61565b92049160005b838110613dbf5750505050565b6001906020613dcf6104a2865190565b9401938184015501613db2565b9061048c91613d87565b90613aaa6104a2611c2192151590565b6008613ec461010061048c94613e1c613e16600083015163ffffffff1690565b86613b19565b613e33613e2a602083015190565b60018701611c0a565b613e4a613e41604083015190565b60028701613d29565b613e61613e58606083015190565b60038701613ddc565b613e78613e6f608083015190565b60048701613ddc565b613e8f613e8660a083015190565b60058701611c0a565b613ea6613e9d60c083015190565b60068701611c0a565b613ebd613eb460e083015190565b60078701611c0a565b0151151590565b9101613de6565b9190613eda5761048c91613df6565b613ae4565b90815491680100000000000000008310156117875782613f0791600161048c95018155613ac1565b90613ecb565b90611c5390610736565b805482101561163b57613adb600191600052602060002090565b90815491680100000000000000008310156117875782613f5991600161048c95018155613f17565b90613b49565b61103f61048c94613f7e606094989795611031608086019a6000870152565b60408301906108b6565b969295939650600095613f9a876114ea565b8311613fa5906138b3565b613fb6670de0b6b3a76400006114ea565b613fc090846138ff565b613fc9886114ea565b14613fd390613909565b613fdd600e6118fe565b881115613fe99061397b565b613ff44286116139c7565b613ffe83836165dc565b61400a8184843361674c565b61401391613a24565b61401d600b6118fe565b9661402788613a4e565b61403290600b611c0a565b87956140408a8487876123ac565b98909a61404e8b60076128bd565b9961405b8c868d01611c0a565b6140683360018d01613a6c565b6140758760028d01613a83565b6140828860038d01611c0a565b61408f9060048c01611c0a565b61409c8560058c01613a9a565b6140a99060078b01611c0a565b6140b69060088a01611c0a565b6140c34260098a01611c0a565b6140d082600a8a01613ab1565b6140dd90600e8901611c0a565b6140e6906114ea565b6140f16104a28a5190565b81108061419c575b156141245761411f9061411a60068901614113838d6122fb565b5190613edf565b613a4e565b6140e6565b509194509295507fa98bd31b6623984e63046214c723543718a951bc2a46f349bea321f12728d2799194614165816141606104a2336008613f0d565b613f31565b61416f85856168db565b61419761418261417e33610736565b9590565b9561418c60405190565b938493429285613f5f565b0390a3565b506141a7600a6114ea565b81106140f9565b6104a295949392919060006137f0565b9061048c916141ce611ba06114f7565b9060006141df61048c936009611c51565b01611c0a565b9061048c916141be565b6104a260136118fe565b6142059392919061674c565b9091565b6104a2600e6118fe565b61423c7fbf233dd2aafeb4d50879c4aa5c81e96d92f6e6945c906a58f9f2d1c1631b4b2661632a565b61048c61048c6000600c613de6565b61048c614213565b6104a2608061178c565b9061048c614299600361426e614253565b9461427b613621826118fe565b61428a613305600183016118fe565b611c7a61331b600283016118fe565b6060840152565b6104a29061425d565b6142c06142c5916142b8600090565b506012611c51565b6142a0565b806142ce815190565b926142e26142dd602084015190565b935190565b916000926142f2611f46856114ea565b11156143655761430f614306604083015190565b828501516126cf565b928082019061431c825190565b614328611f46836114ea565b111561435957506126cf61435461434360606104a295015190565b61434e6127106114ea565b9061232b565b915190565b90506104a291506114ea565b61436e836114ea565b61430f565b61439c7fbf233dd2aafeb4d50879c4aa5c81e96d92f6e6945c906a58f9f2d1c1631b4b2661632a565b61048c61048c6001600c613de6565b61048c614373565b5050506143be600090565b80918190611d38606090565b61048c906143d9611ba06114f7565b6143ff61048c916123ca6143f061056c6000611d6c565b6001600160a01b038316611de2565b6006613a6c565b61048c906143ca565b9061048c9161441f611ba06114f7565b9061442e61048c92600a613818565b613de6565b9061048c9161440f565b60005b82811061444c57505050565b60209061445761282a565b8184015201614440565b9061048c614471611d1784611c80565b601f19016020840161443d565b505050614489606090565b506104a261449760006114ea565b614461565b61048c906144ab611ba06114f7565b6144c261048c916123ca6143f061056c6000611d6c565b6002613a6c565b61048c9061449c565b60005b8281106144e157505050565b6060828201526020016144d5565b9061048c6144ff611d1784611c80565b601f1901602084016144d2565b919060c0838203126104675761261d9060a061452860c061178c565b946145338382612074565b8652614542836020830161205a565b60208701526145548360408301612074565b60408701526145668360608301612074565b60608701526145788360808301612074565b608087015201612074565b9060c082820312610467576104a29161450c565b90815260408101929161048c916020905b01906001600160a01b03169052565b9190820391821161234957565b9291506145d46123ca6005612050565b9060006145e060405190565b6375bb1d1760e01b81526004810186905292839060249082905afa918215612722576000926148d7575b506146186123ca6005612050565b600061462360405190565b635ef923e160e11b81526004810187905291829060249082905afa9081156127225761465c916123ca9160008092612763575050610736565b90602061466860405190565b6318160ddd60e01b815292839060049082905afa918215612722576000926148b6575b50600090614698826114ea565b926146a96146a4865190565b6144ef565b906146ba6146b5875190565b612378565b92855b6146c86104a2895190565b811015614815576146e6836124e6846124e160606124db878f6122fb565b6146ef876114ea565b8111614704575b506001016146bd565b6146bd565b61475e60c08c8b6147358b614726886147206123ca6006612050565b946122fb565b5101516001600160a01b031690565b9161473f60405190565b80958194829361475363935af81260e01b90565b845260048401614597565b03915afa80156127225760609189916147e7575b50018961477d825190565b831161478b575b50506146f6565b6147d46147de936147ce869c946147b46147af8e6147266146ff9b61411a996122fb565b616a7d565b6147be878d6122fb565b526147c9868c6122fb565b505190565b906145b7565b6126ad838a6122fb565b96903889614784565b614808915060c03d811161480e575b6148008183611765565b810190614583565b38614772565b503d6147f6565b50505091929495509250614828826114ea565b8414614833856144ef565b92839061483f87612378565b9761484a89926114ea565b885b8110156148aa576148a38161489d8c6126ad836148976148938f988f998f8261484c9c61487c8261488d946122fb565b5161488783836122fb565b526122fb565b506122fb565b5190565b926122fb565b60010190565b905061484a565b50945094509450945050565b6148d091925060203d60201161275c5761274d8183611765565b903861468b565b6148eb91923d8091833e61279e8183611765565b903861460a565b6104a260146118fe565b6138896104a29161490b600090565b50600a613818565b6104a26123ca6006612050565b6104a291600061493c61388993614935600090565b5082611c51565b01613f0d565b9061048c91614952611ba06114f7565b9060016141df61048c936009611c51565b9061048c91614942565b1561497457565b60405162461bcd60e51b815260206004820152601160248201527f496e7465726e616c2066756e6374696f6e0000000000000000000000000000006044820152606490fd5b90602082820312610467576104a29161223d565b90815260608101939261048c92909160409161103f905b6001600160a01b03166020830152565b610643614a0c92602092614a06815190565b94859290565b938491016108bf565b7f496e73756666696369656e74207661756c742062616c616e636520666f72207481527f6f6b656e3a20000000000000000000000000000000000000000000000000000060208201526104a29190602601906149f4565b6145a861048c94611038606094989795614a8b608086019a6000870152565b6001600160a01b03166020850152565b805482101561163b57613adb600791600052602060002090565b9077ffffffff00000000000000000000000000000000000000009060a01b611c00565b90614ae86104a2611c2192613b06565b8254614ab5565b90613aaa6104a2611c21926105a7565b61048c91600690614ba39060e090614b3c85614b2b614b2584516001600160a01b031690565b82613a6c565b602083015163ffffffff1690614ad8565b614b4a613e2a604083015190565b614b61614b58606083015190565b60028701611c0a565b614b79614b7060808301613c2d565b60038701614aef565b614b90614b8760a083015190565b60048701611c0a565b614b9e613e8660c083015190565b015190565b9101611c0a565b9190613eda5761048c91614aff565b90815491680100000000000000008310156117875782614be191600161048c95018155614a9b565b90614baa565b15614bee57565b60405162461bcd60e51b815260206004820152601260248201527f4e6f20746f6b656e732072657475726e656400000000000000000000000000006044820152606490fd5b614ca1600092614c646104a2614c4830610736565b94614c5d6001600160a01b038716331461496d565b60076128bd565b93614c726123ca6005612050565b9460006002820196614c83886118fe565b90614c8d60405190565b968792839182916375bb1d1760e01b61243f565b03915afa938415612722576000946150b9575b50614cda6000614cc76123ca6005612050565b614cd0896118fe565b9061242f60405190565b03915afa801561272257614cf79160008092612763575050610736565b94614d0186610736565b926020614d0d60405190565b6318160ddd60e01b815294859060049082905afa93841561272257600094615098575b50600094614d3d866114ea565b614d486104a2895190565b811015614e9d57614d71866124e6614d6560606124db868e6122fb565b61434e60038a016118fe565b90614d7b886114ea565b8211614d91575b6001019050614d3d565b614d3d565b6020614df4928c8b614db78c61472687614720614db16123ca6006612050565b966118fe565b90614dc160405190565b968794859384937f60ea30c3000000000000000000000000000000000000000000000000000000008552600485016149cd565b03915afa91821561272257614d8c9289838c614e54948394614e59575b50614e4e92614726614e26936147af936122fb565b6104a2614e3260405190565b8092614e42602083019182614a15565b90810382520382611765565b90613a24565b614d82565b6147af91945092614726614e2693614e8a614e4e9660203d8111614e96575b614e828183611765565b8101906149b9565b96935093505092614e11565b503d614e78565b5090939196959495614eae876114ea565b614eb96104a2885190565b81101561505a57614ed6846124e6614d6560606124db868d6122fb565b614edf896114ea565b8111614ef4575b50600101614eae565b614eae565b9590614f036123ca6006612050565b614f0c8c6118fe565b614f1a8b614726858d6122fb565b90614f2760018a01612050565b92803b15610467578c92838c93614f73614f4060405190565b978896879586947f8b4f2a4700000000000000000000000000000000000000000000000000000000865260048601614a6c565b03925af1801561272257614ff0614f998a614eef96615028958f9561502e575b5061239f565b99614fe58c614fd8614fbe60206125088a614fb88a61472683896122fb565b956122fb565b91614fc7611c92565b968701906001600160a01b03169052565b63ffffffff166020850152565b6120d4816040850152565b614ffd8b60808301612395565b6150146150098c6114ea565b6126338160a0850152565b61501f4660e0830152565b600b8801614bb9565b90614ee6565b61504d90863d8811615053575b6150458183611765565b8101906106e1565b38614f93565b503d61503b565b5091509561048c95939750615091945061508c92615086600361507f60018401612050565b92016118fe565b92616cb5565b6114ea565b8311614be7565b6150b291945060203d60201161275c5761274d8183611765565b9238614d30565b6150cd91943d8091833e61279e8183611765565b9238614cb4565b6104a26123ca6002612050565b6104a26123ca6004612050565b61048c906150fd611ba06114f7565b61048c90600f611c0a565b61048c906150ee565b61048c90615120611ba06114f7565b61513761048c916123ca6143f061056c6000611d6c565b6003613a6c565b61048c90615111565b6104a26000611d6c565b61048c90615160611ba06114f7565b61517761048c916123ca6143f061056c6000611d6c565b6005613a6c565b61048c90615151565b6104a2600c6128d0565b61048c906151a0611ba06114f7565b61048c906010611c0a565b61048c90615191565b6142059291906151e37f93e156e4a4e47e7c01d08e85bfe534a6e5dc47762803ecda0fa079a2348a852461632a565b9061420592916151f360006114ea565b831180615209575b61520490612832565b615223565b5061520461521a6104a2600b6118fe565b841090506151fb565b906152369291615231616417565b6155ee565b909161048c616470565b1561524757565b60405162461bcd60e51b815260206004820152601360248201527f52657175657374206e6f742070656e64696e67000000000000000000000000006044820152606490fd5b1561529357565b60405162461bcd60e51b815260206004820152600f60248201527f52657175657374206578706972656400000000000000000000000000000000006044820152606490fd5b9060e0615390600661048c9461531a61530d60008301546153086152fb82612047565b6001600160a01b03168952565b613408565b63ffffffff166020870152565b61532a6125fc60018301546118f7565b61534161533a60028301546118f7565b6060870152565b61535b61535160038301546128c7565b60808701906105b0565b61537261536b60048301546118f7565b60a0870152565b61538961538260058301546118f7565b60c0870152565b01546118f7565b910152565b9061064381610100936152d8565b906153b2612a7f610656845490565b9060005b8181106153c35750505090565b9091926153dc6153d560019286615395565b9460070190565b9291016153b6565b61541861541060609361048c9698979561540360808601926000870152565b84820360208601526153a3565b966040830152565b01906108b6565b60009060033d1161542c57565b905060046000803e60005160e01c90565b60009060443d1061048c5760405160043d036004823e8051903d602483011167ffffffffffffffff8311176154a35781810191825167ffffffffffffffff8111613c9a5760043d03830181602086010111613c9a576104a2939495506020010190611765565b5050565b9190601f81116154b657505050565b6154c861048c93600052602060002090565b906020601f8401819004830193106154ea575b6020601f909101040190613b6e565b90915081906154db565b906154fd815190565b9067ffffffffffffffff8211611787576155218261551b8554613531565b856154a7565b602090601f831160011461555c57611c21929160009183615551575b5050600019600883021c1916906002021790565b01519050388061553d565b601f1983169161557185600052602060002090565b9260005b8181106155af57509160029391856001969410615596575b50505002019055565b01516000196008601f8516021c1916905538808061558d565b91936020600181928787015181550195019201615575565b9061048c916154f4565b92916020610bf461048c93604087019087820360008901526108e2565b9290916155ff6104a28260076128bd565b90600a820161560d816128d0565b9261562c60009461562661562087610c90565b91610c90565b14615240565b61564261563b600e83016118fe565b421061528c565b61564d600483613ab1565b61565630610736565b602061566160405190565b7f9babcfc800000000000000000000000000000000000000000000000000000000815260048101869052918290602490829089905af18591816157f1575b5061574a57506001936156b061541f565b6308c379a0146156c5575b5050505061272257565b6156cd61543d565b91826156da575b506156bb565b829498507fa9c86d98edfb064f0f8b63385160e411170b6b36589deeccf5df8b52a8a157049395509061572261573d93600d6157289461571c6006869b613ab1565b016155c7565b976114ea565b9261573260405190565b9182914290836155d1565b0390a238808080806156d4565b9350955061575c919450600590613ab1565b61576981600c8601611c0a565b80927fd3a5a8c03095549f8d0855adbcba8997072c3acd1947d618a02fb287354f5ed16001956157ad600282016157a8866157a3836118fe565b616cff565b6118fe565b926141976157bd600384016118fe565b916157de6157da6157d46005600b880197016128d0565b926114ea565b9690565b966157e860405190565b948594856153e4565b61580b91925060203d60201161275c5761274d8183611765565b903861569f565b614205906000806151b4565b61048c9061582d611ba06114f7565b61584461048c916123ca6143f061056c6000611d6c565b6004613a6c565b61048c9061581e565b6104a2906132b4565b6158746158799161586c606090565b506008613f0d565b615854565b90600091615886836114ea565b90815b6158946104a2835190565b811015615934576158b8600a61339060076158b261489386886122fb565b906128bd565b6158c186610c90565b6158ca82610c90565b14908115615918575b8115615902575b506158ed575b600101615889565b615889565b916158fa6158e891613a4e565b9290506158e0565b90506159116156206004610c90565b14386158da565b90506159246001610c90565b61592d82610c90565b14906158d3565b509061593f90612378565b92839061594b816114ea565b91825b6159596104a2865190565b811015615a02576159a89061597b600a61339060076158b2614893868c6122fb565b61598485610c90565b61598d82610c90565b149081156159e6575b81156159d0575b506159ad5760010190565b61594e565b61489d6159bd61489383896122fb565b6126ad6159c988613a4e565b978b6122fb565b90506159df6156206004610c90565b143861599d565b90506159f26001610c90565b6159fb82610c90565b1490615996565b509450505050565b61048c90615a19611ba06114f7565b615a8b565b600061048c91613c07565b90600003613eda5761048c90615a1e565b6104a290516108a3565b9190615a556104a2611c21936108ad565b908354613c37565b90815491680100000000000000008310156117875782615a8591600161048c95018155611612565b90615a44565b90615a9860006011615a29565b615aa260006114ea565b615aad6104a2845190565b811015615ada57615ad59061489d6011615acf615aca84886122fb565b615a3a565b90615a5d565b615aa2565b509050565b61048c90615a0a565b9061048c91615af9611ba082611df2565b90611e37916163b1565b9061048c91615ae8565b6104a2600f6118fe565b6104a26123ca6005612050565b90615b33612a7f610656845490565b906000915b601f83018211615fe2575490808310615fc5575b808310615fa8575b808310615f8b575b808310615f6e575b808310615f51575b808310615f34575b808310615f17575b808310615efa575b808310615edd575b808310615ec0575b808310615ea3575b808310615e86575b808310615e69575b808310615e4c575b808310615e2f575b808310615e12575b808310615df5575b808310615dd8575b808310615dbb575b808310615d9e575b808310615d81575b808310615d64575b808310615d47575b808310615d2a575b808310615d0d575b808310615cf0575b808310615cd3575b808310615cb6575b808310615c99575b808310615c7c575b808310615c5f575b8210615c4757505090565b82612bb760019394615c5a602094612a64565b6108b6565b9192602081615c73600193615c5a86612a58565b01930191615c3c565b9192602081615c90600193615c5a86612a4c565b01930191615c34565b9192602081615cad600193615c5a86612a40565b01930191615c2c565b9192602081615cca600193615c5a86612a34565b01930191615c24565b9192602081615ce7600193615c5a86612a28565b01930191615c1c565b9192602081615d04600193615c5a86612a1c565b01930191615c14565b9192602081615d21600193615c5a86612a10565b01930191615c0c565b9192602081615d3e600193615c5a86612a04565b01930191615c04565b9192602081615d5b600193615c5a866129f8565b01930191615bfc565b9192602081615d78600193615c5a866129ec565b01930191615bf4565b9192602081615d95600193615c5a866129e0565b01930191615bec565b9192602081615db2600193615c5a866129d4565b01930191615be4565b9192602081615dcf600193615c5a866129c8565b01930191615bdc565b9192602081615dec600193615c5a866129bc565b01930191615bd4565b9192602081615e09600193615c5a866129b0565b01930191615bcc565b9192602081615e26600193615c5a866129a4565b01930191615bc4565b9192602081615e43600193615c5a86612998565b01930191615bbc565b9192602081615e60600193615c5a8661298c565b01930191615bb4565b9192602081615e7d600193615c5a86612980565b01930191615bac565b9192602081615e9a600193615c5a86612974565b01930191615ba4565b9192602081615eb7600193615c5a86612968565b01930191615b9c565b9192602081615ed4600193615c5a8661295c565b01930191615b94565b9192602081615ef1600193615c5a86612950565b01930191615b8c565b9192602081615f0e600193615c5a86612944565b01930191615b84565b9192602081615f2b600193615c5a86612938565b01930191615b7c565b9192602081615f48600193615c5a8661292c565b01930191615b74565b9192602081615f65600193615c5a86612920565b01930191615b6c565b9192602081615f82600193615c5a86612914565b01930191615b64565b9192602081615f9f600193615c5a86612908565b01930191615b5c565b9192602081615fbc600193615c5a866128fc565b01930191615b54565b9192602081615fd9600193615c5a866128c7565b01930191615b4c565b9283549080615ff0836128c7565b90615ffa916108b6565b60200180616007836128fc565b90616011916108b6565b6020018061601e83612908565b90616028916108b6565b6020018061603583612914565b9061603f916108b6565b6020018061604c83612920565b90616056916108b6565b602001806160638361292c565b9061606d916108b6565b6020018061607a83612938565b90616084916108b6565b6020018061609183612944565b9061609b916108b6565b602001806160a883612950565b906160b2916108b6565b602001806160bf8361295c565b906160c9916108b6565b602001806160d683612968565b906160e0916108b6565b602001806160ed83612974565b906160f7916108b6565b6020018061610483612980565b9061610e916108b6565b6020018061611b8361298c565b90616125916108b6565b6020018061613283612998565b9061613c916108b6565b60200180616149836129a4565b90616153916108b6565b60200180616160836129b0565b9061616a916108b6565b60200180616177836129bc565b90616181916108b6565b6020018061618e836129c8565b90616198916108b6565b602001806161a5836129d4565b906161af916108b6565b602001806161bc836129e0565b906161c6916108b6565b602001806161d3836129ec565b906161dd916108b6565b602001806161ea836129f8565b906161f4916108b6565b6020018061620183612a04565b9061620b916108b6565b6020018061621883612a10565b90616222916108b6565b6020018061622f83612a1c565b90616239916108b6565b6020018061624683612a28565b90616250916108b6565b6020018061625d83612a34565b90616267916108b6565b6020018061627483612a40565b9061627e916108b6565b6020018061628b83612a4c565b90616295916108b6565b602001806162a283612a58565b906162ac916108b6565b6020016162b98192612a64565b906162c3916108b6565b602001926001019160200191615b38565b906104a291615b24565b9061048c613257926162ef60405190565b938480926162d4565b6104a2906162de565b6104a260116162f8565b906104a26146b56142dd6146b5855190565b6104a26123ca6003612050565b61048c903390616d92565b61634261380a8383614920565b156163aa5761635c600161442e84600061493c8682611c51565b61637661637061636a339390565b93610736565b91610736565b917f2f8788117e7eff1d82e926ec794901d17c78024a50270940304540a733656f0d6163a160405190565b600090a4600190565b5050600090565b6163bb8282614920565b156163aa576163d4600061442e848261493c8682611c51565b6163e261637061636a339390565b917ff6391f5c32d9c69d2a47ea670b442974b53935d1edc7fd64eb21e047a839171b6163a160405190565b6104a260026114ea565b61642160016118fe565b61642961640d565b90811461643b5761048c906001611c0a565b6040517f3ee5aeb5000000000000000000000000000000000000000000000000000000008152600490fd5b6104a260016114ea565b61048c61647b616466565b6001611c0a565b6104a260c061178c565b9061048c6164e6600561649d616482565b946164aa613621826118fe565b6164b9613305600183016118fe565b6164c861331b600283016118fe565b6164d7613331600383016118fe565b613390613347600483016118fe565b151560a0840152565b6104a29061648c565b156164ff57565b60405162461bcd60e51b815260206004820152601460248201527f42656c6f77206d696e696d756d20616d6f756e740000000000000000000000006044820152606490fd5b1561654b57565b60405162461bcd60e51b815260206004820152601460248201527f41626f7665206d6178696d756d20616d6f756e740000000000000000000000006044820152606490fd5b1561659757565b60405162461bcd60e51b815260206004820152601460248201527f4461696c79206c696d69742065786365656465640000000000000000000000006044820152606490fd5b6165ea6165ef916009611c51565b6164ef565b60a08101516165fc575050565b61661261660a6104a2835190565b8310156164f8565b61662b6166236104a2602084015190565b831115616544565b61664061663a620151806114ea565b42612364565b616651611f46612332608085015190565b1461665a575050565b616682611f466104a2604061667c61048c96616677606088015190565b61239f565b94015190565b1115616590565b6166936011611e61565b7f526564656d7074696f6e20706175736564000000000000000000000000000000602082015290565b6104a2616689565b6166ce6014611e61565b7f5374726174656779206e6f7420656e61626c6564000000000000000000000000602082015290565b6104a26166c4565b6167096020611e61565b7f496e73756666696369656e7420696e64657820746f6b656e2062616c616e6365602082015290565b6104a26166ff565b6104a26000611e61565b6104a261673a565b92616757600c6128d0565b6168cc5761380a61388961676c92600a613818565b6168be5761677d6123ca6005612050565b92600061678960405190565b635ef923e160e11b81526004810184905294859060249082905afa938415612722576000809561689d575b50506000936167c561056c86611d6c565b6001600160a01b038216036167fd575b50506167ec9392916167e691616de3565b93901590565b611f465750600191506104a2616744565b6168539161680f6123ca602093610736565b604051938492839182917f70a08231000000000000000000000000000000000000000000000000000000008352600483016001600160a01b03909116815260200190565b03915afa90811561272257849161687e575b5082116168735738806167d5565b5050906104a2616732565b616897915060203d60201161275c5761274d8183611765565b38616865565b6168b29295503d8091833e6127778183611765565b505050509592506167b4565b5050506000906104a26166f7565b505050506000906104a26166bc565b9061692460036168f26104a261048c956009611c51565b61690161663a620151806114ea565b600482019061690f826118fe565b81900361692a575b50500191616677836118fe565b90611c0a565b6169489161694361693b60006114ea565b868601611c0a565b611c0a565b3880616917565b6104a26104a26104a2926001600160a01b031690565b61696f6010611e61565b7f3031323334353637383961626364656600000000000000000000000000000000602082015290565b6104a2616965565b9061048c6123886169b084611e61565b93611e44565b906169bf825190565b81101561163b570160200190565b61111a6104a26104a29290565b616a1990616a146169ee6104a29460ff1690565b917fff000000000000000000000000000000000000000000000000000000000000001690565b901c90565b7fff000000000000000000000000000000000000000000000000000000000000001690565b61111a6104a26104a29260ff1690565b6104a29060f81c616a3e565b6104a26104a26104a29260ff1690565b616a19616a776104a29290565b60f81b90565b61508c616a95616a9a92616a8f606090565b5061072d565b61694f565b90616aa3616998565b616ab5616ab0602a6114ea565b6169a0565b906000906030616acd616ac7846114ea565b856169b6565b536001917f7800000000000000000000000000000000000000000000000000000000000000811a616b06616b00856114ea565b866169b6565b5382616b11826114ea565b905b616b25575b505050506104a291925090565b616b2f60146114ea565b811015616c6557600c90616b4b616b45836114ea565b8261239f565b602081101561163b57616b45616bbb616b95616b8f616b8a616b85616b758f616bf0981a60f81b90565b616b7f60046169cd565b906169da565b616a4e565b616a5a565b886169b6565b517fff000000000000000000000000000000000000000000000000000000000000001690565b93600294616bea616be0616bd7616bd1896114ea565b8861232b565b616677896114ea565b91881a918b6169b6565b536114ea565b91602083101561163b57616c58616c4e616c44616c3e616c38616b95616c328f616c22616b8a91616c5f9c1a60f81b90565b616c2c600f616a6a565b16616a4e565b8b6169b6565b946114ea565b8561232b565b61667760036114ea565b91851a91886169b6565b5360010190565b83616b13565b616b18565b616c83616c7d6104a29263ffffffff1690565b60e01b90565b6001600160e01b03191690565b6001600160a01b03909116815260608101939261048c92909160409161103f906149e4565b90616cfa90616ceb61048c95600495616cd16323b872dd616c6a565b93616cdb60405190565b9788956020870190815201616c90565b60208201810382520383611765565b616fd9565b61048c91616d4d6003616d1e81946012616d2b6000616d1e8484611c51565b0161692461411a826118fe565b616d486001616d3a8484611c51565b0161692488616677836118fe565b611c51565b601390616d1e90616d648361692461411a826118fe565b6169246001840191616677836118fe565b6001600160a01b03909116815260408101929161048c9160200152565b90616da061380a8284614920565b616da8575050565b611bf6616db460405190565b9283927fe2517d3f00000000000000000000000000000000000000000000000000000000845260048401616d75565b91616df16123ca6005612050565b6000616dfc60405190565b6375bb1d1760e01b81526004810186905291829060249082905afa90811561272257600091616fc0575b50616e346123ca6005612050565b6000616e3f60405190565b635ef923e160e11b81526004810187905291829060249082905afa90811561272257616e78916123ca9160008092612763575050610736565b936020616e8460405190565b6318160ddd60e01b815295869060049082905afa94851561272257600095616f9f575b50600094616eb4866114ea565b616ebf6104a2855190565b811015616f8d57616edd826124e6886124e160606124db878b6122fb565b616ee6886114ea565b8111616ef6575b50600101616eb4565b6020616f3a91616f096123ca6006612050565b616f178b614726878b6122fb565b604051809581948293616f2e6360ea30c360e01b90565b84528b600485016149cd565b03915afa908115612722578891616f56918391616f7557501590565b15616eed5791506104a29495506147af925061472690614e26946122fb565b61380a915060203d8111614e9657614e828183611765565b505050509150506001906104a2616744565b616fb991955060203d60201161275c5761274d8183611765565b9338616ea7565b616fd3913d8091833e61279e8183611765565b38616e26565b906000602091616fe7600090565b50828151910182855af11561216a573d60005190617008611f4660006114ea565b0361707a575061701781610736565b3b617025611f4660006114ea565b145b61702e5750565b61703a611bf691610736565b6040519182917f5274afe7000000000000000000000000000000000000000000000000000000008352600483016001600160a01b03909116815260200190565b617087611f4660016114ea565b141561702756fea26469706673582212208f3f97f8932013a8db10db991c6f21a93a3ae0f8cffd3c873926c73a594532fc64736f6c63430008160033",
  "linkReferences": {},
  "deployedLinkReferences": {}
}