{
  "_format": "hh-sol-artifact-1",
  "contractName": "IndexTokenFactory",
  "sourceName": "contracts/IndexTokenFactory.sol",
  "abi": [
    {
      "inputs": [
        {
          "internalType": "address",
          "name": "_priceFeed",
          "type": "address"
        }
      ],
      "stateMutability": "nonpayable",
      "type": "constructor"
    },
    {
      "inputs": [],
      "name": "AccessControlBadConfirmation",
      "type": "error"
    },
    {
      "inputs": [
        {
          "internalType": "address",
          "name": "account",
          "type": "address"
        },
        {
          "internalType": "bytes32",
          "name": "neededRole",
          "type": "bytes32"
        }
      ],
      "name": "AccessControlUnauthorizedAccount",
      "type": "error"
    },
    {
      "inputs": [],
      "name": "EnforcedPause",
      "type": "error"
    },
    {
      "inputs": [],
      "name": "ExpectedPause",
      "type": "error"
    },
    {
      "inputs": [],
      "name": "FailedDeployment",
      "type": "error"
    },
    {
      "inputs": [
        {
          "internalType": "uint256",
          "name": "balance",
          "type": "uint256"
        },
        {
          "internalType": "uint256",
          "name": "needed",
          "type": "uint256"
        }
      ],
      "name": "InsufficientBalance",
      "type": "error"
    },
    {
      "inputs": [],
      "name": "ReentrancyGuardReentrantCall",
      "type": "error"
    },
    {
      "inputs": [
        {
          "internalType": "address",
          "name": "token",
          "type": "address"
        }
      ],
      "name": "SafeERC20FailedOperation",
      "type": "error"
    },
    {
      "anonymous": false,
      "inputs": [
        {
          "indexed": true,
          "internalType": "address",
          "name": "admin",
          "type": "address"
        },
        {
          "indexed": false,
          "internalType": "uint256",
          "name": "timestamp",
          "type": "uint256"
        }
      ],
      "name": "EmergencyPaused",
      "type": "event"
    },
    {
      "anonymous": false,
      "inputs": [
        {
          "indexed": true,
          "internalType": "address",
          "name": "admin",
          "type": "address"
        },
        {
          "indexed": false,
          "internalType": "uint256",
          "name": "timestamp",
          "type": "uint256"
        }
      ],
      "name": "EmergencyUnpaused",
      "type": "event"
    },
    {
      "anonymous": false,
      "inputs": [
        {
          "indexed": true,
          "internalType": "bytes32",
          "name": "fundId",
          "type": "bytes32"
        },
        {
          "indexed": false,
          "internalType": "string",
          "name": "name",
          "type": "string"
        },
        {
          "indexed": false,
          "internalType": "address",
          "name": "creator",
          "type": "address"
        }
      ],
      "name": "FundCreated",
      "type": "event"
    },
    {
      "anonymous": false,
      "inputs": [
        {
          "indexed": true,
          "internalType": "bytes32",
          "name": "fundId",
          "type": "bytes32"
        },
        {
          "indexed": true,
          "internalType": "address",
          "name": "tokenAddress",
          "type": "address"
        },
        {
          "indexed": false,
          "internalType": "string",
          "name": "name",
          "type": "string"
        },
        {
          "indexed": false,
          "internalType": "string",
          "name": "symbol",
          "type": "string"
        }
      ],
      "name": "IndexTokenCreated",
      "type": "event"
    },
    {
      "anonymous": false,
      "inputs": [
        {
          "indexed": true,
          "internalType": "bytes32",
          "name": "fundId",
          "type": "bytes32"
        },
        {
          "indexed": false,
          "internalType": "address",
          "name": "tokenAddress",
          "type": "address"
        },
        {
          "indexed": false,
          "internalType": "uint256",
          "name": "totalSupply",
          "type": "uint256"
        }
      ],
      "name": "IndexTokenIssued",
      "type": "event"
    },
    {
      "anonymous": false,
      "inputs": [
        {
          "indexed": true,
          "internalType": "bytes32",
          "name": "fundId",
          "type": "bytes32"
        },
        {
          "indexed": false,
          "internalType": "string",
          "name": "reason",
          "type": "string"
        }
      ],
      "name": "LiquidityCheckFailed",
      "type": "event"
    },
    {
      "anonymous": false,
      "inputs": [
        {
          "indexed": true,
          "internalType": "bytes32",
          "name": "fundId",
          "type": "bytes32"
        },
        {
          "indexed": false,
          "internalType": "uint256",
          "name": "amount",
          "type": "uint256"
        }
      ],
      "name": "ManagementFeeCollected",
      "type": "event"
    },
    {
      "anonymous": false,
      "inputs": [
        {
          "indexed": false,
          "internalType": "address",
          "name": "account",
          "type": "address"
        }
      ],
      "name": "Paused",
      "type": "event"
    },
    {
      "anonymous": false,
      "inputs": [
        {
          "indexed": true,
          "internalType": "address",
          "name": "oldPriceFeed",
          "type": "address"
        },
        {
          "indexed": true,
          "internalType": "address",
          "name": "newPriceFeed",
          "type": "address"
        }
      ],
      "name": "PriceFeedUpdated",
      "type": "event"
    },
    {
      "anonymous": false,
      "inputs": [
        {
          "indexed": true,
          "internalType": "bytes32",
          "name": "role",
          "type": "bytes32"
        },
        {
          "indexed": true,
          "internalType": "bytes32",
          "name": "previousAdminRole",
          "type": "bytes32"
        },
        {
          "indexed": true,
          "internalType": "bytes32",
          "name": "newAdminRole",
          "type": "bytes32"
        }
      ],
      "name": "RoleAdminChanged",
      "type": "event"
    },
    {
      "anonymous": false,
      "inputs": [
        {
          "indexed": true,
          "internalType": "bytes32",
          "name": "role",
          "type": "bytes32"
        },
        {
          "indexed": true,
          "internalType": "address",
          "name": "account",
          "type": "address"
        },
        {
          "indexed": true,
          "internalType": "address",
          "name": "sender",
          "type": "address"
        }
      ],
      "name": "RoleGranted",
      "type": "event"
    },
    {
      "anonymous": false,
      "inputs": [
        {
          "indexed": true,
          "internalType": "bytes32",
          "name": "role",
          "type": "bytes32"
        },
        {
          "indexed": true,
          "internalType": "address",
          "name": "account",
          "type": "address"
        },
        {
          "indexed": true,
          "internalType": "address",
          "name": "sender",
          "type": "address"
        }
      ],
      "name": "RoleRevoked",
      "type": "event"
    },
    {
      "anonymous": false,
      "inputs": [
        {
          "indexed": true,
          "internalType": "address",
          "name": "tokenAddress",
          "type": "address"
        },
        {
          "indexed": true,
          "internalType": "address",
          "name": "authorizer",
          "type": "address"
        }
      ],
      "name": "TokenAuthorized",
      "type": "event"
    },
    {
      "anonymous": false,
      "inputs": [
        {
          "indexed": true,
          "internalType": "address",
          "name": "tokenAddress",
          "type": "address"
        },
        {
          "indexed": true,
          "internalType": "address",
          "name": "revoker",
          "type": "address"
        }
      ],
      "name": "TokenRevoked",
      "type": "event"
    },
    {
      "anonymous": false,
      "inputs": [
        {
          "indexed": true,
          "internalType": "bytes32",
          "name": "fundId",
          "type": "bytes32"
        },
        {
          "indexed": false,
          "internalType": "address",
          "name": "token",
          "type": "address"
        },
        {
          "indexed": false,
          "internalType": "uint256",
          "name": "amount",
          "type": "uint256"
        }
      ],
      "name": "TokensDeposited",
      "type": "event"
    },
    {
      "anonymous": false,
      "inputs": [
        {
          "indexed": false,
          "internalType": "address",
          "name": "account",
          "type": "address"
        }
      ],
      "name": "Unpaused",
      "type": "event"
    },
    {
      "inputs": [],
      "name": "DEFAULT_ADMIN_ROLE",
      "outputs": [
        {
          "internalType": "bytes32",
          "name": "",
          "type": "bytes32"
        }
      ],
      "stateMutability": "view",
      "type": "function"
    },
    {
      "inputs": [],
      "name": "MAX_COMPONENTS",
      "outputs": [
        {
          "internalType": "uint256",
          "name": "",
          "type": "uint256"
        }
      ],
      "stateMutability": "view",
      "type": "function"
    },
    {
      "inputs": [],
      "name": "MIN_FUND_VALUE",
      "outputs": [
        {
          "internalType": "uint256",
          "name": "",
          "type": "uint256"
        }
      ],
      "stateMutability": "view",
      "type": "function"
    },
    {
      "inputs": [],
      "name": "PLATFORM_ADMIN_ROLE",
      "outputs": [
        {
          "internalType": "bytes32",
          "name": "",
          "type": "bytes32"
        }
      ],
      "stateMutability": "view",
      "type": "function"
    },
    {
      "inputs": [],
      "name": "PRICE_DECIMALS",
      "outputs": [
        {
          "internalType": "uint256",
          "name": "",
          "type": "uint256"
        }
      ],
      "stateMutability": "view",
      "type": "function"
    },
    {
      "inputs": [],
      "name": "RATIO_BASE",
      "outputs": [
        {
          "internalType": "uint256",
          "name": "",
          "type": "uint256"
        }
      ],
      "stateMutability": "view",
      "type": "function"
    },
    {
      "inputs": [],
      "name": "RECIPE_CREATOR_ROLE",
      "outputs": [
        {
          "internalType": "bytes32",
          "name": "",
          "type": "bytes32"
        }
      ],
      "stateMutability": "view",
      "type": "function"
    },
    {
      "inputs": [
        {
          "internalType": "address",
          "name": "tokenAddress",
          "type": "address"
        },
        {
          "internalType": "bool",
          "name": "authorized",
          "type": "bool"
        }
      ],
      "name": "authorizeToken",
      "outputs": [],
      "stateMutability": "nonpayable",
      "type": "function"
    },
    {
      "inputs": [
        {
          "internalType": "address",
          "name": "tokenAddress",
          "type": "address"
        }
      ],
      "name": "authorizeToken",
      "outputs": [],
      "stateMutability": "nonpayable",
      "type": "function"
    },
    {
      "inputs": [
        {
          "internalType": "address",
          "name": "",
          "type": "address"
        }
      ],
      "name": "authorizedTokens",
      "outputs": [
        {
          "internalType": "bool",
          "name": "",
          "type": "bool"
        }
      ],
      "stateMutability": "view",
      "type": "function"
    },
    {
      "inputs": [
        {
          "internalType": "bytes32",
          "name": "fundId",
          "type": "bytes32"
        }
      ],
      "name": "calculateNAV",
      "outputs": [
        {
          "internalType": "uint256",
          "name": "",
          "type": "uint256"
        }
      ],
      "stateMutability": "view",
      "type": "function"
    },
    {
      "inputs": [
        {
          "internalType": "bytes32",
          "name": "fundId",
          "type": "bytes32"
        }
      ],
      "name": "checkLiquidityRequirements",
      "outputs": [
        {
          "internalType": "bool",
          "name": "sufficient",
          "type": "bool"
        },
        {
          "internalType": "string",
          "name": "reason",
          "type": "string"
        }
      ],
      "stateMutability": "view",
      "type": "function"
    },
    {
      "inputs": [
        {
          "internalType": "string",
          "name": "name",
          "type": "string"
        },
        {
          "internalType": "string",
          "name": "symbol",
          "type": "string"
        },
        {
          "components": [
            {
              "internalType": "address",
              "name": "tokenAddress",
              "type": "address"
            },
            {
              "internalType": "uint32",
              "name": "hyperliquidAssetIndex",
              "type": "uint32"
            },
            {
              "internalType": "uint256",
              "name": "targetRatio",
              "type": "uint256"
            },
            {
              "internalType": "uint256",
              "name": "depositedAmount",
              "type": "uint256"
            }
          ],
          "internalType": "struct IIndexTokenFactory.ComponentToken[]",
          "name": "components",
          "type": "tuple[]"
        }
      ],
      "name": "createIndexFund",
      "outputs": [
        {
          "internalType": "bytes32",
          "name": "",
          "type": "bytes32"
        }
      ],
      "stateMutability": "nonpayable",
      "type": "function"
    },
    {
      "inputs": [
        {
          "internalType": "address",
          "name": "",
          "type": "address"
        },
        {
          "internalType": "uint256",
          "name": "",
          "type": "uint256"
        }
      ],
      "name": "creatorFunds",
      "outputs": [
        {
          "internalType": "bytes32",
          "name": "",
          "type": "bytes32"
        }
      ],
      "stateMutability": "view",
      "type": "function"
    },
    {
      "inputs": [
        {
          "internalType": "bytes32",
          "name": "fundId",
          "type": "bytes32"
        },
        {
          "internalType": "address[]",
          "name": "tokenAddresses",
          "type": "address[]"
        },
        {
          "internalType": "uint256[]",
          "name": "amounts",
          "type": "uint256[]"
        }
      ],
      "name": "depositComponentTokens",
      "outputs": [],
      "stateMutability": "nonpayable",
      "type": "function"
    },
    {
      "inputs": [],
      "name": "emergencyPause",
      "outputs": [],
      "stateMutability": "nonpayable",
      "type": "function"
    },
    {
      "inputs": [],
      "name": "emergencyUnpause",
      "outputs": [],
      "stateMutability": "nonpayable",
      "type": "function"
    },
    {
      "inputs": [
        {
          "internalType": "bytes32",
          "name": "",
          "type": "bytes32"
        }
      ],
      "name": "fundIndexTokens",
      "outputs": [
        {
          "internalType": "address",
          "name": "",
          "type": "address"
        }
      ],
      "stateMutability": "view",
      "type": "function"
    },
    {
      "inputs": [
        {
          "internalType": "bytes32",
          "name": "",
          "type": "bytes32"
        }
      ],
      "name": "funds",
      "outputs": [
        {
          "internalType": "string",
          "name": "name",
          "type": "string"
        },
        {
          "internalType": "string",
          "name": "symbol",
          "type": "string"
        },
        {
          "internalType": "address",
          "name": "creator",
          "type": "address"
        },
        {
          "internalType": "address",
          "name": "indexTokenAddress",
          "type": "address"
        },
        {
          "internalType": "uint256",
          "name": "totalSupply",
          "type": "uint256"
        },
        {
          "internalType": "uint256",
          "name": "createdAt",
          "type": "uint256"
        },
        {
          "internalType": "bool",
          "name": "isActive",
          "type": "bool"
        },
        {
          "internalType": "bool",
          "name": "isIssued",
          "type": "bool"
        }
      ],
      "stateMutability": "view",
      "type": "function"
    },
    {
      "inputs": [
        {
          "internalType": "address",
          "name": "creator",
          "type": "address"
        }
      ],
      "name": "getCreatorFunds",
      "outputs": [
        {
          "internalType": "bytes32[]",
          "name": "",
          "type": "bytes32[]"
        }
      ],
      "stateMutability": "view",
      "type": "function"
    },
    {
      "inputs": [
        {
          "internalType": "bytes32",
          "name": "fundId",
          "type": "bytes32"
        }
      ],
      "name": "getFundComponents",
      "outputs": [
        {
          "components": [
            {
              "internalType": "address",
              "name": "tokenAddress",
              "type": "address"
            },
            {
              "internalType": "uint32",
              "name": "hyperliquidAssetIndex",
              "type": "uint32"
            },
            {
              "internalType": "uint256",
              "name": "targetRatio",
              "type": "uint256"
            },
            {
              "internalType": "uint256",
              "name": "depositedAmount",
              "type": "uint256"
            }
          ],
          "internalType": "struct IIndexTokenFactory.ComponentToken[]",
          "name": "",
          "type": "tuple[]"
        }
      ],
      "stateMutability": "view",
      "type": "function"
    },
    {
      "inputs": [
        {
          "internalType": "bytes32",
          "name": "fundId",
          "type": "bytes32"
        }
      ],
      "name": "getFundInfo",
      "outputs": [
        {
          "internalType": "string",
          "name": "name",
          "type": "string"
        },
        {
          "internalType": "string",
          "name": "symbol",
          "type": "string"
        },
        {
          "internalType": "address",
          "name": "creator",
          "type": "address"
        },
        {
          "internalType": "address",
          "name": "indexToken",
          "type": "address"
        },
        {
          "internalType": "uint256",
          "name": "totalSupply",
          "type": "uint256"
        },
        {
          "internalType": "uint256",
          "name": "nav",
          "type": "uint256"
        },
        {
          "internalType": "bool",
          "name": "isActive",
          "type": "bool"
        },
        {
          "internalType": "bool",
          "name": "isIssued",
          "type": "bool"
        }
      ],
      "stateMutability": "view",
      "type": "function"
    },
    {
      "inputs": [
        {
          "internalType": "bytes32",
          "name": "role",
          "type": "bytes32"
        }
      ],
      "name": "getRoleAdmin",
      "outputs": [
        {
          "internalType": "bytes32",
          "name": "",
          "type": "bytes32"
        }
      ],
      "stateMutability": "view",
      "type": "function"
    },
    {
      "inputs": [
        {
          "internalType": "address",
          "name": "account",
          "type": "address"
        }
      ],
      "name": "grantRecipeCreatorRole",
      "outputs": [],
      "stateMutability": "nonpayable",
      "type": "function"
    },
    {
      "inputs": [
        {
          "internalType": "bytes32",
          "name": "role",
          "type": "bytes32"
        },
        {
          "internalType": "address",
          "name": "account",
          "type": "address"
        }
      ],
      "name": "grantRole",
      "outputs": [],
      "stateMutability": "nonpayable",
      "type": "function"
    },
    {
      "inputs": [
        {
          "internalType": "bytes32",
          "name": "role",
          "type": "bytes32"
        },
        {
          "internalType": "address",
          "name": "account",
          "type": "address"
        }
      ],
      "name": "hasRole",
      "outputs": [
        {
          "internalType": "bool",
          "name": "",
          "type": "bool"
        }
      ],
      "stateMutability": "view",
      "type": "function"
    },
    {
      "inputs": [],
      "name": "indexTokenImplementation",
      "outputs": [
        {
          "internalType": "address",
          "name": "",
          "type": "address"
        }
      ],
      "stateMutability": "view",
      "type": "function"
    },
    {
      "inputs": [],
      "name": "isPaused",
      "outputs": [
        {
          "internalType": "bool",
          "name": "",
          "type": "bool"
        }
      ],
      "stateMutability": "view",
      "type": "function"
    },
    {
      "inputs": [
        {
          "internalType": "bytes32",
          "name": "fundId",
          "type": "bytes32"
        },
        {
          "internalType": "uint256",
          "name": "tokenSupply",
          "type": "uint256"
        }
      ],
      "name": "issueIndexToken",
      "outputs": [],
      "stateMutability": "nonpayable",
      "type": "function"
    },
    {
      "inputs": [],
      "name": "paused",
      "outputs": [
        {
          "internalType": "bool",
          "name": "",
          "type": "bool"
        }
      ],
      "stateMutability": "view",
      "type": "function"
    },
    {
      "inputs": [],
      "name": "priceFeed",
      "outputs": [
        {
          "internalType": "contract IPriceFeed",
          "name": "",
          "type": "address"
        }
      ],
      "stateMutability": "view",
      "type": "function"
    },
    {
      "inputs": [
        {
          "internalType": "bytes32",
          "name": "role",
          "type": "bytes32"
        },
        {
          "internalType": "address",
          "name": "callerConfirmation",
          "type": "address"
        }
      ],
      "name": "renounceRole",
      "outputs": [],
      "stateMutability": "nonpayable",
      "type": "function"
    },
    {
      "inputs": [
        {
          "internalType": "bytes32",
          "name": "role",
          "type": "bytes32"
        },
        {
          "internalType": "address",
          "name": "account",
          "type": "address"
        }
      ],
      "name": "revokeRole",
      "outputs": [],
      "stateMutability": "nonpayable",
      "type": "function"
    },
    {
      "inputs": [
        {
          "internalType": "address",
          "name": "tokenAddress",
          "type": "address"
        }
      ],
      "name": "revokeToken",
      "outputs": [],
      "stateMutability": "nonpayable",
      "type": "function"
    },
    {
      "inputs": [
        {
          "internalType": "bytes32",
          "name": "fundId",
          "type": "bytes32"
        },
        {
          "internalType": "bool",
          "name": "active",
          "type": "bool"
        }
      ],
      "name": "setFundActive",
      "outputs": [],
      "stateMutability": "nonpayable",
      "type": "function"
    },
    {
      "inputs": [
        {
          "internalType": "address",
          "name": "_priceFeed",
          "type": "address"
        }
      ],
      "name": "setPriceFeedAddress",
      "outputs": [],
      "stateMutability": "nonpayable",
      "type": "function"
    },
    {
      "inputs": [
        {
          "internalType": "bytes4",
          "name": "interfaceId",
          "type": "bytes4"
        }
      ],
      "name": "supportsInterface",
      "outputs": [
        {
          "internalType": "bool",
          "name": "",
          "type": "bool"
        }
      ],
      "stateMutability": "view",
      "type": "function"
    },
    {
      "inputs": [
        {
          "internalType": "bytes32",
          "name": "fundId",
          "type": "bytes32"
        },
        {
          "internalType": "address",
          "name": "to",
          "type": "address"
        },
        {
          "internalType": "uint256",
          "name": "amount",
          "type": "uint256"
        }
      ],
      "name": "transferIndexTokens",
      "outputs": [],
      "stateMutability": "nonpayable",
      "type": "function"
    }
  ],
  "bytecode": "0x60806040523480156200001157600080fd5b5060405162004c3038038062004c308339810160408190526200003491620001fe565b600180556001600160a01b038116620000935760405162461bcd60e51b815260206004820152601960248201527f507269636520666565642063616e6e6f74206265207a65726f00000000000000604482015260640160405180910390fd5b620000a060003362000141565b50620000cd7f5246556c0ab216b5b325ad7c539bfbd1a07c768773cdf810fecd3c3375c274073362000141565b5060028054610100600160a81b0319166101006001600160a01b03841602179055604051620000fc90620001f0565b604051809103906000f08015801562000119573d6000803e3d6000fd5b50600780546001600160a01b0319166001600160a01b03929092169190911790555062000230565b6000828152602081815260408083206001600160a01b038516845290915281205460ff16620001e6576000838152602081815260408083206001600160a01b03861684529091529020805460ff191660011790556200019d3390565b6001600160a01b0316826001600160a01b0316847f2f8788117e7eff1d82e926ec794901d17c78024a50270940304540a733656f0d60405160405180910390a4506001620001ea565b5060005b92915050565b61179d806200349383390190565b6000602082840312156200021157600080fd5b81516001600160a01b03811681146200022957600080fd5b9392505050565b61325380620002406000396000f3fe608060405234801561001057600080fd5b50600436106102315760003560e01c806398e9cb1211610130578063b187bd26116100b8578063d547741f1161007c578063d547741f14610506578063d8c149e014610519578063db8848ad1461052c578063df12f8c514610553578063f1a640f81461057357600080fd5b8063b187bd26146104bf578063bbda7ec1146104c7578063bdf247c2146104da578063c11a5630146104ed578063c4760fb9146104f657600080fd5b8063a27d0979116100ff578063a27d09791461043c578063a46a698e1461044f578063a5c42b7714610470578063a711ea8a14610499578063af1c3c7e146104ac57600080fd5b806398e9cb12146103eb5780639bc7c586146103fe5780639ff2eb5614610421578063a217fddf1461043457600080fd5b80635c975abb116101be578063741bef1a11610182578063741bef1a1461036257806375bb1d1714610392578063860b5d3a146103b257806391d14854146103c5578063933f4eef146103d857600080fd5b80635c975abb146102f55780636561cc3214610300578063685d34ff146103135780636a29a620146103285780637372d5221461034f57600080fd5b80632f2ff15d116102055780632f2ff15d146102ac57806336568abe146102bf5780633c01847f146102d25780634a4e3bd5146102e557806351858e27146102ed57600080fd5b8062cf5db41461023657806301ffc9a71461024b5780630ab50a6a14610273578063248a9ca314610289575b600080fd5b6102496102443660046126e2565b61057b565b005b61025e610259366004612704565b61063c565b60405190151581526020015b60405180910390f35b61027b600a81565b60405190815260200161026a565b61027b61029736600461272e565b60009081526020819052604090206001015490565b6102496102ba366004612747565b610673565b6102496102cd366004612747565b61069e565b6102496102e03660046126e2565b6106d6565b61024961070b565b610249610757565b60025460ff1661025e565b61024961030e366004612781565b61079c565b61027b6000805160206131b183398151915281565b61033b61033636600461272e565b610821565b60405161026a989796959493929190612808565b61027b61035d366004612974565b610985565b60025461037a9061010090046001600160a01b031681565b6040516001600160a01b03909116815260200161026a565b6103a56103a036600461272e565b610fdc565b60405161026a9190612aaa565b60075461037a906001600160a01b031681565b61025e6103d3366004612747565b611085565b6102496103e63660046126e2565b6110ae565b6102496103f93660046126e2565b611168565b61025e61040c3660046126e2565b60056020526000908152604090205460ff1681565b61027b61042f36600461272e565b611225565b61027b600081565b61024961044a366004612b1d565b611300565b61046261045d36600461272e565b6116a7565b60405161026a929190612b3f565b61037a61047e36600461272e565b6006602052600090815260409020546001600160a01b031681565b6102496104a7366004612b5a565b6118e5565b6102496104ba366004612be5565b611914565b61025e611d45565b6102496104d5366004612cb0565b611d58565b61033b6104e836600461272e565b611eb3565b61027b61271081565b61027b683635c9adc5dea0000081565b610249610514366004612747565b61207a565b61027b610527366004612ce5565b61209f565b61027b7f368fb66a5345c6055f1cca28ffebb342afcce72c6e0ca1e0d74c1003b589208d81565b6105666105613660046126e2565b6120d0565b60405161026a9190612d0f565b61027b601281565b60006105868161213c565b6001600160a01b0382166105e15760405162461bcd60e51b815260206004820152601a60248201527f496e76616c69642070726963652066656564206164647265737300000000000060448201526064015b60405180910390fd5b600280546001600160a01b03848116610100818102610100600160a81b031985161790945560405193909204169182907fa8abe0398416476db5b05737cd4da3b3cbde5012d978a6a6c3fd49d32175353690600090a3505050565b60006001600160e01b03198216637965db0b60e01b148061066d57506301ffc9a760e01b6001600160e01b03198316145b92915050565b60008281526020819052604090206001015461068e8161213c565b6106988383612149565b50505050565b6001600160a01b03811633146106c75760405163334bd91960e11b815260040160405180910390fd5b6106d182826121db565b505050565b60006106e18161213c565b6106d17f368fb66a5345c6055f1cca28ffebb342afcce72c6e0ca1e0d74c1003b589208d83612149565b60006107168161213c565b61071e612246565b60405142815233907fdacac23d353cc4fe05be85350ed1e8227ed9edf2323b7cb5aad3174e6a9ce1d6906020015b60405180910390a250565b60006107628161213c565b61076a612298565b60405142815233907f2e31b3b12b9bb0e82c32f27df5f234fabc95a374f54fd287a7132878d5dc9fc39060200161074c565b60006107a78161213c565b6001600160a01b0383166107f55760405162461bcd60e51b8152602060048201526015602482015274496e76616c696420746f6b656e206164647265737360581b60448201526064016105d8565b506001600160a01b03919091166000908152600560205260409020805460ff1916911515919091179055565b60036020526000908152604090208054819061083c90612d53565b80601f016020809104026020016040519081016040528092919081815260200182805461086890612d53565b80156108b55780601f1061088a576101008083540402835291602001916108b5565b820191906000526020600020905b81548152906001019060200180831161089857829003601f168201915b5050505050908060010180546108ca90612d53565b80601f01602080910402602001604051908101604052809291908181526020018280546108f690612d53565b80156109435780601f1061091857610100808354040283529160200191610943565b820191906000526020600020905b81548152906001019060200180831161092657829003601f168201915b505050600284015460048501546005860154600687015460079097015495966001600160a01b0393841696929093169450925060ff8082169161010090041688565b60007f368fb66a5345c6055f1cca28ffebb342afcce72c6e0ca1e0d74c1003b589208d6109b18161213c565b6109b96122d5565b60025460ff16156109dc5760405162461bcd60e51b81526004016105d890612d8d565b600085511180156109ee575060008451115b610a3a5760405162461bcd60e51b815260206004820152601860248201527f4e616d6520616e642073796d626f6c207265717569726564000000000000000060448201526064016105d8565b60008351118015610a4d5750600a835111155b610a995760405162461bcd60e51b815260206004820152601760248201527f496e76616c696420636f6d706f6e656e7420636f756e7400000000000000000060448201526064016105d8565b6000805b8451811015610c415760006001600160a01b0316858281518110610ac357610ac3612dd2565b6020026020010151600001516001600160a01b031603610b1d5760405162461bcd60e51b8152602060048201526015602482015274496e76616c696420746f6b656e206164647265737360581b60448201526064016105d8565b6000858281518110610b3157610b31612dd2565b60200260200101516040015111610b835760405162461bcd60e51b8152602060048201526016602482015275526174696f206d75737420626520706f73697469766560501b60448201526064016105d8565b60056000868381518110610b9957610b99612dd2565b602090810291909101810151516001600160a01b031682528101919091526040016000205460ff16610c045760405162461bcd60e51b8152602060048201526014602482015273151bdad95b881b9bdd08185d5d1a1bdc9a5e995960621b60448201526064016105d8565b848181518110610c1657610c16612dd2565b60200260200101516040015182610c2d9190612dfe565b915080610c3981612e11565b915050610a9d565b506127108114610c935760405162461bcd60e51b815260206004820152601860248201527f546f74616c20726174696f206d7573742062652031303025000000000000000060448201526064016105d8565b600086863342604051602001610cac9493929190612e2a565b60408051601f198184030181529181528151602092830120600081815260039093529120600201549091506001600160a01b031615610d265760405162461bcd60e51b815260206004820152601660248201527546756e6420494420616c72656164792065786973747360501b60448201526064016105d8565b600081815260036020526040902080610d3f8982612ec8565b5060018101610d4e8882612ec8565b506002810180546001600160a01b0319163317905542600682015560078101805461ffff1916600117905560005b8651811015610e8857816003016040518060800160405280898481518110610da657610da6612dd2565b6020026020010151600001516001600160a01b03168152602001898481518110610dd257610dd2612dd2565b60200260200101516020015163ffffffff168152602001898481518110610dfb57610dfb612dd2565b6020908102919091018101516040908101518352600092820183905284546001818101875595845292829020845160039094020180549285015163ffffffff16600160a01b026001600160c01b03199093166001600160a01b0390941693909317919091178255820151928101929092556060015160029091015580610e8081612e11565b915050610d7c565b503360009081526004602090815260408220805460018101825590835290822001839055600754610ec1906001600160a01b03166122fb565b60405163d1ec8bf760e01b81529091506001600160a01b0382169063d1ec8bf790610ef6908c908c9030908990600401612f88565b600060405180830381600087803b158015610f1057600080fd5b505af1158015610f24573d6000803e3d6000fd5b5050506000848152600660205260409081902080546001600160a01b0319166001600160a01b038516179055518491507fefc39ae190c4fcb8507ac154112186ad0d542b99480971fbcc98489b2d72a6b790610f83908c903390612fca565b60405180910390a2806001600160a01b0316837f14e7bc6e05e67805cce2ed86869c250a902d27e5a87690b4583ebc558dcda4ef8b8b604051610fc7929190612ff4565b60405180910390a35090979650505050505050565b606060036000838152602001908152602001600020600301805480602002602001604051908101604052809291908181526020016000905b8282101561107a576000848152602090819020604080516080810182526003860290920180546001600160a01b0381168452600160a01b900463ffffffff1683850152600180820154928401929092526002015460608301529083529092019101611014565b505050509050919050565b6000918252602082815260408084206001600160a01b0393909316845291905290205460ff1690565b6000805160206131b18339815191526110c68161213c565b6001600160a01b03821661111c5760405162461bcd60e51b815260206004820152601c60248201527f546f6b656e20616464726573732063616e6e6f74206265207a65726f0000000060448201526064016105d8565b6001600160a01b038216600081815260056020526040808220805460ff19169055513392917fef28645d2497b541620c69d4a940c5bf58d555dbe5a5acb0301a23772318dcce91a35050565b6000805160206131b18339815191526111808161213c565b6001600160a01b0382166111d65760405162461bcd60e51b815260206004820152601c60248201527f546f6b656e20616464726573732063616e6e6f74206265207a65726f0000000060448201526064016105d8565b6001600160a01b038216600081815260056020526040808220805460ff19166001179055513392917f686b708372a0c49a02d9696704324e7f498a20123c3f2917787d29e416253c1391a35050565b60008181526003602052604081206007810154610100900460ff166112825760405162461bcd60e51b8152602060048201526013602482015272119d5b99081b9bdd081a5cdcdd5959081e595d606a1b60448201526064016105d8565b60008160050154116112c95760405162461bcd60e51b815260206004820152601060248201526f139bc81d1bdad95b9cc81a5cdcdd595960821b60448201526064016105d8565b60006112d484612308565b60058301549091506112ee82670de0b6b3a7640000613022565b6112f89190613039565b949350505050565b6000805160206131b18339815191526113188161213c565b61132061242d565b6113286122d5565b60025460ff161561134b5760405162461bcd60e51b81526004016105d890612d8d565b6000838152600360205260409020600781015460ff16801561137757506007810154610100900460ff16155b6113b85760405162461bcd60e51b8152602060048201526012602482015271496e76616c69642066756e6420737461746560701b60448201526064016105d8565b600083116114085760405162461bcd60e51b815260206004820152601d60248201527f546f6b656e20737570706c79206d75737420626520706f73697469766500000060448201526064016105d8565b61141184612457565b6114555760405162461bcd60e51b8152602060048201526015602482015274496e73756666696369656e74206465706f7369747360581b60448201526064016105d8565b600061146085612308565b9050683635c9adc5dea000008110156114bb5760405162461bcd60e51b815260206004820152601860248201527f46756e642076616c75652062656c6f77206d696e696d756d000000000000000060448201526064016105d8565b6000858152600660205260409020546001600160a01b0316806115c4576007546114ed906001600160a01b03166122fb565b60405163d1ec8bf760e01b81529091506001600160a01b0382169063d1ec8bf790611525908690600182019030908c906004016130d8565b600060405180830381600087803b15801561153f57600080fd5b505af1158015611553573d6000803e3d6000fd5b5050506000878152600660205260409081902080546001600160a01b0319166001600160a01b038516908117909155905190915087907f14e7bc6e05e67805cce2ed86869c250a902d27e5a87690b4583ebc558dcda4ef906115bb90879060018201906130fd565b60405180910390a35b6040516340c10f1960e01b81523060048201526024810186905281906001600160a01b038216906340c10f1990604401600060405180830381600087803b15801561160e57600080fd5b505af1158015611622573d6000803e3d6000fd5b505050506004840180546001600160a01b0383166001600160a01b031990911681179091556005850187905560078501805461ff001916610100179055604080519182526020820188905288917f29e8dd856d962dce56c00e53057fe3cc2fc8a1e2fe2f8d7ba9bc50b1d81b43ad910160405180910390a2505050506106d160018055565b600081815260036020526040812060078101546060919060ff166116ff5760405162461bcd60e51b815260206004820152600f60248201526e46756e64206e6f742061637469766560881b60448201526064016105d8565b60005b60038201548110156118c857600082600301828154811061172557611725612dd2565b60009182526020822060025460039290920201805460405163c7f3660d60e01b8152600160a01b90910463ffffffff166004820152909350829161010090046001600160a01b03169063c7f3660d906024016040805180830381865afa158015611793573d6000803e3d6000fd5b505050506040513d601f19601f820116820180604052508101906117b79190613122565b915091508115806117c6575080155b156117f45760006040518060600160405280602881526020016131d160289139965096505050505050915091565b600254835460405163a903f2e760e01b8152600160a01b90910463ffffffff16600482015260009161010090046001600160a01b03169063a903f2e790602401608060405180830381865afa158015611851573d6000803e3d6000fd5b505050506040513d601f19601f820116820180604052508101906118759190613151565b90508360020154816040015110156118b15760006040518060600160405280602581526020016131f96025913997509750505050505050915091565b5050505080806118c090612e11565b915050611702565b506001604051806020016040528060008152509250925050915091565b60006118f08161213c565b50600091825260036020526040909120600701805460ff1916911515919091179055565b61191c61242d565b6119246122d5565b60025460ff16156119475760405162461bcd60e51b81526004016105d890612d8d565b600083815260036020526040902060028101546001600160a01b031633146119b15760405162461bcd60e51b815260206004820152601d60248201527f4f6e6c792066756e642063726561746f722063616e206465706f73697400000060448201526064016105d8565b600781015460ff1680156119cf57506007810154610100900460ff16155b611a105760405162461bcd60e51b8152602060048201526012602482015271496e76616c69642066756e6420737461746560701b60448201526064016105d8565b8151835114611a595760405162461bcd60e51b8152602060048201526015602482015274082e4e4c2f240d8cadccee8d040dad2e6dac2e8c6d605b1b60448201526064016105d8565b6000835111611aa15760405162461bcd60e51b8152602060048201526014602482015273139bc81d1bdad95b9cc81d1bc819195c1bdcda5d60621b60448201526064016105d8565b60005b8351811015611d3a576000838281518110611ac157611ac1612dd2565b602002602001015111611b105760405162461bcd60e51b8152602060048201526017602482015276416d6f756e74206d75737420626520706f73697469766560481b60448201526064016105d8565b6000805b6003840154811015611c5957858381518110611b3257611b32612dd2565b60200260200101516001600160a01b0316846003018281548110611b5857611b58612dd2565b60009182526020909120600390910201546001600160a01b031603611c4757611bc93330878681518110611b8e57611b8e612dd2565b6020026020010151898781518110611ba857611ba8612dd2565b60200260200101516001600160a01b03166124c7909392919063ffffffff16565b848381518110611bdb57611bdb612dd2565b6020026020010151846003018281548110611bf857611bf8612dd2565b906000526020600020906003020160020154611c149190612dfe565b846003018281548110611c2957611c29612dd2565b90600052602060002090600302016002018190555060019150611c59565b80611c5181612e11565b915050611b14565b5080611ca75760405162461bcd60e51b815260206004820152601c60248201527f546f6b656e206e6f7420696e2066756e6420636f6d706f6e656e74730000000060448201526064016105d8565b857fa5acfcde5118075b17c34a71ac1feff954a6696141900041d1da05095063ae65868481518110611cdb57611cdb612dd2565b6020026020010151868581518110611cf557611cf5612dd2565b6020026020010151604051611d1f9291906001600160a01b03929092168252602082015260400190565b60405180910390a25080611d3281612e11565b915050611aa4565b50506106d160018055565b6000611d5360025460ff1690565b905090565b6000805160206131b1833981519152611d708161213c565b611d7861242d565b611d806122d5565b60025460ff1615611da35760405162461bcd60e51b81526004016105d890612d8d565b60008481526003602052604090206007810154610100900460ff16611dfc5760405162461bcd60e51b815260206004820152600f60248201526e119d5b99081b9bdd081a5cdcdd5959608a1b60448201526064016105d8565b6001600160a01b038416611e465760405162461bcd60e51b8152602060048201526011602482015270125b9d985b1a59081c9958da5c1a595b9d607a1b60448201526064016105d8565b60008311611e905760405162461bcd60e51b8152602060048201526017602482015276416d6f756e74206d75737420626520706f73697469766560481b60448201526064016105d8565b6004810154611ea9906001600160a01b0316858561252e565b5061069860018055565b6060806000806000806000806000600360008b8152602001908152602001600020905060008160070160019054906101000a900460ff16611ef5576000611efe565b611efe8b611225565b600283015460008d815260066020526040902054600585015460078601548654949550869460018601946001600160a01b0390811694169291879160ff80831692610100900416908890611f5190612d53565b80601f0160208091040260200160405190810160405280929190818152602001828054611f7d90612d53565b8015611fca5780601f10611f9f57610100808354040283529160200191611fca565b820191906000526020600020905b815481529060010190602001808311611fad57829003601f168201915b50505050509750868054611fdd90612d53565b80601f016020809104026020016040519081016040528092919081815260200182805461200990612d53565b80156120565780601f1061202b57610100808354040283529160200191612056565b820191906000526020600020905b81548152906001019060200180831161203957829003601f168201915b50505050509650995099509950995099509950995099505050919395975091939597565b6000828152602081905260409020600101546120958161213c565b61069883836121db565b600460205281600052604060002081815481106120bb57600080fd5b90600052602060002001600091509150505481565b6001600160a01b03811660009081526004602090815260409182902080548351818402810184019094528084526060939283018282801561213057602002820191906000526020600020905b81548152602001906001019080831161211c575b50505050509050919050565b612146813361255f565b50565b60006121558383611085565b6121d3576000838152602081815260408083206001600160a01b03861684529091529020805460ff1916600117905561218b3390565b6001600160a01b0316826001600160a01b0316847f2f8788117e7eff1d82e926ec794901d17c78024a50270940304540a733656f0d60405160405180910390a450600161066d565b50600061066d565b60006121e78383611085565b156121d3576000838152602081815260408083206001600160a01b0386168085529252808320805460ff1916905551339286917ff6391f5c32d9c69d2a47ea670b442974b53935d1edc7fd64eb21e047a839171b9190a450600161066d565b61224e61259c565b6002805460ff191690557f5db9ee0a495bf2e6ff9c91a7834c1ba4fdd244a5e8aa4e537bd38aeae4b073aa335b6040516001600160a01b03909116815260200160405180910390a1565b6122a06122d5565b6002805460ff191660011790557f62e78cea01bee320cd4e420270b5ea74000d11b0c9f74754ebdbfc544b05a25861227b3390565b60025460ff16156122f95760405163d93c066560e01b815260040160405180910390fd5b565b600061066d8260006125bf565b600081815260036020526040812081805b600383015481101561242557600083600301828154811061233c5761233c612dd2565b90600052602060002090600302019050600081600201541115612412576002548154604051636d13331d60e11b8152600160a01b90910463ffffffff16600482015260009161010090046001600160a01b03169063da26663a90602401602060405180830381865afa1580156123b6573d6000803e3d6000fd5b505050506040513d601f19601f820116820180604052508101906123da9190613197565b90506000670de0b6b3a76400008284600201546123f79190613022565b6124019190613039565b905061240d8186612dfe565b945050505b508061241d81612e11565b915050612319565b509392505050565b60026001540361245057604051633ee5aeb560e01b815260040160405180910390fd5b6002600155565b6000818152600360205260408120815b60038201548110156124bd5781600301818154811061248857612488612dd2565b9060005260206000209060030201600201546000036124ab575060009392505050565b806124b581612e11565b915050612467565b5060019392505050565b6040516001600160a01b0384811660248301528381166044830152606482018390526106989186918216906323b872dd906084015b604051602081830303815290604052915060e01b6020820180516001600160e01b038381831617835250505050612655565b6040516001600160a01b038381166024830152604482018390526106d191859182169063a9059cbb906064016124fc565b6125698282611085565b6125985760405163e2517d3f60e01b81526001600160a01b0382166004820152602481018390526044016105d8565b5050565b60025460ff166122f957604051638dfc202b60e01b815260040160405180910390fd5b6000814710156125eb5760405163cf47918160e01b8152476004820152602481018390526044016105d8565b763d602d80600a3d3981f3363d3d373d3d3d363d730000008360601b60e81c176000526e5af43d82803e903d91602b57fd5bf38360781b176020526037600983f090506001600160a01b03811661066d5760405163b06ebf3d60e01b815260040160405180910390fd5b600080602060008451602086016000885af180612678576040513d6000823e3d81fd5b50506000513d9150811561269057806001141561269d565b6001600160a01b0384163b155b1561069857604051635274afe760e01b81526001600160a01b03851660048201526024016105d8565b80356001600160a01b03811681146126dd57600080fd5b919050565b6000602082840312156126f457600080fd5b6126fd826126c6565b9392505050565b60006020828403121561271657600080fd5b81356001600160e01b0319811681146126fd57600080fd5b60006020828403121561274057600080fd5b5035919050565b6000806040838503121561275a57600080fd5b8235915061276a602084016126c6565b90509250929050565b801515811461214657600080fd5b6000806040838503121561279457600080fd5b61279d836126c6565b915060208301356127ad81612773565b809150509250929050565b60005b838110156127d35781810151838201526020016127bb565b50506000910152565b600081518084526127f48160208601602086016127b8565b601f01601f19169290920160200192915050565b600061010080835261281c8184018c6127dc565b90508281036020840152612830818b6127dc565b6001600160a01b03998a16604085015297909816606083015250608081019490945260a0840192909252151560c0830152151560e0909101529392505050565b634e487b7160e01b600052604160045260246000fd5b6040516080810167ffffffffffffffff811182821017156128a9576128a9612870565b60405290565b604051601f8201601f1916810167ffffffffffffffff811182821017156128d8576128d8612870565b604052919050565b600082601f8301126128f157600080fd5b813567ffffffffffffffff81111561290b5761290b612870565b61291e601f8201601f19166020016128af565b81815284602083860101111561293357600080fd5b816020850160208301376000918101602001919091529392505050565b600067ffffffffffffffff82111561296a5761296a612870565b5060051b60200190565b6000806000606080858703121561298a57600080fd5b843567ffffffffffffffff808211156129a257600080fd5b6129ae888389016128e0565b95506020915081870135818111156129c557600080fd5b6129d189828a016128e0565b955050604080880135828111156129e757600080fd5b88019150601f820189136129fa57600080fd5b8135612a0d612a0882612950565b6128af565b81815260079190911b8301840190848101908b831115612a2c57600080fd5b938501935b82851015612a99576080858d031215612a4a5760008081fd5b612a52612886565b612a5b866126c6565b81528686013563ffffffff81168114612a745760008081fd5b8188015285850135858201528786013588820152825260809094019390850190612a31565b809750505050505050509250925092565b602080825282518282018190526000919060409081850190868401855b82811015612b1057815180516001600160a01b031685528681015163ffffffff168786015285810151868601526060908101519085015260809093019290850190600101612ac7565b5091979650505050505050565b60008060408385031215612b3057600080fd5b50508035926020909101359150565b82151581526040602082015260006112f860408301846127dc565b60008060408385031215612b6d57600080fd5b8235915060208301356127ad81612773565b600082601f830112612b9057600080fd5b81356020612ba0612a0883612950565b82815260059290921b84018101918181019086841115612bbf57600080fd5b8286015b84811015612bda5780358352918301918301612bc3565b509695505050505050565b600080600060608486031215612bfa57600080fd5b8335925060208085013567ffffffffffffffff80821115612c1a57600080fd5b818701915087601f830112612c2e57600080fd5b8135612c3c612a0882612950565b81815260059190911b8301840190848101908a831115612c5b57600080fd5b938501935b82851015612c8057612c71856126c6565b82529385019390850190612c60565b965050506040870135925080831115612c9857600080fd5b5050612ca686828701612b7f565b9150509250925092565b600080600060608486031215612cc557600080fd5b83359250612cd5602085016126c6565b9150604084013590509250925092565b60008060408385031215612cf857600080fd5b612d01836126c6565b946020939093013593505050565b6020808252825182820181905260009190848201906040850190845b81811015612d4757835183529284019291840191600101612d2b565b50909695505050505050565b600181811c90821680612d6757607f821691505b602082108103612d8757634e487b7160e01b600052602260045260246000fd5b50919050565b60208082526025908201527f496e646578546f6b656e466163746f72793a20436f6e74726163742069732070604082015264185d5cd95960da1b606082015260800190565b634e487b7160e01b600052603260045260246000fd5b634e487b7160e01b600052601160045260246000fd5b8082018082111561066d5761066d612de8565b600060018201612e2357612e23612de8565b5060010190565b60008551612e3c818460208a016127b8565b855190830190612e50818360208a016127b8565b60609590951b6bffffffffffffffffffffffff191694019384525050601482015260340192915050565b601f8211156106d157600081815260208120601f850160051c81016020861015612ea15750805b601f850160051c820191505b81811015612ec057828155600101612ead565b505050505050565b815167ffffffffffffffff811115612ee257612ee2612870565b612ef681612ef08454612d53565b84612e7a565b602080601f831160018114612f2b5760008415612f135750858301515b600019600386901b1c1916600185901b178555612ec0565b600085815260208120601f198616915b82811015612f5a57888601518255948401946001909101908401612f3b565b5085821015612f785787850151600019600388901b60f8161c191681555b5050505050600190811b01905550565b608081526000612f9b60808301876127dc565b8281036020840152612fad81876127dc565b6001600160a01b0395909516604084015250506060015292915050565b604081526000612fdd60408301856127dc565b905060018060a01b03831660208301529392505050565b60408152600061300760408301856127dc565b828103602084015261301981856127dc565b95945050505050565b808202811582820484141761066d5761066d612de8565b60008261305657634e487b7160e01b600052601260045260246000fd5b500490565b6000815461306881612d53565b808552602060018381168015613085576001811461309f576130cd565b60ff1985168884015283151560051b8801830195506130cd565b866000528260002060005b858110156130c55781548a82018601529083019084016130aa565b890184019650505b505050505092915050565b6080815260006130eb608083018761305b565b8281036020840152612fad818761305b565b604081526000613110604083018561305b565b8281036020840152613019818561305b565b6000806040838503121561313557600080fd5b825161314081612773565b60208401519092506127ad81612773565b60006080828403121561316357600080fd5b61316b612886565b825181526020830151602082015260408301516040820152606083015160608201528091505092915050565b6000602082840312156131a957600080fd5b505191905056fe5246556c0ab216b5b325ad7c539bfbd1a07c768773cdf810fecd3c3375c274074173736574206e6f7420737570706f72746564206f7220707269636520756e617661696c61626c65496e73756666696369656e74206c697175696469747920666f7220726564656d7074696f6ea2646970667358221220123b88226163e78ff05068b94df781e3ce2dc9436fac5c64f32f0bf83bb8a1e564736f6c63430008140033608060405234801561001057600080fd5b5061001961001e565b6100d0565b7ff0c57e16840df040f15088dc2f81fe391c3923bec73e23a9662efc9c229c6a00805468010000000000000000900460ff161561006e5760405163f92ee8a960e01b815260040160405180910390fd5b80546001600160401b03908116146100cd5780546001600160401b0319166001600160401b0390811782556040519081527fc7f505b2f371ae2175ee4913f4499e1f2633a7b5936321eed1cdaeb6115181d29060200160405180910390a15b50565b6116be806100df6000396000f3fe608060405234801561001057600080fd5b50600436106101375760003560e01c80638604d15b116100b8578063a9059cbb1161007c578063a9059cbb146102c7578063c45a0155146102da578063d1ec8bf7146102ed578063d766705a14610300578063dd62ed3e14610308578063f2fde38b1461031b57600080fd5b80638604d15b1461024a5780638da5cb5b1461025357806395d89b411461029757806399d50d5d1461029f5780639dc29fac146102b457600080fd5b8063313ce567116100ff578063313ce567146101cd57806340c10f19146101dc5780635556925c146101f157806370a082311461020c578063715018a61461024257600080fd5b806306fdde031461013c57806308a91f881461015a578063095ea7b31461017057806318160ddd1461019357806323b872dd146101ba575b600080fd5b61014461032e565b6040516101519190610f58565b60405180910390f35b6101626103f1565b604051908152602001610151565b61018361017e366004610f87565b6104a3565b6040519015158152602001610151565b7f52c63247e1f47db19d5ce0460030c497f067ca4cebf71ba98eeadabe20bace0254610162565b6101836101c8366004610fb3565b6104bd565b60405160128152602001610151565b6101ef6101ea366004610f87565b6104e1565b005b6101f9610546565b6040516101519796959493929190610ff4565b61016261021a366004611051565b6001600160a01b03166000908152600080516020611669833981519152602052604090205490565b6101ef6105e7565b61016260005481565b7f9016d09d72d40fdae2fd8ceac6b6234c7706214fd39c1cd1e609a0528c199300546001600160a01b03165b6040516001600160a01b039091168152602001610151565b6101446105fb565b6102a761063a565b604051610151919061106e565b6101ef6102c2366004610f87565b6106b5565b6101836102d5366004610f87565b610711565b60015461027f906001600160a01b031681565b6101ef6102fb3660046111cf565b61071f565b6101626108e4565b61016261031636600461124d565b61095b565b6101ef610329366004611051565b6109a5565b7f52c63247e1f47db19d5ce0460030c497f067ca4cebf71ba98eeadabe20bace0380546060916000805160206116698339815191529161036d90611286565b80601f016020809104026020016040519081016040528092919081815260200182805461039990611286565b80156103e65780601f106103bb576101008083540402835291602001916103e6565b820191906000526020600020905b8154815290600101906020018083116103c957829003601f168201915b505050505091505090565b600080306001600160a01b031663d766705a6040518163ffffffff1660e01b8152600401602060405180830381865afa158015610432573d6000803e3d6000fd5b505050506040513d601f19601f8201168201806040525081019061045691906112c0565b9050670de0b6b3a76400006104897f52c63247e1f47db19d5ce0460030c497f067ca4cebf71ba98eeadabe20bace025490565b61049390836112ef565b61049d9190611306565b91505090565b6000336104b18185856109e3565b60019150505b92915050565b6000336104cb8582856109f5565b6104d6858585610a5c565b506001949350505050565b6001546001600160a01b031633146105385760405162461bcd60e51b815260206004820152601560248201527413db9b1e48199858dd1bdc9e4818d85b8818d85b1b605a1b60448201526064015b60405180910390fd5b6105428282610abb565b5050565b60015460008054604051635ef923e160e11b815260609384939283928392839283926001600160a01b039092169163bdf247c29161058a9160040190815260200190565b600060405180830381865afa1580156105a7573d6000803e3d6000fd5b505050506040513d6000823e601f3d908101601f191682016040526105cf919081019061138a565b969e959d50939b509099509750909550919350915050565b6105ef610af1565b6105f96000610b4c565b565b7f52c63247e1f47db19d5ce0460030c497f067ca4cebf71ba98eeadabe20bace0480546060916000805160206116698339815191529161036d90611286565b6001546000546040516375bb1d1760e01b815260048101919091526060916001600160a01b0316906375bb1d1790602401600060405180830381865afa158015610688573d6000803e3d6000fd5b505050506040513d6000823e601f3d908101601f191682016040526106b0919081019061144a565b905090565b6001546001600160a01b031633146107075760405162461bcd60e51b815260206004820152601560248201527413db9b1e48199858dd1bdc9e4818d85b8818d85b1b605a1b604482015260640161052f565b6105428282610bbd565b6000336104b1818585610a5c565b6000610729610bf3565b805490915060ff600160401b820416159067ffffffffffffffff166000811580156107515750825b905060008267ffffffffffffffff16600114801561076e5750303b155b90508115801561077c575080155b1561079a5760405163f92ee8a960e01b815260040160405180910390fd5b845467ffffffffffffffff1916600117855583156107c457845460ff60401b1916600160401b1785555b6001600160a01b03871661081a5760405162461bcd60e51b815260206004820152601e60248201527f466163746f727920616464726573732063616e6e6f74206265207a65726f0000604482015260640161052f565b856108605760405162461bcd60e51b815260206004820152601660248201527546756e642049442063616e6e6f74206265207a65726f60501b604482015260640161052f565b61086a8989610c1c565b61087387610c2e565b6000869055600180546001600160a01b0319166001600160a01b03891617905583156108d957845460ff60401b19168555604051600181527fc7f505b2f371ae2175ee4913f4499e1f2633a7b5936321eed1cdaeb6115181d29060200160405180910390a15b505050505050505050565b60015460008054604051634ff975ab60e11b815291926001600160a01b031691639ff2eb569161091a9160040190815260200190565b602060405180830381865afa158015610937573d6000803e3d6000fd5b505050506040513d601f19601f820116820180604052508101906106b091906112c0565b6001600160a01b0391821660009081527f52c63247e1f47db19d5ce0460030c497f067ca4cebf71ba98eeadabe20bace016020908152604080832093909416825291909152205490565b6109ad610af1565b6001600160a01b0381166109d757604051631e4fbdf760e01b81526000600482015260240161052f565b6109e081610b4c565b50565b6109f08383836001610c3f565b505050565b6000610a01848461095b565b9050600019811015610a565781811015610a4757604051637dc7a0d960e11b81526001600160a01b0384166004820152602481018290526044810183905260640161052f565b610a5684848484036000610c3f565b50505050565b6001600160a01b038316610a8657604051634b637e8f60e11b81526000600482015260240161052f565b6001600160a01b038216610ab05760405163ec442f0560e01b81526000600482015260240161052f565b6109f0838383610d27565b6001600160a01b038216610ae55760405163ec442f0560e01b81526000600482015260240161052f565b61054260008383610d27565b33610b237f9016d09d72d40fdae2fd8ceac6b6234c7706214fd39c1cd1e609a0528c199300546001600160a01b031690565b6001600160a01b0316146105f95760405163118cdaa760e01b815233600482015260240161052f565b7f9016d09d72d40fdae2fd8ceac6b6234c7706214fd39c1cd1e609a0528c19930080546001600160a01b031981166001600160a01b03848116918217845560405192169182907f8be0079c531659141344cd1fd0a4f28419497f9722a3daafe3b4186f6b6457e090600090a3505050565b6001600160a01b038216610be757604051634b637e8f60e11b81526000600482015260240161052f565b61054282600083610d27565b6000807ff0c57e16840df040f15088dc2f81fe391c3923bec73e23a9662efc9c229c6a006104b7565b610c24610d32565b6105428282610d57565b610c36610d32565b6109e081610da8565b6000805160206116698339815191526001600160a01b038516610c785760405163e602df0560e01b81526000600482015260240161052f565b6001600160a01b038416610ca257604051634a1406b160e11b81526000600482015260240161052f565b6001600160a01b03808616600090815260018301602090815260408083209388168352929052208390558115610d2057836001600160a01b0316856001600160a01b03167f8c5be1e5ebec7d5bd14f71427d1e84f3dd0314c0f7b2291e5b200ac8c7c3b92585604051610d1791815260200190565b60405180910390a35b5050505050565b6109f0838383610db0565b610d3a610eee565b6105f957604051631afcd79f60e31b815260040160405180910390fd5b610d5f610d32565b6000805160206116698339815191527f52c63247e1f47db19d5ce0460030c497f067ca4cebf71ba98eeadabe20bace03610d998482611595565b5060048101610a568382611595565b6109ad610d32565b6000805160206116698339815191526001600160a01b038416610dec5781816002016000828254610de19190611655565b90915550610e5e9050565b6001600160a01b03841660009081526020829052604090205482811015610e3f5760405163391434e360e21b81526001600160a01b0386166004820152602481018290526044810184905260640161052f565b6001600160a01b03851660009081526020839052604090209083900390555b6001600160a01b038316610e7c576002810180548390039055610e9b565b6001600160a01b03831660009081526020829052604090208054830190555b826001600160a01b0316846001600160a01b03167fddf252ad1be2c89b69c2b068fc378daa952ba7f163c4a11628f55a4df523b3ef84604051610ee091815260200190565b60405180910390a350505050565b6000610ef8610bf3565b54600160401b900460ff16919050565b60005b83811015610f23578181015183820152602001610f0b565b50506000910152565b60008151808452610f44816020860160208601610f08565b601f01601f19169290920160200192915050565b602081526000610f6b6020830184610f2c565b9392505050565b6001600160a01b03811681146109e057600080fd5b60008060408385031215610f9a57600080fd5b8235610fa581610f72565b946020939093013593505050565b600080600060608486031215610fc857600080fd5b8335610fd381610f72565b92506020840135610fe381610f72565b929592945050506040919091013590565b60e08152600061100760e083018a610f2c565b8281036020840152611019818a610f2c565b6001600160a01b03989098166040840152505060608101949094526080840192909252151560a0830152151560c09091015292915050565b60006020828403121561106357600080fd5b8135610f6b81610f72565b602080825282518282018190526000919060409081850190868401855b828110156110d457815180516001600160a01b031685528681015163ffffffff16878601528581015186860152606090810151908501526080909301929085019060010161108b565b5091979650505050505050565b634e487b7160e01b600052604160045260246000fd5b6040516080810167ffffffffffffffff8111828210171561111a5761111a6110e1565b60405290565b604051601f8201601f1916810167ffffffffffffffff81118282101715611149576111496110e1565b604052919050565b600067ffffffffffffffff82111561116b5761116b6110e1565b50601f01601f191660200190565b600082601f83011261118a57600080fd5b813561119d61119882611151565b611120565b8181528460208386010111156111b257600080fd5b816020850160208301376000918101602001919091529392505050565b600080600080608085870312156111e557600080fd5b843567ffffffffffffffff808211156111fd57600080fd5b61120988838901611179565b9550602087013591508082111561121f57600080fd5b5061122c87828801611179565b935050604085013561123d81610f72565b9396929550929360600135925050565b6000806040838503121561126057600080fd5b823561126b81610f72565b9150602083013561127b81610f72565b809150509250929050565b600181811c9082168061129a57607f821691505b6020821081036112ba57634e487b7160e01b600052602260045260246000fd5b50919050565b6000602082840312156112d257600080fd5b5051919050565b634e487b7160e01b600052601160045260246000fd5b80820281158282048414176104b7576104b76112d9565b60008261132357634e487b7160e01b600052601260045260246000fd5b500490565b600082601f83011261133957600080fd5b815161134761119882611151565b81815284602083860101111561135c57600080fd5b61136d826020830160208701610f08565b949350505050565b8051801515811461138557600080fd5b919050565b600080600080600080600080610100898b0312156113a757600080fd5b885167ffffffffffffffff808211156113bf57600080fd5b6113cb8c838d01611328565b995060208b01519150808211156113e157600080fd5b506113ee8b828c01611328565b97505060408901516113ff81610f72565b60608a015190965061141081610f72565b60808a015160a08b01519196509450925061142d60c08a01611375565b915061143b60e08a01611375565b90509295985092959890939650565b6000602080838503121561145d57600080fd5b825167ffffffffffffffff8082111561147557600080fd5b818501915085601f83011261148957600080fd5b81518181111561149b5761149b6110e1565b6114a9848260051b01611120565b818152848101925060079190911b8301840190878211156114c957600080fd5b928401925b8184101561153c57608084890312156114e75760008081fd5b6114ef6110f7565b84516114fa81610f72565b81528486015163ffffffff811681146115135760008081fd5b8187015260408581015190820152606080860151908201528352608090930192918401916114ce565b979650505050505050565b601f8211156109f057600081815260208120601f850160051c8101602086101561156e5750805b601f850160051c820191505b8181101561158d5782815560010161157a565b505050505050565b815167ffffffffffffffff8111156115af576115af6110e1565b6115c3816115bd8454611286565b84611547565b602080601f8311600181146115f857600084156115e05750858301515b600019600386901b1c1916600185901b17855561158d565b600085815260208120601f198616915b8281101561162757888601518255948401946001909101908401611608565b50858210156116455787850151600019600388901b60f8161c191681555b5050505050600190811b01905550565b808201808211156104b7576104b76112d956fe52c63247e1f47db19d5ce0460030c497f067ca4cebf71ba98eeadabe20bace00a2646970667358221220639e529da18941ea9fdf9cb4347840e0ce2308590ed8306c2c48b43a2b5b88dd64736f6c63430008140033",
  "linkReferences": {},
  "deployedLinkReferences": {}
}