{
  "_format": "hh-sol-artifact-1",
  "contractName": "TestSimple",
  "sourceName": "contracts/TestSimple.sol",
  "abi": [
    {
      "anonymous": false,
      "inputs": [
        {
          "indexed": false,
          "internalType": "uint256",
          "name": "newValue",
          "type": "uint256"
        }
      ],
      "name": "ValueSet",
      "type": "event"
    },
    {
      "inputs": [],
      "name": "getValue",
      "outputs": [
        {
          "internalType": "uint256",
          "name": "",
          "type": "uint256"
        }
      ],
      "stateMutability": "view",
      "type": "function"
    },
    {
      "inputs": [],
      "name": "name",
      "outputs": [
        {
          "internalType": "string",
          "name": "",
          "type": "string"
        }
      ],
      "stateMutability": "view",
      "type": "function"
    },
    {
      "inputs": [
        {
          "internalType": "uint256",
          "name": "_value",
          "type": "uint256"
        }
      ],
      "name": "setValue",
      "outputs": [],
      "stateMutability": "nonpayable",
      "type": "function"
    },
    {
      "inputs": [],
      "name": "value",
      "outputs": [
        {
          "internalType": "uint256",
          "name": "",
          "type": "uint256"
        }
      ],
      "stateMutability": "view",
      "type": "function"
    }
  ],
  "bytecode": "0x60806040523461002257610011610161565b6040516103ac61016c82396103ac90f35b600080fd5b634e487b7160e01b600052602260045260246000fd5b906001600283049216801561005d575b602083101461005857565b610027565b91607f169161004d565b6100746100746100749290565b90565b91906100886100746100a093610067565b90835460001960089290920291821b191691901b1790565b9055565b6100b091600091610077565b565b8181106100bd575050565b806100cb60006001936100a4565b016100b2565b9190601f81116100e057505050565b6100f26100b093600052602060002090565b906020601f840181900483019310610114575b6020601f9091010401906100b2565b9091508190610105565b610133600a61012d835461003d565b836100d1565b7f5465737453696d706c65000000000000000000000000000000000000000000149055565b6100b09061011e565b6100b0600061015856fe6080604052600436101561001257600080fd5b60003560e01c806306fdde0314610052578063209652551461004d5780633fa4f2451461004857635524107703610057576102df565b6102b4565b610266565b61023b565b600080fd5b600091031261005757565b634e487b7160e01b600052600060045260246000fd5b634e487b7160e01b600052602260045260246000fd5b90600160028304921680156100b3575b60208310146100ae57565b61007d565b91607f16916100a3565b805460009392916100da6100d083610093565b8085529360200190565b916001811690811561012c57506001146100f357505050565b6101069192939450600052602060002090565b916000925b8184106101185750500190565b80548484015260209093019260010161010b565b92949550505060ff1916825215156020020190565b9061014b916100bd565b90565b634e487b7160e01b600052604160045260246000fd5b90601f01601f1916810190811067ffffffffffffffff82111761018657604052565b61014e565b906101ac6101a59261019c60405190565b93848092610141565b0383610164565b565b906000106101bf5761014b9061018b565b610067565b61014b6000806101ae565b60005b8381106101e25750506000910152565b81810151838201526020016101d2565b61021361021c60209361022693610207815190565b80835293849260200190565b958691016101cf565b601f01601f191690565b0190565b602080825261014b929101906101f2565b346100575761024b36600461005c565b6102626102566101c4565b6040519182918261022a565b0390f35b346100575761027636600461005c565b61026261028161036c565b6040515b9182918290815260200190565b61014b916008021c81565b9061014b9154610292565b61014b6000600161029d565b34610057576102c436600461005c565b6102626102816102a8565b9060208282031261005757503590565b34610057576102f76102f23660046102cf565b61031d565b604051005b61014b61014b61014b9290565b9061014b61014b610319926102fc565b9055565b610328816001610309565b6103567f012c78e2b84325878b1bd9d250d772cfe5bda7722d795f45036fa5e1e6e303fc9161028560405190565b0390a1565b61014b9081565b61014b905461035b565b61014b600161036256fea26469706673582212200e5bcb1b0468c1ee0efda8c8ec28e25d19ece42018dc1ad53d92383185b962c264736f6c63430008140033",
  "linkReferences": {},
  "deployedLinkReferences": {}
}