{
  "_format": "hh-sol-artifact-1",
  "contractName": "CrossChainVaultManager",
  "sourceName": "contracts/CrossChainVaultManager.sol",
  "abi": [
    {
      "inputs": [
        {
          "internalType": "address",
          "name": "_lzMessaging",
          "type": "address"
        }
      ],
      "stateMutability": "nonpayable",
      "type": "constructor"
    },
    {
      "inputs": [],
      "name": "AccessControlBadConfirmation",
      "type": "error"
    },
    {
      "inputs": [
        {
          "internalType": "address",
          "name": "account",
          "type": "address"
        },
        {
          "internalType": "bytes32",
          "name": "neededRole",
          "type": "bytes32"
        }
      ],
      "name": "AccessControlUnauthorizedAccount",
      "type": "error"
    },
    {
      "inputs": [],
      "name": "EnforcedPause",
      "type": "error"
    },
    {
      "inputs": [],
      "name": "ExpectedPause",
      "type": "error"
    },
    {
      "inputs": [],
      "name": "ReentrancyGuardReentrantCall",
      "type": "error"
    },
    {
      "anonymous": false,
      "inputs": [
        {
          "indexed": true,
          "internalType": "bytes32",
          "name": "fundId",
          "type": "bytes32"
        },
        {
          "indexed": false,
          "internalType": "uint256",
          "name": "rebalanceThreshold",
          "type": "uint256"
        },
        {
          "indexed": false,
          "internalType": "bool",
          "name": "autoRebalance",
          "type": "bool"
        }
      ],
      "name": "ClusterConfigUpdated",
      "type": "event"
    },
    {
      "anonymous": false,
      "inputs": [
        {
          "indexed": true,
          "internalType": "uint256",
          "name": "operationId",
          "type": "uint256"
        },
        {
          "indexed": true,
          "internalType": "bytes32",
          "name": "fundId",
          "type": "bytes32"
        },
        {
          "indexed": false,
          "internalType": "uint256",
          "name": "finalAmount",
          "type": "uint256"
        },
        {
          "indexed": true,
          "internalType": "address",
          "name": "user",
          "type": "address"
        }
      ],
      "name": "CrossChainOperationCompleted",
      "type": "event"
    },
    {
      "anonymous": false,
      "inputs": [
        {
          "indexed": true,
          "internalType": "uint256",
          "name": "operationId",
          "type": "uint256"
        },
        {
          "indexed": true,
          "internalType": "bytes32",
          "name": "fundId",
          "type": "bytes32"
        },
        {
          "indexed": false,
          "internalType": "enum CrossChainVaultManager.OperationType",
          "name": "opType",
          "type": "uint8"
        },
        {
          "indexed": false,
          "internalType": "uint256",
          "name": "sourceChain",
          "type": "uint256"
        },
        {
          "indexed": false,
          "internalType": "uint256",
          "name": "targetChain",
          "type": "uint256"
        },
        {
          "indexed": false,
          "internalType": "uint256",
          "name": "amount",
          "type": "uint256"
        },
        {
          "indexed": true,
          "internalType": "address",
          "name": "user",
          "type": "address"
        }
      ],
      "name": "CrossChainOperationInitiated",
      "type": "event"
    },
    {
      "anonymous": false,
      "inputs": [
        {
          "indexed": false,
          "internalType": "address",
          "name": "account",
          "type": "address"
        }
      ],
      "name": "Paused",
      "type": "event"
    },
    {
      "anonymous": false,
      "inputs": [
        {
          "indexed": true,
          "internalType": "bytes32",
          "name": "role",
          "type": "bytes32"
        },
        {
          "indexed": true,
          "internalType": "bytes32",
          "name": "previousAdminRole",
          "type": "bytes32"
        },
        {
          "indexed": true,
          "internalType": "bytes32",
          "name": "newAdminRole",
          "type": "bytes32"
        }
      ],
      "name": "RoleAdminChanged",
      "type": "event"
    },
    {
      "anonymous": false,
      "inputs": [
        {
          "indexed": true,
          "internalType": "bytes32",
          "name": "role",
          "type": "bytes32"
        },
        {
          "indexed": true,
          "internalType": "address",
          "name": "account",
          "type": "address"
        },
        {
          "indexed": true,
          "internalType": "address",
          "name": "sender",
          "type": "address"
        }
      ],
      "name": "RoleGranted",
      "type": "event"
    },
    {
      "anonymous": false,
      "inputs": [
        {
          "indexed": true,
          "internalType": "bytes32",
          "name": "role",
          "type": "bytes32"
        },
        {
          "indexed": true,
          "internalType": "address",
          "name": "account",
          "type": "address"
        },
        {
          "indexed": true,
          "internalType": "address",
          "name": "sender",
          "type": "address"
        }
      ],
      "name": "RoleRevoked",
      "type": "event"
    },
    {
      "anonymous": false,
      "inputs": [
        {
          "indexed": false,
          "internalType": "address",
          "name": "account",
          "type": "address"
        }
      ],
      "name": "Unpaused",
      "type": "event"
    },
    {
      "anonymous": false,
      "inputs": [
        {
          "indexed": true,
          "internalType": "bytes32",
          "name": "fundId",
          "type": "bytes32"
        },
        {
          "indexed": false,
          "internalType": "string",
          "name": "name",
          "type": "string"
        },
        {
          "indexed": true,
          "internalType": "address",
          "name": "primaryVault",
          "type": "address"
        },
        {
          "indexed": false,
          "internalType": "uint256",
          "name": "primaryChainId",
          "type": "uint256"
        }
      ],
      "name": "VaultClusterCreated",
      "type": "event"
    },
    {
      "anonymous": false,
      "inputs": [
        {
          "indexed": true,
          "internalType": "bytes32",
          "name": "fundId",
          "type": "bytes32"
        },
        {
          "indexed": false,
          "internalType": "uint256",
          "name": "fromChain",
          "type": "uint256"
        },
        {
          "indexed": false,
          "internalType": "uint256",
          "name": "toChain",
          "type": "uint256"
        },
        {
          "indexed": false,
          "internalType": "uint256",
          "name": "amount",
          "type": "uint256"
        }
      ],
      "name": "VaultRebalanced",
      "type": "event"
    },
    {
      "inputs": [],
      "name": "CROSS_CHAIN_EXECUTOR_ROLE",
      "outputs": [
        {
          "internalType": "bytes32",
          "name": "",
          "type": "bytes32"
        }
      ],
      "stateMutability": "view",
      "type": "function"
    },
    {
      "inputs": [],
      "name": "DEFAULT_ADMIN_ROLE",
      "outputs": [
        {
          "internalType": "bytes32",
          "name": "",
          "type": "bytes32"
        }
      ],
      "stateMutability": "view",
      "type": "function"
    },
    {
      "inputs": [],
      "name": "EMERGENCY_ROLE",
      "outputs": [
        {
          "internalType": "bytes32",
          "name": "",
          "type": "bytes32"
        }
      ],
      "stateMutability": "view",
      "type": "function"
    },
    {
      "inputs": [],
      "name": "VAULT_MANAGER_ROLE",
      "outputs": [
        {
          "internalType": "bytes32",
          "name": "",
          "type": "bytes32"
        }
      ],
      "stateMutability": "view",
      "type": "function"
    },
    {
      "inputs": [
        {
          "internalType": "bytes32",
          "name": "fundId",
          "type": "bytes32"
        },
        {
          "internalType": "uint256",
          "name": "chainId",
          "type": "uint256"
        },
        {
          "internalType": "address",
          "name": "vaultAddress",
          "type": "address"
        },
        {
          "internalType": "uint256",
          "name": "targetAllocation",
          "type": "uint256"
        }
      ],
      "name": "addVaultToCluster",
      "outputs": [],
      "stateMutability": "nonpayable",
      "type": "function"
    },
    {
      "inputs": [
        {
          "internalType": "address",
          "name": "",
          "type": "address"
        }
      ],
      "name": "authorizedVaults",
      "outputs": [
        {
          "internalType": "bool",
          "name": "",
          "type": "bool"
        }
      ],
      "stateMutability": "view",
      "type": "function"
    },
    {
      "inputs": [
        {
          "internalType": "bytes32",
          "name": "fundId",
          "type": "bytes32"
        }
      ],
      "name": "checkRebalanceNeeded",
      "outputs": [
        {
          "internalType": "bool",
          "name": "needed",
          "type": "bool"
        },
        {
          "internalType": "uint256",
          "name": "fromChain",
          "type": "uint256"
        },
        {
          "internalType": "uint256",
          "name": "toChain",
          "type": "uint256"
        },
        {
          "internalType": "uint256",
          "name": "amount",
          "type": "uint256"
        }
      ],
      "stateMutability": "view",
      "type": "function"
    },
    {
      "inputs": [
        {
          "internalType": "bytes32",
          "name": "fundId",
          "type": "bytes32"
        },
        {
          "internalType": "string",
          "name": "name",
          "type": "string"
        },
        {
          "internalType": "address",
          "name": "primaryVault",
          "type": "address"
        },
        {
          "internalType": "uint256",
          "name": "primaryChainId",
          "type": "uint256"
        },
        {
          "components": [
            {
              "internalType": "uint256",
              "name": "rebalanceThreshold",
              "type": "uint256"
            },
            {
              "internalType": "uint256",
              "name": "minOperationAmount",
              "type": "uint256"
            },
            {
              "internalType": "uint256",
              "name": "maxSlippage",
              "type": "uint256"
            },
            {
              "internalType": "bool",
              "name": "autoRebalance",
              "type": "bool"
            }
          ],
          "internalType": "struct CrossChainVaultManager.ClusterConfig",
          "name": "config",
          "type": "tuple"
        }
      ],
      "name": "createVaultCluster",
      "outputs": [],
      "stateMutability": "nonpayable",
      "type": "function"
    },
    {
      "inputs": [],
      "name": "emergencyPause",
      "outputs": [],
      "stateMutability": "nonpayable",
      "type": "function"
    },
    {
      "inputs": [],
      "name": "emergencyUnpause",
      "outputs": [],
      "stateMutability": "nonpayable",
      "type": "function"
    },
    {
      "inputs": [
        {
          "internalType": "bytes32",
          "name": "fundId",
          "type": "bytes32"
        }
      ],
      "name": "executeAutoRebalance",
      "outputs": [],
      "stateMutability": "nonpayable",
      "type": "function"
    },
    {
      "inputs": [
        {
          "internalType": "bytes32",
          "name": "fundId",
          "type": "bytes32"
        },
        {
          "internalType": "uint256",
          "name": "targetChainId",
          "type": "uint256"
        },
        {
          "internalType": "uint256",
          "name": "amount",
          "type": "uint256"
        },
        {
          "internalType": "address",
          "name": "user",
          "type": "address"
        }
      ],
      "name": "executeCrossChainDeposit",
      "outputs": [
        {
          "internalType": "uint256",
          "name": "operationId",
          "type": "uint256"
        }
      ],
      "stateMutability": "nonpayable",
      "type": "function"
    },
    {
      "inputs": [
        {
          "internalType": "bytes32",
          "name": "fundId",
          "type": "bytes32"
        },
        {
          "internalType": "uint256",
          "name": "sourceChainId",
          "type": "uint256"
        },
        {
          "internalType": "uint256",
          "name": "amount",
          "type": "uint256"
        },
        {
          "internalType": "address",
          "name": "user",
          "type": "address"
        }
      ],
      "name": "executeCrossChainWithdrawal",
      "outputs": [
        {
          "internalType": "uint256",
          "name": "operationId",
          "type": "uint256"
        }
      ],
      "stateMutability": "nonpayable",
      "type": "function"
    },
    {
      "inputs": [
        {
          "internalType": "uint256",
          "name": "operationId",
          "type": "uint256"
        }
      ],
      "name": "getCrossChainOperation",
      "outputs": [
        {
          "components": [
            {
              "internalType": "uint256",
              "name": "id",
              "type": "uint256"
            },
            {
              "internalType": "enum CrossChainVaultManager.OperationType",
              "name": "opType",
              "type": "uint8"
            },
            {
              "internalType": "bytes32",
              "name": "fundId",
              "type": "bytes32"
            },
            {
              "internalType": "uint256",
              "name": "sourceChain",
              "type": "uint256"
            },
            {
              "internalType": "uint256",
              "name": "targetChain",
              "type": "uint256"
            },
            {
              "internalType": "address",
              "name": "sourceVault",
              "type": "address"
            },
            {
              "internalType": "address",
              "name": "targetVault",
              "type": "address"
            },
            {
              "internalType": "uint256",
              "name": "amount",
              "type": "uint256"
            },
            {
              "internalType": "address",
              "name": "user",
              "type": "address"
            },
            {
              "internalType": "enum CrossChainVaultManager.OperationStatus",
              "name": "status",
              "type": "uint8"
            },
            {
              "internalType": "uint256",
              "name": "timestamp",
              "type": "uint256"
            },
            {
              "internalType": "uint256",
              "name": "deadline",
              "type": "uint256"
            },
            {
              "internalType": "bytes32",
              "name": "lzTxHash",
              "type": "bytes32"
            }
          ],
          "internalType": "struct CrossChainVaultManager.CrossChainOperation",
          "name": "operation",
          "type": "tuple"
        }
      ],
      "stateMutability": "view",
      "type": "function"
    },
    {
      "inputs": [
        {
          "internalType": "bytes32",
          "name": "role",
          "type": "bytes32"
        }
      ],
      "name": "getRoleAdmin",
      "outputs": [
        {
          "internalType": "bytes32",
          "name": "",
          "type": "bytes32"
        }
      ],
      "stateMutability": "view",
      "type": "function"
    },
    {
      "inputs": [
        {
          "internalType": "bytes32",
          "name": "fundId",
          "type": "bytes32"
        }
      ],
      "name": "getVaultCluster",
      "outputs": [
        {
          "components": [
            {
              "internalType": "bytes32",
              "name": "fundId",
              "type": "bytes32"
            },
            {
              "internalType": "string",
              "name": "name",
              "type": "string"
            },
            {
              "internalType": "address",
              "name": "primaryVault",
              "type": "address"
            },
            {
              "internalType": "uint256",
              "name": "primaryChainId",
              "type": "uint256"
            },
            {
              "components": [
                {
                  "internalType": "uint256",
                  "name": "chainId",
                  "type": "uint256"
                },
                {
                  "internalType": "address",
                  "name": "vaultAddress",
                  "type": "address"
                },
                {
                  "internalType": "uint256",
                  "name": "targetAllocation",
                  "type": "uint256"
                },
                {
                  "internalType": "uint256",
                  "name": "currentBalance",
                  "type": "uint256"
                },
                {
                  "internalType": "bool",
                  "name": "isActive",
                  "type": "bool"
                }
              ],
              "internalType": "struct CrossChainVaultManager.ChainVault[]",
              "name": "chainVaults",
              "type": "tuple[]"
            },
            {
              "components": [
                {
                  "internalType": "uint256",
                  "name": "rebalanceThreshold",
                  "type": "uint256"
                },
                {
                  "internalType": "uint256",
                  "name": "minOperationAmount",
                  "type": "uint256"
                },
                {
                  "internalType": "uint256",
                  "name": "maxSlippage",
                  "type": "uint256"
                },
                {
                  "internalType": "bool",
                  "name": "autoRebalance",
                  "type": "bool"
                }
              ],
              "internalType": "struct CrossChainVaultManager.ClusterConfig",
              "name": "config",
              "type": "tuple"
            },
            {
              "internalType": "uint256",
              "name": "createdAt",
              "type": "uint256"
            },
            {
              "internalType": "bool",
              "name": "isActive",
              "type": "bool"
            }
          ],
          "internalType": "struct CrossChainVaultManager.VaultCluster",
          "name": "cluster",
          "type": "tuple"
        }
      ],
      "stateMutability": "view",
      "type": "function"
    },
    {
      "inputs": [
        {
          "internalType": "bytes32",
          "name": "role",
          "type": "bytes32"
        },
        {
          "internalType": "address",
          "name": "account",
          "type": "address"
        }
      ],
      "name": "grantRole",
      "outputs": [],
      "stateMutability": "nonpayable",
      "type": "function"
    },
    {
      "inputs": [
        {
          "internalType": "bytes32",
          "name": "role",
          "type": "bytes32"
        },
        {
          "internalType": "address",
          "name": "account",
          "type": "address"
        }
      ],
      "name": "hasRole",
      "outputs": [
        {
          "internalType": "bool",
          "name": "",
          "type": "bool"
        }
      ],
      "stateMutability": "view",
      "type": "function"
    },
    {
      "inputs": [],
      "name": "lzMessaging",
      "outputs": [
        {
          "internalType": "contract LayerZeroMessaging",
          "name": "",
          "type": "address"
        }
      ],
      "stateMutability": "view",
      "type": "function"
    },
    {
      "inputs": [],
      "name": "operationTimeout",
      "outputs": [
        {
          "internalType": "uint256",
          "name": "",
          "type": "uint256"
        }
      ],
      "stateMutability": "view",
      "type": "function"
    },
    {
      "inputs": [],
      "name": "paused",
      "outputs": [
        {
          "internalType": "bool",
          "name": "",
          "type": "bool"
        }
      ],
      "stateMutability": "view",
      "type": "function"
    },
    {
      "inputs": [
        {
          "internalType": "uint256",
          "name": "",
          "type": "uint256"
        }
      ],
      "name": "pendingOperations",
      "outputs": [
        {
          "internalType": "uint256",
          "name": "id",
          "type": "uint256"
        },
        {
          "internalType": "enum CrossChainVaultManager.OperationType",
          "name": "opType",
          "type": "uint8"
        },
        {
          "internalType": "bytes32",
          "name": "fundId",
          "type": "bytes32"
        },
        {
          "internalType": "uint256",
          "name": "sourceChain",
          "type": "uint256"
        },
        {
          "internalType": "uint256",
          "name": "targetChain",
          "type": "uint256"
        },
        {
          "internalType": "address",
          "name": "sourceVault",
          "type": "address"
        },
        {
          "internalType": "address",
          "name": "targetVault",
          "type": "address"
        },
        {
          "internalType": "uint256",
          "name": "amount",
          "type": "uint256"
        },
        {
          "internalType": "address",
          "name": "user",
          "type": "address"
        },
        {
          "internalType": "enum CrossChainVaultManager.OperationStatus",
          "name": "status",
          "type": "uint8"
        },
        {
          "internalType": "uint256",
          "name": "timestamp",
          "type": "uint256"
        },
        {
          "internalType": "uint256",
          "name": "deadline",
          "type": "uint256"
        },
        {
          "internalType": "bytes32",
          "name": "lzTxHash",
          "type": "bytes32"
        }
      ],
      "stateMutability": "view",
      "type": "function"
    },
    {
      "inputs": [
        {
          "internalType": "bytes32",
          "name": "role",
          "type": "bytes32"
        },
        {
          "internalType": "address",
          "name": "callerConfirmation",
          "type": "address"
        }
      ],
      "name": "renounceRole",
      "outputs": [],
      "stateMutability": "nonpayable",
      "type": "function"
    },
    {
      "inputs": [
        {
          "internalType": "bytes32",
          "name": "role",
          "type": "bytes32"
        },
        {
          "internalType": "address",
          "name": "account",
          "type": "address"
        }
      ],
      "name": "revokeRole",
      "outputs": [],
      "stateMutability": "nonpayable",
      "type": "function"
    },
    {
      "inputs": [
        {
          "internalType": "bytes4",
          "name": "interfaceId",
          "type": "bytes4"
        }
      ],
      "name": "supportsInterface",
      "outputs": [
        {
          "internalType": "bool",
          "name": "",
          "type": "bool"
        }
      ],
      "stateMutability": "view",
      "type": "function"
    },
    {
      "inputs": [
        {
          "internalType": "bytes32",
          "name": "fundId",
          "type": "bytes32"
        },
        {
          "components": [
            {
              "internalType": "uint256",
              "name": "rebalanceThreshold",
              "type": "uint256"
            },
            {
              "internalType": "uint256",
              "name": "minOperationAmount",
              "type": "uint256"
            },
            {
              "internalType": "uint256",
              "name": "maxSlippage",
              "type": "uint256"
            },
            {
              "internalType": "bool",
              "name": "autoRebalance",
              "type": "bool"
            }
          ],
          "internalType": "struct CrossChainVaultManager.ClusterConfig",
          "name": "config",
          "type": "tuple"
        }
      ],
      "name": "updateClusterConfig",
      "outputs": [],
      "stateMutability": "nonpayable",
      "type": "function"
    },
    {
      "inputs": [
        {
          "internalType": "bytes32",
          "name": "",
          "type": "bytes32"
        }
      ],
      "name": "vaultClusters",
      "outputs": [
        {
          "internalType": "bytes32",
          "name": "fundId",
          "type": "bytes32"
        },
        {
          "internalType": "string",
          "name": "name",
          "type": "string"
        },
        {
          "internalType": "address",
          "name": "primaryVault",
          "type": "address"
        },
        {
          "internalType": "uint256",
          "name": "primaryChainId",
          "type": "uint256"
        },
        {
          "components": [
            {
              "internalType": "uint256",
              "name": "rebalanceThreshold",
              "type": "uint256"
            },
            {
              "internalType": "uint256",
              "name": "minOperationAmount",
              "type": "uint256"
            },
            {
              "internalType": "uint256",
              "name": "maxSlippage",
              "type": "uint256"
            },
            {
              "internalType": "bool",
              "name": "autoRebalance",
              "type": "bool"
            }
          ],
          "internalType": "struct CrossChainVaultManager.ClusterConfig",
          "name": "config",
          "type": "tuple"
        },
        {
          "internalType": "uint256",
          "name": "createdAt",
          "type": "uint256"
        },
        {
          "internalType": "bool",
          "name": "isActive",
          "type": "bool"
        }
      ],
      "stateMutability": "view",
      "type": "function"
    },
    {
      "inputs": [
        {
          "internalType": "bytes32",
          "name": "",
          "type": "bytes32"
        },
        {
          "internalType": "uint256",
          "name": "",
          "type": "uint256"
        }
      ],
      "name": "vaultsByChain",
      "outputs": [
        {
          "internalType": "address",
          "name": "",
          "type": "address"
        }
      ],
      "stateMutability": "view",
      "type": "function"
    }
  ],
  "bytecode": "0x60a06040523462000040576200001e62000018620000e3565b620001f2565b6040516138ad6200041f8239608051818181610dbd01526133c701526138ad90f35b600080fd5b634e487b7160e01b600052604160045260246000fd5b90601f01601f191681019081106001600160401b038211176200007d57604052565b62000045565b906200009a6200009260405190565b92836200005b565b565b6001600160a01b031690565b90565b6001600160a01b038116036200004057565b905051906200009a82620000ab565b906020828203126200004057620000a891620000bd565b620000a862003ccc80380380620000fa8162000083565b928339810190620000cc565b90600019905b9181191691161790565b620000a8620000a8620000a89290565b906200013a620000a8620001429262000116565b825462000106565b9055565b6200009c620000a8620000a89290565b620000a89062000146565b156200016957565b60405162461bcd60e51b8152602060048201526024808201527f496e76616c6964204c617965725a65726f206d6573736167696e6720636f6e746044820152631c9858dd60e21b6064820152608490fd5b620000a8906200009c906001600160a01b031682565b620000a890620001ba565b620000a890620001d0565b620000a8600062000116565b620002486200024e9162000205620002ee565b620002136001600762000126565b62000222610e10600862000126565b62000248620002366200009c600062000156565b6001600160a01b038316141562000161565b620001db565b608052620002676200025f620001e6565b33906200035b565b50620002937fd1473398bb66596de5d1ea1fc8e303ff2ac23265adc9144b1b52065dc4f0934b6200025f565b50620002bf7fdd90407a47d22c3e225c3c755406747e13144e54d42edb9716b7bce38887beb16200025f565b50620002eb7fbf233dd2aafeb4d50879c4aa5c81e96d92f6e6945c906a58f9f2d1c1631b4b266200025f565b50565b6200009a62000304565b620000a8600162000116565b6200009a62000312620002f8565b600162000126565b905b600052602052604060002090565b906200031c90620001db565b9060ff906200010c565b9062000353620000a86200014292151590565b825462000336565b6200036f6200036b8383620003f6565b1590565b15620003ef576200039b6001620003958460006200038e86826200031a565b016200032a565b62000340565b620003ba620003b3620003ac339390565b93620001db565b91620001db565b917f2f8788117e7eff1d82e926ec794901d17c78024a50270940304540a733656f0d620003e660405190565b600090a4600190565b5050600090565b620000a89160006200038e62000417936200040f600090565b50826200031a565b5460ff169056fe6080604052600436101561001257600080fd5b60003560e01c806301ffc9a7146101d257806315872f36146101cd57806320df4359146101c8578063248a9ca3146101c35780632f2ff15d146101be57806336568abe146101b9578063393b8516146101b45780633a759b0f146101af578063403bd2c8146101aa5780634a4e3bd5146101a557806351858e27146101a05780635c975abb1461019b5780635e5a24a41461019657806365476ec8146101915780636d0acce31461018c5780636f424adf1461018757806387a12eb51461018257806388657a201461017d578063914452021461017857806391d14854146101735780639e971a761461016e578063a217fddf14610169578063a579053d14610164578063aa19a1cf1461015f578063b275c56c1461015a578063c2effa3b14610155578063d547741f146101505763dfc073cf036101d7576110d6565b6110a1565b611070565b611007565b610da4565b610d64565b610b8b565b610b5a565b610b3e565b610b22565b610ab0565b6108f1565b610860565b61081f565b6107c3565b610664565b610649565b610631565b610619565b6105fd565b61042d565b610412565b610376565b61035d565b6102f7565b6102b1565b610289565b610231565b600080fd5b7fffffffff0000000000000000000000000000000000000000000000000000000081165b036101d757565b90503590610214826101dc565b565b906020828203126101d75761022a91610207565b90565b9052565b346101d75761025e61024c610247366004610216565b6110ef565b60405191829182901515815260200190565b0390f35b80610200565b9050359061021482610262565b906020828203126101d75761022a91610268565b346101d7576102a161029c366004610275565b6113dd565b604051005b60009103126101d757565b346101d7576102c13660046102a6565b61025e7fbf233dd2aafeb4d50879c4aa5c81e96d92f6e6945c906a58f9f2d1c1631b4b265b6040515b9182918290815260200190565b346101d75761025e6102e661030d366004610275565b6113e6565b6001600160a01b031690565b6001600160a01b038116610200565b905035906102148261031e565b91906040838203126101d75761022a9060206103568286610268565b940161032d565b346101d7576102a161037036600461033a565b90611423565b346101d7576102a161038936600461033a565b9061142d565b906020828203126101d75761022a9161032d565b61031261022a61022a926001600160a01b031690565b61022a906103a3565b61022a906103b9565b906103d5906103c2565b600052602052604060002090565b61022a916008021c5b60ff1690565b9061022a91546103e3565b600061040d61022a9260066103cb565b6103f2565b346101d75761025e61024c61042836600461038f565b6103fd565b346101d75761043d3660046102a6565b61025e7fdd90407a47d22c3e225c3c755406747e13144e54d42edb9716b7bce38887beb16102e6565b634e487b7160e01b600052604160045260246000fd5b90601f01601f1916810190811067ffffffffffffffff82111761049e57604052565b610466565b906102146104b060405190565b928361047c565b67ffffffffffffffff811161049e57602090601f01601f19160190565b0190565b90826000939282370152565b909291926104f96104f4826104b7565b6104a3565b93818552818301116101d7576102149160208501906104d8565b9080601f830112156101d75781602061022a933591016104e4565b801515610200565b905035906102148261052e565b91906080838203126101d75761059690606061055f60806104a3565b9461056a8382610268565b86526105798360208301610268565b602087015261058b8360408301610268565b604087015201610536565b6060830152565b9190610100838203126101d7576105b48184610268565b92602081013567ffffffffffffffff81116101d757826105d5918301610513565b9261022a6105e6846040850161032d565b9360806105f68260608701610268565b9401610543565b346101d7576102a161061036600461059d565b93929092611b45565b346101d7576106293660046102a6565b6102a1611b86565b346101d7576106413660046102a6565b6102a1611bc2565b346101d7576106593660046102a6565b61025e61024c611bca565b346101d7576106743660046102a6565b61025e7fd1473398bb66596de5d1ea1fc8e303ff2ac23265adc9144b1b52065dc4f0934b6102e6565b634e487b7160e01b600052602160045260246000fd5b600511156106bd57565b61069d565b90610214826106b3565b61022a906106c2565b61022d906106cc565b8051825261021491906101809081906106ff602082015160208601906106d5565b61070e60408201516040860152565b61071d60608201516060860152565b61072c60808201516080860152565b60a0818101516001600160a01b03169085015260c0818101516001600160a01b03169085015261076160e082015160e0860152565b610100818101516001600160a01b0316908501526107896101208201516101208601906106d5565b61079a610140820151610140860152565b6107ab610160820151610160860152565b0151910152565b6101a08101929161021491906106de565b346101d75761025e6107de6107d9366004610275565b611d8b565b604051918291826107b2565b6080818303126101d7576107fe8282610268565b9261022a61080f8460208501610268565b9360606103568260408701610268565b346101d75761025e6102e66108353660046107ea565b92919091612172565b61022a916008021c81565b9061022a915461083e565b61022a60006008610849565b346101d7576108703660046102a6565b61025e6102e6610854565b91906040838203126101d75761022a9060206108978286610268565b9401610268565b906103d5565b61022a61022a61022a9290565b906103d5906108a4565b61022a916008021c610312565b9061022a91546108bb565b6108ec61022a926108e7600093600361089e565b6108b1565b6108c8565b346101d75761025e61090d61090736600461087b565b906108d3565b604051918291826001600160a01b03909116815260200190565b61022a9081565b61022a9054610927565b61022a906103ec565b61022a9054610938565b61022a90610312565b61022a905461094b565b61022a9060a01c6103ec565b61022a905461095e565b61097f9060056108b1565b6109888161092e565b9161099560018301610941565b916109a26002820161092e565b916109af6003830161092e565b916109bc6004820161092e565b916109c960058301610954565b916109d660068201610954565b916109e36007830161092e565b916109f060088201610954565b916109fd6008830161096a565b91610a0a6009820161092e565b9161022a600b610a1c600a850161092e565b930161092e565b9a98969492909d9c9b99979593916101a08c019e60008d01610a43919052565b60208c01610a50916106d5565b60408b015260608a015260808901526001600160a01b031660a08801526001600160a01b031660c087015260e08601526001600160a01b03166101008501526101208401610a9d916106d5565b6101408301526101608201526101800152565b346101d75761025e610acb610ac6366004610275565b610974565b99610ae49d9b9d99919998929897939796949660405190565b9d8e9d8e610a23565b6080818303126101d757610b018282610268565b9261022a610b128460208501610268565b936060610897826040870161032d565b346101d7576102a1610b35366004610aed565b929190916123d2565b346101d75761025e61024c610b5436600461033a565b906123de565b346101d75761025e6102e6610b703660046107ea565b9291909161268e565b61022a60006108a4565b61022a610b79565b346101d757610b9b3660046102a6565b61025e6102e6610b83565b60005b838110610bb95750506000910152565b8181015183820152602001610ba9565b610bea610bf36020936104d493610bde815190565b80835293849260200190565b95869101610ba6565b601f01601f191690565b805182526020808201516001600160a01b03169083015261021491906080908190610c2d60408201516040860152565b610c3c60608201516060860152565b01511515910152565b906104d48160a093610bfd565b90610c72610c6b610c61845190565b8084529260200190565b9260200190565b9060005b818110610c835750505090565b909192610c9d610c966001928651610c45565b9460200190565b929101610c76565b8051825261021491906060908190610cc260208201516020860152565b610c3c60408201516040860152565b805182529061022a9061014060e0610d30610cfc610160850160208801518682036020880152610bc9565b6040878101516001600160a01b031690860152610d1e60608801516060870152565b60808701518582036080870152610c52565b94610d4360a082015160a0860190610ca5565b610c3c60c0820151610120860152565b602080825261022a92910190610cd1565b346101d75761025e610d7f610d7a366004610275565b61289a565b60405191829182610d53565b61022d906103c2565b6020810192916102149190610d8b565b346101d757610db43660046102a6565b6040518061025e7f000000000000000000000000000000000000000000000000000000000000000082610d94565b634e487b7160e01b600052602260045260246000fd5b9060016002830492168015610e18575b6020831014610e1357565b610de2565b91607f1691610e08565b80546000939291610e3f610e3583610df8565b8085529360200190565b9160018116908115610e915750600114610e5857505050565b610e6b9192939450600052602060002090565b916000925b818410610e7d5750500190565b805484840152602090930192600101610e70565b92949550505060ff1916825215156020020190565b9061022a91610e22565b90610214610eca92610ec160405190565b93848092610ea6565b038361047c565b61022a60806104a3565b90610214610f2f6003610eec610ed1565b94610efd610ef98261092e565b8752565b610f13610f0c6001830161092e565b6020880152565b610f29610f226002830161092e565b6040880152565b01610941565b15156060840152565b610f4390600461089e565b610f4c8161092e565b91610f5960018301610eb0565b91610f6660028201610954565b91610f736003830161092e565b91610f8060058201610edb565b9161022a600a610f926009850161092e565b9301610941565b92979694610ff790610fed61012096610fe6610fd46102149b96610fff98610fc76101408c019260008d0152565b8a820360208c0152610bc9565b6001600160a01b03909d166040890152565b6060870152565b6080850190610ca5565b610100830152565b019015159052565b346101d75761025e61102261101d366004610275565b610f38565b9361103297959793919360405190565b97889788610f99565b61106c6102149461106560609498979561105e608086019a600087019015159052565b6020850152565b6040830152565b0152565b346101d75761025e61108b611086366004610275565b6128fb565b9061109894929460405190565b9485948561103b565b346101d7576102a16110b436600461033a565b90612b1a565b919060a0838203126101d75761022a9060206105f68286610268565b346101d7576102a16110e93660046110ba565b90612beb565b7f7965db0b000000000000000000000000000000000000000000000000000000007fffffffff0000000000000000000000000000000000000000000000000000000082161490811561113f575090565b61022a91507fffffffff00000000000000000000000000000000000000000000000000000000167f01ffc9a7000000000000000000000000000000000000000000000000000000001490565b610214906111bd7fdd90407a47d22c3e225c3c755406747e13144e54d42edb9716b7bce38887beb1612bf5565b612bf5565b610214906111c9612c00565b6112cc565b156111d557565b60405162461bcd60e51b815260206004820152601160248201527f436c7573746572206e6f7420666f756e640000000000000000000000000000006044820152606490fd5b0390fd5b1561122557565b60405162461bcd60e51b815260206004820152601760248201527f4175746f20726562616c616e63652064697361626c65640000000000000000006044820152606490fd5b905051906102148261052e565b9050519061021482610262565b6080818303126101d757611298828261126a565b9261022a6112a98460208501611277565b9360606112b98260408701611277565b9401611277565b6040513d6000823e3d90fd5b60056112dc61022a83600461089e565b6112f06112eb600a8301610941565b6111ce565b0161130561130060038301610941565b61121e565b61130e306103c2565b608061131960405190565b7fc2effa3b0000000000000000000000000000000000000000000000000000000081526004810185905291829060249082905afa9182156113d85760008091819382956113a0575b5081611386575b50611374575b50505050565b61137d93612c56565b3880808061136e565b6113979150600161022a910161092e565b83101538611368565b92509350506113c7915060803d6080116113d1575b6113bf818361047c565b810190611284565b9338939193611361565b503d6113b5565b6112c0565b6102149061118b565b60016113ff61022a926113f7600090565b50600061089e565b0161092e565b90610214916114166111b8826113e6565b9061142091612d9f565b50565b9061021491611405565b9061143733610312565b6001600160a01b0382160361144f5761142091612e15565b6040517f6697b232000000000000000000000000000000000000000000000000000000008152600490fd5b61021494939291906114ab7fd1473398bb66596de5d1ea1fc8e303ff2ac23265adc9144b1b52065dc4f0934b612bf5565b90610214949392916114bb612c00565b61198c565b156114c757565b60405162461bcd60e51b815260206004820152600f60248201527f496e76616c69642066756e6420494400000000000000000000000000000000006044820152606490fd5b1561151357565b60405162461bcd60e51b815260206004820152600d60248201527f4e616d65207265717569726564000000000000000000000000000000000000006044820152606490fd5b61031261022a61022a9290565b61022a90611558565b1561157557565b60405162461bcd60e51b815260206004820152601560248201527f496e76616c6964207072696d617279207661756c7400000000000000000000006044820152606490fd5b156115c157565b60405162461bcd60e51b815260206004820152601660248201527f436c757374657220616c726561647920657869737473000000000000000000006044820152606490fd5b90600019905b9181191691161790565b9061162461022a61162b9290565b8254611606565b9055565b634e487b7160e01b600052600060045260246000fd5b9160001960089290920291821b911b61160c565b919061166a61022a61162b936108a4565b908354611645565b61021491600091611659565b818110611689575050565b806116976000600193611672565b0161167e565b9190601f81116116ac57505050565b6116be61021493600052602060002090565b906020601f8401819004830193106116e0575b6020601f90910104019061167e565b90915081906116d1565b906116f3815190565b9067ffffffffffffffff821161049e57611717826117118554610df8565b8561169d565b602090601f83116001146117525761162b929160009183611747575b5050600019600883021c1916906002021790565b015190503880611733565b601f1983169161176785600052602060002090565b9260005b8181106117a55750916002939185600196941061178c575b50505002019055565b01516000196008601f8516021c19169055388080611783565b9193602060018192878701518155019501920161176b565b90610214916116ea565b906001600160a01b039061160c565b906117e661022a61162b926103c2565b82546117c7565b9061162461022a61162b926108a4565b9060ff9061160c565b9061181661022a61162b92151590565b82546117fd565b600361187160606102149461183c611836600083015190565b866117ed565b61185361184a602083015190565b600187016117ed565b61186a611861604083015190565b600287016117ed565b0151151590565b9101611806565b906102149161181d565b61022a60a06104a3565b634e487b7160e01b600052603260045260246000fd5b80548210156118c5576118bc600591600052602060002090565b91020190600090565b61188c565b60046118716080610214946118e3611836600083015190565b6119036118fa60208301516001600160a01b031690565b600187016117d6565b611911611861604083015190565b61186a61191f606083015190565b600387016117ed565b919061193757610214916118ca565b61162f565b908154916801000000000000000083101561049e5782611964916001610214950181556118a2565b90611928565b929160206119876102149360408701908782036000890152610bc9565b940152565b611b24611b2a91611af77f44141fc4a40ea57c6997dbcad7824d484ca41b19d0e7540e04d988e9b884e4a695969497611aa26000916119d86119d061022a856108a4565b8614156114c0565b6119f96119e38c5190565b6119f36119ef866108a4565b9190565b1161150c565b611a19611a0861031285611565565b6001600160a01b038c16141561156e565b8a611a87600492611a3e611a39611a35600a610f298c8961089e565b1590565b6115ba565b611a64611a4e61022a8a8761089e565b93611a5b8a898701611616565b600185016117bd565b611a718d600285016117d6565b611a7e8b600385016117ed565b60058301611878565b611a9442600983016117ed565b6104d46001600a8301611806565b611aeb611ae4611ab0611882565b93611abb8a82870152565b6001600160a01b038c166020860152611adf611ad86127106108a4565b6040870152565b6108a4565b6060840152565b6001608083015261193c565b611b0f86611b0a866108e785600361089e565b6117d6565b61022a6001611b1f8860066103cb565b611806565b936103c2565b93611b40611b3760405190565b9283928361196a565b0390a3565b906102149493929161147a565b611b7b7fbf233dd2aafeb4d50879c4aa5c81e96d92f6e6945c906a58f9f2d1c1631b4b26612bf5565b610214610214612eb7565b610214611b52565b611bb77fbf233dd2aafeb4d50879c4aa5c81e96d92f6e6945c906a58f9f2d1c1631b4b26612bf5565b610214610214612f00565b610214611b8e565b61022a6002610941565b61022a6101a06104a3565b602090818080808080808080808080611bf6611bd4565b9d8e600081520160008152016000815201600081520160008152016000815201600081520160008152016000815201600081520160005b81520160008152016000905250565b61022a611bdf565b9061022d906106c2565b90610214611d7a600b611c5f611bd4565b94611c6c610ef98261092e565b611c84611c7b60018301610941565b60208801611c44565b611c93610f226002830161092e565b611ca9611ca26003830161092e565b6060880152565b611cbf611cb86004830161092e565b6080880152565b611cde611cce60058301610954565b6001600160a01b031660a0880152565b611cfd611ced60068301610954565b6001600160a01b031660c0880152565b611d13611d0c6007830161092e565b60e0880152565b611d33611d2260088301610954565b6001600160a01b0316610100880152565b611d4c611d426008830161096a565b6101208801611c44565b611d63611d5b6009830161092e565b610140880152565b6113ff611d72600a830161092e565b610160880152565b610180840152565b61022a90611c4e565b611da261022a91611d9a611c3c565b5060056108b1565b611d82565b61022a9493929190611dd87fdd90407a47d22c3e225c3c755406747e13144e54d42edb9716b7bce38887beb1612bf5565b9061022a94939291611de8612c00565b90611dfd94939291611df8612f12565b611f8a565b90610214612f6b565b15611e0d57565b60405162461bcd60e51b815260206004820152600e60248201527f496e76616c696420616d6f756e740000000000000000000000000000000000006044820152606490fd5b15611e5957565b60405162461bcd60e51b815260206004820152600c60248201527f496e76616c6964207573657200000000000000000000000000000000000000006044820152606490fd5b15611ea557565b60405162461bcd60e51b815260206004820152601660248201527f546172676574207661756c74206e6f7420666f756e64000000000000000000006044820152606490fd5b634e487b7160e01b600052601160045260246000fd5b6000198114611f0f5760010190565b611eea565b9061181661022a61162b926106cc565b9074ff00000000000000000000000000000000000000009060a01b61160c565b90611f5461022a61162b926106cc565b8254611f24565b91908201809211611f0f57565b61106c6102149461106560609498979561105e608086019a60008701906106d5565b9493919450611fa26112eb600a610f2984600461089e565b7f83f73aac169122ca68b607310ee59e606f01c8a055d6dc64620bccb8e823f4a1600095611fd9611fd2886108a4565b8611611e06565b611fe287611565565b966120016001600160a01b0389166001600160a01b0387161415611e52565b61203c61202b61201e612019856108e789600361089e565b610954565b996001600160a01b031690565b6001600160a01b038a161415611e9e565b61216361214e612148612144612052600761092e565b61206561205e82611f00565b60076117ed565b809c6120c261207861022a8460056108b1565b91612085848a85016117ed565b6120928960018501611f14565b61209f8c60028501611616565b6120ac46600385016117ed565b6120b98a600485016117ed565b600683016117d6565b6120cf8c600783016117ed565b60088101906120de8c836117d6565b6120e88883611f44565b6120f542600983016117ed565b61211461210b612105600861092e565b42611f5b565b600a83016117ed565b46891461216857611adf9161213f82600b612138612133600196611d82565b613351565b9101611616565b611f44565b9690565b966103c2565b9661215860405190565b938493469085611f68565b0390a4565b611adf9150612fd6565b61022a939291906000611da7565b610214939291906121b07fd1473398bb66596de5d1ea1fc8e303ff2ac23265adc9144b1b52065dc4f0934b612bf5565b906102149392916121bf612c00565b6122a8565b156121cb57565b60405162461bcd60e51b815260206004820152601560248201527f496e76616c6964207661756c74206164647265737300000000000000000000006044820152606490fd5b1561221757565b60405162461bcd60e51b815260206004820152601260248201527f496e76616c696420616c6c6f636174696f6e00000000000000000000000000006044820152606490fd5b1561226357565b60405162461bcd60e51b815260206004820152601d60248201527f5661756c7420616c726561647920657869737473206f6e20636861696e0000006044820152606490fd5b91611b1f816123ad600193611b0a6123b4966123a26102149a61235e60046104d461022a8e6122df6112eb600a610f29848861089e565b6123586122ec6000611565565b6123128c61230b6001600160a01b0384165b916001600160a01b031690565b14156121c4565b61231c60006108a4565b8811806123b9575b61232d90612210565b6123526122fe6123456120198d6108e788600361089e565b926001600160a01b031690565b1461225c565b8361089e565b612388612369611882565b92612372868552565b6001600160a01b03881660208501526040840152565b612395611ae460006108a4565b891515608083015261193c565b6108e789600361089e565b60066103cb565b61352a565b5061232d6123c86127106108a4565b8911159050612324565b90610214939291612180565b61022a9160006123fa612400936123f3600090565b508261089e565b016103cb565b610941565b61022a94939291906124367fdd90407a47d22c3e225c3c755406747e13144e54d42edb9716b7bce38887beb1612bf5565b9061022a94939291612446612c00565b90611dfd94939291612456612f12565b6124a7565b1561246257565b60405162461bcd60e51b815260206004820152601660248201527f536f75726365207661756c74206e6f7420666f756e64000000000000000000006044820152606490fd5b94939194506124b781600461089e565b600a016124c390610941565b6124cc906111ce565b6000946124d8866108a4565b84116124e390611e06565b6124ec86611565565b956001600160a01b0387166001600160a01b038516141561250c90611e52565b8161251884600361089e565b90612522916108b1565b61252b90610954565b966001600160a01b03166001600160a01b038816141561254a9061245b565b612554600761092e565b9161255e83611f00565b6125699060076117ed565b82976125768460056108b1565b90612583858584016117ed565b600193849161259483858101611f14565b6125a18860028601611616565b6125ae85600386016117ed565b6125bb46600486016117ed565b6125c890600585016117d6565b6125d589600785016117ed565b60088301906125e489836117d6565b6125ee9082611f44565b6125fb42600985016117ed565b612605600861092e565b61260f9042611f5b565b61261c90600a85016117ed565b468414156000147f83f73aac169122ca68b607310ee59e606f01c8a055d6dc64620bccb8e823f4a1966121639461266e9461214894612144946126835761213f83600b612138612133611adf97611d82565b9661267860405190565b938493469185611f68565b5050611adf90612fd6565b61022a939291906000612405565b61022a6101006104a3565b6126af610ed1565b9060008252602080808085016000611c2d565b61022a6126a7565b6126d261269c565b906000825260208080808080808089016060815201600081520160008152016060815201611c2d6126c2565b61022a6126ca565b67ffffffffffffffff811161049e5760208091020190565b9061272b6104f483612706565b918252565b9061021461278b6004612741611882565b9461274e610ef98261092e565b61276d61275d60018301610954565b6001600160a01b03166020880152565b61277c610f226002830161092e565b610f29611ca26003830161092e565b15156080840152565b61022a90612730565b906127a6825490565b6127af8161271e565b926127c36020850191600052602060002090565b6000915b8383106127d45750505050565b600560206001926127e485612794565b8152019201920191906127c7565b90610214612888600a61280361269c565b94612810610ef98261092e565b61281f610f0c60018301610eb0565b61283e61282e60028301610954565b6001600160a01b03166040880152565b61284d611ca26003830161092e565b61285c611cb86004830161279d565b61287261286b60058301610edb565b60a0880152565b610f296128816009830161092e565b60c0880152565b151560e0840152565b61022a906127f2565b6128b161022a916128a96126fe565b50600461089e565b612891565b81810292918115918404141715611f0f57565b634e487b7160e01b600052601260045260246000fd5b81156128e9570490565b6128c9565b91908203918211611f0f57565b600490600080808061292861291361022a878961089e565b956129236112eb600a8901610941565b61366a565b92600094612935866108a4565b8514612ae457612947869997996108a4565b968788895b8b8d0161295a61022a825490565b821015612a84579061297a61297461022a9f9383906118a2565b50612794565b61298a611a356080830151151590565b612a77578c6129b78c6129b26129a1606086015190565b6129ac6127106108a4565b906128b6565b6128df565b604083016129c661022a825190565b821115612a1957516129dc916119ef91906128ee565b81116129fb575b50506129f261295a9160010190565b919d505061294c565b6129f2919d5061295a9295508c612a12919e015190565b94916129e3565b612a2461022a825190565b8210612a3c575b505050506129f261295a9160010190565b51612a4a916119ef916128ee565b8111612a59575b808e91612a2b565b6129f2919d5061295a9294508c612a70919e015190565b9391612a51565b5061295a906001016129f2565b50509499509499612aa291969297600561022a929a959a010161092e565b8211612aae5750505050565b9196509450612ac9919650612ada92935060019695946128b6565b612ad4614e206108a4565b906128df565b903880808061136e565b505050505080939250612af89150926108a4565b9081908290565b9061021491612b106111b8826113e6565b9061142091612e15565b9061021491612aff565b6102149190612b527fd1473398bb66596de5d1ea1fc8e303ff2ac23265adc9144b1b52065dc4f0934b612bf5565b612b6c565b90815260408101929161021491602090610fff565b7f39bbf642bd7769cf1cec86b7885c41b9817cab0bf62ade3f4a098ef0e8c496b090612ba16112eb600a610f2984600461089e565b612bb8836005612bb284600461089e565b01611878565b612bd06119ef6060612bc8865190565b950151151590565b92612be6612bdd60405190565b92839283612b57565b0390a2565b9061021491612b24565b610214903390613702565b612c08611bca565b612c0e57565b6040517fd93c0665000000000000000000000000000000000000000000000000000000008152600490fd5b90815260608101939261021492909160409161106c906020830152565b90612be6612d787f690102a1652a83ceb62618b68e2131cfbc3fb2b13354556b0c44ee9e47adc5fd9493612c8a600761092e565b612c9661205e82611f00565b612cae612ca761022a8360056108b1565b91826117ed565b612cbc600260018301611f14565b612cc98260028301611616565b612cd685600383016117ed565b612ce386600483016117ed565b612d01612cf8612019876108e786600361089e565b600583016117d6565b612d166120b9612019886108e786600361089e565b612d2388600783016117ed565b6008810190612d33600083611f44565b612d4042600983016117ed565b612d5061210b612105600861092e565b468614158015612d95575b15612d8b5761022a9161213f82600b612138612133600196611d82565b94612d8260405190565b93849384612c39565b61022a9150613753565b5046871415612d5b565b612dac611a3583836123de565b15612e0e57612dc66001611b1f8460006123fa868261089e565b612dda612dd4611b24339390565b916103c2565b917f2f8788117e7eff1d82e926ec794901d17c78024a50270940304540a733656f0d612e0560405190565b600090a4600190565b5050600090565b612e1f82826123de565b15612e0e57612e386000611b1f84826123fa868261089e565b612e46612dd4611b24339390565b917ff6391f5c32d9c69d2a47ea670b442974b53935d1edc7fd64eb21e047a839171b612e0560405190565b612e7961383b565b610214612e8860006002611806565b7f5db9ee0a495bf2e6ff9c91a7834c1ba4fdd244a5e8aa4e537bd38aeae4b073aa612eb23361090d565b0390a1565b610214612e71565b612ec7612c00565b610214612ed660016002611806565b7f62e78cea01bee320cd4e420270b5ea74000d11b0c9f74754ebdbfc544b05a258612eb23361090d565b610214612ebf565b61022a60026108a4565b612f1c600161092e565b612f24612f08565b908114612f36576102149060016117ed565b6040517f3ee5aeb5000000000000000000000000000000000000000000000000000000008152600490fd5b61022a60016108a4565b610214612f76612f61565b60016117ed565b906020828203126101d75761022a91611277565b9081526001600160a01b039091166020820152606081019291610214916040905b01906001600160a01b03169052565b90815260408101929161021491602090612fb2565b6001810190612fe482610941565b91600092612ffa612ff4856106c2565b916106c2565b03613120575061305f602061301c61301761301760068601610954565b6103c2565b6130286007850161092e565b9061303560088601610954565b918661304060405190565b809681958294613054636e553f6560e01b90565b845260048401612fc1565b03925af180156113d8576130f3575b505b61308a6008820192613083600285611f44565b820161092e565b907f47dc9ba110111c906ea2507cc506efa59ee912c5506833b3208d1bcc28ca5d876121636130e96130e36130df6130d96130d360076130cc60028a0161092e565b980161092e565b98610954565b966108a4565b9490565b946103c2565b946102ea60405190565b6131149060203d602011613119575b61310c818361047c565b810190612f7d565b61306e565b503d613102565b61312990610941565b613136612ff460016106c2565b036130705761319b602061315261301761301760058601610954565b61315e6007850161092e565b90600885018661317661317083610954565b92610954565b9361318060405190565b96879586948593632d182be560e21b5b855260048501612f91565b03925af180156113d8576131b0575b50613070565b6131c89060203d6020116131195761310c818361047c565b6131aa565b61022a90516106c2565b919461321061106c9298979561320960a096611ad86102149a6131ff60c08a019e60008b0152565b60208901906106d5565b6060850152565b6001600160a01b03166080830152565b61022a906108a4565b9095949261021494610596612fb29261325f60809661325860a088019c60008901906001600160a01b03169052565b6020870152565b6040850152565b60009060033d1161327357565b905060046000803e60005160e01c90565b60009060443d106102145760405160043d036004823e8051903d602483011167ffffffffffffffff8311176132ea5781810191825167ffffffffffffffff811161136e5760043d0383018160208601011161136e5761022a93949550602001019061047c565b5050565b6104d461330692602092613300815190565b94859290565b93849101610ba6565b7f43726f73732d636861696e2073656e64206661696c65643a2000000000000000815261022a9190601901906132ee565b602080825261022a92910190610bc9565b9060009161335d815190565b9061336a602082016131cd565b9160408201613377815190565b916133c260e0850193613388855190565b966133b66101008801946133a386516001600160a01b031690565b6040519a8b9560208701954294876131d7565b9081038252038661047c565b6133eb7f00000000000000000000000000000000000000000000000000000000000000006103c2565b9061341561341061340b60c063756333659801516001600160a01b031690565b945190565b613220565b94613437613429613424875190565b965190565b92516001600160a01b031690565b94833b156101d7576000956134609361346b9261345360405190565b998a988997889760e01b90565b875260048701613229565b039134905af1908161350c575b506134f357506001613488613266565b6308c379a014613499575b6113d857565b6134a1613284565b806134ac5750613493565b6134db61121a9161022a6134bf60405190565b80926134cf60208301918261330f565b9081038252038261047c565b60405191829162461bcd60e51b835260048301613340565b909150613508613501825190565b9160200190565b2090565b61352490600061351c818361047c565b8101906102a6565b38613478565b9061353a61022a6004938461089e565b61354460006108a4565b8093815b81840161355661022a825490565b8210156135ba576135728361356b84846118a2565b5001610941565b613585575b50600101613548565b613548565b6135ad8297946135a760026135a0613580966135b3966118a2565b500161092e565b90611f5b565b93611f00565b9590613577565b505091929350612710916135cd836108a4565b82116135d95750505050565b6135e360006108a4565b8185016135f161022a825490565b82101561365b57818161360c8561356b8196613618966118a2565b61361f575b5060010190565b90506135e3565b80600261364e846136488a6129b28d6129ac613642886135a0886136559d6118a2565b916108a4565b936118a2565b50016117ed565b38613611565b5050505050503880808061136e565b60009161367d61022a600493600461089e565b9161368860006108a4565b81840161369661022a825490565b8210156136de576136ab8361356b84846118a2565b6136be575b5081906001015b9050613688565b6136d682966135a760036135a087966136b7966118a2565b9591506136b0565b5050509050565b6001600160a01b0390911681526040810192916102149160200152565b90613710611a3582846123de565b613718575050565b61121a61372460405190565b9283927fe2517d3f000000000000000000000000000000000000000000000000000000008452600484016136e5565b6137a561376861301761301760058501610954565b60006020600785019261377a8461092e565b90613784306103c2565b8094819361379160405190565b98899586948593632d182be560e21b613190565b03925af19182156113d8576137e393602093613820575b506137d86137d261301761301760068901610954565b9161092e565b600061304060405190565b03925af180156113d85761021492600292600892613803575b5001611f44565b61381b9060203d6020116131195761310c818361047c565b6137fc565b61383690843d86116131195761310c818361047c565b6137bc565b613846611a35611bca565b61384c57565b6040517f8dfc202b000000000000000000000000000000000000000000000000000000008152600490fdfea264697066735822122018614a69e1a0d11df1c2cc14fe0855936b66c5e9fd054896f338ebc42bba238864736f6c63430008160033",
  "linkReferences": {},
  "deployedLinkReferences": {}
}