{
  "_format": "hh-sol-artifact-1",
  "contractName": "IndexTokenFactory",
  "sourceName": "contracts/IndexTokenFactory.sol",
  "abi": [
    {
      "inputs": [
        {
          "internalType": "address",
          "name": "_priceFeed",
          "type": "address"
        }
      ],
      "stateMutability": "nonpayable",
      "type": "constructor"
    },
    {
      "inputs": [],
      "name": "AccessControlBadConfirmation",
      "type": "error"
    },
    {
      "inputs": [
        {
          "internalType": "address",
          "name": "account",
          "type": "address"
        },
        {
          "internalType": "bytes32",
          "name": "neededRole",
          "type": "bytes32"
        }
      ],
      "name": "AccessControlUnauthorizedAccount",
      "type": "error"
    },
    {
      "inputs": [],
      "name": "EnforcedPause",
      "type": "error"
    },
    {
      "inputs": [],
      "name": "ExpectedPause",
      "type": "error"
    },
    {
      "inputs": [],
      "name": "FailedDeployment",
      "type": "error"
    },
    {
      "inputs": [
        {
          "internalType": "uint256",
          "name": "balance",
          "type": "uint256"
        },
        {
          "internalType": "uint256",
          "name": "needed",
          "type": "uint256"
        }
      ],
      "name": "InsufficientBalance",
      "type": "error"
    },
    {
      "inputs": [],
      "name": "ReentrancyGuardReentrantCall",
      "type": "error"
    },
    {
      "inputs": [
        {
          "internalType": "address",
          "name": "token",
          "type": "address"
        }
      ],
      "name": "SafeERC20FailedOperation",
      "type": "error"
    },
    {
      "anonymous": false,
      "inputs": [
        {
          "indexed": true,
          "internalType": "address",
          "name": "admin",
          "type": "address"
        },
        {
          "indexed": false,
          "internalType": "uint256",
          "name": "timestamp",
          "type": "uint256"
        }
      ],
      "name": "EmergencyPaused",
      "type": "event"
    },
    {
      "anonymous": false,
      "inputs": [
        {
          "indexed": true,
          "internalType": "address",
          "name": "admin",
          "type": "address"
        },
        {
          "indexed": false,
          "internalType": "uint256",
          "name": "timestamp",
          "type": "uint256"
        }
      ],
      "name": "EmergencyUnpaused",
      "type": "event"
    },
    {
      "anonymous": false,
      "inputs": [
        {
          "indexed": true,
          "internalType": "bytes32",
          "name": "fundId",
          "type": "bytes32"
        },
        {
          "indexed": false,
          "internalType": "string",
          "name": "name",
          "type": "string"
        },
        {
          "indexed": false,
          "internalType": "address",
          "name": "creator",
          "type": "address"
        }
      ],
      "name": "FundCreated",
      "type": "event"
    },
    {
      "anonymous": false,
      "inputs": [
        {
          "indexed": true,
          "internalType": "bytes32",
          "name": "fundId",
          "type": "bytes32"
        },
        {
          "indexed": true,
          "internalType": "address",
          "name": "tokenAddress",
          "type": "address"
        },
        {
          "indexed": false,
          "internalType": "string",
          "name": "name",
          "type": "string"
        },
        {
          "indexed": false,
          "internalType": "string",
          "name": "symbol",
          "type": "string"
        }
      ],
      "name": "IndexTokenCreated",
      "type": "event"
    },
    {
      "anonymous": false,
      "inputs": [
        {
          "indexed": true,
          "internalType": "bytes32",
          "name": "fundId",
          "type": "bytes32"
        },
        {
          "indexed": false,
          "internalType": "address",
          "name": "tokenAddress",
          "type": "address"
        },
        {
          "indexed": false,
          "internalType": "uint256",
          "name": "totalSupply",
          "type": "uint256"
        }
      ],
      "name": "IndexTokenIssued",
      "type": "event"
    },
    {
      "anonymous": false,
      "inputs": [
        {
          "indexed": true,
          "internalType": "bytes32",
          "name": "fundId",
          "type": "bytes32"
        },
        {
          "indexed": false,
          "internalType": "string",
          "name": "reason",
          "type": "string"
        }
      ],
      "name": "LiquidityCheckFailed",
      "type": "event"
    },
    {
      "anonymous": false,
      "inputs": [
        {
          "indexed": true,
          "internalType": "bytes32",
          "name": "fundId",
          "type": "bytes32"
        },
        {
          "indexed": false,
          "internalType": "uint256",
          "name": "amount",
          "type": "uint256"
        }
      ],
      "name": "ManagementFeeCollected",
      "type": "event"
    },
    {
      "anonymous": false,
      "inputs": [
        {
          "indexed": false,
          "internalType": "address",
          "name": "account",
          "type": "address"
        }
      ],
      "name": "Paused",
      "type": "event"
    },
    {
      "anonymous": false,
      "inputs": [
        {
          "indexed": true,
          "internalType": "address",
          "name": "oldPriceFeed",
          "type": "address"
        },
        {
          "indexed": true,
          "internalType": "address",
          "name": "newPriceFeed",
          "type": "address"
        }
      ],
      "name": "PriceFeedUpdated",
      "type": "event"
    },
    {
      "anonymous": false,
      "inputs": [
        {
          "indexed": true,
          "internalType": "bytes32",
          "name": "role",
          "type": "bytes32"
        },
        {
          "indexed": true,
          "internalType": "bytes32",
          "name": "previousAdminRole",
          "type": "bytes32"
        },
        {
          "indexed": true,
          "internalType": "bytes32",
          "name": "newAdminRole",
          "type": "bytes32"
        }
      ],
      "name": "RoleAdminChanged",
      "type": "event"
    },
    {
      "anonymous": false,
      "inputs": [
        {
          "indexed": true,
          "internalType": "bytes32",
          "name": "role",
          "type": "bytes32"
        },
        {
          "indexed": true,
          "internalType": "address",
          "name": "account",
          "type": "address"
        },
        {
          "indexed": true,
          "internalType": "address",
          "name": "sender",
          "type": "address"
        }
      ],
      "name": "RoleGranted",
      "type": "event"
    },
    {
      "anonymous": false,
      "inputs": [
        {
          "indexed": true,
          "internalType": "bytes32",
          "name": "role",
          "type": "bytes32"
        },
        {
          "indexed": true,
          "internalType": "address",
          "name": "account",
          "type": "address"
        },
        {
          "indexed": true,
          "internalType": "address",
          "name": "sender",
          "type": "address"
        }
      ],
      "name": "RoleRevoked",
      "type": "event"
    },
    {
      "anonymous": false,
      "inputs": [
        {
          "indexed": true,
          "internalType": "address",
          "name": "tokenAddress",
          "type": "address"
        },
        {
          "indexed": true,
          "internalType": "address",
          "name": "authorizer",
          "type": "address"
        }
      ],
      "name": "TokenAuthorized",
      "type": "event"
    },
    {
      "anonymous": false,
      "inputs": [
        {
          "indexed": true,
          "internalType": "address",
          "name": "tokenAddress",
          "type": "address"
        },
        {
          "indexed": true,
          "internalType": "address",
          "name": "revoker",
          "type": "address"
        }
      ],
      "name": "TokenRevoked",
      "type": "event"
    },
    {
      "anonymous": false,
      "inputs": [
        {
          "indexed": true,
          "internalType": "bytes32",
          "name": "fundId",
          "type": "bytes32"
        },
        {
          "indexed": false,
          "internalType": "address",
          "name": "token",
          "type": "address"
        },
        {
          "indexed": false,
          "internalType": "uint256",
          "name": "amount",
          "type": "uint256"
        }
      ],
      "name": "TokensDeposited",
      "type": "event"
    },
    {
      "anonymous": false,
      "inputs": [
        {
          "indexed": false,
          "internalType": "address",
          "name": "account",
          "type": "address"
        }
      ],
      "name": "Unpaused",
      "type": "event"
    },
    {
      "inputs": [],
      "name": "DEFAULT_ADMIN_ROLE",
      "outputs": [
        {
          "internalType": "bytes32",
          "name": "",
          "type": "bytes32"
        }
      ],
      "stateMutability": "view",
      "type": "function"
    },
    {
      "inputs": [],
      "name": "MAX_COMPONENTS",
      "outputs": [
        {
          "internalType": "uint256",
          "name": "",
          "type": "uint256"
        }
      ],
      "stateMutability": "view",
      "type": "function"
    },
    {
      "inputs": [],
      "name": "MIN_FUND_VALUE",
      "outputs": [
        {
          "internalType": "uint256",
          "name": "",
          "type": "uint256"
        }
      ],
      "stateMutability": "view",
      "type": "function"
    },
    {
      "inputs": [],
      "name": "PLATFORM_ADMIN_ROLE",
      "outputs": [
        {
          "internalType": "bytes32",
          "name": "",
          "type": "bytes32"
        }
      ],
      "stateMutability": "view",
      "type": "function"
    },
    {
      "inputs": [],
      "name": "PRICE_DECIMALS",
      "outputs": [
        {
          "internalType": "uint256",
          "name": "",
          "type": "uint256"
        }
      ],
      "stateMutability": "view",
      "type": "function"
    },
    {
      "inputs": [],
      "name": "RATIO_BASE",
      "outputs": [
        {
          "internalType": "uint256",
          "name": "",
          "type": "uint256"
        }
      ],
      "stateMutability": "view",
      "type": "function"
    },
    {
      "inputs": [],
      "name": "RECIPE_CREATOR_ROLE",
      "outputs": [
        {
          "internalType": "bytes32",
          "name": "",
          "type": "bytes32"
        }
      ],
      "stateMutability": "view",
      "type": "function"
    },
    {
      "inputs": [
        {
          "internalType": "address",
          "name": "tokenAddress",
          "type": "address"
        },
        {
          "internalType": "bool",
          "name": "authorized",
          "type": "bool"
        }
      ],
      "name": "authorizeToken",
      "outputs": [],
      "stateMutability": "nonpayable",
      "type": "function"
    },
    {
      "inputs": [
        {
          "internalType": "address",
          "name": "tokenAddress",
          "type": "address"
        }
      ],
      "name": "authorizeToken",
      "outputs": [],
      "stateMutability": "nonpayable",
      "type": "function"
    },
    {
      "inputs": [
        {
          "internalType": "address",
          "name": "",
          "type": "address"
        }
      ],
      "name": "authorizedTokens",
      "outputs": [
        {
          "internalType": "bool",
          "name": "",
          "type": "bool"
        }
      ],
      "stateMutability": "view",
      "type": "function"
    },
    {
      "inputs": [
        {
          "internalType": "bytes32",
          "name": "fundId",
          "type": "bytes32"
        }
      ],
      "name": "calculateNAV",
      "outputs": [
        {
          "internalType": "uint256",
          "name": "",
          "type": "uint256"
        }
      ],
      "stateMutability": "view",
      "type": "function"
    },
    {
      "inputs": [
        {
          "internalType": "bytes32",
          "name": "fundId",
          "type": "bytes32"
        }
      ],
      "name": "checkLiquidityRequirements",
      "outputs": [
        {
          "internalType": "bool",
          "name": "sufficient",
          "type": "bool"
        },
        {
          "internalType": "string",
          "name": "reason",
          "type": "string"
        }
      ],
      "stateMutability": "view",
      "type": "function"
    },
    {
      "inputs": [
        {
          "internalType": "string",
          "name": "name",
          "type": "string"
        },
        {
          "internalType": "string",
          "name": "symbol",
          "type": "string"
        },
        {
          "components": [
            {
              "internalType": "address",
              "name": "tokenAddress",
              "type": "address"
            },
            {
              "internalType": "uint32",
              "name": "hyperliquidAssetIndex",
              "type": "uint32"
            },
            {
              "internalType": "uint256",
              "name": "targetRatio",
              "type": "uint256"
            },
            {
              "internalType": "uint256",
              "name": "depositedAmount",
              "type": "uint256"
            }
          ],
          "internalType": "struct IIndexTokenFactory.ComponentToken[]",
          "name": "components",
          "type": "tuple[]"
        }
      ],
      "name": "createIndexFund",
      "outputs": [
        {
          "internalType": "bytes32",
          "name": "",
          "type": "bytes32"
        }
      ],
      "stateMutability": "nonpayable",
      "type": "function"
    },
    {
      "inputs": [
        {
          "internalType": "address",
          "name": "",
          "type": "address"
        },
        {
          "internalType": "uint256",
          "name": "",
          "type": "uint256"
        }
      ],
      "name": "creatorFunds",
      "outputs": [
        {
          "internalType": "bytes32",
          "name": "",
          "type": "bytes32"
        }
      ],
      "stateMutability": "view",
      "type": "function"
    },
    {
      "inputs": [
        {
          "internalType": "bytes32",
          "name": "fundId",
          "type": "bytes32"
        },
        {
          "internalType": "address[]",
          "name": "tokenAddresses",
          "type": "address[]"
        },
        {
          "internalType": "uint256[]",
          "name": "amounts",
          "type": "uint256[]"
        }
      ],
      "name": "depositComponentTokens",
      "outputs": [],
      "stateMutability": "nonpayable",
      "type": "function"
    },
    {
      "inputs": [],
      "name": "emergencyPause",
      "outputs": [],
      "stateMutability": "nonpayable",
      "type": "function"
    },
    {
      "inputs": [],
      "name": "emergencyUnpause",
      "outputs": [],
      "stateMutability": "nonpayable",
      "type": "function"
    },
    {
      "inputs": [
        {
          "internalType": "bytes32",
          "name": "",
          "type": "bytes32"
        }
      ],
      "name": "fundIndexTokens",
      "outputs": [
        {
          "internalType": "address",
          "name": "",
          "type": "address"
        }
      ],
      "stateMutability": "view",
      "type": "function"
    },
    {
      "inputs": [
        {
          "internalType": "bytes32",
          "name": "",
          "type": "bytes32"
        }
      ],
      "name": "funds",
      "outputs": [
        {
          "internalType": "string",
          "name": "name",
          "type": "string"
        },
        {
          "internalType": "string",
          "name": "symbol",
          "type": "string"
        },
        {
          "internalType": "address",
          "name": "creator",
          "type": "address"
        },
        {
          "internalType": "address",
          "name": "indexTokenAddress",
          "type": "address"
        },
        {
          "internalType": "uint256",
          "name": "totalSupply",
          "type": "uint256"
        },
        {
          "internalType": "uint256",
          "name": "createdAt",
          "type": "uint256"
        },
        {
          "internalType": "bool",
          "name": "isActive",
          "type": "bool"
        },
        {
          "internalType": "bool",
          "name": "isIssued",
          "type": "bool"
        }
      ],
      "stateMutability": "view",
      "type": "function"
    },
    {
      "inputs": [
        {
          "internalType": "address",
          "name": "creator",
          "type": "address"
        }
      ],
      "name": "getCreatorFunds",
      "outputs": [
        {
          "internalType": "bytes32[]",
          "name": "",
          "type": "bytes32[]"
        }
      ],
      "stateMutability": "view",
      "type": "function"
    },
    {
      "inputs": [
        {
          "internalType": "bytes32",
          "name": "fundId",
          "type": "bytes32"
        }
      ],
      "name": "getFundComponents",
      "outputs": [
        {
          "components": [
            {
              "internalType": "address",
              "name": "tokenAddress",
              "type": "address"
            },
            {
              "internalType": "uint32",
              "name": "hyperliquidAssetIndex",
              "type": "uint32"
            },
            {
              "internalType": "uint256",
              "name": "targetRatio",
              "type": "uint256"
            },
            {
              "internalType": "uint256",
              "name": "depositedAmount",
              "type": "uint256"
            }
          ],
          "internalType": "struct IIndexTokenFactory.ComponentToken[]",
          "name": "",
          "type": "tuple[]"
        }
      ],
      "stateMutability": "view",
      "type": "function"
    },
    {
      "inputs": [
        {
          "internalType": "bytes32",
          "name": "fundId",
          "type": "bytes32"
        }
      ],
      "name": "getFundInfo",
      "outputs": [
        {
          "internalType": "string",
          "name": "name",
          "type": "string"
        },
        {
          "internalType": "string",
          "name": "symbol",
          "type": "string"
        },
        {
          "internalType": "address",
          "name": "creator",
          "type": "address"
        },
        {
          "internalType": "address",
          "name": "indexToken",
          "type": "address"
        },
        {
          "internalType": "uint256",
          "name": "totalSupply",
          "type": "uint256"
        },
        {
          "internalType": "uint256",
          "name": "nav",
          "type": "uint256"
        },
        {
          "internalType": "bool",
          "name": "isActive",
          "type": "bool"
        },
        {
          "internalType": "bool",
          "name": "isIssued",
          "type": "bool"
        }
      ],
      "stateMutability": "view",
      "type": "function"
    },
    {
      "inputs": [
        {
          "internalType": "bytes32",
          "name": "role",
          "type": "bytes32"
        }
      ],
      "name": "getRoleAdmin",
      "outputs": [
        {
          "internalType": "bytes32",
          "name": "",
          "type": "bytes32"
        }
      ],
      "stateMutability": "view",
      "type": "function"
    },
    {
      "inputs": [
        {
          "internalType": "address",
          "name": "account",
          "type": "address"
        }
      ],
      "name": "grantRecipeCreatorRole",
      "outputs": [],
      "stateMutability": "nonpayable",
      "type": "function"
    },
    {
      "inputs": [
        {
          "internalType": "bytes32",
          "name": "role",
          "type": "bytes32"
        },
        {
          "internalType": "address",
          "name": "account",
          "type": "address"
        }
      ],
      "name": "grantRole",
      "outputs": [],
      "stateMutability": "nonpayable",
      "type": "function"
    },
    {
      "inputs": [
        {
          "internalType": "bytes32",
          "name": "role",
          "type": "bytes32"
        },
        {
          "internalType": "address",
          "name": "account",
          "type": "address"
        }
      ],
      "name": "hasRole",
      "outputs": [
        {
          "internalType": "bool",
          "name": "",
          "type": "bool"
        }
      ],
      "stateMutability": "view",
      "type": "function"
    },
    {
      "inputs": [],
      "name": "indexTokenImplementation",
      "outputs": [
        {
          "internalType": "address",
          "name": "",
          "type": "address"
        }
      ],
      "stateMutability": "view",
      "type": "function"
    },
    {
      "inputs": [],
      "name": "isPaused",
      "outputs": [
        {
          "internalType": "bool",
          "name": "",
          "type": "bool"
        }
      ],
      "stateMutability": "view",
      "type": "function"
    },
    {
      "inputs": [
        {
          "internalType": "bytes32",
          "name": "fundId",
          "type": "bytes32"
        },
        {
          "internalType": "uint256",
          "name": "tokenSupply",
          "type": "uint256"
        }
      ],
      "name": "issueIndexToken",
      "outputs": [],
      "stateMutability": "nonpayable",
      "type": "function"
    },
    {
      "inputs": [],
      "name": "paused",
      "outputs": [
        {
          "internalType": "bool",
          "name": "",
          "type": "bool"
        }
      ],
      "stateMutability": "view",
      "type": "function"
    },
    {
      "inputs": [],
      "name": "priceFeed",
      "outputs": [
        {
          "internalType": "contract IPriceFeed",
          "name": "",
          "type": "address"
        }
      ],
      "stateMutability": "view",
      "type": "function"
    },
    {
      "inputs": [
        {
          "internalType": "bytes32",
          "name": "role",
          "type": "bytes32"
        },
        {
          "internalType": "address",
          "name": "callerConfirmation",
          "type": "address"
        }
      ],
      "name": "renounceRole",
      "outputs": [],
      "stateMutability": "nonpayable",
      "type": "function"
    },
    {
      "inputs": [
        {
          "internalType": "bytes32",
          "name": "role",
          "type": "bytes32"
        },
        {
          "internalType": "address",
          "name": "account",
          "type": "address"
        }
      ],
      "name": "revokeRole",
      "outputs": [],
      "stateMutability": "nonpayable",
      "type": "function"
    },
    {
      "inputs": [
        {
          "internalType": "address",
          "name": "tokenAddress",
          "type": "address"
        }
      ],
      "name": "revokeToken",
      "outputs": [],
      "stateMutability": "nonpayable",
      "type": "function"
    },
    {
      "inputs": [
        {
          "internalType": "bytes32",
          "name": "fundId",
          "type": "bytes32"
        },
        {
          "internalType": "bool",
          "name": "active",
          "type": "bool"
        }
      ],
      "name": "setFundActive",
      "outputs": [],
      "stateMutability": "nonpayable",
      "type": "function"
    },
    {
      "inputs": [
        {
          "internalType": "address",
          "name": "_priceFeed",
          "type": "address"
        }
      ],
      "name": "setPriceFeedAddress",
      "outputs": [],
      "stateMutability": "nonpayable",
      "type": "function"
    },
    {
      "inputs": [
        {
          "internalType": "bytes4",
          "name": "interfaceId",
          "type": "bytes4"
        }
      ],
      "name": "supportsInterface",
      "outputs": [
        {
          "internalType": "bool",
          "name": "",
          "type": "bool"
        }
      ],
      "stateMutability": "view",
      "type": "function"
    },
    {
      "inputs": [
        {
          "internalType": "bytes32",
          "name": "fundId",
          "type": "bytes32"
        },
        {
          "internalType": "address",
          "name": "to",
          "type": "address"
        },
        {
          "internalType": "uint256",
          "name": "amount",
          "type": "uint256"
        }
      ],
      "name": "transferIndexTokens",
      "outputs": [],
      "stateMutability": "nonpayable",
      "type": "function"
    }
  ],
  "bytecode": "0x60806040523462000030576200001e62000018620000d3565b62000217565b604051613c66620004538239613c6690f35b600080fd5b634e487b7160e01b600052604160045260246000fd5b90601f01601f191681019081106001600160401b038211176200006d57604052565b62000035565b906200008a6200008260405190565b92836200004b565b565b6001600160a01b031690565b90565b6001600160a01b038116036200003057565b905051906200008a826200009b565b9060208282031262000030576200009891620000ad565b620000986200601580380380620000ea8162000073565b928339810190620000bc565b6200008c62000098620000989290565b6200009890620000f6565b156200011957565b60405162461bcd60e51b815260206004820152601960248201527f507269636520666565642063616e6e6f74206265207a65726f000000000000006044820152606490fd5b6200009862000098620000989290565b6200009860006200015e565b62000098906200008c906001600160a01b031682565b62000098906200017a565b620000989062000190565b90610100600160a81b039060081b5b9181191691161790565b90620001d362000098620001db926200019b565b8254620001a6565b9055565b6040513d6000823e3d90fd5b906001600160a01b0390620001b5565b906200020f62000098620001db926200019b565b8254620001eb565b62000299620002a1916200022a620002f7565b620002506200023e6200008c600062000106565b6001600160a01b038316141562000111565b620002666200025e6200016e565b33906200038f565b50620002927f5246556c0ab216b5b325ad7c539bfbd1a07c768773cdf810fecd3c3375c274076200025e565b506200019b565b6002620001bf565b604051611f5c81016001600160401b038111828210176200006d57620002ce8291611f5c620040b9843990565b03906000f08015620002f157620002e96200008a916200019b565b6007620001fb565b620001df565b6200008a6200008a62000338565b6200009860016200015e565b9060001990620001b5565b906200033062000098620001db926200015e565b825462000311565b6200008a6200034662000305565b60016200031c565b905b600052602052604060002090565b9062000350906200019b565b9060ff90620001b5565b906200038762000098620001db92151590565b82546200036a565b620003a36200039f83836200042a565b1590565b156200042357620003cf6001620003c9846000620003c286826200034e565b016200035e565b62000374565b620003ee620003e7620003e0339390565b936200019b565b916200019b565b917f2f8788117e7eff1d82e926ec794901d17c78024a50270940304540a733656f0d6200041a60405190565b600090a4600190565b5050600090565b62000098916000620003c26200044b9362000443600090565b50826200034e565b5460ff169056fe6080604052600436101561001257600080fd5b60003560e01c8062cf5db41461027157806301ffc9a71461026c5780630ab50a6a14610267578063248a9ca3146102625780632f2ff15d1461025d57806336568abe146102585780633c01847f146102535780634a4e3bd51461024e57806351858e27146102495780635c975abb146102445780636561cc321461023f578063685d34ff1461023a5780636a29a620146102355780637372d52214610230578063741bef1a1461022b57806375bb1d1714610226578063860b5d3a1461022157806391d148541461021c578063933f4eef1461021757806398e9cb12146102125780639bc7c5861461020d5780639ff2eb5614610208578063a217fddf14610203578063a27d0979146101fe578063a46a698e146101f9578063a5c42b77146101f4578063a711ea8a146101ef578063af1c3c7e146101ea578063b187bd26146101e5578063bbda7ec1146101e0578063bdf247c2146101db578063c11a5630146101d6578063c4760fb9146101d1578063d547741f146101cc578063d8c149e0146101c7578063db8848ad146101c2578063df12f8c5146101bd5763f1a640f80361027657611141565b611108565b611080565b611064565b610fb4565b610f99565b610f64565b610f36565b610f1d565b610ed9565b610ec0565b610d82565b610d4b565b610d08565b610cd5565b610c97565b610c6a565b610c4f565b610c00565b610be8565b610bcc565b610b97565b610b64565b610a8f565b610a0e565b6107f3565b6104e2565b6104c9565b610476565b61045e565b610446565b61042e565b610415565b6103fc565b6103be565b61036c565b610315565b6102bf565b600080fd5b6001600160a01b031690565b90565b6001600160a01b0381165b0361027657565b905035906102a98261028a565b565b90602082820312610276576102879161029c565b34610276576102d76102d23660046102ab565b6112b5565b604051005b0390f35b6001600160e01b03198116610295565b905035906102a9826102e0565b9060208282031261027657610287916102f0565b9052565b34610276576102dc61033061032b3660046102fd565b6112be565b60405191829182901515815260200190565b600091031261027657565b6102876102876102879290565b610287600a61034d565b61028761035a565b346102765761037c366004610342565b6102dc610387610364565b6040519182918290815260200190565b80610295565b905035906102a982610397565b90602082820312610276576102879161039d565b34610276576102dc6103876103d43660046103aa565b61132a565b9190604083820312610276576102879060206103f5828661039d565b940161029c565b34610276576102d761040f3660046103d9565b90611367565b34610276576102d76104283660046103d9565b90611371565b34610276576102d76104413660046102ab565b6113f7565b3461027657610456366004610342565b6102d7611457565b346102765761046e366004610342565b6102d76114a8565b3461027657610486366004610342565b6102dc6103306114b0565b801515610295565b905035906102a982610491565b9190604083820312610276576102879060206104c2828661029c565b9401610499565b34610276576102d76104dc3660046104a6565b90611571565b34610276576104f2366004610342565b6102dc7f5246556c0ab216b5b325ad7c539bfbd1a07c768773cdf810fecd3c3375c27407610387565b905b600052602052604060002090565b634e487b7160e01b600052602260045260246000fd5b9060016002830492168015610561575b602083101461055c57565b61052b565b91607f1691610551565b8054600093929161058861057e83610541565b8085529360200190565b91600181169081156105da57506001146105a157505050565b6105b49192939450600052602060002090565b916000925b8184106105c65750500190565b8054848401526020909301926001016105b9565b92949550505060ff1916825215156020020190565b906102879161056b565b634e487b7160e01b600052604160045260246000fd5b90601f01601f1916810190811067ffffffffffffffff82111761063157604052565b6105f9565b906102a96106509261064760405190565b938480926105ef565b038361060f565b6102879081565b6102879054610657565b610287905b60ff1690565b6102879054610668565b6102879060081c61066d565b610287905461067d565b61069e90600361051b565b906106a882610636565b916106b560018201610636565b916106ca60028301546001600160a01b031690565b916106df60048201546001600160a01b031690565b916106ec6005830161065e565b916106f96006820161065e565b91610287600761070a818501610673565b9301610689565b60005b8381106107245750506000910152565b8181015183820152602001610714565b61075561075e60209361076893610749815190565b80835293849260200190565b95869101610711565b601f01601f191690565b0190565b93956107db60e0966107d46107eb969c9b996107c46107b26102a99d986107a48c6107e29a6101008201916000818403910152610734565b8c810360208e015290610734565b6001600160a01b03909f1660408b0152565b6001600160a01b03166060890152565b6080870152565b60a0850152565b151560c0830152565b019015159052565b34610276576102dc61080e6108093660046103aa565b610693565b9461082198969894919493929360405190565b9889988961076c565b906102a961083760405190565b928361060f565b67ffffffffffffffff811161063157602090601f01601f19160190565b90826000939282370152565b9092919261087c6108778261083e565b61082a565b9381855281830111610276576102a991602085019061085b565b9080601f830112156102765781602061028793359101610867565b67ffffffffffffffff81116106315760208091020190565b63ffffffff8116610295565b905035906102a9826108c9565b9190608083820312610276576109359060606108fe608061082a565b94610909838261029c565b865261091883602083016108d5565b602087015261092a836040830161039d565b60408701520161039d565b6060830152565b9092919261094c610877826108b1565b93818552608060208601920283019281841161027657915b8383106109715750505050565b602060809161098084866108e2565b815201920191610964565b9080601f83011215610276578160206102879335910161093c565b9160608383031261027657823567ffffffffffffffff811161027657826109ce918501610896565b92602081013567ffffffffffffffff811161027657836109ef918301610896565b92604082013567ffffffffffffffff811161027657610287920161098b565b34610276576102dc610387610a243660046109a6565b91612139565b610287916008021c61027b565b906102879154610a2a565b61028760016002610a37565b61027b610287610287926001600160a01b031690565b61028790610a4e565b61028790610a64565b61031190610a6d565b6020810192916102a99190610a76565b3461027657610a9f366004610342565b6102dc610aaa610a42565b60405191829182610a7f565b80516001600160a01b031682526102a99190606090819060208181015163ffffffff1690850152610aec60408201516040860152565b0151910152565b9061076881608093610ab6565b90610b20610b19610b0f845190565b8084529260200190565b9260200190565b9060005b818110610b315750505090565b909192610b4b610b446001928651610af3565b9460200190565b929101610b24565b602080825261028792910190610b00565b34610276576102dc610b7f610b7a3660046103aa565b612237565b60405191829182610b53565b61028760006007610a37565b3461027657610ba7366004610342565b6102dc610bb2610b8b565b604051918291826001600160a01b03909116815260200190565b34610276576102dc610330610be23660046103d9565b90612255565b34610276576102d7610bfb3660046102ab565b612357565b34610276576102d7610c133660046102ab565b6123e5565b9061051d90610a6d565b610287916008021c61066d565b906102879154610c22565b6000610c4a610287926005610c18565b610c2f565b34610276576102dc610330610c653660046102ab565b610c3a565b34610276576102dc610387610c803660046103aa565b6124be565b610287600061034d565b610287610c85565b3461027657610ca7366004610342565b6102dc610387610c8f565b919060408382031261027657610287906020610cce828661039d565b940161039d565b34610276576102d7610ce8366004610cb2565b90612a51565b901515815260406020820181905261028792910190610734565b3461027657610d20610d1b3660046103aa565b612c2c565b906102dc610d2d60405190565b92839283610cee565b6000610d4661028792600661051b565b610a37565b34610276576102dc610bb2610d613660046103aa565b610d36565b9190604083820312610276576102879060206104c2828661039d565b34610276576102d7610d95366004610d66565b90612e5b565b90929192610dab610877826108b1565b938185526020808601920283019281841161027657915b838310610dcf5750505050565b60208091610ddd848661029c565b815201920191610dc2565b9080601f830112156102765781602061028793359101610d9b565b90929192610e13610877826108b1565b938185526020808601920283019281841161027657915b838310610e375750505050565b60208091610e45848661039d565b815201920191610e2a565b9080601f830112156102765781602061028793359101610e03565b9160608383031261027657610e80828461039d565b92602081013567ffffffffffffffff81116102765783610ea1918301610de8565b92604082013567ffffffffffffffff8111610276576102879201610e50565b34610276576102d7610ed3366004610e6b565b91613257565b3461027657610ee9366004610342565b6102dc610330613262565b909160608284031261027657610287610f0d848461039d565b936040610cce826020870161029c565b34610276576102d7610f30366004610ef4565b916133c8565b34610276576102dc61080e610f4c3660046103aa565b6133dc565b61028761271061034d565b610287610f51565b3461027657610f74366004610342565b6102dc610387610f5c565b610287683635c9adc5dea0000061034d565b610287610f7f565b3461027657610fa9366004610342565b6102dc610387610f91565b34610276576102d7610fc73660046103d9565b90613495565b919060408382031261027657610287906020610cce828661029c565b634e487b7160e01b600052603260045260246000fd5b805482101561102257611019600191600052602060002090565b91020190600090565b610fe9565b610287916008021c81565b906102879154611027565b611048906004610c18565b8054821015610276576102879161105e91610fff565b90611032565b34610276576102dc61038761107a366004610fcd565b9061103d565b3461027657611090366004610342565b6102dc7f368fb66a5345c6055f1cca28ffebb342afcce72c6e0ca1e0d74c1003b589208d610387565b906110c8610b19610b0f845190565b9060005b8181106110d95750505090565b9091926110ef610b446001928651815260200190565b9291016110cc565b6020808252610287929101906110b9565b34610276576102dc61112361111e3660046102ab565b61351d565b604051918291826110f7565b610287601261034d565b61028761112f565b3461027657611151366004610342565b6102dc610387611139565b6102a99061117061116b610c85565b613539565b611232565b61027b6102876102879290565b61028790611175565b1561119257565b60405162461bcd60e51b815260206004820152601a60248201527f496e76616c6964207072696365206665656420616464726573730000000000006044820152606490fd5b0390fd5b6102879060081c61027b565b61028790546111db565b9074ffffffffffffffffffffffffffffffffffffffff009060081b5b9181191691161790565b9061122761028761122e92610a6d565b82546111f1565b9055565b61125361124261027b6000611182565b6001600160a01b038316141561118b565b61128461127e61126b61126660026111e7565b610a6d565b61126661127785610a6d565b6002611217565b91610a6d565b907fa8abe0398416476db5b05737cd4da3b3cbde5012d978a6a6c3fd49d3217535366112af60405190565b600090a3565b6102a99061115c565b7f7965db0b000000000000000000000000000000000000000000000000000000006001600160e01b03198216149081156112f6575090565b61028791506001600160e01b0319167f01ffc9a7000000000000000000000000000000000000000000000000000000001490565b60016113436102879261133b600090565b50600061051b565b0161065e565b906102a99161135a61116b8261132a565b9061136491613544565b50565b906102a991611349565b9061137b3361027b565b6001600160a01b0382160361139357611364916135b4565b6040517f6697b232000000000000000000000000000000000000000000000000000000008152600490fd5b6102a9906113cd61116b610c85565b611364907f368fb66a5345c6055f1cca28ffebb342afcce72c6e0ca1e0d74c1003b589208d613544565b6102a9906113be565b61140b61116b610c85565b6102a9611416613656565b61141f33610a6d565b7fdacac23d353cc4fe05be85350ed1e8227ed9edf2323b7cb5aad3174e6a9ce1d661144960405190565b42815280602081015b0390a2565b6102a9611400565b61146a61116b610c85565b6102a961147561369f565b61147e33610a6d565b7f2e31b3b12b9bb0e82c32f27df5f234fabc95a374f54fd287a7132878d5dc9fc361144960405190565b6102a961145f565b6102876002610673565b906102a9916114ca61116b610c85565b61153b565b156114d657565b60405162461bcd60e51b815260206004820152601560248201527f496e76616c696420746f6b656e206164647265737300000000000000000000006044820152606490fd5b9060ff9061120d565b9061153461028761122e92151590565b825461151b565b9061156c6102a99261156561155361027b6000611182565b6001600160a01b0383165b14156114cf565b6005610c18565b611524565b906102a9916114ba565b610287939291906115ab7f368fb66a5345c6055f1cca28ffebb342afcce72c6e0ca1e0d74c1003b589208d613539565b906102879392916115ba6136a7565b611c9f565b156115c657565b60405162461bcd60e51b815260206004820152602560248201527f496e646578546f6b656e466163746f72793a20436f6e7472616374206973207060448201527f61757365640000000000000000000000000000000000000000000000000000006064820152608490fd5b1561163857565b60405162461bcd60e51b815260206004820152601860248201527f4e616d6520616e642073796d626f6c20726571756972656400000000000000006044820152606490fd5b1561168457565b60405162461bcd60e51b815260206004820152601760248201527f496e76616c696420636f6d706f6e656e7420636f756e740000000000000000006044820152606490fd5b906116d2825190565b811015611022576020809102010190565b156116ea57565b60405162461bcd60e51b815260206004820152601660248201527f526174696f206d75737420626520706f736974697665000000000000000000006044820152606490fd5b1561173657565b60405162461bcd60e51b815260206004820152601460248201527f546f6b656e206e6f7420617574686f72697a65640000000000000000000000006044820152606490fd5b634e487b7160e01b600052601160045260246000fd5b9190820180921161179e57565b61177b565b156117aa57565b60405162461bcd60e51b815260206004820152601860248201527f546f74616c20726174696f206d757374206265203130302500000000000000006044820152606490fd5b61076861180792602092611801815190565b94859290565b93849101610711565b610311906001600160a01b031660601b90565b9261184a6118436107689461183d602098976014966117ef565b906117ef565b8092611810565b01918252565b1561185757565b60405162461bcd60e51b815260206004820152601660248201527f46756e6420494420616c726561647920657869737473000000000000000000006044820152606490fd5b634e487b7160e01b600052600060045260246000fd5b9160001960089290920291821b911b61120d565b91906118d761028761122e9361034d565b9083546118b2565b6102a9916000916118c6565b8181106118f6575050565b8061190460006001936118df565b016118eb565b9190601f811161191957505050565b61192b6102a993600052602060002090565b906020601f84018190048301931061194d575b6020601f9091010401906118eb565b909150819061193e565b90611960815190565b9067ffffffffffffffff8211610631576119848261197e8554610541565b8561190a565b602090601f83116001146119bf5761122e9291600091836119b4575b5050600019600883021c1916906002021790565b0151905038806119a0565b601f198316916119d485600052602060002090565b9260005b818110611a12575091600293918560019694106119f9575b50505002019055565b01516000196008601f8516021c191690553880806119f0565b919360206001819287870151815501950192016119d8565b906102a991611957565b906001600160a01b039061120d565b90611a5361028761122e92610a6d565b8254611a34565b906000199061120d565b90611a7461028761122e9261034d565b8254611a5a565b9061ff009060081b61120d565b90611a9861028761122e92151590565b8254611a7b565b610287608061082a565b805482101561102257611019600391600052602060002090565b9077ffffffff00000000000000000000000000000000000000009060a01b61120d565b611af96102876102879263ffffffff1690565b63ffffffff1690565b90611b1261028761122e92611ae6565b8254611ac3565b6102a991600290611b7290606090611b5685611b45611b3f84516001600160a01b031690565b82611a43565b602083015163ffffffff1690611b02565b611b6d611b64604083015190565b60018701611a64565b015190565b9101611a64565b9190611b88576102a991611b19565b61189c565b90815491680100000000000000008310156106315782611bb59160016102a995018155611aa9565b90611b79565b91906118d761028761122e9390565b90815491680100000000000000008310156106315782611bf29160016102a995018155610fff565b90611bbb565b611c3d611c2b6102a995979694611c1d60609560808601908682036000880152610734565b908482036020860152610734565b6001600160a01b039097166040830152565b0152565b6040513d6000823e3d90fd5b92916020611c6a6102a99360408701908782036000890152610734565b9401906001600160a01b03169052565b6040808252610287939192611c9191840190610734565b916020818403910152610734565b509091611cb9611cb4611cb06114b0565b1590565b6115bf565b8151600090611cce611cca8361034d565b9190565b1180612119575b611cde90611631565b8151611cec611cca8361034d565b11806120f6575b611cfc9061167d565b611d058161034d565b92835b611d13610287855190565b851015611dd257611dc5611dcc91611d5d611d4186611d328a8a6116c9565b5101516001600160a01b031690565b61155e611d5061027b89611182565b916001600160a01b031690565b611d87611d756040611d6f8a8a6116c9565b51015190565b611d81611cca8861034d565b116116e3565b611db0611dab611da66005611da089611d328d8d6116c9565b90610c18565b610673565b61172f565b611dbf6040611d6f89896116c9565b90611791565b9460010190565b93611d08565b611def919450949294611de9611cca610287610f51565b146117a3565b604051611e138160208101611e074233888a85611823565b9081038252038261060f565b611e25611e1e825190565b9160200190565b20936003611e5e611e496002611e3b898561051b565b01546001600160a01b031690565b611e58611d5061027b87611182565b14611850565b611e6b610287878361051b565b90611e7886858401611a2a565b611e858560018401611a2a565b611e923360028401611a43565b611e9f4260068401611a64565b600191611eba8560078301611eb5600182611524565b611a88565b82611ec48661034d565b905b612040575b5050505050611ee784611ee2610287336004610c18565b611bca565b611f01611efc6007546001600160a01b031690565b6136e0565b91611f0e61126684610a6d565b91611f1830610a6d565b92803b156102765786938291848389611f66611f3360405190565b998a96879586947fd1ec8bf700000000000000000000000000000000000000000000000000000000865260048601611bf8565b03925af192831561203b577f14e7bc6e05e67805cce2ed86869c250a902d27e5a87690b4583ebc558dcda4ef9361200e575b5050611fae83611fa987600661051b565b611a43565b611ff28593847fefc39ae190c4fcb8507ac154112186ad0d542b99480971fbcc98489b2d72a6b7611fde60405190565b80611fea338b83611c4d565b0390a2610a6d565b93612008611fff60405190565b92839283611c7a565b0390a390565b8161202d92903d10612034575b612025818361060f565b810190610342565b3880611f98565b503d61201b565b611c41565b61204b610287865190565b8110156120f1576120eb906120e5878486016120cd61206e83611d32878d6116c9565b6120c68b6120b961209f6040611d6f8b612099602061208d83896116c9565b51015163ffffffff1690565b956116c9565b936120a8611a9f565b978801906001600160a01b03169052565b63ffffffff166020860152565b6040840152565b6120e06120d98b61034d565b6060840152565b611b8d565b60010190565b83611ec6565b611ecb565b50611cfc612102835190565b612110611cca61028761035a565b11159050611cf3565b50611cde612125855190565b612131611cca8461034d565b119050611cd5565b610287929190600061157b565b90612153610877836108b1565b918252565b6102879060a01c611af9565b6102879054612158565b906102a96120d9600261217f611a9f565b946121a161219482546001600160a01b031690565b6001600160a01b03168752565b6121ba6121ad82612164565b63ffffffff166020880152565b6113436121c96001830161065e565b6040880152565b6102879061216e565b906121e2825490565b6121eb81612146565b926121ff6020850191600052602060002090565b6000915b8383106122105750505050565b60036020600192612220856121d0565b815201920192019190612203565b610287906121d9565b600361224f61028792612248606090565b508261051b565b0161222e565b61028791600061226a611da693612248600090565b01610c18565b6102a99061229d7f5246556c0ab216b5b325ad7c539bfbd1a07c768773cdf810fecd3c3375c27407613539565b6122ee565b156122a957565b60405162461bcd60e51b815260206004820152601c60248201527f546f6b656e20616464726573732063616e6e6f74206265207a65726f000000006044820152606490fd5b6123239061231361230261027b6000611182565b6001600160a01b03831614156122a2565b611266600061156c836005610c18565b61232c33610a6d565b907fef28645d2497b541620c69d4a940c5bf58d555dbe5a5acb0301a23772318dcce6112af60405190565b6102a990612270565b6102a99061238d7f5246556c0ab216b5b325ad7c539bfbd1a07c768773cdf810fecd3c3375c27407613539565b6123b1906123a161230261027b6000611182565b611266600161156c836005610c18565b6123ba33610a6d565b907f686b708372a0c49a02d9696704324e7f498a20123c3f2917787d29e416253c136112af60405190565b6102a990612360565b156123f557565b60405162461bcd60e51b815260206004820152601360248201527f46756e64206e6f742069737375656420796574000000000000000000000000006044820152606490fd5b1561244157565b60405162461bcd60e51b815260206004820152601060248201527f4e6f20746f6b656e7320697373756564000000000000000000000000000000006044820152606490fd5b8181029291811591840414171561179e57565b634e487b7160e01b600052601260045260246000fd5b81156124b9570490565b612499565b6102879061253261252c61251560056124db61028786600361051b565b6124ef6124ea60078301610689565b6123ee565b01936125106124fd8661065e565b61250a611cca600061034d565b1161243a565b613708565b612526670de0b6b3a764000061034d565b90612486565b9161065e565b906124af565b6102a991906125667f5246556c0ab216b5b325ad7c539bfbd1a07c768773cdf810fecd3c3375c27407613539565b9061257891612573613861565b612580565b6102a96138ba565b906102a99161258d6136a7565b61279c565b1561259957565b60405162461bcd60e51b815260206004820152601260248201527f496e76616c69642066756e6420737461746500000000000000000000000000006044820152606490fd5b156125e557565b60405162461bcd60e51b815260206004820152601d60248201527f546f6b656e20737570706c79206d75737420626520706f7369746976650000006044820152606490fd5b1561263157565b60405162461bcd60e51b815260206004820152601560248201527f496e73756666696369656e74206465706f7369747300000000000000000000006044820152606490fd5b1561267d57565b60405162461bcd60e51b815260206004820152601860248201527f46756e642076616c75652062656c6f77206d696e696d756d00000000000000006044820152606490fd5b805460009392916126d561057e83610541565b91600181169081156105da57506001146126ee57505050565b6127019192939450600052602060002090565b916000925b8184106127135750500190565b805484840152602090930192600101612706565b611c3d611c2b6102a99597969461274c606095608086019086820360008801526126c2565b9084820360208601526126c2565b6040808252610287939192612771918401906126c2565b9160208184039101526126c2565b6001600160a01b0390911681526040810192916102a99160200152565b6127aa611cb4611cb06114b0565b6127b861028782600361051b565b9160078301926127c784610673565b80612a3a575b6127d690612592565b6000926127ec6127e58561034d565b84116125de565b6127fd6127f8826138cc565b61262a565b61281e61280982613708565b612817611cca610287610f7f565b1015612676565b61283961282c82600661051b565b546001600160a01b031690565b80612849611d5061027b88611182565b1461293a575b61126661285b91610a6d565b9461286530610a6d565b92863b156102765785856128ad9561287c60405190565b96879283927f40c10f190000000000000000000000000000000000000000000000000000000084526004840161277f565b0381838b5af191821561203b57611eb58660056001947f29e8dd856d962dce56c00e53057fe3cc2fc8a1e2fe2f8d7ba9bc50b1d81b43ad9a612907996102879861291d575b50506129018c60048301611a43565b01611a64565b9261145261291460405190565b9283928361277f565b8161293392903d1061203457612025818361060f565b38806128f2565b50612950611efc6007546001600160a01b031690565b8061295d61126683610a6d565b90868501600186019361296f30610a6d565b93803b1561027657868a916129a9968361298860405190565b80998195829461299c63d1ec8bf760e01b90565b84528d8b60048601612727565b03925af1801561203b5761285b95611266957f14e7bc6e05e67805cce2ed86869c250a902d27e5a87690b4583ebc558dcda4ef92612a1e575b506129f283611fa98a600661051b565b6129fd885b93610a6d565b93612a13612a0a60405190565b9283928361275a565b0390a391505061284f565b612a34908c8d3d1061203457612025818361060f565b386129e2565b506127d6612a4a611cb086610689565b90506127cd565b906102a991612538565b15612a6257565b60405162461bcd60e51b815260206004820152600f60248201527f46756e64206e6f742061637469766500000000000000000000000000000000006044820152606490fd5b905051906102a982610491565b919060408382031261027657610287906020612ad08286612aa7565b9401612aa7565b906121536108778361083e565b612aee6028612ad7565b7f4173736574206e6f7420737570706f72746564206f7220707269636520756e6160208201527f7661696c61626c65000000000000000000000000000000000000000000000000604082015290565b610287612ae4565b905051906102a982610397565b919060808382031261027657610935906060612b6e608061082a565b94612b798382612b45565b8652612b888360208301612b45565b6020870152612b9a8360408301612b45565b604087015201612b45565b906080828203126102765761028791612b52565b612bc36025612ad7565b7f496e73756666696369656e74206c697175696469747920666f7220726564656d60208201527f7074696f6e000000000000000000000000000000000000000000000000000000604082015290565b610287612bb9565b6102876000612ad7565b610287612c1a565b612c3c610287600392600361051b565b90612c51612c4c60078401610673565b612a5b565b600090612c5d8261034d565b818401612c6b610287825490565b821015612e2457612c7f82612c8392611aa9565b5090565b612c9061126660026111e7565b612ce9604086840192612ca284612164565b90612cac60405190565b938492839182917fc7f3660d000000000000000000000000000000000000000000000000000000005b835263ffffffff1660048301526024820190565b03915afa90811561203b5786908792612df1575b50155b908115612de8575b50612dd9576080612d6091612d29612d2361126660026111e7565b91612164565b90612d3360405190565b938492839182917fa903f2e700000000000000000000000000000000000000000000000000000000612cd5565b03915afa90811561203b576102876002612d8a6040612d9195611cca958b91612dab575b50015190565b940161065e565b10612d9e57600101612c5d565b5050905090610287612c12565b612dcc915060803d8111612dd2575b612dc4818361060f565b810190612ba5565b38612d84565b503d612dba565b50505050905090610287612b3d565b15905038612d08565b612d009250612e17915060403d8111612e1d575b612e0f818361060f565b810190612ab4565b91612cfd565b503d612e05565b5050505050600190610287612c24565b906102a991612e4461116b610c85565b906007612e556102a993600361051b565b01611524565b906102a991612e34565b906125789291612e73613861565b906102a99291612e816136a7565b613002565b15612e8d57565b60405162461bcd60e51b815260206004820152601d60248201527f4f6e6c792066756e642063726561746f722063616e206465706f7369740000006044820152606490fd5b15612ed957565b60405162461bcd60e51b815260206004820152601560248201527f4172726179206c656e677468206d69736d6174636800000000000000000000006044820152606490fd5b15612f2557565b60405162461bcd60e51b815260206004820152601460248201527f4e6f20746f6b656e7320746f206465706f7369740000000000000000000000006044820152606490fd5b15612f7157565b60405162461bcd60e51b815260206004820152601760248201527f416d6f756e74206d75737420626520706f7369746976650000000000000000006044820152606490fd5b15612fbd57565b60405162461bcd60e51b815260206004820152601c60248201527f546f6b656e206e6f7420696e2066756e6420636f6d706f6e656e7473000000006044820152606490fd5b91929092613014611cb4611cb06114b0565b60039261302561028782600361051b565b9361304c61303d60028701546001600160a01b031690565b61304633611d50565b14612e86565b61306c6007860161305c81610673565b9081613243575b50949194612592565b61308b613077875190565b613085611cca610287875190565b14612ed2565b85516130a560009161309f611cca8461034d565b11612f1e565b6130ae8161034d565b945b6130bb610287895190565b861015613239576130e86130d66130d288886116c9565b5190565b6130e2611cca8561034d565b11612f6a565b81926130f38361034d565b828901613101610287825490565b821015613229578a89613147611d5061027b61313a6131338b6131248a8a611aa9565b5001546001600160a01b031690565b94866116c9565b516001600160a01b031690565b146131565750506001016130f3565b6132229496506131bf6131c69361319961317a61126661313a8f999f6002976116c9565b8c6131916130d28a61318b30610a6d565b936116c9565b913390613982565b6131b98b611dbf6130d28961318b886131b2888c611aa9565b500161065e565b93611aa9565b5001611a64565b6131d06001612fb6565b6131dd61313a828b6116c9565b7fa5acfcde5118075b17c34a71ac1feff954a6696141900041d1da05095063ae6561320b6130d2848a6116c9565b879261321961291460405190565b0390a260010190565b94916130b0565b5050956131d06132229294612fb6565b5050945050505050565b6132519150611cb090610689565b38613063565b906102a99291612e65565b6102876114b0565b6102a99291906132997f5246556c0ab216b5b325ad7c539bfbd1a07c768773cdf810fecd3c3375c27407613539565b9061257892916132a7613861565b906102a992916132b56136a7565b613352565b156132c157565b60405162461bcd60e51b815260206004820152600f60248201527f46756e64206e6f742069737375656400000000000000000000000000000000006044820152606490fd5b1561330d57565b60405162461bcd60e51b815260206004820152601160248201527f496e76616c696420726563697069656e740000000000000000000000000000006044820152606490fd5b906133c3611266600461337b6102876102a99796613374611cb4611cb06114b0565b600361051b565b61338f61338a60078301610689565b6132ba565b6133b061339f61027b6000611182565b6001600160a01b0387161415613306565b611e3b6133bd600061034d565b876130e2565b6139cc565b906102a9929161326a565b61028790610636565b6133ea61028782600361051b565b60078101926133f884610689565b6000901561346c575061340a836124be565b60018301948361343e600561343761282c61342f60028601546001600160a01b031690565b99600661051b565b960161065e565b9361346361345d61345761345186610673565b95610689565b936133d3565b986133d3565b96959493929190565b6134759061034d565b61340a565b906102a99161348b61116b8261132a565b90611364916135b4565b906102a99161347a565b906134ba6134ae610b0f845490565b92600052602060002090565b9060005b8181106134cb5750505090565b9091926134e8611dc56001926134e08761065e565b815260200190565b9291016134be565b906102879161349f565b906102a96106509261350b60405190565b938480926134f0565b610287906134fa565b6135346102879161352c606090565b506004610c18565b613514565b6102a9903390613a00565b613551611cb08383612255565b156135ad5761356b600161156c84600061226a868261051b565b61357961127e6129f7339390565b917f2f8788117e7eff1d82e926ec794901d17c78024a50270940304540a733656f0d6135a460405190565b600090a4600190565b5050600090565b6135be8282612255565b156135ad576135d7600061156c848261226a868261051b565b6135e561127e6129f7339390565b917ff6391f5c32d9c69d2a47ea670b442974b53935d1edc7fd64eb21e047a839171b6135a460405190565b613618613a51565b6102a961362760006002611524565b7f5db9ee0a495bf2e6ff9c91a7834c1ba4fdd244a5e8aa4e537bd38aeae4b073aa61365133610bb2565b0390a1565b6102a9613610565b6136666136a7565b6102a961367560016002611524565b7f62e78cea01bee320cd4e420270b5ea74000d11b0c9f74754ebdbfc544b05a25861365133610bb2565b6102a961365e565b6136af6114b0565b6136b557565b6040517fd93c0665000000000000000000000000000000000000000000000000000000008152600490fd5b610287906136ee600061034d565b90613aa0565b906020828203126102765761028791612b45565b613718610287600392600361051b565b906000926137258461034d565b91825b818501613736610287825490565b82101561384d57612c7f8261374a92611aa9565b60028101906137588261065e565b613764611cca8a61034d565b11613779575b5050600101613728565b613728565b9460206137d093966137998a61379261126660026111e7565b9201612164565b906137a360405190565b958692839182917fda26663a00000000000000000000000000000000000000000000000000000000612cd5565b03915afa91821561203b5761380061381193611dbf92613774968c92613819575b506137fb9061065e565b612486565b612532670de0b6b3a764000061034d565b93903861376a565b6137fb91925061383f9060203d8111613846575b613837818361060f565b8101906136f4565b91906137f1565b503d61382d565b5050509250905090565b610287600261034d565b61386b600161065e565b613873613857565b908114613885576102a9906001611a64565b6040517f3ee5aeb5000000000000000000000000000000000000000000000000000000008152600490fd5b610287600161034d565b6102a96138c56138b0565b6001611a64565b6138dc610287600392600361051b565b906000906138ea600061034d565b8184016138f8610287825490565b82101561392e5760026131b28361390e93611aa9565b61391a611cca8561034d565b14613927576001016138ea565b5050905090565b5050505050600190565b61395161394b6102879263ffffffff1690565b60e01b90565b6001600160e01b03191690565b6001600160a01b039182168152911660208201526060810192916102a99160400152565b906139c7906139b86102a99560049561399e6323b872dd613938565b936139a860405190565b978895602087019081520161395e565b6020820181038252038361060f565b613b7b565b6139c76004926139b86102a9956139e663a9059cbb613938565b926139f060405190565b968794602086019081520161277f565b90613a0e611cb08284612255565b613a16575050565b6111d7613a2260405190565b9283927fe2517d3f0000000000000000000000000000000000000000000000000000000084526004840161277f565b613a5c611cb06114b0565b613a6257565b6040517f8dfc202b000000000000000000000000000000000000000000000000000000008152600490fd5b9081526040810192916102a99160200152565b613aa930610a6d565b82813110613b3d57506037916e5af43d82803e903d91602b57fd5bf382763d602d80600a3d3981f3363d3d373d3d3d363d7300000060099460601b60e81c1760005260781b17602052f090613b0161027b6000611182565b6001600160a01b03831614613b1257565b6040517fb06ebf3d000000000000000000000000000000000000000000000000000000008152600490fd5b9050316111d7613b4c60405190565b9283927fcf47918100000000000000000000000000000000000000000000000000000000845260048401613a8d565b906000602091613b89600090565b50828151910182855af115611c41573d60005190613baa611cca600061034d565b03613c1c5750613bb981610a6d565b3b613bc7611cca600061034d565b145b613bd05750565b613bdc6111d791610a6d565b6040519182917f5274afe7000000000000000000000000000000000000000000000000000000008352600483016001600160a01b03909116815260200190565b613c29611cca600161034d565b1415613bc956fea264697066735822122090cf77332f0c1923a50308508a62b301ecbdda7ec4a82cb79b21d870545e157064736f6c634300081600336080604052346200002657620000146200002b565b604051611dad620001af8239611dad90f35b600080fd5b62000035620000bc565b565b620000459060401c60ff1690565b90565b62000045905462000037565b62000045905b6001600160401b031690565b62000045905462000054565b62000045906200005a906001600160401b031682565b906200009c62000045620000b89262000072565b82546001600160401b0319166001600160401b03919091161790565b9055565b6000620000c86200015f565b01620000d48162000048565b6200014d57620000e48162000066565b6001600160401b0391908290811603620000fc575050565b816200012e7fc7f505b2f371ae2175ee4913f4499e1f2633a7b5936321eed1cdaeb6115181d293620001489362000088565b604051918291826001600160401b03909116815260200190565b0390a1565b60405163f92ee8a960e01b8152600490fd5b62000045620001a4565b6200004562000045620000459290565b620000457ff0c57e16840df040f15088dc2f81fe391c3923bec73e23a9662efc9c229c6a0062000169565b620000456200017956fe6080604052600436101561001257600080fd5b60003560e01c806306fdde031461016257806308a91f881461015d578063095ea7b31461015857806318160ddd1461015357806323b872dd1461014e578063313ce5671461014957806340c10f19146101445780635556925c1461013f57806370a082311461013a578063715018a6146101355780638604d15b146101305780638da5cb5b1461012b57806395d89b411461012657806399d50d5d146101215780639dc29fac1461011c578063a9059cbb14610117578063c45a015514610112578063d1ec8bf71461010d578063d766705a14610108578063dd62ed3e146101035763f2fde38b03610167576107dd565b6107c1565b610783565b610767565b61062d565b6105e6565b6105cd565b6105a6565b6104dd565b6104a8565b61048d565b610454565b610439565b6103f1565b610361565b610332565b610316565b6102d2565b6102a4565b610217565b6101e6565b600080fd5b600091031261016757565b60005b83811061018a5750506000910152565b818101518382015260200161017a565b6101bb6101c46020936101ce936101af815190565b80835293849260200190565b95869101610177565b601f01601f191690565b0190565b60208082526101e39291019061019a565b90565b34610167576101f636600461016c565b61020d6102016108ed565b604051918291826101d2565b0390f35b9052565b565b346101675761022736600461016c565b61020d6102326109da565b6040515b9182918290815260200190565b6001600160a01b031690565b6001600160a01b0381165b0361016757565b905035906102158261024f565b8061025a565b905035906102158261026e565b9190604083820312610167576101e390602061029d8286610261565b9401610274565b346101675761020d6102c06102ba366004610281565b90610a8c565b60405191829182901515815260200190565b34610167576102e236600461016c565b61020d610232610aad565b9091606082840312610167576101e36103068484610261565b93604061029d8260208701610261565b346101675761020d6102c061032c3660046102ed565b91610ad6565b346101675761034236600461016c565b61020d61034d610aff565b6040519182918260ff909116815260200190565b346101675761037a610374366004610281565b90610b92565b604051005b929796946103e0906103d960c0966103d26103c06103e9976103b26102159d9860e08c01908c600081840391015261019a565b908a820360208c015261019a565b6001600160a01b03909d166040890152565b6060870152565b6080850152565b151560a0830152565b019015159052565b346101675761040136600461016c565b61020d61040c610c9f565b9361041c97959793919360405190565b9788978861037f565b90602082820312610167576101e391610261565b346101675761020d61023261044f366004610425565b610d74565b346101675761046436600461016c565b61037a610deb565b6101e3916008021c81565b906101e3915461046c565b6101e3600080610477565b346101675761049d36600461016c565b61020d610232610482565b34610167576104b836600461016c565b61020d6104c3610df3565b604051918291826001600160a01b03909116815260200190565b34610167576104ed36600461016c565b61020d610201610e1c565b80516001600160a01b031682526102159190606090819060208181015163ffffffff169085015261052e60408201516040860152565b0151910152565b906101ce816080936104f8565b9061056261055b610551845190565b8084529260200190565b9260200190565b9060005b8181106105735750505090565b90919261058d6105866001928651610535565b9460200190565b929101610566565b60208082526101e392910190610542565b34610167576105b636600461016c565b61020d6105c1610f61565b60405191829182610595565b346101675761037a6105e0366004610281565b90611008565b346101675761020d6102c06105fc366004610281565b90611012565b6101e3916008021c6001600160a01b031690565b906101e39154610602565b6101e360006001610616565b346101675761063d36600461016c565b61020d6104c3610621565b634e487b7160e01b600052604160045260246000fd5b90601f01601f1916810190811067ffffffffffffffff82111761068057604052565b610648565b9061021561069260405190565b928361065e565b67ffffffffffffffff811161068057602090601f01601f19160190565b90826000939282370152565b909291926106d76106d282610699565b610685565b9381855281830111610167576102159160208501906106b6565b9080601f83011215610167578160206101e3933591016106c2565b60808183031261016757803567ffffffffffffffff811161016757826107339183016106f1565b92602082013567ffffffffffffffff811161016757610757846101e39285016106f1565b93606061029d8260408701610261565b346101675761037a61077a36600461070c565b9291909161137a565b346101675761079336600461016c565b61020d610232611386565b9190604083820312610167576101e39060206107ba8286610261565b9401610261565b346101675761020d6102326107d736600461079e565b9061140b565b346101675761037a6107f0366004610425565b6114cf565b634e487b7160e01b600052602260045260246000fd5b906001600283049216801561082b575b602083101461082657565b6107f5565b91607f169161081b565b805460009392916108526108488361080b565b8085529360200190565b91600181169081156108a4575060011461086b57505050565b61087e9192939450600052602060002090565b916000925b8184106108905750500190565b805484840152602090930192600101610883565b92949550505060ff1916825215156020020190565b906101e391610835565b906102156108dd926108d460405190565b938480926108b9565b038361065e565b6101e3906108c3565b6101e360037f52c63247e1f47db19d5ce0460030c497f067ca4cebf71ba98eeadabe20bace005b016108e4565b6102436101e36101e3926001600160a01b031690565b6101e39061091a565b6101e390610930565b905051906102158261026e565b90602082820312610167576101e391610942565b6040513d6000823e3d90fd5b634e487b7160e01b600052601160045260246000fd5b8181029291811591840414171561099857565b61096f565b6101e36101e36101e39290565b634e487b7160e01b600052601260045260246000fd5b906109ca565b9190565b9081156109d5570490565b6109aa565b6109e330610939565b60206109ee60405190565b7fd766705a00000000000000000000000000000000000000000000000000000000815291829060049082905afa908115610a87576101e391610a4191600091610a58575b50610a3b610aad565b90610985565b610a52670de0b6b3a764000061099d565b906109c0565b610a7a915060203d602011610a80575b610a72818361065e565b81019061094f565b38610a32565b503d610a68565b610963565b610a979190336114d8565b600190565b6101e39081565b6101e39054610a9c565b6101e37f52c63247e1f47db19d5ce0460030c497f067ca4cebf71ba98eeadabe20bace02610aa3565b610a97929190610ae7833383611510565b61158e565b610af96101e36101e39290565b60ff1690565b6101e36012610aec565b6101e390610243565b6101e39054610b09565b15610b2357565b60405162461bcd60e51b815260206004820152601560248201527f4f6e6c7920666163746f72792063616e2063616c6c00000000000000000000006044820152606490fd5b0390fd5b9061021591610b88610b816102436001610b12565b3314610b1c565b906102159161166d565b9061021591610b6c565b90929192610bac6106d282610699565b938185528183011161016757610215916020850190610177565b9080601f830112156101675781516101e392602001610b9c565b905051906102158261024f565b80151561025a565b9050519061021582610bed565b91906101008382031261016757825167ffffffffffffffff81116101675781610c2c918501610bc6565b92602081015167ffffffffffffffff81116101675782610c4d918301610bc6565b92610c5b8360408401610be0565b92610c698160608501610be0565b92610c778260808301610942565b926101e3610c888460a08501610942565b9360e0610c988260c08701610bf5565b9401610bf5565b610d04906000610cba610cb5610cb56001610b12565b610939565b610cc382610aa3565b90610ccd60405190565b948592839182917fbdf247c2000000000000000000000000000000000000000000000000000000005b835260048301526024820190565b03915afa908115610a875760008093819382938380938193610d2b575b5096959493929190565b9550935095505050610d4f92503d8091833e610d47818361065e565b810190610c02565b9295979194969093610d21565b90610d6690610939565b600052602052604060002090565b610dae6101e391610d83600090565b5060007f52c63247e1f47db19d5ce0460030c497f067ca4cebf71ba98eeadabe20bace005b01610d5c565b610aa3565b610dbb6116aa565b610215610dd9565b6102436101e36101e39290565b6101e390610dc3565b610215610de66000610dd0565b611711565b610215610db3565b6101e37f9016d09d72d40fdae2fd8ceac6b6234c7706214fd39c1cd1e609a0528c199300610b12565b6101e360047f52c63247e1f47db19d5ce0460030c497f067ca4cebf71ba98eeadabe20bace00610914565b67ffffffffffffffff81116106805760208091020190565b63ffffffff811661025a565b9050519061021582610e5f565b919060808382031261016757610ecb906060610e946080610685565b94610e9f8382610be0565b8652610eae8360208301610e6b565b6020870152610ec08360408301610942565b604087015201610942565b6060830152565b90929192610ee26106d282610e47565b93818552608060208601920283019281841161016757915b838310610f075750505050565b6020608091610f168486610e78565b815201920191610efa565b9080601f830112156101675781516101e392602001610ed2565b9060208282031261016757815167ffffffffffffffff8111610167576101e39201610f21565b610fb66000610f76610cb5610cb56001610b12565b610f7f82610aa3565b90610f8960405190565b938492839182917f75bb1d1700000000000000000000000000000000000000000000000000000000610cf6565b03915afa908115610a8757600091610fcc575090565b6101e391503d806000833e610fe1818361065e565b810190610f3b565b9061021591610ffe610b816102436001610b12565b9061021591611784565b9061021591610fe9565b610a9791903361158e565b6101e39060401c610af9565b6101e3905461101d565b6101e3905b67ffffffffffffffff1690565b6101e39054611033565b6110386101e36101e39290565b9067ffffffffffffffff905b9181191691161790565b6110386101e36101e39267ffffffffffffffff1690565b906110996101e36110a092611072565b825461105c565b9055565b9068ff00000000000000009060401b611068565b906110c86101e36110a092151590565b82546110a4565b6102119061104f565b60208101929161021591906110cf565b929190916110f46117c2565b93849161111061110a61110685611029565b1590565b93611045565b9360009561111d8761104f565b67ffffffffffffffff87161480611235575b60019661114c61113e8961104f565b9167ffffffffffffffff1690565b149081611211575b155b9081611208575b506111dd57611186938561117d896111748a61104f565b9b019a8b611089565b6111ce57611319565b61118f57505050565b6111bd6111c9927fc7f505b2f371ae2175ee4913f4499e1f2633a7b5936321eed1cdaeb6115181d2946110b8565b604051918291826110d8565b0390a1565b6111d8878a6110b8565b611319565b6040517ff92ee8a9000000000000000000000000000000000000000000000000000000008152600490fd5b1590503861115d565b905061115661121f30610939565b3b61122c6109c68b61099d565b14919050611154565b508461112f565b1561124357565b60405162461bcd60e51b815260206004820152601e60248201527f466163746f727920616464726573732063616e6e6f74206265207a65726f00006044820152606490fd5b1561128f57565b60405162461bcd60e51b815260206004820152601660248201527f46756e642049442063616e6e6f74206265207a65726f000000000000000000006044820152606490fd5b9060001990611068565b906112ec6101e36110a09290565b82546112d4565b906001600160a01b0390611068565b906113126101e36110a092610939565b82546112f3565b9261136361137392610215956113466113356102436000610dd0565b6001600160a01b038816141561123c565b61135e6113566101e3600061099d565b851415611288565b6117e1565b61136c83611800565b60006112de565b6001611302565b906102159392916110e8565b6113dc602061139b610cb5610cb56001610b12565b6113a56000610aa3565b906113af60405190565b938492839182917f9ff2eb5600000000000000000000000000000000000000000000000000000000610cf6565b03915afa908115610a87576000916113f2575090565b6101e3915060203d602011610a8057610a72818361065e565b6101e391611447610dae9261141e600090565b5060017f52c63247e1f47db19d5ce0460030c497f067ca4cebf71ba98eeadabe20bace00610da8565b610d5c565b610215906114586116aa565b6114626000610dd0565b6001600160a01b0381166001600160a01b03831614611485575061021590611711565b610b689061149260405190565b9182917f1e4fbdf7000000000000000000000000000000000000000000000000000000008352600483016001600160a01b03909116815260200190565b6102159061144c565b9160019161021593611819565b6001600160a01b03909116815260608101939261021592909160409161150c906020830152565b0152565b9161151b828461140b565b600019811061152b575b50505050565b818110611551579161154261154894926000940390565b91611819565b38808080611525565b82610b688361155f60405190565b9384937ffb8f41b2000000000000000000000000000000000000000000000000000000008552600485016114e5565b92919061159b6000610dd0565b936001600160a01b0385166001600160a01b03821614611623576001600160a01b0385166001600160a01b038316146115d957610215939450611977565b610b68856115e660405190565b9182917fec442f05000000000000000000000000000000000000000000000000000000008352600483016001600160a01b03909116815260200190565b610b688561163060405190565b9182917f96c6fd1e000000000000000000000000000000000000000000000000000000008352600483016001600160a01b03909116815260200190565b91906116796000610dd0565b926001600160a01b0384166001600160a01b0382161461169d576102159293611977565b610b68846115e660405190565b6116b2610df3565b339081906001600160a01b0316036116c75750565b610b68906116d460405190565b9182917f118cdaa7000000000000000000000000000000000000000000000000000000008352600483016001600160a01b03909116815260200190565b61175161174b7f9016d09d72d40fdae2fd8ceac6b6234c7706214fd39c1cd1e609a0528c199300610cb58461174583610b12565b92611302565b91610939565b907f8be0079c531659141344cd1fd0a4f28419497f9722a3daafe3b4186f6b6457e061177c60405190565b80805b0390a3565b91906117906000610dd0565b926001600160a01b0384166001600160a01b038216146117b557926102159293611977565b610b688461163060405190565b6101e36119ab565b90610215916117d76119b3565b9061021591611bc4565b90610215916117ca565b610215906117f76119b3565b61021590611bda565b610215906117eb565b906112ec6101e36110a09261099d565b9091926118437f52c63247e1f47db19d5ce0460030c497f067ca4cebf71ba98eeadabe20bace0090565b61184d6000610dd0565b6001600160a01b0381166001600160a01b0385161461192d576001600160a01b0381166001600160a01b038616146118e35750846118958561144786600161189a9601610d5c565b611809565b6118a357505050565b61177f6118d96118d37f8c5be1e5ebec7d5bd14f71427d1e84f3dd0314c0f7b2291e5b200ac8c7c3b92593610939565b93610939565b9361023660405190565b610b68906118f060405190565b9182917f94280d62000000000000000000000000000000000000000000000000000000008352600483016001600160a01b03909116815260200190565b610b689061193a60405190565b9182917fe602df05000000000000000000000000000000000000000000000000000000008352600483016001600160a01b03909116815260200190565b906102159291611bf0565b6101e37ff0c57e16840df040f15088dc2f81fe391c3923bec73e23a9662efc9c229c6a0061099d565b6101e3611982565b6119be611106611d64565b6119c457565b6040517fd7e6bcf8000000000000000000000000000000000000000000000000000000008152600490fd5b90610215916119fc6119b3565b611b83565b9160001960089290920291821b911b611068565b9190611a266101e36110a09361099d565b908354611a01565b61021591600091611a15565b818110611a45575050565b80611a536000600193611a2e565b01611a3a565b9190601f8111611a6857505050565b611a7a61021593600052602060002090565b906020601f840181900483019310611a9c575b6020601f909101040190611a3a565b9091508190611a8d565b90611aaf815190565b9067ffffffffffffffff821161068057611ad382611acd855461080b565b85611a59565b602090601f8311600114611b0e576110a0929160009183611b03575b5050600019600883021c1916906002021790565b015190503880611aef565b601f19831691611b2385600052602060002090565b9260005b818110611b6157509160029391856001969410611b48575b50505002019055565b01516000196008601f8516021c19169055388080611b3f565b91936020600181928787015181550195019201611b27565b9061021591611aa6565b90600461021592611bbe611bb47f52c63247e1f47db19d5ce0460030c497f067ca4cebf71ba98eeadabe20bace0090565b9160038301611b79565b01611b79565b90610215916119ef565b610215906114586119b3565b61021590611bce565b9190820180921161099857565b7f52c63247e1f47db19d5ce0460030c497f067ca4cebf71ba98eeadabe20bace0082611c1c6000610dd0565b6001600160a01b0381166001600160a01b03851603611cc8577fddf252ad1be2c89b69c2b068fc378daa952ba7f163c4a11628f55a4df523b3ef93836118d993611c856118d394610243600261177f9901611c7f8d611c7a83610aa3565b611be3565b90611809565b6001600160a01b03821603611cad57506002610cb59101611c7f89611ca983610aa3565b0390565b610cb591611cbb9190610d5c565b611c7f896101ce83610aa3565b905081611cd8610dae8583610d5c565b868110611d27579361177f9386611c856118d9956102436118d39661189587611d218f7fddf252ad1be2c89b69c2b068fc378daa952ba7f163c4a11628f55a4df523b3ef9e0390565b92610d5c565b84610b6888611d3560405190565b9384937fe450d38c000000000000000000000000000000000000000000000000000000008552600485016114e5565b6101e36000611d716117c2565b0161102956fea2646970667358221220a924eda6caf6959e094d6828bdbaed1956c7b303ee5aa7df7c2f045b1a852ace64736f6c63430008160033",
  "linkReferences": {},
  "deployedLinkReferences": {}
}