{
  "_format": "hh-sol-artifact-1",
  "contractName": "HyperIndexFactoryLite",
  "sourceName": "contracts/HyperIndexFactoryLite.sol",
  "abi": [
    {
      "inputs": [
        {
          "internalType": "address",
          "name": "_owner",
          "type": "address"
        }
      ],
      "stateMutability": "nonpayable",
      "type": "constructor"
    },
    {
      "inputs": [
        {
          "internalType": "address",
          "name": "owner",
          "type": "address"
        }
      ],
      "name": "OwnableInvalidOwner",
      "type": "error"
    },
    {
      "inputs": [
        {
          "internalType": "address",
          "name": "account",
          "type": "address"
        }
      ],
      "name": "OwnableUnauthorizedAccount",
      "type": "error"
    },
    {
      "anonymous": false,
      "inputs": [
        {
          "indexed": true,
          "internalType": "address",
          "name": "previousOwner",
          "type": "address"
        },
        {
          "indexed": true,
          "internalType": "address",
          "name": "newOwner",
          "type": "address"
        }
      ],
      "name": "OwnershipTransferred",
      "type": "event"
    },
    {
      "anonymous": false,
      "inputs": [
        {
          "indexed": true,
          "internalType": "address",
          "name": "token0",
          "type": "address"
        },
        {
          "indexed": true,
          "internalType": "address",
          "name": "token1",
          "type": "address"
        },
        {
          "indexed": false,
          "internalType": "address",
          "name": "pair",
          "type": "address"
        },
        {
          "indexed": false,
          "internalType": "uint256",
          "name": "pairLength",
          "type": "uint256"
        }
      ],
      "name": "PairCreated",
      "type": "event"
    },
    {
      "inputs": [
        {
          "internalType": "uint256",
          "name": "",
          "type": "uint256"
        }
      ],
      "name": "allPairs",
      "outputs": [
        {
          "internalType": "address",
          "name": "",
          "type": "address"
        }
      ],
      "stateMutability": "view",
      "type": "function"
    },
    {
      "inputs": [],
      "name": "allPairsLength",
      "outputs": [
        {
          "internalType": "uint256",
          "name": "",
          "type": "uint256"
        }
      ],
      "stateMutability": "view",
      "type": "function"
    },
    {
      "inputs": [
        {
          "internalType": "address",
          "name": "tokenA",
          "type": "address"
        },
        {
          "internalType": "address",
          "name": "tokenB",
          "type": "address"
        }
      ],
      "name": "createPair",
      "outputs": [
        {
          "internalType": "address",
          "name": "pair",
          "type": "address"
        }
      ],
      "stateMutability": "nonpayable",
      "type": "function"
    },
    {
      "inputs": [],
      "name": "feeTo",
      "outputs": [
        {
          "internalType": "address",
          "name": "",
          "type": "address"
        }
      ],
      "stateMutability": "view",
      "type": "function"
    },
    {
      "inputs": [
        {
          "internalType": "address",
          "name": "",
          "type": "address"
        },
        {
          "internalType": "address",
          "name": "",
          "type": "address"
        }
      ],
      "name": "getPair",
      "outputs": [
        {
          "internalType": "address",
          "name": "",
          "type": "address"
        }
      ],
      "stateMutability": "view",
      "type": "function"
    },
    {
      "inputs": [],
      "name": "owner",
      "outputs": [
        {
          "internalType": "address",
          "name": "",
          "type": "address"
        }
      ],
      "stateMutability": "view",
      "type": "function"
    },
    {
      "inputs": [],
      "name": "pairImplementation",
      "outputs": [
        {
          "internalType": "address",
          "name": "",
          "type": "address"
        }
      ],
      "stateMutability": "view",
      "type": "function"
    },
    {
      "inputs": [],
      "name": "renounceOwnership",
      "outputs": [],
      "stateMutability": "nonpayable",
      "type": "function"
    },
    {
      "inputs": [
        {
          "internalType": "address",
          "name": "_feeTo",
          "type": "address"
        }
      ],
      "name": "setFeeTo",
      "outputs": [],
      "stateMutability": "nonpayable",
      "type": "function"
    },
    {
      "inputs": [
        {
          "internalType": "address",
          "name": "_pairImplementation",
          "type": "address"
        }
      ],
      "name": "setPairImplementation",
      "outputs": [],
      "stateMutability": "nonpayable",
      "type": "function"
    },
    {
      "inputs": [
        {
          "internalType": "address",
          "name": "newOwner",
          "type": "address"
        }
      ],
      "name": "transferOwnership",
      "outputs": [],
      "stateMutability": "nonpayable",
      "type": "function"
    }
  ],
  "bytecode": "0x60806040523462000030576200001e62000018620000d3565b620000f6565b604051610ba4620002638239610ba490f35b600080fd5b634e487b7160e01b600052604160045260246000fd5b90601f01601f191681019081106001600160401b038211176200006d57604052565b62000035565b906200008a6200008260405190565b92836200004b565b565b6001600160a01b031690565b90565b6001600160a01b038116036200003057565b905051906200008a826200009b565b9060208282031262000030576200009891620000ad565b6200009862000e0780380380620000ea8162000073565b928339810190620000bc565b6200008a906200012f565b6200008c62000098620000989290565b620000989062000101565b6001600160a01b03909116815260200190565b6200013b600062000111565b6001600160a01b0381166001600160a01b038316146200016157506200008a9062000202565b62000187906200017060405190565b631e4fbdf760e01b8152918291600483016200011c565b0390fd5b62000098906200008c565b6200009890546200018b565b62000098906200008c906001600160a01b031682565b6200009890620001a2565b6200009890620001b8565b90620001e262000098620001fe92620001c3565b82546001600160a01b0319166001600160a01b03919091161790565b9055565b620002306200022962000216600062000196565b62000223846000620001ce565b620001c3565b91620001c3565b907f8be0079c531659141344cd1fd0a4f28419497f9722a3daafe3b4186f6b6457e06200025c60405190565b600090a356fe6080604052600436101561001257600080fd5b60003560e01c8063017e7e58146100c25780631e3dd18b146100bd578063574f2ba3146100b85780636b262edc146100b3578063715018a6146100ae57806371f3c596146100a95780638da5cb5b146100a4578063c9c653961461009f578063e6a439051461009a578063f2fde38b146100955763f46901ed036100c7576103a9565b610391565b610375565b6102ee565b6102b0565b610295565b610271565b610254565b6101fe565b6101e3565b610132565b600080fd5b60009103126100c757565b6100f9916008021c5b73ffffffffffffffffffffffffffffffffffffffff1690565b90565b906100f991546100d7565b6100f9600060036100fc565b61011c906100e0565b9052565b6020810192916101309190610113565b565b346100c7576101423660046100cc565b61015961014d610107565b60405191829182610120565b0390f35b805b036100c757565b905035906101308261015d565b906020828203126100c7576100f991610166565b634e487b7160e01b600052603260045260246000fd5b80548210156101c0576101b7600191600052602060002090565b91020190600090565b610187565b6002548110156100c7576101dd6100f991600261019d565b906100fc565b346100c75761015961014d6101f9366004610173565b6101c5565b346100c75761020e3660046100cc565b61015961021a60025490565b6040519182918290815260200190565b61015f816100e0565b905035906101308261022a565b906020828203126100c7576100f991610233565b346100c75761026c610267366004610240565b6104a9565b604051005b346100c7576102813660046100cc565b61026c6104cf565b6100f9600060046100fc565b346100c7576102a53660046100cc565b61015961014d610289565b346100c7576102c03660046100cc565b61015961014d6104ea565b91906040838203126100c7576100f99060206102e78286610233565b9401610233565b346100c75761015961014d6103043660046102cb565b906107da565b6100e06100f96100f99273ffffffffffffffffffffffffffffffffffffffff1690565b6100f99061030a565b6100f99061032d565b9061034990610336565b600052602052604060002090565b6103706100f99261036b600093600161033f565b61033f565b6100fc565b346100c75761015961014d61038b3660046102cb565b90610357565b346100c75761026c6103a4366004610240565b610a98565b346100c75761026c6103bc366004610240565b610ab8565b610130906103cd610ac1565b610479565b6100e06100f96100f99290565b6100f9906103d2565b0190565b156103f357565b60405162461bcd60e51b815260206004820152601660248201527f496e76616c696420696d706c656d656e746174696f6e000000000000000000006044820152606490fd5b0390fd5b9073ffffffffffffffffffffffffffffffffffffffff905b9181191691161790565b9061046e6100f961047592610336565b825461043c565b9055565b610130906104a261049261048d60006103df565b6100e0565b61049b836100e0565b14156103ec565b600461045e565b610130906103c1565b6104ba610ac1565b6101306101306104ca60006103df565b610b1b565b6101306104b2565b6100f9906100e0565b6100f990546104d7565b6100f960006104e0565b156104fb57565b60405162461bcd60e51b815260206004820152601660248201527f496d706c656d656e746174696f6e206e6f7420736574000000000000000000006044820152606490fd5b1561054757565b60405162461bcd60e51b815260206004820152602660248201527f4879706572496e646578466163746f72793a204944454e544943414c5f41444460448201527f52455353455300000000000000000000000000000000000000000000000000006064820152608490fd5b156105b957565b60405162461bcd60e51b815260206004820152601f60248201527f4879706572496e646578466163746f72793a205a45524f5f41444452455353006044820152606490fd5b1561060557565b60405162461bcd60e51b815260206004820152601e60248201527f4879706572496e646578466163746f72793a20504149525f45584953545300006044820152606490fd5b61065661011c916100e0565b60601b90565b6100f9916106996106926014937f3d602d80600a3d3981f3363d3d373d3d3d363d73000000000000000000000000815260140190565b809261064a565b017f5af43d82803e903d91602b57fd5bf300000000000000000000000000000000008152600f0190565b634e487b7160e01b600052604160045260246000fd5b90601f01601f1916810190811067ffffffffffffffff8211176106fb57604052565b6106c3565b6014816107126103e89383969561064a565b01809261064a565b91602061013092949361073560408201966000830190610113565b0190610113565b6040513d6000823e3d90fd5b9190600861045491029161076f73ffffffffffffffffffffffffffffffffffffffff841b90565b921b90565b91906107856100f961047593610336565b908354610748565b90815491680100000000000000008310156106fb57826107b59160016101309501815561019d565b90610774565b9160206101309294936107d660408201966000830190610113565b0152565b91906107e660046104e0565b60009361080f6107f5866103df565b92610808610802856100e0565b916100e0565b14156104f4565b61082b61081b846100e0565b610824836100e0565b1415610540565b610834836100e0565b61083d826100e0565b1015610a1f5791905b610862610852826100e0565b61085b856100e0565b14156105b2565b61089060019161088a61080261088461087f8761036b8a8961033f565b6104e0565b926100e0565b146105fe565b61089a60046104e0565b604051906108bc826108b060208201938461065c565b838103825203836106d9565b6040516108de81602081016108d2888a83610700565b908103825203826106d9565b6108f06108e9825190565b9160200190565b2091519087f59461090861090387610336565b610336565b91823b156100c7578161091a60405190565b9384907f485cc9550000000000000000000000000000000000000000000000000000000082528183816109518a8c6004840161071a565b03925af1918215610a1a5761036b8561098593889361098a978c976109ed575b505061036b866109858461036b888661033f565b61045e565b61099584600261078d565b7f0d3648bd0f6ba80134a33ba9275ac585d9d315f0ad8355cddefde31afa28d0e96109e86109d46109ce6109c860025490565b95610336565b93610336565b936109de60405190565b91829188836107bb565b0390a3565b81610a0c92903d10610a13575b610a0481836106d9565b8101906100cc565b3880610971565b503d6109fa565b61073c565b90610846565b61013090610a31610ac1565b610a3b60006103df565b610a44816100e0565b610a4d836100e0565b14610a5c575061013090610b1b565b61043890610a6960405190565b9182917f1e4fbdf700000000000000000000000000000000000000000000000000000000835260048301610120565b61013090610a25565b61013090610aad610ac1565b61013090600361045e565b61013090610aa1565b610ac96104ea565b3390610ad7610802836100e0565b03610adf5750565b61043890610aec60405190565b9182917f118cdaa700000000000000000000000000000000000000000000000000000000835260048301610120565b610b3c610b36610b2b60006104e0565b61090384600061045e565b91610336565b907f8be0079c531659141344cd1fd0a4f28419497f9722a3daafe3b4186f6b6457e0610b6760405190565b80806109e856fea26469706673582212205a149256871d4b8da62b6585ec1b544414dcfd16c2e4f8315e70d5aac1a6174b64736f6c63430008160033",
  "linkReferences": {},
  "deployedLinkReferences": {}
}