{
  "_format": "hh-sol-artifact-1",
  "contractName": "IndexToken",
  "sourceName": "contracts/IndexToken.sol",
  "abi": [
    {
      "inputs": [],
      "stateMutability": "nonpayable",
      "type": "constructor"
    },
    {
      "inputs": [
        {
          "internalType": "address",
          "name": "spender",
          "type": "address"
        },
        {
          "internalType": "uint256",
          "name": "allowance",
          "type": "uint256"
        },
        {
          "internalType": "uint256",
          "name": "needed",
          "type": "uint256"
        }
      ],
      "name": "ERC20InsufficientAllowance",
      "type": "error"
    },
    {
      "inputs": [
        {
          "internalType": "address",
          "name": "sender",
          "type": "address"
        },
        {
          "internalType": "uint256",
          "name": "balance",
          "type": "uint256"
        },
        {
          "internalType": "uint256",
          "name": "needed",
          "type": "uint256"
        }
      ],
      "name": "ERC20InsufficientBalance",
      "type": "error"
    },
    {
      "inputs": [
        {
          "internalType": "address",
          "name": "approver",
          "type": "address"
        }
      ],
      "name": "ERC20InvalidApprover",
      "type": "error"
    },
    {
      "inputs": [
        {
          "internalType": "address",
          "name": "receiver",
          "type": "address"
        }
      ],
      "name": "ERC20InvalidReceiver",
      "type": "error"
    },
    {
      "inputs": [
        {
          "internalType": "address",
          "name": "sender",
          "type": "address"
        }
      ],
      "name": "ERC20InvalidSender",
      "type": "error"
    },
    {
      "inputs": [
        {
          "internalType": "address",
          "name": "spender",
          "type": "address"
        }
      ],
      "name": "ERC20InvalidSpender",
      "type": "error"
    },
    {
      "inputs": [],
      "name": "InvalidInitialization",
      "type": "error"
    },
    {
      "inputs": [],
      "name": "NotInitializing",
      "type": "error"
    },
    {
      "inputs": [
        {
          "internalType": "address",
          "name": "owner",
          "type": "address"
        }
      ],
      "name": "OwnableInvalidOwner",
      "type": "error"
    },
    {
      "inputs": [
        {
          "internalType": "address",
          "name": "account",
          "type": "address"
        }
      ],
      "name": "OwnableUnauthorizedAccount",
      "type": "error"
    },
    {
      "anonymous": false,
      "inputs": [
        {
          "indexed": true,
          "internalType": "address",
          "name": "owner",
          "type": "address"
        },
        {
          "indexed": true,
          "internalType": "address",
          "name": "spender",
          "type": "address"
        },
        {
          "indexed": false,
          "internalType": "uint256",
          "name": "value",
          "type": "uint256"
        }
      ],
      "name": "Approval",
      "type": "event"
    },
    {
      "anonymous": false,
      "inputs": [
        {
          "indexed": false,
          "internalType": "uint64",
          "name": "version",
          "type": "uint64"
        }
      ],
      "name": "Initialized",
      "type": "event"
    },
    {
      "anonymous": false,
      "inputs": [
        {
          "indexed": true,
          "internalType": "address",
          "name": "previousOwner",
          "type": "address"
        },
        {
          "indexed": true,
          "internalType": "address",
          "name": "newOwner",
          "type": "address"
        }
      ],
      "name": "OwnershipTransferred",
      "type": "event"
    },
    {
      "anonymous": false,
      "inputs": [
        {
          "indexed": true,
          "internalType": "address",
          "name": "from",
          "type": "address"
        },
        {
          "indexed": true,
          "internalType": "address",
          "name": "to",
          "type": "address"
        },
        {
          "indexed": false,
          "internalType": "uint256",
          "name": "value",
          "type": "uint256"
        }
      ],
      "name": "Transfer",
      "type": "event"
    },
    {
      "inputs": [
        {
          "internalType": "address",
          "name": "owner",
          "type": "address"
        },
        {
          "internalType": "address",
          "name": "spender",
          "type": "address"
        }
      ],
      "name": "allowance",
      "outputs": [
        {
          "internalType": "uint256",
          "name": "",
          "type": "uint256"
        }
      ],
      "stateMutability": "view",
      "type": "function"
    },
    {
      "inputs": [
        {
          "internalType": "address",
          "name": "spender",
          "type": "address"
        },
        {
          "internalType": "uint256",
          "name": "value",
          "type": "uint256"
        }
      ],
      "name": "approve",
      "outputs": [
        {
          "internalType": "bool",
          "name": "",
          "type": "bool"
        }
      ],
      "stateMutability": "nonpayable",
      "type": "function"
    },
    {
      "inputs": [
        {
          "internalType": "address",
          "name": "account",
          "type": "address"
        }
      ],
      "name": "balanceOf",
      "outputs": [
        {
          "internalType": "uint256",
          "name": "",
          "type": "uint256"
        }
      ],
      "stateMutability": "view",
      "type": "function"
    },
    {
      "inputs": [
        {
          "internalType": "address",
          "name": "from",
          "type": "address"
        },
        {
          "internalType": "uint256",
          "name": "amount",
          "type": "uint256"
        }
      ],
      "name": "burn",
      "outputs": [],
      "stateMutability": "nonpayable",
      "type": "function"
    },
    {
      "inputs": [],
      "name": "decimals",
      "outputs": [
        {
          "internalType": "uint8",
          "name": "",
          "type": "uint8"
        }
      ],
      "stateMutability": "view",
      "type": "function"
    },
    {
      "inputs": [],
      "name": "factory",
      "outputs": [
        {
          "internalType": "address",
          "name": "",
          "type": "address"
        }
      ],
      "stateMutability": "view",
      "type": "function"
    },
    {
      "inputs": [],
      "name": "fundId",
      "outputs": [
        {
          "internalType": "bytes32",
          "name": "",
          "type": "bytes32"
        }
      ],
      "stateMutability": "view",
      "type": "function"
    },
    {
      "inputs": [],
      "name": "getComponents",
      "outputs": [
        {
          "components": [
            {
              "internalType": "address",
              "name": "tokenAddress",
              "type": "address"
            },
            {
              "internalType": "uint32",
              "name": "hyperliquidAssetIndex",
              "type": "uint32"
            },
            {
              "internalType": "uint256",
              "name": "targetRatio",
              "type": "uint256"
            },
            {
              "internalType": "uint256",
              "name": "depositedAmount",
              "type": "uint256"
            }
          ],
          "internalType": "struct IIndexTokenFactory.ComponentToken[]",
          "name": "",
          "type": "tuple[]"
        }
      ],
      "stateMutability": "view",
      "type": "function"
    },
    {
      "inputs": [],
      "name": "getFundDetails",
      "outputs": [
        {
          "internalType": "string",
          "name": "name",
          "type": "string"
        },
        {
          "internalType": "string",
          "name": "symbol",
          "type": "string"
        },
        {
          "internalType": "address",
          "name": "creator",
          "type": "address"
        },
        {
          "internalType": "uint256",
          "name": "totalSupply",
          "type": "uint256"
        },
        {
          "internalType": "uint256",
          "name": "nav",
          "type": "uint256"
        },
        {
          "internalType": "bool",
          "name": "isActive",
          "type": "bool"
        },
        {
          "internalType": "bool",
          "name": "isIssued",
          "type": "bool"
        }
      ],
      "stateMutability": "view",
      "type": "function"
    },
    {
      "inputs": [],
      "name": "getNavPerToken",
      "outputs": [
        {
          "internalType": "uint256",
          "name": "",
          "type": "uint256"
        }
      ],
      "stateMutability": "view",
      "type": "function"
    },
    {
      "inputs": [],
      "name": "getTotalFundValue",
      "outputs": [
        {
          "internalType": "uint256",
          "name": "",
          "type": "uint256"
        }
      ],
      "stateMutability": "view",
      "type": "function"
    },
    {
      "inputs": [
        {
          "internalType": "string",
          "name": "name",
          "type": "string"
        },
        {
          "internalType": "string",
          "name": "symbol",
          "type": "string"
        },
        {
          "internalType": "address",
          "name": "_factory",
          "type": "address"
        },
        {
          "internalType": "bytes32",
          "name": "_fundId",
          "type": "bytes32"
        }
      ],
      "name": "initialize",
      "outputs": [],
      "stateMutability": "nonpayable",
      "type": "function"
    },
    {
      "inputs": [
        {
          "internalType": "address",
          "name": "to",
          "type": "address"
        },
        {
          "internalType": "uint256",
          "name": "amount",
          "type": "uint256"
        }
      ],
      "name": "mint",
      "outputs": [],
      "stateMutability": "nonpayable",
      "type": "function"
    },
    {
      "inputs": [],
      "name": "name",
      "outputs": [
        {
          "internalType": "string",
          "name": "",
          "type": "string"
        }
      ],
      "stateMutability": "view",
      "type": "function"
    },
    {
      "inputs": [],
      "name": "owner",
      "outputs": [
        {
          "internalType": "address",
          "name": "",
          "type": "address"
        }
      ],
      "stateMutability": "view",
      "type": "function"
    },
    {
      "inputs": [],
      "name": "renounceOwnership",
      "outputs": [],
      "stateMutability": "nonpayable",
      "type": "function"
    },
    {
      "inputs": [],
      "name": "symbol",
      "outputs": [
        {
          "internalType": "string",
          "name": "",
          "type": "string"
        }
      ],
      "stateMutability": "view",
      "type": "function"
    },
    {
      "inputs": [],
      "name": "totalSupply",
      "outputs": [
        {
          "internalType": "uint256",
          "name": "",
          "type": "uint256"
        }
      ],
      "stateMutability": "view",
      "type": "function"
    },
    {
      "inputs": [
        {
          "internalType": "address",
          "name": "to",
          "type": "address"
        },
        {
          "internalType": "uint256",
          "name": "value",
          "type": "uint256"
        }
      ],
      "name": "transfer",
      "outputs": [
        {
          "internalType": "bool",
          "name": "",
          "type": "bool"
        }
      ],
      "stateMutability": "nonpayable",
      "type": "function"
    },
    {
      "inputs": [
        {
          "internalType": "address",
          "name": "from",
          "type": "address"
        },
        {
          "internalType": "address",
          "name": "to",
          "type": "address"
        },
        {
          "internalType": "uint256",
          "name": "value",
          "type": "uint256"
        }
      ],
      "name": "transferFrom",
      "outputs": [
        {
          "internalType": "bool",
          "name": "",
          "type": "bool"
        }
      ],
      "stateMutability": "nonpayable",
      "type": "function"
    },
    {
      "inputs": [
        {
          "internalType": "address",
          "name": "newOwner",
          "type": "address"
        }
      ],
      "name": "transferOwnership",
      "outputs": [],
      "stateMutability": "nonpayable",
      "type": "function"
    }
  ],
  "bytecode": "0x608060405234801561001057600080fd5b5061001961001e565b6100d0565b7ff0c57e16840df040f15088dc2f81fe391c3923bec73e23a9662efc9c229c6a00805468010000000000000000900460ff161561006e5760405163f92ee8a960e01b815260040160405180910390fd5b80546001600160401b03908116146100cd5780546001600160401b0319166001600160401b0390811782556040519081527fc7f505b2f371ae2175ee4913f4499e1f2633a7b5936321eed1cdaeb6115181d29060200160405180910390a15b50565b6116be806100df6000396000f3fe608060405234801561001057600080fd5b50600436106101375760003560e01c80638604d15b116100b8578063a9059cbb1161007c578063a9059cbb146102c7578063c45a0155146102da578063d1ec8bf7146102ed578063d766705a14610300578063dd62ed3e14610308578063f2fde38b1461031b57600080fd5b80638604d15b1461024a5780638da5cb5b1461025357806395d89b411461029757806399d50d5d1461029f5780639dc29fac146102b457600080fd5b8063313ce567116100ff578063313ce567146101cd57806340c10f19146101dc5780635556925c146101f157806370a082311461020c578063715018a61461024257600080fd5b806306fdde031461013c57806308a91f881461015a578063095ea7b31461017057806318160ddd1461019357806323b872dd146101ba575b600080fd5b61014461032e565b6040516101519190610f58565b60405180910390f35b6101626103f1565b604051908152602001610151565b61018361017e366004610f87565b6104a3565b6040519015158152602001610151565b7f52c63247e1f47db19d5ce0460030c497f067ca4cebf71ba98eeadabe20bace0254610162565b6101836101c8366004610fb3565b6104bd565b60405160128152602001610151565b6101ef6101ea366004610f87565b6104e1565b005b6101f9610546565b6040516101519796959493929190610ff4565b61016261021a366004611051565b6001600160a01b03166000908152600080516020611669833981519152602052604090205490565b6101ef6105e7565b61016260005481565b7f9016d09d72d40fdae2fd8ceac6b6234c7706214fd39c1cd1e609a0528c199300546001600160a01b03165b6040516001600160a01b039091168152602001610151565b6101446105fb565b6102a761063a565b604051610151919061106e565b6101ef6102c2366004610f87565b6106b5565b6101836102d5366004610f87565b610711565b60015461027f906001600160a01b031681565b6101ef6102fb3660046111cf565b61071f565b6101626108e4565b61016261031636600461124d565b61095b565b6101ef610329366004611051565b6109a5565b7f52c63247e1f47db19d5ce0460030c497f067ca4cebf71ba98eeadabe20bace0380546060916000805160206116698339815191529161036d90611286565b80601f016020809104026020016040519081016040528092919081815260200182805461039990611286565b80156103e65780601f106103bb576101008083540402835291602001916103e6565b820191906000526020600020905b8154815290600101906020018083116103c957829003601f168201915b505050505091505090565b600080306001600160a01b031663d766705a6040518163ffffffff1660e01b8152600401602060405180830381865afa158015610432573d6000803e3d6000fd5b505050506040513d601f19601f8201168201806040525081019061045691906112c0565b9050670de0b6b3a76400006104897f52c63247e1f47db19d5ce0460030c497f067ca4cebf71ba98eeadabe20bace025490565b61049390836112ef565b61049d9190611306565b91505090565b6000336104b18185856109e3565b60019150505b92915050565b6000336104cb8582856109f5565b6104d6858585610a5c565b506001949350505050565b6001546001600160a01b031633146105385760405162461bcd60e51b815260206004820152601560248201527413db9b1e48199858dd1bdc9e4818d85b8818d85b1b605a1b60448201526064015b60405180910390fd5b6105428282610abb565b5050565b60015460008054604051635ef923e160e11b815260609384939283928392839283926001600160a01b039092169163bdf247c29161058a9160040190815260200190565b600060405180830381865afa1580156105a7573d6000803e3d6000fd5b505050506040513d6000823e601f3d908101601f191682016040526105cf919081019061138a565b969e959d50939b509099509750909550919350915050565b6105ef610af1565b6105f96000610b4c565b565b7f52c63247e1f47db19d5ce0460030c497f067ca4cebf71ba98eeadabe20bace0480546060916000805160206116698339815191529161036d90611286565b6001546000546040516375bb1d1760e01b815260048101919091526060916001600160a01b0316906375bb1d1790602401600060405180830381865afa158015610688573d6000803e3d6000fd5b505050506040513d6000823e601f3d908101601f191682016040526106b0919081019061144a565b905090565b6001546001600160a01b031633146107075760405162461bcd60e51b815260206004820152601560248201527413db9b1e48199858dd1bdc9e4818d85b8818d85b1b605a1b604482015260640161052f565b6105428282610bbd565b6000336104b1818585610a5c565b6000610729610bf3565b805490915060ff600160401b820416159067ffffffffffffffff166000811580156107515750825b905060008267ffffffffffffffff16600114801561076e5750303b155b90508115801561077c575080155b1561079a5760405163f92ee8a960e01b815260040160405180910390fd5b845467ffffffffffffffff1916600117855583156107c457845460ff60401b1916600160401b1785555b6001600160a01b03871661081a5760405162461bcd60e51b815260206004820152601e60248201527f466163746f727920616464726573732063616e6e6f74206265207a65726f0000604482015260640161052f565b856108605760405162461bcd60e51b815260206004820152601660248201527546756e642049442063616e6e6f74206265207a65726f60501b604482015260640161052f565b61086a8989610c1c565b61087387610c2e565b6000869055600180546001600160a01b0319166001600160a01b03891617905583156108d957845460ff60401b19168555604051600181527fc7f505b2f371ae2175ee4913f4499e1f2633a7b5936321eed1cdaeb6115181d29060200160405180910390a15b505050505050505050565b60015460008054604051634ff975ab60e11b815291926001600160a01b031691639ff2eb569161091a9160040190815260200190565b602060405180830381865afa158015610937573d6000803e3d6000fd5b505050506040513d601f19601f820116820180604052508101906106b091906112c0565b6001600160a01b0391821660009081527f52c63247e1f47db19d5ce0460030c497f067ca4cebf71ba98eeadabe20bace016020908152604080832093909416825291909152205490565b6109ad610af1565b6001600160a01b0381166109d757604051631e4fbdf760e01b81526000600482015260240161052f565b6109e081610b4c565b50565b6109f08383836001610c3f565b505050565b6000610a01848461095b565b9050600019811015610a565781811015610a4757604051637dc7a0d960e11b81526001600160a01b0384166004820152602481018290526044810183905260640161052f565b610a5684848484036000610c3f565b50505050565b6001600160a01b038316610a8657604051634b637e8f60e11b81526000600482015260240161052f565b6001600160a01b038216610ab05760405163ec442f0560e01b81526000600482015260240161052f565b6109f0838383610d27565b6001600160a01b038216610ae55760405163ec442f0560e01b81526000600482015260240161052f565b61054260008383610d27565b33610b237f9016d09d72d40fdae2fd8ceac6b6234c7706214fd39c1cd1e609a0528c199300546001600160a01b031690565b6001600160a01b0316146105f95760405163118cdaa760e01b815233600482015260240161052f565b7f9016d09d72d40fdae2fd8ceac6b6234c7706214fd39c1cd1e609a0528c19930080546001600160a01b031981166001600160a01b03848116918217845560405192169182907f8be0079c531659141344cd1fd0a4f28419497f9722a3daafe3b4186f6b6457e090600090a3505050565b6001600160a01b038216610be757604051634b637e8f60e11b81526000600482015260240161052f565b61054282600083610d27565b6000807ff0c57e16840df040f15088dc2f81fe391c3923bec73e23a9662efc9c229c6a006104b7565b610c24610d32565b6105428282610d57565b610c36610d32565b6109e081610da8565b6000805160206116698339815191526001600160a01b038516610c785760405163e602df0560e01b81526000600482015260240161052f565b6001600160a01b038416610ca257604051634a1406b160e11b81526000600482015260240161052f565b6001600160a01b03808616600090815260018301602090815260408083209388168352929052208390558115610d2057836001600160a01b0316856001600160a01b03167f8c5be1e5ebec7d5bd14f71427d1e84f3dd0314c0f7b2291e5b200ac8c7c3b92585604051610d1791815260200190565b60405180910390a35b5050505050565b6109f0838383610db0565b610d3a610eee565b6105f957604051631afcd79f60e31b815260040160405180910390fd5b610d5f610d32565b6000805160206116698339815191527f52c63247e1f47db19d5ce0460030c497f067ca4cebf71ba98eeadabe20bace03610d998482611595565b5060048101610a568382611595565b6109ad610d32565b6000805160206116698339815191526001600160a01b038416610dec5781816002016000828254610de19190611655565b90915550610e5e9050565b6001600160a01b03841660009081526020829052604090205482811015610e3f5760405163391434e360e21b81526001600160a01b0386166004820152602481018290526044810184905260640161052f565b6001600160a01b03851660009081526020839052604090209083900390555b6001600160a01b038316610e7c576002810180548390039055610e9b565b6001600160a01b03831660009081526020829052604090208054830190555b826001600160a01b0316846001600160a01b03167fddf252ad1be2c89b69c2b068fc378daa952ba7f163c4a11628f55a4df523b3ef84604051610ee091815260200190565b60405180910390a350505050565b6000610ef8610bf3565b54600160401b900460ff16919050565b60005b83811015610f23578181015183820152602001610f0b565b50506000910152565b60008151808452610f44816020860160208601610f08565b601f01601f19169290920160200192915050565b602081526000610f6b6020830184610f2c565b9392505050565b6001600160a01b03811681146109e057600080fd5b60008060408385031215610f9a57600080fd5b8235610fa581610f72565b946020939093013593505050565b600080600060608486031215610fc857600080fd5b8335610fd381610f72565b92506020840135610fe381610f72565b929592945050506040919091013590565b60e08152600061100760e083018a610f2c565b8281036020840152611019818a610f2c565b6001600160a01b03989098166040840152505060608101949094526080840192909252151560a0830152151560c09091015292915050565b60006020828403121561106357600080fd5b8135610f6b81610f72565b602080825282518282018190526000919060409081850190868401855b828110156110d457815180516001600160a01b031685528681015163ffffffff16878601528581015186860152606090810151908501526080909301929085019060010161108b565b5091979650505050505050565b634e487b7160e01b600052604160045260246000fd5b6040516080810167ffffffffffffffff8111828210171561111a5761111a6110e1565b60405290565b604051601f8201601f1916810167ffffffffffffffff81118282101715611149576111496110e1565b604052919050565b600067ffffffffffffffff82111561116b5761116b6110e1565b50601f01601f191660200190565b600082601f83011261118a57600080fd5b813561119d61119882611151565b611120565b8181528460208386010111156111b257600080fd5b816020850160208301376000918101602001919091529392505050565b600080600080608085870312156111e557600080fd5b843567ffffffffffffffff808211156111fd57600080fd5b61120988838901611179565b9550602087013591508082111561121f57600080fd5b5061122c87828801611179565b935050604085013561123d81610f72565b9396929550929360600135925050565b6000806040838503121561126057600080fd5b823561126b81610f72565b9150602083013561127b81610f72565b809150509250929050565b600181811c9082168061129a57607f821691505b6020821081036112ba57634e487b7160e01b600052602260045260246000fd5b50919050565b6000602082840312156112d257600080fd5b5051919050565b634e487b7160e01b600052601160045260246000fd5b80820281158282048414176104b7576104b76112d9565b60008261132357634e487b7160e01b600052601260045260246000fd5b500490565b600082601f83011261133957600080fd5b815161134761119882611151565b81815284602083860101111561135c57600080fd5b61136d826020830160208701610f08565b949350505050565b8051801515811461138557600080fd5b919050565b600080600080600080600080610100898b0312156113a757600080fd5b885167ffffffffffffffff808211156113bf57600080fd5b6113cb8c838d01611328565b995060208b01519150808211156113e157600080fd5b506113ee8b828c01611328565b97505060408901516113ff81610f72565b60608a015190965061141081610f72565b60808a015160a08b01519196509450925061142d60c08a01611375565b915061143b60e08a01611375565b90509295985092959890939650565b6000602080838503121561145d57600080fd5b825167ffffffffffffffff8082111561147557600080fd5b818501915085601f83011261148957600080fd5b81518181111561149b5761149b6110e1565b6114a9848260051b01611120565b818152848101925060079190911b8301840190878211156114c957600080fd5b928401925b8184101561153c57608084890312156114e75760008081fd5b6114ef6110f7565b84516114fa81610f72565b81528486015163ffffffff811681146115135760008081fd5b8187015260408581015190820152606080860151908201528352608090930192918401916114ce565b979650505050505050565b601f8211156109f057600081815260208120601f850160051c8101602086101561156e5750805b601f850160051c820191505b8181101561158d5782815560010161157a565b505050505050565b815167ffffffffffffffff8111156115af576115af6110e1565b6115c3816115bd8454611286565b84611547565b602080601f8311600181146115f857600084156115e05750858301515b600019600386901b1c1916600185901b17855561158d565b600085815260208120601f198616915b8281101561162757888601518255948401946001909101908401611608565b50858210156116455787850151600019600388901b60f8161c191681555b5050505050600190811b01905550565b808201808211156104b7576104b76112d956fe52c63247e1f47db19d5ce0460030c497f067ca4cebf71ba98eeadabe20bace00a2646970667358221220639e529da18941ea9fdf9cb4347840e0ce2308590ed8306c2c48b43a2b5b88dd64736f6c63430008140033",
  "linkReferences": {},
  "deployedLinkReferences": {}
}