{"contracts/HyperIndexVault.sol":{"HyperIndexVault":{"abi":[{"inputs":[{"internalType":"contract IERC20","name":"_asset","type":"address"},{"internalType":"string","name":"_name","type":"string"},{"internalType":"string","name":"_symbol","type":"string"}],"stateMutability":"nonpayable","type":"constructor"},{"inputs":[],"name":"AccessControlBadConfirmation","type":"error"},{"inputs":[{"internalType":"address","name":"account","type":"address"},{"internalType":"bytes32","name":"neededRole","type":"bytes32"}],"name":"AccessControlUnauthorizedAccount","type":"error"},{"inputs":[{"internalType":"address","name":"spender","type":"address"},{"internalType":"uint256","name":"allowance","type":"uint256"},{"internalType":"uint256","name":"needed","type":"uint256"}],"name":"ERC20InsufficientAllowance","type":"error"},{"inputs":[{"internalType":"address","name":"sender","type":"address"},{"internalType":"uint256","name":"balance","type":"uint256"},{"internalType":"uint256","name":"needed","type":"uint256"}],"name":"ERC20InsufficientBalance","type":"error"},{"inputs":[{"internalType":"address","name":"approver","type":"address"}],"name":"ERC20InvalidApprover","type":"error"},{"inputs":[{"internalType":"address","name":"receiver","type":"address"}],"name":"ERC20InvalidReceiver","type":"error"},{"inputs":[{"internalType":"address","name":"sender","type":"address"}],"name":"ERC20InvalidSender","type":"error"},{"inputs":[{"internalType":"address","name":"spender","type":"address"}],"name":"ERC20InvalidSpender","type":"error"},{"inputs":[{"internalType":"address","name":"receiver","type":"address"},{"internalType":"uint256","name":"assets","type":"uint256"},{"internalType":"uint256","name":"max","type":"uint256"}],"name":"ERC4626ExceededMaxDeposit","type":"error"},{"inputs":[{"internalType":"address","name":"receiver","type":"address"},{"internalType":"uint256","name":"shares","type":"uint256"},{"internalType":"uint256","name":"max","type":"uint256"}],"name":"ERC4626ExceededMaxMint","type":"error"},{"inputs":[{"internalType":"address","name":"owner","type":"address"},{"internalType":"uint256","name":"shares","type":"uint256"},{"internalType":"uint256","name":"max","type":"uint256"}],"name":"ERC4626ExceededMaxRedeem","type":"error"},{"inputs":[{"internalType":"address","name":"owner","type":"address"},{"internalType":"uint256","name":"assets","type":"uint256"},{"internalType":"uint256","name":"max","type":"uint256"}],"name":"ERC4626ExceededMaxWithdraw","type":"error"},{"inputs":[],"name":"EnforcedPause","type":"error"},{"inputs":[],"name":"ExpectedPause","type":"error"},{"inputs":[],"name":"ReentrancyGuardReentrantCall","type":"error"},{"inputs":[{"internalType":"address","name":"token","type":"address"}],"name":"SafeERC20FailedOperation","type":"error"},{"anonymous":false,"inputs":[{"indexed":true,"internalType":"address","name":"owner","type":"address"},{"indexed":true,"internalType":"address","name":"spender","type":"address"},{"indexed":false,"internalType":"uint256","name":"value","type":"uint256"}],"name":"Approval","type":"event"},{"anonymous":false,"inputs":[{"indexed":true,"internalType":"address","name":"tokenFrom","type":"address"},{"indexed":true,"internalType":"address","name":"tokenTo","type":"address"},{"indexed":false,"internalType":"uint256","name":"amount","type":"uint256"},{"indexed":false,"internalType":"uint256","name":"currentRatio","type":"uint256"},{"indexed":false,"internalType":"uint256","name":"targetRatio","type":"uint256"}],"name":"AutoRebalanced","type":"event"},{"anonymous":false,"inputs":[{"indexed":true,"internalType":"address","name":"user","type":"address"},{"indexed":true,"internalType":"uint256","name":"indexTokenId","type":"uint256"},{"indexed":false,"internalType":"uint256","name":"assets","type":"uint256"},{"indexed":false,"internalType":"uint256","name":"shares","type":"uint256"}],"name":"CrossChainMessageSent","type":"event"},{"anonymous":false,"inputs":[{"indexed":true,"internalType":"address","name":"sender","type":"address"},{"indexed":true,"internalType":"address","name":"owner","type":"address"},{"indexed":false,"internalType":"uint256","name":"assets","type":"uint256"},{"indexed":false,"internalType":"uint256","name":"shares","type":"uint256"}],"name":"Deposit","type":"event"},{"anonymous":false,"inputs":[{"indexed":false,"internalType":"address","name":"token","type":"address"},{"indexed":false,"internalType":"uint256","name":"amount","type":"uint256"},{"indexed":false,"internalType":"address","name":"recipient","type":"address"}],"name":"EmergencyWithdrawal","type":"event"},{"anonymous":false,"inputs":[{"indexed":true,"internalType":"address","name":"feeType","type":"address"},{"indexed":false,"internalType":"uint256","name":"amount","type":"uint256"},{"indexed":false,"internalType":"uint256","name":"timestamp","type":"uint256"}],"name":"FeeCollected","type":"event"},{"anonymous":false,"inputs":[{"indexed":false,"internalType":"uint256","name":"profit","type":"uint256"},{"indexed":false,"internalType":"uint256","name":"performanceFeeAmount","type":"uint256"},{"indexed":false,"internalType":"uint256","name":"timestamp","type":"uint256"}],"name":"Harvest","type":"event"},{"anonymous":false,"inputs":[{"indexed":false,"internalType":"uint256","name":"oldFee","type":"uint256"},{"indexed":false,"internalType":"uint256","name":"newFee","type":"uint256"}],"name":"ManagementFeeUpdated","type":"event"},{"anonymous":false,"inputs":[{"indexed":false,"internalType":"uint256","name":"fromIdx","type":"uint256"},{"indexed":false,"internalType":"uint256","name":"toIdx","type":"uint256"},{"indexed":false,"internalType":"uint256","name":"amount","type":"uint256"}],"name":"ManualRebalanced","type":"event"},{"anonymous":false,"inputs":[{"indexed":false,"internalType":"address","name":"account","type":"address"}],"name":"Paused","type":"event"},{"anonymous":false,"inputs":[{"indexed":false,"internalType":"uint256","name":"oldFee","type":"uint256"},{"indexed":false,"internalType":"uint256","name":"newFee","type":"uint256"}],"name":"PerformanceFeeUpdated","type":"event"},{"anonymous":false,"inputs":[{"indexed":true,"internalType":"bytes32","name":"role","type":"bytes32"},{"indexed":true,"internalType":"bytes32","name":"previousAdminRole","type":"bytes32"},{"indexed":true,"internalType":"bytes32","name":"newAdminRole","type":"bytes32"}],"name":"RoleAdminChanged","type":"event"},{"anonymous":false,"inputs":[{"indexed":true,"internalType":"bytes32","name":"role","type":"bytes32"},{"indexed":true,"internalType":"address","name":"account","type":"address"},{"indexed":true,"internalType":"address","name":"sender","type":"address"}],"name":"RoleGranted","type":"event"},{"anonymous":false,"inputs":[{"indexed":true,"internalType":"bytes32","name":"role","type":"bytes32"},{"indexed":true,"internalType":"address","name":"account","type":"address"},{"indexed":true,"internalType":"address","name":"sender","type":"address"}],"name":"RoleRevoked","type":"event"},{"anonymous":false,"inputs":[{"indexed":false,"internalType":"string","name":"strategyName","type":"string"},{"indexed":false,"internalType":"uint256","name":"timestamp","type":"uint256"}],"name":"StrategyExecuted","type":"event"},{"anonymous":false,"inputs":[{"indexed":false,"internalType":"uint256[]","name":"newAllocations","type":"uint256[]"}],"name":"TargetAllocationsUpdated","type":"event"},{"anonymous":false,"inputs":[{"indexed":true,"internalType":"address","name":"from","type":"address"},{"indexed":true,"internalType":"address","name":"to","type":"address"},{"indexed":false,"internalType":"uint256","name":"value","type":"uint256"}],"name":"Transfer","type":"event"},{"anonymous":false,"inputs":[{"indexed":false,"internalType":"uint32","name":"chainId","type":"uint32"},{"indexed":false,"internalType":"bytes32","name":"trustedRemote","type":"bytes32"}],"name":"TrustedRemoteSet","type":"event"},{"anonymous":false,"inputs":[{"indexed":false,"internalType":"address","name":"token","type":"address"},{"indexed":false,"internalType":"uint256","name":"allocation","type":"uint256"}],"name":"UnderlyingTokenAdded","type":"event"},{"anonymous":false,"inputs":[{"indexed":false,"internalType":"uint256","name":"index","type":"uint256"}],"name":"UnderlyingTokenRemoved","type":"event"},{"anonymous":false,"inputs":[{"indexed":false,"internalType":"address","name":"account","type":"address"}],"name":"Unpaused","type":"event"},{"anonymous":false,"inputs":[{"indexed":true,"internalType":"uint256","name":"indexTokenId","type":"uint256"},{"indexed":true,"internalType":"address","name":"asset","type":"address"},{"indexed":true,"internalType":"address","name":"admin","type":"address"}],"name":"VaultInitialized","type":"event"},{"anonymous":false,"inputs":[{"indexed":true,"internalType":"address","name":"sender","type":"address"},{"indexed":true,"internalType":"address","name":"receiver","type":"address"},{"indexed":true,"internalType":"address","name":"owner","type":"address"},{"indexed":false,"internalType":"uint256","name":"assets","type":"uint256"},{"indexed":false,"internalType":"uint256","name":"shares","type":"uint256"}],"name":"Withdraw","type":"event"},{"inputs":[],"name":"DEFAULT_ADMIN_ROLE","outputs":[{"internalType":"bytes32","name":"","type":"bytes32"}],"stateMutability":"view","type":"function"},{"inputs":[],"name":"EMERGENCY_ROLE","outputs":[{"internalType":"bytes32","name":"","type":"bytes32"}],"stateMutability":"view","type":"function"},{"inputs":[],"name":"FEE_DENOMINATOR","outputs":[{"internalType":"uint256","name":"","type":"uint256"}],"stateMutability":"view","type":"function"},{"inputs":[],"name":"MANAGER_ROLE","outputs":[{"internalType":"bytes32","name":"","type":"bytes32"}],"stateMutability":"view","type":"function"},{"inputs":[],"name":"MAX_MANAGEMENT_FEE","outputs":[{"internalType":"uint256","name":"","type":"uint256"}],"stateMutability":"view","type":"function"},{"inputs":[],"name":"MAX_PERFORMANCE_FEE","outputs":[{"internalType":"uint256","name":"","type":"uint256"}],"stateMutability":"view","type":"function"},{"inputs":[],"name":"SECONDS_PER_YEAR","outputs":[{"internalType":"uint256","name":"","type":"uint256"}],"stateMutability":"view","type":"function"},{"inputs":[],"name":"STRATEGIST_ROLE","outputs":[{"internalType":"bytes32","name":"","type":"bytes32"}],"stateMutability":"view","type":"function"},{"inputs":[{"internalType":"address","name":"token","type":"address"},{"internalType":"uint256","name":"allocation","type":"uint256"}],"name":"addUnderlyingToken","outputs":[],"stateMutability":"nonpayable","type":"function"},{"inputs":[{"internalType":"address","name":"owner","type":"address"},{"internalType":"address","name":"spender","type":"address"}],"name":"allowance","outputs":[{"internalType":"uint256","name":"","type":"uint256"}],"stateMutability":"view","type":"function"},{"inputs":[{"internalType":"address","name":"spender","type":"address"},{"internalType":"uint256","name":"value","type":"uint256"}],"name":"approve","outputs":[{"internalType":"bool","name":"","type":"bool"}],"stateMutability":"nonpayable","type":"function"},{"inputs":[],"name":"asset","outputs":[{"internalType":"address","name":"","type":"address"}],"stateMutability":"view","type":"function"},{"inputs":[{"internalType":"address","name":"","type":"address"}],"name":"authorizedSenders","outputs":[{"internalType":"bool","name":"","type":"bool"}],"stateMutability":"view","type":"function"},{"inputs":[],"name":"autoRebalance","outputs":[],"stateMutability":"nonpayable","type":"function"},{"inputs":[{"internalType":"address","name":"account","type":"address"}],"name":"balanceOf","outputs":[{"internalType":"uint256","name":"","type":"uint256"}],"stateMutability":"view","type":"function"},{"inputs":[{"internalType":"uint256","name":"assets","type":"uint256"},{"internalType":"uint256","name":"timeElapsed","type":"uint256"}],"name":"calculateManagementFee","outputs":[{"internalType":"uint256","name":"fee","type":"uint256"}],"stateMutability":"view","type":"function"},{"inputs":[],"name":"checkRebalanceNeeded","outputs":[{"internalType":"bool","name":"needed","type":"bool"},{"internalType":"address","name":"fromToken","type":"address"},{"internalType":"address","name":"toToken","type":"address"},{"internalType":"uint256","name":"amount","type":"uint256"}],"stateMutability":"view","type":"function"},{"inputs":[],"name":"collectManagementFees","outputs":[],"stateMutability":"nonpayable","type":"function"},{"inputs":[{"internalType":"uint256","name":"shares","type":"uint256"}],"name":"convertToAssets","outputs":[{"internalType":"uint256","name":"","type":"uint256"}],"stateMutability":"view","type":"function"},{"inputs":[{"internalType":"uint256","name":"assets","type":"uint256"}],"name":"convertToShares","outputs":[{"internalType":"uint256","name":"","type":"uint256"}],"stateMutability":"view","type":"function"},{"inputs":[],"name":"decimals","outputs":[{"internalType":"uint8","name":"","type":"uint8"}],"stateMutability":"view","type":"function"},{"inputs":[{"internalType":"uint256","name":"assets","type":"uint256"},{"internalType":"address","name":"receiver","type":"address"}],"name":"deposit","outputs":[{"internalType":"uint256","name":"shares","type":"uint256"}],"stateMutability":"nonpayable","type":"function"},{"inputs":[],"name":"emergencyPause","outputs":[],"stateMutability":"nonpayable","type":"function"},{"inputs":[],"name":"emergencyUnpause","outputs":[],"stateMutability":"nonpayable","type":"function"},{"inputs":[{"internalType":"address","name":"token","type":"address"},{"internalType":"uint256","name":"amount","type":"uint256"}],"name":"emergencyWithdraw","outputs":[],"stateMutability":"nonpayable","type":"function"},{"inputs":[],"name":"emergencyWithdrawalRecipient","outputs":[{"internalType":"address","name":"","type":"address"}],"stateMutability":"view","type":"function"},{"inputs":[{"internalType":"string","name":"strategyName","type":"string"}],"name":"executeStrategy","outputs":[],"stateMutability":"nonpayable","type":"function"},{"inputs":[],"name":"getAllocationRatios","outputs":[{"internalType":"address[]","name":"tokens","type":"address[]"},{"internalType":"uint256[]","name":"currentRatios","type":"uint256[]"},{"internalType":"uint256[]","name":"targetRatios","type":"uint256[]"}],"stateMutability":"view","type":"function"},{"inputs":[],"name":"getLayerZeroEndpoint","outputs":[{"internalType":"address","name":"","type":"address"}],"stateMutability":"view","type":"function"},{"inputs":[{"internalType":"bytes32","name":"role","type":"bytes32"}],"name":"getRoleAdmin","outputs":[{"internalType":"bytes32","name":"","type":"bytes32"}],"stateMutability":"view","type":"function"},{"inputs":[],"name":"getUnderlyingTokens","outputs":[{"internalType":"address[]","name":"","type":"address[]"}],"stateMutability":"view","type":"function"},{"inputs":[],"name":"getVaultMetadata","outputs":[{"internalType":"uint256","name":"_indexTokenId","type":"uint256"},{"internalType":"uint256","name":"_totalAssets","type":"uint256"},{"internalType":"uint256","name":"_totalShares","type":"uint256"},{"internalType":"bool","name":"_isPaused","type":"bool"},{"internalType":"uint256","name":"_managementFeeBps","type":"uint256"},{"internalType":"uint256","name":"_performanceFeeBps","type":"uint256"}],"stateMutability":"view","type":"function"},{"inputs":[{"internalType":"bytes32","name":"role","type":"bytes32"},{"internalType":"address","name":"account","type":"address"}],"name":"grantRole","outputs":[],"stateMutability":"nonpayable","type":"function"},{"inputs":[],"name":"harvest","outputs":[],"stateMutability":"nonpayable","type":"function"},{"inputs":[{"internalType":"bytes32","name":"role","type":"bytes32"},{"internalType":"address","name":"account","type":"address"}],"name":"hasRole","outputs":[{"internalType":"bool","name":"","type":"bool"}],"stateMutability":"view","type":"function"},{"inputs":[],"name":"highWaterMark","outputs":[{"internalType":"uint256","name":"","type":"uint256"}],"stateMutability":"view","type":"function"},{"inputs":[],"name":"indexTokenId","outputs":[{"internalType":"uint256","name":"","type":"uint256"}],"stateMutability":"view","type":"function"},{"inputs":[{"internalType":"contract IERC20","name":"_asset","type":"address"},{"internalType":"string","name":"_name","type":"string"},{"internalType":"string","name":"_symbol","type":"string"},{"internalType":"uint256","name":"_managementFee","type":"uint256"},{"internalType":"uint256","name":"_performanceFee","type":"uint256"}],"name":"initialize","outputs":[],"stateMutability":"nonpayable","type":"function"},{"inputs":[{"internalType":"address","name":"asset_","type":"address"},{"internalType":"uint256","name":"indexTokenId_","type":"uint256"},{"internalType":"address","name":"admin","type":"address"},{"internalType":"string","name":"name_","type":"string"},{"internalType":"string","name":"symbol_","type":"string"},{"internalType":"address","name":"lzEndpoint_","type":"address"},{"internalType":"address[]","name":"tokens_","type":"address[]"},{"internalType":"uint256[]","name":"targetAllocations_","type":"uint256[]"}],"name":"initialize","outputs":[],"stateMutability":"nonpayable","type":"function"},{"inputs":[],"name":"lastFeeCollection","outputs":[{"internalType":"uint256","name":"","type":"uint256"}],"stateMutability":"view","type":"function"},{"inputs":[],"name":"lastHarvestTime","outputs":[{"internalType":"uint256","name":"","type":"uint256"}],"stateMutability":"view","type":"function"},{"inputs":[],"name":"lastRebalanceTime","outputs":[{"internalType":"uint256","name":"","type":"uint256"}],"stateMutability":"view","type":"function"},{"inputs":[],"name":"lastTotalAssets","outputs":[{"internalType":"uint256","name":"","type":"uint256"}],"stateMutability":"view","type":"function"},{"inputs":[],"name":"layerZeroEndpoint","outputs":[{"internalType":"address","name":"","type":"address"}],"stateMutability":"view","type":"function"},{"inputs":[],"name":"managementFee","outputs":[{"internalType":"uint256","name":"","type":"uint256"}],"stateMutability":"view","type":"function"},{"inputs":[],"name":"managementFeeBps","outputs":[{"internalType":"uint256","name":"","type":"uint256"}],"stateMutability":"view","type":"function"},{"inputs":[{"internalType":"uint256","name":"fromIdx","type":"uint256"},{"internalType":"uint256","name":"toIdx","type":"uint256"},{"internalType":"uint256","name":"amount","type":"uint256"}],"name":"manualRebalance","outputs":[],"stateMutability":"nonpayable","type":"function"},{"inputs":[{"internalType":"address","name":"","type":"address"}],"name":"maxDeposit","outputs":[{"internalType":"uint256","name":"","type":"uint256"}],"stateMutability":"view","type":"function"},{"inputs":[{"internalType":"address","name":"","type":"address"}],"name":"maxMint","outputs":[{"internalType":"uint256","name":"","type":"uint256"}],"stateMutability":"view","type":"function"},{"inputs":[{"internalType":"address","name":"owner","type":"address"}],"name":"maxRedeem","outputs":[{"internalType":"uint256","name":"","type":"uint256"}],"stateMutability":"view","type":"function"},{"inputs":[{"internalType":"address","name":"owner","type":"address"}],"name":"maxWithdraw","outputs":[{"internalType":"uint256","name":"","type":"uint256"}],"stateMutability":"view","type":"function"},{"inputs":[{"internalType":"uint256","name":"shares","type":"uint256"},{"internalType":"address","name":"receiver","type":"address"}],"name":"mint","outputs":[{"internalType":"uint256","name":"","type":"uint256"}],"stateMutability":"nonpayable","type":"function"},{"inputs":[],"name":"name","outputs":[{"internalType":"string","name":"","type":"string"}],"stateMutability":"view","type":"function"},{"inputs":[],"name":"pause","outputs":[],"stateMutability":"nonpayable","type":"function"},{"inputs":[],"name":"paused","outputs":[{"internalType":"bool","name":"","type":"bool"}],"stateMutability":"view","type":"function"},{"inputs":[],"name":"performanceFee","outputs":[{"internalType":"uint256","name":"","type":"uint256"}],"stateMutability":"view","type":"function"},{"inputs":[],"name":"performanceFeeBps","outputs":[{"internalType":"uint256","name":"","type":"uint256"}],"stateMutability":"view","type":"function"},{"inputs":[{"internalType":"uint256","name":"assets","type":"uint256"}],"name":"previewDeposit","outputs":[{"internalType":"uint256","name":"","type":"uint256"}],"stateMutability":"view","type":"function"},{"inputs":[{"internalType":"uint256","name":"shares","type":"uint256"}],"name":"previewMint","outputs":[{"internalType":"uint256","name":"","type":"uint256"}],"stateMutability":"view","type":"function"},{"inputs":[{"internalType":"uint256","name":"shares","type":"uint256"}],"name":"previewRedeem","outputs":[{"internalType":"uint256","name":"","type":"uint256"}],"stateMutability":"view","type":"function"},{"inputs":[{"internalType":"uint256","name":"assets","type":"uint256"}],"name":"previewWithdraw","outputs":[{"internalType":"uint256","name":"","type":"uint256"}],"stateMutability":"view","type":"function"},{"inputs":[],"name":"rebalanceThreshold","outputs":[{"internalType":"uint256","name":"","type":"uint256"}],"stateMutability":"view","type":"function"},{"inputs":[{"internalType":"uint256","name":"shares","type":"uint256"},{"internalType":"address","name":"receiver","type":"address"},{"internalType":"address","name":"owner","type":"address"}],"name":"redeem","outputs":[{"internalType":"uint256","name":"","type":"uint256"}],"stateMutability":"nonpayable","type":"function"},{"inputs":[{"internalType":"uint256","name":"tokenIndex","type":"uint256"}],"name":"removeUnderlyingToken","outputs":[],"stateMutability":"nonpayable","type":"function"},{"inputs":[{"internalType":"bytes32","name":"role","type":"bytes32"},{"internalType":"address","name":"callerConfirmation","type":"address"}],"name":"renounceRole","outputs":[],"stateMutability":"nonpayable","type":"function"},{"inputs":[{"internalType":"bytes32","name":"role","type":"bytes32"},{"internalType":"address","name":"account","type":"address"}],"name":"revokeRole","outputs":[],"stateMutability":"nonpayable","type":"function"},{"inputs":[{"internalType":"address","name":"sender","type":"address"},{"internalType":"bool","name":"authorized","type":"bool"}],"name":"setAuthorizedSender","outputs":[],"stateMutability":"nonpayable","type":"function"},{"inputs":[{"internalType":"address","name":"recipient","type":"address"}],"name":"setEmergencyRecipient","outputs":[],"stateMutability":"nonpayable","type":"function"},{"inputs":[{"internalType":"uint256","name":"newFee","type":"uint256"}],"name":"setManagementFee","outputs":[],"stateMutability":"nonpayable","type":"function"},{"inputs":[{"internalType":"uint256","name":"newFee","type":"uint256"}],"name":"setPerformanceFee","outputs":[],"stateMutability":"nonpayable","type":"function"},{"inputs":[{"internalType":"uint256[]","name":"newAllocations","type":"uint256[]"}],"name":"setTargetAllocations","outputs":[],"stateMutability":"nonpayable","type":"function"},{"inputs":[{"internalType":"uint32","name":"chainId","type":"uint32"},{"internalType":"bytes32","name":"trustedRemote","type":"bytes32"}],"name":"setTrustedRemote","outputs":[],"stateMutability":"nonpayable","type":"function"},{"inputs":[{"internalType":"bytes4","name":"interfaceId","type":"bytes4"}],"name":"supportsInterface","outputs":[{"internalType":"bool","name":"","type":"bool"}],"stateMutability":"view","type":"function"},{"inputs":[],"name":"symbol","outputs":[{"internalType":"string","name":"","type":"string"}],"stateMutability":"view","type":"function"},{"inputs":[{"internalType":"uint256","name":"","type":"uint256"}],"name":"targetAllocations","outputs":[{"internalType":"uint256","name":"","type":"uint256"}],"stateMutability":"view","type":"function"},{"inputs":[],"name":"totalAssets","outputs":[{"internalType":"uint256","name":"","type":"uint256"}],"stateMutability":"view","type":"function"},{"inputs":[],"name":"totalSupply","outputs":[{"internalType":"uint256","name":"","type":"uint256"}],"stateMutability":"view","type":"function"},{"inputs":[{"internalType":"address","name":"to","type":"address"},{"internalType":"uint256","name":"value","type":"uint256"}],"name":"transfer","outputs":[{"internalType":"bool","name":"","type":"bool"}],"stateMutability":"nonpayable","type":"function"},{"inputs":[{"internalType":"address","name":"from","type":"address"},{"internalType":"address","name":"to","type":"address"},{"internalType":"uint256","name":"value","type":"uint256"}],"name":"transferFrom","outputs":[{"internalType":"bool","name":"","type":"bool"}],"stateMutability":"nonpayable","type":"function"},{"inputs":[{"internalType":"uint32","name":"","type":"uint32"}],"name":"trustedRemotes","outputs":[{"internalType":"bytes32","name":"","type":"bytes32"}],"stateMutability":"view","type":"function"},{"inputs":[{"internalType":"uint256","name":"","type":"uint256"}],"name":"underlyingTokens","outputs":[{"internalType":"address","name":"","type":"address"}],"stateMutability":"view","type":"function"},{"inputs":[],"name":"unpause","outputs":[],"stateMutability":"nonpayable","type":"function"},{"inputs":[{"internalType":"uint256","name":"assets","type":"uint256"},{"internalType":"address","name":"receiver","type":"address"},{"internalType":"address","name":"owner","type":"address"}],"name":"withdraw","outputs":[{"internalType":"uint256","name":"","type":"uint256"}],"stateMutability":"nonpayable","type":"function"}],"evm":{"bytecode":{"linkReferences":{},"object":"60c060405260c86008556107d06009556101f460145560c86016556107d06017553480156200002d57600080fd5b5060405162004436380380620044368339810160408190526200005091620003d9565b8282828282826003620000648382620004f2565b506004620000738282620004f2565b5050506000806200008a83620000da60201b60201c565b91509150816200009c5760126200009e565b805b60ff1660a05250506001600160a01b039081166080526001600655831615620000ce57620000ce338080620001bf565b505050505050620005f6565b60408051600481526024810182526020810180516001600160e01b031663313ce56760e01b17905290516000918291829182916001600160a01b038716916200012391620005be565b600060405180830381855afa9150503d806000811462000160576040519150601f19603f3d011682016040523d82523d6000602084013e62000165565b606091505b50915091508180156200017a57506020815110155b15620001b257600081806020019051810190620001989190620005dc565b905060ff8111620001b0576001969095509350505050565b505b5060009485945092505050565b620001cc60008462000259565b50620001f97f241ecf16d79d0f8dbfb92cbc07fe17840425976cf0667f022fe9877caa831b088362000259565b50620002267fbf233dd2aafeb4d50879c4aa5c81e96d92f6e6945c906a58f9f2d1c1631b4b268262000259565b505042600a55506000600b819055600c55600d80546001600160a01b0319166001600160a01b0392909216919091179055565b60008281526005602090815260408083206001600160a01b038516845290915281205460ff16620003025760008381526005602090815260408083206001600160a01b03861684529091529020805460ff19166001179055620002b93390565b6001600160a01b0316826001600160a01b0316847f2f8788117e7eff1d82e926ec794901d17c78024a50270940304540a733656f0d60405160405180910390a450600162000306565b5060005b92915050565b634e487b7160e01b600052604160045260246000fd5b60005b838110156200033f57818101518382015260200162000325565b50506000910152565b600082601f8301126200035a57600080fd5b81516001600160401b03808211156200037757620003776200030c565b604051601f8301601f19908116603f01168101908282118183101715620003a257620003a26200030c565b81604052838152866020858801011115620003bc57600080fd5b620003cf84602083016020890162000322565b9695505050505050565b600080600060608486031215620003ef57600080fd5b83516001600160a01b03811681146200040757600080fd5b60208501519093506001600160401b03808211156200042557600080fd5b620004338783880162000348565b935060408601519150808211156200044a57600080fd5b50620004598682870162000348565b9150509250925092565b600181811c908216806200047857607f821691505b6020821081036200049957634e487b7160e01b600052602260045260246000fd5b50919050565b601f821115620004ed57600081815260208120601f850160051c81016020861015620004c85750805b601f850160051c820191505b81811015620004e957828155600101620004d4565b5050505b505050565b81516001600160401b038111156200050e576200050e6200030c565b62000526816200051f845462000463565b846200049f565b602080601f8311600181146200055e5760008415620005455750858301515b600019600386901b1c1916600185901b178555620004e9565b600085815260208120601f198616915b828110156200058f578886015182559484019460019091019084016200056e565b5085821015620005ae5787850151600019600388901b60f8161c191681555b5050505050600190811b01905550565b60008251620005d281846020870162000322565b9190910192915050565b600060208284031215620005ef57600080fd5b5051919050565b60805160a051613ddb6200065b6000396000610ef30152600081816106c501528181610cae0152818161100a015281816110530152818161179c01528181611a8f0152818161217f0152818161246801528181612ffa01526130ac0152613ddb6000f3fe608060405234801561001057600080fd5b50600436106104a15760003560e01c8063710f20a21161026d578063bbbaa29911610151578063d905777e116100ce578063dd62ed3e11610092578063dd62ed3e14610a2e578063e6a69ab814610a67578063ec87621c14610a72578063ef8b30f714610a87578063f3dfc2a914610a9a578063fe56e23214610aad57600080fd5b8063d905777e146109e1578063d95bd6c9146109f4578063d9ca21d514610a09578063dc78478714610a12578063dd26baad14610a2557600080fd5b8063cac1864211610115578063cac1864214610998578063ce96cb77146109a9578063ceb0f626146109bc578063d547741f146109c5578063d73792a9146109d857600080fd5b8063bbbaa29914610956578063bdca916514610969578063c38a04ba14610972578063c63d75b6146106fa578063c6e6f5921461098557600080fd5b80639908840c116101ea578063a8551336116101ae578063a8551336146108ee578063a9059cbb14610901578063b3d7f6b914610914578063b460af9414610927578063b9d4e8791461093a578063ba0876521461094357600080fd5b80639908840c1461089a578063a217fddf146108a3578063a378a324146108ab578063a3bf224b146108d2578063a6f7f5d6146108e557600080fd5b80638778878211610231578063877887821461085057806391d148541461085957806394bf804d1461086c57806395ccea671461087f57806395d89b411461089257600080fd5b8063710f20a21461081a57806377d60397146108225780637a6efd4714610835578063835e9eb41461083d5780638456cb591461072857600080fd5b80632f2ff15d116103945780634cdad506116103115780635fd4743a116102d55780635fd4743a146107575780636c969256146107915780636e553f65146107a85780636f324967146107bb57806370897b23146107de57806370a08231146107f157600080fd5b80634cdad5061461071557806351858e271461072857806353d0588514610730578063568efc07146107435780635c975abb1461074c57600080fd5b80633dfe9f6a116103585780633dfe9f6a146106e95780633f4ba83a146106f2578063402d267d146106fa5780634641257d1461070d5780634a4e3bd5146106f257600080fd5b80632f2ff15d1461067a578063313ce5671461068d57806336568abe146106a75780633813c35a146106ba57806338d52e0f146106c357600080fd5b806318cdb5461161042257806320df4359116103e657806320df43591461060957806323b872dd1461061e578063248a9ca3146106315780632775eee8146106545780632bda3e0b1461066757600080fd5b806318cdb546146105815780631b035932146105b85780631ca29139146105cd5780631d187c50146105e05780631e8410da1461060057600080fd5b8063095ea7b311610469578063095ea7b3146105375780630a28a4771461054a57806317a9e1981461055d57806318160ddd1461056657806318bf4cf11461056e57600080fd5b806301e1d114146104a657806301ffc9a7146104c157806306fdde03146104e457806307968db1146104f957806307a2d13a14610524575b600080fd5b6104ae610ac0565b6040519081526020015b60405180910390f35b6104d46104cf3660046133a3565b610af8565b60405190151581526020016104b8565b6104ec610b2f565b6040516104b89190613413565b600e5461050c906001600160a01b031681565b6040516001600160a01b0390911681526020016104b8565b6104ae610532366004613426565b610bc1565b6104d4610545366004613464565b610bce565b6104ae610558366004613426565b610be6565b6104ae60185481565b6002546104ae565b600d5461050c906001600160a01b031681565b610589610bf1565b6040805196875260208701959095529385019290925215156060840152608083015260a082015260c0016104b8565b6105cb6105c6366004613490565b610c27565b005b6105cb6105db366004613550565b610ca4565b6104ae6105ee3660046135ec565b60106020526000908152604090205481565b6104ae600c5481565b6104ae600080516020613d6683398151915281565b6104d461062c366004613607565b610e17565b6104ae61063f366004613426565b60009081526005602052604090206001015490565b6104ae610662366004613426565b610e3d565b6105cb610675366004613648565b610e5e565b6105cb610688366004613664565b610ec0565b610695610eeb565b60405160ff90911681526020016104b8565b6105cb6106b5366004613664565b610f1c565b6104ae60165481565b7f000000000000000000000000000000000000000000000000000000000000000061050c565b6104ae60145481565b6105cb610f54565b6104ae610708366004613490565b610f77565b6105cb610f99565b6104ae610723366004613426565b6110d9565b6105cb6110e4565b6105cb61073e366004613464565b611104565b6104ae600b5481565b60075460ff166104d4565b61075f611302565b6040516104b8949392919093151584526001600160a01b03928316602085015291166040830152606082015260800190565b6107996114ae565b6040516104b893929190613708565b6104ae6107b6366004613664565b6115f7565b6104d46107c9366004613490565b60116020526000908152604090205460ff1681565b6105cb6107ec366004613426565b611667565b6104ae6107ff366004613490565b6001600160a01b031660009081526020819052604090205490565b6105cb6116f1565b6105cb61083036600461374b565b61187c565b6105cb6118eb565b6104ae61084b366004613780565b6119f7565b6104ae60095481565b6104d4610867366004613664565b611a22565b6104ae61087a366004613664565b611a4d565b6105cb61088d366004613464565b611a75565b6104ec611b74565b6104ae6101f481565b6104ae600081565b6104ae7f17a8e30262c1f919c33056d877a3c22b95c2f5e4dac44683c1c2323cd79fbdb081565b61050c6108e0366004613426565b611b83565b6104ae60085481565b6105cb6108fc366004613426565b611bad565b6104d461090f366004613464565b611d94565b6104ae610922366004613426565b611da2565b6104ae6109353660046137a2565b611dad565b6104ae60175481565b6104ae6109513660046137a2565b611dce565b6105cb610964366004613830565b611de3565b6104ae610bb881565b6105cb610980366004613872565b611eed565b6104ae610993366004613426565b6120a7565b600e546001600160a01b031661050c565b6104ae6109b7366004613490565b6120b4565b6104ae600a5481565b6105cb6109d3366004613664565b6120d4565b6104ae61271081565b6104ae6109ef366004613490565b6120f9565b6109fc612114565b6040516104b8919061389e565b6104ae60155481565b6105cb610a203660046138f3565b612175565b6104ae600f5481565b6104ae610a3c366004613a0f565b6001600160a01b03918216600090815260016020908152604080832093909416825291909152205490565b6104ae6301e1338081565b6104ae600080516020613d8683398151915281565b6104ae610a95366004613426565b612398565b6105cb610aa8366004613a4b565b6123a3565b6105cb610abb366004613426565b6123da565b600080610acb612464565b90506000610ad76124f1565b9050808211610ae7576000610af1565b610af18183613a8f565b9250505090565b60006001600160e01b03198216637965db0b60e01b1480610b2957506301ffc9a760e01b6001600160e01b03198316145b92915050565b606060038054610b3e90613aa2565b80601f0160208091040260200160405190810160405280929190818152602001828054610b6a90613aa2565b8015610bb75780601f10610b8c57610100808354040283529160200191610bb7565b820191906000526020600020905b815481529060010190602001808311610b9a57829003601f168201915b5050505050905090565b6000610b2982600061254d565b600033610bdc818585612587565b5060019392505050565b6000610b2982612594565b600080600080600080600f54610c05610ac0565b60025460075460ff16601654601754949b939a50919850965094509092509050565b6000610c32816125a1565b6001600160a01b038216610c815760405162461bcd60e51b8152602060048201526011602482015270125b9d985b1a59081c9958da5c1a595b9d607a1b60448201526064015b60405180910390fd5b50600d80546001600160a01b0319166001600160a01b0392909216919091179055565b6001600160a01b037f00000000000000000000000000000000000000000000000000000000000000001615610d115760405162461bcd60e51b8152602060048201526013602482015272105b1c9958591e481a5b9a5d1a585b1a5e9959606a1b6044820152606401610c78565b6001600160a01b038516610d575760405162461bcd60e51b815260206004820152600d60248201526c125b9d985b1a5908185cdcd95d609a1b6044820152606401610c78565b6101f4821115610da95760405162461bcd60e51b815260206004820152601760248201527f4d616e6167656d656e742066656520746f6f20686967680000000000000000006044820152606401610c78565b610bb8811115610dfb5760405162461bcd60e51b815260206004820152601860248201527f506572666f726d616e63652066656520746f6f206869676800000000000000006044820152606401610c78565b60088290556009819055610e103380806125ab565b5050505050565b600033610e2585828561261b565b610e30858585612681565b60019150505b9392505050565b60138181548110610e4d57600080fd5b600091825260209091200154905081565b6000610e69816125a1565b63ffffffff8316600081815260106020908152604091829020859055815192835282018490527f64c32ce0e117784f1d5e814bf80b31fe78b790c426c4226225197eb2bd30ccaf91015b60405180910390a1505050565b600082815260056020526040902060010154610edb816125a1565b610ee583836126e0565b50505050565b6000610f17817f0000000000000000000000000000000000000000000000000000000000000000613ad6565b905090565b6001600160a01b0381163314610f455760405163334bd91960e11b815260040160405180910390fd5b610f4f8282612774565b505050565b600080516020613d66833981519152610f6c816125a1565b610f746127e1565b50565b6000610f8560075460ff1690565b610f9157600019610b29565b600092915050565b600080516020613d86833981519152610fb1816125a1565b6000610fbb610ac0565b90506000600c54821115610fde57600c54610fd69083613a8f565b600c83905590505b6000811561103a5761271060095483610ff79190613aef565b6110019190613b1c565b905061103a33827f00000000000000000000000000000000000000000000000000000000000000005b6001600160a01b03169190612833565b60006110446124f1565b905080156110775761107733827f000000000000000000000000000000000000000000000000000000000000000061102a565b42600a55806110868386613a8f565b6110909190613a8f565b600b556040805184815260208101849052428183015290517f4ec2d4038813a7f233af1d6d09519189db3ed5bc5b823bf72f6d3144574721de9181900360600190a15050505050565b6000610b2982610bc1565b600080516020613d668339815191526110fc816125a1565b610f74612892565b600061110f816125a1565b6001600160a01b0383166111555760405162461bcd60e51b815260206004820152600d60248201526c24b73b30b634b2103a37b5b2b760991b6044820152606401610c78565b600019611161846128cf565b146111a55760405162461bcd60e51b8152602060048201526014602482015273546f6b656e20616c72656164792065786973747360601b6044820152606401610c78565b6012805460018082019092557fbb8a6a4669ba250d26cd7a459eca9d215f8307e33aebe50379bc5a3617ec34440180546001600160a01b0319166001600160a01b03861617905560138054918201815560008190527f66de8ffda797e3de9c05e8fc57b3bf0ec28a930d40b0d285d93c06501cf6a090909101839055805460408051602080840282018101909252828152611277939092909183018282801561126d57602002820191906000526020600020905b815481526020019060010190808311611259575b5050505050612936565b6112c35760405162461bcd60e51b815260206004820152601860248201527f496e76616c696420746f74616c20616c6c6f636174696f6e00000000000000006044820152606401610c78565b604080516001600160a01b0385168152602081018490527f0bf95c64377f4b62ff6288abe7cee76f42fa8f29c9919f1a3d9da6c52950a6d49101610eb3565b6000806000806000611312612988565b905080600003611330576000806000809450945094509450506114a8565b60005b601254811015611497576000611348826129eb565b905060006013838154811061135f5761135f613b30565b906000526020600020015490506014548161137a9190613b46565b8211156114825760005b6012548110156114805783811461146e5760006113a0826129eb565b90506000601383815481106113b7576113b7613b30565b90600052602060002001549050601454816113d29190613a8f565b82101561146b576000612710886113e98789613a8f565b6113f39190613aef565b6113fd9190613b1c565b905060016012888154811061141457611414613b30565b600091825260209091200154601280546001600160a01b03909216918790811061144057611440613b30565b600091825260209091200154919d509b506001600160a01b0316995097506114a89650505050505050565b50505b8061147881613b59565b915050611384565b505b5050808061148f90613b59565b915050611333565b506000806000809450945094509450505b90919293565b6060806060601280548060200260200160405190810160405280929190818152602001828054801561150957602002820191906000526020600020905b81546001600160a01b031681526001909101906020018083116114eb575b50505050509250601380548060200260200160405190810160405280929190818152602001828054801561155c57602002820191906000526020600020905b815481526020019060010190808311611548575b5050601254939450505067ffffffffffffffff8211159050611580576115806134ad565b6040519080825280602002602001820160405280156115a9578160200160208202803683370190505b50915060005b6012548110156115f1576115c2816129eb565b8382815181106115d4576115d4613b30565b6020908102919091010152806115e981613b59565b9150506115af565b50909192565b60006116038383612a43565b905061160d612a5f565b1561161a5761161a6118eb565b600f5460408051858152602081018490526001600160a01b038516917ff4c57637dd38389180a3140034c6f38a9aa64c7c158c0e2e315847639718a905910160405180910390a392915050565b6000611672816125a1565b610bb88211156116b35760405162461bcd60e51b815260206004820152600c60248201526b08ccaca40e8dede40d0d2ced60a31b6044820152606401610c78565b600980549083905560408051828152602081018590527f607b1c943753982194530bf7133a5972ea2626e028005410efa54ab20035caf89101610eb3565b600080516020613d86833981519152611709816125a1565b6000601854426117199190613a8f565b90506000611725610ac0565b6040516320d7a7ad60e21b81526004810182905260248101849052909150600090309063835e9eb490604401602060405180830381865afa15801561176e573d6000803e3d6000fd5b505050506040513d601f19601f820116820180604052508101906117929190613b72565b90508015610ee5577f000000000000000000000000000000000000000000000000000000000000000060405163a9059cbb60e01b8152336004820152602481018390526001600160a01b03919091169063a9059cbb906044016020604051808303816000875af115801561180a573d6000803e3d6000fd5b505050506040513d601f19601f8201168201806040525081019061182e9190613b8b565b5042601881905560405130917f108516ddcf5ba43cea6bb2cd5ff6d59ac196c1c86ccb9178332b9dd72d1ca5619161186e91858252602082015260400190565b60405180910390a250505050565b7f17a8e30262c1f919c33056d877a3c22b95c2f5e4dac44683c1c2323cd79fbdb06118a6816125a1565b6118ae612a79565b7f967c2a3d21d6001f5ed872635cf9e4a320c90180d6caed65f90623cea6d535e782426040516118df929190613ba8565b60405180910390a15050565b60075460ff16156119305760405162461bcd60e51b815260206004820152600f60248201526e15985d5b1d081a5cc81c185d5cd959608a1b6044820152606401610c78565b60008060008061193e611302565b9350935093509350836119515750505050565b600061195c846128cf565b90506000611969846128cf565b9050611976828285612069565b426015556001600160a01b038085169086167f373f5e49ce825fd107c22e1666bd92419640f3189a99ffa8819dc2d7580d5bd1856119b3866129eb565b601387815481106119c6576119c6613b30565b60009182526020918290200154604080519485529184019290925282015260600160405180910390a3505050505050565b600064496cebb8008260165485611a0e9190613aef565b611a189190613aef565b610e369190613b1c565b60009182526005602090815260408084206001600160a01b0393909316845291905290205460ff1690565b6000611a57612a9f565b611a5f612a79565b611a698383612ac9565b9050610b296001600655565b600080516020613d66833981519152611a8d816125a1565b7f00000000000000000000000000000000000000000000000000000000000000006001600160a01b0316836001600160a01b031603611b0e5760405162461bcd60e51b815260206004820152601b60248201527f43616e6e6f74207769746864726177207661756c7420617373657400000000006044820152606401610c78565b600d54611b28906001600160a01b03858116911684612833565b600d54604080516001600160a01b03808716825260208201869052909216908201527f3ab9db27a4cdd8c603a752b62d5fbd93b4b3509fe2596708e9688e42bbac357690606001610eb3565b606060048054610b3e90613aa2565b60128181548110611b9357600080fd5b6000918252602090912001546001600160a01b0316905081565b6000611bb8816125a1565b6012548210611bf95760405162461bcd60e51b815260206004820152600d60248201526c092dcecc2d8d2c840d2dcc8caf609b1b6044820152606401610c78565b600060128381548110611c0e57611c0e613b30565b6000918252602090912001546001600160a01b03169050825b601254611c3690600190613a8f565b811015611d08576012611c4a826001613b46565b81548110611c5a57611c5a613b30565b600091825260209091200154601280546001600160a01b039092169183908110611c8657611c86613b30565b600091825260209091200180546001600160a01b0319166001600160a01b03929092169190911790556013611cbc826001613b46565b81548110611ccc57611ccc613b30565b906000526020600020015460138281548110611cea57611cea613b30565b60009182526020909120015580611d0081613b59565b915050611c27565b506012805480611d1a57611d1a613bca565b600082815260209020810160001990810180546001600160a01b03191690550190556013805480611d4d57611d4d613bca565b600190038181906000526020600020016000905590557f3977fdeff40857fbe2c9282bf44e2769213f22cda97afa0759cf4984975d11c183604051610eb391815260200190565b600033610bdc818585612681565b6000610b2982612b17565b6000611db7612a9f565b611dc2848484612b24565b9050610e366001600655565b6000611dd8612a9f565b611dc2848484612b7c565b6000611dee816125a1565b6012548214611e315760405162461bcd60e51b815260206004820152600f60248201526e098cadccee8d040dad2e6dac2e8c6d608b1b6044820152606401610c78565b611e6d83838080602002602001604051908101604052809392919081815260200183836020028082843760009201919091525061293692505050565b611eaf5760405162461bcd60e51b8152602060048201526013602482015272496e76616c696420616c6c6f636174696f6e7360681b6044820152606401610c78565b611ebb601384846132f0565b507f0be7004609d76e2b3efe2d18c2de3b1c71d560fb59b9a0f19f7ce22aefdecd408383604051610eb3929190613be0565b3360009081526011602052604090205460ff16611f445760405162461bcd60e51b81526020600482015260156024820152742737ba1030baba3437b934bd32b21039b2b73232b960591b6044820152606401610c78565b6012548310611f8a5760405162461bcd60e51b8152602060048201526012602482015271092dcecc2d8d2c840cce4deda40d2dcc8caf60731b6044820152606401610c78565b6012548210611fce5760405162461bcd60e51b815260206004820152601060248201526f092dcecc2d8d2c840e8de40d2dcc8caf60831b6044820152606401610c78565b8183036120125760405162461bcd60e51b815260206004820152601260248201527153616d6520746f6b656e20696e646963657360701b6044820152606401610c78565b600081116120625760405162461bcd60e51b815260206004820152601760248201527f416d6f756e74206d75737420626520706f7369746976650000000000000000006044820152606401610c78565b6120698383835b60408051848152602081018490529081018290527f94f559da092d98a1ba2672afcdf872f0d1da0018658ab5a5aa653d421d9b110590606001610eb3565b6000610b29826000612bcb565b60006120c260075460ff1690565b610f91576120cf82612bfb565b610b29565b6000828152600560205260409020600101546120ef816125a1565b610ee58383612774565b600061210760075460ff1690565b610f91576120cf82612c1f565b60606012805480602002602001604051908101604052809291908181526020018280548015610bb757602002820191906000526020600020905b81546001600160a01b0316815260019091019060200180831161214e575050505050905090565b6001600160a01b037f000000000000000000000000000000000000000000000000000000000000000016156121e25760405162461bcd60e51b8152602060048201526013602482015272105b1c9958591e481a5b9a5d1a585b1a5e9959606a1b6044820152606401610c78565b6001600160a01b0385166122385760405162461bcd60e51b815260206004820152601a60248201527f496e76616c6964204c617965725a65726f20656e64706f696e740000000000006044820152606401610c78565b8281146122795760405162461bcd60e51b815260206004820152600f60248201526e098cadccee8d040dad2e6dac2e8c6d608b1b6044820152606401610c78565b6122b582828080602002602001604051908101604052809392919081815260200183836020028082843760009201919091525061293692505050565b6122f75760405162461bcd60e51b8152602060048201526013602482015272496e76616c696420616c6c6f636174696f6e7360681b6044820152606401610c78565b600f8b9055600e80546001600160a01b0319166001600160a01b0387161790556123236012858561333b565b50612330601383836132f0565b504260158190556018556001600160a01b03808b16600081815260116020526040808220805460ff191660011790555191928f16918e917fc221d16022d31138e130dcda10441a725921ca5f956185e8a45f9abe8ad7e2d491a4505050505050505050505050565b6000610b29826120a7565b60006123ae816125a1565b506001600160a01b03919091166000908152601160205260409020805460ff1916911515919091179055565b60006123e5816125a1565b6101f48211156124265760405162461bcd60e51b815260206004820152600c60248201526b08ccaca40e8dede40d0d2ced60a31b6044820152606401610c78565b600880549083905560408051828152602081018590527ff5ff4786e844406502466108c183ca5ff947880b3ba08b1500eea9c29d12030d9101610eb3565b60007f00000000000000000000000000000000000000000000000000000000000000006040516370a0823160e01b81523060048201526001600160a01b0391909116906370a0823190602401602060405180830381865afa1580156124cd573d6000803e3d6000fd5b505050506040513d601f19601f82011682018060405250810190610f179190613b72565b600080600a54426125029190613a8f565b9050600061250e612464565b905060006125226301e13380612710613aef565b83600854846125319190613aef565b61253b9190613aef565b6125459190613b1c565b949350505050565b6000610e3661255a610ac0565b612565906001613b46565b6125716000600a613cfd565b60025461257e9190613b46565b85919085612c3d565b610f4f8383836001612c81565b6000610b29826001612bcb565b610f748133612d56565b6125b66000846126e0565b506125cf600080516020613d86833981519152836126e0565b506125e8600080516020613d66833981519152826126e0565b505042600a55506000600b819055600c55600d80546001600160a01b0319166001600160a01b0392909216919091179055565b6001600160a01b03838116600090815260016020908152604080832093861683529290522054600019811015610ee5578181101561267257828183604051637dc7a0d960e11b8152600401610c7893929190613d0c565b610ee584848484036000612c81565b6001600160a01b0383166126ab57604051634b637e8f60e11b815260006004820152602401610c78565b6001600160a01b0382166126d55760405163ec442f0560e01b815260006004820152602401610c78565b610f4f838383612d93565b60006126ec8383611a22565b61276c5760008381526005602090815260408083206001600160a01b03861684529091529020805460ff191660011790556127243390565b6001600160a01b0316826001600160a01b0316847f2f8788117e7eff1d82e926ec794901d17c78024a50270940304540a733656f0d60405160405180910390a4506001610b29565b506000610b29565b60006127808383611a22565b1561276c5760008381526005602090815260408083206001600160a01b0386168085529252808320805460ff1916905551339286917ff6391f5c32d9c69d2a47ea670b442974b53935d1edc7fd64eb21e047a839171b9190a4506001610b29565b6127e9612eaa565b6007805460ff191690557f5db9ee0a495bf2e6ff9c91a7834c1ba4fdd244a5e8aa4e537bd38aeae4b073aa335b6040516001600160a01b03909116815260200160405180910390a1565b6040516001600160a01b03838116602483015260448201839052610f4f91859182169063a9059cbb906064015b604051602081830303815290604052915060e01b6020820180516001600160e01b038381831617835250505050612ecd565b61289a612a79565b6007805460ff191660011790557f62e78cea01bee320cd4e420270b5ea74000d11b0c9f74754ebdbfc544b05a2586128163390565b6000805b60125481101561292c57826001600160a01b0316601282815481106128fa576128fa613b30565b6000918252602090912001546001600160a01b03160361291a5792915050565b8061292481613b59565b9150506128d3565b5060001992915050565b600080805b835181101561297d5783818151811061295657612956613b30565b6020026020010151826129699190613b46565b91508061297581613b59565b91505061293b565b506127101492915050565b600080805b6012548110156129e5576129c7601282815481106129ad576129ad613b30565b6000918252602090912001546001600160a01b0316612f3e565b6129d19083613b46565b9150806129dd81613b59565b91505061298d565b50919050565b60125460009082106129ff57506000919050565b6000612a09612988565b905080600003612a1c5750600092915050565b6000612a34601285815481106129ad576129ad613b30565b90508161253b82612710613aef565b6000612a4d612a9f565b612a55612a79565b611a698383612fab565b6000601554610e10612a719190613b46565b421015905090565b60075460ff1615612a9d5760405163d93c066560e01b815260040160405180910390fd5b565b600260065403612ac257604051633ee5aeb560e01b815260040160405180910390fd5b6002600655565b600080612ad583610f77565b905080841115612afe5782848260405163284ff66760e01b8152600401610c7893929190613d0c565b6000612b0985611da2565b905061254533858388612ff5565b6000610b2982600161254d565b600080612b30836120b4565b905080851115612b5957828582604051633fa733bb60e21b8152600401610c7893929190613d0c565b6000612b6486610be6565b9050612b733386868985613079565b95945050505050565b600080612b88836120f9565b905080851115612bb157828582604051632e52afbb60e21b8152600401610c7893929190613d0c565b6000612bbc866110d9565b9050612b73338686848a613079565b6000610e36612bdb82600a613cfd565b600254612be89190613b46565b612bf0610ac0565b61257e906001613b46565b6001600160a01b038116600090815260208190526040812054610b2990600061254d565b6001600160a01b038116600090815260208190526040812054610b29565b6000612c6c612c4b83613139565b8015612c67575060008480612c6257612c62613b06565b868809115b151590565b612c77868686613166565b612b739190613b46565b6001600160a01b038416612cab5760405163e602df0560e01b815260006004820152602401610c78565b6001600160a01b038316612cd557604051634a1406b160e11b815260006004820152602401610c78565b6001600160a01b0380851660009081526001602090815260408083209387168352929052208290558015610ee557826001600160a01b0316846001600160a01b03167f8c5be1e5ebec7d5bd14f71427d1e84f3dd0314c0f7b2291e5b200ac8c7c3b92584604051612d4891815260200190565b60405180910390a350505050565b612d608282611a22565b612d8f5760405163e2517d3f60e01b81526001600160a01b038216600482015260248101839052604401610c78565b5050565b6001600160a01b038316612dbe578060026000828254612db39190613b46565b90915550612e1d9050565b6001600160a01b03831660009081526020819052604090205481811015612dfe5783818360405163391434e360e21b8152600401610c7893929190613d0c565b6001600160a01b03841660009081526020819052604090209082900390555b6001600160a01b038216612e3957600280548290039055612e58565b6001600160a01b03821660009081526020819052604090208054820190555b816001600160a01b0316836001600160a01b03167fddf252ad1be2c89b69c2b068fc378daa952ba7f163c4a11628f55a4df523b3ef83604051612e9d91815260200190565b60405180910390a3505050565b60075460ff16612a9d57604051638dfc202b60e01b815260040160405180910390fd5b600080602060008451602086016000885af180612ef0576040513d6000823e3d81fd5b50506000513d91508115612f08578060011415612f15565b6001600160a01b0384163b155b15610ee557604051635274afe760e01b81526001600160a01b0385166004820152602401610c78565b6040516370a0823160e01b815230600482015260009081906001600160a01b038416906370a0823190602401602060405180830381865afa158015612f87573d6000803e3d6000fd5b505050506040513d601f19601f82011682018060405250810190610e369190613b72565b600080612fb783610f77565b905080841115612fe057828482604051633c8097d960e11b8152600401610c7893929190613d0c565b6000612feb85612398565b9050612545338587845b6130217f000000000000000000000000000000000000000000000000000000000000000085308561321b565b61302b8382613254565b826001600160a01b0316846001600160a01b03167fdcbc1c05240f31ff3ad067ef1ee35ce4997762752e3a095284754544f4c709d78484604051612d48929190918252602082015260400190565b826001600160a01b0316856001600160a01b03161461309d5761309d83868361261b565b6130a7838261328a565b6130d27f00000000000000000000000000000000000000000000000000000000000000008584612833565b826001600160a01b0316846001600160a01b0316866001600160a01b03167ffbde797d201c681b91056529119e0b02407c7bb96a4a2c75c01fc9667232c8db858560405161312a929190918252602082015260400190565b60405180910390a45050505050565b6000600282600381111561314f5761314f613d2d565b6131599190613d43565b60ff166001149050919050565b600080600061317586866132c0565b915091508160000361319a5783818161319057613190613b06565b0492505050610e36565b8184116131b1576131b160038515026011186132de565b6000848688096000868103871696879004966002600389028118808a02820302808a02820302808a02820302808a02820302808a02820302808a02909103029181900381900460010185841190960395909502919093039390930492909217029150509392505050565b6040516001600160a01b038481166024830152838116604483015260648201839052610ee59186918216906323b872dd90608401612860565b6001600160a01b03821661327e5760405163ec442f0560e01b815260006004820152602401610c78565b612d8f60008383612d93565b6001600160a01b0382166132b457604051634b637e8f60e11b815260006004820152602401610c78565b612d8f82600083612d93565b60008060001983850993909202808410938190039390930393915050565b634e487b71600052806020526024601cfd5b82805482825590600052602060002090810192821561332b579160200282015b8281111561332b578235825591602001919060010190613310565b5061333792915061338e565b5090565b82805482825590600052602060002090810192821561332b579160200282015b8281111561332b5781546001600160a01b0319166001600160a01b0384351617825560209092019160019091019061335b565b5b80821115613337576000815560010161338f565b6000602082840312156133b557600080fd5b81356001600160e01b031981168114610e3657600080fd5b6000815180845260005b818110156133f3576020818501810151868301820152016133d7565b506000602082860101526020601f19601f83011685010191505092915050565b602081526000610e3660208301846133cd565b60006020828403121561343857600080fd5b5035919050565b6001600160a01b0381168114610f7457600080fd5b803561345f8161343f565b919050565b6000806040838503121561347757600080fd5b82356134828161343f565b946020939093013593505050565b6000602082840312156134a257600080fd5b8135610e368161343f565b634e487b7160e01b600052604160045260246000fd5b600082601f8301126134d457600080fd5b813567ffffffffffffffff808211156134ef576134ef6134ad565b604051601f8301601f19908116603f01168101908282118183101715613517576135176134ad565b8160405283815286602085880101111561353057600080fd5b836020870160208301376000602085830101528094505050505092915050565b600080600080600060a0868803121561356857600080fd5b85356135738161343f565b9450602086013567ffffffffffffffff8082111561359057600080fd5b61359c89838a016134c3565b955060408801359150808211156135b257600080fd5b506135bf888289016134c3565b9598949750949560608101359550608001359392505050565b803563ffffffff8116811461345f57600080fd5b6000602082840312156135fe57600080fd5b610e36826135d8565b60008060006060848603121561361c57600080fd5b83356136278161343f565b925060208401356136378161343f565b929592945050506040919091013590565b6000806040838503121561365b57600080fd5b613482836135d8565b6000806040838503121561367757600080fd5b8235915060208301356136898161343f565b809150509250929050565b600081518084526020808501945080840160005b838110156136cd5781516001600160a01b0316875295820195908201906001016136a8565b509495945050505050565b600081518084526020808501945080840160005b838110156136cd578151875295820195908201906001016136ec565b60608152600061371b6060830186613694565b828103602084015261372d81866136d8565b9050828103604084015261374181856136d8565b9695505050505050565b60006020828403121561375d57600080fd5b813567ffffffffffffffff81111561377457600080fd5b612545848285016134c3565b6000806040838503121561379357600080fd5b50508035926020909101359150565b6000806000606084860312156137b757600080fd5b8335925060208401356137c98161343f565b915060408401356137d98161343f565b809150509250925092565b60008083601f8401126137f657600080fd5b50813567ffffffffffffffff81111561380e57600080fd5b6020830191508360208260051b850101111561382957600080fd5b9250929050565b6000806020838503121561384357600080fd5b823567ffffffffffffffff81111561385a57600080fd5b613866858286016137e4565b90969095509350505050565b60008060006060848603121561388757600080fd5b505081359360208301359350604090920135919050565b602081526000610e366020830184613694565b60008083601f8401126138c357600080fd5b50813567ffffffffffffffff8111156138db57600080fd5b60208301915083602082850101111561382957600080fd5b6000806000806000806000806000806000806101008d8f03121561391657600080fd5b61391f8d613454565b9b5060208d01359a5061393460408e01613454565b995067ffffffffffffffff60608e0135111561394f57600080fd5b61395f8e60608f01358f016138b1565b909950975067ffffffffffffffff60808e0135111561397d57600080fd5b61398d8e60808f01358f016138b1565b909750955061399e60a08e01613454565b945067ffffffffffffffff60c08e013511156139b957600080fd5b6139c98e60c08f01358f016137e4565b909450925067ffffffffffffffff60e08e013511156139e757600080fd5b6139f78e60e08f01358f016137e4565b81935080925050509295989b509295989b509295989b565b60008060408385031215613a2257600080fd5b8235613a2d8161343f565b915060208301356136898161343f565b8015158114610f7457600080fd5b60008060408385031215613a5e57600080fd5b8235613a698161343f565b9150602083013561368981613a3d565b634e487b7160e01b600052601160045260246000fd5b81810381811115610b2957610b29613a79565b600181811c90821680613ab657607f821691505b6020821081036129e557634e487b7160e01b600052602260045260246000fd5b60ff8181168382160190811115610b2957610b29613a79565b8082028115828204841417610b2957610b29613a79565b634e487b7160e01b600052601260045260246000fd5b600082613b2b57613b2b613b06565b500490565b634e487b7160e01b600052603260045260246000fd5b80820180821115610b2957610b29613a79565b600060018201613b6b57613b6b613a79565b5060010190565b600060208284031215613b8457600080fd5b5051919050565b600060208284031215613b9d57600080fd5b8151610e3681613a3d565b604081526000613bbb60408301856133cd565b90508260208301529392505050565b634e487b7160e01b600052603160045260246000fd5b6020808252810182905260006001600160fb1b03831115613c0057600080fd5b8260051b80856040850137919091016040019392505050565b600181815b80851115613c54578160001904821115613c3a57613c3a613a79565b80851615613c4757918102915b93841c9390800290613c1e565b509250929050565b600082613c6b57506001610b29565b81613c7857506000610b29565b8160018114613c8e5760028114613c9857613cb4565b6001915050610b29565b60ff841115613ca957613ca9613a79565b50506001821b610b29565b5060208310610133831016604e8410600b8410161715613cd7575081810a610b29565b613ce18383613c19565b8060001904821115613cf557613cf5613a79565b029392505050565b6000610e3660ff841683613c5c565b6001600160a01b039390931683526020830191909152604082015260600190565b634e487b7160e01b600052602160045260246000fd5b600060ff831680613d5657613d56613b06565b8060ff8416069150509291505056febf233dd2aafeb4d50879c4aa5c81e96d92f6e6945c906a58f9f2d1c1631b4b26241ecf16d79d0f8dbfb92cbc07fe17840425976cf0667f022fe9877caa831b08a264697066735822122093c6b4d3c7c8110471c255e1ac5824383d02d2a9ad21987e8d3e4399ebc6113f64736f6c63430008140033","opcodes":"PUSH1 0xC0 PUSH1 0x40 MSTORE PUSH1 0xC8 PUSH1 0x8 SSTORE PUSH2 0x7D0 PUSH1 0x9 SSTORE PUSH2 0x1F4 PUSH1 0x14 SSTORE PUSH1 0xC8 PUSH1 0x16 SSTORE PUSH2 0x7D0 PUSH1 0x17 SSTORE CALLVALUE DUP1 ISZERO PUSH3 0x2D JUMPI PUSH1 0x0 DUP1 REVERT JUMPDEST POP PUSH1 0x40 MLOAD PUSH3 0x4436 CODESIZE SUB DUP1 PUSH3 0x4436 DUP4 CODECOPY DUP2 ADD PUSH1 0x40 DUP2 SWAP1 MSTORE PUSH3 0x50 SWAP2 PUSH3 0x3D9 JUMP JUMPDEST DUP3 DUP3 DUP3 DUP3 DUP3 DUP3 PUSH1 0x3 PUSH3 0x64 DUP4 DUP3 PUSH3 0x4F2 JUMP JUMPDEST POP PUSH1 0x4 PUSH3 0x73 DUP3 DUP3 PUSH3 0x4F2 JUMP JUMPDEST POP POP POP PUSH1 0x0 DUP1 PUSH3 0x8A DUP4 PUSH3 0xDA PUSH1 0x20 SHL PUSH1 0x20 SHR JUMP JUMPDEST SWAP2 POP SWAP2 POP DUP2 PUSH3 0x9C JUMPI PUSH1 0x12 PUSH3 0x9E JUMP JUMPDEST DUP1 JUMPDEST PUSH1 0xFF AND PUSH1 0xA0 MSTORE POP POP PUSH1 0x1 PUSH1 0x1 PUSH1 0xA0 SHL SUB SWAP1 DUP2 AND PUSH1 0x80 MSTORE PUSH1 0x1 PUSH1 0x6 SSTORE DUP4 AND ISZERO PUSH3 0xCE JUMPI PUSH3 0xCE CALLER DUP1 DUP1 PUSH3 0x1BF JUMP JUMPDEST POP POP POP POP POP POP PUSH3 0x5F6 JUMP JUMPDEST PUSH1 0x40 DUP1 MLOAD PUSH1 0x4 DUP2 MSTORE PUSH1 0x24 DUP2 ADD DUP3 MSTORE PUSH1 0x20 DUP2 ADD DUP1 MLOAD PUSH1 0x1 PUSH1 0x1 PUSH1 0xE0 SHL SUB AND PUSH4 0x313CE567 PUSH1 0xE0 SHL OR SWAP1 MSTORE SWAP1 MLOAD PUSH1 0x0 SWAP2 DUP3 SWAP2 DUP3 SWAP2 DUP3 SWAP2 PUSH1 0x1 PUSH1 0x1 PUSH1 0xA0 SHL SUB DUP8 AND SWAP2 PUSH3 0x123 SWAP2 PUSH3 0x5BE JUMP JUMPDEST PUSH1 0x0 PUSH1 0x40 MLOAD DUP1 DUP4 SUB DUP2 DUP6 GAS STATICCALL SWAP2 POP POP RETURNDATASIZE DUP1 PUSH1 0x0 DUP2 EQ PUSH3 0x160 JUMPI PUSH1 0x40 MLOAD SWAP2 POP PUSH1 0x1F NOT PUSH1 0x3F RETURNDATASIZE ADD AND DUP3 ADD PUSH1 0x40 MSTORE RETURNDATASIZE DUP3 MSTORE RETURNDATASIZE PUSH1 0x0 PUSH1 0x20 DUP5 ADD RETURNDATACOPY PUSH3 0x165 JUMP JUMPDEST PUSH1 0x60 SWAP2 POP JUMPDEST POP SWAP2 POP SWAP2 POP DUP2 DUP1 ISZERO PUSH3 0x17A JUMPI POP PUSH1 0x20 DUP2 MLOAD LT ISZERO JUMPDEST ISZERO PUSH3 0x1B2 JUMPI PUSH1 0x0 DUP2 DUP1 PUSH1 0x20 ADD SWAP1 MLOAD DUP2 ADD SWAP1 PUSH3 0x198 SWAP2 SWAP1 PUSH3 0x5DC JUMP JUMPDEST SWAP1 POP PUSH1 0xFF DUP2 GT PUSH3 0x1B0 JUMPI PUSH1 0x1 SWAP7 SWAP1 SWAP6 POP SWAP4 POP POP POP POP JUMP JUMPDEST POP JUMPDEST POP PUSH1 0x0 SWAP5 DUP6 SWAP5 POP SWAP3 POP POP POP JUMP JUMPDEST PUSH3 0x1CC PUSH1 0x0 DUP5 PUSH3 0x259 JUMP JUMPDEST POP PUSH3 0x1F9 PUSH32 0x241ECF16D79D0F8DBFB92CBC07FE17840425976CF0667F022FE9877CAA831B08 DUP4 PUSH3 0x259 JUMP JUMPDEST POP PUSH3 0x226 PUSH32 0xBF233DD2AAFEB4D50879C4AA5C81E96D92F6E6945C906A58F9F2D1C1631B4B26 DUP3 PUSH3 0x259 JUMP JUMPDEST POP POP TIMESTAMP PUSH1 0xA SSTORE POP PUSH1 0x0 PUSH1 0xB DUP2 SWAP1 SSTORE PUSH1 0xC SSTORE PUSH1 0xD DUP1 SLOAD PUSH1 0x1 PUSH1 0x1 PUSH1 0xA0 SHL SUB NOT AND PUSH1 0x1 PUSH1 0x1 PUSH1 0xA0 SHL SUB SWAP3 SWAP1 SWAP3 AND SWAP2 SWAP1 SWAP2 OR SWAP1 SSTORE JUMP JUMPDEST PUSH1 0x0 DUP3 DUP2 MSTORE PUSH1 0x5 PUSH1 0x20 SWAP1 DUP2 MSTORE PUSH1 0x40 DUP1 DUP4 KECCAK256 PUSH1 0x1 PUSH1 0x1 PUSH1 0xA0 SHL SUB DUP6 AND DUP5 MSTORE SWAP1 SWAP2 MSTORE DUP2 KECCAK256 SLOAD PUSH1 0xFF AND PUSH3 0x302 JUMPI PUSH1 0x0 DUP4 DUP2 MSTORE PUSH1 0x5 PUSH1 0x20 SWAP1 DUP2 MSTORE PUSH1 0x40 DUP1 DUP4 KECCAK256 PUSH1 0x1 PUSH1 0x1 PUSH1 0xA0 SHL SUB DUP7 AND DUP5 MSTORE SWAP1 SWAP2 MSTORE SWAP1 KECCAK256 DUP1 SLOAD PUSH1 0xFF NOT AND PUSH1 0x1 OR SWAP1 SSTORE PUSH3 0x2B9 CALLER SWAP1 JUMP JUMPDEST PUSH1 0x1 PUSH1 0x1 PUSH1 0xA0 SHL SUB AND DUP3 PUSH1 0x1 PUSH1 0x1 PUSH1 0xA0 SHL SUB AND DUP5 PUSH32 0x2F8788117E7EFF1D82E926EC794901D17C78024A50270940304540A733656F0D PUSH1 0x40 MLOAD PUSH1 0x40 MLOAD DUP1 SWAP2 SUB SWAP1 LOG4 POP PUSH1 0x1 PUSH3 0x306 JUMP JUMPDEST POP PUSH1 0x0 JUMPDEST SWAP3 SWAP2 POP POP JUMP JUMPDEST PUSH4 0x4E487B71 PUSH1 0xE0 SHL PUSH1 0x0 MSTORE PUSH1 0x41 PUSH1 0x4 MSTORE PUSH1 0x24 PUSH1 0x0 REVERT JUMPDEST PUSH1 0x0 JUMPDEST DUP4 DUP2 LT ISZERO PUSH3 0x33F JUMPI DUP2 DUP2 ADD MLOAD DUP4 DUP3 ADD MSTORE PUSH1 0x20 ADD PUSH3 0x325 JUMP JUMPDEST POP POP PUSH1 0x0 SWAP2 ADD MSTORE JUMP JUMPDEST PUSH1 0x0 DUP3 PUSH1 0x1F DUP4 ADD SLT PUSH3 0x35A JUMPI PUSH1 0x0 DUP1 REVERT JUMPDEST DUP2 MLOAD PUSH1 0x1 PUSH1 0x1 PUSH1 0x40 SHL SUB DUP1 DUP3 GT ISZERO PUSH3 0x377 JUMPI PUSH3 0x377 PUSH3 0x30C JUMP JUMPDEST PUSH1 0x40 MLOAD PUSH1 0x1F DUP4 ADD PUSH1 0x1F NOT SWAP1 DUP2 AND PUSH1 0x3F ADD AND DUP2 ADD SWAP1 DUP3 DUP3 GT DUP2 DUP4 LT OR ISZERO PUSH3 0x3A2 JUMPI PUSH3 0x3A2 PUSH3 0x30C JUMP JUMPDEST DUP2 PUSH1 0x40 MSTORE DUP4 DUP2 MSTORE DUP7 PUSH1 0x20 DUP6 DUP9 ADD ADD GT ISZERO PUSH3 0x3BC JUMPI PUSH1 0x0 DUP1 REVERT JUMPDEST PUSH3 0x3CF DUP5 PUSH1 0x20 DUP4 ADD PUSH1 0x20 DUP10 ADD PUSH3 0x322 JUMP JUMPDEST SWAP7 SWAP6 POP POP POP POP POP POP JUMP JUMPDEST PUSH1 0x0 DUP1 PUSH1 0x0 PUSH1 0x60 DUP5 DUP7 SUB SLT ISZERO PUSH3 0x3EF JUMPI PUSH1 0x0 DUP1 REVERT JUMPDEST DUP4 MLOAD PUSH1 0x1 PUSH1 0x1 PUSH1 0xA0 SHL SUB DUP2 AND DUP2 EQ PUSH3 0x407 JUMPI PUSH1 0x0 DUP1 REVERT JUMPDEST PUSH1 0x20 DUP6 ADD MLOAD SWAP1 SWAP4 POP PUSH1 0x1 PUSH1 0x1 PUSH1 0x40 SHL SUB DUP1 DUP3 GT ISZERO PUSH3 0x425 JUMPI PUSH1 0x0 DUP1 REVERT JUMPDEST PUSH3 0x433 DUP8 DUP4 DUP9 ADD PUSH3 0x348 JUMP JUMPDEST SWAP4 POP PUSH1 0x40 DUP7 ADD MLOAD SWAP2 POP DUP1 DUP3 GT ISZERO PUSH3 0x44A JUMPI PUSH1 0x0 DUP1 REVERT JUMPDEST POP PUSH3 0x459 DUP7 DUP3 DUP8 ADD PUSH3 0x348 JUMP JUMPDEST SWAP2 POP POP SWAP3 POP SWAP3 POP SWAP3 JUMP JUMPDEST PUSH1 0x1 DUP2 DUP2 SHR SWAP1 DUP3 AND DUP1 PUSH3 0x478 JUMPI PUSH1 0x7F DUP3 AND SWAP2 POP JUMPDEST PUSH1 0x20 DUP3 LT DUP2 SUB PUSH3 0x499 JUMPI PUSH4 0x4E487B71 PUSH1 0xE0 SHL PUSH1 0x0 MSTORE PUSH1 0x22 PUSH1 0x4 MSTORE PUSH1 0x24 PUSH1 0x0 REVERT JUMPDEST POP SWAP2 SWAP1 POP JUMP JUMPDEST PUSH1 0x1F DUP3 GT ISZERO PUSH3 0x4ED JUMPI PUSH1 0x0 DUP2 DUP2 MSTORE PUSH1 0x20 DUP2 KECCAK256 PUSH1 0x1F DUP6 ADD PUSH1 0x5 SHR DUP2 ADD PUSH1 0x20 DUP7 LT ISZERO PUSH3 0x4C8 JUMPI POP DUP1 JUMPDEST PUSH1 0x1F DUP6 ADD PUSH1 0x5 SHR DUP3 ADD SWAP2 POP JUMPDEST DUP2 DUP2 LT ISZERO PUSH3 0x4E9 JUMPI DUP3 DUP2 SSTORE PUSH1 0x1 ADD PUSH3 0x4D4 JUMP JUMPDEST POP POP POP JUMPDEST POP POP POP JUMP JUMPDEST DUP2 MLOAD PUSH1 0x1 PUSH1 0x1 PUSH1 0x40 SHL SUB DUP2 GT ISZERO PUSH3 0x50E JUMPI PUSH3 0x50E PUSH3 0x30C JUMP JUMPDEST PUSH3 0x526 DUP2 PUSH3 0x51F DUP5 SLOAD PUSH3 0x463 JUMP JUMPDEST DUP5 PUSH3 0x49F JUMP JUMPDEST PUSH1 0x20 DUP1 PUSH1 0x1F DUP4 GT PUSH1 0x1 DUP2 EQ PUSH3 0x55E JUMPI PUSH1 0x0 DUP5 ISZERO PUSH3 0x545 JUMPI POP DUP6 DUP4 ADD MLOAD JUMPDEST PUSH1 0x0 NOT PUSH1 0x3 DUP7 SWAP1 SHL SHR NOT AND PUSH1 0x1 DUP6 SWAP1 SHL OR DUP6 SSTORE PUSH3 0x4E9 JUMP JUMPDEST PUSH1 0x0 DUP6 DUP2 MSTORE PUSH1 0x20 DUP2 KECCAK256 PUSH1 0x1F NOT DUP7 AND SWAP2 JUMPDEST DUP3 DUP2 LT ISZERO PUSH3 0x58F JUMPI DUP9 DUP7 ADD MLOAD DUP3 SSTORE SWAP5 DUP5 ADD SWAP5 PUSH1 0x1 SWAP1 SWAP2 ADD SWAP1 DUP5 ADD PUSH3 0x56E JUMP JUMPDEST POP DUP6 DUP3 LT ISZERO PUSH3 0x5AE JUMPI DUP8 DUP6 ADD MLOAD PUSH1 0x0 NOT PUSH1 0x3 DUP9 SWAP1 SHL PUSH1 0xF8 AND SHR NOT AND DUP2 SSTORE JUMPDEST POP POP POP POP POP PUSH1 0x1 SWAP1 DUP2 SHL ADD SWAP1 SSTORE POP JUMP JUMPDEST PUSH1 0x0 DUP3 MLOAD PUSH3 0x5D2 DUP2 DUP5 PUSH1 0x20 DUP8 ADD PUSH3 0x322 JUMP JUMPDEST SWAP2 SWAP1 SWAP2 ADD SWAP3 SWAP2 POP POP JUMP JUMPDEST PUSH1 0x0 PUSH1 0x20 DUP3 DUP5 SUB SLT ISZERO PUSH3 0x5EF JUMPI PUSH1 0x0 DUP1 REVERT JUMPDEST POP MLOAD SWAP2 SWAP1 POP JUMP JUMPDEST PUSH1 0x80 MLOAD PUSH1 0xA0 MLOAD PUSH2 0x3DDB PUSH3 0x65B PUSH1 0x0 CODECOPY PUSH1 0x0 PUSH2 0xEF3 ADD MSTORE PUSH1 0x0 DUP2 DUP2 PUSH2 0x6C5 ADD MSTORE DUP2 DUP2 PUSH2 0xCAE ADD MSTORE DUP2 DUP2 PUSH2 0x100A ADD MSTORE DUP2 DUP2 PUSH2 0x1053 ADD MSTORE DUP2 DUP2 PUSH2 0x179C ADD MSTORE DUP2 DUP2 PUSH2 0x1A8F ADD MSTORE DUP2 DUP2 PUSH2 0x217F ADD MSTORE DUP2 DUP2 PUSH2 0x2468 ADD MSTORE DUP2 DUP2 PUSH2 0x2FFA ADD MSTORE PUSH2 0x30AC ADD MSTORE PUSH2 0x3DDB PUSH1 0x0 RETURN INVALID PUSH1 0x80 PUSH1 0x40 MSTORE CALLVALUE DUP1 ISZERO PUSH2 0x10 JUMPI PUSH1 0x0 DUP1 REVERT JUMPDEST POP PUSH1 0x4 CALLDATASIZE LT PUSH2 0x4A1 JUMPI PUSH1 0x0 CALLDATALOAD PUSH1 0xE0 SHR DUP1 PUSH4 0x710F20A2 GT PUSH2 0x26D JUMPI DUP1 PUSH4 0xBBBAA299 GT PUSH2 0x151 JUMPI DUP1 PUSH4 0xD905777E GT PUSH2 0xCE JUMPI DUP1 PUSH4 0xDD62ED3E GT PUSH2 0x92 JUMPI DUP1 PUSH4 0xDD62ED3E EQ PUSH2 0xA2E JUMPI DUP1 PUSH4 0xE6A69AB8 EQ PUSH2 0xA67 JUMPI DUP1 PUSH4 0xEC87621C EQ PUSH2 0xA72 JUMPI DUP1 PUSH4 0xEF8B30F7 EQ PUSH2 0xA87 JUMPI DUP1 PUSH4 0xF3DFC2A9 EQ PUSH2 0xA9A JUMPI DUP1 PUSH4 0xFE56E232 EQ PUSH2 0xAAD JUMPI PUSH1 0x0 DUP1 REVERT JUMPDEST DUP1 PUSH4 0xD905777E EQ PUSH2 0x9E1 JUMPI DUP1 PUSH4 0xD95BD6C9 EQ PUSH2 0x9F4 JUMPI DUP1 PUSH4 0xD9CA21D5 EQ PUSH2 0xA09 JUMPI DUP1 PUSH4 0xDC784787 EQ PUSH2 0xA12 JUMPI DUP1 PUSH4 0xDD26BAAD EQ PUSH2 0xA25 JUMPI PUSH1 0x0 DUP1 REVERT JUMPDEST DUP1 PUSH4 0xCAC18642 GT PUSH2 0x115 JUMPI DUP1 PUSH4 0xCAC18642 EQ PUSH2 0x998 JUMPI DUP1 PUSH4 0xCE96CB77 EQ PUSH2 0x9A9 JUMPI DUP1 PUSH4 0xCEB0F626 EQ PUSH2 0x9BC JUMPI DUP1 PUSH4 0xD547741F EQ PUSH2 0x9C5 JUMPI DUP1 PUSH4 0xD73792A9 EQ PUSH2 0x9D8 JUMPI PUSH1 0x0 DUP1 REVERT JUMPDEST DUP1 PUSH4 0xBBBAA299 EQ PUSH2 0x956 JUMPI DUP1 PUSH4 0xBDCA9165 EQ PUSH2 0x969 JUMPI DUP1 PUSH4 0xC38A04BA EQ PUSH2 0x972 JUMPI DUP1 PUSH4 0xC63D75B6 EQ PUSH2 0x6FA JUMPI DUP1 PUSH4 0xC6E6F592 EQ PUSH2 0x985 JUMPI PUSH1 0x0 DUP1 REVERT JUMPDEST DUP1 PUSH4 0x9908840C GT PUSH2 0x1EA JUMPI DUP1 PUSH4 0xA8551336 GT PUSH2 0x1AE JUMPI DUP1 PUSH4 0xA8551336 EQ PUSH2 0x8EE JUMPI DUP1 PUSH4 0xA9059CBB EQ PUSH2 0x901 JUMPI DUP1 PUSH4 0xB3D7F6B9 EQ PUSH2 0x914 JUMPI DUP1 PUSH4 0xB460AF94 EQ PUSH2 0x927 JUMPI DUP1 PUSH4 0xB9D4E879 EQ PUSH2 0x93A JUMPI DUP1 PUSH4 0xBA087652 EQ PUSH2 0x943 JUMPI PUSH1 0x0 DUP1 REVERT JUMPDEST DUP1 PUSH4 0x9908840C EQ PUSH2 0x89A JUMPI DUP1 PUSH4 0xA217FDDF EQ PUSH2 0x8A3 JUMPI DUP1 PUSH4 0xA378A324 EQ PUSH2 0x8AB JUMPI DUP1 PUSH4 0xA3BF224B EQ PUSH2 0x8D2 JUMPI DUP1 PUSH4 0xA6F7F5D6 EQ PUSH2 0x8E5 JUMPI PUSH1 0x0 DUP1 REVERT JUMPDEST DUP1 PUSH4 0x87788782 GT PUSH2 0x231 JUMPI DUP1 PUSH4 0x87788782 EQ PUSH2 0x850 JUMPI DUP1 PUSH4 0x91D14854 EQ PUSH2 0x859 JUMPI DUP1 PUSH4 0x94BF804D EQ PUSH2 0x86C JUMPI DUP1 PUSH4 0x95CCEA67 EQ PUSH2 0x87F JUMPI DUP1 PUSH4 0x95D89B41 EQ PUSH2 0x892 JUMPI PUSH1 0x0 DUP1 REVERT JUMPDEST DUP1 PUSH4 0x710F20A2 EQ PUSH2 0x81A JUMPI DUP1 PUSH4 0x77D60397 EQ PUSH2 0x822 JUMPI DUP1 PUSH4 0x7A6EFD47 EQ PUSH2 0x835 JUMPI DUP1 PUSH4 0x835E9EB4 EQ PUSH2 0x83D JUMPI DUP1 PUSH4 0x8456CB59 EQ PUSH2 0x728 JUMPI PUSH1 0x0 DUP1 REVERT JUMPDEST DUP1 PUSH4 0x2F2FF15D GT PUSH2 0x394 JUMPI DUP1 PUSH4 0x4CDAD506 GT PUSH2 0x311 JUMPI DUP1 PUSH4 0x5FD4743A GT PUSH2 0x2D5 JUMPI DUP1 PUSH4 0x5FD4743A EQ PUSH2 0x757 JUMPI DUP1 PUSH4 0x6C969256 EQ PUSH2 0x791 JUMPI DUP1 PUSH4 0x6E553F65 EQ PUSH2 0x7A8 JUMPI DUP1 PUSH4 0x6F324967 EQ PUSH2 0x7BB JUMPI DUP1 PUSH4 0x70897B23 EQ PUSH2 0x7DE JUMPI DUP1 PUSH4 0x70A08231 EQ PUSH2 0x7F1 JUMPI PUSH1 0x0 DUP1 REVERT JUMPDEST DUP1 PUSH4 0x4CDAD506 EQ PUSH2 0x715 JUMPI DUP1 PUSH4 0x51858E27 EQ PUSH2 0x728 JUMPI DUP1 PUSH4 0x53D05885 EQ PUSH2 0x730 JUMPI DUP1 PUSH4 0x568EFC07 EQ PUSH2 0x743 JUMPI DUP1 PUSH4 0x5C975ABB EQ PUSH2 0x74C JUMPI PUSH1 0x0 DUP1 REVERT JUMPDEST DUP1 PUSH4 0x3DFE9F6A GT PUSH2 0x358 JUMPI DUP1 PUSH4 0x3DFE9F6A EQ PUSH2 0x6E9 JUMPI DUP1 PUSH4 0x3F4BA83A EQ PUSH2 0x6F2 JUMPI DUP1 PUSH4 0x402D267D EQ PUSH2 0x6FA JUMPI DUP1 PUSH4 0x4641257D EQ PUSH2 0x70D JUMPI DUP1 PUSH4 0x4A4E3BD5 EQ PUSH2 0x6F2 JUMPI PUSH1 0x0 DUP1 REVERT JUMPDEST DUP1 PUSH4 0x2F2FF15D EQ PUSH2 0x67A JUMPI DUP1 PUSH4 0x313CE567 EQ PUSH2 0x68D JUMPI DUP1 PUSH4 0x36568ABE EQ PUSH2 0x6A7 JUMPI DUP1 PUSH4 0x3813C35A EQ PUSH2 0x6BA JUMPI DUP1 PUSH4 0x38D52E0F EQ PUSH2 0x6C3 JUMPI PUSH1 0x0 DUP1 REVERT JUMPDEST DUP1 PUSH4 0x18CDB546 GT PUSH2 0x422 JUMPI DUP1 PUSH4 0x20DF4359 GT PUSH2 0x3E6 JUMPI DUP1 PUSH4 0x20DF4359 EQ PUSH2 0x609 JUMPI DUP1 PUSH4 0x23B872DD EQ PUSH2 0x61E JUMPI DUP1 PUSH4 0x248A9CA3 EQ PUSH2 0x631 JUMPI DUP1 PUSH4 0x2775EEE8 EQ PUSH2 0x654 JUMPI DUP1 PUSH4 0x2BDA3E0B EQ PUSH2 0x667 JUMPI PUSH1 0x0 DUP1 REVERT JUMPDEST DUP1 PUSH4 0x18CDB546 EQ PUSH2 0x581 JUMPI DUP1 PUSH4 0x1B035932 EQ PUSH2 0x5B8 JUMPI DUP1 PUSH4 0x1CA29139 EQ PUSH2 0x5CD JUMPI DUP1 PUSH4 0x1D187C50 EQ PUSH2 0x5E0 JUMPI DUP1 PUSH4 0x1E8410DA EQ PUSH2 0x600 JUMPI PUSH1 0x0 DUP1 REVERT JUMPDEST DUP1 PUSH4 0x95EA7B3 GT PUSH2 0x469 JUMPI DUP1 PUSH4 0x95EA7B3 EQ PUSH2 0x537 JUMPI DUP1 PUSH4 0xA28A477 EQ PUSH2 0x54A JUMPI DUP1 PUSH4 0x17A9E198 EQ PUSH2 0x55D JUMPI DUP1 PUSH4 0x18160DDD EQ PUSH2 0x566 JUMPI DUP1 PUSH4 0x18BF4CF1 EQ PUSH2 0x56E JUMPI PUSH1 0x0 DUP1 REVERT JUMPDEST DUP1 PUSH4 0x1E1D114 EQ PUSH2 0x4A6 JUMPI DUP1 PUSH4 0x1FFC9A7 EQ PUSH2 0x4C1 JUMPI DUP1 PUSH4 0x6FDDE03 EQ PUSH2 0x4E4 JUMPI DUP1 PUSH4 0x7968DB1 EQ PUSH2 0x4F9 JUMPI DUP1 PUSH4 0x7A2D13A EQ PUSH2 0x524 JUMPI JUMPDEST PUSH1 0x0 DUP1 REVERT JUMPDEST PUSH2 0x4AE PUSH2 0xAC0 JUMP JUMPDEST PUSH1 0x40 MLOAD SWAP1 DUP2 MSTORE PUSH1 0x20 ADD JUMPDEST PUSH1 0x40 MLOAD DUP1 SWAP2 SUB SWAP1 RETURN JUMPDEST PUSH2 0x4D4 PUSH2 0x4CF CALLDATASIZE PUSH1 0x4 PUSH2 0x33A3 JUMP JUMPDEST PUSH2 0xAF8 JUMP JUMPDEST PUSH1 0x40 MLOAD SWAP1 ISZERO ISZERO DUP2 MSTORE PUSH1 0x20 ADD PUSH2 0x4B8 JUMP JUMPDEST PUSH2 0x4EC PUSH2 0xB2F JUMP JUMPDEST PUSH1 0x40 MLOAD PUSH2 0x4B8 SWAP2 SWAP1 PUSH2 0x3413 JUMP JUMPDEST PUSH1 0xE SLOAD PUSH2 0x50C SWAP1 PUSH1 0x1 PUSH1 0x1 PUSH1 0xA0 SHL SUB AND DUP2 JUMP JUMPDEST PUSH1 0x40 MLOAD PUSH1 0x1 PUSH1 0x1 PUSH1 0xA0 SHL SUB SWAP1 SWAP2 AND DUP2 MSTORE PUSH1 0x20 ADD PUSH2 0x4B8 JUMP JUMPDEST PUSH2 0x4AE PUSH2 0x532 CALLDATASIZE PUSH1 0x4 PUSH2 0x3426 JUMP JUMPDEST PUSH2 0xBC1 JUMP JUMPDEST PUSH2 0x4D4 PUSH2 0x545 CALLDATASIZE PUSH1 0x4 PUSH2 0x3464 JUMP JUMPDEST PUSH2 0xBCE JUMP JUMPDEST PUSH2 0x4AE PUSH2 0x558 CALLDATASIZE PUSH1 0x4 PUSH2 0x3426 JUMP JUMPDEST PUSH2 0xBE6 JUMP JUMPDEST PUSH2 0x4AE PUSH1 0x18 SLOAD DUP2 JUMP JUMPDEST PUSH1 0x2 SLOAD PUSH2 0x4AE JUMP JUMPDEST PUSH1 0xD SLOAD PUSH2 0x50C SWAP1 PUSH1 0x1 PUSH1 0x1 PUSH1 0xA0 SHL SUB AND DUP2 JUMP JUMPDEST PUSH2 0x589 PUSH2 0xBF1 JUMP JUMPDEST PUSH1 0x40 DUP1 MLOAD SWAP7 DUP8 MSTORE PUSH1 0x20 DUP8 ADD SWAP6 SWAP1 SWAP6 MSTORE SWAP4 DUP6 ADD SWAP3 SWAP1 SWAP3 MSTORE ISZERO ISZERO PUSH1 0x60 DUP5 ADD MSTORE PUSH1 0x80 DUP4 ADD MSTORE PUSH1 0xA0 DUP3 ADD MSTORE PUSH1 0xC0 ADD PUSH2 0x4B8 JUMP JUMPDEST PUSH2 0x5CB PUSH2 0x5C6 CALLDATASIZE PUSH1 0x4 PUSH2 0x3490 JUMP JUMPDEST PUSH2 0xC27 JUMP JUMPDEST STOP JUMPDEST PUSH2 0x5CB PUSH2 0x5DB CALLDATASIZE PUSH1 0x4 PUSH2 0x3550 JUMP JUMPDEST PUSH2 0xCA4 JUMP JUMPDEST PUSH2 0x4AE PUSH2 0x5EE CALLDATASIZE PUSH1 0x4 PUSH2 0x35EC JUMP JUMPDEST PUSH1 0x10 PUSH1 0x20 MSTORE PUSH1 0x0 SWAP1 DUP2 MSTORE PUSH1 0x40 SWAP1 KECCAK256 SLOAD DUP2 JUMP JUMPDEST PUSH2 0x4AE PUSH1 0xC SLOAD DUP2 JUMP JUMPDEST PUSH2 0x4AE PUSH1 0x0 DUP1 MLOAD PUSH1 0x20 PUSH2 0x3D66 DUP4 CODECOPY DUP2 MLOAD SWAP2 MSTORE DUP2 JUMP JUMPDEST PUSH2 0x4D4 PUSH2 0x62C CALLDATASIZE PUSH1 0x4 PUSH2 0x3607 JUMP JUMPDEST PUSH2 0xE17 JUMP JUMPDEST PUSH2 0x4AE PUSH2 0x63F CALLDATASIZE PUSH1 0x4 PUSH2 0x3426 JUMP JUMPDEST PUSH1 0x0 SWAP1 DUP2 MSTORE PUSH1 0x5 PUSH1 0x20 MSTORE PUSH1 0x40 SWAP1 KECCAK256 PUSH1 0x1 ADD SLOAD SWAP1 JUMP JUMPDEST PUSH2 0x4AE PUSH2 0x662 CALLDATASIZE PUSH1 0x4 PUSH2 0x3426 JUMP JUMPDEST PUSH2 0xE3D JUMP JUMPDEST PUSH2 0x5CB PUSH2 0x675 CALLDATASIZE PUSH1 0x4 PUSH2 0x3648 JUMP JUMPDEST PUSH2 0xE5E JUMP JUMPDEST PUSH2 0x5CB PUSH2 0x688 CALLDATASIZE PUSH1 0x4 PUSH2 0x3664 JUMP JUMPDEST PUSH2 0xEC0 JUMP JUMPDEST PUSH2 0x695 PUSH2 0xEEB JUMP JUMPDEST PUSH1 0x40 MLOAD PUSH1 0xFF SWAP1 SWAP2 AND DUP2 MSTORE PUSH1 0x20 ADD PUSH2 0x4B8 JUMP JUMPDEST PUSH2 0x5CB PUSH2 0x6B5 CALLDATASIZE PUSH1 0x4 PUSH2 0x3664 JUMP JUMPDEST PUSH2 0xF1C JUMP JUMPDEST PUSH2 0x4AE PUSH1 0x16 SLOAD DUP2 JUMP JUMPDEST PUSH32 0x0 PUSH2 0x50C JUMP JUMPDEST PUSH2 0x4AE PUSH1 0x14 SLOAD DUP2 JUMP JUMPDEST PUSH2 0x5CB PUSH2 0xF54 JUMP JUMPDEST PUSH2 0x4AE PUSH2 0x708 CALLDATASIZE PUSH1 0x4 PUSH2 0x3490 JUMP JUMPDEST PUSH2 0xF77 JUMP JUMPDEST PUSH2 0x5CB PUSH2 0xF99 JUMP JUMPDEST PUSH2 0x4AE PUSH2 0x723 CALLDATASIZE PUSH1 0x4 PUSH2 0x3426 JUMP JUMPDEST PUSH2 0x10D9 JUMP JUMPDEST PUSH2 0x5CB PUSH2 0x10E4 JUMP JUMPDEST PUSH2 0x5CB PUSH2 0x73E CALLDATASIZE PUSH1 0x4 PUSH2 0x3464 JUMP JUMPDEST PUSH2 0x1104 JUMP JUMPDEST PUSH2 0x4AE PUSH1 0xB SLOAD DUP2 JUMP JUMPDEST PUSH1 0x7 SLOAD PUSH1 0xFF AND PUSH2 0x4D4 JUMP JUMPDEST PUSH2 0x75F PUSH2 0x1302 JUMP JUMPDEST PUSH1 0x40 MLOAD PUSH2 0x4B8 SWAP5 SWAP4 SWAP3 SWAP2 SWAP1 SWAP4 ISZERO ISZERO DUP5 MSTORE PUSH1 0x1 PUSH1 0x1 PUSH1 0xA0 SHL SUB SWAP3 DUP4 AND PUSH1 0x20 DUP6 ADD MSTORE SWAP2 AND PUSH1 0x40 DUP4 ADD MSTORE PUSH1 0x60 DUP3 ADD MSTORE PUSH1 0x80 ADD SWAP1 JUMP JUMPDEST PUSH2 0x799 PUSH2 0x14AE JUMP JUMPDEST PUSH1 0x40 MLOAD PUSH2 0x4B8 SWAP4 SWAP3 SWAP2 SWAP1 PUSH2 0x3708 JUMP JUMPDEST PUSH2 0x4AE PUSH2 0x7B6 CALLDATASIZE PUSH1 0x4 PUSH2 0x3664 JUMP JUMPDEST PUSH2 0x15F7 JUMP JUMPDEST PUSH2 0x4D4 PUSH2 0x7C9 CALLDATASIZE PUSH1 0x4 PUSH2 0x3490 JUMP JUMPDEST PUSH1 0x11 PUSH1 0x20 MSTORE PUSH1 0x0 SWAP1 DUP2 MSTORE PUSH1 0x40 SWAP1 KECCAK256 SLOAD PUSH1 0xFF AND DUP2 JUMP JUMPDEST PUSH2 0x5CB PUSH2 0x7EC CALLDATASIZE PUSH1 0x4 PUSH2 0x3426 JUMP JUMPDEST PUSH2 0x1667 JUMP JUMPDEST PUSH2 0x4AE PUSH2 0x7FF CALLDATASIZE PUSH1 0x4 PUSH2 0x3490 JUMP JUMPDEST PUSH1 0x1 PUSH1 0x1 PUSH1 0xA0 SHL SUB AND PUSH1 0x0 SWAP1 DUP2 MSTORE PUSH1 0x20 DUP2 SWAP1 MSTORE PUSH1 0x40 SWAP1 KECCAK256 SLOAD SWAP1 JUMP JUMPDEST PUSH2 0x5CB PUSH2 0x16F1 JUMP JUMPDEST PUSH2 0x5CB PUSH2 0x830 CALLDATASIZE PUSH1 0x4 PUSH2 0x374B JUMP JUMPDEST PUSH2 0x187C JUMP JUMPDEST PUSH2 0x5CB PUSH2 0x18EB JUMP JUMPDEST PUSH2 0x4AE PUSH2 0x84B CALLDATASIZE PUSH1 0x4 PUSH2 0x3780 JUMP JUMPDEST PUSH2 0x19F7 JUMP JUMPDEST PUSH2 0x4AE PUSH1 0x9 SLOAD DUP2 JUMP JUMPDEST PUSH2 0x4D4 PUSH2 0x867 CALLDATASIZE PUSH1 0x4 PUSH2 0x3664 JUMP JUMPDEST PUSH2 0x1A22 JUMP JUMPDEST PUSH2 0x4AE PUSH2 0x87A CALLDATASIZE PUSH1 0x4 PUSH2 0x3664 JUMP JUMPDEST PUSH2 0x1A4D JUMP JUMPDEST PUSH2 0x5CB PUSH2 0x88D CALLDATASIZE PUSH1 0x4 PUSH2 0x3464 JUMP JUMPDEST PUSH2 0x1A75 JUMP JUMPDEST PUSH2 0x4EC PUSH2 0x1B74 JUMP JUMPDEST PUSH2 0x4AE PUSH2 0x1F4 DUP2 JUMP JUMPDEST PUSH2 0x4AE PUSH1 0x0 DUP2 JUMP JUMPDEST PUSH2 0x4AE PUSH32 0x17A8E30262C1F919C33056D877A3C22B95C2F5E4DAC44683C1C2323CD79FBDB0 DUP2 JUMP JUMPDEST PUSH2 0x50C PUSH2 0x8E0 CALLDATASIZE PUSH1 0x4 PUSH2 0x3426 JUMP JUMPDEST PUSH2 0x1B83 JUMP JUMPDEST PUSH2 0x4AE PUSH1 0x8 SLOAD DUP2 JUMP JUMPDEST PUSH2 0x5CB PUSH2 0x8FC CALLDATASIZE PUSH1 0x4 PUSH2 0x3426 JUMP JUMPDEST PUSH2 0x1BAD JUMP JUMPDEST PUSH2 0x4D4 PUSH2 0x90F CALLDATASIZE PUSH1 0x4 PUSH2 0x3464 JUMP JUMPDEST PUSH2 0x1D94 JUMP JUMPDEST PUSH2 0x4AE PUSH2 0x922 CALLDATASIZE PUSH1 0x4 PUSH2 0x3426 JUMP JUMPDEST PUSH2 0x1DA2 JUMP JUMPDEST PUSH2 0x4AE PUSH2 0x935 CALLDATASIZE PUSH1 0x4 PUSH2 0x37A2 JUMP JUMPDEST PUSH2 0x1DAD JUMP JUMPDEST PUSH2 0x4AE PUSH1 0x17 SLOAD DUP2 JUMP JUMPDEST PUSH2 0x4AE PUSH2 0x951 CALLDATASIZE PUSH1 0x4 PUSH2 0x37A2 JUMP JUMPDEST PUSH2 0x1DCE JUMP JUMPDEST PUSH2 0x5CB PUSH2 0x964 CALLDATASIZE PUSH1 0x4 PUSH2 0x3830 JUMP JUMPDEST PUSH2 0x1DE3 JUMP JUMPDEST PUSH2 0x4AE PUSH2 0xBB8 DUP2 JUMP JUMPDEST PUSH2 0x5CB PUSH2 0x980 CALLDATASIZE PUSH1 0x4 PUSH2 0x3872 JUMP JUMPDEST PUSH2 0x1EED JUMP JUMPDEST PUSH2 0x4AE PUSH2 0x993 CALLDATASIZE PUSH1 0x4 PUSH2 0x3426 JUMP JUMPDEST PUSH2 0x20A7 JUMP JUMPDEST PUSH1 0xE SLOAD PUSH1 0x1 PUSH1 0x1 PUSH1 0xA0 SHL SUB AND PUSH2 0x50C JUMP JUMPDEST PUSH2 0x4AE PUSH2 0x9B7 CALLDATASIZE PUSH1 0x4 PUSH2 0x3490 JUMP JUMPDEST PUSH2 0x20B4 JUMP JUMPDEST PUSH2 0x4AE PUSH1 0xA SLOAD DUP2 JUMP JUMPDEST PUSH2 0x5CB PUSH2 0x9D3 CALLDATASIZE PUSH1 0x4 PUSH2 0x3664 JUMP JUMPDEST PUSH2 0x20D4 JUMP JUMPDEST PUSH2 0x4AE PUSH2 0x2710 DUP2 JUMP JUMPDEST PUSH2 0x4AE PUSH2 0x9EF CALLDATASIZE PUSH1 0x4 PUSH2 0x3490 JUMP JUMPDEST PUSH2 0x20F9 JUMP JUMPDEST PUSH2 0x9FC PUSH2 0x2114 JUMP JUMPDEST PUSH1 0x40 MLOAD PUSH2 0x4B8 SWAP2 SWAP1 PUSH2 0x389E JUMP JUMPDEST PUSH2 0x4AE PUSH1 0x15 SLOAD DUP2 JUMP JUMPDEST PUSH2 0x5CB PUSH2 0xA20 CALLDATASIZE PUSH1 0x4 PUSH2 0x38F3 JUMP JUMPDEST PUSH2 0x2175 JUMP JUMPDEST PUSH2 0x4AE PUSH1 0xF SLOAD DUP2 JUMP JUMPDEST PUSH2 0x4AE PUSH2 0xA3C CALLDATASIZE PUSH1 0x4 PUSH2 0x3A0F JUMP JUMPDEST PUSH1 0x1 PUSH1 0x1 PUSH1 0xA0 SHL SUB SWAP2 DUP3 AND PUSH1 0x0 SWAP1 DUP2 MSTORE PUSH1 0x1 PUSH1 0x20 SWAP1 DUP2 MSTORE PUSH1 0x40 DUP1 DUP4 KECCAK256 SWAP4 SWAP1 SWAP5 AND DUP3 MSTORE SWAP2 SWAP1 SWAP2 MSTORE KECCAK256 SLOAD SWAP1 JUMP JUMPDEST PUSH2 0x4AE PUSH4 0x1E13380 DUP2 JUMP JUMPDEST PUSH2 0x4AE PUSH1 0x0 DUP1 MLOAD PUSH1 0x20 PUSH2 0x3D86 DUP4 CODECOPY DUP2 MLOAD SWAP2 MSTORE DUP2 JUMP JUMPDEST PUSH2 0x4AE PUSH2 0xA95 CALLDATASIZE PUSH1 0x4 PUSH2 0x3426 JUMP JUMPDEST PUSH2 0x2398 JUMP JUMPDEST PUSH2 0x5CB PUSH2 0xAA8 CALLDATASIZE PUSH1 0x4 PUSH2 0x3A4B JUMP JUMPDEST PUSH2 0x23A3 JUMP JUMPDEST PUSH2 0x5CB PUSH2 0xABB CALLDATASIZE PUSH1 0x4 PUSH2 0x3426 JUMP JUMPDEST PUSH2 0x23DA JUMP JUMPDEST PUSH1 0x0 DUP1 PUSH2 0xACB PUSH2 0x2464 JUMP JUMPDEST SWAP1 POP PUSH1 0x0 PUSH2 0xAD7 PUSH2 0x24F1 JUMP JUMPDEST SWAP1 POP DUP1 DUP3 GT PUSH2 0xAE7 JUMPI PUSH1 0x0 PUSH2 0xAF1 JUMP JUMPDEST PUSH2 0xAF1 DUP2 DUP4 PUSH2 0x3A8F JUMP JUMPDEST SWAP3 POP POP POP SWAP1 JUMP JUMPDEST PUSH1 0x0 PUSH1 0x1 PUSH1 0x1 PUSH1 0xE0 SHL SUB NOT DUP3 AND PUSH4 0x7965DB0B PUSH1 0xE0 SHL EQ DUP1 PUSH2 0xB29 JUMPI POP PUSH4 0x1FFC9A7 PUSH1 0xE0 SHL PUSH1 0x1 PUSH1 0x1 PUSH1 0xE0 SHL SUB NOT DUP4 AND EQ JUMPDEST SWAP3 SWAP2 POP POP JUMP JUMPDEST PUSH1 0x60 PUSH1 0x3 DUP1 SLOAD PUSH2 0xB3E SWAP1 PUSH2 0x3AA2 JUMP JUMPDEST DUP1 PUSH1 0x1F ADD PUSH1 0x20 DUP1 SWAP2 DIV MUL PUSH1 0x20 ADD PUSH1 0x40 MLOAD SWAP1 DUP2 ADD PUSH1 0x40 MSTORE DUP1 SWAP3 SWAP2 SWAP1 DUP2 DUP2 MSTORE PUSH1 0x20 ADD DUP3 DUP1 SLOAD PUSH2 0xB6A SWAP1 PUSH2 0x3AA2 JUMP JUMPDEST DUP1 ISZERO PUSH2 0xBB7 JUMPI DUP1 PUSH1 0x1F LT PUSH2 0xB8C JUMPI PUSH2 0x100 DUP1 DUP4 SLOAD DIV MUL DUP4 MSTORE SWAP2 PUSH1 0x20 ADD SWAP2 PUSH2 0xBB7 JUMP JUMPDEST DUP3 ADD SWAP2 SWAP1 PUSH1 0x0 MSTORE PUSH1 0x20 PUSH1 0x0 KECCAK256 SWAP1 JUMPDEST DUP2 SLOAD DUP2 MSTORE SWAP1 PUSH1 0x1 ADD SWAP1 PUSH1 0x20 ADD DUP1 DUP4 GT PUSH2 0xB9A JUMPI DUP3 SWAP1 SUB PUSH1 0x1F AND DUP3 ADD SWAP2 JUMPDEST POP POP POP POP POP SWAP1 POP SWAP1 JUMP JUMPDEST PUSH1 0x0 PUSH2 0xB29 DUP3 PUSH1 0x0 PUSH2 0x254D JUMP JUMPDEST PUSH1 0x0 CALLER PUSH2 0xBDC DUP2 DUP6 DUP6 PUSH2 0x2587 JUMP JUMPDEST POP PUSH1 0x1 SWAP4 SWAP3 POP POP POP JUMP JUMPDEST PUSH1 0x0 PUSH2 0xB29 DUP3 PUSH2 0x2594 JUMP JUMPDEST PUSH1 0x0 DUP1 PUSH1 0x0 DUP1 PUSH1 0x0 DUP1 PUSH1 0xF SLOAD PUSH2 0xC05 PUSH2 0xAC0 JUMP JUMPDEST PUSH1 0x2 SLOAD PUSH1 0x7 SLOAD PUSH1 0xFF AND PUSH1 0x16 SLOAD PUSH1 0x17 SLOAD SWAP5 SWAP12 SWAP4 SWAP11 POP SWAP2 SWAP9 POP SWAP7 POP SWAP5 POP SWAP1 SWAP3 POP SWAP1 POP JUMP JUMPDEST PUSH1 0x0 PUSH2 0xC32 DUP2 PUSH2 0x25A1 JUMP JUMPDEST PUSH1 0x1 PUSH1 0x1 PUSH1 0xA0 SHL SUB DUP3 AND PUSH2 0xC81 JUMPI PUSH1 0x40 MLOAD PUSH3 0x461BCD PUSH1 0xE5 SHL DUP2 MSTORE PUSH1 0x20 PUSH1 0x4 DUP3 ADD MSTORE PUSH1 0x11 PUSH1 0x24 DUP3 ADD MSTORE PUSH17 0x125B9D985B1A59081C9958DA5C1A595B9D PUSH1 0x7A SHL PUSH1 0x44 DUP3 ADD MSTORE PUSH1 0x64 ADD JUMPDEST PUSH1 0x40 MLOAD DUP1 SWAP2 SUB SWAP1 REVERT JUMPDEST POP PUSH1 0xD DUP1 SLOAD PUSH1 0x1 PUSH1 0x1 PUSH1 0xA0 SHL SUB NOT AND PUSH1 0x1 PUSH1 0x1 PUSH1 0xA0 SHL SUB SWAP3 SWAP1 SWAP3 AND SWAP2 SWAP1 SWAP2 OR SWAP1 SSTORE JUMP JUMPDEST PUSH1 0x1 PUSH1 0x1 PUSH1 0xA0 SHL SUB PUSH32 0x0 AND ISZERO PUSH2 0xD11 JUMPI PUSH1 0x40 MLOAD PUSH3 0x461BCD PUSH1 0xE5 SHL DUP2 MSTORE PUSH1 0x20 PUSH1 0x4 DUP3 ADD MSTORE PUSH1 0x13 PUSH1 0x24 DUP3 ADD MSTORE PUSH19 0x105B1C9958591E481A5B9A5D1A585B1A5E9959 PUSH1 0x6A SHL PUSH1 0x44 DUP3 ADD MSTORE PUSH1 0x64 ADD PUSH2 0xC78 JUMP JUMPDEST PUSH1 0x1 PUSH1 0x1 PUSH1 0xA0 SHL SUB DUP6 AND PUSH2 0xD57 JUMPI PUSH1 0x40 MLOAD PUSH3 0x461BCD PUSH1 0xE5 SHL DUP2 MSTORE PUSH1 0x20 PUSH1 0x4 DUP3 ADD MSTORE PUSH1 0xD PUSH1 0x24 DUP3 ADD MSTORE PUSH13 0x125B9D985B1A5908185CDCD95D PUSH1 0x9A SHL PUSH1 0x44 DUP3 ADD MSTORE PUSH1 0x64 ADD PUSH2 0xC78 JUMP JUMPDEST PUSH2 0x1F4 DUP3 GT ISZERO PUSH2 0xDA9 JUMPI PUSH1 0x40 MLOAD PUSH3 0x461BCD PUSH1 0xE5 SHL DUP2 MSTORE PUSH1 0x20 PUSH1 0x4 DUP3 ADD MSTORE PUSH1 0x17 PUSH1 0x24 DUP3 ADD MSTORE PUSH32 0x4D616E6167656D656E742066656520746F6F2068696768000000000000000000 PUSH1 0x44 DUP3 ADD MSTORE PUSH1 0x64 ADD PUSH2 0xC78 JUMP JUMPDEST PUSH2 0xBB8 DUP2 GT ISZERO PUSH2 0xDFB JUMPI PUSH1 0x40 MLOAD PUSH3 0x461BCD PUSH1 0xE5 SHL DUP2 MSTORE PUSH1 0x20 PUSH1 0x4 DUP3 ADD MSTORE PUSH1 0x18 PUSH1 0x24 DUP3 ADD MSTORE PUSH32 0x506572666F726D616E63652066656520746F6F20686967680000000000000000 PUSH1 0x44 DUP3 ADD MSTORE PUSH1 0x64 ADD PUSH2 0xC78 JUMP JUMPDEST PUSH1 0x8 DUP3 SWAP1 SSTORE PUSH1 0x9 DUP2 SWAP1 SSTORE PUSH2 0xE10 CALLER DUP1 DUP1 PUSH2 0x25AB JUMP JUMPDEST POP POP POP POP POP JUMP JUMPDEST PUSH1 0x0 CALLER PUSH2 0xE25 DUP6 DUP3 DUP6 PUSH2 0x261B JUMP JUMPDEST PUSH2 0xE30 DUP6 DUP6 DUP6 PUSH2 0x2681 JUMP JUMPDEST PUSH1 0x1 SWAP2 POP POP JUMPDEST SWAP4 SWAP3 POP POP POP JUMP JUMPDEST PUSH1 0x13 DUP2 DUP2 SLOAD DUP2 LT PUSH2 0xE4D JUMPI PUSH1 0x0 DUP1 REVERT JUMPDEST PUSH1 0x0 SWAP2 DUP3 MSTORE PUSH1 0x20 SWAP1 SWAP2 KECCAK256 ADD SLOAD SWAP1 POP DUP2 JUMP JUMPDEST PUSH1 0x0 PUSH2 0xE69 DUP2 PUSH2 0x25A1 JUMP JUMPDEST PUSH4 0xFFFFFFFF DUP4 AND PUSH1 0x0 DUP2 DUP2 MSTORE PUSH1 0x10 PUSH1 0x20 SWAP1 DUP2 MSTORE PUSH1 0x40 SWAP2 DUP3 SWAP1 KECCAK256 DUP6 SWAP1 SSTORE DUP2 MLOAD SWAP3 DUP4 MSTORE DUP3 ADD DUP5 SWAP1 MSTORE PUSH32 0x64C32CE0E117784F1D5E814BF80B31FE78B790C426C4226225197EB2BD30CCAF SWAP2 ADD JUMPDEST PUSH1 0x40 MLOAD DUP1 SWAP2 SUB SWAP1 LOG1 POP POP POP JUMP JUMPDEST PUSH1 0x0 DUP3 DUP2 MSTORE PUSH1 0x5 PUSH1 0x20 MSTORE PUSH1 0x40 SWAP1 KECCAK256 PUSH1 0x1 ADD SLOAD PUSH2 0xEDB DUP2 PUSH2 0x25A1 JUMP JUMPDEST PUSH2 0xEE5 DUP4 DUP4 PUSH2 0x26E0 JUMP JUMPDEST POP POP POP POP JUMP JUMPDEST PUSH1 0x0 PUSH2 0xF17 DUP2 PUSH32 0x0 PUSH2 0x3AD6 JUMP JUMPDEST SWAP1 POP SWAP1 JUMP JUMPDEST PUSH1 0x1 PUSH1 0x1 PUSH1 0xA0 SHL SUB DUP2 AND CALLER EQ PUSH2 0xF45 JUMPI PUSH1 0x40 MLOAD PUSH4 0x334BD919 PUSH1 0xE1 SHL DUP2 MSTORE PUSH1 0x4 ADD PUSH1 0x40 MLOAD DUP1 SWAP2 SUB SWAP1 REVERT JUMPDEST PUSH2 0xF4F DUP3 DUP3 PUSH2 0x2774 JUMP JUMPDEST POP POP POP JUMP JUMPDEST PUSH1 0x0 DUP1 MLOAD PUSH1 0x20 PUSH2 0x3D66 DUP4 CODECOPY DUP2 MLOAD SWAP2 MSTORE PUSH2 0xF6C DUP2 PUSH2 0x25A1 JUMP JUMPDEST PUSH2 0xF74 PUSH2 0x27E1 JUMP JUMPDEST POP JUMP JUMPDEST PUSH1 0x0 PUSH2 0xF85 PUSH1 0x7 SLOAD PUSH1 0xFF AND SWAP1 JUMP JUMPDEST PUSH2 0xF91 JUMPI PUSH1 0x0 NOT PUSH2 0xB29 JUMP JUMPDEST PUSH1 0x0 SWAP3 SWAP2 POP POP JUMP JUMPDEST PUSH1 0x0 DUP1 MLOAD PUSH1 0x20 PUSH2 0x3D86 DUP4 CODECOPY DUP2 MLOAD SWAP2 MSTORE PUSH2 0xFB1 DUP2 PUSH2 0x25A1 JUMP JUMPDEST PUSH1 0x0 PUSH2 0xFBB PUSH2 0xAC0 JUMP JUMPDEST SWAP1 POP PUSH1 0x0 PUSH1 0xC SLOAD DUP3 GT ISZERO PUSH2 0xFDE JUMPI PUSH1 0xC SLOAD PUSH2 0xFD6 SWAP1 DUP4 PUSH2 0x3A8F JUMP JUMPDEST PUSH1 0xC DUP4 SWAP1 SSTORE SWAP1 POP JUMPDEST PUSH1 0x0 DUP2 ISZERO PUSH2 0x103A JUMPI PUSH2 0x2710 PUSH1 0x9 SLOAD DUP4 PUSH2 0xFF7 SWAP2 SWAP1 PUSH2 0x3AEF JUMP JUMPDEST PUSH2 0x1001 SWAP2 SWAP1 PUSH2 0x3B1C JUMP JUMPDEST SWAP1 POP PUSH2 0x103A CALLER DUP3 PUSH32 0x0 JUMPDEST PUSH1 0x1 PUSH1 0x1 PUSH1 0xA0 SHL SUB AND SWAP2 SWAP1 PUSH2 0x2833 JUMP JUMPDEST PUSH1 0x0 PUSH2 0x1044 PUSH2 0x24F1 JUMP JUMPDEST SWAP1 POP DUP1 ISZERO PUSH2 0x1077 JUMPI PUSH2 0x1077 CALLER DUP3 PUSH32 0x0 PUSH2 0x102A JUMP JUMPDEST TIMESTAMP PUSH1 0xA SSTORE DUP1 PUSH2 0x1086 DUP4 DUP7 PUSH2 0x3A8F JUMP JUMPDEST PUSH2 0x1090 SWAP2 SWAP1 PUSH2 0x3A8F JUMP JUMPDEST PUSH1 0xB SSTORE PUSH1 0x40 DUP1 MLOAD DUP5 DUP2 MSTORE PUSH1 0x20 DUP2 ADD DUP5 SWAP1 MSTORE TIMESTAMP DUP2 DUP4 ADD MSTORE SWAP1 MLOAD PUSH32 0x4EC2D4038813A7F233AF1D6D09519189DB3ED5BC5B823BF72F6D3144574721DE SWAP2 DUP2 SWAP1 SUB PUSH1 0x60 ADD SWAP1 LOG1 POP POP POP POP POP JUMP JUMPDEST PUSH1 0x0 PUSH2 0xB29 DUP3 PUSH2 0xBC1 JUMP JUMPDEST PUSH1 0x0 DUP1 MLOAD PUSH1 0x20 PUSH2 0x3D66 DUP4 CODECOPY DUP2 MLOAD SWAP2 MSTORE PUSH2 0x10FC DUP2 PUSH2 0x25A1 JUMP JUMPDEST PUSH2 0xF74 PUSH2 0x2892 JUMP JUMPDEST PUSH1 0x0 PUSH2 0x110F DUP2 PUSH2 0x25A1 JUMP JUMPDEST PUSH1 0x1 PUSH1 0x1 PUSH1 0xA0 SHL SUB DUP4 AND PUSH2 0x1155 JUMPI PUSH1 0x40 MLOAD PUSH3 0x461BCD PUSH1 0xE5 SHL DUP2 MSTORE PUSH1 0x20 PUSH1 0x4 DUP3 ADD MSTORE PUSH1 0xD PUSH1 0x24 DUP3 ADD MSTORE PUSH13 0x24B73B30B634B2103A37B5B2B7 PUSH1 0x99 SHL PUSH1 0x44 DUP3 ADD MSTORE PUSH1 0x64 ADD PUSH2 0xC78 JUMP JUMPDEST PUSH1 0x0 NOT PUSH2 0x1161 DUP5 PUSH2 0x28CF JUMP JUMPDEST EQ PUSH2 0x11A5 JUMPI PUSH1 0x40 MLOAD PUSH3 0x461BCD PUSH1 0xE5 SHL DUP2 MSTORE PUSH1 0x20 PUSH1 0x4 DUP3 ADD MSTORE PUSH1 0x14 PUSH1 0x24 DUP3 ADD MSTORE PUSH20 0x546F6B656E20616C726561647920657869737473 PUSH1 0x60 SHL PUSH1 0x44 DUP3 ADD MSTORE PUSH1 0x64 ADD PUSH2 0xC78 JUMP JUMPDEST PUSH1 0x12 DUP1 SLOAD PUSH1 0x1 DUP1 DUP3 ADD SWAP1 SWAP3 SSTORE PUSH32 0xBB8A6A4669BA250D26CD7A459ECA9D215F8307E33AEBE50379BC5A3617EC3444 ADD DUP1 SLOAD PUSH1 0x1 PUSH1 0x1 PUSH1 0xA0 SHL SUB NOT AND PUSH1 0x1 PUSH1 0x1 PUSH1 0xA0 SHL SUB DUP7 AND OR SWAP1 SSTORE PUSH1 0x13 DUP1 SLOAD SWAP2 DUP3 ADD DUP2 SSTORE PUSH1 0x0 DUP2 SWAP1 MSTORE PUSH32 0x66DE8FFDA797E3DE9C05E8FC57B3BF0EC28A930D40B0D285D93C06501CF6A090 SWAP1 SWAP2 ADD DUP4 SWAP1 SSTORE DUP1 SLOAD PUSH1 0x40 DUP1 MLOAD PUSH1 0x20 DUP1 DUP5 MUL DUP3 ADD DUP2 ADD SWAP1 SWAP3 MSTORE DUP3 DUP2 MSTORE PUSH2 0x1277 SWAP4 SWAP1 SWAP3 SWAP1 SWAP2 DUP4 ADD DUP3 DUP3 DUP1 ISZERO PUSH2 0x126D JUMPI PUSH1 0x20 MUL DUP3 ADD SWAP2 SWAP1 PUSH1 0x0 MSTORE PUSH1 0x20 PUSH1 0x0 KECCAK256 SWAP1 JUMPDEST DUP2 SLOAD DUP2 MSTORE PUSH1 0x20 ADD SWAP1 PUSH1 0x1 ADD SWAP1 DUP1 DUP4 GT PUSH2 0x1259 JUMPI JUMPDEST POP POP POP POP POP PUSH2 0x2936 JUMP JUMPDEST PUSH2 0x12C3 JUMPI PUSH1 0x40 MLOAD PUSH3 0x461BCD PUSH1 0xE5 SHL DUP2 MSTORE PUSH1 0x20 PUSH1 0x4 DUP3 ADD MSTORE PUSH1 0x18 PUSH1 0x24 DUP3 ADD MSTORE PUSH32 0x496E76616C696420746F74616C20616C6C6F636174696F6E0000000000000000 PUSH1 0x44 DUP3 ADD MSTORE PUSH1 0x64 ADD PUSH2 0xC78 JUMP JUMPDEST PUSH1 0x40 DUP1 MLOAD PUSH1 0x1 PUSH1 0x1 PUSH1 0xA0 SHL SUB DUP6 AND DUP2 MSTORE PUSH1 0x20 DUP2 ADD DUP5 SWAP1 MSTORE PUSH32 0xBF95C64377F4B62FF6288ABE7CEE76F42FA8F29C9919F1A3D9DA6C52950A6D4 SWAP2 ADD PUSH2 0xEB3 JUMP JUMPDEST PUSH1 0x0 DUP1 PUSH1 0x0 DUP1 PUSH1 0x0 PUSH2 0x1312 PUSH2 0x2988 JUMP JUMPDEST SWAP1 POP DUP1 PUSH1 0x0 SUB PUSH2 0x1330 JUMPI PUSH1 0x0 DUP1 PUSH1 0x0 DUP1 SWAP5 POP SWAP5 POP SWAP5 POP SWAP5 POP POP PUSH2 0x14A8 JUMP JUMPDEST PUSH1 0x0 JUMPDEST PUSH1 0x12 SLOAD DUP2 LT ISZERO PUSH2 0x1497 JUMPI PUSH1 0x0 PUSH2 0x1348 DUP3 PUSH2 0x29EB JUMP JUMPDEST SWAP1 POP PUSH1 0x0 PUSH1 0x13 DUP4 DUP2 SLOAD DUP2 LT PUSH2 0x135F JUMPI PUSH2 0x135F PUSH2 0x3B30 JUMP JUMPDEST SWAP1 PUSH1 0x0 MSTORE PUSH1 0x20 PUSH1 0x0 KECCAK256 ADD SLOAD SWAP1 POP PUSH1 0x14 SLOAD DUP2 PUSH2 0x137A SWAP2 SWAP1 PUSH2 0x3B46 JUMP JUMPDEST DUP3 GT ISZERO PUSH2 0x1482 JUMPI PUSH1 0x0 JUMPDEST PUSH1 0x12 SLOAD DUP2 LT ISZERO PUSH2 0x1480 JUMPI DUP4 DUP2 EQ PUSH2 0x146E JUMPI PUSH1 0x0 PUSH2 0x13A0 DUP3 PUSH2 0x29EB JUMP JUMPDEST SWAP1 POP PUSH1 0x0 PUSH1 0x13 DUP4 DUP2 SLOAD DUP2 LT PUSH2 0x13B7 JUMPI PUSH2 0x13B7 PUSH2 0x3B30 JUMP JUMPDEST SWAP1 PUSH1 0x0 MSTORE PUSH1 0x20 PUSH1 0x0 KECCAK256 ADD SLOAD SWAP1 POP PUSH1 0x14 SLOAD DUP2 PUSH2 0x13D2 SWAP2 SWAP1 PUSH2 0x3A8F JUMP JUMPDEST DUP3 LT ISZERO PUSH2 0x146B JUMPI PUSH1 0x0 PUSH2 0x2710 DUP9 PUSH2 0x13E9 DUP8 DUP10 PUSH2 0x3A8F JUMP JUMPDEST PUSH2 0x13F3 SWAP2 SWAP1 PUSH2 0x3AEF JUMP JUMPDEST PUSH2 0x13FD SWAP2 SWAP1 PUSH2 0x3B1C JUMP JUMPDEST SWAP1 POP PUSH1 0x1 PUSH1 0x12 DUP9 DUP2 SLOAD DUP2 LT PUSH2 0x1414 JUMPI PUSH2 0x1414 PUSH2 0x3B30 JUMP JUMPDEST PUSH1 0x0 SWAP2 DUP3 MSTORE PUSH1 0x20 SWAP1 SWAP2 KECCAK256 ADD SLOAD PUSH1 0x12 DUP1 SLOAD PUSH1 0x1 PUSH1 0x1 PUSH1 0xA0 SHL SUB SWAP1 SWAP3 AND SWAP2 DUP8 SWAP1 DUP2 LT PUSH2 0x1440 JUMPI PUSH2 0x1440 PUSH2 0x3B30 JUMP JUMPDEST PUSH1 0x0 SWAP2 DUP3 MSTORE PUSH1 0x20 SWAP1 SWAP2 KECCAK256 ADD SLOAD SWAP2 SWAP14 POP SWAP12 POP PUSH1 0x1 PUSH1 0x1 PUSH1 0xA0 SHL SUB AND SWAP10 POP SWAP8 POP PUSH2 0x14A8 SWAP7 POP POP POP POP POP POP POP JUMP JUMPDEST POP POP JUMPDEST DUP1 PUSH2 0x1478 DUP2 PUSH2 0x3B59 JUMP JUMPDEST SWAP2 POP POP PUSH2 0x1384 JUMP JUMPDEST POP JUMPDEST POP POP DUP1 DUP1 PUSH2 0x148F SWAP1 PUSH2 0x3B59 JUMP JUMPDEST SWAP2 POP POP PUSH2 0x1333 JUMP JUMPDEST POP PUSH1 0x0 DUP1 PUSH1 0x0 DUP1 SWAP5 POP SWAP5 POP SWAP5 POP SWAP5 POP POP JUMPDEST SWAP1 SWAP2 SWAP3 SWAP4 JUMP JUMPDEST PUSH1 0x60 DUP1 PUSH1 0x60 PUSH1 0x12 DUP1 SLOAD DUP1 PUSH1 0x20 MUL PUSH1 0x20 ADD PUSH1 0x40 MLOAD SWAP1 DUP2 ADD PUSH1 0x40 MSTORE DUP1 SWAP3 SWAP2 SWAP1 DUP2 DUP2 MSTORE PUSH1 0x20 ADD DUP3 DUP1 SLOAD DUP1 ISZERO PUSH2 0x1509 JUMPI PUSH1 0x20 MUL DUP3 ADD SWAP2 SWAP1 PUSH1 0x0 MSTORE PUSH1 0x20 PUSH1 0x0 KECCAK256 SWAP1 JUMPDEST DUP2 SLOAD PUSH1 0x1 PUSH1 0x1 PUSH1 0xA0 SHL SUB AND DUP2 MSTORE PUSH1 0x1 SWAP1 SWAP2 ADD SWAP1 PUSH1 0x20 ADD DUP1 DUP4 GT PUSH2 0x14EB JUMPI JUMPDEST POP POP POP POP POP SWAP3 POP PUSH1 0x13 DUP1 SLOAD DUP1 PUSH1 0x20 MUL PUSH1 0x20 ADD PUSH1 0x40 MLOAD SWAP1 DUP2 ADD PUSH1 0x40 MSTORE DUP1 SWAP3 SWAP2 SWAP1 DUP2 DUP2 MSTORE PUSH1 0x20 ADD DUP3 DUP1 SLOAD DUP1 ISZERO PUSH2 0x155C JUMPI PUSH1 0x20 MUL DUP3 ADD SWAP2 SWAP1 PUSH1 0x0 MSTORE PUSH1 0x20 PUSH1 0x0 KECCAK256 SWAP1 JUMPDEST DUP2 SLOAD DUP2 MSTORE PUSH1 0x20 ADD SWAP1 PUSH1 0x1 ADD SWAP1 DUP1 DUP4 GT PUSH2 0x1548 JUMPI JUMPDEST POP POP PUSH1 0x12 SLOAD SWAP4 SWAP5 POP POP POP PUSH8 0xFFFFFFFFFFFFFFFF DUP3 GT ISZERO SWAP1 POP PUSH2 0x1580 JUMPI PUSH2 0x1580 PUSH2 0x34AD JUMP JUMPDEST PUSH1 0x40 MLOAD SWAP1 DUP1 DUP3 MSTORE DUP1 PUSH1 0x20 MUL PUSH1 0x20 ADD DUP3 ADD PUSH1 0x40 MSTORE DUP1 ISZERO PUSH2 0x15A9 JUMPI DUP2 PUSH1 0x20 ADD PUSH1 0x20 DUP3 MUL DUP1 CALLDATASIZE DUP4 CALLDATACOPY ADD SWAP1 POP JUMPDEST POP SWAP2 POP PUSH1 0x0 JUMPDEST PUSH1 0x12 SLOAD DUP2 LT ISZERO PUSH2 0x15F1 JUMPI PUSH2 0x15C2 DUP2 PUSH2 0x29EB JUMP JUMPDEST DUP4 DUP3 DUP2 MLOAD DUP2 LT PUSH2 0x15D4 JUMPI PUSH2 0x15D4 PUSH2 0x3B30 JUMP JUMPDEST PUSH1 0x20 SWAP1 DUP2 MUL SWAP2 SWAP1 SWAP2 ADD ADD MSTORE DUP1 PUSH2 0x15E9 DUP2 PUSH2 0x3B59 JUMP JUMPDEST SWAP2 POP POP PUSH2 0x15AF JUMP JUMPDEST POP SWAP1 SWAP2 SWAP3 JUMP JUMPDEST PUSH1 0x0 PUSH2 0x1603 DUP4 DUP4 PUSH2 0x2A43 JUMP JUMPDEST SWAP1 POP PUSH2 0x160D PUSH2 0x2A5F JUMP JUMPDEST ISZERO PUSH2 0x161A JUMPI PUSH2 0x161A PUSH2 0x18EB JUMP JUMPDEST PUSH1 0xF SLOAD PUSH1 0x40 DUP1 MLOAD DUP6 DUP2 MSTORE PUSH1 0x20 DUP2 ADD DUP5 SWAP1 MSTORE PUSH1 0x1 PUSH1 0x1 PUSH1 0xA0 SHL SUB DUP6 AND SWAP2 PUSH32 0xF4C57637DD38389180A3140034C6F38A9AA64C7C158C0E2E315847639718A905 SWAP2 ADD PUSH1 0x40 MLOAD DUP1 SWAP2 SUB SWAP1 LOG3 SWAP3 SWAP2 POP POP JUMP JUMPDEST PUSH1 0x0 PUSH2 0x1672 DUP2 PUSH2 0x25A1 JUMP JUMPDEST PUSH2 0xBB8 DUP3 GT ISZERO PUSH2 0x16B3 JUMPI PUSH1 0x40 MLOAD PUSH3 0x461BCD PUSH1 0xE5 SHL DUP2 MSTORE PUSH1 0x20 PUSH1 0x4 DUP3 ADD MSTORE PUSH1 0xC PUSH1 0x24 DUP3 ADD MSTORE PUSH12 0x8CCACA40E8DEDE40D0D2CED PUSH1 0xA3 SHL PUSH1 0x44 DUP3 ADD MSTORE PUSH1 0x64 ADD PUSH2 0xC78 JUMP JUMPDEST PUSH1 0x9 DUP1 SLOAD SWAP1 DUP4 SWAP1 SSTORE PUSH1 0x40 DUP1 MLOAD DUP3 DUP2 MSTORE PUSH1 0x20 DUP2 ADD DUP6 SWAP1 MSTORE PUSH32 0x607B1C943753982194530BF7133A5972EA2626E028005410EFA54AB20035CAF8 SWAP2 ADD PUSH2 0xEB3 JUMP JUMPDEST PUSH1 0x0 DUP1 MLOAD PUSH1 0x20 PUSH2 0x3D86 DUP4 CODECOPY DUP2 MLOAD SWAP2 MSTORE PUSH2 0x1709 DUP2 PUSH2 0x25A1 JUMP JUMPDEST PUSH1 0x0 PUSH1 0x18 SLOAD TIMESTAMP PUSH2 0x1719 SWAP2 SWAP1 PUSH2 0x3A8F JUMP JUMPDEST SWAP1 POP PUSH1 0x0 PUSH2 0x1725 PUSH2 0xAC0 JUMP JUMPDEST PUSH1 0x40 MLOAD PUSH4 0x20D7A7AD PUSH1 0xE2 SHL DUP2 MSTORE PUSH1 0x4 DUP2 ADD DUP3 SWAP1 MSTORE PUSH1 0x24 DUP2 ADD DUP5 SWAP1 MSTORE SWAP1 SWAP2 POP PUSH1 0x0 SWAP1 ADDRESS SWAP1 PUSH4 0x835E9EB4 SWAP1 PUSH1 0x44 ADD PUSH1 0x20 PUSH1 0x40 MLOAD DUP1 DUP4 SUB DUP2 DUP7 GAS STATICCALL ISZERO DUP1 ISZERO PUSH2 0x176E JUMPI RETURNDATASIZE PUSH1 0x0 DUP1 RETURNDATACOPY RETURNDATASIZE PUSH1 0x0 REVERT JUMPDEST POP POP POP POP PUSH1 0x40 MLOAD RETURNDATASIZE PUSH1 0x1F NOT PUSH1 0x1F DUP3 ADD AND DUP3 ADD DUP1 PUSH1 0x40 MSTORE POP DUP2 ADD SWAP1 PUSH2 0x1792 SWAP2 SWAP1 PUSH2 0x3B72 JUMP JUMPDEST SWAP1 POP DUP1 ISZERO PUSH2 0xEE5 JUMPI PUSH32 0x0 PUSH1 0x40 MLOAD PUSH4 0xA9059CBB PUSH1 0xE0 SHL DUP2 MSTORE CALLER PUSH1 0x4 DUP3 ADD MSTORE PUSH1 0x24 DUP2 ADD DUP4 SWAP1 MSTORE PUSH1 0x1 PUSH1 0x1 PUSH1 0xA0 SHL SUB SWAP2 SWAP1 SWAP2 AND SWAP1 PUSH4 0xA9059CBB SWAP1 PUSH1 0x44 ADD PUSH1 0x20 PUSH1 0x40 MLOAD DUP1 DUP4 SUB DUP2 PUSH1 0x0 DUP8 GAS CALL ISZERO DUP1 ISZERO PUSH2 0x180A JUMPI RETURNDATASIZE PUSH1 0x0 DUP1 RETURNDATACOPY RETURNDATASIZE PUSH1 0x0 REVERT JUMPDEST POP POP POP POP PUSH1 0x40 MLOAD RETURNDATASIZE PUSH1 0x1F NOT PUSH1 0x1F DUP3 ADD AND DUP3 ADD DUP1 PUSH1 0x40 MSTORE POP DUP2 ADD SWAP1 PUSH2 0x182E SWAP2 SWAP1 PUSH2 0x3B8B JUMP JUMPDEST POP TIMESTAMP PUSH1 0x18 DUP2 SWAP1 SSTORE PUSH1 0x40 MLOAD ADDRESS SWAP2 PUSH32 0x108516DDCF5BA43CEA6BB2CD5FF6D59AC196C1C86CCB9178332B9DD72D1CA561 SWAP2 PUSH2 0x186E SWAP2 DUP6 DUP3 MSTORE PUSH1 0x20 DUP3 ADD MSTORE PUSH1 0x40 ADD SWAP1 JUMP JUMPDEST PUSH1 0x40 MLOAD DUP1 SWAP2 SUB SWAP1 LOG2 POP POP POP POP JUMP JUMPDEST PUSH32 0x17A8E30262C1F919C33056D877A3C22B95C2F5E4DAC44683C1C2323CD79FBDB0 PUSH2 0x18A6 DUP2 PUSH2 0x25A1 JUMP JUMPDEST PUSH2 0x18AE PUSH2 0x2A79 JUMP JUMPDEST PUSH32 0x967C2A3D21D6001F5ED872635CF9E4A320C90180D6CAED65F90623CEA6D535E7 DUP3 TIMESTAMP PUSH1 0x40 MLOAD PUSH2 0x18DF SWAP3 SWAP2 SWAP1 PUSH2 0x3BA8 JUMP JUMPDEST PUSH1 0x40 MLOAD DUP1 SWAP2 SUB SWAP1 LOG1 POP POP JUMP JUMPDEST PUSH1 0x7 SLOAD PUSH1 0xFF AND ISZERO PUSH2 0x1930 JUMPI PUSH1 0x40 MLOAD PUSH3 0x461BCD PUSH1 0xE5 SHL DUP2 MSTORE PUSH1 0x20 PUSH1 0x4 DUP3 ADD MSTORE PUSH1 0xF PUSH1 0x24 DUP3 ADD MSTORE PUSH15 0x15985D5B1D081A5CC81C185D5CD959 PUSH1 0x8A SHL PUSH1 0x44 DUP3 ADD MSTORE PUSH1 0x64 ADD PUSH2 0xC78 JUMP JUMPDEST PUSH1 0x0 DUP1 PUSH1 0x0 DUP1 PUSH2 0x193E PUSH2 0x1302 JUMP JUMPDEST SWAP4 POP SWAP4 POP SWAP4 POP SWAP4 POP DUP4 PUSH2 0x1951 JUMPI POP POP POP POP JUMP JUMPDEST PUSH1 0x0 PUSH2 0x195C DUP5 PUSH2 0x28CF JUMP JUMPDEST SWAP1 POP PUSH1 0x0 PUSH2 0x1969 DUP5 PUSH2 0x28CF JUMP JUMPDEST SWAP1 POP PUSH2 0x1976 DUP3 DUP3 DUP6 PUSH2 0x2069 JUMP JUMPDEST TIMESTAMP PUSH1 0x15 SSTORE PUSH1 0x1 PUSH1 0x1 PUSH1 0xA0 SHL SUB DUP1 DUP6 AND SWAP1 DUP7 AND PUSH32 0x373F5E49CE825FD107C22E1666BD92419640F3189A99FFA8819DC2D7580D5BD1 DUP6 PUSH2 0x19B3 DUP7 PUSH2 0x29EB JUMP JUMPDEST PUSH1 0x13 DUP8 DUP2 SLOAD DUP2 LT PUSH2 0x19C6 JUMPI PUSH2 0x19C6 PUSH2 0x3B30 JUMP JUMPDEST PUSH1 0x0 SWAP2 DUP3 MSTORE PUSH1 0x20 SWAP2 DUP3 SWAP1 KECCAK256 ADD SLOAD PUSH1 0x40 DUP1 MLOAD SWAP5 DUP6 MSTORE SWAP2 DUP5 ADD SWAP3 SWAP1 SWAP3 MSTORE DUP3 ADD MSTORE PUSH1 0x60 ADD PUSH1 0x40 MLOAD DUP1 SWAP2 SUB SWAP1 LOG3 POP POP POP POP POP POP JUMP JUMPDEST PUSH1 0x0 PUSH5 0x496CEBB800 DUP3 PUSH1 0x16 SLOAD DUP6 PUSH2 0x1A0E SWAP2 SWAP1 PUSH2 0x3AEF JUMP JUMPDEST PUSH2 0x1A18 SWAP2 SWAP1 PUSH2 0x3AEF JUMP JUMPDEST PUSH2 0xE36 SWAP2 SWAP1 PUSH2 0x3B1C JUMP JUMPDEST PUSH1 0x0 SWAP2 DUP3 MSTORE PUSH1 0x5 PUSH1 0x20 SWAP1 DUP2 MSTORE PUSH1 0x40 DUP1 DUP5 KECCAK256 PUSH1 0x1 PUSH1 0x1 PUSH1 0xA0 SHL SUB SWAP4 SWAP1 SWAP4 AND DUP5 MSTORE SWAP2 SWAP1 MSTORE SWAP1 KECCAK256 SLOAD PUSH1 0xFF AND SWAP1 JUMP JUMPDEST PUSH1 0x0 PUSH2 0x1A57 PUSH2 0x2A9F JUMP JUMPDEST PUSH2 0x1A5F PUSH2 0x2A79 JUMP JUMPDEST PUSH2 0x1A69 DUP4 DUP4 PUSH2 0x2AC9 JUMP JUMPDEST SWAP1 POP PUSH2 0xB29 PUSH1 0x1 PUSH1 0x6 SSTORE JUMP JUMPDEST PUSH1 0x0 DUP1 MLOAD PUSH1 0x20 PUSH2 0x3D66 DUP4 CODECOPY DUP2 MLOAD SWAP2 MSTORE PUSH2 0x1A8D DUP2 PUSH2 0x25A1 JUMP JUMPDEST PUSH32 0x0 PUSH1 0x1 PUSH1 0x1 PUSH1 0xA0 SHL SUB AND DUP4 PUSH1 0x1 PUSH1 0x1 PUSH1 0xA0 SHL SUB AND SUB PUSH2 0x1B0E JUMPI PUSH1 0x40 MLOAD PUSH3 0x461BCD PUSH1 0xE5 SHL DUP2 MSTORE PUSH1 0x20 PUSH1 0x4 DUP3 ADD MSTORE PUSH1 0x1B PUSH1 0x24 DUP3 ADD MSTORE PUSH32 0x43616E6E6F74207769746864726177207661756C742061737365740000000000 PUSH1 0x44 DUP3 ADD MSTORE PUSH1 0x64 ADD PUSH2 0xC78 JUMP JUMPDEST PUSH1 0xD SLOAD PUSH2 0x1B28 SWAP1 PUSH1 0x1 PUSH1 0x1 PUSH1 0xA0 SHL SUB DUP6 DUP2 AND SWAP2 AND DUP5 PUSH2 0x2833 JUMP JUMPDEST PUSH1 0xD SLOAD PUSH1 0x40 DUP1 MLOAD PUSH1 0x1 PUSH1 0x1 PUSH1 0xA0 SHL SUB DUP1 DUP8 AND DUP3 MSTORE PUSH1 0x20 DUP3 ADD DUP7 SWAP1 MSTORE SWAP1 SWAP3 AND SWAP1 DUP3 ADD MSTORE PUSH32 0x3AB9DB27A4CDD8C603A752B62D5FBD93B4B3509FE2596708E9688E42BBAC3576 SWAP1 PUSH1 0x60 ADD PUSH2 0xEB3 JUMP JUMPDEST PUSH1 0x60 PUSH1 0x4 DUP1 SLOAD PUSH2 0xB3E SWAP1 PUSH2 0x3AA2 JUMP JUMPDEST PUSH1 0x12 DUP2 DUP2 SLOAD DUP2 LT PUSH2 0x1B93 JUMPI PUSH1 0x0 DUP1 REVERT JUMPDEST PUSH1 0x0 SWAP2 DUP3 MSTORE PUSH1 0x20 SWAP1 SWAP2 KECCAK256 ADD SLOAD PUSH1 0x1 PUSH1 0x1 PUSH1 0xA0 SHL SUB AND SWAP1 POP DUP2 JUMP JUMPDEST PUSH1 0x0 PUSH2 0x1BB8 DUP2 PUSH2 0x25A1 JUMP JUMPDEST PUSH1 0x12 SLOAD DUP3 LT PUSH2 0x1BF9 JUMPI PUSH1 0x40 MLOAD PUSH3 0x461BCD PUSH1 0xE5 SHL DUP2 MSTORE PUSH1 0x20 PUSH1 0x4 DUP3 ADD MSTORE PUSH1 0xD PUSH1 0x24 DUP3 ADD MSTORE PUSH13 0x92DCECC2D8D2C840D2DCC8CAF PUSH1 0x9B SHL PUSH1 0x44 DUP3 ADD MSTORE PUSH1 0x64 ADD PUSH2 0xC78 JUMP JUMPDEST PUSH1 0x0 PUSH1 0x12 DUP4 DUP2 SLOAD DUP2 LT PUSH2 0x1C0E JUMPI PUSH2 0x1C0E PUSH2 0x3B30 JUMP JUMPDEST PUSH1 0x0 SWAP2 DUP3 MSTORE PUSH1 0x20 SWAP1 SWAP2 KECCAK256 ADD SLOAD PUSH1 0x1 PUSH1 0x1 PUSH1 0xA0 SHL SUB AND SWAP1 POP DUP3 JUMPDEST PUSH1 0x12 SLOAD PUSH2 0x1C36 SWAP1 PUSH1 0x1 SWAP1 PUSH2 0x3A8F JUMP JUMPDEST DUP2 LT ISZERO PUSH2 0x1D08 JUMPI PUSH1 0x12 PUSH2 0x1C4A DUP3 PUSH1 0x1 PUSH2 0x3B46 JUMP JUMPDEST DUP2 SLOAD DUP2 LT PUSH2 0x1C5A JUMPI PUSH2 0x1C5A PUSH2 0x3B30 JUMP JUMPDEST PUSH1 0x0 SWAP2 DUP3 MSTORE PUSH1 0x20 SWAP1 SWAP2 KECCAK256 ADD SLOAD PUSH1 0x12 DUP1 SLOAD PUSH1 0x1 PUSH1 0x1 PUSH1 0xA0 SHL SUB SWAP1 SWAP3 AND SWAP2 DUP4 SWAP1 DUP2 LT PUSH2 0x1C86 JUMPI PUSH2 0x1C86 PUSH2 0x3B30 JUMP JUMPDEST PUSH1 0x0 SWAP2 DUP3 MSTORE PUSH1 0x20 SWAP1 SWAP2 KECCAK256 ADD DUP1 SLOAD PUSH1 0x1 PUSH1 0x1 PUSH1 0xA0 SHL SUB NOT AND PUSH1 0x1 PUSH1 0x1 PUSH1 0xA0 SHL SUB SWAP3 SWAP1 SWAP3 AND SWAP2 SWAP1 SWAP2 OR SWAP1 SSTORE PUSH1 0x13 PUSH2 0x1CBC DUP3 PUSH1 0x1 PUSH2 0x3B46 JUMP JUMPDEST DUP2 SLOAD DUP2 LT PUSH2 0x1CCC JUMPI PUSH2 0x1CCC PUSH2 0x3B30 JUMP JUMPDEST SWAP1 PUSH1 0x0 MSTORE PUSH1 0x20 PUSH1 0x0 KECCAK256 ADD SLOAD PUSH1 0x13 DUP3 DUP2 SLOAD DUP2 LT PUSH2 0x1CEA JUMPI PUSH2 0x1CEA PUSH2 0x3B30 JUMP JUMPDEST PUSH1 0x0 SWAP2 DUP3 MSTORE PUSH1 0x20 SWAP1 SWAP2 KECCAK256 ADD SSTORE DUP1 PUSH2 0x1D00 DUP2 PUSH2 0x3B59 JUMP JUMPDEST SWAP2 POP POP PUSH2 0x1C27 JUMP JUMPDEST POP PUSH1 0x12 DUP1 SLOAD DUP1 PUSH2 0x1D1A JUMPI PUSH2 0x1D1A PUSH2 0x3BCA JUMP JUMPDEST PUSH1 0x0 DUP3 DUP2 MSTORE PUSH1 0x20 SWAP1 KECCAK256 DUP2 ADD PUSH1 0x0 NOT SWAP1 DUP2 ADD DUP1 SLOAD PUSH1 0x1 PUSH1 0x1 PUSH1 0xA0 SHL SUB NOT AND SWAP1 SSTORE ADD SWAP1 SSTORE PUSH1 0x13 DUP1 SLOAD DUP1 PUSH2 0x1D4D JUMPI PUSH2 0x1D4D PUSH2 0x3BCA JUMP JUMPDEST PUSH1 0x1 SWAP1 SUB DUP2 DUP2 SWAP1 PUSH1 0x0 MSTORE PUSH1 0x20 PUSH1 0x0 KECCAK256 ADD PUSH1 0x0 SWAP1 SSTORE SWAP1 SSTORE PUSH32 0x3977FDEFF40857FBE2C9282BF44E2769213F22CDA97AFA0759CF4984975D11C1 DUP4 PUSH1 0x40 MLOAD PUSH2 0xEB3 SWAP2 DUP2 MSTORE PUSH1 0x20 ADD SWAP1 JUMP JUMPDEST PUSH1 0x0 CALLER PUSH2 0xBDC DUP2 DUP6 DUP6 PUSH2 0x2681 JUMP JUMPDEST PUSH1 0x0 PUSH2 0xB29 DUP3 PUSH2 0x2B17 JUMP JUMPDEST PUSH1 0x0 PUSH2 0x1DB7 PUSH2 0x2A9F JUMP JUMPDEST PUSH2 0x1DC2 DUP5 DUP5 DUP5 PUSH2 0x2B24 JUMP JUMPDEST SWAP1 POP PUSH2 0xE36 PUSH1 0x1 PUSH1 0x6 SSTORE JUMP JUMPDEST PUSH1 0x0 PUSH2 0x1DD8 PUSH2 0x2A9F JUMP JUMPDEST PUSH2 0x1DC2 DUP5 DUP5 DUP5 PUSH2 0x2B7C JUMP JUMPDEST PUSH1 0x0 PUSH2 0x1DEE DUP2 PUSH2 0x25A1 JUMP JUMPDEST PUSH1 0x12 SLOAD DUP3 EQ PUSH2 0x1E31 JUMPI PUSH1 0x40 MLOAD PUSH3 0x461BCD PUSH1 0xE5 SHL DUP2 MSTORE PUSH1 0x20 PUSH1 0x4 DUP3 ADD MSTORE PUSH1 0xF PUSH1 0x24 DUP3 ADD MSTORE PUSH15 0x98CADCCEE8D040DAD2E6DAC2E8C6D PUSH1 0x8B SHL PUSH1 0x44 DUP3 ADD MSTORE PUSH1 0x64 ADD PUSH2 0xC78 JUMP JUMPDEST PUSH2 0x1E6D DUP4 DUP4 DUP1 DUP1 PUSH1 0x20 MUL PUSH1 0x20 ADD PUSH1 0x40 MLOAD SWAP1 DUP2 ADD PUSH1 0x40 MSTORE DUP1 SWAP4 SWAP3 SWAP2 SWAP1 DUP2 DUP2 MSTORE PUSH1 0x20 ADD DUP4 DUP4 PUSH1 0x20 MUL DUP1 DUP3 DUP5 CALLDATACOPY PUSH1 0x0 SWAP3 ADD SWAP2 SWAP1 SWAP2 MSTORE POP PUSH2 0x2936 SWAP3 POP POP POP JUMP JUMPDEST PUSH2 0x1EAF JUMPI PUSH1 0x40 MLOAD PUSH3 0x461BCD PUSH1 0xE5 SHL DUP2 MSTORE PUSH1 0x20 PUSH1 0x4 DUP3 ADD MSTORE PUSH1 0x13 PUSH1 0x24 DUP3 ADD MSTORE PUSH19 0x496E76616C696420616C6C6F636174696F6E73 PUSH1 0x68 SHL PUSH1 0x44 DUP3 ADD MSTORE PUSH1 0x64 ADD PUSH2 0xC78 JUMP JUMPDEST PUSH2 0x1EBB PUSH1 0x13 DUP5 DUP5 PUSH2 0x32F0 JUMP JUMPDEST POP PUSH32 0xBE7004609D76E2B3EFE2D18C2DE3B1C71D560FB59B9A0F19F7CE22AEFDECD40 DUP4 DUP4 PUSH1 0x40 MLOAD PUSH2 0xEB3 SWAP3 SWAP2 SWAP1 PUSH2 0x3BE0 JUMP JUMPDEST CALLER PUSH1 0x0 SWAP1 DUP2 MSTORE PUSH1 0x11 PUSH1 0x20 MSTORE PUSH1 0x40 SWAP1 KECCAK256 SLOAD PUSH1 0xFF AND PUSH2 0x1F44 JUMPI PUSH1 0x40 MLOAD PUSH3 0x461BCD PUSH1 0xE5 SHL DUP2 MSTORE PUSH1 0x20 PUSH1 0x4 DUP3 ADD MSTORE PUSH1 0x15 PUSH1 0x24 DUP3 ADD MSTORE PUSH21 0x2737BA1030BABA3437B934BD32B21039B2B73232B9 PUSH1 0x59 SHL PUSH1 0x44 DUP3 ADD MSTORE PUSH1 0x64 ADD PUSH2 0xC78 JUMP JUMPDEST PUSH1 0x12 SLOAD DUP4 LT PUSH2 0x1F8A JUMPI PUSH1 0x40 MLOAD PUSH3 0x461BCD PUSH1 0xE5 SHL DUP2 MSTORE PUSH1 0x20 PUSH1 0x4 DUP3 ADD MSTORE PUSH1 0x12 PUSH1 0x24 DUP3 ADD MSTORE PUSH18 0x92DCECC2D8D2C840CCE4DEDA40D2DCC8CAF PUSH1 0x73 SHL PUSH1 0x44 DUP3 ADD MSTORE PUSH1 0x64 ADD PUSH2 0xC78 JUMP JUMPDEST PUSH1 0x12 SLOAD DUP3 LT PUSH2 0x1FCE JUMPI PUSH1 0x40 MLOAD PUSH3 0x461BCD PUSH1 0xE5 SHL DUP2 MSTORE PUSH1 0x20 PUSH1 0x4 DUP3 ADD MSTORE PUSH1 0x10 PUSH1 0x24 DUP3 ADD MSTORE PUSH16 0x92DCECC2D8D2C840E8DE40D2DCC8CAF PUSH1 0x83 SHL PUSH1 0x44 DUP3 ADD MSTORE PUSH1 0x64 ADD PUSH2 0xC78 JUMP JUMPDEST DUP2 DUP4 SUB PUSH2 0x2012 JUMPI PUSH1 0x40 MLOAD PUSH3 0x461BCD PUSH1 0xE5 SHL DUP2 MSTORE PUSH1 0x20 PUSH1 0x4 DUP3 ADD MSTORE PUSH1 0x12 PUSH1 0x24 DUP3 ADD MSTORE PUSH18 0x53616D6520746F6B656E20696E6469636573 PUSH1 0x70 SHL PUSH1 0x44 DUP3 ADD MSTORE PUSH1 0x64 ADD PUSH2 0xC78 JUMP JUMPDEST PUSH1 0x0 DUP2 GT PUSH2 0x2062 JUMPI PUSH1 0x40 MLOAD PUSH3 0x461BCD PUSH1 0xE5 SHL DUP2 MSTORE PUSH1 0x20 PUSH1 0x4 DUP3 ADD MSTORE PUSH1 0x17 PUSH1 0x24 DUP3 ADD MSTORE PUSH32 0x416D6F756E74206D75737420626520706F736974697665000000000000000000 PUSH1 0x44 DUP3 ADD MSTORE PUSH1 0x64 ADD PUSH2 0xC78 JUMP JUMPDEST PUSH2 0x2069 DUP4 DUP4 DUP4 JUMPDEST PUSH1 0x40 DUP1 MLOAD DUP5 DUP2 MSTORE PUSH1 0x20 DUP2 ADD DUP5 SWAP1 MSTORE SWAP1 DUP2 ADD DUP3 SWAP1 MSTORE PUSH32 0x94F559DA092D98A1BA2672AFCDF872F0D1DA0018658AB5A5AA653D421D9B1105 SWAP1 PUSH1 0x60 ADD PUSH2 0xEB3 JUMP JUMPDEST PUSH1 0x0 PUSH2 0xB29 DUP3 PUSH1 0x0 PUSH2 0x2BCB JUMP JUMPDEST PUSH1 0x0 PUSH2 0x20C2 PUSH1 0x7 SLOAD PUSH1 0xFF AND SWAP1 JUMP JUMPDEST PUSH2 0xF91 JUMPI PUSH2 0x20CF DUP3 PUSH2 0x2BFB JUMP JUMPDEST PUSH2 0xB29 JUMP JUMPDEST PUSH1 0x0 DUP3 DUP2 MSTORE PUSH1 0x5 PUSH1 0x20 MSTORE PUSH1 0x40 SWAP1 KECCAK256 PUSH1 0x1 ADD SLOAD PUSH2 0x20EF DUP2 PUSH2 0x25A1 JUMP JUMPDEST PUSH2 0xEE5 DUP4 DUP4 PUSH2 0x2774 JUMP JUMPDEST PUSH1 0x0 PUSH2 0x2107 PUSH1 0x7 SLOAD PUSH1 0xFF AND SWAP1 JUMP JUMPDEST PUSH2 0xF91 JUMPI PUSH2 0x20CF DUP3 PUSH2 0x2C1F JUMP JUMPDEST PUSH1 0x60 PUSH1 0x12 DUP1 SLOAD DUP1 PUSH1 0x20 MUL PUSH1 0x20 ADD PUSH1 0x40 MLOAD SWAP1 DUP2 ADD PUSH1 0x40 MSTORE DUP1 SWAP3 SWAP2 SWAP1 DUP2 DUP2 MSTORE PUSH1 0x20 ADD DUP3 DUP1 SLOAD DUP1 ISZERO PUSH2 0xBB7 JUMPI PUSH1 0x20 MUL DUP3 ADD SWAP2 SWAP1 PUSH1 0x0 MSTORE PUSH1 0x20 PUSH1 0x0 KECCAK256 SWAP1 JUMPDEST DUP2 SLOAD PUSH1 0x1 PUSH1 0x1 PUSH1 0xA0 SHL SUB AND DUP2 MSTORE PUSH1 0x1 SWAP1 SWAP2 ADD SWAP1 PUSH1 0x20 ADD DUP1 DUP4 GT PUSH2 0x214E JUMPI POP POP POP POP POP SWAP1 POP SWAP1 JUMP JUMPDEST PUSH1 0x1 PUSH1 0x1 PUSH1 0xA0 SHL SUB PUSH32 0x0 AND ISZERO PUSH2 0x21E2 JUMPI PUSH1 0x40 MLOAD PUSH3 0x461BCD PUSH1 0xE5 SHL DUP2 MSTORE PUSH1 0x20 PUSH1 0x4 DUP3 ADD MSTORE PUSH1 0x13 PUSH1 0x24 DUP3 ADD MSTORE PUSH19 0x105B1C9958591E481A5B9A5D1A585B1A5E9959 PUSH1 0x6A SHL PUSH1 0x44 DUP3 ADD MSTORE PUSH1 0x64 ADD PUSH2 0xC78 JUMP JUMPDEST PUSH1 0x1 PUSH1 0x1 PUSH1 0xA0 SHL SUB DUP6 AND PUSH2 0x2238 JUMPI PUSH1 0x40 MLOAD PUSH3 0x461BCD PUSH1 0xE5 SHL DUP2 MSTORE PUSH1 0x20 PUSH1 0x4 DUP3 ADD MSTORE PUSH1 0x1A PUSH1 0x24 DUP3 ADD MSTORE PUSH32 0x496E76616C6964204C617965725A65726F20656E64706F696E74000000000000 PUSH1 0x44 DUP3 ADD MSTORE PUSH1 0x64 ADD PUSH2 0xC78 JUMP JUMPDEST DUP3 DUP2 EQ PUSH2 0x2279 JUMPI PUSH1 0x40 MLOAD PUSH3 0x461BCD PUSH1 0xE5 SHL DUP2 MSTORE PUSH1 0x20 PUSH1 0x4 DUP3 ADD MSTORE PUSH1 0xF PUSH1 0x24 DUP3 ADD MSTORE PUSH15 0x98CADCCEE8D040DAD2E6DAC2E8C6D PUSH1 0x8B SHL PUSH1 0x44 DUP3 ADD MSTORE PUSH1 0x64 ADD PUSH2 0xC78 JUMP JUMPDEST PUSH2 0x22B5 DUP3 DUP3 DUP1 DUP1 PUSH1 0x20 MUL PUSH1 0x20 ADD PUSH1 0x40 MLOAD SWAP1 DUP2 ADD PUSH1 0x40 MSTORE DUP1 SWAP4 SWAP3 SWAP2 SWAP1 DUP2 DUP2 MSTORE PUSH1 0x20 ADD DUP4 DUP4 PUSH1 0x20 MUL DUP1 DUP3 DUP5 CALLDATACOPY PUSH1 0x0 SWAP3 ADD SWAP2 SWAP1 SWAP2 MSTORE POP PUSH2 0x2936 SWAP3 POP POP POP JUMP JUMPDEST PUSH2 0x22F7 JUMPI PUSH1 0x40 MLOAD PUSH3 0x461BCD PUSH1 0xE5 SHL DUP2 MSTORE PUSH1 0x20 PUSH1 0x4 DUP3 ADD MSTORE PUSH1 0x13 PUSH1 0x24 DUP3 ADD MSTORE PUSH19 0x496E76616C696420616C6C6F636174696F6E73 PUSH1 0x68 SHL PUSH1 0x44 DUP3 ADD MSTORE PUSH1 0x64 ADD PUSH2 0xC78 JUMP JUMPDEST PUSH1 0xF DUP12 SWAP1 SSTORE PUSH1 0xE DUP1 SLOAD PUSH1 0x1 PUSH1 0x1 PUSH1 0xA0 SHL SUB NOT AND PUSH1 0x1 PUSH1 0x1 PUSH1 0xA0 SHL SUB DUP8 AND OR SWAP1 SSTORE PUSH2 0x2323 PUSH1 0x12 DUP6 DUP6 PUSH2 0x333B JUMP JUMPDEST POP PUSH2 0x2330 PUSH1 0x13 DUP4 DUP4 PUSH2 0x32F0 JUMP JUMPDEST POP TIMESTAMP PUSH1 0x15 DUP2 SWAP1 SSTORE PUSH1 0x18 SSTORE PUSH1 0x1 PUSH1 0x1 PUSH1 0xA0 SHL SUB DUP1 DUP12 AND PUSH1 0x0 DUP2 DUP2 MSTORE PUSH1 0x11 PUSH1 0x20 MSTORE PUSH1 0x40 DUP1 DUP3 KECCAK256 DUP1 SLOAD PUSH1 0xFF NOT AND PUSH1 0x1 OR SWAP1 SSTORE MLOAD SWAP2 SWAP3 DUP16 AND SWAP2 DUP15 SWAP2 PUSH32 0xC221D16022D31138E130DCDA10441A725921CA5F956185E8A45F9ABE8AD7E2D4 SWAP2 LOG4 POP POP POP POP POP POP POP POP POP POP POP POP JUMP JUMPDEST PUSH1 0x0 PUSH2 0xB29 DUP3 PUSH2 0x20A7 JUMP JUMPDEST PUSH1 0x0 PUSH2 0x23AE DUP2 PUSH2 0x25A1 JUMP JUMPDEST POP PUSH1 0x1 PUSH1 0x1 PUSH1 0xA0 SHL SUB SWAP2 SWAP1 SWAP2 AND PUSH1 0x0 SWAP1 DUP2 MSTORE PUSH1 0x11 PUSH1 0x20 MSTORE PUSH1 0x40 SWAP1 KECCAK256 DUP1 SLOAD PUSH1 0xFF NOT AND SWAP2 ISZERO ISZERO SWAP2 SWAP1 SWAP2 OR SWAP1 SSTORE JUMP JUMPDEST PUSH1 0x0 PUSH2 0x23E5 DUP2 PUSH2 0x25A1 JUMP JUMPDEST PUSH2 0x1F4 DUP3 GT ISZERO PUSH2 0x2426 JUMPI PUSH1 0x40 MLOAD PUSH3 0x461BCD PUSH1 0xE5 SHL DUP2 MSTORE PUSH1 0x20 PUSH1 0x4 DUP3 ADD MSTORE PUSH1 0xC PUSH1 0x24 DUP3 ADD MSTORE PUSH12 0x8CCACA40E8DEDE40D0D2CED PUSH1 0xA3 SHL PUSH1 0x44 DUP3 ADD MSTORE PUSH1 0x64 ADD PUSH2 0xC78 JUMP JUMPDEST PUSH1 0x8 DUP1 SLOAD SWAP1 DUP4 SWAP1 SSTORE PUSH1 0x40 DUP1 MLOAD DUP3 DUP2 MSTORE PUSH1 0x20 DUP2 ADD DUP6 SWAP1 MSTORE PUSH32 0xF5FF4786E844406502466108C183CA5FF947880B3BA08B1500EEA9C29D12030D SWAP2 ADD PUSH2 0xEB3 JUMP JUMPDEST PUSH1 0x0 PUSH32 0x0 PUSH1 0x40 MLOAD PUSH4 0x70A08231 PUSH1 0xE0 SHL DUP2 MSTORE ADDRESS PUSH1 0x4 DUP3 ADD MSTORE PUSH1 0x1 PUSH1 0x1 PUSH1 0xA0 SHL SUB SWAP2 SWAP1 SWAP2 AND SWAP1 PUSH4 0x70A08231 SWAP1 PUSH1 0x24 ADD PUSH1 0x20 PUSH1 0x40 MLOAD DUP1 DUP4 SUB DUP2 DUP7 GAS STATICCALL ISZERO DUP1 ISZERO PUSH2 0x24CD JUMPI RETURNDATASIZE PUSH1 0x0 DUP1 RETURNDATACOPY RETURNDATASIZE PUSH1 0x0 REVERT JUMPDEST POP POP POP POP PUSH1 0x40 MLOAD RETURNDATASIZE PUSH1 0x1F NOT PUSH1 0x1F DUP3 ADD AND DUP3 ADD DUP1 PUSH1 0x40 MSTORE POP DUP2 ADD SWAP1 PUSH2 0xF17 SWAP2 SWAP1 PUSH2 0x3B72 JUMP JUMPDEST PUSH1 0x0 DUP1 PUSH1 0xA SLOAD TIMESTAMP PUSH2 0x2502 SWAP2 SWAP1 PUSH2 0x3A8F JUMP JUMPDEST SWAP1 POP PUSH1 0x0 PUSH2 0x250E PUSH2 0x2464 JUMP JUMPDEST SWAP1 POP PUSH1 0x0 PUSH2 0x2522 PUSH4 0x1E13380 PUSH2 0x2710 PUSH2 0x3AEF JUMP JUMPDEST DUP4 PUSH1 0x8 SLOAD DUP5 PUSH2 0x2531 SWAP2 SWAP1 PUSH2 0x3AEF JUMP JUMPDEST PUSH2 0x253B SWAP2 SWAP1 PUSH2 0x3AEF JUMP JUMPDEST PUSH2 0x2545 SWAP2 SWAP1 PUSH2 0x3B1C JUMP JUMPDEST SWAP5 SWAP4 POP POP POP POP JUMP JUMPDEST PUSH1 0x0 PUSH2 0xE36 PUSH2 0x255A PUSH2 0xAC0 JUMP JUMPDEST PUSH2 0x2565 SWAP1 PUSH1 0x1 PUSH2 0x3B46 JUMP JUMPDEST PUSH2 0x2571 PUSH1 0x0 PUSH1 0xA PUSH2 0x3CFD JUMP JUMPDEST PUSH1 0x2 SLOAD PUSH2 0x257E SWAP2 SWAP1 PUSH2 0x3B46 JUMP JUMPDEST DUP6 SWAP2 SWAP1 DUP6 PUSH2 0x2C3D JUMP JUMPDEST PUSH2 0xF4F DUP4 DUP4 DUP4 PUSH1 0x1 PUSH2 0x2C81 JUMP JUMPDEST PUSH1 0x0 PUSH2 0xB29 DUP3 PUSH1 0x1 PUSH2 0x2BCB JUMP JUMPDEST PUSH2 0xF74 DUP2 CALLER PUSH2 0x2D56 JUMP JUMPDEST PUSH2 0x25B6 PUSH1 0x0 DUP5 PUSH2 0x26E0 JUMP JUMPDEST POP PUSH2 0x25CF PUSH1 0x0 DUP1 MLOAD PUSH1 0x20 PUSH2 0x3D86 DUP4 CODECOPY DUP2 MLOAD SWAP2 MSTORE DUP4 PUSH2 0x26E0 JUMP JUMPDEST POP PUSH2 0x25E8 PUSH1 0x0 DUP1 MLOAD PUSH1 0x20 PUSH2 0x3D66 DUP4 CODECOPY DUP2 MLOAD SWAP2 MSTORE DUP3 PUSH2 0x26E0 JUMP JUMPDEST POP POP TIMESTAMP PUSH1 0xA SSTORE POP PUSH1 0x0 PUSH1 0xB DUP2 SWAP1 SSTORE PUSH1 0xC SSTORE PUSH1 0xD DUP1 SLOAD PUSH1 0x1 PUSH1 0x1 PUSH1 0xA0 SHL SUB NOT AND PUSH1 0x1 PUSH1 0x1 PUSH1 0xA0 SHL SUB SWAP3 SWAP1 SWAP3 AND SWAP2 SWAP1 SWAP2 OR SWAP1 SSTORE JUMP JUMPDEST PUSH1 0x1 PUSH1 0x1 PUSH1 0xA0 SHL SUB DUP4 DUP2 AND PUSH1 0x0 SWAP1 DUP2 MSTORE PUSH1 0x1 PUSH1 0x20 SWAP1 DUP2 MSTORE PUSH1 0x40 DUP1 DUP4 KECCAK256 SWAP4 DUP7 AND DUP4 MSTORE SWAP3 SWAP1 MSTORE KECCAK256 SLOAD PUSH1 0x0 NOT DUP2 LT ISZERO PUSH2 0xEE5 JUMPI DUP2 DUP2 LT ISZERO PUSH2 0x2672 JUMPI DUP3 DUP2 DUP4 PUSH1 0x40 MLOAD PUSH4 0x7DC7A0D9 PUSH1 0xE1 SHL DUP2 MSTORE PUSH1 0x4 ADD PUSH2 0xC78 SWAP4 SWAP3 SWAP2 SWAP1 PUSH2 0x3D0C JUMP JUMPDEST PUSH2 0xEE5 DUP5 DUP5 DUP5 DUP5 SUB PUSH1 0x0 PUSH2 0x2C81 JUMP JUMPDEST PUSH1 0x1 PUSH1 0x1 PUSH1 0xA0 SHL SUB DUP4 AND PUSH2 0x26AB JUMPI PUSH1 0x40 MLOAD PUSH4 0x4B637E8F PUSH1 0xE1 SHL DUP2 MSTORE PUSH1 0x0 PUSH1 0x4 DUP3 ADD MSTORE PUSH1 0x24 ADD PUSH2 0xC78 JUMP JUMPDEST PUSH1 0x1 PUSH1 0x1 PUSH1 0xA0 SHL SUB DUP3 AND PUSH2 0x26D5 JUMPI PUSH1 0x40 MLOAD PUSH4 0xEC442F05 PUSH1 0xE0 SHL DUP2 MSTORE PUSH1 0x0 PUSH1 0x4 DUP3 ADD MSTORE PUSH1 0x24 ADD PUSH2 0xC78 JUMP JUMPDEST PUSH2 0xF4F DUP4 DUP4 DUP4 PUSH2 0x2D93 JUMP JUMPDEST PUSH1 0x0 PUSH2 0x26EC DUP4 DUP4 PUSH2 0x1A22 JUMP JUMPDEST PUSH2 0x276C JUMPI PUSH1 0x0 DUP4 DUP2 MSTORE PUSH1 0x5 PUSH1 0x20 SWAP1 DUP2 MSTORE PUSH1 0x40 DUP1 DUP4 KECCAK256 PUSH1 0x1 PUSH1 0x1 PUSH1 0xA0 SHL SUB DUP7 AND DUP5 MSTORE SWAP1 SWAP2 MSTORE SWAP1 KECCAK256 DUP1 SLOAD PUSH1 0xFF NOT AND PUSH1 0x1 OR SWAP1 SSTORE PUSH2 0x2724 CALLER SWAP1 JUMP JUMPDEST PUSH1 0x1 PUSH1 0x1 PUSH1 0xA0 SHL SUB AND DUP3 PUSH1 0x1 PUSH1 0x1 PUSH1 0xA0 SHL SUB AND DUP5 PUSH32 0x2F8788117E7EFF1D82E926EC794901D17C78024A50270940304540A733656F0D PUSH1 0x40 MLOAD PUSH1 0x40 MLOAD DUP1 SWAP2 SUB SWAP1 LOG4 POP PUSH1 0x1 PUSH2 0xB29 JUMP JUMPDEST POP PUSH1 0x0 PUSH2 0xB29 JUMP JUMPDEST PUSH1 0x0 PUSH2 0x2780 DUP4 DUP4 PUSH2 0x1A22 JUMP JUMPDEST ISZERO PUSH2 0x276C JUMPI PUSH1 0x0 DUP4 DUP2 MSTORE PUSH1 0x5 PUSH1 0x20 SWAP1 DUP2 MSTORE PUSH1 0x40 DUP1 DUP4 KECCAK256 PUSH1 0x1 PUSH1 0x1 PUSH1 0xA0 SHL SUB DUP7 AND DUP1 DUP6 MSTORE SWAP3 MSTORE DUP1 DUP4 KECCAK256 DUP1 SLOAD PUSH1 0xFF NOT AND SWAP1 SSTORE MLOAD CALLER SWAP3 DUP7 SWAP2 PUSH32 0xF6391F5C32D9C69D2A47EA670B442974B53935D1EDC7FD64EB21E047A839171B SWAP2 SWAP1 LOG4 POP PUSH1 0x1 PUSH2 0xB29 JUMP JUMPDEST PUSH2 0x27E9 PUSH2 0x2EAA JUMP JUMPDEST PUSH1 0x7 DUP1 SLOAD PUSH1 0xFF NOT AND SWAP1 SSTORE PUSH32 0x5DB9EE0A495BF2E6FF9C91A7834C1BA4FDD244A5E8AA4E537BD38AEAE4B073AA CALLER JUMPDEST PUSH1 0x40 MLOAD PUSH1 0x1 PUSH1 0x1 PUSH1 0xA0 SHL SUB SWAP1 SWAP2 AND DUP2 MSTORE PUSH1 0x20 ADD PUSH1 0x40 MLOAD DUP1 SWAP2 SUB SWAP1 LOG1 JUMP JUMPDEST PUSH1 0x40 MLOAD PUSH1 0x1 PUSH1 0x1 PUSH1 0xA0 SHL SUB DUP4 DUP2 AND PUSH1 0x24 DUP4 ADD MSTORE PUSH1 0x44 DUP3 ADD DUP4 SWAP1 MSTORE PUSH2 0xF4F SWAP2 DUP6 SWAP2 DUP3 AND SWAP1 PUSH4 0xA9059CBB SWAP1 PUSH1 0x64 ADD JUMPDEST PUSH1 0x40 MLOAD PUSH1 0x20 DUP2 DUP4 SUB SUB DUP2 MSTORE SWAP1 PUSH1 0x40 MSTORE SWAP2 POP PUSH1 0xE0 SHL PUSH1 0x20 DUP3 ADD DUP1 MLOAD PUSH1 0x1 PUSH1 0x1 PUSH1 0xE0 SHL SUB DUP4 DUP2 DUP4 AND OR DUP4 MSTORE POP POP POP POP PUSH2 0x2ECD JUMP JUMPDEST PUSH2 0x289A PUSH2 0x2A79 JUMP JUMPDEST PUSH1 0x7 DUP1 SLOAD PUSH1 0xFF NOT AND PUSH1 0x1 OR SWAP1 SSTORE PUSH32 0x62E78CEA01BEE320CD4E420270B5EA74000D11B0C9F74754EBDBFC544B05A258 PUSH2 0x2816 CALLER SWAP1 JUMP JUMPDEST PUSH1 0x0 DUP1 JUMPDEST PUSH1 0x12 SLOAD DUP2 LT ISZERO PUSH2 0x292C JUMPI DUP3 PUSH1 0x1 PUSH1 0x1 PUSH1 0xA0 SHL SUB AND PUSH1 0x12 DUP3 DUP2 SLOAD DUP2 LT PUSH2 0x28FA JUMPI PUSH2 0x28FA PUSH2 0x3B30 JUMP JUMPDEST PUSH1 0x0 SWAP2 DUP3 MSTORE PUSH1 0x20 SWAP1 SWAP2 KECCAK256 ADD SLOAD PUSH1 0x1 PUSH1 0x1 PUSH1 0xA0 SHL SUB AND SUB PUSH2 0x291A JUMPI SWAP3 SWAP2 POP POP JUMP JUMPDEST DUP1 PUSH2 0x2924 DUP2 PUSH2 0x3B59 JUMP JUMPDEST SWAP2 POP POP PUSH2 0x28D3 JUMP JUMPDEST POP PUSH1 0x0 NOT SWAP3 SWAP2 POP POP JUMP JUMPDEST PUSH1 0x0 DUP1 DUP1 JUMPDEST DUP4 MLOAD DUP2 LT ISZERO PUSH2 0x297D JUMPI DUP4 DUP2 DUP2 MLOAD DUP2 LT PUSH2 0x2956 JUMPI PUSH2 0x2956 PUSH2 0x3B30 JUMP JUMPDEST PUSH1 0x20 MUL PUSH1 0x20 ADD ADD MLOAD DUP3 PUSH2 0x2969 SWAP2 SWAP1 PUSH2 0x3B46 JUMP JUMPDEST SWAP2 POP DUP1 PUSH2 0x2975 DUP2 PUSH2 0x3B59 JUMP JUMPDEST SWAP2 POP POP PUSH2 0x293B JUMP JUMPDEST POP PUSH2 0x2710 EQ SWAP3 SWAP2 POP POP JUMP JUMPDEST PUSH1 0x0 DUP1 DUP1 JUMPDEST PUSH1 0x12 SLOAD DUP2 LT ISZERO PUSH2 0x29E5 JUMPI PUSH2 0x29C7 PUSH1 0x12 DUP3 DUP2 SLOAD DUP2 LT PUSH2 0x29AD JUMPI PUSH2 0x29AD PUSH2 0x3B30 JUMP JUMPDEST PUSH1 0x0 SWAP2 DUP3 MSTORE PUSH1 0x20 SWAP1 SWAP2 KECCAK256 ADD SLOAD PUSH1 0x1 PUSH1 0x1 PUSH1 0xA0 SHL SUB AND PUSH2 0x2F3E JUMP JUMPDEST PUSH2 0x29D1 SWAP1 DUP4 PUSH2 0x3B46 JUMP JUMPDEST SWAP2 POP DUP1 PUSH2 0x29DD DUP2 PUSH2 0x3B59 JUMP JUMPDEST SWAP2 POP POP PUSH2 0x298D JUMP JUMPDEST POP SWAP2 SWAP1 POP JUMP JUMPDEST PUSH1 0x12 SLOAD PUSH1 0x0 SWAP1 DUP3 LT PUSH2 0x29FF JUMPI POP PUSH1 0x0 SWAP2 SWAP1 POP JUMP JUMPDEST PUSH1 0x0 PUSH2 0x2A09 PUSH2 0x2988 JUMP JUMPDEST SWAP1 POP DUP1 PUSH1 0x0 SUB PUSH2 0x2A1C JUMPI POP PUSH1 0x0 SWAP3 SWAP2 POP POP JUMP JUMPDEST PUSH1 0x0 PUSH2 0x2A34 PUSH1 0x12 DUP6 DUP2 SLOAD DUP2 LT PUSH2 0x29AD JUMPI PUSH2 0x29AD PUSH2 0x3B30 JUMP JUMPDEST SWAP1 POP DUP2 PUSH2 0x253B DUP3 PUSH2 0x2710 PUSH2 0x3AEF JUMP JUMPDEST PUSH1 0x0 PUSH2 0x2A4D PUSH2 0x2A9F JUMP JUMPDEST PUSH2 0x2A55 PUSH2 0x2A79 JUMP JUMPDEST PUSH2 0x1A69 DUP4 DUP4 PUSH2 0x2FAB JUMP JUMPDEST PUSH1 0x0 PUSH1 0x15 SLOAD PUSH2 0xE10 PUSH2 0x2A71 SWAP2 SWAP1 PUSH2 0x3B46 JUMP JUMPDEST TIMESTAMP LT ISZERO SWAP1 POP SWAP1 JUMP JUMPDEST PUSH1 0x7 SLOAD PUSH1 0xFF AND ISZERO PUSH2 0x2A9D JUMPI PUSH1 0x40 MLOAD PUSH4 0xD93C0665 PUSH1 0xE0 SHL DUP2 MSTORE PUSH1 0x4 ADD PUSH1 0x40 MLOAD DUP1 SWAP2 SUB SWAP1 REVERT JUMPDEST JUMP JUMPDEST PUSH1 0x2 PUSH1 0x6 SLOAD SUB PUSH2 0x2AC2 JUMPI PUSH1 0x40 MLOAD PUSH4 0x3EE5AEB5 PUSH1 0xE0 SHL DUP2 MSTORE PUSH1 0x4 ADD PUSH1 0x40 MLOAD DUP1 SWAP2 SUB SWAP1 REVERT JUMPDEST PUSH1 0x2 PUSH1 0x6 SSTORE JUMP JUMPDEST PUSH1 0x0 DUP1 PUSH2 0x2AD5 DUP4 PUSH2 0xF77 JUMP JUMPDEST SWAP1 POP DUP1 DUP5 GT ISZERO PUSH2 0x2AFE JUMPI DUP3 DUP5 DUP3 PUSH1 0x40 MLOAD PUSH4 0x284FF667 PUSH1 0xE0 SHL DUP2 MSTORE PUSH1 0x4 ADD PUSH2 0xC78 SWAP4 SWAP3 SWAP2 SWAP1 PUSH2 0x3D0C JUMP JUMPDEST PUSH1 0x0 PUSH2 0x2B09 DUP6 PUSH2 0x1DA2 JUMP JUMPDEST SWAP1 POP PUSH2 0x2545 CALLER DUP6 DUP4 DUP9 PUSH2 0x2FF5 JUMP JUMPDEST PUSH1 0x0 PUSH2 0xB29 DUP3 PUSH1 0x1 PUSH2 0x254D JUMP JUMPDEST PUSH1 0x0 DUP1 PUSH2 0x2B30 DUP4 PUSH2 0x20B4 JUMP JUMPDEST SWAP1 POP DUP1 DUP6 GT ISZERO PUSH2 0x2B59 JUMPI DUP3 DUP6 DUP3 PUSH1 0x40 MLOAD PUSH4 0x3FA733BB PUSH1 0xE2 SHL DUP2 MSTORE PUSH1 0x4 ADD PUSH2 0xC78 SWAP4 SWAP3 SWAP2 SWAP1 PUSH2 0x3D0C JUMP JUMPDEST PUSH1 0x0 PUSH2 0x2B64 DUP7 PUSH2 0xBE6 JUMP JUMPDEST SWAP1 POP PUSH2 0x2B73 CALLER DUP7 DUP7 DUP10 DUP6 PUSH2 0x3079 JUMP JUMPDEST SWAP6 SWAP5 POP POP POP POP POP JUMP JUMPDEST PUSH1 0x0 DUP1 PUSH2 0x2B88 DUP4 PUSH2 0x20F9 JUMP JUMPDEST SWAP1 POP DUP1 DUP6 GT ISZERO PUSH2 0x2BB1 JUMPI DUP3 DUP6 DUP3 PUSH1 0x40 MLOAD PUSH4 0x2E52AFBB PUSH1 0xE2 SHL DUP2 MSTORE PUSH1 0x4 ADD PUSH2 0xC78 SWAP4 SWAP3 SWAP2 SWAP1 PUSH2 0x3D0C JUMP JUMPDEST PUSH1 0x0 PUSH2 0x2BBC DUP7 PUSH2 0x10D9 JUMP JUMPDEST SWAP1 POP PUSH2 0x2B73 CALLER DUP7 DUP7 DUP5 DUP11 PUSH2 0x3079 JUMP JUMPDEST PUSH1 0x0 PUSH2 0xE36 PUSH2 0x2BDB DUP3 PUSH1 0xA PUSH2 0x3CFD JUMP JUMPDEST PUSH1 0x2 SLOAD PUSH2 0x2BE8 SWAP2 SWAP1 PUSH2 0x3B46 JUMP JUMPDEST PUSH2 0x2BF0 PUSH2 0xAC0 JUMP JUMPDEST PUSH2 0x257E SWAP1 PUSH1 0x1 PUSH2 0x3B46 JUMP JUMPDEST PUSH1 0x1 PUSH1 0x1 PUSH1 0xA0 SHL SUB DUP2 AND PUSH1 0x0 SWAP1 DUP2 MSTORE PUSH1 0x20 DUP2 SWAP1 MSTORE PUSH1 0x40 DUP2 KECCAK256 SLOAD PUSH2 0xB29 SWAP1 PUSH1 0x0 PUSH2 0x254D JUMP JUMPDEST PUSH1 0x1 PUSH1 0x1 PUSH1 0xA0 SHL SUB DUP2 AND PUSH1 0x0 SWAP1 DUP2 MSTORE PUSH1 0x20 DUP2 SWAP1 MSTORE PUSH1 0x40 DUP2 KECCAK256 SLOAD PUSH2 0xB29 JUMP JUMPDEST PUSH1 0x0 PUSH2 0x2C6C PUSH2 0x2C4B DUP4 PUSH2 0x3139 JUMP JUMPDEST DUP1 ISZERO PUSH2 0x2C67 JUMPI POP PUSH1 0x0 DUP5 DUP1 PUSH2 0x2C62 JUMPI PUSH2 0x2C62 PUSH2 0x3B06 JUMP JUMPDEST DUP7 DUP9 MULMOD GT JUMPDEST ISZERO ISZERO SWAP1 JUMP JUMPDEST PUSH2 0x2C77 DUP7 DUP7 DUP7 PUSH2 0x3166 JUMP JUMPDEST PUSH2 0x2B73 SWAP2 SWAP1 PUSH2 0x3B46 JUMP JUMPDEST PUSH1 0x1 PUSH1 0x1 PUSH1 0xA0 SHL SUB DUP5 AND PUSH2 0x2CAB JUMPI PUSH1 0x40 MLOAD PUSH4 0xE602DF05 PUSH1 0xE0 SHL DUP2 MSTORE PUSH1 0x0 PUSH1 0x4 DUP3 ADD MSTORE PUSH1 0x24 ADD PUSH2 0xC78 JUMP JUMPDEST PUSH1 0x1 PUSH1 0x1 PUSH1 0xA0 SHL SUB DUP4 AND PUSH2 0x2CD5 JUMPI PUSH1 0x40 MLOAD PUSH4 0x4A1406B1 PUSH1 0xE1 SHL DUP2 MSTORE PUSH1 0x0 PUSH1 0x4 DUP3 ADD MSTORE PUSH1 0x24 ADD PUSH2 0xC78 JUMP JUMPDEST PUSH1 0x1 PUSH1 0x1 PUSH1 0xA0 SHL SUB DUP1 DUP6 AND PUSH1 0x0 SWAP1 DUP2 MSTORE PUSH1 0x1 PUSH1 0x20 SWAP1 DUP2 MSTORE PUSH1 0x40 DUP1 DUP4 KECCAK256 SWAP4 DUP8 AND DUP4 MSTORE SWAP3 SWAP1 MSTORE KECCAK256 DUP3 SWAP1 SSTORE DUP1 ISZERO PUSH2 0xEE5 JUMPI DUP3 PUSH1 0x1 PUSH1 0x1 PUSH1 0xA0 SHL SUB AND DUP5 PUSH1 0x1 PUSH1 0x1 PUSH1 0xA0 SHL SUB AND PUSH32 0x8C5BE1E5EBEC7D5BD14F71427D1E84F3DD0314C0F7B2291E5B200AC8C7C3B925 DUP5 PUSH1 0x40 MLOAD PUSH2 0x2D48 SWAP2 DUP2 MSTORE PUSH1 0x20 ADD SWAP1 JUMP JUMPDEST PUSH1 0x40 MLOAD DUP1 SWAP2 SUB SWAP1 LOG3 POP POP POP POP JUMP JUMPDEST PUSH2 0x2D60 DUP3 DUP3 PUSH2 0x1A22 JUMP JUMPDEST PUSH2 0x2D8F JUMPI PUSH1 0x40 MLOAD PUSH4 0xE2517D3F PUSH1 0xE0 SHL DUP2 MSTORE PUSH1 0x1 PUSH1 0x1 PUSH1 0xA0 SHL SUB DUP3 AND PUSH1 0x4 DUP3 ADD MSTORE PUSH1 0x24 DUP2 ADD DUP4 SWAP1 MSTORE PUSH1 0x44 ADD PUSH2 0xC78 JUMP JUMPDEST POP POP JUMP JUMPDEST PUSH1 0x1 PUSH1 0x1 PUSH1 0xA0 SHL SUB DUP4 AND PUSH2 0x2DBE JUMPI DUP1 PUSH1 0x2 PUSH1 0x0 DUP3 DUP3 SLOAD PUSH2 0x2DB3 SWAP2 SWAP1 PUSH2 0x3B46 JUMP JUMPDEST SWAP1 SWAP2 SSTORE POP PUSH2 0x2E1D SWAP1 POP JUMP JUMPDEST PUSH1 0x1 PUSH1 0x1 PUSH1 0xA0 SHL SUB DUP4 AND PUSH1 0x0 SWAP1 DUP2 MSTORE PUSH1 0x20 DUP2 SWAP1 MSTORE PUSH1 0x40 SWAP1 KECCAK256 SLOAD DUP2 DUP2 LT ISZERO PUSH2 0x2DFE JUMPI DUP4 DUP2 DUP4 PUSH1 0x40 MLOAD PUSH4 0x391434E3 PUSH1 0xE2 SHL DUP2 MSTORE PUSH1 0x4 ADD PUSH2 0xC78 SWAP4 SWAP3 SWAP2 SWAP1 PUSH2 0x3D0C JUMP JUMPDEST PUSH1 0x1 PUSH1 0x1 PUSH1 0xA0 SHL SUB DUP5 AND PUSH1 0x0 SWAP1 DUP2 MSTORE PUSH1 0x20 DUP2 SWAP1 MSTORE PUSH1 0x40 SWAP1 KECCAK256 SWAP1 DUP3 SWAP1 SUB SWAP1 SSTORE JUMPDEST PUSH1 0x1 PUSH1 0x1 PUSH1 0xA0 SHL SUB DUP3 AND PUSH2 0x2E39 JUMPI PUSH1 0x2 DUP1 SLOAD DUP3 SWAP1 SUB SWAP1 SSTORE PUSH2 0x2E58 JUMP JUMPDEST PUSH1 0x1 PUSH1 0x1 PUSH1 0xA0 SHL SUB DUP3 AND PUSH1 0x0 SWAP1 DUP2 MSTORE PUSH1 0x20 DUP2 SWAP1 MSTORE PUSH1 0x40 SWAP1 KECCAK256 DUP1 SLOAD DUP3 ADD SWAP1 SSTORE JUMPDEST DUP2 PUSH1 0x1 PUSH1 0x1 PUSH1 0xA0 SHL SUB AND DUP4 PUSH1 0x1 PUSH1 0x1 PUSH1 0xA0 SHL SUB AND PUSH32 0xDDF252AD1BE2C89B69C2B068FC378DAA952BA7F163C4A11628F55A4DF523B3EF DUP4 PUSH1 0x40 MLOAD PUSH2 0x2E9D SWAP2 DUP2 MSTORE PUSH1 0x20 ADD SWAP1 JUMP JUMPDEST PUSH1 0x40 MLOAD DUP1 SWAP2 SUB SWAP1 LOG3 POP POP POP JUMP JUMPDEST PUSH1 0x7 SLOAD PUSH1 0xFF AND PUSH2 0x2A9D JUMPI PUSH1 0x40 MLOAD PUSH4 0x8DFC202B PUSH1 0xE0 SHL DUP2 MSTORE PUSH1 0x4 ADD PUSH1 0x40 MLOAD DUP1 SWAP2 SUB SWAP1 REVERT JUMPDEST PUSH1 0x0 DUP1 PUSH1 0x20 PUSH1 0x0 DUP5 MLOAD PUSH1 0x20 DUP7 ADD PUSH1 0x0 DUP9 GAS CALL DUP1 PUSH2 0x2EF0 JUMPI PUSH1 0x40 MLOAD RETURNDATASIZE PUSH1 0x0 DUP3 RETURNDATACOPY RETURNDATASIZE DUP2 REVERT JUMPDEST POP POP PUSH1 0x0 MLOAD RETURNDATASIZE SWAP2 POP DUP2 ISZERO PUSH2 0x2F08 JUMPI DUP1 PUSH1 0x1 EQ ISZERO PUSH2 0x2F15 JUMP JUMPDEST PUSH1 0x1 PUSH1 0x1 PUSH1 0xA0 SHL SUB DUP5 AND EXTCODESIZE ISZERO JUMPDEST ISZERO PUSH2 0xEE5 JUMPI PUSH1 0x40 MLOAD PUSH4 0x5274AFE7 PUSH1 0xE0 SHL DUP2 MSTORE PUSH1 0x1 PUSH1 0x1 PUSH1 0xA0 SHL SUB DUP6 AND PUSH1 0x4 DUP3 ADD MSTORE PUSH1 0x24 ADD PUSH2 0xC78 JUMP JUMPDEST PUSH1 0x40 MLOAD PUSH4 0x70A08231 PUSH1 0xE0 SHL DUP2 MSTORE ADDRESS PUSH1 0x4 DUP3 ADD MSTORE PUSH1 0x0 SWAP1 DUP2 SWAP1 PUSH1 0x1 PUSH1 0x1 PUSH1 0xA0 SHL SUB DUP5 AND SWAP1 PUSH4 0x70A08231 SWAP1 PUSH1 0x24 ADD PUSH1 0x20 PUSH1 0x40 MLOAD DUP1 DUP4 SUB DUP2 DUP7 GAS STATICCALL ISZERO DUP1 ISZERO PUSH2 0x2F87 JUMPI RETURNDATASIZE PUSH1 0x0 DUP1 RETURNDATACOPY RETURNDATASIZE PUSH1 0x0 REVERT JUMPDEST POP POP POP POP PUSH1 0x40 MLOAD RETURNDATASIZE PUSH1 0x1F NOT PUSH1 0x1F DUP3 ADD AND DUP3 ADD DUP1 PUSH1 0x40 MSTORE POP DUP2 ADD SWAP1 PUSH2 0xE36 SWAP2 SWAP1 PUSH2 0x3B72 JUMP JUMPDEST PUSH1 0x0 DUP1 PUSH2 0x2FB7 DUP4 PUSH2 0xF77 JUMP JUMPDEST SWAP1 POP DUP1 DUP5 GT ISZERO PUSH2 0x2FE0 JUMPI DUP3 DUP5 DUP3 PUSH1 0x40 MLOAD PUSH4 0x3C8097D9 PUSH1 0xE1 SHL DUP2 MSTORE PUSH1 0x4 ADD PUSH2 0xC78 SWAP4 SWAP3 SWAP2 SWAP1 PUSH2 0x3D0C JUMP JUMPDEST PUSH1 0x0 PUSH2 0x2FEB DUP6 PUSH2 0x2398 JUMP JUMPDEST SWAP1 POP PUSH2 0x2545 CALLER DUP6 DUP8 DUP5 JUMPDEST PUSH2 0x3021 PUSH32 0x0 DUP6 ADDRESS DUP6 PUSH2 0x321B JUMP JUMPDEST PUSH2 0x302B DUP4 DUP3 PUSH2 0x3254 JUMP JUMPDEST DUP3 PUSH1 0x1 PUSH1 0x1 PUSH1 0xA0 SHL SUB AND DUP5 PUSH1 0x1 PUSH1 0x1 PUSH1 0xA0 SHL SUB AND PUSH32 0xDCBC1C05240F31FF3AD067EF1EE35CE4997762752E3A095284754544F4C709D7 DUP5 DUP5 PUSH1 0x40 MLOAD PUSH2 0x2D48 SWAP3 SWAP2 SWAP1 SWAP2 DUP3 MSTORE PUSH1 0x20 DUP3 ADD MSTORE PUSH1 0x40 ADD SWAP1 JUMP JUMPDEST DUP3 PUSH1 0x1 PUSH1 0x1 PUSH1 0xA0 SHL SUB AND DUP6 PUSH1 0x1 PUSH1 0x1 PUSH1 0xA0 SHL SUB AND EQ PUSH2 0x309D JUMPI PUSH2 0x309D DUP4 DUP7 DUP4 PUSH2 0x261B JUMP JUMPDEST PUSH2 0x30A7 DUP4 DUP3 PUSH2 0x328A JUMP JUMPDEST PUSH2 0x30D2 PUSH32 0x0 DUP6 DUP5 PUSH2 0x2833 JUMP JUMPDEST DUP3 PUSH1 0x1 PUSH1 0x1 PUSH1 0xA0 SHL SUB AND DUP5 PUSH1 0x1 PUSH1 0x1 PUSH1 0xA0 SHL SUB AND DUP7 PUSH1 0x1 PUSH1 0x1 PUSH1 0xA0 SHL SUB AND PUSH32 0xFBDE797D201C681B91056529119E0B02407C7BB96A4A2C75C01FC9667232C8DB DUP6 DUP6 PUSH1 0x40 MLOAD PUSH2 0x312A SWAP3 SWAP2 SWAP1 SWAP2 DUP3 MSTORE PUSH1 0x20 DUP3 ADD MSTORE PUSH1 0x40 ADD SWAP1 JUMP JUMPDEST PUSH1 0x40 MLOAD DUP1 SWAP2 SUB SWAP1 LOG4 POP POP POP POP POP JUMP JUMPDEST PUSH1 0x0 PUSH1 0x2 DUP3 PUSH1 0x3 DUP2 GT ISZERO PUSH2 0x314F JUMPI PUSH2 0x314F PUSH2 0x3D2D JUMP JUMPDEST PUSH2 0x3159 SWAP2 SWAP1 PUSH2 0x3D43 JUMP JUMPDEST PUSH1 0xFF AND PUSH1 0x1 EQ SWAP1 POP SWAP2 SWAP1 POP JUMP JUMPDEST PUSH1 0x0 DUP1 PUSH1 0x0 PUSH2 0x3175 DUP7 DUP7 PUSH2 0x32C0 JUMP JUMPDEST SWAP2 POP SWAP2 POP DUP2 PUSH1 0x0 SUB PUSH2 0x319A JUMPI DUP4 DUP2 DUP2 PUSH2 0x3190 JUMPI PUSH2 0x3190 PUSH2 0x3B06 JUMP JUMPDEST DIV SWAP3 POP POP POP PUSH2 0xE36 JUMP JUMPDEST DUP2 DUP5 GT PUSH2 0x31B1 JUMPI PUSH2 0x31B1 PUSH1 0x3 DUP6 ISZERO MUL PUSH1 0x11 XOR PUSH2 0x32DE JUMP JUMPDEST PUSH1 0x0 DUP5 DUP7 DUP9 MULMOD PUSH1 0x0 DUP7 DUP2 SUB DUP8 AND SWAP7 DUP8 SWAP1 DIV SWAP7 PUSH1 0x2 PUSH1 0x3 DUP10 MUL DUP2 XOR DUP1 DUP11 MUL DUP3 SUB MUL DUP1 DUP11 MUL DUP3 SUB MUL DUP1 DUP11 MUL DUP3 SUB MUL DUP1 DUP11 MUL DUP3 SUB MUL DUP1 DUP11 MUL DUP3 SUB MUL DUP1 DUP11 MUL SWAP1 SWAP2 SUB MUL SWAP2 DUP2 SWAP1 SUB DUP2 SWAP1 DIV PUSH1 0x1 ADD DUP6 DUP5 GT SWAP1 SWAP7 SUB SWAP6 SWAP1 SWAP6 MUL SWAP2 SWAP1 SWAP4 SUB SWAP4 SWAP1 SWAP4 DIV SWAP3 SWAP1 SWAP3 OR MUL SWAP2 POP POP SWAP4 SWAP3 POP POP POP JUMP JUMPDEST PUSH1 0x40 MLOAD PUSH1 0x1 PUSH1 0x1 PUSH1 0xA0 SHL SUB DUP5 DUP2 AND PUSH1 0x24 DUP4 ADD MSTORE DUP4 DUP2 AND PUSH1 0x44 DUP4 ADD MSTORE PUSH1 0x64 DUP3 ADD DUP4 SWAP1 MSTORE PUSH2 0xEE5 SWAP2 DUP7 SWAP2 DUP3 AND SWAP1 PUSH4 0x23B872DD SWAP1 PUSH1 0x84 ADD PUSH2 0x2860 JUMP JUMPDEST PUSH1 0x1 PUSH1 0x1 PUSH1 0xA0 SHL SUB DUP3 AND PUSH2 0x327E JUMPI PUSH1 0x40 MLOAD PUSH4 0xEC442F05 PUSH1 0xE0 SHL DUP2 MSTORE PUSH1 0x0 PUSH1 0x4 DUP3 ADD MSTORE PUSH1 0x24 ADD PUSH2 0xC78 JUMP JUMPDEST PUSH2 0x2D8F PUSH1 0x0 DUP4 DUP4 PUSH2 0x2D93 JUMP JUMPDEST PUSH1 0x1 PUSH1 0x1 PUSH1 0xA0 SHL SUB DUP3 AND PUSH2 0x32B4 JUMPI PUSH1 0x40 MLOAD PUSH4 0x4B637E8F PUSH1 0xE1 SHL DUP2 MSTORE PUSH1 0x0 PUSH1 0x4 DUP3 ADD MSTORE PUSH1 0x24 ADD PUSH2 0xC78 JUMP JUMPDEST PUSH2 0x2D8F DUP3 PUSH1 0x0 DUP4 PUSH2 0x2D93 JUMP JUMPDEST PUSH1 0x0 DUP1 PUSH1 0x0 NOT DUP4 DUP6 MULMOD SWAP4 SWAP1 SWAP3 MUL DUP1 DUP5 LT SWAP4 DUP2 SWAP1 SUB SWAP4 SWAP1 SWAP4 SUB SWAP4 SWAP2 POP POP JUMP JUMPDEST PUSH4 0x4E487B71 PUSH1 0x0 MSTORE DUP1 PUSH1 0x20 MSTORE PUSH1 0x24 PUSH1 0x1C REVERT JUMPDEST DUP3 DUP1 SLOAD DUP3 DUP3 SSTORE SWAP1 PUSH1 0x0 MSTORE PUSH1 0x20 PUSH1 0x0 KECCAK256 SWAP1 DUP2 ADD SWAP3 DUP3 ISZERO PUSH2 0x332B JUMPI SWAP2 PUSH1 0x20 MUL DUP3 ADD JUMPDEST DUP3 DUP2 GT ISZERO PUSH2 0x332B JUMPI DUP3 CALLDATALOAD DUP3 SSTORE SWAP2 PUSH1 0x20 ADD SWAP2 SWAP1 PUSH1 0x1 ADD SWAP1 PUSH2 0x3310 JUMP JUMPDEST POP PUSH2 0x3337 SWAP3 SWAP2 POP PUSH2 0x338E JUMP JUMPDEST POP SWAP1 JUMP JUMPDEST DUP3 DUP1 SLOAD DUP3 DUP3 SSTORE SWAP1 PUSH1 0x0 MSTORE PUSH1 0x20 PUSH1 0x0 KECCAK256 SWAP1 DUP2 ADD SWAP3 DUP3 ISZERO PUSH2 0x332B JUMPI SWAP2 PUSH1 0x20 MUL DUP3 ADD JUMPDEST DUP3 DUP2 GT ISZERO PUSH2 0x332B JUMPI DUP2 SLOAD PUSH1 0x1 PUSH1 0x1 PUSH1 0xA0 SHL SUB NOT AND PUSH1 0x1 PUSH1 0x1 PUSH1 0xA0 SHL SUB DUP5 CALLDATALOAD AND OR DUP3 SSTORE PUSH1 0x20 SWAP1 SWAP3 ADD SWAP2 PUSH1 0x1 SWAP1 SWAP2 ADD SWAP1 PUSH2 0x335B JUMP JUMPDEST JUMPDEST DUP1 DUP3 GT ISZERO PUSH2 0x3337 JUMPI PUSH1 0x0 DUP2 SSTORE PUSH1 0x1 ADD PUSH2 0x338F JUMP JUMPDEST PUSH1 0x0 PUSH1 0x20 DUP3 DUP5 SUB SLT ISZERO PUSH2 0x33B5 JUMPI PUSH1 0x0 DUP1 REVERT JUMPDEST DUP2 CALLDATALOAD PUSH1 0x1 PUSH1 0x1 PUSH1 0xE0 SHL SUB NOT DUP2 AND DUP2 EQ PUSH2 0xE36 JUMPI PUSH1 0x0 DUP1 REVERT JUMPDEST PUSH1 0x0 DUP2 MLOAD DUP1 DUP5 MSTORE PUSH1 0x0 JUMPDEST DUP2 DUP2 LT ISZERO PUSH2 0x33F3 JUMPI PUSH1 0x20 DUP2 DUP6 ADD DUP2 ADD MLOAD DUP7 DUP4 ADD DUP3 ADD MSTORE ADD PUSH2 0x33D7 JUMP JUMPDEST POP PUSH1 0x0 PUSH1 0x20 DUP3 DUP7 ADD ADD MSTORE PUSH1 0x20 PUSH1 0x1F NOT PUSH1 0x1F DUP4 ADD AND DUP6 ADD ADD SWAP2 POP POP SWAP3 SWAP2 POP POP JUMP JUMPDEST PUSH1 0x20 DUP2 MSTORE PUSH1 0x0 PUSH2 0xE36 PUSH1 0x20 DUP4 ADD DUP5 PUSH2 0x33CD JUMP JUMPDEST PUSH1 0x0 PUSH1 0x20 DUP3 DUP5 SUB SLT ISZERO PUSH2 0x3438 JUMPI PUSH1 0x0 DUP1 REVERT JUMPDEST POP CALLDATALOAD SWAP2 SWAP1 POP JUMP JUMPDEST PUSH1 0x1 PUSH1 0x1 PUSH1 0xA0 SHL SUB DUP2 AND DUP2 EQ PUSH2 0xF74 JUMPI PUSH1 0x0 DUP1 REVERT JUMPDEST DUP1 CALLDATALOAD PUSH2 0x345F DUP2 PUSH2 0x343F JUMP JUMPDEST SWAP2 SWAP1 POP JUMP JUMPDEST PUSH1 0x0 DUP1 PUSH1 0x40 DUP4 DUP6 SUB SLT ISZERO PUSH2 0x3477 JUMPI PUSH1 0x0 DUP1 REVERT JUMPDEST DUP3 CALLDATALOAD PUSH2 0x3482 DUP2 PUSH2 0x343F JUMP JUMPDEST SWAP5 PUSH1 0x20 SWAP4 SWAP1 SWAP4 ADD CALLDATALOAD SWAP4 POP POP POP JUMP JUMPDEST PUSH1 0x0 PUSH1 0x20 DUP3 DUP5 SUB SLT ISZERO PUSH2 0x34A2 JUMPI PUSH1 0x0 DUP1 REVERT JUMPDEST DUP2 CALLDATALOAD PUSH2 0xE36 DUP2 PUSH2 0x343F JUMP JUMPDEST PUSH4 0x4E487B71 PUSH1 0xE0 SHL PUSH1 0x0 MSTORE PUSH1 0x41 PUSH1 0x4 MSTORE PUSH1 0x24 PUSH1 0x0 REVERT JUMPDEST PUSH1 0x0 DUP3 PUSH1 0x1F DUP4 ADD SLT PUSH2 0x34D4 JUMPI PUSH1 0x0 DUP1 REVERT JUMPDEST DUP2 CALLDATALOAD PUSH8 0xFFFFFFFFFFFFFFFF DUP1 DUP3 GT ISZERO PUSH2 0x34EF JUMPI PUSH2 0x34EF PUSH2 0x34AD JUMP JUMPDEST PUSH1 0x40 MLOAD PUSH1 0x1F DUP4 ADD PUSH1 0x1F NOT SWAP1 DUP2 AND PUSH1 0x3F ADD AND DUP2 ADD SWAP1 DUP3 DUP3 GT DUP2 DUP4 LT OR ISZERO PUSH2 0x3517 JUMPI PUSH2 0x3517 PUSH2 0x34AD JUMP JUMPDEST DUP2 PUSH1 0x40 MSTORE DUP4 DUP2 MSTORE DUP7 PUSH1 0x20 DUP6 DUP9 ADD ADD GT ISZERO PUSH2 0x3530 JUMPI PUSH1 0x0 DUP1 REVERT JUMPDEST DUP4 PUSH1 0x20 DUP8 ADD PUSH1 0x20 DUP4 ADD CALLDATACOPY PUSH1 0x0 PUSH1 0x20 DUP6 DUP4 ADD ADD MSTORE DUP1 SWAP5 POP POP POP POP POP SWAP3 SWAP2 POP POP JUMP JUMPDEST PUSH1 0x0 DUP1 PUSH1 0x0 DUP1 PUSH1 0x0 PUSH1 0xA0 DUP7 DUP9 SUB SLT ISZERO PUSH2 0x3568 JUMPI PUSH1 0x0 DUP1 REVERT JUMPDEST DUP6 CALLDATALOAD PUSH2 0x3573 DUP2 PUSH2 0x343F JUMP JUMPDEST SWAP5 POP PUSH1 0x20 DUP7 ADD CALLDATALOAD PUSH8 0xFFFFFFFFFFFFFFFF DUP1 DUP3 GT ISZERO PUSH2 0x3590 JUMPI PUSH1 0x0 DUP1 REVERT JUMPDEST PUSH2 0x359C DUP10 DUP4 DUP11 ADD PUSH2 0x34C3 JUMP JUMPDEST SWAP6 POP PUSH1 0x40 DUP9 ADD CALLDATALOAD SWAP2 POP DUP1 DUP3 GT ISZERO PUSH2 0x35B2 JUMPI PUSH1 0x0 DUP1 REVERT JUMPDEST POP PUSH2 0x35BF DUP9 DUP3 DUP10 ADD PUSH2 0x34C3 JUMP JUMPDEST SWAP6 SWAP9 SWAP5 SWAP8 POP SWAP5 SWAP6 PUSH1 0x60 DUP2 ADD CALLDATALOAD SWAP6 POP PUSH1 0x80 ADD CALLDATALOAD SWAP4 SWAP3 POP POP POP JUMP JUMPDEST DUP1 CALLDATALOAD PUSH4 0xFFFFFFFF DUP2 AND DUP2 EQ PUSH2 0x345F JUMPI PUSH1 0x0 DUP1 REVERT JUMPDEST PUSH1 0x0 PUSH1 0x20 DUP3 DUP5 SUB SLT ISZERO PUSH2 0x35FE JUMPI PUSH1 0x0 DUP1 REVERT JUMPDEST PUSH2 0xE36 DUP3 PUSH2 0x35D8 JUMP JUMPDEST PUSH1 0x0 DUP1 PUSH1 0x0 PUSH1 0x60 DUP5 DUP7 SUB SLT ISZERO PUSH2 0x361C JUMPI PUSH1 0x0 DUP1 REVERT JUMPDEST DUP4 CALLDATALOAD PUSH2 0x3627 DUP2 PUSH2 0x343F JUMP JUMPDEST SWAP3 POP PUSH1 0x20 DUP5 ADD CALLDATALOAD PUSH2 0x3637 DUP2 PUSH2 0x343F JUMP JUMPDEST SWAP3 SWAP6 SWAP3 SWAP5 POP POP POP PUSH1 0x40 SWAP2 SWAP1 SWAP2 ADD CALLDATALOAD SWAP1 JUMP JUMPDEST PUSH1 0x0 DUP1 PUSH1 0x40 DUP4 DUP6 SUB SLT ISZERO PUSH2 0x365B JUMPI PUSH1 0x0 DUP1 REVERT JUMPDEST PUSH2 0x3482 DUP4 PUSH2 0x35D8 JUMP JUMPDEST PUSH1 0x0 DUP1 PUSH1 0x40 DUP4 DUP6 SUB SLT ISZERO PUSH2 0x3677 JUMPI PUSH1 0x0 DUP1 REVERT JUMPDEST DUP3 CALLDATALOAD SWAP2 POP PUSH1 0x20 DUP4 ADD CALLDATALOAD PUSH2 0x3689 DUP2 PUSH2 0x343F JUMP JUMPDEST DUP1 SWAP2 POP POP SWAP3 POP SWAP3 SWAP1 POP JUMP JUMPDEST PUSH1 0x0 DUP2 MLOAD DUP1 DUP5 MSTORE PUSH1 0x20 DUP1 DUP6 ADD SWAP5 POP DUP1 DUP5 ADD PUSH1 0x0 JUMPDEST DUP4 DUP2 LT ISZERO PUSH2 0x36CD JUMPI DUP2 MLOAD PUSH1 0x1 PUSH1 0x1 PUSH1 0xA0 SHL SUB AND DUP8 MSTORE SWAP6 DUP3 ADD SWAP6 SWAP1 DUP3 ADD SWAP1 PUSH1 0x1 ADD PUSH2 0x36A8 JUMP JUMPDEST POP SWAP5 SWAP6 SWAP5 POP POP POP POP POP JUMP JUMPDEST PUSH1 0x0 DUP2 MLOAD DUP1 DUP5 MSTORE PUSH1 0x20 DUP1 DUP6 ADD SWAP5 POP DUP1 DUP5 ADD PUSH1 0x0 JUMPDEST DUP4 DUP2 LT ISZERO PUSH2 0x36CD JUMPI DUP2 MLOAD DUP8 MSTORE SWAP6 DUP3 ADD SWAP6 SWAP1 DUP3 ADD SWAP1 PUSH1 0x1 ADD PUSH2 0x36EC JUMP JUMPDEST PUSH1 0x60 DUP2 MSTORE PUSH1 0x0 PUSH2 0x371B PUSH1 0x60 DUP4 ADD DUP7 PUSH2 0x3694 JUMP JUMPDEST DUP3 DUP2 SUB PUSH1 0x20 DUP5 ADD MSTORE PUSH2 0x372D DUP2 DUP7 PUSH2 0x36D8 JUMP JUMPDEST SWAP1 POP DUP3 DUP2 SUB PUSH1 0x40 DUP5 ADD MSTORE PUSH2 0x3741 DUP2 DUP6 PUSH2 0x36D8 JUMP JUMPDEST SWAP7 SWAP6 POP POP POP POP POP POP JUMP JUMPDEST PUSH1 0x0 PUSH1 0x20 DUP3 DUP5 SUB SLT ISZERO PUSH2 0x375D JUMPI PUSH1 0x0 DUP1 REVERT JUMPDEST DUP2 CALLDATALOAD PUSH8 0xFFFFFFFFFFFFFFFF DUP2 GT ISZERO PUSH2 0x3774 JUMPI PUSH1 0x0 DUP1 REVERT JUMPDEST PUSH2 0x2545 DUP5 DUP3 DUP6 ADD PUSH2 0x34C3 JUMP JUMPDEST PUSH1 0x0 DUP1 PUSH1 0x40 DUP4 DUP6 SUB SLT ISZERO PUSH2 0x3793 JUMPI PUSH1 0x0 DUP1 REVERT JUMPDEST POP POP DUP1 CALLDATALOAD SWAP3 PUSH1 0x20 SWAP1 SWAP2 ADD CALLDATALOAD SWAP2 POP JUMP JUMPDEST PUSH1 0x0 DUP1 PUSH1 0x0 PUSH1 0x60 DUP5 DUP7 SUB SLT ISZERO PUSH2 0x37B7 JUMPI PUSH1 0x0 DUP1 REVERT JUMPDEST DUP4 CALLDATALOAD SWAP3 POP PUSH1 0x20 DUP5 ADD CALLDATALOAD PUSH2 0x37C9 DUP2 PUSH2 0x343F JUMP JUMPDEST SWAP2 POP PUSH1 0x40 DUP5 ADD CALLDATALOAD PUSH2 0x37D9 DUP2 PUSH2 0x343F JUMP JUMPDEST DUP1 SWAP2 POP POP SWAP3 POP SWAP3 POP SWAP3 JUMP JUMPDEST PUSH1 0x0 DUP1 DUP4 PUSH1 0x1F DUP5 ADD SLT PUSH2 0x37F6 JUMPI PUSH1 0x0 DUP1 REVERT JUMPDEST POP DUP2 CALLDATALOAD PUSH8 0xFFFFFFFFFFFFFFFF DUP2 GT ISZERO PUSH2 0x380E JUMPI PUSH1 0x0 DUP1 REVERT JUMPDEST PUSH1 0x20 DUP4 ADD SWAP2 POP DUP4 PUSH1 0x20 DUP3 PUSH1 0x5 SHL DUP6 ADD ADD GT ISZERO PUSH2 0x3829 JUMPI PUSH1 0x0 DUP1 REVERT JUMPDEST SWAP3 POP SWAP3 SWAP1 POP JUMP JUMPDEST PUSH1 0x0 DUP1 PUSH1 0x20 DUP4 DUP6 SUB SLT ISZERO PUSH2 0x3843 JUMPI PUSH1 0x0 DUP1 REVERT JUMPDEST DUP3 CALLDATALOAD PUSH8 0xFFFFFFFFFFFFFFFF DUP2 GT ISZERO PUSH2 0x385A JUMPI PUSH1 0x0 DUP1 REVERT JUMPDEST PUSH2 0x3866 DUP6 DUP3 DUP7 ADD PUSH2 0x37E4 JUMP JUMPDEST SWAP1 SWAP7 SWAP1 SWAP6 POP SWAP4 POP POP POP POP JUMP JUMPDEST PUSH1 0x0 DUP1 PUSH1 0x0 PUSH1 0x60 DUP5 DUP7 SUB SLT ISZERO PUSH2 0x3887 JUMPI PUSH1 0x0 DUP1 REVERT JUMPDEST POP POP DUP2 CALLDATALOAD SWAP4 PUSH1 0x20 DUP4 ADD CALLDATALOAD SWAP4 POP PUSH1 0x40 SWAP1 SWAP3 ADD CALLDATALOAD SWAP2 SWAP1 POP JUMP JUMPDEST PUSH1 0x20 DUP2 MSTORE PUSH1 0x0 PUSH2 0xE36 PUSH1 0x20 DUP4 ADD DUP5 PUSH2 0x3694 JUMP JUMPDEST PUSH1 0x0 DUP1 DUP4 PUSH1 0x1F DUP5 ADD SLT PUSH2 0x38C3 JUMPI PUSH1 0x0 DUP1 REVERT JUMPDEST POP DUP2 CALLDATALOAD PUSH8 0xFFFFFFFFFFFFFFFF DUP2 GT ISZERO PUSH2 0x38DB JUMPI PUSH1 0x0 DUP1 REVERT JUMPDEST PUSH1 0x20 DUP4 ADD SWAP2 POP DUP4 PUSH1 0x20 DUP3 DUP6 ADD ADD GT ISZERO PUSH2 0x3829 JUMPI PUSH1 0x0 DUP1 REVERT JUMPDEST PUSH1 0x0 DUP1 PUSH1 0x0 DUP1 PUSH1 0x0 DUP1 PUSH1 0x0 DUP1 PUSH1 0x0 DUP1 PUSH1 0x0 DUP1 PUSH2 0x100 DUP14 DUP16 SUB SLT ISZERO PUSH2 0x3916 JUMPI PUSH1 0x0 DUP1 REVERT JUMPDEST PUSH2 0x391F DUP14 PUSH2 0x3454 JUMP JUMPDEST SWAP12 POP PUSH1 0x20 DUP14 ADD CALLDATALOAD SWAP11 POP PUSH2 0x3934 PUSH1 0x40 DUP15 ADD PUSH2 0x3454 JUMP JUMPDEST SWAP10 POP PUSH8 0xFFFFFFFFFFFFFFFF PUSH1 0x60 DUP15 ADD CALLDATALOAD GT ISZERO PUSH2 0x394F JUMPI PUSH1 0x0 DUP1 REVERT JUMPDEST PUSH2 0x395F DUP15 PUSH1 0x60 DUP16 ADD CALLDATALOAD DUP16 ADD PUSH2 0x38B1 JUMP JUMPDEST SWAP1 SWAP10 POP SWAP8 POP PUSH8 0xFFFFFFFFFFFFFFFF PUSH1 0x80 DUP15 ADD CALLDATALOAD GT ISZERO PUSH2 0x397D JUMPI PUSH1 0x0 DUP1 REVERT JUMPDEST PUSH2 0x398D DUP15 PUSH1 0x80 DUP16 ADD CALLDATALOAD DUP16 ADD PUSH2 0x38B1 JUMP JUMPDEST SWAP1 SWAP8 POP SWAP6 POP PUSH2 0x399E PUSH1 0xA0 DUP15 ADD PUSH2 0x3454 JUMP JUMPDEST SWAP5 POP PUSH8 0xFFFFFFFFFFFFFFFF PUSH1 0xC0 DUP15 ADD CALLDATALOAD GT ISZERO PUSH2 0x39B9 JUMPI PUSH1 0x0 DUP1 REVERT JUMPDEST PUSH2 0x39C9 DUP15 PUSH1 0xC0 DUP16 ADD CALLDATALOAD DUP16 ADD PUSH2 0x37E4 JUMP JUMPDEST SWAP1 SWAP5 POP SWAP3 POP PUSH8 0xFFFFFFFFFFFFFFFF PUSH1 0xE0 DUP15 ADD CALLDATALOAD GT ISZERO PUSH2 0x39E7 JUMPI PUSH1 0x0 DUP1 REVERT JUMPDEST PUSH2 0x39F7 DUP15 PUSH1 0xE0 DUP16 ADD CALLDATALOAD DUP16 ADD PUSH2 0x37E4 JUMP JUMPDEST DUP2 SWAP4 POP DUP1 SWAP3 POP POP POP SWAP3 SWAP6 SWAP9 SWAP12 POP SWAP3 SWAP6 SWAP9 SWAP12 POP SWAP3 SWAP6 SWAP9 SWAP12 JUMP JUMPDEST PUSH1 0x0 DUP1 PUSH1 0x40 DUP4 DUP6 SUB SLT ISZERO PUSH2 0x3A22 JUMPI PUSH1 0x0 DUP1 REVERT JUMPDEST DUP3 CALLDATALOAD PUSH2 0x3A2D DUP2 PUSH2 0x343F JUMP JUMPDEST SWAP2 POP PUSH1 0x20 DUP4 ADD CALLDATALOAD PUSH2 0x3689 DUP2 PUSH2 0x343F JUMP JUMPDEST DUP1 ISZERO ISZERO DUP2 EQ PUSH2 0xF74 JUMPI PUSH1 0x0 DUP1 REVERT JUMPDEST PUSH1 0x0 DUP1 PUSH1 0x40 DUP4 DUP6 SUB SLT ISZERO PUSH2 0x3A5E JUMPI PUSH1 0x0 DUP1 REVERT JUMPDEST DUP3 CALLDATALOAD PUSH2 0x3A69 DUP2 PUSH2 0x343F JUMP JUMPDEST SWAP2 POP PUSH1 0x20 DUP4 ADD CALLDATALOAD PUSH2 0x3689 DUP2 PUSH2 0x3A3D JUMP JUMPDEST PUSH4 0x4E487B71 PUSH1 0xE0 SHL PUSH1 0x0 MSTORE PUSH1 0x11 PUSH1 0x4 MSTORE PUSH1 0x24 PUSH1 0x0 REVERT JUMPDEST DUP2 DUP2 SUB DUP2 DUP2 GT ISZERO PUSH2 0xB29 JUMPI PUSH2 0xB29 PUSH2 0x3A79 JUMP JUMPDEST PUSH1 0x1 DUP2 DUP2 SHR SWAP1 DUP3 AND DUP1 PUSH2 0x3AB6 JUMPI PUSH1 0x7F DUP3 AND SWAP2 POP JUMPDEST PUSH1 0x20 DUP3 LT DUP2 SUB PUSH2 0x29E5 JUMPI PUSH4 0x4E487B71 PUSH1 0xE0 SHL PUSH1 0x0 MSTORE PUSH1 0x22 PUSH1 0x4 MSTORE PUSH1 0x24 PUSH1 0x0 REVERT JUMPDEST PUSH1 0xFF DUP2 DUP2 AND DUP4 DUP3 AND ADD SWAP1 DUP2 GT ISZERO PUSH2 0xB29 JUMPI PUSH2 0xB29 PUSH2 0x3A79 JUMP JUMPDEST DUP1 DUP3 MUL DUP2 ISZERO DUP3 DUP3 DIV DUP5 EQ OR PUSH2 0xB29 JUMPI PUSH2 0xB29 PUSH2 0x3A79 JUMP JUMPDEST PUSH4 0x4E487B71 PUSH1 0xE0 SHL PUSH1 0x0 MSTORE PUSH1 0x12 PUSH1 0x4 MSTORE PUSH1 0x24 PUSH1 0x0 REVERT JUMPDEST PUSH1 0x0 DUP3 PUSH2 0x3B2B JUMPI PUSH2 0x3B2B PUSH2 0x3B06 JUMP JUMPDEST POP DIV SWAP1 JUMP JUMPDEST PUSH4 0x4E487B71 PUSH1 0xE0 SHL PUSH1 0x0 MSTORE PUSH1 0x32 PUSH1 0x4 MSTORE PUSH1 0x24 PUSH1 0x0 REVERT JUMPDEST DUP1 DUP3 ADD DUP1 DUP3 GT ISZERO PUSH2 0xB29 JUMPI PUSH2 0xB29 PUSH2 0x3A79 JUMP JUMPDEST PUSH1 0x0 PUSH1 0x1 DUP3 ADD PUSH2 0x3B6B JUMPI PUSH2 0x3B6B PUSH2 0x3A79 JUMP JUMPDEST POP PUSH1 0x1 ADD SWAP1 JUMP JUMPDEST PUSH1 0x0 PUSH1 0x20 DUP3 DUP5 SUB SLT ISZERO PUSH2 0x3B84 JUMPI PUSH1 0x0 DUP1 REVERT JUMPDEST POP MLOAD SWAP2 SWAP1 POP JUMP JUMPDEST PUSH1 0x0 PUSH1 0x20 DUP3 DUP5 SUB SLT ISZERO PUSH2 0x3B9D JUMPI PUSH1 0x0 DUP1 REVERT JUMPDEST DUP2 MLOAD PUSH2 0xE36 DUP2 PUSH2 0x3A3D JUMP JUMPDEST PUSH1 0x40 DUP2 MSTORE PUSH1 0x0 PUSH2 0x3BBB PUSH1 0x40 DUP4 ADD DUP6 PUSH2 0x33CD JUMP JUMPDEST SWAP1 POP DUP3 PUSH1 0x20 DUP4 ADD MSTORE SWAP4 SWAP3 POP POP POP JUMP JUMPDEST PUSH4 0x4E487B71 PUSH1 0xE0 SHL PUSH1 0x0 MSTORE PUSH1 0x31 PUSH1 0x4 MSTORE PUSH1 0x24 PUSH1 0x0 REVERT JUMPDEST PUSH1 0x20 DUP1 DUP3 MSTORE DUP2 ADD DUP3 SWAP1 MSTORE PUSH1 0x0 PUSH1 0x1 PUSH1 0x1 PUSH1 0xFB SHL SUB DUP4 GT ISZERO PUSH2 0x3C00 JUMPI PUSH1 0x0 DUP1 REVERT JUMPDEST DUP3 PUSH1 0x5 SHL DUP1 DUP6 PUSH1 0x40 DUP6 ADD CALLDATACOPY SWAP2 SWAP1 SWAP2 ADD PUSH1 0x40 ADD SWAP4 SWAP3 POP POP POP JUMP JUMPDEST PUSH1 0x1 DUP2 DUP2 JUMPDEST DUP1 DUP6 GT ISZERO PUSH2 0x3C54 JUMPI DUP2 PUSH1 0x0 NOT DIV DUP3 GT ISZERO PUSH2 0x3C3A JUMPI PUSH2 0x3C3A PUSH2 0x3A79 JUMP JUMPDEST DUP1 DUP6 AND ISZERO PUSH2 0x3C47 JUMPI SWAP2 DUP2 MUL SWAP2 JUMPDEST SWAP4 DUP5 SHR SWAP4 SWAP1 DUP1 MUL SWAP1 PUSH2 0x3C1E JUMP JUMPDEST POP SWAP3 POP SWAP3 SWAP1 POP JUMP JUMPDEST PUSH1 0x0 DUP3 PUSH2 0x3C6B JUMPI POP PUSH1 0x1 PUSH2 0xB29 JUMP JUMPDEST DUP2 PUSH2 0x3C78 JUMPI POP PUSH1 0x0 PUSH2 0xB29 JUMP JUMPDEST DUP2 PUSH1 0x1 DUP2 EQ PUSH2 0x3C8E JUMPI PUSH1 0x2 DUP2 EQ PUSH2 0x3C98 JUMPI PUSH2 0x3CB4 JUMP JUMPDEST PUSH1 0x1 SWAP2 POP POP PUSH2 0xB29 JUMP JUMPDEST PUSH1 0xFF DUP5 GT ISZERO PUSH2 0x3CA9 JUMPI PUSH2 0x3CA9 PUSH2 0x3A79 JUMP JUMPDEST POP POP PUSH1 0x1 DUP3 SHL PUSH2 0xB29 JUMP JUMPDEST POP PUSH1 0x20 DUP4 LT PUSH2 0x133 DUP4 LT AND PUSH1 0x4E DUP5 LT PUSH1 0xB DUP5 LT AND OR ISZERO PUSH2 0x3CD7 JUMPI POP DUP2 DUP2 EXP PUSH2 0xB29 JUMP JUMPDEST PUSH2 0x3CE1 DUP4 DUP4 PUSH2 0x3C19 JUMP JUMPDEST DUP1 PUSH1 0x0 NOT DIV DUP3 GT ISZERO PUSH2 0x3CF5 JUMPI PUSH2 0x3CF5 PUSH2 0x3A79 JUMP JUMPDEST MUL SWAP4 SWAP3 POP POP POP JUMP JUMPDEST PUSH1 0x0 PUSH2 0xE36 PUSH1 0xFF DUP5 AND DUP4 PUSH2 0x3C5C JUMP JUMPDEST PUSH1 0x1 PUSH1 0x1 PUSH1 0xA0 SHL SUB SWAP4 SWAP1 SWAP4 AND DUP4 MSTORE PUSH1 0x20 DUP4 ADD SWAP2 SWAP1 SWAP2 MSTORE PUSH1 0x40 DUP3 ADD MSTORE PUSH1 0x60 ADD SWAP1 JUMP JUMPDEST PUSH4 0x4E487B71 PUSH1 0xE0 SHL PUSH1 0x0 MSTORE PUSH1 0x21 PUSH1 0x4 MSTORE PUSH1 0x24 PUSH1 0x0 REVERT JUMPDEST PUSH1 0x0 PUSH1 0xFF DUP4 AND DUP1 PUSH2 0x3D56 JUMPI PUSH2 0x3D56 PUSH2 0x3B06 JUMP JUMPDEST DUP1 PUSH1 0xFF DUP5 AND MOD SWAP2 POP POP SWAP3 SWAP2 POP POP JUMP INVALID 0xBF 0x23 RETURNDATASIZE 0xD2 0xAA INVALID 0xB4 0xD5 ADDMOD PUSH26 0xC4AA5C81E96D92F6E6945C906A58F9F2D1C1631B4B26241ECF16 0xD7 SWAP14 0xF DUP14 0xBF 0xB9 0x2C 0xBC SMOD INVALID OR DUP5 DIV 0x25 SWAP8 PUSH13 0xF0667F022FE9877CAA831B08A2 PUSH5 0x6970667358 0x22 SLT KECCAK256 SWAP4 0xC6 0xB4 0xD3 0xC7 0xC8 GT DIV PUSH18 0xC255E1AC5824383D02D2A9AD21987E8D3E43 SWAP10 0xEB 0xC6 GT EXTCODEHASH PUSH5 0x736F6C6343 STOP ADDMOD EQ STOP CALLER "},"methodIdentifiers":{"DEFAULT_ADMIN_ROLE()":"a217fddf","EMERGENCY_ROLE()":"20df4359","FEE_DENOMINATOR()":"d73792a9","MANAGER_ROLE()":"ec87621c","MAX_MANAGEMENT_FEE()":"9908840c","MAX_PERFORMANCE_FEE()":"bdca9165","SECONDS_PER_YEAR()":"e6a69ab8","STRATEGIST_ROLE()":"a378a324","addUnderlyingToken(address,uint256)":"53d05885","allowance(address,address)":"dd62ed3e","approve(address,uint256)":"095ea7b3","asset()":"38d52e0f","authorizedSenders(address)":"6f324967","autoRebalance()":"7a6efd47","balanceOf(address)":"70a08231","calculateManagementFee(uint256,uint256)":"835e9eb4","checkRebalanceNeeded()":"5fd4743a","collectManagementFees()":"710f20a2","convertToAssets(uint256)":"07a2d13a","convertToShares(uint256)":"c6e6f592","decimals()":"313ce567","deposit(uint256,address)":"6e553f65","emergencyPause()":"51858e27","emergencyUnpause()":"4a4e3bd5","emergencyWithdraw(address,uint256)":"95ccea67","emergencyWithdrawalRecipient()":"18bf4cf1","executeStrategy(string)":"77d60397","getAllocationRatios()":"6c969256","getLayerZeroEndpoint()":"cac18642","getRoleAdmin(bytes32)":"248a9ca3","getUnderlyingTokens()":"d95bd6c9","getVaultMetadata()":"18cdb546","grantRole(bytes32,address)":"2f2ff15d","harvest()":"4641257d","hasRole(bytes32,address)":"91d14854","highWaterMark()":"1e8410da","indexTokenId()":"dd26baad","initialize(address,string,string,uint256,uint256)":"1ca29139","initialize(address,uint256,address,string,string,address,address[],uint256[])":"dc784787","lastFeeCollection()":"17a9e198","lastHarvestTime()":"ceb0f626","lastRebalanceTime()":"d9ca21d5","lastTotalAssets()":"568efc07","layerZeroEndpoint()":"07968db1","managementFee()":"a6f7f5d6","managementFeeBps()":"3813c35a","manualRebalance(uint256,uint256,uint256)":"c38a04ba","maxDeposit(address)":"402d267d","maxMint(address)":"c63d75b6","maxRedeem(address)":"d905777e","maxWithdraw(address)":"ce96cb77","mint(uint256,address)":"94bf804d","name()":"06fdde03","pause()":"8456cb59","paused()":"5c975abb","performanceFee()":"87788782","performanceFeeBps()":"b9d4e879","previewDeposit(uint256)":"ef8b30f7","previewMint(uint256)":"b3d7f6b9","previewRedeem(uint256)":"4cdad506","previewWithdraw(uint256)":"0a28a477","rebalanceThreshold()":"3dfe9f6a","redeem(uint256,address,address)":"ba087652","removeUnderlyingToken(uint256)":"a8551336","renounceRole(bytes32,address)":"36568abe","revokeRole(bytes32,address)":"d547741f","setAuthorizedSender(address,bool)":"f3dfc2a9","setEmergencyRecipient(address)":"1b035932","setManagementFee(uint256)":"fe56e232","setPerformanceFee(uint256)":"70897b23","setTargetAllocations(uint256[])":"bbbaa299","setTrustedRemote(uint32,bytes32)":"2bda3e0b","supportsInterface(bytes4)":"01ffc9a7","symbol()":"95d89b41","targetAllocations(uint256)":"2775eee8","totalAssets()":"01e1d114","totalSupply()":"18160ddd","transfer(address,uint256)":"a9059cbb","transferFrom(address,address,uint256)":"23b872dd","trustedRemotes(uint32)":"1d187c50","underlyingTokens(uint256)":"a3bf224b","unpause()":"3f4ba83a","withdraw(uint256,address,address)":"b460af94"}}}}}